{
	"contracts/HashJingSVGStorage10.sol": {
		"TestStorage": {
			"abi": [
				{
					"inputs": [],
					"stateMutability": "nonpayable",
					"type": "constructor"
				},
				{
					"inputs": [],
					"name": "WriteError",
					"type": "error"
				},
				{
					"inputs": [],
					"name": "getPointer",
					"outputs": [
						{
							"internalType": "address",
							"name": "",
							"type": "address"
						}
					],
					"stateMutability": "view",
					"type": "function"
				},
				{
					"inputs": [],
					"name": "ptr",
					"outputs": [
						{
							"internalType": "address",
							"name": "",
							"type": "address"
						}
					],
					"stateMutability": "view",
					"type": "function"
				}
			],
			"devdoc": {
				"kind": "dev",
				"methods": {},
				"version": 1
			},
			"evm": {
				"assembly": "    /* \"contracts/HashJingSVGStorage10.sol\":83:12579  contract TestStorage {... */\n  mstore(0x40, 0xa0)\n    /* \"contracts/HashJingSVGStorage10.sol\":145:12490  constructor() {... */\n  callvalue\n  dup1\n  iszero\n  tag_1\n  jumpi\n  0x00\n  dup1\n  revert\ntag_1:\n  pop\n    /* \"contracts/HashJingSVGStorage10.sol\":175:12483  SSTORE2.write(hex\"37313930363739323135393134203137392e343132313535303738393831393320412034303020343030203020302031203332332e34343133303532363936303039203135392e323331343934323630363538204c203238352e3732393536363332333532312038382e363737373933313132373839363320412034383020343830203020302030203234352e3332363238383135303539303933203131322e3839343538363039343737383238205a222066696c6c3d22626c61636b22207374726f6b653d22626c61636b22207374726f6b652d77696474683d2231222f3e0a3c7061746820643d224d203333342e32313735323534333337323733203234352e393239373234303633313835353220412033323020333230203020302031203336312e3135333034343231353638303637203232392e3738353139353430383532363432204c203332332e34343133303532363936303039203135392e32333134393432363036353820412034303020343030203020302030203238392e3737313930363739323135393134203137392e3431323135353037383938313933205a222066696c6c3d22626c61636b22207374726f6b653d22626c61636b22207374726f6b652d77696474683d2231222f3e0a3c7061746820643d224d203337382e3636333134343037353239353436203331322e343437323933303437333839313720412032343020323430203020302031203339382e38363437383331363137363035203330302e3333383839363535363339343834204c203336312e3135333034343231353638303637203232392e373835313935343038353236343220412033323020333230203020302030203333342e32313735323534333337323733203234352e3932393732343036333138353532205a222066696c6c3d22626c61636b22207374726f6b653d22626c61636b22207374726f6b652d77696474683d2231222f3e0a3c7061746820643d224d203432332e31303837363237313638363337203337382e393634383632303331353932373620412031363020313630203020302031203433362e3537363532323130373834303333203337302e38393235393737303432363332204c203339382e38363437383331363137363035203330302e333338383936353536333934383420412032343020323430203020302030203337382e3636333134343037353239353436203331322e3434373239333034373338393137205a222066696c6c3d22626c61636b22207374726f6b653d22626c61636b22207374726f6b652d77696474683d2231222f3e0a3c7061746820643d224d203332332e34343133303532363936303039203135392e32333134393432363036353820412034303020343030203020302031203335382e39323636323730353339363339203134322e34343831383639393534383534204c203332382e33313139353234363437353636342036382e353337383234333934353832343620412034383020343830203020302030203238352e3732393536363332333532312038382e3637373739333131323738393633205a222066696c6c3d22626c61636b22207374726f6b653d22626c61636b22207374726f6b652d77696474683d2231222f3e0a3c7061746820643d224d203336312e3135333034343231353638303637203232392e373835313935343038353236343220412033323020333230203020302031203338392e35343133303136343331373131203231362e3335383534393539363338383334204c203335382e39323636323730353339363339203134322e3434383138363939353438353420412034303020343030203020302030203332332e34343133303532363936303039203135392e323331343934323630363538205a222066696c6c3d22626c61636b22207374726f6b653d22626c61636b22207374726f6b652d77696474683d2231222f3e0a3c7061746820643d224d203339382e38363437383331363137363035203330302e333338383936353536333934383420412032343020323430203020302031203432302e31353539373632333233373833203239302e3236383931323139373239313233204c203338392e35343133303136343331373131203231362e333538353439353936333838333420412033323020333230203020302030203336312e3135333034343231353638303637203232392e3738353139353430383532363432205a222066696c6c3d22626c61636b22207374726f6b653d22626c61636b22207374726f6b652d77696474683d2231222f3e0a3c7061746820643d224d203433362e3537363532323130373834303333203337302e3839323539373730343236333220412031363020313630203020302031203435302e3737303635303832313538353535203336342e31373932373437393831393432204c203432302e31353539373632333233373833203239302e323638393132313937323931323320412032343020323430203020302030203339382e38363437383331363137363035203330302e3333383839363535363339343834205a222066696c6c3d22626c61636b22207374726f6b653d22626c61636b22207374726f6b652d77696474683d2231222f3e0a3c7061746820643d224d203335382e39323636323730353339363339203134322e3434383138363939353438353420412034303020343030203020302031203339352e38383631323930393832313437203132392e3232333836353730373131363534204c203337322e36363333353439313738353736352035322e3636383633383834383533393920412034383020343830203020302030203332382e33313139353234363437353636342036382e3533373832343339343538323436205a222066696c6c3d22626c61636b22207374726f6b653d22626c61636b22207374726f6b652d77696474683d2231222f3e0a3c7061746820643d224d203338392e35343133303136343331373131203231362e333538353439353936333838333420412033323020333230203020302031203431392e3130383930333237383537313734203230352e3737393039323536353639333235204c203339352e38383631323930393832313437203132392e323233383635373037313136353420412034303020343030203020302030203335382e39323636323730353339363339203134322e34343831383639393534383534205a222066696c6c3d22626c61636b22207374726f6b653d22626c61636b22207374726f6b652d77696474683d2231222f3e0a3c7061746820643d224d203432302e31353539373632333233373833203239302e323638393132313937323931323320412032343020323430203020302031203434322e33333136373734353839323838203238322e3333343331393432343236393935204c203431392e3130383930333237383537313734203230352e373739303932353635363933323520412033323020333230203020302030203338392e35343133303136343331373131203231362e3335383534393539363338383334205a222066696c6c3d22626c61636b22207374726f6b653d22626c61636b22207374726f6b652d77696474683d2231222f3e0a3c7061746820643d224d203435302e3737303635303832313538353535203336342e3137393237343739383139343220412031363020313630203020302031203436352e3535343435313633393238353834203335382e38383935343632383238343636204c203434322e33333136373734353839323838203238322e333334333139343234323639393520412032343020323430203020302030203432302e31353539373632333233373833203239302e3236383931323139373239313233205a222066696c6c3d22626c61636b22207374726f6b653d22626c61636b22207374726f6b652d77696474683d2231222f3e0a3c7061746820643d224d203339352e3838363132393039383231353036203132392e3232333836353730373131363520412034303020343030203020302031203433332e39363338373131393335343835203131392e3638353838373833383730373836204c203431382e33353636343534333232353832332034312e323233303635343036343439343520412034383020343830203020302030203337322e36363333353439313738353830342035322e363638363338383438353339373836205a222066696c6c3d22626c61636b22207374726f6b653d22626c61636b22207374726f6b652d77696474683d2231222f3e0a3c7061746820643d224d203431392e3130383930333237383537323033203230352e3737393039323536353639333220412033323020333230203020302031203434392e35373130393639353438333838203139382e3134383731303237303936363332204c203433332e39363338373131393335343835203131392e363835383837383338373037383620412034303020343030203020302030203339352e3838363132393039383231353036203132392e32323338363537303731313635205a222066696c6c3d22626c61636b22207374726f6b653d22626c61636b22207374726f6b652d77696474683d2231222f3e0a3c7061746820643d224d203434322e333331363737343538393239203238322e3333343331393432343236393920412032343020323430203020302031203436352e31373833323237313631323931203237362e36313135333237303332323437204c203434392e35373130393639353438333838203139382e313438373130323730393636333220412033323020333230203020302030203431392e3130383930333237383537323033203230352e37373930393235363536393332205a222066696c6c3d22626c61636b22207374726f6b653d22626c61636b22207374726f6b652d77696474683d2231222f3e0a3c7061746820643d224d203436352e353534343531363339323836203335382e3838393534363238323834363620412031363020313630203020302031203438302e37383535343834373734313934203335352e30373433353531333534383332204c203436352e31373833323237313631323931203237362e3631313533323730333232343720412032343020323430203020302030203434322e333331363737343538393239203238322e33333433313934323432363939205a222066696c6c3d22626c61636b22207374726f6b653d22626c61636b22207374726f6b652d77696474683d2231222f3e0a3c7061746820643d224d203433332e39363338373131393335343835203131392e363835383837383338373037383620412034303020343030203020302031203437322e37393331343338363831373535203131332e3932363130393333313132313237204c203436342e393531373732363431383130362033342e333131333331313937333435353120412034383020343830203020302030203431382e33353636343534333232353832332034312e3232333036353430363434393435205a222066696c6c3d22626c61636b22207374726f6b653d22626c61636b22207374726f6b652d77696474683d2231222f3e0a3c7061746820643d224d203434392e35373130393639353438333838203139382e313438373130323730393636333220412033323020333230203020302031203438302e3633343531353039343534303335203139332e3534303838373436343839373033204c203437322e37393331343338363831373535203131332e393236313039333331313231323720412034303020343030203020302030203433332e39363338373131393335343835203131392e3638353838373833383730373836205a222066696c6c3d22626c61636b22207374726f6b653d22626c61636b22207374726f6b652d77696474683d2231222f3e0a3c7061746820643d224d203436352e31373833323237313631323931203237362e3631313533323730333232343720412032343020323430203020302031203438382e3437353838363332303930353236203237332e31353536363535393836373237204c203438302e3633343531353039343534303335203139332e353430383837343634383937303320412033323020333230203020302030203434392e35373130393639353438333838203139382e3134383731303237303936363332205a222066696c6c3d22626c61636b22207374726f6b653d22626c61636b22207374726f6b652d77696474683d2231222f3e0a3c7061746820643d224d203438302e37383535343834373734313934203335352e3037343335353133353438333220412031363020313630203020302031203439362e33313732353735343732373032203335322e37373034343337333234343835204c203438382e3437353838363332303930353236203237332e3135353636353539383637323720412032343020323430203020302030203436352e31373833323237313631323931203237362e36313135333237303332323437205a222066696c6c3d22626c61636b22207374726f6b653d22626c61636b22207374726f6b652d77696474683d2231222f3e0a3c7061746820643d224d203437322e3739333134333836383137353833203131332e393236313039333331313231323120412034303020343030203020302031203531312e393939393939393939393939393420313132204c203531312e3939393939393939393939393920333220412034383020343830203020302030203436342e3935313737323634313831312033342e3331313333313139373334353435205a222066696c6c3d22626c61636b22207374726f6b653d22626c61636b22207374726f6b652d77696474683d2231222f3e0a3c7061746820643d224d203438302e3633343531353039343534303633203139332e353430383837343634383936393720412033323020333230203020302031203531312e393939393939393939393939393420313932204c203531312e39393939393939393939393939342031313220412034303020343030203020302030203437322e3739333134333836383137353833203131332e3932363130393333313132313231205a222066696c6c3d22626c61636b22207374726f6b653d22626c61636b22207374726f6b652d77696474683d2231222f3e0a3c7061746820643d224d203438382e34373538383633323039303535203237332e3135353636353539383637323720412032343020323430203020302031203531312e393939393939393939393939393420323732204c203531312e39393939393939393939393939342031393220412033323020333230203020302030203438302e3633343531353039343534303633203139332e3534303838373436343839363937205a222066696c6c3d22626c61636b22207374726f6b653d22626c61636b22207374726f6b652d77696474683d2231222f3e0a3c7061746820643d224d203439362e3331373235373534373237303334203335322e3737303434333733323434383520412031363020313630203020302031203531312e393939393939393939393939393420333532204c203531312e39393939393939393939393939342032373220412032343020323430203020302030203438382e34373538383633323039303535203237332e31353536363535393836373237205a222066696c6c3d22626c61636b22207374726f6b653d22626c61636b22207374726f6b652d77696474683d2231222f3e0a3c7465787420783d223531322220793d223436352220666f6e742d73697a653d223232222066696c6c3d2277686974652220746578742d616e63686f723d226d6964646c652220666f6e742d66616d696c793d226d6f6e6f7370616365223e303030303030303030303030303030303c2f746578743e0a3c7465787420783d223531322220793d223530312220666f6e742d73697a653d223232222066696c6c3d2277686974652220746578742d616e63686f723d226d6964646c652220666f6e742d66616d696c793d226d6f6e6f7370616365223e303030303030303030303030303030303c2f746578743e0a3c7465787420783d223531322220793d223533372220666f6e742d73697a653d223232222066696c6c3d2277686974652220746578742d616e63686f723d226d6964646c652220666f6e742d66616d696c793d226d6f6e6f7370616365223e303030303030303030303030303030303c2f746578743e0a3c7465787420783d223531322220793d223537332220666f6e742d73697a653d223232222066696c6c3d2277686974652220746578742d616e63686f723d226d6964646c652220666f6e742d66616d696c793d226d6f6e6f7370616365223e30303030303030\") */\n  tag_4\n  mload(0x40)\n  dup1\n  0x1820\n  add\n  0x40\n  mstore\n  dup1\n  0x1800\n  dup2\n  mstore\n  0x20\n  add\n  data_e14db8c7aea17d776089b3745e016f54f683c12e3143946345f23d8082e833aa\n  0x1800\n  swap2\n  codecopy\n    /* \"contracts/HashJingSVGStorage10.sol\":175:188  SSTORE2.write */\n  shl(0x20, tag_5)\n    /* \"contracts/HashJingSVGStorage10.sol\":175:12483  SSTORE2.write(hex\"37313930363739323135393134203137392e343132313535303738393831393320412034303020343030203020302031203332332e34343133303532363936303039203135392e323331343934323630363538204c203238352e3732393536363332333532312038382e363737373933313132373839363320412034383020343830203020302030203234352e3332363238383135303539303933203131322e3839343538363039343737383238205a222066696c6c3d22626c61636b22207374726f6b653d22626c61636b22207374726f6b652d77696474683d2231222f3e0a3c7061746820643d224d203333342e32313735323534333337323733203234352e393239373234303633313835353220412033323020333230203020302031203336312e3135333034343231353638303637203232392e3738353139353430383532363432204c203332332e34343133303532363936303039203135392e32333134393432363036353820412034303020343030203020302030203238392e3737313930363739323135393134203137392e3431323135353037383938313933205a222066696c6c3d22626c61636b22207374726f6b653d22626c61636b22207374726f6b652d77696474683d2231222f3e0a3c7061746820643d224d203337382e3636333134343037353239353436203331322e343437323933303437333839313720412032343020323430203020302031203339382e38363437383331363137363035203330302e3333383839363535363339343834204c203336312e3135333034343231353638303637203232392e373835313935343038353236343220412033323020333230203020302030203333342e32313735323534333337323733203234352e3932393732343036333138353532205a222066696c6c3d22626c61636b22207374726f6b653d22626c61636b22207374726f6b652d77696474683d2231222f3e0a3c7061746820643d224d203432332e31303837363237313638363337203337382e393634383632303331353932373620412031363020313630203020302031203433362e3537363532323130373834303333203337302e38393235393737303432363332204c203339382e38363437383331363137363035203330302e333338383936353536333934383420412032343020323430203020302030203337382e3636333134343037353239353436203331322e3434373239333034373338393137205a222066696c6c3d22626c61636b22207374726f6b653d22626c61636b22207374726f6b652d77696474683d2231222f3e0a3c7061746820643d224d203332332e34343133303532363936303039203135392e32333134393432363036353820412034303020343030203020302031203335382e39323636323730353339363339203134322e34343831383639393534383534204c203332382e33313139353234363437353636342036382e353337383234333934353832343620412034383020343830203020302030203238352e3732393536363332333532312038382e3637373739333131323738393633205a222066696c6c3d22626c61636b22207374726f6b653d22626c61636b22207374726f6b652d77696474683d2231222f3e0a3c7061746820643d224d203336312e3135333034343231353638303637203232392e373835313935343038353236343220412033323020333230203020302031203338392e35343133303136343331373131203231362e3335383534393539363338383334204c203335382e39323636323730353339363339203134322e3434383138363939353438353420412034303020343030203020302030203332332e34343133303532363936303039203135392e323331343934323630363538205a222066696c6c3d22626c61636b22207374726f6b653d22626c61636b22207374726f6b652d77696474683d2231222f3e0a3c7061746820643d224d203339382e38363437383331363137363035203330302e333338383936353536333934383420412032343020323430203020302031203432302e31353539373632333233373833203239302e3236383931323139373239313233204c203338392e35343133303136343331373131203231362e333538353439353936333838333420412033323020333230203020302030203336312e3135333034343231353638303637203232392e3738353139353430383532363432205a222066696c6c3d22626c61636b22207374726f6b653d22626c61636b22207374726f6b652d77696474683d2231222f3e0a3c7061746820643d224d203433362e3537363532323130373834303333203337302e3839323539373730343236333220412031363020313630203020302031203435302e3737303635303832313538353535203336342e31373932373437393831393432204c203432302e31353539373632333233373833203239302e323638393132313937323931323320412032343020323430203020302030203339382e38363437383331363137363035203330302e3333383839363535363339343834205a222066696c6c3d22626c61636b22207374726f6b653d22626c61636b22207374726f6b652d77696474683d2231222f3e0a3c7061746820643d224d203335382e39323636323730353339363339203134322e3434383138363939353438353420412034303020343030203020302031203339352e38383631323930393832313437203132392e3232333836353730373131363534204c203337322e36363333353439313738353736352035322e3636383633383834383533393920412034383020343830203020302030203332382e33313139353234363437353636342036382e3533373832343339343538323436205a222066696c6c3d22626c61636b22207374726f6b653d22626c61636b22207374726f6b652d77696474683d2231222f3e0a3c7061746820643d224d203338392e35343133303136343331373131203231362e333538353439353936333838333420412033323020333230203020302031203431392e3130383930333237383537313734203230352e3737393039323536353639333235204c203339352e38383631323930393832313437203132392e323233383635373037313136353420412034303020343030203020302030203335382e39323636323730353339363339203134322e34343831383639393534383534205a222066696c6c3d22626c61636b22207374726f6b653d22626c61636b22207374726f6b652d77696474683d2231222f3e0a3c7061746820643d224d203432302e31353539373632333233373833203239302e323638393132313937323931323320412032343020323430203020302031203434322e33333136373734353839323838203238322e3333343331393432343236393935204c203431392e3130383930333237383537313734203230352e373739303932353635363933323520412033323020333230203020302030203338392e35343133303136343331373131203231362e3335383534393539363338383334205a222066696c6c3d22626c61636b22207374726f6b653d22626c61636b22207374726f6b652d77696474683d2231222f3e0a3c7061746820643d224d203435302e3737303635303832313538353535203336342e3137393237343739383139343220412031363020313630203020302031203436352e3535343435313633393238353834203335382e38383935343632383238343636204c203434322e33333136373734353839323838203238322e333334333139343234323639393520412032343020323430203020302030203432302e31353539373632333233373833203239302e3236383931323139373239313233205a222066696c6c3d22626c61636b22207374726f6b653d22626c61636b22207374726f6b652d77696474683d2231222f3e0a3c7061746820643d224d203339352e3838363132393039383231353036203132392e3232333836353730373131363520412034303020343030203020302031203433332e39363338373131393335343835203131392e3638353838373833383730373836204c203431382e33353636343534333232353832332034312e323233303635343036343439343520412034383020343830203020302030203337322e36363333353439313738353830342035322e363638363338383438353339373836205a222066696c6c3d22626c61636b22207374726f6b653d22626c61636b22207374726f6b652d77696474683d2231222f3e0a3c7061746820643d224d203431392e3130383930333237383537323033203230352e3737393039323536353639333220412033323020333230203020302031203434392e35373130393639353438333838203139382e3134383731303237303936363332204c203433332e39363338373131393335343835203131392e363835383837383338373037383620412034303020343030203020302030203339352e3838363132393039383231353036203132392e32323338363537303731313635205a222066696c6c3d22626c61636b22207374726f6b653d22626c61636b22207374726f6b652d77696474683d2231222f3e0a3c7061746820643d224d203434322e333331363737343538393239203238322e3333343331393432343236393920412032343020323430203020302031203436352e31373833323237313631323931203237362e36313135333237303332323437204c203434392e35373130393639353438333838203139382e313438373130323730393636333220412033323020333230203020302030203431392e3130383930333237383537323033203230352e37373930393235363536393332205a222066696c6c3d22626c61636b22207374726f6b653d22626c61636b22207374726f6b652d77696474683d2231222f3e0a3c7061746820643d224d203436352e353534343531363339323836203335382e3838393534363238323834363620412031363020313630203020302031203438302e37383535343834373734313934203335352e30373433353531333534383332204c203436352e31373833323237313631323931203237362e3631313533323730333232343720412032343020323430203020302030203434322e333331363737343538393239203238322e33333433313934323432363939205a222066696c6c3d22626c61636b22207374726f6b653d22626c61636b22207374726f6b652d77696474683d2231222f3e0a3c7061746820643d224d203433332e39363338373131393335343835203131392e363835383837383338373037383620412034303020343030203020302031203437322e37393331343338363831373535203131332e3932363130393333313132313237204c203436342e393531373732363431383130362033342e333131333331313937333435353120412034383020343830203020302030203431382e33353636343534333232353832332034312e3232333036353430363434393435205a222066696c6c3d22626c61636b22207374726f6b653d22626c61636b22207374726f6b652d77696474683d2231222f3e0a3c7061746820643d224d203434392e35373130393639353438333838203139382e313438373130323730393636333220412033323020333230203020302031203438302e3633343531353039343534303335203139332e3534303838373436343839373033204c203437322e37393331343338363831373535203131332e393236313039333331313231323720412034303020343030203020302030203433332e39363338373131393335343835203131392e3638353838373833383730373836205a222066696c6c3d22626c61636b22207374726f6b653d22626c61636b22207374726f6b652d77696474683d2231222f3e0a3c7061746820643d224d203436352e31373833323237313631323931203237362e3631313533323730333232343720412032343020323430203020302031203438382e3437353838363332303930353236203237332e31353536363535393836373237204c203438302e3633343531353039343534303335203139332e353430383837343634383937303320412033323020333230203020302030203434392e35373130393639353438333838203139382e3134383731303237303936363332205a222066696c6c3d22626c61636b22207374726f6b653d22626c61636b22207374726f6b652d77696474683d2231222f3e0a3c7061746820643d224d203438302e37383535343834373734313934203335352e3037343335353133353438333220412031363020313630203020302031203439362e33313732353735343732373032203335322e37373034343337333234343835204c203438382e3437353838363332303930353236203237332e3135353636353539383637323720412032343020323430203020302030203436352e31373833323237313631323931203237362e36313135333237303332323437205a222066696c6c3d22626c61636b22207374726f6b653d22626c61636b22207374726f6b652d77696474683d2231222f3e0a3c7061746820643d224d203437322e3739333134333836383137353833203131332e393236313039333331313231323120412034303020343030203020302031203531312e393939393939393939393939393420313132204c203531312e3939393939393939393939393920333220412034383020343830203020302030203436342e3935313737323634313831312033342e3331313333313139373334353435205a222066696c6c3d22626c61636b22207374726f6b653d22626c61636b22207374726f6b652d77696474683d2231222f3e0a3c7061746820643d224d203438302e3633343531353039343534303633203139332e353430383837343634383936393720412033323020333230203020302031203531312e393939393939393939393939393420313932204c203531312e39393939393939393939393939342031313220412034303020343030203020302030203437322e3739333134333836383137353833203131332e3932363130393333313132313231205a222066696c6c3d22626c61636b22207374726f6b653d22626c61636b22207374726f6b652d77696474683d2231222f3e0a3c7061746820643d224d203438382e34373538383633323039303535203237332e3135353636353539383637323720412032343020323430203020302031203531312e393939393939393939393939393420323732204c203531312e39393939393939393939393939342031393220412033323020333230203020302030203438302e3633343531353039343534303633203139332e3534303838373436343839363937205a222066696c6c3d22626c61636b22207374726f6b653d22626c61636b22207374726f6b652d77696474683d2231222f3e0a3c7061746820643d224d203439362e3331373235373534373237303334203335322e3737303434333733323434383520412031363020313630203020302031203531312e393939393939393939393939393420333532204c203531312e39393939393939393939393939342032373220412032343020323430203020302030203438382e34373538383633323039303535203237332e31353536363535393836373237205a222066696c6c3d22626c61636b22207374726f6b653d22626c61636b22207374726f6b652d77696474683d2231222f3e0a3c7465787420783d223531322220793d223436352220666f6e742d73697a653d223232222066696c6c3d2277686974652220746578742d616e63686f723d226d6964646c652220666f6e742d66616d696c793d226d6f6e6f7370616365223e303030303030303030303030303030303c2f746578743e0a3c7465787420783d223531322220793d223530312220666f6e742d73697a653d223232222066696c6c3d2277686974652220746578742d616e63686f723d226d6964646c652220666f6e742d66616d696c793d226d6f6e6f7370616365223e303030303030303030303030303030303c2f746578743e0a3c7465787420783d223531322220793d223533372220666f6e742d73697a653d223232222066696c6c3d2277686974652220746578742d616e63686f723d226d6964646c652220666f6e742d66616d696c793d226d6f6e6f7370616365223e303030303030303030303030303030303c2f746578743e0a3c7465787420783d223531322220793d223537332220666f6e742d73697a653d223232222066696c6c3d2277686974652220746578742d616e63686f723d226d6964646c652220666f6e742d66616d696c793d226d6f6e6f7370616365223e30303030303030\") */\n  0x20\n  shr\n  jump\t// in\ntag_4:\n    /* \"contracts/HashJingSVGStorage10.sol\":169:12483  ptr = SSTORE2.write(hex\"37313930363739323135393134203137392e343132313535303738393831393320412034303020343030203020302031203332332e34343133303532363936303039203135392e323331343934323630363538204c203238352e3732393536363332333532312038382e363737373933313132373839363320412034383020343830203020302030203234352e3332363238383135303539303933203131322e3839343538363039343737383238205a222066696c6c3d22626c61636b22207374726f6b653d22626c61636b22207374726f6b652d77696474683d2231222f3e0a3c7061746820643d224d203333342e32313735323534333337323733203234352e393239373234303633313835353220412033323020333230203020302031203336312e3135333034343231353638303637203232392e3738353139353430383532363432204c203332332e34343133303532363936303039203135392e32333134393432363036353820412034303020343030203020302030203238392e3737313930363739323135393134203137392e3431323135353037383938313933205a222066696c6c3d22626c61636b22207374726f6b653d22626c61636b22207374726f6b652d77696474683d2231222f3e0a3c7061746820643d224d203337382e3636333134343037353239353436203331322e343437323933303437333839313720412032343020323430203020302031203339382e38363437383331363137363035203330302e3333383839363535363339343834204c203336312e3135333034343231353638303637203232392e373835313935343038353236343220412033323020333230203020302030203333342e32313735323534333337323733203234352e3932393732343036333138353532205a222066696c6c3d22626c61636b22207374726f6b653d22626c61636b22207374726f6b652d77696474683d2231222f3e0a3c7061746820643d224d203432332e31303837363237313638363337203337382e393634383632303331353932373620412031363020313630203020302031203433362e3537363532323130373834303333203337302e38393235393737303432363332204c203339382e38363437383331363137363035203330302e333338383936353536333934383420412032343020323430203020302030203337382e3636333134343037353239353436203331322e3434373239333034373338393137205a222066696c6c3d22626c61636b22207374726f6b653d22626c61636b22207374726f6b652d77696474683d2231222f3e0a3c7061746820643d224d203332332e34343133303532363936303039203135392e32333134393432363036353820412034303020343030203020302031203335382e39323636323730353339363339203134322e34343831383639393534383534204c203332382e33313139353234363437353636342036382e353337383234333934353832343620412034383020343830203020302030203238352e3732393536363332333532312038382e3637373739333131323738393633205a222066696c6c3d22626c61636b22207374726f6b653d22626c61636b22207374726f6b652d77696474683d2231222f3e0a3c7061746820643d224d203336312e3135333034343231353638303637203232392e373835313935343038353236343220412033323020333230203020302031203338392e35343133303136343331373131203231362e3335383534393539363338383334204c203335382e39323636323730353339363339203134322e3434383138363939353438353420412034303020343030203020302030203332332e34343133303532363936303039203135392e323331343934323630363538205a222066696c6c3d22626c61636b22207374726f6b653d22626c61636b22207374726f6b652d77696474683d2231222f3e0a3c7061746820643d224d203339382e38363437383331363137363035203330302e333338383936353536333934383420412032343020323430203020302031203432302e31353539373632333233373833203239302e3236383931323139373239313233204c203338392e35343133303136343331373131203231362e333538353439353936333838333420412033323020333230203020302030203336312e3135333034343231353638303637203232392e3738353139353430383532363432205a222066696c6c3d22626c61636b22207374726f6b653d22626c61636b22207374726f6b652d77696474683d2231222f3e0a3c7061746820643d224d203433362e3537363532323130373834303333203337302e3839323539373730343236333220412031363020313630203020302031203435302e3737303635303832313538353535203336342e31373932373437393831393432204c203432302e31353539373632333233373833203239302e323638393132313937323931323320412032343020323430203020302030203339382e38363437383331363137363035203330302e3333383839363535363339343834205a222066696c6c3d22626c61636b22207374726f6b653d22626c61636b22207374726f6b652d77696474683d2231222f3e0a3c7061746820643d224d203335382e39323636323730353339363339203134322e3434383138363939353438353420412034303020343030203020302031203339352e38383631323930393832313437203132392e3232333836353730373131363534204c203337322e36363333353439313738353736352035322e3636383633383834383533393920412034383020343830203020302030203332382e33313139353234363437353636342036382e3533373832343339343538323436205a222066696c6c3d22626c61636b22207374726f6b653d22626c61636b22207374726f6b652d77696474683d2231222f3e0a3c7061746820643d224d203338392e35343133303136343331373131203231362e333538353439353936333838333420412033323020333230203020302031203431392e3130383930333237383537313734203230352e3737393039323536353639333235204c203339352e38383631323930393832313437203132392e323233383635373037313136353420412034303020343030203020302030203335382e39323636323730353339363339203134322e34343831383639393534383534205a222066696c6c3d22626c61636b22207374726f6b653d22626c61636b22207374726f6b652d77696474683d2231222f3e0a3c7061746820643d224d203432302e31353539373632333233373833203239302e323638393132313937323931323320412032343020323430203020302031203434322e33333136373734353839323838203238322e3333343331393432343236393935204c203431392e3130383930333237383537313734203230352e373739303932353635363933323520412033323020333230203020302030203338392e35343133303136343331373131203231362e3335383534393539363338383334205a222066696c6c3d22626c61636b22207374726f6b653d22626c61636b22207374726f6b652d77696474683d2231222f3e0a3c7061746820643d224d203435302e3737303635303832313538353535203336342e3137393237343739383139343220412031363020313630203020302031203436352e3535343435313633393238353834203335382e38383935343632383238343636204c203434322e33333136373734353839323838203238322e333334333139343234323639393520412032343020323430203020302030203432302e31353539373632333233373833203239302e3236383931323139373239313233205a222066696c6c3d22626c61636b22207374726f6b653d22626c61636b22207374726f6b652d77696474683d2231222f3e0a3c7061746820643d224d203339352e3838363132393039383231353036203132392e3232333836353730373131363520412034303020343030203020302031203433332e39363338373131393335343835203131392e3638353838373833383730373836204c203431382e33353636343534333232353832332034312e323233303635343036343439343520412034383020343830203020302030203337322e36363333353439313738353830342035322e363638363338383438353339373836205a222066696c6c3d22626c61636b22207374726f6b653d22626c61636b22207374726f6b652d77696474683d2231222f3e0a3c7061746820643d224d203431392e3130383930333237383537323033203230352e3737393039323536353639333220412033323020333230203020302031203434392e35373130393639353438333838203139382e3134383731303237303936363332204c203433332e39363338373131393335343835203131392e363835383837383338373037383620412034303020343030203020302030203339352e3838363132393039383231353036203132392e32323338363537303731313635205a222066696c6c3d22626c61636b22207374726f6b653d22626c61636b22207374726f6b652d77696474683d2231222f3e0a3c7061746820643d224d203434322e333331363737343538393239203238322e3333343331393432343236393920412032343020323430203020302031203436352e31373833323237313631323931203237362e36313135333237303332323437204c203434392e35373130393639353438333838203139382e313438373130323730393636333220412033323020333230203020302030203431392e3130383930333237383537323033203230352e37373930393235363536393332205a222066696c6c3d22626c61636b22207374726f6b653d22626c61636b22207374726f6b652d77696474683d2231222f3e0a3c7061746820643d224d203436352e353534343531363339323836203335382e3838393534363238323834363620412031363020313630203020302031203438302e37383535343834373734313934203335352e30373433353531333534383332204c203436352e31373833323237313631323931203237362e3631313533323730333232343720412032343020323430203020302030203434322e333331363737343538393239203238322e33333433313934323432363939205a222066696c6c3d22626c61636b22207374726f6b653d22626c61636b22207374726f6b652d77696474683d2231222f3e0a3c7061746820643d224d203433332e39363338373131393335343835203131392e363835383837383338373037383620412034303020343030203020302031203437322e37393331343338363831373535203131332e3932363130393333313132313237204c203436342e393531373732363431383130362033342e333131333331313937333435353120412034383020343830203020302030203431382e33353636343534333232353832332034312e3232333036353430363434393435205a222066696c6c3d22626c61636b22207374726f6b653d22626c61636b22207374726f6b652d77696474683d2231222f3e0a3c7061746820643d224d203434392e35373130393639353438333838203139382e313438373130323730393636333220412033323020333230203020302031203438302e3633343531353039343534303335203139332e3534303838373436343839373033204c203437322e37393331343338363831373535203131332e393236313039333331313231323720412034303020343030203020302030203433332e39363338373131393335343835203131392e3638353838373833383730373836205a222066696c6c3d22626c61636b22207374726f6b653d22626c61636b22207374726f6b652d77696474683d2231222f3e0a3c7061746820643d224d203436352e31373833323237313631323931203237362e3631313533323730333232343720412032343020323430203020302031203438382e3437353838363332303930353236203237332e31353536363535393836373237204c203438302e3633343531353039343534303335203139332e353430383837343634383937303320412033323020333230203020302030203434392e35373130393639353438333838203139382e3134383731303237303936363332205a222066696c6c3d22626c61636b22207374726f6b653d22626c61636b22207374726f6b652d77696474683d2231222f3e0a3c7061746820643d224d203438302e37383535343834373734313934203335352e3037343335353133353438333220412031363020313630203020302031203439362e33313732353735343732373032203335322e37373034343337333234343835204c203438382e3437353838363332303930353236203237332e3135353636353539383637323720412032343020323430203020302030203436352e31373833323237313631323931203237362e36313135333237303332323437205a222066696c6c3d22626c61636b22207374726f6b653d22626c61636b22207374726f6b652d77696474683d2231222f3e0a3c7061746820643d224d203437322e3739333134333836383137353833203131332e393236313039333331313231323120412034303020343030203020302031203531312e393939393939393939393939393420313132204c203531312e3939393939393939393939393920333220412034383020343830203020302030203436342e3935313737323634313831312033342e3331313333313139373334353435205a222066696c6c3d22626c61636b22207374726f6b653d22626c61636b22207374726f6b652d77696474683d2231222f3e0a3c7061746820643d224d203438302e3633343531353039343534303633203139332e353430383837343634383936393720412033323020333230203020302031203531312e393939393939393939393939393420313932204c203531312e39393939393939393939393939342031313220412034303020343030203020302030203437322e3739333134333836383137353833203131332e3932363130393333313132313231205a222066696c6c3d22626c61636b22207374726f6b653d22626c61636b22207374726f6b652d77696474683d2231222f3e0a3c7061746820643d224d203438382e34373538383633323039303535203237332e3135353636353539383637323720412032343020323430203020302031203531312e393939393939393939393939393420323732204c203531312e39393939393939393939393939342031393220412033323020333230203020302030203438302e3633343531353039343534303633203139332e3534303838373436343839363937205a222066696c6c3d22626c61636b22207374726f6b653d22626c61636b22207374726f6b652d77696474683d2231222f3e0a3c7061746820643d224d203439362e3331373235373534373237303334203335322e3737303434333733323434383520412031363020313630203020302031203531312e393939393939393939393939393420333532204c203531312e39393939393939393939393939342032373220412032343020323430203020302030203438382e34373538383633323039303535203237332e31353536363535393836373237205a222066696c6c3d22626c61636b22207374726f6b653d22626c61636b22207374726f6b652d77696474683d2231222f3e0a3c7465787420783d223531322220793d223436352220666f6e742d73697a653d223232222066696c6c3d2277686974652220746578742d616e63686f723d226d6964646c652220666f6e742d66616d696c793d226d6f6e6f7370616365223e303030303030303030303030303030303c2f746578743e0a3c7465787420783d223531322220793d223530312220666f6e742d73697a653d223232222066696c6c3d2277686974652220746578742d616e63686f723d226d6964646c652220666f6e742d66616d696c793d226d6f6e6f7370616365223e303030303030303030303030303030303c2f746578743e0a3c7465787420783d223531322220793d223533372220666f6e742d73697a653d223232222066696c6c3d2277686974652220746578742d616e63686f723d226d6964646c652220666f6e742d66616d696c793d226d6f6e6f7370616365223e303030303030303030303030303030303c2f746578743e0a3c7465787420783d223531322220793d223537332220666f6e742d73697a653d223232222066696c6c3d2277686974652220746578742d616e63686f723d226d6964646c652220666f6e742d66616d696c793d226d6f6e6f7370616365223e30303030303030\") */\n  0xffffffffffffffffffffffffffffffffffffffff\n  and\n  0x80\n  dup2\n  0xffffffffffffffffffffffffffffffffffffffff\n  and\n  dup2\n  mstore\n  pop\n  pop\n    /* \"contracts/HashJingSVGStorage10.sol\":83:12579  contract TestStorage {... */\n  jump(tag_6)\n    /* \"contracts/SSTORE2.sol\":583:1043  function write(bytes memory _data) internal returns (address pointer) {... */\ntag_5:\n    /* \"contracts/SSTORE2.sol\":636:651  address pointer */\n  0x00\n    /* \"contracts/SSTORE2.sol\":736:753  bytes memory code */\n  dup1\n    /* \"contracts/SSTORE2.sol\":756:850  Bytecode.creationCodeFor(... */\n  tag_8\n    /* \"contracts/SSTORE2.sol\":831:836  _data */\n  dup4\n    /* \"contracts/SSTORE2.sol\":788:844  abi.encodePacked(... */\n  add(0x20, mload(0x40))\n  tag_9\n  swap2\n  swap1\n  tag_10\n  jump\t// in\ntag_9:\n  mload(0x40)\n  0x20\n  dup2\n  dup4\n  sub\n  sub\n  dup2\n  mstore\n  swap1\n  0x40\n  mstore\n    /* \"contracts/SSTORE2.sol\":756:780  Bytecode.creationCodeFor */\n  shl(0x20, tag_11)\n    /* \"contracts/SSTORE2.sol\":756:850  Bytecode.creationCodeFor(... */\n  0x20\n  shr\n  jump\t// in\ntag_8:\n    /* \"contracts/SSTORE2.sol\":736:850  bytes memory code = Bytecode.creationCodeFor(... */\n  swap1\n  pop\n    /* \"contracts/SSTORE2.sol\":946:950  code */\n  dup1\n    /* \"contracts/SSTORE2.sol\":940:951  mload(code) */\n  mload\n    /* \"contracts/SSTORE2.sol\":935:937  32 */\n  0x20\n    /* \"contracts/SSTORE2.sol\":929:933  code */\n  dup3\n    /* \"contracts/SSTORE2.sol\":925:938  add(code, 32) */\n  add\n    /* \"contracts/SSTORE2.sol\":922:923  0 */\n  0x00\n    /* \"contracts/SSTORE2.sol\":915:952  create(0, add(code, 32), mload(code)) */\n  create\n    /* \"contracts/SSTORE2.sol\":904:952  pointer := create(0, add(code, 32), mload(code)) */\n  swap2\n  pop\n    /* \"contracts/SSTORE2.sol\":1015:1016  0 */\n  0x00\n    /* \"contracts/SSTORE2.sol\":996:1017  pointer == address(0) */\n  0xffffffffffffffffffffffffffffffffffffffff\n  and\n    /* \"contracts/SSTORE2.sol\":996:1003  pointer */\n  dup3\n    /* \"contracts/SSTORE2.sol\":996:1017  pointer == address(0) */\n  0xffffffffffffffffffffffffffffffffffffffff\n  and\n  sub\n    /* \"contracts/SSTORE2.sol\":992:1038  if (pointer == address(0)) revert WriteError() */\n  tag_12\n  jumpi\n    /* \"contracts/SSTORE2.sol\":1026:1038  WriteError() */\n  mload(0x40)\n  0x08d4abb600000000000000000000000000000000000000000000000000000000\n  dup2\n  mstore\n  0x04\n  add\n  mload(0x40)\n  dup1\n  swap2\n  sub\n  swap1\n  revert\n    /* \"contracts/SSTORE2.sol\":992:1038  if (pointer == address(0)) revert WriteError() */\ntag_12:\n    /* \"contracts/SSTORE2.sol\":653:1043  {... */\n  pop\n    /* \"contracts/SSTORE2.sol\":583:1043  function write(bytes memory _data) internal returns (address pointer) {... */\n  swap2\n  swap1\n  pop\n  jump\t// out\n    /* \"contracts/utils/Bytecode.sol\":378:1078  function creationCodeFor(bytes memory _code) internal pure returns (bytes memory) {... */\ntag_11:\n    /* \"contracts/utils/Bytecode.sol\":446:458  bytes memory */\n  0x60\n    /* \"contracts/utils/Bytecode.sol\":1002:1007  _code */\n  dup2\n    /* \"contracts/utils/Bytecode.sol\":1002:1014  _code.length */\n  mload\n    /* \"contracts/utils/Bytecode.sol\":1062:1067  _code */\n  dup3\n    /* \"contracts/utils/Bytecode.sol\":956:1073  abi.encodePacked(... */\n  add(0x20, mload(0x40))\n  tag_14\n  swap3\n  swap2\n  swap1\n  tag_15\n  jump\t// in\ntag_14:\n  mload(0x40)\n  0x20\n  dup2\n  dup4\n  sub\n  sub\n  dup2\n  mstore\n  swap1\n  0x40\n  mstore\n    /* \"contracts/utils/Bytecode.sol\":949:1073  return abi.encodePacked(... */\n  swap1\n  pop\n    /* \"contracts/utils/Bytecode.sol\":378:1078  function creationCodeFor(bytes memory _code) internal pure returns (bytes memory) {... */\n  swap2\n  swap1\n  pop\n  jump\t// out\n    /* \"#utility.yul\":7:155   */\ntag_16:\n    /* \"#utility.yul\":109:120   */\n  0x00\n    /* \"#utility.yul\":146:149   */\n  dup2\n    /* \"#utility.yul\":131:149   */\n  swap1\n  pop\n    /* \"#utility.yul\":7:155   */\n  swap3\n  swap2\n  pop\n  pop\n  jump\t// out\n    /* \"#utility.yul\":161:375   */\ntag_17:\n    /* \"#utility.yul\":301:367   */\n  0x00\n    /* \"#utility.yul\":297:298   */\n  dup1\n    /* \"#utility.yul\":289:295   */\n  dup3\n    /* \"#utility.yul\":285:299   */\n  add\n    /* \"#utility.yul\":278:368   */\n  mstore\n    /* \"#utility.yul\":161:375   */\n  pop\n  jump\t// out\n    /* \"#utility.yul\":381:781   */\ntag_18:\n    /* \"#utility.yul\":541:544   */\n  0x00\n    /* \"#utility.yul\":562:646   */\n  tag_35\n    /* \"#utility.yul\":644:645   */\n  0x01\n    /* \"#utility.yul\":639:642   */\n  dup4\n    /* \"#utility.yul\":562:646   */\n  tag_16\n  jump\t// in\ntag_35:\n    /* \"#utility.yul\":555:646   */\n  swap2\n  pop\n    /* \"#utility.yul\":655:748   */\n  tag_36\n    /* \"#utility.yul\":744:747   */\n  dup3\n    /* \"#utility.yul\":655:748   */\n  tag_17\n  jump\t// in\ntag_36:\n    /* \"#utility.yul\":773:774   */\n  0x01\n    /* \"#utility.yul\":768:771   */\n  dup3\n    /* \"#utility.yul\":764:775   */\n  add\n    /* \"#utility.yul\":757:775   */\n  swap1\n  pop\n    /* \"#utility.yul\":381:781   */\n  swap2\n  swap1\n  pop\n  jump\t// out\n    /* \"#utility.yul\":787:885   */\ntag_19:\n    /* \"#utility.yul\":838:844   */\n  0x00\n    /* \"#utility.yul\":872:877   */\n  dup2\n    /* \"#utility.yul\":866:878   */\n  mload\n    /* \"#utility.yul\":856:878   */\n  swap1\n  pop\n    /* \"#utility.yul\":787:885   */\n  swap2\n  swap1\n  pop\n  jump\t// out\n    /* \"#utility.yul\":891:1038   */\ntag_20:\n    /* \"#utility.yul\":992:1003   */\n  0x00\n    /* \"#utility.yul\":1029:1032   */\n  dup2\n    /* \"#utility.yul\":1014:1032   */\n  swap1\n  pop\n    /* \"#utility.yul\":891:1038   */\n  swap3\n  swap2\n  pop\n  pop\n  jump\t// out\n    /* \"#utility.yul\":1044:1183   */\ntag_21:\n    /* \"#utility.yul\":1133:1139   */\n  dup3\n    /* \"#utility.yul\":1128:1131   */\n  dup2\n    /* \"#utility.yul\":1123:1126   */\n  dup4\n    /* \"#utility.yul\":1117:1140   */\n  mcopy\n    /* \"#utility.yul\":1174:1175   */\n  0x00\n    /* \"#utility.yul\":1165:1171   */\n  dup4\n    /* \"#utility.yul\":1160:1163   */\n  dup4\n    /* \"#utility.yul\":1156:1172   */\n  add\n    /* \"#utility.yul\":1149:1176   */\n  mstore\n    /* \"#utility.yul\":1044:1183   */\n  pop\n  pop\n  pop\n  jump\t// out\n    /* \"#utility.yul\":1189:1575   */\ntag_22:\n    /* \"#utility.yul\":1293:1296   */\n  0x00\n    /* \"#utility.yul\":1321:1359   */\n  tag_41\n    /* \"#utility.yul\":1353:1358   */\n  dup3\n    /* \"#utility.yul\":1321:1359   */\n  tag_19\n  jump\t// in\ntag_41:\n    /* \"#utility.yul\":1375:1463   */\n  tag_42\n    /* \"#utility.yul\":1456:1462   */\n  dup2\n    /* \"#utility.yul\":1451:1454   */\n  dup6\n    /* \"#utility.yul\":1375:1463   */\n  tag_20\n  jump\t// in\ntag_42:\n    /* \"#utility.yul\":1368:1463   */\n  swap4\n  pop\n    /* \"#utility.yul\":1472:1537   */\n  tag_43\n    /* \"#utility.yul\":1530:1536   */\n  dup2\n    /* \"#utility.yul\":1525:1528   */\n  dup6\n    /* \"#utility.yul\":1518:1522   */\n  0x20\n    /* \"#utility.yul\":1511:1516   */\n  dup7\n    /* \"#utility.yul\":1507:1523   */\n  add\n    /* \"#utility.yul\":1472:1537   */\n  tag_21\n  jump\t// in\ntag_43:\n    /* \"#utility.yul\":1562:1568   */\n  dup1\n    /* \"#utility.yul\":1557:1560   */\n  dup5\n    /* \"#utility.yul\":1553:1569   */\n  add\n    /* \"#utility.yul\":1546:1569   */\n  swap2\n  pop\n    /* \"#utility.yul\":1297:1575   */\n  pop\n    /* \"#utility.yul\":1189:1575   */\n  swap3\n  swap2\n  pop\n  pop\n  jump\t// out\n    /* \"#utility.yul\":1581:2118   */\ntag_10:\n    /* \"#utility.yul\":1812:1815   */\n  0x00\n    /* \"#utility.yul\":1834:1982   */\n  tag_45\n    /* \"#utility.yul\":1978:1981   */\n  dup3\n    /* \"#utility.yul\":1834:1982   */\n  tag_18\n  jump\t// in\ntag_45:\n    /* \"#utility.yul\":1827:1982   */\n  swap2\n  pop\n    /* \"#utility.yul\":1999:2092   */\n  tag_46\n    /* \"#utility.yul\":2088:2091   */\n  dup3\n    /* \"#utility.yul\":2079:2085   */\n  dup5\n    /* \"#utility.yul\":1999:2092   */\n  tag_22\n  jump\t// in\ntag_46:\n    /* \"#utility.yul\":1992:2092   */\n  swap2\n  pop\n    /* \"#utility.yul\":2109:2112   */\n  dup2\n    /* \"#utility.yul\":2102:2112   */\n  swap1\n  pop\n    /* \"#utility.yul\":1581:2118   */\n  swap3\n  swap2\n  pop\n  pop\n  jump\t// out\n    /* \"#utility.yul\":2124:2275   */\ntag_23:\n    /* \"#utility.yul\":2264:2267   */\n  0x6300000000000000000000000000000000000000000000000000000000000000\n    /* \"#utility.yul\":2260:2261   */\n  0x00\n    /* \"#utility.yul\":2252:2258   */\n  dup3\n    /* \"#utility.yul\":2248:2262   */\n  add\n    /* \"#utility.yul\":2241:2268   */\n  mstore\n    /* \"#utility.yul\":2124:2275   */\n  pop\n  jump\t// out\n    /* \"#utility.yul\":2281:2681   */\ntag_24:\n    /* \"#utility.yul\":2441:2444   */\n  0x00\n    /* \"#utility.yul\":2462:2546   */\n  tag_49\n    /* \"#utility.yul\":2544:2545   */\n  0x01\n    /* \"#utility.yul\":2539:2542   */\n  dup4\n    /* \"#utility.yul\":2462:2546   */\n  tag_16\n  jump\t// in\ntag_49:\n    /* \"#utility.yul\":2455:2546   */\n  swap2\n  pop\n    /* \"#utility.yul\":2555:2648   */\n  tag_50\n    /* \"#utility.yul\":2644:2647   */\n  dup3\n    /* \"#utility.yul\":2555:2648   */\n  tag_23\n  jump\t// in\ntag_50:\n    /* \"#utility.yul\":2673:2674   */\n  0x01\n    /* \"#utility.yul\":2668:2671   */\n  dup3\n    /* \"#utility.yul\":2664:2675   */\n  add\n    /* \"#utility.yul\":2657:2675   */\n  swap1\n  pop\n    /* \"#utility.yul\":2281:2681   */\n  swap2\n  swap1\n  pop\n  jump\t// out\n    /* \"#utility.yul\":2687:2780   */\ntag_25:\n    /* \"#utility.yul\":2723:2730   */\n  0x00\n    /* \"#utility.yul\":2763:2773   */\n  0xffffffff\n    /* \"#utility.yul\":2756:2761   */\n  dup3\n    /* \"#utility.yul\":2752:2774   */\n  and\n    /* \"#utility.yul\":2741:2774   */\n  swap1\n  pop\n    /* \"#utility.yul\":2687:2780   */\n  swap2\n  swap1\n  pop\n  jump\t// out\n    /* \"#utility.yul\":2786:2882   */\ntag_26:\n    /* \"#utility.yul\":2820:2828   */\n  0x00\n    /* \"#utility.yul\":2869:2874   */\n  dup2\n    /* \"#utility.yul\":2864:2867   */\n  0xe0\n    /* \"#utility.yul\":2860:2875   */\n  shl\n    /* \"#utility.yul\":2839:2875   */\n  swap1\n  pop\n    /* \"#utility.yul\":2786:2882   */\n  swap2\n  swap1\n  pop\n  jump\t// out\n    /* \"#utility.yul\":2888:2982   */\ntag_27:\n    /* \"#utility.yul\":2926:2933   */\n  0x00\n    /* \"#utility.yul\":2955:2976   */\n  tag_54\n    /* \"#utility.yul\":2970:2975   */\n  dup3\n    /* \"#utility.yul\":2955:2976   */\n  tag_26\n  jump\t// in\ntag_54:\n    /* \"#utility.yul\":2944:2976   */\n  swap1\n  pop\n    /* \"#utility.yul\":2888:2982   */\n  swap2\n  swap1\n  pop\n  jump\t// out\n    /* \"#utility.yul\":2988:3141   */\ntag_28:\n    /* \"#utility.yul\":3091:3134   */\n  tag_56\n    /* \"#utility.yul\":3110:3133   */\n  tag_57\n    /* \"#utility.yul\":3127:3132   */\n  dup3\n    /* \"#utility.yul\":3110:3133   */\n  tag_25\n  jump\t// in\ntag_57:\n    /* \"#utility.yul\":3091:3134   */\n  tag_27\n  jump\t// in\ntag_56:\n    /* \"#utility.yul\":3086:3089   */\n  dup3\n    /* \"#utility.yul\":3079:3135   */\n  mstore\n    /* \"#utility.yul\":2988:3141   */\n  pop\n  pop\n  jump\t// out\n    /* \"#utility.yul\":3147:3361   */\ntag_29:\n    /* \"#utility.yul\":3287:3353   */\n  0x80600e6000396000f30000000000000000000000000000000000000000000000\n    /* \"#utility.yul\":3283:3284   */\n  0x00\n    /* \"#utility.yul\":3275:3281   */\n  dup3\n    /* \"#utility.yul\":3271:3285   */\n  add\n    /* \"#utility.yul\":3264:3354   */\n  mstore\n    /* \"#utility.yul\":3147:3361   */\n  pop\n  jump\t// out\n    /* \"#utility.yul\":3367:3767   */\ntag_30:\n    /* \"#utility.yul\":3527:3530   */\n  0x00\n    /* \"#utility.yul\":3548:3632   */\n  tag_60\n    /* \"#utility.yul\":3630:3631   */\n  0x09\n    /* \"#utility.yul\":3625:3628   */\n  dup4\n    /* \"#utility.yul\":3548:3632   */\n  tag_16\n  jump\t// in\ntag_60:\n    /* \"#utility.yul\":3541:3632   */\n  swap2\n  pop\n    /* \"#utility.yul\":3641:3734   */\n  tag_61\n    /* \"#utility.yul\":3730:3733   */\n  dup3\n    /* \"#utility.yul\":3641:3734   */\n  tag_29\n  jump\t// in\ntag_61:\n    /* \"#utility.yul\":3759:3760   */\n  0x09\n    /* \"#utility.yul\":3754:3757   */\n  dup3\n    /* \"#utility.yul\":3750:3761   */\n  add\n    /* \"#utility.yul\":3743:3761   */\n  swap1\n  pop\n    /* \"#utility.yul\":3367:3767   */\n  swap2\n  swap1\n  pop\n  jump\t// out\n    /* \"#utility.yul\":3773:4712   */\ntag_15:\n    /* \"#utility.yul\":4131:4134   */\n  0x00\n    /* \"#utility.yul\":4153:4301   */\n  tag_63\n    /* \"#utility.yul\":4297:4300   */\n  dup3\n    /* \"#utility.yul\":4153:4301   */\n  tag_24\n  jump\t// in\ntag_63:\n    /* \"#utility.yul\":4146:4301   */\n  swap2\n  pop\n    /* \"#utility.yul\":4311:4384   */\n  tag_64\n    /* \"#utility.yul\":4380:4383   */\n  dup3\n    /* \"#utility.yul\":4371:4377   */\n  dup6\n    /* \"#utility.yul\":4311:4384   */\n  tag_28\n  jump\t// in\ntag_64:\n    /* \"#utility.yul\":4409:4410   */\n  0x04\n    /* \"#utility.yul\":4404:4407   */\n  dup3\n    /* \"#utility.yul\":4400:4411   */\n  add\n    /* \"#utility.yul\":4393:4411   */\n  swap2\n  pop\n    /* \"#utility.yul\":4428:4576   */\n  tag_65\n    /* \"#utility.yul\":4572:4575   */\n  dup3\n    /* \"#utility.yul\":4428:4576   */\n  tag_30\n  jump\t// in\ntag_65:\n    /* \"#utility.yul\":4421:4576   */\n  swap2\n  pop\n    /* \"#utility.yul\":4593:4686   */\n  tag_66\n    /* \"#utility.yul\":4682:4685   */\n  dup3\n    /* \"#utility.yul\":4673:4679   */\n  dup5\n    /* \"#utility.yul\":4593:4686   */\n  tag_22\n  jump\t// in\ntag_66:\n    /* \"#utility.yul\":4586:4686   */\n  swap2\n  pop\n    /* \"#utility.yul\":4703:4706   */\n  dup2\n    /* \"#utility.yul\":4696:4706   */\n  swap1\n  pop\n    /* \"#utility.yul\":3773:4712   */\n  swap4\n  swap3\n  pop\n  pop\n  pop\n  jump\t// out\n    /* \"contracts/HashJingSVGStorage10.sol\":83:12579  contract TestStorage {... */\ntag_6:\n  mload(0x80)\n  codecopy(0x00, dataOffset(sub_0), dataSize(sub_0))\n  0x00\n  assignImmutable(\"0x13600b294191fc92924bb3ce4b969c1e7e2bab8f4c93c3fc6d0a51733df3c060\")\n  return(0x00, dataSize(sub_0))\nstop\ndata_e14db8c7aea17d776089b3745e016f54f683c12e3143946345f23d8082e833aa 37313930363739323135393134203137392e343132313535303738393831393320412034303020343030203020302031203332332e34343133303532363936303039203135392e323331343934323630363538204c203238352e3732393536363332333532312038382e363737373933313132373839363320412034383020343830203020302030203234352e3332363238383135303539303933203131322e3839343538363039343737383238205a222066696c6c3d22626c61636b22207374726f6b653d22626c61636b22207374726f6b652d77696474683d2231222f3e0a3c7061746820643d224d203333342e32313735323534333337323733203234352e393239373234303633313835353220412033323020333230203020302031203336312e3135333034343231353638303637203232392e3738353139353430383532363432204c203332332e34343133303532363936303039203135392e32333134393432363036353820412034303020343030203020302030203238392e3737313930363739323135393134203137392e3431323135353037383938313933205a222066696c6c3d22626c61636b22207374726f6b653d22626c61636b22207374726f6b652d77696474683d2231222f3e0a3c7061746820643d224d203337382e3636333134343037353239353436203331322e343437323933303437333839313720412032343020323430203020302031203339382e38363437383331363137363035203330302e3333383839363535363339343834204c203336312e3135333034343231353638303637203232392e373835313935343038353236343220412033323020333230203020302030203333342e32313735323534333337323733203234352e3932393732343036333138353532205a222066696c6c3d22626c61636b22207374726f6b653d22626c61636b22207374726f6b652d77696474683d2231222f3e0a3c7061746820643d224d203432332e31303837363237313638363337203337382e393634383632303331353932373620412031363020313630203020302031203433362e3537363532323130373834303333203337302e38393235393737303432363332204c203339382e38363437383331363137363035203330302e333338383936353536333934383420412032343020323430203020302030203337382e3636333134343037353239353436203331322e3434373239333034373338393137205a222066696c6c3d22626c61636b22207374726f6b653d22626c61636b22207374726f6b652d77696474683d2231222f3e0a3c7061746820643d224d203332332e34343133303532363936303039203135392e32333134393432363036353820412034303020343030203020302031203335382e39323636323730353339363339203134322e34343831383639393534383534204c203332382e33313139353234363437353636342036382e353337383234333934353832343620412034383020343830203020302030203238352e3732393536363332333532312038382e3637373739333131323738393633205a222066696c6c3d22626c61636b22207374726f6b653d22626c61636b22207374726f6b652d77696474683d2231222f3e0a3c7061746820643d224d203336312e3135333034343231353638303637203232392e373835313935343038353236343220412033323020333230203020302031203338392e35343133303136343331373131203231362e3335383534393539363338383334204c203335382e39323636323730353339363339203134322e3434383138363939353438353420412034303020343030203020302030203332332e34343133303532363936303039203135392e323331343934323630363538205a222066696c6c3d22626c61636b22207374726f6b653d22626c61636b22207374726f6b652d77696474683d2231222f3e0a3c7061746820643d224d203339382e38363437383331363137363035203330302e333338383936353536333934383420412032343020323430203020302031203432302e31353539373632333233373833203239302e3236383931323139373239313233204c203338392e35343133303136343331373131203231362e333538353439353936333838333420412033323020333230203020302030203336312e3135333034343231353638303637203232392e3738353139353430383532363432205a222066696c6c3d22626c61636b22207374726f6b653d22626c61636b22207374726f6b652d77696474683d2231222f3e0a3c7061746820643d224d203433362e3537363532323130373834303333203337302e3839323539373730343236333220412031363020313630203020302031203435302e3737303635303832313538353535203336342e31373932373437393831393432204c203432302e31353539373632333233373833203239302e323638393132313937323931323320412032343020323430203020302030203339382e38363437383331363137363035203330302e3333383839363535363339343834205a222066696c6c3d22626c61636b22207374726f6b653d22626c61636b22207374726f6b652d77696474683d2231222f3e0a3c7061746820643d224d203335382e39323636323730353339363339203134322e3434383138363939353438353420412034303020343030203020302031203339352e38383631323930393832313437203132392e3232333836353730373131363534204c203337322e36363333353439313738353736352035322e3636383633383834383533393920412034383020343830203020302030203332382e33313139353234363437353636342036382e3533373832343339343538323436205a222066696c6c3d22626c61636b22207374726f6b653d22626c61636b22207374726f6b652d77696474683d2231222f3e0a3c7061746820643d224d203338392e35343133303136343331373131203231362e333538353439353936333838333420412033323020333230203020302031203431392e3130383930333237383537313734203230352e3737393039323536353639333235204c203339352e38383631323930393832313437203132392e323233383635373037313136353420412034303020343030203020302030203335382e39323636323730353339363339203134322e34343831383639393534383534205a222066696c6c3d22626c61636b22207374726f6b653d22626c61636b22207374726f6b652d77696474683d2231222f3e0a3c7061746820643d224d203432302e31353539373632333233373833203239302e323638393132313937323931323320412032343020323430203020302031203434322e33333136373734353839323838203238322e3333343331393432343236393935204c203431392e3130383930333237383537313734203230352e373739303932353635363933323520412033323020333230203020302030203338392e35343133303136343331373131203231362e3335383534393539363338383334205a222066696c6c3d22626c61636b22207374726f6b653d22626c61636b22207374726f6b652d77696474683d2231222f3e0a3c7061746820643d224d203435302e3737303635303832313538353535203336342e3137393237343739383139343220412031363020313630203020302031203436352e3535343435313633393238353834203335382e38383935343632383238343636204c203434322e33333136373734353839323838203238322e333334333139343234323639393520412032343020323430203020302030203432302e31353539373632333233373833203239302e3236383931323139373239313233205a222066696c6c3d22626c61636b22207374726f6b653d22626c61636b22207374726f6b652d77696474683d2231222f3e0a3c7061746820643d224d203339352e3838363132393039383231353036203132392e3232333836353730373131363520412034303020343030203020302031203433332e39363338373131393335343835203131392e3638353838373833383730373836204c203431382e33353636343534333232353832332034312e323233303635343036343439343520412034383020343830203020302030203337322e36363333353439313738353830342035322e363638363338383438353339373836205a222066696c6c3d22626c61636b22207374726f6b653d22626c61636b22207374726f6b652d77696474683d2231222f3e0a3c7061746820643d224d203431392e3130383930333237383537323033203230352e3737393039323536353639333220412033323020333230203020302031203434392e35373130393639353438333838203139382e3134383731303237303936363332204c203433332e39363338373131393335343835203131392e363835383837383338373037383620412034303020343030203020302030203339352e3838363132393039383231353036203132392e32323338363537303731313635205a222066696c6c3d22626c61636b22207374726f6b653d22626c61636b22207374726f6b652d77696474683d2231222f3e0a3c7061746820643d224d203434322e333331363737343538393239203238322e3333343331393432343236393920412032343020323430203020302031203436352e31373833323237313631323931203237362e36313135333237303332323437204c203434392e35373130393639353438333838203139382e313438373130323730393636333220412033323020333230203020302030203431392e3130383930333237383537323033203230352e37373930393235363536393332205a222066696c6c3d22626c61636b22207374726f6b653d22626c61636b22207374726f6b652d77696474683d2231222f3e0a3c7061746820643d224d203436352e353534343531363339323836203335382e3838393534363238323834363620412031363020313630203020302031203438302e37383535343834373734313934203335352e30373433353531333534383332204c203436352e31373833323237313631323931203237362e3631313533323730333232343720412032343020323430203020302030203434322e333331363737343538393239203238322e33333433313934323432363939205a222066696c6c3d22626c61636b22207374726f6b653d22626c61636b22207374726f6b652d77696474683d2231222f3e0a3c7061746820643d224d203433332e39363338373131393335343835203131392e363835383837383338373037383620412034303020343030203020302031203437322e37393331343338363831373535203131332e3932363130393333313132313237204c203436342e393531373732363431383130362033342e333131333331313937333435353120412034383020343830203020302030203431382e33353636343534333232353832332034312e3232333036353430363434393435205a222066696c6c3d22626c61636b22207374726f6b653d22626c61636b22207374726f6b652d77696474683d2231222f3e0a3c7061746820643d224d203434392e35373130393639353438333838203139382e313438373130323730393636333220412033323020333230203020302031203438302e3633343531353039343534303335203139332e3534303838373436343839373033204c203437322e37393331343338363831373535203131332e393236313039333331313231323720412034303020343030203020302030203433332e39363338373131393335343835203131392e3638353838373833383730373836205a222066696c6c3d22626c61636b22207374726f6b653d22626c61636b22207374726f6b652d77696474683d2231222f3e0a3c7061746820643d224d203436352e31373833323237313631323931203237362e3631313533323730333232343720412032343020323430203020302031203438382e3437353838363332303930353236203237332e31353536363535393836373237204c203438302e3633343531353039343534303335203139332e353430383837343634383937303320412033323020333230203020302030203434392e35373130393639353438333838203139382e3134383731303237303936363332205a222066696c6c3d22626c61636b22207374726f6b653d22626c61636b22207374726f6b652d77696474683d2231222f3e0a3c7061746820643d224d203438302e37383535343834373734313934203335352e3037343335353133353438333220412031363020313630203020302031203439362e33313732353735343732373032203335322e37373034343337333234343835204c203438382e3437353838363332303930353236203237332e3135353636353539383637323720412032343020323430203020302030203436352e31373833323237313631323931203237362e36313135333237303332323437205a222066696c6c3d22626c61636b22207374726f6b653d22626c61636b22207374726f6b652d77696474683d2231222f3e0a3c7061746820643d224d203437322e3739333134333836383137353833203131332e393236313039333331313231323120412034303020343030203020302031203531312e393939393939393939393939393420313132204c203531312e3939393939393939393939393920333220412034383020343830203020302030203436342e3935313737323634313831312033342e3331313333313139373334353435205a222066696c6c3d22626c61636b22207374726f6b653d22626c61636b22207374726f6b652d77696474683d2231222f3e0a3c7061746820643d224d203438302e3633343531353039343534303633203139332e353430383837343634383936393720412033323020333230203020302031203531312e393939393939393939393939393420313932204c203531312e39393939393939393939393939342031313220412034303020343030203020302030203437322e3739333134333836383137353833203131332e3932363130393333313132313231205a222066696c6c3d22626c61636b22207374726f6b653d22626c61636b22207374726f6b652d77696474683d2231222f3e0a3c7061746820643d224d203438382e34373538383633323039303535203237332e3135353636353539383637323720412032343020323430203020302031203531312e393939393939393939393939393420323732204c203531312e39393939393939393939393939342031393220412033323020333230203020302030203438302e3633343531353039343534303633203139332e3534303838373436343839363937205a222066696c6c3d22626c61636b22207374726f6b653d22626c61636b22207374726f6b652d77696474683d2231222f3e0a3c7061746820643d224d203439362e3331373235373534373237303334203335322e3737303434333733323434383520412031363020313630203020302031203531312e393939393939393939393939393420333532204c203531312e39393939393939393939393939342032373220412032343020323430203020302030203438382e34373538383633323039303535203237332e31353536363535393836373237205a222066696c6c3d22626c61636b22207374726f6b653d22626c61636b22207374726f6b652d77696474683d2231222f3e0a3c7465787420783d223531322220793d223436352220666f6e742d73697a653d223232222066696c6c3d2277686974652220746578742d616e63686f723d226d6964646c652220666f6e742d66616d696c793d226d6f6e6f7370616365223e303030303030303030303030303030303c2f746578743e0a3c7465787420783d223531322220793d223530312220666f6e742d73697a653d223232222066696c6c3d2277686974652220746578742d616e63686f723d226d6964646c652220666f6e742d66616d696c793d226d6f6e6f7370616365223e303030303030303030303030303030303c2f746578743e0a3c7465787420783d223531322220793d223533372220666f6e742d73697a653d223232222066696c6c3d2277686974652220746578742d616e63686f723d226d6964646c652220666f6e742d66616d696c793d226d6f6e6f7370616365223e303030303030303030303030303030303c2f746578743e0a3c7465787420783d223531322220793d223537332220666f6e742d73697a653d223232222066696c6c3d2277686974652220746578742d616e63686f723d226d6964646c652220666f6e742d66616d696c793d226d6f6e6f7370616365223e30303030303030\n\nsub_0: assembly {\n        /* \"contracts/HashJingSVGStorage10.sol\":83:12579  contract TestStorage {... */\n      mstore(0x40, 0x80)\n      callvalue\n      dup1\n      iszero\n      tag_1\n      jumpi\n      0x00\n      dup1\n      revert\n    tag_1:\n      pop\n      jumpi(tag_2, lt(calldatasize, 0x04))\n      shr(0xe0, calldataload(0x00))\n      dup1\n      0x2810f972\n      eq\n      tag_3\n      jumpi\n      dup1\n      0xa32a3ee4\n      eq\n      tag_4\n      jumpi\n    tag_2:\n      0x00\n      dup1\n      revert\n        /* \"contracts/HashJingSVGStorage10.sol\":110:138  address public immutable ptr */\n    tag_3:\n      tag_5\n      tag_6\n      jump\t// in\n    tag_5:\n      mload(0x40)\n      tag_7\n      swap2\n      swap1\n      tag_8\n      jump\t// in\n    tag_7:\n      mload(0x40)\n      dup1\n      swap2\n      sub\n      swap1\n      return\n        /* \"contracts/HashJingSVGStorage10.sol\":12496:12577  function getPointer() external view returns (address) {... */\n    tag_4:\n      tag_9\n      tag_10\n      jump\t// in\n    tag_9:\n      mload(0x40)\n      tag_11\n      swap2\n      swap1\n      tag_8\n      jump\t// in\n    tag_11:\n      mload(0x40)\n      dup1\n      swap2\n      sub\n      swap1\n      return\n        /* \"contracts/HashJingSVGStorage10.sol\":110:138  address public immutable ptr */\n    tag_6:\n      immutable(\"0x13600b294191fc92924bb3ce4b969c1e7e2bab8f4c93c3fc6d0a51733df3c060\")\n      dup2\n      jump\t// out\n        /* \"contracts/HashJingSVGStorage10.sol\":12496:12577  function getPointer() external view returns (address) {... */\n    tag_10:\n        /* \"contracts/HashJingSVGStorage10.sol\":12541:12548  address */\n      0x00\n        /* \"contracts/HashJingSVGStorage10.sol\":12567:12570  ptr */\n      immutable(\"0x13600b294191fc92924bb3ce4b969c1e7e2bab8f4c93c3fc6d0a51733df3c060\")\n        /* \"contracts/HashJingSVGStorage10.sol\":12560:12570  return ptr */\n      swap1\n      pop\n        /* \"contracts/HashJingSVGStorage10.sol\":12496:12577  function getPointer() external view returns (address) {... */\n      swap1\n      jump\t// out\n        /* \"#utility.yul\":7:133   */\n    tag_13:\n        /* \"#utility.yul\":44:51   */\n      0x00\n        /* \"#utility.yul\":84:126   */\n      0xffffffffffffffffffffffffffffffffffffffff\n        /* \"#utility.yul\":77:82   */\n      dup3\n        /* \"#utility.yul\":73:127   */\n      and\n        /* \"#utility.yul\":62:127   */\n      swap1\n      pop\n        /* \"#utility.yul\":7:133   */\n      swap2\n      swap1\n      pop\n      jump\t// out\n        /* \"#utility.yul\":139:235   */\n    tag_14:\n        /* \"#utility.yul\":176:183   */\n      0x00\n        /* \"#utility.yul\":205:229   */\n      tag_19\n        /* \"#utility.yul\":223:228   */\n      dup3\n        /* \"#utility.yul\":205:229   */\n      tag_13\n      jump\t// in\n    tag_19:\n        /* \"#utility.yul\":194:229   */\n      swap1\n      pop\n        /* \"#utility.yul\":139:235   */\n      swap2\n      swap1\n      pop\n      jump\t// out\n        /* \"#utility.yul\":241:359   */\n    tag_15:\n        /* \"#utility.yul\":328:352   */\n      tag_21\n        /* \"#utility.yul\":346:351   */\n      dup2\n        /* \"#utility.yul\":328:352   */\n      tag_14\n      jump\t// in\n    tag_21:\n        /* \"#utility.yul\":323:326   */\n      dup3\n        /* \"#utility.yul\":316:353   */\n      mstore\n        /* \"#utility.yul\":241:359   */\n      pop\n      pop\n      jump\t// out\n        /* \"#utility.yul\":365:587   */\n    tag_8:\n        /* \"#utility.yul\":458:462   */\n      0x00\n        /* \"#utility.yul\":496:498   */\n      0x20\n        /* \"#utility.yul\":485:494   */\n      dup3\n        /* \"#utility.yul\":481:499   */\n      add\n        /* \"#utility.yul\":473:499   */\n      swap1\n      pop\n        /* \"#utility.yul\":509:580   */\n      tag_23\n        /* \"#utility.yul\":577:578   */\n      0x00\n        /* \"#utility.yul\":566:575   */\n      dup4\n        /* \"#utility.yul\":562:579   */\n      add\n        /* \"#utility.yul\":553:559   */\n      dup5\n        /* \"#utility.yul\":509:580   */\n      tag_15\n      jump\t// in\n    tag_23:\n        /* \"#utility.yul\":365:587   */\n      swap3\n      swap2\n      pop\n      pop\n      jump\t// out\n\n    auxdata: 0xa2646970667358221220f1ecf5433973119e20a323ca2f17d926ea58f12540d3f4add728c73e0f02204c64736f6c634300081a0033\n}\n",
				"bytecode": {
					"linkReferences": {},
					"object": "60a060405234801561000f575f80fd5b5061003a604051806118200160405280611800815260200161046a611800913961007260201b60201c565b73ffffffffffffffffffffffffffffffffffffffff1660808173ffffffffffffffffffffffffffffffffffffffff1681525050610300565b5f806100a28360405160200161008891906101cb565b60405160208183030381529060405261011960201b60201c565b90508051602082015ff091505f73ffffffffffffffffffffffffffffffffffffffff168273ffffffffffffffffffffffffffffffffffffffff1603610113576040517f08d4abb600000000000000000000000000000000000000000000000000000000815260040160405180910390fd5b50919050565b606081518260405160200161012f9291906102c3565b6040516020818303038152906040529050919050565b5f81905092915050565b5f8082015250565b5f610163600183610145565b915061016e8261014f565b600182019050919050565b5f81519050919050565b5f81905092915050565b8281835e5f83830152505050565b5f6101a582610179565b6101af8185610183565b93506101bf81856020860161018d565b80840191505092915050565b5f6101d582610157565b91506101e1828461019b565b915081905092915050565b7f63000000000000000000000000000000000000000000000000000000000000005f82015250565b5f610220600183610145565b915061022b826101ec565b600182019050919050565b5f63ffffffff82169050919050565b5f8160e01b9050919050565b5f61025b82610245565b9050919050565b61027361026e82610236565b610251565b82525050565b7f80600e6000396000f300000000000000000000000000000000000000000000005f82015250565b5f6102ad600983610145565b91506102b882610279565b600982019050919050565b5f6102cd82610214565b91506102d98285610262565b6004820191506102e8826102a1565b91506102f4828461019b565b91508190509392505050565b60805161014d61031d5f395f818160760152609b015261014d5ff3fe608060405234801561000f575f80fd5b5060043610610034575f3560e01c80632810f97214610038578063a32a3ee414610056575b5f80fd5b610040610074565b60405161004d91906100fe565b60405180910390f35b61005e610098565b60405161006b91906100fe565b60405180910390f35b7f000000000000000000000000000000000000000000000000000000000000000081565b5f7f0000000000000000000000000000000000000000000000000000000000000000905090565b5f73ffffffffffffffffffffffffffffffffffffffff82169050919050565b5f6100e8826100bf565b9050919050565b6100f8816100de565b82525050565b5f6020820190506101115f8301846100ef565b9291505056fea2646970667358221220f1ecf5433973119e20a323ca2f17d926ea58f12540d3f4add728c73e0f02204c64736f6c634300081a003337313930363739323135393134203137392e343132313535303738393831393320412034303020343030203020302031203332332e34343133303532363936303039203135392e323331343934323630363538204c203238352e3732393536363332333532312038382e363737373933313132373839363320412034383020343830203020302030203234352e3332363238383135303539303933203131322e3839343538363039343737383238205a222066696c6c3d22626c61636b22207374726f6b653d22626c61636b22207374726f6b652d77696474683d2231222f3e0a3c7061746820643d224d203333342e32313735323534333337323733203234352e393239373234303633313835353220412033323020333230203020302031203336312e3135333034343231353638303637203232392e3738353139353430383532363432204c203332332e34343133303532363936303039203135392e32333134393432363036353820412034303020343030203020302030203238392e3737313930363739323135393134203137392e3431323135353037383938313933205a222066696c6c3d22626c61636b22207374726f6b653d22626c61636b22207374726f6b652d77696474683d2231222f3e0a3c7061746820643d224d203337382e3636333134343037353239353436203331322e343437323933303437333839313720412032343020323430203020302031203339382e38363437383331363137363035203330302e3333383839363535363339343834204c203336312e3135333034343231353638303637203232392e373835313935343038353236343220412033323020333230203020302030203333342e32313735323534333337323733203234352e3932393732343036333138353532205a222066696c6c3d22626c61636b22207374726f6b653d22626c61636b22207374726f6b652d77696474683d2231222f3e0a3c7061746820643d224d203432332e31303837363237313638363337203337382e393634383632303331353932373620412031363020313630203020302031203433362e3537363532323130373834303333203337302e38393235393737303432363332204c203339382e38363437383331363137363035203330302e333338383936353536333934383420412032343020323430203020302030203337382e3636333134343037353239353436203331322e3434373239333034373338393137205a222066696c6c3d22626c61636b22207374726f6b653d22626c61636b22207374726f6b652d77696474683d2231222f3e0a3c7061746820643d224d203332332e34343133303532363936303039203135392e32333134393432363036353820412034303020343030203020302031203335382e39323636323730353339363339203134322e34343831383639393534383534204c203332382e33313139353234363437353636342036382e353337383234333934353832343620412034383020343830203020302030203238352e3732393536363332333532312038382e3637373739333131323738393633205a222066696c6c3d22626c61636b22207374726f6b653d22626c61636b22207374726f6b652d77696474683d2231222f3e0a3c7061746820643d224d203336312e3135333034343231353638303637203232392e373835313935343038353236343220412033323020333230203020302031203338392e35343133303136343331373131203231362e3335383534393539363338383334204c203335382e39323636323730353339363339203134322e3434383138363939353438353420412034303020343030203020302030203332332e34343133303532363936303039203135392e323331343934323630363538205a222066696c6c3d22626c61636b22207374726f6b653d22626c61636b22207374726f6b652d77696474683d2231222f3e0a3c7061746820643d224d203339382e38363437383331363137363035203330302e333338383936353536333934383420412032343020323430203020302031203432302e31353539373632333233373833203239302e3236383931323139373239313233204c203338392e35343133303136343331373131203231362e333538353439353936333838333420412033323020333230203020302030203336312e3135333034343231353638303637203232392e3738353139353430383532363432205a222066696c6c3d22626c61636b22207374726f6b653d22626c61636b22207374726f6b652d77696474683d2231222f3e0a3c7061746820643d224d203433362e3537363532323130373834303333203337302e3839323539373730343236333220412031363020313630203020302031203435302e3737303635303832313538353535203336342e31373932373437393831393432204c203432302e31353539373632333233373833203239302e323638393132313937323931323320412032343020323430203020302030203339382e38363437383331363137363035203330302e3333383839363535363339343834205a222066696c6c3d22626c61636b22207374726f6b653d22626c61636b22207374726f6b652d77696474683d2231222f3e0a3c7061746820643d224d203335382e39323636323730353339363339203134322e3434383138363939353438353420412034303020343030203020302031203339352e38383631323930393832313437203132392e3232333836353730373131363534204c203337322e36363333353439313738353736352035322e3636383633383834383533393920412034383020343830203020302030203332382e33313139353234363437353636342036382e3533373832343339343538323436205a222066696c6c3d22626c61636b22207374726f6b653d22626c61636b22207374726f6b652d77696474683d2231222f3e0a3c7061746820643d224d203338392e35343133303136343331373131203231362e333538353439353936333838333420412033323020333230203020302031203431392e3130383930333237383537313734203230352e3737393039323536353639333235204c203339352e38383631323930393832313437203132392e323233383635373037313136353420412034303020343030203020302030203335382e39323636323730353339363339203134322e34343831383639393534383534205a222066696c6c3d22626c61636b22207374726f6b653d22626c61636b22207374726f6b652d77696474683d2231222f3e0a3c7061746820643d224d203432302e31353539373632333233373833203239302e323638393132313937323931323320412032343020323430203020302031203434322e33333136373734353839323838203238322e3333343331393432343236393935204c203431392e3130383930333237383537313734203230352e373739303932353635363933323520412033323020333230203020302030203338392e35343133303136343331373131203231362e3335383534393539363338383334205a222066696c6c3d22626c61636b22207374726f6b653d22626c61636b22207374726f6b652d77696474683d2231222f3e0a3c7061746820643d224d203435302e3737303635303832313538353535203336342e3137393237343739383139343220412031363020313630203020302031203436352e3535343435313633393238353834203335382e38383935343632383238343636204c203434322e33333136373734353839323838203238322e333334333139343234323639393520412032343020323430203020302030203432302e31353539373632333233373833203239302e3236383931323139373239313233205a222066696c6c3d22626c61636b22207374726f6b653d22626c61636b22207374726f6b652d77696474683d2231222f3e0a3c7061746820643d224d203339352e3838363132393039383231353036203132392e3232333836353730373131363520412034303020343030203020302031203433332e39363338373131393335343835203131392e3638353838373833383730373836204c203431382e33353636343534333232353832332034312e323233303635343036343439343520412034383020343830203020302030203337322e36363333353439313738353830342035322e363638363338383438353339373836205a222066696c6c3d22626c61636b22207374726f6b653d22626c61636b22207374726f6b652d77696474683d2231222f3e0a3c7061746820643d224d203431392e3130383930333237383537323033203230352e3737393039323536353639333220412033323020333230203020302031203434392e35373130393639353438333838203139382e3134383731303237303936363332204c203433332e39363338373131393335343835203131392e363835383837383338373037383620412034303020343030203020302030203339352e3838363132393039383231353036203132392e32323338363537303731313635205a222066696c6c3d22626c61636b22207374726f6b653d22626c61636b22207374726f6b652d77696474683d2231222f3e0a3c7061746820643d224d203434322e333331363737343538393239203238322e3333343331393432343236393920412032343020323430203020302031203436352e31373833323237313631323931203237362e36313135333237303332323437204c203434392e35373130393639353438333838203139382e313438373130323730393636333220412033323020333230203020302030203431392e3130383930333237383537323033203230352e37373930393235363536393332205a222066696c6c3d22626c61636b22207374726f6b653d22626c61636b22207374726f6b652d77696474683d2231222f3e0a3c7061746820643d224d203436352e353534343531363339323836203335382e3838393534363238323834363620412031363020313630203020302031203438302e37383535343834373734313934203335352e30373433353531333534383332204c203436352e31373833323237313631323931203237362e3631313533323730333232343720412032343020323430203020302030203434322e333331363737343538393239203238322e33333433313934323432363939205a222066696c6c3d22626c61636b22207374726f6b653d22626c61636b22207374726f6b652d77696474683d2231222f3e0a3c7061746820643d224d203433332e39363338373131393335343835203131392e363835383837383338373037383620412034303020343030203020302031203437322e37393331343338363831373535203131332e3932363130393333313132313237204c203436342e393531373732363431383130362033342e333131333331313937333435353120412034383020343830203020302030203431382e33353636343534333232353832332034312e3232333036353430363434393435205a222066696c6c3d22626c61636b22207374726f6b653d22626c61636b22207374726f6b652d77696474683d2231222f3e0a3c7061746820643d224d203434392e35373130393639353438333838203139382e313438373130323730393636333220412033323020333230203020302031203438302e3633343531353039343534303335203139332e3534303838373436343839373033204c203437322e37393331343338363831373535203131332e393236313039333331313231323720412034303020343030203020302030203433332e39363338373131393335343835203131392e3638353838373833383730373836205a222066696c6c3d22626c61636b22207374726f6b653d22626c61636b22207374726f6b652d77696474683d2231222f3e0a3c7061746820643d224d203436352e31373833323237313631323931203237362e3631313533323730333232343720412032343020323430203020302031203438382e3437353838363332303930353236203237332e31353536363535393836373237204c203438302e3633343531353039343534303335203139332e353430383837343634383937303320412033323020333230203020302030203434392e35373130393639353438333838203139382e3134383731303237303936363332205a222066696c6c3d22626c61636b22207374726f6b653d22626c61636b22207374726f6b652d77696474683d2231222f3e0a3c7061746820643d224d203438302e37383535343834373734313934203335352e3037343335353133353438333220412031363020313630203020302031203439362e33313732353735343732373032203335322e37373034343337333234343835204c203438382e3437353838363332303930353236203237332e3135353636353539383637323720412032343020323430203020302030203436352e31373833323237313631323931203237362e36313135333237303332323437205a222066696c6c3d22626c61636b22207374726f6b653d22626c61636b22207374726f6b652d77696474683d2231222f3e0a3c7061746820643d224d203437322e3739333134333836383137353833203131332e393236313039333331313231323120412034303020343030203020302031203531312e393939393939393939393939393420313132204c203531312e3939393939393939393939393920333220412034383020343830203020302030203436342e3935313737323634313831312033342e3331313333313139373334353435205a222066696c6c3d22626c61636b22207374726f6b653d22626c61636b22207374726f6b652d77696474683d2231222f3e0a3c7061746820643d224d203438302e3633343531353039343534303633203139332e353430383837343634383936393720412033323020333230203020302031203531312e393939393939393939393939393420313932204c203531312e39393939393939393939393939342031313220412034303020343030203020302030203437322e3739333134333836383137353833203131332e3932363130393333313132313231205a222066696c6c3d22626c61636b22207374726f6b653d22626c61636b22207374726f6b652d77696474683d2231222f3e0a3c7061746820643d224d203438382e34373538383633323039303535203237332e3135353636353539383637323720412032343020323430203020302031203531312e393939393939393939393939393420323732204c203531312e39393939393939393939393939342031393220412033323020333230203020302030203438302e3633343531353039343534303633203139332e3534303838373436343839363937205a222066696c6c3d22626c61636b22207374726f6b653d22626c61636b22207374726f6b652d77696474683d2231222f3e0a3c7061746820643d224d203439362e3331373235373534373237303334203335322e3737303434333733323434383520412031363020313630203020302031203531312e393939393939393939393939393420333532204c203531312e39393939393939393939393939342032373220412032343020323430203020302030203438382e34373538383633323039303535203237332e31353536363535393836373237205a222066696c6c3d22626c61636b22207374726f6b653d22626c61636b22207374726f6b652d77696474683d2231222f3e0a3c7465787420783d223531322220793d223436352220666f6e742d73697a653d223232222066696c6c3d2277686974652220746578742d616e63686f723d226d6964646c652220666f6e742d66616d696c793d226d6f6e6f7370616365223e303030303030303030303030303030303c2f746578743e0a3c7465787420783d223531322220793d223530312220666f6e742d73697a653d223232222066696c6c3d2277686974652220746578742d616e63686f723d226d6964646c652220666f6e742d66616d696c793d226d6f6e6f7370616365223e303030303030303030303030303030303c2f746578743e0a3c7465787420783d223531322220793d223533372220666f6e742d73697a653d223232222066696c6c3d2277686974652220746578742d616e63686f723d226d6964646c652220666f6e742d66616d696c793d226d6f6e6f7370616365223e303030303030303030303030303030303c2f746578743e0a3c7465787420783d223531322220793d223537332220666f6e742d73697a653d223232222066696c6c3d2277686974652220746578742d616e63686f723d226d6964646c652220666f6e742d66616d696c793d226d6f6e6f7370616365223e30303030303030",
					"opcodes": "PUSH1 0xA0 PUSH1 0x40 MSTORE CALLVALUE DUP1 ISZERO PUSH2 0xF JUMPI PUSH0 DUP1 REVERT JUMPDEST POP PUSH2 0x3A PUSH1 0x40 MLOAD DUP1 PUSH2 0x1820 ADD PUSH1 0x40 MSTORE DUP1 PUSH2 0x1800 DUP2 MSTORE PUSH1 0x20 ADD PUSH2 0x46A PUSH2 0x1800 SWAP2 CODECOPY PUSH2 0x72 PUSH1 0x20 SHL PUSH1 0x20 SHR JUMP JUMPDEST PUSH20 0xFFFFFFFFFFFFFFFFFFFFFFFFFFFFFFFFFFFFFFFF AND PUSH1 0x80 DUP2 PUSH20 0xFFFFFFFFFFFFFFFFFFFFFFFFFFFFFFFFFFFFFFFF AND DUP2 MSTORE POP POP PUSH2 0x300 JUMP JUMPDEST PUSH0 DUP1 PUSH2 0xA2 DUP4 PUSH1 0x40 MLOAD PUSH1 0x20 ADD PUSH2 0x88 SWAP2 SWAP1 PUSH2 0x1CB JUMP JUMPDEST PUSH1 0x40 MLOAD PUSH1 0x20 DUP2 DUP4 SUB SUB DUP2 MSTORE SWAP1 PUSH1 0x40 MSTORE PUSH2 0x119 PUSH1 0x20 SHL PUSH1 0x20 SHR JUMP JUMPDEST SWAP1 POP DUP1 MLOAD PUSH1 0x20 DUP3 ADD PUSH0 CREATE SWAP2 POP PUSH0 PUSH20 0xFFFFFFFFFFFFFFFFFFFFFFFFFFFFFFFFFFFFFFFF AND DUP3 PUSH20 0xFFFFFFFFFFFFFFFFFFFFFFFFFFFFFFFFFFFFFFFF AND SUB PUSH2 0x113 JUMPI PUSH1 0x40 MLOAD PUSH32 0x8D4ABB600000000000000000000000000000000000000000000000000000000 DUP2 MSTORE PUSH1 0x4 ADD PUSH1 0x40 MLOAD DUP1 SWAP2 SUB SWAP1 REVERT JUMPDEST POP SWAP2 SWAP1 POP JUMP JUMPDEST PUSH1 0x60 DUP2 MLOAD DUP3 PUSH1 0x40 MLOAD PUSH1 0x20 ADD PUSH2 0x12F SWAP3 SWAP2 SWAP1 PUSH2 0x2C3 JUMP JUMPDEST PUSH1 0x40 MLOAD PUSH1 0x20 DUP2 DUP4 SUB SUB DUP2 MSTORE SWAP1 PUSH1 0x40 MSTORE SWAP1 POP SWAP2 SWAP1 POP JUMP JUMPDEST PUSH0 DUP2 SWAP1 POP SWAP3 SWAP2 POP POP JUMP JUMPDEST PUSH0 DUP1 DUP3 ADD MSTORE POP JUMP JUMPDEST PUSH0 PUSH2 0x163 PUSH1 0x1 DUP4 PUSH2 0x145 JUMP JUMPDEST SWAP2 POP PUSH2 0x16E DUP3 PUSH2 0x14F JUMP JUMPDEST PUSH1 0x1 DUP3 ADD SWAP1 POP SWAP2 SWAP1 POP JUMP JUMPDEST PUSH0 DUP2 MLOAD SWAP1 POP SWAP2 SWAP1 POP JUMP JUMPDEST PUSH0 DUP2 SWAP1 POP SWAP3 SWAP2 POP POP JUMP JUMPDEST DUP3 DUP2 DUP4 MCOPY PUSH0 DUP4 DUP4 ADD MSTORE POP POP POP JUMP JUMPDEST PUSH0 PUSH2 0x1A5 DUP3 PUSH2 0x179 JUMP JUMPDEST PUSH2 0x1AF DUP2 DUP6 PUSH2 0x183 JUMP JUMPDEST SWAP4 POP PUSH2 0x1BF DUP2 DUP6 PUSH1 0x20 DUP7 ADD PUSH2 0x18D JUMP JUMPDEST DUP1 DUP5 ADD SWAP2 POP POP SWAP3 SWAP2 POP POP JUMP JUMPDEST PUSH0 PUSH2 0x1D5 DUP3 PUSH2 0x157 JUMP JUMPDEST SWAP2 POP PUSH2 0x1E1 DUP3 DUP5 PUSH2 0x19B JUMP JUMPDEST SWAP2 POP DUP2 SWAP1 POP SWAP3 SWAP2 POP POP JUMP JUMPDEST PUSH32 0x6300000000000000000000000000000000000000000000000000000000000000 PUSH0 DUP3 ADD MSTORE POP JUMP JUMPDEST PUSH0 PUSH2 0x220 PUSH1 0x1 DUP4 PUSH2 0x145 JUMP JUMPDEST SWAP2 POP PUSH2 0x22B DUP3 PUSH2 0x1EC JUMP JUMPDEST PUSH1 0x1 DUP3 ADD SWAP1 POP SWAP2 SWAP1 POP JUMP JUMPDEST PUSH0 PUSH4 0xFFFFFFFF DUP3 AND SWAP1 POP SWAP2 SWAP1 POP JUMP JUMPDEST PUSH0 DUP2 PUSH1 0xE0 SHL SWAP1 POP SWAP2 SWAP1 POP JUMP JUMPDEST PUSH0 PUSH2 0x25B DUP3 PUSH2 0x245 JUMP JUMPDEST SWAP1 POP SWAP2 SWAP1 POP JUMP JUMPDEST PUSH2 0x273 PUSH2 0x26E DUP3 PUSH2 0x236 JUMP JUMPDEST PUSH2 0x251 JUMP JUMPDEST DUP3 MSTORE POP POP JUMP JUMPDEST PUSH32 0x80600E6000396000F30000000000000000000000000000000000000000000000 PUSH0 DUP3 ADD MSTORE POP JUMP JUMPDEST PUSH0 PUSH2 0x2AD PUSH1 0x9 DUP4 PUSH2 0x145 JUMP JUMPDEST SWAP2 POP PUSH2 0x2B8 DUP3 PUSH2 0x279 JUMP JUMPDEST PUSH1 0x9 DUP3 ADD SWAP1 POP SWAP2 SWAP1 POP JUMP JUMPDEST PUSH0 PUSH2 0x2CD DUP3 PUSH2 0x214 JUMP JUMPDEST SWAP2 POP PUSH2 0x2D9 DUP3 DUP6 PUSH2 0x262 JUMP JUMPDEST PUSH1 0x4 DUP3 ADD SWAP2 POP PUSH2 0x2E8 DUP3 PUSH2 0x2A1 JUMP JUMPDEST SWAP2 POP PUSH2 0x2F4 DUP3 DUP5 PUSH2 0x19B JUMP JUMPDEST SWAP2 POP DUP2 SWAP1 POP SWAP4 SWAP3 POP POP POP JUMP JUMPDEST PUSH1 0x80 MLOAD PUSH2 0x14D PUSH2 0x31D PUSH0 CODECOPY PUSH0 DUP2 DUP2 PUSH1 0x76 ADD MSTORE PUSH1 0x9B ADD MSTORE PUSH2 0x14D PUSH0 RETURN INVALID PUSH1 0x80 PUSH1 0x40 MSTORE CALLVALUE DUP1 ISZERO PUSH2 0xF JUMPI PUSH0 DUP1 REVERT JUMPDEST POP PUSH1 0x4 CALLDATASIZE LT PUSH2 0x34 JUMPI PUSH0 CALLDATALOAD PUSH1 0xE0 SHR DUP1 PUSH4 0x2810F972 EQ PUSH2 0x38 JUMPI DUP1 PUSH4 0xA32A3EE4 EQ PUSH2 0x56 JUMPI JUMPDEST PUSH0 DUP1 REVERT JUMPDEST PUSH2 0x40 PUSH2 0x74 JUMP JUMPDEST PUSH1 0x40 MLOAD PUSH2 0x4D SWAP2 SWAP1 PUSH2 0xFE JUMP JUMPDEST PUSH1 0x40 MLOAD DUP1 SWAP2 SUB SWAP1 RETURN JUMPDEST PUSH2 0x5E PUSH2 0x98 JUMP JUMPDEST PUSH1 0x40 MLOAD PUSH2 0x6B SWAP2 SWAP1 PUSH2 0xFE JUMP JUMPDEST PUSH1 0x40 MLOAD DUP1 SWAP2 SUB SWAP1 RETURN JUMPDEST PUSH32 0x0 DUP2 JUMP JUMPDEST PUSH0 PUSH32 0x0 SWAP1 POP SWAP1 JUMP JUMPDEST PUSH0 PUSH20 0xFFFFFFFFFFFFFFFFFFFFFFFFFFFFFFFFFFFFFFFF DUP3 AND SWAP1 POP SWAP2 SWAP1 POP JUMP JUMPDEST PUSH0 PUSH2 0xE8 DUP3 PUSH2 0xBF JUMP JUMPDEST SWAP1 POP SWAP2 SWAP1 POP JUMP JUMPDEST PUSH2 0xF8 DUP2 PUSH2 0xDE JUMP JUMPDEST DUP3 MSTORE POP POP JUMP JUMPDEST PUSH0 PUSH1 0x20 DUP3 ADD SWAP1 POP PUSH2 0x111 PUSH0 DUP4 ADD DUP5 PUSH2 0xEF JUMP JUMPDEST SWAP3 SWAP2 POP POP JUMP INVALID LOG2 PUSH5 0x6970667358 0x22 SLT KECCAK256 CALL 0xEC CREATE2 NUMBER CODECOPY PUSH20 0x119E20A323CA2F17D926EA58F12540D3F4ADD728 0xC7 RETURNDATACOPY 0xF MUL KECCAK256 0x4C PUSH5 0x736F6C6343 STOP ADDMOD BYTE STOP CALLER CALLDATACOPY BALANCE CODECOPY ADDRESS CALLDATASIZE CALLDATACOPY CODECOPY ORIGIN BALANCE CALLDATALOAD CODECOPY BALANCE CALLVALUE KECCAK256 BALANCE CALLDATACOPY CODECOPY 0x2E CALLVALUE BALANCE ORIGIN BALANCE CALLDATALOAD CALLDATALOAD ADDRESS CALLDATACOPY CODESIZE CODECOPY CODESIZE BALANCE CODECOPY CALLER KECCAK256 COINBASE KECCAK256 CALLVALUE ADDRESS ADDRESS KECCAK256 CALLVALUE ADDRESS ADDRESS KECCAK256 ADDRESS KECCAK256 ADDRESS KECCAK256 BALANCE KECCAK256 CALLER ORIGIN CALLER 0x2E CALLVALUE CALLVALUE BALANCE CALLER ADDRESS CALLDATALOAD ORIGIN CALLDATASIZE CODECOPY CALLDATASIZE ADDRESS ADDRESS CODECOPY KECCAK256 BALANCE CALLDATALOAD CODECOPY 0x2E ORIGIN CALLER BALANCE CALLVALUE CODECOPY CALLVALUE ORIGIN CALLDATASIZE ADDRESS CALLDATASIZE CALLDATALOAD CODESIZE KECCAK256 0x4C KECCAK256 ORIGIN CODESIZE CALLDATALOAD 0x2E CALLDATACOPY ORIGIN CODECOPY CALLDATALOAD CALLDATASIZE CALLDATASIZE CALLER ORIGIN CALLER CALLDATALOAD ORIGIN BALANCE KECCAK256 CODESIZE CODESIZE 0x2E CALLDATASIZE CALLDATACOPY CALLDATACOPY CALLDATACOPY CODECOPY CALLER BALANCE BALANCE ORIGIN CALLDATACOPY CODESIZE CODECOPY CALLDATASIZE CALLER KECCAK256 COINBASE KECCAK256 CALLVALUE CODESIZE ADDRESS KECCAK256 CALLVALUE CODESIZE ADDRESS KECCAK256 ADDRESS KECCAK256 ADDRESS KECCAK256 ADDRESS KECCAK256 ORIGIN CALLVALUE CALLDATALOAD 0x2E CALLER ORIGIN CALLDATASIZE ORIGIN CODESIZE CODESIZE BALANCE CALLDATALOAD ADDRESS CALLDATALOAD CODECOPY ADDRESS CODECOPY CALLER KECCAK256 BALANCE BALANCE ORIGIN 0x2E CODESIZE CODECOPY CALLVALUE CALLDATALOAD CODESIZE CALLDATASIZE ADDRESS CODECOPY CALLVALUE CALLDATACOPY CALLDATACOPY CODESIZE ORIGIN CODESIZE KECCAK256 GAS 0x22 KECCAK256 PUSH7 0x696C6C3D22626C PUSH2 0x636B 0x22 KECCAK256 PUSH20 0x74726F6B653D22626C61636B22207374726F6B65 0x2D PUSH24 0x696474683D2231222F3E0A3C7061746820643D224D203333 CALLVALUE 0x2E ORIGIN BALANCE CALLDATACOPY CALLDATALOAD ORIGIN CALLDATALOAD CALLVALUE CALLER CALLER CALLDATACOPY ORIGIN CALLDATACOPY CALLER KECCAK256 ORIGIN CALLVALUE CALLDATALOAD 0x2E CODECOPY ORIGIN CODECOPY CALLDATACOPY ORIGIN CALLVALUE ADDRESS CALLDATASIZE CALLER BALANCE CODESIZE CALLDATALOAD CALLDATALOAD ORIGIN KECCAK256 COINBASE KECCAK256 CALLER ORIGIN ADDRESS KECCAK256 CALLER ORIGIN ADDRESS KECCAK256 ADDRESS KECCAK256 ADDRESS KECCAK256 BALANCE KECCAK256 CALLER CALLDATASIZE BALANCE 0x2E BALANCE CALLDATALOAD CALLER ADDRESS CALLVALUE CALLVALUE ORIGIN BALANCE CALLDATALOAD CALLDATASIZE CODESIZE ADDRESS CALLDATASIZE CALLDATACOPY KECCAK256 ORIGIN ORIGIN CODECOPY 0x2E CALLDATACOPY CODESIZE CALLDATALOAD BALANCE CODECOPY CALLDATALOAD CALLVALUE ADDRESS CODESIZE CALLDATALOAD ORIGIN CALLDATASIZE CALLVALUE ORIGIN KECCAK256 0x4C KECCAK256 CALLER ORIGIN CALLER 0x2E CALLVALUE CALLVALUE BALANCE CALLER ADDRESS CALLDATALOAD ORIGIN CALLDATASIZE CODECOPY CALLDATASIZE ADDRESS ADDRESS CODECOPY KECCAK256 BALANCE CALLDATALOAD CODECOPY 0x2E ORIGIN CALLER BALANCE CALLVALUE CODECOPY CALLVALUE ORIGIN CALLDATASIZE ADDRESS CALLDATASIZE CALLDATALOAD CODESIZE KECCAK256 COINBASE KECCAK256 CALLVALUE ADDRESS ADDRESS KECCAK256 CALLVALUE ADDRESS ADDRESS KECCAK256 ADDRESS KECCAK256 ADDRESS KECCAK256 ADDRESS KECCAK256 ORIGIN CODESIZE CODECOPY 0x2E CALLDATACOPY CALLDATACOPY BALANCE CODECOPY ADDRESS CALLDATASIZE CALLDATACOPY CODECOPY ORIGIN BALANCE CALLDATALOAD CODECOPY BALANCE CALLVALUE KECCAK256 BALANCE CALLDATACOPY CODECOPY 0x2E CALLVALUE BALANCE ORIGIN BALANCE CALLDATALOAD CALLDATALOAD ADDRESS CALLDATACOPY CODESIZE CODECOPY CODESIZE BALANCE CODECOPY CALLER KECCAK256 GAS 0x22 KECCAK256 PUSH7 0x696C6C3D22626C PUSH2 0x636B 0x22 KECCAK256 PUSH20 0x74726F6B653D22626C61636B22207374726F6B65 0x2D PUSH24 0x696474683D2231222F3E0A3C7061746820643D224D203337 CODESIZE 0x2E CALLDATASIZE CALLDATASIZE CALLER BALANCE CALLVALUE CALLVALUE ADDRESS CALLDATACOPY CALLDATALOAD ORIGIN CODECOPY CALLDATALOAD CALLVALUE CALLDATASIZE KECCAK256 CALLER BALANCE ORIGIN 0x2E CALLVALUE CALLVALUE CALLDATACOPY ORIGIN CODECOPY CALLER ADDRESS CALLVALUE CALLDATACOPY CALLER CODESIZE CODECOPY BALANCE CALLDATACOPY KECCAK256 COINBASE KECCAK256 ORIGIN CALLVALUE ADDRESS KECCAK256 ORIGIN CALLVALUE ADDRESS KECCAK256 ADDRESS KECCAK256 ADDRESS KECCAK256 BALANCE KECCAK256 CALLER CODECOPY CODESIZE 0x2E CODESIZE CALLDATASIZE CALLVALUE CALLDATACOPY CODESIZE CALLER BALANCE CALLDATASIZE BALANCE CALLDATACOPY CALLDATASIZE ADDRESS CALLDATALOAD KECCAK256 CALLER ADDRESS ADDRESS 0x2E CALLER CALLER CODESIZE CODESIZE CODECOPY CALLDATASIZE CALLDATALOAD CALLDATALOAD CALLDATASIZE CALLER CODECOPY CALLVALUE CODESIZE CALLVALUE KECCAK256 0x4C KECCAK256 CALLER CALLDATASIZE BALANCE 0x2E BALANCE CALLDATALOAD CALLER ADDRESS CALLVALUE CALLVALUE ORIGIN BALANCE CALLDATALOAD CALLDATASIZE CODESIZE ADDRESS CALLDATASIZE CALLDATACOPY KECCAK256 ORIGIN ORIGIN CODECOPY 0x2E CALLDATACOPY CODESIZE CALLDATALOAD BALANCE CODECOPY CALLDATALOAD CALLVALUE ADDRESS CODESIZE CALLDATALOAD ORIGIN CALLDATASIZE CALLVALUE ORIGIN KECCAK256 COINBASE KECCAK256 CALLER ORIGIN ADDRESS KECCAK256 CALLER ORIGIN ADDRESS KECCAK256 ADDRESS KECCAK256 ADDRESS KECCAK256 ADDRESS KECCAK256 CALLER CALLER CALLVALUE 0x2E ORIGIN BALANCE CALLDATACOPY CALLDATALOAD ORIGIN CALLDATALOAD CALLVALUE CALLER CALLER CALLDATACOPY ORIGIN CALLDATACOPY CALLER KECCAK256 ORIGIN CALLVALUE CALLDATALOAD 0x2E CODECOPY ORIGIN CODECOPY CALLDATACOPY ORIGIN CALLVALUE ADDRESS CALLDATASIZE CALLER BALANCE CODESIZE CALLDATALOAD CALLDATALOAD ORIGIN KECCAK256 GAS 0x22 KECCAK256 PUSH7 0x696C6C3D22626C PUSH2 0x636B 0x22 KECCAK256 PUSH20 0x74726F6B653D22626C61636B22207374726F6B65 0x2D PUSH24 0x696474683D2231222F3E0A3C7061746820643D224D203432 CALLER 0x2E BALANCE ADDRESS CODESIZE CALLDATACOPY CALLDATASIZE ORIGIN CALLDATACOPY BALANCE CALLDATASIZE CODESIZE CALLDATASIZE CALLER CALLDATACOPY KECCAK256 CALLER CALLDATACOPY CODESIZE 0x2E CODECOPY CALLDATASIZE CALLVALUE CODESIZE CALLDATASIZE ORIGIN ADDRESS CALLER BALANCE CALLDATALOAD CODECOPY ORIGIN CALLDATACOPY CALLDATASIZE KECCAK256 COINBASE KECCAK256 BALANCE CALLDATASIZE ADDRESS KECCAK256 BALANCE CALLDATASIZE ADDRESS KECCAK256 ADDRESS KECCAK256 ADDRESS KECCAK256 BALANCE KECCAK256 CALLVALUE CALLER CALLDATASIZE 0x2E CALLDATALOAD CALLDATACOPY CALLDATASIZE CALLDATALOAD ORIGIN ORIGIN BALANCE ADDRESS CALLDATACOPY CODESIZE CALLVALUE ADDRESS CALLER CALLER KECCAK256 CALLER CALLDATACOPY ADDRESS 0x2E CODESIZE CODECOPY ORIGIN CALLDATALOAD CODECOPY CALLDATACOPY CALLDATACOPY ADDRESS CALLVALUE ORIGIN CALLDATASIZE CALLER ORIGIN KECCAK256 0x4C KECCAK256 CALLER CODECOPY CODESIZE 0x2E CODESIZE CALLDATASIZE CALLVALUE CALLDATACOPY CODESIZE CALLER BALANCE CALLDATASIZE BALANCE CALLDATACOPY CALLDATASIZE ADDRESS CALLDATALOAD KECCAK256 CALLER ADDRESS ADDRESS 0x2E CALLER CALLER CODESIZE CODESIZE CODECOPY CALLDATASIZE CALLDATALOAD CALLDATALOAD CALLDATASIZE CALLER CODECOPY CALLVALUE CODESIZE CALLVALUE KECCAK256 COINBASE KECCAK256 ORIGIN CALLVALUE ADDRESS KECCAK256 ORIGIN CALLVALUE ADDRESS KECCAK256 ADDRESS KECCAK256 ADDRESS KECCAK256 ADDRESS KECCAK256 CALLER CALLDATACOPY CODESIZE 0x2E CALLDATASIZE CALLDATASIZE CALLER BALANCE CALLVALUE CALLVALUE ADDRESS CALLDATACOPY CALLDATALOAD ORIGIN CODECOPY CALLDATALOAD CALLVALUE CALLDATASIZE KECCAK256 CALLER BALANCE ORIGIN 0x2E CALLVALUE CALLVALUE CALLDATACOPY ORIGIN CODECOPY CALLER ADDRESS CALLVALUE CALLDATACOPY CALLER CODESIZE CODECOPY BALANCE CALLDATACOPY KECCAK256 GAS 0x22 KECCAK256 PUSH7 0x696C6C3D22626C PUSH2 0x636B 0x22 KECCAK256 PUSH20 0x74726F6B653D22626C61636B22207374726F6B65 0x2D PUSH24 0x696474683D2231222F3E0A3C7061746820643D224D203332 CALLER 0x2E CALLVALUE CALLVALUE BALANCE CALLER ADDRESS CALLDATALOAD ORIGIN CALLDATASIZE CODECOPY CALLDATASIZE ADDRESS ADDRESS CODECOPY KECCAK256 BALANCE CALLDATALOAD CODECOPY 0x2E ORIGIN CALLER BALANCE CALLVALUE CODECOPY CALLVALUE ORIGIN CALLDATASIZE ADDRESS CALLDATASIZE CALLDATALOAD CODESIZE KECCAK256 COINBASE KECCAK256 CALLVALUE ADDRESS ADDRESS KECCAK256 CALLVALUE ADDRESS ADDRESS KECCAK256 ADDRESS KECCAK256 ADDRESS KECCAK256 BALANCE KECCAK256 CALLER CALLDATALOAD CODESIZE 0x2E CODECOPY ORIGIN CALLDATASIZE CALLDATASIZE ORIGIN CALLDATACOPY ADDRESS CALLDATALOAD CALLER CODECOPY CALLDATASIZE CALLER CODECOPY KECCAK256 BALANCE CALLVALUE ORIGIN 0x2E CALLVALUE CALLVALUE CODESIZE BALANCE CODESIZE CALLDATASIZE CODECOPY CODECOPY CALLDATALOAD CALLVALUE CODESIZE CALLDATALOAD CALLVALUE KECCAK256 0x4C KECCAK256 CALLER ORIGIN CODESIZE 0x2E CALLER BALANCE BALANCE CODECOPY CALLDATALOAD ORIGIN CALLVALUE CALLDATASIZE CALLVALUE CALLDATACOPY CALLDATALOAD CALLDATASIZE CALLDATASIZE CALLVALUE KECCAK256 CALLDATASIZE CODESIZE 0x2E CALLDATALOAD CALLER CALLDATACOPY CODESIZE ORIGIN CALLVALUE CALLER CODECOPY CALLVALUE CALLDATALOAD CODESIZE ORIGIN CALLVALUE CALLDATASIZE KECCAK256 COINBASE KECCAK256 CALLVALUE CODESIZE ADDRESS KECCAK256 CALLVALUE CODESIZE ADDRESS KECCAK256 ADDRESS KECCAK256 ADDRESS KECCAK256 ADDRESS KECCAK256 ORIGIN CODESIZE CALLDATALOAD 0x2E CALLDATACOPY ORIGIN CODECOPY CALLDATALOAD CALLDATASIZE CALLDATASIZE CALLER ORIGIN CALLER CALLDATALOAD ORIGIN BALANCE KECCAK256 CODESIZE CODESIZE 0x2E CALLDATASIZE CALLDATACOPY CALLDATACOPY CALLDATACOPY CODECOPY CALLER BALANCE BALANCE ORIGIN CALLDATACOPY CODESIZE CODECOPY CALLDATASIZE CALLER KECCAK256 GAS 0x22 KECCAK256 PUSH7 0x696C6C3D22626C PUSH2 0x636B 0x22 KECCAK256 PUSH20 0x74726F6B653D22626C61636B22207374726F6B65 0x2D PUSH24 0x696474683D2231222F3E0A3C7061746820643D224D203336 BALANCE 0x2E BALANCE CALLDATALOAD CALLER ADDRESS CALLVALUE CALLVALUE ORIGIN BALANCE CALLDATALOAD CALLDATASIZE CODESIZE ADDRESS CALLDATASIZE CALLDATACOPY KECCAK256 ORIGIN ORIGIN CODECOPY 0x2E CALLDATACOPY CODESIZE CALLDATALOAD BALANCE CODECOPY CALLDATALOAD CALLVALUE ADDRESS CODESIZE CALLDATALOAD ORIGIN CALLDATASIZE CALLVALUE ORIGIN KECCAK256 COINBASE KECCAK256 CALLER ORIGIN ADDRESS KECCAK256 CALLER ORIGIN ADDRESS KECCAK256 ADDRESS KECCAK256 ADDRESS KECCAK256 BALANCE KECCAK256 CALLER CODESIZE CODECOPY 0x2E CALLDATALOAD CALLVALUE BALANCE CALLER ADDRESS BALANCE CALLDATASIZE CALLVALUE CALLER BALANCE CALLDATACOPY BALANCE BALANCE KECCAK256 ORIGIN BALANCE CALLDATASIZE 0x2E CALLER CALLDATALOAD CODESIZE CALLDATALOAD CALLVALUE CODECOPY CALLDATALOAD CODECOPY CALLDATASIZE CALLER CODESIZE CODESIZE CALLER CALLVALUE KECCAK256 0x4C KECCAK256 CALLER CALLDATALOAD CODESIZE 0x2E CODECOPY ORIGIN CALLDATASIZE CALLDATASIZE ORIGIN CALLDATACOPY ADDRESS CALLDATALOAD CALLER CODECOPY CALLDATASIZE CALLER CODECOPY KECCAK256 BALANCE CALLVALUE ORIGIN 0x2E CALLVALUE CALLVALUE CODESIZE BALANCE CODESIZE CALLDATASIZE CODECOPY CODECOPY CALLDATALOAD CALLVALUE CODESIZE CALLDATALOAD CALLVALUE KECCAK256 COINBASE KECCAK256 CALLVALUE ADDRESS ADDRESS KECCAK256 CALLVALUE ADDRESS ADDRESS KECCAK256 ADDRESS KECCAK256 ADDRESS KECCAK256 ADDRESS KECCAK256 CALLER ORIGIN CALLER 0x2E CALLVALUE CALLVALUE BALANCE CALLER ADDRESS CALLDATALOAD ORIGIN CALLDATASIZE CODECOPY CALLDATASIZE ADDRESS ADDRESS CODECOPY KECCAK256 BALANCE CALLDATALOAD CODECOPY 0x2E ORIGIN CALLER BALANCE CALLVALUE CODECOPY CALLVALUE ORIGIN CALLDATASIZE ADDRESS CALLDATASIZE CALLDATALOAD CODESIZE KECCAK256 GAS 0x22 KECCAK256 PUSH7 0x696C6C3D22626C PUSH2 0x636B 0x22 KECCAK256 PUSH20 0x74726F6B653D22626C61636B22207374726F6B65 0x2D PUSH24 0x696474683D2231222F3E0A3C7061746820643D224D203339 CODESIZE 0x2E CODESIZE CALLDATASIZE CALLVALUE CALLDATACOPY CODESIZE CALLER BALANCE CALLDATASIZE BALANCE CALLDATACOPY CALLDATASIZE ADDRESS CALLDATALOAD KECCAK256 CALLER ADDRESS ADDRESS 0x2E CALLER CALLER CODESIZE CODESIZE CODECOPY CALLDATASIZE CALLDATALOAD CALLDATALOAD CALLDATASIZE CALLER CODECOPY CALLVALUE CODESIZE CALLVALUE KECCAK256 COINBASE KECCAK256 ORIGIN CALLVALUE ADDRESS KECCAK256 ORIGIN CALLVALUE ADDRESS KECCAK256 ADDRESS KECCAK256 ADDRESS KECCAK256 BALANCE KECCAK256 CALLVALUE ORIGIN ADDRESS 0x2E BALANCE CALLDATALOAD CALLDATALOAD CODECOPY CALLDATACOPY CALLDATASIZE ORIGIN CALLER ORIGIN CALLER CALLDATACOPY CODESIZE CALLER KECCAK256 ORIGIN CODECOPY ADDRESS 0x2E ORIGIN CALLDATASIZE CODESIZE CODECOPY BALANCE ORIGIN BALANCE CODECOPY CALLDATACOPY ORIGIN CODECOPY BALANCE ORIGIN CALLER KECCAK256 0x4C KECCAK256 CALLER CODESIZE CODECOPY 0x2E CALLDATALOAD CALLVALUE BALANCE CALLER ADDRESS BALANCE CALLDATASIZE CALLVALUE CALLER BALANCE CALLDATACOPY BALANCE BALANCE KECCAK256 ORIGIN BALANCE CALLDATASIZE 0x2E CALLER CALLDATALOAD CODESIZE CALLDATALOAD CALLVALUE CODECOPY CALLDATALOAD CODECOPY CALLDATASIZE CALLER CODESIZE CODESIZE CALLER CALLVALUE KECCAK256 COINBASE KECCAK256 CALLER ORIGIN ADDRESS KECCAK256 CALLER ORIGIN ADDRESS KECCAK256 ADDRESS KECCAK256 ADDRESS KECCAK256 ADDRESS KECCAK256 CALLER CALLDATASIZE BALANCE 0x2E BALANCE CALLDATALOAD CALLER ADDRESS CALLVALUE CALLVALUE ORIGIN BALANCE CALLDATALOAD CALLDATASIZE CODESIZE ADDRESS CALLDATASIZE CALLDATACOPY KECCAK256 ORIGIN ORIGIN CODECOPY 0x2E CALLDATACOPY CODESIZE CALLDATALOAD BALANCE CODECOPY CALLDATALOAD CALLVALUE ADDRESS CODESIZE CALLDATALOAD ORIGIN CALLDATASIZE CALLVALUE ORIGIN KECCAK256 GAS 0x22 KECCAK256 PUSH7 0x696C6C3D22626C PUSH2 0x636B 0x22 KECCAK256 PUSH20 0x74726F6B653D22626C61636B22207374726F6B65 0x2D PUSH24 0x696474683D2231222F3E0A3C7061746820643D224D203433 CALLDATASIZE 0x2E CALLDATALOAD CALLDATACOPY CALLDATASIZE CALLDATALOAD ORIGIN ORIGIN BALANCE ADDRESS CALLDATACOPY CODESIZE CALLVALUE ADDRESS CALLER CALLER KECCAK256 CALLER CALLDATACOPY ADDRESS 0x2E CODESIZE CODECOPY ORIGIN CALLDATALOAD CODECOPY CALLDATACOPY CALLDATACOPY ADDRESS CALLVALUE ORIGIN CALLDATASIZE CALLER ORIGIN KECCAK256 COINBASE KECCAK256 BALANCE CALLDATASIZE ADDRESS KECCAK256 BALANCE CALLDATASIZE ADDRESS KECCAK256 ADDRESS KECCAK256 ADDRESS KECCAK256 BALANCE KECCAK256 CALLVALUE CALLDATALOAD ADDRESS 0x2E CALLDATACOPY CALLDATACOPY ADDRESS CALLDATASIZE CALLDATALOAD ADDRESS CODESIZE ORIGIN BALANCE CALLDATALOAD CODESIZE CALLDATALOAD CALLDATALOAD CALLDATALOAD KECCAK256 CALLER CALLDATASIZE CALLVALUE 0x2E BALANCE CALLDATACOPY CODECOPY ORIGIN CALLDATACOPY CALLVALUE CALLDATACOPY CODECOPY CODESIZE BALANCE CODECOPY CALLVALUE ORIGIN KECCAK256 0x4C KECCAK256 CALLVALUE ORIGIN ADDRESS 0x2E BALANCE CALLDATALOAD CALLDATALOAD CODECOPY CALLDATACOPY CALLDATASIZE ORIGIN CALLER ORIGIN CALLER CALLDATACOPY CODESIZE CALLER KECCAK256 ORIGIN CODECOPY ADDRESS 0x2E ORIGIN CALLDATASIZE CODESIZE CODECOPY BALANCE ORIGIN BALANCE CODECOPY CALLDATACOPY ORIGIN CODECOPY BALANCE ORIGIN CALLER KECCAK256 COINBASE KECCAK256 ORIGIN CALLVALUE ADDRESS KECCAK256 ORIGIN CALLVALUE ADDRESS KECCAK256 ADDRESS KECCAK256 ADDRESS KECCAK256 ADDRESS KECCAK256 CALLER CODECOPY CODESIZE 0x2E CODESIZE CALLDATASIZE CALLVALUE CALLDATACOPY CODESIZE CALLER BALANCE CALLDATASIZE BALANCE CALLDATACOPY CALLDATASIZE ADDRESS CALLDATALOAD KECCAK256 CALLER ADDRESS ADDRESS 0x2E CALLER CALLER CODESIZE CODESIZE CODECOPY CALLDATASIZE CALLDATALOAD CALLDATALOAD CALLDATASIZE CALLER CODECOPY CALLVALUE CODESIZE CALLVALUE KECCAK256 GAS 0x22 KECCAK256 PUSH7 0x696C6C3D22626C PUSH2 0x636B 0x22 KECCAK256 PUSH20 0x74726F6B653D22626C61636B22207374726F6B65 0x2D PUSH24 0x696474683D2231222F3E0A3C7061746820643D224D203335 CODESIZE 0x2E CODECOPY ORIGIN CALLDATASIZE CALLDATASIZE ORIGIN CALLDATACOPY ADDRESS CALLDATALOAD CALLER CODECOPY CALLDATASIZE CALLER CODECOPY KECCAK256 BALANCE CALLVALUE ORIGIN 0x2E CALLVALUE CALLVALUE CODESIZE BALANCE CODESIZE CALLDATASIZE CODECOPY CODECOPY CALLDATALOAD CALLVALUE CODESIZE CALLDATALOAD CALLVALUE KECCAK256 COINBASE KECCAK256 CALLVALUE ADDRESS ADDRESS KECCAK256 CALLVALUE ADDRESS ADDRESS KECCAK256 ADDRESS KECCAK256 ADDRESS KECCAK256 BALANCE KECCAK256 CALLER CODECOPY CALLDATALOAD 0x2E CODESIZE CODESIZE CALLDATASIZE BALANCE ORIGIN CODECOPY ADDRESS CODECOPY CODESIZE ORIGIN BALANCE CALLVALUE CALLDATACOPY KECCAK256 BALANCE ORIGIN CODECOPY 0x2E ORIGIN ORIGIN CALLER CODESIZE CALLDATASIZE CALLDATALOAD CALLDATACOPY ADDRESS CALLDATACOPY BALANCE BALANCE CALLDATASIZE CALLDATALOAD CALLVALUE KECCAK256 0x4C KECCAK256 CALLER CALLDATACOPY ORIGIN 0x2E CALLDATASIZE CALLDATASIZE CALLER CALLER CALLDATALOAD CALLVALUE CODECOPY BALANCE CALLDATACOPY CODESIZE CALLDATALOAD CALLDATACOPY CALLDATASIZE CALLDATALOAD KECCAK256 CALLDATALOAD ORIGIN 0x2E CALLDATASIZE CALLDATASIZE CODESIZE CALLDATASIZE CALLER CODESIZE CODESIZE CALLVALUE CODESIZE CALLDATALOAD CALLER CODECOPY CODECOPY KECCAK256 COINBASE KECCAK256 CALLVALUE CODESIZE ADDRESS KECCAK256 CALLVALUE CODESIZE ADDRESS KECCAK256 ADDRESS KECCAK256 ADDRESS KECCAK256 ADDRESS KECCAK256 CALLER ORIGIN CODESIZE 0x2E CALLER BALANCE BALANCE CODECOPY CALLDATALOAD ORIGIN CALLVALUE CALLDATASIZE CALLVALUE CALLDATACOPY CALLDATALOAD CALLDATASIZE CALLDATASIZE CALLVALUE KECCAK256 CALLDATASIZE CODESIZE 0x2E CALLDATALOAD CALLER CALLDATACOPY CODESIZE ORIGIN CALLVALUE CALLER CODECOPY CALLVALUE CALLDATALOAD CODESIZE ORIGIN CALLVALUE CALLDATASIZE KECCAK256 GAS 0x22 KECCAK256 PUSH7 0x696C6C3D22626C PUSH2 0x636B 0x22 KECCAK256 PUSH20 0x74726F6B653D22626C61636B22207374726F6B65 0x2D PUSH24 0x696474683D2231222F3E0A3C7061746820643D224D203338 CODECOPY 0x2E CALLDATALOAD CALLVALUE BALANCE CALLER ADDRESS BALANCE CALLDATASIZE CALLVALUE CALLER BALANCE CALLDATACOPY BALANCE BALANCE KECCAK256 ORIGIN BALANCE CALLDATASIZE 0x2E CALLER CALLDATALOAD CODESIZE CALLDATALOAD CALLVALUE CODECOPY CALLDATALOAD CODECOPY CALLDATASIZE CALLER CODESIZE CODESIZE CALLER CALLVALUE KECCAK256 COINBASE KECCAK256 CALLER ORIGIN ADDRESS KECCAK256 CALLER ORIGIN ADDRESS KECCAK256 ADDRESS KECCAK256 ADDRESS KECCAK256 BALANCE KECCAK256 CALLVALUE BALANCE CODECOPY 0x2E BALANCE ADDRESS CODESIZE CODECOPY ADDRESS CALLER ORIGIN CALLDATACOPY CODESIZE CALLDATALOAD CALLDATACOPY BALANCE CALLDATACOPY CALLVALUE KECCAK256 ORIGIN ADDRESS CALLDATALOAD 0x2E CALLDATACOPY CALLDATACOPY CODECOPY ADDRESS CODECOPY ORIGIN CALLDATALOAD CALLDATASIZE CALLDATALOAD CALLDATASIZE CODECOPY CALLER ORIGIN CALLDATALOAD KECCAK256 0x4C KECCAK256 CALLER CODECOPY CALLDATALOAD 0x2E CODESIZE CODESIZE CALLDATASIZE BALANCE ORIGIN CODECOPY ADDRESS CODECOPY CODESIZE ORIGIN BALANCE CALLVALUE CALLDATACOPY KECCAK256 BALANCE ORIGIN CODECOPY 0x2E ORIGIN ORIGIN CALLER CODESIZE CALLDATASIZE CALLDATALOAD CALLDATACOPY ADDRESS CALLDATACOPY BALANCE BALANCE CALLDATASIZE CALLDATALOAD CALLVALUE KECCAK256 COINBASE KECCAK256 CALLVALUE ADDRESS ADDRESS KECCAK256 CALLVALUE ADDRESS ADDRESS KECCAK256 ADDRESS KECCAK256 ADDRESS KECCAK256 ADDRESS KECCAK256 CALLER CALLDATALOAD CODESIZE 0x2E CODECOPY ORIGIN CALLDATASIZE CALLDATASIZE ORIGIN CALLDATACOPY ADDRESS CALLDATALOAD CALLER CODECOPY CALLDATASIZE CALLER CODECOPY KECCAK256 BALANCE CALLVALUE ORIGIN 0x2E CALLVALUE CALLVALUE CODESIZE BALANCE CODESIZE CALLDATASIZE CODECOPY CODECOPY CALLDATALOAD CALLVALUE CODESIZE CALLDATALOAD CALLVALUE KECCAK256 GAS 0x22 KECCAK256 PUSH7 0x696C6C3D22626C PUSH2 0x636B 0x22 KECCAK256 PUSH20 0x74726F6B653D22626C61636B22207374726F6B65 0x2D PUSH24 0x696474683D2231222F3E0A3C7061746820643D224D203432 ADDRESS 0x2E BALANCE CALLDATALOAD CALLDATALOAD CODECOPY CALLDATACOPY CALLDATASIZE ORIGIN CALLER ORIGIN CALLER CALLDATACOPY CODESIZE CALLER KECCAK256 ORIGIN CODECOPY ADDRESS 0x2E ORIGIN CALLDATASIZE CODESIZE CODECOPY BALANCE ORIGIN BALANCE CODECOPY CALLDATACOPY ORIGIN CODECOPY BALANCE ORIGIN CALLER KECCAK256 COINBASE KECCAK256 ORIGIN CALLVALUE ADDRESS KECCAK256 ORIGIN CALLVALUE ADDRESS KECCAK256 ADDRESS KECCAK256 ADDRESS KECCAK256 BALANCE KECCAK256 CALLVALUE CALLVALUE ORIGIN 0x2E CALLER CALLER BALANCE CALLDATASIZE CALLDATACOPY CALLDATACOPY CALLVALUE CALLDATALOAD CODESIZE CODECOPY ORIGIN CODESIZE CODESIZE KECCAK256 ORIGIN CODESIZE ORIGIN 0x2E CALLER CALLER CALLVALUE CALLER BALANCE CODECOPY CALLVALUE ORIGIN CALLVALUE ORIGIN CALLDATASIZE CODECOPY CODECOPY CALLDATALOAD KECCAK256 0x4C KECCAK256 CALLVALUE BALANCE CODECOPY 0x2E BALANCE ADDRESS CODESIZE CODECOPY ADDRESS CALLER ORIGIN CALLDATACOPY CODESIZE CALLDATALOAD CALLDATACOPY BALANCE CALLDATACOPY CALLVALUE KECCAK256 ORIGIN ADDRESS CALLDATALOAD 0x2E CALLDATACOPY CALLDATACOPY CODECOPY ADDRESS CODECOPY ORIGIN CALLDATALOAD CALLDATASIZE CALLDATALOAD CALLDATASIZE CODECOPY CALLER ORIGIN CALLDATALOAD KECCAK256 COINBASE KECCAK256 CALLER ORIGIN ADDRESS KECCAK256 CALLER ORIGIN ADDRESS KECCAK256 ADDRESS KECCAK256 ADDRESS KECCAK256 ADDRESS KECCAK256 CALLER CODESIZE CODECOPY 0x2E CALLDATALOAD CALLVALUE BALANCE CALLER ADDRESS BALANCE CALLDATASIZE CALLVALUE CALLER BALANCE CALLDATACOPY BALANCE BALANCE KECCAK256 ORIGIN BALANCE CALLDATASIZE 0x2E CALLER CALLDATALOAD CODESIZE CALLDATALOAD CALLVALUE CODECOPY CALLDATALOAD CODECOPY CALLDATASIZE CALLER CODESIZE CODESIZE CALLER CALLVALUE KECCAK256 GAS 0x22 KECCAK256 PUSH7 0x696C6C3D22626C PUSH2 0x636B 0x22 KECCAK256 PUSH20 0x74726F6B653D22626C61636B22207374726F6B65 0x2D PUSH24 0x696474683D2231222F3E0A3C7061746820643D224D203435 ADDRESS 0x2E CALLDATACOPY CALLDATACOPY ADDRESS CALLDATASIZE CALLDATALOAD ADDRESS CODESIZE ORIGIN BALANCE CALLDATALOAD CODESIZE CALLDATALOAD CALLDATALOAD CALLDATALOAD KECCAK256 CALLER CALLDATASIZE CALLVALUE 0x2E BALANCE CALLDATACOPY CODECOPY ORIGIN CALLDATACOPY CALLVALUE CALLDATACOPY CODECOPY CODESIZE BALANCE CODECOPY CALLVALUE ORIGIN KECCAK256 COINBASE KECCAK256 BALANCE CALLDATASIZE ADDRESS KECCAK256 BALANCE CALLDATASIZE ADDRESS KECCAK256 ADDRESS KECCAK256 ADDRESS KECCAK256 BALANCE KECCAK256 CALLVALUE CALLDATASIZE CALLDATALOAD 0x2E CALLDATALOAD CALLDATALOAD CALLVALUE CALLVALUE CALLDATALOAD BALANCE CALLDATASIZE CALLER CODECOPY ORIGIN CODESIZE CALLDATALOAD CODESIZE CALLVALUE KECCAK256 CALLER CALLDATALOAD CODESIZE 0x2E CODESIZE CODESIZE CODECOPY CALLDATALOAD CALLVALUE CALLDATASIZE ORIGIN CODESIZE ORIGIN CODESIZE CALLVALUE CALLDATASIZE CALLDATASIZE KECCAK256 0x4C KECCAK256 CALLVALUE CALLVALUE ORIGIN 0x2E CALLER CALLER BALANCE CALLDATASIZE CALLDATACOPY CALLDATACOPY CALLVALUE CALLDATALOAD CODESIZE CODECOPY ORIGIN CODESIZE CODESIZE KECCAK256 ORIGIN CODESIZE ORIGIN 0x2E CALLER CALLER CALLVALUE CALLER BALANCE CODECOPY CALLVALUE ORIGIN CALLVALUE ORIGIN CALLDATASIZE CODECOPY CODECOPY CALLDATALOAD KECCAK256 COINBASE KECCAK256 ORIGIN CALLVALUE ADDRESS KECCAK256 ORIGIN CALLVALUE ADDRESS KECCAK256 ADDRESS KECCAK256 ADDRESS KECCAK256 ADDRESS KECCAK256 CALLVALUE ORIGIN ADDRESS 0x2E BALANCE CALLDATALOAD CALLDATALOAD CODECOPY CALLDATACOPY CALLDATASIZE ORIGIN CALLER ORIGIN CALLER CALLDATACOPY CODESIZE CALLER KECCAK256 ORIGIN CODECOPY ADDRESS 0x2E ORIGIN CALLDATASIZE CODESIZE CODECOPY BALANCE ORIGIN BALANCE CODECOPY CALLDATACOPY ORIGIN CODECOPY BALANCE ORIGIN CALLER KECCAK256 GAS 0x22 KECCAK256 PUSH7 0x696C6C3D22626C PUSH2 0x636B 0x22 KECCAK256 PUSH20 0x74726F6B653D22626C61636B22207374726F6B65 0x2D PUSH24 0x696474683D2231222F3E0A3C7061746820643D224D203339 CALLDATALOAD 0x2E CODESIZE CODESIZE CALLDATASIZE BALANCE ORIGIN CODECOPY ADDRESS CODECOPY CODESIZE ORIGIN BALANCE CALLDATALOAD ADDRESS CALLDATASIZE KECCAK256 BALANCE ORIGIN CODECOPY 0x2E ORIGIN ORIGIN CALLER CODESIZE CALLDATASIZE CALLDATALOAD CALLDATACOPY ADDRESS CALLDATACOPY BALANCE BALANCE CALLDATASIZE CALLDATALOAD KECCAK256 COINBASE KECCAK256 CALLVALUE ADDRESS ADDRESS KECCAK256 CALLVALUE ADDRESS ADDRESS KECCAK256 ADDRESS KECCAK256 ADDRESS KECCAK256 BALANCE KECCAK256 CALLVALUE CALLER CALLER 0x2E CODECOPY CALLDATASIZE CALLER CODESIZE CALLDATACOPY BALANCE BALANCE CODECOPY CALLER CALLDATALOAD CALLVALUE CODESIZE CALLDATALOAD KECCAK256 BALANCE BALANCE CODECOPY 0x2E CALLDATASIZE CODESIZE CALLDATALOAD CODESIZE CODESIZE CALLDATACOPY CODESIZE CALLER CODESIZE CALLDATACOPY ADDRESS CALLDATACOPY CODESIZE CALLDATASIZE KECCAK256 0x4C KECCAK256 CALLVALUE BALANCE CODESIZE 0x2E CALLER CALLDATALOAD CALLDATASIZE CALLDATASIZE CALLVALUE CALLDATALOAD CALLVALUE CALLER ORIGIN ORIGIN CALLDATALOAD CODESIZE ORIGIN CALLER KECCAK256 CALLVALUE BALANCE 0x2E ORIGIN ORIGIN CALLER ADDRESS CALLDATASIZE CALLDATALOAD CALLVALUE ADDRESS CALLDATASIZE CALLVALUE CALLVALUE CODECOPY CALLVALUE CALLDATALOAD KECCAK256 COINBASE KECCAK256 CALLVALUE CODESIZE ADDRESS KECCAK256 CALLVALUE CODESIZE ADDRESS KECCAK256 ADDRESS KECCAK256 ADDRESS KECCAK256 ADDRESS KECCAK256 CALLER CALLDATACOPY ORIGIN 0x2E CALLDATASIZE CALLDATASIZE CALLER CALLER CALLDATALOAD CALLVALUE CODECOPY BALANCE CALLDATACOPY CODESIZE CALLDATALOAD CODESIZE ADDRESS CALLVALUE KECCAK256 CALLDATALOAD ORIGIN 0x2E CALLDATASIZE CALLDATASIZE CODESIZE CALLDATASIZE CALLER CODESIZE CODESIZE CALLVALUE CODESIZE CALLDATALOAD CALLER CODECOPY CALLDATACOPY CODESIZE CALLDATASIZE KECCAK256 GAS 0x22 KECCAK256 PUSH7 0x696C6C3D22626C PUSH2 0x636B 0x22 KECCAK256 PUSH20 0x74726F6B653D22626C61636B22207374726F6B65 0x2D PUSH24 0x696474683D2231222F3E0A3C7061746820643D224D203431 CODECOPY 0x2E BALANCE ADDRESS CODESIZE CODECOPY ADDRESS CALLER ORIGIN CALLDATACOPY CODESIZE CALLDATALOAD CALLDATACOPY ORIGIN ADDRESS CALLER KECCAK256 ORIGIN ADDRESS CALLDATALOAD 0x2E CALLDATACOPY CALLDATACOPY CODECOPY ADDRESS CODECOPY ORIGIN CALLDATALOAD CALLDATASIZE CALLDATALOAD CALLDATASIZE CODECOPY CALLER ORIGIN KECCAK256 COINBASE KECCAK256 CALLER ORIGIN ADDRESS KECCAK256 CALLER ORIGIN ADDRESS KECCAK256 ADDRESS KECCAK256 ADDRESS KECCAK256 BALANCE KECCAK256 CALLVALUE CALLVALUE CODECOPY 0x2E CALLDATALOAD CALLDATACOPY BALANCE ADDRESS CODECOPY CALLDATASIZE CODECOPY CALLDATALOAD CALLVALUE CODESIZE CALLER CODESIZE CODESIZE KECCAK256 BALANCE CODECOPY CODESIZE 0x2E BALANCE CALLVALUE CODESIZE CALLDATACOPY BALANCE ADDRESS ORIGIN CALLDATACOPY ADDRESS CODECOPY CALLDATASIZE CALLDATASIZE CALLER ORIGIN KECCAK256 0x4C KECCAK256 CALLVALUE CALLER CALLER 0x2E CODECOPY CALLDATASIZE CALLER CODESIZE CALLDATACOPY BALANCE BALANCE CODECOPY CALLER CALLDATALOAD CALLVALUE CODESIZE CALLDATALOAD KECCAK256 BALANCE BALANCE CODECOPY 0x2E CALLDATASIZE CODESIZE CALLDATALOAD CODESIZE CODESIZE CALLDATACOPY CODESIZE CALLER CODESIZE CALLDATACOPY ADDRESS CALLDATACOPY CODESIZE CALLDATASIZE KECCAK256 COINBASE KECCAK256 CALLVALUE ADDRESS ADDRESS KECCAK256 CALLVALUE ADDRESS ADDRESS KECCAK256 ADDRESS KECCAK256 ADDRESS KECCAK256 ADDRESS KECCAK256 CALLER CODECOPY CALLDATALOAD 0x2E CODESIZE CODESIZE CALLDATASIZE BALANCE ORIGIN CODECOPY ADDRESS CODECOPY CODESIZE ORIGIN BALANCE CALLDATALOAD ADDRESS CALLDATASIZE KECCAK256 BALANCE ORIGIN CODECOPY 0x2E ORIGIN ORIGIN CALLER CODESIZE CALLDATASIZE CALLDATALOAD CALLDATACOPY ADDRESS CALLDATACOPY BALANCE BALANCE CALLDATASIZE CALLDATALOAD KECCAK256 GAS 0x22 KECCAK256 PUSH7 0x696C6C3D22626C PUSH2 0x636B 0x22 KECCAK256 PUSH20 0x74726F6B653D22626C61636B22207374726F6B65 0x2D PUSH24 0x696474683D2231222F3E0A3C7061746820643D224D203434 ORIGIN 0x2E CALLER CALLER BALANCE CALLDATASIZE CALLDATACOPY CALLDATACOPY CALLVALUE CALLDATALOAD CODESIZE CODECOPY ORIGIN CODECOPY KECCAK256 ORIGIN CODESIZE ORIGIN 0x2E CALLER CALLER CALLVALUE CALLER BALANCE CODECOPY CALLVALUE ORIGIN CALLVALUE ORIGIN CALLDATASIZE CODECOPY CODECOPY KECCAK256 COINBASE KECCAK256 ORIGIN CALLVALUE ADDRESS KECCAK256 ORIGIN CALLVALUE ADDRESS KECCAK256 ADDRESS KECCAK256 ADDRESS KECCAK256 BALANCE KECCAK256 CALLVALUE CALLDATASIZE CALLDATALOAD 0x2E BALANCE CALLDATACOPY CODESIZE CALLER ORIGIN ORIGIN CALLDATACOPY BALANCE CALLDATASIZE BALANCE ORIGIN CODECOPY BALANCE KECCAK256 ORIGIN CALLDATACOPY CALLDATASIZE 0x2E CALLDATASIZE BALANCE BALANCE CALLDATALOAD CALLER ORIGIN CALLDATACOPY ADDRESS CALLER ORIGIN ORIGIN CALLVALUE CALLDATACOPY KECCAK256 0x4C KECCAK256 CALLVALUE CALLVALUE CODECOPY 0x2E CALLDATALOAD CALLDATACOPY BALANCE ADDRESS CODECOPY CALLDATASIZE CODECOPY CALLDATALOAD CALLVALUE CODESIZE CALLER CODESIZE CODESIZE KECCAK256 BALANCE CODECOPY CODESIZE 0x2E BALANCE CALLVALUE CODESIZE CALLDATACOPY BALANCE ADDRESS ORIGIN CALLDATACOPY ADDRESS CODECOPY CALLDATASIZE CALLDATASIZE CALLER ORIGIN KECCAK256 COINBASE KECCAK256 CALLER ORIGIN ADDRESS KECCAK256 CALLER ORIGIN ADDRESS KECCAK256 ADDRESS KECCAK256 ADDRESS KECCAK256 ADDRESS KECCAK256 CALLVALUE BALANCE CODECOPY 0x2E BALANCE ADDRESS CODESIZE CODECOPY ADDRESS CALLER ORIGIN CALLDATACOPY CODESIZE CALLDATALOAD CALLDATACOPY ORIGIN ADDRESS CALLER KECCAK256 ORIGIN ADDRESS CALLDATALOAD 0x2E CALLDATACOPY CALLDATACOPY CODECOPY ADDRESS CODECOPY ORIGIN CALLDATALOAD CALLDATASIZE CALLDATALOAD CALLDATASIZE CODECOPY CALLER ORIGIN KECCAK256 GAS 0x22 KECCAK256 PUSH7 0x696C6C3D22626C PUSH2 0x636B 0x22 KECCAK256 PUSH20 0x74726F6B653D22626C61636B22207374726F6B65 0x2D PUSH24 0x696474683D2231222F3E0A3C7061746820643D224D203436 CALLDATALOAD 0x2E CALLDATALOAD CALLDATALOAD CALLVALUE CALLVALUE CALLDATALOAD BALANCE CALLDATASIZE CALLER CODECOPY ORIGIN CODESIZE CALLDATASIZE KECCAK256 CALLER CALLDATALOAD CODESIZE 0x2E CODESIZE CODESIZE CODECOPY CALLDATALOAD CALLVALUE CALLDATASIZE ORIGIN CODESIZE ORIGIN CODESIZE CALLVALUE CALLDATASIZE CALLDATASIZE KECCAK256 COINBASE KECCAK256 BALANCE CALLDATASIZE ADDRESS KECCAK256 BALANCE CALLDATASIZE ADDRESS KECCAK256 ADDRESS KECCAK256 ADDRESS KECCAK256 BALANCE KECCAK256 CALLVALUE CODESIZE ADDRESS 0x2E CALLDATACOPY CODESIZE CALLDATALOAD CALLDATALOAD CALLVALUE CODESIZE CALLVALUE CALLDATACOPY CALLDATACOPY CALLVALUE BALANCE CODECOPY CALLVALUE KECCAK256 CALLER CALLDATALOAD CALLDATALOAD 0x2E ADDRESS CALLDATACOPY CALLVALUE CALLER CALLDATALOAD CALLDATALOAD BALANCE CALLER CALLDATALOAD CALLVALUE CODESIZE CALLER ORIGIN KECCAK256 0x4C KECCAK256 CALLVALUE CALLDATASIZE CALLDATALOAD 0x2E BALANCE CALLDATACOPY CODESIZE CALLER ORIGIN ORIGIN CALLDATACOPY BALANCE CALLDATASIZE BALANCE ORIGIN CODECOPY BALANCE KECCAK256 ORIGIN CALLDATACOPY CALLDATASIZE 0x2E CALLDATASIZE BALANCE BALANCE CALLDATALOAD CALLER ORIGIN CALLDATACOPY ADDRESS CALLER ORIGIN ORIGIN CALLVALUE CALLDATACOPY KECCAK256 COINBASE KECCAK256 ORIGIN CALLVALUE ADDRESS KECCAK256 ORIGIN CALLVALUE ADDRESS KECCAK256 ADDRESS KECCAK256 ADDRESS KECCAK256 ADDRESS KECCAK256 CALLVALUE CALLVALUE ORIGIN 0x2E CALLER CALLER BALANCE CALLDATASIZE CALLDATACOPY CALLDATACOPY CALLVALUE CALLDATALOAD CODESIZE CODECOPY ORIGIN CODECOPY KECCAK256 ORIGIN CODESIZE ORIGIN 0x2E CALLER CALLER CALLVALUE CALLER BALANCE CODECOPY CALLVALUE ORIGIN CALLVALUE ORIGIN CALLDATASIZE CODECOPY CODECOPY KECCAK256 GAS 0x22 KECCAK256 PUSH7 0x696C6C3D22626C PUSH2 0x636B 0x22 KECCAK256 PUSH20 0x74726F6B653D22626C61636B22207374726F6B65 0x2D PUSH24 0x696474683D2231222F3E0A3C7061746820643D224D203433 CALLER 0x2E CODECOPY CALLDATASIZE CALLER CODESIZE CALLDATACOPY BALANCE BALANCE CODECOPY CALLER CALLDATALOAD CALLVALUE CODESIZE CALLDATALOAD KECCAK256 BALANCE BALANCE CODECOPY 0x2E CALLDATASIZE CODESIZE CALLDATALOAD CODESIZE CODESIZE CALLDATACOPY CODESIZE CALLER CODESIZE CALLDATACOPY ADDRESS CALLDATACOPY CODESIZE CALLDATASIZE KECCAK256 COINBASE KECCAK256 CALLVALUE ADDRESS ADDRESS KECCAK256 CALLVALUE ADDRESS ADDRESS KECCAK256 ADDRESS KECCAK256 ADDRESS KECCAK256 BALANCE KECCAK256 CALLVALUE CALLDATACOPY ORIGIN 0x2E CALLDATACOPY CODECOPY CALLER BALANCE CALLVALUE CALLER CODESIZE CALLDATASIZE CODESIZE BALANCE CALLDATACOPY CALLDATALOAD CALLDATALOAD KECCAK256 BALANCE BALANCE CALLER 0x2E CODECOPY ORIGIN CALLDATASIZE BALANCE ADDRESS CODECOPY CALLER CALLER BALANCE BALANCE ORIGIN BALANCE ORIGIN CALLDATACOPY KECCAK256 0x4C KECCAK256 CALLVALUE CALLDATASIZE CALLVALUE 0x2E CODECOPY CALLDATALOAD BALANCE CALLDATACOPY CALLDATACOPY ORIGIN CALLDATASIZE CALLVALUE BALANCE CODESIZE BALANCE ADDRESS CALLDATASIZE KECCAK256 CALLER CALLVALUE 0x2E CALLER BALANCE BALANCE CALLER CALLER BALANCE BALANCE CODECOPY CALLDATACOPY CALLER CALLVALUE CALLDATALOAD CALLDATALOAD BALANCE KECCAK256 COINBASE KECCAK256 CALLVALUE CODESIZE ADDRESS KECCAK256 CALLVALUE CODESIZE ADDRESS KECCAK256 ADDRESS KECCAK256 ADDRESS KECCAK256 ADDRESS KECCAK256 CALLVALUE BALANCE CODESIZE 0x2E CALLER CALLDATALOAD CALLDATASIZE CALLDATASIZE CALLVALUE CALLDATALOAD CALLVALUE CALLER ORIGIN ORIGIN CALLDATALOAD CODESIZE ORIGIN CALLER KECCAK256 CALLVALUE BALANCE 0x2E ORIGIN ORIGIN CALLER ADDRESS CALLDATASIZE CALLDATALOAD CALLVALUE ADDRESS CALLDATASIZE CALLVALUE CALLVALUE CODECOPY CALLVALUE CALLDATALOAD KECCAK256 GAS 0x22 KECCAK256 PUSH7 0x696C6C3D22626C PUSH2 0x636B 0x22 KECCAK256 PUSH20 0x74726F6B653D22626C61636B22207374726F6B65 0x2D PUSH24 0x696474683D2231222F3E0A3C7061746820643D224D203434 CODECOPY 0x2E CALLDATALOAD CALLDATACOPY BALANCE ADDRESS CODECOPY CALLDATASIZE CODECOPY CALLDATALOAD CALLVALUE CODESIZE CALLER CODESIZE CODESIZE KECCAK256 BALANCE CODECOPY CODESIZE 0x2E BALANCE CALLVALUE CODESIZE CALLDATACOPY BALANCE ADDRESS ORIGIN CALLDATACOPY ADDRESS CODECOPY CALLDATASIZE CALLDATASIZE CALLER ORIGIN KECCAK256 COINBASE KECCAK256 CALLER ORIGIN ADDRESS KECCAK256 CALLER ORIGIN ADDRESS KECCAK256 ADDRESS KECCAK256 ADDRESS KECCAK256 BALANCE KECCAK256 CALLVALUE CODESIZE ADDRESS 0x2E CALLDATASIZE CALLER CALLVALUE CALLDATALOAD BALANCE CALLDATALOAD ADDRESS CODECOPY CALLVALUE CALLDATALOAD CALLVALUE ADDRESS CALLER CALLDATALOAD KECCAK256 BALANCE CODECOPY CALLER 0x2E CALLDATALOAD CALLVALUE ADDRESS CODESIZE CODESIZE CALLDATACOPY CALLVALUE CALLDATASIZE CALLVALUE CODESIZE CODECOPY CALLDATACOPY ADDRESS CALLER KECCAK256 0x4C KECCAK256 CALLVALUE CALLDATACOPY ORIGIN 0x2E CALLDATACOPY CODECOPY CALLER BALANCE CALLVALUE CALLER CODESIZE CALLDATASIZE CODESIZE BALANCE CALLDATACOPY CALLDATALOAD CALLDATALOAD KECCAK256 BALANCE BALANCE CALLER 0x2E CODECOPY ORIGIN CALLDATASIZE BALANCE ADDRESS CODECOPY CALLER CALLER BALANCE BALANCE ORIGIN BALANCE ORIGIN CALLDATACOPY KECCAK256 COINBASE KECCAK256 CALLVALUE ADDRESS ADDRESS KECCAK256 CALLVALUE ADDRESS ADDRESS KECCAK256 ADDRESS KECCAK256 ADDRESS KECCAK256 ADDRESS KECCAK256 CALLVALUE CALLER CALLER 0x2E CODECOPY CALLDATASIZE CALLER CODESIZE CALLDATACOPY BALANCE BALANCE CODECOPY CALLER CALLDATALOAD CALLVALUE CODESIZE CALLDATALOAD KECCAK256 BALANCE BALANCE CODECOPY 0x2E CALLDATASIZE CODESIZE CALLDATALOAD CODESIZE CODESIZE CALLDATACOPY CODESIZE CALLER CODESIZE CALLDATACOPY ADDRESS CALLDATACOPY CODESIZE CALLDATASIZE KECCAK256 GAS 0x22 KECCAK256 PUSH7 0x696C6C3D22626C PUSH2 0x636B 0x22 KECCAK256 PUSH20 0x74726F6B653D22626C61636B22207374726F6B65 0x2D PUSH24 0x696474683D2231222F3E0A3C7061746820643D224D203436 CALLDATALOAD 0x2E BALANCE CALLDATACOPY CODESIZE CALLER ORIGIN ORIGIN CALLDATACOPY BALANCE CALLDATASIZE BALANCE ORIGIN CODECOPY BALANCE KECCAK256 ORIGIN CALLDATACOPY CALLDATASIZE 0x2E CALLDATASIZE BALANCE BALANCE CALLDATALOAD CALLER ORIGIN CALLDATACOPY ADDRESS CALLER ORIGIN ORIGIN CALLVALUE CALLDATACOPY KECCAK256 COINBASE KECCAK256 ORIGIN CALLVALUE ADDRESS KECCAK256 ORIGIN CALLVALUE ADDRESS KECCAK256 ADDRESS KECCAK256 ADDRESS KECCAK256 BALANCE KECCAK256 CALLVALUE CODESIZE CODESIZE 0x2E CALLVALUE CALLDATACOPY CALLDATALOAD CODESIZE CODESIZE CALLDATASIZE CALLER ORIGIN ADDRESS CODECOPY ADDRESS CALLDATALOAD ORIGIN CALLDATASIZE KECCAK256 ORIGIN CALLDATACOPY CALLER 0x2E BALANCE CALLDATALOAD CALLDATALOAD CALLDATASIZE CALLDATASIZE CALLDATALOAD CALLDATALOAD CODECOPY CODESIZE CALLDATASIZE CALLDATACOPY ORIGIN CALLDATACOPY KECCAK256 0x4C KECCAK256 CALLVALUE CODESIZE ADDRESS 0x2E CALLDATASIZE CALLER CALLVALUE CALLDATALOAD BALANCE CALLDATALOAD ADDRESS CODECOPY CALLVALUE CALLDATALOAD CALLVALUE ADDRESS CALLER CALLDATALOAD KECCAK256 BALANCE CODECOPY CALLER 0x2E CALLDATALOAD CALLVALUE ADDRESS CODESIZE CODESIZE CALLDATACOPY CALLVALUE CALLDATASIZE CALLVALUE CODESIZE CODECOPY CALLDATACOPY ADDRESS CALLER KECCAK256 COINBASE KECCAK256 CALLER ORIGIN ADDRESS KECCAK256 CALLER ORIGIN ADDRESS KECCAK256 ADDRESS KECCAK256 ADDRESS KECCAK256 ADDRESS KECCAK256 CALLVALUE CALLVALUE CODECOPY 0x2E CALLDATALOAD CALLDATACOPY BALANCE ADDRESS CODECOPY CALLDATASIZE CODECOPY CALLDATALOAD CALLVALUE CODESIZE CALLER CODESIZE CODESIZE KECCAK256 BALANCE CODECOPY CODESIZE 0x2E BALANCE CALLVALUE CODESIZE CALLDATACOPY BALANCE ADDRESS ORIGIN CALLDATACOPY ADDRESS CODECOPY CALLDATASIZE CALLDATASIZE CALLER ORIGIN KECCAK256 GAS 0x22 KECCAK256 PUSH7 0x696C6C3D22626C PUSH2 0x636B 0x22 KECCAK256 PUSH20 0x74726F6B653D22626C61636B22207374726F6B65 0x2D PUSH24 0x696474683D2231222F3E0A3C7061746820643D224D203438 ADDRESS 0x2E CALLDATACOPY CODESIZE CALLDATALOAD CALLDATALOAD CALLVALUE CODESIZE CALLVALUE CALLDATACOPY CALLDATACOPY CALLVALUE BALANCE CODECOPY CALLVALUE KECCAK256 CALLER CALLDATALOAD CALLDATALOAD 0x2E ADDRESS CALLDATACOPY CALLVALUE CALLER CALLDATALOAD CALLDATALOAD BALANCE CALLER CALLDATALOAD CALLVALUE CODESIZE CALLER ORIGIN KECCAK256 COINBASE KECCAK256 BALANCE CALLDATASIZE ADDRESS KECCAK256 BALANCE CALLDATASIZE ADDRESS KECCAK256 ADDRESS KECCAK256 ADDRESS KECCAK256 BALANCE KECCAK256 CALLVALUE CODECOPY CALLDATASIZE 0x2E CALLER BALANCE CALLDATACOPY ORIGIN CALLDATALOAD CALLDATACOPY CALLDATALOAD CALLVALUE CALLDATACOPY ORIGIN CALLDATACOPY ADDRESS ORIGIN KECCAK256 CALLER CALLDATALOAD ORIGIN 0x2E CALLDATACOPY CALLDATACOPY ADDRESS CALLVALUE CALLVALUE CALLER CALLDATACOPY CALLER ORIGIN CALLVALUE CALLVALUE CODESIZE CALLDATALOAD KECCAK256 0x4C KECCAK256 CALLVALUE CODESIZE CODESIZE 0x2E CALLVALUE CALLDATACOPY CALLDATALOAD CODESIZE CODESIZE CALLDATASIZE CALLER ORIGIN ADDRESS CODECOPY ADDRESS CALLDATALOAD ORIGIN CALLDATASIZE KECCAK256 ORIGIN CALLDATACOPY CALLER 0x2E BALANCE CALLDATALOAD CALLDATALOAD CALLDATASIZE CALLDATASIZE CALLDATALOAD CALLDATALOAD CODECOPY CODESIZE CALLDATASIZE CALLDATACOPY ORIGIN CALLDATACOPY KECCAK256 COINBASE KECCAK256 ORIGIN CALLVALUE ADDRESS KECCAK256 ORIGIN CALLVALUE ADDRESS KECCAK256 ADDRESS KECCAK256 ADDRESS KECCAK256 ADDRESS KECCAK256 CALLVALUE CALLDATASIZE CALLDATALOAD 0x2E BALANCE CALLDATACOPY CODESIZE CALLER ORIGIN ORIGIN CALLDATACOPY BALANCE CALLDATASIZE BALANCE ORIGIN CODECOPY BALANCE KECCAK256 ORIGIN CALLDATACOPY CALLDATASIZE 0x2E CALLDATASIZE BALANCE BALANCE CALLDATALOAD CALLER ORIGIN CALLDATACOPY ADDRESS CALLER ORIGIN ORIGIN CALLVALUE CALLDATACOPY KECCAK256 GAS 0x22 KECCAK256 PUSH7 0x696C6C3D22626C PUSH2 0x636B 0x22 KECCAK256 PUSH20 0x74726F6B653D22626C61636B22207374726F6B65 0x2D PUSH24 0x696474683D2231222F3E0A3C7061746820643D224D203437 ORIGIN 0x2E CALLDATACOPY CODECOPY CALLER BALANCE CALLVALUE CALLER CODESIZE CALLDATASIZE CODESIZE BALANCE CALLDATACOPY CALLDATALOAD CODESIZE CALLER KECCAK256 BALANCE BALANCE CALLER 0x2E CODECOPY ORIGIN CALLDATASIZE BALANCE ADDRESS CODECOPY CALLER CALLER BALANCE BALANCE ORIGIN BALANCE ORIGIN BALANCE KECCAK256 COINBASE KECCAK256 CALLVALUE ADDRESS ADDRESS KECCAK256 CALLVALUE ADDRESS ADDRESS KECCAK256 ADDRESS KECCAK256 ADDRESS KECCAK256 BALANCE KECCAK256 CALLDATALOAD BALANCE BALANCE 0x2E CODECOPY CODECOPY CODECOPY CODECOPY CODECOPY CODECOPY CODECOPY CODECOPY CODECOPY CODECOPY CODECOPY CODECOPY CODECOPY CALLVALUE KECCAK256 BALANCE BALANCE ORIGIN KECCAK256 0x4C KECCAK256 CALLDATALOAD BALANCE BALANCE 0x2E CODECOPY CODECOPY CODECOPY CODECOPY CODECOPY CODECOPY CODECOPY CODECOPY CODECOPY CODECOPY CODECOPY CODECOPY CODECOPY KECCAK256 CALLER ORIGIN KECCAK256 COINBASE KECCAK256 CALLVALUE CODESIZE ADDRESS KECCAK256 CALLVALUE CODESIZE ADDRESS KECCAK256 ADDRESS KECCAK256 ADDRESS KECCAK256 ADDRESS KECCAK256 CALLVALUE CALLDATASIZE CALLVALUE 0x2E CODECOPY CALLDATALOAD BALANCE CALLDATACOPY CALLDATACOPY ORIGIN CALLDATASIZE CALLVALUE BALANCE CODESIZE BALANCE BALANCE KECCAK256 CALLER CALLVALUE 0x2E CALLER BALANCE BALANCE CALLER CALLER BALANCE BALANCE CODECOPY CALLDATACOPY CALLER CALLVALUE CALLDATALOAD CALLVALUE CALLDATALOAD KECCAK256 GAS 0x22 KECCAK256 PUSH7 0x696C6C3D22626C PUSH2 0x636B 0x22 KECCAK256 PUSH20 0x74726F6B653D22626C61636B22207374726F6B65 0x2D PUSH24 0x696474683D2231222F3E0A3C7061746820643D224D203438 ADDRESS 0x2E CALLDATASIZE CALLER CALLVALUE CALLDATALOAD BALANCE CALLDATALOAD ADDRESS CODECOPY CALLVALUE CALLDATALOAD CALLVALUE ADDRESS CALLDATASIZE CALLER KECCAK256 BALANCE CODECOPY CALLER 0x2E CALLDATALOAD CALLVALUE ADDRESS CODESIZE CODESIZE CALLDATACOPY CALLVALUE CALLDATASIZE CALLVALUE CODESIZE CODECOPY CALLDATASIZE CODECOPY CALLDATACOPY KECCAK256 COINBASE KECCAK256 CALLER ORIGIN ADDRESS KECCAK256 CALLER ORIGIN ADDRESS KECCAK256 ADDRESS KECCAK256 ADDRESS KECCAK256 BALANCE KECCAK256 CALLDATALOAD BALANCE BALANCE 0x2E CODECOPY CODECOPY CODECOPY CODECOPY CODECOPY CODECOPY CODECOPY CODECOPY CODECOPY CODECOPY CODECOPY CODECOPY CODECOPY CALLVALUE KECCAK256 BALANCE CODECOPY ORIGIN KECCAK256 0x4C KECCAK256 CALLDATALOAD BALANCE BALANCE 0x2E CODECOPY CODECOPY CODECOPY CODECOPY CODECOPY CODECOPY CODECOPY CODECOPY CODECOPY CODECOPY CODECOPY CODECOPY CODECOPY CALLVALUE KECCAK256 BALANCE BALANCE ORIGIN KECCAK256 COINBASE KECCAK256 CALLVALUE ADDRESS ADDRESS KECCAK256 CALLVALUE ADDRESS ADDRESS KECCAK256 ADDRESS KECCAK256 ADDRESS KECCAK256 ADDRESS KECCAK256 CALLVALUE CALLDATACOPY ORIGIN 0x2E CALLDATACOPY CODECOPY CALLER BALANCE CALLVALUE CALLER CODESIZE CALLDATASIZE CODESIZE BALANCE CALLDATACOPY CALLDATALOAD CODESIZE CALLER KECCAK256 BALANCE BALANCE CALLER 0x2E CODECOPY ORIGIN CALLDATASIZE BALANCE ADDRESS CODECOPY CALLER CALLER BALANCE BALANCE ORIGIN BALANCE ORIGIN BALANCE KECCAK256 GAS 0x22 KECCAK256 PUSH7 0x696C6C3D22626C PUSH2 0x636B 0x22 KECCAK256 PUSH20 0x74726F6B653D22626C61636B22207374726F6B65 0x2D PUSH24 0x696474683D2231222F3E0A3C7061746820643D224D203438 CODESIZE 0x2E CALLVALUE CALLDATACOPY CALLDATALOAD CODESIZE CODESIZE CALLDATASIZE CALLER ORIGIN ADDRESS CODECOPY ADDRESS CALLDATALOAD CALLDATALOAD KECCAK256 ORIGIN CALLDATACOPY CALLER 0x2E BALANCE CALLDATALOAD CALLDATALOAD CALLDATASIZE CALLDATASIZE CALLDATALOAD CALLDATALOAD CODECOPY CODESIZE CALLDATASIZE CALLDATACOPY ORIGIN CALLDATACOPY KECCAK256 COINBASE KECCAK256 ORIGIN CALLVALUE ADDRESS KECCAK256 ORIGIN CALLVALUE ADDRESS KECCAK256 ADDRESS KECCAK256 ADDRESS KECCAK256 BALANCE KECCAK256 CALLDATALOAD BALANCE BALANCE 0x2E CODECOPY CODECOPY CODECOPY CODECOPY CODECOPY CODECOPY CODECOPY CODECOPY CODECOPY CODECOPY CODECOPY CODECOPY CODECOPY CALLVALUE KECCAK256 ORIGIN CALLDATACOPY ORIGIN KECCAK256 0x4C KECCAK256 CALLDATALOAD BALANCE BALANCE 0x2E CODECOPY CODECOPY CODECOPY CODECOPY CODECOPY CODECOPY CODECOPY CODECOPY CODECOPY CODECOPY CODECOPY CODECOPY CODECOPY CALLVALUE KECCAK256 BALANCE CODECOPY ORIGIN KECCAK256 COINBASE KECCAK256 CALLER ORIGIN ADDRESS KECCAK256 CALLER ORIGIN ADDRESS KECCAK256 ADDRESS KECCAK256 ADDRESS KECCAK256 ADDRESS KECCAK256 CALLVALUE CODESIZE ADDRESS 0x2E CALLDATASIZE CALLER CALLVALUE CALLDATALOAD BALANCE CALLDATALOAD ADDRESS CODECOPY CALLVALUE CALLDATALOAD CALLVALUE ADDRESS CALLDATASIZE CALLER KECCAK256 BALANCE CODECOPY CALLER 0x2E CALLDATALOAD CALLVALUE ADDRESS CODESIZE CODESIZE CALLDATACOPY CALLVALUE CALLDATASIZE CALLVALUE CODESIZE CODECOPY CALLDATASIZE CODECOPY CALLDATACOPY KECCAK256 GAS 0x22 KECCAK256 PUSH7 0x696C6C3D22626C PUSH2 0x636B 0x22 KECCAK256 PUSH20 0x74726F6B653D22626C61636B22207374726F6B65 0x2D PUSH24 0x696474683D2231222F3E0A3C7061746820643D224D203439 CALLDATASIZE 0x2E CALLER BALANCE CALLDATACOPY ORIGIN CALLDATALOAD CALLDATACOPY CALLDATALOAD CALLVALUE CALLDATACOPY ORIGIN CALLDATACOPY ADDRESS CALLER CALLVALUE KECCAK256 CALLER CALLDATALOAD ORIGIN 0x2E CALLDATACOPY CALLDATACOPY ADDRESS CALLVALUE CALLVALUE CALLER CALLDATACOPY CALLER ORIGIN CALLVALUE CALLVALUE CODESIZE CALLDATALOAD KECCAK256 COINBASE KECCAK256 BALANCE CALLDATASIZE ADDRESS KECCAK256 BALANCE CALLDATASIZE ADDRESS KECCAK256 ADDRESS KECCAK256 ADDRESS KECCAK256 BALANCE KECCAK256 CALLDATALOAD BALANCE BALANCE 0x2E CODECOPY CODECOPY CODECOPY CODECOPY CODECOPY CODECOPY CODECOPY CODECOPY CODECOPY CODECOPY CODECOPY CODECOPY CODECOPY CALLVALUE KECCAK256 CALLER CALLDATALOAD ORIGIN KECCAK256 0x4C KECCAK256 CALLDATALOAD BALANCE BALANCE 0x2E CODECOPY CODECOPY CODECOPY CODECOPY CODECOPY CODECOPY CODECOPY CODECOPY CODECOPY CODECOPY CODECOPY CODECOPY CODECOPY CALLVALUE KECCAK256 ORIGIN CALLDATACOPY ORIGIN KECCAK256 COINBASE KECCAK256 ORIGIN CALLVALUE ADDRESS KECCAK256 ORIGIN CALLVALUE ADDRESS KECCAK256 ADDRESS KECCAK256 ADDRESS KECCAK256 ADDRESS KECCAK256 CALLVALUE CODESIZE CODESIZE 0x2E CALLVALUE CALLDATACOPY CALLDATALOAD CODESIZE CODESIZE CALLDATASIZE CALLER ORIGIN ADDRESS CODECOPY ADDRESS CALLDATALOAD CALLDATALOAD KECCAK256 ORIGIN CALLDATACOPY CALLER 0x2E BALANCE CALLDATALOAD CALLDATALOAD CALLDATASIZE CALLDATASIZE CALLDATALOAD CALLDATALOAD CODECOPY CODESIZE CALLDATASIZE CALLDATACOPY ORIGIN CALLDATACOPY KECCAK256 GAS 0x22 KECCAK256 PUSH7 0x696C6C3D22626C PUSH2 0x636B 0x22 KECCAK256 PUSH20 0x74726F6B653D22626C61636B22207374726F6B65 0x2D PUSH24 0x696474683D2231222F3E0A3C7465787420783D2235313222 KECCAK256 PUSH26 0x3D223436352220666F6E742D73697A653D223232222066696C6C RETURNDATASIZE 0x22 PUSH24 0x686974652220746578742D616E63686F723D226D6964646C PUSH6 0x2220666F6E74 0x2D PUSH7 0x616D696C793D22 PUSH14 0x6F6E6F7370616365223E30303030 ADDRESS ADDRESS ADDRESS ADDRESS ADDRESS ADDRESS ADDRESS ADDRESS ADDRESS ADDRESS ADDRESS ADDRESS EXTCODECOPY 0x2F PUSH21 0x6578743E0A3C7465787420783D223531322220793D 0x22 CALLDATALOAD ADDRESS BALANCE 0x22 KECCAK256 PUSH7 0x6F6E742D73697A PUSH6 0x3D2232322220 PUSH7 0x696C6C3D227768 PUSH10 0x74652220746578742D61 PUSH15 0x63686F723D226D6964646C65222066 PUSH16 0x6E742D66616D696C793D226D6F6E6F73 PUSH17 0x616365223E303030303030303030303030 ADDRESS ADDRESS ADDRESS ADDRESS EXTCODECOPY 0x2F PUSH21 0x6578743E0A3C7465787420783D223531322220793D 0x22 CALLDATALOAD CALLER CALLDATACOPY 0x22 KECCAK256 PUSH7 0x6F6E742D73697A PUSH6 0x3D2232322220 PUSH7 0x696C6C3D227768 PUSH10 0x74652220746578742D61 PUSH15 0x63686F723D226D6964646C65222066 PUSH16 0x6E742D66616D696C793D226D6F6E6F73 PUSH17 0x616365223E303030303030303030303030 ADDRESS ADDRESS ADDRESS ADDRESS EXTCODECOPY 0x2F PUSH21 0x6578743E0A3C7465787420783D223531322220793D 0x22 CALLDATALOAD CALLDATACOPY CALLER 0x22 KECCAK256 PUSH7 0x6F6E742D73697A PUSH6 0x3D2232322220 PUSH7 0x696C6C3D227768 PUSH10 0x74652220746578742D61 PUSH15 0x63686F723D226D6964646C65222066 PUSH16 0x6E742D66616D696C793D226D6F6E6F73 PUSH17 0x616365223E303030303030300000000000 "
				},
				"gasEstimates": {
					"creation": {
						"codeDepositCost": "66600",
						"executionCost": "infinite",
						"totalCost": "infinite"
					},
					"external": {
						"getPointer()": "infinite",
						"ptr()": "infinite"
					}
				},
				"methodIdentifiers": {
					"getPointer()": "a32a3ee4",
					"ptr()": "2810f972"
				}
			},
			"storageLayout": {
				"storage": [],
				"types": null
			},
			"userdoc": {
				"kind": "user",
				"methods": {},
				"version": 1
			}
		}
	}
}