{
	"contracts/HashJingViewer.sol": {
		"TwoSectorRenderer": {
			"abi": [
				{
					"inputs": [
						{
							"internalType": "address",
							"name": "_sectorPtr",
							"type": "address"
						}
					],
					"stateMutability": "nonpayable",
					"type": "constructor"
				},
				{
					"inputs": [
						{
							"internalType": "uint256",
							"name": "_size",
							"type": "uint256"
						},
						{
							"internalType": "uint256",
							"name": "_start",
							"type": "uint256"
						},
						{
							"internalType": "uint256",
							"name": "_end",
							"type": "uint256"
						}
					],
					"name": "InvalidCodeAtRange",
					"type": "error"
				},
				{
					"inputs": [],
					"name": "getSVG",
					"outputs": [
						{
							"internalType": "string",
							"name": "",
							"type": "string"
						}
					],
					"stateMutability": "view",
					"type": "function"
				},
				{
					"inputs": [],
					"name": "sectorPtr",
					"outputs": [
						{
							"internalType": "address",
							"name": "",
							"type": "address"
						}
					],
					"stateMutability": "view",
					"type": "function"
				}
			],
			"devdoc": {
				"kind": "dev",
				"methods": {},
				"version": 1
			},
			"evm": {
				"assembly": "    /* \"contracts/HashJingViewer.sol\":83:3043  contract TwoSectorRenderer {... */\n  mstore(0x40, 0xa0)\n    /* \"contracts/HashJingViewer.sol\":201:247  string[2] private PAL = [\"#ffffff\", \"#000000\"] */\n  mload(0x40)\n  dup1\n  0x40\n  add\n  0x40\n  mstore\n  dup1\n  mload(0x40)\n  dup1\n  0x40\n  add\n  0x40\n  mstore\n  dup1\n  0x07\n  dup2\n  mstore\n  0x20\n  add\n  0x2366666666666600000000000000000000000000000000000000000000000000\n  dup2\n  mstore\n  pop\n  dup2\n  mstore\n  0x20\n  add\n  mload(0x40)\n  dup1\n  0x40\n  add\n  0x40\n  mstore\n  dup1\n  0x07\n  dup2\n  mstore\n  0x20\n  add\n  0x2330303030303000000000000000000000000000000000000000000000000000\n  dup2\n  mstore\n  pop\n  dup2\n  mstore\n  pop\n  0x00\n  swap1\n  0x02\n  tag_1\n  swap3\n  swap2\n  swap1\n  tag_2\n  jump\t// in\ntag_1:\n  pop\n    /* \"contracts/HashJingViewer.sol\":313:351  string[2] private ANG = [\"0\", \"5.625\"] */\n  mload(0x40)\n  dup1\n  0x40\n  add\n  0x40\n  mstore\n  dup1\n  mload(0x40)\n  dup1\n  0x40\n  add\n  0x40\n  mstore\n  dup1\n  0x01\n  dup2\n  mstore\n  0x20\n  add\n  0x3000000000000000000000000000000000000000000000000000000000000000\n  dup2\n  mstore\n  pop\n  dup2\n  mstore\n  0x20\n  add\n  mload(0x40)\n  dup1\n  0x40\n  add\n  0x40\n  mstore\n  dup1\n  0x05\n  dup2\n  mstore\n  0x20\n  add\n  0x352e363235000000000000000000000000000000000000000000000000000000\n  dup2\n  mstore\n  pop\n  dup2\n  mstore\n  pop\n  0x02\n  swap1\n  0x02\n  tag_3\n  swap3\n  swap2\n  swap1\n  tag_2\n  jump\t// in\ntag_3:\n  pop\n    /* \"contracts/HashJingViewer.sol\":406:477  constructor(address _sectorPtr) {... */\n  callvalue\n  dup1\n  iszero\n  tag_4\n  jumpi\n  0x00\n  dup1\n  revert\ntag_4:\n  pop\n  mload(0x40)\n  sub(codesize, bytecodeSize)\n  dup1\n  bytecodeSize\n  dup4\n  codecopy\n  dup2\n  dup2\n  add\n  0x40\n  mstore\n  dup2\n  add\n  swap1\n  tag_5\n  swap2\n  swap1\n  tag_6\n  jump\t// in\ntag_5:\n    /* \"contracts/HashJingViewer.sol\":460:470  _sectorPtr */\n  dup1\n    /* \"contracts/HashJingViewer.sol\":448:470  sectorPtr = _sectorPtr */\n  0xffffffffffffffffffffffffffffffffffffffff\n  and\n  0x80\n  dup2\n  0xffffffffffffffffffffffffffffffffffffffff\n  and\n  dup2\n  mstore\n  pop\n  pop\n    /* \"contracts/HashJingViewer.sol\":406:477  constructor(address _sectorPtr) {... */\n  pop\n    /* \"contracts/HashJingViewer.sol\":83:3043  contract TwoSectorRenderer {... */\n  jump(tag_9)\ntag_2:\n  dup3\n  0x02\n  dup2\n  add\n  swap3\n  dup3\n  iszero\n  tag_10\n  jumpi\n  swap2\n  0x20\n  mul\n  dup3\n  add\ntag_11:\n  dup3\n  dup2\n  gt\n  iszero\n  tag_12\n  jumpi\n  dup3\n  mload\n  dup3\n  swap1\n  dup2\n  tag_13\n  swap2\n  swap1\n  tag_14\n  jump\t// in\ntag_13:\n  pop\n  swap2\n  0x20\n  add\n  swap2\n  swap1\n  0x01\n  add\n  swap1\n  jump(tag_11)\ntag_12:\ntag_10:\n  pop\n  swap1\n  pop\n  tag_15\n  swap2\n  swap1\n  tag_16\n  jump\t// in\ntag_15:\n  pop\n  swap1\n  jump\t// out\ntag_16:\ntag_17:\n  dup1\n  dup3\n  gt\n  iszero\n  tag_18\n  jumpi\n  0x00\n  dup2\n  dup2\n  tag_19\n  swap2\n  swap1\n  tag_20\n  jump\t// in\ntag_19:\n  pop\n  0x01\n  add\n  jump(tag_17)\ntag_18:\n  pop\n  swap1\n  jump\t// out\ntag_20:\n  pop\n  dup1\n  sload\n  tag_21\n  swap1\n  tag_22\n  jump\t// in\ntag_21:\n  0x00\n  dup3\n  sstore\n  dup1\n  0x1f\n  lt\n  tag_24\n  jumpi\n  pop\n  jump(tag_23)\ntag_24:\n  0x1f\n  add\n  0x20\n  swap1\n  div\n  swap1\n  0x00\n  mstore\n  keccak256(0x00, 0x20)\n  swap1\n  dup2\n  add\n  swap1\n  tag_25\n  swap2\n  swap1\n  tag_26\n  jump\t// in\ntag_25:\ntag_23:\n  pop\n  jump\t// out\ntag_26:\ntag_27:\n  dup1\n  dup3\n  gt\n  iszero\n  tag_28\n  jumpi\n  0x00\n  dup2\n  0x00\n  swap1\n  sstore\n  pop\n  0x01\n  add\n  jump(tag_27)\ntag_28:\n  pop\n  swap1\n  jump\t// out\n    /* \"#utility.yul\":88:205   */\ntag_30:\n    /* \"#utility.yul\":197:198   */\n  0x00\n    /* \"#utility.yul\":194:195   */\n  dup1\n    /* \"#utility.yul\":187:199   */\n  revert\n    /* \"#utility.yul\":334:460   */\ntag_32:\n    /* \"#utility.yul\":371:378   */\n  0x00\n    /* \"#utility.yul\":411:453   */\n  0xffffffffffffffffffffffffffffffffffffffff\n    /* \"#utility.yul\":404:409   */\n  dup3\n    /* \"#utility.yul\":400:454   */\n  and\n    /* \"#utility.yul\":389:454   */\n  swap1\n  pop\n    /* \"#utility.yul\":334:460   */\n  swap2\n  swap1\n  pop\n  jump\t// out\n    /* \"#utility.yul\":466:562   */\ntag_33:\n    /* \"#utility.yul\":503:510   */\n  0x00\n    /* \"#utility.yul\":532:556   */\n  tag_61\n    /* \"#utility.yul\":550:555   */\n  dup3\n    /* \"#utility.yul\":532:556   */\n  tag_32\n  jump\t// in\ntag_61:\n    /* \"#utility.yul\":521:556   */\n  swap1\n  pop\n    /* \"#utility.yul\":466:562   */\n  swap2\n  swap1\n  pop\n  jump\t// out\n    /* \"#utility.yul\":568:690   */\ntag_34:\n    /* \"#utility.yul\":641:665   */\n  tag_63\n    /* \"#utility.yul\":659:664   */\n  dup2\n    /* \"#utility.yul\":641:665   */\n  tag_33\n  jump\t// in\ntag_63:\n    /* \"#utility.yul\":634:639   */\n  dup2\n    /* \"#utility.yul\":631:666   */\n  eq\n    /* \"#utility.yul\":621:684   */\n  tag_64\n  jumpi\n    /* \"#utility.yul\":680:681   */\n  0x00\n    /* \"#utility.yul\":677:678   */\n  dup1\n    /* \"#utility.yul\":670:682   */\n  revert\n    /* \"#utility.yul\":621:684   */\ntag_64:\n    /* \"#utility.yul\":568:690   */\n  pop\n  jump\t// out\n    /* \"#utility.yul\":696:839   */\ntag_35:\n    /* \"#utility.yul\":753:758   */\n  0x00\n    /* \"#utility.yul\":784:790   */\n  dup2\n    /* \"#utility.yul\":778:791   */\n  mload\n    /* \"#utility.yul\":769:791   */\n  swap1\n  pop\n    /* \"#utility.yul\":800:833   */\n  tag_66\n    /* \"#utility.yul\":827:832   */\n  dup2\n    /* \"#utility.yul\":800:833   */\n  tag_34\n  jump\t// in\ntag_66:\n    /* \"#utility.yul\":696:839   */\n  swap3\n  swap2\n  pop\n  pop\n  jump\t// out\n    /* \"#utility.yul\":845:1196   */\ntag_6:\n    /* \"#utility.yul\":915:921   */\n  0x00\n    /* \"#utility.yul\":964:966   */\n  0x20\n    /* \"#utility.yul\":952:961   */\n  dup3\n    /* \"#utility.yul\":943:950   */\n  dup5\n    /* \"#utility.yul\":939:962   */\n  sub\n    /* \"#utility.yul\":935:967   */\n  slt\n    /* \"#utility.yul\":932:1051   */\n  iszero\n  tag_68\n  jumpi\n    /* \"#utility.yul\":970:1049   */\n  tag_69\n  tag_30\n  jump\t// in\ntag_69:\n    /* \"#utility.yul\":932:1051   */\ntag_68:\n    /* \"#utility.yul\":1090:1091   */\n  0x00\n    /* \"#utility.yul\":1115:1179   */\n  tag_70\n    /* \"#utility.yul\":1171:1178   */\n  dup5\n    /* \"#utility.yul\":1162:1168   */\n  dup3\n    /* \"#utility.yul\":1151:1160   */\n  dup6\n    /* \"#utility.yul\":1147:1169   */\n  add\n    /* \"#utility.yul\":1115:1179   */\n  tag_35\n  jump\t// in\ntag_70:\n    /* \"#utility.yul\":1105:1179   */\n  swap2\n  pop\n    /* \"#utility.yul\":1061:1189   */\n  pop\n    /* \"#utility.yul\":845:1196   */\n  swap3\n  swap2\n  pop\n  pop\n  jump\t// out\n    /* \"#utility.yul\":1202:1301   */\ntag_36:\n    /* \"#utility.yul\":1254:1260   */\n  0x00\n    /* \"#utility.yul\":1288:1293   */\n  dup2\n    /* \"#utility.yul\":1282:1294   */\n  mload\n    /* \"#utility.yul\":1272:1294   */\n  swap1\n  pop\n    /* \"#utility.yul\":1202:1301   */\n  swap2\n  swap1\n  pop\n  jump\t// out\n    /* \"#utility.yul\":1307:1487   */\ntag_37:\n    /* \"#utility.yul\":1355:1432   */\n  0x4e487b7100000000000000000000000000000000000000000000000000000000\n    /* \"#utility.yul\":1352:1353   */\n  0x00\n    /* \"#utility.yul\":1345:1433   */\n  mstore\n    /* \"#utility.yul\":1452:1456   */\n  0x41\n    /* \"#utility.yul\":1449:1450   */\n  0x04\n    /* \"#utility.yul\":1442:1457   */\n  mstore\n    /* \"#utility.yul\":1476:1480   */\n  0x24\n    /* \"#utility.yul\":1473:1474   */\n  0x00\n    /* \"#utility.yul\":1466:1481   */\n  revert\n    /* \"#utility.yul\":1493:1673   */\ntag_38:\n    /* \"#utility.yul\":1541:1618   */\n  0x4e487b7100000000000000000000000000000000000000000000000000000000\n    /* \"#utility.yul\":1538:1539   */\n  0x00\n    /* \"#utility.yul\":1531:1619   */\n  mstore\n    /* \"#utility.yul\":1638:1642   */\n  0x22\n    /* \"#utility.yul\":1635:1636   */\n  0x04\n    /* \"#utility.yul\":1628:1643   */\n  mstore\n    /* \"#utility.yul\":1662:1666   */\n  0x24\n    /* \"#utility.yul\":1659:1660   */\n  0x00\n    /* \"#utility.yul\":1652:1667   */\n  revert\n    /* \"#utility.yul\":1679:1999   */\ntag_22:\n    /* \"#utility.yul\":1723:1729   */\n  0x00\n    /* \"#utility.yul\":1760:1761   */\n  0x02\n    /* \"#utility.yul\":1754:1758   */\n  dup3\n    /* \"#utility.yul\":1750:1762   */\n  div\n    /* \"#utility.yul\":1740:1762   */\n  swap1\n  pop\n    /* \"#utility.yul\":1807:1808   */\n  0x01\n    /* \"#utility.yul\":1801:1805   */\n  dup3\n    /* \"#utility.yul\":1797:1809   */\n  and\n    /* \"#utility.yul\":1828:1846   */\n  dup1\n    /* \"#utility.yul\":1818:1899   */\n  tag_75\n  jumpi\n    /* \"#utility.yul\":1884:1888   */\n  0x7f\n    /* \"#utility.yul\":1876:1882   */\n  dup3\n    /* \"#utility.yul\":1872:1889   */\n  and\n    /* \"#utility.yul\":1862:1889   */\n  swap2\n  pop\n    /* \"#utility.yul\":1818:1899   */\ntag_75:\n    /* \"#utility.yul\":1946:1948   */\n  0x20\n    /* \"#utility.yul\":1938:1944   */\n  dup3\n    /* \"#utility.yul\":1935:1949   */\n  lt\n    /* \"#utility.yul\":1915:1933   */\n  dup2\n    /* \"#utility.yul\":1912:1950   */\n  sub\n    /* \"#utility.yul\":1909:1993   */\n  tag_76\n  jumpi\n    /* \"#utility.yul\":1965:1983   */\n  tag_77\n  tag_38\n  jump\t// in\ntag_77:\n    /* \"#utility.yul\":1909:1993   */\ntag_76:\n    /* \"#utility.yul\":1730:1999   */\n  pop\n    /* \"#utility.yul\":1679:1999   */\n  swap2\n  swap1\n  pop\n  jump\t// out\n    /* \"#utility.yul\":2005:2146   */\ntag_39:\n    /* \"#utility.yul\":2054:2058   */\n  0x00\n    /* \"#utility.yul\":2077:2080   */\n  dup2\n    /* \"#utility.yul\":2069:2080   */\n  swap1\n  pop\n    /* \"#utility.yul\":2100:2103   */\n  dup2\n    /* \"#utility.yul\":2097:2098   */\n  0x00\n    /* \"#utility.yul\":2090:2104   */\n  mstore\n    /* \"#utility.yul\":2134:2138   */\n  0x20\n    /* \"#utility.yul\":2131:2132   */\n  0x00\n    /* \"#utility.yul\":2121:2139   */\n  keccak256\n    /* \"#utility.yul\":2113:2139   */\n  swap1\n  pop\n    /* \"#utility.yul\":2005:2146   */\n  swap2\n  swap1\n  pop\n  jump\t// out\n    /* \"#utility.yul\":2152:2245   */\ntag_40:\n    /* \"#utility.yul\":2189:2195   */\n  0x00\n    /* \"#utility.yul\":2236:2238   */\n  0x20\n    /* \"#utility.yul\":2231:2233   */\n  0x1f\n    /* \"#utility.yul\":2224:2229   */\n  dup4\n    /* \"#utility.yul\":2220:2234   */\n  add\n    /* \"#utility.yul\":2216:2239   */\n  div\n    /* \"#utility.yul\":2206:2239   */\n  swap1\n  pop\n    /* \"#utility.yul\":2152:2245   */\n  swap2\n  swap1\n  pop\n  jump\t// out\n    /* \"#utility.yul\":2251:2358   */\ntag_41:\n    /* \"#utility.yul\":2295:2303   */\n  0x00\n    /* \"#utility.yul\":2345:2350   */\n  dup3\n    /* \"#utility.yul\":2339:2343   */\n  dup3\n    /* \"#utility.yul\":2335:2351   */\n  shl\n    /* \"#utility.yul\":2314:2351   */\n  swap1\n  pop\n    /* \"#utility.yul\":2251:2358   */\n  swap3\n  swap2\n  pop\n  pop\n  jump\t// out\n    /* \"#utility.yul\":2364:2757   */\ntag_42:\n    /* \"#utility.yul\":2433:2439   */\n  0x00\n    /* \"#utility.yul\":2483:2484   */\n  0x08\n    /* \"#utility.yul\":2471:2481   */\n  dup4\n    /* \"#utility.yul\":2467:2485   */\n  mul\n    /* \"#utility.yul\":2506:2603   */\n  tag_82\n    /* \"#utility.yul\":2536:2602   */\n  0xffffffffffffffffffffffffffffffffffffffffffffffffffffffffffffffff\n    /* \"#utility.yul\":2525:2534   */\n  dup3\n    /* \"#utility.yul\":2506:2603   */\n  tag_41\n  jump\t// in\ntag_82:\n    /* \"#utility.yul\":2624:2663   */\n  tag_83\n    /* \"#utility.yul\":2654:2662   */\n  dup7\n    /* \"#utility.yul\":2643:2652   */\n  dup4\n    /* \"#utility.yul\":2624:2663   */\n  tag_41\n  jump\t// in\ntag_83:\n    /* \"#utility.yul\":2612:2663   */\n  swap6\n  pop\n    /* \"#utility.yul\":2696:2700   */\n  dup1\n    /* \"#utility.yul\":2692:2701   */\n  not\n    /* \"#utility.yul\":2685:2690   */\n  dup5\n    /* \"#utility.yul\":2681:2702   */\n  and\n    /* \"#utility.yul\":2672:2702   */\n  swap4\n  pop\n    /* \"#utility.yul\":2745:2749   */\n  dup1\n    /* \"#utility.yul\":2735:2743   */\n  dup7\n    /* \"#utility.yul\":2731:2750   */\n  and\n    /* \"#utility.yul\":2724:2729   */\n  dup5\n    /* \"#utility.yul\":2721:2751   */\n  or\n    /* \"#utility.yul\":2711:2751   */\n  swap3\n  pop\n    /* \"#utility.yul\":2440:2757   */\n  pop\n  pop\n    /* \"#utility.yul\":2364:2757   */\n  swap4\n  swap3\n  pop\n  pop\n  pop\n  jump\t// out\n    /* \"#utility.yul\":2763:2840   */\ntag_43:\n    /* \"#utility.yul\":2800:2807   */\n  0x00\n    /* \"#utility.yul\":2829:2834   */\n  dup2\n    /* \"#utility.yul\":2818:2834   */\n  swap1\n  pop\n    /* \"#utility.yul\":2763:2840   */\n  swap2\n  swap1\n  pop\n  jump\t// out\n    /* \"#utility.yul\":2846:2906   */\ntag_44:\n    /* \"#utility.yul\":2874:2877   */\n  0x00\n    /* \"#utility.yul\":2895:2900   */\n  dup2\n    /* \"#utility.yul\":2888:2900   */\n  swap1\n  pop\n    /* \"#utility.yul\":2846:2906   */\n  swap2\n  swap1\n  pop\n  jump\t// out\n    /* \"#utility.yul\":2912:3054   */\ntag_45:\n    /* \"#utility.yul\":2962:2971   */\n  0x00\n    /* \"#utility.yul\":2995:3048   */\n  tag_87\n    /* \"#utility.yul\":3013:3047   */\n  tag_88\n    /* \"#utility.yul\":3022:3046   */\n  tag_89\n    /* \"#utility.yul\":3040:3045   */\n  dup5\n    /* \"#utility.yul\":3022:3046   */\n  tag_43\n  jump\t// in\ntag_89:\n    /* \"#utility.yul\":3013:3047   */\n  tag_44\n  jump\t// in\ntag_88:\n    /* \"#utility.yul\":2995:3048   */\n  tag_43\n  jump\t// in\ntag_87:\n    /* \"#utility.yul\":2982:3048   */\n  swap1\n  pop\n    /* \"#utility.yul\":2912:3054   */\n  swap2\n  swap1\n  pop\n  jump\t// out\n    /* \"#utility.yul\":3060:3135   */\ntag_46:\n    /* \"#utility.yul\":3103:3106   */\n  0x00\n    /* \"#utility.yul\":3124:3129   */\n  dup2\n    /* \"#utility.yul\":3117:3129   */\n  swap1\n  pop\n    /* \"#utility.yul\":3060:3135   */\n  swap2\n  swap1\n  pop\n  jump\t// out\n    /* \"#utility.yul\":3141:3410   */\ntag_47:\n    /* \"#utility.yul\":3251:3290   */\n  tag_92\n    /* \"#utility.yul\":3282:3289   */\n  dup4\n    /* \"#utility.yul\":3251:3290   */\n  tag_45\n  jump\t// in\ntag_92:\n    /* \"#utility.yul\":3312:3403   */\n  tag_93\n    /* \"#utility.yul\":3361:3402   */\n  tag_94\n    /* \"#utility.yul\":3385:3401   */\n  dup3\n    /* \"#utility.yul\":3361:3402   */\n  tag_46\n  jump\t// in\ntag_94:\n    /* \"#utility.yul\":3353:3359   */\n  dup5\n    /* \"#utility.yul\":3346:3350   */\n  dup5\n    /* \"#utility.yul\":3340:3351   */\n  sload\n    /* \"#utility.yul\":3312:3403   */\n  tag_42\n  jump\t// in\ntag_93:\n    /* \"#utility.yul\":3306:3310   */\n  dup3\n    /* \"#utility.yul\":3299:3404   */\n  sstore\n    /* \"#utility.yul\":3217:3410   */\n  pop\n    /* \"#utility.yul\":3141:3410   */\n  pop\n  pop\n  pop\n  jump\t// out\n    /* \"#utility.yul\":3416:3489   */\ntag_48:\n    /* \"#utility.yul\":3461:3464   */\n  0x00\n    /* \"#utility.yul\":3416:3489   */\n  swap1\n  jump\t// out\n    /* \"#utility.yul\":3495:3684   */\ntag_49:\n    /* \"#utility.yul\":3572:3604   */\n  tag_97\n  tag_48\n  jump\t// in\ntag_97:\n    /* \"#utility.yul\":3613:3678   */\n  tag_98\n    /* \"#utility.yul\":3671:3677   */\n  dup2\n    /* \"#utility.yul\":3663:3669   */\n  dup5\n    /* \"#utility.yul\":3657:3661   */\n  dup5\n    /* \"#utility.yul\":3613:3678   */\n  tag_47\n  jump\t// in\ntag_98:\n    /* \"#utility.yul\":3548:3684   */\n  pop\n    /* \"#utility.yul\":3495:3684   */\n  pop\n  pop\n  jump\t// out\n    /* \"#utility.yul\":3690:3876   */\ntag_50:\n    /* \"#utility.yul\":3750:3870   */\ntag_100:\n    /* \"#utility.yul\":3767:3770   */\n  dup2\n    /* \"#utility.yul\":3760:3765   */\n  dup2\n    /* \"#utility.yul\":3757:3771   */\n  lt\n    /* \"#utility.yul\":3750:3870   */\n  iszero\n  tag_102\n  jumpi\n    /* \"#utility.yul\":3821:3860   */\n  tag_103\n    /* \"#utility.yul\":3858:3859   */\n  0x00\n    /* \"#utility.yul\":3851:3856   */\n  dup3\n    /* \"#utility.yul\":3821:3860   */\n  tag_49\n  jump\t// in\ntag_103:\n    /* \"#utility.yul\":3794:3795   */\n  0x01\n    /* \"#utility.yul\":3787:3792   */\n  dup2\n    /* \"#utility.yul\":3783:3796   */\n  add\n    /* \"#utility.yul\":3774:3796   */\n  swap1\n  pop\n    /* \"#utility.yul\":3750:3870   */\n  jump(tag_100)\ntag_102:\n    /* \"#utility.yul\":3690:3876   */\n  pop\n  pop\n  jump\t// out\n    /* \"#utility.yul\":3882:4425   */\ntag_51:\n    /* \"#utility.yul\":3983:3985   */\n  0x1f\n    /* \"#utility.yul\":3978:3981   */\n  dup3\n    /* \"#utility.yul\":3975:3986   */\n  gt\n    /* \"#utility.yul\":3972:4418   */\n  iszero\n  tag_105\n  jumpi\n    /* \"#utility.yul\":4017:4055   */\n  tag_106\n    /* \"#utility.yul\":4049:4054   */\n  dup2\n    /* \"#utility.yul\":4017:4055   */\n  tag_39\n  jump\t// in\ntag_106:\n    /* \"#utility.yul\":4101:4130   */\n  tag_107\n    /* \"#utility.yul\":4119:4129   */\n  dup5\n    /* \"#utility.yul\":4101:4130   */\n  tag_40\n  jump\t// in\ntag_107:\n    /* \"#utility.yul\":4091:4099   */\n  dup2\n    /* \"#utility.yul\":4087:4131   */\n  add\n    /* \"#utility.yul\":4284:4286   */\n  0x20\n    /* \"#utility.yul\":4272:4282   */\n  dup6\n    /* \"#utility.yul\":4269:4287   */\n  lt\n    /* \"#utility.yul\":4266:4315   */\n  iszero\n  tag_108\n  jumpi\n    /* \"#utility.yul\":4305:4313   */\n  dup2\n    /* \"#utility.yul\":4290:4313   */\n  swap1\n  pop\n    /* \"#utility.yul\":4266:4315   */\ntag_108:\n    /* \"#utility.yul\":4328:4408   */\n  tag_109\n    /* \"#utility.yul\":4384:4406   */\n  tag_110\n    /* \"#utility.yul\":4402:4405   */\n  dup6\n    /* \"#utility.yul\":4384:4406   */\n  tag_40\n  jump\t// in\ntag_110:\n    /* \"#utility.yul\":4374:4382   */\n  dup4\n    /* \"#utility.yul\":4370:4407   */\n  add\n    /* \"#utility.yul\":4357:4368   */\n  dup3\n    /* \"#utility.yul\":4328:4408   */\n  tag_50\n  jump\t// in\ntag_109:\n    /* \"#utility.yul\":3987:4418   */\n  pop\n  pop\n    /* \"#utility.yul\":3972:4418   */\ntag_105:\n    /* \"#utility.yul\":3882:4425   */\n  pop\n  pop\n  pop\n  jump\t// out\n    /* \"#utility.yul\":4431:4548   */\ntag_52:\n    /* \"#utility.yul\":4485:4493   */\n  0x00\n    /* \"#utility.yul\":4535:4540   */\n  dup3\n    /* \"#utility.yul\":4529:4533   */\n  dup3\n    /* \"#utility.yul\":4525:4541   */\n  shr\n    /* \"#utility.yul\":4504:4541   */\n  swap1\n  pop\n    /* \"#utility.yul\":4431:4548   */\n  swap3\n  swap2\n  pop\n  pop\n  jump\t// out\n    /* \"#utility.yul\":4554:4723   */\ntag_53:\n    /* \"#utility.yul\":4598:4604   */\n  0x00\n    /* \"#utility.yul\":4631:4682   */\n  tag_113\n    /* \"#utility.yul\":4679:4680   */\n  0x00\n    /* \"#utility.yul\":4675:4681   */\n  not\n    /* \"#utility.yul\":4667:4672   */\n  dup5\n    /* \"#utility.yul\":4664:4665   */\n  0x08\n    /* \"#utility.yul\":4660:4673   */\n  mul\n    /* \"#utility.yul\":4631:4682   */\n  tag_52\n  jump\t// in\ntag_113:\n    /* \"#utility.yul\":4627:4683   */\n  not\n    /* \"#utility.yul\":4712:4716   */\n  dup1\n    /* \"#utility.yul\":4706:4710   */\n  dup4\n    /* \"#utility.yul\":4702:4717   */\n  and\n    /* \"#utility.yul\":4692:4717   */\n  swap2\n  pop\n    /* \"#utility.yul\":4605:4723   */\n  pop\n    /* \"#utility.yul\":4554:4723   */\n  swap3\n  swap2\n  pop\n  pop\n  jump\t// out\n    /* \"#utility.yul\":4728:5023   */\ntag_54:\n    /* \"#utility.yul\":4804:4808   */\n  0x00\n    /* \"#utility.yul\":4950:4979   */\n  tag_115\n    /* \"#utility.yul\":4975:4978   */\n  dup4\n    /* \"#utility.yul\":4969:4973   */\n  dup4\n    /* \"#utility.yul\":4950:4979   */\n  tag_53\n  jump\t// in\ntag_115:\n    /* \"#utility.yul\":4942:4979   */\n  swap2\n  pop\n    /* \"#utility.yul\":5012:5015   */\n  dup3\n    /* \"#utility.yul\":5009:5010   */\n  0x02\n    /* \"#utility.yul\":5005:5016   */\n  mul\n    /* \"#utility.yul\":4999:5003   */\n  dup3\n    /* \"#utility.yul\":4996:5017   */\n  or\n    /* \"#utility.yul\":4988:5017   */\n  swap1\n  pop\n    /* \"#utility.yul\":4728:5023   */\n  swap3\n  swap2\n  pop\n  pop\n  jump\t// out\n    /* \"#utility.yul\":5028:6423   */\ntag_14:\n    /* \"#utility.yul\":5145:5182   */\n  tag_117\n    /* \"#utility.yul\":5178:5181   */\n  dup3\n    /* \"#utility.yul\":5145:5182   */\n  tag_36\n  jump\t// in\ntag_117:\n    /* \"#utility.yul\":5247:5265   */\n  0xffffffffffffffff\n    /* \"#utility.yul\":5239:5245   */\n  dup2\n    /* \"#utility.yul\":5236:5266   */\n  gt\n    /* \"#utility.yul\":5233:5289   */\n  iszero\n  tag_118\n  jumpi\n    /* \"#utility.yul\":5269:5287   */\n  tag_119\n  tag_37\n  jump\t// in\ntag_119:\n    /* \"#utility.yul\":5233:5289   */\ntag_118:\n    /* \"#utility.yul\":5313:5351   */\n  tag_120\n    /* \"#utility.yul\":5345:5349   */\n  dup3\n    /* \"#utility.yul\":5339:5350   */\n  sload\n    /* \"#utility.yul\":5313:5351   */\n  tag_22\n  jump\t// in\ntag_120:\n    /* \"#utility.yul\":5398:5465   */\n  tag_121\n    /* \"#utility.yul\":5458:5464   */\n  dup3\n    /* \"#utility.yul\":5450:5456   */\n  dup3\n    /* \"#utility.yul\":5444:5448   */\n  dup6\n    /* \"#utility.yul\":5398:5465   */\n  tag_51\n  jump\t// in\ntag_121:\n    /* \"#utility.yul\":5492:5493   */\n  0x00\n    /* \"#utility.yul\":5516:5520   */\n  0x20\n    /* \"#utility.yul\":5503:5520   */\n  swap1\n  pop\n    /* \"#utility.yul\":5548:5550   */\n  0x1f\n    /* \"#utility.yul\":5540:5546   */\n  dup4\n    /* \"#utility.yul\":5537:5551   */\n  gt\n    /* \"#utility.yul\":5565:5566   */\n  0x01\n    /* \"#utility.yul\":5560:6178   */\n  dup2\n  eq\n  tag_123\n  jumpi\n    /* \"#utility.yul\":6222:6223   */\n  0x00\n    /* \"#utility.yul\":6239:6245   */\n  dup5\n    /* \"#utility.yul\":6236:6313   */\n  iszero\n  tag_124\n  jumpi\n    /* \"#utility.yul\":6288:6297   */\n  dup3\n    /* \"#utility.yul\":6283:6286   */\n  dup8\n    /* \"#utility.yul\":6279:6298   */\n  add\n    /* \"#utility.yul\":6273:6299   */\n  mload\n    /* \"#utility.yul\":6264:6299   */\n  swap1\n  pop\n    /* \"#utility.yul\":6236:6313   */\ntag_124:\n    /* \"#utility.yul\":6339:6406   */\n  tag_125\n    /* \"#utility.yul\":6399:6405   */\n  dup6\n    /* \"#utility.yul\":6392:6397   */\n  dup3\n    /* \"#utility.yul\":6339:6406   */\n  tag_54\n  jump\t// in\ntag_125:\n    /* \"#utility.yul\":6333:6337   */\n  dup7\n    /* \"#utility.yul\":6326:6407   */\n  sstore\n    /* \"#utility.yul\":6195:6417   */\n  pop\n    /* \"#utility.yul\":5530:6417   */\n  jump(tag_122)\n    /* \"#utility.yul\":5560:6178   */\ntag_123:\n    /* \"#utility.yul\":5612:5616   */\n  0x1f\n    /* \"#utility.yul\":5608:5617   */\n  not\n    /* \"#utility.yul\":5600:5606   */\n  dup5\n    /* \"#utility.yul\":5596:5618   */\n  and\n    /* \"#utility.yul\":5646:5683   */\n  tag_126\n    /* \"#utility.yul\":5678:5682   */\n  dup7\n    /* \"#utility.yul\":5646:5683   */\n  tag_39\n  jump\t// in\ntag_126:\n    /* \"#utility.yul\":5705:5706   */\n  0x00\n    /* \"#utility.yul\":5719:5927   */\ntag_127:\n    /* \"#utility.yul\":5733:5740   */\n  dup3\n    /* \"#utility.yul\":5730:5731   */\n  dup2\n    /* \"#utility.yul\":5727:5741   */\n  lt\n    /* \"#utility.yul\":5719:5927   */\n  iszero\n  tag_129\n  jumpi\n    /* \"#utility.yul\":5812:5821   */\n  dup5\n    /* \"#utility.yul\":5807:5810   */\n  dup10\n    /* \"#utility.yul\":5803:5822   */\n  add\n    /* \"#utility.yul\":5797:5823   */\n  mload\n    /* \"#utility.yul\":5789:5795   */\n  dup3\n    /* \"#utility.yul\":5782:5824   */\n  sstore\n    /* \"#utility.yul\":5863:5864   */\n  0x01\n    /* \"#utility.yul\":5855:5861   */\n  dup3\n    /* \"#utility.yul\":5851:5865   */\n  add\n    /* \"#utility.yul\":5841:5865   */\n  swap2\n  pop\n    /* \"#utility.yul\":5910:5912   */\n  0x20\n    /* \"#utility.yul\":5899:5908   */\n  dup6\n    /* \"#utility.yul\":5895:5913   */\n  add\n    /* \"#utility.yul\":5882:5913   */\n  swap5\n  pop\n    /* \"#utility.yul\":5756:5760   */\n  0x20\n    /* \"#utility.yul\":5753:5754   */\n  dup2\n    /* \"#utility.yul\":5749:5761   */\n  add\n    /* \"#utility.yul\":5744:5761   */\n  swap1\n  pop\n    /* \"#utility.yul\":5719:5927   */\n  jump(tag_127)\ntag_129:\n    /* \"#utility.yul\":5955:5961   */\n  dup7\n    /* \"#utility.yul\":5946:5953   */\n  dup4\n    /* \"#utility.yul\":5943:5962   */\n  lt\n    /* \"#utility.yul\":5940:6119   */\n  iszero\n  tag_130\n  jumpi\n    /* \"#utility.yul\":6013:6022   */\n  dup5\n    /* \"#utility.yul\":6008:6011   */\n  dup10\n    /* \"#utility.yul\":6004:6023   */\n  add\n    /* \"#utility.yul\":5998:6024   */\n  mload\n    /* \"#utility.yul\":6056:6104   */\n  tag_131\n    /* \"#utility.yul\":6098:6102   */\n  0x1f\n    /* \"#utility.yul\":6090:6096   */\n  dup10\n    /* \"#utility.yul\":6086:6103   */\n  and\n    /* \"#utility.yul\":6075:6084   */\n  dup3\n    /* \"#utility.yul\":6056:6104   */\n  tag_53\n  jump\t// in\ntag_131:\n    /* \"#utility.yul\":6048:6054   */\n  dup4\n    /* \"#utility.yul\":6041:6105   */\n  sstore\n    /* \"#utility.yul\":5963:6119   */\n  pop\n    /* \"#utility.yul\":5940:6119   */\ntag_130:\n    /* \"#utility.yul\":6165:6166   */\n  0x01\n    /* \"#utility.yul\":6161:6162   */\n  0x02\n    /* \"#utility.yul\":6153:6159   */\n  dup9\n    /* \"#utility.yul\":6149:6163   */\n  mul\n    /* \"#utility.yul\":6145:6167   */\n  add\n    /* \"#utility.yul\":6139:6143   */\n  dup9\n    /* \"#utility.yul\":6132:6168   */\n  sstore\n    /* \"#utility.yul\":5567:6178   */\n  pop\n  pop\n  pop\n    /* \"#utility.yul\":5530:6417   */\ntag_122:\n  pop\n    /* \"#utility.yul\":5120:6423   */\n  pop\n  pop\n  pop\n    /* \"#utility.yul\":5028:6423   */\n  pop\n  pop\n  jump\t// out\n    /* \"contracts/HashJingViewer.sol\":83:3043  contract TwoSectorRenderer {... */\ntag_9:\n  mload(0x80)\n  codecopy(0x00, dataOffset(sub_0), dataSize(sub_0))\n  0x00\n  assignImmutable(\"0x13600b294191fc92924bb3ce4b969c1e7e2bab8f4c93c3fc6d0a51733df3c060\")\n  return(0x00, dataSize(sub_0))\nstop\n\nsub_0: assembly {\n        /* \"contracts/HashJingViewer.sol\":83:3043  contract TwoSectorRenderer {... */\n      mstore(0x40, 0x80)\n      callvalue\n      dup1\n      iszero\n      tag_1\n      jumpi\n      0x00\n      dup1\n      revert\n    tag_1:\n      pop\n      jumpi(tag_2, lt(calldatasize, 0x04))\n      shr(0xe0, calldataload(0x00))\n      dup1\n      0x489187e8\n      eq\n      tag_3\n      jumpi\n      dup1\n      0xe9734902\n      eq\n      tag_4\n      jumpi\n    tag_2:\n      0x00\n      dup1\n      revert\n        /* \"contracts/HashJingViewer.sol\":690:1001  function getSVG() external view returns (string memory) {... */\n    tag_3:\n      tag_5\n      tag_6\n      jump\t// in\n    tag_5:\n      mload(0x40)\n      tag_7\n      swap2\n      swap1\n      tag_8\n      jump\t// in\n    tag_7:\n      mload(0x40)\n      dup1\n      swap2\n      sub\n      swap1\n      return\n        /* \"contracts/HashJingViewer.sol\":116:150  address public immutable sectorPtr */\n    tag_4:\n      tag_9\n      tag_10\n      jump\t// in\n    tag_9:\n      mload(0x40)\n      tag_11\n      swap2\n      swap1\n      tag_12\n      jump\t// in\n    tag_11:\n      mload(0x40)\n      dup1\n      swap2\n      sub\n      swap1\n      return\n        /* \"contracts/HashJingViewer.sol\":690:1001  function getSVG() external view returns (string memory) {... */\n    tag_6:\n        /* \"contracts/HashJingViewer.sol\":731:744  string memory */\n      0x60\n        /* \"contracts/HashJingViewer.sol\":756:773  bytes memory tmpl */\n      0x00\n        /* \"contracts/HashJingViewer.sol\":776:799  SSTORE2.read(sectorPtr) */\n      tag_14\n        /* \"contracts/HashJingViewer.sol\":789:798  sectorPtr */\n      immutable(\"0x13600b294191fc92924bb3ce4b969c1e7e2bab8f4c93c3fc6d0a51733df3c060\")\n        /* \"contracts/HashJingViewer.sol\":776:788  SSTORE2.read */\n      tag_15\n        /* \"contracts/HashJingViewer.sol\":776:799  SSTORE2.read(sectorPtr) */\n      jump\t// in\n    tag_14:\n        /* \"contracts/HashJingViewer.sol\":756:799  bytes memory tmpl = SSTORE2.read(sectorPtr) */\n      swap1\n      pop\n        /* \"contracts/HashJingViewer.sol\":810:828  bytes memory first */\n      0x00\n        /* \"contracts/HashJingViewer.sol\":832:870  _wrap(_applyColor(tmpl, 0x05), ANG[0]) */\n      tag_16\n        /* \"contracts/HashJingViewer.sol\":838:861  _applyColor(tmpl, 0x05) */\n      tag_17\n        /* \"contracts/HashJingViewer.sol\":850:854  tmpl */\n      dup4\n        /* \"contracts/HashJingViewer.sol\":856:860  0x05 */\n      0x05\n        /* \"contracts/HashJingViewer.sol\":838:849  _applyColor */\n      tag_18\n        /* \"contracts/HashJingViewer.sol\":838:861  _applyColor(tmpl, 0x05) */\n      jump\t// in\n    tag_17:\n        /* \"contracts/HashJingViewer.sol\":863:866  ANG */\n      0x02\n        /* \"contracts/HashJingViewer.sol\":867:868  0 */\n      0x00\n        /* \"contracts/HashJingViewer.sol\":863:869  ANG[0] */\n      0x02\n      dup2\n      lt\n      tag_19\n      jumpi\n      tag_20\n      tag_21\n      jump\t// in\n    tag_20:\n    tag_19:\n      add\n        /* \"contracts/HashJingViewer.sol\":832:870  _wrap(_applyColor(tmpl, 0x05), ANG[0]) */\n      dup1\n      sload\n      tag_23\n      swap1\n      tag_24\n      jump\t// in\n    tag_23:\n      dup1\n      0x1f\n      add\n      0x20\n      dup1\n      swap2\n      div\n      mul\n      0x20\n      add\n      mload(0x40)\n      swap1\n      dup2\n      add\n      0x40\n      mstore\n      dup1\n      swap3\n      swap2\n      swap1\n      dup2\n      dup2\n      mstore\n      0x20\n      add\n      dup3\n      dup1\n      sload\n      tag_25\n      swap1\n      tag_24\n      jump\t// in\n    tag_25:\n      dup1\n      iszero\n      tag_26\n      jumpi\n      dup1\n      0x1f\n      lt\n      tag_27\n      jumpi\n      0x0100\n      dup1\n      dup4\n      sload\n      div\n      mul\n      dup4\n      mstore\n      swap2\n      0x20\n      add\n      swap2\n      jump(tag_26)\n    tag_27:\n      dup3\n      add\n      swap2\n      swap1\n      0x00\n      mstore\n      keccak256(0x00, 0x20)\n      swap1\n    tag_28:\n      dup2\n      sload\n      dup2\n      mstore\n      swap1\n      0x01\n      add\n      swap1\n      0x20\n      add\n      dup1\n      dup4\n      gt\n      tag_28\n      jumpi\n      dup3\n      swap1\n      sub\n      0x1f\n      and\n      dup3\n      add\n      swap2\n    tag_26:\n      pop\n      pop\n      pop\n      pop\n      pop\n        /* \"contracts/HashJingViewer.sol\":832:837  _wrap */\n      tag_29\n        /* \"contracts/HashJingViewer.sol\":832:870  _wrap(_applyColor(tmpl, 0x05), ANG[0]) */\n      jump\t// in\n    tag_16:\n        /* \"contracts/HashJingViewer.sol\":810:870  bytes memory first  = _wrap(_applyColor(tmpl, 0x05), ANG[0]) */\n      swap1\n      pop\n        /* \"contracts/HashJingViewer.sol\":880:899  bytes memory second */\n      0x00\n        /* \"contracts/HashJingViewer.sol\":902:940  _wrap(_applyColor(tmpl, 0x09), ANG[1]) */\n      tag_30\n        /* \"contracts/HashJingViewer.sol\":908:931  _applyColor(tmpl, 0x09) */\n      tag_31\n        /* \"contracts/HashJingViewer.sol\":920:924  tmpl */\n      dup5\n        /* \"contracts/HashJingViewer.sol\":926:930  0x09 */\n      0x09\n        /* \"contracts/HashJingViewer.sol\":908:919  _applyColor */\n      tag_18\n        /* \"contracts/HashJingViewer.sol\":908:931  _applyColor(tmpl, 0x09) */\n      jump\t// in\n    tag_31:\n        /* \"contracts/HashJingViewer.sol\":933:936  ANG */\n      0x02\n        /* \"contracts/HashJingViewer.sol\":937:938  1 */\n      0x01\n        /* \"contracts/HashJingViewer.sol\":933:939  ANG[1] */\n      0x02\n      dup2\n      lt\n      tag_32\n      jumpi\n      tag_33\n      tag_21\n      jump\t// in\n    tag_33:\n    tag_32:\n      add\n        /* \"contracts/HashJingViewer.sol\":902:940  _wrap(_applyColor(tmpl, 0x09), ANG[1]) */\n      dup1\n      sload\n      tag_35\n      swap1\n      tag_24\n      jump\t// in\n    tag_35:\n      dup1\n      0x1f\n      add\n      0x20\n      dup1\n      swap2\n      div\n      mul\n      0x20\n      add\n      mload(0x40)\n      swap1\n      dup2\n      add\n      0x40\n      mstore\n      dup1\n      swap3\n      swap2\n      swap1\n      dup2\n      dup2\n      mstore\n      0x20\n      add\n      dup3\n      dup1\n      sload\n      tag_36\n      swap1\n      tag_24\n      jump\t// in\n    tag_36:\n      dup1\n      iszero\n      tag_37\n      jumpi\n      dup1\n      0x1f\n      lt\n      tag_38\n      jumpi\n      0x0100\n      dup1\n      dup4\n      sload\n      div\n      mul\n      dup4\n      mstore\n      swap2\n      0x20\n      add\n      swap2\n      jump(tag_37)\n    tag_38:\n      dup3\n      add\n      swap2\n      swap1\n      0x00\n      mstore\n      keccak256(0x00, 0x20)\n      swap1\n    tag_39:\n      dup2\n      sload\n      dup2\n      mstore\n      swap1\n      0x01\n      add\n      swap1\n      0x20\n      add\n      dup1\n      dup4\n      gt\n      tag_39\n      jumpi\n      dup3\n      swap1\n      sub\n      0x1f\n      and\n      dup3\n      add\n      swap2\n    tag_37:\n      pop\n      pop\n      pop\n      pop\n      pop\n        /* \"contracts/HashJingViewer.sol\":902:907  _wrap */\n      tag_29\n        /* \"contracts/HashJingViewer.sol\":902:940  _wrap(_applyColor(tmpl, 0x09), ANG[1]) */\n      jump\t// in\n    tag_30:\n        /* \"contracts/HashJingViewer.sol\":880:940  bytes memory second = _wrap(_applyColor(tmpl, 0x09), ANG[1]) */\n      swap1\n      pop\n        /* \"contracts/HashJingViewer.sol\":979:984  first */\n      dup2\n        /* \"contracts/HashJingViewer.sol\":986:992  second */\n      dup2\n        /* \"contracts/HashJingViewer.sol\":966:993  bytes.concat(first, second) */\n      add(0x20, mload(0x40))\n      tag_40\n      swap3\n      swap2\n      swap1\n      tag_41\n      jump\t// in\n    tag_40:\n      mload(0x40)\n      0x20\n      dup2\n      dup4\n      sub\n      sub\n      dup2\n      mstore\n      swap1\n      0x40\n      mstore\n        /* \"contracts/HashJingViewer.sol\":952:994  return string(bytes.concat(first, second)) */\n      swap4\n      pop\n      pop\n      pop\n      pop\n        /* \"contracts/HashJingViewer.sol\":690:1001  function getSVG() external view returns (string memory) {... */\n      swap1\n      jump\t// out\n        /* \"contracts/HashJingViewer.sol\":116:150  address public immutable sectorPtr */\n    tag_10:\n      immutable(\"0x13600b294191fc92924bb3ce4b969c1e7e2bab8f4c93c3fc6d0a51733df3c060\")\n      dup2\n      jump\t// out\n        /* \"contracts/SSTORE2.sol\":1297:1431  function read(address _pointer) internal view returns (bytes memory) {... */\n    tag_15:\n        /* \"contracts/SSTORE2.sol\":1352:1364  bytes memory */\n      0x60\n        /* \"contracts/SSTORE2.sol\":1379:1426  Bytecode.codeAt(_pointer, 1, type(uint256).max) */\n      tag_43\n        /* \"contracts/SSTORE2.sol\":1395:1403  _pointer */\n      dup3\n        /* \"contracts/SSTORE2.sol\":1405:1406  1 */\n      0x01\n        /* \"contracts/SSTORE2.sol\":1408:1425  type(uint256).max */\n      0xffffffffffffffffffffffffffffffffffffffffffffffffffffffffffffffff\n        /* \"contracts/SSTORE2.sol\":1379:1394  Bytecode.codeAt */\n      tag_44\n        /* \"contracts/SSTORE2.sol\":1379:1426  Bytecode.codeAt(_pointer, 1, type(uint256).max) */\n      jump\t// in\n    tag_43:\n        /* \"contracts/SSTORE2.sol\":1372:1426  return Bytecode.codeAt(_pointer, 1, type(uint256).max) */\n      swap1\n      pop\n        /* \"contracts/SSTORE2.sol\":1297:1431  function read(address _pointer) internal view returns (bytes memory) {... */\n      swap2\n      swap1\n      pop\n      jump\t// out\n        /* \"contracts/HashJingViewer.sol\":1441:1841  function _applyColor(bytes memory src, uint8 bits)... */\n    tag_18:\n        /* \"contracts/HashJingViewer.sol\":1538:1550  bytes memory */\n      0x60\n        /* \"contracts/HashJingViewer.sol\":1566:1582  bytes memory out */\n      0x00\n        /* \"contracts/HashJingViewer.sol\":1585:1588  src */\n      dup4\n        /* \"contracts/HashJingViewer.sol\":1566:1588  bytes memory out = src */\n      swap1\n      pop\n        /* \"contracts/HashJingViewer.sol\":1605:1645  _subst(out, \"c_1\", PAL[(bits >> 3) & 1]) */\n      tag_46\n        /* \"contracts/HashJingViewer.sol\":1612:1615  out */\n      dup2\n        /* \"contracts/HashJingViewer.sol\":1605:1645  _subst(out, \"c_1\", PAL[(bits >> 3) & 1]) */\n      mload(0x40)\n      dup1\n      0x40\n      add\n      0x40\n      mstore\n      dup1\n      0x03\n      dup2\n      mstore\n      0x20\n      add\n      0x635f310000000000000000000000000000000000000000000000000000000000\n      dup2\n      mstore\n      pop\n        /* \"contracts/HashJingViewer.sol\":1624:1627  PAL */\n      0x00\n        /* \"contracts/HashJingViewer.sol\":1642:1643  1 */\n      0x01\n        /* \"contracts/HashJingViewer.sol\":1637:1638  3 */\n      0x03\n        /* \"contracts/HashJingViewer.sol\":1629:1633  bits */\n      dup9\n        /* \"contracts/HashJingViewer.sol\":1629:1638  bits >> 3 */\n      0xff\n      and\n      swap1\n      shr\n        /* \"contracts/HashJingViewer.sol\":1628:1643  (bits >> 3) & 1 */\n      and\n        /* \"contracts/HashJingViewer.sol\":1624:1644  PAL[(bits >> 3) & 1] */\n      0xff\n      and\n      0x02\n      dup2\n      lt\n      tag_47\n      jumpi\n      tag_48\n      tag_21\n      jump\t// in\n    tag_48:\n    tag_47:\n      add\n        /* \"contracts/HashJingViewer.sol\":1605:1645  _subst(out, \"c_1\", PAL[(bits >> 3) & 1]) */\n      dup1\n      sload\n      tag_50\n      swap1\n      tag_24\n      jump\t// in\n    tag_50:\n      dup1\n      0x1f\n      add\n      0x20\n      dup1\n      swap2\n      div\n      mul\n      0x20\n      add\n      mload(0x40)\n      swap1\n      dup2\n      add\n      0x40\n      mstore\n      dup1\n      swap3\n      swap2\n      swap1\n      dup2\n      dup2\n      mstore\n      0x20\n      add\n      dup3\n      dup1\n      sload\n      tag_51\n      swap1\n      tag_24\n      jump\t// in\n    tag_51:\n      dup1\n      iszero\n      tag_52\n      jumpi\n      dup1\n      0x1f\n      lt\n      tag_53\n      jumpi\n      0x0100\n      dup1\n      dup4\n      sload\n      div\n      mul\n      dup4\n      mstore\n      swap2\n      0x20\n      add\n      swap2\n      jump(tag_52)\n    tag_53:\n      dup3\n      add\n      swap2\n      swap1\n      0x00\n      mstore\n      keccak256(0x00, 0x20)\n      swap1\n    tag_54:\n      dup2\n      sload\n      dup2\n      mstore\n      swap1\n      0x01\n      add\n      swap1\n      0x20\n      add\n      dup1\n      dup4\n      gt\n      tag_54\n      jumpi\n      dup3\n      swap1\n      sub\n      0x1f\n      and\n      dup3\n      add\n      swap2\n    tag_52:\n      pop\n      pop\n      pop\n      pop\n      pop\n        /* \"contracts/HashJingViewer.sol\":1605:1611  _subst */\n      tag_55\n        /* \"contracts/HashJingViewer.sol\":1605:1645  _subst(out, \"c_1\", PAL[(bits >> 3) & 1]) */\n      jump\t// in\n    tag_46:\n        /* \"contracts/HashJingViewer.sol\":1599:1645  out = _subst(out, \"c_1\", PAL[(bits >> 3) & 1]) */\n      swap1\n      pop\n        /* \"contracts/HashJingViewer.sol\":1661:1701  _subst(out, \"c_2\", PAL[(bits >> 2) & 1]) */\n      tag_56\n        /* \"contracts/HashJingViewer.sol\":1668:1671  out */\n      dup2\n        /* \"contracts/HashJingViewer.sol\":1661:1701  _subst(out, \"c_2\", PAL[(bits >> 2) & 1]) */\n      mload(0x40)\n      dup1\n      0x40\n      add\n      0x40\n      mstore\n      dup1\n      0x03\n      dup2\n      mstore\n      0x20\n      add\n      0x635f320000000000000000000000000000000000000000000000000000000000\n      dup2\n      mstore\n      pop\n        /* \"contracts/HashJingViewer.sol\":1680:1683  PAL */\n      0x00\n        /* \"contracts/HashJingViewer.sol\":1698:1699  1 */\n      0x01\n        /* \"contracts/HashJingViewer.sol\":1693:1694  2 */\n      0x02\n        /* \"contracts/HashJingViewer.sol\":1685:1689  bits */\n      dup9\n        /* \"contracts/HashJingViewer.sol\":1685:1694  bits >> 2 */\n      0xff\n      and\n      swap1\n      shr\n        /* \"contracts/HashJingViewer.sol\":1684:1699  (bits >> 2) & 1 */\n      and\n        /* \"contracts/HashJingViewer.sol\":1680:1700  PAL[(bits >> 2) & 1] */\n      0xff\n      and\n      0x02\n      dup2\n      lt\n      tag_57\n      jumpi\n      tag_58\n      tag_21\n      jump\t// in\n    tag_58:\n    tag_57:\n      add\n        /* \"contracts/HashJingViewer.sol\":1661:1701  _subst(out, \"c_2\", PAL[(bits >> 2) & 1]) */\n      dup1\n      sload\n      tag_60\n      swap1\n      tag_24\n      jump\t// in\n    tag_60:\n      dup1\n      0x1f\n      add\n      0x20\n      dup1\n      swap2\n      div\n      mul\n      0x20\n      add\n      mload(0x40)\n      swap1\n      dup2\n      add\n      0x40\n      mstore\n      dup1\n      swap3\n      swap2\n      swap1\n      dup2\n      dup2\n      mstore\n      0x20\n      add\n      dup3\n      dup1\n      sload\n      tag_61\n      swap1\n      tag_24\n      jump\t// in\n    tag_61:\n      dup1\n      iszero\n      tag_62\n      jumpi\n      dup1\n      0x1f\n      lt\n      tag_63\n      jumpi\n      0x0100\n      dup1\n      dup4\n      sload\n      div\n      mul\n      dup4\n      mstore\n      swap2\n      0x20\n      add\n      swap2\n      jump(tag_62)\n    tag_63:\n      dup3\n      add\n      swap2\n      swap1\n      0x00\n      mstore\n      keccak256(0x00, 0x20)\n      swap1\n    tag_64:\n      dup2\n      sload\n      dup2\n      mstore\n      swap1\n      0x01\n      add\n      swap1\n      0x20\n      add\n      dup1\n      dup4\n      gt\n      tag_64\n      jumpi\n      dup3\n      swap1\n      sub\n      0x1f\n      and\n      dup3\n      add\n      swap2\n    tag_62:\n      pop\n      pop\n      pop\n      pop\n      pop\n        /* \"contracts/HashJingViewer.sol\":1661:1667  _subst */\n      tag_55\n        /* \"contracts/HashJingViewer.sol\":1661:1701  _subst(out, \"c_2\", PAL[(bits >> 2) & 1]) */\n      jump\t// in\n    tag_56:\n        /* \"contracts/HashJingViewer.sol\":1655:1701  out = _subst(out, \"c_2\", PAL[(bits >> 2) & 1]) */\n      swap1\n      pop\n        /* \"contracts/HashJingViewer.sol\":1717:1757  _subst(out, \"c_3\", PAL[(bits >> 1) & 1]) */\n      tag_65\n        /* \"contracts/HashJingViewer.sol\":1724:1727  out */\n      dup2\n        /* \"contracts/HashJingViewer.sol\":1717:1757  _subst(out, \"c_3\", PAL[(bits >> 1) & 1]) */\n      mload(0x40)\n      dup1\n      0x40\n      add\n      0x40\n      mstore\n      dup1\n      0x03\n      dup2\n      mstore\n      0x20\n      add\n      0x635f330000000000000000000000000000000000000000000000000000000000\n      dup2\n      mstore\n      pop\n        /* \"contracts/HashJingViewer.sol\":1736:1739  PAL */\n      0x00\n        /* \"contracts/HashJingViewer.sol\":1754:1755  1 */\n      0x01\n        /* \"contracts/HashJingViewer.sol\":1749:1750  1 */\n      dup1\n        /* \"contracts/HashJingViewer.sol\":1741:1745  bits */\n      dup9\n        /* \"contracts/HashJingViewer.sol\":1741:1750  bits >> 1 */\n      0xff\n      and\n      swap1\n      shr\n        /* \"contracts/HashJingViewer.sol\":1740:1755  (bits >> 1) & 1 */\n      and\n        /* \"contracts/HashJingViewer.sol\":1736:1756  PAL[(bits >> 1) & 1] */\n      0xff\n      and\n      0x02\n      dup2\n      lt\n      tag_66\n      jumpi\n      tag_67\n      tag_21\n      jump\t// in\n    tag_67:\n    tag_66:\n      add\n        /* \"contracts/HashJingViewer.sol\":1717:1757  _subst(out, \"c_3\", PAL[(bits >> 1) & 1]) */\n      dup1\n      sload\n      tag_69\n      swap1\n      tag_24\n      jump\t// in\n    tag_69:\n      dup1\n      0x1f\n      add\n      0x20\n      dup1\n      swap2\n      div\n      mul\n      0x20\n      add\n      mload(0x40)\n      swap1\n      dup2\n      add\n      0x40\n      mstore\n      dup1\n      swap3\n      swap2\n      swap1\n      dup2\n      dup2\n      mstore\n      0x20\n      add\n      dup3\n      dup1\n      sload\n      tag_70\n      swap1\n      tag_24\n      jump\t// in\n    tag_70:\n      dup1\n      iszero\n      tag_71\n      jumpi\n      dup1\n      0x1f\n      lt\n      tag_72\n      jumpi\n      0x0100\n      dup1\n      dup4\n      sload\n      div\n      mul\n      dup4\n      mstore\n      swap2\n      0x20\n      add\n      swap2\n      jump(tag_71)\n    tag_72:\n      dup3\n      add\n      swap2\n      swap1\n      0x00\n      mstore\n      keccak256(0x00, 0x20)\n      swap1\n    tag_73:\n      dup2\n      sload\n      dup2\n      mstore\n      swap1\n      0x01\n      add\n      swap1\n      0x20\n      add\n      dup1\n      dup4\n      gt\n      tag_73\n      jumpi\n      dup3\n      swap1\n      sub\n      0x1f\n      and\n      dup3\n      add\n      swap2\n    tag_71:\n      pop\n      pop\n      pop\n      pop\n      pop\n        /* \"contracts/HashJingViewer.sol\":1717:1723  _subst */\n      tag_55\n        /* \"contracts/HashJingViewer.sol\":1717:1757  _subst(out, \"c_3\", PAL[(bits >> 1) & 1]) */\n      jump\t// in\n    tag_65:\n        /* \"contracts/HashJingViewer.sol\":1711:1757  out = _subst(out, \"c_3\", PAL[(bits >> 1) & 1]) */\n      swap1\n      pop\n        /* \"contracts/HashJingViewer.sol\":1773:1813  _subst(out, \"c_4\", PAL[ bits       & 1]) */\n      tag_74\n        /* \"contracts/HashJingViewer.sol\":1780:1783  out */\n      dup2\n        /* \"contracts/HashJingViewer.sol\":1773:1813  _subst(out, \"c_4\", PAL[ bits       & 1]) */\n      mload(0x40)\n      dup1\n      0x40\n      add\n      0x40\n      mstore\n      dup1\n      0x03\n      dup2\n      mstore\n      0x20\n      add\n      0x635f340000000000000000000000000000000000000000000000000000000000\n      dup2\n      mstore\n      pop\n        /* \"contracts/HashJingViewer.sol\":1792:1795  PAL */\n      0x00\n        /* \"contracts/HashJingViewer.sol\":1810:1811  1 */\n      0x01\n        /* \"contracts/HashJingViewer.sol\":1797:1801  bits */\n      dup8\n        /* \"contracts/HashJingViewer.sol\":1797:1811  bits       & 1 */\n      and\n        /* \"contracts/HashJingViewer.sol\":1792:1812  PAL[ bits       & 1] */\n      0xff\n      and\n      0x02\n      dup2\n      lt\n      tag_75\n      jumpi\n      tag_76\n      tag_21\n      jump\t// in\n    tag_76:\n    tag_75:\n      add\n        /* \"contracts/HashJingViewer.sol\":1773:1813  _subst(out, \"c_4\", PAL[ bits       & 1]) */\n      dup1\n      sload\n      tag_78\n      swap1\n      tag_24\n      jump\t// in\n    tag_78:\n      dup1\n      0x1f\n      add\n      0x20\n      dup1\n      swap2\n      div\n      mul\n      0x20\n      add\n      mload(0x40)\n      swap1\n      dup2\n      add\n      0x40\n      mstore\n      dup1\n      swap3\n      swap2\n      swap1\n      dup2\n      dup2\n      mstore\n      0x20\n      add\n      dup3\n      dup1\n      sload\n      tag_79\n      swap1\n      tag_24\n      jump\t// in\n    tag_79:\n      dup1\n      iszero\n      tag_80\n      jumpi\n      dup1\n      0x1f\n      lt\n      tag_81\n      jumpi\n      0x0100\n      dup1\n      dup4\n      sload\n      div\n      mul\n      dup4\n      mstore\n      swap2\n      0x20\n      add\n      swap2\n      jump(tag_80)\n    tag_81:\n      dup3\n      add\n      swap2\n      swap1\n      0x00\n      mstore\n      keccak256(0x00, 0x20)\n      swap1\n    tag_82:\n      dup2\n      sload\n      dup2\n      mstore\n      swap1\n      0x01\n      add\n      swap1\n      0x20\n      add\n      dup1\n      dup4\n      gt\n      tag_82\n      jumpi\n      dup3\n      swap1\n      sub\n      0x1f\n      and\n      dup3\n      add\n      swap2\n    tag_80:\n      pop\n      pop\n      pop\n      pop\n      pop\n        /* \"contracts/HashJingViewer.sol\":1773:1779  _subst */\n      tag_55\n        /* \"contracts/HashJingViewer.sol\":1773:1813  _subst(out, \"c_4\", PAL[ bits       & 1]) */\n      jump\t// in\n    tag_74:\n        /* \"contracts/HashJingViewer.sol\":1767:1813  out = _subst(out, \"c_4\", PAL[ bits       & 1]) */\n      swap1\n      pop\n        /* \"contracts/HashJingViewer.sol\":1831:1834  out */\n      dup1\n        /* \"contracts/HashJingViewer.sol\":1824:1834  return out */\n      swap2\n      pop\n      pop\n        /* \"contracts/HashJingViewer.sol\":1441:1841  function _applyColor(bytes memory src, uint8 bits)... */\n      swap3\n      swap2\n      pop\n      pop\n      jump\t// out\n        /* \"contracts/HashJingViewer.sol\":1215:1435  function _wrap(bytes memory core, string memory angle)... */\n    tag_29:\n        /* \"contracts/HashJingViewer.sol\":1316:1328  bytes memory */\n      0x60\n        /* \"contracts/HashJingViewer.sol\":1393:1398  angle */\n      dup2\n        /* \"contracts/HashJingViewer.sol\":1415:1419  core */\n      dup4\n        /* \"contracts/HashJingViewer.sol\":1351:1428  abi.encodePacked('<g transform=\"rotate(', angle, ' 512 512)\">', core, '</g>') */\n      add(0x20, mload(0x40))\n      tag_84\n      swap3\n      swap2\n      swap1\n      tag_85\n      jump\t// in\n    tag_84:\n      mload(0x40)\n      0x20\n      dup2\n      dup4\n      sub\n      sub\n      dup2\n      mstore\n      swap1\n      0x40\n      mstore\n        /* \"contracts/HashJingViewer.sol\":1344:1428  return abi.encodePacked('<g transform=\"rotate(', angle, ' 512 512)\">', core, '</g>') */\n      swap1\n      pop\n        /* \"contracts/HashJingViewer.sol\":1215:1435  function _wrap(bytes memory core, string memory angle)... */\n      swap3\n      swap2\n      pop\n      pop\n      jump\t// out\n        /* \"contracts/utils/Bytecode.sol\":1793:2739  function codeAt(address _addr, uint256 _start, uint256 _end) internal view returns (bytes memory oCode) {... */\n    tag_44:\n        /* \"contracts/utils/Bytecode.sol\":1877:1895  bytes memory oCode */\n      0x60\n        /* \"contracts/utils/Bytecode.sol\":1903:1916  uint256 csize */\n      0x00\n        /* \"contracts/utils/Bytecode.sol\":1919:1934  codeSize(_addr) */\n      tag_87\n        /* \"contracts/utils/Bytecode.sol\":1928:1933  _addr */\n      dup6\n        /* \"contracts/utils/Bytecode.sol\":1919:1927  codeSize */\n      tag_88\n        /* \"contracts/utils/Bytecode.sol\":1919:1934  codeSize(_addr) */\n      jump\t// in\n    tag_87:\n        /* \"contracts/utils/Bytecode.sol\":1903:1934  uint256 csize = codeSize(_addr) */\n      swap1\n      pop\n        /* \"contracts/utils/Bytecode.sol\":1953:1954  0 */\n      0x00\n        /* \"contracts/utils/Bytecode.sol\":1944:1949  csize */\n      dup2\n        /* \"contracts/utils/Bytecode.sol\":1944:1954  csize == 0 */\n      sub\n        /* \"contracts/utils/Bytecode.sol\":1940:1972  if (csize == 0) return bytes(\"\") */\n      tag_89\n      jumpi\n        /* \"contracts/utils/Bytecode.sol\":1963:1972  bytes(\"\") */\n      mload(0x40)\n      dup1\n      0x20\n      add\n      0x40\n      mstore\n      dup1\n      0x00\n      dup2\n      mstore\n      pop\n        /* \"contracts/utils/Bytecode.sol\":1956:1972  return bytes(\"\") */\n      swap2\n      pop\n      pop\n      jump(tag_86)\n        /* \"contracts/utils/Bytecode.sol\":1940:1972  if (csize == 0) return bytes(\"\") */\n    tag_89:\n        /* \"contracts/utils/Bytecode.sol\":1992:1997  csize */\n      dup1\n        /* \"contracts/utils/Bytecode.sol\":1983:1989  _start */\n      dup5\n        /* \"contracts/utils/Bytecode.sol\":1983:1997  _start > csize */\n      gt\n        /* \"contracts/utils/Bytecode.sol\":1979:2015  if (_start > csize) return bytes(\"\") */\n      iszero\n      tag_90\n      jumpi\n        /* \"contracts/utils/Bytecode.sol\":2006:2015  bytes(\"\") */\n      mload(0x40)\n      dup1\n      0x20\n      add\n      0x40\n      mstore\n      dup1\n      0x00\n      dup2\n      mstore\n      pop\n        /* \"contracts/utils/Bytecode.sol\":1999:2015  return bytes(\"\") */\n      swap2\n      pop\n      pop\n      jump(tag_86)\n        /* \"contracts/utils/Bytecode.sol\":1979:2015  if (_start > csize) return bytes(\"\") */\n    tag_90:\n        /* \"contracts/utils/Bytecode.sol\":2032:2038  _start */\n      dup4\n        /* \"contracts/utils/Bytecode.sol\":2025:2029  _end */\n      dup4\n        /* \"contracts/utils/Bytecode.sol\":2025:2038  _end < _start */\n      lt\n        /* \"contracts/utils/Bytecode.sol\":2021:2086  if (_end < _start) revert InvalidCodeAtRange(csize, _start, _end) */\n      iszero\n      tag_91\n      jumpi\n        /* \"contracts/utils/Bytecode.sol\":2066:2071  csize */\n      dup1\n        /* \"contracts/utils/Bytecode.sol\":2073:2079  _start */\n      dup5\n        /* \"contracts/utils/Bytecode.sol\":2081:2085  _end */\n      dup5\n        /* \"contracts/utils/Bytecode.sol\":2047:2086  InvalidCodeAtRange(csize, _start, _end) */\n      mload(0x40)\n      0x2c4a89fa00000000000000000000000000000000000000000000000000000000\n      dup2\n      mstore\n      0x04\n      add\n      tag_92\n      swap4\n      swap3\n      swap2\n      swap1\n      tag_93\n      jump\t// in\n    tag_92:\n      mload(0x40)\n      dup1\n      swap2\n      sub\n      swap1\n      revert\n        /* \"contracts/utils/Bytecode.sol\":2021:2086  if (_end < _start) revert InvalidCodeAtRange(csize, _start, _end) */\n    tag_91:\n        /* \"contracts/utils/Bytecode.sol\":2112:2127  uint256 reqSize */\n      0x00\n        /* \"contracts/utils/Bytecode.sol\":2137:2143  _start */\n      dup5\n        /* \"contracts/utils/Bytecode.sol\":2130:2134  _end */\n      dup5\n        /* \"contracts/utils/Bytecode.sol\":2130:2143  _end - _start */\n      sub\n        /* \"contracts/utils/Bytecode.sol\":2112:2143  uint256 reqSize = _end - _start */\n      swap1\n      pop\n        /* \"contracts/utils/Bytecode.sol\":2151:2166  uint256 maxSize */\n      0x00\n        /* \"contracts/utils/Bytecode.sol\":2177:2183  _start */\n      dup6\n        /* \"contracts/utils/Bytecode.sol\":2169:2174  csize */\n      dup4\n        /* \"contracts/utils/Bytecode.sol\":2169:2183  csize - _start */\n      sub\n        /* \"contracts/utils/Bytecode.sol\":2151:2183  uint256 maxSize = csize - _start */\n      swap1\n      pop\n        /* \"contracts/utils/Bytecode.sol\":2192:2204  uint256 size */\n      0x00\n        /* \"contracts/utils/Bytecode.sol\":2217:2224  reqSize */\n      dup3\n        /* \"contracts/utils/Bytecode.sol\":2207:2214  maxSize */\n      dup3\n        /* \"contracts/utils/Bytecode.sol\":2207:2224  maxSize < reqSize */\n      lt\n        /* \"contracts/utils/Bytecode.sol\":2207:2244  maxSize < reqSize ? maxSize : reqSize */\n      tag_94\n      jumpi\n        /* \"contracts/utils/Bytecode.sol\":2237:2244  reqSize */\n      dup3\n        /* \"contracts/utils/Bytecode.sol\":2207:2244  maxSize < reqSize ? maxSize : reqSize */\n      jump(tag_95)\n    tag_94:\n        /* \"contracts/utils/Bytecode.sol\":2227:2234  maxSize */\n      dup2\n        /* \"contracts/utils/Bytecode.sol\":2207:2244  maxSize < reqSize ? maxSize : reqSize */\n    tag_95:\n        /* \"contracts/utils/Bytecode.sol\":2192:2244  uint256 size = maxSize < reqSize ? maxSize : reqSize */\n      swap1\n      pop\n        /* \"contracts/utils/Bytecode.sol\":2413:2417  0x40 */\n      0x40\n        /* \"contracts/utils/Bytecode.sol\":2407:2418  mload(0x40) */\n      mload\n        /* \"contracts/utils/Bytecode.sol\":2398:2418  oCode := mload(0x40) */\n      swap5\n      pop\n        /* \"contracts/utils/Bytecode.sol\":2533:2537  0x1f */\n      0x1f\n        /* \"contracts/utils/Bytecode.sol\":2529:2538  not(0x1f) */\n      not\n        /* \"contracts/utils/Bytecode.sol\":2522:2526  0x1f */\n      0x1f\n        /* \"contracts/utils/Bytecode.sol\":2515:2519  0x20 */\n      0x20\n        /* \"contracts/utils/Bytecode.sol\":2509:2513  size */\n      dup4\n        /* \"contracts/utils/Bytecode.sol\":2505:2520  add(size, 0x20) */\n      add\n        /* \"contracts/utils/Bytecode.sol\":2501:2527  add(add(size, 0x20), 0x1f) */\n      add\n        /* \"contracts/utils/Bytecode.sol\":2497:2539  and(add(add(size, 0x20), 0x1f), not(0x1f)) */\n      and\n        /* \"contracts/utils/Bytecode.sol\":2490:2495  oCode */\n      dup6\n        /* \"contracts/utils/Bytecode.sol\":2486:2540  add(oCode, and(add(add(size, 0x20), 0x1f), not(0x1f))) */\n      add\n        /* \"contracts/utils/Bytecode.sol\":2480:2484  0x40 */\n      0x40\n        /* \"contracts/utils/Bytecode.sol\":2473:2541  mstore(0x40, add(oCode, and(add(add(size, 0x20), 0x1f), not(0x1f)))) */\n      mstore\n        /* \"contracts/utils/Bytecode.sol\":2598:2602  size */\n      dup1\n        /* \"contracts/utils/Bytecode.sol\":2591:2596  oCode */\n      dup6\n        /* \"contracts/utils/Bytecode.sol\":2584:2603  mstore(oCode, size) */\n      mstore\n        /* \"contracts/utils/Bytecode.sol\":2716:2720  size */\n      dup1\n        /* \"contracts/utils/Bytecode.sol\":2708:2714  _start */\n      dup8\n        /* \"contracts/utils/Bytecode.sol\":2701:2705  0x20 */\n      0x20\n        /* \"contracts/utils/Bytecode.sol\":2694:2699  oCode */\n      dup8\n        /* \"contracts/utils/Bytecode.sol\":2690:2706  add(oCode, 0x20) */\n      add\n        /* \"contracts/utils/Bytecode.sol\":2683:2688  _addr */\n      dup11\n        /* \"contracts/utils/Bytecode.sol\":2671:2721  extcodecopy(_addr, add(oCode, 0x20), _start, size) */\n      extcodecopy\n        /* \"contracts/utils/Bytecode.sol\":2262:2729  {... */\n      pop\n      pop\n      pop\n        /* \"contracts/utils/Bytecode.sol\":1897:2739  {... */\n      pop\n        /* \"contracts/utils/Bytecode.sol\":1793:2739  function codeAt(address _addr, uint256 _start, uint256 _end) internal view returns (bytes memory oCode) {... */\n    tag_86:\n      swap4\n      swap3\n      pop\n      pop\n      pop\n      jump\t// out\n        /* \"contracts/HashJingViewer.sol\":1926:3040  function _subst(... */\n    tag_55:\n        /* \"contracts/HashJingViewer.sol\":2042:2054  bytes memory */\n      0x60\n        /* \"contracts/HashJingViewer.sol\":2066:2080  bytes memory k */\n      0x00\n        /* \"contracts/HashJingViewer.sol\":2089:2092  key */\n      dup4\n        /* \"contracts/HashJingViewer.sol\":2066:2093  bytes memory k = bytes(key) */\n      swap1\n      pop\n        /* \"contracts/HashJingViewer.sol\":2103:2117  bytes memory v */\n      0x00\n        /* \"contracts/HashJingViewer.sol\":2126:2131  value */\n      dup4\n        /* \"contracts/HashJingViewer.sol\":2103:2132  bytes memory v = bytes(value) */\n      swap1\n      pop\n        /* \"contracts/HashJingViewer.sol\":2142:2155  uint256 extra */\n      0x00\n        /* \"contracts/HashJingViewer.sol\":2171:2172  k */\n      dup3\n        /* \"contracts/HashJingViewer.sol\":2171:2179  k.length */\n      mload\n        /* \"contracts/HashJingViewer.sol\":2160:2161  v */\n      dup3\n        /* \"contracts/HashJingViewer.sol\":2160:2168  v.length */\n      mload\n        /* \"contracts/HashJingViewer.sol\":2160:2179  v.length > k.length */\n      gt\n        /* \"contracts/HashJingViewer.sol\":2159:2208  (v.length > k.length) ? (v.length - k.length) : 0 */\n      tag_97\n      jumpi\n        /* \"contracts/HashJingViewer.sol\":2207:2208  0 */\n      0x00\n        /* \"contracts/HashJingViewer.sol\":2159:2208  (v.length > k.length) ? (v.length - k.length) : 0 */\n      jump(tag_98)\n    tag_97:\n        /* \"contracts/HashJingViewer.sol\":2195:2196  k */\n      dup3\n        /* \"contracts/HashJingViewer.sol\":2195:2203  k.length */\n      mload\n        /* \"contracts/HashJingViewer.sol\":2184:2185  v */\n      dup3\n        /* \"contracts/HashJingViewer.sol\":2184:2192  v.length */\n      mload\n        /* \"contracts/HashJingViewer.sol\":2184:2203  v.length - k.length */\n      tag_99\n      swap2\n      swap1\n      tag_100\n      jump\t// in\n    tag_99:\n        /* \"contracts/HashJingViewer.sol\":2159:2208  (v.length > k.length) ? (v.length - k.length) : 0 */\n    tag_98:\n        /* \"contracts/HashJingViewer.sol\":2142:2208  uint256 extra  = (v.length > k.length) ? (v.length - k.length) : 0 */\n      swap1\n      pop\n        /* \"contracts/HashJingViewer.sol\":2218:2234  bytes memory tmp */\n      0x00\n        /* \"contracts/HashJingViewer.sol\":2270:2271  4 */\n      0x04\n        /* \"contracts/HashJingViewer.sol\":2262:2267  extra */\n      dup3\n        /* \"contracts/HashJingViewer.sol\":2262:2271  extra * 4 */\n      tag_101\n      swap2\n      swap1\n      tag_102\n      jump\t// in\n    tag_101:\n        /* \"contracts/HashJingViewer.sol\":2247:2252  input */\n      dup9\n        /* \"contracts/HashJingViewer.sol\":2247:2259  input.length */\n      mload\n        /* \"contracts/HashJingViewer.sol\":2247:2271  input.length + extra * 4 */\n      tag_103\n      swap2\n      swap1\n      tag_104\n      jump\t// in\n    tag_103:\n        /* \"contracts/HashJingViewer.sol\":2237:2272  new bytes(input.length + extra * 4) */\n      0xffffffffffffffff\n      dup2\n      gt\n      iszero\n      tag_105\n      jumpi\n      tag_106\n      tag_107\n      jump\t// in\n    tag_106:\n    tag_105:\n      mload(0x40)\n      swap1\n      dup1\n      dup3\n      mstore\n      dup1\n      0x1f\n      add\n      not(0x1f)\n      and\n      0x20\n      add\n      dup3\n      add\n      0x40\n      mstore\n      dup1\n      iszero\n      tag_108\n      jumpi\n      dup2\n      0x20\n      add\n      0x01\n      dup3\n      mul\n      dup1\n      calldatasize\n      dup4\n      calldatacopy\n      dup1\n      dup3\n      add\n      swap2\n      pop\n      pop\n      swap1\n      pop\n    tag_108:\n      pop\n        /* \"contracts/HashJingViewer.sol\":2218:2272  bytes memory tmp = new bytes(input.length + extra * 4) */\n      swap1\n      pop\n        /* \"contracts/HashJingViewer.sol\":2316:2327  uint256 idx */\n      0x00\n        /* \"contracts/HashJingViewer.sol\":2342:2351  uint256 i */\n      dup1\n        /* \"contracts/HashJingViewer.sol\":2337:2915  for (uint256 i; i < input.length; ) {... */\n    tag_109:\n        /* \"contracts/HashJingViewer.sol\":2357:2362  input */\n      dup10\n        /* \"contracts/HashJingViewer.sol\":2357:2369  input.length */\n      mload\n        /* \"contracts/HashJingViewer.sol\":2353:2354  i */\n      dup2\n        /* \"contracts/HashJingViewer.sol\":2353:2369  i < input.length */\n      lt\n        /* \"contracts/HashJingViewer.sol\":2337:2915  for (uint256 i; i < input.length; ) {... */\n      iszero\n      tag_110\n      jumpi\n        /* \"contracts/HashJingViewer.sol\":2387:2399  bool isMatch */\n      0x00\n        /* \"contracts/HashJingViewer.sol\":2402:2406  true */\n      0x01\n        /* \"contracts/HashJingViewer.sol\":2387:2406  bool isMatch = true */\n      swap1\n      pop\n        /* \"contracts/HashJingViewer.sol\":2492:2497  input */\n      dup11\n        /* \"contracts/HashJingViewer.sol\":2492:2504  input.length */\n      mload\n        /* \"contracts/HashJingViewer.sol\":2481:2482  k */\n      dup8\n        /* \"contracts/HashJingViewer.sol\":2481:2489  k.length */\n      mload\n        /* \"contracts/HashJingViewer.sol\":2477:2478  i */\n      dup4\n        /* \"contracts/HashJingViewer.sol\":2477:2489  i + k.length */\n      tag_112\n      swap2\n      swap1\n      tag_104\n      jump\t// in\n    tag_112:\n        /* \"contracts/HashJingViewer.sol\":2477:2504  i + k.length > input.length */\n      gt\n        /* \"contracts/HashJingViewer.sol\":2473:2700  if (i + k.length > input.length) isMatch = false;... */\n      iszero\n      tag_113\n      jumpi\n        /* \"contracts/HashJingViewer.sol\":2516:2521  false */\n      0x00\n        /* \"contracts/HashJingViewer.sol\":2506:2521  isMatch = false */\n      swap1\n      pop\n        /* \"contracts/HashJingViewer.sol\":2473:2700  if (i + k.length > input.length) isMatch = false;... */\n      jump(tag_114)\n    tag_113:\n        /* \"contracts/HashJingViewer.sol\":2563:2572  uint256 j */\n      0x00\n        /* \"contracts/HashJingViewer.sol\":2558:2686  for (uint256 j; j < k.length && isMatch; ++j) {... */\n    tag_115:\n        /* \"contracts/HashJingViewer.sol\":2578:2579  k */\n      dup8\n        /* \"contracts/HashJingViewer.sol\":2578:2586  k.length */\n      mload\n        /* \"contracts/HashJingViewer.sol\":2574:2575  j */\n      dup2\n        /* \"contracts/HashJingViewer.sol\":2574:2586  j < k.length */\n      lt\n        /* \"contracts/HashJingViewer.sol\":2574:2597  j < k.length && isMatch */\n      dup1\n      iszero\n      tag_118\n      jumpi\n      pop\n        /* \"contracts/HashJingViewer.sol\":2590:2597  isMatch */\n      dup2\n        /* \"contracts/HashJingViewer.sol\":2574:2597  j < k.length && isMatch */\n    tag_118:\n        /* \"contracts/HashJingViewer.sol\":2558:2686  for (uint256 j; j < k.length && isMatch; ++j) {... */\n      iszero\n      tag_116\n      jumpi\n        /* \"contracts/HashJingViewer.sol\":2646:2647  k */\n      dup8\n        /* \"contracts/HashJingViewer.sol\":2648:2649  j */\n      dup2\n        /* \"contracts/HashJingViewer.sol\":2646:2650  k[j] */\n      dup2\n      mload\n      dup2\n      lt\n      tag_119\n      jumpi\n      tag_120\n      tag_21\n      jump\t// in\n    tag_120:\n    tag_119:\n      0x20\n      add\n      add\n      mload\n      0xf8\n      shr\n      0xf8\n      shl\n        /* \"contracts/HashJingViewer.sol\":2630:2650  input[i + j] != k[j] */\n      not(0xffffffffffffffffffffffffffffffffffffffffffffffffffffffffffffff)\n      and\n        /* \"contracts/HashJingViewer.sol\":2630:2635  input */\n      dup13\n        /* \"contracts/HashJingViewer.sol\":2640:2641  j */\n      dup3\n        /* \"contracts/HashJingViewer.sol\":2636:2637  i */\n      dup6\n        /* \"contracts/HashJingViewer.sol\":2636:2641  i + j */\n      tag_121\n      swap2\n      swap1\n      tag_104\n      jump\t// in\n    tag_121:\n        /* \"contracts/HashJingViewer.sol\":2630:2642  input[i + j] */\n      dup2\n      mload\n      dup2\n      lt\n      tag_122\n      jumpi\n      tag_123\n      tag_21\n      jump\t// in\n    tag_123:\n    tag_122:\n      0x20\n      add\n      add\n      mload\n      0xf8\n      shr\n      0xf8\n      shl\n        /* \"contracts/HashJingViewer.sol\":2630:2650  input[i + j] != k[j] */\n      not(0xffffffffffffffffffffffffffffffffffffffffffffffffffffffffffffff)\n      and\n      eq\n        /* \"contracts/HashJingViewer.sol\":2626:2667  if (input[i + j] != k[j]) isMatch = false */\n      tag_124\n      jumpi\n        /* \"contracts/HashJingViewer.sol\":2662:2667  false */\n      0x00\n        /* \"contracts/HashJingViewer.sol\":2652:2667  isMatch = false */\n      swap2\n      pop\n        /* \"contracts/HashJingViewer.sol\":2626:2667  if (input[i + j] != k[j]) isMatch = false */\n    tag_124:\n        /* \"contracts/HashJingViewer.sol\":2599:2602  ++j */\n      dup1\n      tag_125\n      swap1\n      tag_126\n      jump\t// in\n    tag_125:\n      swap1\n      pop\n        /* \"contracts/HashJingViewer.sol\":2558:2686  for (uint256 j; j < k.length && isMatch; ++j) {... */\n      jump(tag_115)\n    tag_116:\n      pop\n        /* \"contracts/HashJingViewer.sol\":2473:2700  if (i + k.length > input.length) isMatch = false;... */\n    tag_114:\n        /* \"contracts/HashJingViewer.sol\":2718:2725  isMatch */\n      dup1\n        /* \"contracts/HashJingViewer.sol\":2714:2905  if (isMatch) {... */\n      iszero\n      tag_127\n      jumpi\n        /* \"contracts/HashJingViewer.sol\":2750:2759  uint256 j */\n      0x00\n        /* \"contracts/HashJingViewer.sol\":2745:2797  for (uint256 j; j < v.length; ++j) tmp[idx++] = v[j] */\n    tag_128:\n        /* \"contracts/HashJingViewer.sol\":2765:2766  v */\n      dup7\n        /* \"contracts/HashJingViewer.sol\":2765:2773  v.length */\n      mload\n        /* \"contracts/HashJingViewer.sol\":2761:2762  j */\n      dup2\n        /* \"contracts/HashJingViewer.sol\":2761:2773  j < v.length */\n      lt\n        /* \"contracts/HashJingViewer.sol\":2745:2797  for (uint256 j; j < v.length; ++j) tmp[idx++] = v[j] */\n      iszero\n      tag_129\n      jumpi\n        /* \"contracts/HashJingViewer.sol\":2793:2794  v */\n      dup7\n        /* \"contracts/HashJingViewer.sol\":2795:2796  j */\n      dup2\n        /* \"contracts/HashJingViewer.sol\":2793:2797  v[j] */\n      dup2\n      mload\n      dup2\n      lt\n      tag_131\n      jumpi\n      tag_132\n      tag_21\n      jump\t// in\n    tag_132:\n    tag_131:\n      0x20\n      add\n      add\n      mload\n      0xf8\n      shr\n      0xf8\n      shl\n        /* \"contracts/HashJingViewer.sol\":2780:2783  tmp */\n      dup6\n        /* \"contracts/HashJingViewer.sol\":2784:2789  idx++ */\n      dup6\n      dup1\n      tag_133\n      swap1\n      tag_126\n      jump\t// in\n    tag_133:\n      swap7\n      pop\n        /* \"contracts/HashJingViewer.sol\":2780:2790  tmp[idx++] */\n      dup2\n      mload\n      dup2\n      lt\n      tag_134\n      jumpi\n      tag_135\n      tag_21\n      jump\t// in\n    tag_135:\n    tag_134:\n      0x20\n      add\n      add\n        /* \"contracts/HashJingViewer.sol\":2780:2797  tmp[idx++] = v[j] */\n      swap1\n      not(0xffffffffffffffffffffffffffffffffffffffffffffffffffffffffffffff)\n      and\n      swap1\n      dup2\n      0x00\n      byte\n      swap1\n      mstore8\n      pop\n        /* \"contracts/HashJingViewer.sol\":2775:2778  ++j */\n      dup1\n      0x01\n      add\n      swap1\n      pop\n        /* \"contracts/HashJingViewer.sol\":2745:2797  for (uint256 j; j < v.length; ++j) tmp[idx++] = v[j] */\n      jump(tag_128)\n    tag_129:\n      pop\n        /* \"contracts/HashJingViewer.sol\":2820:2821  k */\n      dup7\n        /* \"contracts/HashJingViewer.sol\":2820:2828  k.length */\n      mload\n        /* \"contracts/HashJingViewer.sol\":2815:2828  i += k.length */\n      dup3\n      tag_136\n      swap2\n      swap1\n      tag_104\n      jump\t// in\n    tag_136:\n      swap2\n      pop\n        /* \"contracts/HashJingViewer.sol\":2714:2905  if (isMatch) {... */\n      jump(tag_137)\n    tag_127:\n        /* \"contracts/HashJingViewer.sol\":2880:2885  input */\n      dup11\n        /* \"contracts/HashJingViewer.sol\":2886:2889  i++ */\n      dup3\n      dup1\n      tag_138\n      swap1\n      tag_126\n      jump\t// in\n    tag_138:\n      swap4\n      pop\n        /* \"contracts/HashJingViewer.sol\":2880:2890  input[i++] */\n      dup2\n      mload\n      dup2\n      lt\n      tag_139\n      jumpi\n      tag_140\n      tag_21\n      jump\t// in\n    tag_140:\n    tag_139:\n      0x20\n      add\n      add\n      mload\n      0xf8\n      shr\n      0xf8\n      shl\n        /* \"contracts/HashJingViewer.sol\":2867:2870  tmp */\n      dup5\n        /* \"contracts/HashJingViewer.sol\":2871:2876  idx++ */\n      dup5\n      dup1\n      tag_141\n      swap1\n      tag_126\n      jump\t// in\n    tag_141:\n      swap6\n      pop\n        /* \"contracts/HashJingViewer.sol\":2867:2877  tmp[idx++] */\n      dup2\n      mload\n      dup2\n      lt\n      tag_142\n      jumpi\n      tag_143\n      tag_21\n      jump\t// in\n    tag_143:\n    tag_142:\n      0x20\n      add\n      add\n        /* \"contracts/HashJingViewer.sol\":2867:2890  tmp[idx++] = input[i++] */\n      swap1\n      not(0xffffffffffffffffffffffffffffffffffffffffffffffffffffffffffffff)\n      and\n      swap1\n      dup2\n      0x00\n      byte\n      swap1\n      mstore8\n      pop\n        /* \"contracts/HashJingViewer.sol\":2714:2905  if (isMatch) {... */\n    tag_137:\n        /* \"contracts/HashJingViewer.sol\":2373:2915  {... */\n      pop\n        /* \"contracts/HashJingViewer.sol\":2337:2915  for (uint256 i; i < input.length; ) {... */\n      jump(tag_109)\n    tag_110:\n      pop\n        /* \"contracts/HashJingViewer.sol\":2925:2941  bytes memory fin */\n      0x00\n        /* \"contracts/HashJingViewer.sol\":2954:2957  idx */\n      dup2\n        /* \"contracts/HashJingViewer.sol\":2944:2958  new bytes(idx) */\n      0xffffffffffffffff\n      dup2\n      gt\n      iszero\n      tag_144\n      jumpi\n      tag_145\n      tag_107\n      jump\t// in\n    tag_145:\n    tag_144:\n      mload(0x40)\n      swap1\n      dup1\n      dup3\n      mstore\n      dup1\n      0x1f\n      add\n      not(0x1f)\n      and\n      0x20\n      add\n      dup3\n      add\n      0x40\n      mstore\n      dup1\n      iszero\n      tag_146\n      jumpi\n      dup2\n      0x20\n      add\n      0x01\n      dup3\n      mul\n      dup1\n      calldatasize\n      dup4\n      calldatacopy\n      dup1\n      dup3\n      add\n      swap2\n      pop\n      pop\n      swap1\n      pop\n    tag_146:\n      pop\n        /* \"contracts/HashJingViewer.sol\":2925:2958  bytes memory fin = new bytes(idx) */\n      swap1\n      pop\n        /* \"contracts/HashJingViewer.sol\":2973:2982  uint256 j */\n      0x00\n        /* \"contracts/HashJingViewer.sol\":2968:3013  for (uint256 j; j < idx; ++j) fin[j] = tmp[j] */\n    tag_147:\n        /* \"contracts/HashJingViewer.sol\":2988:2991  idx */\n      dup3\n        /* \"contracts/HashJingViewer.sol\":2984:2985  j */\n      dup2\n        /* \"contracts/HashJingViewer.sol\":2984:2991  j < idx */\n      lt\n        /* \"contracts/HashJingViewer.sol\":2968:3013  for (uint256 j; j < idx; ++j) fin[j] = tmp[j] */\n      iszero\n      tag_148\n      jumpi\n        /* \"contracts/HashJingViewer.sol\":3007:3010  tmp */\n      dup4\n        /* \"contracts/HashJingViewer.sol\":3011:3012  j */\n      dup2\n        /* \"contracts/HashJingViewer.sol\":3007:3013  tmp[j] */\n      dup2\n      mload\n      dup2\n      lt\n      tag_150\n      jumpi\n      tag_151\n      tag_21\n      jump\t// in\n    tag_151:\n    tag_150:\n      0x20\n      add\n      add\n      mload\n      0xf8\n      shr\n      0xf8\n      shl\n        /* \"contracts/HashJingViewer.sol\":2998:3001  fin */\n      dup3\n        /* \"contracts/HashJingViewer.sol\":3002:3003  j */\n      dup3\n        /* \"contracts/HashJingViewer.sol\":2998:3004  fin[j] */\n      dup2\n      mload\n      dup2\n      lt\n      tag_152\n      jumpi\n      tag_153\n      tag_21\n      jump\t// in\n    tag_153:\n    tag_152:\n      0x20\n      add\n      add\n        /* \"contracts/HashJingViewer.sol\":2998:3013  fin[j] = tmp[j] */\n      swap1\n      not(0xffffffffffffffffffffffffffffffffffffffffffffffffffffffffffffff)\n      and\n      swap1\n      dup2\n      0x00\n      byte\n      swap1\n      mstore8\n      pop\n        /* \"contracts/HashJingViewer.sol\":2993:2996  ++j */\n      dup1\n      0x01\n      add\n      swap1\n      pop\n        /* \"contracts/HashJingViewer.sol\":2968:3013  for (uint256 j; j < idx; ++j) fin[j] = tmp[j] */\n      jump(tag_147)\n    tag_148:\n      pop\n        /* \"contracts/HashJingViewer.sol\":3030:3033  fin */\n      dup1\n        /* \"contracts/HashJingViewer.sol\":3023:3033  return fin */\n      swap7\n      pop\n      pop\n      pop\n      pop\n      pop\n      pop\n      pop\n        /* \"contracts/HashJingViewer.sol\":1926:3040  function _subst(... */\n      swap4\n      swap3\n      pop\n      pop\n      pop\n      jump\t// out\n        /* \"contracts/utils/Bytecode.sol\":1261:1380  function codeSize(address _addr) internal view returns (uint256 size) {... */\n    tag_88:\n        /* \"contracts/utils/Bytecode.sol\":1317:1329  uint256 size */\n      0x00\n        /* \"contracts/utils/Bytecode.sol\":1368:1373  _addr */\n      dup2\n        /* \"contracts/utils/Bytecode.sol\":1356:1374  extcodesize(_addr) */\n      extcodesize\n        /* \"contracts/utils/Bytecode.sol\":1348:1374  size := extcodesize(_addr) */\n      swap1\n      pop\n        /* \"contracts/utils/Bytecode.sol\":1261:1380  function codeSize(address _addr) internal view returns (uint256 size) {... */\n      swap2\n      swap1\n      pop\n      jump\t// out\n        /* \"#utility.yul\":7:106   */\n    tag_155:\n        /* \"#utility.yul\":59:65   */\n      0x00\n        /* \"#utility.yul\":93:98   */\n      dup2\n        /* \"#utility.yul\":87:99   */\n      mload\n        /* \"#utility.yul\":77:99   */\n      swap1\n      pop\n        /* \"#utility.yul\":7:106   */\n      swap2\n      swap1\n      pop\n      jump\t// out\n        /* \"#utility.yul\":112:281   */\n    tag_156:\n        /* \"#utility.yul\":196:207   */\n      0x00\n        /* \"#utility.yul\":230:236   */\n      dup3\n        /* \"#utility.yul\":225:228   */\n      dup3\n        /* \"#utility.yul\":218:237   */\n      mstore\n        /* \"#utility.yul\":270:274   */\n      0x20\n        /* \"#utility.yul\":265:268   */\n      dup3\n        /* \"#utility.yul\":261:275   */\n      add\n        /* \"#utility.yul\":246:275   */\n      swap1\n      pop\n        /* \"#utility.yul\":112:281   */\n      swap3\n      swap2\n      pop\n      pop\n      jump\t// out\n        /* \"#utility.yul\":287:426   */\n    tag_157:\n        /* \"#utility.yul\":376:382   */\n      dup3\n        /* \"#utility.yul\":371:374   */\n      dup2\n        /* \"#utility.yul\":366:369   */\n      dup4\n        /* \"#utility.yul\":360:383   */\n      mcopy\n        /* \"#utility.yul\":417:418   */\n      0x00\n        /* \"#utility.yul\":408:414   */\n      dup4\n        /* \"#utility.yul\":403:406   */\n      dup4\n        /* \"#utility.yul\":399:415   */\n      add\n        /* \"#utility.yul\":392:419   */\n      mstore\n        /* \"#utility.yul\":287:426   */\n      pop\n      pop\n      pop\n      jump\t// out\n        /* \"#utility.yul\":432:534   */\n    tag_158:\n        /* \"#utility.yul\":473:479   */\n      0x00\n        /* \"#utility.yul\":524:526   */\n      0x1f\n        /* \"#utility.yul\":520:527   */\n      not\n        /* \"#utility.yul\":515:517   */\n      0x1f\n        /* \"#utility.yul\":508:513   */\n      dup4\n        /* \"#utility.yul\":504:518   */\n      add\n        /* \"#utility.yul\":500:528   */\n      and\n        /* \"#utility.yul\":490:528   */\n      swap1\n      pop\n        /* \"#utility.yul\":432:534   */\n      swap2\n      swap1\n      pop\n      jump\t// out\n        /* \"#utility.yul\":540:917   */\n    tag_159:\n        /* \"#utility.yul\":628:631   */\n      0x00\n        /* \"#utility.yul\":656:695   */\n      tag_184\n        /* \"#utility.yul\":689:694   */\n      dup3\n        /* \"#utility.yul\":656:695   */\n      tag_155\n      jump\t// in\n    tag_184:\n        /* \"#utility.yul\":711:782   */\n      tag_185\n        /* \"#utility.yul\":775:781   */\n      dup2\n        /* \"#utility.yul\":770:773   */\n      dup6\n        /* \"#utility.yul\":711:782   */\n      tag_156\n      jump\t// in\n    tag_185:\n        /* \"#utility.yul\":704:782   */\n      swap4\n      pop\n        /* \"#utility.yul\":791:856   */\n      tag_186\n        /* \"#utility.yul\":849:855   */\n      dup2\n        /* \"#utility.yul\":844:847   */\n      dup6\n        /* \"#utility.yul\":837:841   */\n      0x20\n        /* \"#utility.yul\":830:835   */\n      dup7\n        /* \"#utility.yul\":826:842   */\n      add\n        /* \"#utility.yul\":791:856   */\n      tag_157\n      jump\t// in\n    tag_186:\n        /* \"#utility.yul\":881:910   */\n      tag_187\n        /* \"#utility.yul\":903:909   */\n      dup2\n        /* \"#utility.yul\":881:910   */\n      tag_158\n      jump\t// in\n    tag_187:\n        /* \"#utility.yul\":876:879   */\n      dup5\n        /* \"#utility.yul\":872:911   */\n      add\n        /* \"#utility.yul\":865:911   */\n      swap2\n      pop\n        /* \"#utility.yul\":632:917   */\n      pop\n        /* \"#utility.yul\":540:917   */\n      swap3\n      swap2\n      pop\n      pop\n      jump\t// out\n        /* \"#utility.yul\":923:1236   */\n    tag_8:\n        /* \"#utility.yul\":1036:1040   */\n      0x00\n        /* \"#utility.yul\":1074:1076   */\n      0x20\n        /* \"#utility.yul\":1063:1072   */\n      dup3\n        /* \"#utility.yul\":1059:1077   */\n      add\n        /* \"#utility.yul\":1051:1077   */\n      swap1\n      pop\n        /* \"#utility.yul\":1123:1132   */\n      dup2\n        /* \"#utility.yul\":1117:1121   */\n      dup2\n        /* \"#utility.yul\":1113:1133   */\n      sub\n        /* \"#utility.yul\":1109:1110   */\n      0x00\n        /* \"#utility.yul\":1098:1107   */\n      dup4\n        /* \"#utility.yul\":1094:1111   */\n      add\n        /* \"#utility.yul\":1087:1134   */\n      mstore\n        /* \"#utility.yul\":1151:1229   */\n      tag_189\n        /* \"#utility.yul\":1224:1228   */\n      dup2\n        /* \"#utility.yul\":1215:1221   */\n      dup5\n        /* \"#utility.yul\":1151:1229   */\n      tag_159\n      jump\t// in\n    tag_189:\n        /* \"#utility.yul\":1143:1229   */\n      swap1\n      pop\n        /* \"#utility.yul\":923:1236   */\n      swap3\n      swap2\n      pop\n      pop\n      jump\t// out\n        /* \"#utility.yul\":1242:1368   */\n    tag_160:\n        /* \"#utility.yul\":1279:1286   */\n      0x00\n        /* \"#utility.yul\":1319:1361   */\n      0xffffffffffffffffffffffffffffffffffffffff\n        /* \"#utility.yul\":1312:1317   */\n      dup3\n        /* \"#utility.yul\":1308:1362   */\n      and\n        /* \"#utility.yul\":1297:1362   */\n      swap1\n      pop\n        /* \"#utility.yul\":1242:1368   */\n      swap2\n      swap1\n      pop\n      jump\t// out\n        /* \"#utility.yul\":1374:1470   */\n    tag_161:\n        /* \"#utility.yul\":1411:1418   */\n      0x00\n        /* \"#utility.yul\":1440:1464   */\n      tag_192\n        /* \"#utility.yul\":1458:1463   */\n      dup3\n        /* \"#utility.yul\":1440:1464   */\n      tag_160\n      jump\t// in\n    tag_192:\n        /* \"#utility.yul\":1429:1464   */\n      swap1\n      pop\n        /* \"#utility.yul\":1374:1470   */\n      swap2\n      swap1\n      pop\n      jump\t// out\n        /* \"#utility.yul\":1476:1594   */\n    tag_162:\n        /* \"#utility.yul\":1563:1587   */\n      tag_194\n        /* \"#utility.yul\":1581:1586   */\n      dup2\n        /* \"#utility.yul\":1563:1587   */\n      tag_161\n      jump\t// in\n    tag_194:\n        /* \"#utility.yul\":1558:1561   */\n      dup3\n        /* \"#utility.yul\":1551:1588   */\n      mstore\n        /* \"#utility.yul\":1476:1594   */\n      pop\n      pop\n      jump\t// out\n        /* \"#utility.yul\":1600:1822   */\n    tag_12:\n        /* \"#utility.yul\":1693:1697   */\n      0x00\n        /* \"#utility.yul\":1731:1733   */\n      0x20\n        /* \"#utility.yul\":1720:1729   */\n      dup3\n        /* \"#utility.yul\":1716:1734   */\n      add\n        /* \"#utility.yul\":1708:1734   */\n      swap1\n      pop\n        /* \"#utility.yul\":1744:1815   */\n      tag_196\n        /* \"#utility.yul\":1812:1813   */\n      0x00\n        /* \"#utility.yul\":1801:1810   */\n      dup4\n        /* \"#utility.yul\":1797:1814   */\n      add\n        /* \"#utility.yul\":1788:1794   */\n      dup5\n        /* \"#utility.yul\":1744:1815   */\n      tag_162\n      jump\t// in\n    tag_196:\n        /* \"#utility.yul\":1600:1822   */\n      swap3\n      swap2\n      pop\n      pop\n      jump\t// out\n        /* \"#utility.yul\":1828:2008   */\n    tag_21:\n        /* \"#utility.yul\":1876:1953   */\n      0x4e487b7100000000000000000000000000000000000000000000000000000000\n        /* \"#utility.yul\":1873:1874   */\n      0x00\n        /* \"#utility.yul\":1866:1954   */\n      mstore\n        /* \"#utility.yul\":1973:1977   */\n      0x32\n        /* \"#utility.yul\":1970:1971   */\n      0x04\n        /* \"#utility.yul\":1963:1978   */\n      mstore\n        /* \"#utility.yul\":1997:2001   */\n      0x24\n        /* \"#utility.yul\":1994:1995   */\n      0x00\n        /* \"#utility.yul\":1987:2002   */\n      revert\n        /* \"#utility.yul\":2014:2194   */\n    tag_163:\n        /* \"#utility.yul\":2062:2139   */\n      0x4e487b7100000000000000000000000000000000000000000000000000000000\n        /* \"#utility.yul\":2059:2060   */\n      0x00\n        /* \"#utility.yul\":2052:2140   */\n      mstore\n        /* \"#utility.yul\":2159:2163   */\n      0x22\n        /* \"#utility.yul\":2156:2157   */\n      0x04\n        /* \"#utility.yul\":2149:2164   */\n      mstore\n        /* \"#utility.yul\":2183:2187   */\n      0x24\n        /* \"#utility.yul\":2180:2181   */\n      0x00\n        /* \"#utility.yul\":2173:2188   */\n      revert\n        /* \"#utility.yul\":2200:2520   */\n    tag_24:\n        /* \"#utility.yul\":2244:2250   */\n      0x00\n        /* \"#utility.yul\":2281:2282   */\n      0x02\n        /* \"#utility.yul\":2275:2279   */\n      dup3\n        /* \"#utility.yul\":2271:2283   */\n      div\n        /* \"#utility.yul\":2261:2283   */\n      swap1\n      pop\n        /* \"#utility.yul\":2328:2329   */\n      0x01\n        /* \"#utility.yul\":2322:2326   */\n      dup3\n        /* \"#utility.yul\":2318:2330   */\n      and\n        /* \"#utility.yul\":2349:2367   */\n      dup1\n        /* \"#utility.yul\":2339:2420   */\n      tag_200\n      jumpi\n        /* \"#utility.yul\":2405:2409   */\n      0x7f\n        /* \"#utility.yul\":2397:2403   */\n      dup3\n        /* \"#utility.yul\":2393:2410   */\n      and\n        /* \"#utility.yul\":2383:2410   */\n      swap2\n      pop\n        /* \"#utility.yul\":2339:2420   */\n    tag_200:\n        /* \"#utility.yul\":2467:2469   */\n      0x20\n        /* \"#utility.yul\":2459:2465   */\n      dup3\n        /* \"#utility.yul\":2456:2470   */\n      lt\n        /* \"#utility.yul\":2436:2454   */\n      dup2\n        /* \"#utility.yul\":2433:2471   */\n      sub\n        /* \"#utility.yul\":2430:2514   */\n      tag_201\n      jumpi\n        /* \"#utility.yul\":2486:2504   */\n      tag_202\n      tag_163\n      jump\t// in\n    tag_202:\n        /* \"#utility.yul\":2430:2514   */\n    tag_201:\n        /* \"#utility.yul\":2251:2520   */\n      pop\n        /* \"#utility.yul\":2200:2520   */\n      swap2\n      swap1\n      pop\n      jump\t// out\n        /* \"#utility.yul\":2526:2624   */\n    tag_164:\n        /* \"#utility.yul\":2577:2583   */\n      0x00\n        /* \"#utility.yul\":2611:2616   */\n      dup2\n        /* \"#utility.yul\":2605:2617   */\n      mload\n        /* \"#utility.yul\":2595:2617   */\n      swap1\n      pop\n        /* \"#utility.yul\":2526:2624   */\n      swap2\n      swap1\n      pop\n      jump\t// out\n        /* \"#utility.yul\":2630:2777   */\n    tag_165:\n        /* \"#utility.yul\":2731:2742   */\n      0x00\n        /* \"#utility.yul\":2768:2771   */\n      dup2\n        /* \"#utility.yul\":2753:2771   */\n      swap1\n      pop\n        /* \"#utility.yul\":2630:2777   */\n      swap3\n      swap2\n      pop\n      pop\n      jump\t// out\n        /* \"#utility.yul\":2783:3169   */\n    tag_166:\n        /* \"#utility.yul\":2887:2890   */\n      0x00\n        /* \"#utility.yul\":2915:2953   */\n      tag_206\n        /* \"#utility.yul\":2947:2952   */\n      dup3\n        /* \"#utility.yul\":2915:2953   */\n      tag_164\n      jump\t// in\n    tag_206:\n        /* \"#utility.yul\":2969:3057   */\n      tag_207\n        /* \"#utility.yul\":3050:3056   */\n      dup2\n        /* \"#utility.yul\":3045:3048   */\n      dup6\n        /* \"#utility.yul\":2969:3057   */\n      tag_165\n      jump\t// in\n    tag_207:\n        /* \"#utility.yul\":2962:3057   */\n      swap4\n      pop\n        /* \"#utility.yul\":3066:3131   */\n      tag_208\n        /* \"#utility.yul\":3124:3130   */\n      dup2\n        /* \"#utility.yul\":3119:3122   */\n      dup6\n        /* \"#utility.yul\":3112:3116   */\n      0x20\n        /* \"#utility.yul\":3105:3110   */\n      dup7\n        /* \"#utility.yul\":3101:3117   */\n      add\n        /* \"#utility.yul\":3066:3131   */\n      tag_157\n      jump\t// in\n    tag_208:\n        /* \"#utility.yul\":3156:3162   */\n      dup1\n        /* \"#utility.yul\":3151:3154   */\n      dup5\n        /* \"#utility.yul\":3147:3163   */\n      add\n        /* \"#utility.yul\":3140:3163   */\n      swap2\n      pop\n        /* \"#utility.yul\":2891:3169   */\n      pop\n        /* \"#utility.yul\":2783:3169   */\n      swap3\n      swap2\n      pop\n      pop\n      jump\t// out\n        /* \"#utility.yul\":3175:3602   */\n    tag_41:\n        /* \"#utility.yul\":3351:3354   */\n      0x00\n        /* \"#utility.yul\":3373:3466   */\n      tag_210\n        /* \"#utility.yul\":3462:3465   */\n      dup3\n        /* \"#utility.yul\":3453:3459   */\n      dup6\n        /* \"#utility.yul\":3373:3466   */\n      tag_166\n      jump\t// in\n    tag_210:\n        /* \"#utility.yul\":3366:3466   */\n      swap2\n      pop\n        /* \"#utility.yul\":3483:3576   */\n      tag_211\n        /* \"#utility.yul\":3572:3575   */\n      dup3\n        /* \"#utility.yul\":3563:3569   */\n      dup5\n        /* \"#utility.yul\":3483:3576   */\n      tag_166\n      jump\t// in\n    tag_211:\n        /* \"#utility.yul\":3476:3576   */\n      swap2\n      pop\n        /* \"#utility.yul\":3593:3596   */\n      dup2\n        /* \"#utility.yul\":3586:3596   */\n      swap1\n      pop\n        /* \"#utility.yul\":3175:3602   */\n      swap4\n      swap3\n      pop\n      pop\n      pop\n      jump\t// out\n        /* \"#utility.yul\":3608:3756   */\n    tag_167:\n        /* \"#utility.yul\":3710:3721   */\n      0x00\n        /* \"#utility.yul\":3747:3750   */\n      dup2\n        /* \"#utility.yul\":3732:3750   */\n      swap1\n      pop\n        /* \"#utility.yul\":3608:3756   */\n      swap3\n      swap2\n      pop\n      pop\n      jump\t// out\n        /* \"#utility.yul\":3762:3976   */\n    tag_168:\n        /* \"#utility.yul\":3902:3968   */\n      0x3c67207472616e73666f726d3d22726f74617465280000000000000000000000\n        /* \"#utility.yul\":3898:3899   */\n      0x00\n        /* \"#utility.yul\":3890:3896   */\n      dup3\n        /* \"#utility.yul\":3886:3900   */\n      add\n        /* \"#utility.yul\":3879:3969   */\n      mstore\n        /* \"#utility.yul\":3762:3976   */\n      pop\n      jump\t// out\n        /* \"#utility.yul\":3982:4384   */\n    tag_169:\n        /* \"#utility.yul\":4142:4145   */\n      0x00\n        /* \"#utility.yul\":4163:4248   */\n      tag_215\n        /* \"#utility.yul\":4245:4247   */\n      0x15\n        /* \"#utility.yul\":4240:4243   */\n      dup4\n        /* \"#utility.yul\":4163:4248   */\n      tag_167\n      jump\t// in\n    tag_215:\n        /* \"#utility.yul\":4156:4248   */\n      swap2\n      pop\n        /* \"#utility.yul\":4257:4350   */\n      tag_216\n        /* \"#utility.yul\":4346:4349   */\n      dup3\n        /* \"#utility.yul\":4257:4350   */\n      tag_168\n      jump\t// in\n    tag_216:\n        /* \"#utility.yul\":4375:4377   */\n      0x15\n        /* \"#utility.yul\":4370:4373   */\n      dup3\n        /* \"#utility.yul\":4366:4378   */\n      add\n        /* \"#utility.yul\":4359:4378   */\n      swap1\n      pop\n        /* \"#utility.yul\":3982:4384   */\n      swap2\n      swap1\n      pop\n      jump\t// out\n        /* \"#utility.yul\":4390:4780   */\n    tag_170:\n        /* \"#utility.yul\":4496:4499   */\n      0x00\n        /* \"#utility.yul\":4524:4563   */\n      tag_218\n        /* \"#utility.yul\":4557:4562   */\n      dup3\n        /* \"#utility.yul\":4524:4563   */\n      tag_155\n      jump\t// in\n    tag_218:\n        /* \"#utility.yul\":4579:4668   */\n      tag_219\n        /* \"#utility.yul\":4661:4667   */\n      dup2\n        /* \"#utility.yul\":4656:4659   */\n      dup6\n        /* \"#utility.yul\":4579:4668   */\n      tag_167\n      jump\t// in\n    tag_219:\n        /* \"#utility.yul\":4572:4668   */\n      swap4\n      pop\n        /* \"#utility.yul\":4677:4742   */\n      tag_220\n        /* \"#utility.yul\":4735:4741   */\n      dup2\n        /* \"#utility.yul\":4730:4733   */\n      dup6\n        /* \"#utility.yul\":4723:4727   */\n      0x20\n        /* \"#utility.yul\":4716:4721   */\n      dup7\n        /* \"#utility.yul\":4712:4728   */\n      add\n        /* \"#utility.yul\":4677:4742   */\n      tag_157\n      jump\t// in\n    tag_220:\n        /* \"#utility.yul\":4767:4773   */\n      dup1\n        /* \"#utility.yul\":4762:4765   */\n      dup5\n        /* \"#utility.yul\":4758:4774   */\n      add\n        /* \"#utility.yul\":4751:4774   */\n      swap2\n      pop\n        /* \"#utility.yul\":4500:4780   */\n      pop\n        /* \"#utility.yul\":4390:4780   */\n      swap3\n      swap2\n      pop\n      pop\n      jump\t// out\n        /* \"#utility.yul\":4786:5000   */\n    tag_171:\n        /* \"#utility.yul\":4926:4992   */\n      0x203531322035313229223e000000000000000000000000000000000000000000\n        /* \"#utility.yul\":4922:4923   */\n      0x00\n        /* \"#utility.yul\":4914:4920   */\n      dup3\n        /* \"#utility.yul\":4910:4924   */\n      add\n        /* \"#utility.yul\":4903:4993   */\n      mstore\n        /* \"#utility.yul\":4786:5000   */\n      pop\n      jump\t// out\n        /* \"#utility.yul\":5006:5408   */\n    tag_172:\n        /* \"#utility.yul\":5166:5169   */\n      0x00\n        /* \"#utility.yul\":5187:5272   */\n      tag_223\n        /* \"#utility.yul\":5269:5271   */\n      0x0b\n        /* \"#utility.yul\":5264:5267   */\n      dup4\n        /* \"#utility.yul\":5187:5272   */\n      tag_167\n      jump\t// in\n    tag_223:\n        /* \"#utility.yul\":5180:5272   */\n      swap2\n      pop\n        /* \"#utility.yul\":5281:5374   */\n      tag_224\n        /* \"#utility.yul\":5370:5373   */\n      dup3\n        /* \"#utility.yul\":5281:5374   */\n      tag_171\n      jump\t// in\n    tag_224:\n        /* \"#utility.yul\":5399:5401   */\n      0x0b\n        /* \"#utility.yul\":5394:5397   */\n      dup3\n        /* \"#utility.yul\":5390:5402   */\n      add\n        /* \"#utility.yul\":5383:5402   */\n      swap1\n      pop\n        /* \"#utility.yul\":5006:5408   */\n      swap2\n      swap1\n      pop\n      jump\t// out\n        /* \"#utility.yul\":5414:5568   */\n    tag_173:\n        /* \"#utility.yul\":5554:5560   */\n      0x3c2f673e00000000000000000000000000000000000000000000000000000000\n        /* \"#utility.yul\":5550:5551   */\n      0x00\n        /* \"#utility.yul\":5542:5548   */\n      dup3\n        /* \"#utility.yul\":5538:5552   */\n      add\n        /* \"#utility.yul\":5531:5561   */\n      mstore\n        /* \"#utility.yul\":5414:5568   */\n      pop\n      jump\t// out\n        /* \"#utility.yul\":5574:5974   */\n    tag_174:\n        /* \"#utility.yul\":5734:5737   */\n      0x00\n        /* \"#utility.yul\":5755:5839   */\n      tag_227\n        /* \"#utility.yul\":5837:5838   */\n      0x04\n        /* \"#utility.yul\":5832:5835   */\n      dup4\n        /* \"#utility.yul\":5755:5839   */\n      tag_167\n      jump\t// in\n    tag_227:\n        /* \"#utility.yul\":5748:5839   */\n      swap2\n      pop\n        /* \"#utility.yul\":5848:5941   */\n      tag_228\n        /* \"#utility.yul\":5937:5940   */\n      dup3\n        /* \"#utility.yul\":5848:5941   */\n      tag_173\n      jump\t// in\n    tag_228:\n        /* \"#utility.yul\":5966:5967   */\n      0x04\n        /* \"#utility.yul\":5961:5964   */\n      dup3\n        /* \"#utility.yul\":5957:5968   */\n      add\n        /* \"#utility.yul\":5950:5968   */\n      swap1\n      pop\n        /* \"#utility.yul\":5574:5974   */\n      swap2\n      swap1\n      pop\n      jump\t// out\n        /* \"#utility.yul\":5980:7209   */\n    tag_85:\n        /* \"#utility.yul\":6461:6464   */\n      0x00\n        /* \"#utility.yul\":6483:6631   */\n      tag_230\n        /* \"#utility.yul\":6627:6630   */\n      dup3\n        /* \"#utility.yul\":6483:6631   */\n      tag_169\n      jump\t// in\n    tag_230:\n        /* \"#utility.yul\":6476:6631   */\n      swap2\n      pop\n        /* \"#utility.yul\":6648:6743   */\n      tag_231\n        /* \"#utility.yul\":6739:6742   */\n      dup3\n        /* \"#utility.yul\":6730:6736   */\n      dup6\n        /* \"#utility.yul\":6648:6743   */\n      tag_170\n      jump\t// in\n    tag_231:\n        /* \"#utility.yul\":6641:6743   */\n      swap2\n      pop\n        /* \"#utility.yul\":6760:6908   */\n      tag_232\n        /* \"#utility.yul\":6904:6907   */\n      dup3\n        /* \"#utility.yul\":6760:6908   */\n      tag_172\n      jump\t// in\n    tag_232:\n        /* \"#utility.yul\":6753:6908   */\n      swap2\n      pop\n        /* \"#utility.yul\":6925:7018   */\n      tag_233\n        /* \"#utility.yul\":7014:7017   */\n      dup3\n        /* \"#utility.yul\":7005:7011   */\n      dup5\n        /* \"#utility.yul\":6925:7018   */\n      tag_166\n      jump\t// in\n    tag_233:\n        /* \"#utility.yul\":6918:7018   */\n      swap2\n      pop\n        /* \"#utility.yul\":7035:7183   */\n      tag_234\n        /* \"#utility.yul\":7179:7182   */\n      dup3\n        /* \"#utility.yul\":7035:7183   */\n      tag_174\n      jump\t// in\n    tag_234:\n        /* \"#utility.yul\":7028:7183   */\n      swap2\n      pop\n        /* \"#utility.yul\":7200:7203   */\n      dup2\n        /* \"#utility.yul\":7193:7203   */\n      swap1\n      pop\n        /* \"#utility.yul\":5980:7209   */\n      swap4\n      swap3\n      pop\n      pop\n      pop\n      jump\t// out\n        /* \"#utility.yul\":7215:7292   */\n    tag_175:\n        /* \"#utility.yul\":7252:7259   */\n      0x00\n        /* \"#utility.yul\":7281:7286   */\n      dup2\n        /* \"#utility.yul\":7270:7286   */\n      swap1\n      pop\n        /* \"#utility.yul\":7215:7292   */\n      swap2\n      swap1\n      pop\n      jump\t// out\n        /* \"#utility.yul\":7298:7416   */\n    tag_176:\n        /* \"#utility.yul\":7385:7409   */\n      tag_237\n        /* \"#utility.yul\":7403:7408   */\n      dup2\n        /* \"#utility.yul\":7385:7409   */\n      tag_175\n      jump\t// in\n    tag_237:\n        /* \"#utility.yul\":7380:7383   */\n      dup3\n        /* \"#utility.yul\":7373:7410   */\n      mstore\n        /* \"#utility.yul\":7298:7416   */\n      pop\n      pop\n      jump\t// out\n        /* \"#utility.yul\":7422:7864   */\n    tag_93:\n        /* \"#utility.yul\":7571:7575   */\n      0x00\n        /* \"#utility.yul\":7609:7611   */\n      0x60\n        /* \"#utility.yul\":7598:7607   */\n      dup3\n        /* \"#utility.yul\":7594:7612   */\n      add\n        /* \"#utility.yul\":7586:7612   */\n      swap1\n      pop\n        /* \"#utility.yul\":7622:7693   */\n      tag_239\n        /* \"#utility.yul\":7690:7691   */\n      0x00\n        /* \"#utility.yul\":7679:7688   */\n      dup4\n        /* \"#utility.yul\":7675:7692   */\n      add\n        /* \"#utility.yul\":7666:7672   */\n      dup7\n        /* \"#utility.yul\":7622:7693   */\n      tag_176\n      jump\t// in\n    tag_239:\n        /* \"#utility.yul\":7703:7775   */\n      tag_240\n        /* \"#utility.yul\":7771:7773   */\n      0x20\n        /* \"#utility.yul\":7760:7769   */\n      dup4\n        /* \"#utility.yul\":7756:7774   */\n      add\n        /* \"#utility.yul\":7747:7753   */\n      dup6\n        /* \"#utility.yul\":7703:7775   */\n      tag_176\n      jump\t// in\n    tag_240:\n        /* \"#utility.yul\":7785:7857   */\n      tag_241\n        /* \"#utility.yul\":7853:7855   */\n      0x40\n        /* \"#utility.yul\":7842:7851   */\n      dup4\n        /* \"#utility.yul\":7838:7856   */\n      add\n        /* \"#utility.yul\":7829:7835   */\n      dup5\n        /* \"#utility.yul\":7785:7857   */\n      tag_176\n      jump\t// in\n    tag_241:\n        /* \"#utility.yul\":7422:7864   */\n      swap5\n      swap4\n      pop\n      pop\n      pop\n      pop\n      jump\t// out\n        /* \"#utility.yul\":7870:8050   */\n    tag_177:\n        /* \"#utility.yul\":7918:7995   */\n      0x4e487b7100000000000000000000000000000000000000000000000000000000\n        /* \"#utility.yul\":7915:7916   */\n      0x00\n        /* \"#utility.yul\":7908:7996   */\n      mstore\n        /* \"#utility.yul\":8015:8019   */\n      0x11\n        /* \"#utility.yul\":8012:8013   */\n      0x04\n        /* \"#utility.yul\":8005:8020   */\n      mstore\n        /* \"#utility.yul\":8039:8043   */\n      0x24\n        /* \"#utility.yul\":8036:8037   */\n      0x00\n        /* \"#utility.yul\":8029:8044   */\n      revert\n        /* \"#utility.yul\":8056:8250   */\n    tag_100:\n        /* \"#utility.yul\":8096:8100   */\n      0x00\n        /* \"#utility.yul\":8116:8136   */\n      tag_244\n        /* \"#utility.yul\":8134:8135   */\n      dup3\n        /* \"#utility.yul\":8116:8136   */\n      tag_175\n      jump\t// in\n    tag_244:\n        /* \"#utility.yul\":8111:8136   */\n      swap2\n      pop\n        /* \"#utility.yul\":8150:8170   */\n      tag_245\n        /* \"#utility.yul\":8168:8169   */\n      dup4\n        /* \"#utility.yul\":8150:8170   */\n      tag_175\n      jump\t// in\n    tag_245:\n        /* \"#utility.yul\":8145:8170   */\n      swap3\n      pop\n        /* \"#utility.yul\":8194:8195   */\n      dup3\n        /* \"#utility.yul\":8191:8192   */\n      dup3\n        /* \"#utility.yul\":8187:8196   */\n      sub\n        /* \"#utility.yul\":8179:8196   */\n      swap1\n      pop\n        /* \"#utility.yul\":8218:8219   */\n      dup2\n        /* \"#utility.yul\":8212:8216   */\n      dup2\n        /* \"#utility.yul\":8209:8220   */\n      gt\n        /* \"#utility.yul\":8206:8243   */\n      iszero\n      tag_246\n      jumpi\n        /* \"#utility.yul\":8223:8241   */\n      tag_247\n      tag_177\n      jump\t// in\n    tag_247:\n        /* \"#utility.yul\":8206:8243   */\n    tag_246:\n        /* \"#utility.yul\":8056:8250   */\n      swap3\n      swap2\n      pop\n      pop\n      jump\t// out\n        /* \"#utility.yul\":8256:8666   */\n    tag_102:\n        /* \"#utility.yul\":8296:8303   */\n      0x00\n        /* \"#utility.yul\":8319:8339   */\n      tag_249\n        /* \"#utility.yul\":8337:8338   */\n      dup3\n        /* \"#utility.yul\":8319:8339   */\n      tag_175\n      jump\t// in\n    tag_249:\n        /* \"#utility.yul\":8314:8339   */\n      swap2\n      pop\n        /* \"#utility.yul\":8353:8373   */\n      tag_250\n        /* \"#utility.yul\":8371:8372   */\n      dup4\n        /* \"#utility.yul\":8353:8373   */\n      tag_175\n      jump\t// in\n    tag_250:\n        /* \"#utility.yul\":8348:8373   */\n      swap3\n      pop\n        /* \"#utility.yul\":8408:8409   */\n      dup3\n        /* \"#utility.yul\":8405:8406   */\n      dup3\n        /* \"#utility.yul\":8401:8410   */\n      mul\n        /* \"#utility.yul\":8430:8460   */\n      tag_251\n        /* \"#utility.yul\":8448:8459   */\n      dup2\n        /* \"#utility.yul\":8430:8460   */\n      tag_175\n      jump\t// in\n    tag_251:\n        /* \"#utility.yul\":8419:8460   */\n      swap2\n      pop\n        /* \"#utility.yul\":8609:8610   */\n      dup3\n        /* \"#utility.yul\":8600:8607   */\n      dup3\n        /* \"#utility.yul\":8596:8611   */\n      div\n        /* \"#utility.yul\":8593:8594   */\n      dup5\n        /* \"#utility.yul\":8590:8612   */\n      eq\n        /* \"#utility.yul\":8570:8571   */\n      dup4\n        /* \"#utility.yul\":8563:8572   */\n      iszero\n        /* \"#utility.yul\":8543:8626   */\n      or\n        /* \"#utility.yul\":8520:8659   */\n      tag_252\n      jumpi\n        /* \"#utility.yul\":8639:8657   */\n      tag_253\n      tag_177\n      jump\t// in\n    tag_253:\n        /* \"#utility.yul\":8520:8659   */\n    tag_252:\n        /* \"#utility.yul\":8304:8666   */\n      pop\n        /* \"#utility.yul\":8256:8666   */\n      swap3\n      swap2\n      pop\n      pop\n      jump\t// out\n        /* \"#utility.yul\":8672:8863   */\n    tag_104:\n        /* \"#utility.yul\":8712:8715   */\n      0x00\n        /* \"#utility.yul\":8731:8751   */\n      tag_255\n        /* \"#utility.yul\":8749:8750   */\n      dup3\n        /* \"#utility.yul\":8731:8751   */\n      tag_175\n      jump\t// in\n    tag_255:\n        /* \"#utility.yul\":8726:8751   */\n      swap2\n      pop\n        /* \"#utility.yul\":8765:8785   */\n      tag_256\n        /* \"#utility.yul\":8783:8784   */\n      dup4\n        /* \"#utility.yul\":8765:8785   */\n      tag_175\n      jump\t// in\n    tag_256:\n        /* \"#utility.yul\":8760:8785   */\n      swap3\n      pop\n        /* \"#utility.yul\":8808:8809   */\n      dup3\n        /* \"#utility.yul\":8805:8806   */\n      dup3\n        /* \"#utility.yul\":8801:8810   */\n      add\n        /* \"#utility.yul\":8794:8810   */\n      swap1\n      pop\n        /* \"#utility.yul\":8829:8832   */\n      dup1\n        /* \"#utility.yul\":8826:8827   */\n      dup3\n        /* \"#utility.yul\":8823:8833   */\n      gt\n        /* \"#utility.yul\":8820:8856   */\n      iszero\n      tag_257\n      jumpi\n        /* \"#utility.yul\":8836:8854   */\n      tag_258\n      tag_177\n      jump\t// in\n    tag_258:\n        /* \"#utility.yul\":8820:8856   */\n    tag_257:\n        /* \"#utility.yul\":8672:8863   */\n      swap3\n      swap2\n      pop\n      pop\n      jump\t// out\n        /* \"#utility.yul\":8869:9049   */\n    tag_107:\n        /* \"#utility.yul\":8917:8994   */\n      0x4e487b7100000000000000000000000000000000000000000000000000000000\n        /* \"#utility.yul\":8914:8915   */\n      0x00\n        /* \"#utility.yul\":8907:8995   */\n      mstore\n        /* \"#utility.yul\":9014:9018   */\n      0x41\n        /* \"#utility.yul\":9011:9012   */\n      0x04\n        /* \"#utility.yul\":9004:9019   */\n      mstore\n        /* \"#utility.yul\":9038:9042   */\n      0x24\n        /* \"#utility.yul\":9035:9036   */\n      0x00\n        /* \"#utility.yul\":9028:9043   */\n      revert\n        /* \"#utility.yul\":9055:9288   */\n    tag_126:\n        /* \"#utility.yul\":9094:9097   */\n      0x00\n        /* \"#utility.yul\":9117:9141   */\n      tag_261\n        /* \"#utility.yul\":9135:9140   */\n      dup3\n        /* \"#utility.yul\":9117:9141   */\n      tag_175\n      jump\t// in\n    tag_261:\n        /* \"#utility.yul\":9108:9141   */\n      swap2\n      pop\n        /* \"#utility.yul\":9163:9229   */\n      0xffffffffffffffffffffffffffffffffffffffffffffffffffffffffffffffff\n        /* \"#utility.yul\":9156:9161   */\n      dup3\n        /* \"#utility.yul\":9153:9230   */\n      sub\n        /* \"#utility.yul\":9150:9253   */\n      tag_262\n      jumpi\n        /* \"#utility.yul\":9233:9251   */\n      tag_263\n      tag_177\n      jump\t// in\n    tag_263:\n        /* \"#utility.yul\":9150:9253   */\n    tag_262:\n        /* \"#utility.yul\":9280:9281   */\n      0x01\n        /* \"#utility.yul\":9273:9278   */\n      dup3\n        /* \"#utility.yul\":9269:9282   */\n      add\n        /* \"#utility.yul\":9262:9282   */\n      swap1\n      pop\n        /* \"#utility.yul\":9055:9288   */\n      swap2\n      swap1\n      pop\n      jump\t// out\n\n    auxdata: 0xa26469706673582212208481e77800e1c875dd53d5050ad5111c37b189e1020ad0e2bbb4c61817537cb864736f6c634300081a0033\n}\n",
				"bytecode": {
					"linkReferences": {},
					"object": "60a060405260405180604001604052806040518060400160405280600781526020017f236666666666660000000000000000000000000000000000000000000000000081525081526020016040518060400160405280600781526020017f23303030303030000000000000000000000000000000000000000000000000008152508152505f90600261009292919061018a565b5060405180604001604052806040518060400160405280600181526020017f300000000000000000000000000000000000000000000000000000000000000081525081526020016040518060400160405280600581526020017f352e363235000000000000000000000000000000000000000000000000000000815250815250600290600261012292919061018a565b5034801561012e575f80fd5b506040516115b73803806115b7833981810160405281019061015091906102af565b8073ffffffffffffffffffffffffffffffffffffffff1660808173ffffffffffffffffffffffffffffffffffffffff1681525050506105e3565b82600281019282156101c5579160200282015b828111156101c45782518290816101b49190610514565b509160200191906001019061019d565b5b5090506101d291906101d6565b5090565b5b808211156101f5575f81816101ec91906101f9565b506001016101d7565b5090565b5080546102059061033e565b5f825580601f106102165750610233565b601f0160209004905f5260205f20908101906102329190610236565b5b50565b5b8082111561024d575f815f905550600101610237565b5090565b5f80fd5b5f73ffffffffffffffffffffffffffffffffffffffff82169050919050565b5f61027e82610255565b9050919050565b61028e81610274565b8114610298575f80fd5b50565b5f815190506102a981610285565b92915050565b5f602082840312156102c4576102c3610251565b5b5f6102d18482850161029b565b91505092915050565b5f81519050919050565b7f4e487b71000000000000000000000000000000000000000000000000000000005f52604160045260245ffd5b7f4e487b71000000000000000000000000000000000000000000000000000000005f52602260045260245ffd5b5f600282049050600182168061035557607f821691505b60208210810361036857610367610311565b5b50919050565b5f819050815f5260205f209050919050565b5f6020601f8301049050919050565b5f82821b905092915050565b5f600883026103ca7fffffffffffffffffffffffffffffffffffffffffffffffffffffffffffffffff8261038f565b6103d4868361038f565b95508019841693508086168417925050509392505050565b5f819050919050565b5f819050919050565b5f61041861041361040e846103ec565b6103f5565b6103ec565b9050919050565b5f819050919050565b610431836103fe565b61044561043d8261041f565b84845461039b565b825550505050565b5f90565b61045961044d565b610464818484610428565b505050565b5b818110156104875761047c5f82610451565b60018101905061046a565b5050565b601f8211156104cc5761049d8161036e565b6104a684610380565b810160208510156104b5578190505b6104c96104c185610380565b830182610469565b50505b505050565b5f82821c905092915050565b5f6104ec5f19846008026104d1565b1980831691505092915050565b5f61050483836104dd565b9150826002028217905092915050565b61051d826102da565b67ffffffffffffffff811115610536576105356102e4565b5b610540825461033e565b61054b82828561048b565b5f60209050601f83116001811461057c575f841561056a578287015190505b61057485826104f9565b8655506105db565b601f19841661058a8661036e565b5f5b828110156105b15784890151825560018201915060208501945060208101905061058c565b868310156105ce57848901516105ca601f8916826104dd565b8355505b6001600288020188555050505b505050505050565b608051610fb66106015f395f8181607c01526102330152610fb65ff3fe608060405234801561000f575f80fd5b5060043610610034575f3560e01c8063489187e814610038578063e973490214610056575b5f80fd5b610040610074565b60405161004d9190610b26565b60405180910390f35b61005e610231565b60405161006b9190610b85565b60405180910390f35b60605f6100a07f0000000000000000000000000000000000000000000000000000000000000000610255565b90505f6101526100b183600561028a565b60025f600281106100c5576100c4610b9e565b5b0180546100d190610bf8565b80601f01602080910402602001604051908101604052809291908181526020018280546100fd90610bf8565b80156101485780601f1061011f57610100808354040283529160200191610148565b820191905f5260205f20905b81548152906001019060200180831161012b57829003601f168201915b5050505050610636565b90505f61020561016384600961028a565b600260016002811061017857610177610b9e565b5b01805461018490610bf8565b80601f01602080910402602001604051908101604052809291908181526020018280546101b090610bf8565b80156101fb5780601f106101d2576101008083540402835291602001916101fb565b820191905f5260205f20905b8154815290600101906020018083116101de57829003601f168201915b5050505050610636565b9050818160405160200161021a929190610c6c565b604051602081830303815290604052935050505090565b7f000000000000000000000000000000000000000000000000000000000000000081565b60606102838260017fffffffffffffffffffffffffffffffffffffffffffffffffffffffffffffffff610662565b9050919050565b60605f839050610377816040518060400160405280600381526020017f635f3100000000000000000000000000000000000000000000000000000000008152505f600160038860ff16901c1660ff16600281106102ea576102e9610b9e565b5b0180546102f690610bf8565b80601f016020809104026020016040519081016040528092919081815260200182805461032290610bf8565b801561036d5780601f106103445761010080835404028352916020019161036d565b820191905f5260205f20905b81548152906001019060200180831161035057829003601f168201915b5050505050610740565b9050610460816040518060400160405280600381526020017f635f3200000000000000000000000000000000000000000000000000000000008152505f600160028860ff16901c1660ff16600281106103d3576103d2610b9e565b5b0180546103df90610bf8565b80601f016020809104026020016040519081016040528092919081815260200182805461040b90610bf8565b80156104565780601f1061042d57610100808354040283529160200191610456565b820191905f5260205f20905b81548152906001019060200180831161043957829003601f168201915b5050505050610740565b9050610548816040518060400160405280600381526020017f635f3300000000000000000000000000000000000000000000000000000000008152505f6001808860ff16901c1660ff16600281106104bb576104ba610b9e565b5b0180546104c790610bf8565b80601f01602080910402602001604051908101604052809291908181526020018280546104f390610bf8565b801561053e5780601f106105155761010080835404028352916020019161053e565b820191905f5260205f20905b81548152906001019060200180831161052157829003601f168201915b5050505050610740565b905061062a816040518060400160405280600381526020017f635f3400000000000000000000000000000000000000000000000000000000008152505f6001871660ff166002811061059d5761059c610b9e565b5b0180546105a990610bf8565b80601f01602080910402602001604051908101604052809291908181526020018280546105d590610bf8565b80156106205780601f106105f757610100808354040283529160200191610620565b820191905f5260205f20905b81548152906001019060200180831161060357829003601f168201915b5050505050610740565b90508091505092915050565b6060818360405160200161064b929190610da7565b604051602081830303815290604052905092915050565b60605f61066e85610aac565b90505f810361068e5760405180602001604052805f815250915050610739565b808411156106ad5760405180602001604052805f815250915050610739565b838310156106f6578084846040517f2c4a89fa0000000000000000000000000000000000000000000000000000000081526004016106ed93929190610e03565b60405180910390fd5b5f84840390505f85830390505f8282106107105782610712565b815b90506040519450601f19601f60208301011685016040528085528087602087018a3c505050505b9392505050565b60605f8390505f8390505f825182511161075a575f610769565b825182516107689190610e65565b5b90505f6004826107799190610e98565b88516107859190610ed9565b67ffffffffffffffff81111561079e5761079d610f0c565b5b6040519080825280601f01601f1916602001820160405280156107d05781602001600182028036833780820191505090505b5090505f805b89518110156109d6575f600190508a518751836107f39190610ed9565b1115610801575f90506108bc565b5f5b8751811080156108105750815b156108ba5787818151811061082857610827610b9e565b5b602001015160f81c60f81b7effffffffffffffffffffffffffffffffffffffffffffffffffffffffffffff19168c82856108629190610ed9565b8151811061087357610872610b9e565b5b602001015160f81c60f81b7effffffffffffffffffffffffffffffffffffffffffffffffffffffffffffff1916146108a9575f91505b806108b390610f39565b9050610803565b505b8015610958575f5b8651811015610943578681815181106108e0576108df610b9e565b5b602001015160f81c60f81b8585806108f790610f39565b96508151811061090a57610909610b9e565b5b60200101907effffffffffffffffffffffffffffffffffffffffffffffffffffffffffffff191690815f1a9053508060010190506108c4565b508651826109519190610ed9565b91506109d0565b8a828061096490610f39565b93508151811061097757610976610b9e565b5b602001015160f81c60f81b84848061098e90610f39565b9550815181106109a1576109a0610b9e565b5b60200101907effffffffffffffffffffffffffffffffffffffffffffffffffffffffffffff191690815f1a9053505b506107d6565b505f8167ffffffffffffffff8111156109f2576109f1610f0c565b5b6040519080825280601f01601f191660200182016040528015610a245781602001600182028036833780820191505090505b5090505f5b82811015610a9b57838181518110610a4457610a43610b9e565b5b602001015160f81c60f81b828281518110610a6257610a61610b9e565b5b60200101907effffffffffffffffffffffffffffffffffffffffffffffffffffffffffffff191690815f1a905350806001019050610a29565b508096505050505050509392505050565b5f813b9050919050565b5f81519050919050565b5f82825260208201905092915050565b8281835e5f83830152505050565b5f601f19601f8301169050919050565b5f610af882610ab6565b610b028185610ac0565b9350610b12818560208601610ad0565b610b1b81610ade565b840191505092915050565b5f6020820190508181035f830152610b3e8184610aee565b905092915050565b5f73ffffffffffffffffffffffffffffffffffffffff82169050919050565b5f610b6f82610b46565b9050919050565b610b7f81610b65565b82525050565b5f602082019050610b985f830184610b76565b92915050565b7f4e487b71000000000000000000000000000000000000000000000000000000005f52603260045260245ffd5b7f4e487b71000000000000000000000000000000000000000000000000000000005f52602260045260245ffd5b5f6002820490506001821680610c0f57607f821691505b602082108103610c2257610c21610bcb565b5b50919050565b5f81519050919050565b5f81905092915050565b5f610c4682610c28565b610c508185610c32565b9350610c60818560208601610ad0565b80840191505092915050565b5f610c778285610c3c565b9150610c838284610c3c565b91508190509392505050565b5f81905092915050565b7f3c67207472616e73666f726d3d22726f746174652800000000000000000000005f82015250565b5f610ccd601583610c8f565b9150610cd882610c99565b601582019050919050565b5f610ced82610ab6565b610cf78185610c8f565b9350610d07818560208601610ad0565b80840191505092915050565b7f203531322035313229223e0000000000000000000000000000000000000000005f82015250565b5f610d47600b83610c8f565b9150610d5282610d13565b600b82019050919050565b7f3c2f673e000000000000000000000000000000000000000000000000000000005f82015250565b5f610d91600483610c8f565b9150610d9c82610d5d565b600482019050919050565b5f610db182610cc1565b9150610dbd8285610ce3565b9150610dc882610d3b565b9150610dd48284610c3c565b9150610ddf82610d85565b91508190509392505050565b5f819050919050565b610dfd81610deb565b82525050565b5f606082019050610e165f830186610df4565b610e236020830185610df4565b610e306040830184610df4565b949350505050565b7f4e487b71000000000000000000000000000000000000000000000000000000005f52601160045260245ffd5b5f610e6f82610deb565b9150610e7a83610deb565b9250828203905081811115610e9257610e91610e38565b5b92915050565b5f610ea282610deb565b9150610ead83610deb565b9250828202610ebb81610deb565b91508282048414831517610ed257610ed1610e38565b5b5092915050565b5f610ee382610deb565b9150610eee83610deb565b9250828201905080821115610f0657610f05610e38565b5b92915050565b7f4e487b71000000000000000000000000000000000000000000000000000000005f52604160045260245ffd5b5f610f4382610deb565b91507fffffffffffffffffffffffffffffffffffffffffffffffffffffffffffffffff8203610f7557610f74610e38565b5b60018201905091905056fea26469706673582212208481e77800e1c875dd53d5050ad5111c37b189e1020ad0e2bbb4c61817537cb864736f6c634300081a0033",
					"opcodes": "PUSH1 0xA0 PUSH1 0x40 MSTORE PUSH1 0x40 MLOAD DUP1 PUSH1 0x40 ADD PUSH1 0x40 MSTORE DUP1 PUSH1 0x40 MLOAD DUP1 PUSH1 0x40 ADD PUSH1 0x40 MSTORE DUP1 PUSH1 0x7 DUP2 MSTORE PUSH1 0x20 ADD PUSH32 0x2366666666666600000000000000000000000000000000000000000000000000 DUP2 MSTORE POP DUP2 MSTORE PUSH1 0x20 ADD PUSH1 0x40 MLOAD DUP1 PUSH1 0x40 ADD PUSH1 0x40 MSTORE DUP1 PUSH1 0x7 DUP2 MSTORE PUSH1 0x20 ADD PUSH32 0x2330303030303000000000000000000000000000000000000000000000000000 DUP2 MSTORE POP DUP2 MSTORE POP PUSH0 SWAP1 PUSH1 0x2 PUSH2 0x92 SWAP3 SWAP2 SWAP1 PUSH2 0x18A JUMP JUMPDEST POP PUSH1 0x40 MLOAD DUP1 PUSH1 0x40 ADD PUSH1 0x40 MSTORE DUP1 PUSH1 0x40 MLOAD DUP1 PUSH1 0x40 ADD PUSH1 0x40 MSTORE DUP1 PUSH1 0x1 DUP2 MSTORE PUSH1 0x20 ADD PUSH32 0x3000000000000000000000000000000000000000000000000000000000000000 DUP2 MSTORE POP DUP2 MSTORE PUSH1 0x20 ADD PUSH1 0x40 MLOAD DUP1 PUSH1 0x40 ADD PUSH1 0x40 MSTORE DUP1 PUSH1 0x5 DUP2 MSTORE PUSH1 0x20 ADD PUSH32 0x352E363235000000000000000000000000000000000000000000000000000000 DUP2 MSTORE POP DUP2 MSTORE POP PUSH1 0x2 SWAP1 PUSH1 0x2 PUSH2 0x122 SWAP3 SWAP2 SWAP1 PUSH2 0x18A JUMP JUMPDEST POP CALLVALUE DUP1 ISZERO PUSH2 0x12E JUMPI PUSH0 DUP1 REVERT JUMPDEST POP PUSH1 0x40 MLOAD PUSH2 0x15B7 CODESIZE SUB DUP1 PUSH2 0x15B7 DUP4 CODECOPY DUP2 DUP2 ADD PUSH1 0x40 MSTORE DUP2 ADD SWAP1 PUSH2 0x150 SWAP2 SWAP1 PUSH2 0x2AF JUMP JUMPDEST DUP1 PUSH20 0xFFFFFFFFFFFFFFFFFFFFFFFFFFFFFFFFFFFFFFFF AND PUSH1 0x80 DUP2 PUSH20 0xFFFFFFFFFFFFFFFFFFFFFFFFFFFFFFFFFFFFFFFF AND DUP2 MSTORE POP POP POP PUSH2 0x5E3 JUMP JUMPDEST DUP3 PUSH1 0x2 DUP2 ADD SWAP3 DUP3 ISZERO PUSH2 0x1C5 JUMPI SWAP2 PUSH1 0x20 MUL DUP3 ADD JUMPDEST DUP3 DUP2 GT ISZERO PUSH2 0x1C4 JUMPI DUP3 MLOAD DUP3 SWAP1 DUP2 PUSH2 0x1B4 SWAP2 SWAP1 PUSH2 0x514 JUMP JUMPDEST POP SWAP2 PUSH1 0x20 ADD SWAP2 SWAP1 PUSH1 0x1 ADD SWAP1 PUSH2 0x19D JUMP JUMPDEST JUMPDEST POP SWAP1 POP PUSH2 0x1D2 SWAP2 SWAP1 PUSH2 0x1D6 JUMP JUMPDEST POP SWAP1 JUMP JUMPDEST JUMPDEST DUP1 DUP3 GT ISZERO PUSH2 0x1F5 JUMPI PUSH0 DUP2 DUP2 PUSH2 0x1EC SWAP2 SWAP1 PUSH2 0x1F9 JUMP JUMPDEST POP PUSH1 0x1 ADD PUSH2 0x1D7 JUMP JUMPDEST POP SWAP1 JUMP JUMPDEST POP DUP1 SLOAD PUSH2 0x205 SWAP1 PUSH2 0x33E JUMP JUMPDEST PUSH0 DUP3 SSTORE DUP1 PUSH1 0x1F LT PUSH2 0x216 JUMPI POP PUSH2 0x233 JUMP JUMPDEST PUSH1 0x1F ADD PUSH1 0x20 SWAP1 DIV SWAP1 PUSH0 MSTORE PUSH1 0x20 PUSH0 KECCAK256 SWAP1 DUP2 ADD SWAP1 PUSH2 0x232 SWAP2 SWAP1 PUSH2 0x236 JUMP JUMPDEST JUMPDEST POP JUMP JUMPDEST JUMPDEST DUP1 DUP3 GT ISZERO PUSH2 0x24D JUMPI PUSH0 DUP2 PUSH0 SWAP1 SSTORE POP PUSH1 0x1 ADD PUSH2 0x237 JUMP JUMPDEST POP SWAP1 JUMP JUMPDEST PUSH0 DUP1 REVERT JUMPDEST PUSH0 PUSH20 0xFFFFFFFFFFFFFFFFFFFFFFFFFFFFFFFFFFFFFFFF DUP3 AND SWAP1 POP SWAP2 SWAP1 POP JUMP JUMPDEST PUSH0 PUSH2 0x27E DUP3 PUSH2 0x255 JUMP JUMPDEST SWAP1 POP SWAP2 SWAP1 POP JUMP JUMPDEST PUSH2 0x28E DUP2 PUSH2 0x274 JUMP JUMPDEST DUP2 EQ PUSH2 0x298 JUMPI PUSH0 DUP1 REVERT JUMPDEST POP JUMP JUMPDEST PUSH0 DUP2 MLOAD SWAP1 POP PUSH2 0x2A9 DUP2 PUSH2 0x285 JUMP JUMPDEST SWAP3 SWAP2 POP POP JUMP JUMPDEST PUSH0 PUSH1 0x20 DUP3 DUP5 SUB SLT ISZERO PUSH2 0x2C4 JUMPI PUSH2 0x2C3 PUSH2 0x251 JUMP JUMPDEST JUMPDEST PUSH0 PUSH2 0x2D1 DUP5 DUP3 DUP6 ADD PUSH2 0x29B JUMP JUMPDEST SWAP2 POP POP SWAP3 SWAP2 POP POP JUMP JUMPDEST PUSH0 DUP2 MLOAD SWAP1 POP SWAP2 SWAP1 POP JUMP JUMPDEST PUSH32 0x4E487B7100000000000000000000000000000000000000000000000000000000 PUSH0 MSTORE PUSH1 0x41 PUSH1 0x4 MSTORE PUSH1 0x24 PUSH0 REVERT JUMPDEST PUSH32 0x4E487B7100000000000000000000000000000000000000000000000000000000 PUSH0 MSTORE PUSH1 0x22 PUSH1 0x4 MSTORE PUSH1 0x24 PUSH0 REVERT JUMPDEST PUSH0 PUSH1 0x2 DUP3 DIV SWAP1 POP PUSH1 0x1 DUP3 AND DUP1 PUSH2 0x355 JUMPI PUSH1 0x7F DUP3 AND SWAP2 POP JUMPDEST PUSH1 0x20 DUP3 LT DUP2 SUB PUSH2 0x368 JUMPI PUSH2 0x367 PUSH2 0x311 JUMP JUMPDEST JUMPDEST POP SWAP2 SWAP1 POP JUMP JUMPDEST PUSH0 DUP2 SWAP1 POP DUP2 PUSH0 MSTORE PUSH1 0x20 PUSH0 KECCAK256 SWAP1 POP SWAP2 SWAP1 POP JUMP JUMPDEST PUSH0 PUSH1 0x20 PUSH1 0x1F DUP4 ADD DIV SWAP1 POP SWAP2 SWAP1 POP JUMP JUMPDEST PUSH0 DUP3 DUP3 SHL SWAP1 POP SWAP3 SWAP2 POP POP JUMP JUMPDEST PUSH0 PUSH1 0x8 DUP4 MUL PUSH2 0x3CA PUSH32 0xFFFFFFFFFFFFFFFFFFFFFFFFFFFFFFFFFFFFFFFFFFFFFFFFFFFFFFFFFFFFFFFF DUP3 PUSH2 0x38F JUMP JUMPDEST PUSH2 0x3D4 DUP7 DUP4 PUSH2 0x38F JUMP JUMPDEST SWAP6 POP DUP1 NOT DUP5 AND SWAP4 POP DUP1 DUP7 AND DUP5 OR SWAP3 POP POP POP SWAP4 SWAP3 POP POP POP JUMP JUMPDEST PUSH0 DUP2 SWAP1 POP SWAP2 SWAP1 POP JUMP JUMPDEST PUSH0 DUP2 SWAP1 POP SWAP2 SWAP1 POP JUMP JUMPDEST PUSH0 PUSH2 0x418 PUSH2 0x413 PUSH2 0x40E DUP5 PUSH2 0x3EC JUMP JUMPDEST PUSH2 0x3F5 JUMP JUMPDEST PUSH2 0x3EC JUMP JUMPDEST SWAP1 POP SWAP2 SWAP1 POP JUMP JUMPDEST PUSH0 DUP2 SWAP1 POP SWAP2 SWAP1 POP JUMP JUMPDEST PUSH2 0x431 DUP4 PUSH2 0x3FE JUMP JUMPDEST PUSH2 0x445 PUSH2 0x43D DUP3 PUSH2 0x41F JUMP JUMPDEST DUP5 DUP5 SLOAD PUSH2 0x39B JUMP JUMPDEST DUP3 SSTORE POP POP POP POP JUMP JUMPDEST PUSH0 SWAP1 JUMP JUMPDEST PUSH2 0x459 PUSH2 0x44D JUMP JUMPDEST PUSH2 0x464 DUP2 DUP5 DUP5 PUSH2 0x428 JUMP JUMPDEST POP POP POP JUMP JUMPDEST JUMPDEST DUP2 DUP2 LT ISZERO PUSH2 0x487 JUMPI PUSH2 0x47C PUSH0 DUP3 PUSH2 0x451 JUMP JUMPDEST PUSH1 0x1 DUP2 ADD SWAP1 POP PUSH2 0x46A JUMP JUMPDEST POP POP JUMP JUMPDEST PUSH1 0x1F DUP3 GT ISZERO PUSH2 0x4CC JUMPI PUSH2 0x49D DUP2 PUSH2 0x36E JUMP JUMPDEST PUSH2 0x4A6 DUP5 PUSH2 0x380 JUMP JUMPDEST DUP2 ADD PUSH1 0x20 DUP6 LT ISZERO PUSH2 0x4B5 JUMPI DUP2 SWAP1 POP JUMPDEST PUSH2 0x4C9 PUSH2 0x4C1 DUP6 PUSH2 0x380 JUMP JUMPDEST DUP4 ADD DUP3 PUSH2 0x469 JUMP JUMPDEST POP POP JUMPDEST POP POP POP JUMP JUMPDEST PUSH0 DUP3 DUP3 SHR SWAP1 POP SWAP3 SWAP2 POP POP JUMP JUMPDEST PUSH0 PUSH2 0x4EC PUSH0 NOT DUP5 PUSH1 0x8 MUL PUSH2 0x4D1 JUMP JUMPDEST NOT DUP1 DUP4 AND SWAP2 POP POP SWAP3 SWAP2 POP POP JUMP JUMPDEST PUSH0 PUSH2 0x504 DUP4 DUP4 PUSH2 0x4DD JUMP JUMPDEST SWAP2 POP DUP3 PUSH1 0x2 MUL DUP3 OR SWAP1 POP SWAP3 SWAP2 POP POP JUMP JUMPDEST PUSH2 0x51D DUP3 PUSH2 0x2DA JUMP JUMPDEST PUSH8 0xFFFFFFFFFFFFFFFF DUP2 GT ISZERO PUSH2 0x536 JUMPI PUSH2 0x535 PUSH2 0x2E4 JUMP JUMPDEST JUMPDEST PUSH2 0x540 DUP3 SLOAD PUSH2 0x33E JUMP JUMPDEST PUSH2 0x54B DUP3 DUP3 DUP6 PUSH2 0x48B JUMP JUMPDEST PUSH0 PUSH1 0x20 SWAP1 POP PUSH1 0x1F DUP4 GT PUSH1 0x1 DUP2 EQ PUSH2 0x57C JUMPI PUSH0 DUP5 ISZERO PUSH2 0x56A JUMPI DUP3 DUP8 ADD MLOAD SWAP1 POP JUMPDEST PUSH2 0x574 DUP6 DUP3 PUSH2 0x4F9 JUMP JUMPDEST DUP7 SSTORE POP PUSH2 0x5DB JUMP JUMPDEST PUSH1 0x1F NOT DUP5 AND PUSH2 0x58A DUP7 PUSH2 0x36E JUMP JUMPDEST PUSH0 JUMPDEST DUP3 DUP2 LT ISZERO PUSH2 0x5B1 JUMPI DUP5 DUP10 ADD MLOAD DUP3 SSTORE PUSH1 0x1 DUP3 ADD SWAP2 POP PUSH1 0x20 DUP6 ADD SWAP5 POP PUSH1 0x20 DUP2 ADD SWAP1 POP PUSH2 0x58C JUMP JUMPDEST DUP7 DUP4 LT ISZERO PUSH2 0x5CE JUMPI DUP5 DUP10 ADD MLOAD PUSH2 0x5CA PUSH1 0x1F DUP10 AND DUP3 PUSH2 0x4DD JUMP JUMPDEST DUP4 SSTORE POP JUMPDEST PUSH1 0x1 PUSH1 0x2 DUP9 MUL ADD DUP9 SSTORE POP POP POP JUMPDEST POP POP POP POP POP POP JUMP JUMPDEST PUSH1 0x80 MLOAD PUSH2 0xFB6 PUSH2 0x601 PUSH0 CODECOPY PUSH0 DUP2 DUP2 PUSH1 0x7C ADD MSTORE PUSH2 0x233 ADD MSTORE PUSH2 0xFB6 PUSH0 RETURN INVALID PUSH1 0x80 PUSH1 0x40 MSTORE CALLVALUE DUP1 ISZERO PUSH2 0xF JUMPI PUSH0 DUP1 REVERT JUMPDEST POP PUSH1 0x4 CALLDATASIZE LT PUSH2 0x34 JUMPI PUSH0 CALLDATALOAD PUSH1 0xE0 SHR DUP1 PUSH4 0x489187E8 EQ PUSH2 0x38 JUMPI DUP1 PUSH4 0xE9734902 EQ PUSH2 0x56 JUMPI JUMPDEST PUSH0 DUP1 REVERT JUMPDEST PUSH2 0x40 PUSH2 0x74 JUMP JUMPDEST PUSH1 0x40 MLOAD PUSH2 0x4D SWAP2 SWAP1 PUSH2 0xB26 JUMP JUMPDEST PUSH1 0x40 MLOAD DUP1 SWAP2 SUB SWAP1 RETURN JUMPDEST PUSH2 0x5E PUSH2 0x231 JUMP JUMPDEST PUSH1 0x40 MLOAD PUSH2 0x6B SWAP2 SWAP1 PUSH2 0xB85 JUMP JUMPDEST PUSH1 0x40 MLOAD DUP1 SWAP2 SUB SWAP1 RETURN JUMPDEST PUSH1 0x60 PUSH0 PUSH2 0xA0 PUSH32 0x0 PUSH2 0x255 JUMP JUMPDEST SWAP1 POP PUSH0 PUSH2 0x152 PUSH2 0xB1 DUP4 PUSH1 0x5 PUSH2 0x28A JUMP JUMPDEST PUSH1 0x2 PUSH0 PUSH1 0x2 DUP2 LT PUSH2 0xC5 JUMPI PUSH2 0xC4 PUSH2 0xB9E JUMP JUMPDEST JUMPDEST ADD DUP1 SLOAD PUSH2 0xD1 SWAP1 PUSH2 0xBF8 JUMP JUMPDEST DUP1 PUSH1 0x1F ADD PUSH1 0x20 DUP1 SWAP2 DIV MUL PUSH1 0x20 ADD PUSH1 0x40 MLOAD SWAP1 DUP2 ADD PUSH1 0x40 MSTORE DUP1 SWAP3 SWAP2 SWAP1 DUP2 DUP2 MSTORE PUSH1 0x20 ADD DUP3 DUP1 SLOAD PUSH2 0xFD SWAP1 PUSH2 0xBF8 JUMP JUMPDEST DUP1 ISZERO PUSH2 0x148 JUMPI DUP1 PUSH1 0x1F LT PUSH2 0x11F JUMPI PUSH2 0x100 DUP1 DUP4 SLOAD DIV MUL DUP4 MSTORE SWAP2 PUSH1 0x20 ADD SWAP2 PUSH2 0x148 JUMP JUMPDEST DUP3 ADD SWAP2 SWAP1 PUSH0 MSTORE PUSH1 0x20 PUSH0 KECCAK256 SWAP1 JUMPDEST DUP2 SLOAD DUP2 MSTORE SWAP1 PUSH1 0x1 ADD SWAP1 PUSH1 0x20 ADD DUP1 DUP4 GT PUSH2 0x12B JUMPI DUP3 SWAP1 SUB PUSH1 0x1F AND DUP3 ADD SWAP2 JUMPDEST POP POP POP POP POP PUSH2 0x636 JUMP JUMPDEST SWAP1 POP PUSH0 PUSH2 0x205 PUSH2 0x163 DUP5 PUSH1 0x9 PUSH2 0x28A JUMP JUMPDEST PUSH1 0x2 PUSH1 0x1 PUSH1 0x2 DUP2 LT PUSH2 0x178 JUMPI PUSH2 0x177 PUSH2 0xB9E JUMP JUMPDEST JUMPDEST ADD DUP1 SLOAD PUSH2 0x184 SWAP1 PUSH2 0xBF8 JUMP JUMPDEST DUP1 PUSH1 0x1F ADD PUSH1 0x20 DUP1 SWAP2 DIV MUL PUSH1 0x20 ADD PUSH1 0x40 MLOAD SWAP1 DUP2 ADD PUSH1 0x40 MSTORE DUP1 SWAP3 SWAP2 SWAP1 DUP2 DUP2 MSTORE PUSH1 0x20 ADD DUP3 DUP1 SLOAD PUSH2 0x1B0 SWAP1 PUSH2 0xBF8 JUMP JUMPDEST DUP1 ISZERO PUSH2 0x1FB JUMPI DUP1 PUSH1 0x1F LT PUSH2 0x1D2 JUMPI PUSH2 0x100 DUP1 DUP4 SLOAD DIV MUL DUP4 MSTORE SWAP2 PUSH1 0x20 ADD SWAP2 PUSH2 0x1FB JUMP JUMPDEST DUP3 ADD SWAP2 SWAP1 PUSH0 MSTORE PUSH1 0x20 PUSH0 KECCAK256 SWAP1 JUMPDEST DUP2 SLOAD DUP2 MSTORE SWAP1 PUSH1 0x1 ADD SWAP1 PUSH1 0x20 ADD DUP1 DUP4 GT PUSH2 0x1DE JUMPI DUP3 SWAP1 SUB PUSH1 0x1F AND DUP3 ADD SWAP2 JUMPDEST POP POP POP POP POP PUSH2 0x636 JUMP JUMPDEST SWAP1 POP DUP2 DUP2 PUSH1 0x40 MLOAD PUSH1 0x20 ADD PUSH2 0x21A SWAP3 SWAP2 SWAP1 PUSH2 0xC6C JUMP JUMPDEST PUSH1 0x40 MLOAD PUSH1 0x20 DUP2 DUP4 SUB SUB DUP2 MSTORE SWAP1 PUSH1 0x40 MSTORE SWAP4 POP POP POP POP SWAP1 JUMP JUMPDEST PUSH32 0x0 DUP2 JUMP JUMPDEST PUSH1 0x60 PUSH2 0x283 DUP3 PUSH1 0x1 PUSH32 0xFFFFFFFFFFFFFFFFFFFFFFFFFFFFFFFFFFFFFFFFFFFFFFFFFFFFFFFFFFFFFFFF PUSH2 0x662 JUMP JUMPDEST SWAP1 POP SWAP2 SWAP1 POP JUMP JUMPDEST PUSH1 0x60 PUSH0 DUP4 SWAP1 POP PUSH2 0x377 DUP2 PUSH1 0x40 MLOAD DUP1 PUSH1 0x40 ADD PUSH1 0x40 MSTORE DUP1 PUSH1 0x3 DUP2 MSTORE PUSH1 0x20 ADD PUSH32 0x635F310000000000000000000000000000000000000000000000000000000000 DUP2 MSTORE POP PUSH0 PUSH1 0x1 PUSH1 0x3 DUP9 PUSH1 0xFF AND SWAP1 SHR AND PUSH1 0xFF AND PUSH1 0x2 DUP2 LT PUSH2 0x2EA JUMPI PUSH2 0x2E9 PUSH2 0xB9E JUMP JUMPDEST JUMPDEST ADD DUP1 SLOAD PUSH2 0x2F6 SWAP1 PUSH2 0xBF8 JUMP JUMPDEST DUP1 PUSH1 0x1F ADD PUSH1 0x20 DUP1 SWAP2 DIV MUL PUSH1 0x20 ADD PUSH1 0x40 MLOAD SWAP1 DUP2 ADD PUSH1 0x40 MSTORE DUP1 SWAP3 SWAP2 SWAP1 DUP2 DUP2 MSTORE PUSH1 0x20 ADD DUP3 DUP1 SLOAD PUSH2 0x322 SWAP1 PUSH2 0xBF8 JUMP JUMPDEST DUP1 ISZERO PUSH2 0x36D JUMPI DUP1 PUSH1 0x1F LT PUSH2 0x344 JUMPI PUSH2 0x100 DUP1 DUP4 SLOAD DIV MUL DUP4 MSTORE SWAP2 PUSH1 0x20 ADD SWAP2 PUSH2 0x36D JUMP JUMPDEST DUP3 ADD SWAP2 SWAP1 PUSH0 MSTORE PUSH1 0x20 PUSH0 KECCAK256 SWAP1 JUMPDEST DUP2 SLOAD DUP2 MSTORE SWAP1 PUSH1 0x1 ADD SWAP1 PUSH1 0x20 ADD DUP1 DUP4 GT PUSH2 0x350 JUMPI DUP3 SWAP1 SUB PUSH1 0x1F AND DUP3 ADD SWAP2 JUMPDEST POP POP POP POP POP PUSH2 0x740 JUMP JUMPDEST SWAP1 POP PUSH2 0x460 DUP2 PUSH1 0x40 MLOAD DUP1 PUSH1 0x40 ADD PUSH1 0x40 MSTORE DUP1 PUSH1 0x3 DUP2 MSTORE PUSH1 0x20 ADD PUSH32 0x635F320000000000000000000000000000000000000000000000000000000000 DUP2 MSTORE POP PUSH0 PUSH1 0x1 PUSH1 0x2 DUP9 PUSH1 0xFF AND SWAP1 SHR AND PUSH1 0xFF AND PUSH1 0x2 DUP2 LT PUSH2 0x3D3 JUMPI PUSH2 0x3D2 PUSH2 0xB9E JUMP JUMPDEST JUMPDEST ADD DUP1 SLOAD PUSH2 0x3DF SWAP1 PUSH2 0xBF8 JUMP JUMPDEST DUP1 PUSH1 0x1F ADD PUSH1 0x20 DUP1 SWAP2 DIV MUL PUSH1 0x20 ADD PUSH1 0x40 MLOAD SWAP1 DUP2 ADD PUSH1 0x40 MSTORE DUP1 SWAP3 SWAP2 SWAP1 DUP2 DUP2 MSTORE PUSH1 0x20 ADD DUP3 DUP1 SLOAD PUSH2 0x40B SWAP1 PUSH2 0xBF8 JUMP JUMPDEST DUP1 ISZERO PUSH2 0x456 JUMPI DUP1 PUSH1 0x1F LT PUSH2 0x42D JUMPI PUSH2 0x100 DUP1 DUP4 SLOAD DIV MUL DUP4 MSTORE SWAP2 PUSH1 0x20 ADD SWAP2 PUSH2 0x456 JUMP JUMPDEST DUP3 ADD SWAP2 SWAP1 PUSH0 MSTORE PUSH1 0x20 PUSH0 KECCAK256 SWAP1 JUMPDEST DUP2 SLOAD DUP2 MSTORE SWAP1 PUSH1 0x1 ADD SWAP1 PUSH1 0x20 ADD DUP1 DUP4 GT PUSH2 0x439 JUMPI DUP3 SWAP1 SUB PUSH1 0x1F AND DUP3 ADD SWAP2 JUMPDEST POP POP POP POP POP PUSH2 0x740 JUMP JUMPDEST SWAP1 POP PUSH2 0x548 DUP2 PUSH1 0x40 MLOAD DUP1 PUSH1 0x40 ADD PUSH1 0x40 MSTORE DUP1 PUSH1 0x3 DUP2 MSTORE PUSH1 0x20 ADD PUSH32 0x635F330000000000000000000000000000000000000000000000000000000000 DUP2 MSTORE POP PUSH0 PUSH1 0x1 DUP1 DUP9 PUSH1 0xFF AND SWAP1 SHR AND PUSH1 0xFF AND PUSH1 0x2 DUP2 LT PUSH2 0x4BB JUMPI PUSH2 0x4BA PUSH2 0xB9E JUMP JUMPDEST JUMPDEST ADD DUP1 SLOAD PUSH2 0x4C7 SWAP1 PUSH2 0xBF8 JUMP JUMPDEST DUP1 PUSH1 0x1F ADD PUSH1 0x20 DUP1 SWAP2 DIV MUL PUSH1 0x20 ADD PUSH1 0x40 MLOAD SWAP1 DUP2 ADD PUSH1 0x40 MSTORE DUP1 SWAP3 SWAP2 SWAP1 DUP2 DUP2 MSTORE PUSH1 0x20 ADD DUP3 DUP1 SLOAD PUSH2 0x4F3 SWAP1 PUSH2 0xBF8 JUMP JUMPDEST DUP1 ISZERO PUSH2 0x53E JUMPI DUP1 PUSH1 0x1F LT PUSH2 0x515 JUMPI PUSH2 0x100 DUP1 DUP4 SLOAD DIV MUL DUP4 MSTORE SWAP2 PUSH1 0x20 ADD SWAP2 PUSH2 0x53E JUMP JUMPDEST DUP3 ADD SWAP2 SWAP1 PUSH0 MSTORE PUSH1 0x20 PUSH0 KECCAK256 SWAP1 JUMPDEST DUP2 SLOAD DUP2 MSTORE SWAP1 PUSH1 0x1 ADD SWAP1 PUSH1 0x20 ADD DUP1 DUP4 GT PUSH2 0x521 JUMPI DUP3 SWAP1 SUB PUSH1 0x1F AND DUP3 ADD SWAP2 JUMPDEST POP POP POP POP POP PUSH2 0x740 JUMP JUMPDEST SWAP1 POP PUSH2 0x62A DUP2 PUSH1 0x40 MLOAD DUP1 PUSH1 0x40 ADD PUSH1 0x40 MSTORE DUP1 PUSH1 0x3 DUP2 MSTORE PUSH1 0x20 ADD PUSH32 0x635F340000000000000000000000000000000000000000000000000000000000 DUP2 MSTORE POP PUSH0 PUSH1 0x1 DUP8 AND PUSH1 0xFF AND PUSH1 0x2 DUP2 LT PUSH2 0x59D JUMPI PUSH2 0x59C PUSH2 0xB9E JUMP JUMPDEST JUMPDEST ADD DUP1 SLOAD PUSH2 0x5A9 SWAP1 PUSH2 0xBF8 JUMP JUMPDEST DUP1 PUSH1 0x1F ADD PUSH1 0x20 DUP1 SWAP2 DIV MUL PUSH1 0x20 ADD PUSH1 0x40 MLOAD SWAP1 DUP2 ADD PUSH1 0x40 MSTORE DUP1 SWAP3 SWAP2 SWAP1 DUP2 DUP2 MSTORE PUSH1 0x20 ADD DUP3 DUP1 SLOAD PUSH2 0x5D5 SWAP1 PUSH2 0xBF8 JUMP JUMPDEST DUP1 ISZERO PUSH2 0x620 JUMPI DUP1 PUSH1 0x1F LT PUSH2 0x5F7 JUMPI PUSH2 0x100 DUP1 DUP4 SLOAD DIV MUL DUP4 MSTORE SWAP2 PUSH1 0x20 ADD SWAP2 PUSH2 0x620 JUMP JUMPDEST DUP3 ADD SWAP2 SWAP1 PUSH0 MSTORE PUSH1 0x20 PUSH0 KECCAK256 SWAP1 JUMPDEST DUP2 SLOAD DUP2 MSTORE SWAP1 PUSH1 0x1 ADD SWAP1 PUSH1 0x20 ADD DUP1 DUP4 GT PUSH2 0x603 JUMPI DUP3 SWAP1 SUB PUSH1 0x1F AND DUP3 ADD SWAP2 JUMPDEST POP POP POP POP POP PUSH2 0x740 JUMP JUMPDEST SWAP1 POP DUP1 SWAP2 POP POP SWAP3 SWAP2 POP POP JUMP JUMPDEST PUSH1 0x60 DUP2 DUP4 PUSH1 0x40 MLOAD PUSH1 0x20 ADD PUSH2 0x64B SWAP3 SWAP2 SWAP1 PUSH2 0xDA7 JUMP JUMPDEST PUSH1 0x40 MLOAD PUSH1 0x20 DUP2 DUP4 SUB SUB DUP2 MSTORE SWAP1 PUSH1 0x40 MSTORE SWAP1 POP SWAP3 SWAP2 POP POP JUMP JUMPDEST PUSH1 0x60 PUSH0 PUSH2 0x66E DUP6 PUSH2 0xAAC JUMP JUMPDEST SWAP1 POP PUSH0 DUP2 SUB PUSH2 0x68E JUMPI PUSH1 0x40 MLOAD DUP1 PUSH1 0x20 ADD PUSH1 0x40 MSTORE DUP1 PUSH0 DUP2 MSTORE POP SWAP2 POP POP PUSH2 0x739 JUMP JUMPDEST DUP1 DUP5 GT ISZERO PUSH2 0x6AD JUMPI PUSH1 0x40 MLOAD DUP1 PUSH1 0x20 ADD PUSH1 0x40 MSTORE DUP1 PUSH0 DUP2 MSTORE POP SWAP2 POP POP PUSH2 0x739 JUMP JUMPDEST DUP4 DUP4 LT ISZERO PUSH2 0x6F6 JUMPI DUP1 DUP5 DUP5 PUSH1 0x40 MLOAD PUSH32 0x2C4A89FA00000000000000000000000000000000000000000000000000000000 DUP2 MSTORE PUSH1 0x4 ADD PUSH2 0x6ED SWAP4 SWAP3 SWAP2 SWAP1 PUSH2 0xE03 JUMP JUMPDEST PUSH1 0x40 MLOAD DUP1 SWAP2 SUB SWAP1 REVERT JUMPDEST PUSH0 DUP5 DUP5 SUB SWAP1 POP PUSH0 DUP6 DUP4 SUB SWAP1 POP PUSH0 DUP3 DUP3 LT PUSH2 0x710 JUMPI DUP3 PUSH2 0x712 JUMP JUMPDEST DUP2 JUMPDEST SWAP1 POP PUSH1 0x40 MLOAD SWAP5 POP PUSH1 0x1F NOT PUSH1 0x1F PUSH1 0x20 DUP4 ADD ADD AND DUP6 ADD PUSH1 0x40 MSTORE DUP1 DUP6 MSTORE DUP1 DUP8 PUSH1 0x20 DUP8 ADD DUP11 EXTCODECOPY POP POP POP POP JUMPDEST SWAP4 SWAP3 POP POP POP JUMP JUMPDEST PUSH1 0x60 PUSH0 DUP4 SWAP1 POP PUSH0 DUP4 SWAP1 POP PUSH0 DUP3 MLOAD DUP3 MLOAD GT PUSH2 0x75A JUMPI PUSH0 PUSH2 0x769 JUMP JUMPDEST DUP3 MLOAD DUP3 MLOAD PUSH2 0x768 SWAP2 SWAP1 PUSH2 0xE65 JUMP JUMPDEST JUMPDEST SWAP1 POP PUSH0 PUSH1 0x4 DUP3 PUSH2 0x779 SWAP2 SWAP1 PUSH2 0xE98 JUMP JUMPDEST DUP9 MLOAD PUSH2 0x785 SWAP2 SWAP1 PUSH2 0xED9 JUMP JUMPDEST PUSH8 0xFFFFFFFFFFFFFFFF DUP2 GT ISZERO PUSH2 0x79E JUMPI PUSH2 0x79D PUSH2 0xF0C JUMP JUMPDEST JUMPDEST PUSH1 0x40 MLOAD SWAP1 DUP1 DUP3 MSTORE DUP1 PUSH1 0x1F ADD PUSH1 0x1F NOT AND PUSH1 0x20 ADD DUP3 ADD PUSH1 0x40 MSTORE DUP1 ISZERO PUSH2 0x7D0 JUMPI DUP2 PUSH1 0x20 ADD PUSH1 0x1 DUP3 MUL DUP1 CALLDATASIZE DUP4 CALLDATACOPY DUP1 DUP3 ADD SWAP2 POP POP SWAP1 POP JUMPDEST POP SWAP1 POP PUSH0 DUP1 JUMPDEST DUP10 MLOAD DUP2 LT ISZERO PUSH2 0x9D6 JUMPI PUSH0 PUSH1 0x1 SWAP1 POP DUP11 MLOAD DUP8 MLOAD DUP4 PUSH2 0x7F3 SWAP2 SWAP1 PUSH2 0xED9 JUMP JUMPDEST GT ISZERO PUSH2 0x801 JUMPI PUSH0 SWAP1 POP PUSH2 0x8BC JUMP JUMPDEST PUSH0 JUMPDEST DUP8 MLOAD DUP2 LT DUP1 ISZERO PUSH2 0x810 JUMPI POP DUP2 JUMPDEST ISZERO PUSH2 0x8BA JUMPI DUP8 DUP2 DUP2 MLOAD DUP2 LT PUSH2 0x828 JUMPI PUSH2 0x827 PUSH2 0xB9E JUMP JUMPDEST JUMPDEST PUSH1 0x20 ADD ADD MLOAD PUSH1 0xF8 SHR PUSH1 0xF8 SHL PUSH31 0xFFFFFFFFFFFFFFFFFFFFFFFFFFFFFFFFFFFFFFFFFFFFFFFFFFFFFFFFFFFFFF NOT AND DUP13 DUP3 DUP6 PUSH2 0x862 SWAP2 SWAP1 PUSH2 0xED9 JUMP JUMPDEST DUP2 MLOAD DUP2 LT PUSH2 0x873 JUMPI PUSH2 0x872 PUSH2 0xB9E JUMP JUMPDEST JUMPDEST PUSH1 0x20 ADD ADD MLOAD PUSH1 0xF8 SHR PUSH1 0xF8 SHL PUSH31 0xFFFFFFFFFFFFFFFFFFFFFFFFFFFFFFFFFFFFFFFFFFFFFFFFFFFFFFFFFFFFFF NOT AND EQ PUSH2 0x8A9 JUMPI PUSH0 SWAP2 POP JUMPDEST DUP1 PUSH2 0x8B3 SWAP1 PUSH2 0xF39 JUMP JUMPDEST SWAP1 POP PUSH2 0x803 JUMP JUMPDEST POP JUMPDEST DUP1 ISZERO PUSH2 0x958 JUMPI PUSH0 JUMPDEST DUP7 MLOAD DUP2 LT ISZERO PUSH2 0x943 JUMPI DUP7 DUP2 DUP2 MLOAD DUP2 LT PUSH2 0x8E0 JUMPI PUSH2 0x8DF PUSH2 0xB9E JUMP JUMPDEST JUMPDEST PUSH1 0x20 ADD ADD MLOAD PUSH1 0xF8 SHR PUSH1 0xF8 SHL DUP6 DUP6 DUP1 PUSH2 0x8F7 SWAP1 PUSH2 0xF39 JUMP JUMPDEST SWAP7 POP DUP2 MLOAD DUP2 LT PUSH2 0x90A JUMPI PUSH2 0x909 PUSH2 0xB9E JUMP JUMPDEST JUMPDEST PUSH1 0x20 ADD ADD SWAP1 PUSH31 0xFFFFFFFFFFFFFFFFFFFFFFFFFFFFFFFFFFFFFFFFFFFFFFFFFFFFFFFFFFFFFF NOT AND SWAP1 DUP2 PUSH0 BYTE SWAP1 MSTORE8 POP DUP1 PUSH1 0x1 ADD SWAP1 POP PUSH2 0x8C4 JUMP JUMPDEST POP DUP7 MLOAD DUP3 PUSH2 0x951 SWAP2 SWAP1 PUSH2 0xED9 JUMP JUMPDEST SWAP2 POP PUSH2 0x9D0 JUMP JUMPDEST DUP11 DUP3 DUP1 PUSH2 0x964 SWAP1 PUSH2 0xF39 JUMP JUMPDEST SWAP4 POP DUP2 MLOAD DUP2 LT PUSH2 0x977 JUMPI PUSH2 0x976 PUSH2 0xB9E JUMP JUMPDEST JUMPDEST PUSH1 0x20 ADD ADD MLOAD PUSH1 0xF8 SHR PUSH1 0xF8 SHL DUP5 DUP5 DUP1 PUSH2 0x98E SWAP1 PUSH2 0xF39 JUMP JUMPDEST SWAP6 POP DUP2 MLOAD DUP2 LT PUSH2 0x9A1 JUMPI PUSH2 0x9A0 PUSH2 0xB9E JUMP JUMPDEST JUMPDEST PUSH1 0x20 ADD ADD SWAP1 PUSH31 0xFFFFFFFFFFFFFFFFFFFFFFFFFFFFFFFFFFFFFFFFFFFFFFFFFFFFFFFFFFFFFF NOT AND SWAP1 DUP2 PUSH0 BYTE SWAP1 MSTORE8 POP JUMPDEST POP PUSH2 0x7D6 JUMP JUMPDEST POP PUSH0 DUP2 PUSH8 0xFFFFFFFFFFFFFFFF DUP2 GT ISZERO PUSH2 0x9F2 JUMPI PUSH2 0x9F1 PUSH2 0xF0C JUMP JUMPDEST JUMPDEST PUSH1 0x40 MLOAD SWAP1 DUP1 DUP3 MSTORE DUP1 PUSH1 0x1F ADD PUSH1 0x1F NOT AND PUSH1 0x20 ADD DUP3 ADD PUSH1 0x40 MSTORE DUP1 ISZERO PUSH2 0xA24 JUMPI DUP2 PUSH1 0x20 ADD PUSH1 0x1 DUP3 MUL DUP1 CALLDATASIZE DUP4 CALLDATACOPY DUP1 DUP3 ADD SWAP2 POP POP SWAP1 POP JUMPDEST POP SWAP1 POP PUSH0 JUMPDEST DUP3 DUP2 LT ISZERO PUSH2 0xA9B JUMPI DUP4 DUP2 DUP2 MLOAD DUP2 LT PUSH2 0xA44 JUMPI PUSH2 0xA43 PUSH2 0xB9E JUMP JUMPDEST JUMPDEST PUSH1 0x20 ADD ADD MLOAD PUSH1 0xF8 SHR PUSH1 0xF8 SHL DUP3 DUP3 DUP2 MLOAD DUP2 LT PUSH2 0xA62 JUMPI PUSH2 0xA61 PUSH2 0xB9E JUMP JUMPDEST JUMPDEST PUSH1 0x20 ADD ADD SWAP1 PUSH31 0xFFFFFFFFFFFFFFFFFFFFFFFFFFFFFFFFFFFFFFFFFFFFFFFFFFFFFFFFFFFFFF NOT AND SWAP1 DUP2 PUSH0 BYTE SWAP1 MSTORE8 POP DUP1 PUSH1 0x1 ADD SWAP1 POP PUSH2 0xA29 JUMP JUMPDEST POP DUP1 SWAP7 POP POP POP POP POP POP POP SWAP4 SWAP3 POP POP POP JUMP JUMPDEST PUSH0 DUP2 EXTCODESIZE SWAP1 POP SWAP2 SWAP1 POP JUMP JUMPDEST PUSH0 DUP2 MLOAD SWAP1 POP SWAP2 SWAP1 POP JUMP JUMPDEST PUSH0 DUP3 DUP3 MSTORE PUSH1 0x20 DUP3 ADD SWAP1 POP SWAP3 SWAP2 POP POP JUMP JUMPDEST DUP3 DUP2 DUP4 MCOPY PUSH0 DUP4 DUP4 ADD MSTORE POP POP POP JUMP JUMPDEST PUSH0 PUSH1 0x1F NOT PUSH1 0x1F DUP4 ADD AND SWAP1 POP SWAP2 SWAP1 POP JUMP JUMPDEST PUSH0 PUSH2 0xAF8 DUP3 PUSH2 0xAB6 JUMP JUMPDEST PUSH2 0xB02 DUP2 DUP6 PUSH2 0xAC0 JUMP JUMPDEST SWAP4 POP PUSH2 0xB12 DUP2 DUP6 PUSH1 0x20 DUP7 ADD PUSH2 0xAD0 JUMP JUMPDEST PUSH2 0xB1B DUP2 PUSH2 0xADE JUMP JUMPDEST DUP5 ADD SWAP2 POP POP SWAP3 SWAP2 POP POP JUMP JUMPDEST PUSH0 PUSH1 0x20 DUP3 ADD SWAP1 POP DUP2 DUP2 SUB PUSH0 DUP4 ADD MSTORE PUSH2 0xB3E DUP2 DUP5 PUSH2 0xAEE JUMP JUMPDEST SWAP1 POP SWAP3 SWAP2 POP POP JUMP JUMPDEST PUSH0 PUSH20 0xFFFFFFFFFFFFFFFFFFFFFFFFFFFFFFFFFFFFFFFF DUP3 AND SWAP1 POP SWAP2 SWAP1 POP JUMP JUMPDEST PUSH0 PUSH2 0xB6F DUP3 PUSH2 0xB46 JUMP JUMPDEST SWAP1 POP SWAP2 SWAP1 POP JUMP JUMPDEST PUSH2 0xB7F DUP2 PUSH2 0xB65 JUMP JUMPDEST DUP3 MSTORE POP POP JUMP JUMPDEST PUSH0 PUSH1 0x20 DUP3 ADD SWAP1 POP PUSH2 0xB98 PUSH0 DUP4 ADD DUP5 PUSH2 0xB76 JUMP JUMPDEST SWAP3 SWAP2 POP POP JUMP JUMPDEST PUSH32 0x4E487B7100000000000000000000000000000000000000000000000000000000 PUSH0 MSTORE PUSH1 0x32 PUSH1 0x4 MSTORE PUSH1 0x24 PUSH0 REVERT JUMPDEST PUSH32 0x4E487B7100000000000000000000000000000000000000000000000000000000 PUSH0 MSTORE PUSH1 0x22 PUSH1 0x4 MSTORE PUSH1 0x24 PUSH0 REVERT JUMPDEST PUSH0 PUSH1 0x2 DUP3 DIV SWAP1 POP PUSH1 0x1 DUP3 AND DUP1 PUSH2 0xC0F JUMPI PUSH1 0x7F DUP3 AND SWAP2 POP JUMPDEST PUSH1 0x20 DUP3 LT DUP2 SUB PUSH2 0xC22 JUMPI PUSH2 0xC21 PUSH2 0xBCB JUMP JUMPDEST JUMPDEST POP SWAP2 SWAP1 POP JUMP JUMPDEST PUSH0 DUP2 MLOAD SWAP1 POP SWAP2 SWAP1 POP JUMP JUMPDEST PUSH0 DUP2 SWAP1 POP SWAP3 SWAP2 POP POP JUMP JUMPDEST PUSH0 PUSH2 0xC46 DUP3 PUSH2 0xC28 JUMP JUMPDEST PUSH2 0xC50 DUP2 DUP6 PUSH2 0xC32 JUMP JUMPDEST SWAP4 POP PUSH2 0xC60 DUP2 DUP6 PUSH1 0x20 DUP7 ADD PUSH2 0xAD0 JUMP JUMPDEST DUP1 DUP5 ADD SWAP2 POP POP SWAP3 SWAP2 POP POP JUMP JUMPDEST PUSH0 PUSH2 0xC77 DUP3 DUP6 PUSH2 0xC3C JUMP JUMPDEST SWAP2 POP PUSH2 0xC83 DUP3 DUP5 PUSH2 0xC3C JUMP JUMPDEST SWAP2 POP DUP2 SWAP1 POP SWAP4 SWAP3 POP POP POP JUMP JUMPDEST PUSH0 DUP2 SWAP1 POP SWAP3 SWAP2 POP POP JUMP JUMPDEST PUSH32 0x3C67207472616E73666F726D3D22726F74617465280000000000000000000000 PUSH0 DUP3 ADD MSTORE POP JUMP JUMPDEST PUSH0 PUSH2 0xCCD PUSH1 0x15 DUP4 PUSH2 0xC8F JUMP JUMPDEST SWAP2 POP PUSH2 0xCD8 DUP3 PUSH2 0xC99 JUMP JUMPDEST PUSH1 0x15 DUP3 ADD SWAP1 POP SWAP2 SWAP1 POP JUMP JUMPDEST PUSH0 PUSH2 0xCED DUP3 PUSH2 0xAB6 JUMP JUMPDEST PUSH2 0xCF7 DUP2 DUP6 PUSH2 0xC8F JUMP JUMPDEST SWAP4 POP PUSH2 0xD07 DUP2 DUP6 PUSH1 0x20 DUP7 ADD PUSH2 0xAD0 JUMP JUMPDEST DUP1 DUP5 ADD SWAP2 POP POP SWAP3 SWAP2 POP POP JUMP JUMPDEST PUSH32 0x203531322035313229223E000000000000000000000000000000000000000000 PUSH0 DUP3 ADD MSTORE POP JUMP JUMPDEST PUSH0 PUSH2 0xD47 PUSH1 0xB DUP4 PUSH2 0xC8F JUMP JUMPDEST SWAP2 POP PUSH2 0xD52 DUP3 PUSH2 0xD13 JUMP JUMPDEST PUSH1 0xB DUP3 ADD SWAP1 POP SWAP2 SWAP1 POP JUMP JUMPDEST PUSH32 0x3C2F673E00000000000000000000000000000000000000000000000000000000 PUSH0 DUP3 ADD MSTORE POP JUMP JUMPDEST PUSH0 PUSH2 0xD91 PUSH1 0x4 DUP4 PUSH2 0xC8F JUMP JUMPDEST SWAP2 POP PUSH2 0xD9C DUP3 PUSH2 0xD5D JUMP JUMPDEST PUSH1 0x4 DUP3 ADD SWAP1 POP SWAP2 SWAP1 POP JUMP JUMPDEST PUSH0 PUSH2 0xDB1 DUP3 PUSH2 0xCC1 JUMP JUMPDEST SWAP2 POP PUSH2 0xDBD DUP3 DUP6 PUSH2 0xCE3 JUMP JUMPDEST SWAP2 POP PUSH2 0xDC8 DUP3 PUSH2 0xD3B JUMP JUMPDEST SWAP2 POP PUSH2 0xDD4 DUP3 DUP5 PUSH2 0xC3C JUMP JUMPDEST SWAP2 POP PUSH2 0xDDF DUP3 PUSH2 0xD85 JUMP JUMPDEST SWAP2 POP DUP2 SWAP1 POP SWAP4 SWAP3 POP POP POP JUMP JUMPDEST PUSH0 DUP2 SWAP1 POP SWAP2 SWAP1 POP JUMP JUMPDEST PUSH2 0xDFD DUP2 PUSH2 0xDEB JUMP JUMPDEST DUP3 MSTORE POP POP JUMP JUMPDEST PUSH0 PUSH1 0x60 DUP3 ADD SWAP1 POP PUSH2 0xE16 PUSH0 DUP4 ADD DUP7 PUSH2 0xDF4 JUMP JUMPDEST PUSH2 0xE23 PUSH1 0x20 DUP4 ADD DUP6 PUSH2 0xDF4 JUMP JUMPDEST PUSH2 0xE30 PUSH1 0x40 DUP4 ADD DUP5 PUSH2 0xDF4 JUMP JUMPDEST SWAP5 SWAP4 POP POP POP POP JUMP JUMPDEST PUSH32 0x4E487B7100000000000000000000000000000000000000000000000000000000 PUSH0 MSTORE PUSH1 0x11 PUSH1 0x4 MSTORE PUSH1 0x24 PUSH0 REVERT JUMPDEST PUSH0 PUSH2 0xE6F DUP3 PUSH2 0xDEB JUMP JUMPDEST SWAP2 POP PUSH2 0xE7A DUP4 PUSH2 0xDEB JUMP JUMPDEST SWAP3 POP DUP3 DUP3 SUB SWAP1 POP DUP2 DUP2 GT ISZERO PUSH2 0xE92 JUMPI PUSH2 0xE91 PUSH2 0xE38 JUMP JUMPDEST JUMPDEST SWAP3 SWAP2 POP POP JUMP JUMPDEST PUSH0 PUSH2 0xEA2 DUP3 PUSH2 0xDEB JUMP JUMPDEST SWAP2 POP PUSH2 0xEAD DUP4 PUSH2 0xDEB JUMP JUMPDEST SWAP3 POP DUP3 DUP3 MUL PUSH2 0xEBB DUP2 PUSH2 0xDEB JUMP JUMPDEST SWAP2 POP DUP3 DUP3 DIV DUP5 EQ DUP4 ISZERO OR PUSH2 0xED2 JUMPI PUSH2 0xED1 PUSH2 0xE38 JUMP JUMPDEST JUMPDEST POP SWAP3 SWAP2 POP POP JUMP JUMPDEST PUSH0 PUSH2 0xEE3 DUP3 PUSH2 0xDEB JUMP JUMPDEST SWAP2 POP PUSH2 0xEEE DUP4 PUSH2 0xDEB JUMP JUMPDEST SWAP3 POP DUP3 DUP3 ADD SWAP1 POP DUP1 DUP3 GT ISZERO PUSH2 0xF06 JUMPI PUSH2 0xF05 PUSH2 0xE38 JUMP JUMPDEST JUMPDEST SWAP3 SWAP2 POP POP JUMP JUMPDEST PUSH32 0x4E487B7100000000000000000000000000000000000000000000000000000000 PUSH0 MSTORE PUSH1 0x41 PUSH1 0x4 MSTORE PUSH1 0x24 PUSH0 REVERT JUMPDEST PUSH0 PUSH2 0xF43 DUP3 PUSH2 0xDEB JUMP JUMPDEST SWAP2 POP PUSH32 0xFFFFFFFFFFFFFFFFFFFFFFFFFFFFFFFFFFFFFFFFFFFFFFFFFFFFFFFFFFFFFFFF DUP3 SUB PUSH2 0xF75 JUMPI PUSH2 0xF74 PUSH2 0xE38 JUMP JUMPDEST JUMPDEST PUSH1 0x1 DUP3 ADD SWAP1 POP SWAP2 SWAP1 POP JUMP INVALID LOG2 PUSH5 0x6970667358 0x22 SLT KECCAK256 DUP5 DUP2 0xE7 PUSH25 0xE1C875DD53D5050AD5111C37B189E1020AD0E2BBB4C61817 MSTORE8 PUSH29 0xB864736F6C634300081A00330000000000000000000000000000000000 "
				},
				"gasEstimates": {
					"creation": {
						"codeDepositCost": "804400",
						"executionCost": "infinite",
						"totalCost": "infinite"
					},
					"external": {
						"getSVG()": "infinite",
						"sectorPtr()": "infinite"
					},
					"internal": {
						"_applyColor(bytes memory,uint8)": "infinite",
						"_subst(bytes memory,string memory,string memory)": "infinite",
						"_wrap(bytes memory,string memory)": "infinite"
					}
				},
				"methodIdentifiers": {
					"getSVG()": "489187e8",
					"sectorPtr()": "e9734902"
				}
			},
			"storageLayout": {
				"storage": [
					{
						"astId": 11,
						"contract": "contracts/HashJingViewer.sol:TwoSectorRenderer",
						"label": "PAL",
						"offset": 0,
						"slot": "0",
						"type": "t_array(t_string_storage)2_storage"
					},
					{
						"astId": 18,
						"contract": "contracts/HashJingViewer.sol:TwoSectorRenderer",
						"label": "ANG",
						"offset": 0,
						"slot": "2",
						"type": "t_array(t_string_storage)2_storage"
					}
				],
				"types": {
					"t_array(t_string_storage)2_storage": {
						"base": "t_string_storage",
						"encoding": "inplace",
						"label": "string[2]",
						"numberOfBytes": "64"
					},
					"t_string_storage": {
						"encoding": "bytes",
						"label": "string",
						"numberOfBytes": "32"
					}
				}
			},
			"userdoc": {
				"kind": "user",
				"methods": {
					"getSVG()": {
						"notice": "Возвращает SVG-фрагмент из **двух** секторов 0101 (0b0101) ↔ c1=#fff, c2=#000, c3=#fff, c4=#000 1001 (0b1001) ↔ c1=#000, c2=#fff, c3=#fff, c4=#000"
					}
				},
				"version": 1
			}
		}
	}
}