{
	"contracts/HashJingViewer.sol": {
		"HashJingViewer": {
			"abi": [
				{
					"inputs": [
						{
							"internalType": "address",
							"name": "_chunk1",
							"type": "address"
						}
					],
					"stateMutability": "nonpayable",
					"type": "constructor"
				},
				{
					"inputs": [
						{
							"internalType": "uint256",
							"name": "_size",
							"type": "uint256"
						},
						{
							"internalType": "uint256",
							"name": "_start",
							"type": "uint256"
						},
						{
							"internalType": "uint256",
							"name": "_end",
							"type": "uint256"
						}
					],
					"name": "InvalidCodeAtRange",
					"type": "error"
				},
				{
					"inputs": [],
					"name": "chunk1",
					"outputs": [
						{
							"internalType": "address",
							"name": "",
							"type": "address"
						}
					],
					"stateMutability": "view",
					"type": "function"
				},
				{
					"inputs": [],
					"name": "getSVG",
					"outputs": [
						{
							"internalType": "string",
							"name": "",
							"type": "string"
						}
					],
					"stateMutability": "view",
					"type": "function"
				}
			],
			"devdoc": {
				"kind": "dev",
				"methods": {},
				"version": 1
			},
			"evm": {
				"assembly": "    /* \"contracts/HashJingViewer.sol\":166:1355  contract HashJingViewer {... */\n  mstore(0x40, 0xa0)\n    /* \"contracts/HashJingViewer.sol\":234:296  constructor(address _chunk1) {... */\n  callvalue\n  dup1\n  iszero\n  tag_1\n  jumpi\n  0x00\n  dup1\n  revert\ntag_1:\n  pop\n  mload(0x40)\n  sub(codesize, bytecodeSize)\n  dup1\n  bytecodeSize\n  dup4\n  codecopy\n  dup2\n  dup2\n  add\n  0x40\n  mstore\n  dup2\n  add\n  swap1\n  tag_2\n  swap2\n  swap1\n  tag_3\n  jump\t// in\ntag_2:\n    /* \"contracts/HashJingViewer.sol\":282:289  _chunk1 */\n  dup1\n    /* \"contracts/HashJingViewer.sol\":273:289  chunk1 = _chunk1 */\n  0xffffffffffffffffffffffffffffffffffffffff\n  and\n  0x80\n  dup2\n  0xffffffffffffffffffffffffffffffffffffffff\n  and\n  dup2\n  mstore\n  pop\n  pop\n    /* \"contracts/HashJingViewer.sol\":234:296  constructor(address _chunk1) {... */\n  pop\n    /* \"contracts/HashJingViewer.sol\":166:1355  contract HashJingViewer {... */\n  jump(tag_6)\n    /* \"#utility.yul\":88:205   */\ntag_8:\n    /* \"#utility.yul\":197:198   */\n  0x00\n    /* \"#utility.yul\":194:195   */\n  dup1\n    /* \"#utility.yul\":187:199   */\n  revert\n    /* \"#utility.yul\":334:460   */\ntag_10:\n    /* \"#utility.yul\":371:378   */\n  0x00\n    /* \"#utility.yul\":411:453   */\n  0xffffffffffffffffffffffffffffffffffffffff\n    /* \"#utility.yul\":404:409   */\n  dup3\n    /* \"#utility.yul\":400:454   */\n  and\n    /* \"#utility.yul\":389:454   */\n  swap1\n  pop\n    /* \"#utility.yul\":334:460   */\n  swap2\n  swap1\n  pop\n  jump\t// out\n    /* \"#utility.yul\":466:562   */\ntag_11:\n    /* \"#utility.yul\":503:510   */\n  0x00\n    /* \"#utility.yul\":532:556   */\n  tag_20\n    /* \"#utility.yul\":550:555   */\n  dup3\n    /* \"#utility.yul\":532:556   */\n  tag_10\n  jump\t// in\ntag_20:\n    /* \"#utility.yul\":521:556   */\n  swap1\n  pop\n    /* \"#utility.yul\":466:562   */\n  swap2\n  swap1\n  pop\n  jump\t// out\n    /* \"#utility.yul\":568:690   */\ntag_12:\n    /* \"#utility.yul\":641:665   */\n  tag_22\n    /* \"#utility.yul\":659:664   */\n  dup2\n    /* \"#utility.yul\":641:665   */\n  tag_11\n  jump\t// in\ntag_22:\n    /* \"#utility.yul\":634:639   */\n  dup2\n    /* \"#utility.yul\":631:666   */\n  eq\n    /* \"#utility.yul\":621:684   */\n  tag_23\n  jumpi\n    /* \"#utility.yul\":680:681   */\n  0x00\n    /* \"#utility.yul\":677:678   */\n  dup1\n    /* \"#utility.yul\":670:682   */\n  revert\n    /* \"#utility.yul\":621:684   */\ntag_23:\n    /* \"#utility.yul\":568:690   */\n  pop\n  jump\t// out\n    /* \"#utility.yul\":696:839   */\ntag_13:\n    /* \"#utility.yul\":753:758   */\n  0x00\n    /* \"#utility.yul\":784:790   */\n  dup2\n    /* \"#utility.yul\":778:791   */\n  mload\n    /* \"#utility.yul\":769:791   */\n  swap1\n  pop\n    /* \"#utility.yul\":800:833   */\n  tag_25\n    /* \"#utility.yul\":827:832   */\n  dup2\n    /* \"#utility.yul\":800:833   */\n  tag_12\n  jump\t// in\ntag_25:\n    /* \"#utility.yul\":696:839   */\n  swap3\n  swap2\n  pop\n  pop\n  jump\t// out\n    /* \"#utility.yul\":845:1196   */\ntag_3:\n    /* \"#utility.yul\":915:921   */\n  0x00\n    /* \"#utility.yul\":964:966   */\n  0x20\n    /* \"#utility.yul\":952:961   */\n  dup3\n    /* \"#utility.yul\":943:950   */\n  dup5\n    /* \"#utility.yul\":939:962   */\n  sub\n    /* \"#utility.yul\":935:967   */\n  slt\n    /* \"#utility.yul\":932:1051   */\n  iszero\n  tag_27\n  jumpi\n    /* \"#utility.yul\":970:1049   */\n  tag_28\n  tag_8\n  jump\t// in\ntag_28:\n    /* \"#utility.yul\":932:1051   */\ntag_27:\n    /* \"#utility.yul\":1090:1091   */\n  0x00\n    /* \"#utility.yul\":1115:1179   */\n  tag_29\n    /* \"#utility.yul\":1171:1178   */\n  dup5\n    /* \"#utility.yul\":1162:1168   */\n  dup3\n    /* \"#utility.yul\":1151:1160   */\n  dup6\n    /* \"#utility.yul\":1147:1169   */\n  add\n    /* \"#utility.yul\":1115:1179   */\n  tag_13\n  jump\t// in\ntag_29:\n    /* \"#utility.yul\":1105:1179   */\n  swap2\n  pop\n    /* \"#utility.yul\":1061:1189   */\n  pop\n    /* \"#utility.yul\":845:1196   */\n  swap3\n  swap2\n  pop\n  pop\n  jump\t// out\n    /* \"contracts/HashJingViewer.sol\":166:1355  contract HashJingViewer {... */\ntag_6:\n  mload(0x80)\n  codecopy(0x00, dataOffset(sub_0), dataSize(sub_0))\n  0x00\n  assignImmutable(\"0x1a192fabce13988b84994d4296e6cdc418d55e2f1d7f942188d4040b94fc57ac\")\n  return(0x00, dataSize(sub_0))\nstop\n\nsub_0: assembly {\n        /* \"contracts/HashJingViewer.sol\":166:1355  contract HashJingViewer {... */\n      mstore(0x40, 0x80)\n      callvalue\n      dup1\n      iszero\n      tag_1\n      jumpi\n      0x00\n      dup1\n      revert\n    tag_1:\n      pop\n      jumpi(tag_2, lt(calldatasize, 0x04))\n      shr(0xe0, calldataload(0x00))\n      dup1\n      0x27ba0af7\n      eq\n      tag_3\n      jumpi\n      dup1\n      0x489187e8\n      eq\n      tag_4\n      jumpi\n    tag_2:\n      0x00\n      dup1\n      revert\n        /* \"contracts/HashJingViewer.sol\":196:227  address public immutable chunk1 */\n    tag_3:\n      tag_5\n      tag_6\n      jump\t// in\n    tag_5:\n      mload(0x40)\n      tag_7\n      swap2\n      swap1\n      tag_8\n      jump\t// in\n    tag_7:\n      mload(0x40)\n      dup1\n      swap2\n      sub\n      swap1\n      return\n        /* \"contracts/HashJingViewer.sol\":302:474  function getSVG() external view returns (string memory) {... */\n    tag_4:\n      tag_9\n      tag_10\n      jump\t// in\n    tag_9:\n      mload(0x40)\n      tag_11\n      swap2\n      swap1\n      tag_12\n      jump\t// in\n    tag_11:\n      mload(0x40)\n      dup1\n      swap2\n      sub\n      swap1\n      return\n        /* \"contracts/HashJingViewer.sol\":196:227  address public immutable chunk1 */\n    tag_6:\n      immutable(\"0x1a192fabce13988b84994d4296e6cdc418d55e2f1d7f942188d4040b94fc57ac\")\n      dup2\n      jump\t// out\n        /* \"contracts/HashJingViewer.sol\":302:474  function getSVG() external view returns (string memory) {... */\n    tag_10:\n        /* \"contracts/HashJingViewer.sol\":343:356  string memory */\n      0x60\n        /* \"contracts/HashJingViewer.sol\":368:384  bytes memory svg */\n      dup1\n        /* \"contracts/HashJingViewer.sol\":414:417  svg */\n      dup1\n        /* \"contracts/HashJingViewer.sol\":419:437  tryRead(chunk1, 1) */\n      tag_14\n        /* \"contracts/HashJingViewer.sol\":427:433  chunk1 */\n      immutable(\"0x1a192fabce13988b84994d4296e6cdc418d55e2f1d7f942188d4040b94fc57ac\")\n        /* \"contracts/HashJingViewer.sol\":435:436  1 */\n      0x01\n        /* \"contracts/HashJingViewer.sol\":419:426  tryRead */\n      tag_15\n        /* \"contracts/HashJingViewer.sol\":419:437  tryRead(chunk1, 1) */\n      jump\t// in\n    tag_14:\n        /* \"contracts/HashJingViewer.sol\":401:438  bytes.concat(svg, tryRead(chunk1, 1)) */\n      add(0x20, mload(0x40))\n      tag_16\n      swap3\n      swap2\n      swap1\n      tag_17\n      jump\t// in\n    tag_16:\n      mload(0x40)\n      0x20\n      dup2\n      dup4\n      sub\n      sub\n      dup2\n      mstore\n      swap1\n      0x40\n      mstore\n        /* \"contracts/HashJingViewer.sol\":395:438  svg = bytes.concat(svg, tryRead(chunk1, 1)) */\n      swap1\n      pop\n        /* \"contracts/HashJingViewer.sol\":463:466  svg */\n      dup1\n        /* \"contracts/HashJingViewer.sol\":449:467  return string(svg) */\n      swap2\n      pop\n      pop\n        /* \"contracts/HashJingViewer.sol\":302:474  function getSVG() external view returns (string memory) {... */\n      swap1\n      jump\t// out\n        /* \"contracts/HashJingViewer.sol\":480:784  function tryRead(address chunk, uint8 index) internal view returns (bytes memory) {... */\n    tag_15:\n        /* \"contracts/HashJingViewer.sol\":548:560  bytes memory */\n      0x60\n        /* \"contracts/HashJingViewer.sol\":585:590  chunk */\n      dup3\n        /* \"contracts/HashJingViewer.sol\":576:602  IStorage(chunk).getPointer */\n      0xffffffffffffffffffffffffffffffffffffffff\n      and\n      0xa32a3ee4\n        /* \"contracts/HashJingViewer.sol\":576:604  IStorage(chunk).getPointer() */\n      mload(0x40)\n      dup2\n      0xffffffff\n      and\n      0xe0\n      shl\n      dup2\n      mstore\n      0x04\n      add\n      0x20\n      mload(0x40)\n      dup1\n      dup4\n      sub\n      dup2\n      dup7\n      gas\n      staticcall\n      swap3\n      pop\n      pop\n      pop\n      dup1\n      iszero\n      tag_19\n      jumpi\n      pop\n      mload(0x40)\n      returndatasize\n      not(0x1f)\n      0x1f\n      dup3\n      add\n      and\n      dup3\n      add\n      dup1\n      0x40\n      mstore\n      pop\n      dup2\n      add\n      swap1\n      tag_20\n      swap2\n      swap1\n      tag_21\n      jump\t// in\n    tag_20:\n      0x01\n    tag_19:\n        /* \"contracts/HashJingViewer.sol\":572:778  try IStorage(chunk).getPointer() returns (address ptr) {... */\n      tag_22\n      jumpi\n        /* \"contracts/HashJingViewer.sol\":749:764  toString(index) */\n      tag_26\n        /* \"contracts/HashJingViewer.sol\":758:763  index */\n      dup3\n        /* \"contracts/HashJingViewer.sol\":749:764  toString(index) */\n      0xff\n      and\n        /* \"contracts/HashJingViewer.sol\":749:757  toString */\n      tag_27\n        /* \"contracts/HashJingViewer.sol\":749:764  toString(index) */\n      jump\t// in\n    tag_26:\n        /* \"contracts/HashJingViewer.sol\":711:765  abi.encodePacked(\"Failed on chunk #\", toString(index)) */\n      add(0x20, mload(0x40))\n      tag_28\n      swap2\n      swap1\n      tag_29\n      jump\t// in\n    tag_28:\n      mload(0x40)\n      0x20\n      dup2\n      dup4\n      sub\n      sub\n      dup2\n      mstore\n      swap1\n      0x40\n      mstore\n        /* \"contracts/HashJingViewer.sol\":697:767  revert(string(abi.encodePacked(\"Failed on chunk #\", toString(index)))) */\n      mload(0x40)\n      0x08c379a000000000000000000000000000000000000000000000000000000000\n      dup2\n      mstore\n      0x04\n      add\n      tag_30\n      swap2\n      swap1\n      tag_12\n      jump\t// in\n    tag_30:\n      mload(0x40)\n      dup1\n      swap2\n      sub\n      swap1\n      revert\n        /* \"contracts/HashJingViewer.sol\":572:778  try IStorage(chunk).getPointer() returns (address ptr) {... */\n    tag_22:\n        /* \"contracts/HashJingViewer.sol\":648:665  SSTORE2.read(ptr) */\n      tag_32\n        /* \"contracts/HashJingViewer.sol\":661:664  ptr */\n      dup2\n        /* \"contracts/HashJingViewer.sol\":648:660  SSTORE2.read */\n      tag_33\n        /* \"contracts/HashJingViewer.sol\":648:665  SSTORE2.read(ptr) */\n      jump\t// in\n    tag_32:\n        /* \"contracts/HashJingViewer.sol\":641:665  return SSTORE2.read(ptr) */\n      swap2\n      pop\n      pop\n        /* \"contracts/HashJingViewer.sol\":480:784  function tryRead(address chunk, uint8 index) internal view returns (bytes memory) {... */\n      swap3\n      swap2\n      pop\n      pop\n      jump\t// out\n        /* \"contracts/HashJingViewer.sol\":790:1353  function toString(uint256 value) internal pure returns (string memory) {... */\n    tag_27:\n        /* \"contracts/HashJingViewer.sol\":846:859  string memory */\n      0x60\n        /* \"contracts/HashJingViewer.sol\":932:933  0 */\n      0x00\n        /* \"contracts/HashJingViewer.sol\":923:928  value */\n      dup3\n        /* \"contracts/HashJingViewer.sol\":923:933  value == 0 */\n      sub\n        /* \"contracts/HashJingViewer.sol\":919:970  if (value == 0) {... */\n      tag_35\n      jumpi\n        /* \"contracts/HashJingViewer.sol\":949:959  return \"0\" */\n      mload(0x40)\n      dup1\n      0x40\n      add\n      0x40\n      mstore\n      dup1\n      0x01\n      dup2\n      mstore\n      0x20\n      add\n      0x3000000000000000000000000000000000000000000000000000000000000000\n      dup2\n      mstore\n      pop\n      swap1\n      pop\n      jump(tag_34)\n        /* \"contracts/HashJingViewer.sol\":919:970  if (value == 0) {... */\n    tag_35:\n        /* \"contracts/HashJingViewer.sol\":979:991  uint256 temp */\n      0x00\n        /* \"contracts/HashJingViewer.sol\":994:999  value */\n      dup3\n        /* \"contracts/HashJingViewer.sol\":979:999  uint256 temp = value */\n      swap1\n      pop\n        /* \"contracts/HashJingViewer.sol\":1009:1023  uint256 digits */\n      0x00\n        /* \"contracts/HashJingViewer.sol\":1033:1108  while (temp != 0) {... */\n    tag_36:\n        /* \"contracts/HashJingViewer.sol\":1048:1049  0 */\n      0x00\n        /* \"contracts/HashJingViewer.sol\":1040:1044  temp */\n      dup3\n        /* \"contracts/HashJingViewer.sol\":1040:1049  temp != 0 */\n      eq\n        /* \"contracts/HashJingViewer.sol\":1033:1108  while (temp != 0) {... */\n      tag_37\n      jumpi\n        /* \"contracts/HashJingViewer.sol\":1065:1073  digits++ */\n      dup1\n      dup1\n      tag_38\n      swap1\n      tag_39\n      jump\t// in\n    tag_38:\n      swap2\n      pop\n      pop\n        /* \"contracts/HashJingViewer.sol\":1095:1097  10 */\n      0x0a\n        /* \"contracts/HashJingViewer.sol\":1087:1097  temp /= 10 */\n      dup3\n      tag_40\n      swap2\n      swap1\n      tag_41\n      jump\t// in\n    tag_40:\n      swap2\n      pop\n        /* \"contracts/HashJingViewer.sol\":1033:1108  while (temp != 0) {... */\n      jump(tag_36)\n    tag_37:\n        /* \"contracts/HashJingViewer.sol\":1117:1136  bytes memory buffer */\n      0x00\n        /* \"contracts/HashJingViewer.sol\":1149:1155  digits */\n      dup2\n        /* \"contracts/HashJingViewer.sol\":1139:1156  new bytes(digits) */\n      0xffffffffffffffff\n      dup2\n      gt\n      iszero\n      tag_42\n      jumpi\n      tag_43\n      tag_44\n      jump\t// in\n    tag_43:\n    tag_42:\n      mload(0x40)\n      swap1\n      dup1\n      dup3\n      mstore\n      dup1\n      0x1f\n      add\n      not(0x1f)\n      and\n      0x20\n      add\n      dup3\n      add\n      0x40\n      mstore\n      dup1\n      iszero\n      tag_45\n      jumpi\n      dup2\n      0x20\n      add\n      0x01\n      dup3\n      mul\n      dup1\n      calldatasize\n      dup4\n      calldatacopy\n      dup1\n      dup3\n      add\n      swap2\n      pop\n      pop\n      swap1\n      pop\n    tag_45:\n      pop\n        /* \"contracts/HashJingViewer.sol\":1117:1156  bytes memory buffer = new bytes(digits) */\n      swap1\n      pop\n        /* \"contracts/HashJingViewer.sol\":1166:1316  while (value != 0) {... */\n    tag_46:\n        /* \"contracts/HashJingViewer.sol\":1182:1183  0 */\n      0x00\n        /* \"contracts/HashJingViewer.sol\":1173:1178  value */\n      dup6\n        /* \"contracts/HashJingViewer.sol\":1173:1183  value != 0 */\n      eq\n        /* \"contracts/HashJingViewer.sol\":1166:1316  while (value != 0) {... */\n      tag_47\n      jumpi\n        /* \"contracts/HashJingViewer.sol\":1209:1210  1 */\n      0x01\n        /* \"contracts/HashJingViewer.sol\":1199:1210  digits -= 1 */\n      dup3\n      tag_48\n      swap2\n      swap1\n      tag_49\n      jump\t// in\n    tag_48:\n      swap2\n      pop\n        /* \"contracts/HashJingViewer.sol\":1275:1277  10 */\n      0x0a\n        /* \"contracts/HashJingViewer.sol\":1267:1272  value */\n      dup6\n        /* \"contracts/HashJingViewer.sol\":1267:1277  value % 10 */\n      tag_50\n      swap2\n      swap1\n      tag_51\n      jump\t// in\n    tag_50:\n        /* \"contracts/HashJingViewer.sol\":1254:1256  48 */\n      0x30\n        /* \"contracts/HashJingViewer.sol\":1254:1278  48 + uint256(value % 10) */\n      tag_52\n      swap2\n      swap1\n      tag_53\n      jump\t// in\n    tag_52:\n        /* \"contracts/HashJingViewer.sol\":1241:1280  bytes1(uint8(48 + uint256(value % 10))) */\n      0xf8\n      shl\n        /* \"contracts/HashJingViewer.sol\":1224:1230  buffer */\n      dup2\n        /* \"contracts/HashJingViewer.sol\":1231:1237  digits */\n      dup4\n        /* \"contracts/HashJingViewer.sol\":1224:1238  buffer[digits] */\n      dup2\n      mload\n      dup2\n      lt\n      tag_54\n      jumpi\n      tag_55\n      tag_56\n      jump\t// in\n    tag_55:\n    tag_54:\n      0x20\n      add\n      add\n        /* \"contracts/HashJingViewer.sol\":1224:1280  buffer[digits] = bytes1(uint8(48 + uint256(value % 10))) */\n      swap1\n      not(0xffffffffffffffffffffffffffffffffffffffffffffffffffffffffffffff)\n      and\n      swap1\n      dup2\n      0x00\n      byte\n      swap1\n      mstore8\n      pop\n        /* \"contracts/HashJingViewer.sol\":1303:1305  10 */\n      0x0a\n        /* \"contracts/HashJingViewer.sol\":1294:1305  value /= 10 */\n      dup6\n      tag_57\n      swap2\n      swap1\n      tag_41\n      jump\t// in\n    tag_57:\n      swap5\n      pop\n        /* \"contracts/HashJingViewer.sol\":1166:1316  while (value != 0) {... */\n      jump(tag_46)\n    tag_47:\n        /* \"contracts/HashJingViewer.sol\":1339:1345  buffer */\n      dup1\n        /* \"contracts/HashJingViewer.sol\":1325:1346  return string(buffer) */\n      swap4\n      pop\n      pop\n      pop\n      pop\n        /* \"contracts/HashJingViewer.sol\":790:1353  function toString(uint256 value) internal pure returns (string memory) {... */\n    tag_34:\n      swap2\n      swap1\n      pop\n      jump\t// out\n        /* \"contracts/SSTORE2.sol\":1297:1431  function read(address _pointer) internal view returns (bytes memory) {... */\n    tag_33:\n        /* \"contracts/SSTORE2.sol\":1352:1364  bytes memory */\n      0x60\n        /* \"contracts/SSTORE2.sol\":1379:1426  Bytecode.codeAt(_pointer, 1, type(uint256).max) */\n      tag_59\n        /* \"contracts/SSTORE2.sol\":1395:1403  _pointer */\n      dup3\n        /* \"contracts/SSTORE2.sol\":1405:1406  1 */\n      0x01\n        /* \"contracts/SSTORE2.sol\":1408:1425  type(uint256).max */\n      0xffffffffffffffffffffffffffffffffffffffffffffffffffffffffffffffff\n        /* \"contracts/SSTORE2.sol\":1379:1394  Bytecode.codeAt */\n      tag_60\n        /* \"contracts/SSTORE2.sol\":1379:1426  Bytecode.codeAt(_pointer, 1, type(uint256).max) */\n      jump\t// in\n    tag_59:\n        /* \"contracts/SSTORE2.sol\":1372:1426  return Bytecode.codeAt(_pointer, 1, type(uint256).max) */\n      swap1\n      pop\n        /* \"contracts/SSTORE2.sol\":1297:1431  function read(address _pointer) internal view returns (bytes memory) {... */\n      swap2\n      swap1\n      pop\n      jump\t// out\n        /* \"contracts/utils/Bytecode.sol\":1793:2739  function codeAt(address _addr, uint256 _start, uint256 _end) internal view returns (bytes memory oCode) {... */\n    tag_60:\n        /* \"contracts/utils/Bytecode.sol\":1877:1895  bytes memory oCode */\n      0x60\n        /* \"contracts/utils/Bytecode.sol\":1903:1916  uint256 csize */\n      0x00\n        /* \"contracts/utils/Bytecode.sol\":1919:1934  codeSize(_addr) */\n      tag_62\n        /* \"contracts/utils/Bytecode.sol\":1928:1933  _addr */\n      dup6\n        /* \"contracts/utils/Bytecode.sol\":1919:1927  codeSize */\n      tag_63\n        /* \"contracts/utils/Bytecode.sol\":1919:1934  codeSize(_addr) */\n      jump\t// in\n    tag_62:\n        /* \"contracts/utils/Bytecode.sol\":1903:1934  uint256 csize = codeSize(_addr) */\n      swap1\n      pop\n        /* \"contracts/utils/Bytecode.sol\":1953:1954  0 */\n      0x00\n        /* \"contracts/utils/Bytecode.sol\":1944:1949  csize */\n      dup2\n        /* \"contracts/utils/Bytecode.sol\":1944:1954  csize == 0 */\n      sub\n        /* \"contracts/utils/Bytecode.sol\":1940:1972  if (csize == 0) return bytes(\"\") */\n      tag_64\n      jumpi\n        /* \"contracts/utils/Bytecode.sol\":1963:1972  bytes(\"\") */\n      mload(0x40)\n      dup1\n      0x20\n      add\n      0x40\n      mstore\n      dup1\n      0x00\n      dup2\n      mstore\n      pop\n        /* \"contracts/utils/Bytecode.sol\":1956:1972  return bytes(\"\") */\n      swap2\n      pop\n      pop\n      jump(tag_61)\n        /* \"contracts/utils/Bytecode.sol\":1940:1972  if (csize == 0) return bytes(\"\") */\n    tag_64:\n        /* \"contracts/utils/Bytecode.sol\":1992:1997  csize */\n      dup1\n        /* \"contracts/utils/Bytecode.sol\":1983:1989  _start */\n      dup5\n        /* \"contracts/utils/Bytecode.sol\":1983:1997  _start > csize */\n      gt\n        /* \"contracts/utils/Bytecode.sol\":1979:2015  if (_start > csize) return bytes(\"\") */\n      iszero\n      tag_65\n      jumpi\n        /* \"contracts/utils/Bytecode.sol\":2006:2015  bytes(\"\") */\n      mload(0x40)\n      dup1\n      0x20\n      add\n      0x40\n      mstore\n      dup1\n      0x00\n      dup2\n      mstore\n      pop\n        /* \"contracts/utils/Bytecode.sol\":1999:2015  return bytes(\"\") */\n      swap2\n      pop\n      pop\n      jump(tag_61)\n        /* \"contracts/utils/Bytecode.sol\":1979:2015  if (_start > csize) return bytes(\"\") */\n    tag_65:\n        /* \"contracts/utils/Bytecode.sol\":2032:2038  _start */\n      dup4\n        /* \"contracts/utils/Bytecode.sol\":2025:2029  _end */\n      dup4\n        /* \"contracts/utils/Bytecode.sol\":2025:2038  _end < _start */\n      lt\n        /* \"contracts/utils/Bytecode.sol\":2021:2086  if (_end < _start) revert InvalidCodeAtRange(csize, _start, _end) */\n      iszero\n      tag_66\n      jumpi\n        /* \"contracts/utils/Bytecode.sol\":2066:2071  csize */\n      dup1\n        /* \"contracts/utils/Bytecode.sol\":2073:2079  _start */\n      dup5\n        /* \"contracts/utils/Bytecode.sol\":2081:2085  _end */\n      dup5\n        /* \"contracts/utils/Bytecode.sol\":2047:2086  InvalidCodeAtRange(csize, _start, _end) */\n      mload(0x40)\n      0x2c4a89fa00000000000000000000000000000000000000000000000000000000\n      dup2\n      mstore\n      0x04\n      add\n      tag_67\n      swap4\n      swap3\n      swap2\n      swap1\n      tag_68\n      jump\t// in\n    tag_67:\n      mload(0x40)\n      dup1\n      swap2\n      sub\n      swap1\n      revert\n        /* \"contracts/utils/Bytecode.sol\":2021:2086  if (_end < _start) revert InvalidCodeAtRange(csize, _start, _end) */\n    tag_66:\n        /* \"contracts/utils/Bytecode.sol\":2112:2127  uint256 reqSize */\n      0x00\n        /* \"contracts/utils/Bytecode.sol\":2137:2143  _start */\n      dup5\n        /* \"contracts/utils/Bytecode.sol\":2130:2134  _end */\n      dup5\n        /* \"contracts/utils/Bytecode.sol\":2130:2143  _end - _start */\n      sub\n        /* \"contracts/utils/Bytecode.sol\":2112:2143  uint256 reqSize = _end - _start */\n      swap1\n      pop\n        /* \"contracts/utils/Bytecode.sol\":2151:2166  uint256 maxSize */\n      0x00\n        /* \"contracts/utils/Bytecode.sol\":2177:2183  _start */\n      dup6\n        /* \"contracts/utils/Bytecode.sol\":2169:2174  csize */\n      dup4\n        /* \"contracts/utils/Bytecode.sol\":2169:2183  csize - _start */\n      sub\n        /* \"contracts/utils/Bytecode.sol\":2151:2183  uint256 maxSize = csize - _start */\n      swap1\n      pop\n        /* \"contracts/utils/Bytecode.sol\":2192:2204  uint256 size */\n      0x00\n        /* \"contracts/utils/Bytecode.sol\":2217:2224  reqSize */\n      dup3\n        /* \"contracts/utils/Bytecode.sol\":2207:2214  maxSize */\n      dup3\n        /* \"contracts/utils/Bytecode.sol\":2207:2224  maxSize < reqSize */\n      lt\n        /* \"contracts/utils/Bytecode.sol\":2207:2244  maxSize < reqSize ? maxSize : reqSize */\n      tag_69\n      jumpi\n        /* \"contracts/utils/Bytecode.sol\":2237:2244  reqSize */\n      dup3\n        /* \"contracts/utils/Bytecode.sol\":2207:2244  maxSize < reqSize ? maxSize : reqSize */\n      jump(tag_70)\n    tag_69:\n        /* \"contracts/utils/Bytecode.sol\":2227:2234  maxSize */\n      dup2\n        /* \"contracts/utils/Bytecode.sol\":2207:2244  maxSize < reqSize ? maxSize : reqSize */\n    tag_70:\n        /* \"contracts/utils/Bytecode.sol\":2192:2244  uint256 size = maxSize < reqSize ? maxSize : reqSize */\n      swap1\n      pop\n        /* \"contracts/utils/Bytecode.sol\":2413:2417  0x40 */\n      0x40\n        /* \"contracts/utils/Bytecode.sol\":2407:2418  mload(0x40) */\n      mload\n        /* \"contracts/utils/Bytecode.sol\":2398:2418  oCode := mload(0x40) */\n      swap5\n      pop\n        /* \"contracts/utils/Bytecode.sol\":2533:2537  0x1f */\n      0x1f\n        /* \"contracts/utils/Bytecode.sol\":2529:2538  not(0x1f) */\n      not\n        /* \"contracts/utils/Bytecode.sol\":2522:2526  0x1f */\n      0x1f\n        /* \"contracts/utils/Bytecode.sol\":2515:2519  0x20 */\n      0x20\n        /* \"contracts/utils/Bytecode.sol\":2509:2513  size */\n      dup4\n        /* \"contracts/utils/Bytecode.sol\":2505:2520  add(size, 0x20) */\n      add\n        /* \"contracts/utils/Bytecode.sol\":2501:2527  add(add(size, 0x20), 0x1f) */\n      add\n        /* \"contracts/utils/Bytecode.sol\":2497:2539  and(add(add(size, 0x20), 0x1f), not(0x1f)) */\n      and\n        /* \"contracts/utils/Bytecode.sol\":2490:2495  oCode */\n      dup6\n        /* \"contracts/utils/Bytecode.sol\":2486:2540  add(oCode, and(add(add(size, 0x20), 0x1f), not(0x1f))) */\n      add\n        /* \"contracts/utils/Bytecode.sol\":2480:2484  0x40 */\n      0x40\n        /* \"contracts/utils/Bytecode.sol\":2473:2541  mstore(0x40, add(oCode, and(add(add(size, 0x20), 0x1f), not(0x1f)))) */\n      mstore\n        /* \"contracts/utils/Bytecode.sol\":2598:2602  size */\n      dup1\n        /* \"contracts/utils/Bytecode.sol\":2591:2596  oCode */\n      dup6\n        /* \"contracts/utils/Bytecode.sol\":2584:2603  mstore(oCode, size) */\n      mstore\n        /* \"contracts/utils/Bytecode.sol\":2716:2720  size */\n      dup1\n        /* \"contracts/utils/Bytecode.sol\":2708:2714  _start */\n      dup8\n        /* \"contracts/utils/Bytecode.sol\":2701:2705  0x20 */\n      0x20\n        /* \"contracts/utils/Bytecode.sol\":2694:2699  oCode */\n      dup8\n        /* \"contracts/utils/Bytecode.sol\":2690:2706  add(oCode, 0x20) */\n      add\n        /* \"contracts/utils/Bytecode.sol\":2683:2688  _addr */\n      dup11\n        /* \"contracts/utils/Bytecode.sol\":2671:2721  extcodecopy(_addr, add(oCode, 0x20), _start, size) */\n      extcodecopy\n        /* \"contracts/utils/Bytecode.sol\":2262:2729  {... */\n      pop\n      pop\n      pop\n        /* \"contracts/utils/Bytecode.sol\":1897:2739  {... */\n      pop\n        /* \"contracts/utils/Bytecode.sol\":1793:2739  function codeAt(address _addr, uint256 _start, uint256 _end) internal view returns (bytes memory oCode) {... */\n    tag_61:\n      swap4\n      swap3\n      pop\n      pop\n      pop\n      jump\t// out\n        /* \"contracts/utils/Bytecode.sol\":1261:1380  function codeSize(address _addr) internal view returns (uint256 size) {... */\n    tag_63:\n        /* \"contracts/utils/Bytecode.sol\":1317:1329  uint256 size */\n      0x00\n        /* \"contracts/utils/Bytecode.sol\":1368:1373  _addr */\n      dup2\n        /* \"contracts/utils/Bytecode.sol\":1356:1374  extcodesize(_addr) */\n      extcodesize\n        /* \"contracts/utils/Bytecode.sol\":1348:1374  size := extcodesize(_addr) */\n      swap1\n      pop\n        /* \"contracts/utils/Bytecode.sol\":1261:1380  function codeSize(address _addr) internal view returns (uint256 size) {... */\n      swap2\n      swap1\n      pop\n      jump\t// out\n        /* \"#utility.yul\":7:133   */\n    tag_72:\n        /* \"#utility.yul\":44:51   */\n      0x00\n        /* \"#utility.yul\":84:126   */\n      0xffffffffffffffffffffffffffffffffffffffff\n        /* \"#utility.yul\":77:82   */\n      dup3\n        /* \"#utility.yul\":73:127   */\n      and\n        /* \"#utility.yul\":62:127   */\n      swap1\n      pop\n        /* \"#utility.yul\":7:133   */\n      swap2\n      swap1\n      pop\n      jump\t// out\n        /* \"#utility.yul\":139:235   */\n    tag_73:\n        /* \"#utility.yul\":176:183   */\n      0x00\n        /* \"#utility.yul\":205:229   */\n      tag_99\n        /* \"#utility.yul\":223:228   */\n      dup3\n        /* \"#utility.yul\":205:229   */\n      tag_72\n      jump\t// in\n    tag_99:\n        /* \"#utility.yul\":194:229   */\n      swap1\n      pop\n        /* \"#utility.yul\":139:235   */\n      swap2\n      swap1\n      pop\n      jump\t// out\n        /* \"#utility.yul\":241:359   */\n    tag_74:\n        /* \"#utility.yul\":328:352   */\n      tag_101\n        /* \"#utility.yul\":346:351   */\n      dup2\n        /* \"#utility.yul\":328:352   */\n      tag_73\n      jump\t// in\n    tag_101:\n        /* \"#utility.yul\":323:326   */\n      dup3\n        /* \"#utility.yul\":316:353   */\n      mstore\n        /* \"#utility.yul\":241:359   */\n      pop\n      pop\n      jump\t// out\n        /* \"#utility.yul\":365:587   */\n    tag_8:\n        /* \"#utility.yul\":458:462   */\n      0x00\n        /* \"#utility.yul\":496:498   */\n      0x20\n        /* \"#utility.yul\":485:494   */\n      dup3\n        /* \"#utility.yul\":481:499   */\n      add\n        /* \"#utility.yul\":473:499   */\n      swap1\n      pop\n        /* \"#utility.yul\":509:580   */\n      tag_103\n        /* \"#utility.yul\":577:578   */\n      0x00\n        /* \"#utility.yul\":566:575   */\n      dup4\n        /* \"#utility.yul\":562:579   */\n      add\n        /* \"#utility.yul\":553:559   */\n      dup5\n        /* \"#utility.yul\":509:580   */\n      tag_74\n      jump\t// in\n    tag_103:\n        /* \"#utility.yul\":365:587   */\n      swap3\n      swap2\n      pop\n      pop\n      jump\t// out\n        /* \"#utility.yul\":593:692   */\n    tag_75:\n        /* \"#utility.yul\":645:651   */\n      0x00\n        /* \"#utility.yul\":679:684   */\n      dup2\n        /* \"#utility.yul\":673:685   */\n      mload\n        /* \"#utility.yul\":663:685   */\n      swap1\n      pop\n        /* \"#utility.yul\":593:692   */\n      swap2\n      swap1\n      pop\n      jump\t// out\n        /* \"#utility.yul\":698:867   */\n    tag_76:\n        /* \"#utility.yul\":782:793   */\n      0x00\n        /* \"#utility.yul\":816:822   */\n      dup3\n        /* \"#utility.yul\":811:814   */\n      dup3\n        /* \"#utility.yul\":804:823   */\n      mstore\n        /* \"#utility.yul\":856:860   */\n      0x20\n        /* \"#utility.yul\":851:854   */\n      dup3\n        /* \"#utility.yul\":847:861   */\n      add\n        /* \"#utility.yul\":832:861   */\n      swap1\n      pop\n        /* \"#utility.yul\":698:867   */\n      swap3\n      swap2\n      pop\n      pop\n      jump\t// out\n        /* \"#utility.yul\":873:1012   */\n    tag_77:\n        /* \"#utility.yul\":962:968   */\n      dup3\n        /* \"#utility.yul\":957:960   */\n      dup2\n        /* \"#utility.yul\":952:955   */\n      dup4\n        /* \"#utility.yul\":946:969   */\n      mcopy\n        /* \"#utility.yul\":1003:1004   */\n      0x00\n        /* \"#utility.yul\":994:1000   */\n      dup4\n        /* \"#utility.yul\":989:992   */\n      dup4\n        /* \"#utility.yul\":985:1001   */\n      add\n        /* \"#utility.yul\":978:1005   */\n      mstore\n        /* \"#utility.yul\":873:1012   */\n      pop\n      pop\n      pop\n      jump\t// out\n        /* \"#utility.yul\":1018:1120   */\n    tag_78:\n        /* \"#utility.yul\":1059:1065   */\n      0x00\n        /* \"#utility.yul\":1110:1112   */\n      0x1f\n        /* \"#utility.yul\":1106:1113   */\n      not\n        /* \"#utility.yul\":1101:1103   */\n      0x1f\n        /* \"#utility.yul\":1094:1099   */\n      dup4\n        /* \"#utility.yul\":1090:1104   */\n      add\n        /* \"#utility.yul\":1086:1114   */\n      and\n        /* \"#utility.yul\":1076:1114   */\n      swap1\n      pop\n        /* \"#utility.yul\":1018:1120   */\n      swap2\n      swap1\n      pop\n      jump\t// out\n        /* \"#utility.yul\":1126:1503   */\n    tag_79:\n        /* \"#utility.yul\":1214:1217   */\n      0x00\n        /* \"#utility.yul\":1242:1281   */\n      tag_109\n        /* \"#utility.yul\":1275:1280   */\n      dup3\n        /* \"#utility.yul\":1242:1281   */\n      tag_75\n      jump\t// in\n    tag_109:\n        /* \"#utility.yul\":1297:1368   */\n      tag_110\n        /* \"#utility.yul\":1361:1367   */\n      dup2\n        /* \"#utility.yul\":1356:1359   */\n      dup6\n        /* \"#utility.yul\":1297:1368   */\n      tag_76\n      jump\t// in\n    tag_110:\n        /* \"#utility.yul\":1290:1368   */\n      swap4\n      pop\n        /* \"#utility.yul\":1377:1442   */\n      tag_111\n        /* \"#utility.yul\":1435:1441   */\n      dup2\n        /* \"#utility.yul\":1430:1433   */\n      dup6\n        /* \"#utility.yul\":1423:1427   */\n      0x20\n        /* \"#utility.yul\":1416:1421   */\n      dup7\n        /* \"#utility.yul\":1412:1428   */\n      add\n        /* \"#utility.yul\":1377:1442   */\n      tag_77\n      jump\t// in\n    tag_111:\n        /* \"#utility.yul\":1467:1496   */\n      tag_112\n        /* \"#utility.yul\":1489:1495   */\n      dup2\n        /* \"#utility.yul\":1467:1496   */\n      tag_78\n      jump\t// in\n    tag_112:\n        /* \"#utility.yul\":1462:1465   */\n      dup5\n        /* \"#utility.yul\":1458:1497   */\n      add\n        /* \"#utility.yul\":1451:1497   */\n      swap2\n      pop\n        /* \"#utility.yul\":1218:1503   */\n      pop\n        /* \"#utility.yul\":1126:1503   */\n      swap3\n      swap2\n      pop\n      pop\n      jump\t// out\n        /* \"#utility.yul\":1509:1822   */\n    tag_12:\n        /* \"#utility.yul\":1622:1626   */\n      0x00\n        /* \"#utility.yul\":1660:1662   */\n      0x20\n        /* \"#utility.yul\":1649:1658   */\n      dup3\n        /* \"#utility.yul\":1645:1663   */\n      add\n        /* \"#utility.yul\":1637:1663   */\n      swap1\n      pop\n        /* \"#utility.yul\":1709:1718   */\n      dup2\n        /* \"#utility.yul\":1703:1707   */\n      dup2\n        /* \"#utility.yul\":1699:1719   */\n      sub\n        /* \"#utility.yul\":1695:1696   */\n      0x00\n        /* \"#utility.yul\":1684:1693   */\n      dup4\n        /* \"#utility.yul\":1680:1697   */\n      add\n        /* \"#utility.yul\":1673:1720   */\n      mstore\n        /* \"#utility.yul\":1737:1815   */\n      tag_114\n        /* \"#utility.yul\":1810:1814   */\n      dup2\n        /* \"#utility.yul\":1801:1807   */\n      dup5\n        /* \"#utility.yul\":1737:1815   */\n      tag_79\n      jump\t// in\n    tag_114:\n        /* \"#utility.yul\":1729:1815   */\n      swap1\n      pop\n        /* \"#utility.yul\":1509:1822   */\n      swap3\n      swap2\n      pop\n      pop\n      jump\t// out\n        /* \"#utility.yul\":1828:1926   */\n    tag_80:\n        /* \"#utility.yul\":1879:1885   */\n      0x00\n        /* \"#utility.yul\":1913:1918   */\n      dup2\n        /* \"#utility.yul\":1907:1919   */\n      mload\n        /* \"#utility.yul\":1897:1919   */\n      swap1\n      pop\n        /* \"#utility.yul\":1828:1926   */\n      swap2\n      swap1\n      pop\n      jump\t// out\n        /* \"#utility.yul\":1932:2079   */\n    tag_81:\n        /* \"#utility.yul\":2033:2044   */\n      0x00\n        /* \"#utility.yul\":2070:2073   */\n      dup2\n        /* \"#utility.yul\":2055:2073   */\n      swap1\n      pop\n        /* \"#utility.yul\":1932:2079   */\n      swap3\n      swap2\n      pop\n      pop\n      jump\t// out\n        /* \"#utility.yul\":2085:2471   */\n    tag_82:\n        /* \"#utility.yul\":2189:2192   */\n      0x00\n        /* \"#utility.yul\":2217:2255   */\n      tag_118\n        /* \"#utility.yul\":2249:2254   */\n      dup3\n        /* \"#utility.yul\":2217:2255   */\n      tag_80\n      jump\t// in\n    tag_118:\n        /* \"#utility.yul\":2271:2359   */\n      tag_119\n        /* \"#utility.yul\":2352:2358   */\n      dup2\n        /* \"#utility.yul\":2347:2350   */\n      dup6\n        /* \"#utility.yul\":2271:2359   */\n      tag_81\n      jump\t// in\n    tag_119:\n        /* \"#utility.yul\":2264:2359   */\n      swap4\n      pop\n        /* \"#utility.yul\":2368:2433   */\n      tag_120\n        /* \"#utility.yul\":2426:2432   */\n      dup2\n        /* \"#utility.yul\":2421:2424   */\n      dup6\n        /* \"#utility.yul\":2414:2418   */\n      0x20\n        /* \"#utility.yul\":2407:2412   */\n      dup7\n        /* \"#utility.yul\":2403:2419   */\n      add\n        /* \"#utility.yul\":2368:2433   */\n      tag_77\n      jump\t// in\n    tag_120:\n        /* \"#utility.yul\":2458:2464   */\n      dup1\n        /* \"#utility.yul\":2453:2456   */\n      dup5\n        /* \"#utility.yul\":2449:2465   */\n      add\n        /* \"#utility.yul\":2442:2465   */\n      swap2\n      pop\n        /* \"#utility.yul\":2193:2471   */\n      pop\n        /* \"#utility.yul\":2085:2471   */\n      swap3\n      swap2\n      pop\n      pop\n      jump\t// out\n        /* \"#utility.yul\":2477:2904   */\n    tag_17:\n        /* \"#utility.yul\":2653:2656   */\n      0x00\n        /* \"#utility.yul\":2675:2768   */\n      tag_122\n        /* \"#utility.yul\":2764:2767   */\n      dup3\n        /* \"#utility.yul\":2755:2761   */\n      dup6\n        /* \"#utility.yul\":2675:2768   */\n      tag_82\n      jump\t// in\n    tag_122:\n        /* \"#utility.yul\":2668:2768   */\n      swap2\n      pop\n        /* \"#utility.yul\":2785:2878   */\n      tag_123\n        /* \"#utility.yul\":2874:2877   */\n      dup3\n        /* \"#utility.yul\":2865:2871   */\n      dup5\n        /* \"#utility.yul\":2785:2878   */\n      tag_82\n      jump\t// in\n    tag_123:\n        /* \"#utility.yul\":2778:2878   */\n      swap2\n      pop\n        /* \"#utility.yul\":2895:2898   */\n      dup2\n        /* \"#utility.yul\":2888:2898   */\n      swap1\n      pop\n        /* \"#utility.yul\":2477:2904   */\n      swap4\n      swap3\n      pop\n      pop\n      pop\n      jump\t// out\n        /* \"#utility.yul\":2991:3108   */\n    tag_84:\n        /* \"#utility.yul\":3100:3101   */\n      0x00\n        /* \"#utility.yul\":3097:3098   */\n      dup1\n        /* \"#utility.yul\":3090:3102   */\n      revert\n        /* \"#utility.yul\":3237:3359   */\n    tag_86:\n        /* \"#utility.yul\":3310:3334   */\n      tag_128\n        /* \"#utility.yul\":3328:3333   */\n      dup2\n        /* \"#utility.yul\":3310:3334   */\n      tag_73\n      jump\t// in\n    tag_128:\n        /* \"#utility.yul\":3303:3308   */\n      dup2\n        /* \"#utility.yul\":3300:3335   */\n      eq\n        /* \"#utility.yul\":3290:3353   */\n      tag_129\n      jumpi\n        /* \"#utility.yul\":3349:3350   */\n      0x00\n        /* \"#utility.yul\":3346:3347   */\n      dup1\n        /* \"#utility.yul\":3339:3351   */\n      revert\n        /* \"#utility.yul\":3290:3353   */\n    tag_129:\n        /* \"#utility.yul\":3237:3359   */\n      pop\n      jump\t// out\n        /* \"#utility.yul\":3365:3508   */\n    tag_87:\n        /* \"#utility.yul\":3422:3427   */\n      0x00\n        /* \"#utility.yul\":3453:3459   */\n      dup2\n        /* \"#utility.yul\":3447:3460   */\n      mload\n        /* \"#utility.yul\":3438:3460   */\n      swap1\n      pop\n        /* \"#utility.yul\":3469:3502   */\n      tag_131\n        /* \"#utility.yul\":3496:3501   */\n      dup2\n        /* \"#utility.yul\":3469:3502   */\n      tag_86\n      jump\t// in\n    tag_131:\n        /* \"#utility.yul\":3365:3508   */\n      swap3\n      swap2\n      pop\n      pop\n      jump\t// out\n        /* \"#utility.yul\":3514:3865   */\n    tag_21:\n        /* \"#utility.yul\":3584:3590   */\n      0x00\n        /* \"#utility.yul\":3633:3635   */\n      0x20\n        /* \"#utility.yul\":3621:3630   */\n      dup3\n        /* \"#utility.yul\":3612:3619   */\n      dup5\n        /* \"#utility.yul\":3608:3631   */\n      sub\n        /* \"#utility.yul\":3604:3636   */\n      slt\n        /* \"#utility.yul\":3601:3720   */\n      iszero\n      tag_133\n      jumpi\n        /* \"#utility.yul\":3639:3718   */\n      tag_134\n      tag_84\n      jump\t// in\n    tag_134:\n        /* \"#utility.yul\":3601:3720   */\n    tag_133:\n        /* \"#utility.yul\":3759:3760   */\n      0x00\n        /* \"#utility.yul\":3784:3848   */\n      tag_135\n        /* \"#utility.yul\":3840:3847   */\n      dup5\n        /* \"#utility.yul\":3831:3837   */\n      dup3\n        /* \"#utility.yul\":3820:3829   */\n      dup6\n        /* \"#utility.yul\":3816:3838   */\n      add\n        /* \"#utility.yul\":3784:3848   */\n      tag_87\n      jump\t// in\n    tag_135:\n        /* \"#utility.yul\":3774:3848   */\n      swap2\n      pop\n        /* \"#utility.yul\":3730:3858   */\n      pop\n        /* \"#utility.yul\":3514:3865   */\n      swap3\n      swap2\n      pop\n      pop\n      jump\t// out\n        /* \"#utility.yul\":3871:4019   */\n    tag_88:\n        /* \"#utility.yul\":3973:3984   */\n      0x00\n        /* \"#utility.yul\":4010:4013   */\n      dup2\n        /* \"#utility.yul\":3995:4013   */\n      swap1\n      pop\n        /* \"#utility.yul\":3871:4019   */\n      swap3\n      swap2\n      pop\n      pop\n      jump\t// out\n        /* \"#utility.yul\":4025:4192   */\n    tag_89:\n        /* \"#utility.yul\":4165:4184   */\n      0x4661696c6564206f6e206368756e6b2023000000000000000000000000000000\n        /* \"#utility.yul\":4161:4162   */\n      0x00\n        /* \"#utility.yul\":4153:4159   */\n      dup3\n        /* \"#utility.yul\":4149:4163   */\n      add\n        /* \"#utility.yul\":4142:4185   */\n      mstore\n        /* \"#utility.yul\":4025:4192   */\n      pop\n      jump\t// out\n        /* \"#utility.yul\":4198:4600   */\n    tag_90:\n        /* \"#utility.yul\":4358:4361   */\n      0x00\n        /* \"#utility.yul\":4379:4464   */\n      tag_139\n        /* \"#utility.yul\":4461:4463   */\n      0x11\n        /* \"#utility.yul\":4456:4459   */\n      dup4\n        /* \"#utility.yul\":4379:4464   */\n      tag_88\n      jump\t// in\n    tag_139:\n        /* \"#utility.yul\":4372:4464   */\n      swap2\n      pop\n        /* \"#utility.yul\":4473:4566   */\n      tag_140\n        /* \"#utility.yul\":4562:4565   */\n      dup3\n        /* \"#utility.yul\":4473:4566   */\n      tag_89\n      jump\t// in\n    tag_140:\n        /* \"#utility.yul\":4591:4593   */\n      0x11\n        /* \"#utility.yul\":4586:4589   */\n      dup3\n        /* \"#utility.yul\":4582:4594   */\n      add\n        /* \"#utility.yul\":4575:4594   */\n      swap1\n      pop\n        /* \"#utility.yul\":4198:4600   */\n      swap2\n      swap1\n      pop\n      jump\t// out\n        /* \"#utility.yul\":4606:4996   */\n    tag_91:\n        /* \"#utility.yul\":4712:4715   */\n      0x00\n        /* \"#utility.yul\":4740:4779   */\n      tag_142\n        /* \"#utility.yul\":4773:4778   */\n      dup3\n        /* \"#utility.yul\":4740:4779   */\n      tag_75\n      jump\t// in\n    tag_142:\n        /* \"#utility.yul\":4795:4884   */\n      tag_143\n        /* \"#utility.yul\":4877:4883   */\n      dup2\n        /* \"#utility.yul\":4872:4875   */\n      dup6\n        /* \"#utility.yul\":4795:4884   */\n      tag_88\n      jump\t// in\n    tag_143:\n        /* \"#utility.yul\":4788:4884   */\n      swap4\n      pop\n        /* \"#utility.yul\":4893:4958   */\n      tag_144\n        /* \"#utility.yul\":4951:4957   */\n      dup2\n        /* \"#utility.yul\":4946:4949   */\n      dup6\n        /* \"#utility.yul\":4939:4943   */\n      0x20\n        /* \"#utility.yul\":4932:4937   */\n      dup7\n        /* \"#utility.yul\":4928:4944   */\n      add\n        /* \"#utility.yul\":4893:4958   */\n      tag_77\n      jump\t// in\n    tag_144:\n        /* \"#utility.yul\":4983:4989   */\n      dup1\n        /* \"#utility.yul\":4978:4981   */\n      dup5\n        /* \"#utility.yul\":4974:4990   */\n      add\n        /* \"#utility.yul\":4967:4990   */\n      swap2\n      pop\n        /* \"#utility.yul\":4716:4996   */\n      pop\n        /* \"#utility.yul\":4606:4996   */\n      swap3\n      swap2\n      pop\n      pop\n      jump\t// out\n        /* \"#utility.yul\":5002:5543   */\n    tag_29:\n        /* \"#utility.yul\":5235:5238   */\n      0x00\n        /* \"#utility.yul\":5257:5405   */\n      tag_146\n        /* \"#utility.yul\":5401:5404   */\n      dup3\n        /* \"#utility.yul\":5257:5405   */\n      tag_90\n      jump\t// in\n    tag_146:\n        /* \"#utility.yul\":5250:5405   */\n      swap2\n      pop\n        /* \"#utility.yul\":5422:5517   */\n      tag_147\n        /* \"#utility.yul\":5513:5516   */\n      dup3\n        /* \"#utility.yul\":5504:5510   */\n      dup5\n        /* \"#utility.yul\":5422:5517   */\n      tag_91\n      jump\t// in\n    tag_147:\n        /* \"#utility.yul\":5415:5517   */\n      swap2\n      pop\n        /* \"#utility.yul\":5534:5537   */\n      dup2\n        /* \"#utility.yul\":5527:5537   */\n      swap1\n      pop\n        /* \"#utility.yul\":5002:5543   */\n      swap3\n      swap2\n      pop\n      pop\n      jump\t// out\n        /* \"#utility.yul\":5549:5729   */\n    tag_92:\n        /* \"#utility.yul\":5597:5674   */\n      0x4e487b7100000000000000000000000000000000000000000000000000000000\n        /* \"#utility.yul\":5594:5595   */\n      0x00\n        /* \"#utility.yul\":5587:5675   */\n      mstore\n        /* \"#utility.yul\":5694:5698   */\n      0x11\n        /* \"#utility.yul\":5691:5692   */\n      0x04\n        /* \"#utility.yul\":5684:5699   */\n      mstore\n        /* \"#utility.yul\":5718:5722   */\n      0x24\n        /* \"#utility.yul\":5715:5716   */\n      0x00\n        /* \"#utility.yul\":5708:5723   */\n      revert\n        /* \"#utility.yul\":5735:5812   */\n    tag_93:\n        /* \"#utility.yul\":5772:5779   */\n      0x00\n        /* \"#utility.yul\":5801:5806   */\n      dup2\n        /* \"#utility.yul\":5790:5806   */\n      swap1\n      pop\n        /* \"#utility.yul\":5735:5812   */\n      swap2\n      swap1\n      pop\n      jump\t// out\n        /* \"#utility.yul\":5818:6051   */\n    tag_39:\n        /* \"#utility.yul\":5857:5860   */\n      0x00\n        /* \"#utility.yul\":5880:5904   */\n      tag_151\n        /* \"#utility.yul\":5898:5903   */\n      dup3\n        /* \"#utility.yul\":5880:5904   */\n      tag_93\n      jump\t// in\n    tag_151:\n        /* \"#utility.yul\":5871:5904   */\n      swap2\n      pop\n        /* \"#utility.yul\":5926:5992   */\n      0xffffffffffffffffffffffffffffffffffffffffffffffffffffffffffffffff\n        /* \"#utility.yul\":5919:5924   */\n      dup3\n        /* \"#utility.yul\":5916:5993   */\n      sub\n        /* \"#utility.yul\":5913:6016   */\n      tag_152\n      jumpi\n        /* \"#utility.yul\":5996:6014   */\n      tag_153\n      tag_92\n      jump\t// in\n    tag_153:\n        /* \"#utility.yul\":5913:6016   */\n    tag_152:\n        /* \"#utility.yul\":6043:6044   */\n      0x01\n        /* \"#utility.yul\":6036:6041   */\n      dup3\n        /* \"#utility.yul\":6032:6045   */\n      add\n        /* \"#utility.yul\":6025:6045   */\n      swap1\n      pop\n        /* \"#utility.yul\":5818:6051   */\n      swap2\n      swap1\n      pop\n      jump\t// out\n        /* \"#utility.yul\":6057:6237   */\n    tag_94:\n        /* \"#utility.yul\":6105:6182   */\n      0x4e487b7100000000000000000000000000000000000000000000000000000000\n        /* \"#utility.yul\":6102:6103   */\n      0x00\n        /* \"#utility.yul\":6095:6183   */\n      mstore\n        /* \"#utility.yul\":6202:6206   */\n      0x12\n        /* \"#utility.yul\":6199:6200   */\n      0x04\n        /* \"#utility.yul\":6192:6207   */\n      mstore\n        /* \"#utility.yul\":6226:6230   */\n      0x24\n        /* \"#utility.yul\":6223:6224   */\n      0x00\n        /* \"#utility.yul\":6216:6231   */\n      revert\n        /* \"#utility.yul\":6243:6428   */\n    tag_41:\n        /* \"#utility.yul\":6283:6284   */\n      0x00\n        /* \"#utility.yul\":6300:6320   */\n      tag_156\n        /* \"#utility.yul\":6318:6319   */\n      dup3\n        /* \"#utility.yul\":6300:6320   */\n      tag_93\n      jump\t// in\n    tag_156:\n        /* \"#utility.yul\":6295:6320   */\n      swap2\n      pop\n        /* \"#utility.yul\":6334:6354   */\n      tag_157\n        /* \"#utility.yul\":6352:6353   */\n      dup4\n        /* \"#utility.yul\":6334:6354   */\n      tag_93\n      jump\t// in\n    tag_157:\n        /* \"#utility.yul\":6329:6354   */\n      swap3\n      pop\n        /* \"#utility.yul\":6373:6374   */\n      dup3\n        /* \"#utility.yul\":6363:6398   */\n      tag_158\n      jumpi\n        /* \"#utility.yul\":6378:6396   */\n      tag_159\n      tag_94\n      jump\t// in\n    tag_159:\n        /* \"#utility.yul\":6363:6398   */\n    tag_158:\n        /* \"#utility.yul\":6420:6421   */\n      dup3\n        /* \"#utility.yul\":6417:6418   */\n      dup3\n        /* \"#utility.yul\":6413:6422   */\n      div\n        /* \"#utility.yul\":6408:6422   */\n      swap1\n      pop\n        /* \"#utility.yul\":6243:6428   */\n      swap3\n      swap2\n      pop\n      pop\n      jump\t// out\n        /* \"#utility.yul\":6434:6614   */\n    tag_44:\n        /* \"#utility.yul\":6482:6559   */\n      0x4e487b7100000000000000000000000000000000000000000000000000000000\n        /* \"#utility.yul\":6479:6480   */\n      0x00\n        /* \"#utility.yul\":6472:6560   */\n      mstore\n        /* \"#utility.yul\":6579:6583   */\n      0x41\n        /* \"#utility.yul\":6576:6577   */\n      0x04\n        /* \"#utility.yul\":6569:6584   */\n      mstore\n        /* \"#utility.yul\":6603:6607   */\n      0x24\n        /* \"#utility.yul\":6600:6601   */\n      0x00\n        /* \"#utility.yul\":6593:6608   */\n      revert\n        /* \"#utility.yul\":6620:6814   */\n    tag_49:\n        /* \"#utility.yul\":6660:6664   */\n      0x00\n        /* \"#utility.yul\":6680:6700   */\n      tag_162\n        /* \"#utility.yul\":6698:6699   */\n      dup3\n        /* \"#utility.yul\":6680:6700   */\n      tag_93\n      jump\t// in\n    tag_162:\n        /* \"#utility.yul\":6675:6700   */\n      swap2\n      pop\n        /* \"#utility.yul\":6714:6734   */\n      tag_163\n        /* \"#utility.yul\":6732:6733   */\n      dup4\n        /* \"#utility.yul\":6714:6734   */\n      tag_93\n      jump\t// in\n    tag_163:\n        /* \"#utility.yul\":6709:6734   */\n      swap3\n      pop\n        /* \"#utility.yul\":6758:6759   */\n      dup3\n        /* \"#utility.yul\":6755:6756   */\n      dup3\n        /* \"#utility.yul\":6751:6760   */\n      sub\n        /* \"#utility.yul\":6743:6760   */\n      swap1\n      pop\n        /* \"#utility.yul\":6782:6783   */\n      dup2\n        /* \"#utility.yul\":6776:6780   */\n      dup2\n        /* \"#utility.yul\":6773:6784   */\n      gt\n        /* \"#utility.yul\":6770:6807   */\n      iszero\n      tag_164\n      jumpi\n        /* \"#utility.yul\":6787:6805   */\n      tag_165\n      tag_92\n      jump\t// in\n    tag_165:\n        /* \"#utility.yul\":6770:6807   */\n    tag_164:\n        /* \"#utility.yul\":6620:6814   */\n      swap3\n      swap2\n      pop\n      pop\n      jump\t// out\n        /* \"#utility.yul\":6820:6996   */\n    tag_51:\n        /* \"#utility.yul\":6852:6853   */\n      0x00\n        /* \"#utility.yul\":6869:6889   */\n      tag_167\n        /* \"#utility.yul\":6887:6888   */\n      dup3\n        /* \"#utility.yul\":6869:6889   */\n      tag_93\n      jump\t// in\n    tag_167:\n        /* \"#utility.yul\":6864:6889   */\n      swap2\n      pop\n        /* \"#utility.yul\":6903:6923   */\n      tag_168\n        /* \"#utility.yul\":6921:6922   */\n      dup4\n        /* \"#utility.yul\":6903:6923   */\n      tag_93\n      jump\t// in\n    tag_168:\n        /* \"#utility.yul\":6898:6923   */\n      swap3\n      pop\n        /* \"#utility.yul\":6942:6943   */\n      dup3\n        /* \"#utility.yul\":6932:6967   */\n      tag_169\n      jumpi\n        /* \"#utility.yul\":6947:6965   */\n      tag_170\n      tag_94\n      jump\t// in\n    tag_170:\n        /* \"#utility.yul\":6932:6967   */\n    tag_169:\n        /* \"#utility.yul\":6988:6989   */\n      dup3\n        /* \"#utility.yul\":6985:6986   */\n      dup3\n        /* \"#utility.yul\":6981:6990   */\n      mod\n        /* \"#utility.yul\":6976:6990   */\n      swap1\n      pop\n        /* \"#utility.yul\":6820:6996   */\n      swap3\n      swap2\n      pop\n      pop\n      jump\t// out\n        /* \"#utility.yul\":7002:7193   */\n    tag_53:\n        /* \"#utility.yul\":7042:7045   */\n      0x00\n        /* \"#utility.yul\":7061:7081   */\n      tag_172\n        /* \"#utility.yul\":7079:7080   */\n      dup3\n        /* \"#utility.yul\":7061:7081   */\n      tag_93\n      jump\t// in\n    tag_172:\n        /* \"#utility.yul\":7056:7081   */\n      swap2\n      pop\n        /* \"#utility.yul\":7095:7115   */\n      tag_173\n        /* \"#utility.yul\":7113:7114   */\n      dup4\n        /* \"#utility.yul\":7095:7115   */\n      tag_93\n      jump\t// in\n    tag_173:\n        /* \"#utility.yul\":7090:7115   */\n      swap3\n      pop\n        /* \"#utility.yul\":7138:7139   */\n      dup3\n        /* \"#utility.yul\":7135:7136   */\n      dup3\n        /* \"#utility.yul\":7131:7140   */\n      add\n        /* \"#utility.yul\":7124:7140   */\n      swap1\n      pop\n        /* \"#utility.yul\":7159:7162   */\n      dup1\n        /* \"#utility.yul\":7156:7157   */\n      dup3\n        /* \"#utility.yul\":7153:7163   */\n      gt\n        /* \"#utility.yul\":7150:7186   */\n      iszero\n      tag_174\n      jumpi\n        /* \"#utility.yul\":7166:7184   */\n      tag_175\n      tag_92\n      jump\t// in\n    tag_175:\n        /* \"#utility.yul\":7150:7186   */\n    tag_174:\n        /* \"#utility.yul\":7002:7193   */\n      swap3\n      swap2\n      pop\n      pop\n      jump\t// out\n        /* \"#utility.yul\":7199:7379   */\n    tag_56:\n        /* \"#utility.yul\":7247:7324   */\n      0x4e487b7100000000000000000000000000000000000000000000000000000000\n        /* \"#utility.yul\":7244:7245   */\n      0x00\n        /* \"#utility.yul\":7237:7325   */\n      mstore\n        /* \"#utility.yul\":7344:7348   */\n      0x32\n        /* \"#utility.yul\":7341:7342   */\n      0x04\n        /* \"#utility.yul\":7334:7349   */\n      mstore\n        /* \"#utility.yul\":7368:7372   */\n      0x24\n        /* \"#utility.yul\":7365:7366   */\n      0x00\n        /* \"#utility.yul\":7358:7373   */\n      revert\n        /* \"#utility.yul\":7385:7503   */\n    tag_95:\n        /* \"#utility.yul\":7472:7496   */\n      tag_178\n        /* \"#utility.yul\":7490:7495   */\n      dup2\n        /* \"#utility.yul\":7472:7496   */\n      tag_93\n      jump\t// in\n    tag_178:\n        /* \"#utility.yul\":7467:7470   */\n      dup3\n        /* \"#utility.yul\":7460:7497   */\n      mstore\n        /* \"#utility.yul\":7385:7503   */\n      pop\n      pop\n      jump\t// out\n        /* \"#utility.yul\":7509:7951   */\n    tag_68:\n        /* \"#utility.yul\":7658:7662   */\n      0x00\n        /* \"#utility.yul\":7696:7698   */\n      0x60\n        /* \"#utility.yul\":7685:7694   */\n      dup3\n        /* \"#utility.yul\":7681:7699   */\n      add\n        /* \"#utility.yul\":7673:7699   */\n      swap1\n      pop\n        /* \"#utility.yul\":7709:7780   */\n      tag_180\n        /* \"#utility.yul\":7777:7778   */\n      0x00\n        /* \"#utility.yul\":7766:7775   */\n      dup4\n        /* \"#utility.yul\":7762:7779   */\n      add\n        /* \"#utility.yul\":7753:7759   */\n      dup7\n        /* \"#utility.yul\":7709:7780   */\n      tag_95\n      jump\t// in\n    tag_180:\n        /* \"#utility.yul\":7790:7862   */\n      tag_181\n        /* \"#utility.yul\":7858:7860   */\n      0x20\n        /* \"#utility.yul\":7847:7856   */\n      dup4\n        /* \"#utility.yul\":7843:7861   */\n      add\n        /* \"#utility.yul\":7834:7840   */\n      dup6\n        /* \"#utility.yul\":7790:7862   */\n      tag_95\n      jump\t// in\n    tag_181:\n        /* \"#utility.yul\":7872:7944   */\n      tag_182\n        /* \"#utility.yul\":7940:7942   */\n      0x40\n        /* \"#utility.yul\":7929:7938   */\n      dup4\n        /* \"#utility.yul\":7925:7943   */\n      add\n        /* \"#utility.yul\":7916:7922   */\n      dup5\n        /* \"#utility.yul\":7872:7944   */\n      tag_95\n      jump\t// in\n    tag_182:\n        /* \"#utility.yul\":7509:7951   */\n      swap5\n      swap4\n      pop\n      pop\n      pop\n      pop\n      jump\t// out\n\n    auxdata: 0xa26469706673582212207fb47e177e8081f930842fb1a1337e3ae0de98c7e2208e07f087e9f47d39c96064736f6c634300081a0033\n}\n",
				"bytecode": {
					"linkReferences": {},
					"object": "60a060405234801561000f575f80fd5b506040516109ef3803806109ef833981810160405281019061003191906100c9565b8073ffffffffffffffffffffffffffffffffffffffff1660808173ffffffffffffffffffffffffffffffffffffffff1681525050506100f4565b5f80fd5b5f73ffffffffffffffffffffffffffffffffffffffff82169050919050565b5f6100988261006f565b9050919050565b6100a88161008e565b81146100b2575f80fd5b50565b5f815190506100c38161009f565b92915050565b5f602082840312156100de576100dd61006b565b5b5f6100eb848285016100b5565b91505092915050565b6080516108de6101115f395f81816076015260a101526108de5ff3fe608060405234801561000f575f80fd5b5060043610610034575f3560e01c806327ba0af714610038578063489187e814610056575b5f80fd5b610040610074565b60405161004d919061048c565b60405180910390f35b61005e610098565b60405161006b9190610515565b60405180910390f35b7f000000000000000000000000000000000000000000000000000000000000000081565b606080806100c77f000000000000000000000000000000000000000000000000000000000000000060016100f0565b6040516020016100d8929190610579565b60405160208183030381529060405290508091505090565b60608273ffffffffffffffffffffffffffffffffffffffff1663a32a3ee46040518163ffffffff1660e01b8152600401602060405180830381865afa92505050801561015a57506040513d601f19601f8201168201806040525081019061015791906105ca565b60015b6101c55761016a8260ff166101d7565b60405160200161017a9190610679565b6040516020818303038152906040526040517f08c379a00000000000000000000000000000000000000000000000000000000081526004016101bc9190610515565b60405180910390fd5b6101ce81610330565b91505092915050565b60605f820361021d576040518060400160405280600181526020017f3000000000000000000000000000000000000000000000000000000000000000815250905061032b565b5f8290505f5b5f821461024c578080610235906106d0565b915050600a826102459190610744565b9150610223565b5f8167ffffffffffffffff81111561026757610266610774565b5b6040519080825280601f01601f1916602001820160405280156102995781602001600182028036833780820191505090505b5090505b5f8514610324576001826102b191906107a1565b9150600a856102c091906107d4565b60306102cc9190610804565b60f81b8183815181106102e2576102e1610837565b5b60200101907effffffffffffffffffffffffffffffffffffffffffffffffffffffffffffff191690815f1a905350600a8561031d9190610744565b945061029d565b8093505050505b919050565b606061035e8260017fffffffffffffffffffffffffffffffffffffffffffffffffffffffffffffffff610365565b9050919050565b60605f61037185610443565b90505f81036103915760405180602001604052805f81525091505061043c565b808411156103b05760405180602001604052805f81525091505061043c565b838310156103f9578084846040517f2c4a89fa0000000000000000000000000000000000000000000000000000000081526004016103f093929190610873565b60405180910390fd5b5f84840390505f85830390505f8282106104135782610415565b815b90506040519450601f19601f60208301011685016040528085528087602087018a3c505050505b9392505050565b5f813b9050919050565b5f73ffffffffffffffffffffffffffffffffffffffff82169050919050565b5f6104768261044d565b9050919050565b6104868161046c565b82525050565b5f60208201905061049f5f83018461047d565b92915050565b5f81519050919050565b5f82825260208201905092915050565b8281835e5f83830152505050565b5f601f19601f8301169050919050565b5f6104e7826104a5565b6104f181856104af565b93506105018185602086016104bf565b61050a816104cd565b840191505092915050565b5f6020820190508181035f83015261052d81846104dd565b905092915050565b5f81519050919050565b5f81905092915050565b5f61055382610535565b61055d818561053f565b935061056d8185602086016104bf565b80840191505092915050565b5f6105848285610549565b91506105908284610549565b91508190509392505050565b5f80fd5b6105a98161046c565b81146105b3575f80fd5b50565b5f815190506105c4816105a0565b92915050565b5f602082840312156105df576105de61059c565b5b5f6105ec848285016105b6565b91505092915050565b5f81905092915050565b7f4661696c6564206f6e206368756e6b20230000000000000000000000000000005f82015250565b5f6106336011836105f5565b915061063e826105ff565b601182019050919050565b5f610653826104a5565b61065d81856105f5565b935061066d8185602086016104bf565b80840191505092915050565b5f61068382610627565b915061068f8284610649565b915081905092915050565b7f4e487b71000000000000000000000000000000000000000000000000000000005f52601160045260245ffd5b5f819050919050565b5f6106da826106c7565b91507fffffffffffffffffffffffffffffffffffffffffffffffffffffffffffffffff820361070c5761070b61069a565b5b600182019050919050565b7f4e487b71000000000000000000000000000000000000000000000000000000005f52601260045260245ffd5b5f61074e826106c7565b9150610759836106c7565b92508261076957610768610717565b5b828204905092915050565b7f4e487b71000000000000000000000000000000000000000000000000000000005f52604160045260245ffd5b5f6107ab826106c7565b91506107b6836106c7565b92508282039050818111156107ce576107cd61069a565b5b92915050565b5f6107de826106c7565b91506107e9836106c7565b9250826107f9576107f8610717565b5b828206905092915050565b5f61080e826106c7565b9150610819836106c7565b92508282019050808211156108315761083061069a565b5b92915050565b7f4e487b71000000000000000000000000000000000000000000000000000000005f52603260045260245ffd5b61086d816106c7565b82525050565b5f6060820190506108865f830186610864565b6108936020830185610864565b6108a06040830184610864565b94935050505056fea26469706673582212207fb47e177e8081f930842fb1a1337e3ae0de98c7e2208e07f087e9f47d39c96064736f6c634300081a0033",
					"opcodes": "PUSH1 0xA0 PUSH1 0x40 MSTORE CALLVALUE DUP1 ISZERO PUSH2 0xF JUMPI PUSH0 DUP1 REVERT JUMPDEST POP PUSH1 0x40 MLOAD PUSH2 0x9EF CODESIZE SUB DUP1 PUSH2 0x9EF DUP4 CODECOPY DUP2 DUP2 ADD PUSH1 0x40 MSTORE DUP2 ADD SWAP1 PUSH2 0x31 SWAP2 SWAP1 PUSH2 0xC9 JUMP JUMPDEST DUP1 PUSH20 0xFFFFFFFFFFFFFFFFFFFFFFFFFFFFFFFFFFFFFFFF AND PUSH1 0x80 DUP2 PUSH20 0xFFFFFFFFFFFFFFFFFFFFFFFFFFFFFFFFFFFFFFFF AND DUP2 MSTORE POP POP POP PUSH2 0xF4 JUMP JUMPDEST PUSH0 DUP1 REVERT JUMPDEST PUSH0 PUSH20 0xFFFFFFFFFFFFFFFFFFFFFFFFFFFFFFFFFFFFFFFF DUP3 AND SWAP1 POP SWAP2 SWAP1 POP JUMP JUMPDEST PUSH0 PUSH2 0x98 DUP3 PUSH2 0x6F JUMP JUMPDEST SWAP1 POP SWAP2 SWAP1 POP JUMP JUMPDEST PUSH2 0xA8 DUP2 PUSH2 0x8E JUMP JUMPDEST DUP2 EQ PUSH2 0xB2 JUMPI PUSH0 DUP1 REVERT JUMPDEST POP JUMP JUMPDEST PUSH0 DUP2 MLOAD SWAP1 POP PUSH2 0xC3 DUP2 PUSH2 0x9F JUMP JUMPDEST SWAP3 SWAP2 POP POP JUMP JUMPDEST PUSH0 PUSH1 0x20 DUP3 DUP5 SUB SLT ISZERO PUSH2 0xDE JUMPI PUSH2 0xDD PUSH2 0x6B JUMP JUMPDEST JUMPDEST PUSH0 PUSH2 0xEB DUP5 DUP3 DUP6 ADD PUSH2 0xB5 JUMP JUMPDEST SWAP2 POP POP SWAP3 SWAP2 POP POP JUMP JUMPDEST PUSH1 0x80 MLOAD PUSH2 0x8DE PUSH2 0x111 PUSH0 CODECOPY PUSH0 DUP2 DUP2 PUSH1 0x76 ADD MSTORE PUSH1 0xA1 ADD MSTORE PUSH2 0x8DE PUSH0 RETURN INVALID PUSH1 0x80 PUSH1 0x40 MSTORE CALLVALUE DUP1 ISZERO PUSH2 0xF JUMPI PUSH0 DUP1 REVERT JUMPDEST POP PUSH1 0x4 CALLDATASIZE LT PUSH2 0x34 JUMPI PUSH0 CALLDATALOAD PUSH1 0xE0 SHR DUP1 PUSH4 0x27BA0AF7 EQ PUSH2 0x38 JUMPI DUP1 PUSH4 0x489187E8 EQ PUSH2 0x56 JUMPI JUMPDEST PUSH0 DUP1 REVERT JUMPDEST PUSH2 0x40 PUSH2 0x74 JUMP JUMPDEST PUSH1 0x40 MLOAD PUSH2 0x4D SWAP2 SWAP1 PUSH2 0x48C JUMP JUMPDEST PUSH1 0x40 MLOAD DUP1 SWAP2 SUB SWAP1 RETURN JUMPDEST PUSH2 0x5E PUSH2 0x98 JUMP JUMPDEST PUSH1 0x40 MLOAD PUSH2 0x6B SWAP2 SWAP1 PUSH2 0x515 JUMP JUMPDEST PUSH1 0x40 MLOAD DUP1 SWAP2 SUB SWAP1 RETURN JUMPDEST PUSH32 0x0 DUP2 JUMP JUMPDEST PUSH1 0x60 DUP1 DUP1 PUSH2 0xC7 PUSH32 0x0 PUSH1 0x1 PUSH2 0xF0 JUMP JUMPDEST PUSH1 0x40 MLOAD PUSH1 0x20 ADD PUSH2 0xD8 SWAP3 SWAP2 SWAP1 PUSH2 0x579 JUMP JUMPDEST PUSH1 0x40 MLOAD PUSH1 0x20 DUP2 DUP4 SUB SUB DUP2 MSTORE SWAP1 PUSH1 0x40 MSTORE SWAP1 POP DUP1 SWAP2 POP POP SWAP1 JUMP JUMPDEST PUSH1 0x60 DUP3 PUSH20 0xFFFFFFFFFFFFFFFFFFFFFFFFFFFFFFFFFFFFFFFF AND PUSH4 0xA32A3EE4 PUSH1 0x40 MLOAD DUP2 PUSH4 0xFFFFFFFF AND PUSH1 0xE0 SHL DUP2 MSTORE PUSH1 0x4 ADD PUSH1 0x20 PUSH1 0x40 MLOAD DUP1 DUP4 SUB DUP2 DUP7 GAS STATICCALL SWAP3 POP POP POP DUP1 ISZERO PUSH2 0x15A JUMPI POP PUSH1 0x40 MLOAD RETURNDATASIZE PUSH1 0x1F NOT PUSH1 0x1F DUP3 ADD AND DUP3 ADD DUP1 PUSH1 0x40 MSTORE POP DUP2 ADD SWAP1 PUSH2 0x157 SWAP2 SWAP1 PUSH2 0x5CA JUMP JUMPDEST PUSH1 0x1 JUMPDEST PUSH2 0x1C5 JUMPI PUSH2 0x16A DUP3 PUSH1 0xFF AND PUSH2 0x1D7 JUMP JUMPDEST PUSH1 0x40 MLOAD PUSH1 0x20 ADD PUSH2 0x17A SWAP2 SWAP1 PUSH2 0x679 JUMP JUMPDEST PUSH1 0x40 MLOAD PUSH1 0x20 DUP2 DUP4 SUB SUB DUP2 MSTORE SWAP1 PUSH1 0x40 MSTORE PUSH1 0x40 MLOAD PUSH32 0x8C379A000000000000000000000000000000000000000000000000000000000 DUP2 MSTORE PUSH1 0x4 ADD PUSH2 0x1BC SWAP2 SWAP1 PUSH2 0x515 JUMP JUMPDEST PUSH1 0x40 MLOAD DUP1 SWAP2 SUB SWAP1 REVERT JUMPDEST PUSH2 0x1CE DUP2 PUSH2 0x330 JUMP JUMPDEST SWAP2 POP POP SWAP3 SWAP2 POP POP JUMP JUMPDEST PUSH1 0x60 PUSH0 DUP3 SUB PUSH2 0x21D JUMPI PUSH1 0x40 MLOAD DUP1 PUSH1 0x40 ADD PUSH1 0x40 MSTORE DUP1 PUSH1 0x1 DUP2 MSTORE PUSH1 0x20 ADD PUSH32 0x3000000000000000000000000000000000000000000000000000000000000000 DUP2 MSTORE POP SWAP1 POP PUSH2 0x32B JUMP JUMPDEST PUSH0 DUP3 SWAP1 POP PUSH0 JUMPDEST PUSH0 DUP3 EQ PUSH2 0x24C JUMPI DUP1 DUP1 PUSH2 0x235 SWAP1 PUSH2 0x6D0 JUMP JUMPDEST SWAP2 POP POP PUSH1 0xA DUP3 PUSH2 0x245 SWAP2 SWAP1 PUSH2 0x744 JUMP JUMPDEST SWAP2 POP PUSH2 0x223 JUMP JUMPDEST PUSH0 DUP2 PUSH8 0xFFFFFFFFFFFFFFFF DUP2 GT ISZERO PUSH2 0x267 JUMPI PUSH2 0x266 PUSH2 0x774 JUMP JUMPDEST JUMPDEST PUSH1 0x40 MLOAD SWAP1 DUP1 DUP3 MSTORE DUP1 PUSH1 0x1F ADD PUSH1 0x1F NOT AND PUSH1 0x20 ADD DUP3 ADD PUSH1 0x40 MSTORE DUP1 ISZERO PUSH2 0x299 JUMPI DUP2 PUSH1 0x20 ADD PUSH1 0x1 DUP3 MUL DUP1 CALLDATASIZE DUP4 CALLDATACOPY DUP1 DUP3 ADD SWAP2 POP POP SWAP1 POP JUMPDEST POP SWAP1 POP JUMPDEST PUSH0 DUP6 EQ PUSH2 0x324 JUMPI PUSH1 0x1 DUP3 PUSH2 0x2B1 SWAP2 SWAP1 PUSH2 0x7A1 JUMP JUMPDEST SWAP2 POP PUSH1 0xA DUP6 PUSH2 0x2C0 SWAP2 SWAP1 PUSH2 0x7D4 JUMP JUMPDEST PUSH1 0x30 PUSH2 0x2CC SWAP2 SWAP1 PUSH2 0x804 JUMP JUMPDEST PUSH1 0xF8 SHL DUP2 DUP4 DUP2 MLOAD DUP2 LT PUSH2 0x2E2 JUMPI PUSH2 0x2E1 PUSH2 0x837 JUMP JUMPDEST JUMPDEST PUSH1 0x20 ADD ADD SWAP1 PUSH31 0xFFFFFFFFFFFFFFFFFFFFFFFFFFFFFFFFFFFFFFFFFFFFFFFFFFFFFFFFFFFFFF NOT AND SWAP1 DUP2 PUSH0 BYTE SWAP1 MSTORE8 POP PUSH1 0xA DUP6 PUSH2 0x31D SWAP2 SWAP1 PUSH2 0x744 JUMP JUMPDEST SWAP5 POP PUSH2 0x29D JUMP JUMPDEST DUP1 SWAP4 POP POP POP POP JUMPDEST SWAP2 SWAP1 POP JUMP JUMPDEST PUSH1 0x60 PUSH2 0x35E DUP3 PUSH1 0x1 PUSH32 0xFFFFFFFFFFFFFFFFFFFFFFFFFFFFFFFFFFFFFFFFFFFFFFFFFFFFFFFFFFFFFFFF PUSH2 0x365 JUMP JUMPDEST SWAP1 POP SWAP2 SWAP1 POP JUMP JUMPDEST PUSH1 0x60 PUSH0 PUSH2 0x371 DUP6 PUSH2 0x443 JUMP JUMPDEST SWAP1 POP PUSH0 DUP2 SUB PUSH2 0x391 JUMPI PUSH1 0x40 MLOAD DUP1 PUSH1 0x20 ADD PUSH1 0x40 MSTORE DUP1 PUSH0 DUP2 MSTORE POP SWAP2 POP POP PUSH2 0x43C JUMP JUMPDEST DUP1 DUP5 GT ISZERO PUSH2 0x3B0 JUMPI PUSH1 0x40 MLOAD DUP1 PUSH1 0x20 ADD PUSH1 0x40 MSTORE DUP1 PUSH0 DUP2 MSTORE POP SWAP2 POP POP PUSH2 0x43C JUMP JUMPDEST DUP4 DUP4 LT ISZERO PUSH2 0x3F9 JUMPI DUP1 DUP5 DUP5 PUSH1 0x40 MLOAD PUSH32 0x2C4A89FA00000000000000000000000000000000000000000000000000000000 DUP2 MSTORE PUSH1 0x4 ADD PUSH2 0x3F0 SWAP4 SWAP3 SWAP2 SWAP1 PUSH2 0x873 JUMP JUMPDEST PUSH1 0x40 MLOAD DUP1 SWAP2 SUB SWAP1 REVERT JUMPDEST PUSH0 DUP5 DUP5 SUB SWAP1 POP PUSH0 DUP6 DUP4 SUB SWAP1 POP PUSH0 DUP3 DUP3 LT PUSH2 0x413 JUMPI DUP3 PUSH2 0x415 JUMP JUMPDEST DUP2 JUMPDEST SWAP1 POP PUSH1 0x40 MLOAD SWAP5 POP PUSH1 0x1F NOT PUSH1 0x1F PUSH1 0x20 DUP4 ADD ADD AND DUP6 ADD PUSH1 0x40 MSTORE DUP1 DUP6 MSTORE DUP1 DUP8 PUSH1 0x20 DUP8 ADD DUP11 EXTCODECOPY POP POP POP POP JUMPDEST SWAP4 SWAP3 POP POP POP JUMP JUMPDEST PUSH0 DUP2 EXTCODESIZE SWAP1 POP SWAP2 SWAP1 POP JUMP JUMPDEST PUSH0 PUSH20 0xFFFFFFFFFFFFFFFFFFFFFFFFFFFFFFFFFFFFFFFF DUP3 AND SWAP1 POP SWAP2 SWAP1 POP JUMP JUMPDEST PUSH0 PUSH2 0x476 DUP3 PUSH2 0x44D JUMP JUMPDEST SWAP1 POP SWAP2 SWAP1 POP JUMP JUMPDEST PUSH2 0x486 DUP2 PUSH2 0x46C JUMP JUMPDEST DUP3 MSTORE POP POP JUMP JUMPDEST PUSH0 PUSH1 0x20 DUP3 ADD SWAP1 POP PUSH2 0x49F PUSH0 DUP4 ADD DUP5 PUSH2 0x47D JUMP JUMPDEST SWAP3 SWAP2 POP POP JUMP JUMPDEST PUSH0 DUP2 MLOAD SWAP1 POP SWAP2 SWAP1 POP JUMP JUMPDEST PUSH0 DUP3 DUP3 MSTORE PUSH1 0x20 DUP3 ADD SWAP1 POP SWAP3 SWAP2 POP POP JUMP JUMPDEST DUP3 DUP2 DUP4 MCOPY PUSH0 DUP4 DUP4 ADD MSTORE POP POP POP JUMP JUMPDEST PUSH0 PUSH1 0x1F NOT PUSH1 0x1F DUP4 ADD AND SWAP1 POP SWAP2 SWAP1 POP JUMP JUMPDEST PUSH0 PUSH2 0x4E7 DUP3 PUSH2 0x4A5 JUMP JUMPDEST PUSH2 0x4F1 DUP2 DUP6 PUSH2 0x4AF JUMP JUMPDEST SWAP4 POP PUSH2 0x501 DUP2 DUP6 PUSH1 0x20 DUP7 ADD PUSH2 0x4BF JUMP JUMPDEST PUSH2 0x50A DUP2 PUSH2 0x4CD JUMP JUMPDEST DUP5 ADD SWAP2 POP POP SWAP3 SWAP2 POP POP JUMP JUMPDEST PUSH0 PUSH1 0x20 DUP3 ADD SWAP1 POP DUP2 DUP2 SUB PUSH0 DUP4 ADD MSTORE PUSH2 0x52D DUP2 DUP5 PUSH2 0x4DD JUMP JUMPDEST SWAP1 POP SWAP3 SWAP2 POP POP JUMP JUMPDEST PUSH0 DUP2 MLOAD SWAP1 POP SWAP2 SWAP1 POP JUMP JUMPDEST PUSH0 DUP2 SWAP1 POP SWAP3 SWAP2 POP POP JUMP JUMPDEST PUSH0 PUSH2 0x553 DUP3 PUSH2 0x535 JUMP JUMPDEST PUSH2 0x55D DUP2 DUP6 PUSH2 0x53F JUMP JUMPDEST SWAP4 POP PUSH2 0x56D DUP2 DUP6 PUSH1 0x20 DUP7 ADD PUSH2 0x4BF JUMP JUMPDEST DUP1 DUP5 ADD SWAP2 POP POP SWAP3 SWAP2 POP POP JUMP JUMPDEST PUSH0 PUSH2 0x584 DUP3 DUP6 PUSH2 0x549 JUMP JUMPDEST SWAP2 POP PUSH2 0x590 DUP3 DUP5 PUSH2 0x549 JUMP JUMPDEST SWAP2 POP DUP2 SWAP1 POP SWAP4 SWAP3 POP POP POP JUMP JUMPDEST PUSH0 DUP1 REVERT JUMPDEST PUSH2 0x5A9 DUP2 PUSH2 0x46C JUMP JUMPDEST DUP2 EQ PUSH2 0x5B3 JUMPI PUSH0 DUP1 REVERT JUMPDEST POP JUMP JUMPDEST PUSH0 DUP2 MLOAD SWAP1 POP PUSH2 0x5C4 DUP2 PUSH2 0x5A0 JUMP JUMPDEST SWAP3 SWAP2 POP POP JUMP JUMPDEST PUSH0 PUSH1 0x20 DUP3 DUP5 SUB SLT ISZERO PUSH2 0x5DF JUMPI PUSH2 0x5DE PUSH2 0x59C JUMP JUMPDEST JUMPDEST PUSH0 PUSH2 0x5EC DUP5 DUP3 DUP6 ADD PUSH2 0x5B6 JUMP JUMPDEST SWAP2 POP POP SWAP3 SWAP2 POP POP JUMP JUMPDEST PUSH0 DUP2 SWAP1 POP SWAP3 SWAP2 POP POP JUMP JUMPDEST PUSH32 0x4661696C6564206F6E206368756E6B2023000000000000000000000000000000 PUSH0 DUP3 ADD MSTORE POP JUMP JUMPDEST PUSH0 PUSH2 0x633 PUSH1 0x11 DUP4 PUSH2 0x5F5 JUMP JUMPDEST SWAP2 POP PUSH2 0x63E DUP3 PUSH2 0x5FF JUMP JUMPDEST PUSH1 0x11 DUP3 ADD SWAP1 POP SWAP2 SWAP1 POP JUMP JUMPDEST PUSH0 PUSH2 0x653 DUP3 PUSH2 0x4A5 JUMP JUMPDEST PUSH2 0x65D DUP2 DUP6 PUSH2 0x5F5 JUMP JUMPDEST SWAP4 POP PUSH2 0x66D DUP2 DUP6 PUSH1 0x20 DUP7 ADD PUSH2 0x4BF JUMP JUMPDEST DUP1 DUP5 ADD SWAP2 POP POP SWAP3 SWAP2 POP POP JUMP JUMPDEST PUSH0 PUSH2 0x683 DUP3 PUSH2 0x627 JUMP JUMPDEST SWAP2 POP PUSH2 0x68F DUP3 DUP5 PUSH2 0x649 JUMP JUMPDEST SWAP2 POP DUP2 SWAP1 POP SWAP3 SWAP2 POP POP JUMP JUMPDEST PUSH32 0x4E487B7100000000000000000000000000000000000000000000000000000000 PUSH0 MSTORE PUSH1 0x11 PUSH1 0x4 MSTORE PUSH1 0x24 PUSH0 REVERT JUMPDEST PUSH0 DUP2 SWAP1 POP SWAP2 SWAP1 POP JUMP JUMPDEST PUSH0 PUSH2 0x6DA DUP3 PUSH2 0x6C7 JUMP JUMPDEST SWAP2 POP PUSH32 0xFFFFFFFFFFFFFFFFFFFFFFFFFFFFFFFFFFFFFFFFFFFFFFFFFFFFFFFFFFFFFFFF DUP3 SUB PUSH2 0x70C JUMPI PUSH2 0x70B PUSH2 0x69A JUMP JUMPDEST JUMPDEST PUSH1 0x1 DUP3 ADD SWAP1 POP SWAP2 SWAP1 POP JUMP JUMPDEST PUSH32 0x4E487B7100000000000000000000000000000000000000000000000000000000 PUSH0 MSTORE PUSH1 0x12 PUSH1 0x4 MSTORE PUSH1 0x24 PUSH0 REVERT JUMPDEST PUSH0 PUSH2 0x74E DUP3 PUSH2 0x6C7 JUMP JUMPDEST SWAP2 POP PUSH2 0x759 DUP4 PUSH2 0x6C7 JUMP JUMPDEST SWAP3 POP DUP3 PUSH2 0x769 JUMPI PUSH2 0x768 PUSH2 0x717 JUMP JUMPDEST JUMPDEST DUP3 DUP3 DIV SWAP1 POP SWAP3 SWAP2 POP POP JUMP JUMPDEST PUSH32 0x4E487B7100000000000000000000000000000000000000000000000000000000 PUSH0 MSTORE PUSH1 0x41 PUSH1 0x4 MSTORE PUSH1 0x24 PUSH0 REVERT JUMPDEST PUSH0 PUSH2 0x7AB DUP3 PUSH2 0x6C7 JUMP JUMPDEST SWAP2 POP PUSH2 0x7B6 DUP4 PUSH2 0x6C7 JUMP JUMPDEST SWAP3 POP DUP3 DUP3 SUB SWAP1 POP DUP2 DUP2 GT ISZERO PUSH2 0x7CE JUMPI PUSH2 0x7CD PUSH2 0x69A JUMP JUMPDEST JUMPDEST SWAP3 SWAP2 POP POP JUMP JUMPDEST PUSH0 PUSH2 0x7DE DUP3 PUSH2 0x6C7 JUMP JUMPDEST SWAP2 POP PUSH2 0x7E9 DUP4 PUSH2 0x6C7 JUMP JUMPDEST SWAP3 POP DUP3 PUSH2 0x7F9 JUMPI PUSH2 0x7F8 PUSH2 0x717 JUMP JUMPDEST JUMPDEST DUP3 DUP3 MOD SWAP1 POP SWAP3 SWAP2 POP POP JUMP JUMPDEST PUSH0 PUSH2 0x80E DUP3 PUSH2 0x6C7 JUMP JUMPDEST SWAP2 POP PUSH2 0x819 DUP4 PUSH2 0x6C7 JUMP JUMPDEST SWAP3 POP DUP3 DUP3 ADD SWAP1 POP DUP1 DUP3 GT ISZERO PUSH2 0x831 JUMPI PUSH2 0x830 PUSH2 0x69A JUMP JUMPDEST JUMPDEST SWAP3 SWAP2 POP POP JUMP JUMPDEST PUSH32 0x4E487B7100000000000000000000000000000000000000000000000000000000 PUSH0 MSTORE PUSH1 0x32 PUSH1 0x4 MSTORE PUSH1 0x24 PUSH0 REVERT JUMPDEST PUSH2 0x86D DUP2 PUSH2 0x6C7 JUMP JUMPDEST DUP3 MSTORE POP POP JUMP JUMPDEST PUSH0 PUSH1 0x60 DUP3 ADD SWAP1 POP PUSH2 0x886 PUSH0 DUP4 ADD DUP7 PUSH2 0x864 JUMP JUMPDEST PUSH2 0x893 PUSH1 0x20 DUP4 ADD DUP6 PUSH2 0x864 JUMP JUMPDEST PUSH2 0x8A0 PUSH1 0x40 DUP4 ADD DUP5 PUSH2 0x864 JUMP JUMPDEST SWAP5 SWAP4 POP POP POP POP JUMP INVALID LOG2 PUSH5 0x6970667358 0x22 SLT KECCAK256 PUSH32 0xB47E177E8081F930842FB1A1337E3AE0DE98C7E2208E07F087E9F47D39C96064 PUSH20 0x6F6C634300081A00330000000000000000000000 "
				},
				"gasEstimates": {
					"creation": {
						"codeDepositCost": "454000",
						"executionCost": "infinite",
						"totalCost": "infinite"
					},
					"external": {
						"chunk1()": "infinite",
						"getSVG()": "infinite"
					},
					"internal": {
						"toString(uint256)": "infinite",
						"tryRead(address,uint8)": "infinite"
					}
				},
				"methodIdentifiers": {
					"chunk1()": "27ba0af7",
					"getSVG()": "489187e8"
				}
			},
			"storageLayout": {
				"storage": [],
				"types": null
			},
			"userdoc": {
				"kind": "user",
				"methods": {},
				"version": 1
			}
		}
	}
}