{
	"contracts/HashJingSVGStorage1.sol": {
		"HashJingSVGStorage1": {
			"abi": [
				{
					"inputs": [],
					"stateMutability": "nonpayable",
					"type": "constructor"
				},
				{
					"inputs": [
						{
							"internalType": "uint256",
							"name": "_size",
							"type": "uint256"
						},
						{
							"internalType": "uint256",
							"name": "_start",
							"type": "uint256"
						},
						{
							"internalType": "uint256",
							"name": "_end",
							"type": "uint256"
						}
					],
					"name": "InvalidCodeAtRange",
					"type": "error"
				},
				{
					"inputs": [],
					"name": "WriteError",
					"type": "error"
				},
				{
					"inputs": [
						{
							"internalType": "uint256",
							"name": "i",
							"type": "uint256"
						}
					],
					"name": "prefix",
					"outputs": [
						{
							"internalType": "bytes",
							"name": "",
							"type": "bytes"
						}
					],
					"stateMutability": "view",
					"type": "function"
				},
				{
					"inputs": [
						{
							"internalType": "uint256",
							"name": "",
							"type": "uint256"
						}
					],
					"name": "prefixPtr",
					"outputs": [
						{
							"internalType": "address",
							"name": "",
							"type": "address"
						}
					],
					"stateMutability": "view",
					"type": "function"
				}
			],
			"devdoc": {
				"kind": "dev",
				"methods": {},
				"version": 1
			},
			"evm": {
				"assembly": "    /* \"contracts/HashJingSVGStorage1.sol\":83:2027  contract HashJingSVGStorage1 {... */\n  mstore(0x40, 0x80)\n    /* \"contracts/HashJingSVGStorage1.sol\":191:1905  constructor() {... */\n  callvalue\n  dup1\n  iszero\n  tag_1\n  jumpi\n  0x00\n  dup1\n  revert\ntag_1:\n  pop\n    /* \"contracts/HashJingSVGStorage1.sol\":230:598  SSTORE2.write(hex\"3c7061746820643d224d203531322031313220412034303020343030203020302031203535312e32303638353631333138323433203131332e3932363130393333313132313237204c203535392e303438323237333538313839312033342e33313133333131393733343535312041203438302034383020302030203020353132203332205a22207374726f6b653d22626c61636b22207374726f6b652d77696474683d2231222066696c6c3d22\") */\n  tag_4\n  mload(0x40)\n  dup1\n  0xe0\n  add\n  0x40\n  mstore\n  dup1\n  0xae\n  dup2\n  mstore\n  0x20\n  add\n  data_03b927c59517b0e4efd5d9bd88bbf6569d9beb39df1baa6fb16d0e4cf221b164\n  0xae\n  swap2\n  codecopy\n    /* \"contracts/HashJingSVGStorage1.sol\":230:243  SSTORE2.write */\n  shl(0x20, tag_5)\n    /* \"contracts/HashJingSVGStorage1.sol\":230:598  SSTORE2.write(hex\"3c7061746820643d224d203531322031313220412034303020343030203020302031203535312e32303638353631333138323433203131332e3932363130393333313132313237204c203535392e303438323237333538313839312033342e33313133333131393733343535312041203438302034383020302030203020353132203332205a22207374726f6b653d22626c61636b22207374726f6b652d77696474683d2231222066696c6c3d22\") */\n  0x20\n  shr\n  jump\t// in\ntag_4:\n    /* \"contracts/HashJingSVGStorage1.sol\":215:224  prefixPtr */\n  0x00\n    /* \"contracts/HashJingSVGStorage1.sol\":225:226  0 */\n  dup1\n    /* \"contracts/HashJingSVGStorage1.sol\":215:227  prefixPtr[0] */\n  0x04\n  dup2\n  lt\n  tag_6\n  jumpi\n  tag_7\n  tag_8\n  jump\t// in\ntag_7:\ntag_6:\n  add\n  0x00\n    /* \"contracts/HashJingSVGStorage1.sol\":215:598  prefixPtr[0] = SSTORE2.write(hex\"3c7061746820643d224d203531322031313220412034303020343030203020302031203535312e32303638353631333138323433203131332e3932363130393333313132313237204c203535392e303438323237333538313839312033342e33313133333131393733343535312041203438302034383020302030203020353132203332205a22207374726f6b653d22626c61636b22207374726f6b652d77696474683d2231222066696c6c3d22\") */\n  0x0100\n  exp\n  dup2\n  sload\n  dup2\n  0xffffffffffffffffffffffffffffffffffffffff\n  mul\n  not\n  and\n  swap1\n  dup4\n  0xffffffffffffffffffffffffffffffffffffffff\n  and\n  mul\n  or\n  swap1\n  sstore\n  pop\n    /* \"contracts/HashJingSVGStorage1.sol\":675:1047  SSTORE2.write(hex\"3c7061746820643d224d203531322031393220412033323020333230203020302031203534332e33363534383439303534353934203139332e3534303838373436343839373033204c203535312e32303638353631333138323433203131332e3932363130393333313132313237204120343030203430302030203020302035313220313132205a22207374726f6b653d22626c61636b22207374726f6b652d77696474683d2231222066696c6c3d22\") */\n  tag_10\n  mload(0x40)\n  dup1\n  0xe0\n  add\n  0x40\n  mstore\n  dup1\n  0xb0\n  dup2\n  mstore\n  0x20\n  add\n  data_9024ed2cc41a15086956b394e0b52d64a9ec08313e80296d53d3563546bb4d80\n  0xb0\n  swap2\n  codecopy\n    /* \"contracts/HashJingSVGStorage1.sol\":675:688  SSTORE2.write */\n  shl(0x20, tag_5)\n    /* \"contracts/HashJingSVGStorage1.sol\":675:1047  SSTORE2.write(hex\"3c7061746820643d224d203531322031393220412033323020333230203020302031203534332e33363534383439303534353934203139332e3534303838373436343839373033204c203535312e32303638353631333138323433203131332e3932363130393333313132313237204120343030203430302030203020302035313220313132205a22207374726f6b653d22626c61636b22207374726f6b652d77696474683d2231222066696c6c3d22\") */\n  0x20\n  shr\n  jump\t// in\ntag_10:\n    /* \"contracts/HashJingSVGStorage1.sol\":660:669  prefixPtr */\n  0x00\n    /* \"contracts/HashJingSVGStorage1.sol\":670:671  1 */\n  0x01\n    /* \"contracts/HashJingSVGStorage1.sol\":660:672  prefixPtr[1] */\n  0x04\n  dup2\n  lt\n  tag_11\n  jumpi\n  tag_12\n  tag_8\n  jump\t// in\ntag_12:\ntag_11:\n  add\n  0x00\n    /* \"contracts/HashJingSVGStorage1.sol\":660:1047  prefixPtr[1] = SSTORE2.write(hex\"3c7061746820643d224d203531322031393220412033323020333230203020302031203534332e33363534383439303534353934203139332e3534303838373436343839373033204c203535312e32303638353631333138323433203131332e3932363130393333313132313237204120343030203430302030203020302035313220313132205a22207374726f6b653d22626c61636b22207374726f6b652d77696474683d2231222066696c6c3d22\") */\n  0x0100\n  exp\n  dup2\n  sload\n  dup2\n  0xffffffffffffffffffffffffffffffffffffffff\n  mul\n  not\n  and\n  swap1\n  dup4\n  0xffffffffffffffffffffffffffffffffffffffff\n  and\n  mul\n  or\n  swap1\n  sstore\n  pop\n    /* \"contracts/HashJingSVGStorage1.sol\":1129:1499  SSTORE2.write(hex\"3c7061746820643d224d203531322032373220412032343020323430203020302031203533352e35323431313336373930393436203237332e31353536363535393836373237204c203534332e33363534383439303534353934203139332e3534303838373436343839373033204120333230203332302030203020302035313220313932205a22207374726f6b653d22626c61636b22207374726f6b652d77696474683d2231222066696c6c3d22\") */\n  tag_14\n  mload(0x40)\n  dup1\n  0xe0\n  add\n  0x40\n  mstore\n  dup1\n  0xaf\n  dup2\n  mstore\n  0x20\n  add\n  data_e5a35c4109324259df0df6a7dded3a19ee5e39615ba92ac52fe3922a33063ded\n  0xaf\n  swap2\n  codecopy\n    /* \"contracts/HashJingSVGStorage1.sol\":1129:1142  SSTORE2.write */\n  shl(0x20, tag_5)\n    /* \"contracts/HashJingSVGStorage1.sol\":1129:1499  SSTORE2.write(hex\"3c7061746820643d224d203531322032373220412032343020323430203020302031203533352e35323431313336373930393436203237332e31353536363535393836373237204c203534332e33363534383439303534353934203139332e3534303838373436343839373033204120333230203332302030203020302035313220313932205a22207374726f6b653d22626c61636b22207374726f6b652d77696474683d2231222066696c6c3d22\") */\n  0x20\n  shr\n  jump\t// in\ntag_14:\n    /* \"contracts/HashJingSVGStorage1.sol\":1114:1123  prefixPtr */\n  0x00\n    /* \"contracts/HashJingSVGStorage1.sol\":1124:1125  2 */\n  0x02\n    /* \"contracts/HashJingSVGStorage1.sol\":1114:1126  prefixPtr[2] */\n  0x04\n  dup2\n  lt\n  tag_15\n  jumpi\n  tag_16\n  tag_8\n  jump\t// in\ntag_16:\ntag_15:\n  add\n  0x00\n    /* \"contracts/HashJingSVGStorage1.sol\":1114:1499  prefixPtr[2] = SSTORE2.write(hex\"3c7061746820643d224d203531322032373220412032343020323430203020302031203533352e35323431313336373930393436203237332e31353536363535393836373237204c203534332e33363534383439303534353934203139332e3534303838373436343839373033204120333230203332302030203020302035313220313932205a22207374726f6b653d22626c61636b22207374726f6b652d77696474683d2231222066696c6c3d22\") */\n  0x0100\n  exp\n  dup2\n  sload\n  dup2\n  0xffffffffffffffffffffffffffffffffffffffff\n  mul\n  not\n  and\n  swap1\n  dup4\n  0xffffffffffffffffffffffffffffffffffffffff\n  and\n  mul\n  or\n  swap1\n  sstore\n  pop\n    /* \"contracts/HashJingSVGStorage1.sol\":1527:1895  SSTORE2.write(hex\"3c7061746820643d224d203531322033353220412031363020313630203020302031203532372e36383237343234353237323937203335322e37373034343337333234343835204c203533352e35323431313336373930393436203237332e31353536363535393836373237204120323430203234302030203020302035313220323732205a22207374726f6b653d22626c61636b22207374726f6b652d77696474683d2231222066696c6c3d22\") */\n  tag_18\n  mload(0x40)\n  dup1\n  0xe0\n  add\n  0x40\n  mstore\n  dup1\n  0xae\n  dup2\n  mstore\n  0x20\n  add\n  data_cf66ed730e42712fc89e254dfe338bca2053c2b244c083cf42c0cfe440610445\n  0xae\n  swap2\n  codecopy\n    /* \"contracts/HashJingSVGStorage1.sol\":1527:1540  SSTORE2.write */\n  shl(0x20, tag_5)\n    /* \"contracts/HashJingSVGStorage1.sol\":1527:1895  SSTORE2.write(hex\"3c7061746820643d224d203531322033353220412031363020313630203020302031203532372e36383237343234353237323937203335322e37373034343337333234343835204c203533352e35323431313336373930393436203237332e31353536363535393836373237204120323430203234302030203020302035313220323732205a22207374726f6b653d22626c61636b22207374726f6b652d77696474683d2231222066696c6c3d22\") */\n  0x20\n  shr\n  jump\t// in\ntag_18:\n    /* \"contracts/HashJingSVGStorage1.sol\":1512:1521  prefixPtr */\n  0x00\n    /* \"contracts/HashJingSVGStorage1.sol\":1522:1523  3 */\n  0x03\n    /* \"contracts/HashJingSVGStorage1.sol\":1512:1524  prefixPtr[3] */\n  0x04\n  dup2\n  lt\n  tag_19\n  jumpi\n  tag_20\n  tag_8\n  jump\t// in\ntag_20:\ntag_19:\n  add\n  0x00\n    /* \"contracts/HashJingSVGStorage1.sol\":1512:1895  prefixPtr[3] = SSTORE2.write(hex\"3c7061746820643d224d203531322033353220412031363020313630203020302031203532372e36383237343234353237323937203335322e37373034343337333234343835204c203533352e35323431313336373930393436203237332e31353536363535393836373237204120323430203234302030203020302035313220323732205a22207374726f6b653d22626c61636b22207374726f6b652d77696474683d2231222066696c6c3d22\") */\n  0x0100\n  exp\n  dup2\n  sload\n  dup2\n  0xffffffffffffffffffffffffffffffffffffffff\n  mul\n  not\n  and\n  swap1\n  dup4\n  0xffffffffffffffffffffffffffffffffffffffff\n  and\n  mul\n  or\n  swap1\n  sstore\n  pop\n    /* \"contracts/HashJingSVGStorage1.sol\":83:2027  contract HashJingSVGStorage1 {... */\n  jump(tag_22)\n    /* \"contracts/SSTORE2.sol\":583:1043  function write(bytes memory _data) internal returns (address pointer) {... */\ntag_5:\n    /* \"contracts/SSTORE2.sol\":636:651  address pointer */\n  0x00\n    /* \"contracts/SSTORE2.sol\":736:753  bytes memory code */\n  dup1\n    /* \"contracts/SSTORE2.sol\":756:850  Bytecode.creationCodeFor(... */\n  tag_24\n    /* \"contracts/SSTORE2.sol\":831:836  _data */\n  dup4\n    /* \"contracts/SSTORE2.sol\":788:844  abi.encodePacked(... */\n  add(0x20, mload(0x40))\n  tag_25\n  swap2\n  swap1\n  tag_26\n  jump\t// in\ntag_25:\n  mload(0x40)\n  0x20\n  dup2\n  dup4\n  sub\n  sub\n  dup2\n  mstore\n  swap1\n  0x40\n  mstore\n    /* \"contracts/SSTORE2.sol\":756:780  Bytecode.creationCodeFor */\n  shl(0x20, tag_27)\n    /* \"contracts/SSTORE2.sol\":756:850  Bytecode.creationCodeFor(... */\n  0x20\n  shr\n  jump\t// in\ntag_24:\n    /* \"contracts/SSTORE2.sol\":736:850  bytes memory code = Bytecode.creationCodeFor(... */\n  swap1\n  pop\n    /* \"contracts/SSTORE2.sol\":946:950  code */\n  dup1\n    /* \"contracts/SSTORE2.sol\":940:951  mload(code) */\n  mload\n    /* \"contracts/SSTORE2.sol\":935:937  32 */\n  0x20\n    /* \"contracts/SSTORE2.sol\":929:933  code */\n  dup3\n    /* \"contracts/SSTORE2.sol\":925:938  add(code, 32) */\n  add\n    /* \"contracts/SSTORE2.sol\":922:923  0 */\n  0x00\n    /* \"contracts/SSTORE2.sol\":915:952  create(0, add(code, 32), mload(code)) */\n  create\n    /* \"contracts/SSTORE2.sol\":904:952  pointer := create(0, add(code, 32), mload(code)) */\n  swap2\n  pop\n    /* \"contracts/SSTORE2.sol\":1015:1016  0 */\n  0x00\n    /* \"contracts/SSTORE2.sol\":996:1017  pointer == address(0) */\n  0xffffffffffffffffffffffffffffffffffffffff\n  and\n    /* \"contracts/SSTORE2.sol\":996:1003  pointer */\n  dup3\n    /* \"contracts/SSTORE2.sol\":996:1017  pointer == address(0) */\n  0xffffffffffffffffffffffffffffffffffffffff\n  and\n  sub\n    /* \"contracts/SSTORE2.sol\":992:1038  if (pointer == address(0)) revert WriteError() */\n  tag_28\n  jumpi\n    /* \"contracts/SSTORE2.sol\":1026:1038  WriteError() */\n  mload(0x40)\n  0x08d4abb600000000000000000000000000000000000000000000000000000000\n  dup2\n  mstore\n  0x04\n  add\n  mload(0x40)\n  dup1\n  swap2\n  sub\n  swap1\n  revert\n    /* \"contracts/SSTORE2.sol\":992:1038  if (pointer == address(0)) revert WriteError() */\ntag_28:\n    /* \"contracts/SSTORE2.sol\":653:1043  {... */\n  pop\n    /* \"contracts/SSTORE2.sol\":583:1043  function write(bytes memory _data) internal returns (address pointer) {... */\n  swap2\n  swap1\n  pop\n  jump\t// out\n    /* \"contracts/utils/Bytecode.sol\":378:1078  function creationCodeFor(bytes memory _code) internal pure returns (bytes memory) {... */\ntag_27:\n    /* \"contracts/utils/Bytecode.sol\":446:458  bytes memory */\n  0x60\n    /* \"contracts/utils/Bytecode.sol\":1002:1007  _code */\n  dup2\n    /* \"contracts/utils/Bytecode.sol\":1002:1014  _code.length */\n  mload\n    /* \"contracts/utils/Bytecode.sol\":1062:1067  _code */\n  dup3\n    /* \"contracts/utils/Bytecode.sol\":956:1073  abi.encodePacked(... */\n  add(0x20, mload(0x40))\n  tag_30\n  swap3\n  swap2\n  swap1\n  tag_31\n  jump\t// in\ntag_30:\n  mload(0x40)\n  0x20\n  dup2\n  dup4\n  sub\n  sub\n  dup2\n  mstore\n  swap1\n  0x40\n  mstore\n    /* \"contracts/utils/Bytecode.sol\":949:1073  return abi.encodePacked(... */\n  swap1\n  pop\n    /* \"contracts/utils/Bytecode.sol\":378:1078  function creationCodeFor(bytes memory _code) internal pure returns (bytes memory) {... */\n  swap2\n  swap1\n  pop\n  jump\t// out\n    /* \"#utility.yul\":7:187   */\ntag_8:\n    /* \"#utility.yul\":55:132   */\n  0x4e487b7100000000000000000000000000000000000000000000000000000000\n    /* \"#utility.yul\":52:53   */\n  0x00\n    /* \"#utility.yul\":45:133   */\n  mstore\n    /* \"#utility.yul\":152:156   */\n  0x32\n    /* \"#utility.yul\":149:150   */\n  0x04\n    /* \"#utility.yul\":142:157   */\n  mstore\n    /* \"#utility.yul\":176:180   */\n  0x24\n    /* \"#utility.yul\":173:174   */\n  0x00\n    /* \"#utility.yul\":166:181   */\n  revert\n    /* \"#utility.yul\":193:341   */\ntag_32:\n    /* \"#utility.yul\":295:306   */\n  0x00\n    /* \"#utility.yul\":332:335   */\n  dup2\n    /* \"#utility.yul\":317:335   */\n  swap1\n  pop\n    /* \"#utility.yul\":193:341   */\n  swap3\n  swap2\n  pop\n  pop\n  jump\t// out\n    /* \"#utility.yul\":347:561   */\ntag_33:\n    /* \"#utility.yul\":487:553   */\n  0x00\n    /* \"#utility.yul\":483:484   */\n  dup1\n    /* \"#utility.yul\":475:481   */\n  dup3\n    /* \"#utility.yul\":471:485   */\n  add\n    /* \"#utility.yul\":464:554   */\n  mstore\n    /* \"#utility.yul\":347:561   */\n  pop\n  jump\t// out\n    /* \"#utility.yul\":567:967   */\ntag_34:\n    /* \"#utility.yul\":727:730   */\n  0x00\n    /* \"#utility.yul\":748:832   */\n  tag_52\n    /* \"#utility.yul\":830:831   */\n  0x01\n    /* \"#utility.yul\":825:828   */\n  dup4\n    /* \"#utility.yul\":748:832   */\n  tag_32\n  jump\t// in\ntag_52:\n    /* \"#utility.yul\":741:832   */\n  swap2\n  pop\n    /* \"#utility.yul\":841:934   */\n  tag_53\n    /* \"#utility.yul\":930:933   */\n  dup3\n    /* \"#utility.yul\":841:934   */\n  tag_33\n  jump\t// in\ntag_53:\n    /* \"#utility.yul\":959:960   */\n  0x01\n    /* \"#utility.yul\":954:957   */\n  dup3\n    /* \"#utility.yul\":950:961   */\n  add\n    /* \"#utility.yul\":943:961   */\n  swap1\n  pop\n    /* \"#utility.yul\":567:967   */\n  swap2\n  swap1\n  pop\n  jump\t// out\n    /* \"#utility.yul\":973:1071   */\ntag_35:\n    /* \"#utility.yul\":1024:1030   */\n  0x00\n    /* \"#utility.yul\":1058:1063   */\n  dup2\n    /* \"#utility.yul\":1052:1064   */\n  mload\n    /* \"#utility.yul\":1042:1064   */\n  swap1\n  pop\n    /* \"#utility.yul\":973:1071   */\n  swap2\n  swap1\n  pop\n  jump\t// out\n    /* \"#utility.yul\":1077:1224   */\ntag_36:\n    /* \"#utility.yul\":1178:1189   */\n  0x00\n    /* \"#utility.yul\":1215:1218   */\n  dup2\n    /* \"#utility.yul\":1200:1218   */\n  swap1\n  pop\n    /* \"#utility.yul\":1077:1224   */\n  swap3\n  swap2\n  pop\n  pop\n  jump\t// out\n    /* \"#utility.yul\":1230:1369   */\ntag_37:\n    /* \"#utility.yul\":1319:1325   */\n  dup3\n    /* \"#utility.yul\":1314:1317   */\n  dup2\n    /* \"#utility.yul\":1309:1312   */\n  dup4\n    /* \"#utility.yul\":1303:1326   */\n  mcopy\n    /* \"#utility.yul\":1360:1361   */\n  0x00\n    /* \"#utility.yul\":1351:1357   */\n  dup4\n    /* \"#utility.yul\":1346:1349   */\n  dup4\n    /* \"#utility.yul\":1342:1358   */\n  add\n    /* \"#utility.yul\":1335:1362   */\n  mstore\n    /* \"#utility.yul\":1230:1369   */\n  pop\n  pop\n  pop\n  jump\t// out\n    /* \"#utility.yul\":1375:1761   */\ntag_38:\n    /* \"#utility.yul\":1479:1482   */\n  0x00\n    /* \"#utility.yul\":1507:1545   */\n  tag_58\n    /* \"#utility.yul\":1539:1544   */\n  dup3\n    /* \"#utility.yul\":1507:1545   */\n  tag_35\n  jump\t// in\ntag_58:\n    /* \"#utility.yul\":1561:1649   */\n  tag_59\n    /* \"#utility.yul\":1642:1648   */\n  dup2\n    /* \"#utility.yul\":1637:1640   */\n  dup6\n    /* \"#utility.yul\":1561:1649   */\n  tag_36\n  jump\t// in\ntag_59:\n    /* \"#utility.yul\":1554:1649   */\n  swap4\n  pop\n    /* \"#utility.yul\":1658:1723   */\n  tag_60\n    /* \"#utility.yul\":1716:1722   */\n  dup2\n    /* \"#utility.yul\":1711:1714   */\n  dup6\n    /* \"#utility.yul\":1704:1708   */\n  0x20\n    /* \"#utility.yul\":1697:1702   */\n  dup7\n    /* \"#utility.yul\":1693:1709   */\n  add\n    /* \"#utility.yul\":1658:1723   */\n  tag_37\n  jump\t// in\ntag_60:\n    /* \"#utility.yul\":1748:1754   */\n  dup1\n    /* \"#utility.yul\":1743:1746   */\n  dup5\n    /* \"#utility.yul\":1739:1755   */\n  add\n    /* \"#utility.yul\":1732:1755   */\n  swap2\n  pop\n    /* \"#utility.yul\":1483:1761   */\n  pop\n    /* \"#utility.yul\":1375:1761   */\n  swap3\n  swap2\n  pop\n  pop\n  jump\t// out\n    /* \"#utility.yul\":1767:2304   */\ntag_26:\n    /* \"#utility.yul\":1998:2001   */\n  0x00\n    /* \"#utility.yul\":2020:2168   */\n  tag_62\n    /* \"#utility.yul\":2164:2167   */\n  dup3\n    /* \"#utility.yul\":2020:2168   */\n  tag_34\n  jump\t// in\ntag_62:\n    /* \"#utility.yul\":2013:2168   */\n  swap2\n  pop\n    /* \"#utility.yul\":2185:2278   */\n  tag_63\n    /* \"#utility.yul\":2274:2277   */\n  dup3\n    /* \"#utility.yul\":2265:2271   */\n  dup5\n    /* \"#utility.yul\":2185:2278   */\n  tag_38\n  jump\t// in\ntag_63:\n    /* \"#utility.yul\":2178:2278   */\n  swap2\n  pop\n    /* \"#utility.yul\":2295:2298   */\n  dup2\n    /* \"#utility.yul\":2288:2298   */\n  swap1\n  pop\n    /* \"#utility.yul\":1767:2304   */\n  swap3\n  swap2\n  pop\n  pop\n  jump\t// out\n    /* \"#utility.yul\":2310:2461   */\ntag_39:\n    /* \"#utility.yul\":2450:2453   */\n  0x6300000000000000000000000000000000000000000000000000000000000000\n    /* \"#utility.yul\":2446:2447   */\n  0x00\n    /* \"#utility.yul\":2438:2444   */\n  dup3\n    /* \"#utility.yul\":2434:2448   */\n  add\n    /* \"#utility.yul\":2427:2454   */\n  mstore\n    /* \"#utility.yul\":2310:2461   */\n  pop\n  jump\t// out\n    /* \"#utility.yul\":2467:2867   */\ntag_40:\n    /* \"#utility.yul\":2627:2630   */\n  0x00\n    /* \"#utility.yul\":2648:2732   */\n  tag_66\n    /* \"#utility.yul\":2730:2731   */\n  0x01\n    /* \"#utility.yul\":2725:2728   */\n  dup4\n    /* \"#utility.yul\":2648:2732   */\n  tag_32\n  jump\t// in\ntag_66:\n    /* \"#utility.yul\":2641:2732   */\n  swap2\n  pop\n    /* \"#utility.yul\":2741:2834   */\n  tag_67\n    /* \"#utility.yul\":2830:2833   */\n  dup3\n    /* \"#utility.yul\":2741:2834   */\n  tag_39\n  jump\t// in\ntag_67:\n    /* \"#utility.yul\":2859:2860   */\n  0x01\n    /* \"#utility.yul\":2854:2857   */\n  dup3\n    /* \"#utility.yul\":2850:2861   */\n  add\n    /* \"#utility.yul\":2843:2861   */\n  swap1\n  pop\n    /* \"#utility.yul\":2467:2867   */\n  swap2\n  swap1\n  pop\n  jump\t// out\n    /* \"#utility.yul\":2873:2966   */\ntag_41:\n    /* \"#utility.yul\":2909:2916   */\n  0x00\n    /* \"#utility.yul\":2949:2959   */\n  0xffffffff\n    /* \"#utility.yul\":2942:2947   */\n  dup3\n    /* \"#utility.yul\":2938:2960   */\n  and\n    /* \"#utility.yul\":2927:2960   */\n  swap1\n  pop\n    /* \"#utility.yul\":2873:2966   */\n  swap2\n  swap1\n  pop\n  jump\t// out\n    /* \"#utility.yul\":2972:3068   */\ntag_42:\n    /* \"#utility.yul\":3006:3014   */\n  0x00\n    /* \"#utility.yul\":3055:3060   */\n  dup2\n    /* \"#utility.yul\":3050:3053   */\n  0xe0\n    /* \"#utility.yul\":3046:3061   */\n  shl\n    /* \"#utility.yul\":3025:3061   */\n  swap1\n  pop\n    /* \"#utility.yul\":2972:3068   */\n  swap2\n  swap1\n  pop\n  jump\t// out\n    /* \"#utility.yul\":3074:3168   */\ntag_43:\n    /* \"#utility.yul\":3112:3119   */\n  0x00\n    /* \"#utility.yul\":3141:3162   */\n  tag_71\n    /* \"#utility.yul\":3156:3161   */\n  dup3\n    /* \"#utility.yul\":3141:3162   */\n  tag_42\n  jump\t// in\ntag_71:\n    /* \"#utility.yul\":3130:3162   */\n  swap1\n  pop\n    /* \"#utility.yul\":3074:3168   */\n  swap2\n  swap1\n  pop\n  jump\t// out\n    /* \"#utility.yul\":3174:3327   */\ntag_44:\n    /* \"#utility.yul\":3277:3320   */\n  tag_73\n    /* \"#utility.yul\":3296:3319   */\n  tag_74\n    /* \"#utility.yul\":3313:3318   */\n  dup3\n    /* \"#utility.yul\":3296:3319   */\n  tag_41\n  jump\t// in\ntag_74:\n    /* \"#utility.yul\":3277:3320   */\n  tag_43\n  jump\t// in\ntag_73:\n    /* \"#utility.yul\":3272:3275   */\n  dup3\n    /* \"#utility.yul\":3265:3321   */\n  mstore\n    /* \"#utility.yul\":3174:3327   */\n  pop\n  pop\n  jump\t// out\n    /* \"#utility.yul\":3333:3547   */\ntag_45:\n    /* \"#utility.yul\":3473:3539   */\n  0x80600e6000396000f30000000000000000000000000000000000000000000000\n    /* \"#utility.yul\":3469:3470   */\n  0x00\n    /* \"#utility.yul\":3461:3467   */\n  dup3\n    /* \"#utility.yul\":3457:3471   */\n  add\n    /* \"#utility.yul\":3450:3540   */\n  mstore\n    /* \"#utility.yul\":3333:3547   */\n  pop\n  jump\t// out\n    /* \"#utility.yul\":3553:3953   */\ntag_46:\n    /* \"#utility.yul\":3713:3716   */\n  0x00\n    /* \"#utility.yul\":3734:3818   */\n  tag_77\n    /* \"#utility.yul\":3816:3817   */\n  0x09\n    /* \"#utility.yul\":3811:3814   */\n  dup4\n    /* \"#utility.yul\":3734:3818   */\n  tag_32\n  jump\t// in\ntag_77:\n    /* \"#utility.yul\":3727:3818   */\n  swap2\n  pop\n    /* \"#utility.yul\":3827:3920   */\n  tag_78\n    /* \"#utility.yul\":3916:3919   */\n  dup3\n    /* \"#utility.yul\":3827:3920   */\n  tag_45\n  jump\t// in\ntag_78:\n    /* \"#utility.yul\":3945:3946   */\n  0x09\n    /* \"#utility.yul\":3940:3943   */\n  dup3\n    /* \"#utility.yul\":3936:3947   */\n  add\n    /* \"#utility.yul\":3929:3947   */\n  swap1\n  pop\n    /* \"#utility.yul\":3553:3953   */\n  swap2\n  swap1\n  pop\n  jump\t// out\n    /* \"#utility.yul\":3959:4898   */\ntag_31:\n    /* \"#utility.yul\":4317:4320   */\n  0x00\n    /* \"#utility.yul\":4339:4487   */\n  tag_80\n    /* \"#utility.yul\":4483:4486   */\n  dup3\n    /* \"#utility.yul\":4339:4487   */\n  tag_40\n  jump\t// in\ntag_80:\n    /* \"#utility.yul\":4332:4487   */\n  swap2\n  pop\n    /* \"#utility.yul\":4497:4570   */\n  tag_81\n    /* \"#utility.yul\":4566:4569   */\n  dup3\n    /* \"#utility.yul\":4557:4563   */\n  dup6\n    /* \"#utility.yul\":4497:4570   */\n  tag_44\n  jump\t// in\ntag_81:\n    /* \"#utility.yul\":4595:4596   */\n  0x04\n    /* \"#utility.yul\":4590:4593   */\n  dup3\n    /* \"#utility.yul\":4586:4597   */\n  add\n    /* \"#utility.yul\":4579:4597   */\n  swap2\n  pop\n    /* \"#utility.yul\":4614:4762   */\n  tag_82\n    /* \"#utility.yul\":4758:4761   */\n  dup3\n    /* \"#utility.yul\":4614:4762   */\n  tag_46\n  jump\t// in\ntag_82:\n    /* \"#utility.yul\":4607:4762   */\n  swap2\n  pop\n    /* \"#utility.yul\":4779:4872   */\n  tag_83\n    /* \"#utility.yul\":4868:4871   */\n  dup3\n    /* \"#utility.yul\":4859:4865   */\n  dup5\n    /* \"#utility.yul\":4779:4872   */\n  tag_38\n  jump\t// in\ntag_83:\n    /* \"#utility.yul\":4772:4872   */\n  swap2\n  pop\n    /* \"#utility.yul\":4889:4892   */\n  dup2\n    /* \"#utility.yul\":4882:4892   */\n  swap1\n  pop\n    /* \"#utility.yul\":3959:4898   */\n  swap4\n  swap3\n  pop\n  pop\n  pop\n  jump\t// out\n    /* \"contracts/HashJingSVGStorage1.sol\":83:2027  contract HashJingSVGStorage1 {... */\ntag_22:\n  dataSize(sub_0)\n  dup1\n  dataOffset(sub_0)\n  0x00\n  codecopy\n  0x00\n  return\nstop\ndata_03b927c59517b0e4efd5d9bd88bbf6569d9beb39df1baa6fb16d0e4cf221b164 3c7061746820643d224d203531322031313220412034303020343030203020302031203535312e32303638353631333138323433203131332e3932363130393333313132313237204c203535392e303438323237333538313839312033342e33313133333131393733343535312041203438302034383020302030203020353132203332205a22207374726f6b653d22626c61636b22207374726f6b652d77696474683d2231222066696c6c3d22\ndata_9024ed2cc41a15086956b394e0b52d64a9ec08313e80296d53d3563546bb4d80 3c7061746820643d224d203531322031393220412033323020333230203020302031203534332e33363534383439303534353934203139332e3534303838373436343839373033204c203535312e32303638353631333138323433203131332e3932363130393333313132313237204120343030203430302030203020302035313220313132205a22207374726f6b653d22626c61636b22207374726f6b652d77696474683d2231222066696c6c3d22\ndata_cf66ed730e42712fc89e254dfe338bca2053c2b244c083cf42c0cfe440610445 3c7061746820643d224d203531322033353220412031363020313630203020302031203532372e36383237343234353237323937203335322e37373034343337333234343835204c203533352e35323431313336373930393436203237332e31353536363535393836373237204120323430203234302030203020302035313220323732205a22207374726f6b653d22626c61636b22207374726f6b652d77696474683d2231222066696c6c3d22\ndata_e5a35c4109324259df0df6a7dded3a19ee5e39615ba92ac52fe3922a33063ded 3c7061746820643d224d203531322032373220412032343020323430203020302031203533352e35323431313336373930393436203237332e31353536363535393836373237204c203534332e33363534383439303534353934203139332e3534303838373436343839373033204120333230203332302030203020302035313220313932205a22207374726f6b653d22626c61636b22207374726f6b652d77696474683d2231222066696c6c3d22\n\nsub_0: assembly {\n        /* \"contracts/HashJingSVGStorage1.sol\":83:2027  contract HashJingSVGStorage1 {... */\n      mstore(0x40, 0x80)\n      callvalue\n      dup1\n      iszero\n      tag_1\n      jumpi\n      0x00\n      dup1\n      revert\n    tag_1:\n      pop\n      jumpi(tag_2, lt(calldatasize, 0x04))\n      shr(0xe0, calldataload(0x00))\n      dup1\n      0x3c8c014d\n      eq\n      tag_3\n      jumpi\n      dup1\n      0xe9ce3274\n      eq\n      tag_4\n      jumpi\n    tag_2:\n      0x00\n      dup1\n      revert\n        /* \"contracts/HashJingSVGStorage1.sol\":1911:2025  function prefix(uint256 i) external view returns (bytes memory) {... */\n    tag_3:\n      tag_5\n      0x04\n      dup1\n      calldatasize\n      sub\n      dup2\n      add\n      swap1\n      tag_6\n      swap2\n      swap1\n      tag_7\n      jump\t// in\n    tag_6:\n      tag_8\n      jump\t// in\n    tag_5:\n      mload(0x40)\n      tag_9\n      swap2\n      swap1\n      tag_10\n      jump\t// in\n    tag_9:\n      mload(0x40)\n      dup1\n      swap2\n      sub\n      swap1\n      return\n        /* \"contracts/HashJingSVGStorage1.sol\":118:145  address[4] public prefixPtr */\n    tag_4:\n      tag_11\n      0x04\n      dup1\n      calldatasize\n      sub\n      dup2\n      add\n      swap1\n      tag_12\n      swap2\n      swap1\n      tag_7\n      jump\t// in\n    tag_12:\n      tag_13\n      jump\t// in\n    tag_11:\n      mload(0x40)\n      tag_14\n      swap2\n      swap1\n      tag_15\n      jump\t// in\n    tag_14:\n      mload(0x40)\n      dup1\n      swap2\n      sub\n      swap1\n      return\n        /* \"contracts/HashJingSVGStorage1.sol\":1911:2025  function prefix(uint256 i) external view returns (bytes memory) {... */\n    tag_8:\n        /* \"contracts/HashJingSVGStorage1.sol\":1961:1973  bytes memory */\n      0x60\n        /* \"contracts/HashJingSVGStorage1.sol\":1992:2018  SSTORE2.read(prefixPtr[i]) */\n      tag_17\n        /* \"contracts/HashJingSVGStorage1.sol\":2005:2014  prefixPtr */\n      0x00\n        /* \"contracts/HashJingSVGStorage1.sol\":2015:2016  i */\n      dup4\n        /* \"contracts/HashJingSVGStorage1.sol\":2005:2017  prefixPtr[i] */\n      0x04\n      dup2\n      lt\n      tag_18\n      jumpi\n      tag_19\n      tag_20\n      jump\t// in\n    tag_19:\n    tag_18:\n      add\n      0x00\n      swap1\n      sload\n      swap1\n      0x0100\n      exp\n      swap1\n      div\n      0xffffffffffffffffffffffffffffffffffffffff\n      and\n        /* \"contracts/HashJingSVGStorage1.sol\":1992:2004  SSTORE2.read */\n      tag_22\n        /* \"contracts/HashJingSVGStorage1.sol\":1992:2018  SSTORE2.read(prefixPtr[i]) */\n      jump\t// in\n    tag_17:\n        /* \"contracts/HashJingSVGStorage1.sol\":1985:2018  return SSTORE2.read(prefixPtr[i]) */\n      swap1\n      pop\n        /* \"contracts/HashJingSVGStorage1.sol\":1911:2025  function prefix(uint256 i) external view returns (bytes memory) {... */\n      swap2\n      swap1\n      pop\n      jump\t// out\n        /* \"contracts/HashJingSVGStorage1.sol\":118:145  address[4] public prefixPtr */\n    tag_13:\n      0x00\n      dup2\n      0x04\n      dup2\n      lt\n      tag_23\n      jumpi\n      0x00\n      dup1\n      revert\n    tag_23:\n      add\n      0x00\n      swap2\n      pop\n      sload\n      swap1\n      0x0100\n      exp\n      swap1\n      div\n      0xffffffffffffffffffffffffffffffffffffffff\n      and\n      dup2\n      jump\t// out\n        /* \"contracts/SSTORE2.sol\":1297:1431  function read(address _pointer) internal view returns (bytes memory) {... */\n    tag_22:\n        /* \"contracts/SSTORE2.sol\":1352:1364  bytes memory */\n      0x60\n        /* \"contracts/SSTORE2.sol\":1379:1426  Bytecode.codeAt(_pointer, 1, type(uint256).max) */\n      tag_26\n        /* \"contracts/SSTORE2.sol\":1395:1403  _pointer */\n      dup3\n        /* \"contracts/SSTORE2.sol\":1405:1406  1 */\n      0x01\n        /* \"contracts/SSTORE2.sol\":1408:1425  type(uint256).max */\n      0xffffffffffffffffffffffffffffffffffffffffffffffffffffffffffffffff\n        /* \"contracts/SSTORE2.sol\":1379:1394  Bytecode.codeAt */\n      tag_27\n        /* \"contracts/SSTORE2.sol\":1379:1426  Bytecode.codeAt(_pointer, 1, type(uint256).max) */\n      jump\t// in\n    tag_26:\n        /* \"contracts/SSTORE2.sol\":1372:1426  return Bytecode.codeAt(_pointer, 1, type(uint256).max) */\n      swap1\n      pop\n        /* \"contracts/SSTORE2.sol\":1297:1431  function read(address _pointer) internal view returns (bytes memory) {... */\n      swap2\n      swap1\n      pop\n      jump\t// out\n        /* \"contracts/utils/Bytecode.sol\":1793:2739  function codeAt(address _addr, uint256 _start, uint256 _end) internal view returns (bytes memory oCode) {... */\n    tag_27:\n        /* \"contracts/utils/Bytecode.sol\":1877:1895  bytes memory oCode */\n      0x60\n        /* \"contracts/utils/Bytecode.sol\":1903:1916  uint256 csize */\n      0x00\n        /* \"contracts/utils/Bytecode.sol\":1919:1934  codeSize(_addr) */\n      tag_29\n        /* \"contracts/utils/Bytecode.sol\":1928:1933  _addr */\n      dup6\n        /* \"contracts/utils/Bytecode.sol\":1919:1927  codeSize */\n      tag_30\n        /* \"contracts/utils/Bytecode.sol\":1919:1934  codeSize(_addr) */\n      jump\t// in\n    tag_29:\n        /* \"contracts/utils/Bytecode.sol\":1903:1934  uint256 csize = codeSize(_addr) */\n      swap1\n      pop\n        /* \"contracts/utils/Bytecode.sol\":1953:1954  0 */\n      0x00\n        /* \"contracts/utils/Bytecode.sol\":1944:1949  csize */\n      dup2\n        /* \"contracts/utils/Bytecode.sol\":1944:1954  csize == 0 */\n      sub\n        /* \"contracts/utils/Bytecode.sol\":1940:1972  if (csize == 0) return bytes(\"\") */\n      tag_31\n      jumpi\n        /* \"contracts/utils/Bytecode.sol\":1963:1972  bytes(\"\") */\n      mload(0x40)\n      dup1\n      0x20\n      add\n      0x40\n      mstore\n      dup1\n      0x00\n      dup2\n      mstore\n      pop\n        /* \"contracts/utils/Bytecode.sol\":1956:1972  return bytes(\"\") */\n      swap2\n      pop\n      pop\n      jump(tag_28)\n        /* \"contracts/utils/Bytecode.sol\":1940:1972  if (csize == 0) return bytes(\"\") */\n    tag_31:\n        /* \"contracts/utils/Bytecode.sol\":1992:1997  csize */\n      dup1\n        /* \"contracts/utils/Bytecode.sol\":1983:1989  _start */\n      dup5\n        /* \"contracts/utils/Bytecode.sol\":1983:1997  _start > csize */\n      gt\n        /* \"contracts/utils/Bytecode.sol\":1979:2015  if (_start > csize) return bytes(\"\") */\n      iszero\n      tag_32\n      jumpi\n        /* \"contracts/utils/Bytecode.sol\":2006:2015  bytes(\"\") */\n      mload(0x40)\n      dup1\n      0x20\n      add\n      0x40\n      mstore\n      dup1\n      0x00\n      dup2\n      mstore\n      pop\n        /* \"contracts/utils/Bytecode.sol\":1999:2015  return bytes(\"\") */\n      swap2\n      pop\n      pop\n      jump(tag_28)\n        /* \"contracts/utils/Bytecode.sol\":1979:2015  if (_start > csize) return bytes(\"\") */\n    tag_32:\n        /* \"contracts/utils/Bytecode.sol\":2032:2038  _start */\n      dup4\n        /* \"contracts/utils/Bytecode.sol\":2025:2029  _end */\n      dup4\n        /* \"contracts/utils/Bytecode.sol\":2025:2038  _end < _start */\n      lt\n        /* \"contracts/utils/Bytecode.sol\":2021:2086  if (_end < _start) revert InvalidCodeAtRange(csize, _start, _end) */\n      iszero\n      tag_33\n      jumpi\n        /* \"contracts/utils/Bytecode.sol\":2066:2071  csize */\n      dup1\n        /* \"contracts/utils/Bytecode.sol\":2073:2079  _start */\n      dup5\n        /* \"contracts/utils/Bytecode.sol\":2081:2085  _end */\n      dup5\n        /* \"contracts/utils/Bytecode.sol\":2047:2086  InvalidCodeAtRange(csize, _start, _end) */\n      mload(0x40)\n      0x2c4a89fa00000000000000000000000000000000000000000000000000000000\n      dup2\n      mstore\n      0x04\n      add\n      tag_34\n      swap4\n      swap3\n      swap2\n      swap1\n      tag_35\n      jump\t// in\n    tag_34:\n      mload(0x40)\n      dup1\n      swap2\n      sub\n      swap1\n      revert\n        /* \"contracts/utils/Bytecode.sol\":2021:2086  if (_end < _start) revert InvalidCodeAtRange(csize, _start, _end) */\n    tag_33:\n        /* \"contracts/utils/Bytecode.sol\":2112:2127  uint256 reqSize */\n      0x00\n        /* \"contracts/utils/Bytecode.sol\":2137:2143  _start */\n      dup5\n        /* \"contracts/utils/Bytecode.sol\":2130:2134  _end */\n      dup5\n        /* \"contracts/utils/Bytecode.sol\":2130:2143  _end - _start */\n      sub\n        /* \"contracts/utils/Bytecode.sol\":2112:2143  uint256 reqSize = _end - _start */\n      swap1\n      pop\n        /* \"contracts/utils/Bytecode.sol\":2151:2166  uint256 maxSize */\n      0x00\n        /* \"contracts/utils/Bytecode.sol\":2177:2183  _start */\n      dup6\n        /* \"contracts/utils/Bytecode.sol\":2169:2174  csize */\n      dup4\n        /* \"contracts/utils/Bytecode.sol\":2169:2183  csize - _start */\n      sub\n        /* \"contracts/utils/Bytecode.sol\":2151:2183  uint256 maxSize = csize - _start */\n      swap1\n      pop\n        /* \"contracts/utils/Bytecode.sol\":2192:2204  uint256 size */\n      0x00\n        /* \"contracts/utils/Bytecode.sol\":2217:2224  reqSize */\n      dup3\n        /* \"contracts/utils/Bytecode.sol\":2207:2214  maxSize */\n      dup3\n        /* \"contracts/utils/Bytecode.sol\":2207:2224  maxSize < reqSize */\n      lt\n        /* \"contracts/utils/Bytecode.sol\":2207:2244  maxSize < reqSize ? maxSize : reqSize */\n      tag_36\n      jumpi\n        /* \"contracts/utils/Bytecode.sol\":2237:2244  reqSize */\n      dup3\n        /* \"contracts/utils/Bytecode.sol\":2207:2244  maxSize < reqSize ? maxSize : reqSize */\n      jump(tag_37)\n    tag_36:\n        /* \"contracts/utils/Bytecode.sol\":2227:2234  maxSize */\n      dup2\n        /* \"contracts/utils/Bytecode.sol\":2207:2244  maxSize < reqSize ? maxSize : reqSize */\n    tag_37:\n        /* \"contracts/utils/Bytecode.sol\":2192:2244  uint256 size = maxSize < reqSize ? maxSize : reqSize */\n      swap1\n      pop\n        /* \"contracts/utils/Bytecode.sol\":2413:2417  0x40 */\n      0x40\n        /* \"contracts/utils/Bytecode.sol\":2407:2418  mload(0x40) */\n      mload\n        /* \"contracts/utils/Bytecode.sol\":2398:2418  oCode := mload(0x40) */\n      swap5\n      pop\n        /* \"contracts/utils/Bytecode.sol\":2533:2537  0x1f */\n      0x1f\n        /* \"contracts/utils/Bytecode.sol\":2529:2538  not(0x1f) */\n      not\n        /* \"contracts/utils/Bytecode.sol\":2522:2526  0x1f */\n      0x1f\n        /* \"contracts/utils/Bytecode.sol\":2515:2519  0x20 */\n      0x20\n        /* \"contracts/utils/Bytecode.sol\":2509:2513  size */\n      dup4\n        /* \"contracts/utils/Bytecode.sol\":2505:2520  add(size, 0x20) */\n      add\n        /* \"contracts/utils/Bytecode.sol\":2501:2527  add(add(size, 0x20), 0x1f) */\n      add\n        /* \"contracts/utils/Bytecode.sol\":2497:2539  and(add(add(size, 0x20), 0x1f), not(0x1f)) */\n      and\n        /* \"contracts/utils/Bytecode.sol\":2490:2495  oCode */\n      dup6\n        /* \"contracts/utils/Bytecode.sol\":2486:2540  add(oCode, and(add(add(size, 0x20), 0x1f), not(0x1f))) */\n      add\n        /* \"contracts/utils/Bytecode.sol\":2480:2484  0x40 */\n      0x40\n        /* \"contracts/utils/Bytecode.sol\":2473:2541  mstore(0x40, add(oCode, and(add(add(size, 0x20), 0x1f), not(0x1f)))) */\n      mstore\n        /* \"contracts/utils/Bytecode.sol\":2598:2602  size */\n      dup1\n        /* \"contracts/utils/Bytecode.sol\":2591:2596  oCode */\n      dup6\n        /* \"contracts/utils/Bytecode.sol\":2584:2603  mstore(oCode, size) */\n      mstore\n        /* \"contracts/utils/Bytecode.sol\":2716:2720  size */\n      dup1\n        /* \"contracts/utils/Bytecode.sol\":2708:2714  _start */\n      dup8\n        /* \"contracts/utils/Bytecode.sol\":2701:2705  0x20 */\n      0x20\n        /* \"contracts/utils/Bytecode.sol\":2694:2699  oCode */\n      dup8\n        /* \"contracts/utils/Bytecode.sol\":2690:2706  add(oCode, 0x20) */\n      add\n        /* \"contracts/utils/Bytecode.sol\":2683:2688  _addr */\n      dup11\n        /* \"contracts/utils/Bytecode.sol\":2671:2721  extcodecopy(_addr, add(oCode, 0x20), _start, size) */\n      extcodecopy\n        /* \"contracts/utils/Bytecode.sol\":2262:2729  {... */\n      pop\n      pop\n      pop\n        /* \"contracts/utils/Bytecode.sol\":1897:2739  {... */\n      pop\n        /* \"contracts/utils/Bytecode.sol\":1793:2739  function codeAt(address _addr, uint256 _start, uint256 _end) internal view returns (bytes memory oCode) {... */\n    tag_28:\n      swap4\n      swap3\n      pop\n      pop\n      pop\n      jump\t// out\n        /* \"contracts/utils/Bytecode.sol\":1261:1380  function codeSize(address _addr) internal view returns (uint256 size) {... */\n    tag_30:\n        /* \"contracts/utils/Bytecode.sol\":1317:1329  uint256 size */\n      0x00\n        /* \"contracts/utils/Bytecode.sol\":1368:1373  _addr */\n      dup2\n        /* \"contracts/utils/Bytecode.sol\":1356:1374  extcodesize(_addr) */\n      extcodesize\n        /* \"contracts/utils/Bytecode.sol\":1348:1374  size := extcodesize(_addr) */\n      swap1\n      pop\n        /* \"contracts/utils/Bytecode.sol\":1261:1380  function codeSize(address _addr) internal view returns (uint256 size) {... */\n      swap2\n      swap1\n      pop\n      jump\t// out\n        /* \"#utility.yul\":88:205   */\n    tag_40:\n        /* \"#utility.yul\":197:198   */\n      0x00\n        /* \"#utility.yul\":194:195   */\n      dup1\n        /* \"#utility.yul\":187:199   */\n      revert\n        /* \"#utility.yul\":334:411   */\n    tag_42:\n        /* \"#utility.yul\":371:378   */\n      0x00\n        /* \"#utility.yul\":400:405   */\n      dup2\n        /* \"#utility.yul\":389:405   */\n      swap1\n      pop\n        /* \"#utility.yul\":334:411   */\n      swap2\n      swap1\n      pop\n      jump\t// out\n        /* \"#utility.yul\":417:539   */\n    tag_43:\n        /* \"#utility.yul\":490:514   */\n      tag_60\n        /* \"#utility.yul\":508:513   */\n      dup2\n        /* \"#utility.yul\":490:514   */\n      tag_42\n      jump\t// in\n    tag_60:\n        /* \"#utility.yul\":483:488   */\n      dup2\n        /* \"#utility.yul\":480:515   */\n      eq\n        /* \"#utility.yul\":470:533   */\n      tag_61\n      jumpi\n        /* \"#utility.yul\":529:530   */\n      0x00\n        /* \"#utility.yul\":526:527   */\n      dup1\n        /* \"#utility.yul\":519:531   */\n      revert\n        /* \"#utility.yul\":470:533   */\n    tag_61:\n        /* \"#utility.yul\":417:539   */\n      pop\n      jump\t// out\n        /* \"#utility.yul\":545:684   */\n    tag_44:\n        /* \"#utility.yul\":591:596   */\n      0x00\n        /* \"#utility.yul\":629:635   */\n      dup2\n        /* \"#utility.yul\":616:636   */\n      calldataload\n        /* \"#utility.yul\":607:636   */\n      swap1\n      pop\n        /* \"#utility.yul\":645:678   */\n      tag_63\n        /* \"#utility.yul\":672:677   */\n      dup2\n        /* \"#utility.yul\":645:678   */\n      tag_43\n      jump\t// in\n    tag_63:\n        /* \"#utility.yul\":545:684   */\n      swap3\n      swap2\n      pop\n      pop\n      jump\t// out\n        /* \"#utility.yul\":690:1019   */\n    tag_7:\n        /* \"#utility.yul\":749:755   */\n      0x00\n        /* \"#utility.yul\":798:800   */\n      0x20\n        /* \"#utility.yul\":786:795   */\n      dup3\n        /* \"#utility.yul\":777:784   */\n      dup5\n        /* \"#utility.yul\":773:796   */\n      sub\n        /* \"#utility.yul\":769:801   */\n      slt\n        /* \"#utility.yul\":766:885   */\n      iszero\n      tag_65\n      jumpi\n        /* \"#utility.yul\":804:883   */\n      tag_66\n      tag_40\n      jump\t// in\n    tag_66:\n        /* \"#utility.yul\":766:885   */\n    tag_65:\n        /* \"#utility.yul\":924:925   */\n      0x00\n        /* \"#utility.yul\":949:1002   */\n      tag_67\n        /* \"#utility.yul\":994:1001   */\n      dup5\n        /* \"#utility.yul\":985:991   */\n      dup3\n        /* \"#utility.yul\":974:983   */\n      dup6\n        /* \"#utility.yul\":970:992   */\n      add\n        /* \"#utility.yul\":949:1002   */\n      tag_44\n      jump\t// in\n    tag_67:\n        /* \"#utility.yul\":939:1002   */\n      swap2\n      pop\n        /* \"#utility.yul\":895:1012   */\n      pop\n        /* \"#utility.yul\":690:1019   */\n      swap3\n      swap2\n      pop\n      pop\n      jump\t// out\n        /* \"#utility.yul\":1025:1123   */\n    tag_45:\n        /* \"#utility.yul\":1076:1082   */\n      0x00\n        /* \"#utility.yul\":1110:1115   */\n      dup2\n        /* \"#utility.yul\":1104:1116   */\n      mload\n        /* \"#utility.yul\":1094:1116   */\n      swap1\n      pop\n        /* \"#utility.yul\":1025:1123   */\n      swap2\n      swap1\n      pop\n      jump\t// out\n        /* \"#utility.yul\":1129:1297   */\n    tag_46:\n        /* \"#utility.yul\":1212:1223   */\n      0x00\n        /* \"#utility.yul\":1246:1252   */\n      dup3\n        /* \"#utility.yul\":1241:1244   */\n      dup3\n        /* \"#utility.yul\":1234:1253   */\n      mstore\n        /* \"#utility.yul\":1286:1290   */\n      0x20\n        /* \"#utility.yul\":1281:1284   */\n      dup3\n        /* \"#utility.yul\":1277:1291   */\n      add\n        /* \"#utility.yul\":1262:1291   */\n      swap1\n      pop\n        /* \"#utility.yul\":1129:1297   */\n      swap3\n      swap2\n      pop\n      pop\n      jump\t// out\n        /* \"#utility.yul\":1303:1442   */\n    tag_47:\n        /* \"#utility.yul\":1392:1398   */\n      dup3\n        /* \"#utility.yul\":1387:1390   */\n      dup2\n        /* \"#utility.yul\":1382:1385   */\n      dup4\n        /* \"#utility.yul\":1376:1399   */\n      mcopy\n        /* \"#utility.yul\":1433:1434   */\n      0x00\n        /* \"#utility.yul\":1424:1430   */\n      dup4\n        /* \"#utility.yul\":1419:1422   */\n      dup4\n        /* \"#utility.yul\":1415:1431   */\n      add\n        /* \"#utility.yul\":1408:1435   */\n      mstore\n        /* \"#utility.yul\":1303:1442   */\n      pop\n      pop\n      pop\n      jump\t// out\n        /* \"#utility.yul\":1448:1550   */\n    tag_48:\n        /* \"#utility.yul\":1489:1495   */\n      0x00\n        /* \"#utility.yul\":1540:1542   */\n      0x1f\n        /* \"#utility.yul\":1536:1543   */\n      not\n        /* \"#utility.yul\":1531:1533   */\n      0x1f\n        /* \"#utility.yul\":1524:1529   */\n      dup4\n        /* \"#utility.yul\":1520:1534   */\n      add\n        /* \"#utility.yul\":1516:1544   */\n      and\n        /* \"#utility.yul\":1506:1544   */\n      swap1\n      pop\n        /* \"#utility.yul\":1448:1550   */\n      swap2\n      swap1\n      pop\n      jump\t// out\n        /* \"#utility.yul\":1556:1929   */\n    tag_49:\n        /* \"#utility.yul\":1642:1645   */\n      0x00\n        /* \"#utility.yul\":1670:1708   */\n      tag_73\n        /* \"#utility.yul\":1702:1707   */\n      dup3\n        /* \"#utility.yul\":1670:1708   */\n      tag_45\n      jump\t// in\n    tag_73:\n        /* \"#utility.yul\":1724:1794   */\n      tag_74\n        /* \"#utility.yul\":1787:1793   */\n      dup2\n        /* \"#utility.yul\":1782:1785   */\n      dup6\n        /* \"#utility.yul\":1724:1794   */\n      tag_46\n      jump\t// in\n    tag_74:\n        /* \"#utility.yul\":1717:1794   */\n      swap4\n      pop\n        /* \"#utility.yul\":1803:1868   */\n      tag_75\n        /* \"#utility.yul\":1861:1867   */\n      dup2\n        /* \"#utility.yul\":1856:1859   */\n      dup6\n        /* \"#utility.yul\":1849:1853   */\n      0x20\n        /* \"#utility.yul\":1842:1847   */\n      dup7\n        /* \"#utility.yul\":1838:1854   */\n      add\n        /* \"#utility.yul\":1803:1868   */\n      tag_47\n      jump\t// in\n    tag_75:\n        /* \"#utility.yul\":1893:1922   */\n      tag_76\n        /* \"#utility.yul\":1915:1921   */\n      dup2\n        /* \"#utility.yul\":1893:1922   */\n      tag_48\n      jump\t// in\n    tag_76:\n        /* \"#utility.yul\":1888:1891   */\n      dup5\n        /* \"#utility.yul\":1884:1923   */\n      add\n        /* \"#utility.yul\":1877:1923   */\n      swap2\n      pop\n        /* \"#utility.yul\":1646:1929   */\n      pop\n        /* \"#utility.yul\":1556:1929   */\n      swap3\n      swap2\n      pop\n      pop\n      jump\t// out\n        /* \"#utility.yul\":1935:2244   */\n    tag_10:\n        /* \"#utility.yul\":2046:2050   */\n      0x00\n        /* \"#utility.yul\":2084:2086   */\n      0x20\n        /* \"#utility.yul\":2073:2082   */\n      dup3\n        /* \"#utility.yul\":2069:2087   */\n      add\n        /* \"#utility.yul\":2061:2087   */\n      swap1\n      pop\n        /* \"#utility.yul\":2133:2142   */\n      dup2\n        /* \"#utility.yul\":2127:2131   */\n      dup2\n        /* \"#utility.yul\":2123:2143   */\n      sub\n        /* \"#utility.yul\":2119:2120   */\n      0x00\n        /* \"#utility.yul\":2108:2117   */\n      dup4\n        /* \"#utility.yul\":2104:2121   */\n      add\n        /* \"#utility.yul\":2097:2144   */\n      mstore\n        /* \"#utility.yul\":2161:2237   */\n      tag_78\n        /* \"#utility.yul\":2232:2236   */\n      dup2\n        /* \"#utility.yul\":2223:2229   */\n      dup5\n        /* \"#utility.yul\":2161:2237   */\n      tag_49\n      jump\t// in\n    tag_78:\n        /* \"#utility.yul\":2153:2237   */\n      swap1\n      pop\n        /* \"#utility.yul\":1935:2244   */\n      swap3\n      swap2\n      pop\n      pop\n      jump\t// out\n        /* \"#utility.yul\":2250:2376   */\n    tag_50:\n        /* \"#utility.yul\":2287:2294   */\n      0x00\n        /* \"#utility.yul\":2327:2369   */\n      0xffffffffffffffffffffffffffffffffffffffff\n        /* \"#utility.yul\":2320:2325   */\n      dup3\n        /* \"#utility.yul\":2316:2370   */\n      and\n        /* \"#utility.yul\":2305:2370   */\n      swap1\n      pop\n        /* \"#utility.yul\":2250:2376   */\n      swap2\n      swap1\n      pop\n      jump\t// out\n        /* \"#utility.yul\":2382:2478   */\n    tag_51:\n        /* \"#utility.yul\":2419:2426   */\n      0x00\n        /* \"#utility.yul\":2448:2472   */\n      tag_81\n        /* \"#utility.yul\":2466:2471   */\n      dup3\n        /* \"#utility.yul\":2448:2472   */\n      tag_50\n      jump\t// in\n    tag_81:\n        /* \"#utility.yul\":2437:2472   */\n      swap1\n      pop\n        /* \"#utility.yul\":2382:2478   */\n      swap2\n      swap1\n      pop\n      jump\t// out\n        /* \"#utility.yul\":2484:2602   */\n    tag_52:\n        /* \"#utility.yul\":2571:2595   */\n      tag_83\n        /* \"#utility.yul\":2589:2594   */\n      dup2\n        /* \"#utility.yul\":2571:2595   */\n      tag_51\n      jump\t// in\n    tag_83:\n        /* \"#utility.yul\":2566:2569   */\n      dup3\n        /* \"#utility.yul\":2559:2596   */\n      mstore\n        /* \"#utility.yul\":2484:2602   */\n      pop\n      pop\n      jump\t// out\n        /* \"#utility.yul\":2608:2830   */\n    tag_15:\n        /* \"#utility.yul\":2701:2705   */\n      0x00\n        /* \"#utility.yul\":2739:2741   */\n      0x20\n        /* \"#utility.yul\":2728:2737   */\n      dup3\n        /* \"#utility.yul\":2724:2742   */\n      add\n        /* \"#utility.yul\":2716:2742   */\n      swap1\n      pop\n        /* \"#utility.yul\":2752:2823   */\n      tag_85\n        /* \"#utility.yul\":2820:2821   */\n      0x00\n        /* \"#utility.yul\":2809:2818   */\n      dup4\n        /* \"#utility.yul\":2805:2822   */\n      add\n        /* \"#utility.yul\":2796:2802   */\n      dup5\n        /* \"#utility.yul\":2752:2823   */\n      tag_52\n      jump\t// in\n    tag_85:\n        /* \"#utility.yul\":2608:2830   */\n      swap3\n      swap2\n      pop\n      pop\n      jump\t// out\n        /* \"#utility.yul\":2836:3016   */\n    tag_20:\n        /* \"#utility.yul\":2884:2961   */\n      0x4e487b7100000000000000000000000000000000000000000000000000000000\n        /* \"#utility.yul\":2881:2882   */\n      0x00\n        /* \"#utility.yul\":2874:2962   */\n      mstore\n        /* \"#utility.yul\":2981:2985   */\n      0x32\n        /* \"#utility.yul\":2978:2979   */\n      0x04\n        /* \"#utility.yul\":2971:2986   */\n      mstore\n        /* \"#utility.yul\":3005:3009   */\n      0x24\n        /* \"#utility.yul\":3002:3003   */\n      0x00\n        /* \"#utility.yul\":2995:3010   */\n      revert\n        /* \"#utility.yul\":3022:3140   */\n    tag_53:\n        /* \"#utility.yul\":3109:3133   */\n      tag_88\n        /* \"#utility.yul\":3127:3132   */\n      dup2\n        /* \"#utility.yul\":3109:3133   */\n      tag_42\n      jump\t// in\n    tag_88:\n        /* \"#utility.yul\":3104:3107   */\n      dup3\n        /* \"#utility.yul\":3097:3134   */\n      mstore\n        /* \"#utility.yul\":3022:3140   */\n      pop\n      pop\n      jump\t// out\n        /* \"#utility.yul\":3146:3588   */\n    tag_35:\n        /* \"#utility.yul\":3295:3299   */\n      0x00\n        /* \"#utility.yul\":3333:3335   */\n      0x60\n        /* \"#utility.yul\":3322:3331   */\n      dup3\n        /* \"#utility.yul\":3318:3336   */\n      add\n        /* \"#utility.yul\":3310:3336   */\n      swap1\n      pop\n        /* \"#utility.yul\":3346:3417   */\n      tag_90\n        /* \"#utility.yul\":3414:3415   */\n      0x00\n        /* \"#utility.yul\":3403:3412   */\n      dup4\n        /* \"#utility.yul\":3399:3416   */\n      add\n        /* \"#utility.yul\":3390:3396   */\n      dup7\n        /* \"#utility.yul\":3346:3417   */\n      tag_53\n      jump\t// in\n    tag_90:\n        /* \"#utility.yul\":3427:3499   */\n      tag_91\n        /* \"#utility.yul\":3495:3497   */\n      0x20\n        /* \"#utility.yul\":3484:3493   */\n      dup4\n        /* \"#utility.yul\":3480:3498   */\n      add\n        /* \"#utility.yul\":3471:3477   */\n      dup6\n        /* \"#utility.yul\":3427:3499   */\n      tag_53\n      jump\t// in\n    tag_91:\n        /* \"#utility.yul\":3509:3581   */\n      tag_92\n        /* \"#utility.yul\":3577:3579   */\n      0x40\n        /* \"#utility.yul\":3566:3575   */\n      dup4\n        /* \"#utility.yul\":3562:3580   */\n      add\n        /* \"#utility.yul\":3553:3559   */\n      dup5\n        /* \"#utility.yul\":3509:3581   */\n      tag_53\n      jump\t// in\n    tag_92:\n        /* \"#utility.yul\":3146:3588   */\n      swap5\n      swap4\n      pop\n      pop\n      pop\n      pop\n      jump\t// out\n\n    auxdata: 0xa26469706673582212209717f135a97a4a6b0253e4283acf1e05cc507fef4228f3ae8960e11fcec3d3d964736f6c634300081a0033\n}\n",
				"bytecode": {
					"linkReferences": {},
					"object": "608060405234801561000f575f80fd5b506100376040518060e0016040528060ae81526020016108de60ae91396101f860201b60201c565b5f806004811061004a576100496102cb565b5b015f6101000a81548173ffffffffffffffffffffffffffffffffffffffff021916908373ffffffffffffffffffffffffffffffffffffffff1602179055506100af6040518060e0016040528060b0815260200161098c60b091396101f860201b60201c565b5f6001600481106100c3576100c26102cb565b5b015f6101000a81548173ffffffffffffffffffffffffffffffffffffffff021916908373ffffffffffffffffffffffffffffffffffffffff1602179055506101286040518060e0016040528060af8152602001610aea60af91396101f860201b60201c565b5f60026004811061013c5761013b6102cb565b5b015f6101000a81548173ffffffffffffffffffffffffffffffffffffffff021916908373ffffffffffffffffffffffffffffffffffffffff1602179055506101a16040518060e0016040528060ae8152602001610a3c60ae91396101f860201b60201c565b5f6003600481106101b5576101b46102cb565b5b015f6101000a81548173ffffffffffffffffffffffffffffffffffffffff021916908373ffffffffffffffffffffffffffffffffffffffff1602179055506104b3565b5f806102288360405160200161020e919061037e565b60405160208183030381529060405261029f60201b60201c565b90508051602082015ff091505f73ffffffffffffffffffffffffffffffffffffffff168273ffffffffffffffffffffffffffffffffffffffff1603610299576040517f08d4abb600000000000000000000000000000000000000000000000000000000815260040160405180910390fd5b50919050565b60608151826040516020016102b5929190610476565b6040516020818303038152906040529050919050565b7f4e487b71000000000000000000000000000000000000000000000000000000005f52603260045260245ffd5b5f81905092915050565b5f8082015250565b5f6103166001836102f8565b915061032182610302565b600182019050919050565b5f81519050919050565b5f81905092915050565b8281835e5f83830152505050565b5f6103588261032c565b6103628185610336565b9350610372818560208601610340565b80840191505092915050565b5f6103888261030a565b9150610394828461034e565b915081905092915050565b7f63000000000000000000000000000000000000000000000000000000000000005f82015250565b5f6103d36001836102f8565b91506103de8261039f565b600182019050919050565b5f63ffffffff82169050919050565b5f8160e01b9050919050565b5f61040e826103f8565b9050919050565b610426610421826103e9565b610404565b82525050565b7f80600e6000396000f300000000000000000000000000000000000000000000005f82015250565b5f6104606009836102f8565b915061046b8261042c565b600982019050919050565b5f610480826103c7565b915061048c8285610415565b60048201915061049b82610454565b91506104a7828461034e565b91508190509392505050565b61041e806104c05f395ff3fe608060405234801561000f575f80fd5b5060043610610034575f3560e01c80633c8c014d14610038578063e9ce327414610068575b5f80fd5b610052600480360381019061004d9190610264565b610098565b60405161005f91906102ff565b60405180910390f35b610082600480360381019061007d9190610264565b6100dd565b60405161008f919061035e565b60405180910390f35b60606100d65f83600481106100b0576100af610377565b5b015f9054906101000a900473ffffffffffffffffffffffffffffffffffffffff16610110565b9050919050565b5f81600481106100eb575f80fd5b015f915054906101000a900473ffffffffffffffffffffffffffffffffffffffff1681565b606061013e8260017fffffffffffffffffffffffffffffffffffffffffffffffffffffffffffffffff610145565b9050919050565b60605f61015185610223565b90505f81036101715760405180602001604052805f81525091505061021c565b808411156101905760405180602001604052805f81525091505061021c565b838310156101d9578084846040517f2c4a89fa0000000000000000000000000000000000000000000000000000000081526004016101d0939291906103b3565b60405180910390fd5b5f84840390505f85830390505f8282106101f357826101f5565b815b90506040519450601f19601f60208301011685016040528085528087602087018a3c505050505b9392505050565b5f813b9050919050565b5f80fd5b5f819050919050565b61024381610231565b811461024d575f80fd5b50565b5f8135905061025e8161023a565b92915050565b5f602082840312156102795761027861022d565b5b5f61028684828501610250565b91505092915050565b5f81519050919050565b5f82825260208201905092915050565b8281835e5f83830152505050565b5f601f19601f8301169050919050565b5f6102d18261028f565b6102db8185610299565b93506102eb8185602086016102a9565b6102f4816102b7565b840191505092915050565b5f6020820190508181035f83015261031781846102c7565b905092915050565b5f73ffffffffffffffffffffffffffffffffffffffff82169050919050565b5f6103488261031f565b9050919050565b6103588161033e565b82525050565b5f6020820190506103715f83018461034f565b92915050565b7f4e487b71000000000000000000000000000000000000000000000000000000005f52603260045260245ffd5b6103ad81610231565b82525050565b5f6060820190506103c65f8301866103a4565b6103d360208301856103a4565b6103e060408301846103a4565b94935050505056fea26469706673582212209717f135a97a4a6b0253e4283acf1e05cc507fef4228f3ae8960e11fcec3d3d964736f6c634300081a00333c7061746820643d224d203531322031313220412034303020343030203020302031203535312e32303638353631333138323433203131332e3932363130393333313132313237204c203535392e303438323237333538313839312033342e33313133333131393733343535312041203438302034383020302030203020353132203332205a22207374726f6b653d22626c61636b22207374726f6b652d77696474683d2231222066696c6c3d223c7061746820643d224d203531322031393220412033323020333230203020302031203534332e33363534383439303534353934203139332e3534303838373436343839373033204c203535312e32303638353631333138323433203131332e3932363130393333313132313237204120343030203430302030203020302035313220313132205a22207374726f6b653d22626c61636b22207374726f6b652d77696474683d2231222066696c6c3d223c7061746820643d224d203531322033353220412031363020313630203020302031203532372e36383237343234353237323937203335322e37373034343337333234343835204c203533352e35323431313336373930393436203237332e31353536363535393836373237204120323430203234302030203020302035313220323732205a22207374726f6b653d22626c61636b22207374726f6b652d77696474683d2231222066696c6c3d223c7061746820643d224d203531322032373220412032343020323430203020302031203533352e35323431313336373930393436203237332e31353536363535393836373237204c203534332e33363534383439303534353934203139332e3534303838373436343839373033204120333230203332302030203020302035313220313932205a22207374726f6b653d22626c61636b22207374726f6b652d77696474683d2231222066696c6c3d22",
					"opcodes": "PUSH1 0x80 PUSH1 0x40 MSTORE CALLVALUE DUP1 ISZERO PUSH2 0xF JUMPI PUSH0 DUP1 REVERT JUMPDEST POP PUSH2 0x37 PUSH1 0x40 MLOAD DUP1 PUSH1 0xE0 ADD PUSH1 0x40 MSTORE DUP1 PUSH1 0xAE DUP2 MSTORE PUSH1 0x20 ADD PUSH2 0x8DE PUSH1 0xAE SWAP2 CODECOPY PUSH2 0x1F8 PUSH1 0x20 SHL PUSH1 0x20 SHR JUMP JUMPDEST PUSH0 DUP1 PUSH1 0x4 DUP2 LT PUSH2 0x4A JUMPI PUSH2 0x49 PUSH2 0x2CB JUMP JUMPDEST JUMPDEST ADD PUSH0 PUSH2 0x100 EXP DUP2 SLOAD DUP2 PUSH20 0xFFFFFFFFFFFFFFFFFFFFFFFFFFFFFFFFFFFFFFFF MUL NOT AND SWAP1 DUP4 PUSH20 0xFFFFFFFFFFFFFFFFFFFFFFFFFFFFFFFFFFFFFFFF AND MUL OR SWAP1 SSTORE POP PUSH2 0xAF PUSH1 0x40 MLOAD DUP1 PUSH1 0xE0 ADD PUSH1 0x40 MSTORE DUP1 PUSH1 0xB0 DUP2 MSTORE PUSH1 0x20 ADD PUSH2 0x98C PUSH1 0xB0 SWAP2 CODECOPY PUSH2 0x1F8 PUSH1 0x20 SHL PUSH1 0x20 SHR JUMP JUMPDEST PUSH0 PUSH1 0x1 PUSH1 0x4 DUP2 LT PUSH2 0xC3 JUMPI PUSH2 0xC2 PUSH2 0x2CB JUMP JUMPDEST JUMPDEST ADD PUSH0 PUSH2 0x100 EXP DUP2 SLOAD DUP2 PUSH20 0xFFFFFFFFFFFFFFFFFFFFFFFFFFFFFFFFFFFFFFFF MUL NOT AND SWAP1 DUP4 PUSH20 0xFFFFFFFFFFFFFFFFFFFFFFFFFFFFFFFFFFFFFFFF AND MUL OR SWAP1 SSTORE POP PUSH2 0x128 PUSH1 0x40 MLOAD DUP1 PUSH1 0xE0 ADD PUSH1 0x40 MSTORE DUP1 PUSH1 0xAF DUP2 MSTORE PUSH1 0x20 ADD PUSH2 0xAEA PUSH1 0xAF SWAP2 CODECOPY PUSH2 0x1F8 PUSH1 0x20 SHL PUSH1 0x20 SHR JUMP JUMPDEST PUSH0 PUSH1 0x2 PUSH1 0x4 DUP2 LT PUSH2 0x13C JUMPI PUSH2 0x13B PUSH2 0x2CB JUMP JUMPDEST JUMPDEST ADD PUSH0 PUSH2 0x100 EXP DUP2 SLOAD DUP2 PUSH20 0xFFFFFFFFFFFFFFFFFFFFFFFFFFFFFFFFFFFFFFFF MUL NOT AND SWAP1 DUP4 PUSH20 0xFFFFFFFFFFFFFFFFFFFFFFFFFFFFFFFFFFFFFFFF AND MUL OR SWAP1 SSTORE POP PUSH2 0x1A1 PUSH1 0x40 MLOAD DUP1 PUSH1 0xE0 ADD PUSH1 0x40 MSTORE DUP1 PUSH1 0xAE DUP2 MSTORE PUSH1 0x20 ADD PUSH2 0xA3C PUSH1 0xAE SWAP2 CODECOPY PUSH2 0x1F8 PUSH1 0x20 SHL PUSH1 0x20 SHR JUMP JUMPDEST PUSH0 PUSH1 0x3 PUSH1 0x4 DUP2 LT PUSH2 0x1B5 JUMPI PUSH2 0x1B4 PUSH2 0x2CB JUMP JUMPDEST JUMPDEST ADD PUSH0 PUSH2 0x100 EXP DUP2 SLOAD DUP2 PUSH20 0xFFFFFFFFFFFFFFFFFFFFFFFFFFFFFFFFFFFFFFFF MUL NOT AND SWAP1 DUP4 PUSH20 0xFFFFFFFFFFFFFFFFFFFFFFFFFFFFFFFFFFFFFFFF AND MUL OR SWAP1 SSTORE POP PUSH2 0x4B3 JUMP JUMPDEST PUSH0 DUP1 PUSH2 0x228 DUP4 PUSH1 0x40 MLOAD PUSH1 0x20 ADD PUSH2 0x20E SWAP2 SWAP1 PUSH2 0x37E JUMP JUMPDEST PUSH1 0x40 MLOAD PUSH1 0x20 DUP2 DUP4 SUB SUB DUP2 MSTORE SWAP1 PUSH1 0x40 MSTORE PUSH2 0x29F PUSH1 0x20 SHL PUSH1 0x20 SHR JUMP JUMPDEST SWAP1 POP DUP1 MLOAD PUSH1 0x20 DUP3 ADD PUSH0 CREATE SWAP2 POP PUSH0 PUSH20 0xFFFFFFFFFFFFFFFFFFFFFFFFFFFFFFFFFFFFFFFF AND DUP3 PUSH20 0xFFFFFFFFFFFFFFFFFFFFFFFFFFFFFFFFFFFFFFFF AND SUB PUSH2 0x299 JUMPI PUSH1 0x40 MLOAD PUSH32 0x8D4ABB600000000000000000000000000000000000000000000000000000000 DUP2 MSTORE PUSH1 0x4 ADD PUSH1 0x40 MLOAD DUP1 SWAP2 SUB SWAP1 REVERT JUMPDEST POP SWAP2 SWAP1 POP JUMP JUMPDEST PUSH1 0x60 DUP2 MLOAD DUP3 PUSH1 0x40 MLOAD PUSH1 0x20 ADD PUSH2 0x2B5 SWAP3 SWAP2 SWAP1 PUSH2 0x476 JUMP JUMPDEST PUSH1 0x40 MLOAD PUSH1 0x20 DUP2 DUP4 SUB SUB DUP2 MSTORE SWAP1 PUSH1 0x40 MSTORE SWAP1 POP SWAP2 SWAP1 POP JUMP JUMPDEST PUSH32 0x4E487B7100000000000000000000000000000000000000000000000000000000 PUSH0 MSTORE PUSH1 0x32 PUSH1 0x4 MSTORE PUSH1 0x24 PUSH0 REVERT JUMPDEST PUSH0 DUP2 SWAP1 POP SWAP3 SWAP2 POP POP JUMP JUMPDEST PUSH0 DUP1 DUP3 ADD MSTORE POP JUMP JUMPDEST PUSH0 PUSH2 0x316 PUSH1 0x1 DUP4 PUSH2 0x2F8 JUMP JUMPDEST SWAP2 POP PUSH2 0x321 DUP3 PUSH2 0x302 JUMP JUMPDEST PUSH1 0x1 DUP3 ADD SWAP1 POP SWAP2 SWAP1 POP JUMP JUMPDEST PUSH0 DUP2 MLOAD SWAP1 POP SWAP2 SWAP1 POP JUMP JUMPDEST PUSH0 DUP2 SWAP1 POP SWAP3 SWAP2 POP POP JUMP JUMPDEST DUP3 DUP2 DUP4 MCOPY PUSH0 DUP4 DUP4 ADD MSTORE POP POP POP JUMP JUMPDEST PUSH0 PUSH2 0x358 DUP3 PUSH2 0x32C JUMP JUMPDEST PUSH2 0x362 DUP2 DUP6 PUSH2 0x336 JUMP JUMPDEST SWAP4 POP PUSH2 0x372 DUP2 DUP6 PUSH1 0x20 DUP7 ADD PUSH2 0x340 JUMP JUMPDEST DUP1 DUP5 ADD SWAP2 POP POP SWAP3 SWAP2 POP POP JUMP JUMPDEST PUSH0 PUSH2 0x388 DUP3 PUSH2 0x30A JUMP JUMPDEST SWAP2 POP PUSH2 0x394 DUP3 DUP5 PUSH2 0x34E JUMP JUMPDEST SWAP2 POP DUP2 SWAP1 POP SWAP3 SWAP2 POP POP JUMP JUMPDEST PUSH32 0x6300000000000000000000000000000000000000000000000000000000000000 PUSH0 DUP3 ADD MSTORE POP JUMP JUMPDEST PUSH0 PUSH2 0x3D3 PUSH1 0x1 DUP4 PUSH2 0x2F8 JUMP JUMPDEST SWAP2 POP PUSH2 0x3DE DUP3 PUSH2 0x39F JUMP JUMPDEST PUSH1 0x1 DUP3 ADD SWAP1 POP SWAP2 SWAP1 POP JUMP JUMPDEST PUSH0 PUSH4 0xFFFFFFFF DUP3 AND SWAP1 POP SWAP2 SWAP1 POP JUMP JUMPDEST PUSH0 DUP2 PUSH1 0xE0 SHL SWAP1 POP SWAP2 SWAP1 POP JUMP JUMPDEST PUSH0 PUSH2 0x40E DUP3 PUSH2 0x3F8 JUMP JUMPDEST SWAP1 POP SWAP2 SWAP1 POP JUMP JUMPDEST PUSH2 0x426 PUSH2 0x421 DUP3 PUSH2 0x3E9 JUMP JUMPDEST PUSH2 0x404 JUMP JUMPDEST DUP3 MSTORE POP POP JUMP JUMPDEST PUSH32 0x80600E6000396000F30000000000000000000000000000000000000000000000 PUSH0 DUP3 ADD MSTORE POP JUMP JUMPDEST PUSH0 PUSH2 0x460 PUSH1 0x9 DUP4 PUSH2 0x2F8 JUMP JUMPDEST SWAP2 POP PUSH2 0x46B DUP3 PUSH2 0x42C JUMP JUMPDEST PUSH1 0x9 DUP3 ADD SWAP1 POP SWAP2 SWAP1 POP JUMP JUMPDEST PUSH0 PUSH2 0x480 DUP3 PUSH2 0x3C7 JUMP JUMPDEST SWAP2 POP PUSH2 0x48C DUP3 DUP6 PUSH2 0x415 JUMP JUMPDEST PUSH1 0x4 DUP3 ADD SWAP2 POP PUSH2 0x49B DUP3 PUSH2 0x454 JUMP JUMPDEST SWAP2 POP PUSH2 0x4A7 DUP3 DUP5 PUSH2 0x34E JUMP JUMPDEST SWAP2 POP DUP2 SWAP1 POP SWAP4 SWAP3 POP POP POP JUMP JUMPDEST PUSH2 0x41E DUP1 PUSH2 0x4C0 PUSH0 CODECOPY PUSH0 RETURN INVALID PUSH1 0x80 PUSH1 0x40 MSTORE CALLVALUE DUP1 ISZERO PUSH2 0xF JUMPI PUSH0 DUP1 REVERT JUMPDEST POP PUSH1 0x4 CALLDATASIZE LT PUSH2 0x34 JUMPI PUSH0 CALLDATALOAD PUSH1 0xE0 SHR DUP1 PUSH4 0x3C8C014D EQ PUSH2 0x38 JUMPI DUP1 PUSH4 0xE9CE3274 EQ PUSH2 0x68 JUMPI JUMPDEST PUSH0 DUP1 REVERT JUMPDEST PUSH2 0x52 PUSH1 0x4 DUP1 CALLDATASIZE SUB DUP2 ADD SWAP1 PUSH2 0x4D SWAP2 SWAP1 PUSH2 0x264 JUMP JUMPDEST PUSH2 0x98 JUMP JUMPDEST PUSH1 0x40 MLOAD PUSH2 0x5F SWAP2 SWAP1 PUSH2 0x2FF JUMP JUMPDEST PUSH1 0x40 MLOAD DUP1 SWAP2 SUB SWAP1 RETURN JUMPDEST PUSH2 0x82 PUSH1 0x4 DUP1 CALLDATASIZE SUB DUP2 ADD SWAP1 PUSH2 0x7D SWAP2 SWAP1 PUSH2 0x264 JUMP JUMPDEST PUSH2 0xDD JUMP JUMPDEST PUSH1 0x40 MLOAD PUSH2 0x8F SWAP2 SWAP1 PUSH2 0x35E JUMP JUMPDEST PUSH1 0x40 MLOAD DUP1 SWAP2 SUB SWAP1 RETURN JUMPDEST PUSH1 0x60 PUSH2 0xD6 PUSH0 DUP4 PUSH1 0x4 DUP2 LT PUSH2 0xB0 JUMPI PUSH2 0xAF PUSH2 0x377 JUMP JUMPDEST JUMPDEST ADD PUSH0 SWAP1 SLOAD SWAP1 PUSH2 0x100 EXP SWAP1 DIV PUSH20 0xFFFFFFFFFFFFFFFFFFFFFFFFFFFFFFFFFFFFFFFF AND PUSH2 0x110 JUMP JUMPDEST SWAP1 POP SWAP2 SWAP1 POP JUMP JUMPDEST PUSH0 DUP2 PUSH1 0x4 DUP2 LT PUSH2 0xEB JUMPI PUSH0 DUP1 REVERT JUMPDEST ADD PUSH0 SWAP2 POP SLOAD SWAP1 PUSH2 0x100 EXP SWAP1 DIV PUSH20 0xFFFFFFFFFFFFFFFFFFFFFFFFFFFFFFFFFFFFFFFF AND DUP2 JUMP JUMPDEST PUSH1 0x60 PUSH2 0x13E DUP3 PUSH1 0x1 PUSH32 0xFFFFFFFFFFFFFFFFFFFFFFFFFFFFFFFFFFFFFFFFFFFFFFFFFFFFFFFFFFFFFFFF PUSH2 0x145 JUMP JUMPDEST SWAP1 POP SWAP2 SWAP1 POP JUMP JUMPDEST PUSH1 0x60 PUSH0 PUSH2 0x151 DUP6 PUSH2 0x223 JUMP JUMPDEST SWAP1 POP PUSH0 DUP2 SUB PUSH2 0x171 JUMPI PUSH1 0x40 MLOAD DUP1 PUSH1 0x20 ADD PUSH1 0x40 MSTORE DUP1 PUSH0 DUP2 MSTORE POP SWAP2 POP POP PUSH2 0x21C JUMP JUMPDEST DUP1 DUP5 GT ISZERO PUSH2 0x190 JUMPI PUSH1 0x40 MLOAD DUP1 PUSH1 0x20 ADD PUSH1 0x40 MSTORE DUP1 PUSH0 DUP2 MSTORE POP SWAP2 POP POP PUSH2 0x21C JUMP JUMPDEST DUP4 DUP4 LT ISZERO PUSH2 0x1D9 JUMPI DUP1 DUP5 DUP5 PUSH1 0x40 MLOAD PUSH32 0x2C4A89FA00000000000000000000000000000000000000000000000000000000 DUP2 MSTORE PUSH1 0x4 ADD PUSH2 0x1D0 SWAP4 SWAP3 SWAP2 SWAP1 PUSH2 0x3B3 JUMP JUMPDEST PUSH1 0x40 MLOAD DUP1 SWAP2 SUB SWAP1 REVERT JUMPDEST PUSH0 DUP5 DUP5 SUB SWAP1 POP PUSH0 DUP6 DUP4 SUB SWAP1 POP PUSH0 DUP3 DUP3 LT PUSH2 0x1F3 JUMPI DUP3 PUSH2 0x1F5 JUMP JUMPDEST DUP2 JUMPDEST SWAP1 POP PUSH1 0x40 MLOAD SWAP5 POP PUSH1 0x1F NOT PUSH1 0x1F PUSH1 0x20 DUP4 ADD ADD AND DUP6 ADD PUSH1 0x40 MSTORE DUP1 DUP6 MSTORE DUP1 DUP8 PUSH1 0x20 DUP8 ADD DUP11 EXTCODECOPY POP POP POP POP JUMPDEST SWAP4 SWAP3 POP POP POP JUMP JUMPDEST PUSH0 DUP2 EXTCODESIZE SWAP1 POP SWAP2 SWAP1 POP JUMP JUMPDEST PUSH0 DUP1 REVERT JUMPDEST PUSH0 DUP2 SWAP1 POP SWAP2 SWAP1 POP JUMP JUMPDEST PUSH2 0x243 DUP2 PUSH2 0x231 JUMP JUMPDEST DUP2 EQ PUSH2 0x24D JUMPI PUSH0 DUP1 REVERT JUMPDEST POP JUMP JUMPDEST PUSH0 DUP2 CALLDATALOAD SWAP1 POP PUSH2 0x25E DUP2 PUSH2 0x23A JUMP JUMPDEST SWAP3 SWAP2 POP POP JUMP JUMPDEST PUSH0 PUSH1 0x20 DUP3 DUP5 SUB SLT ISZERO PUSH2 0x279 JUMPI PUSH2 0x278 PUSH2 0x22D JUMP JUMPDEST JUMPDEST PUSH0 PUSH2 0x286 DUP5 DUP3 DUP6 ADD PUSH2 0x250 JUMP JUMPDEST SWAP2 POP POP SWAP3 SWAP2 POP POP JUMP JUMPDEST PUSH0 DUP2 MLOAD SWAP1 POP SWAP2 SWAP1 POP JUMP JUMPDEST PUSH0 DUP3 DUP3 MSTORE PUSH1 0x20 DUP3 ADD SWAP1 POP SWAP3 SWAP2 POP POP JUMP JUMPDEST DUP3 DUP2 DUP4 MCOPY PUSH0 DUP4 DUP4 ADD MSTORE POP POP POP JUMP JUMPDEST PUSH0 PUSH1 0x1F NOT PUSH1 0x1F DUP4 ADD AND SWAP1 POP SWAP2 SWAP1 POP JUMP JUMPDEST PUSH0 PUSH2 0x2D1 DUP3 PUSH2 0x28F JUMP JUMPDEST PUSH2 0x2DB DUP2 DUP6 PUSH2 0x299 JUMP JUMPDEST SWAP4 POP PUSH2 0x2EB DUP2 DUP6 PUSH1 0x20 DUP7 ADD PUSH2 0x2A9 JUMP JUMPDEST PUSH2 0x2F4 DUP2 PUSH2 0x2B7 JUMP JUMPDEST DUP5 ADD SWAP2 POP POP SWAP3 SWAP2 POP POP JUMP JUMPDEST PUSH0 PUSH1 0x20 DUP3 ADD SWAP1 POP DUP2 DUP2 SUB PUSH0 DUP4 ADD MSTORE PUSH2 0x317 DUP2 DUP5 PUSH2 0x2C7 JUMP JUMPDEST SWAP1 POP SWAP3 SWAP2 POP POP JUMP JUMPDEST PUSH0 PUSH20 0xFFFFFFFFFFFFFFFFFFFFFFFFFFFFFFFFFFFFFFFF DUP3 AND SWAP1 POP SWAP2 SWAP1 POP JUMP JUMPDEST PUSH0 PUSH2 0x348 DUP3 PUSH2 0x31F JUMP JUMPDEST SWAP1 POP SWAP2 SWAP1 POP JUMP JUMPDEST PUSH2 0x358 DUP2 PUSH2 0x33E JUMP JUMPDEST DUP3 MSTORE POP POP JUMP JUMPDEST PUSH0 PUSH1 0x20 DUP3 ADD SWAP1 POP PUSH2 0x371 PUSH0 DUP4 ADD DUP5 PUSH2 0x34F JUMP JUMPDEST SWAP3 SWAP2 POP POP JUMP JUMPDEST PUSH32 0x4E487B7100000000000000000000000000000000000000000000000000000000 PUSH0 MSTORE PUSH1 0x32 PUSH1 0x4 MSTORE PUSH1 0x24 PUSH0 REVERT JUMPDEST PUSH2 0x3AD DUP2 PUSH2 0x231 JUMP JUMPDEST DUP3 MSTORE POP POP JUMP JUMPDEST PUSH0 PUSH1 0x60 DUP3 ADD SWAP1 POP PUSH2 0x3C6 PUSH0 DUP4 ADD DUP7 PUSH2 0x3A4 JUMP JUMPDEST PUSH2 0x3D3 PUSH1 0x20 DUP4 ADD DUP6 PUSH2 0x3A4 JUMP JUMPDEST PUSH2 0x3E0 PUSH1 0x40 DUP4 ADD DUP5 PUSH2 0x3A4 JUMP JUMPDEST SWAP5 SWAP4 POP POP POP POP JUMP INVALID LOG2 PUSH5 0x6970667358 0x22 SLT KECCAK256 SWAP8 OR CALL CALLDATALOAD 0xA9 PUSH27 0x4A6B0253E4283ACF1E05CC507FEF4228F3AE8960E11FCEC3D3D964 PUSH20 0x6F6C634300081A00333C7061746820643D224D20 CALLDATALOAD BALANCE ORIGIN KECCAK256 BALANCE BALANCE ORIGIN KECCAK256 COINBASE KECCAK256 CALLVALUE ADDRESS ADDRESS KECCAK256 CALLVALUE ADDRESS ADDRESS KECCAK256 ADDRESS KECCAK256 ADDRESS KECCAK256 BALANCE KECCAK256 CALLDATALOAD CALLDATALOAD BALANCE 0x2E ORIGIN ADDRESS CALLDATASIZE CODESIZE CALLDATALOAD CALLDATASIZE BALANCE CALLER BALANCE CODESIZE ORIGIN CALLVALUE CALLER KECCAK256 BALANCE BALANCE CALLER 0x2E CODECOPY ORIGIN CALLDATASIZE BALANCE ADDRESS CODECOPY CALLER CALLER BALANCE BALANCE ORIGIN BALANCE ORIGIN CALLDATACOPY KECCAK256 0x4C KECCAK256 CALLDATALOAD CALLDATALOAD CODECOPY 0x2E ADDRESS CALLVALUE CODESIZE ORIGIN ORIGIN CALLDATACOPY CALLER CALLDATALOAD CODESIZE BALANCE CODESIZE CODECOPY BALANCE KECCAK256 CALLER CALLVALUE 0x2E CALLER BALANCE BALANCE CALLER CALLER BALANCE BALANCE CODECOPY CALLDATACOPY CALLER CALLVALUE CALLDATALOAD CALLDATALOAD BALANCE KECCAK256 COINBASE KECCAK256 CALLVALUE CODESIZE ADDRESS KECCAK256 CALLVALUE CODESIZE ADDRESS KECCAK256 ADDRESS KECCAK256 ADDRESS KECCAK256 ADDRESS KECCAK256 CALLDATALOAD BALANCE ORIGIN KECCAK256 CALLER ORIGIN KECCAK256 GAS 0x22 KECCAK256 PUSH20 0x74726F6B653D22626C61636B22207374726F6B65 0x2D PUSH24 0x696474683D2231222066696C6C3D223C7061746820643D22 0x4D KECCAK256 CALLDATALOAD BALANCE ORIGIN KECCAK256 BALANCE CODECOPY ORIGIN KECCAK256 COINBASE KECCAK256 CALLER ORIGIN ADDRESS KECCAK256 CALLER ORIGIN ADDRESS KECCAK256 ADDRESS KECCAK256 ADDRESS KECCAK256 BALANCE KECCAK256 CALLDATALOAD CALLVALUE CALLER 0x2E CALLER CALLDATASIZE CALLDATALOAD CALLVALUE CODESIZE CALLVALUE CODECOPY ADDRESS CALLDATALOAD CALLVALUE CALLDATALOAD CODECOPY CALLVALUE KECCAK256 BALANCE CODECOPY CALLER 0x2E CALLDATALOAD CALLVALUE ADDRESS CODESIZE CODESIZE CALLDATACOPY CALLVALUE CALLDATASIZE CALLVALUE CODESIZE CODECOPY CALLDATACOPY ADDRESS CALLER KECCAK256 0x4C KECCAK256 CALLDATALOAD CALLDATALOAD BALANCE 0x2E ORIGIN ADDRESS CALLDATASIZE CODESIZE CALLDATALOAD CALLDATASIZE BALANCE CALLER BALANCE CODESIZE ORIGIN CALLVALUE CALLER KECCAK256 BALANCE BALANCE CALLER 0x2E CODECOPY ORIGIN CALLDATASIZE BALANCE ADDRESS CODECOPY CALLER CALLER BALANCE BALANCE ORIGIN BALANCE ORIGIN CALLDATACOPY KECCAK256 COINBASE KECCAK256 CALLVALUE ADDRESS ADDRESS KECCAK256 CALLVALUE ADDRESS ADDRESS KECCAK256 ADDRESS KECCAK256 ADDRESS KECCAK256 ADDRESS KECCAK256 CALLDATALOAD BALANCE ORIGIN KECCAK256 BALANCE BALANCE ORIGIN KECCAK256 GAS 0x22 KECCAK256 PUSH20 0x74726F6B653D22626C61636B22207374726F6B65 0x2D PUSH24 0x696474683D2231222066696C6C3D223C7061746820643D22 0x4D KECCAK256 CALLDATALOAD BALANCE ORIGIN KECCAK256 CALLER CALLDATALOAD ORIGIN KECCAK256 COINBASE KECCAK256 BALANCE CALLDATASIZE ADDRESS KECCAK256 BALANCE CALLDATASIZE ADDRESS KECCAK256 ADDRESS KECCAK256 ADDRESS KECCAK256 BALANCE KECCAK256 CALLDATALOAD ORIGIN CALLDATACOPY 0x2E CALLDATASIZE CODESIZE ORIGIN CALLDATACOPY CALLVALUE ORIGIN CALLVALUE CALLDATALOAD ORIGIN CALLDATACOPY ORIGIN CODECOPY CALLDATACOPY KECCAK256 CALLER CALLDATALOAD ORIGIN 0x2E CALLDATACOPY CALLDATACOPY ADDRESS CALLVALUE CALLVALUE CALLER CALLDATACOPY CALLER ORIGIN CALLVALUE CALLVALUE CODESIZE CALLDATALOAD KECCAK256 0x4C KECCAK256 CALLDATALOAD CALLER CALLDATALOAD 0x2E CALLDATALOAD ORIGIN CALLVALUE BALANCE BALANCE CALLER CALLDATASIZE CALLDATACOPY CODECOPY ADDRESS CODECOPY CALLVALUE CALLDATASIZE KECCAK256 ORIGIN CALLDATACOPY CALLER 0x2E BALANCE CALLDATALOAD CALLDATALOAD CALLDATASIZE CALLDATASIZE CALLDATALOAD CALLDATALOAD CODECOPY CODESIZE CALLDATASIZE CALLDATACOPY ORIGIN CALLDATACOPY KECCAK256 COINBASE KECCAK256 ORIGIN CALLVALUE ADDRESS KECCAK256 ORIGIN CALLVALUE ADDRESS KECCAK256 ADDRESS KECCAK256 ADDRESS KECCAK256 ADDRESS KECCAK256 CALLDATALOAD BALANCE ORIGIN KECCAK256 ORIGIN CALLDATACOPY ORIGIN KECCAK256 GAS 0x22 KECCAK256 PUSH20 0x74726F6B653D22626C61636B22207374726F6B65 0x2D PUSH24 0x696474683D2231222066696C6C3D223C7061746820643D22 0x4D KECCAK256 CALLDATALOAD BALANCE ORIGIN KECCAK256 ORIGIN CALLDATACOPY ORIGIN KECCAK256 COINBASE KECCAK256 ORIGIN CALLVALUE ADDRESS KECCAK256 ORIGIN CALLVALUE ADDRESS KECCAK256 ADDRESS KECCAK256 ADDRESS KECCAK256 BALANCE KECCAK256 CALLDATALOAD CALLER CALLDATALOAD 0x2E CALLDATALOAD ORIGIN CALLVALUE BALANCE BALANCE CALLER CALLDATASIZE CALLDATACOPY CODECOPY ADDRESS CODECOPY CALLVALUE CALLDATASIZE KECCAK256 ORIGIN CALLDATACOPY CALLER 0x2E BALANCE CALLDATALOAD CALLDATALOAD CALLDATASIZE CALLDATASIZE CALLDATALOAD CALLDATALOAD CODECOPY CODESIZE CALLDATASIZE CALLDATACOPY ORIGIN CALLDATACOPY KECCAK256 0x4C KECCAK256 CALLDATALOAD CALLVALUE CALLER 0x2E CALLER CALLDATASIZE CALLDATALOAD CALLVALUE CODESIZE CALLVALUE CODECOPY ADDRESS CALLDATALOAD CALLVALUE CALLDATALOAD CODECOPY CALLVALUE KECCAK256 BALANCE CODECOPY CALLER 0x2E CALLDATALOAD CALLVALUE ADDRESS CODESIZE CODESIZE CALLDATACOPY CALLVALUE CALLDATASIZE CALLVALUE CODESIZE CODECOPY CALLDATACOPY ADDRESS CALLER KECCAK256 COINBASE KECCAK256 CALLER ORIGIN ADDRESS KECCAK256 CALLER ORIGIN ADDRESS KECCAK256 ADDRESS KECCAK256 ADDRESS KECCAK256 ADDRESS KECCAK256 CALLDATALOAD BALANCE ORIGIN KECCAK256 BALANCE CODECOPY ORIGIN KECCAK256 GAS 0x22 KECCAK256 PUSH20 0x74726F6B653D22626C61636B22207374726F6B65 0x2D PUSH24 0x696474683D2231222066696C6C3D22000000000000000000 "
				},
				"gasEstimates": {
					"creation": {
						"codeDepositCost": "210800",
						"executionCost": "infinite",
						"totalCost": "infinite"
					},
					"external": {
						"prefix(uint256)": "infinite",
						"prefixPtr(uint256)": "2794"
					}
				},
				"methodIdentifiers": {
					"prefix(uint256)": "3c8c014d",
					"prefixPtr(uint256)": "e9ce3274"
				}
			},
			"storageLayout": {
				"storage": [
					{
						"astId": 6,
						"contract": "contracts/HashJingSVGStorage1.sol:HashJingSVGStorage1",
						"label": "prefixPtr",
						"offset": 0,
						"slot": "0",
						"type": "t_array(t_address)4_storage"
					}
				],
				"types": {
					"t_address": {
						"encoding": "inplace",
						"label": "address",
						"numberOfBytes": "20"
					},
					"t_array(t_address)4_storage": {
						"base": "t_address",
						"encoding": "inplace",
						"label": "address[4]",
						"numberOfBytes": "128"
					}
				}
			},
			"userdoc": {
				"kind": "user",
				"methods": {},
				"version": 1
			}
		}
	}
}