{
	"contracts/HashJingViewer.sol": {
		"FullMandalaRenderer": {
			"abi": [
				{
					"inputs": [
						{
							"internalType": "address",
							"name": "storageAddr",
							"type": "address"
						}
					],
					"stateMutability": "nonpayable",
					"type": "constructor"
				},
				{
					"inputs": [],
					"name": "getSVG",
					"outputs": [
						{
							"internalType": "string",
							"name": "",
							"type": "string"
						}
					],
					"stateMutability": "view",
					"type": "function"
				}
			],
			"devdoc": {
				"kind": "dev",
				"methods": {},
				"version": 1
			},
			"evm": {
				"assembly": "    /* \"contracts/HashJingViewer.sol\":95:3866  contract FullMandalaRenderer {... */\n  mstore(0x40, 0xa0)\n    /* \"contracts/HashJingViewer.sol\":700:790  constructor(address storageAddr) {... */\n  callvalue\n  dup1\n  iszero\n  tag_1\n  jumpi\n  0x00\n  dup1\n  revert\ntag_1:\n  pop\n  mload(0x40)\n  sub(codesize, bytecodeSize)\n  dup1\n  bytecodeSize\n  dup4\n  codecopy\n  dup2\n  dup2\n  add\n  0x40\n  mstore\n  dup2\n  add\n  swap1\n  tag_2\n  swap2\n  swap1\n  tag_3\n  jump\t// in\ntag_2:\n    /* \"contracts/HashJingViewer.sol\":771:782  storageAddr */\n  dup1\n    /* \"contracts/HashJingViewer.sol\":743:783  store = HashJingSVGStorage1(storageAddr) */\n  0xffffffffffffffffffffffffffffffffffffffff\n  and\n  0x80\n  dup2\n  0xffffffffffffffffffffffffffffffffffffffff\n  and\n  dup2\n  mstore\n  pop\n  pop\n    /* \"contracts/HashJingViewer.sol\":700:790  constructor(address storageAddr) {... */\n  pop\n    /* \"contracts/HashJingViewer.sol\":95:3866  contract FullMandalaRenderer {... */\n  jump(tag_6)\n    /* \"#utility.yul\":88:205   */\ntag_8:\n    /* \"#utility.yul\":197:198   */\n  0x00\n    /* \"#utility.yul\":194:195   */\n  dup1\n    /* \"#utility.yul\":187:199   */\n  revert\n    /* \"#utility.yul\":334:460   */\ntag_10:\n    /* \"#utility.yul\":371:378   */\n  0x00\n    /* \"#utility.yul\":411:453   */\n  0xffffffffffffffffffffffffffffffffffffffff\n    /* \"#utility.yul\":404:409   */\n  dup3\n    /* \"#utility.yul\":400:454   */\n  and\n    /* \"#utility.yul\":389:454   */\n  swap1\n  pop\n    /* \"#utility.yul\":334:460   */\n  swap2\n  swap1\n  pop\n  jump\t// out\n    /* \"#utility.yul\":466:562   */\ntag_11:\n    /* \"#utility.yul\":503:510   */\n  0x00\n    /* \"#utility.yul\":532:556   */\n  tag_20\n    /* \"#utility.yul\":550:555   */\n  dup3\n    /* \"#utility.yul\":532:556   */\n  tag_10\n  jump\t// in\ntag_20:\n    /* \"#utility.yul\":521:556   */\n  swap1\n  pop\n    /* \"#utility.yul\":466:562   */\n  swap2\n  swap1\n  pop\n  jump\t// out\n    /* \"#utility.yul\":568:690   */\ntag_12:\n    /* \"#utility.yul\":641:665   */\n  tag_22\n    /* \"#utility.yul\":659:664   */\n  dup2\n    /* \"#utility.yul\":641:665   */\n  tag_11\n  jump\t// in\ntag_22:\n    /* \"#utility.yul\":634:639   */\n  dup2\n    /* \"#utility.yul\":631:666   */\n  eq\n    /* \"#utility.yul\":621:684   */\n  tag_23\n  jumpi\n    /* \"#utility.yul\":680:681   */\n  0x00\n    /* \"#utility.yul\":677:678   */\n  dup1\n    /* \"#utility.yul\":670:682   */\n  revert\n    /* \"#utility.yul\":621:684   */\ntag_23:\n    /* \"#utility.yul\":568:690   */\n  pop\n  jump\t// out\n    /* \"#utility.yul\":696:839   */\ntag_13:\n    /* \"#utility.yul\":753:758   */\n  0x00\n    /* \"#utility.yul\":784:790   */\n  dup2\n    /* \"#utility.yul\":778:791   */\n  mload\n    /* \"#utility.yul\":769:791   */\n  swap1\n  pop\n    /* \"#utility.yul\":800:833   */\n  tag_25\n    /* \"#utility.yul\":827:832   */\n  dup2\n    /* \"#utility.yul\":800:833   */\n  tag_12\n  jump\t// in\ntag_25:\n    /* \"#utility.yul\":696:839   */\n  swap3\n  swap2\n  pop\n  pop\n  jump\t// out\n    /* \"#utility.yul\":845:1196   */\ntag_3:\n    /* \"#utility.yul\":915:921   */\n  0x00\n    /* \"#utility.yul\":964:966   */\n  0x20\n    /* \"#utility.yul\":952:961   */\n  dup3\n    /* \"#utility.yul\":943:950   */\n  dup5\n    /* \"#utility.yul\":939:962   */\n  sub\n    /* \"#utility.yul\":935:967   */\n  slt\n    /* \"#utility.yul\":932:1051   */\n  iszero\n  tag_27\n  jumpi\n    /* \"#utility.yul\":970:1049   */\n  tag_28\n  tag_8\n  jump\t// in\ntag_28:\n    /* \"#utility.yul\":932:1051   */\ntag_27:\n    /* \"#utility.yul\":1090:1091   */\n  0x00\n    /* \"#utility.yul\":1115:1179   */\n  tag_29\n    /* \"#utility.yul\":1171:1178   */\n  dup5\n    /* \"#utility.yul\":1162:1168   */\n  dup3\n    /* \"#utility.yul\":1151:1160   */\n  dup6\n    /* \"#utility.yul\":1147:1169   */\n  add\n    /* \"#utility.yul\":1115:1179   */\n  tag_13\n  jump\t// in\ntag_29:\n    /* \"#utility.yul\":1105:1179   */\n  swap2\n  pop\n    /* \"#utility.yul\":1061:1189   */\n  pop\n    /* \"#utility.yul\":845:1196   */\n  swap3\n  swap2\n  pop\n  pop\n  jump\t// out\n    /* \"contracts/HashJingViewer.sol\":95:3866  contract FullMandalaRenderer {... */\ntag_6:\n  mload(0x80)\n  codecopy(0x00, dataOffset(sub_0), dataSize(sub_0))\n  0x00\n  assignImmutable(\"0x5ad0f966e4dd8863f27c0e6ee7d684c0c8f4319efed210fe15662a0d29bcd615\")\n  return(0x00, dataSize(sub_0))\nstop\n\nsub_0: assembly {\n        /* \"contracts/HashJingViewer.sol\":95:3866  contract FullMandalaRenderer {... */\n      mstore(0x40, 0x80)\n      callvalue\n      dup1\n      iszero\n      tag_1\n      jumpi\n      0x00\n      dup1\n      revert\n    tag_1:\n      pop\n      jumpi(tag_2, lt(calldatasize, 0x04))\n      shr(0xe0, calldataload(0x00))\n      dup1\n      0x489187e8\n      eq\n      tag_3\n      jumpi\n    tag_2:\n      0x00\n      dup1\n      revert\n        /* \"contracts/HashJingViewer.sol\":857:2740  function getSVG() external view returns (string memory) {... */\n    tag_3:\n      tag_4\n      tag_5\n      jump\t// in\n    tag_4:\n      mload(0x40)\n      tag_6\n      swap2\n      swap1\n      tag_7\n      jump\t// in\n    tag_6:\n      mload(0x40)\n      dup1\n      swap2\n      sub\n      swap1\n      return\n    tag_5:\n        /* \"contracts/HashJingViewer.sol\":898:911  string memory */\n      0x60\n        /* \"contracts/HashJingViewer.sol\":975:994  bytes[] memory part */\n      0x00\n        /* \"contracts/HashJingViewer.sol\":1019:1021  16 */\n      0x10\n        /* \"contracts/HashJingViewer.sol\":209:211  64 */\n      0x40\n        /* \"contracts/HashJingViewer.sol\":1009:1021  SECTORS * 16 */\n      tag_9\n      swap2\n      swap1\n      tag_10\n      jump\t// in\n    tag_9:\n        /* \"contracts/HashJingViewer.sol\":997:1022  new bytes[](SECTORS * 16) */\n      0xffffffffffffffff\n      dup2\n      gt\n      iszero\n      tag_11\n      jumpi\n      tag_12\n      tag_13\n      jump\t// in\n    tag_12:\n    tag_11:\n      mload(0x40)\n      swap1\n      dup1\n      dup3\n      mstore\n      dup1\n      0x20\n      mul\n      0x20\n      add\n      dup3\n      add\n      0x40\n      mstore\n      dup1\n      iszero\n      tag_14\n      jumpi\n      dup2\n      0x20\n      add\n    tag_15:\n      0x60\n      dup2\n      mstore\n      0x20\n      add\n      swap1\n      0x01\n      swap1\n      sub\n      swap1\n      dup2\n      tag_15\n      jumpi\n      swap1\n      pop\n    tag_14:\n      pop\n        /* \"contracts/HashJingViewer.sol\":975:1022  bytes[] memory part = new bytes[](SECTORS * 16) */\n      swap1\n      pop\n        /* \"contracts/HashJingViewer.sol\":1061:1072  uint256 idx */\n      0x00\n        /* \"contracts/HashJingViewer.sol\":1082:1095  uint256 total */\n      dup1\n        /* \"contracts/HashJingViewer.sol\":1111:1120  uint256 s */\n      0x00\n        /* \"contracts/HashJingViewer.sol\":1106:2024  for (uint256 s; s < SECTORS; ++s) {... */\n    tag_16:\n        /* \"contracts/HashJingViewer.sol\":209:211  64 */\n      0x40\n        /* \"contracts/HashJingViewer.sol\":1122:1123  s */\n      dup2\n        /* \"contracts/HashJingViewer.sol\":1122:1133  s < SECTORS */\n      lt\n        /* \"contracts/HashJingViewer.sol\":1106:2024  for (uint256 s; s < SECTORS; ++s) {... */\n      iszero\n      tag_17\n      jumpi\n        /* \"contracts/HashJingViewer.sol\":1186:1202  bytes memory ang */\n      0x00\n        /* \"contracts/HashJingViewer.sol\":1205:1231  _angleBytes(s * DPHI_MDEG) */\n      tag_19\n        /* \"contracts/HashJingViewer.sol\":268:272  5625 */\n      0x15f9\n        /* \"contracts/HashJingViewer.sol\":1217:1218  s */\n      dup4\n        /* \"contracts/HashJingViewer.sol\":1217:1230  s * DPHI_MDEG */\n      tag_20\n      swap2\n      swap1\n      tag_10\n      jump\t// in\n    tag_20:\n        /* \"contracts/HashJingViewer.sol\":1205:1216  _angleBytes */\n      tag_21\n        /* \"contracts/HashJingViewer.sol\":1205:1231  _angleBytes(s * DPHI_MDEG) */\n      jump\t// in\n    tag_19:\n        /* \"contracts/HashJingViewer.sol\":1186:1231  bytes memory ang = _angleBytes(s * DPHI_MDEG) */\n      swap1\n      pop\n        /* \"contracts/HashJingViewer.sol\":1259:1265  G_OPEN */\n      mload(0x40)\n      dup1\n      0x40\n      add\n      0x40\n      mstore\n      dup1\n      0x15\n      dup2\n      mstore\n      0x20\n      add\n      0x3c67207472616e73666f726d3d22726f74617465280000000000000000000000\n      dup2\n      mstore\n      pop\n        /* \"contracts/HashJingViewer.sol\":1245:1249  part */\n      dup6\n        /* \"contracts/HashJingViewer.sol\":1250:1255  idx++ */\n      dup6\n      dup1\n      tag_22\n      swap1\n      tag_23\n      jump\t// in\n    tag_22:\n      swap7\n      pop\n        /* \"contracts/HashJingViewer.sol\":1245:1256  part[idx++] */\n      dup2\n      mload\n      dup2\n      lt\n      tag_24\n      jumpi\n      tag_25\n      tag_26\n      jump\t// in\n    tag_25:\n    tag_24:\n      0x20\n      mul\n      0x20\n      add\n      add\n        /* \"contracts/HashJingViewer.sol\":1245:1265  part[idx++] = G_OPEN */\n      dup2\n      swap1\n      mstore\n      pop\n        /* \"contracts/HashJingViewer.sol\":1277:1283  G_OPEN */\n      mload(0x40)\n      dup1\n      0x40\n      add\n      0x40\n      mstore\n      dup1\n      0x15\n      dup2\n      mstore\n      0x20\n      add\n      0x3c67207472616e73666f726d3d22726f74617465280000000000000000000000\n      dup2\n      mstore\n      pop\n        /* \"contracts/HashJingViewer.sol\":1277:1290  G_OPEN.length */\n      mload\n        /* \"contracts/HashJingViewer.sol\":1268:1290  total += G_OPEN.length */\n      dup4\n      tag_27\n      swap2\n      swap1\n      tag_28\n      jump\t// in\n    tag_27:\n      swap3\n      pop\n        /* \"contracts/HashJingViewer.sol\":1318:1321  ang */\n      dup1\n        /* \"contracts/HashJingViewer.sol\":1304:1308  part */\n      dup6\n        /* \"contracts/HashJingViewer.sol\":1309:1314  idx++ */\n      dup6\n      dup1\n      tag_29\n      swap1\n      tag_23\n      jump\t// in\n    tag_29:\n      swap7\n      pop\n        /* \"contracts/HashJingViewer.sol\":1304:1315  part[idx++] */\n      dup2\n      mload\n      dup2\n      lt\n      tag_30\n      jumpi\n      tag_31\n      tag_26\n      jump\t// in\n    tag_31:\n    tag_30:\n      0x20\n      mul\n      0x20\n      add\n      add\n        /* \"contracts/HashJingViewer.sol\":1304:1321  part[idx++] = ang */\n      dup2\n      swap1\n      mstore\n      pop\n        /* \"contracts/HashJingViewer.sol\":1336:1339  ang */\n      dup1\n        /* \"contracts/HashJingViewer.sol\":1336:1346  ang.length */\n      mload\n        /* \"contracts/HashJingViewer.sol\":1327:1346  total += ang.length */\n      dup4\n      tag_32\n      swap2\n      swap1\n      tag_28\n      jump\t// in\n    tag_32:\n      swap3\n      pop\n        /* \"contracts/HashJingViewer.sol\":1374:1379  G_MID */\n      mload(0x40)\n      dup1\n      0x40\n      add\n      0x40\n      mstore\n      dup1\n      0x0b\n      dup2\n      mstore\n      0x20\n      add\n      0x203531322035313229223e000000000000000000000000000000000000000000\n      dup2\n      mstore\n      pop\n        /* \"contracts/HashJingViewer.sol\":1360:1364  part */\n      dup6\n        /* \"contracts/HashJingViewer.sol\":1365:1370  idx++ */\n      dup6\n      dup1\n      tag_33\n      swap1\n      tag_23\n      jump\t// in\n    tag_33:\n      swap7\n      pop\n        /* \"contracts/HashJingViewer.sol\":1360:1371  part[idx++] */\n      dup2\n      mload\n      dup2\n      lt\n      tag_34\n      jumpi\n      tag_35\n      tag_26\n      jump\t// in\n    tag_35:\n    tag_34:\n      0x20\n      mul\n      0x20\n      add\n      add\n        /* \"contracts/HashJingViewer.sol\":1360:1379  part[idx++] = G_MID */\n      dup2\n      swap1\n      mstore\n      pop\n        /* \"contracts/HashJingViewer.sol\":1392:1397  G_MID */\n      mload(0x40)\n      dup1\n      0x40\n      add\n      0x40\n      mstore\n      dup1\n      0x0b\n      dup2\n      mstore\n      0x20\n      add\n      0x203531322035313229223e000000000000000000000000000000000000000000\n      dup2\n      mstore\n      pop\n        /* \"contracts/HashJingViewer.sol\":1392:1404  G_MID.length */\n      mload\n        /* \"contracts/HashJingViewer.sol\":1383:1404  total += G_MID.length */\n      dup4\n      tag_36\n      swap2\n      swap1\n      tag_28\n      jump\t// in\n    tag_36:\n      swap3\n      pop\n        /* \"contracts/HashJingViewer.sol\":1474:1481  uint8 r */\n      0x00\n        /* \"contracts/HashJingViewer.sol\":1469:1924  for (uint8 r; r < 4; ++r) {... */\n    tag_37:\n        /* \"contracts/HashJingViewer.sol\":1487:1488  4 */\n      0x04\n        /* \"contracts/HashJingViewer.sol\":1483:1484  r */\n      dup2\n        /* \"contracts/HashJingViewer.sol\":1483:1488  r < 4 */\n      0xff\n      and\n      lt\n        /* \"contracts/HashJingViewer.sol\":1469:1924  for (uint8 r; r < 4; ++r) {... */\n      iszero\n      tag_38\n      jumpi\n        /* \"contracts/HashJingViewer.sol\":1513:1530  bytes memory pref */\n      0x00\n        /* \"contracts/HashJingViewer.sol\":1533:1538  store */\n      immutable(\"0x5ad0f966e4dd8863f27c0e6ee7d684c0c8f4319efed210fe15662a0d29bcd615\")\n        /* \"contracts/HashJingViewer.sol\":1533:1545  store.prefix */\n      0xffffffffffffffffffffffffffffffffffffffff\n      and\n      0x3c8c014d\n        /* \"contracts/HashJingViewer.sol\":1546:1547  r */\n      dup4\n        /* \"contracts/HashJingViewer.sol\":1533:1548  store.prefix(r) */\n      mload(0x40)\n      dup3\n      0xffffffff\n      and\n      0xe0\n      shl\n      dup2\n      mstore\n      0x04\n      add\n      tag_40\n      swap2\n      swap1\n      tag_41\n      jump\t// in\n    tag_40:\n      0x00\n      mload(0x40)\n      dup1\n      dup4\n      sub\n      dup2\n      dup7\n      gas\n      staticcall\n      iszero\n      dup1\n      iszero\n      tag_43\n      jumpi\n      returndatasize\n      0x00\n      dup1\n      returndatacopy\n      revert(0x00, returndatasize)\n    tag_43:\n      pop\n      pop\n      pop\n      pop\n      mload(0x40)\n      returndatasize\n      0x00\n      dup3\n      returndatacopy\n      returndatasize\n      not(0x1f)\n      0x1f\n      dup3\n      add\n      and\n      dup3\n      add\n      dup1\n      0x40\n      mstore\n      pop\n      dup2\n      add\n      swap1\n      tag_44\n      swap2\n      swap1\n      tag_45\n      jump\t// in\n    tag_44:\n        /* \"contracts/HashJingViewer.sol\":1513:1548  bytes memory pref = store.prefix(r) */\n      swap1\n      pop\n        /* \"contracts/HashJingViewer.sol\":1567:1577  bool black */\n      0x00\n        /* \"contracts/HashJingViewer.sol\":1616:1617  0 */\n      dup1\n        /* \"contracts/HashJingViewer.sol\":1611:1612  1 */\n      0x01\n        /* \"contracts/HashJingViewer.sol\":1605:1606  r */\n      dup5\n        /* \"contracts/HashJingViewer.sol\":1590:1606  (63 - s) * 4 + r */\n      0xff\n      and\n        /* \"contracts/HashJingViewer.sol\":1601:1602  4 */\n      0x04\n        /* \"contracts/HashJingViewer.sol\":1596:1597  s */\n      dup9\n        /* \"contracts/HashJingViewer.sol\":1591:1593  63 */\n      0x3f\n        /* \"contracts/HashJingViewer.sol\":1591:1597  63 - s */\n      tag_46\n      swap2\n      swap1\n      tag_47\n      jump\t// in\n    tag_46:\n        /* \"contracts/HashJingViewer.sol\":1590:1602  (63 - s) * 4 */\n      tag_48\n      swap2\n      swap1\n      tag_10\n      jump\t// in\n    tag_48:\n        /* \"contracts/HashJingViewer.sol\":1590:1606  (63 - s) * 4 + r */\n      tag_49\n      swap2\n      swap1\n      tag_28\n      jump\t// in\n    tag_49:\n        /* \"contracts/HashJingViewer.sol\":347:413  0x478affc447283c7cd1bb68a514243f4c139860bd048217a4b7e7eb7a51855eff */\n      0x478affc447283c7cd1bb68a514243f4c139860bd048217a4b7e7eb7a51855eff\n        /* \"contracts/HashJingViewer.sol\":1581:1607  BITS >> ((63 - s) * 4 + r) */\n      swap1\n      shr\n        /* \"contracts/HashJingViewer.sol\":1580:1612  (BITS >> ((63 - s) * 4 + r)) & 1 */\n      and\n        /* \"contracts/HashJingViewer.sol\":1580:1617  (BITS >> ((63 - s) * 4 + r)) & 1 == 0 */\n      eq\n        /* \"contracts/HashJingViewer.sol\":1567:1617  bool black = (BITS >> ((63 - s) * 4 + r)) & 1 == 0 */\n      swap1\n      pop\n        /* \"contracts/HashJingViewer.sol\":1635:1651  bytes memory col */\n      0x00\n        /* \"contracts/HashJingViewer.sol\":1654:1659  black */\n      dup2\n        /* \"contracts/HashJingViewer.sol\":1654:1697  black ? bytes(\"#000000\") : bytes(\"#ffffff\") */\n      tag_50\n      jumpi\n        /* \"contracts/HashJingViewer.sol\":1681:1697  bytes(\"#ffffff\") */\n      mload(0x40)\n      dup1\n      0x40\n      add\n      0x40\n      mstore\n      dup1\n      0x07\n      dup2\n      mstore\n      0x20\n      add\n      0x2366666666666600000000000000000000000000000000000000000000000000\n      dup2\n      mstore\n      pop\n        /* \"contracts/HashJingViewer.sol\":1654:1697  black ? bytes(\"#000000\") : bytes(\"#ffffff\") */\n      jump(tag_51)\n    tag_50:\n        /* \"contracts/HashJingViewer.sol\":1662:1678  bytes(\"#000000\") */\n      mload(0x40)\n      dup1\n      0x40\n      add\n      0x40\n      mstore\n      dup1\n      0x07\n      dup2\n      mstore\n      0x20\n      add\n      0x2330303030303000000000000000000000000000000000000000000000000000\n      dup2\n      mstore\n      pop\n        /* \"contracts/HashJingViewer.sol\":1654:1697  black ? bytes(\"#000000\") : bytes(\"#ffffff\") */\n    tag_51:\n        /* \"contracts/HashJingViewer.sol\":1635:1697  bytes memory col = black ? bytes(\"#000000\") : bytes(\"#ffffff\") */\n      swap1\n      pop\n        /* \"contracts/HashJingViewer.sol\":1730:1734  pref */\n      dup3\n        /* \"contracts/HashJingViewer.sol\":1716:1720  part */\n      dup10\n        /* \"contracts/HashJingViewer.sol\":1721:1726  idx++ */\n      dup10\n      dup1\n      tag_52\n      swap1\n      tag_23\n      jump\t// in\n    tag_52:\n      swap11\n      pop\n        /* \"contracts/HashJingViewer.sol\":1716:1727  part[idx++] */\n      dup2\n      mload\n      dup2\n      lt\n      tag_53\n      jumpi\n      tag_54\n      tag_26\n      jump\t// in\n    tag_54:\n    tag_53:\n      0x20\n      mul\n      0x20\n      add\n      add\n        /* \"contracts/HashJingViewer.sol\":1716:1734  part[idx++] = pref */\n      dup2\n      swap1\n      mstore\n      pop\n        /* \"contracts/HashJingViewer.sol\":1750:1754  pref */\n      dup3\n        /* \"contracts/HashJingViewer.sol\":1750:1761  pref.length */\n      mload\n        /* \"contracts/HashJingViewer.sol\":1741:1761  total += pref.length */\n      dup8\n      tag_55\n      swap2\n      swap1\n      tag_28\n      jump\t// in\n    tag_55:\n      swap7\n      pop\n        /* \"contracts/HashJingViewer.sol\":1793:1796  col */\n      dup1\n        /* \"contracts/HashJingViewer.sol\":1779:1783  part */\n      dup10\n        /* \"contracts/HashJingViewer.sol\":1784:1789  idx++ */\n      dup10\n      dup1\n      tag_56\n      swap1\n      tag_23\n      jump\t// in\n    tag_56:\n      swap11\n      pop\n        /* \"contracts/HashJingViewer.sol\":1779:1790  part[idx++] */\n      dup2\n      mload\n      dup2\n      lt\n      tag_57\n      jumpi\n      tag_58\n      tag_26\n      jump\t// in\n    tag_58:\n    tag_57:\n      0x20\n      mul\n      0x20\n      add\n      add\n        /* \"contracts/HashJingViewer.sol\":1779:1796  part[idx++] = col */\n      dup2\n      swap1\n      mstore\n      pop\n        /* \"contracts/HashJingViewer.sol\":1813:1814  7 */\n      0x07\n        /* \"contracts/HashJingViewer.sol\":1804:1814  total += 7 */\n      dup8\n      tag_59\n      swap2\n      swap1\n      tag_28\n      jump\t// in\n    tag_59:\n      swap7\n      pop\n        /* \"contracts/HashJingViewer.sol\":1874:1882  PATH_END */\n      mload(0x40)\n      dup1\n      0x40\n      add\n      0x40\n      mstore\n      dup1\n      0x03\n      dup2\n      mstore\n      0x20\n      add\n      0x222f3e0000000000000000000000000000000000000000000000000000000000\n      dup2\n      mstore\n      pop\n        /* \"contracts/HashJingViewer.sol\":1860:1864  part */\n      dup10\n        /* \"contracts/HashJingViewer.sol\":1865:1870  idx++ */\n      dup10\n      dup1\n      tag_60\n      swap1\n      tag_23\n      jump\t// in\n    tag_60:\n      swap11\n      pop\n        /* \"contracts/HashJingViewer.sol\":1860:1871  part[idx++] */\n      dup2\n      mload\n      dup2\n      lt\n      tag_61\n      jumpi\n      tag_62\n      tag_26\n      jump\t// in\n    tag_62:\n    tag_61:\n      0x20\n      mul\n      0x20\n      add\n      add\n        /* \"contracts/HashJingViewer.sol\":1860:1882  part[idx++] = PATH_END */\n      dup2\n      swap1\n      mstore\n      pop\n        /* \"contracts/HashJingViewer.sol\":1894:1902  PATH_END */\n      mload(0x40)\n      dup1\n      0x40\n      add\n      0x40\n      mstore\n      dup1\n      0x03\n      dup2\n      mstore\n      0x20\n      add\n      0x222f3e0000000000000000000000000000000000000000000000000000000000\n      dup2\n      mstore\n      pop\n        /* \"contracts/HashJingViewer.sol\":1894:1909  PATH_END.length */\n      mload\n        /* \"contracts/HashJingViewer.sol\":1885:1909  total += PATH_END.length */\n      dup8\n      tag_63\n      swap2\n      swap1\n      tag_28\n      jump\t// in\n    tag_63:\n      swap7\n      pop\n        /* \"contracts/HashJingViewer.sol\":1495:1924  {... */\n      pop\n      pop\n      pop\n        /* \"contracts/HashJingViewer.sol\":1490:1493  ++r */\n      dup1\n      0x01\n      add\n      swap1\n      pop\n        /* \"contracts/HashJingViewer.sol\":1469:1924  for (uint8 r; r < 4; ++r) {... */\n      jump(tag_37)\n    tag_38:\n      pop\n        /* \"contracts/HashJingViewer.sol\":1980:1987  G_CLOSE */\n      mload(0x40)\n      dup1\n      0x40\n      add\n      0x40\n      mstore\n      dup1\n      0x04\n      dup2\n      mstore\n      0x20\n      add\n      0x3c2f673e00000000000000000000000000000000000000000000000000000000\n      dup2\n      mstore\n      pop\n        /* \"contracts/HashJingViewer.sol\":1966:1970  part */\n      dup6\n        /* \"contracts/HashJingViewer.sol\":1971:1976  idx++ */\n      dup6\n      dup1\n      tag_64\n      swap1\n      tag_23\n      jump\t// in\n    tag_64:\n      swap7\n      pop\n        /* \"contracts/HashJingViewer.sol\":1966:1977  part[idx++] */\n      dup2\n      mload\n      dup2\n      lt\n      tag_65\n      jumpi\n      tag_66\n      tag_26\n      jump\t// in\n    tag_66:\n    tag_65:\n      0x20\n      mul\n      0x20\n      add\n      add\n        /* \"contracts/HashJingViewer.sol\":1966:1987  part[idx++] = G_CLOSE */\n      dup2\n      swap1\n      mstore\n      pop\n        /* \"contracts/HashJingViewer.sol\":1999:2006  G_CLOSE */\n      mload(0x40)\n      dup1\n      0x40\n      add\n      0x40\n      mstore\n      dup1\n      0x04\n      dup2\n      mstore\n      0x20\n      add\n      0x3c2f673e00000000000000000000000000000000000000000000000000000000\n      dup2\n      mstore\n      pop\n        /* \"contracts/HashJingViewer.sol\":1999:2013  G_CLOSE.length */\n      mload\n        /* \"contracts/HashJingViewer.sol\":1990:2013  total += G_CLOSE.length */\n      dup4\n      tag_67\n      swap2\n      swap1\n      tag_28\n      jump\t// in\n    tag_67:\n      swap3\n      pop\n        /* \"contracts/HashJingViewer.sol\":1140:2024  {... */\n      pop\n        /* \"contracts/HashJingViewer.sol\":1135:1138  ++s */\n      dup1\n      0x01\n      add\n      swap1\n      pop\n        /* \"contracts/HashJingViewer.sol\":1106:2024  for (uint256 s; s < SECTORS; ++s) {... */\n      jump(tag_16)\n    tag_17:\n      pop\n        /* \"contracts/HashJingViewer.sol\":2132:2148  bytes memory svg */\n      0x00\n        /* \"contracts/HashJingViewer.sol\":2161:2166  total */\n      dup2\n        /* \"contracts/HashJingViewer.sol\":2151:2167  new bytes(total) */\n      0xffffffffffffffff\n      dup2\n      gt\n      iszero\n      tag_68\n      jumpi\n      tag_69\n      tag_13\n      jump\t// in\n    tag_69:\n    tag_68:\n      mload(0x40)\n      swap1\n      dup1\n      dup3\n      mstore\n      dup1\n      0x1f\n      add\n      not(0x1f)\n      and\n      0x20\n      add\n      dup3\n      add\n      0x40\n      mstore\n      dup1\n      iszero\n      tag_70\n      jumpi\n      dup2\n      0x20\n      add\n      0x01\n      dup3\n      mul\n      dup1\n      calldatasize\n      dup4\n      calldatacopy\n      dup1\n      dup3\n      add\n      swap2\n      pop\n      pop\n      swap1\n      pop\n    tag_70:\n      pop\n        /* \"contracts/HashJingViewer.sol\":2132:2167  bytes memory svg = new bytes(total) */\n      swap1\n      pop\n        /* \"contracts/HashJingViewer.sol\":2177:2191  uint256 offset */\n      0x00\n        /* \"contracts/HashJingViewer.sol\":2207:2216  uint256 i */\n      dup1\n        /* \"contracts/HashJingViewer.sol\":2202:2706  for (uint256 i; i < part.length; ++i) {... */\n    tag_71:\n        /* \"contracts/HashJingViewer.sol\":2222:2226  part */\n      dup6\n        /* \"contracts/HashJingViewer.sol\":2222:2233  part.length */\n      mload\n        /* \"contracts/HashJingViewer.sol\":2218:2219  i */\n      dup2\n        /* \"contracts/HashJingViewer.sol\":2218:2233  i < part.length */\n      lt\n        /* \"contracts/HashJingViewer.sol\":2202:2706  for (uint256 i; i < part.length; ++i) {... */\n      iszero\n      tag_72\n      jumpi\n        /* \"contracts/HashJingViewer.sol\":2254:2268  bytes memory p */\n      0x00\n        /* \"contracts/HashJingViewer.sol\":2271:2275  part */\n      dup7\n        /* \"contracts/HashJingViewer.sol\":2276:2277  i */\n      dup3\n        /* \"contracts/HashJingViewer.sol\":2271:2278  part[i] */\n      dup2\n      mload\n      dup2\n      lt\n      tag_74\n      jumpi\n      tag_75\n      tag_26\n      jump\t// in\n    tag_75:\n    tag_74:\n      0x20\n      mul\n      0x20\n      add\n      add\n      mload\n        /* \"contracts/HashJingViewer.sol\":2254:2278  bytes memory p = part[i] */\n      swap1\n      pop\n        /* \"contracts/HashJingViewer.sol\":2292:2303  uint256 len */\n      0x00\n        /* \"contracts/HashJingViewer.sol\":2306:2307  p */\n      dup2\n        /* \"contracts/HashJingViewer.sol\":2306:2314  p.length */\n      mload\n        /* \"contracts/HashJingViewer.sol\":2292:2314  uint256 len = p.length */\n      swap1\n      pop\n        /* \"contracts/HashJingViewer.sol\":2339:2340  0 */\n      0x00\n        /* \"contracts/HashJingViewer.sol\":2332:2335  len */\n      dup2\n        /* \"contracts/HashJingViewer.sol\":2332:2340  len == 0 */\n      sub\n        /* \"contracts/HashJingViewer.sol\":2328:2350  if (len == 0) continue */\n      tag_76\n      jumpi\n        /* \"contracts/HashJingViewer.sol\":2342:2350  continue */\n      pop\n      pop\n      jump(tag_73)\n        /* \"contracts/HashJingViewer.sol\":2328:2350  if (len == 0) continue */\n    tag_76:\n        /* \"contracts/HashJingViewer.sol\":2464:2470  offset */\n      dup4\n        /* \"contracts/HashJingViewer.sol\":2459:2461  32 */\n      0x20\n        /* \"contracts/HashJingViewer.sol\":2454:2457  svg */\n      dup7\n        /* \"contracts/HashJingViewer.sol\":2450:2462  add(svg, 32) */\n      add\n        /* \"contracts/HashJingViewer.sol\":2446:2471  add(add(svg, 32), offset) */\n      add\n        /* \"contracts/HashJingViewer.sol\":2506:2508  32 */\n      0x20\n        /* \"contracts/HashJingViewer.sol\":2503:2504  p */\n      dup4\n        /* \"contracts/HashJingViewer.sol\":2499:2509  add(p, 32) */\n      add\n        /* \"contracts/HashJingViewer.sol\":2541:2542  0 */\n      0x00\n        /* \"contracts/HashJingViewer.sol\":2526:2655  for { let j := 0 } lt(j, len) { j := add(j, 32) } {... */\n    tag_77:\n        /* \"contracts/HashJingViewer.sol\":2551:2554  len */\n      dup4\n        /* \"contracts/HashJingViewer.sol\":2548:2549  j */\n      dup2\n        /* \"contracts/HashJingViewer.sol\":2545:2555  lt(j, len) */\n      lt\n        /* \"contracts/HashJingViewer.sol\":2526:2655  for { let j := 0 } lt(j, len) { j := add(j, 32) } {... */\n      iszero\n      tag_79\n      jumpi\n        /* \"contracts/HashJingViewer.sol\":2633:2634  j */\n      dup1\n        /* \"contracts/HashJingViewer.sol\":2628:2631  src */\n      dup3\n        /* \"contracts/HashJingViewer.sol\":2624:2635  add(src, j) */\n      add\n        /* \"contracts/HashJingViewer.sol\":2618:2636  mload(add(src, j)) */\n      mload\n        /* \"contracts/HashJingViewer.sol\":2614:2615  j */\n      dup2\n        /* \"contracts/HashJingViewer.sol\":2609:2612  dst */\n      dup5\n        /* \"contracts/HashJingViewer.sol\":2605:2616  add(dst, j) */\n      add\n        /* \"contracts/HashJingViewer.sol\":2598:2637  mstore(add(dst, j), mload(add(src, j))) */\n      mstore\n        /* \"contracts/HashJingViewer.sol\":2570:2572  32 */\n      0x20\n        /* \"contracts/HashJingViewer.sol\":2567:2568  j */\n      dup2\n        /* \"contracts/HashJingViewer.sol\":2563:2573  add(j, 32) */\n      add\n        /* \"contracts/HashJingViewer.sol\":2558:2573  j := add(j, 32) */\n      swap1\n      pop\n        /* \"contracts/HashJingViewer.sol\":2526:2655  for { let j := 0 } lt(j, len) { j := add(j, 32) } {... */\n      jump(tag_77)\n    tag_79:\n        /* \"contracts/HashJingViewer.sol\":2530:2544  { let j := 0 } */\n      pop\n        /* \"contracts/HashJingViewer.sol\":2374:2669  {... */\n      pop\n      pop\n        /* \"contracts/HashJingViewer.sol\":2692:2695  len */\n      dup1\n        /* \"contracts/HashJingViewer.sol\":2682:2695  offset += len */\n      dup5\n      tag_80\n      swap2\n      swap1\n      tag_28\n      jump\t// in\n    tag_80:\n      swap4\n      pop\n        /* \"contracts/HashJingViewer.sol\":2240:2706  {... */\n      pop\n      pop\n        /* \"contracts/HashJingViewer.sol\":2202:2706  for (uint256 i; i < part.length; ++i) {... */\n    tag_73:\n        /* \"contracts/HashJingViewer.sol\":2235:2238  ++i */\n      dup1\n      0x01\n      add\n      swap1\n      pop\n        /* \"contracts/HashJingViewer.sol\":2202:2706  for (uint256 i; i < part.length; ++i) {... */\n      jump(tag_71)\n    tag_72:\n      pop\n        /* \"contracts/HashJingViewer.sol\":2729:2732  svg */\n      dup2\n        /* \"contracts/HashJingViewer.sol\":2715:2733  return string(svg) */\n      swap6\n      pop\n      pop\n      pop\n      pop\n      pop\n      pop\n        /* \"contracts/HashJingViewer.sol\":857:2740  function getSVG() external view returns (string memory) {... */\n      swap1\n      jump\t// out\n        /* \"contracts/HashJingViewer.sol\":2876:3311  function _angleBytes(uint256 v) private pure returns (bytes memory) {... */\n    tag_21:\n        /* \"contracts/HashJingViewer.sol\":2930:2942  bytes memory */\n      0x60\n        /* \"contracts/HashJingViewer.sol\":2954:2964  uint256 ip */\n      0x00\n        /* \"contracts/HashJingViewer.sol\":2971:2975  1000 */\n      0x03e8\n        /* \"contracts/HashJingViewer.sol\":2967:2968  v */\n      dup4\n        /* \"contracts/HashJingViewer.sol\":2967:2975  v / 1000 */\n      tag_82\n      swap2\n      swap1\n      tag_83\n      jump\t// in\n    tag_82:\n        /* \"contracts/HashJingViewer.sol\":2954:2975  uint256 ip = v / 1000 */\n      swap1\n      pop\n        /* \"contracts/HashJingViewer.sol\":2985:2995  uint256 fp */\n      0x00\n        /* \"contracts/HashJingViewer.sol\":3002:3006  1000 */\n      0x03e8\n        /* \"contracts/HashJingViewer.sol\":2998:2999  v */\n      dup5\n        /* \"contracts/HashJingViewer.sol\":2998:3006  v % 1000 */\n      tag_84\n      swap2\n      swap1\n      tag_85\n      jump\t// in\n    tag_84:\n        /* \"contracts/HashJingViewer.sol\":2985:3006  uint256 fp = v % 1000 */\n      swap1\n      pop\n        /* \"contracts/HashJingViewer.sol\":3026:3027  0 */\n      0x00\n        /* \"contracts/HashJingViewer.sol\":3020:3022  fp */\n      dup2\n        /* \"contracts/HashJingViewer.sol\":3020:3027  fp == 0 */\n      sub\n        /* \"contracts/HashJingViewer.sol\":3016:3050  if (fp == 0) return _uDecBytes(ip) */\n      tag_86\n      jumpi\n        /* \"contracts/HashJingViewer.sol\":3036:3050  _uDecBytes(ip) */\n      tag_87\n        /* \"contracts/HashJingViewer.sol\":3047:3049  ip */\n      dup3\n        /* \"contracts/HashJingViewer.sol\":3036:3046  _uDecBytes */\n      tag_88\n        /* \"contracts/HashJingViewer.sol\":3036:3050  _uDecBytes(ip) */\n      jump\t// in\n    tag_87:\n        /* \"contracts/HashJingViewer.sol\":3029:3050  return _uDecBytes(ip) */\n      swap3\n      pop\n      pop\n      pop\n      jump(tag_81)\n        /* \"contracts/HashJingViewer.sol\":3016:3050  if (fp == 0) return _uDecBytes(ip) */\n    tag_86:\n        /* \"contracts/HashJingViewer.sol\":3162:3172  uint8 digs */\n      0x00\n        /* \"contracts/HashJingViewer.sol\":3175:3176  3 */\n      0x03\n        /* \"contracts/HashJingViewer.sol\":3162:3176  uint8 digs = 3 */\n      swap1\n      pop\n        /* \"contracts/HashJingViewer.sol\":3186:3228  while (fp % 10 == 0) { fp /= 10; --digs; } */\n    tag_89:\n        /* \"contracts/HashJingViewer.sol\":3204:3205  0 */\n      0x00\n        /* \"contracts/HashJingViewer.sol\":3198:3200  10 */\n      0x0a\n        /* \"contracts/HashJingViewer.sol\":3193:3195  fp */\n      dup4\n        /* \"contracts/HashJingViewer.sol\":3193:3200  fp % 10 */\n      tag_91\n      swap2\n      swap1\n      tag_85\n      jump\t// in\n    tag_91:\n        /* \"contracts/HashJingViewer.sol\":3193:3205  fp % 10 == 0 */\n      sub\n        /* \"contracts/HashJingViewer.sol\":3186:3228  while (fp % 10 == 0) { fp /= 10; --digs; } */\n      tag_90\n      jumpi\n        /* \"contracts/HashJingViewer.sol\":3215:3217  10 */\n      0x0a\n        /* \"contracts/HashJingViewer.sol\":3209:3217  fp /= 10 */\n      dup3\n      tag_92\n      swap2\n      swap1\n      tag_83\n      jump\t// in\n    tag_92:\n      swap2\n      pop\n        /* \"contracts/HashJingViewer.sol\":3219:3225  --digs */\n      dup1\n      tag_93\n      swap1\n      tag_94\n      jump\t// in\n    tag_93:\n      swap1\n      pop\n        /* \"contracts/HashJingViewer.sol\":3186:3228  while (fp % 10 == 0) { fp /= 10; --digs; } */\n      jump(tag_89)\n    tag_90:\n        /* \"contracts/HashJingViewer.sol\":3262:3276  _uDecBytes(ip) */\n      tag_95\n        /* \"contracts/HashJingViewer.sol\":3273:3275  ip */\n      dup4\n        /* \"contracts/HashJingViewer.sol\":3262:3272  _uDecBytes */\n      tag_88\n        /* \"contracts/HashJingViewer.sol\":3262:3276  _uDecBytes(ip) */\n      jump\t// in\n    tag_95:\n        /* \"contracts/HashJingViewer.sol\":3283:3303  _uDecBytes(fp, digs) */\n      tag_96\n        /* \"contracts/HashJingViewer.sol\":3294:3296  fp */\n      dup4\n        /* \"contracts/HashJingViewer.sol\":3298:3302  digs */\n      dup4\n        /* \"contracts/HashJingViewer.sol\":3283:3293  _uDecBytes */\n      tag_97\n        /* \"contracts/HashJingViewer.sol\":3283:3303  _uDecBytes(fp, digs) */\n      jump\t// in\n    tag_96:\n        /* \"contracts/HashJingViewer.sol\":3245:3304  abi.encodePacked(_uDecBytes(ip), \".\", _uDecBytes(fp, digs)) */\n      add(0x20, mload(0x40))\n      tag_98\n      swap3\n      swap2\n      swap1\n      tag_99\n      jump\t// in\n    tag_98:\n      mload(0x40)\n      0x20\n      dup2\n      dup4\n      sub\n      sub\n      dup2\n      mstore\n      swap1\n      0x40\n      mstore\n        /* \"contracts/HashJingViewer.sol\":3238:3304  return abi.encodePacked(_uDecBytes(ip), \".\", _uDecBytes(fp, digs)) */\n      swap4\n      pop\n      pop\n      pop\n      pop\n        /* \"contracts/HashJingViewer.sol\":2876:3311  function _angleBytes(uint256 v) private pure returns (bytes memory) {... */\n    tag_81:\n      swap2\n      swap1\n      pop\n      jump\t// out\n        /* \"contracts/HashJingViewer.sol\":3757:3864  function _uDecBytes(uint256 v) private pure returns (bytes memory) {... */\n    tag_88:\n        /* \"contracts/HashJingViewer.sol\":3810:3822  bytes memory */\n      0x60\n        /* \"contracts/HashJingViewer.sol\":3841:3857  _uDecBytes(v, 0) */\n      tag_101\n        /* \"contracts/HashJingViewer.sol\":3852:3853  v */\n      dup3\n        /* \"contracts/HashJingViewer.sol\":3855:3856  0 */\n      0x00\n        /* \"contracts/HashJingViewer.sol\":3841:3851  _uDecBytes */\n      tag_97\n        /* \"contracts/HashJingViewer.sol\":3841:3857  _uDecBytes(v, 0) */\n      jump\t// in\n    tag_101:\n        /* \"contracts/HashJingViewer.sol\":3834:3857  return _uDecBytes(v, 0) */\n      swap1\n      pop\n        /* \"contracts/HashJingViewer.sol\":3757:3864  function _uDecBytes(uint256 v) private pure returns (bytes memory) {... */\n      swap2\n      swap1\n      pop\n      jump\t// out\n        /* \"contracts/HashJingViewer.sol\":3418:3752  function _uDecBytes(uint256 v, uint8 width)... */\n    tag_97:\n        /* \"contracts/HashJingViewer.sol\":3508:3524  bytes memory out */\n      0x60\n        /* \"contracts/HashJingViewer.sol\":3540:3706  while (width > 0 || v > 0) {... */\n    tag_103:\n        /* \"contracts/HashJingViewer.sol\":3555:3556  0 */\n      0x00\n        /* \"contracts/HashJingViewer.sol\":3547:3552  width */\n      dup3\n        /* \"contracts/HashJingViewer.sol\":3547:3556  width > 0 */\n      0xff\n      and\n      gt\n        /* \"contracts/HashJingViewer.sol\":3547:3565  width > 0 || v > 0 */\n      dup1\n      tag_105\n      jumpi\n      pop\n        /* \"contracts/HashJingViewer.sol\":3564:3565  0 */\n      0x00\n        /* \"contracts/HashJingViewer.sol\":3560:3561  v */\n      dup4\n        /* \"contracts/HashJingViewer.sol\":3560:3565  v > 0 */\n      gt\n        /* \"contracts/HashJingViewer.sol\":3547:3565  width > 0 || v > 0 */\n    tag_105:\n        /* \"contracts/HashJingViewer.sol\":3540:3706  while (width > 0 || v > 0) {... */\n      iszero\n      tag_104\n      jumpi\n        /* \"contracts/HashJingViewer.sol\":3627:3629  10 */\n      0x0a\n        /* \"contracts/HashJingViewer.sol\":3623:3624  v */\n      dup4\n        /* \"contracts/HashJingViewer.sol\":3623:3629  v % 10 */\n      tag_106\n      swap2\n      swap1\n      tag_85\n      jump\t// in\n    tag_106:\n        /* \"contracts/HashJingViewer.sol\":3617:3619  48 */\n      0x30\n        /* \"contracts/HashJingViewer.sol\":3617:3630  48 + (v % 10) */\n      tag_107\n      swap2\n      swap1\n      tag_28\n      jump\t// in\n    tag_107:\n        /* \"contracts/HashJingViewer.sol\":3604:3632  bytes1(uint8(48 + (v % 10))) */\n      0xf8\n      shl\n        /* \"contracts/HashJingViewer.sol\":3634:3637  out */\n      dup2\n        /* \"contracts/HashJingViewer.sol\":3587:3638  abi.encodePacked(bytes1(uint8(48 + (v % 10))), out) */\n      add(0x20, mload(0x40))\n      tag_108\n      swap3\n      swap2\n      swap1\n      tag_109\n      jump\t// in\n    tag_108:\n      mload(0x40)\n      0x20\n      dup2\n      dup4\n      sub\n      sub\n      dup2\n      mstore\n      swap1\n      0x40\n      mstore\n        /* \"contracts/HashJingViewer.sol\":3581:3638  out = abi.encodePacked(bytes1(uint8(48 + (v % 10))), out) */\n      swap1\n      pop\n        /* \"contracts/HashJingViewer.sol\":3657:3659  10 */\n      0x0a\n        /* \"contracts/HashJingViewer.sol\":3652:3659  v /= 10 */\n      dup4\n      tag_110\n      swap2\n      swap1\n      tag_83\n      jump\t// in\n    tag_110:\n      swap3\n      pop\n        /* \"contracts/HashJingViewer.sol\":3685:3686  0 */\n      0x00\n        /* \"contracts/HashJingViewer.sol\":3677:3682  width */\n      dup3\n        /* \"contracts/HashJingViewer.sol\":3677:3686  width > 0 */\n      0xff\n      and\n      gt\n        /* \"contracts/HashJingViewer.sol\":3673:3695  if (width > 0) --width */\n      iszero\n      tag_111\n      jumpi\n        /* \"contracts/HashJingViewer.sol\":3688:3695  --width */\n      dup2\n      tag_112\n      swap1\n      tag_94\n      jump\t// in\n    tag_112:\n      swap2\n      pop\n        /* \"contracts/HashJingViewer.sol\":3673:3695  if (width > 0) --width */\n    tag_111:\n        /* \"contracts/HashJingViewer.sol\":3540:3706  while (width > 0 || v > 0) {... */\n      jump(tag_103)\n    tag_104:\n        /* \"contracts/HashJingViewer.sol\":3733:3734  0 */\n      0x00\n        /* \"contracts/HashJingViewer.sol\":3719:3722  out */\n      dup2\n        /* \"contracts/HashJingViewer.sol\":3719:3729  out.length */\n      mload\n        /* \"contracts/HashJingViewer.sol\":3719:3734  out.length == 0 */\n      sub\n        /* \"contracts/HashJingViewer.sol\":3715:3745  if (out.length == 0) out = \"0\" */\n      tag_113\n      jumpi\n        /* \"contracts/HashJingViewer.sol\":3736:3745  out = \"0\" */\n      mload(0x40)\n      dup1\n      0x40\n      add\n      0x40\n      mstore\n      dup1\n      0x01\n      dup2\n      mstore\n      0x20\n      add\n      0x3000000000000000000000000000000000000000000000000000000000000000\n      dup2\n      mstore\n      pop\n      swap1\n      pop\n        /* \"contracts/HashJingViewer.sol\":3715:3745  if (out.length == 0) out = \"0\" */\n    tag_113:\n        /* \"contracts/HashJingViewer.sol\":3418:3752  function _uDecBytes(uint256 v, uint8 width)... */\n      swap3\n      swap2\n      pop\n      pop\n      jump\t// out\n        /* \"#utility.yul\":7:106   */\n    tag_114:\n        /* \"#utility.yul\":59:65   */\n      0x00\n        /* \"#utility.yul\":93:98   */\n      dup2\n        /* \"#utility.yul\":87:99   */\n      mload\n        /* \"#utility.yul\":77:99   */\n      swap1\n      pop\n        /* \"#utility.yul\":7:106   */\n      swap2\n      swap1\n      pop\n      jump\t// out\n        /* \"#utility.yul\":112:281   */\n    tag_115:\n        /* \"#utility.yul\":196:207   */\n      0x00\n        /* \"#utility.yul\":230:236   */\n      dup3\n        /* \"#utility.yul\":225:228   */\n      dup3\n        /* \"#utility.yul\":218:237   */\n      mstore\n        /* \"#utility.yul\":270:274   */\n      0x20\n        /* \"#utility.yul\":265:268   */\n      dup3\n        /* \"#utility.yul\":261:275   */\n      add\n        /* \"#utility.yul\":246:275   */\n      swap1\n      pop\n        /* \"#utility.yul\":112:281   */\n      swap3\n      swap2\n      pop\n      pop\n      jump\t// out\n        /* \"#utility.yul\":287:426   */\n    tag_116:\n        /* \"#utility.yul\":376:382   */\n      dup3\n        /* \"#utility.yul\":371:374   */\n      dup2\n        /* \"#utility.yul\":366:369   */\n      dup4\n        /* \"#utility.yul\":360:383   */\n      mcopy\n        /* \"#utility.yul\":417:418   */\n      0x00\n        /* \"#utility.yul\":408:414   */\n      dup4\n        /* \"#utility.yul\":403:406   */\n      dup4\n        /* \"#utility.yul\":399:415   */\n      add\n        /* \"#utility.yul\":392:419   */\n      mstore\n        /* \"#utility.yul\":287:426   */\n      pop\n      pop\n      pop\n      jump\t// out\n        /* \"#utility.yul\":432:534   */\n    tag_117:\n        /* \"#utility.yul\":473:479   */\n      0x00\n        /* \"#utility.yul\":524:526   */\n      0x1f\n        /* \"#utility.yul\":520:527   */\n      not\n        /* \"#utility.yul\":515:517   */\n      0x1f\n        /* \"#utility.yul\":508:513   */\n      dup4\n        /* \"#utility.yul\":504:518   */\n      add\n        /* \"#utility.yul\":500:528   */\n      and\n        /* \"#utility.yul\":490:528   */\n      swap1\n      pop\n        /* \"#utility.yul\":432:534   */\n      swap2\n      swap1\n      pop\n      jump\t// out\n        /* \"#utility.yul\":540:917   */\n    tag_118:\n        /* \"#utility.yul\":628:631   */\n      0x00\n        /* \"#utility.yul\":656:695   */\n      tag_151\n        /* \"#utility.yul\":689:694   */\n      dup3\n        /* \"#utility.yul\":656:695   */\n      tag_114\n      jump\t// in\n    tag_151:\n        /* \"#utility.yul\":711:782   */\n      tag_152\n        /* \"#utility.yul\":775:781   */\n      dup2\n        /* \"#utility.yul\":770:773   */\n      dup6\n        /* \"#utility.yul\":711:782   */\n      tag_115\n      jump\t// in\n    tag_152:\n        /* \"#utility.yul\":704:782   */\n      swap4\n      pop\n        /* \"#utility.yul\":791:856   */\n      tag_153\n        /* \"#utility.yul\":849:855   */\n      dup2\n        /* \"#utility.yul\":844:847   */\n      dup6\n        /* \"#utility.yul\":837:841   */\n      0x20\n        /* \"#utility.yul\":830:835   */\n      dup7\n        /* \"#utility.yul\":826:842   */\n      add\n        /* \"#utility.yul\":791:856   */\n      tag_116\n      jump\t// in\n    tag_153:\n        /* \"#utility.yul\":881:910   */\n      tag_154\n        /* \"#utility.yul\":903:909   */\n      dup2\n        /* \"#utility.yul\":881:910   */\n      tag_117\n      jump\t// in\n    tag_154:\n        /* \"#utility.yul\":876:879   */\n      dup5\n        /* \"#utility.yul\":872:911   */\n      add\n        /* \"#utility.yul\":865:911   */\n      swap2\n      pop\n        /* \"#utility.yul\":632:917   */\n      pop\n        /* \"#utility.yul\":540:917   */\n      swap3\n      swap2\n      pop\n      pop\n      jump\t// out\n        /* \"#utility.yul\":923:1236   */\n    tag_7:\n        /* \"#utility.yul\":1036:1040   */\n      0x00\n        /* \"#utility.yul\":1074:1076   */\n      0x20\n        /* \"#utility.yul\":1063:1072   */\n      dup3\n        /* \"#utility.yul\":1059:1077   */\n      add\n        /* \"#utility.yul\":1051:1077   */\n      swap1\n      pop\n        /* \"#utility.yul\":1123:1132   */\n      dup2\n        /* \"#utility.yul\":1117:1121   */\n      dup2\n        /* \"#utility.yul\":1113:1133   */\n      sub\n        /* \"#utility.yul\":1109:1110   */\n      0x00\n        /* \"#utility.yul\":1098:1107   */\n      dup4\n        /* \"#utility.yul\":1094:1111   */\n      add\n        /* \"#utility.yul\":1087:1134   */\n      mstore\n        /* \"#utility.yul\":1151:1229   */\n      tag_156\n        /* \"#utility.yul\":1224:1228   */\n      dup2\n        /* \"#utility.yul\":1215:1221   */\n      dup5\n        /* \"#utility.yul\":1151:1229   */\n      tag_118\n      jump\t// in\n    tag_156:\n        /* \"#utility.yul\":1143:1229   */\n      swap1\n      pop\n        /* \"#utility.yul\":923:1236   */\n      swap3\n      swap2\n      pop\n      pop\n      jump\t// out\n        /* \"#utility.yul\":1242:1319   */\n    tag_119:\n        /* \"#utility.yul\":1279:1286   */\n      0x00\n        /* \"#utility.yul\":1308:1313   */\n      dup2\n        /* \"#utility.yul\":1297:1313   */\n      swap1\n      pop\n        /* \"#utility.yul\":1242:1319   */\n      swap2\n      swap1\n      pop\n      jump\t// out\n        /* \"#utility.yul\":1325:1505   */\n    tag_120:\n        /* \"#utility.yul\":1373:1450   */\n      0x4e487b7100000000000000000000000000000000000000000000000000000000\n        /* \"#utility.yul\":1370:1371   */\n      0x00\n        /* \"#utility.yul\":1363:1451   */\n      mstore\n        /* \"#utility.yul\":1470:1474   */\n      0x11\n        /* \"#utility.yul\":1467:1468   */\n      0x04\n        /* \"#utility.yul\":1460:1475   */\n      mstore\n        /* \"#utility.yul\":1494:1498   */\n      0x24\n        /* \"#utility.yul\":1491:1492   */\n      0x00\n        /* \"#utility.yul\":1484:1499   */\n      revert\n        /* \"#utility.yul\":1511:1921   */\n    tag_10:\n        /* \"#utility.yul\":1551:1558   */\n      0x00\n        /* \"#utility.yul\":1574:1594   */\n      tag_160\n        /* \"#utility.yul\":1592:1593   */\n      dup3\n        /* \"#utility.yul\":1574:1594   */\n      tag_119\n      jump\t// in\n    tag_160:\n        /* \"#utility.yul\":1569:1594   */\n      swap2\n      pop\n        /* \"#utility.yul\":1608:1628   */\n      tag_161\n        /* \"#utility.yul\":1626:1627   */\n      dup4\n        /* \"#utility.yul\":1608:1628   */\n      tag_119\n      jump\t// in\n    tag_161:\n        /* \"#utility.yul\":1603:1628   */\n      swap3\n      pop\n        /* \"#utility.yul\":1663:1664   */\n      dup3\n        /* \"#utility.yul\":1660:1661   */\n      dup3\n        /* \"#utility.yul\":1656:1665   */\n      mul\n        /* \"#utility.yul\":1685:1715   */\n      tag_162\n        /* \"#utility.yul\":1703:1714   */\n      dup2\n        /* \"#utility.yul\":1685:1715   */\n      tag_119\n      jump\t// in\n    tag_162:\n        /* \"#utility.yul\":1674:1715   */\n      swap2\n      pop\n        /* \"#utility.yul\":1864:1865   */\n      dup3\n        /* \"#utility.yul\":1855:1862   */\n      dup3\n        /* \"#utility.yul\":1851:1866   */\n      div\n        /* \"#utility.yul\":1848:1849   */\n      dup5\n        /* \"#utility.yul\":1845:1867   */\n      eq\n        /* \"#utility.yul\":1825:1826   */\n      dup4\n        /* \"#utility.yul\":1818:1827   */\n      iszero\n        /* \"#utility.yul\":1798:1881   */\n      or\n        /* \"#utility.yul\":1775:1914   */\n      tag_163\n      jumpi\n        /* \"#utility.yul\":1894:1912   */\n      tag_164\n      tag_120\n      jump\t// in\n    tag_164:\n        /* \"#utility.yul\":1775:1914   */\n    tag_163:\n        /* \"#utility.yul\":1559:1921   */\n      pop\n        /* \"#utility.yul\":1511:1921   */\n      swap3\n      swap2\n      pop\n      pop\n      jump\t// out\n        /* \"#utility.yul\":1927:2107   */\n    tag_13:\n        /* \"#utility.yul\":1975:2052   */\n      0x4e487b7100000000000000000000000000000000000000000000000000000000\n        /* \"#utility.yul\":1972:1973   */\n      0x00\n        /* \"#utility.yul\":1965:2053   */\n      mstore\n        /* \"#utility.yul\":2072:2076   */\n      0x41\n        /* \"#utility.yul\":2069:2070   */\n      0x04\n        /* \"#utility.yul\":2062:2077   */\n      mstore\n        /* \"#utility.yul\":2096:2100   */\n      0x24\n        /* \"#utility.yul\":2093:2094   */\n      0x00\n        /* \"#utility.yul\":2086:2101   */\n      revert\n        /* \"#utility.yul\":2113:2346   */\n    tag_23:\n        /* \"#utility.yul\":2152:2155   */\n      0x00\n        /* \"#utility.yul\":2175:2199   */\n      tag_167\n        /* \"#utility.yul\":2193:2198   */\n      dup3\n        /* \"#utility.yul\":2175:2199   */\n      tag_119\n      jump\t// in\n    tag_167:\n        /* \"#utility.yul\":2166:2199   */\n      swap2\n      pop\n        /* \"#utility.yul\":2221:2287   */\n      0xffffffffffffffffffffffffffffffffffffffffffffffffffffffffffffffff\n        /* \"#utility.yul\":2214:2219   */\n      dup3\n        /* \"#utility.yul\":2211:2288   */\n      sub\n        /* \"#utility.yul\":2208:2311   */\n      tag_168\n      jumpi\n        /* \"#utility.yul\":2291:2309   */\n      tag_169\n      tag_120\n      jump\t// in\n    tag_169:\n        /* \"#utility.yul\":2208:2311   */\n    tag_168:\n        /* \"#utility.yul\":2338:2339   */\n      0x01\n        /* \"#utility.yul\":2331:2336   */\n      dup3\n        /* \"#utility.yul\":2327:2340   */\n      add\n        /* \"#utility.yul\":2320:2340   */\n      swap1\n      pop\n        /* \"#utility.yul\":2113:2346   */\n      swap2\n      swap1\n      pop\n      jump\t// out\n        /* \"#utility.yul\":2352:2532   */\n    tag_26:\n        /* \"#utility.yul\":2400:2477   */\n      0x4e487b7100000000000000000000000000000000000000000000000000000000\n        /* \"#utility.yul\":2397:2398   */\n      0x00\n        /* \"#utility.yul\":2390:2478   */\n      mstore\n        /* \"#utility.yul\":2497:2501   */\n      0x32\n        /* \"#utility.yul\":2494:2495   */\n      0x04\n        /* \"#utility.yul\":2487:2502   */\n      mstore\n        /* \"#utility.yul\":2521:2525   */\n      0x24\n        /* \"#utility.yul\":2518:2519   */\n      0x00\n        /* \"#utility.yul\":2511:2526   */\n      revert\n        /* \"#utility.yul\":2538:2729   */\n    tag_28:\n        /* \"#utility.yul\":2578:2581   */\n      0x00\n        /* \"#utility.yul\":2597:2617   */\n      tag_172\n        /* \"#utility.yul\":2615:2616   */\n      dup3\n        /* \"#utility.yul\":2597:2617   */\n      tag_119\n      jump\t// in\n    tag_172:\n        /* \"#utility.yul\":2592:2617   */\n      swap2\n      pop\n        /* \"#utility.yul\":2631:2651   */\n      tag_173\n        /* \"#utility.yul\":2649:2650   */\n      dup4\n        /* \"#utility.yul\":2631:2651   */\n      tag_119\n      jump\t// in\n    tag_173:\n        /* \"#utility.yul\":2626:2651   */\n      swap3\n      pop\n        /* \"#utility.yul\":2674:2675   */\n      dup3\n        /* \"#utility.yul\":2671:2672   */\n      dup3\n        /* \"#utility.yul\":2667:2676   */\n      add\n        /* \"#utility.yul\":2660:2676   */\n      swap1\n      pop\n        /* \"#utility.yul\":2695:2698   */\n      dup1\n        /* \"#utility.yul\":2692:2693   */\n      dup3\n        /* \"#utility.yul\":2689:2699   */\n      gt\n        /* \"#utility.yul\":2686:2722   */\n      iszero\n      tag_174\n      jumpi\n        /* \"#utility.yul\":2702:2720   */\n      tag_175\n      tag_120\n      jump\t// in\n    tag_175:\n        /* \"#utility.yul\":2686:2722   */\n    tag_174:\n        /* \"#utility.yul\":2538:2729   */\n      swap3\n      swap2\n      pop\n      pop\n      jump\t// out\n        /* \"#utility.yul\":2735:2821   */\n    tag_121:\n        /* \"#utility.yul\":2770:2777   */\n      0x00\n        /* \"#utility.yul\":2810:2814   */\n      0xff\n        /* \"#utility.yul\":2803:2808   */\n      dup3\n        /* \"#utility.yul\":2799:2815   */\n      and\n        /* \"#utility.yul\":2788:2815   */\n      swap1\n      pop\n        /* \"#utility.yul\":2735:2821   */\n      swap2\n      swap1\n      pop\n      jump\t// out\n        /* \"#utility.yul\":2827:2887   */\n    tag_122:\n        /* \"#utility.yul\":2855:2858   */\n      0x00\n        /* \"#utility.yul\":2876:2881   */\n      dup2\n        /* \"#utility.yul\":2869:2881   */\n      swap1\n      pop\n        /* \"#utility.yul\":2827:2887   */\n      swap2\n      swap1\n      pop\n      jump\t// out\n        /* \"#utility.yul\":2893:3031   */\n    tag_123:\n        /* \"#utility.yul\":2941:2950   */\n      0x00\n        /* \"#utility.yul\":2974:3025   */\n      tag_179\n        /* \"#utility.yul\":2992:3024   */\n      tag_180\n        /* \"#utility.yul\":3001:3023   */\n      tag_181\n        /* \"#utility.yul\":3017:3022   */\n      dup5\n        /* \"#utility.yul\":3001:3023   */\n      tag_121\n      jump\t// in\n    tag_181:\n        /* \"#utility.yul\":2992:3024   */\n      tag_122\n      jump\t// in\n    tag_180:\n        /* \"#utility.yul\":2974:3025   */\n      tag_119\n      jump\t// in\n    tag_179:\n        /* \"#utility.yul\":2961:3025   */\n      swap1\n      pop\n        /* \"#utility.yul\":2893:3031   */\n      swap2\n      swap1\n      pop\n      jump\t// out\n        /* \"#utility.yul\":3037:3164   */\n    tag_124:\n        /* \"#utility.yul\":3122:3157   */\n      tag_183\n        /* \"#utility.yul\":3151:3156   */\n      dup2\n        /* \"#utility.yul\":3122:3157   */\n      tag_123\n      jump\t// in\n    tag_183:\n        /* \"#utility.yul\":3117:3120   */\n      dup3\n        /* \"#utility.yul\":3110:3158   */\n      mstore\n        /* \"#utility.yul\":3037:3164   */\n      pop\n      pop\n      jump\t// out\n        /* \"#utility.yul\":3170:3388   */\n    tag_41:\n        /* \"#utility.yul\":3261:3265   */\n      0x00\n        /* \"#utility.yul\":3299:3301   */\n      0x20\n        /* \"#utility.yul\":3288:3297   */\n      dup3\n        /* \"#utility.yul\":3284:3302   */\n      add\n        /* \"#utility.yul\":3276:3302   */\n      swap1\n      pop\n        /* \"#utility.yul\":3312:3381   */\n      tag_185\n        /* \"#utility.yul\":3378:3379   */\n      0x00\n        /* \"#utility.yul\":3367:3376   */\n      dup4\n        /* \"#utility.yul\":3363:3380   */\n      add\n        /* \"#utility.yul\":3354:3360   */\n      dup5\n        /* \"#utility.yul\":3312:3381   */\n      tag_124\n      jump\t// in\n    tag_185:\n        /* \"#utility.yul\":3170:3388   */\n      swap3\n      swap2\n      pop\n      pop\n      jump\t// out\n        /* \"#utility.yul\":3394:3469   */\n    tag_125:\n        /* \"#utility.yul\":3427:3433   */\n      0x00\n        /* \"#utility.yul\":3460:3462   */\n      0x40\n        /* \"#utility.yul\":3454:3463   */\n      mload\n        /* \"#utility.yul\":3444:3463   */\n      swap1\n      pop\n        /* \"#utility.yul\":3394:3469   */\n      swap1\n      jump\t// out\n        /* \"#utility.yul\":3475:3592   */\n    tag_126:\n        /* \"#utility.yul\":3584:3585   */\n      0x00\n        /* \"#utility.yul\":3581:3582   */\n      dup1\n        /* \"#utility.yul\":3574:3586   */\n      revert\n        /* \"#utility.yul\":3598:3715   */\n    tag_127:\n        /* \"#utility.yul\":3707:3708   */\n      0x00\n        /* \"#utility.yul\":3704:3705   */\n      dup1\n        /* \"#utility.yul\":3697:3709   */\n      revert\n        /* \"#utility.yul\":3721:3838   */\n    tag_128:\n        /* \"#utility.yul\":3830:3831   */\n      0x00\n        /* \"#utility.yul\":3827:3828   */\n      dup1\n        /* \"#utility.yul\":3820:3832   */\n      revert\n        /* \"#utility.yul\":3844:3961   */\n    tag_129:\n        /* \"#utility.yul\":3953:3954   */\n      0x00\n        /* \"#utility.yul\":3950:3951   */\n      dup1\n        /* \"#utility.yul\":3943:3955   */\n      revert\n        /* \"#utility.yul\":3967:4248   */\n    tag_130:\n        /* \"#utility.yul\":4050:4077   */\n      tag_192\n        /* \"#utility.yul\":4072:4076   */\n      dup3\n        /* \"#utility.yul\":4050:4077   */\n      tag_117\n      jump\t// in\n    tag_192:\n        /* \"#utility.yul\":4042:4048   */\n      dup2\n        /* \"#utility.yul\":4038:4078   */\n      add\n        /* \"#utility.yul\":4180:4186   */\n      dup2\n        /* \"#utility.yul\":4168:4178   */\n      dup2\n        /* \"#utility.yul\":4165:4187   */\n      lt\n        /* \"#utility.yul\":4144:4162   */\n      0xffffffffffffffff\n        /* \"#utility.yul\":4132:4142   */\n      dup3\n        /* \"#utility.yul\":4129:4163   */\n      gt\n        /* \"#utility.yul\":4126:4188   */\n      or\n        /* \"#utility.yul\":4123:4211   */\n      iszero\n      tag_193\n      jumpi\n        /* \"#utility.yul\":4191:4209   */\n      tag_194\n      tag_13\n      jump\t// in\n    tag_194:\n        /* \"#utility.yul\":4123:4211   */\n    tag_193:\n        /* \"#utility.yul\":4231:4241   */\n      dup1\n        /* \"#utility.yul\":4227:4229   */\n      0x40\n        /* \"#utility.yul\":4220:4242   */\n      mstore\n        /* \"#utility.yul\":4010:4248   */\n      pop\n        /* \"#utility.yul\":3967:4248   */\n      pop\n      pop\n      jump\t// out\n        /* \"#utility.yul\":4254:4383   */\n    tag_131:\n        /* \"#utility.yul\":4288:4294   */\n      0x00\n        /* \"#utility.yul\":4315:4335   */\n      tag_196\n      tag_125\n      jump\t// in\n    tag_196:\n        /* \"#utility.yul\":4305:4335   */\n      swap1\n      pop\n        /* \"#utility.yul\":4344:4377   */\n      tag_197\n        /* \"#utility.yul\":4372:4376   */\n      dup3\n        /* \"#utility.yul\":4364:4370   */\n      dup3\n        /* \"#utility.yul\":4344:4377   */\n      tag_130\n      jump\t// in\n    tag_197:\n        /* \"#utility.yul\":4254:4383   */\n      swap2\n      swap1\n      pop\n      jump\t// out\n        /* \"#utility.yul\":4389:4696   */\n    tag_132:\n        /* \"#utility.yul\":4450:4454   */\n      0x00\n        /* \"#utility.yul\":4540:4558   */\n      0xffffffffffffffff\n        /* \"#utility.yul\":4532:4538   */\n      dup3\n        /* \"#utility.yul\":4529:4559   */\n      gt\n        /* \"#utility.yul\":4526:4582   */\n      iszero\n      tag_199\n      jumpi\n        /* \"#utility.yul\":4562:4580   */\n      tag_200\n      tag_13\n      jump\t// in\n    tag_200:\n        /* \"#utility.yul\":4526:4582   */\n    tag_199:\n        /* \"#utility.yul\":4600:4629   */\n      tag_201\n        /* \"#utility.yul\":4622:4628   */\n      dup3\n        /* \"#utility.yul\":4600:4629   */\n      tag_117\n      jump\t// in\n    tag_201:\n        /* \"#utility.yul\":4592:4629   */\n      swap1\n      pop\n        /* \"#utility.yul\":4684:4688   */\n      0x20\n        /* \"#utility.yul\":4678:4682   */\n      dup2\n        /* \"#utility.yul\":4674:4689   */\n      add\n        /* \"#utility.yul\":4666:4689   */\n      swap1\n      pop\n        /* \"#utility.yul\":4389:4696   */\n      swap2\n      swap1\n      pop\n      jump\t// out\n        /* \"#utility.yul\":4702:5134   */\n    tag_133:\n        /* \"#utility.yul\":4790:4795   */\n      0x00\n        /* \"#utility.yul\":4815:4880   */\n      tag_203\n        /* \"#utility.yul\":4831:4879   */\n      tag_204\n        /* \"#utility.yul\":4872:4878   */\n      dup5\n        /* \"#utility.yul\":4831:4879   */\n      tag_132\n      jump\t// in\n    tag_204:\n        /* \"#utility.yul\":4815:4880   */\n      tag_131\n      jump\t// in\n    tag_203:\n        /* \"#utility.yul\":4806:4880   */\n      swap1\n      pop\n        /* \"#utility.yul\":4903:4909   */\n      dup3\n        /* \"#utility.yul\":4896:4901   */\n      dup2\n        /* \"#utility.yul\":4889:4910   */\n      mstore\n        /* \"#utility.yul\":4941:4945   */\n      0x20\n        /* \"#utility.yul\":4934:4939   */\n      dup2\n        /* \"#utility.yul\":4930:4946   */\n      add\n        /* \"#utility.yul\":4979:4982   */\n      dup5\n        /* \"#utility.yul\":4970:4976   */\n      dup5\n        /* \"#utility.yul\":4965:4968   */\n      dup5\n        /* \"#utility.yul\":4961:4977   */\n      add\n        /* \"#utility.yul\":4958:4983   */\n      gt\n        /* \"#utility.yul\":4955:5067   */\n      iszero\n      tag_205\n      jumpi\n        /* \"#utility.yul\":4986:5065   */\n      tag_206\n      tag_129\n      jump\t// in\n    tag_206:\n        /* \"#utility.yul\":4955:5067   */\n    tag_205:\n        /* \"#utility.yul\":5076:5128   */\n      tag_207\n        /* \"#utility.yul\":5121:5127   */\n      dup5\n        /* \"#utility.yul\":5116:5119   */\n      dup3\n        /* \"#utility.yul\":5111:5114   */\n      dup6\n        /* \"#utility.yul\":5076:5128   */\n      tag_116\n      jump\t// in\n    tag_207:\n        /* \"#utility.yul\":4796:5134   */\n      pop\n        /* \"#utility.yul\":4702:5134   */\n      swap4\n      swap3\n      pop\n      pop\n      pop\n      jump\t// out\n        /* \"#utility.yul\":5153:5506   */\n    tag_134:\n        /* \"#utility.yul\":5219:5224   */\n      0x00\n        /* \"#utility.yul\":5268:5271   */\n      dup3\n        /* \"#utility.yul\":5261:5265   */\n      0x1f\n        /* \"#utility.yul\":5253:5259   */\n      dup4\n        /* \"#utility.yul\":5249:5266   */\n      add\n        /* \"#utility.yul\":5245:5272   */\n      slt\n        /* \"#utility.yul\":5235:5357   */\n      tag_209\n      jumpi\n        /* \"#utility.yul\":5276:5355   */\n      tag_210\n      tag_128\n      jump\t// in\n    tag_210:\n        /* \"#utility.yul\":5235:5357   */\n    tag_209:\n        /* \"#utility.yul\":5386:5392   */\n      dup2\n        /* \"#utility.yul\":5380:5393   */\n      mload\n        /* \"#utility.yul\":5411:5500   */\n      tag_211\n        /* \"#utility.yul\":5496:5499   */\n      dup5\n        /* \"#utility.yul\":5488:5494   */\n      dup3\n        /* \"#utility.yul\":5481:5485   */\n      0x20\n        /* \"#utility.yul\":5473:5479   */\n      dup7\n        /* \"#utility.yul\":5469:5486   */\n      add\n        /* \"#utility.yul\":5411:5500   */\n      tag_133\n      jump\t// in\n    tag_211:\n        /* \"#utility.yul\":5402:5500   */\n      swap2\n      pop\n        /* \"#utility.yul\":5225:5506   */\n      pop\n        /* \"#utility.yul\":5153:5506   */\n      swap3\n      swap2\n      pop\n      pop\n      jump\t// out\n        /* \"#utility.yul\":5512:6034   */\n    tag_45:\n        /* \"#utility.yul\":5591:5597   */\n      0x00\n        /* \"#utility.yul\":5640:5642   */\n      0x20\n        /* \"#utility.yul\":5628:5637   */\n      dup3\n        /* \"#utility.yul\":5619:5626   */\n      dup5\n        /* \"#utility.yul\":5615:5638   */\n      sub\n        /* \"#utility.yul\":5611:5643   */\n      slt\n        /* \"#utility.yul\":5608:5727   */\n      iszero\n      tag_213\n      jumpi\n        /* \"#utility.yul\":5646:5725   */\n      tag_214\n      tag_126\n      jump\t// in\n    tag_214:\n        /* \"#utility.yul\":5608:5727   */\n    tag_213:\n        /* \"#utility.yul\":5787:5788   */\n      0x00\n        /* \"#utility.yul\":5776:5785   */\n      dup3\n        /* \"#utility.yul\":5772:5789   */\n      add\n        /* \"#utility.yul\":5766:5790   */\n      mload\n        /* \"#utility.yul\":5817:5835   */\n      0xffffffffffffffff\n        /* \"#utility.yul\":5809:5815   */\n      dup2\n        /* \"#utility.yul\":5806:5836   */\n      gt\n        /* \"#utility.yul\":5803:5920   */\n      iszero\n      tag_215\n      jumpi\n        /* \"#utility.yul\":5839:5918   */\n      tag_216\n      tag_127\n      jump\t// in\n    tag_216:\n        /* \"#utility.yul\":5803:5920   */\n    tag_215:\n        /* \"#utility.yul\":5944:6017   */\n      tag_217\n        /* \"#utility.yul\":6009:6016   */\n      dup5\n        /* \"#utility.yul\":6000:6006   */\n      dup3\n        /* \"#utility.yul\":5989:5998   */\n      dup6\n        /* \"#utility.yul\":5985:6007   */\n      add\n        /* \"#utility.yul\":5944:6017   */\n      tag_134\n      jump\t// in\n    tag_217:\n        /* \"#utility.yul\":5934:6017   */\n      swap2\n      pop\n        /* \"#utility.yul\":5737:6027   */\n      pop\n        /* \"#utility.yul\":5512:6034   */\n      swap3\n      swap2\n      pop\n      pop\n      jump\t// out\n        /* \"#utility.yul\":6040:6234   */\n    tag_47:\n        /* \"#utility.yul\":6080:6084   */\n      0x00\n        /* \"#utility.yul\":6100:6120   */\n      tag_219\n        /* \"#utility.yul\":6118:6119   */\n      dup3\n        /* \"#utility.yul\":6100:6120   */\n      tag_119\n      jump\t// in\n    tag_219:\n        /* \"#utility.yul\":6095:6120   */\n      swap2\n      pop\n        /* \"#utility.yul\":6134:6154   */\n      tag_220\n        /* \"#utility.yul\":6152:6153   */\n      dup4\n        /* \"#utility.yul\":6134:6154   */\n      tag_119\n      jump\t// in\n    tag_220:\n        /* \"#utility.yul\":6129:6154   */\n      swap3\n      pop\n        /* \"#utility.yul\":6178:6179   */\n      dup3\n        /* \"#utility.yul\":6175:6176   */\n      dup3\n        /* \"#utility.yul\":6171:6180   */\n      sub\n        /* \"#utility.yul\":6163:6180   */\n      swap1\n      pop\n        /* \"#utility.yul\":6202:6203   */\n      dup2\n        /* \"#utility.yul\":6196:6200   */\n      dup2\n        /* \"#utility.yul\":6193:6204   */\n      gt\n        /* \"#utility.yul\":6190:6227   */\n      iszero\n      tag_221\n      jumpi\n        /* \"#utility.yul\":6207:6225   */\n      tag_222\n      tag_120\n      jump\t// in\n    tag_222:\n        /* \"#utility.yul\":6190:6227   */\n    tag_221:\n        /* \"#utility.yul\":6040:6234   */\n      swap3\n      swap2\n      pop\n      pop\n      jump\t// out\n        /* \"#utility.yul\":6240:6420   */\n    tag_135:\n        /* \"#utility.yul\":6288:6365   */\n      0x4e487b7100000000000000000000000000000000000000000000000000000000\n        /* \"#utility.yul\":6285:6286   */\n      0x00\n        /* \"#utility.yul\":6278:6366   */\n      mstore\n        /* \"#utility.yul\":6385:6389   */\n      0x12\n        /* \"#utility.yul\":6382:6383   */\n      0x04\n        /* \"#utility.yul\":6375:6390   */\n      mstore\n        /* \"#utility.yul\":6409:6413   */\n      0x24\n        /* \"#utility.yul\":6406:6407   */\n      0x00\n        /* \"#utility.yul\":6399:6414   */\n      revert\n        /* \"#utility.yul\":6426:6611   */\n    tag_83:\n        /* \"#utility.yul\":6466:6467   */\n      0x00\n        /* \"#utility.yul\":6483:6503   */\n      tag_225\n        /* \"#utility.yul\":6501:6502   */\n      dup3\n        /* \"#utility.yul\":6483:6503   */\n      tag_119\n      jump\t// in\n    tag_225:\n        /* \"#utility.yul\":6478:6503   */\n      swap2\n      pop\n        /* \"#utility.yul\":6517:6537   */\n      tag_226\n        /* \"#utility.yul\":6535:6536   */\n      dup4\n        /* \"#utility.yul\":6517:6537   */\n      tag_119\n      jump\t// in\n    tag_226:\n        /* \"#utility.yul\":6512:6537   */\n      swap3\n      pop\n        /* \"#utility.yul\":6556:6557   */\n      dup3\n        /* \"#utility.yul\":6546:6581   */\n      tag_227\n      jumpi\n        /* \"#utility.yul\":6561:6579   */\n      tag_228\n      tag_135\n      jump\t// in\n    tag_228:\n        /* \"#utility.yul\":6546:6581   */\n    tag_227:\n        /* \"#utility.yul\":6603:6604   */\n      dup3\n        /* \"#utility.yul\":6600:6601   */\n      dup3\n        /* \"#utility.yul\":6596:6605   */\n      div\n        /* \"#utility.yul\":6591:6605   */\n      swap1\n      pop\n        /* \"#utility.yul\":6426:6611   */\n      swap3\n      swap2\n      pop\n      pop\n      jump\t// out\n        /* \"#utility.yul\":6617:6793   */\n    tag_85:\n        /* \"#utility.yul\":6649:6650   */\n      0x00\n        /* \"#utility.yul\":6666:6686   */\n      tag_230\n        /* \"#utility.yul\":6684:6685   */\n      dup3\n        /* \"#utility.yul\":6666:6686   */\n      tag_119\n      jump\t// in\n    tag_230:\n        /* \"#utility.yul\":6661:6686   */\n      swap2\n      pop\n        /* \"#utility.yul\":6700:6720   */\n      tag_231\n        /* \"#utility.yul\":6718:6719   */\n      dup4\n        /* \"#utility.yul\":6700:6720   */\n      tag_119\n      jump\t// in\n    tag_231:\n        /* \"#utility.yul\":6695:6720   */\n      swap3\n      pop\n        /* \"#utility.yul\":6739:6740   */\n      dup3\n        /* \"#utility.yul\":6729:6764   */\n      tag_232\n      jumpi\n        /* \"#utility.yul\":6744:6762   */\n      tag_233\n      tag_135\n      jump\t// in\n    tag_233:\n        /* \"#utility.yul\":6729:6764   */\n    tag_232:\n        /* \"#utility.yul\":6785:6786   */\n      dup3\n        /* \"#utility.yul\":6782:6783   */\n      dup3\n        /* \"#utility.yul\":6778:6787   */\n      mod\n        /* \"#utility.yul\":6773:6787   */\n      swap1\n      pop\n        /* \"#utility.yul\":6617:6793   */\n      swap3\n      swap2\n      pop\n      pop\n      jump\t// out\n        /* \"#utility.yul\":6799:6966   */\n    tag_94:\n        /* \"#utility.yul\":6836:6839   */\n      0x00\n        /* \"#utility.yul\":6859:6881   */\n      tag_235\n        /* \"#utility.yul\":6875:6880   */\n      dup3\n        /* \"#utility.yul\":6859:6881   */\n      tag_121\n      jump\t// in\n    tag_235:\n        /* \"#utility.yul\":6850:6881   */\n      swap2\n      pop\n        /* \"#utility.yul\":6903:6907   */\n      0x00\n        /* \"#utility.yul\":6896:6901   */\n      dup3\n        /* \"#utility.yul\":6893:6908   */\n      sub\n        /* \"#utility.yul\":6890:6931   */\n      tag_236\n      jumpi\n        /* \"#utility.yul\":6911:6929   */\n      tag_237\n      tag_120\n      jump\t// in\n    tag_237:\n        /* \"#utility.yul\":6890:6931   */\n    tag_236:\n        /* \"#utility.yul\":6958:6959   */\n      0x01\n        /* \"#utility.yul\":6951:6956   */\n      dup3\n        /* \"#utility.yul\":6947:6960   */\n      sub\n        /* \"#utility.yul\":6940:6960   */\n      swap1\n      pop\n        /* \"#utility.yul\":6799:6966   */\n      swap2\n      swap1\n      pop\n      jump\t// out\n        /* \"#utility.yul\":6972:7070   */\n    tag_136:\n        /* \"#utility.yul\":7023:7029   */\n      0x00\n        /* \"#utility.yul\":7057:7062   */\n      dup2\n        /* \"#utility.yul\":7051:7063   */\n      mload\n        /* \"#utility.yul\":7041:7063   */\n      swap1\n      pop\n        /* \"#utility.yul\":6972:7070   */\n      swap2\n      swap1\n      pop\n      jump\t// out\n        /* \"#utility.yul\":7076:7223   */\n    tag_137:\n        /* \"#utility.yul\":7177:7188   */\n      0x00\n        /* \"#utility.yul\":7214:7217   */\n      dup2\n        /* \"#utility.yul\":7199:7217   */\n      swap1\n      pop\n        /* \"#utility.yul\":7076:7223   */\n      swap3\n      swap2\n      pop\n      pop\n      jump\t// out\n        /* \"#utility.yul\":7229:7615   */\n    tag_138:\n        /* \"#utility.yul\":7333:7336   */\n      0x00\n        /* \"#utility.yul\":7361:7399   */\n      tag_241\n        /* \"#utility.yul\":7393:7398   */\n      dup3\n        /* \"#utility.yul\":7361:7399   */\n      tag_136\n      jump\t// in\n    tag_241:\n        /* \"#utility.yul\":7415:7503   */\n      tag_242\n        /* \"#utility.yul\":7496:7502   */\n      dup2\n        /* \"#utility.yul\":7491:7494   */\n      dup6\n        /* \"#utility.yul\":7415:7503   */\n      tag_137\n      jump\t// in\n    tag_242:\n        /* \"#utility.yul\":7408:7503   */\n      swap4\n      pop\n        /* \"#utility.yul\":7512:7577   */\n      tag_243\n        /* \"#utility.yul\":7570:7576   */\n      dup2\n        /* \"#utility.yul\":7565:7568   */\n      dup6\n        /* \"#utility.yul\":7558:7562   */\n      0x20\n        /* \"#utility.yul\":7551:7556   */\n      dup7\n        /* \"#utility.yul\":7547:7563   */\n      add\n        /* \"#utility.yul\":7512:7577   */\n      tag_116\n      jump\t// in\n    tag_243:\n        /* \"#utility.yul\":7602:7608   */\n      dup1\n        /* \"#utility.yul\":7597:7600   */\n      dup5\n        /* \"#utility.yul\":7593:7609   */\n      add\n        /* \"#utility.yul\":7586:7609   */\n      swap2\n      pop\n        /* \"#utility.yul\":7337:7615   */\n      pop\n        /* \"#utility.yul\":7229:7615   */\n      swap3\n      swap2\n      pop\n      pop\n      jump\t// out\n        /* \"#utility.yul\":7621:7769   */\n    tag_139:\n        /* \"#utility.yul\":7723:7734   */\n      0x00\n        /* \"#utility.yul\":7760:7763   */\n      dup2\n        /* \"#utility.yul\":7745:7763   */\n      swap1\n      pop\n        /* \"#utility.yul\":7621:7769   */\n      swap3\n      swap2\n      pop\n      pop\n      jump\t// out\n        /* \"#utility.yul\":7775:7926   */\n    tag_140:\n        /* \"#utility.yul\":7915:7918   */\n      0x2e00000000000000000000000000000000000000000000000000000000000000\n        /* \"#utility.yul\":7911:7912   */\n      0x00\n        /* \"#utility.yul\":7903:7909   */\n      dup3\n        /* \"#utility.yul\":7899:7913   */\n      add\n        /* \"#utility.yul\":7892:7919   */\n      mstore\n        /* \"#utility.yul\":7775:7926   */\n      pop\n      jump\t// out\n        /* \"#utility.yul\":7932:8332   */\n    tag_141:\n        /* \"#utility.yul\":8092:8095   */\n      0x00\n        /* \"#utility.yul\":8113:8197   */\n      tag_247\n        /* \"#utility.yul\":8195:8196   */\n      0x01\n        /* \"#utility.yul\":8190:8193   */\n      dup4\n        /* \"#utility.yul\":8113:8197   */\n      tag_139\n      jump\t// in\n    tag_247:\n        /* \"#utility.yul\":8106:8197   */\n      swap2\n      pop\n        /* \"#utility.yul\":8206:8299   */\n      tag_248\n        /* \"#utility.yul\":8295:8298   */\n      dup3\n        /* \"#utility.yul\":8206:8299   */\n      tag_140\n      jump\t// in\n    tag_248:\n        /* \"#utility.yul\":8324:8325   */\n      0x01\n        /* \"#utility.yul\":8319:8322   */\n      dup3\n        /* \"#utility.yul\":8315:8326   */\n      add\n        /* \"#utility.yul\":8308:8326   */\n      swap1\n      pop\n        /* \"#utility.yul\":7932:8332   */\n      swap2\n      swap1\n      pop\n      jump\t// out\n        /* \"#utility.yul\":8338:9031   */\n    tag_99:\n        /* \"#utility.yul\":8615:8618   */\n      0x00\n        /* \"#utility.yul\":8637:8730   */\n      tag_250\n        /* \"#utility.yul\":8726:8729   */\n      dup3\n        /* \"#utility.yul\":8717:8723   */\n      dup6\n        /* \"#utility.yul\":8637:8730   */\n      tag_138\n      jump\t// in\n    tag_250:\n        /* \"#utility.yul\":8630:8730   */\n      swap2\n      pop\n        /* \"#utility.yul\":8747:8895   */\n      tag_251\n        /* \"#utility.yul\":8891:8894   */\n      dup3\n        /* \"#utility.yul\":8747:8895   */\n      tag_141\n      jump\t// in\n    tag_251:\n        /* \"#utility.yul\":8740:8895   */\n      swap2\n      pop\n        /* \"#utility.yul\":8912:9005   */\n      tag_252\n        /* \"#utility.yul\":9001:9004   */\n      dup3\n        /* \"#utility.yul\":8992:8998   */\n      dup5\n        /* \"#utility.yul\":8912:9005   */\n      tag_138\n      jump\t// in\n    tag_252:\n        /* \"#utility.yul\":8905:9005   */\n      swap2\n      pop\n        /* \"#utility.yul\":9022:9025   */\n      dup2\n        /* \"#utility.yul\":9015:9025   */\n      swap1\n      pop\n        /* \"#utility.yul\":8338:9031   */\n      swap4\n      swap3\n      pop\n      pop\n      pop\n      jump\t// out\n        /* \"#utility.yul\":9037:9186   */\n    tag_142:\n        /* \"#utility.yul\":9073:9080   */\n      0x00\n        /* \"#utility.yul\":9113:9179   */\n      0xff00000000000000000000000000000000000000000000000000000000000000\n        /* \"#utility.yul\":9106:9111   */\n      dup3\n        /* \"#utility.yul\":9102:9180   */\n      and\n        /* \"#utility.yul\":9091:9180   */\n      swap1\n      pop\n        /* \"#utility.yul\":9037:9186   */\n      swap2\n      swap1\n      pop\n      jump\t// out\n        /* \"#utility.yul\":9192:9270   */\n    tag_143:\n        /* \"#utility.yul\":9230:9237   */\n      0x00\n        /* \"#utility.yul\":9259:9264   */\n      dup2\n        /* \"#utility.yul\":9248:9264   */\n      swap1\n      pop\n        /* \"#utility.yul\":9192:9270   */\n      swap2\n      swap1\n      pop\n      jump\t// out\n        /* \"#utility.yul\":9276:9429   */\n    tag_144:\n        /* \"#utility.yul\":9379:9422   */\n      tag_256\n        /* \"#utility.yul\":9398:9421   */\n      tag_257\n        /* \"#utility.yul\":9415:9420   */\n      dup3\n        /* \"#utility.yul\":9398:9421   */\n      tag_142\n      jump\t// in\n    tag_257:\n        /* \"#utility.yul\":9379:9422   */\n      tag_143\n      jump\t// in\n    tag_256:\n        /* \"#utility.yul\":9374:9377   */\n      dup3\n        /* \"#utility.yul\":9367:9423   */\n      mstore\n        /* \"#utility.yul\":9276:9429   */\n      pop\n      pop\n      jump\t// out\n        /* \"#utility.yul\":9435:9842   */\n    tag_109:\n        /* \"#utility.yul\":9591:9594   */\n      0x00\n        /* \"#utility.yul\":9606:9679   */\n      tag_259\n        /* \"#utility.yul\":9675:9678   */\n      dup3\n        /* \"#utility.yul\":9666:9672   */\n      dup6\n        /* \"#utility.yul\":9606:9679   */\n      tag_144\n      jump\t// in\n    tag_259:\n        /* \"#utility.yul\":9704:9705   */\n      0x01\n        /* \"#utility.yul\":9699:9702   */\n      dup3\n        /* \"#utility.yul\":9695:9706   */\n      add\n        /* \"#utility.yul\":9688:9706   */\n      swap2\n      pop\n        /* \"#utility.yul\":9723:9816   */\n      tag_260\n        /* \"#utility.yul\":9812:9815   */\n      dup3\n        /* \"#utility.yul\":9803:9809   */\n      dup5\n        /* \"#utility.yul\":9723:9816   */\n      tag_138\n      jump\t// in\n    tag_260:\n        /* \"#utility.yul\":9716:9816   */\n      swap2\n      pop\n        /* \"#utility.yul\":9833:9836   */\n      dup2\n        /* \"#utility.yul\":9826:9836   */\n      swap1\n      pop\n        /* \"#utility.yul\":9435:9842   */\n      swap4\n      swap3\n      pop\n      pop\n      pop\n      jump\t// out\n\n    auxdata: 0xa2646970667358221220b118380845ad3f6e42f30c1a9bb036c676ea9ecc43ff627288654849aab4688d64736f6c634300081a0033\n}\n",
				"bytecode": {
					"linkReferences": {},
					"object": "60a060405234801561000f575f80fd5b50604051610ef6380380610ef6833981810160405281019061003191906100c9565b8073ffffffffffffffffffffffffffffffffffffffff1660808173ffffffffffffffffffffffffffffffffffffffff1681525050506100f4565b5f80fd5b5f73ffffffffffffffffffffffffffffffffffffffff82169050919050565b5f6100988261006f565b9050919050565b6100a88161008e565b81146100b2575f80fd5b50565b5f815190506100c38161009f565b92915050565b5f602082840312156100de576100dd61006b565b5b5f6100eb848285016100b5565b91505092915050565b608051610dea61010c5f395f6102640152610dea5ff3fe608060405234801561000f575f80fd5b5060043610610029575f3560e01c8063489187e81461002d575b5f80fd5b61003561004b565b6040516100429190610883565b60405180910390f35b60605f6010604061005c91906108d9565b67ffffffffffffffff8111156100755761007461091a565b5b6040519080825280602002602001820160405280156100a857816020015b60608152602001906001900390816100935790505b5090505f805f5b60408110156105a2575f6100cf6115f9836100ca91906108d9565b610682565b90506040518060400160405280601581526020017f3c67207472616e73666f726d3d22726f7461746528000000000000000000000081525085858061011390610947565b9650815181106101265761012561098e565b5b60200260200101819052506040518060400160405280601581526020017f3c67207472616e73666f726d3d22726f74617465280000000000000000000000815250518361017391906109bb565b92508085858061018290610947565b9650815181106101955761019461098e565b5b60200260200101819052508051836101ad91906109bb565b92506040518060400160405280600b81526020017f203531322035313229223e0000000000000000000000000000000000000000008152508585806101f190610947565b9650815181106102045761020361098e565b5b60200260200101819052506040518060400160405280600b81526020017f203531322035313229223e000000000000000000000000000000000000000000815250518361025191906109bb565b92505f5b60048160ff1610156104f1575f7f000000000000000000000000000000000000000000000000000000000000000073ffffffffffffffffffffffffffffffffffffffff16633c8c014d836040518263ffffffff1660e01b81526004016102bb9190610a33565b5f60405180830381865afa1580156102d5573d5f803e3d5ffd5b505050506040513d5f823e3d601f19601f820116820180604052508101906102fd9190610b4e565b90505f8060018460ff16600488603f6103169190610b95565b61032091906108d9565b61032a91906109bb565b7f478affc447283c7cd1bb68a514243f4c139860bd048217a4b7e7eb7a51855eff901c161490505f81610392576040518060400160405280600781526020017f23666666666666000000000000000000000000000000000000000000000000008152506103c9565b6040518060400160405280600781526020017f23303030303030000000000000000000000000000000000000000000000000008152505b9050828989806103d890610947565b9a50815181106103eb576103ea61098e565b5b602002602001018190525082518761040391906109bb565b96508089898061041290610947565b9a50815181106104255761042461098e565b5b602002602001018190525060078761043d91906109bb565b96506040518060400160405280600381526020017f222f3e000000000000000000000000000000000000000000000000000000000081525089898061048190610947565b9a50815181106104945761049361098e565b5b60200260200101819052506040518060400160405280600381526020017f222f3e000000000000000000000000000000000000000000000000000000000081525051876104e191906109bb565b9650505050806001019050610255565b506040518060400160405280600481526020017f3c2f673e0000000000000000000000000000000000000000000000000000000081525085858061053490610947565b9650815181106105475761054661098e565b5b60200260200101819052506040518060400160405280600481526020017f3c2f673e00000000000000000000000000000000000000000000000000000000815250518361059491906109bb565b9250508060010190506100af565b505f8167ffffffffffffffff8111156105be576105bd61091a565b5b6040519080825280601f01601f1916602001820160405280156105f05781602001600182028036833780820191505090505b5090505f805b8551811015610676575f8682815181106106135761061261098e565b5b602002602001015190505f815190505f810361063057505061066b565b836020860101602083015f5b8381101561065757808201518184015260208101905061063c565b505050808461066691906109bb565b935050505b8060010190506105f6565b50819550505050505090565b60605f6103e8836106939190610bf5565b90505f6103e8846106a49190610c25565b90505f81036106bf576106b682610736565b92505050610731565b5f600390505b5f600a836106d39190610c25565b036106f857600a826106e59190610bf5565b9150806106f190610c55565b90506106c5565b61070183610736565b61070b8383610749565b60405160200161071c929190610d14565b60405160208183030381529060405293505050505b919050565b6060610742825f610749565b9050919050565b60605b5f8260ff16118061075c57505f83115b156107cc57600a8361076e9190610c25565b603061077a91906109bb565b60f81b8160405160200161078f929190610d8d565b6040516020818303038152906040529050600a836107ad9190610bf5565b92505f8260ff1611156107c757816107c490610c55565b91505b61074c565b5f81510361080d576040518060400160405280600181526020017f300000000000000000000000000000000000000000000000000000000000000081525090505b92915050565b5f81519050919050565b5f82825260208201905092915050565b8281835e5f83830152505050565b5f601f19601f8301169050919050565b5f61085582610813565b61085f818561081d565b935061086f81856020860161082d565b6108788161083b565b840191505092915050565b5f6020820190508181035f83015261089b818461084b565b905092915050565b5f819050919050565b7f4e487b71000000000000000000000000000000000000000000000000000000005f52601160045260245ffd5b5f6108e3826108a3565b91506108ee836108a3565b92508282026108fc816108a3565b91508282048414831517610913576109126108ac565b5b5092915050565b7f4e487b71000000000000000000000000000000000000000000000000000000005f52604160045260245ffd5b5f610951826108a3565b91507fffffffffffffffffffffffffffffffffffffffffffffffffffffffffffffffff8203610983576109826108ac565b5b600182019050919050565b7f4e487b71000000000000000000000000000000000000000000000000000000005f52603260045260245ffd5b5f6109c5826108a3565b91506109d0836108a3565b92508282019050808211156109e8576109e76108ac565b5b92915050565b5f60ff82169050919050565b5f819050919050565b5f610a1d610a18610a13846109ee565b6109fa565b6108a3565b9050919050565b610a2d81610a03565b82525050565b5f602082019050610a465f830184610a24565b92915050565b5f604051905090565b5f80fd5b5f80fd5b5f80fd5b5f80fd5b610a6e8261083b565b810181811067ffffffffffffffff82111715610a8d57610a8c61091a565b5b80604052505050565b5f610a9f610a4c565b9050610aab8282610a65565b919050565b5f67ffffffffffffffff821115610aca57610ac961091a565b5b610ad38261083b565b9050602081019050919050565b5f610af2610aed84610ab0565b610a96565b905082815260208101848484011115610b0e57610b0d610a61565b5b610b1984828561082d565b509392505050565b5f82601f830112610b3557610b34610a5d565b5b8151610b45848260208601610ae0565b91505092915050565b5f60208284031215610b6357610b62610a55565b5b5f82015167ffffffffffffffff811115610b8057610b7f610a59565b5b610b8c84828501610b21565b91505092915050565b5f610b9f826108a3565b9150610baa836108a3565b9250828203905081811115610bc257610bc16108ac565b5b92915050565b7f4e487b71000000000000000000000000000000000000000000000000000000005f52601260045260245ffd5b5f610bff826108a3565b9150610c0a836108a3565b925082610c1a57610c19610bc8565b5b828204905092915050565b5f610c2f826108a3565b9150610c3a836108a3565b925082610c4a57610c49610bc8565b5b828206905092915050565b5f610c5f826109ee565b91505f8203610c7157610c706108ac565b5b600182039050919050565b5f81519050919050565b5f81905092915050565b5f610c9a82610c7c565b610ca48185610c86565b9350610cb481856020860161082d565b80840191505092915050565b5f81905092915050565b7f2e000000000000000000000000000000000000000000000000000000000000005f82015250565b5f610cfe600183610cc0565b9150610d0982610cca565b600182019050919050565b5f610d1f8285610c90565b9150610d2a82610cf2565b9150610d368284610c90565b91508190509392505050565b5f7fff0000000000000000000000000000000000000000000000000000000000000082169050919050565b5f819050919050565b610d87610d8282610d42565b610d6d565b82525050565b5f610d988285610d76565b600182019150610da88284610c90565b9150819050939250505056fea2646970667358221220b118380845ad3f6e42f30c1a9bb036c676ea9ecc43ff627288654849aab4688d64736f6c634300081a0033",
					"opcodes": "PUSH1 0xA0 PUSH1 0x40 MSTORE CALLVALUE DUP1 ISZERO PUSH2 0xF JUMPI PUSH0 DUP1 REVERT JUMPDEST POP PUSH1 0x40 MLOAD PUSH2 0xEF6 CODESIZE SUB DUP1 PUSH2 0xEF6 DUP4 CODECOPY DUP2 DUP2 ADD PUSH1 0x40 MSTORE DUP2 ADD SWAP1 PUSH2 0x31 SWAP2 SWAP1 PUSH2 0xC9 JUMP JUMPDEST DUP1 PUSH20 0xFFFFFFFFFFFFFFFFFFFFFFFFFFFFFFFFFFFFFFFF AND PUSH1 0x80 DUP2 PUSH20 0xFFFFFFFFFFFFFFFFFFFFFFFFFFFFFFFFFFFFFFFF AND DUP2 MSTORE POP POP POP PUSH2 0xF4 JUMP JUMPDEST PUSH0 DUP1 REVERT JUMPDEST PUSH0 PUSH20 0xFFFFFFFFFFFFFFFFFFFFFFFFFFFFFFFFFFFFFFFF DUP3 AND SWAP1 POP SWAP2 SWAP1 POP JUMP JUMPDEST PUSH0 PUSH2 0x98 DUP3 PUSH2 0x6F JUMP JUMPDEST SWAP1 POP SWAP2 SWAP1 POP JUMP JUMPDEST PUSH2 0xA8 DUP2 PUSH2 0x8E JUMP JUMPDEST DUP2 EQ PUSH2 0xB2 JUMPI PUSH0 DUP1 REVERT JUMPDEST POP JUMP JUMPDEST PUSH0 DUP2 MLOAD SWAP1 POP PUSH2 0xC3 DUP2 PUSH2 0x9F JUMP JUMPDEST SWAP3 SWAP2 POP POP JUMP JUMPDEST PUSH0 PUSH1 0x20 DUP3 DUP5 SUB SLT ISZERO PUSH2 0xDE JUMPI PUSH2 0xDD PUSH2 0x6B JUMP JUMPDEST JUMPDEST PUSH0 PUSH2 0xEB DUP5 DUP3 DUP6 ADD PUSH2 0xB5 JUMP JUMPDEST SWAP2 POP POP SWAP3 SWAP2 POP POP JUMP JUMPDEST PUSH1 0x80 MLOAD PUSH2 0xDEA PUSH2 0x10C PUSH0 CODECOPY PUSH0 PUSH2 0x264 ADD MSTORE PUSH2 0xDEA PUSH0 RETURN INVALID PUSH1 0x80 PUSH1 0x40 MSTORE CALLVALUE DUP1 ISZERO PUSH2 0xF JUMPI PUSH0 DUP1 REVERT JUMPDEST POP PUSH1 0x4 CALLDATASIZE LT PUSH2 0x29 JUMPI PUSH0 CALLDATALOAD PUSH1 0xE0 SHR DUP1 PUSH4 0x489187E8 EQ PUSH2 0x2D JUMPI JUMPDEST PUSH0 DUP1 REVERT JUMPDEST PUSH2 0x35 PUSH2 0x4B JUMP JUMPDEST PUSH1 0x40 MLOAD PUSH2 0x42 SWAP2 SWAP1 PUSH2 0x883 JUMP JUMPDEST PUSH1 0x40 MLOAD DUP1 SWAP2 SUB SWAP1 RETURN JUMPDEST PUSH1 0x60 PUSH0 PUSH1 0x10 PUSH1 0x40 PUSH2 0x5C SWAP2 SWAP1 PUSH2 0x8D9 JUMP JUMPDEST PUSH8 0xFFFFFFFFFFFFFFFF DUP2 GT ISZERO PUSH2 0x75 JUMPI PUSH2 0x74 PUSH2 0x91A JUMP JUMPDEST JUMPDEST PUSH1 0x40 MLOAD SWAP1 DUP1 DUP3 MSTORE DUP1 PUSH1 0x20 MUL PUSH1 0x20 ADD DUP3 ADD PUSH1 0x40 MSTORE DUP1 ISZERO PUSH2 0xA8 JUMPI DUP2 PUSH1 0x20 ADD JUMPDEST PUSH1 0x60 DUP2 MSTORE PUSH1 0x20 ADD SWAP1 PUSH1 0x1 SWAP1 SUB SWAP1 DUP2 PUSH2 0x93 JUMPI SWAP1 POP JUMPDEST POP SWAP1 POP PUSH0 DUP1 PUSH0 JUMPDEST PUSH1 0x40 DUP2 LT ISZERO PUSH2 0x5A2 JUMPI PUSH0 PUSH2 0xCF PUSH2 0x15F9 DUP4 PUSH2 0xCA SWAP2 SWAP1 PUSH2 0x8D9 JUMP JUMPDEST PUSH2 0x682 JUMP JUMPDEST SWAP1 POP PUSH1 0x40 MLOAD DUP1 PUSH1 0x40 ADD PUSH1 0x40 MSTORE DUP1 PUSH1 0x15 DUP2 MSTORE PUSH1 0x20 ADD PUSH32 0x3C67207472616E73666F726D3D22726F74617465280000000000000000000000 DUP2 MSTORE POP DUP6 DUP6 DUP1 PUSH2 0x113 SWAP1 PUSH2 0x947 JUMP JUMPDEST SWAP7 POP DUP2 MLOAD DUP2 LT PUSH2 0x126 JUMPI PUSH2 0x125 PUSH2 0x98E JUMP JUMPDEST JUMPDEST PUSH1 0x20 MUL PUSH1 0x20 ADD ADD DUP2 SWAP1 MSTORE POP PUSH1 0x40 MLOAD DUP1 PUSH1 0x40 ADD PUSH1 0x40 MSTORE DUP1 PUSH1 0x15 DUP2 MSTORE PUSH1 0x20 ADD PUSH32 0x3C67207472616E73666F726D3D22726F74617465280000000000000000000000 DUP2 MSTORE POP MLOAD DUP4 PUSH2 0x173 SWAP2 SWAP1 PUSH2 0x9BB JUMP JUMPDEST SWAP3 POP DUP1 DUP6 DUP6 DUP1 PUSH2 0x182 SWAP1 PUSH2 0x947 JUMP JUMPDEST SWAP7 POP DUP2 MLOAD DUP2 LT PUSH2 0x195 JUMPI PUSH2 0x194 PUSH2 0x98E JUMP JUMPDEST JUMPDEST PUSH1 0x20 MUL PUSH1 0x20 ADD ADD DUP2 SWAP1 MSTORE POP DUP1 MLOAD DUP4 PUSH2 0x1AD SWAP2 SWAP1 PUSH2 0x9BB JUMP JUMPDEST SWAP3 POP PUSH1 0x40 MLOAD DUP1 PUSH1 0x40 ADD PUSH1 0x40 MSTORE DUP1 PUSH1 0xB DUP2 MSTORE PUSH1 0x20 ADD PUSH32 0x203531322035313229223E000000000000000000000000000000000000000000 DUP2 MSTORE POP DUP6 DUP6 DUP1 PUSH2 0x1F1 SWAP1 PUSH2 0x947 JUMP JUMPDEST SWAP7 POP DUP2 MLOAD DUP2 LT PUSH2 0x204 JUMPI PUSH2 0x203 PUSH2 0x98E JUMP JUMPDEST JUMPDEST PUSH1 0x20 MUL PUSH1 0x20 ADD ADD DUP2 SWAP1 MSTORE POP PUSH1 0x40 MLOAD DUP1 PUSH1 0x40 ADD PUSH1 0x40 MSTORE DUP1 PUSH1 0xB DUP2 MSTORE PUSH1 0x20 ADD PUSH32 0x203531322035313229223E000000000000000000000000000000000000000000 DUP2 MSTORE POP MLOAD DUP4 PUSH2 0x251 SWAP2 SWAP1 PUSH2 0x9BB JUMP JUMPDEST SWAP3 POP PUSH0 JUMPDEST PUSH1 0x4 DUP2 PUSH1 0xFF AND LT ISZERO PUSH2 0x4F1 JUMPI PUSH0 PUSH32 0x0 PUSH20 0xFFFFFFFFFFFFFFFFFFFFFFFFFFFFFFFFFFFFFFFF AND PUSH4 0x3C8C014D DUP4 PUSH1 0x40 MLOAD DUP3 PUSH4 0xFFFFFFFF AND PUSH1 0xE0 SHL DUP2 MSTORE PUSH1 0x4 ADD PUSH2 0x2BB SWAP2 SWAP1 PUSH2 0xA33 JUMP JUMPDEST PUSH0 PUSH1 0x40 MLOAD DUP1 DUP4 SUB DUP2 DUP7 GAS STATICCALL ISZERO DUP1 ISZERO PUSH2 0x2D5 JUMPI RETURNDATASIZE PUSH0 DUP1 RETURNDATACOPY RETURNDATASIZE PUSH0 REVERT JUMPDEST POP POP POP POP PUSH1 0x40 MLOAD RETURNDATASIZE PUSH0 DUP3 RETURNDATACOPY RETURNDATASIZE PUSH1 0x1F NOT PUSH1 0x1F DUP3 ADD AND DUP3 ADD DUP1 PUSH1 0x40 MSTORE POP DUP2 ADD SWAP1 PUSH2 0x2FD SWAP2 SWAP1 PUSH2 0xB4E JUMP JUMPDEST SWAP1 POP PUSH0 DUP1 PUSH1 0x1 DUP5 PUSH1 0xFF AND PUSH1 0x4 DUP9 PUSH1 0x3F PUSH2 0x316 SWAP2 SWAP1 PUSH2 0xB95 JUMP JUMPDEST PUSH2 0x320 SWAP2 SWAP1 PUSH2 0x8D9 JUMP JUMPDEST PUSH2 0x32A SWAP2 SWAP1 PUSH2 0x9BB JUMP JUMPDEST PUSH32 0x478AFFC447283C7CD1BB68A514243F4C139860BD048217A4B7E7EB7A51855EFF SWAP1 SHR AND EQ SWAP1 POP PUSH0 DUP2 PUSH2 0x392 JUMPI PUSH1 0x40 MLOAD DUP1 PUSH1 0x40 ADD PUSH1 0x40 MSTORE DUP1 PUSH1 0x7 DUP2 MSTORE PUSH1 0x20 ADD PUSH32 0x2366666666666600000000000000000000000000000000000000000000000000 DUP2 MSTORE POP PUSH2 0x3C9 JUMP JUMPDEST PUSH1 0x40 MLOAD DUP1 PUSH1 0x40 ADD PUSH1 0x40 MSTORE DUP1 PUSH1 0x7 DUP2 MSTORE PUSH1 0x20 ADD PUSH32 0x2330303030303000000000000000000000000000000000000000000000000000 DUP2 MSTORE POP JUMPDEST SWAP1 POP DUP3 DUP10 DUP10 DUP1 PUSH2 0x3D8 SWAP1 PUSH2 0x947 JUMP JUMPDEST SWAP11 POP DUP2 MLOAD DUP2 LT PUSH2 0x3EB JUMPI PUSH2 0x3EA PUSH2 0x98E JUMP JUMPDEST JUMPDEST PUSH1 0x20 MUL PUSH1 0x20 ADD ADD DUP2 SWAP1 MSTORE POP DUP3 MLOAD DUP8 PUSH2 0x403 SWAP2 SWAP1 PUSH2 0x9BB JUMP JUMPDEST SWAP7 POP DUP1 DUP10 DUP10 DUP1 PUSH2 0x412 SWAP1 PUSH2 0x947 JUMP JUMPDEST SWAP11 POP DUP2 MLOAD DUP2 LT PUSH2 0x425 JUMPI PUSH2 0x424 PUSH2 0x98E JUMP JUMPDEST JUMPDEST PUSH1 0x20 MUL PUSH1 0x20 ADD ADD DUP2 SWAP1 MSTORE POP PUSH1 0x7 DUP8 PUSH2 0x43D SWAP2 SWAP1 PUSH2 0x9BB JUMP JUMPDEST SWAP7 POP PUSH1 0x40 MLOAD DUP1 PUSH1 0x40 ADD PUSH1 0x40 MSTORE DUP1 PUSH1 0x3 DUP2 MSTORE PUSH1 0x20 ADD PUSH32 0x222F3E0000000000000000000000000000000000000000000000000000000000 DUP2 MSTORE POP DUP10 DUP10 DUP1 PUSH2 0x481 SWAP1 PUSH2 0x947 JUMP JUMPDEST SWAP11 POP DUP2 MLOAD DUP2 LT PUSH2 0x494 JUMPI PUSH2 0x493 PUSH2 0x98E JUMP JUMPDEST JUMPDEST PUSH1 0x20 MUL PUSH1 0x20 ADD ADD DUP2 SWAP1 MSTORE POP PUSH1 0x40 MLOAD DUP1 PUSH1 0x40 ADD PUSH1 0x40 MSTORE DUP1 PUSH1 0x3 DUP2 MSTORE PUSH1 0x20 ADD PUSH32 0x222F3E0000000000000000000000000000000000000000000000000000000000 DUP2 MSTORE POP MLOAD DUP8 PUSH2 0x4E1 SWAP2 SWAP1 PUSH2 0x9BB JUMP JUMPDEST SWAP7 POP POP POP POP DUP1 PUSH1 0x1 ADD SWAP1 POP PUSH2 0x255 JUMP JUMPDEST POP PUSH1 0x40 MLOAD DUP1 PUSH1 0x40 ADD PUSH1 0x40 MSTORE DUP1 PUSH1 0x4 DUP2 MSTORE PUSH1 0x20 ADD PUSH32 0x3C2F673E00000000000000000000000000000000000000000000000000000000 DUP2 MSTORE POP DUP6 DUP6 DUP1 PUSH2 0x534 SWAP1 PUSH2 0x947 JUMP JUMPDEST SWAP7 POP DUP2 MLOAD DUP2 LT PUSH2 0x547 JUMPI PUSH2 0x546 PUSH2 0x98E JUMP JUMPDEST JUMPDEST PUSH1 0x20 MUL PUSH1 0x20 ADD ADD DUP2 SWAP1 MSTORE POP PUSH1 0x40 MLOAD DUP1 PUSH1 0x40 ADD PUSH1 0x40 MSTORE DUP1 PUSH1 0x4 DUP2 MSTORE PUSH1 0x20 ADD PUSH32 0x3C2F673E00000000000000000000000000000000000000000000000000000000 DUP2 MSTORE POP MLOAD DUP4 PUSH2 0x594 SWAP2 SWAP1 PUSH2 0x9BB JUMP JUMPDEST SWAP3 POP POP DUP1 PUSH1 0x1 ADD SWAP1 POP PUSH2 0xAF JUMP JUMPDEST POP PUSH0 DUP2 PUSH8 0xFFFFFFFFFFFFFFFF DUP2 GT ISZERO PUSH2 0x5BE JUMPI PUSH2 0x5BD PUSH2 0x91A JUMP JUMPDEST JUMPDEST PUSH1 0x40 MLOAD SWAP1 DUP1 DUP3 MSTORE DUP1 PUSH1 0x1F ADD PUSH1 0x1F NOT AND PUSH1 0x20 ADD DUP3 ADD PUSH1 0x40 MSTORE DUP1 ISZERO PUSH2 0x5F0 JUMPI DUP2 PUSH1 0x20 ADD PUSH1 0x1 DUP3 MUL DUP1 CALLDATASIZE DUP4 CALLDATACOPY DUP1 DUP3 ADD SWAP2 POP POP SWAP1 POP JUMPDEST POP SWAP1 POP PUSH0 DUP1 JUMPDEST DUP6 MLOAD DUP2 LT ISZERO PUSH2 0x676 JUMPI PUSH0 DUP7 DUP3 DUP2 MLOAD DUP2 LT PUSH2 0x613 JUMPI PUSH2 0x612 PUSH2 0x98E JUMP JUMPDEST JUMPDEST PUSH1 0x20 MUL PUSH1 0x20 ADD ADD MLOAD SWAP1 POP PUSH0 DUP2 MLOAD SWAP1 POP PUSH0 DUP2 SUB PUSH2 0x630 JUMPI POP POP PUSH2 0x66B JUMP JUMPDEST DUP4 PUSH1 0x20 DUP7 ADD ADD PUSH1 0x20 DUP4 ADD PUSH0 JUMPDEST DUP4 DUP2 LT ISZERO PUSH2 0x657 JUMPI DUP1 DUP3 ADD MLOAD DUP2 DUP5 ADD MSTORE PUSH1 0x20 DUP2 ADD SWAP1 POP PUSH2 0x63C JUMP JUMPDEST POP POP POP DUP1 DUP5 PUSH2 0x666 SWAP2 SWAP1 PUSH2 0x9BB JUMP JUMPDEST SWAP4 POP POP POP JUMPDEST DUP1 PUSH1 0x1 ADD SWAP1 POP PUSH2 0x5F6 JUMP JUMPDEST POP DUP2 SWAP6 POP POP POP POP POP POP SWAP1 JUMP JUMPDEST PUSH1 0x60 PUSH0 PUSH2 0x3E8 DUP4 PUSH2 0x693 SWAP2 SWAP1 PUSH2 0xBF5 JUMP JUMPDEST SWAP1 POP PUSH0 PUSH2 0x3E8 DUP5 PUSH2 0x6A4 SWAP2 SWAP1 PUSH2 0xC25 JUMP JUMPDEST SWAP1 POP PUSH0 DUP2 SUB PUSH2 0x6BF JUMPI PUSH2 0x6B6 DUP3 PUSH2 0x736 JUMP JUMPDEST SWAP3 POP POP POP PUSH2 0x731 JUMP JUMPDEST PUSH0 PUSH1 0x3 SWAP1 POP JUMPDEST PUSH0 PUSH1 0xA DUP4 PUSH2 0x6D3 SWAP2 SWAP1 PUSH2 0xC25 JUMP JUMPDEST SUB PUSH2 0x6F8 JUMPI PUSH1 0xA DUP3 PUSH2 0x6E5 SWAP2 SWAP1 PUSH2 0xBF5 JUMP JUMPDEST SWAP2 POP DUP1 PUSH2 0x6F1 SWAP1 PUSH2 0xC55 JUMP JUMPDEST SWAP1 POP PUSH2 0x6C5 JUMP JUMPDEST PUSH2 0x701 DUP4 PUSH2 0x736 JUMP JUMPDEST PUSH2 0x70B DUP4 DUP4 PUSH2 0x749 JUMP JUMPDEST PUSH1 0x40 MLOAD PUSH1 0x20 ADD PUSH2 0x71C SWAP3 SWAP2 SWAP1 PUSH2 0xD14 JUMP JUMPDEST PUSH1 0x40 MLOAD PUSH1 0x20 DUP2 DUP4 SUB SUB DUP2 MSTORE SWAP1 PUSH1 0x40 MSTORE SWAP4 POP POP POP POP JUMPDEST SWAP2 SWAP1 POP JUMP JUMPDEST PUSH1 0x60 PUSH2 0x742 DUP3 PUSH0 PUSH2 0x749 JUMP JUMPDEST SWAP1 POP SWAP2 SWAP1 POP JUMP JUMPDEST PUSH1 0x60 JUMPDEST PUSH0 DUP3 PUSH1 0xFF AND GT DUP1 PUSH2 0x75C JUMPI POP PUSH0 DUP4 GT JUMPDEST ISZERO PUSH2 0x7CC JUMPI PUSH1 0xA DUP4 PUSH2 0x76E SWAP2 SWAP1 PUSH2 0xC25 JUMP JUMPDEST PUSH1 0x30 PUSH2 0x77A SWAP2 SWAP1 PUSH2 0x9BB JUMP JUMPDEST PUSH1 0xF8 SHL DUP2 PUSH1 0x40 MLOAD PUSH1 0x20 ADD PUSH2 0x78F SWAP3 SWAP2 SWAP1 PUSH2 0xD8D JUMP JUMPDEST PUSH1 0x40 MLOAD PUSH1 0x20 DUP2 DUP4 SUB SUB DUP2 MSTORE SWAP1 PUSH1 0x40 MSTORE SWAP1 POP PUSH1 0xA DUP4 PUSH2 0x7AD SWAP2 SWAP1 PUSH2 0xBF5 JUMP JUMPDEST SWAP3 POP PUSH0 DUP3 PUSH1 0xFF AND GT ISZERO PUSH2 0x7C7 JUMPI DUP2 PUSH2 0x7C4 SWAP1 PUSH2 0xC55 JUMP JUMPDEST SWAP2 POP JUMPDEST PUSH2 0x74C JUMP JUMPDEST PUSH0 DUP2 MLOAD SUB PUSH2 0x80D JUMPI PUSH1 0x40 MLOAD DUP1 PUSH1 0x40 ADD PUSH1 0x40 MSTORE DUP1 PUSH1 0x1 DUP2 MSTORE PUSH1 0x20 ADD PUSH32 0x3000000000000000000000000000000000000000000000000000000000000000 DUP2 MSTORE POP SWAP1 POP JUMPDEST SWAP3 SWAP2 POP POP JUMP JUMPDEST PUSH0 DUP2 MLOAD SWAP1 POP SWAP2 SWAP1 POP JUMP JUMPDEST PUSH0 DUP3 DUP3 MSTORE PUSH1 0x20 DUP3 ADD SWAP1 POP SWAP3 SWAP2 POP POP JUMP JUMPDEST DUP3 DUP2 DUP4 MCOPY PUSH0 DUP4 DUP4 ADD MSTORE POP POP POP JUMP JUMPDEST PUSH0 PUSH1 0x1F NOT PUSH1 0x1F DUP4 ADD AND SWAP1 POP SWAP2 SWAP1 POP JUMP JUMPDEST PUSH0 PUSH2 0x855 DUP3 PUSH2 0x813 JUMP JUMPDEST PUSH2 0x85F DUP2 DUP6 PUSH2 0x81D JUMP JUMPDEST SWAP4 POP PUSH2 0x86F DUP2 DUP6 PUSH1 0x20 DUP7 ADD PUSH2 0x82D JUMP JUMPDEST PUSH2 0x878 DUP2 PUSH2 0x83B JUMP JUMPDEST DUP5 ADD SWAP2 POP POP SWAP3 SWAP2 POP POP JUMP JUMPDEST PUSH0 PUSH1 0x20 DUP3 ADD SWAP1 POP DUP2 DUP2 SUB PUSH0 DUP4 ADD MSTORE PUSH2 0x89B DUP2 DUP5 PUSH2 0x84B JUMP JUMPDEST SWAP1 POP SWAP3 SWAP2 POP POP JUMP JUMPDEST PUSH0 DUP2 SWAP1 POP SWAP2 SWAP1 POP JUMP JUMPDEST PUSH32 0x4E487B7100000000000000000000000000000000000000000000000000000000 PUSH0 MSTORE PUSH1 0x11 PUSH1 0x4 MSTORE PUSH1 0x24 PUSH0 REVERT JUMPDEST PUSH0 PUSH2 0x8E3 DUP3 PUSH2 0x8A3 JUMP JUMPDEST SWAP2 POP PUSH2 0x8EE DUP4 PUSH2 0x8A3 JUMP JUMPDEST SWAP3 POP DUP3 DUP3 MUL PUSH2 0x8FC DUP2 PUSH2 0x8A3 JUMP JUMPDEST SWAP2 POP DUP3 DUP3 DIV DUP5 EQ DUP4 ISZERO OR PUSH2 0x913 JUMPI PUSH2 0x912 PUSH2 0x8AC JUMP JUMPDEST JUMPDEST POP SWAP3 SWAP2 POP POP JUMP JUMPDEST PUSH32 0x4E487B7100000000000000000000000000000000000000000000000000000000 PUSH0 MSTORE PUSH1 0x41 PUSH1 0x4 MSTORE PUSH1 0x24 PUSH0 REVERT JUMPDEST PUSH0 PUSH2 0x951 DUP3 PUSH2 0x8A3 JUMP JUMPDEST SWAP2 POP PUSH32 0xFFFFFFFFFFFFFFFFFFFFFFFFFFFFFFFFFFFFFFFFFFFFFFFFFFFFFFFFFFFFFFFF DUP3 SUB PUSH2 0x983 JUMPI PUSH2 0x982 PUSH2 0x8AC JUMP JUMPDEST JUMPDEST PUSH1 0x1 DUP3 ADD SWAP1 POP SWAP2 SWAP1 POP JUMP JUMPDEST PUSH32 0x4E487B7100000000000000000000000000000000000000000000000000000000 PUSH0 MSTORE PUSH1 0x32 PUSH1 0x4 MSTORE PUSH1 0x24 PUSH0 REVERT JUMPDEST PUSH0 PUSH2 0x9C5 DUP3 PUSH2 0x8A3 JUMP JUMPDEST SWAP2 POP PUSH2 0x9D0 DUP4 PUSH2 0x8A3 JUMP JUMPDEST SWAP3 POP DUP3 DUP3 ADD SWAP1 POP DUP1 DUP3 GT ISZERO PUSH2 0x9E8 JUMPI PUSH2 0x9E7 PUSH2 0x8AC JUMP JUMPDEST JUMPDEST SWAP3 SWAP2 POP POP JUMP JUMPDEST PUSH0 PUSH1 0xFF DUP3 AND SWAP1 POP SWAP2 SWAP1 POP JUMP JUMPDEST PUSH0 DUP2 SWAP1 POP SWAP2 SWAP1 POP JUMP JUMPDEST PUSH0 PUSH2 0xA1D PUSH2 0xA18 PUSH2 0xA13 DUP5 PUSH2 0x9EE JUMP JUMPDEST PUSH2 0x9FA JUMP JUMPDEST PUSH2 0x8A3 JUMP JUMPDEST SWAP1 POP SWAP2 SWAP1 POP JUMP JUMPDEST PUSH2 0xA2D DUP2 PUSH2 0xA03 JUMP JUMPDEST DUP3 MSTORE POP POP JUMP JUMPDEST PUSH0 PUSH1 0x20 DUP3 ADD SWAP1 POP PUSH2 0xA46 PUSH0 DUP4 ADD DUP5 PUSH2 0xA24 JUMP JUMPDEST SWAP3 SWAP2 POP POP JUMP JUMPDEST PUSH0 PUSH1 0x40 MLOAD SWAP1 POP SWAP1 JUMP JUMPDEST PUSH0 DUP1 REVERT JUMPDEST PUSH0 DUP1 REVERT JUMPDEST PUSH0 DUP1 REVERT JUMPDEST PUSH0 DUP1 REVERT JUMPDEST PUSH2 0xA6E DUP3 PUSH2 0x83B JUMP JUMPDEST DUP2 ADD DUP2 DUP2 LT PUSH8 0xFFFFFFFFFFFFFFFF DUP3 GT OR ISZERO PUSH2 0xA8D JUMPI PUSH2 0xA8C PUSH2 0x91A JUMP JUMPDEST JUMPDEST DUP1 PUSH1 0x40 MSTORE POP POP POP JUMP JUMPDEST PUSH0 PUSH2 0xA9F PUSH2 0xA4C JUMP JUMPDEST SWAP1 POP PUSH2 0xAAB DUP3 DUP3 PUSH2 0xA65 JUMP JUMPDEST SWAP2 SWAP1 POP JUMP JUMPDEST PUSH0 PUSH8 0xFFFFFFFFFFFFFFFF DUP3 GT ISZERO PUSH2 0xACA JUMPI PUSH2 0xAC9 PUSH2 0x91A JUMP JUMPDEST JUMPDEST PUSH2 0xAD3 DUP3 PUSH2 0x83B JUMP JUMPDEST SWAP1 POP PUSH1 0x20 DUP2 ADD SWAP1 POP SWAP2 SWAP1 POP JUMP JUMPDEST PUSH0 PUSH2 0xAF2 PUSH2 0xAED DUP5 PUSH2 0xAB0 JUMP JUMPDEST PUSH2 0xA96 JUMP JUMPDEST SWAP1 POP DUP3 DUP2 MSTORE PUSH1 0x20 DUP2 ADD DUP5 DUP5 DUP5 ADD GT ISZERO PUSH2 0xB0E JUMPI PUSH2 0xB0D PUSH2 0xA61 JUMP JUMPDEST JUMPDEST PUSH2 0xB19 DUP5 DUP3 DUP6 PUSH2 0x82D JUMP JUMPDEST POP SWAP4 SWAP3 POP POP POP JUMP JUMPDEST PUSH0 DUP3 PUSH1 0x1F DUP4 ADD SLT PUSH2 0xB35 JUMPI PUSH2 0xB34 PUSH2 0xA5D JUMP JUMPDEST JUMPDEST DUP2 MLOAD PUSH2 0xB45 DUP5 DUP3 PUSH1 0x20 DUP7 ADD PUSH2 0xAE0 JUMP JUMPDEST SWAP2 POP POP SWAP3 SWAP2 POP POP JUMP JUMPDEST PUSH0 PUSH1 0x20 DUP3 DUP5 SUB SLT ISZERO PUSH2 0xB63 JUMPI PUSH2 0xB62 PUSH2 0xA55 JUMP JUMPDEST JUMPDEST PUSH0 DUP3 ADD MLOAD PUSH8 0xFFFFFFFFFFFFFFFF DUP2 GT ISZERO PUSH2 0xB80 JUMPI PUSH2 0xB7F PUSH2 0xA59 JUMP JUMPDEST JUMPDEST PUSH2 0xB8C DUP5 DUP3 DUP6 ADD PUSH2 0xB21 JUMP JUMPDEST SWAP2 POP POP SWAP3 SWAP2 POP POP JUMP JUMPDEST PUSH0 PUSH2 0xB9F DUP3 PUSH2 0x8A3 JUMP JUMPDEST SWAP2 POP PUSH2 0xBAA DUP4 PUSH2 0x8A3 JUMP JUMPDEST SWAP3 POP DUP3 DUP3 SUB SWAP1 POP DUP2 DUP2 GT ISZERO PUSH2 0xBC2 JUMPI PUSH2 0xBC1 PUSH2 0x8AC JUMP JUMPDEST JUMPDEST SWAP3 SWAP2 POP POP JUMP JUMPDEST PUSH32 0x4E487B7100000000000000000000000000000000000000000000000000000000 PUSH0 MSTORE PUSH1 0x12 PUSH1 0x4 MSTORE PUSH1 0x24 PUSH0 REVERT JUMPDEST PUSH0 PUSH2 0xBFF DUP3 PUSH2 0x8A3 JUMP JUMPDEST SWAP2 POP PUSH2 0xC0A DUP4 PUSH2 0x8A3 JUMP JUMPDEST SWAP3 POP DUP3 PUSH2 0xC1A JUMPI PUSH2 0xC19 PUSH2 0xBC8 JUMP JUMPDEST JUMPDEST DUP3 DUP3 DIV SWAP1 POP SWAP3 SWAP2 POP POP JUMP JUMPDEST PUSH0 PUSH2 0xC2F DUP3 PUSH2 0x8A3 JUMP JUMPDEST SWAP2 POP PUSH2 0xC3A DUP4 PUSH2 0x8A3 JUMP JUMPDEST SWAP3 POP DUP3 PUSH2 0xC4A JUMPI PUSH2 0xC49 PUSH2 0xBC8 JUMP JUMPDEST JUMPDEST DUP3 DUP3 MOD SWAP1 POP SWAP3 SWAP2 POP POP JUMP JUMPDEST PUSH0 PUSH2 0xC5F DUP3 PUSH2 0x9EE JUMP JUMPDEST SWAP2 POP PUSH0 DUP3 SUB PUSH2 0xC71 JUMPI PUSH2 0xC70 PUSH2 0x8AC JUMP JUMPDEST JUMPDEST PUSH1 0x1 DUP3 SUB SWAP1 POP SWAP2 SWAP1 POP JUMP JUMPDEST PUSH0 DUP2 MLOAD SWAP1 POP SWAP2 SWAP1 POP JUMP JUMPDEST PUSH0 DUP2 SWAP1 POP SWAP3 SWAP2 POP POP JUMP JUMPDEST PUSH0 PUSH2 0xC9A DUP3 PUSH2 0xC7C JUMP JUMPDEST PUSH2 0xCA4 DUP2 DUP6 PUSH2 0xC86 JUMP JUMPDEST SWAP4 POP PUSH2 0xCB4 DUP2 DUP6 PUSH1 0x20 DUP7 ADD PUSH2 0x82D JUMP JUMPDEST DUP1 DUP5 ADD SWAP2 POP POP SWAP3 SWAP2 POP POP JUMP JUMPDEST PUSH0 DUP2 SWAP1 POP SWAP3 SWAP2 POP POP JUMP JUMPDEST PUSH32 0x2E00000000000000000000000000000000000000000000000000000000000000 PUSH0 DUP3 ADD MSTORE POP JUMP JUMPDEST PUSH0 PUSH2 0xCFE PUSH1 0x1 DUP4 PUSH2 0xCC0 JUMP JUMPDEST SWAP2 POP PUSH2 0xD09 DUP3 PUSH2 0xCCA JUMP JUMPDEST PUSH1 0x1 DUP3 ADD SWAP1 POP SWAP2 SWAP1 POP JUMP JUMPDEST PUSH0 PUSH2 0xD1F DUP3 DUP6 PUSH2 0xC90 JUMP JUMPDEST SWAP2 POP PUSH2 0xD2A DUP3 PUSH2 0xCF2 JUMP JUMPDEST SWAP2 POP PUSH2 0xD36 DUP3 DUP5 PUSH2 0xC90 JUMP JUMPDEST SWAP2 POP DUP2 SWAP1 POP SWAP4 SWAP3 POP POP POP JUMP JUMPDEST PUSH0 PUSH32 0xFF00000000000000000000000000000000000000000000000000000000000000 DUP3 AND SWAP1 POP SWAP2 SWAP1 POP JUMP JUMPDEST PUSH0 DUP2 SWAP1 POP SWAP2 SWAP1 POP JUMP JUMPDEST PUSH2 0xD87 PUSH2 0xD82 DUP3 PUSH2 0xD42 JUMP JUMPDEST PUSH2 0xD6D JUMP JUMPDEST DUP3 MSTORE POP POP JUMP JUMPDEST PUSH0 PUSH2 0xD98 DUP3 DUP6 PUSH2 0xD76 JUMP JUMPDEST PUSH1 0x1 DUP3 ADD SWAP2 POP PUSH2 0xDA8 DUP3 DUP5 PUSH2 0xC90 JUMP JUMPDEST SWAP2 POP DUP2 SWAP1 POP SWAP4 SWAP3 POP POP POP JUMP INVALID LOG2 PUSH5 0x6970667358 0x22 SLT KECCAK256 0xB1 XOR CODESIZE ADDMOD GASLIMIT 0xAD EXTCODEHASH PUSH15 0x42F30C1A9BB036C676EA9ECC43FF62 PUSH19 0x88654849AAB4688D64736F6C634300081A0033 "
				},
				"gasEstimates": {
					"creation": {
						"codeDepositCost": "712400",
						"executionCost": "infinite",
						"totalCost": "infinite"
					},
					"external": {
						"getSVG()": "infinite"
					},
					"internal": {
						"_angleBytes(uint256)": "infinite",
						"_uDecBytes(uint256)": "infinite",
						"_uDecBytes(uint256,uint8)": "infinite"
					}
				},
				"methodIdentifiers": {
					"getSVG()": "489187e8"
				}
			},
			"storageLayout": {
				"storage": [],
				"types": null
			},
			"userdoc": {
				"kind": "user",
				"methods": {},
				"version": 1
			}
		}
	}
}