{
	"contracts/HashJingViewer.sol": {
		"HashJingViewer": {
			"abi": [
				{
					"inputs": [
						{
							"internalType": "address",
							"name": "_chunk1",
							"type": "address"
						},
						{
							"internalType": "address",
							"name": "_chunk2",
							"type": "address"
						}
					],
					"stateMutability": "nonpayable",
					"type": "constructor"
				},
				{
					"inputs": [
						{
							"internalType": "uint256",
							"name": "_size",
							"type": "uint256"
						},
						{
							"internalType": "uint256",
							"name": "_start",
							"type": "uint256"
						},
						{
							"internalType": "uint256",
							"name": "_end",
							"type": "uint256"
						}
					],
					"name": "InvalidCodeAtRange",
					"type": "error"
				},
				{
					"inputs": [],
					"name": "chunk1",
					"outputs": [
						{
							"internalType": "address",
							"name": "",
							"type": "address"
						}
					],
					"stateMutability": "view",
					"type": "function"
				},
				{
					"inputs": [],
					"name": "chunk2",
					"outputs": [
						{
							"internalType": "address",
							"name": "",
							"type": "address"
						}
					],
					"stateMutability": "view",
					"type": "function"
				},
				{
					"inputs": [],
					"name": "getSVG",
					"outputs": [
						{
							"internalType": "string",
							"name": "",
							"type": "string"
						}
					],
					"stateMutability": "view",
					"type": "function"
				}
			],
			"devdoc": {
				"kind": "dev",
				"methods": {},
				"version": 1
			},
			"evm": {
				"assembly": "    /* \"contracts/HashJingViewer.sol\":155:593  contract HashJingViewer {... */\n  mstore(0x40, 0xc0)\n    /* \"contracts/HashJingViewer.sol\":260:365  constructor(address _chunk1, address _chunk2) {... */\n  callvalue\n  dup1\n  iszero\n  tag_1\n  jumpi\n  0x00\n  dup1\n  revert\ntag_1:\n  pop\n  mload(0x40)\n  sub(codesize, bytecodeSize)\n  dup1\n  bytecodeSize\n  dup4\n  codecopy\n  dup2\n  dup2\n  add\n  0x40\n  mstore\n  dup2\n  add\n  swap1\n  tag_2\n  swap2\n  swap1\n  tag_3\n  jump\t// in\ntag_2:\n    /* \"contracts/HashJingViewer.sol\":325:332  _chunk1 */\n  dup2\n    /* \"contracts/HashJingViewer.sol\":316:332  chunk1 = _chunk1 */\n  0xffffffffffffffffffffffffffffffffffffffff\n  and\n  0x80\n  dup2\n  0xffffffffffffffffffffffffffffffffffffffff\n  and\n  dup2\n  mstore\n  pop\n  pop\n    /* \"contracts/HashJingViewer.sol\":351:358  _chunk2 */\n  dup1\n    /* \"contracts/HashJingViewer.sol\":342:358  chunk2 = _chunk2 */\n  0xffffffffffffffffffffffffffffffffffffffff\n  and\n  0xa0\n  dup2\n  0xffffffffffffffffffffffffffffffffffffffff\n  and\n  dup2\n  mstore\n  pop\n  pop\n    /* \"contracts/HashJingViewer.sol\":260:365  constructor(address _chunk1, address _chunk2) {... */\n  pop\n  pop\n    /* \"contracts/HashJingViewer.sol\":155:593  contract HashJingViewer {... */\n  jump(tag_6)\n    /* \"#utility.yul\":88:205   */\ntag_8:\n    /* \"#utility.yul\":197:198   */\n  0x00\n    /* \"#utility.yul\":194:195   */\n  dup1\n    /* \"#utility.yul\":187:199   */\n  revert\n    /* \"#utility.yul\":334:460   */\ntag_10:\n    /* \"#utility.yul\":371:378   */\n  0x00\n    /* \"#utility.yul\":411:453   */\n  0xffffffffffffffffffffffffffffffffffffffff\n    /* \"#utility.yul\":404:409   */\n  dup3\n    /* \"#utility.yul\":400:454   */\n  and\n    /* \"#utility.yul\":389:454   */\n  swap1\n  pop\n    /* \"#utility.yul\":334:460   */\n  swap2\n  swap1\n  pop\n  jump\t// out\n    /* \"#utility.yul\":466:562   */\ntag_11:\n    /* \"#utility.yul\":503:510   */\n  0x00\n    /* \"#utility.yul\":532:556   */\n  tag_20\n    /* \"#utility.yul\":550:555   */\n  dup3\n    /* \"#utility.yul\":532:556   */\n  tag_10\n  jump\t// in\ntag_20:\n    /* \"#utility.yul\":521:556   */\n  swap1\n  pop\n    /* \"#utility.yul\":466:562   */\n  swap2\n  swap1\n  pop\n  jump\t// out\n    /* \"#utility.yul\":568:690   */\ntag_12:\n    /* \"#utility.yul\":641:665   */\n  tag_22\n    /* \"#utility.yul\":659:664   */\n  dup2\n    /* \"#utility.yul\":641:665   */\n  tag_11\n  jump\t// in\ntag_22:\n    /* \"#utility.yul\":634:639   */\n  dup2\n    /* \"#utility.yul\":631:666   */\n  eq\n    /* \"#utility.yul\":621:684   */\n  tag_23\n  jumpi\n    /* \"#utility.yul\":680:681   */\n  0x00\n    /* \"#utility.yul\":677:678   */\n  dup1\n    /* \"#utility.yul\":670:682   */\n  revert\n    /* \"#utility.yul\":621:684   */\ntag_23:\n    /* \"#utility.yul\":568:690   */\n  pop\n  jump\t// out\n    /* \"#utility.yul\":696:839   */\ntag_13:\n    /* \"#utility.yul\":753:758   */\n  0x00\n    /* \"#utility.yul\":784:790   */\n  dup2\n    /* \"#utility.yul\":778:791   */\n  mload\n    /* \"#utility.yul\":769:791   */\n  swap1\n  pop\n    /* \"#utility.yul\":800:833   */\n  tag_25\n    /* \"#utility.yul\":827:832   */\n  dup2\n    /* \"#utility.yul\":800:833   */\n  tag_12\n  jump\t// in\ntag_25:\n    /* \"#utility.yul\":696:839   */\n  swap3\n  swap2\n  pop\n  pop\n  jump\t// out\n    /* \"#utility.yul\":845:1352   */\ntag_3:\n    /* \"#utility.yul\":924:930   */\n  0x00\n    /* \"#utility.yul\":932:938   */\n  dup1\n    /* \"#utility.yul\":981:983   */\n  0x40\n    /* \"#utility.yul\":969:978   */\n  dup4\n    /* \"#utility.yul\":960:967   */\n  dup6\n    /* \"#utility.yul\":956:979   */\n  sub\n    /* \"#utility.yul\":952:984   */\n  slt\n    /* \"#utility.yul\":949:1068   */\n  iszero\n  tag_27\n  jumpi\n    /* \"#utility.yul\":987:1066   */\n  tag_28\n  tag_8\n  jump\t// in\ntag_28:\n    /* \"#utility.yul\":949:1068   */\ntag_27:\n    /* \"#utility.yul\":1107:1108   */\n  0x00\n    /* \"#utility.yul\":1132:1196   */\n  tag_29\n    /* \"#utility.yul\":1188:1195   */\n  dup6\n    /* \"#utility.yul\":1179:1185   */\n  dup3\n    /* \"#utility.yul\":1168:1177   */\n  dup7\n    /* \"#utility.yul\":1164:1186   */\n  add\n    /* \"#utility.yul\":1132:1196   */\n  tag_13\n  jump\t// in\ntag_29:\n    /* \"#utility.yul\":1122:1196   */\n  swap3\n  pop\n    /* \"#utility.yul\":1078:1206   */\n  pop\n    /* \"#utility.yul\":1245:1247   */\n  0x20\n    /* \"#utility.yul\":1271:1335   */\n  tag_30\n    /* \"#utility.yul\":1327:1334   */\n  dup6\n    /* \"#utility.yul\":1318:1324   */\n  dup3\n    /* \"#utility.yul\":1307:1316   */\n  dup7\n    /* \"#utility.yul\":1303:1325   */\n  add\n    /* \"#utility.yul\":1271:1335   */\n  tag_13\n  jump\t// in\ntag_30:\n    /* \"#utility.yul\":1261:1335   */\n  swap2\n  pop\n    /* \"#utility.yul\":1216:1345   */\n  pop\n    /* \"#utility.yul\":845:1352   */\n  swap3\n  pop\n  swap3\n  swap1\n  pop\n  jump\t// out\n    /* \"contracts/HashJingViewer.sol\":155:593  contract HashJingViewer {... */\ntag_6:\n  mload(0x80)\n  mload(0xa0)\n  codecopy(0x00, dataOffset(sub_0), dataSize(sub_0))\n  0x00\n  assignImmutable(\"0x59d26ca75eb04b47ab1bca5d789d02e4d0cf9ff8cb49c9041caeeeab4eccafbf\")\n  0x00\n  assignImmutable(\"0x32da71dbd53bc029835bc5ecdd3e688035cc92bb61b1811d1685e67ba974e19f\")\n  return(0x00, dataSize(sub_0))\nstop\n\nsub_0: assembly {\n        /* \"contracts/HashJingViewer.sol\":155:593  contract HashJingViewer {... */\n      mstore(0x40, 0x80)\n      callvalue\n      dup1\n      iszero\n      tag_1\n      jumpi\n      0x00\n      dup1\n      revert\n    tag_1:\n      pop\n      jumpi(tag_2, lt(calldatasize, 0x04))\n      shr(0xe0, calldataload(0x00))\n      dup1\n      0x27ba0af7\n      eq\n      tag_3\n      jumpi\n      dup1\n      0x489187e8\n      eq\n      tag_4\n      jumpi\n      dup1\n      0x722a0ccb\n      eq\n      tag_5\n      jumpi\n    tag_2:\n      0x00\n      dup1\n      revert\n        /* \"contracts/HashJingViewer.sol\":185:216  address public immutable chunk1 */\n    tag_3:\n      tag_6\n      tag_7\n      jump\t// in\n    tag_6:\n      mload(0x40)\n      tag_8\n      swap2\n      swap1\n      tag_9\n      jump\t// in\n    tag_8:\n      mload(0x40)\n      dup1\n      swap2\n      sub\n      swap1\n      return\n        /* \"contracts/HashJingViewer.sol\":371:591  function getSVG() external view returns (string memory) {... */\n    tag_4:\n      tag_10\n      tag_11\n      jump\t// in\n    tag_10:\n      mload(0x40)\n      tag_12\n      swap2\n      swap1\n      tag_13\n      jump\t// in\n    tag_12:\n      mload(0x40)\n      dup1\n      swap2\n      sub\n      swap1\n      return\n        /* \"contracts/HashJingViewer.sol\":222:253  address public immutable chunk2 */\n    tag_5:\n      tag_14\n      tag_15\n      jump\t// in\n    tag_14:\n      mload(0x40)\n      tag_16\n      swap2\n      swap1\n      tag_9\n      jump\t// in\n    tag_16:\n      mload(0x40)\n      dup1\n      swap2\n      sub\n      swap1\n      return\n        /* \"contracts/HashJingViewer.sol\":185:216  address public immutable chunk1 */\n    tag_7:\n      immutable(\"0x32da71dbd53bc029835bc5ecdd3e688035cc92bb61b1811d1685e67ba974e19f\")\n      dup2\n      jump\t// out\n        /* \"contracts/HashJingViewer.sol\":371:591  function getSVG() external view returns (string memory) {... */\n    tag_11:\n        /* \"contracts/HashJingViewer.sol\":412:425  string memory */\n      0x60\n        /* \"contracts/HashJingViewer.sol\":437:455  bytes memory part1 */\n      0x00\n        /* \"contracts/HashJingViewer.sol\":458:478  SSTORE2.read(chunk1) */\n      tag_18\n        /* \"contracts/HashJingViewer.sol\":471:477  chunk1 */\n      immutable(\"0x32da71dbd53bc029835bc5ecdd3e688035cc92bb61b1811d1685e67ba974e19f\")\n        /* \"contracts/HashJingViewer.sol\":458:470  SSTORE2.read */\n      tag_19\n        /* \"contracts/HashJingViewer.sol\":458:478  SSTORE2.read(chunk1) */\n      jump\t// in\n    tag_18:\n        /* \"contracts/HashJingViewer.sol\":437:478  bytes memory part1 = SSTORE2.read(chunk1) */\n      swap1\n      pop\n        /* \"contracts/HashJingViewer.sol\":488:506  bytes memory part2 */\n      0x00\n        /* \"contracts/HashJingViewer.sol\":509:529  SSTORE2.read(chunk2) */\n      tag_20\n        /* \"contracts/HashJingViewer.sol\":522:528  chunk2 */\n      immutable(\"0x59d26ca75eb04b47ab1bca5d789d02e4d0cf9ff8cb49c9041caeeeab4eccafbf\")\n        /* \"contracts/HashJingViewer.sol\":509:521  SSTORE2.read */\n      tag_19\n        /* \"contracts/HashJingViewer.sol\":509:529  SSTORE2.read(chunk2) */\n      jump\t// in\n    tag_20:\n        /* \"contracts/HashJingViewer.sol\":488:529  bytes memory part2 = SSTORE2.read(chunk2) */\n      swap1\n      pop\n        /* \"contracts/HashJingViewer.sol\":570:575  part1 */\n      dup2\n        /* \"contracts/HashJingViewer.sol\":577:582  part2 */\n      dup2\n        /* \"contracts/HashJingViewer.sol\":553:583  abi.encodePacked(part1, part2) */\n      add(0x20, mload(0x40))\n      tag_21\n      swap3\n      swap2\n      swap1\n      tag_22\n      jump\t// in\n    tag_21:\n      mload(0x40)\n      0x20\n      dup2\n      dup4\n      sub\n      sub\n      dup2\n      mstore\n      swap1\n      0x40\n      mstore\n        /* \"contracts/HashJingViewer.sol\":539:584  return string(abi.encodePacked(part1, part2)) */\n      swap3\n      pop\n      pop\n      pop\n        /* \"contracts/HashJingViewer.sol\":371:591  function getSVG() external view returns (string memory) {... */\n      swap1\n      jump\t// out\n        /* \"contracts/HashJingViewer.sol\":222:253  address public immutable chunk2 */\n    tag_15:\n      immutable(\"0x59d26ca75eb04b47ab1bca5d789d02e4d0cf9ff8cb49c9041caeeeab4eccafbf\")\n      dup2\n      jump\t// out\n        /* \"contracts/SSTORE2.sol\":1297:1431  function read(address _pointer) internal view returns (bytes memory) {... */\n    tag_19:\n        /* \"contracts/SSTORE2.sol\":1352:1364  bytes memory */\n      0x60\n        /* \"contracts/SSTORE2.sol\":1379:1426  Bytecode.codeAt(_pointer, 1, type(uint256).max) */\n      tag_24\n        /* \"contracts/SSTORE2.sol\":1395:1403  _pointer */\n      dup3\n        /* \"contracts/SSTORE2.sol\":1405:1406  1 */\n      0x01\n        /* \"contracts/SSTORE2.sol\":1408:1425  type(uint256).max */\n      0xffffffffffffffffffffffffffffffffffffffffffffffffffffffffffffffff\n        /* \"contracts/SSTORE2.sol\":1379:1394  Bytecode.codeAt */\n      tag_25\n        /* \"contracts/SSTORE2.sol\":1379:1426  Bytecode.codeAt(_pointer, 1, type(uint256).max) */\n      jump\t// in\n    tag_24:\n        /* \"contracts/SSTORE2.sol\":1372:1426  return Bytecode.codeAt(_pointer, 1, type(uint256).max) */\n      swap1\n      pop\n        /* \"contracts/SSTORE2.sol\":1297:1431  function read(address _pointer) internal view returns (bytes memory) {... */\n      swap2\n      swap1\n      pop\n      jump\t// out\n        /* \"contracts/utils/Bytecode.sol\":1793:2739  function codeAt(address _addr, uint256 _start, uint256 _end) internal view returns (bytes memory oCode) {... */\n    tag_25:\n        /* \"contracts/utils/Bytecode.sol\":1877:1895  bytes memory oCode */\n      0x60\n        /* \"contracts/utils/Bytecode.sol\":1903:1916  uint256 csize */\n      0x00\n        /* \"contracts/utils/Bytecode.sol\":1919:1934  codeSize(_addr) */\n      tag_27\n        /* \"contracts/utils/Bytecode.sol\":1928:1933  _addr */\n      dup6\n        /* \"contracts/utils/Bytecode.sol\":1919:1927  codeSize */\n      tag_28\n        /* \"contracts/utils/Bytecode.sol\":1919:1934  codeSize(_addr) */\n      jump\t// in\n    tag_27:\n        /* \"contracts/utils/Bytecode.sol\":1903:1934  uint256 csize = codeSize(_addr) */\n      swap1\n      pop\n        /* \"contracts/utils/Bytecode.sol\":1953:1954  0 */\n      0x00\n        /* \"contracts/utils/Bytecode.sol\":1944:1949  csize */\n      dup2\n        /* \"contracts/utils/Bytecode.sol\":1944:1954  csize == 0 */\n      sub\n        /* \"contracts/utils/Bytecode.sol\":1940:1972  if (csize == 0) return bytes(\"\") */\n      tag_29\n      jumpi\n        /* \"contracts/utils/Bytecode.sol\":1963:1972  bytes(\"\") */\n      mload(0x40)\n      dup1\n      0x20\n      add\n      0x40\n      mstore\n      dup1\n      0x00\n      dup2\n      mstore\n      pop\n        /* \"contracts/utils/Bytecode.sol\":1956:1972  return bytes(\"\") */\n      swap2\n      pop\n      pop\n      jump(tag_26)\n        /* \"contracts/utils/Bytecode.sol\":1940:1972  if (csize == 0) return bytes(\"\") */\n    tag_29:\n        /* \"contracts/utils/Bytecode.sol\":1992:1997  csize */\n      dup1\n        /* \"contracts/utils/Bytecode.sol\":1983:1989  _start */\n      dup5\n        /* \"contracts/utils/Bytecode.sol\":1983:1997  _start > csize */\n      gt\n        /* \"contracts/utils/Bytecode.sol\":1979:2015  if (_start > csize) return bytes(\"\") */\n      iszero\n      tag_30\n      jumpi\n        /* \"contracts/utils/Bytecode.sol\":2006:2015  bytes(\"\") */\n      mload(0x40)\n      dup1\n      0x20\n      add\n      0x40\n      mstore\n      dup1\n      0x00\n      dup2\n      mstore\n      pop\n        /* \"contracts/utils/Bytecode.sol\":1999:2015  return bytes(\"\") */\n      swap2\n      pop\n      pop\n      jump(tag_26)\n        /* \"contracts/utils/Bytecode.sol\":1979:2015  if (_start > csize) return bytes(\"\") */\n    tag_30:\n        /* \"contracts/utils/Bytecode.sol\":2032:2038  _start */\n      dup4\n        /* \"contracts/utils/Bytecode.sol\":2025:2029  _end */\n      dup4\n        /* \"contracts/utils/Bytecode.sol\":2025:2038  _end < _start */\n      lt\n        /* \"contracts/utils/Bytecode.sol\":2021:2086  if (_end < _start) revert InvalidCodeAtRange(csize, _start, _end) */\n      iszero\n      tag_31\n      jumpi\n        /* \"contracts/utils/Bytecode.sol\":2066:2071  csize */\n      dup1\n        /* \"contracts/utils/Bytecode.sol\":2073:2079  _start */\n      dup5\n        /* \"contracts/utils/Bytecode.sol\":2081:2085  _end */\n      dup5\n        /* \"contracts/utils/Bytecode.sol\":2047:2086  InvalidCodeAtRange(csize, _start, _end) */\n      mload(0x40)\n      0x2c4a89fa00000000000000000000000000000000000000000000000000000000\n      dup2\n      mstore\n      0x04\n      add\n      tag_32\n      swap4\n      swap3\n      swap2\n      swap1\n      tag_33\n      jump\t// in\n    tag_32:\n      mload(0x40)\n      dup1\n      swap2\n      sub\n      swap1\n      revert\n        /* \"contracts/utils/Bytecode.sol\":2021:2086  if (_end < _start) revert InvalidCodeAtRange(csize, _start, _end) */\n    tag_31:\n        /* \"contracts/utils/Bytecode.sol\":2112:2127  uint256 reqSize */\n      0x00\n        /* \"contracts/utils/Bytecode.sol\":2137:2143  _start */\n      dup5\n        /* \"contracts/utils/Bytecode.sol\":2130:2134  _end */\n      dup5\n        /* \"contracts/utils/Bytecode.sol\":2130:2143  _end - _start */\n      sub\n        /* \"contracts/utils/Bytecode.sol\":2112:2143  uint256 reqSize = _end - _start */\n      swap1\n      pop\n        /* \"contracts/utils/Bytecode.sol\":2151:2166  uint256 maxSize */\n      0x00\n        /* \"contracts/utils/Bytecode.sol\":2177:2183  _start */\n      dup6\n        /* \"contracts/utils/Bytecode.sol\":2169:2174  csize */\n      dup4\n        /* \"contracts/utils/Bytecode.sol\":2169:2183  csize - _start */\n      sub\n        /* \"contracts/utils/Bytecode.sol\":2151:2183  uint256 maxSize = csize - _start */\n      swap1\n      pop\n        /* \"contracts/utils/Bytecode.sol\":2192:2204  uint256 size */\n      0x00\n        /* \"contracts/utils/Bytecode.sol\":2217:2224  reqSize */\n      dup3\n        /* \"contracts/utils/Bytecode.sol\":2207:2214  maxSize */\n      dup3\n        /* \"contracts/utils/Bytecode.sol\":2207:2224  maxSize < reqSize */\n      lt\n        /* \"contracts/utils/Bytecode.sol\":2207:2244  maxSize < reqSize ? maxSize : reqSize */\n      tag_34\n      jumpi\n        /* \"contracts/utils/Bytecode.sol\":2237:2244  reqSize */\n      dup3\n        /* \"contracts/utils/Bytecode.sol\":2207:2244  maxSize < reqSize ? maxSize : reqSize */\n      jump(tag_35)\n    tag_34:\n        /* \"contracts/utils/Bytecode.sol\":2227:2234  maxSize */\n      dup2\n        /* \"contracts/utils/Bytecode.sol\":2207:2244  maxSize < reqSize ? maxSize : reqSize */\n    tag_35:\n        /* \"contracts/utils/Bytecode.sol\":2192:2244  uint256 size = maxSize < reqSize ? maxSize : reqSize */\n      swap1\n      pop\n        /* \"contracts/utils/Bytecode.sol\":2413:2417  0x40 */\n      0x40\n        /* \"contracts/utils/Bytecode.sol\":2407:2418  mload(0x40) */\n      mload\n        /* \"contracts/utils/Bytecode.sol\":2398:2418  oCode := mload(0x40) */\n      swap5\n      pop\n        /* \"contracts/utils/Bytecode.sol\":2533:2537  0x1f */\n      0x1f\n        /* \"contracts/utils/Bytecode.sol\":2529:2538  not(0x1f) */\n      not\n        /* \"contracts/utils/Bytecode.sol\":2522:2526  0x1f */\n      0x1f\n        /* \"contracts/utils/Bytecode.sol\":2515:2519  0x20 */\n      0x20\n        /* \"contracts/utils/Bytecode.sol\":2509:2513  size */\n      dup4\n        /* \"contracts/utils/Bytecode.sol\":2505:2520  add(size, 0x20) */\n      add\n        /* \"contracts/utils/Bytecode.sol\":2501:2527  add(add(size, 0x20), 0x1f) */\n      add\n        /* \"contracts/utils/Bytecode.sol\":2497:2539  and(add(add(size, 0x20), 0x1f), not(0x1f)) */\n      and\n        /* \"contracts/utils/Bytecode.sol\":2490:2495  oCode */\n      dup6\n        /* \"contracts/utils/Bytecode.sol\":2486:2540  add(oCode, and(add(add(size, 0x20), 0x1f), not(0x1f))) */\n      add\n        /* \"contracts/utils/Bytecode.sol\":2480:2484  0x40 */\n      0x40\n        /* \"contracts/utils/Bytecode.sol\":2473:2541  mstore(0x40, add(oCode, and(add(add(size, 0x20), 0x1f), not(0x1f)))) */\n      mstore\n        /* \"contracts/utils/Bytecode.sol\":2598:2602  size */\n      dup1\n        /* \"contracts/utils/Bytecode.sol\":2591:2596  oCode */\n      dup6\n        /* \"contracts/utils/Bytecode.sol\":2584:2603  mstore(oCode, size) */\n      mstore\n        /* \"contracts/utils/Bytecode.sol\":2716:2720  size */\n      dup1\n        /* \"contracts/utils/Bytecode.sol\":2708:2714  _start */\n      dup8\n        /* \"contracts/utils/Bytecode.sol\":2701:2705  0x20 */\n      0x20\n        /* \"contracts/utils/Bytecode.sol\":2694:2699  oCode */\n      dup8\n        /* \"contracts/utils/Bytecode.sol\":2690:2706  add(oCode, 0x20) */\n      add\n        /* \"contracts/utils/Bytecode.sol\":2683:2688  _addr */\n      dup11\n        /* \"contracts/utils/Bytecode.sol\":2671:2721  extcodecopy(_addr, add(oCode, 0x20), _start, size) */\n      extcodecopy\n        /* \"contracts/utils/Bytecode.sol\":2262:2729  {... */\n      pop\n      pop\n      pop\n        /* \"contracts/utils/Bytecode.sol\":1897:2739  {... */\n      pop\n        /* \"contracts/utils/Bytecode.sol\":1793:2739  function codeAt(address _addr, uint256 _start, uint256 _end) internal view returns (bytes memory oCode) {... */\n    tag_26:\n      swap4\n      swap3\n      pop\n      pop\n      pop\n      jump\t// out\n        /* \"contracts/utils/Bytecode.sol\":1261:1380  function codeSize(address _addr) internal view returns (uint256 size) {... */\n    tag_28:\n        /* \"contracts/utils/Bytecode.sol\":1317:1329  uint256 size */\n      0x00\n        /* \"contracts/utils/Bytecode.sol\":1368:1373  _addr */\n      dup2\n        /* \"contracts/utils/Bytecode.sol\":1356:1374  extcodesize(_addr) */\n      extcodesize\n        /* \"contracts/utils/Bytecode.sol\":1348:1374  size := extcodesize(_addr) */\n      swap1\n      pop\n        /* \"contracts/utils/Bytecode.sol\":1261:1380  function codeSize(address _addr) internal view returns (uint256 size) {... */\n      swap2\n      swap1\n      pop\n      jump\t// out\n        /* \"#utility.yul\":7:133   */\n    tag_37:\n        /* \"#utility.yul\":44:51   */\n      0x00\n        /* \"#utility.yul\":84:126   */\n      0xffffffffffffffffffffffffffffffffffffffff\n        /* \"#utility.yul\":77:82   */\n      dup3\n        /* \"#utility.yul\":73:127   */\n      and\n        /* \"#utility.yul\":62:127   */\n      swap1\n      pop\n        /* \"#utility.yul\":7:133   */\n      swap2\n      swap1\n      pop\n      jump\t// out\n        /* \"#utility.yul\":139:235   */\n    tag_38:\n        /* \"#utility.yul\":176:183   */\n      0x00\n        /* \"#utility.yul\":205:229   */\n      tag_53\n        /* \"#utility.yul\":223:228   */\n      dup3\n        /* \"#utility.yul\":205:229   */\n      tag_37\n      jump\t// in\n    tag_53:\n        /* \"#utility.yul\":194:229   */\n      swap1\n      pop\n        /* \"#utility.yul\":139:235   */\n      swap2\n      swap1\n      pop\n      jump\t// out\n        /* \"#utility.yul\":241:359   */\n    tag_39:\n        /* \"#utility.yul\":328:352   */\n      tag_55\n        /* \"#utility.yul\":346:351   */\n      dup2\n        /* \"#utility.yul\":328:352   */\n      tag_38\n      jump\t// in\n    tag_55:\n        /* \"#utility.yul\":323:326   */\n      dup3\n        /* \"#utility.yul\":316:353   */\n      mstore\n        /* \"#utility.yul\":241:359   */\n      pop\n      pop\n      jump\t// out\n        /* \"#utility.yul\":365:587   */\n    tag_9:\n        /* \"#utility.yul\":458:462   */\n      0x00\n        /* \"#utility.yul\":496:498   */\n      0x20\n        /* \"#utility.yul\":485:494   */\n      dup3\n        /* \"#utility.yul\":481:499   */\n      add\n        /* \"#utility.yul\":473:499   */\n      swap1\n      pop\n        /* \"#utility.yul\":509:580   */\n      tag_57\n        /* \"#utility.yul\":577:578   */\n      0x00\n        /* \"#utility.yul\":566:575   */\n      dup4\n        /* \"#utility.yul\":562:579   */\n      add\n        /* \"#utility.yul\":553:559   */\n      dup5\n        /* \"#utility.yul\":509:580   */\n      tag_39\n      jump\t// in\n    tag_57:\n        /* \"#utility.yul\":365:587   */\n      swap3\n      swap2\n      pop\n      pop\n      jump\t// out\n        /* \"#utility.yul\":593:692   */\n    tag_40:\n        /* \"#utility.yul\":645:651   */\n      0x00\n        /* \"#utility.yul\":679:684   */\n      dup2\n        /* \"#utility.yul\":673:685   */\n      mload\n        /* \"#utility.yul\":663:685   */\n      swap1\n      pop\n        /* \"#utility.yul\":593:692   */\n      swap2\n      swap1\n      pop\n      jump\t// out\n        /* \"#utility.yul\":698:867   */\n    tag_41:\n        /* \"#utility.yul\":782:793   */\n      0x00\n        /* \"#utility.yul\":816:822   */\n      dup3\n        /* \"#utility.yul\":811:814   */\n      dup3\n        /* \"#utility.yul\":804:823   */\n      mstore\n        /* \"#utility.yul\":856:860   */\n      0x20\n        /* \"#utility.yul\":851:854   */\n      dup3\n        /* \"#utility.yul\":847:861   */\n      add\n        /* \"#utility.yul\":832:861   */\n      swap1\n      pop\n        /* \"#utility.yul\":698:867   */\n      swap3\n      swap2\n      pop\n      pop\n      jump\t// out\n        /* \"#utility.yul\":873:1012   */\n    tag_42:\n        /* \"#utility.yul\":962:968   */\n      dup3\n        /* \"#utility.yul\":957:960   */\n      dup2\n        /* \"#utility.yul\":952:955   */\n      dup4\n        /* \"#utility.yul\":946:969   */\n      mcopy\n        /* \"#utility.yul\":1003:1004   */\n      0x00\n        /* \"#utility.yul\":994:1000   */\n      dup4\n        /* \"#utility.yul\":989:992   */\n      dup4\n        /* \"#utility.yul\":985:1001   */\n      add\n        /* \"#utility.yul\":978:1005   */\n      mstore\n        /* \"#utility.yul\":873:1012   */\n      pop\n      pop\n      pop\n      jump\t// out\n        /* \"#utility.yul\":1018:1120   */\n    tag_43:\n        /* \"#utility.yul\":1059:1065   */\n      0x00\n        /* \"#utility.yul\":1110:1112   */\n      0x1f\n        /* \"#utility.yul\":1106:1113   */\n      not\n        /* \"#utility.yul\":1101:1103   */\n      0x1f\n        /* \"#utility.yul\":1094:1099   */\n      dup4\n        /* \"#utility.yul\":1090:1104   */\n      add\n        /* \"#utility.yul\":1086:1114   */\n      and\n        /* \"#utility.yul\":1076:1114   */\n      swap1\n      pop\n        /* \"#utility.yul\":1018:1120   */\n      swap2\n      swap1\n      pop\n      jump\t// out\n        /* \"#utility.yul\":1126:1503   */\n    tag_44:\n        /* \"#utility.yul\":1214:1217   */\n      0x00\n        /* \"#utility.yul\":1242:1281   */\n      tag_63\n        /* \"#utility.yul\":1275:1280   */\n      dup3\n        /* \"#utility.yul\":1242:1281   */\n      tag_40\n      jump\t// in\n    tag_63:\n        /* \"#utility.yul\":1297:1368   */\n      tag_64\n        /* \"#utility.yul\":1361:1367   */\n      dup2\n        /* \"#utility.yul\":1356:1359   */\n      dup6\n        /* \"#utility.yul\":1297:1368   */\n      tag_41\n      jump\t// in\n    tag_64:\n        /* \"#utility.yul\":1290:1368   */\n      swap4\n      pop\n        /* \"#utility.yul\":1377:1442   */\n      tag_65\n        /* \"#utility.yul\":1435:1441   */\n      dup2\n        /* \"#utility.yul\":1430:1433   */\n      dup6\n        /* \"#utility.yul\":1423:1427   */\n      0x20\n        /* \"#utility.yul\":1416:1421   */\n      dup7\n        /* \"#utility.yul\":1412:1428   */\n      add\n        /* \"#utility.yul\":1377:1442   */\n      tag_42\n      jump\t// in\n    tag_65:\n        /* \"#utility.yul\":1467:1496   */\n      tag_66\n        /* \"#utility.yul\":1489:1495   */\n      dup2\n        /* \"#utility.yul\":1467:1496   */\n      tag_43\n      jump\t// in\n    tag_66:\n        /* \"#utility.yul\":1462:1465   */\n      dup5\n        /* \"#utility.yul\":1458:1497   */\n      add\n        /* \"#utility.yul\":1451:1497   */\n      swap2\n      pop\n        /* \"#utility.yul\":1218:1503   */\n      pop\n        /* \"#utility.yul\":1126:1503   */\n      swap3\n      swap2\n      pop\n      pop\n      jump\t// out\n        /* \"#utility.yul\":1509:1822   */\n    tag_13:\n        /* \"#utility.yul\":1622:1626   */\n      0x00\n        /* \"#utility.yul\":1660:1662   */\n      0x20\n        /* \"#utility.yul\":1649:1658   */\n      dup3\n        /* \"#utility.yul\":1645:1663   */\n      add\n        /* \"#utility.yul\":1637:1663   */\n      swap1\n      pop\n        /* \"#utility.yul\":1709:1718   */\n      dup2\n        /* \"#utility.yul\":1703:1707   */\n      dup2\n        /* \"#utility.yul\":1699:1719   */\n      sub\n        /* \"#utility.yul\":1695:1696   */\n      0x00\n        /* \"#utility.yul\":1684:1693   */\n      dup4\n        /* \"#utility.yul\":1680:1697   */\n      add\n        /* \"#utility.yul\":1673:1720   */\n      mstore\n        /* \"#utility.yul\":1737:1815   */\n      tag_68\n        /* \"#utility.yul\":1810:1814   */\n      dup2\n        /* \"#utility.yul\":1801:1807   */\n      dup5\n        /* \"#utility.yul\":1737:1815   */\n      tag_44\n      jump\t// in\n    tag_68:\n        /* \"#utility.yul\":1729:1815   */\n      swap1\n      pop\n        /* \"#utility.yul\":1509:1822   */\n      swap3\n      swap2\n      pop\n      pop\n      jump\t// out\n        /* \"#utility.yul\":1828:1926   */\n    tag_45:\n        /* \"#utility.yul\":1879:1885   */\n      0x00\n        /* \"#utility.yul\":1913:1918   */\n      dup2\n        /* \"#utility.yul\":1907:1919   */\n      mload\n        /* \"#utility.yul\":1897:1919   */\n      swap1\n      pop\n        /* \"#utility.yul\":1828:1926   */\n      swap2\n      swap1\n      pop\n      jump\t// out\n        /* \"#utility.yul\":1932:2079   */\n    tag_46:\n        /* \"#utility.yul\":2033:2044   */\n      0x00\n        /* \"#utility.yul\":2070:2073   */\n      dup2\n        /* \"#utility.yul\":2055:2073   */\n      swap1\n      pop\n        /* \"#utility.yul\":1932:2079   */\n      swap3\n      swap2\n      pop\n      pop\n      jump\t// out\n        /* \"#utility.yul\":2085:2471   */\n    tag_47:\n        /* \"#utility.yul\":2189:2192   */\n      0x00\n        /* \"#utility.yul\":2217:2255   */\n      tag_72\n        /* \"#utility.yul\":2249:2254   */\n      dup3\n        /* \"#utility.yul\":2217:2255   */\n      tag_45\n      jump\t// in\n    tag_72:\n        /* \"#utility.yul\":2271:2359   */\n      tag_73\n        /* \"#utility.yul\":2352:2358   */\n      dup2\n        /* \"#utility.yul\":2347:2350   */\n      dup6\n        /* \"#utility.yul\":2271:2359   */\n      tag_46\n      jump\t// in\n    tag_73:\n        /* \"#utility.yul\":2264:2359   */\n      swap4\n      pop\n        /* \"#utility.yul\":2368:2433   */\n      tag_74\n        /* \"#utility.yul\":2426:2432   */\n      dup2\n        /* \"#utility.yul\":2421:2424   */\n      dup6\n        /* \"#utility.yul\":2414:2418   */\n      0x20\n        /* \"#utility.yul\":2407:2412   */\n      dup7\n        /* \"#utility.yul\":2403:2419   */\n      add\n        /* \"#utility.yul\":2368:2433   */\n      tag_42\n      jump\t// in\n    tag_74:\n        /* \"#utility.yul\":2458:2464   */\n      dup1\n        /* \"#utility.yul\":2453:2456   */\n      dup5\n        /* \"#utility.yul\":2449:2465   */\n      add\n        /* \"#utility.yul\":2442:2465   */\n      swap2\n      pop\n        /* \"#utility.yul\":2193:2471   */\n      pop\n        /* \"#utility.yul\":2085:2471   */\n      swap3\n      swap2\n      pop\n      pop\n      jump\t// out\n        /* \"#utility.yul\":2477:2904   */\n    tag_22:\n        /* \"#utility.yul\":2653:2656   */\n      0x00\n        /* \"#utility.yul\":2675:2768   */\n      tag_76\n        /* \"#utility.yul\":2764:2767   */\n      dup3\n        /* \"#utility.yul\":2755:2761   */\n      dup6\n        /* \"#utility.yul\":2675:2768   */\n      tag_47\n      jump\t// in\n    tag_76:\n        /* \"#utility.yul\":2668:2768   */\n      swap2\n      pop\n        /* \"#utility.yul\":2785:2878   */\n      tag_77\n        /* \"#utility.yul\":2874:2877   */\n      dup3\n        /* \"#utility.yul\":2865:2871   */\n      dup5\n        /* \"#utility.yul\":2785:2878   */\n      tag_47\n      jump\t// in\n    tag_77:\n        /* \"#utility.yul\":2778:2878   */\n      swap2\n      pop\n        /* \"#utility.yul\":2895:2898   */\n      dup2\n        /* \"#utility.yul\":2888:2898   */\n      swap1\n      pop\n        /* \"#utility.yul\":2477:2904   */\n      swap4\n      swap3\n      pop\n      pop\n      pop\n      jump\t// out\n        /* \"#utility.yul\":2910:2987   */\n    tag_48:\n        /* \"#utility.yul\":2947:2954   */\n      0x00\n        /* \"#utility.yul\":2976:2981   */\n      dup2\n        /* \"#utility.yul\":2965:2981   */\n      swap1\n      pop\n        /* \"#utility.yul\":2910:2987   */\n      swap2\n      swap1\n      pop\n      jump\t// out\n        /* \"#utility.yul\":2993:3111   */\n    tag_49:\n        /* \"#utility.yul\":3080:3104   */\n      tag_80\n        /* \"#utility.yul\":3098:3103   */\n      dup2\n        /* \"#utility.yul\":3080:3104   */\n      tag_48\n      jump\t// in\n    tag_80:\n        /* \"#utility.yul\":3075:3078   */\n      dup3\n        /* \"#utility.yul\":3068:3105   */\n      mstore\n        /* \"#utility.yul\":2993:3111   */\n      pop\n      pop\n      jump\t// out\n        /* \"#utility.yul\":3117:3559   */\n    tag_33:\n        /* \"#utility.yul\":3266:3270   */\n      0x00\n        /* \"#utility.yul\":3304:3306   */\n      0x60\n        /* \"#utility.yul\":3293:3302   */\n      dup3\n        /* \"#utility.yul\":3289:3307   */\n      add\n        /* \"#utility.yul\":3281:3307   */\n      swap1\n      pop\n        /* \"#utility.yul\":3317:3388   */\n      tag_82\n        /* \"#utility.yul\":3385:3386   */\n      0x00\n        /* \"#utility.yul\":3374:3383   */\n      dup4\n        /* \"#utility.yul\":3370:3387   */\n      add\n        /* \"#utility.yul\":3361:3367   */\n      dup7\n        /* \"#utility.yul\":3317:3388   */\n      tag_49\n      jump\t// in\n    tag_82:\n        /* \"#utility.yul\":3398:3470   */\n      tag_83\n        /* \"#utility.yul\":3466:3468   */\n      0x20\n        /* \"#utility.yul\":3455:3464   */\n      dup4\n        /* \"#utility.yul\":3451:3469   */\n      add\n        /* \"#utility.yul\":3442:3448   */\n      dup6\n        /* \"#utility.yul\":3398:3470   */\n      tag_49\n      jump\t// in\n    tag_83:\n        /* \"#utility.yul\":3480:3552   */\n      tag_84\n        /* \"#utility.yul\":3548:3550   */\n      0x40\n        /* \"#utility.yul\":3537:3546   */\n      dup4\n        /* \"#utility.yul\":3533:3551   */\n      add\n        /* \"#utility.yul\":3524:3530   */\n      dup5\n        /* \"#utility.yul\":3480:3552   */\n      tag_49\n      jump\t// in\n    tag_84:\n        /* \"#utility.yul\":3117:3559   */\n      swap5\n      swap4\n      pop\n      pop\n      pop\n      pop\n      jump\t// out\n\n    auxdata: 0xa2646970667358221220e2d7f169aa1480c114b9508c07978ac5b5c02375f48dc5c1080d8e1bfa5d494364736f6c634300081a0033\n}\n",
				"bytecode": {
					"linkReferences": {},
					"object": "60c060405234801561000f575f80fd5b506040516105bf3803806105bf833981810160405281019061003191906100fe565b8173ffffffffffffffffffffffffffffffffffffffff1660808173ffffffffffffffffffffffffffffffffffffffff16815250508073ffffffffffffffffffffffffffffffffffffffff1660a08173ffffffffffffffffffffffffffffffffffffffff1681525050505061013c565b5f80fd5b5f73ffffffffffffffffffffffffffffffffffffffff82169050919050565b5f6100cd826100a4565b9050919050565b6100dd816100c3565b81146100e7575f80fd5b50565b5f815190506100f8816100d4565b92915050565b5f8060408385031215610114576101136100a0565b5b5f610121858286016100ea565b9250506020610132858286016100ea565b9150509250929050565b60805160a0516104576101685f395f818160f5015261014601525f8181609f015260c901526104575ff3fe608060405234801561000f575f80fd5b506004361061003f575f3560e01c806327ba0af714610043578063489187e814610061578063722a0ccb1461007f575b5f80fd5b61004b61009d565b60405161005891906102c4565b60405180910390f35b6100696100c1565b604051610076919061034d565b60405180910390f35b610087610144565b60405161009491906102c4565b60405180910390f35b7f000000000000000000000000000000000000000000000000000000000000000081565b60605f6100ed7f0000000000000000000000000000000000000000000000000000000000000000610168565b90505f6101197f0000000000000000000000000000000000000000000000000000000000000000610168565b9050818160405160200161012e9291906103b1565b6040516020818303038152906040529250505090565b7f000000000000000000000000000000000000000000000000000000000000000081565b60606101968260017fffffffffffffffffffffffffffffffffffffffffffffffffffffffffffffffff61019d565b9050919050565b60605f6101a98561027b565b90505f81036101c95760405180602001604052805f815250915050610274565b808411156101e85760405180602001604052805f815250915050610274565b83831015610231578084846040517f2c4a89fa000000000000000000000000000000000000000000000000000000008152600401610228939291906103ec565b60405180910390fd5b5f84840390505f85830390505f82821061024b578261024d565b815b90506040519450601f19601f60208301011685016040528085528087602087018a3c505050505b9392505050565b5f813b9050919050565b5f73ffffffffffffffffffffffffffffffffffffffff82169050919050565b5f6102ae82610285565b9050919050565b6102be816102a4565b82525050565b5f6020820190506102d75f8301846102b5565b92915050565b5f81519050919050565b5f82825260208201905092915050565b8281835e5f83830152505050565b5f601f19601f8301169050919050565b5f61031f826102dd565b61032981856102e7565b93506103398185602086016102f7565b61034281610305565b840191505092915050565b5f6020820190508181035f8301526103658184610315565b905092915050565b5f81519050919050565b5f81905092915050565b5f61038b8261036d565b6103958185610377565b93506103a58185602086016102f7565b80840191505092915050565b5f6103bc8285610381565b91506103c88284610381565b91508190509392505050565b5f819050919050565b6103e6816103d4565b82525050565b5f6060820190506103ff5f8301866103dd565b61040c60208301856103dd565b61041960408301846103dd565b94935050505056fea2646970667358221220e2d7f169aa1480c114b9508c07978ac5b5c02375f48dc5c1080d8e1bfa5d494364736f6c634300081a0033",
					"opcodes": "PUSH1 0xC0 PUSH1 0x40 MSTORE CALLVALUE DUP1 ISZERO PUSH2 0xF JUMPI PUSH0 DUP1 REVERT JUMPDEST POP PUSH1 0x40 MLOAD PUSH2 0x5BF CODESIZE SUB DUP1 PUSH2 0x5BF DUP4 CODECOPY DUP2 DUP2 ADD PUSH1 0x40 MSTORE DUP2 ADD SWAP1 PUSH2 0x31 SWAP2 SWAP1 PUSH2 0xFE JUMP JUMPDEST DUP2 PUSH20 0xFFFFFFFFFFFFFFFFFFFFFFFFFFFFFFFFFFFFFFFF AND PUSH1 0x80 DUP2 PUSH20 0xFFFFFFFFFFFFFFFFFFFFFFFFFFFFFFFFFFFFFFFF AND DUP2 MSTORE POP POP DUP1 PUSH20 0xFFFFFFFFFFFFFFFFFFFFFFFFFFFFFFFFFFFFFFFF AND PUSH1 0xA0 DUP2 PUSH20 0xFFFFFFFFFFFFFFFFFFFFFFFFFFFFFFFFFFFFFFFF AND DUP2 MSTORE POP POP POP POP PUSH2 0x13C JUMP JUMPDEST PUSH0 DUP1 REVERT JUMPDEST PUSH0 PUSH20 0xFFFFFFFFFFFFFFFFFFFFFFFFFFFFFFFFFFFFFFFF DUP3 AND SWAP1 POP SWAP2 SWAP1 POP JUMP JUMPDEST PUSH0 PUSH2 0xCD DUP3 PUSH2 0xA4 JUMP JUMPDEST SWAP1 POP SWAP2 SWAP1 POP JUMP JUMPDEST PUSH2 0xDD DUP2 PUSH2 0xC3 JUMP JUMPDEST DUP2 EQ PUSH2 0xE7 JUMPI PUSH0 DUP1 REVERT JUMPDEST POP JUMP JUMPDEST PUSH0 DUP2 MLOAD SWAP1 POP PUSH2 0xF8 DUP2 PUSH2 0xD4 JUMP JUMPDEST SWAP3 SWAP2 POP POP JUMP JUMPDEST PUSH0 DUP1 PUSH1 0x40 DUP4 DUP6 SUB SLT ISZERO PUSH2 0x114 JUMPI PUSH2 0x113 PUSH2 0xA0 JUMP JUMPDEST JUMPDEST PUSH0 PUSH2 0x121 DUP6 DUP3 DUP7 ADD PUSH2 0xEA JUMP JUMPDEST SWAP3 POP POP PUSH1 0x20 PUSH2 0x132 DUP6 DUP3 DUP7 ADD PUSH2 0xEA JUMP JUMPDEST SWAP2 POP POP SWAP3 POP SWAP3 SWAP1 POP JUMP JUMPDEST PUSH1 0x80 MLOAD PUSH1 0xA0 MLOAD PUSH2 0x457 PUSH2 0x168 PUSH0 CODECOPY PUSH0 DUP2 DUP2 PUSH1 0xF5 ADD MSTORE PUSH2 0x146 ADD MSTORE PUSH0 DUP2 DUP2 PUSH1 0x9F ADD MSTORE PUSH1 0xC9 ADD MSTORE PUSH2 0x457 PUSH0 RETURN INVALID PUSH1 0x80 PUSH1 0x40 MSTORE CALLVALUE DUP1 ISZERO PUSH2 0xF JUMPI PUSH0 DUP1 REVERT JUMPDEST POP PUSH1 0x4 CALLDATASIZE LT PUSH2 0x3F JUMPI PUSH0 CALLDATALOAD PUSH1 0xE0 SHR DUP1 PUSH4 0x27BA0AF7 EQ PUSH2 0x43 JUMPI DUP1 PUSH4 0x489187E8 EQ PUSH2 0x61 JUMPI DUP1 PUSH4 0x722A0CCB EQ PUSH2 0x7F JUMPI JUMPDEST PUSH0 DUP1 REVERT JUMPDEST PUSH2 0x4B PUSH2 0x9D JUMP JUMPDEST PUSH1 0x40 MLOAD PUSH2 0x58 SWAP2 SWAP1 PUSH2 0x2C4 JUMP JUMPDEST PUSH1 0x40 MLOAD DUP1 SWAP2 SUB SWAP1 RETURN JUMPDEST PUSH2 0x69 PUSH2 0xC1 JUMP JUMPDEST PUSH1 0x40 MLOAD PUSH2 0x76 SWAP2 SWAP1 PUSH2 0x34D JUMP JUMPDEST PUSH1 0x40 MLOAD DUP1 SWAP2 SUB SWAP1 RETURN JUMPDEST PUSH2 0x87 PUSH2 0x144 JUMP JUMPDEST PUSH1 0x40 MLOAD PUSH2 0x94 SWAP2 SWAP1 PUSH2 0x2C4 JUMP JUMPDEST PUSH1 0x40 MLOAD DUP1 SWAP2 SUB SWAP1 RETURN JUMPDEST PUSH32 0x0 DUP2 JUMP JUMPDEST PUSH1 0x60 PUSH0 PUSH2 0xED PUSH32 0x0 PUSH2 0x168 JUMP JUMPDEST SWAP1 POP PUSH0 PUSH2 0x119 PUSH32 0x0 PUSH2 0x168 JUMP JUMPDEST SWAP1 POP DUP2 DUP2 PUSH1 0x40 MLOAD PUSH1 0x20 ADD PUSH2 0x12E SWAP3 SWAP2 SWAP1 PUSH2 0x3B1 JUMP JUMPDEST PUSH1 0x40 MLOAD PUSH1 0x20 DUP2 DUP4 SUB SUB DUP2 MSTORE SWAP1 PUSH1 0x40 MSTORE SWAP3 POP POP POP SWAP1 JUMP JUMPDEST PUSH32 0x0 DUP2 JUMP JUMPDEST PUSH1 0x60 PUSH2 0x196 DUP3 PUSH1 0x1 PUSH32 0xFFFFFFFFFFFFFFFFFFFFFFFFFFFFFFFFFFFFFFFFFFFFFFFFFFFFFFFFFFFFFFFF PUSH2 0x19D JUMP JUMPDEST SWAP1 POP SWAP2 SWAP1 POP JUMP JUMPDEST PUSH1 0x60 PUSH0 PUSH2 0x1A9 DUP6 PUSH2 0x27B JUMP JUMPDEST SWAP1 POP PUSH0 DUP2 SUB PUSH2 0x1C9 JUMPI PUSH1 0x40 MLOAD DUP1 PUSH1 0x20 ADD PUSH1 0x40 MSTORE DUP1 PUSH0 DUP2 MSTORE POP SWAP2 POP POP PUSH2 0x274 JUMP JUMPDEST DUP1 DUP5 GT ISZERO PUSH2 0x1E8 JUMPI PUSH1 0x40 MLOAD DUP1 PUSH1 0x20 ADD PUSH1 0x40 MSTORE DUP1 PUSH0 DUP2 MSTORE POP SWAP2 POP POP PUSH2 0x274 JUMP JUMPDEST DUP4 DUP4 LT ISZERO PUSH2 0x231 JUMPI DUP1 DUP5 DUP5 PUSH1 0x40 MLOAD PUSH32 0x2C4A89FA00000000000000000000000000000000000000000000000000000000 DUP2 MSTORE PUSH1 0x4 ADD PUSH2 0x228 SWAP4 SWAP3 SWAP2 SWAP1 PUSH2 0x3EC JUMP JUMPDEST PUSH1 0x40 MLOAD DUP1 SWAP2 SUB SWAP1 REVERT JUMPDEST PUSH0 DUP5 DUP5 SUB SWAP1 POP PUSH0 DUP6 DUP4 SUB SWAP1 POP PUSH0 DUP3 DUP3 LT PUSH2 0x24B JUMPI DUP3 PUSH2 0x24D JUMP JUMPDEST DUP2 JUMPDEST SWAP1 POP PUSH1 0x40 MLOAD SWAP5 POP PUSH1 0x1F NOT PUSH1 0x1F PUSH1 0x20 DUP4 ADD ADD AND DUP6 ADD PUSH1 0x40 MSTORE DUP1 DUP6 MSTORE DUP1 DUP8 PUSH1 0x20 DUP8 ADD DUP11 EXTCODECOPY POP POP POP POP JUMPDEST SWAP4 SWAP3 POP POP POP JUMP JUMPDEST PUSH0 DUP2 EXTCODESIZE SWAP1 POP SWAP2 SWAP1 POP JUMP JUMPDEST PUSH0 PUSH20 0xFFFFFFFFFFFFFFFFFFFFFFFFFFFFFFFFFFFFFFFF DUP3 AND SWAP1 POP SWAP2 SWAP1 POP JUMP JUMPDEST PUSH0 PUSH2 0x2AE DUP3 PUSH2 0x285 JUMP JUMPDEST SWAP1 POP SWAP2 SWAP1 POP JUMP JUMPDEST PUSH2 0x2BE DUP2 PUSH2 0x2A4 JUMP JUMPDEST DUP3 MSTORE POP POP JUMP JUMPDEST PUSH0 PUSH1 0x20 DUP3 ADD SWAP1 POP PUSH2 0x2D7 PUSH0 DUP4 ADD DUP5 PUSH2 0x2B5 JUMP JUMPDEST SWAP3 SWAP2 POP POP JUMP JUMPDEST PUSH0 DUP2 MLOAD SWAP1 POP SWAP2 SWAP1 POP JUMP JUMPDEST PUSH0 DUP3 DUP3 MSTORE PUSH1 0x20 DUP3 ADD SWAP1 POP SWAP3 SWAP2 POP POP JUMP JUMPDEST DUP3 DUP2 DUP4 MCOPY PUSH0 DUP4 DUP4 ADD MSTORE POP POP POP JUMP JUMPDEST PUSH0 PUSH1 0x1F NOT PUSH1 0x1F DUP4 ADD AND SWAP1 POP SWAP2 SWAP1 POP JUMP JUMPDEST PUSH0 PUSH2 0x31F DUP3 PUSH2 0x2DD JUMP JUMPDEST PUSH2 0x329 DUP2 DUP6 PUSH2 0x2E7 JUMP JUMPDEST SWAP4 POP PUSH2 0x339 DUP2 DUP6 PUSH1 0x20 DUP7 ADD PUSH2 0x2F7 JUMP JUMPDEST PUSH2 0x342 DUP2 PUSH2 0x305 JUMP JUMPDEST DUP5 ADD SWAP2 POP POP SWAP3 SWAP2 POP POP JUMP JUMPDEST PUSH0 PUSH1 0x20 DUP3 ADD SWAP1 POP DUP2 DUP2 SUB PUSH0 DUP4 ADD MSTORE PUSH2 0x365 DUP2 DUP5 PUSH2 0x315 JUMP JUMPDEST SWAP1 POP SWAP3 SWAP2 POP POP JUMP JUMPDEST PUSH0 DUP2 MLOAD SWAP1 POP SWAP2 SWAP1 POP JUMP JUMPDEST PUSH0 DUP2 SWAP1 POP SWAP3 SWAP2 POP POP JUMP JUMPDEST PUSH0 PUSH2 0x38B DUP3 PUSH2 0x36D JUMP JUMPDEST PUSH2 0x395 DUP2 DUP6 PUSH2 0x377 JUMP JUMPDEST SWAP4 POP PUSH2 0x3A5 DUP2 DUP6 PUSH1 0x20 DUP7 ADD PUSH2 0x2F7 JUMP JUMPDEST DUP1 DUP5 ADD SWAP2 POP POP SWAP3 SWAP2 POP POP JUMP JUMPDEST PUSH0 PUSH2 0x3BC DUP3 DUP6 PUSH2 0x381 JUMP JUMPDEST SWAP2 POP PUSH2 0x3C8 DUP3 DUP5 PUSH2 0x381 JUMP JUMPDEST SWAP2 POP DUP2 SWAP1 POP SWAP4 SWAP3 POP POP POP JUMP JUMPDEST PUSH0 DUP2 SWAP1 POP SWAP2 SWAP1 POP JUMP JUMPDEST PUSH2 0x3E6 DUP2 PUSH2 0x3D4 JUMP JUMPDEST DUP3 MSTORE POP POP JUMP JUMPDEST PUSH0 PUSH1 0x60 DUP3 ADD SWAP1 POP PUSH2 0x3FF PUSH0 DUP4 ADD DUP7 PUSH2 0x3DD JUMP JUMPDEST PUSH2 0x40C PUSH1 0x20 DUP4 ADD DUP6 PUSH2 0x3DD JUMP JUMPDEST PUSH2 0x419 PUSH1 0x40 DUP4 ADD DUP5 PUSH2 0x3DD JUMP JUMPDEST SWAP5 SWAP4 POP POP POP POP JUMP INVALID LOG2 PUSH5 0x6970667358 0x22 SLT KECCAK256 0xE2 0xD7 CALL PUSH10 0xAA1480C114B9508C0797 DUP11 0xC5 0xB5 0xC0 0x23 PUSH22 0xF48DC5C1080D8E1BFA5D494364736F6C634300081A00 CALLER "
				},
				"gasEstimates": {
					"creation": {
						"codeDepositCost": "222200",
						"executionCost": "infinite",
						"totalCost": "infinite"
					},
					"external": {
						"chunk1()": "infinite",
						"chunk2()": "infinite",
						"getSVG()": "infinite"
					}
				},
				"methodIdentifiers": {
					"chunk1()": "27ba0af7",
					"chunk2()": "722a0ccb",
					"getSVG()": "489187e8"
				}
			},
			"storageLayout": {
				"storage": [],
				"types": null
			},
			"userdoc": {
				"kind": "user",
				"methods": {},
				"version": 1
			}
		}
	}
}