{
	"contracts/HashJingSVGStorage2.sol": {
		"HashJingSVGStorage2": {
			"abi": [
				{
					"inputs": [],
					"stateMutability": "nonpayable",
					"type": "constructor"
				},
				{
					"inputs": [],
					"name": "WriteError",
					"type": "error"
				},
				{
					"inputs": [],
					"name": "getChunk",
					"outputs": [
						{
							"internalType": "address",
							"name": "",
							"type": "address"
						}
					],
					"stateMutability": "view",
					"type": "function"
				},
				{
					"inputs": [],
					"name": "svgChunk2",
					"outputs": [
						{
							"internalType": "address",
							"name": "",
							"type": "address"
						}
					],
					"stateMutability": "view",
					"type": "function"
				}
			],
			"devdoc": {
				"kind": "dev",
				"methods": {},
				"version": 1
			},
			"evm": {
				"assembly": "    /* \"contracts/HashJingSVGStorage2.sol\":83:12625  contract HashJingSVGStorage2 {... */\n  mstore(0x40, 0xa0)\n    /* \"contracts/HashJingSVGStorage2.sol\":159:12532  constructor() {... */\n  callvalue\n  dup1\n  iszero\n  tag_1\n  jumpi\n  0x00\n  dup1\n  revert\ntag_1:\n  pop\n    /* \"contracts/HashJingSVGStorage2.sol\":195:12525  SSTORE2.write(... */\n  tag_4\n  mload(0x40)\n  dup1\n  0x1820\n  add\n  0x40\n  mstore\n  dup1\n  0x1800\n  dup2\n  mstore\n  0x20\n  add\n  data_e8eda97ff2098e5662330aef6b80857465c40a178122744a449a9fcdc510af78\n  0x1800\n  swap2\n  codecopy\n    /* \"contracts/HashJingSVGStorage2.sol\":195:208  SSTORE2.write */\n  shl(0x20, tag_5)\n    /* \"contracts/HashJingSVGStorage2.sol\":195:12525  SSTORE2.write(... */\n  0x20\n  shr\n  jump\t// in\ntag_4:\n    /* \"contracts/HashJingSVGStorage2.sol\":183:12525  svgChunk2 = SSTORE2.write(... */\n  0xffffffffffffffffffffffffffffffffffffffff\n  and\n  0x80\n  dup2\n  0xffffffffffffffffffffffffffffffffffffffff\n  and\n  dup2\n  mstore\n  pop\n  pop\n    /* \"contracts/HashJingSVGStorage2.sol\":83:12625  contract HashJingSVGStorage2 {... */\n  jump(tag_6)\n    /* \"contracts/SSTORE2.sol\":583:1043  function write(bytes memory _data) internal returns (address pointer) {... */\ntag_5:\n    /* \"contracts/SSTORE2.sol\":636:651  address pointer */\n  0x00\n    /* \"contracts/SSTORE2.sol\":736:753  bytes memory code */\n  dup1\n    /* \"contracts/SSTORE2.sol\":756:850  Bytecode.creationCodeFor(... */\n  tag_8\n    /* \"contracts/SSTORE2.sol\":831:836  _data */\n  dup4\n    /* \"contracts/SSTORE2.sol\":788:844  abi.encodePacked(... */\n  add(0x20, mload(0x40))\n  tag_9\n  swap2\n  swap1\n  tag_10\n  jump\t// in\ntag_9:\n  mload(0x40)\n  0x20\n  dup2\n  dup4\n  sub\n  sub\n  dup2\n  mstore\n  swap1\n  0x40\n  mstore\n    /* \"contracts/SSTORE2.sol\":756:780  Bytecode.creationCodeFor */\n  shl(0x20, tag_11)\n    /* \"contracts/SSTORE2.sol\":756:850  Bytecode.creationCodeFor(... */\n  0x20\n  shr\n  jump\t// in\ntag_8:\n    /* \"contracts/SSTORE2.sol\":736:850  bytes memory code = Bytecode.creationCodeFor(... */\n  swap1\n  pop\n    /* \"contracts/SSTORE2.sol\":946:950  code */\n  dup1\n    /* \"contracts/SSTORE2.sol\":940:951  mload(code) */\n  mload\n    /* \"contracts/SSTORE2.sol\":935:937  32 */\n  0x20\n    /* \"contracts/SSTORE2.sol\":929:933  code */\n  dup3\n    /* \"contracts/SSTORE2.sol\":925:938  add(code, 32) */\n  add\n    /* \"contracts/SSTORE2.sol\":922:923  0 */\n  0x00\n    /* \"contracts/SSTORE2.sol\":915:952  create(0, add(code, 32), mload(code)) */\n  create\n    /* \"contracts/SSTORE2.sol\":904:952  pointer := create(0, add(code, 32), mload(code)) */\n  swap2\n  pop\n    /* \"contracts/SSTORE2.sol\":1015:1016  0 */\n  0x00\n    /* \"contracts/SSTORE2.sol\":996:1017  pointer == address(0) */\n  0xffffffffffffffffffffffffffffffffffffffff\n  and\n    /* \"contracts/SSTORE2.sol\":996:1003  pointer */\n  dup3\n    /* \"contracts/SSTORE2.sol\":996:1017  pointer == address(0) */\n  0xffffffffffffffffffffffffffffffffffffffff\n  and\n  sub\n    /* \"contracts/SSTORE2.sol\":992:1038  if (pointer == address(0)) revert WriteError() */\n  tag_12\n  jumpi\n    /* \"contracts/SSTORE2.sol\":1026:1038  WriteError() */\n  mload(0x40)\n  0x08d4abb600000000000000000000000000000000000000000000000000000000\n  dup2\n  mstore\n  0x04\n  add\n  mload(0x40)\n  dup1\n  swap2\n  sub\n  swap1\n  revert\n    /* \"contracts/SSTORE2.sol\":992:1038  if (pointer == address(0)) revert WriteError() */\ntag_12:\n    /* \"contracts/SSTORE2.sol\":653:1043  {... */\n  pop\n    /* \"contracts/SSTORE2.sol\":583:1043  function write(bytes memory _data) internal returns (address pointer) {... */\n  swap2\n  swap1\n  pop\n  jump\t// out\n    /* \"contracts/utils/Bytecode.sol\":378:1078  function creationCodeFor(bytes memory _code) internal pure returns (bytes memory) {... */\ntag_11:\n    /* \"contracts/utils/Bytecode.sol\":446:458  bytes memory */\n  0x60\n    /* \"contracts/utils/Bytecode.sol\":1002:1007  _code */\n  dup2\n    /* \"contracts/utils/Bytecode.sol\":1002:1014  _code.length */\n  mload\n    /* \"contracts/utils/Bytecode.sol\":1062:1067  _code */\n  dup3\n    /* \"contracts/utils/Bytecode.sol\":956:1073  abi.encodePacked(... */\n  add(0x20, mload(0x40))\n  tag_14\n  swap3\n  swap2\n  swap1\n  tag_15\n  jump\t// in\ntag_14:\n  mload(0x40)\n  0x20\n  dup2\n  dup4\n  sub\n  sub\n  dup2\n  mstore\n  swap1\n  0x40\n  mstore\n    /* \"contracts/utils/Bytecode.sol\":949:1073  return abi.encodePacked(... */\n  swap1\n  pop\n    /* \"contracts/utils/Bytecode.sol\":378:1078  function creationCodeFor(bytes memory _code) internal pure returns (bytes memory) {... */\n  swap2\n  swap1\n  pop\n  jump\t// out\n    /* \"#utility.yul\":7:155   */\ntag_16:\n    /* \"#utility.yul\":109:120   */\n  0x00\n    /* \"#utility.yul\":146:149   */\n  dup2\n    /* \"#utility.yul\":131:149   */\n  swap1\n  pop\n    /* \"#utility.yul\":7:155   */\n  swap3\n  swap2\n  pop\n  pop\n  jump\t// out\n    /* \"#utility.yul\":161:375   */\ntag_17:\n    /* \"#utility.yul\":301:367   */\n  0x00\n    /* \"#utility.yul\":297:298   */\n  dup1\n    /* \"#utility.yul\":289:295   */\n  dup3\n    /* \"#utility.yul\":285:299   */\n  add\n    /* \"#utility.yul\":278:368   */\n  mstore\n    /* \"#utility.yul\":161:375   */\n  pop\n  jump\t// out\n    /* \"#utility.yul\":381:781   */\ntag_18:\n    /* \"#utility.yul\":541:544   */\n  0x00\n    /* \"#utility.yul\":562:646   */\n  tag_35\n    /* \"#utility.yul\":644:645   */\n  0x01\n    /* \"#utility.yul\":639:642   */\n  dup4\n    /* \"#utility.yul\":562:646   */\n  tag_16\n  jump\t// in\ntag_35:\n    /* \"#utility.yul\":555:646   */\n  swap2\n  pop\n    /* \"#utility.yul\":655:748   */\n  tag_36\n    /* \"#utility.yul\":744:747   */\n  dup3\n    /* \"#utility.yul\":655:748   */\n  tag_17\n  jump\t// in\ntag_36:\n    /* \"#utility.yul\":773:774   */\n  0x01\n    /* \"#utility.yul\":768:771   */\n  dup3\n    /* \"#utility.yul\":764:775   */\n  add\n    /* \"#utility.yul\":757:775   */\n  swap1\n  pop\n    /* \"#utility.yul\":381:781   */\n  swap2\n  swap1\n  pop\n  jump\t// out\n    /* \"#utility.yul\":787:885   */\ntag_19:\n    /* \"#utility.yul\":838:844   */\n  0x00\n    /* \"#utility.yul\":872:877   */\n  dup2\n    /* \"#utility.yul\":866:878   */\n  mload\n    /* \"#utility.yul\":856:878   */\n  swap1\n  pop\n    /* \"#utility.yul\":787:885   */\n  swap2\n  swap1\n  pop\n  jump\t// out\n    /* \"#utility.yul\":891:1038   */\ntag_20:\n    /* \"#utility.yul\":992:1003   */\n  0x00\n    /* \"#utility.yul\":1029:1032   */\n  dup2\n    /* \"#utility.yul\":1014:1032   */\n  swap1\n  pop\n    /* \"#utility.yul\":891:1038   */\n  swap3\n  swap2\n  pop\n  pop\n  jump\t// out\n    /* \"#utility.yul\":1044:1183   */\ntag_21:\n    /* \"#utility.yul\":1133:1139   */\n  dup3\n    /* \"#utility.yul\":1128:1131   */\n  dup2\n    /* \"#utility.yul\":1123:1126   */\n  dup4\n    /* \"#utility.yul\":1117:1140   */\n  mcopy\n    /* \"#utility.yul\":1174:1175   */\n  0x00\n    /* \"#utility.yul\":1165:1171   */\n  dup4\n    /* \"#utility.yul\":1160:1163   */\n  dup4\n    /* \"#utility.yul\":1156:1172   */\n  add\n    /* \"#utility.yul\":1149:1176   */\n  mstore\n    /* \"#utility.yul\":1044:1183   */\n  pop\n  pop\n  pop\n  jump\t// out\n    /* \"#utility.yul\":1189:1575   */\ntag_22:\n    /* \"#utility.yul\":1293:1296   */\n  0x00\n    /* \"#utility.yul\":1321:1359   */\n  tag_41\n    /* \"#utility.yul\":1353:1358   */\n  dup3\n    /* \"#utility.yul\":1321:1359   */\n  tag_19\n  jump\t// in\ntag_41:\n    /* \"#utility.yul\":1375:1463   */\n  tag_42\n    /* \"#utility.yul\":1456:1462   */\n  dup2\n    /* \"#utility.yul\":1451:1454   */\n  dup6\n    /* \"#utility.yul\":1375:1463   */\n  tag_20\n  jump\t// in\ntag_42:\n    /* \"#utility.yul\":1368:1463   */\n  swap4\n  pop\n    /* \"#utility.yul\":1472:1537   */\n  tag_43\n    /* \"#utility.yul\":1530:1536   */\n  dup2\n    /* \"#utility.yul\":1525:1528   */\n  dup6\n    /* \"#utility.yul\":1518:1522   */\n  0x20\n    /* \"#utility.yul\":1511:1516   */\n  dup7\n    /* \"#utility.yul\":1507:1523   */\n  add\n    /* \"#utility.yul\":1472:1537   */\n  tag_21\n  jump\t// in\ntag_43:\n    /* \"#utility.yul\":1562:1568   */\n  dup1\n    /* \"#utility.yul\":1557:1560   */\n  dup5\n    /* \"#utility.yul\":1553:1569   */\n  add\n    /* \"#utility.yul\":1546:1569   */\n  swap2\n  pop\n    /* \"#utility.yul\":1297:1575   */\n  pop\n    /* \"#utility.yul\":1189:1575   */\n  swap3\n  swap2\n  pop\n  pop\n  jump\t// out\n    /* \"#utility.yul\":1581:2118   */\ntag_10:\n    /* \"#utility.yul\":1812:1815   */\n  0x00\n    /* \"#utility.yul\":1834:1982   */\n  tag_45\n    /* \"#utility.yul\":1978:1981   */\n  dup3\n    /* \"#utility.yul\":1834:1982   */\n  tag_18\n  jump\t// in\ntag_45:\n    /* \"#utility.yul\":1827:1982   */\n  swap2\n  pop\n    /* \"#utility.yul\":1999:2092   */\n  tag_46\n    /* \"#utility.yul\":2088:2091   */\n  dup3\n    /* \"#utility.yul\":2079:2085   */\n  dup5\n    /* \"#utility.yul\":1999:2092   */\n  tag_22\n  jump\t// in\ntag_46:\n    /* \"#utility.yul\":1992:2092   */\n  swap2\n  pop\n    /* \"#utility.yul\":2109:2112   */\n  dup2\n    /* \"#utility.yul\":2102:2112   */\n  swap1\n  pop\n    /* \"#utility.yul\":1581:2118   */\n  swap3\n  swap2\n  pop\n  pop\n  jump\t// out\n    /* \"#utility.yul\":2124:2275   */\ntag_23:\n    /* \"#utility.yul\":2264:2267   */\n  0x6300000000000000000000000000000000000000000000000000000000000000\n    /* \"#utility.yul\":2260:2261   */\n  0x00\n    /* \"#utility.yul\":2252:2258   */\n  dup3\n    /* \"#utility.yul\":2248:2262   */\n  add\n    /* \"#utility.yul\":2241:2268   */\n  mstore\n    /* \"#utility.yul\":2124:2275   */\n  pop\n  jump\t// out\n    /* \"#utility.yul\":2281:2681   */\ntag_24:\n    /* \"#utility.yul\":2441:2444   */\n  0x00\n    /* \"#utility.yul\":2462:2546   */\n  tag_49\n    /* \"#utility.yul\":2544:2545   */\n  0x01\n    /* \"#utility.yul\":2539:2542   */\n  dup4\n    /* \"#utility.yul\":2462:2546   */\n  tag_16\n  jump\t// in\ntag_49:\n    /* \"#utility.yul\":2455:2546   */\n  swap2\n  pop\n    /* \"#utility.yul\":2555:2648   */\n  tag_50\n    /* \"#utility.yul\":2644:2647   */\n  dup3\n    /* \"#utility.yul\":2555:2648   */\n  tag_23\n  jump\t// in\ntag_50:\n    /* \"#utility.yul\":2673:2674   */\n  0x01\n    /* \"#utility.yul\":2668:2671   */\n  dup3\n    /* \"#utility.yul\":2664:2675   */\n  add\n    /* \"#utility.yul\":2657:2675   */\n  swap1\n  pop\n    /* \"#utility.yul\":2281:2681   */\n  swap2\n  swap1\n  pop\n  jump\t// out\n    /* \"#utility.yul\":2687:2780   */\ntag_25:\n    /* \"#utility.yul\":2723:2730   */\n  0x00\n    /* \"#utility.yul\":2763:2773   */\n  0xffffffff\n    /* \"#utility.yul\":2756:2761   */\n  dup3\n    /* \"#utility.yul\":2752:2774   */\n  and\n    /* \"#utility.yul\":2741:2774   */\n  swap1\n  pop\n    /* \"#utility.yul\":2687:2780   */\n  swap2\n  swap1\n  pop\n  jump\t// out\n    /* \"#utility.yul\":2786:2882   */\ntag_26:\n    /* \"#utility.yul\":2820:2828   */\n  0x00\n    /* \"#utility.yul\":2869:2874   */\n  dup2\n    /* \"#utility.yul\":2864:2867   */\n  0xe0\n    /* \"#utility.yul\":2860:2875   */\n  shl\n    /* \"#utility.yul\":2839:2875   */\n  swap1\n  pop\n    /* \"#utility.yul\":2786:2882   */\n  swap2\n  swap1\n  pop\n  jump\t// out\n    /* \"#utility.yul\":2888:2982   */\ntag_27:\n    /* \"#utility.yul\":2926:2933   */\n  0x00\n    /* \"#utility.yul\":2955:2976   */\n  tag_54\n    /* \"#utility.yul\":2970:2975   */\n  dup3\n    /* \"#utility.yul\":2955:2976   */\n  tag_26\n  jump\t// in\ntag_54:\n    /* \"#utility.yul\":2944:2976   */\n  swap1\n  pop\n    /* \"#utility.yul\":2888:2982   */\n  swap2\n  swap1\n  pop\n  jump\t// out\n    /* \"#utility.yul\":2988:3141   */\ntag_28:\n    /* \"#utility.yul\":3091:3134   */\n  tag_56\n    /* \"#utility.yul\":3110:3133   */\n  tag_57\n    /* \"#utility.yul\":3127:3132   */\n  dup3\n    /* \"#utility.yul\":3110:3133   */\n  tag_25\n  jump\t// in\ntag_57:\n    /* \"#utility.yul\":3091:3134   */\n  tag_27\n  jump\t// in\ntag_56:\n    /* \"#utility.yul\":3086:3089   */\n  dup3\n    /* \"#utility.yul\":3079:3135   */\n  mstore\n    /* \"#utility.yul\":2988:3141   */\n  pop\n  pop\n  jump\t// out\n    /* \"#utility.yul\":3147:3361   */\ntag_29:\n    /* \"#utility.yul\":3287:3353   */\n  0x80600e6000396000f30000000000000000000000000000000000000000000000\n    /* \"#utility.yul\":3283:3284   */\n  0x00\n    /* \"#utility.yul\":3275:3281   */\n  dup3\n    /* \"#utility.yul\":3271:3285   */\n  add\n    /* \"#utility.yul\":3264:3354   */\n  mstore\n    /* \"#utility.yul\":3147:3361   */\n  pop\n  jump\t// out\n    /* \"#utility.yul\":3367:3767   */\ntag_30:\n    /* \"#utility.yul\":3527:3530   */\n  0x00\n    /* \"#utility.yul\":3548:3632   */\n  tag_60\n    /* \"#utility.yul\":3630:3631   */\n  0x09\n    /* \"#utility.yul\":3625:3628   */\n  dup4\n    /* \"#utility.yul\":3548:3632   */\n  tag_16\n  jump\t// in\ntag_60:\n    /* \"#utility.yul\":3541:3632   */\n  swap2\n  pop\n    /* \"#utility.yul\":3641:3734   */\n  tag_61\n    /* \"#utility.yul\":3730:3733   */\n  dup3\n    /* \"#utility.yul\":3641:3734   */\n  tag_29\n  jump\t// in\ntag_61:\n    /* \"#utility.yul\":3759:3760   */\n  0x09\n    /* \"#utility.yul\":3754:3757   */\n  dup3\n    /* \"#utility.yul\":3750:3761   */\n  add\n    /* \"#utility.yul\":3743:3761   */\n  swap1\n  pop\n    /* \"#utility.yul\":3367:3767   */\n  swap2\n  swap1\n  pop\n  jump\t// out\n    /* \"#utility.yul\":3773:4712   */\ntag_15:\n    /* \"#utility.yul\":4131:4134   */\n  0x00\n    /* \"#utility.yul\":4153:4301   */\n  tag_63\n    /* \"#utility.yul\":4297:4300   */\n  dup3\n    /* \"#utility.yul\":4153:4301   */\n  tag_24\n  jump\t// in\ntag_63:\n    /* \"#utility.yul\":4146:4301   */\n  swap2\n  pop\n    /* \"#utility.yul\":4311:4384   */\n  tag_64\n    /* \"#utility.yul\":4380:4383   */\n  dup3\n    /* \"#utility.yul\":4371:4377   */\n  dup6\n    /* \"#utility.yul\":4311:4384   */\n  tag_28\n  jump\t// in\ntag_64:\n    /* \"#utility.yul\":4409:4410   */\n  0x04\n    /* \"#utility.yul\":4404:4407   */\n  dup3\n    /* \"#utility.yul\":4400:4411   */\n  add\n    /* \"#utility.yul\":4393:4411   */\n  swap2\n  pop\n    /* \"#utility.yul\":4428:4576   */\n  tag_65\n    /* \"#utility.yul\":4572:4575   */\n  dup3\n    /* \"#utility.yul\":4428:4576   */\n  tag_30\n  jump\t// in\ntag_65:\n    /* \"#utility.yul\":4421:4576   */\n  swap2\n  pop\n    /* \"#utility.yul\":4593:4686   */\n  tag_66\n    /* \"#utility.yul\":4682:4685   */\n  dup3\n    /* \"#utility.yul\":4673:4679   */\n  dup5\n    /* \"#utility.yul\":4593:4686   */\n  tag_22\n  jump\t// in\ntag_66:\n    /* \"#utility.yul\":4586:4686   */\n  swap2\n  pop\n    /* \"#utility.yul\":4703:4706   */\n  dup2\n    /* \"#utility.yul\":4696:4706   */\n  swap1\n  pop\n    /* \"#utility.yul\":3773:4712   */\n  swap4\n  swap3\n  pop\n  pop\n  pop\n  jump\t// out\n    /* \"contracts/HashJingSVGStorage2.sol\":83:12625  contract HashJingSVGStorage2 {... */\ntag_6:\n  mload(0x80)\n  codecopy(0x00, dataOffset(sub_0), dataSize(sub_0))\n  0x00\n  assignImmutable(\"0x7749cc8014201da2069c21d93ba99c584b6f62d393fde534ed47eac227e31561\")\n  return(0x00, dataSize(sub_0))\nstop\ndata_e8eda97ff2098e5662330aef6b80857465c40a178122744a449a9fcdc510af78 3835353720412033323020333230203020302030203636322e38343639353537383433313933203232392e3738353139353430383532363432205a222066696c6c3d22626c61636b22207374726f6b653d22626c61636b22207374726f6b652d77696474683d2231222f3e0a3c7061746820643d224d203538372e34323334373738393231353937203337302e3839323539373730343236333220412031363020313630203020302031203630302e38393132333732383331333634203337382e39363438363230333135393238204c203634352e33333638353539323437303435203331322e343437323933303437333839313720412032343020323430203020302030203632352e31333532313638333832333934203330302e3333383839363535363339343834205a222066696c6c3d22626c61636b22207374726f6b653d22626c61636b22207374726f6b652d77696474683d2231222f3e0a3c7061746820643d224d203733342e32323830393332303738343039203137392e343132313535303738393831393320412034303020343030203020302031203736352e37353733313336363534353832203230322e3739353831383635343930353235204c203831362e35303837373633393835343939203134302e3935343938323338353838363320412034383020343830203020302030203737382e36373337313138343934303931203131322e3839343538363039343737383333205a222066696c6c3d22626c61636b22207374726f6b653d22626c61636b22207374726f6b652d77696474683d2231222f3e0a3c7061746820643d224d203638392e37383234373435363632373238203234352e393239373234303633313835353720412033323020333230203020302031203731352e30303538353039333233363636203236342e36333636353439323339323432204c203736352e37353733313336363534353832203230322e373935383138363534393035323520412034303020343030203020302030203733342e32323830393332303738343039203137392e3431323135353037383938313933205a222066696c6c3d22626c61636b22207374726f6b653d22626c61636b22207374726f6b652d77696474683d2231222f3e0a3c7061746820643d224d203634352e33333638353539323437303435203331322e343437323933303437333839313720412032343020323430203020302031203636342e32353433383831393932373439203332362e3437373439313139323934333135204c203731352e30303538353039333233363636203236342e3633363635343932333932343220412033323020333230203020302030203638392e37383234373435363632373238203234352e3932393732343036333138353537205a222066696c6c3d22626c61636b22207374726f6b653d22626c61636b22207374726f6b652d77696474683d2231222f3e0a3c7061746820643d224d203630302e38393132333732383331333633203337382e3936343836323033313539323820412031363020313630203020302031203631332e35303239323534363631383333203338382e33313833323734363139363231204c203636342e32353433383831393932373439203332362e343737343931313932393433313520412032343020323430203020302030203634352e33333638353539323437303435203331322e3434373239333034373338393137205a222066696c6c3d22626c61636b22207374726f6b653d22626c61636b22207374726f6b652d77696474683d2231222f3e0a3c7061746820643d224d203736352e37353733313336363534353832203230322e373935383138363534393035323520412034303020343030203020302031203739342e383432373132343734363139203232392e3135373238373532353338313034204c203835312e34313132353439363935343238203137322e353838373435303330343537323320412034383020343830203020302030203831362e35303837373633393835343939203134302e39353439383233383538383633205a222066696c6c3d22626c61636b22207374726f6b653d22626c61636b22207374726f6b652d77696474683d2231222f3e0a3c7061746820643d224d203731352e30303538353039333233363636203236342e3633363635343932333932343220412033323020333230203020302031203733382e32373431363939373936393532203238352e37323538333030323033303438204c203739342e383432373132343734363139203232392e313537323837353235333831303420412034303020343030203020302030203736352e37353733313336363534353832203230322e3739353831383635343930353235205a222066696c6c3d22626c61636b22207374726f6b653d22626c61636b22207374726f6b652d77696474683d2231222f3e0a3c7061746820643d224d203636342e32353433383831393932373439203332362e343737343931313932393433313520412032343020323430203020302031203638312e37303536323734383437373134203334322e32393433373235313532323836204c203733382e32373431363939373936393532203238352e3732353833303032303330343820412033323020333230203020302030203731352e30303538353039333233363636203236342e36333636353439323339323432205a222066696c6c3d22626c61636b22207374726f6b653d22626c61636b22207374726f6b652d77696474683d2231222f3e0a3c7061746820643d224d203631332e35303239323534363631383333203338382e3331383332373436313936323120412031363020313630203020302031203632352e31333730383439383938343736203339382e38363239313530313031353234204c203638312e37303536323734383437373134203334322e3239343337323531353232383620412032343020323430203020302030203636342e32353433383831393932373439203332362e3437373439313139323934333135205a222066696c6c3d22626c61636b22207374726f6b653d22626c61636b22207374726f6b652d77696474683d2231222f3e0a3c7061746820643d224d203739342e383432373132343734363139203232392e313537323837353235333831303420412034303020343030203020302031203832312e32303431383133343530393439203235382e32343236383633333435343138204c203838332e30343530313736313431313337203230372e343931323233363031343530313420412034383020343830203020302030203835312e34313132353439363935343238203137322e3538383734353033303435373233205a222066696c6c3d22626c61636b22207374726f6b653d22626c61636b22207374726f6b652d77696474683d2231222f3e0a3c7061746820643d224d203733382e32373431363939373936393532203238352e3732353833303032303330343820412033323020333230203020302031203735392e33363333343530373630373538203330382e3939343134393036373633333433204c203832312e32303431383133343530393439203235382e3234323638363333343534313820412034303020343030203020302030203739342e383432373132343734363139203232392e3135373238373532353338313034205a222066696c6c3d22626c61636b22207374726f6b653d22626c61636b22207374726f6b652d77696474683d2231222f3e0a3c7061746820643d224d203638312e37303536323734383437373134203334322e3239343337323531353232383620412032343020323430203020302031203639372e35323235303838303730353639203335392e37343536313138303037323531204c203735392e33363333343530373630373538203330382e393934313439303637363333343320412033323020333230203020302030203733382e32373431363939373936393532203238352e37323538333030323033303438205a222066696c6c3d22626c61636b22207374726f6b653d22626c61636b22207374726f6b652d77696474683d2231222f3e0a3c7061746820643d224d203632352e31333730383439383938343736203339382e3836323931353031303135323420412031363020313630203020302031203633352e36383136373235333830333739203431302e34393730373435333338313637204c203639372e35323235303838303730353639203335392e3734353631313830303732353120412032343020323430203020302030203638312e37303536323734383437373134203334322e32393433373235313532323836205a222066696c6c3d22626c61636b22207374726f6b653d22626c61636b22207374726f6b652d77696474683d2231222f3e0a3c7061746820643d224d203832312e32303431383133343530393439203235382e3234323638363333343534313820412034303020343030203020302031203834342e35383738343439323130313831203238392e3737313930363739323135393134204c203931312e31303534313339303532323137203234352e333236323838313530353930393320412034383020343830203020302030203838332e30343530313736313431313337203230372e3439313232333630313435303134205a222066696c6c3d22626c61636b22207374726f6b653d22626c61636b22207374726f6b652d77696474683d2231222f3e0a3c7061746820643d224d203735392e33363333343530373630373538203330382e393934313439303637363333343320412033323020333230203020302031203737382e30373032373539333638313435203333342e32313735323534333337323733204c203834342e35383738343439323130313831203238392e373731393036373932313539313420412034303020343030203020302030203832312e32303431383133343530393439203235382e32343236383633333435343138205a222066696c6c3d22626c61636b22207374726f6b653d22626c61636b22207374726f6b652d77696474683d2231222f3e0a3c7061746820643d224d203639372e35323235303838303730353639203335392e3734353631313830303732353120412032343020323430203020302031203731312e35353237303639353236313038203337382e3636333134343037353239353436204c203737382e30373032373539333638313435203333342e3231373532353433333732373320412033323020333230203020302030203735392e33363333343530373630373538203330382e3939343134393036373633333433205a222066696c6c3d22626c61636b22207374726f6b653d22626c61636b22207374726f6b652d77696474683d2231222f3e0a3c7061746820643d224d203633352e36383136373235333830333739203431302e3439373037343533333831363720412031363020313630203020302031203634352e30333531333739363834303733203432332e31303837363237313638363337204c203731312e35353237303639353236313038203337382e363633313434303735323935343620412032343020323430203020302030203639372e35323235303838303730353639203335392e37343536313138303037323531205a222066696c6c3d22626c61636b22207374726f6b653d22626c61636b22207374726f6b652d77696474683d2231222f3e0a3c7061746820643d224d203834342e35383738343439323130313831203238392e373731393036373932313539313420412034303020343030203020302031203836342e373638353035373339333432203332332e3434313330353236393630303935204c203933352e33323232303638383732313034203238352e3732393536363332333532313120412034383020343830203020302030203931312e31303534313339303532323137203234352e3332363238383135303539303933205a222066696c6c3d22626c61636b22207374726f6b653d22626c61636b22207374726f6b652d77696474683d2231222f3e0a3c7061746820643d224d203737382e30373032373539333638313435203333342e3231373532353433333732373320412033323020333230203020302031203739342e32313438303435393134373337203336312e31353330343432313536383038204c203836342e373638353035373339333432203332332e343431333035323639363030393520412034303020343030203020302030203834342e35383738343439323130313831203238392e3737313930363739323135393134205a222066696c6c3d22626c61636b22207374726f6b653d22626c61636b22207374726f6b652d77696474683d2231222f3e0a3c7061746820643d224d203731312e35353237303639353236313038203337382e363633313434303735323935343620412032343020323430203020302031203732332e36363131303334343336303533203339382e3836343738333136313736303536204c203739342e32313438303435393134373337203336312e3135333034343231353638303820412033323020333230203020302030203737382e30373032373539333638313435203333342e32313735323534333337323733205a222066696c6c3d22626c61636b22207374726f6b653d22626c61636b22207374726f6b652d77696474683d2231222f3e0a3c7061746820643d224d203634352e30333531333739363834303733203432332e3130383736323731363836333720412031363020313630203020302031203635332e31303734303232393537333638203433362e35373635323231303738343034204c203732332e36363131303334343336303533203339382e383634373833313631373630353620412032343020323430203020302030203731312e35353237303639353236313038203337382e3636333134343037353239353436205a222066696c6c3d22626c61636b22207374726f6b653d22626c61636b22207374726f6b652d77696474683d2231222f3e0a3c7061746820643d224d203836342e373638353035373339333432203332332e3434313330353236393630303920412034303020343030203020302031203838312e35353138313330303435313438203335382e3932363632373035333936343037204c203935352e34363231373536303534313737203332382e333131393532343634373536383720412034383020343830203020302030203933352e33323232303638383732313033203238352e37323935363633323335323131205a222066696c6c3d22626c61636b22207374726f6b653d22626c61636b22207374726f6b652d77696474683d2231222f3e0a3c7061746820643d224d203739342e32313438303435393134373336203336312e3135333034343231353638303720412033323020333230203020302031203830372e36343134353034303336313138203338392e3534313330313634333137313237204c203838312e35353138313330303435313438203335382e393236363237303533393634303720412034303020343030203020302030203836342e373638353035373339333432203332332e34343133303532363936303039205a222066696c6c3d22626c61636b22207374726f6b653d22626c61636b22207374726f6b652d77696474683d2231222f3e0a3c7061746820643d224d203732332e36363131303334343336303532203339382e383634373833313631373630353620412032343020323430203020302031203733332e37333130383738303237303838203432302e31353539373632333233373834204c203830372e36343134353034303336313138203338392e353431333031363433313731323720412033323020333230203020302030203739342e32313438303435393134373336203336312e31353330343432313536383037205a222066696c6c3d22626c61636b22207374726f6b653d22626c61636b22207374726f6b652d77696474683d2231222f3e0a3c7061746820643d224d203635332e31303734303232393537333638203433362e353736353232313037383430333320412031363020313630203020302031203635392e38323037323532303138303539203435302e37373036353038323135383536204c203733332e37333130383738303237303838203432302e3135353937363233323337383420412032343020323430203020302030203732332e36363131303334343336303532203339382e3836343738333136313736303536205a222066696c6c3d22626c61636b22207374726f6b653d22626c61636b22207374726f6b652d77696474683d2231222f3e0a3c7061746820643d224d203838312e353531\n\nsub_0: assembly {\n        /* \"contracts/HashJingSVGStorage2.sol\":83:12625  contract HashJingSVGStorage2 {... */\n      mstore(0x40, 0x80)\n      callvalue\n      dup1\n      iszero\n      tag_1\n      jumpi\n      0x00\n      dup1\n      revert\n    tag_1:\n      pop\n      jumpi(tag_2, lt(calldatasize, 0x04))\n      shr(0xe0, calldataload(0x00))\n      dup1\n      0xedcf506e\n      eq\n      tag_3\n      jumpi\n      dup1\n      0xf5668524\n      eq\n      tag_4\n      jumpi\n    tag_2:\n      0x00\n      dup1\n      revert\n        /* \"contracts/HashJingSVGStorage2.sol\":118:152  address public immutable svgChunk2 */\n    tag_3:\n      tag_5\n      tag_6\n      jump\t// in\n    tag_5:\n      mload(0x40)\n      tag_7\n      swap2\n      swap1\n      tag_8\n      jump\t// in\n    tag_7:\n      mload(0x40)\n      dup1\n      swap2\n      sub\n      swap1\n      return\n        /* \"contracts/HashJingSVGStorage2.sol\":12538:12623  function getChunk() external view returns (address) {... */\n    tag_4:\n      tag_9\n      tag_10\n      jump\t// in\n    tag_9:\n      mload(0x40)\n      tag_11\n      swap2\n      swap1\n      tag_8\n      jump\t// in\n    tag_11:\n      mload(0x40)\n      dup1\n      swap2\n      sub\n      swap1\n      return\n        /* \"contracts/HashJingSVGStorage2.sol\":118:152  address public immutable svgChunk2 */\n    tag_6:\n      immutable(\"0x7749cc8014201da2069c21d93ba99c584b6f62d393fde534ed47eac227e31561\")\n      dup2\n      jump\t// out\n        /* \"contracts/HashJingSVGStorage2.sol\":12538:12623  function getChunk() external view returns (address) {... */\n    tag_10:\n        /* \"contracts/HashJingSVGStorage2.sol\":12581:12588  address */\n      0x00\n        /* \"contracts/HashJingSVGStorage2.sol\":12607:12616  svgChunk2 */\n      immutable(\"0x7749cc8014201da2069c21d93ba99c584b6f62d393fde534ed47eac227e31561\")\n        /* \"contracts/HashJingSVGStorage2.sol\":12600:12616  return svgChunk2 */\n      swap1\n      pop\n        /* \"contracts/HashJingSVGStorage2.sol\":12538:12623  function getChunk() external view returns (address) {... */\n      swap1\n      jump\t// out\n        /* \"#utility.yul\":7:133   */\n    tag_13:\n        /* \"#utility.yul\":44:51   */\n      0x00\n        /* \"#utility.yul\":84:126   */\n      0xffffffffffffffffffffffffffffffffffffffff\n        /* \"#utility.yul\":77:82   */\n      dup3\n        /* \"#utility.yul\":73:127   */\n      and\n        /* \"#utility.yul\":62:127   */\n      swap1\n      pop\n        /* \"#utility.yul\":7:133   */\n      swap2\n      swap1\n      pop\n      jump\t// out\n        /* \"#utility.yul\":139:235   */\n    tag_14:\n        /* \"#utility.yul\":176:183   */\n      0x00\n        /* \"#utility.yul\":205:229   */\n      tag_19\n        /* \"#utility.yul\":223:228   */\n      dup3\n        /* \"#utility.yul\":205:229   */\n      tag_13\n      jump\t// in\n    tag_19:\n        /* \"#utility.yul\":194:229   */\n      swap1\n      pop\n        /* \"#utility.yul\":139:235   */\n      swap2\n      swap1\n      pop\n      jump\t// out\n        /* \"#utility.yul\":241:359   */\n    tag_15:\n        /* \"#utility.yul\":328:352   */\n      tag_21\n        /* \"#utility.yul\":346:351   */\n      dup2\n        /* \"#utility.yul\":328:352   */\n      tag_14\n      jump\t// in\n    tag_21:\n        /* \"#utility.yul\":323:326   */\n      dup3\n        /* \"#utility.yul\":316:353   */\n      mstore\n        /* \"#utility.yul\":241:359   */\n      pop\n      pop\n      jump\t// out\n        /* \"#utility.yul\":365:587   */\n    tag_8:\n        /* \"#utility.yul\":458:462   */\n      0x00\n        /* \"#utility.yul\":496:498   */\n      0x20\n        /* \"#utility.yul\":485:494   */\n      dup3\n        /* \"#utility.yul\":481:499   */\n      add\n        /* \"#utility.yul\":473:499   */\n      swap1\n      pop\n        /* \"#utility.yul\":509:580   */\n      tag_23\n        /* \"#utility.yul\":577:578   */\n      0x00\n        /* \"#utility.yul\":566:575   */\n      dup4\n        /* \"#utility.yul\":562:579   */\n      add\n        /* \"#utility.yul\":553:559   */\n      dup5\n        /* \"#utility.yul\":509:580   */\n      tag_15\n      jump\t// in\n    tag_23:\n        /* \"#utility.yul\":365:587   */\n      swap3\n      swap2\n      pop\n      pop\n      jump\t// out\n\n    auxdata: 0xa26469706673582212205320c233431cbd347627c2048de45acd8a5750b5c12a43ebd188e4c41180ce2664736f6c634300081a0033\n}\n",
				"bytecode": {
					"linkReferences": {},
					"object": "60a060405234801561000f575f80fd5b5061003a604051806118200160405280611800815260200161046a611800913961007260201b60201c565b73ffffffffffffffffffffffffffffffffffffffff1660808173ffffffffffffffffffffffffffffffffffffffff1681525050610300565b5f806100a28360405160200161008891906101cb565b60405160208183030381529060405261011960201b60201c565b90508051602082015ff091505f73ffffffffffffffffffffffffffffffffffffffff168273ffffffffffffffffffffffffffffffffffffffff1603610113576040517f08d4abb600000000000000000000000000000000000000000000000000000000815260040160405180910390fd5b50919050565b606081518260405160200161012f9291906102c3565b6040516020818303038152906040529050919050565b5f81905092915050565b5f8082015250565b5f610163600183610145565b915061016e8261014f565b600182019050919050565b5f81519050919050565b5f81905092915050565b8281835e5f83830152505050565b5f6101a582610179565b6101af8185610183565b93506101bf81856020860161018d565b80840191505092915050565b5f6101d582610157565b91506101e1828461019b565b915081905092915050565b7f63000000000000000000000000000000000000000000000000000000000000005f82015250565b5f610220600183610145565b915061022b826101ec565b600182019050919050565b5f63ffffffff82169050919050565b5f8160e01b9050919050565b5f61025b82610245565b9050919050565b61027361026e82610236565b610251565b82525050565b7f80600e6000396000f300000000000000000000000000000000000000000000005f82015250565b5f6102ad600983610145565b91506102b882610279565b600982019050919050565b5f6102cd82610214565b91506102d98285610262565b6004820191506102e8826102a1565b91506102f4828461019b565b91508190509392505050565b60805161014d61031d5f395f818160760152609b015261014d5ff3fe608060405234801561000f575f80fd5b5060043610610034575f3560e01c8063edcf506e14610038578063f566852414610056575b5f80fd5b610040610074565b60405161004d91906100fe565b60405180910390f35b61005e610098565b60405161006b91906100fe565b60405180910390f35b7f000000000000000000000000000000000000000000000000000000000000000081565b5f7f0000000000000000000000000000000000000000000000000000000000000000905090565b5f73ffffffffffffffffffffffffffffffffffffffff82169050919050565b5f6100e8826100bf565b9050919050565b6100f8816100de565b82525050565b5f6020820190506101115f8301846100ef565b9291505056fea26469706673582212205320c233431cbd347627c2048de45acd8a5750b5c12a43ebd188e4c41180ce2664736f6c634300081a00333835353720412033323020333230203020302030203636322e38343639353537383433313933203232392e3738353139353430383532363432205a222066696c6c3d22626c61636b22207374726f6b653d22626c61636b22207374726f6b652d77696474683d2231222f3e0a3c7061746820643d224d203538372e34323334373738393231353937203337302e3839323539373730343236333220412031363020313630203020302031203630302e38393132333732383331333634203337382e39363438363230333135393238204c203634352e33333638353539323437303435203331322e343437323933303437333839313720412032343020323430203020302030203632352e31333532313638333832333934203330302e3333383839363535363339343834205a222066696c6c3d22626c61636b22207374726f6b653d22626c61636b22207374726f6b652d77696474683d2231222f3e0a3c7061746820643d224d203733342e32323830393332303738343039203137392e343132313535303738393831393320412034303020343030203020302031203736352e37353733313336363534353832203230322e3739353831383635343930353235204c203831362e35303837373633393835343939203134302e3935343938323338353838363320412034383020343830203020302030203737382e36373337313138343934303931203131322e3839343538363039343737383333205a222066696c6c3d22626c61636b22207374726f6b653d22626c61636b22207374726f6b652d77696474683d2231222f3e0a3c7061746820643d224d203638392e37383234373435363632373238203234352e393239373234303633313835353720412033323020333230203020302031203731352e30303538353039333233363636203236342e36333636353439323339323432204c203736352e37353733313336363534353832203230322e373935383138363534393035323520412034303020343030203020302030203733342e32323830393332303738343039203137392e3431323135353037383938313933205a222066696c6c3d22626c61636b22207374726f6b653d22626c61636b22207374726f6b652d77696474683d2231222f3e0a3c7061746820643d224d203634352e33333638353539323437303435203331322e343437323933303437333839313720412032343020323430203020302031203636342e32353433383831393932373439203332362e3437373439313139323934333135204c203731352e30303538353039333233363636203236342e3633363635343932333932343220412033323020333230203020302030203638392e37383234373435363632373238203234352e3932393732343036333138353537205a222066696c6c3d22626c61636b22207374726f6b653d22626c61636b22207374726f6b652d77696474683d2231222f3e0a3c7061746820643d224d203630302e38393132333732383331333633203337382e3936343836323033313539323820412031363020313630203020302031203631332e35303239323534363631383333203338382e33313833323734363139363231204c203636342e32353433383831393932373439203332362e343737343931313932393433313520412032343020323430203020302030203634352e33333638353539323437303435203331322e3434373239333034373338393137205a222066696c6c3d22626c61636b22207374726f6b653d22626c61636b22207374726f6b652d77696474683d2231222f3e0a3c7061746820643d224d203736352e37353733313336363534353832203230322e373935383138363534393035323520412034303020343030203020302031203739342e383432373132343734363139203232392e3135373238373532353338313034204c203835312e34313132353439363935343238203137322e353838373435303330343537323320412034383020343830203020302030203831362e35303837373633393835343939203134302e39353439383233383538383633205a222066696c6c3d22626c61636b22207374726f6b653d22626c61636b22207374726f6b652d77696474683d2231222f3e0a3c7061746820643d224d203731352e30303538353039333233363636203236342e3633363635343932333932343220412033323020333230203020302031203733382e32373431363939373936393532203238352e37323538333030323033303438204c203739342e383432373132343734363139203232392e313537323837353235333831303420412034303020343030203020302030203736352e37353733313336363534353832203230322e3739353831383635343930353235205a222066696c6c3d22626c61636b22207374726f6b653d22626c61636b22207374726f6b652d77696474683d2231222f3e0a3c7061746820643d224d203636342e32353433383831393932373439203332362e343737343931313932393433313520412032343020323430203020302031203638312e37303536323734383437373134203334322e32393433373235313532323836204c203733382e32373431363939373936393532203238352e3732353833303032303330343820412033323020333230203020302030203731352e30303538353039333233363636203236342e36333636353439323339323432205a222066696c6c3d22626c61636b22207374726f6b653d22626c61636b22207374726f6b652d77696474683d2231222f3e0a3c7061746820643d224d203631332e35303239323534363631383333203338382e3331383332373436313936323120412031363020313630203020302031203632352e31333730383439383938343736203339382e38363239313530313031353234204c203638312e37303536323734383437373134203334322e3239343337323531353232383620412032343020323430203020302030203636342e32353433383831393932373439203332362e3437373439313139323934333135205a222066696c6c3d22626c61636b22207374726f6b653d22626c61636b22207374726f6b652d77696474683d2231222f3e0a3c7061746820643d224d203739342e383432373132343734363139203232392e313537323837353235333831303420412034303020343030203020302031203832312e32303431383133343530393439203235382e32343236383633333435343138204c203838332e30343530313736313431313337203230372e343931323233363031343530313420412034383020343830203020302030203835312e34313132353439363935343238203137322e3538383734353033303435373233205a222066696c6c3d22626c61636b22207374726f6b653d22626c61636b22207374726f6b652d77696474683d2231222f3e0a3c7061746820643d224d203733382e32373431363939373936393532203238352e3732353833303032303330343820412033323020333230203020302031203735392e33363333343530373630373538203330382e3939343134393036373633333433204c203832312e32303431383133343530393439203235382e3234323638363333343534313820412034303020343030203020302030203739342e383432373132343734363139203232392e3135373238373532353338313034205a222066696c6c3d22626c61636b22207374726f6b653d22626c61636b22207374726f6b652d77696474683d2231222f3e0a3c7061746820643d224d203638312e37303536323734383437373134203334322e3239343337323531353232383620412032343020323430203020302031203639372e35323235303838303730353639203335392e37343536313138303037323531204c203735392e33363333343530373630373538203330382e393934313439303637363333343320412033323020333230203020302030203733382e32373431363939373936393532203238352e37323538333030323033303438205a222066696c6c3d22626c61636b22207374726f6b653d22626c61636b22207374726f6b652d77696474683d2231222f3e0a3c7061746820643d224d203632352e31333730383439383938343736203339382e3836323931353031303135323420412031363020313630203020302031203633352e36383136373235333830333739203431302e34393730373435333338313637204c203639372e35323235303838303730353639203335392e3734353631313830303732353120412032343020323430203020302030203638312e37303536323734383437373134203334322e32393433373235313532323836205a222066696c6c3d22626c61636b22207374726f6b653d22626c61636b22207374726f6b652d77696474683d2231222f3e0a3c7061746820643d224d203832312e32303431383133343530393439203235382e3234323638363333343534313820412034303020343030203020302031203834342e35383738343439323130313831203238392e3737313930363739323135393134204c203931312e31303534313339303532323137203234352e333236323838313530353930393320412034383020343830203020302030203838332e30343530313736313431313337203230372e3439313232333630313435303134205a222066696c6c3d22626c61636b22207374726f6b653d22626c61636b22207374726f6b652d77696474683d2231222f3e0a3c7061746820643d224d203735392e33363333343530373630373538203330382e393934313439303637363333343320412033323020333230203020302031203737382e30373032373539333638313435203333342e32313735323534333337323733204c203834342e35383738343439323130313831203238392e373731393036373932313539313420412034303020343030203020302030203832312e32303431383133343530393439203235382e32343236383633333435343138205a222066696c6c3d22626c61636b22207374726f6b653d22626c61636b22207374726f6b652d77696474683d2231222f3e0a3c7061746820643d224d203639372e35323235303838303730353639203335392e3734353631313830303732353120412032343020323430203020302031203731312e35353237303639353236313038203337382e3636333134343037353239353436204c203737382e30373032373539333638313435203333342e3231373532353433333732373320412033323020333230203020302030203735392e33363333343530373630373538203330382e3939343134393036373633333433205a222066696c6c3d22626c61636b22207374726f6b653d22626c61636b22207374726f6b652d77696474683d2231222f3e0a3c7061746820643d224d203633352e36383136373235333830333739203431302e3439373037343533333831363720412031363020313630203020302031203634352e30333531333739363834303733203432332e31303837363237313638363337204c203731312e35353237303639353236313038203337382e363633313434303735323935343620412032343020323430203020302030203639372e35323235303838303730353639203335392e37343536313138303037323531205a222066696c6c3d22626c61636b22207374726f6b653d22626c61636b22207374726f6b652d77696474683d2231222f3e0a3c7061746820643d224d203834342e35383738343439323130313831203238392e373731393036373932313539313420412034303020343030203020302031203836342e373638353035373339333432203332332e3434313330353236393630303935204c203933352e33323232303638383732313034203238352e3732393536363332333532313120412034383020343830203020302030203931312e31303534313339303532323137203234352e3332363238383135303539303933205a222066696c6c3d22626c61636b22207374726f6b653d22626c61636b22207374726f6b652d77696474683d2231222f3e0a3c7061746820643d224d203737382e30373032373539333638313435203333342e3231373532353433333732373320412033323020333230203020302031203739342e32313438303435393134373337203336312e31353330343432313536383038204c203836342e373638353035373339333432203332332e343431333035323639363030393520412034303020343030203020302030203834342e35383738343439323130313831203238392e3737313930363739323135393134205a222066696c6c3d22626c61636b22207374726f6b653d22626c61636b22207374726f6b652d77696474683d2231222f3e0a3c7061746820643d224d203731312e35353237303639353236313038203337382e363633313434303735323935343620412032343020323430203020302031203732332e36363131303334343336303533203339382e3836343738333136313736303536204c203739342e32313438303435393134373337203336312e3135333034343231353638303820412033323020333230203020302030203737382e30373032373539333638313435203333342e32313735323534333337323733205a222066696c6c3d22626c61636b22207374726f6b653d22626c61636b22207374726f6b652d77696474683d2231222f3e0a3c7061746820643d224d203634352e30333531333739363834303733203432332e3130383736323731363836333720412031363020313630203020302031203635332e31303734303232393537333638203433362e35373635323231303738343034204c203732332e36363131303334343336303533203339382e383634373833313631373630353620412032343020323430203020302030203731312e35353237303639353236313038203337382e3636333134343037353239353436205a222066696c6c3d22626c61636b22207374726f6b653d22626c61636b22207374726f6b652d77696474683d2231222f3e0a3c7061746820643d224d203836342e373638353035373339333432203332332e3434313330353236393630303920412034303020343030203020302031203838312e35353138313330303435313438203335382e3932363632373035333936343037204c203935352e34363231373536303534313737203332382e333131393532343634373536383720412034383020343830203020302030203933352e33323232303638383732313033203238352e37323935363633323335323131205a222066696c6c3d22626c61636b22207374726f6b653d22626c61636b22207374726f6b652d77696474683d2231222f3e0a3c7061746820643d224d203739342e32313438303435393134373336203336312e3135333034343231353638303720412033323020333230203020302031203830372e36343134353034303336313138203338392e3534313330313634333137313237204c203838312e35353138313330303435313438203335382e393236363237303533393634303720412034303020343030203020302030203836342e373638353035373339333432203332332e34343133303532363936303039205a222066696c6c3d22626c61636b22207374726f6b653d22626c61636b22207374726f6b652d77696474683d2231222f3e0a3c7061746820643d224d203732332e36363131303334343336303532203339382e383634373833313631373630353620412032343020323430203020302031203733332e37333130383738303237303838203432302e31353539373632333233373834204c203830372e36343134353034303336313138203338392e353431333031363433313731323720412033323020333230203020302030203739342e32313438303435393134373336203336312e31353330343432313536383037205a222066696c6c3d22626c61636b22207374726f6b653d22626c61636b22207374726f6b652d77696474683d2231222f3e0a3c7061746820643d224d203635332e31303734303232393537333638203433362e353736353232313037383430333320412031363020313630203020302031203635392e38323037323532303138303539203435302e37373036353038323135383536204c203733332e37333130383738303237303838203432302e3135353937363233323337383420412032343020323430203020302030203732332e36363131303334343336303532203339382e3836343738333136313736303536205a222066696c6c3d22626c61636b22207374726f6b653d22626c61636b22207374726f6b652d77696474683d2231222f3e0a3c7061746820643d224d203838312e353531",
					"opcodes": "PUSH1 0xA0 PUSH1 0x40 MSTORE CALLVALUE DUP1 ISZERO PUSH2 0xF JUMPI PUSH0 DUP1 REVERT JUMPDEST POP PUSH2 0x3A PUSH1 0x40 MLOAD DUP1 PUSH2 0x1820 ADD PUSH1 0x40 MSTORE DUP1 PUSH2 0x1800 DUP2 MSTORE PUSH1 0x20 ADD PUSH2 0x46A PUSH2 0x1800 SWAP2 CODECOPY PUSH2 0x72 PUSH1 0x20 SHL PUSH1 0x20 SHR JUMP JUMPDEST PUSH20 0xFFFFFFFFFFFFFFFFFFFFFFFFFFFFFFFFFFFFFFFF AND PUSH1 0x80 DUP2 PUSH20 0xFFFFFFFFFFFFFFFFFFFFFFFFFFFFFFFFFFFFFFFF AND DUP2 MSTORE POP POP PUSH2 0x300 JUMP JUMPDEST PUSH0 DUP1 PUSH2 0xA2 DUP4 PUSH1 0x40 MLOAD PUSH1 0x20 ADD PUSH2 0x88 SWAP2 SWAP1 PUSH2 0x1CB JUMP JUMPDEST PUSH1 0x40 MLOAD PUSH1 0x20 DUP2 DUP4 SUB SUB DUP2 MSTORE SWAP1 PUSH1 0x40 MSTORE PUSH2 0x119 PUSH1 0x20 SHL PUSH1 0x20 SHR JUMP JUMPDEST SWAP1 POP DUP1 MLOAD PUSH1 0x20 DUP3 ADD PUSH0 CREATE SWAP2 POP PUSH0 PUSH20 0xFFFFFFFFFFFFFFFFFFFFFFFFFFFFFFFFFFFFFFFF AND DUP3 PUSH20 0xFFFFFFFFFFFFFFFFFFFFFFFFFFFFFFFFFFFFFFFF AND SUB PUSH2 0x113 JUMPI PUSH1 0x40 MLOAD PUSH32 0x8D4ABB600000000000000000000000000000000000000000000000000000000 DUP2 MSTORE PUSH1 0x4 ADD PUSH1 0x40 MLOAD DUP1 SWAP2 SUB SWAP1 REVERT JUMPDEST POP SWAP2 SWAP1 POP JUMP JUMPDEST PUSH1 0x60 DUP2 MLOAD DUP3 PUSH1 0x40 MLOAD PUSH1 0x20 ADD PUSH2 0x12F SWAP3 SWAP2 SWAP1 PUSH2 0x2C3 JUMP JUMPDEST PUSH1 0x40 MLOAD PUSH1 0x20 DUP2 DUP4 SUB SUB DUP2 MSTORE SWAP1 PUSH1 0x40 MSTORE SWAP1 POP SWAP2 SWAP1 POP JUMP JUMPDEST PUSH0 DUP2 SWAP1 POP SWAP3 SWAP2 POP POP JUMP JUMPDEST PUSH0 DUP1 DUP3 ADD MSTORE POP JUMP JUMPDEST PUSH0 PUSH2 0x163 PUSH1 0x1 DUP4 PUSH2 0x145 JUMP JUMPDEST SWAP2 POP PUSH2 0x16E DUP3 PUSH2 0x14F JUMP JUMPDEST PUSH1 0x1 DUP3 ADD SWAP1 POP SWAP2 SWAP1 POP JUMP JUMPDEST PUSH0 DUP2 MLOAD SWAP1 POP SWAP2 SWAP1 POP JUMP JUMPDEST PUSH0 DUP2 SWAP1 POP SWAP3 SWAP2 POP POP JUMP JUMPDEST DUP3 DUP2 DUP4 MCOPY PUSH0 DUP4 DUP4 ADD MSTORE POP POP POP JUMP JUMPDEST PUSH0 PUSH2 0x1A5 DUP3 PUSH2 0x179 JUMP JUMPDEST PUSH2 0x1AF DUP2 DUP6 PUSH2 0x183 JUMP JUMPDEST SWAP4 POP PUSH2 0x1BF DUP2 DUP6 PUSH1 0x20 DUP7 ADD PUSH2 0x18D JUMP JUMPDEST DUP1 DUP5 ADD SWAP2 POP POP SWAP3 SWAP2 POP POP JUMP JUMPDEST PUSH0 PUSH2 0x1D5 DUP3 PUSH2 0x157 JUMP JUMPDEST SWAP2 POP PUSH2 0x1E1 DUP3 DUP5 PUSH2 0x19B JUMP JUMPDEST SWAP2 POP DUP2 SWAP1 POP SWAP3 SWAP2 POP POP JUMP JUMPDEST PUSH32 0x6300000000000000000000000000000000000000000000000000000000000000 PUSH0 DUP3 ADD MSTORE POP JUMP JUMPDEST PUSH0 PUSH2 0x220 PUSH1 0x1 DUP4 PUSH2 0x145 JUMP JUMPDEST SWAP2 POP PUSH2 0x22B DUP3 PUSH2 0x1EC JUMP JUMPDEST PUSH1 0x1 DUP3 ADD SWAP1 POP SWAP2 SWAP1 POP JUMP JUMPDEST PUSH0 PUSH4 0xFFFFFFFF DUP3 AND SWAP1 POP SWAP2 SWAP1 POP JUMP JUMPDEST PUSH0 DUP2 PUSH1 0xE0 SHL SWAP1 POP SWAP2 SWAP1 POP JUMP JUMPDEST PUSH0 PUSH2 0x25B DUP3 PUSH2 0x245 JUMP JUMPDEST SWAP1 POP SWAP2 SWAP1 POP JUMP JUMPDEST PUSH2 0x273 PUSH2 0x26E DUP3 PUSH2 0x236 JUMP JUMPDEST PUSH2 0x251 JUMP JUMPDEST DUP3 MSTORE POP POP JUMP JUMPDEST PUSH32 0x80600E6000396000F30000000000000000000000000000000000000000000000 PUSH0 DUP3 ADD MSTORE POP JUMP JUMPDEST PUSH0 PUSH2 0x2AD PUSH1 0x9 DUP4 PUSH2 0x145 JUMP JUMPDEST SWAP2 POP PUSH2 0x2B8 DUP3 PUSH2 0x279 JUMP JUMPDEST PUSH1 0x9 DUP3 ADD SWAP1 POP SWAP2 SWAP1 POP JUMP JUMPDEST PUSH0 PUSH2 0x2CD DUP3 PUSH2 0x214 JUMP JUMPDEST SWAP2 POP PUSH2 0x2D9 DUP3 DUP6 PUSH2 0x262 JUMP JUMPDEST PUSH1 0x4 DUP3 ADD SWAP2 POP PUSH2 0x2E8 DUP3 PUSH2 0x2A1 JUMP JUMPDEST SWAP2 POP PUSH2 0x2F4 DUP3 DUP5 PUSH2 0x19B JUMP JUMPDEST SWAP2 POP DUP2 SWAP1 POP SWAP4 SWAP3 POP POP POP JUMP JUMPDEST PUSH1 0x80 MLOAD PUSH2 0x14D PUSH2 0x31D PUSH0 CODECOPY PUSH0 DUP2 DUP2 PUSH1 0x76 ADD MSTORE PUSH1 0x9B ADD MSTORE PUSH2 0x14D PUSH0 RETURN INVALID PUSH1 0x80 PUSH1 0x40 MSTORE CALLVALUE DUP1 ISZERO PUSH2 0xF JUMPI PUSH0 DUP1 REVERT JUMPDEST POP PUSH1 0x4 CALLDATASIZE LT PUSH2 0x34 JUMPI PUSH0 CALLDATALOAD PUSH1 0xE0 SHR DUP1 PUSH4 0xEDCF506E EQ PUSH2 0x38 JUMPI DUP1 PUSH4 0xF5668524 EQ PUSH2 0x56 JUMPI JUMPDEST PUSH0 DUP1 REVERT JUMPDEST PUSH2 0x40 PUSH2 0x74 JUMP JUMPDEST PUSH1 0x40 MLOAD PUSH2 0x4D SWAP2 SWAP1 PUSH2 0xFE JUMP JUMPDEST PUSH1 0x40 MLOAD DUP1 SWAP2 SUB SWAP1 RETURN JUMPDEST PUSH2 0x5E PUSH2 0x98 JUMP JUMPDEST PUSH1 0x40 MLOAD PUSH2 0x6B SWAP2 SWAP1 PUSH2 0xFE JUMP JUMPDEST PUSH1 0x40 MLOAD DUP1 SWAP2 SUB SWAP1 RETURN JUMPDEST PUSH32 0x0 DUP2 JUMP JUMPDEST PUSH0 PUSH32 0x0 SWAP1 POP SWAP1 JUMP JUMPDEST PUSH0 PUSH20 0xFFFFFFFFFFFFFFFFFFFFFFFFFFFFFFFFFFFFFFFF DUP3 AND SWAP1 POP SWAP2 SWAP1 POP JUMP JUMPDEST PUSH0 PUSH2 0xE8 DUP3 PUSH2 0xBF JUMP JUMPDEST SWAP1 POP SWAP2 SWAP1 POP JUMP JUMPDEST PUSH2 0xF8 DUP2 PUSH2 0xDE JUMP JUMPDEST DUP3 MSTORE POP POP JUMP JUMPDEST PUSH0 PUSH1 0x20 DUP3 ADD SWAP1 POP PUSH2 0x111 PUSH0 DUP4 ADD DUP5 PUSH2 0xEF JUMP JUMPDEST SWAP3 SWAP2 POP POP JUMP INVALID LOG2 PUSH5 0x6970667358 0x22 SLT KECCAK256 MSTORE8 KECCAK256 0xC2 CALLER NUMBER SHR 0xBD CALLVALUE PUSH23 0x27C2048DE45ACD8A5750B5C12A43EBD188E4C41180CE26 PUSH5 0x736F6C6343 STOP ADDMOD BYTE STOP CALLER CODESIZE CALLDATALOAD CALLDATALOAD CALLDATACOPY KECCAK256 COINBASE KECCAK256 CALLER ORIGIN ADDRESS KECCAK256 CALLER ORIGIN ADDRESS KECCAK256 ADDRESS KECCAK256 ADDRESS KECCAK256 ADDRESS KECCAK256 CALLDATASIZE CALLDATASIZE ORIGIN 0x2E CODESIZE CALLVALUE CALLDATASIZE CODECOPY CALLDATALOAD CALLDATALOAD CALLDATACOPY CODESIZE CALLVALUE CALLER BALANCE CODECOPY CALLER KECCAK256 ORIGIN ORIGIN CODECOPY 0x2E CALLDATACOPY CODESIZE CALLDATALOAD BALANCE CODECOPY CALLDATALOAD CALLVALUE ADDRESS CODESIZE CALLDATALOAD ORIGIN CALLDATASIZE CALLVALUE ORIGIN KECCAK256 GAS 0x22 KECCAK256 PUSH7 0x696C6C3D22626C PUSH2 0x636B 0x22 KECCAK256 PUSH20 0x74726F6B653D22626C61636B22207374726F6B65 0x2D PUSH24 0x696474683D2231222F3E0A3C7061746820643D224D203538 CALLDATACOPY 0x2E CALLVALUE ORIGIN CALLER CALLVALUE CALLDATACOPY CALLDATACOPY CODESIZE CODECOPY ORIGIN BALANCE CALLDATALOAD CODECOPY CALLDATACOPY KECCAK256 CALLER CALLDATACOPY ADDRESS 0x2E CODESIZE CODECOPY ORIGIN CALLDATALOAD CODECOPY CALLDATACOPY CALLDATACOPY ADDRESS CALLVALUE ORIGIN CALLDATASIZE CALLER ORIGIN KECCAK256 COINBASE KECCAK256 BALANCE CALLDATASIZE ADDRESS KECCAK256 BALANCE CALLDATASIZE ADDRESS KECCAK256 ADDRESS KECCAK256 ADDRESS KECCAK256 BALANCE KECCAK256 CALLDATASIZE ADDRESS ADDRESS 0x2E CODESIZE CODECOPY BALANCE ORIGIN CALLER CALLDATACOPY ORIGIN CODESIZE CALLER BALANCE CALLER CALLDATASIZE CALLVALUE KECCAK256 CALLER CALLDATACOPY CODESIZE 0x2E CODECOPY CALLDATASIZE CALLVALUE CODESIZE CALLDATASIZE ORIGIN ADDRESS CALLER BALANCE CALLDATALOAD CODECOPY ORIGIN CODESIZE KECCAK256 0x4C KECCAK256 CALLDATASIZE CALLVALUE CALLDATALOAD 0x2E CALLER CALLER CALLDATASIZE CODESIZE CALLDATALOAD CALLDATALOAD CODECOPY ORIGIN CALLVALUE CALLDATACOPY ADDRESS CALLVALUE CALLDATALOAD KECCAK256 CALLER BALANCE ORIGIN 0x2E CALLVALUE CALLVALUE CALLDATACOPY ORIGIN CODECOPY CALLER ADDRESS CALLVALUE CALLDATACOPY CALLER CODESIZE CODECOPY BALANCE CALLDATACOPY KECCAK256 COINBASE KECCAK256 ORIGIN CALLVALUE ADDRESS KECCAK256 ORIGIN CALLVALUE ADDRESS KECCAK256 ADDRESS KECCAK256 ADDRESS KECCAK256 ADDRESS KECCAK256 CALLDATASIZE ORIGIN CALLDATALOAD 0x2E BALANCE CALLER CALLDATALOAD ORIGIN BALANCE CALLDATASIZE CODESIZE CALLER CODESIZE ORIGIN CALLER CODECOPY CALLVALUE KECCAK256 CALLER ADDRESS ADDRESS 0x2E CALLER CALLER CODESIZE CODESIZE CODECOPY CALLDATASIZE CALLDATALOAD CALLDATALOAD CALLDATASIZE CALLER CODECOPY CALLVALUE CODESIZE CALLVALUE KECCAK256 GAS 0x22 KECCAK256 PUSH7 0x696C6C3D22626C PUSH2 0x636B 0x22 KECCAK256 PUSH20 0x74726F6B653D22626C61636B22207374726F6B65 0x2D PUSH24 0x696474683D2231222F3E0A3C7061746820643D224D203733 CALLVALUE 0x2E ORIGIN ORIGIN CODESIZE ADDRESS CODECOPY CALLER ORIGIN ADDRESS CALLDATACOPY CODESIZE CALLVALUE ADDRESS CODECOPY KECCAK256 BALANCE CALLDATACOPY CODECOPY 0x2E CALLVALUE BALANCE ORIGIN BALANCE CALLDATALOAD CALLDATALOAD ADDRESS CALLDATACOPY CODESIZE CODECOPY CODESIZE BALANCE CODECOPY CALLER KECCAK256 COINBASE KECCAK256 CALLVALUE ADDRESS ADDRESS KECCAK256 CALLVALUE ADDRESS ADDRESS KECCAK256 ADDRESS KECCAK256 ADDRESS KECCAK256 BALANCE KECCAK256 CALLDATACOPY CALLDATASIZE CALLDATALOAD 0x2E CALLDATACOPY CALLDATALOAD CALLDATACOPY CALLER BALANCE CALLER CALLDATASIZE CALLDATASIZE CALLDATALOAD CALLVALUE CALLDATALOAD CODESIZE ORIGIN KECCAK256 ORIGIN ADDRESS ORIGIN 0x2E CALLDATACOPY CODECOPY CALLDATALOAD CODESIZE BALANCE CODESIZE CALLDATASIZE CALLDATALOAD CALLVALUE CODECOPY ADDRESS CALLDATALOAD ORIGIN CALLDATALOAD KECCAK256 0x4C KECCAK256 CODESIZE BALANCE CALLDATASIZE 0x2E CALLDATALOAD ADDRESS CODESIZE CALLDATACOPY CALLDATACOPY CALLDATASIZE CALLER CODECOPY CODESIZE CALLDATALOAD CALLVALUE CODECOPY CODECOPY KECCAK256 BALANCE CALLVALUE ADDRESS 0x2E CODECOPY CALLDATALOAD CALLVALUE CODECOPY CODESIZE ORIGIN CALLER CODESIZE CALLDATALOAD CODESIZE CODESIZE CALLDATASIZE CALLER KECCAK256 COINBASE KECCAK256 CALLVALUE CODESIZE ADDRESS KECCAK256 CALLVALUE CODESIZE ADDRESS KECCAK256 ADDRESS KECCAK256 ADDRESS KECCAK256 ADDRESS KECCAK256 CALLDATACOPY CALLDATACOPY CODESIZE 0x2E CALLDATASIZE CALLDATACOPY CALLER CALLDATACOPY BALANCE BALANCE CODESIZE CALLVALUE CODECOPY CALLVALUE ADDRESS CODECOPY BALANCE KECCAK256 BALANCE BALANCE ORIGIN 0x2E CODESIZE CODECOPY CALLVALUE CALLDATALOAD CODESIZE CALLDATASIZE ADDRESS CODECOPY CALLVALUE CALLDATACOPY CALLDATACOPY CODESIZE CALLER CALLER KECCAK256 GAS 0x22 KECCAK256 PUSH7 0x696C6C3D22626C PUSH2 0x636B 0x22 KECCAK256 PUSH20 0x74726F6B653D22626C61636B22207374726F6B65 0x2D PUSH24 0x696474683D2231222F3E0A3C7061746820643D224D203638 CODECOPY 0x2E CALLDATACOPY CODESIZE ORIGIN CALLVALUE CALLDATACOPY CALLVALUE CALLDATALOAD CALLDATASIZE CALLDATASIZE ORIGIN CALLDATACOPY ORIGIN CODESIZE KECCAK256 ORIGIN CALLVALUE CALLDATALOAD 0x2E CODECOPY ORIGIN CODECOPY CALLDATACOPY ORIGIN CALLVALUE ADDRESS CALLDATASIZE CALLER BALANCE CODESIZE CALLDATALOAD CALLDATALOAD CALLDATACOPY KECCAK256 COINBASE KECCAK256 CALLER ORIGIN ADDRESS KECCAK256 CALLER ORIGIN ADDRESS KECCAK256 ADDRESS KECCAK256 ADDRESS KECCAK256 BALANCE KECCAK256 CALLDATACOPY BALANCE CALLDATALOAD 0x2E ADDRESS ADDRESS CALLDATALOAD CODESIZE CALLDATALOAD ADDRESS CODECOPY CALLER ORIGIN CALLER CALLDATASIZE CALLDATASIZE CALLDATASIZE KECCAK256 ORIGIN CALLDATASIZE CALLVALUE 0x2E CALLDATASIZE CALLER CALLDATASIZE CALLDATASIZE CALLDATALOAD CALLVALUE CODECOPY ORIGIN CALLER CODECOPY ORIGIN CALLVALUE ORIGIN KECCAK256 0x4C KECCAK256 CALLDATACOPY CALLDATASIZE CALLDATALOAD 0x2E CALLDATACOPY CALLDATALOAD CALLDATACOPY CALLER BALANCE CALLER CALLDATASIZE CALLDATASIZE CALLDATALOAD CALLVALUE CALLDATALOAD CODESIZE ORIGIN KECCAK256 ORIGIN ADDRESS ORIGIN 0x2E CALLDATACOPY CODECOPY CALLDATALOAD CODESIZE BALANCE CODESIZE CALLDATASIZE CALLDATALOAD CALLVALUE CODECOPY ADDRESS CALLDATALOAD ORIGIN CALLDATALOAD KECCAK256 COINBASE KECCAK256 CALLVALUE ADDRESS ADDRESS KECCAK256 CALLVALUE ADDRESS ADDRESS KECCAK256 ADDRESS KECCAK256 ADDRESS KECCAK256 ADDRESS KECCAK256 CALLDATACOPY CALLER CALLVALUE 0x2E ORIGIN ORIGIN CODESIZE ADDRESS CODECOPY CALLER ORIGIN ADDRESS CALLDATACOPY CODESIZE CALLVALUE ADDRESS CODECOPY KECCAK256 BALANCE CALLDATACOPY CODECOPY 0x2E CALLVALUE BALANCE ORIGIN BALANCE CALLDATALOAD CALLDATALOAD ADDRESS CALLDATACOPY CODESIZE CODECOPY CODESIZE BALANCE CODECOPY CALLER KECCAK256 GAS 0x22 KECCAK256 PUSH7 0x696C6C3D22626C PUSH2 0x636B 0x22 KECCAK256 PUSH20 0x74726F6B653D22626C61636B22207374726F6B65 0x2D PUSH24 0x696474683D2231222F3E0A3C7061746820643D224D203634 CALLDATALOAD 0x2E CALLER CALLER CALLDATASIZE CODESIZE CALLDATALOAD CALLDATALOAD CODECOPY ORIGIN CALLVALUE CALLDATACOPY ADDRESS CALLVALUE CALLDATALOAD KECCAK256 CALLER BALANCE ORIGIN 0x2E CALLVALUE CALLVALUE CALLDATACOPY ORIGIN CODECOPY CALLER ADDRESS CALLVALUE CALLDATACOPY CALLER CODESIZE CODECOPY BALANCE CALLDATACOPY KECCAK256 COINBASE KECCAK256 ORIGIN CALLVALUE ADDRESS KECCAK256 ORIGIN CALLVALUE ADDRESS KECCAK256 ADDRESS KECCAK256 ADDRESS KECCAK256 BALANCE KECCAK256 CALLDATASIZE CALLDATASIZE CALLVALUE 0x2E ORIGIN CALLDATALOAD CALLVALUE CALLER CODESIZE CODESIZE BALANCE CODECOPY CODECOPY ORIGIN CALLDATACOPY CALLVALUE CODECOPY KECCAK256 CALLER ORIGIN CALLDATASIZE 0x2E CALLVALUE CALLDATACOPY CALLDATACOPY CALLVALUE CODECOPY BALANCE BALANCE CODECOPY ORIGIN CODECOPY CALLVALUE CALLER BALANCE CALLDATALOAD KECCAK256 0x4C KECCAK256 CALLDATACOPY BALANCE CALLDATALOAD 0x2E ADDRESS ADDRESS CALLDATALOAD CODESIZE CALLDATALOAD ADDRESS CODECOPY CALLER ORIGIN CALLER CALLDATASIZE CALLDATASIZE CALLDATASIZE KECCAK256 ORIGIN CALLDATASIZE CALLVALUE 0x2E CALLDATASIZE CALLER CALLDATASIZE CALLDATASIZE CALLDATALOAD CALLVALUE CODECOPY ORIGIN CALLER CODECOPY ORIGIN CALLVALUE ORIGIN KECCAK256 COINBASE KECCAK256 CALLER ORIGIN ADDRESS KECCAK256 CALLER ORIGIN ADDRESS KECCAK256 ADDRESS KECCAK256 ADDRESS KECCAK256 ADDRESS KECCAK256 CALLDATASIZE CODESIZE CODECOPY 0x2E CALLDATACOPY CODESIZE ORIGIN CALLVALUE CALLDATACOPY CALLVALUE CALLDATALOAD CALLDATASIZE CALLDATASIZE ORIGIN CALLDATACOPY ORIGIN CODESIZE KECCAK256 ORIGIN CALLVALUE CALLDATALOAD 0x2E CODECOPY ORIGIN CODECOPY CALLDATACOPY ORIGIN CALLVALUE ADDRESS CALLDATASIZE CALLER BALANCE CODESIZE CALLDATALOAD CALLDATALOAD CALLDATACOPY KECCAK256 GAS 0x22 KECCAK256 PUSH7 0x696C6C3D22626C PUSH2 0x636B 0x22 KECCAK256 PUSH20 0x74726F6B653D22626C61636B22207374726F6B65 0x2D PUSH24 0x696474683D2231222F3E0A3C7061746820643D224D203630 ADDRESS 0x2E CODESIZE CODECOPY BALANCE ORIGIN CALLER CALLDATACOPY ORIGIN CODESIZE CALLER BALANCE CALLER CALLDATASIZE CALLER KECCAK256 CALLER CALLDATACOPY CODESIZE 0x2E CODECOPY CALLDATASIZE CALLVALUE CODESIZE CALLDATASIZE ORIGIN ADDRESS CALLER BALANCE CALLDATALOAD CODECOPY ORIGIN CODESIZE KECCAK256 COINBASE KECCAK256 BALANCE CALLDATASIZE ADDRESS KECCAK256 BALANCE CALLDATASIZE ADDRESS KECCAK256 ADDRESS KECCAK256 ADDRESS KECCAK256 BALANCE KECCAK256 CALLDATASIZE BALANCE CALLER 0x2E CALLDATALOAD ADDRESS ORIGIN CODECOPY ORIGIN CALLDATALOAD CALLVALUE CALLDATASIZE CALLDATASIZE BALANCE CODESIZE CALLER CALLER KECCAK256 CALLER CODESIZE CODESIZE 0x2E CALLER BALANCE CODESIZE CALLER ORIGIN CALLDATACOPY CALLVALUE CALLDATASIZE BALANCE CODECOPY CALLDATASIZE ORIGIN BALANCE KECCAK256 0x4C KECCAK256 CALLDATASIZE CALLDATASIZE CALLVALUE 0x2E ORIGIN CALLDATALOAD CALLVALUE CALLER CODESIZE CODESIZE BALANCE CODECOPY CODECOPY ORIGIN CALLDATACOPY CALLVALUE CODECOPY KECCAK256 CALLER ORIGIN CALLDATASIZE 0x2E CALLVALUE CALLDATACOPY CALLDATACOPY CALLVALUE CODECOPY BALANCE BALANCE CODECOPY ORIGIN CODECOPY CALLVALUE CALLER BALANCE CALLDATALOAD KECCAK256 COINBASE KECCAK256 ORIGIN CALLVALUE ADDRESS KECCAK256 ORIGIN CALLVALUE ADDRESS KECCAK256 ADDRESS KECCAK256 ADDRESS KECCAK256 ADDRESS KECCAK256 CALLDATASIZE CALLVALUE CALLDATALOAD 0x2E CALLER CALLER CALLDATASIZE CODESIZE CALLDATALOAD CALLDATALOAD CODECOPY ORIGIN CALLVALUE CALLDATACOPY ADDRESS CALLVALUE CALLDATALOAD KECCAK256 CALLER BALANCE ORIGIN 0x2E CALLVALUE CALLVALUE CALLDATACOPY ORIGIN CODECOPY CALLER ADDRESS CALLVALUE CALLDATACOPY CALLER CODESIZE CODECOPY BALANCE CALLDATACOPY KECCAK256 GAS 0x22 KECCAK256 PUSH7 0x696C6C3D22626C PUSH2 0x636B 0x22 KECCAK256 PUSH20 0x74726F6B653D22626C61636B22207374726F6B65 0x2D PUSH24 0x696474683D2231222F3E0A3C7061746820643D224D203736 CALLDATALOAD 0x2E CALLDATACOPY CALLDATALOAD CALLDATACOPY CALLER BALANCE CALLER CALLDATASIZE CALLDATASIZE CALLDATALOAD CALLVALUE CALLDATALOAD CODESIZE ORIGIN KECCAK256 ORIGIN ADDRESS ORIGIN 0x2E CALLDATACOPY CODECOPY CALLDATALOAD CODESIZE BALANCE CODESIZE CALLDATASIZE CALLDATALOAD CALLVALUE CODECOPY ADDRESS CALLDATALOAD ORIGIN CALLDATALOAD KECCAK256 COINBASE KECCAK256 CALLVALUE ADDRESS ADDRESS KECCAK256 CALLVALUE ADDRESS ADDRESS KECCAK256 ADDRESS KECCAK256 ADDRESS KECCAK256 BALANCE KECCAK256 CALLDATACOPY CODECOPY CALLVALUE 0x2E CODESIZE CALLVALUE ORIGIN CALLDATACOPY BALANCE ORIGIN CALLVALUE CALLDATACOPY CALLVALUE CALLDATASIZE BALANCE CODECOPY KECCAK256 ORIGIN ORIGIN CODECOPY 0x2E BALANCE CALLDATALOAD CALLDATACOPY ORIGIN CODESIZE CALLDATACOPY CALLDATALOAD ORIGIN CALLDATALOAD CALLER CODESIZE BALANCE ADDRESS CALLVALUE KECCAK256 0x4C KECCAK256 CODESIZE CALLDATALOAD BALANCE 0x2E CALLVALUE BALANCE BALANCE ORIGIN CALLDATALOAD CALLVALUE CODECOPY CALLDATASIZE CODECOPY CALLDATALOAD CALLVALUE ORIGIN CODESIZE KECCAK256 BALANCE CALLDATACOPY ORIGIN 0x2E CALLDATALOAD CODESIZE CODESIZE CALLDATACOPY CALLVALUE CALLDATALOAD ADDRESS CALLER ADDRESS CALLVALUE CALLDATALOAD CALLDATACOPY ORIGIN CALLER KECCAK256 COINBASE KECCAK256 CALLVALUE CODESIZE ADDRESS KECCAK256 CALLVALUE CODESIZE ADDRESS KECCAK256 ADDRESS KECCAK256 ADDRESS KECCAK256 ADDRESS KECCAK256 CODESIZE BALANCE CALLDATASIZE 0x2E CALLDATALOAD ADDRESS CODESIZE CALLDATACOPY CALLDATACOPY CALLDATASIZE CALLER CODECOPY CODESIZE CALLDATALOAD CALLVALUE CODECOPY CODECOPY KECCAK256 BALANCE CALLVALUE ADDRESS 0x2E CODECOPY CALLDATALOAD CALLVALUE CODECOPY CODESIZE ORIGIN CALLER CODESIZE CALLDATALOAD CODESIZE CODESIZE CALLDATASIZE CALLER KECCAK256 GAS 0x22 KECCAK256 PUSH7 0x696C6C3D22626C PUSH2 0x636B 0x22 KECCAK256 PUSH20 0x74726F6B653D22626C61636B22207374726F6B65 0x2D PUSH24 0x696474683D2231222F3E0A3C7061746820643D224D203731 CALLDATALOAD 0x2E ADDRESS ADDRESS CALLDATALOAD CODESIZE CALLDATALOAD ADDRESS CODECOPY CALLER ORIGIN CALLER CALLDATASIZE CALLDATASIZE CALLDATASIZE KECCAK256 ORIGIN CALLDATASIZE CALLVALUE 0x2E CALLDATASIZE CALLER CALLDATASIZE CALLDATASIZE CALLDATALOAD CALLVALUE CODECOPY ORIGIN CALLER CODECOPY ORIGIN CALLVALUE ORIGIN KECCAK256 COINBASE KECCAK256 CALLER ORIGIN ADDRESS KECCAK256 CALLER ORIGIN ADDRESS KECCAK256 ADDRESS KECCAK256 ADDRESS KECCAK256 BALANCE KECCAK256 CALLDATACOPY CALLER CODESIZE 0x2E ORIGIN CALLDATACOPY CALLVALUE BALANCE CALLDATASIZE CODECOPY CODECOPY CALLDATACOPY CODECOPY CALLDATASIZE CODECOPY CALLDATALOAD ORIGIN KECCAK256 ORIGIN CODESIZE CALLDATALOAD 0x2E CALLDATACOPY ORIGIN CALLDATALOAD CODESIZE CALLER ADDRESS ADDRESS ORIGIN ADDRESS CALLER ADDRESS CALLVALUE CODESIZE KECCAK256 0x4C KECCAK256 CALLDATACOPY CODECOPY CALLVALUE 0x2E CODESIZE CALLVALUE ORIGIN CALLDATACOPY BALANCE ORIGIN CALLVALUE CALLDATACOPY CALLVALUE CALLDATASIZE BALANCE CODECOPY KECCAK256 ORIGIN ORIGIN CODECOPY 0x2E BALANCE CALLDATALOAD CALLDATACOPY ORIGIN CODESIZE CALLDATACOPY CALLDATALOAD ORIGIN CALLDATALOAD CALLER CODESIZE BALANCE ADDRESS CALLVALUE KECCAK256 COINBASE KECCAK256 CALLVALUE ADDRESS ADDRESS KECCAK256 CALLVALUE ADDRESS ADDRESS KECCAK256 ADDRESS KECCAK256 ADDRESS KECCAK256 ADDRESS KECCAK256 CALLDATACOPY CALLDATASIZE CALLDATALOAD 0x2E CALLDATACOPY CALLDATALOAD CALLDATACOPY CALLER BALANCE CALLER CALLDATASIZE CALLDATASIZE CALLDATALOAD CALLVALUE CALLDATALOAD CODESIZE ORIGIN KECCAK256 ORIGIN ADDRESS ORIGIN 0x2E CALLDATACOPY CODECOPY CALLDATALOAD CODESIZE BALANCE CODESIZE CALLDATASIZE CALLDATALOAD CALLVALUE CODECOPY ADDRESS CALLDATALOAD ORIGIN CALLDATALOAD KECCAK256 GAS 0x22 KECCAK256 PUSH7 0x696C6C3D22626C PUSH2 0x636B 0x22 KECCAK256 PUSH20 0x74726F6B653D22626C61636B22207374726F6B65 0x2D PUSH24 0x696474683D2231222F3E0A3C7061746820643D224D203636 CALLVALUE 0x2E ORIGIN CALLDATALOAD CALLVALUE CALLER CODESIZE CODESIZE BALANCE CODECOPY CODECOPY ORIGIN CALLDATACOPY CALLVALUE CODECOPY KECCAK256 CALLER ORIGIN CALLDATASIZE 0x2E CALLVALUE CALLDATACOPY CALLDATACOPY CALLVALUE CODECOPY BALANCE BALANCE CODECOPY ORIGIN CODECOPY CALLVALUE CALLER BALANCE CALLDATALOAD KECCAK256 COINBASE KECCAK256 ORIGIN CALLVALUE ADDRESS KECCAK256 ORIGIN CALLVALUE ADDRESS KECCAK256 ADDRESS KECCAK256 ADDRESS KECCAK256 BALANCE KECCAK256 CALLDATASIZE CODESIZE BALANCE 0x2E CALLDATACOPY ADDRESS CALLDATALOAD CALLDATASIZE ORIGIN CALLDATACOPY CALLVALUE CODESIZE CALLVALUE CALLDATACOPY CALLDATACOPY BALANCE CALLVALUE KECCAK256 CALLER CALLVALUE ORIGIN 0x2E ORIGIN CODECOPY CALLVALUE CALLER CALLDATACOPY ORIGIN CALLDATALOAD BALANCE CALLDATALOAD ORIGIN ORIGIN CODESIZE CALLDATASIZE KECCAK256 0x4C KECCAK256 CALLDATACOPY CALLER CODESIZE 0x2E ORIGIN CALLDATACOPY CALLVALUE BALANCE CALLDATASIZE CODECOPY CODECOPY CALLDATACOPY CODECOPY CALLDATASIZE CODECOPY CALLDATALOAD ORIGIN KECCAK256 ORIGIN CODESIZE CALLDATALOAD 0x2E CALLDATACOPY ORIGIN CALLDATALOAD CODESIZE CALLER ADDRESS ADDRESS ORIGIN ADDRESS CALLER ADDRESS CALLVALUE CODESIZE KECCAK256 COINBASE KECCAK256 CALLER ORIGIN ADDRESS KECCAK256 CALLER ORIGIN ADDRESS KECCAK256 ADDRESS KECCAK256 ADDRESS KECCAK256 ADDRESS KECCAK256 CALLDATACOPY BALANCE CALLDATALOAD 0x2E ADDRESS ADDRESS CALLDATALOAD CODESIZE CALLDATALOAD ADDRESS CODECOPY CALLER ORIGIN CALLER CALLDATASIZE CALLDATASIZE CALLDATASIZE KECCAK256 ORIGIN CALLDATASIZE CALLVALUE 0x2E CALLDATASIZE CALLER CALLDATASIZE CALLDATASIZE CALLDATALOAD CALLVALUE CODECOPY ORIGIN CALLER CODECOPY ORIGIN CALLVALUE ORIGIN KECCAK256 GAS 0x22 KECCAK256 PUSH7 0x696C6C3D22626C PUSH2 0x636B 0x22 KECCAK256 PUSH20 0x74726F6B653D22626C61636B22207374726F6B65 0x2D PUSH24 0x696474683D2231222F3E0A3C7061746820643D224D203631 CALLER 0x2E CALLDATALOAD ADDRESS ORIGIN CODECOPY ORIGIN CALLDATALOAD CALLVALUE CALLDATASIZE CALLDATASIZE BALANCE CODESIZE CALLER CALLER KECCAK256 CALLER CODESIZE CODESIZE 0x2E CALLER BALANCE CODESIZE CALLER ORIGIN CALLDATACOPY CALLVALUE CALLDATASIZE BALANCE CODECOPY CALLDATASIZE ORIGIN BALANCE KECCAK256 COINBASE KECCAK256 BALANCE CALLDATASIZE ADDRESS KECCAK256 BALANCE CALLDATASIZE ADDRESS KECCAK256 ADDRESS KECCAK256 ADDRESS KECCAK256 BALANCE KECCAK256 CALLDATASIZE ORIGIN CALLDATALOAD 0x2E BALANCE CALLER CALLDATACOPY ADDRESS CODESIZE CALLVALUE CODECOPY CODESIZE CODECOPY CODESIZE CALLVALUE CALLDATACOPY CALLDATASIZE KECCAK256 CALLER CODECOPY CODESIZE 0x2E CODESIZE CALLDATASIZE ORIGIN CODECOPY BALANCE CALLDATALOAD ADDRESS BALANCE ADDRESS BALANCE CALLDATALOAD ORIGIN CALLVALUE KECCAK256 0x4C KECCAK256 CALLDATASIZE CODESIZE BALANCE 0x2E CALLDATACOPY ADDRESS CALLDATALOAD CALLDATASIZE ORIGIN CALLDATACOPY CALLVALUE CODESIZE CALLVALUE CALLDATACOPY CALLDATACOPY BALANCE CALLVALUE KECCAK256 CALLER CALLVALUE ORIGIN 0x2E ORIGIN CODECOPY CALLVALUE CALLER CALLDATACOPY ORIGIN CALLDATALOAD BALANCE CALLDATALOAD ORIGIN ORIGIN CODESIZE CALLDATASIZE KECCAK256 COINBASE KECCAK256 ORIGIN CALLVALUE ADDRESS KECCAK256 ORIGIN CALLVALUE ADDRESS KECCAK256 ADDRESS KECCAK256 ADDRESS KECCAK256 ADDRESS KECCAK256 CALLDATASIZE CALLDATASIZE CALLVALUE 0x2E ORIGIN CALLDATALOAD CALLVALUE CALLER CODESIZE CODESIZE BALANCE CODECOPY CODECOPY ORIGIN CALLDATACOPY CALLVALUE CODECOPY KECCAK256 CALLER ORIGIN CALLDATASIZE 0x2E CALLVALUE CALLDATACOPY CALLDATACOPY CALLVALUE CODECOPY BALANCE BALANCE CODECOPY ORIGIN CODECOPY CALLVALUE CALLER BALANCE CALLDATALOAD KECCAK256 GAS 0x22 KECCAK256 PUSH7 0x696C6C3D22626C PUSH2 0x636B 0x22 KECCAK256 PUSH20 0x74726F6B653D22626C61636B22207374726F6B65 0x2D PUSH24 0x696474683D2231222F3E0A3C7061746820643D224D203739 CALLVALUE 0x2E CODESIZE CALLVALUE ORIGIN CALLDATACOPY BALANCE ORIGIN CALLVALUE CALLDATACOPY CALLVALUE CALLDATASIZE BALANCE CODECOPY KECCAK256 ORIGIN ORIGIN CODECOPY 0x2E BALANCE CALLDATALOAD CALLDATACOPY ORIGIN CODESIZE CALLDATACOPY CALLDATALOAD ORIGIN CALLDATALOAD CALLER CODESIZE BALANCE ADDRESS CALLVALUE KECCAK256 COINBASE KECCAK256 CALLVALUE ADDRESS ADDRESS KECCAK256 CALLVALUE ADDRESS ADDRESS KECCAK256 ADDRESS KECCAK256 ADDRESS KECCAK256 BALANCE KECCAK256 CODESIZE ORIGIN BALANCE 0x2E ORIGIN ADDRESS CALLVALUE BALANCE CODESIZE BALANCE CALLER CALLVALUE CALLDATALOAD ADDRESS CODECOPY CALLVALUE CODECOPY KECCAK256 ORIGIN CALLDATALOAD CODESIZE 0x2E ORIGIN CALLVALUE ORIGIN CALLDATASIZE CODESIZE CALLDATASIZE CALLER CALLER CALLVALUE CALLDATALOAD CALLVALUE BALANCE CODESIZE KECCAK256 0x4C KECCAK256 CODESIZE CODESIZE CALLER 0x2E ADDRESS CALLVALUE CALLDATALOAD ADDRESS BALANCE CALLDATACOPY CALLDATASIZE BALANCE CALLVALUE BALANCE BALANCE CALLER CALLDATACOPY KECCAK256 ORIGIN ADDRESS CALLDATACOPY 0x2E CALLVALUE CODECOPY BALANCE ORIGIN ORIGIN CALLER CALLDATASIZE ADDRESS BALANCE CALLVALUE CALLDATALOAD ADDRESS BALANCE CALLVALUE KECCAK256 COINBASE KECCAK256 CALLVALUE CODESIZE ADDRESS KECCAK256 CALLVALUE CODESIZE ADDRESS KECCAK256 ADDRESS KECCAK256 ADDRESS KECCAK256 ADDRESS KECCAK256 CODESIZE CALLDATALOAD BALANCE 0x2E CALLVALUE BALANCE BALANCE ORIGIN CALLDATALOAD CALLVALUE CODECOPY CALLDATASIZE CODECOPY CALLDATALOAD CALLVALUE ORIGIN CODESIZE KECCAK256 BALANCE CALLDATACOPY ORIGIN 0x2E CALLDATALOAD CODESIZE CODESIZE CALLDATACOPY CALLVALUE CALLDATALOAD ADDRESS CALLER ADDRESS CALLVALUE CALLDATALOAD CALLDATACOPY ORIGIN CALLER KECCAK256 GAS 0x22 KECCAK256 PUSH7 0x696C6C3D22626C PUSH2 0x636B 0x22 KECCAK256 PUSH20 0x74726F6B653D22626C61636B22207374726F6B65 0x2D PUSH24 0x696474683D2231222F3E0A3C7061746820643D224D203733 CODESIZE 0x2E ORIGIN CALLDATACOPY CALLVALUE BALANCE CALLDATASIZE CODECOPY CODECOPY CALLDATACOPY CODECOPY CALLDATASIZE CODECOPY CALLDATALOAD ORIGIN KECCAK256 ORIGIN CODESIZE CALLDATALOAD 0x2E CALLDATACOPY ORIGIN CALLDATALOAD CODESIZE CALLER ADDRESS ADDRESS ORIGIN ADDRESS CALLER ADDRESS CALLVALUE CODESIZE KECCAK256 COINBASE KECCAK256 CALLER ORIGIN ADDRESS KECCAK256 CALLER ORIGIN ADDRESS KECCAK256 ADDRESS KECCAK256 ADDRESS KECCAK256 BALANCE KECCAK256 CALLDATACOPY CALLDATALOAD CODECOPY 0x2E CALLER CALLDATASIZE CALLER CALLER CALLVALUE CALLDATALOAD ADDRESS CALLDATACOPY CALLDATASIZE ADDRESS CALLDATACOPY CALLDATALOAD CODESIZE KECCAK256 CALLER ADDRESS CODESIZE 0x2E CODECOPY CODECOPY CALLVALUE BALANCE CALLVALUE CODECOPY ADDRESS CALLDATASIZE CALLDATACOPY CALLDATASIZE CALLER CALLER CALLVALUE CALLER KECCAK256 0x4C KECCAK256 CODESIZE ORIGIN BALANCE 0x2E ORIGIN ADDRESS CALLVALUE BALANCE CODESIZE BALANCE CALLER CALLVALUE CALLDATALOAD ADDRESS CODECOPY CALLVALUE CODECOPY KECCAK256 ORIGIN CALLDATALOAD CODESIZE 0x2E ORIGIN CALLVALUE ORIGIN CALLDATASIZE CODESIZE CALLDATASIZE CALLER CALLER CALLVALUE CALLDATALOAD CALLVALUE BALANCE CODESIZE KECCAK256 COINBASE KECCAK256 CALLVALUE ADDRESS ADDRESS KECCAK256 CALLVALUE ADDRESS ADDRESS KECCAK256 ADDRESS KECCAK256 ADDRESS KECCAK256 ADDRESS KECCAK256 CALLDATACOPY CODECOPY CALLVALUE 0x2E CODESIZE CALLVALUE ORIGIN CALLDATACOPY BALANCE ORIGIN CALLVALUE CALLDATACOPY CALLVALUE CALLDATASIZE BALANCE CODECOPY KECCAK256 ORIGIN ORIGIN CODECOPY 0x2E BALANCE CALLDATALOAD CALLDATACOPY ORIGIN CODESIZE CALLDATACOPY CALLDATALOAD ORIGIN CALLDATALOAD CALLER CODESIZE BALANCE ADDRESS CALLVALUE KECCAK256 GAS 0x22 KECCAK256 PUSH7 0x696C6C3D22626C PUSH2 0x636B 0x22 KECCAK256 PUSH20 0x74726F6B653D22626C61636B22207374726F6B65 0x2D PUSH24 0x696474683D2231222F3E0A3C7061746820643D224D203638 BALANCE 0x2E CALLDATACOPY ADDRESS CALLDATALOAD CALLDATASIZE ORIGIN CALLDATACOPY CALLVALUE CODESIZE CALLVALUE CALLDATACOPY CALLDATACOPY BALANCE CALLVALUE KECCAK256 CALLER CALLVALUE ORIGIN 0x2E ORIGIN CODECOPY CALLVALUE CALLER CALLDATACOPY ORIGIN CALLDATALOAD BALANCE CALLDATALOAD ORIGIN ORIGIN CODESIZE CALLDATASIZE KECCAK256 COINBASE KECCAK256 ORIGIN CALLVALUE ADDRESS KECCAK256 ORIGIN CALLVALUE ADDRESS KECCAK256 ADDRESS KECCAK256 ADDRESS KECCAK256 BALANCE KECCAK256 CALLDATASIZE CODECOPY CALLDATACOPY 0x2E CALLDATALOAD ORIGIN ORIGIN CALLDATALOAD ADDRESS CODESIZE CODESIZE ADDRESS CALLDATACOPY ADDRESS CALLDATALOAD CALLDATASIZE CODECOPY KECCAK256 CALLER CALLDATALOAD CODECOPY 0x2E CALLDATACOPY CALLVALUE CALLDATALOAD CALLDATASIZE BALANCE BALANCE CODESIZE ADDRESS ADDRESS CALLDATACOPY ORIGIN CALLDATALOAD BALANCE KECCAK256 0x4C KECCAK256 CALLDATACOPY CALLDATALOAD CODECOPY 0x2E CALLER CALLDATASIZE CALLER CALLER CALLVALUE CALLDATALOAD ADDRESS CALLDATACOPY CALLDATASIZE ADDRESS CALLDATACOPY CALLDATALOAD CODESIZE KECCAK256 CALLER ADDRESS CODESIZE 0x2E CODECOPY CODECOPY CALLVALUE BALANCE CALLVALUE CODECOPY ADDRESS CALLDATASIZE CALLDATACOPY CALLDATASIZE CALLER CALLER CALLVALUE CALLER KECCAK256 COINBASE KECCAK256 CALLER ORIGIN ADDRESS KECCAK256 CALLER ORIGIN ADDRESS KECCAK256 ADDRESS KECCAK256 ADDRESS KECCAK256 ADDRESS KECCAK256 CALLDATACOPY CALLER CODESIZE 0x2E ORIGIN CALLDATACOPY CALLVALUE BALANCE CALLDATASIZE CODECOPY CODECOPY CALLDATACOPY CODECOPY CALLDATASIZE CODECOPY CALLDATALOAD ORIGIN KECCAK256 ORIGIN CODESIZE CALLDATALOAD 0x2E CALLDATACOPY ORIGIN CALLDATALOAD CODESIZE CALLER ADDRESS ADDRESS ORIGIN ADDRESS CALLER ADDRESS CALLVALUE CODESIZE KECCAK256 GAS 0x22 KECCAK256 PUSH7 0x696C6C3D22626C PUSH2 0x636B 0x22 KECCAK256 PUSH20 0x74726F6B653D22626C61636B22207374726F6B65 0x2D PUSH24 0x696474683D2231222F3E0A3C7061746820643D224D203632 CALLDATALOAD 0x2E BALANCE CALLER CALLDATACOPY ADDRESS CODESIZE CALLVALUE CODECOPY CODESIZE CODECOPY CODESIZE CALLVALUE CALLDATACOPY CALLDATASIZE KECCAK256 CALLER CODECOPY CODESIZE 0x2E CODESIZE CALLDATASIZE ORIGIN CODECOPY BALANCE CALLDATALOAD ADDRESS BALANCE ADDRESS BALANCE CALLDATALOAD ORIGIN CALLVALUE KECCAK256 COINBASE KECCAK256 BALANCE CALLDATASIZE ADDRESS KECCAK256 BALANCE CALLDATASIZE ADDRESS KECCAK256 ADDRESS KECCAK256 ADDRESS KECCAK256 BALANCE KECCAK256 CALLDATASIZE CALLER CALLDATALOAD 0x2E CALLDATASIZE CODESIZE BALANCE CALLDATASIZE CALLDATACOPY ORIGIN CALLDATALOAD CALLER CODESIZE ADDRESS CALLER CALLDATACOPY CODECOPY KECCAK256 CALLVALUE BALANCE ADDRESS 0x2E CALLVALUE CODECOPY CALLDATACOPY ADDRESS CALLDATACOPY CALLVALUE CALLDATALOAD CALLER CALLER CODESIZE BALANCE CALLDATASIZE CALLDATACOPY KECCAK256 0x4C KECCAK256 CALLDATASIZE CODECOPY CALLDATACOPY 0x2E CALLDATALOAD ORIGIN ORIGIN CALLDATALOAD ADDRESS CODESIZE CODESIZE ADDRESS CALLDATACOPY ADDRESS CALLDATALOAD CALLDATASIZE CODECOPY KECCAK256 CALLER CALLDATALOAD CODECOPY 0x2E CALLDATACOPY CALLVALUE CALLDATALOAD CALLDATASIZE BALANCE BALANCE CODESIZE ADDRESS ADDRESS CALLDATACOPY ORIGIN CALLDATALOAD BALANCE KECCAK256 COINBASE KECCAK256 ORIGIN CALLVALUE ADDRESS KECCAK256 ORIGIN CALLVALUE ADDRESS KECCAK256 ADDRESS KECCAK256 ADDRESS KECCAK256 ADDRESS KECCAK256 CALLDATASIZE CODESIZE BALANCE 0x2E CALLDATACOPY ADDRESS CALLDATALOAD CALLDATASIZE ORIGIN CALLDATACOPY CALLVALUE CODESIZE CALLVALUE CALLDATACOPY CALLDATACOPY BALANCE CALLVALUE KECCAK256 CALLER CALLVALUE ORIGIN 0x2E ORIGIN CODECOPY CALLVALUE CALLER CALLDATACOPY ORIGIN CALLDATALOAD BALANCE CALLDATALOAD ORIGIN ORIGIN CODESIZE CALLDATASIZE KECCAK256 GAS 0x22 KECCAK256 PUSH7 0x696C6C3D22626C PUSH2 0x636B 0x22 KECCAK256 PUSH20 0x74726F6B653D22626C61636B22207374726F6B65 0x2D PUSH24 0x696474683D2231222F3E0A3C7061746820643D224D203832 BALANCE 0x2E ORIGIN ADDRESS CALLVALUE BALANCE CODESIZE BALANCE CALLER CALLVALUE CALLDATALOAD ADDRESS CODECOPY CALLVALUE CODECOPY KECCAK256 ORIGIN CALLDATALOAD CODESIZE 0x2E ORIGIN CALLVALUE ORIGIN CALLDATASIZE CODESIZE CALLDATASIZE CALLER CALLER CALLVALUE CALLDATALOAD CALLVALUE BALANCE CODESIZE KECCAK256 COINBASE KECCAK256 CALLVALUE ADDRESS ADDRESS KECCAK256 CALLVALUE ADDRESS ADDRESS KECCAK256 ADDRESS KECCAK256 ADDRESS KECCAK256 BALANCE KECCAK256 CODESIZE CALLVALUE CALLVALUE 0x2E CALLDATALOAD CODESIZE CALLDATACOPY CODESIZE CALLVALUE CALLVALUE CODECOPY ORIGIN BALANCE ADDRESS BALANCE CODESIZE BALANCE KECCAK256 ORIGIN CODESIZE CODECOPY 0x2E CALLDATACOPY CALLDATACOPY BALANCE CODECOPY ADDRESS CALLDATASIZE CALLDATACOPY CODECOPY ORIGIN BALANCE CALLDATALOAD CODECOPY BALANCE CALLVALUE KECCAK256 0x4C KECCAK256 CODECOPY BALANCE BALANCE 0x2E BALANCE ADDRESS CALLDATALOAD CALLVALUE BALANCE CALLER CODECOPY ADDRESS CALLDATALOAD ORIGIN ORIGIN BALANCE CALLDATACOPY KECCAK256 ORIGIN CALLVALUE CALLDATALOAD 0x2E CALLER ORIGIN CALLDATASIZE ORIGIN CODESIZE CODESIZE BALANCE CALLDATALOAD ADDRESS CALLDATALOAD CODECOPY ADDRESS CODECOPY CALLER KECCAK256 COINBASE KECCAK256 CALLVALUE CODESIZE ADDRESS KECCAK256 CALLVALUE CODESIZE ADDRESS KECCAK256 ADDRESS KECCAK256 ADDRESS KECCAK256 ADDRESS KECCAK256 CODESIZE CODESIZE CALLER 0x2E ADDRESS CALLVALUE CALLDATALOAD ADDRESS BALANCE CALLDATACOPY CALLDATASIZE BALANCE CALLVALUE BALANCE BALANCE CALLER CALLDATACOPY KECCAK256 ORIGIN ADDRESS CALLDATACOPY 0x2E CALLVALUE CODECOPY BALANCE ORIGIN ORIGIN CALLER CALLDATASIZE ADDRESS BALANCE CALLVALUE CALLDATALOAD ADDRESS BALANCE CALLVALUE KECCAK256 GAS 0x22 KECCAK256 PUSH7 0x696C6C3D22626C PUSH2 0x636B 0x22 KECCAK256 PUSH20 0x74726F6B653D22626C61636B22207374726F6B65 0x2D PUSH24 0x696474683D2231222F3E0A3C7061746820643D224D203735 CODECOPY 0x2E CALLER CALLDATASIZE CALLER CALLER CALLVALUE CALLDATALOAD ADDRESS CALLDATACOPY CALLDATASIZE ADDRESS CALLDATACOPY CALLDATALOAD CODESIZE KECCAK256 CALLER ADDRESS CODESIZE 0x2E CODECOPY CODECOPY CALLVALUE BALANCE CALLVALUE CODECOPY ADDRESS CALLDATASIZE CALLDATACOPY CALLDATASIZE CALLER CALLER CALLVALUE CALLER KECCAK256 COINBASE KECCAK256 CALLER ORIGIN ADDRESS KECCAK256 CALLER ORIGIN ADDRESS KECCAK256 ADDRESS KECCAK256 ADDRESS KECCAK256 BALANCE KECCAK256 CALLDATACOPY CALLDATACOPY CODESIZE 0x2E ADDRESS CALLDATACOPY ADDRESS ORIGIN CALLDATACOPY CALLDATALOAD CODECOPY CALLER CALLDATASIZE CODESIZE BALANCE CALLVALUE CALLDATALOAD KECCAK256 CALLER CALLER CALLVALUE 0x2E ORIGIN BALANCE CALLDATACOPY CALLDATALOAD ORIGIN CALLDATALOAD CALLVALUE CALLER CALLER CALLDATACOPY ORIGIN CALLDATACOPY CALLER KECCAK256 0x4C KECCAK256 CODESIZE CALLVALUE CALLVALUE 0x2E CALLDATALOAD CODESIZE CALLDATACOPY CODESIZE CALLVALUE CALLVALUE CODECOPY ORIGIN BALANCE ADDRESS BALANCE CODESIZE BALANCE KECCAK256 ORIGIN CODESIZE CODECOPY 0x2E CALLDATACOPY CALLDATACOPY BALANCE CODECOPY ADDRESS CALLDATASIZE CALLDATACOPY CODECOPY ORIGIN BALANCE CALLDATALOAD CODECOPY BALANCE CALLVALUE KECCAK256 COINBASE KECCAK256 CALLVALUE ADDRESS ADDRESS KECCAK256 CALLVALUE ADDRESS ADDRESS KECCAK256 ADDRESS KECCAK256 ADDRESS KECCAK256 ADDRESS KECCAK256 CODESIZE ORIGIN BALANCE 0x2E ORIGIN ADDRESS CALLVALUE BALANCE CODESIZE BALANCE CALLER CALLVALUE CALLDATALOAD ADDRESS CODECOPY CALLVALUE CODECOPY KECCAK256 ORIGIN CALLDATALOAD CODESIZE 0x2E ORIGIN CALLVALUE ORIGIN CALLDATASIZE CODESIZE CALLDATASIZE CALLER CALLER CALLVALUE CALLDATALOAD CALLVALUE BALANCE CODESIZE KECCAK256 GAS 0x22 KECCAK256 PUSH7 0x696C6C3D22626C PUSH2 0x636B 0x22 KECCAK256 PUSH20 0x74726F6B653D22626C61636B22207374726F6B65 0x2D PUSH24 0x696474683D2231222F3E0A3C7061746820643D224D203639 CALLDATACOPY 0x2E CALLDATALOAD ORIGIN ORIGIN CALLDATALOAD ADDRESS CODESIZE CODESIZE ADDRESS CALLDATACOPY ADDRESS CALLDATALOAD CALLDATASIZE CODECOPY KECCAK256 CALLER CALLDATALOAD CODECOPY 0x2E CALLDATACOPY CALLVALUE CALLDATALOAD CALLDATASIZE BALANCE BALANCE CODESIZE ADDRESS ADDRESS CALLDATACOPY ORIGIN CALLDATALOAD BALANCE KECCAK256 COINBASE KECCAK256 ORIGIN CALLVALUE ADDRESS KECCAK256 ORIGIN CALLVALUE ADDRESS KECCAK256 ADDRESS KECCAK256 ADDRESS KECCAK256 BALANCE KECCAK256 CALLDATACOPY BALANCE BALANCE 0x2E CALLDATALOAD CALLDATALOAD ORIGIN CALLDATACOPY ADDRESS CALLDATASIZE CODECOPY CALLDATALOAD ORIGIN CALLDATASIZE BALANCE ADDRESS CODESIZE KECCAK256 CALLER CALLDATACOPY CODESIZE 0x2E CALLDATASIZE CALLDATASIZE CALLER BALANCE CALLVALUE CALLVALUE ADDRESS CALLDATACOPY CALLDATALOAD ORIGIN CODECOPY CALLDATALOAD CALLVALUE CALLDATASIZE KECCAK256 0x4C KECCAK256 CALLDATACOPY CALLDATACOPY CODESIZE 0x2E ADDRESS CALLDATACOPY ADDRESS ORIGIN CALLDATACOPY CALLDATALOAD CODECOPY CALLER CALLDATASIZE CODESIZE BALANCE CALLVALUE CALLDATALOAD KECCAK256 CALLER CALLER CALLVALUE 0x2E ORIGIN BALANCE CALLDATACOPY CALLDATALOAD ORIGIN CALLDATALOAD CALLVALUE CALLER CALLER CALLDATACOPY ORIGIN CALLDATACOPY CALLER KECCAK256 COINBASE KECCAK256 CALLER ORIGIN ADDRESS KECCAK256 CALLER ORIGIN ADDRESS KECCAK256 ADDRESS KECCAK256 ADDRESS KECCAK256 ADDRESS KECCAK256 CALLDATACOPY CALLDATALOAD CODECOPY 0x2E CALLER CALLDATASIZE CALLER CALLER CALLVALUE CALLDATALOAD ADDRESS CALLDATACOPY CALLDATASIZE ADDRESS CALLDATACOPY CALLDATALOAD CODESIZE KECCAK256 CALLER ADDRESS CODESIZE 0x2E CODECOPY CODECOPY CALLVALUE BALANCE CALLVALUE CODECOPY ADDRESS CALLDATASIZE CALLDATACOPY CALLDATASIZE CALLER CALLER CALLVALUE CALLER KECCAK256 GAS 0x22 KECCAK256 PUSH7 0x696C6C3D22626C PUSH2 0x636B 0x22 KECCAK256 PUSH20 0x74726F6B653D22626C61636B22207374726F6B65 0x2D PUSH24 0x696474683D2231222F3E0A3C7061746820643D224D203633 CALLDATALOAD 0x2E CALLDATASIZE CODESIZE BALANCE CALLDATASIZE CALLDATACOPY ORIGIN CALLDATALOAD CALLER CODESIZE ADDRESS CALLER CALLDATACOPY CODECOPY KECCAK256 CALLVALUE BALANCE ADDRESS 0x2E CALLVALUE CODECOPY CALLDATACOPY ADDRESS CALLDATACOPY CALLVALUE CALLDATALOAD CALLER CALLER CODESIZE BALANCE CALLDATASIZE CALLDATACOPY KECCAK256 COINBASE KECCAK256 BALANCE CALLDATASIZE ADDRESS KECCAK256 BALANCE CALLDATASIZE ADDRESS KECCAK256 ADDRESS KECCAK256 ADDRESS KECCAK256 BALANCE KECCAK256 CALLDATASIZE CALLVALUE CALLDATALOAD 0x2E ADDRESS CALLER CALLDATALOAD BALANCE CALLER CALLDATACOPY CODECOPY CALLDATASIZE CODESIZE CALLVALUE ADDRESS CALLDATACOPY CALLER KECCAK256 CALLVALUE ORIGIN CALLER 0x2E BALANCE ADDRESS CODESIZE CALLDATACOPY CALLDATASIZE ORIGIN CALLDATACOPY BALANCE CALLDATASIZE CODESIZE CALLDATASIZE CALLER CALLDATACOPY KECCAK256 0x4C KECCAK256 CALLDATACOPY BALANCE BALANCE 0x2E CALLDATALOAD CALLDATALOAD ORIGIN CALLDATACOPY ADDRESS CALLDATASIZE CODECOPY CALLDATALOAD ORIGIN CALLDATASIZE BALANCE ADDRESS CODESIZE KECCAK256 CALLER CALLDATACOPY CODESIZE 0x2E CALLDATASIZE CALLDATASIZE CALLER BALANCE CALLVALUE CALLVALUE ADDRESS CALLDATACOPY CALLDATALOAD ORIGIN CODECOPY CALLDATALOAD CALLVALUE CALLDATASIZE KECCAK256 COINBASE KECCAK256 ORIGIN CALLVALUE ADDRESS KECCAK256 ORIGIN CALLVALUE ADDRESS KECCAK256 ADDRESS KECCAK256 ADDRESS KECCAK256 ADDRESS KECCAK256 CALLDATASIZE CODECOPY CALLDATACOPY 0x2E CALLDATALOAD ORIGIN ORIGIN CALLDATALOAD ADDRESS CODESIZE CODESIZE ADDRESS CALLDATACOPY ADDRESS CALLDATALOAD CALLDATASIZE CODECOPY KECCAK256 CALLER CALLDATALOAD CODECOPY 0x2E CALLDATACOPY CALLVALUE CALLDATALOAD CALLDATASIZE BALANCE BALANCE CODESIZE ADDRESS ADDRESS CALLDATACOPY ORIGIN CALLDATALOAD BALANCE KECCAK256 GAS 0x22 KECCAK256 PUSH7 0x696C6C3D22626C PUSH2 0x636B 0x22 KECCAK256 PUSH20 0x74726F6B653D22626C61636B22207374726F6B65 0x2D PUSH24 0x696474683D2231222F3E0A3C7061746820643D224D203834 CALLVALUE 0x2E CALLDATALOAD CODESIZE CALLDATACOPY CODESIZE CALLVALUE CALLVALUE CODECOPY ORIGIN BALANCE ADDRESS BALANCE CODESIZE BALANCE KECCAK256 ORIGIN CODESIZE CODECOPY 0x2E CALLDATACOPY CALLDATACOPY BALANCE CODECOPY ADDRESS CALLDATASIZE CALLDATACOPY CODECOPY ORIGIN BALANCE CALLDATALOAD CODECOPY BALANCE CALLVALUE KECCAK256 COINBASE KECCAK256 CALLVALUE ADDRESS ADDRESS KECCAK256 CALLVALUE ADDRESS ADDRESS KECCAK256 ADDRESS KECCAK256 ADDRESS KECCAK256 BALANCE KECCAK256 CODESIZE CALLDATASIZE CALLVALUE 0x2E CALLDATACOPY CALLDATASIZE CODESIZE CALLDATALOAD ADDRESS CALLDATALOAD CALLDATACOPY CALLER CODECOPY CALLER CALLVALUE ORIGIN KECCAK256 CALLER ORIGIN CALLER 0x2E CALLVALUE CALLVALUE BALANCE CALLER ADDRESS CALLDATALOAD ORIGIN CALLDATASIZE CODECOPY CALLDATASIZE ADDRESS ADDRESS CODECOPY CALLDATALOAD KECCAK256 0x4C KECCAK256 CODECOPY CALLER CALLDATALOAD 0x2E CALLER ORIGIN ORIGIN ORIGIN ADDRESS CALLDATASIZE CODESIZE CODESIZE CALLDATACOPY ORIGIN BALANCE ADDRESS CALLVALUE KECCAK256 ORIGIN CODESIZE CALLDATALOAD 0x2E CALLDATACOPY ORIGIN CODECOPY CALLDATALOAD CALLDATASIZE CALLDATASIZE CALLER ORIGIN CALLER CALLDATALOAD ORIGIN BALANCE BALANCE KECCAK256 COINBASE KECCAK256 CALLVALUE CODESIZE ADDRESS KECCAK256 CALLVALUE CODESIZE ADDRESS KECCAK256 ADDRESS KECCAK256 ADDRESS KECCAK256 ADDRESS KECCAK256 CODECOPY BALANCE BALANCE 0x2E BALANCE ADDRESS CALLDATALOAD CALLVALUE BALANCE CALLER CODECOPY ADDRESS CALLDATALOAD ORIGIN ORIGIN BALANCE CALLDATACOPY KECCAK256 ORIGIN CALLVALUE CALLDATALOAD 0x2E CALLER ORIGIN CALLDATASIZE ORIGIN CODESIZE CODESIZE BALANCE CALLDATALOAD ADDRESS CALLDATALOAD CODECOPY ADDRESS CODECOPY CALLER KECCAK256 GAS 0x22 KECCAK256 PUSH7 0x696C6C3D22626C PUSH2 0x636B 0x22 KECCAK256 PUSH20 0x74726F6B653D22626C61636B22207374726F6B65 0x2D PUSH24 0x696474683D2231222F3E0A3C7061746820643D224D203737 CODESIZE 0x2E ADDRESS CALLDATACOPY ADDRESS ORIGIN CALLDATACOPY CALLDATALOAD CODECOPY CALLER CALLDATASIZE CODESIZE BALANCE CALLVALUE CALLDATALOAD KECCAK256 CALLER CALLER CALLVALUE 0x2E ORIGIN BALANCE CALLDATACOPY CALLDATALOAD ORIGIN CALLDATALOAD CALLVALUE CALLER CALLER CALLDATACOPY ORIGIN CALLDATACOPY CALLER KECCAK256 COINBASE KECCAK256 CALLER ORIGIN ADDRESS KECCAK256 CALLER ORIGIN ADDRESS KECCAK256 ADDRESS KECCAK256 ADDRESS KECCAK256 BALANCE KECCAK256 CALLDATACOPY CODECOPY CALLVALUE 0x2E ORIGIN BALANCE CALLVALUE CODESIZE ADDRESS CALLVALUE CALLDATALOAD CODECOPY BALANCE CALLVALUE CALLDATACOPY CALLER CALLDATACOPY KECCAK256 CALLER CALLDATASIZE BALANCE 0x2E BALANCE CALLDATALOAD CALLER ADDRESS CALLVALUE CALLVALUE ORIGIN BALANCE CALLDATALOAD CALLDATASIZE CODESIZE ADDRESS CODESIZE KECCAK256 0x4C KECCAK256 CODESIZE CALLDATASIZE CALLVALUE 0x2E CALLDATACOPY CALLDATASIZE CODESIZE CALLDATALOAD ADDRESS CALLDATALOAD CALLDATACOPY CALLER CODECOPY CALLER CALLVALUE ORIGIN KECCAK256 CALLER ORIGIN CALLER 0x2E CALLVALUE CALLVALUE BALANCE CALLER ADDRESS CALLDATALOAD ORIGIN CALLDATASIZE CODECOPY CALLDATASIZE ADDRESS ADDRESS CODECOPY CALLDATALOAD KECCAK256 COINBASE KECCAK256 CALLVALUE ADDRESS ADDRESS KECCAK256 CALLVALUE ADDRESS ADDRESS KECCAK256 ADDRESS KECCAK256 ADDRESS KECCAK256 ADDRESS KECCAK256 CODESIZE CALLVALUE CALLVALUE 0x2E CALLDATALOAD CODESIZE CALLDATACOPY CODESIZE CALLVALUE CALLVALUE CODECOPY ORIGIN BALANCE ADDRESS BALANCE CODESIZE BALANCE KECCAK256 ORIGIN CODESIZE CODECOPY 0x2E CALLDATACOPY CALLDATACOPY BALANCE CODECOPY ADDRESS CALLDATASIZE CALLDATACOPY CODECOPY ORIGIN BALANCE CALLDATALOAD CODECOPY BALANCE CALLVALUE KECCAK256 GAS 0x22 KECCAK256 PUSH7 0x696C6C3D22626C PUSH2 0x636B 0x22 KECCAK256 PUSH20 0x74726F6B653D22626C61636B22207374726F6B65 0x2D PUSH24 0x696474683D2231222F3E0A3C7061746820643D224D203731 BALANCE 0x2E CALLDATALOAD CALLDATALOAD ORIGIN CALLDATACOPY ADDRESS CALLDATASIZE CODECOPY CALLDATALOAD ORIGIN CALLDATASIZE BALANCE ADDRESS CODESIZE KECCAK256 CALLER CALLDATACOPY CODESIZE 0x2E CALLDATASIZE CALLDATASIZE CALLER BALANCE CALLVALUE CALLVALUE ADDRESS CALLDATACOPY CALLDATALOAD ORIGIN CODECOPY CALLDATALOAD CALLVALUE CALLDATASIZE KECCAK256 COINBASE KECCAK256 ORIGIN CALLVALUE ADDRESS KECCAK256 ORIGIN CALLVALUE ADDRESS KECCAK256 ADDRESS KECCAK256 ADDRESS KECCAK256 BALANCE KECCAK256 CALLDATACOPY ORIGIN CALLER 0x2E CALLDATASIZE CALLDATASIZE BALANCE BALANCE ADDRESS CALLER CALLVALUE CALLVALUE CALLER CALLDATASIZE ADDRESS CALLDATALOAD CALLER KECCAK256 CALLER CODECOPY CODESIZE 0x2E CODESIZE CALLDATASIZE CALLVALUE CALLDATACOPY CODESIZE CALLER BALANCE CALLDATASIZE BALANCE CALLDATACOPY CALLDATASIZE ADDRESS CALLDATALOAD CALLDATASIZE KECCAK256 0x4C KECCAK256 CALLDATACOPY CODECOPY CALLVALUE 0x2E ORIGIN BALANCE CALLVALUE CODESIZE ADDRESS CALLVALUE CALLDATALOAD CODECOPY BALANCE CALLVALUE CALLDATACOPY CALLER CALLDATACOPY KECCAK256 CALLER CALLDATASIZE BALANCE 0x2E BALANCE CALLDATALOAD CALLER ADDRESS CALLVALUE CALLVALUE ORIGIN BALANCE CALLDATALOAD CALLDATASIZE CODESIZE ADDRESS CODESIZE KECCAK256 COINBASE KECCAK256 CALLER ORIGIN ADDRESS KECCAK256 CALLER ORIGIN ADDRESS KECCAK256 ADDRESS KECCAK256 ADDRESS KECCAK256 ADDRESS KECCAK256 CALLDATACOPY CALLDATACOPY CODESIZE 0x2E ADDRESS CALLDATACOPY ADDRESS ORIGIN CALLDATACOPY CALLDATALOAD CODECOPY CALLER CALLDATASIZE CODESIZE BALANCE CALLVALUE CALLDATALOAD KECCAK256 CALLER CALLER CALLVALUE 0x2E ORIGIN BALANCE CALLDATACOPY CALLDATALOAD ORIGIN CALLDATALOAD CALLVALUE CALLER CALLER CALLDATACOPY ORIGIN CALLDATACOPY CALLER KECCAK256 GAS 0x22 KECCAK256 PUSH7 0x696C6C3D22626C PUSH2 0x636B 0x22 KECCAK256 PUSH20 0x74726F6B653D22626C61636B22207374726F6B65 0x2D PUSH24 0x696474683D2231222F3E0A3C7061746820643D224D203634 CALLDATALOAD 0x2E ADDRESS CALLER CALLDATALOAD BALANCE CALLER CALLDATACOPY CODECOPY CALLDATASIZE CODESIZE CALLVALUE ADDRESS CALLDATACOPY CALLER KECCAK256 CALLVALUE ORIGIN CALLER 0x2E BALANCE ADDRESS CODESIZE CALLDATACOPY CALLDATASIZE ORIGIN CALLDATACOPY BALANCE CALLDATASIZE CODESIZE CALLDATASIZE CALLER CALLDATACOPY KECCAK256 COINBASE KECCAK256 BALANCE CALLDATASIZE ADDRESS KECCAK256 BALANCE CALLDATASIZE ADDRESS KECCAK256 ADDRESS KECCAK256 ADDRESS KECCAK256 BALANCE KECCAK256 CALLDATASIZE CALLDATALOAD CALLER 0x2E BALANCE ADDRESS CALLDATACOPY CALLVALUE ADDRESS ORIGIN ORIGIN CODECOPY CALLDATALOAD CALLDATACOPY CALLER CALLDATASIZE CODESIZE KECCAK256 CALLVALUE CALLER CALLDATASIZE 0x2E CALLDATALOAD CALLDATACOPY CALLDATASIZE CALLDATALOAD ORIGIN ORIGIN BALANCE ADDRESS CALLDATACOPY CODESIZE CALLVALUE ADDRESS CALLVALUE KECCAK256 0x4C KECCAK256 CALLDATACOPY ORIGIN CALLER 0x2E CALLDATASIZE CALLDATASIZE BALANCE BALANCE ADDRESS CALLER CALLVALUE CALLVALUE CALLER CALLDATASIZE ADDRESS CALLDATALOAD CALLER KECCAK256 CALLER CODECOPY CODESIZE 0x2E CODESIZE CALLDATASIZE CALLVALUE CALLDATACOPY CODESIZE CALLER BALANCE CALLDATASIZE BALANCE CALLDATACOPY CALLDATASIZE ADDRESS CALLDATALOAD CALLDATASIZE KECCAK256 COINBASE KECCAK256 ORIGIN CALLVALUE ADDRESS KECCAK256 ORIGIN CALLVALUE ADDRESS KECCAK256 ADDRESS KECCAK256 ADDRESS KECCAK256 ADDRESS KECCAK256 CALLDATACOPY BALANCE BALANCE 0x2E CALLDATALOAD CALLDATALOAD ORIGIN CALLDATACOPY ADDRESS CALLDATASIZE CODECOPY CALLDATALOAD ORIGIN CALLDATASIZE BALANCE ADDRESS CODESIZE KECCAK256 CALLER CALLDATACOPY CODESIZE 0x2E CALLDATASIZE CALLDATASIZE CALLER BALANCE CALLVALUE CALLVALUE ADDRESS CALLDATACOPY CALLDATALOAD ORIGIN CODECOPY CALLDATALOAD CALLVALUE CALLDATASIZE KECCAK256 GAS 0x22 KECCAK256 PUSH7 0x696C6C3D22626C PUSH2 0x636B 0x22 KECCAK256 PUSH20 0x74726F6B653D22626C61636B22207374726F6B65 0x2D PUSH24 0x696474683D2231222F3E0A3C7061746820643D224D203836 CALLVALUE 0x2E CALLDATACOPY CALLDATASIZE CODESIZE CALLDATALOAD ADDRESS CALLDATALOAD CALLDATACOPY CALLER CODECOPY CALLER CALLVALUE ORIGIN KECCAK256 CALLER ORIGIN CALLER 0x2E CALLVALUE CALLVALUE BALANCE CALLER ADDRESS CALLDATALOAD ORIGIN CALLDATASIZE CODECOPY CALLDATASIZE ADDRESS ADDRESS CODECOPY KECCAK256 COINBASE KECCAK256 CALLVALUE ADDRESS ADDRESS KECCAK256 CALLVALUE ADDRESS ADDRESS KECCAK256 ADDRESS KECCAK256 ADDRESS KECCAK256 BALANCE KECCAK256 CODESIZE CODESIZE BALANCE 0x2E CALLDATALOAD CALLDATALOAD BALANCE CODESIZE BALANCE CALLER ADDRESS ADDRESS CALLVALUE CALLDATALOAD BALANCE CALLVALUE CODESIZE KECCAK256 CALLER CALLDATALOAD CODESIZE 0x2E CODECOPY ORIGIN CALLDATASIZE CALLDATASIZE ORIGIN CALLDATACOPY ADDRESS CALLDATALOAD CALLER CODECOPY CALLDATASIZE CALLVALUE ADDRESS CALLDATACOPY KECCAK256 0x4C KECCAK256 CODECOPY CALLDATALOAD CALLDATALOAD 0x2E CALLVALUE CALLDATASIZE ORIGIN BALANCE CALLDATACOPY CALLDATALOAD CALLDATASIZE ADDRESS CALLDATALOAD CALLVALUE BALANCE CALLDATACOPY CALLDATACOPY KECCAK256 CALLER ORIGIN CODESIZE 0x2E CALLER BALANCE BALANCE CODECOPY CALLDATALOAD ORIGIN CALLVALUE CALLDATASIZE CALLVALUE CALLDATACOPY CALLDATALOAD CALLDATASIZE CODESIZE CALLDATACOPY KECCAK256 COINBASE KECCAK256 CALLVALUE CODESIZE ADDRESS KECCAK256 CALLVALUE CODESIZE ADDRESS KECCAK256 ADDRESS KECCAK256 ADDRESS KECCAK256 ADDRESS KECCAK256 CODECOPY CALLER CALLDATALOAD 0x2E CALLER ORIGIN ORIGIN ORIGIN ADDRESS CALLDATASIZE CODESIZE CODESIZE CALLDATACOPY ORIGIN BALANCE ADDRESS CALLER KECCAK256 ORIGIN CODESIZE CALLDATALOAD 0x2E CALLDATACOPY ORIGIN CODECOPY CALLDATALOAD CALLDATASIZE CALLDATASIZE CALLER ORIGIN CALLER CALLDATALOAD ORIGIN BALANCE BALANCE KECCAK256 GAS 0x22 KECCAK256 PUSH7 0x696C6C3D22626C PUSH2 0x636B 0x22 KECCAK256 PUSH20 0x74726F6B653D22626C61636B22207374726F6B65 0x2D PUSH24 0x696474683D2231222F3E0A3C7061746820643D224D203739 CALLVALUE 0x2E ORIGIN BALANCE CALLVALUE CODESIZE ADDRESS CALLVALUE CALLDATALOAD CODECOPY BALANCE CALLVALUE CALLDATACOPY CALLER CALLDATASIZE KECCAK256 CALLER CALLDATASIZE BALANCE 0x2E BALANCE CALLDATALOAD CALLER ADDRESS CALLVALUE CALLVALUE ORIGIN BALANCE CALLDATALOAD CALLDATASIZE CODESIZE ADDRESS CALLDATACOPY KECCAK256 COINBASE KECCAK256 CALLER ORIGIN ADDRESS KECCAK256 CALLER ORIGIN ADDRESS KECCAK256 ADDRESS KECCAK256 ADDRESS KECCAK256 BALANCE KECCAK256 CODESIZE ADDRESS CALLDATACOPY 0x2E CALLDATASIZE CALLVALUE BALANCE CALLVALUE CALLDATALOAD ADDRESS CALLVALUE ADDRESS CALLER CALLDATASIZE BALANCE BALANCE CODESIZE KECCAK256 CALLER CODESIZE CODECOPY 0x2E CALLDATALOAD CALLVALUE BALANCE CALLER ADDRESS BALANCE CALLDATASIZE CALLVALUE CALLER BALANCE CALLDATACOPY BALANCE ORIGIN CALLDATACOPY KECCAK256 0x4C KECCAK256 CODESIZE CODESIZE BALANCE 0x2E CALLDATALOAD CALLDATALOAD BALANCE CODESIZE BALANCE CALLER ADDRESS ADDRESS CALLVALUE CALLDATALOAD BALANCE CALLVALUE CODESIZE KECCAK256 CALLER CALLDATALOAD CODESIZE 0x2E CODECOPY ORIGIN CALLDATASIZE CALLDATASIZE ORIGIN CALLDATACOPY ADDRESS CALLDATALOAD CALLER CODECOPY CALLDATASIZE CALLVALUE ADDRESS CALLDATACOPY KECCAK256 COINBASE KECCAK256 CALLVALUE ADDRESS ADDRESS KECCAK256 CALLVALUE ADDRESS ADDRESS KECCAK256 ADDRESS KECCAK256 ADDRESS KECCAK256 ADDRESS KECCAK256 CODESIZE CALLDATASIZE CALLVALUE 0x2E CALLDATACOPY CALLDATASIZE CODESIZE CALLDATALOAD ADDRESS CALLDATALOAD CALLDATACOPY CALLER CODECOPY CALLER CALLVALUE ORIGIN KECCAK256 CALLER ORIGIN CALLER 0x2E CALLVALUE CALLVALUE BALANCE CALLER ADDRESS CALLDATALOAD ORIGIN CALLDATASIZE CODECOPY CALLDATASIZE ADDRESS ADDRESS CODECOPY KECCAK256 GAS 0x22 KECCAK256 PUSH7 0x696C6C3D22626C PUSH2 0x636B 0x22 KECCAK256 PUSH20 0x74726F6B653D22626C61636B22207374726F6B65 0x2D PUSH24 0x696474683D2231222F3E0A3C7061746820643D224D203732 CALLER 0x2E CALLDATASIZE CALLDATASIZE BALANCE BALANCE ADDRESS CALLER CALLVALUE CALLVALUE CALLER CALLDATASIZE ADDRESS CALLDATALOAD ORIGIN KECCAK256 CALLER CODECOPY CODESIZE 0x2E CODESIZE CALLDATASIZE CALLVALUE CALLDATACOPY CODESIZE CALLER BALANCE CALLDATASIZE BALANCE CALLDATACOPY CALLDATASIZE ADDRESS CALLDATALOAD CALLDATASIZE KECCAK256 COINBASE KECCAK256 ORIGIN CALLVALUE ADDRESS KECCAK256 ORIGIN CALLVALUE ADDRESS KECCAK256 ADDRESS KECCAK256 ADDRESS KECCAK256 BALANCE KECCAK256 CALLDATACOPY CALLER CALLER 0x2E CALLDATACOPY CALLER BALANCE ADDRESS CODESIZE CALLDATACOPY CODESIZE ADDRESS ORIGIN CALLDATACOPY ADDRESS CODESIZE CODESIZE KECCAK256 CALLVALUE ORIGIN ADDRESS 0x2E BALANCE CALLDATALOAD CALLDATALOAD CODECOPY CALLDATACOPY CALLDATASIZE ORIGIN CALLER ORIGIN CALLER CALLDATACOPY CODESIZE CALLVALUE KECCAK256 0x4C KECCAK256 CODESIZE ADDRESS CALLDATACOPY 0x2E CALLDATASIZE CALLVALUE BALANCE CALLVALUE CALLDATALOAD ADDRESS CALLVALUE ADDRESS CALLER CALLDATASIZE BALANCE BALANCE CODESIZE KECCAK256 CALLER CODESIZE CODECOPY 0x2E CALLDATALOAD CALLVALUE BALANCE CALLER ADDRESS BALANCE CALLDATASIZE CALLVALUE CALLER BALANCE CALLDATACOPY BALANCE ORIGIN CALLDATACOPY KECCAK256 COINBASE KECCAK256 CALLER ORIGIN ADDRESS KECCAK256 CALLER ORIGIN ADDRESS KECCAK256 ADDRESS KECCAK256 ADDRESS KECCAK256 ADDRESS KECCAK256 CALLDATACOPY CODECOPY CALLVALUE 0x2E ORIGIN BALANCE CALLVALUE CODESIZE ADDRESS CALLVALUE CALLDATALOAD CODECOPY BALANCE CALLVALUE CALLDATACOPY CALLER CALLDATASIZE KECCAK256 CALLER CALLDATASIZE BALANCE 0x2E BALANCE CALLDATALOAD CALLER ADDRESS CALLVALUE CALLVALUE ORIGIN BALANCE CALLDATALOAD CALLDATASIZE CODESIZE ADDRESS CALLDATACOPY KECCAK256 GAS 0x22 KECCAK256 PUSH7 0x696C6C3D22626C PUSH2 0x636B 0x22 KECCAK256 PUSH20 0x74726F6B653D22626C61636B22207374726F6B65 0x2D PUSH24 0x696474683D2231222F3E0A3C7061746820643D224D203635 CALLER 0x2E BALANCE ADDRESS CALLDATACOPY CALLVALUE ADDRESS ORIGIN ORIGIN CODECOPY CALLDATALOAD CALLDATACOPY CALLER CALLDATASIZE CODESIZE KECCAK256 CALLVALUE CALLER CALLDATASIZE 0x2E CALLDATALOAD CALLDATACOPY CALLDATASIZE CALLDATALOAD ORIGIN ORIGIN BALANCE ADDRESS CALLDATACOPY CODESIZE CALLVALUE ADDRESS CALLER CALLER KECCAK256 COINBASE KECCAK256 BALANCE CALLDATASIZE ADDRESS KECCAK256 BALANCE CALLDATASIZE ADDRESS KECCAK256 ADDRESS KECCAK256 ADDRESS KECCAK256 BALANCE KECCAK256 CALLDATASIZE CALLDATALOAD CODECOPY 0x2E CODESIZE ORIGIN ADDRESS CALLDATACOPY ORIGIN CALLDATALOAD ORIGIN ADDRESS BALANCE CODESIZE ADDRESS CALLDATALOAD CODECOPY KECCAK256 CALLVALUE CALLDATALOAD ADDRESS 0x2E CALLDATACOPY CALLDATACOPY ADDRESS CALLDATASIZE CALLDATALOAD ADDRESS CODESIZE ORIGIN BALANCE CALLDATALOAD CODESIZE CALLDATALOAD CALLDATASIZE KECCAK256 0x4C KECCAK256 CALLDATACOPY CALLER CALLER 0x2E CALLDATACOPY CALLER BALANCE ADDRESS CODESIZE CALLDATACOPY CODESIZE ADDRESS ORIGIN CALLDATACOPY ADDRESS CODESIZE CODESIZE KECCAK256 CALLVALUE ORIGIN ADDRESS 0x2E BALANCE CALLDATALOAD CALLDATALOAD CODECOPY CALLDATACOPY CALLDATASIZE ORIGIN CALLER ORIGIN CALLER CALLDATACOPY CODESIZE CALLVALUE KECCAK256 COINBASE KECCAK256 ORIGIN CALLVALUE ADDRESS KECCAK256 ORIGIN CALLVALUE ADDRESS KECCAK256 ADDRESS KECCAK256 ADDRESS KECCAK256 ADDRESS KECCAK256 CALLDATACOPY ORIGIN CALLER 0x2E CALLDATASIZE CALLDATASIZE BALANCE BALANCE ADDRESS CALLER CALLVALUE CALLVALUE CALLER CALLDATASIZE ADDRESS CALLDATALOAD ORIGIN KECCAK256 CALLER CODECOPY CODESIZE 0x2E CODESIZE CALLDATASIZE CALLVALUE CALLDATACOPY CODESIZE CALLER BALANCE CALLDATASIZE BALANCE CALLDATACOPY CALLDATASIZE ADDRESS CALLDATALOAD CALLDATASIZE KECCAK256 GAS 0x22 KECCAK256 PUSH7 0x696C6C3D22626C PUSH2 0x636B 0x22 KECCAK256 PUSH20 0x74726F6B653D22626C61636B22207374726F6B65 0x2D PUSH24 0x696474683D2231222F3E0A3C7061746820643D224D203838 BALANCE 0x2E CALLDATALOAD CALLDATALOAD BALANCE "
				},
				"gasEstimates": {
					"creation": {
						"codeDepositCost": "66600",
						"executionCost": "infinite",
						"totalCost": "infinite"
					},
					"external": {
						"getChunk()": "infinite",
						"svgChunk2()": "infinite"
					}
				},
				"methodIdentifiers": {
					"getChunk()": "f5668524",
					"svgChunk2()": "edcf506e"
				}
			},
			"storageLayout": {
				"storage": [],
				"types": null
			},
			"userdoc": {
				"kind": "user",
				"methods": {},
				"version": 1
			}
		}
	}
}