{
	"contracts/HashJingSVGStorage8.sol": {
		"TestStorage": {
			"abi": [
				{
					"inputs": [],
					"stateMutability": "nonpayable",
					"type": "constructor"
				},
				{
					"inputs": [],
					"name": "WriteError",
					"type": "error"
				},
				{
					"inputs": [],
					"name": "getPointer",
					"outputs": [
						{
							"internalType": "address",
							"name": "",
							"type": "address"
						}
					],
					"stateMutability": "view",
					"type": "function"
				},
				{
					"inputs": [],
					"name": "ptr",
					"outputs": [
						{
							"internalType": "address",
							"name": "",
							"type": "address"
						}
					],
					"stateMutability": "view",
					"type": "function"
				}
			],
			"devdoc": {
				"kind": "dev",
				"methods": {},
				"version": 1
			},
			"evm": {
				"assembly": "    /* \"contracts/HashJingSVGStorage8.sol\":83:12579  contract TestStorage {... */\n  mstore(0x40, 0xa0)\n    /* \"contracts/HashJingSVGStorage8.sol\":145:12490  constructor() {... */\n  callvalue\n  dup1\n  iszero\n  tag_1\n  jumpi\n  0x00\n  dup1\n  revert\ntag_1:\n  pop\n    /* \"contracts/HashJingSVGStorage8.sol\":175:12483  SSTORE2.write(hex\"653d22626c61636b22207374726f6b652d77696474683d2231222f3e0a3c7061746820643d224d203132392e32323338363537303731313635203632382e3131333837303930313738343920412034303020343030203020302031203131392e36383538383738333837303738203539302e30333631323838303634353133204c2034312e3232333036353430363434393339203630352e36343333353435363737343135204120343830203438302030203020302035322e363638363338383438353339373836203635312e33333636343530383231343139205a222066696c6c3d22626c61636b22207374726f6b653d22626c61636b22207374726f6b652d77696474683d2231222f3e0a3c7061746820643d224d203230352e37373930393235363536393332203630342e38393130393637323134323820412033323020333230203020302031203139382e3134383731303237303936363236203537342e34323839303330343531363131204c203131392e36383538383738333837303738203539302e3033363132383830363435313320412034303020343030203020302030203132392e32323338363537303731313635203632382e31313338373039303137383439205a222066696c6c3d22626c61636b22207374726f6b653d22626c61636b22207374726f6b652d77696474683d2231222f3e0a3c7061746820643d224d203238322e33333433313934323432363939203538312e36363833323235343130373120412032343020323430203020302031203237362e36313135333237303332323437203535382e38323136373732383338373037204c203139382e3134383731303237303936363236203537342e3432383930333034353136313120412033323020333230203020302030203230352e37373930393235363536393332203630342e383931303936373231343238205a222066696c6c3d22626c61636b22207374726f6b653d22626c61636b22207374726f6b652d77696474683d2231222f3e0a3c7061746820643d224d203335382e38383935343632383238343636203535382e3434353534383336303731333920412031363020313630203020302031203335352e3037343335353133353438333133203534332e32313434353135323235383035204c203237362e36313135333237303332323437203535382e3832313637373238333837303720412032343020323430203020302030203238322e33333433313934323432363939203538312e363638333232353431303731205a222066696c6c3d22626c61636b22207374726f6b653d22626c61636b22207374726f6b652d77696474683d2231222f3e0a3c7061746820643d224d203131392e36383538383738333837303738203539302e3033363132383830363435313420412034303020343030203020302031203131332e3932363130393333313132313237203535312e32303638353631333138323433204c2033342e3331313333313139373334353531203535392e30343832323733353831383933204120343830203438302030203020302034312e3232333036353430363434393339203630352e36343333353435363737343138205a222066696c6c3d22626c61636b22207374726f6b653d22626c61636b22207374726f6b652d77696474683d2231222f3e0a3c7061746820643d224d203139382e3134383731303237303936363236203537342e3432383930333034353136313220412033323020333230203020302031203139332e3534303838373436343839373033203534332e33363534383439303534353934204c203131332e3932363130393333313132313237203535312e3230363835363133313832343320412034303020343030203020302030203131392e36383538383738333837303738203539302e30333631323838303634353134205a222066696c6c3d22626c61636b22207374726f6b653d22626c61636b22207374726f6b652d77696474683d2231222f3e0a3c7061746820643d224d203237362e36313135333237303332323437203535382e3832313637373238333837303820412032343020323430203020302031203237332e31353536363535393836373237203533352e35323431313336373930393436204c203139332e3534303838373436343839373033203534332e3336353438343930353435393420412033323020333230203020302030203139382e3134383731303237303936363236203537342e34323839303330343531363132205a222066696c6c3d22626c61636b22207374726f6b653d22626c61636b22207374726f6b652d77696474683d2231222f3e0a3c7061746820643d224d203335352e3037343335353133353438333133203534332e3231343435313532323538303620412031363020313630203020302031203335322e37373034343337333234343835203532372e36383237343234353237323937204c203237332e31353536363535393836373237203533352e3532343131333637393039343620412032343020323430203020302030203237362e36313135333237303332323437203535382e38323136373732383338373038205a222066696c6c3d22626c61636b22207374726f6b653d22626c61636b22207374726f6b652d77696474683d2231222f3e0a3c7061746820643d224d203131332e3932363130393333313132313231203535312e323036383536313331383234312041203430302034303020302030203120313132203531312e39393939393939393939393939204c203332203531312e3939393939393939393939393833204120343830203438302030203020302033342e3331313333313139373334353435203535392e303438323237333538313839205a222066696c6c3d22626c61636b22207374726f6b653d22626c61636b22207374726f6b652d77696474683d2231222f3e0a3c7061746820643d224d203139332e3534303838373436343839363937203534332e333635343834393035343539332041203332302033323020302030203120313932203531312e39393939393939393939393939204c20313132203531312e3939393939393939393939393920412034303020343030203020302030203131332e3932363130393333313132313231203535312e32303638353631333138323431205a222066696c6c3d22626c61636b22207374726f6b653d22626c61636b22207374726f6b652d77696474683d2231222f3e0a3c7061746820643d224d203237332e31353536363535393836373237203533352e353234313133363739303934352041203234302032343020302030203120323732203531312e3939393939393939393939393934204c20313932203531312e3939393939393939393939393920412033323020333230203020302030203139332e3534303838373436343839363937203534332e33363534383439303534353933205a222066696c6c3d22626c61636b22207374726f6b653d22626c61636b22207374726f6b652d77696474683d2231222f3e0a3c7061746820643d224d203335322e37373034343337333234343835203532372e363832373432343532373239372041203136302031363020302030203120333532203531312e3939393939393939393939393934204c20323732203531312e393939393939393939393939393420412032343020323430203020302030203237332e31353536363535393836373237203533352e35323431313336373930393435205a222066696c6c3d22626c61636b22207374726f6b653d22626c61636b22207374726f6b652d77696474683d2231222f3e0a3c7061746820643d224d203131322035313220412034303020343030203020302031203131332e3932363130393333313132313231203437322e37393331343338363831373538204c2033342e3331313333313139373334353435203436342e3935313737323634313831303920412034383020343830203020302030203332203531322e30303030303030303030303031205a222066696c6c3d22626c61636b22207374726f6b653d22626c61636b22207374726f6b652d77696474683d2231222f3e0a3c7061746820643d224d203139322035313220412033323020333230203020302031203139332e3534303838373436343839363937203438302e3633343531353039343534303633204c203131332e3932363130393333313132313231203437322e37393331343338363831373538204120343030203430302030203020302031313220353132205a222066696c6c3d22626c61636b22207374726f6b653d22626c61636b22207374726f6b652d77696474683d2231222f3e0a3c7061746820643d224d203237322035313220412032343020323430203020302031203237332e31353536363535393836373237203438382e34373538383633323039303535204c203139332e3534303838373436343839363937203438302e3633343531353039343534303633204120333230203332302030203020302031393220353132205a222066696c6c3d22626c61636b22207374726f6b653d22626c61636b22207374726f6b652d77696474683d2231222f3e0a3c7061746820643d224d203335322035313220412031363020313630203020302031203335322e37373034343337333234343835203439362e33313732353735343732373033204c203237332e31353536363535393836373237203438382e34373538383633323039303535204120323430203234302030203020302032373220353132205a222066696c6c3d22626c61636b22207374726f6b653d22626c61636b22207374726f6b652d77696474683d2231222f3e0a3c7061746820643d224d203131332e3932363130393333313132313231203437322e373933313433383638313735393520412034303020343030203020302031203131392e36383538383738333837303738203433332e39363338373131393335343838204c2034312e3232333036353430363434393334203431382e33353636343534333232353836204120343830203438302030203020302033342e3331313333313139373334353435203436342e3935313737323634313831313135205a222066696c6c3d22626c61636b22207374726f6b653d22626c61636b22207374726f6b652d77696474683d2231222f3e0a3c7061746820643d224d203139332e3534303838373436343839363937203438302e363334353135303934353430373520412033323020333230203020302031203139382e31343837313032373039363632203434392e3537313039363935343833393035204c203131392e36383538383738333837303738203433332e3936333837313139333534383820412034303020343030203020302030203131332e3932363130393333313132313231203437322e3739333134333836383137353935205a222066696c6c3d22626c61636b22207374726f6b653d22626c61636b22207374726f6b652d77696474683d2231222f3e0a3c7061746820643d224d203237332e31353536363535393836373237203438382e343735383836333230393035353420412032343020323430203020302031203237362e3631313533323730333232343637203436352e31373833323237313631323933204c203139382e31343837313032373039363632203434392e353731303936393534383339303520412033323020333230203020302030203139332e3534303838373436343839363937203438302e3633343531353039343534303735205a222066696c6c3d22626c61636b22207374726f6b653d22626c61636b22207374726f6b652d77696474683d2231222f3e0a3c7061746820643d224d203335322e37373034343337333234343835203439362e3331373235373534373237303420412031363020313630203020302031203335352e30373433353531333534383331203438302e37383535343834373734313935204c203237362e3631313533323730333232343637203436352e3137383332323731363132393320412032343020323430203020302030203237332e31353536363535393836373237203438382e3437353838363332303930353534205a222066696c6c3d22626c61636b22207374726f6b653d22626c61636b22207374726f6b652d77696474683d2231222f3e0a3c7061746820643d224d203131392e36383538383738333837303738203433332e393633383731313933353438363420412034303020343030203020302031203132392e32323338363537303731313635203339352e3838363132393039383231343935204c2035322e363638363338383438353339373836203337322e363633333534393137383538204120343830203438302030203020302034312e3232333036353430363434393339203431382e33353636343534333232353834205a222066696c6c3d22626c61636b22207374726f6b653d22626c61636b22207374726f6b652d77696474683d2231222f3e0a3c7061746820643d224d203139382e3134383731303237303936363236203434392e353731303936393534383338393420412033323020333230203020302031203230352e37373930393235363536393332203431392e313038393033323738353732204c203132392e32323338363537303731313635203339352e383836313239303938323134393520412034303020343030203020302030203131392e36383538383738333837303738203433332e3936333837313139333534383634205a222066696c6c3d22626c61636b22207374726f6b653d22626c61636b22207374726f6b652d77696474683d2231222f3e0a3c7061746820643d224d203237362e36313135333237303332323437203436352e3137383332323731363132393220412032343020323430203020302031203238322e33333433313934323432363939203434322e333331363737343538393239204c203230352e37373930393235363536393332203431392e31303839303332373835373220412033323020333230203020302030203139382e3134383731303237303936363236203434392e3537313039363935343833383934205a222066696c6c3d22626c61636b22207374726f6b653d22626c61636b22207374726f6b652d77696474683d2231222f3e0a3c7061746820643d224d203335352e3037343335353133353438333133203438302e373835353438343737343139343720412031363020313630203020302031203335382e38383935343632383238343636203436352e353534343531363339323836204c203238322e33333433313934323432363939203434322e33333136373734353839323920412032343020323430203020302030203237362e36313135333237303332323437203436352e31373833323237313631323932205a222066696c6c3d22626c61636b22207374726f6b653d22626c61636b22207374726f6b652d77696474683d2231222f3e0a3c7061746820643d224d203132392e3232333836353730373131363433203339352e3838363132393039383231353120412034303020343030203020302031203134322e34343831383639393534383533203335382e39323636323730353339363431204c2036382e3533373832343339343538323334203332382e33313139353234363437353639204120343830203438302030203020302035322e3636383633383834383533393733203337322e3636333335343931373835383136205a222066696c6c3d22626c61636b22207374726f6b653d22626c61636b22207374726f6b652d77696474683d2231222f3e0a3c7061746820643d224d203230352e3737393039323536353639333133203431392e313038393033323738353732313420412033323020333230203020302031203231362e3335383534393539363338383233203338392e35343133303136343331373133204c203134322e34343831383639393534383533203335382e3932363632373035333936343120412034303020343030203020302030203132392e3232333836353730373131363433203339352e38383631323930393832313531205a222066696c6c3d22626c61636b22207374726f6b653d22626c61636b22207374726f6b652d77696474683d2231222f3e0a3c7061746820643d224d203238322e33333433313934323432363939203434322e3333313637373435383932393120412032343020323430203020302031203239302e32363839313231393732393132203432302e3135353937363233323337383436204c203231362e3335383534393539363338383233203338392e3534313330313634333137313320412033323020333230203020302030203230352e3737393039323536353639333133203431392e31\") */\n  tag_4\n  mload(0x40)\n  dup1\n  0x1820\n  add\n  0x40\n  mstore\n  dup1\n  0x1800\n  dup2\n  mstore\n  0x20\n  add\n  data_8f4ebae2ebce61e4db42c91680bf4b38bd07d7ae5131628591bf7541af84b6a7\n  0x1800\n  swap2\n  codecopy\n    /* \"contracts/HashJingSVGStorage8.sol\":175:188  SSTORE2.write */\n  shl(0x20, tag_5)\n    /* \"contracts/HashJingSVGStorage8.sol\":175:12483  SSTORE2.write(hex\"653d22626c61636b22207374726f6b652d77696474683d2231222f3e0a3c7061746820643d224d203132392e32323338363537303731313635203632382e3131333837303930313738343920412034303020343030203020302031203131392e36383538383738333837303738203539302e30333631323838303634353133204c2034312e3232333036353430363434393339203630352e36343333353435363737343135204120343830203438302030203020302035322e363638363338383438353339373836203635312e33333636343530383231343139205a222066696c6c3d22626c61636b22207374726f6b653d22626c61636b22207374726f6b652d77696474683d2231222f3e0a3c7061746820643d224d203230352e37373930393235363536393332203630342e38393130393637323134323820412033323020333230203020302031203139382e3134383731303237303936363236203537342e34323839303330343531363131204c203131392e36383538383738333837303738203539302e3033363132383830363435313320412034303020343030203020302030203132392e32323338363537303731313635203632382e31313338373039303137383439205a222066696c6c3d22626c61636b22207374726f6b653d22626c61636b22207374726f6b652d77696474683d2231222f3e0a3c7061746820643d224d203238322e33333433313934323432363939203538312e36363833323235343130373120412032343020323430203020302031203237362e36313135333237303332323437203535382e38323136373732383338373037204c203139382e3134383731303237303936363236203537342e3432383930333034353136313120412033323020333230203020302030203230352e37373930393235363536393332203630342e383931303936373231343238205a222066696c6c3d22626c61636b22207374726f6b653d22626c61636b22207374726f6b652d77696474683d2231222f3e0a3c7061746820643d224d203335382e38383935343632383238343636203535382e3434353534383336303731333920412031363020313630203020302031203335352e3037343335353133353438333133203534332e32313434353135323235383035204c203237362e36313135333237303332323437203535382e3832313637373238333837303720412032343020323430203020302030203238322e33333433313934323432363939203538312e363638333232353431303731205a222066696c6c3d22626c61636b22207374726f6b653d22626c61636b22207374726f6b652d77696474683d2231222f3e0a3c7061746820643d224d203131392e36383538383738333837303738203539302e3033363132383830363435313420412034303020343030203020302031203131332e3932363130393333313132313237203535312e32303638353631333138323433204c2033342e3331313333313139373334353531203535392e30343832323733353831383933204120343830203438302030203020302034312e3232333036353430363434393339203630352e36343333353435363737343138205a222066696c6c3d22626c61636b22207374726f6b653d22626c61636b22207374726f6b652d77696474683d2231222f3e0a3c7061746820643d224d203139382e3134383731303237303936363236203537342e3432383930333034353136313220412033323020333230203020302031203139332e3534303838373436343839373033203534332e33363534383439303534353934204c203131332e3932363130393333313132313237203535312e3230363835363133313832343320412034303020343030203020302030203131392e36383538383738333837303738203539302e30333631323838303634353134205a222066696c6c3d22626c61636b22207374726f6b653d22626c61636b22207374726f6b652d77696474683d2231222f3e0a3c7061746820643d224d203237362e36313135333237303332323437203535382e3832313637373238333837303820412032343020323430203020302031203237332e31353536363535393836373237203533352e35323431313336373930393436204c203139332e3534303838373436343839373033203534332e3336353438343930353435393420412033323020333230203020302030203139382e3134383731303237303936363236203537342e34323839303330343531363132205a222066696c6c3d22626c61636b22207374726f6b653d22626c61636b22207374726f6b652d77696474683d2231222f3e0a3c7061746820643d224d203335352e3037343335353133353438333133203534332e3231343435313532323538303620412031363020313630203020302031203335322e37373034343337333234343835203532372e36383237343234353237323937204c203237332e31353536363535393836373237203533352e3532343131333637393039343620412032343020323430203020302030203237362e36313135333237303332323437203535382e38323136373732383338373038205a222066696c6c3d22626c61636b22207374726f6b653d22626c61636b22207374726f6b652d77696474683d2231222f3e0a3c7061746820643d224d203131332e3932363130393333313132313231203535312e323036383536313331383234312041203430302034303020302030203120313132203531312e39393939393939393939393939204c203332203531312e3939393939393939393939393833204120343830203438302030203020302033342e3331313333313139373334353435203535392e303438323237333538313839205a222066696c6c3d22626c61636b22207374726f6b653d22626c61636b22207374726f6b652d77696474683d2231222f3e0a3c7061746820643d224d203139332e3534303838373436343839363937203534332e333635343834393035343539332041203332302033323020302030203120313932203531312e39393939393939393939393939204c20313132203531312e3939393939393939393939393920412034303020343030203020302030203131332e3932363130393333313132313231203535312e32303638353631333138323431205a222066696c6c3d22626c61636b22207374726f6b653d22626c61636b22207374726f6b652d77696474683d2231222f3e0a3c7061746820643d224d203237332e31353536363535393836373237203533352e353234313133363739303934352041203234302032343020302030203120323732203531312e3939393939393939393939393934204c20313932203531312e3939393939393939393939393920412033323020333230203020302030203139332e3534303838373436343839363937203534332e33363534383439303534353933205a222066696c6c3d22626c61636b22207374726f6b653d22626c61636b22207374726f6b652d77696474683d2231222f3e0a3c7061746820643d224d203335322e37373034343337333234343835203532372e363832373432343532373239372041203136302031363020302030203120333532203531312e3939393939393939393939393934204c20323732203531312e393939393939393939393939393420412032343020323430203020302030203237332e31353536363535393836373237203533352e35323431313336373930393435205a222066696c6c3d22626c61636b22207374726f6b653d22626c61636b22207374726f6b652d77696474683d2231222f3e0a3c7061746820643d224d203131322035313220412034303020343030203020302031203131332e3932363130393333313132313231203437322e37393331343338363831373538204c2033342e3331313333313139373334353435203436342e3935313737323634313831303920412034383020343830203020302030203332203531322e30303030303030303030303031205a222066696c6c3d22626c61636b22207374726f6b653d22626c61636b22207374726f6b652d77696474683d2231222f3e0a3c7061746820643d224d203139322035313220412033323020333230203020302031203139332e3534303838373436343839363937203438302e3633343531353039343534303633204c203131332e3932363130393333313132313231203437322e37393331343338363831373538204120343030203430302030203020302031313220353132205a222066696c6c3d22626c61636b22207374726f6b653d22626c61636b22207374726f6b652d77696474683d2231222f3e0a3c7061746820643d224d203237322035313220412032343020323430203020302031203237332e31353536363535393836373237203438382e34373538383633323039303535204c203139332e3534303838373436343839363937203438302e3633343531353039343534303633204120333230203332302030203020302031393220353132205a222066696c6c3d22626c61636b22207374726f6b653d22626c61636b22207374726f6b652d77696474683d2231222f3e0a3c7061746820643d224d203335322035313220412031363020313630203020302031203335322e37373034343337333234343835203439362e33313732353735343732373033204c203237332e31353536363535393836373237203438382e34373538383633323039303535204120323430203234302030203020302032373220353132205a222066696c6c3d22626c61636b22207374726f6b653d22626c61636b22207374726f6b652d77696474683d2231222f3e0a3c7061746820643d224d203131332e3932363130393333313132313231203437322e373933313433383638313735393520412034303020343030203020302031203131392e36383538383738333837303738203433332e39363338373131393335343838204c2034312e3232333036353430363434393334203431382e33353636343534333232353836204120343830203438302030203020302033342e3331313333313139373334353435203436342e3935313737323634313831313135205a222066696c6c3d22626c61636b22207374726f6b653d22626c61636b22207374726f6b652d77696474683d2231222f3e0a3c7061746820643d224d203139332e3534303838373436343839363937203438302e363334353135303934353430373520412033323020333230203020302031203139382e31343837313032373039363632203434392e3537313039363935343833393035204c203131392e36383538383738333837303738203433332e3936333837313139333534383820412034303020343030203020302030203131332e3932363130393333313132313231203437322e3739333134333836383137353935205a222066696c6c3d22626c61636b22207374726f6b653d22626c61636b22207374726f6b652d77696474683d2231222f3e0a3c7061746820643d224d203237332e31353536363535393836373237203438382e343735383836333230393035353420412032343020323430203020302031203237362e3631313533323730333232343637203436352e31373833323237313631323933204c203139382e31343837313032373039363632203434392e353731303936393534383339303520412033323020333230203020302030203139332e3534303838373436343839363937203438302e3633343531353039343534303735205a222066696c6c3d22626c61636b22207374726f6b653d22626c61636b22207374726f6b652d77696474683d2231222f3e0a3c7061746820643d224d203335322e37373034343337333234343835203439362e3331373235373534373237303420412031363020313630203020302031203335352e30373433353531333534383331203438302e37383535343834373734313935204c203237362e3631313533323730333232343637203436352e3137383332323731363132393320412032343020323430203020302030203237332e31353536363535393836373237203438382e3437353838363332303930353534205a222066696c6c3d22626c61636b22207374726f6b653d22626c61636b22207374726f6b652d77696474683d2231222f3e0a3c7061746820643d224d203131392e36383538383738333837303738203433332e393633383731313933353438363420412034303020343030203020302031203132392e32323338363537303731313635203339352e3838363132393039383231343935204c2035322e363638363338383438353339373836203337322e363633333534393137383538204120343830203438302030203020302034312e3232333036353430363434393339203431382e33353636343534333232353834205a222066696c6c3d22626c61636b22207374726f6b653d22626c61636b22207374726f6b652d77696474683d2231222f3e0a3c7061746820643d224d203139382e3134383731303237303936363236203434392e353731303936393534383338393420412033323020333230203020302031203230352e37373930393235363536393332203431392e313038393033323738353732204c203132392e32323338363537303731313635203339352e383836313239303938323134393520412034303020343030203020302030203131392e36383538383738333837303738203433332e3936333837313139333534383634205a222066696c6c3d22626c61636b22207374726f6b653d22626c61636b22207374726f6b652d77696474683d2231222f3e0a3c7061746820643d224d203237362e36313135333237303332323437203436352e3137383332323731363132393220412032343020323430203020302031203238322e33333433313934323432363939203434322e333331363737343538393239204c203230352e37373930393235363536393332203431392e31303839303332373835373220412033323020333230203020302030203139382e3134383731303237303936363236203434392e3537313039363935343833383934205a222066696c6c3d22626c61636b22207374726f6b653d22626c61636b22207374726f6b652d77696474683d2231222f3e0a3c7061746820643d224d203335352e3037343335353133353438333133203438302e373835353438343737343139343720412031363020313630203020302031203335382e38383935343632383238343636203436352e353534343531363339323836204c203238322e33333433313934323432363939203434322e33333136373734353839323920412032343020323430203020302030203237362e36313135333237303332323437203436352e31373833323237313631323932205a222066696c6c3d22626c61636b22207374726f6b653d22626c61636b22207374726f6b652d77696474683d2231222f3e0a3c7061746820643d224d203132392e3232333836353730373131363433203339352e3838363132393039383231353120412034303020343030203020302031203134322e34343831383639393534383533203335382e39323636323730353339363431204c2036382e3533373832343339343538323334203332382e33313139353234363437353639204120343830203438302030203020302035322e3636383633383834383533393733203337322e3636333335343931373835383136205a222066696c6c3d22626c61636b22207374726f6b653d22626c61636b22207374726f6b652d77696474683d2231222f3e0a3c7061746820643d224d203230352e3737393039323536353639333133203431392e313038393033323738353732313420412033323020333230203020302031203231362e3335383534393539363338383233203338392e35343133303136343331373133204c203134322e34343831383639393534383533203335382e3932363632373035333936343120412034303020343030203020302030203132392e3232333836353730373131363433203339352e38383631323930393832313531205a222066696c6c3d22626c61636b22207374726f6b653d22626c61636b22207374726f6b652d77696474683d2231222f3e0a3c7061746820643d224d203238322e33333433313934323432363939203434322e3333313637373435383932393120412032343020323430203020302031203239302e32363839313231393732393132203432302e3135353937363233323337383436204c203231362e3335383534393539363338383233203338392e3534313330313634333137313320412033323020333230203020302030203230352e3737393039323536353639333133203431392e31\") */\n  0x20\n  shr\n  jump\t// in\ntag_4:\n    /* \"contracts/HashJingSVGStorage8.sol\":169:12483  ptr = SSTORE2.write(hex\"653d22626c61636b22207374726f6b652d77696474683d2231222f3e0a3c7061746820643d224d203132392e32323338363537303731313635203632382e3131333837303930313738343920412034303020343030203020302031203131392e36383538383738333837303738203539302e30333631323838303634353133204c2034312e3232333036353430363434393339203630352e36343333353435363737343135204120343830203438302030203020302035322e363638363338383438353339373836203635312e33333636343530383231343139205a222066696c6c3d22626c61636b22207374726f6b653d22626c61636b22207374726f6b652d77696474683d2231222f3e0a3c7061746820643d224d203230352e37373930393235363536393332203630342e38393130393637323134323820412033323020333230203020302031203139382e3134383731303237303936363236203537342e34323839303330343531363131204c203131392e36383538383738333837303738203539302e3033363132383830363435313320412034303020343030203020302030203132392e32323338363537303731313635203632382e31313338373039303137383439205a222066696c6c3d22626c61636b22207374726f6b653d22626c61636b22207374726f6b652d77696474683d2231222f3e0a3c7061746820643d224d203238322e33333433313934323432363939203538312e36363833323235343130373120412032343020323430203020302031203237362e36313135333237303332323437203535382e38323136373732383338373037204c203139382e3134383731303237303936363236203537342e3432383930333034353136313120412033323020333230203020302030203230352e37373930393235363536393332203630342e383931303936373231343238205a222066696c6c3d22626c61636b22207374726f6b653d22626c61636b22207374726f6b652d77696474683d2231222f3e0a3c7061746820643d224d203335382e38383935343632383238343636203535382e3434353534383336303731333920412031363020313630203020302031203335352e3037343335353133353438333133203534332e32313434353135323235383035204c203237362e36313135333237303332323437203535382e3832313637373238333837303720412032343020323430203020302030203238322e33333433313934323432363939203538312e363638333232353431303731205a222066696c6c3d22626c61636b22207374726f6b653d22626c61636b22207374726f6b652d77696474683d2231222f3e0a3c7061746820643d224d203131392e36383538383738333837303738203539302e3033363132383830363435313420412034303020343030203020302031203131332e3932363130393333313132313237203535312e32303638353631333138323433204c2033342e3331313333313139373334353531203535392e30343832323733353831383933204120343830203438302030203020302034312e3232333036353430363434393339203630352e36343333353435363737343138205a222066696c6c3d22626c61636b22207374726f6b653d22626c61636b22207374726f6b652d77696474683d2231222f3e0a3c7061746820643d224d203139382e3134383731303237303936363236203537342e3432383930333034353136313220412033323020333230203020302031203139332e3534303838373436343839373033203534332e33363534383439303534353934204c203131332e3932363130393333313132313237203535312e3230363835363133313832343320412034303020343030203020302030203131392e36383538383738333837303738203539302e30333631323838303634353134205a222066696c6c3d22626c61636b22207374726f6b653d22626c61636b22207374726f6b652d77696474683d2231222f3e0a3c7061746820643d224d203237362e36313135333237303332323437203535382e3832313637373238333837303820412032343020323430203020302031203237332e31353536363535393836373237203533352e35323431313336373930393436204c203139332e3534303838373436343839373033203534332e3336353438343930353435393420412033323020333230203020302030203139382e3134383731303237303936363236203537342e34323839303330343531363132205a222066696c6c3d22626c61636b22207374726f6b653d22626c61636b22207374726f6b652d77696474683d2231222f3e0a3c7061746820643d224d203335352e3037343335353133353438333133203534332e3231343435313532323538303620412031363020313630203020302031203335322e37373034343337333234343835203532372e36383237343234353237323937204c203237332e31353536363535393836373237203533352e3532343131333637393039343620412032343020323430203020302030203237362e36313135333237303332323437203535382e38323136373732383338373038205a222066696c6c3d22626c61636b22207374726f6b653d22626c61636b22207374726f6b652d77696474683d2231222f3e0a3c7061746820643d224d203131332e3932363130393333313132313231203535312e323036383536313331383234312041203430302034303020302030203120313132203531312e39393939393939393939393939204c203332203531312e3939393939393939393939393833204120343830203438302030203020302033342e3331313333313139373334353435203535392e303438323237333538313839205a222066696c6c3d22626c61636b22207374726f6b653d22626c61636b22207374726f6b652d77696474683d2231222f3e0a3c7061746820643d224d203139332e3534303838373436343839363937203534332e333635343834393035343539332041203332302033323020302030203120313932203531312e39393939393939393939393939204c20313132203531312e3939393939393939393939393920412034303020343030203020302030203131332e3932363130393333313132313231203535312e32303638353631333138323431205a222066696c6c3d22626c61636b22207374726f6b653d22626c61636b22207374726f6b652d77696474683d2231222f3e0a3c7061746820643d224d203237332e31353536363535393836373237203533352e353234313133363739303934352041203234302032343020302030203120323732203531312e3939393939393939393939393934204c20313932203531312e3939393939393939393939393920412033323020333230203020302030203139332e3534303838373436343839363937203534332e33363534383439303534353933205a222066696c6c3d22626c61636b22207374726f6b653d22626c61636b22207374726f6b652d77696474683d2231222f3e0a3c7061746820643d224d203335322e37373034343337333234343835203532372e363832373432343532373239372041203136302031363020302030203120333532203531312e3939393939393939393939393934204c20323732203531312e393939393939393939393939393420412032343020323430203020302030203237332e31353536363535393836373237203533352e35323431313336373930393435205a222066696c6c3d22626c61636b22207374726f6b653d22626c61636b22207374726f6b652d77696474683d2231222f3e0a3c7061746820643d224d203131322035313220412034303020343030203020302031203131332e3932363130393333313132313231203437322e37393331343338363831373538204c2033342e3331313333313139373334353435203436342e3935313737323634313831303920412034383020343830203020302030203332203531322e30303030303030303030303031205a222066696c6c3d22626c61636b22207374726f6b653d22626c61636b22207374726f6b652d77696474683d2231222f3e0a3c7061746820643d224d203139322035313220412033323020333230203020302031203139332e3534303838373436343839363937203438302e3633343531353039343534303633204c203131332e3932363130393333313132313231203437322e37393331343338363831373538204120343030203430302030203020302031313220353132205a222066696c6c3d22626c61636b22207374726f6b653d22626c61636b22207374726f6b652d77696474683d2231222f3e0a3c7061746820643d224d203237322035313220412032343020323430203020302031203237332e31353536363535393836373237203438382e34373538383633323039303535204c203139332e3534303838373436343839363937203438302e3633343531353039343534303633204120333230203332302030203020302031393220353132205a222066696c6c3d22626c61636b22207374726f6b653d22626c61636b22207374726f6b652d77696474683d2231222f3e0a3c7061746820643d224d203335322035313220412031363020313630203020302031203335322e37373034343337333234343835203439362e33313732353735343732373033204c203237332e31353536363535393836373237203438382e34373538383633323039303535204120323430203234302030203020302032373220353132205a222066696c6c3d22626c61636b22207374726f6b653d22626c61636b22207374726f6b652d77696474683d2231222f3e0a3c7061746820643d224d203131332e3932363130393333313132313231203437322e373933313433383638313735393520412034303020343030203020302031203131392e36383538383738333837303738203433332e39363338373131393335343838204c2034312e3232333036353430363434393334203431382e33353636343534333232353836204120343830203438302030203020302033342e3331313333313139373334353435203436342e3935313737323634313831313135205a222066696c6c3d22626c61636b22207374726f6b653d22626c61636b22207374726f6b652d77696474683d2231222f3e0a3c7061746820643d224d203139332e3534303838373436343839363937203438302e363334353135303934353430373520412033323020333230203020302031203139382e31343837313032373039363632203434392e3537313039363935343833393035204c203131392e36383538383738333837303738203433332e3936333837313139333534383820412034303020343030203020302030203131332e3932363130393333313132313231203437322e3739333134333836383137353935205a222066696c6c3d22626c61636b22207374726f6b653d22626c61636b22207374726f6b652d77696474683d2231222f3e0a3c7061746820643d224d203237332e31353536363535393836373237203438382e343735383836333230393035353420412032343020323430203020302031203237362e3631313533323730333232343637203436352e31373833323237313631323933204c203139382e31343837313032373039363632203434392e353731303936393534383339303520412033323020333230203020302030203139332e3534303838373436343839363937203438302e3633343531353039343534303735205a222066696c6c3d22626c61636b22207374726f6b653d22626c61636b22207374726f6b652d77696474683d2231222f3e0a3c7061746820643d224d203335322e37373034343337333234343835203439362e3331373235373534373237303420412031363020313630203020302031203335352e30373433353531333534383331203438302e37383535343834373734313935204c203237362e3631313533323730333232343637203436352e3137383332323731363132393320412032343020323430203020302030203237332e31353536363535393836373237203438382e3437353838363332303930353534205a222066696c6c3d22626c61636b22207374726f6b653d22626c61636b22207374726f6b652d77696474683d2231222f3e0a3c7061746820643d224d203131392e36383538383738333837303738203433332e393633383731313933353438363420412034303020343030203020302031203132392e32323338363537303731313635203339352e3838363132393039383231343935204c2035322e363638363338383438353339373836203337322e363633333534393137383538204120343830203438302030203020302034312e3232333036353430363434393339203431382e33353636343534333232353834205a222066696c6c3d22626c61636b22207374726f6b653d22626c61636b22207374726f6b652d77696474683d2231222f3e0a3c7061746820643d224d203139382e3134383731303237303936363236203434392e353731303936393534383338393420412033323020333230203020302031203230352e37373930393235363536393332203431392e313038393033323738353732204c203132392e32323338363537303731313635203339352e383836313239303938323134393520412034303020343030203020302030203131392e36383538383738333837303738203433332e3936333837313139333534383634205a222066696c6c3d22626c61636b22207374726f6b653d22626c61636b22207374726f6b652d77696474683d2231222f3e0a3c7061746820643d224d203237362e36313135333237303332323437203436352e3137383332323731363132393220412032343020323430203020302031203238322e33333433313934323432363939203434322e333331363737343538393239204c203230352e37373930393235363536393332203431392e31303839303332373835373220412033323020333230203020302030203139382e3134383731303237303936363236203434392e3537313039363935343833383934205a222066696c6c3d22626c61636b22207374726f6b653d22626c61636b22207374726f6b652d77696474683d2231222f3e0a3c7061746820643d224d203335352e3037343335353133353438333133203438302e373835353438343737343139343720412031363020313630203020302031203335382e38383935343632383238343636203436352e353534343531363339323836204c203238322e33333433313934323432363939203434322e33333136373734353839323920412032343020323430203020302030203237362e36313135333237303332323437203436352e31373833323237313631323932205a222066696c6c3d22626c61636b22207374726f6b653d22626c61636b22207374726f6b652d77696474683d2231222f3e0a3c7061746820643d224d203132392e3232333836353730373131363433203339352e3838363132393039383231353120412034303020343030203020302031203134322e34343831383639393534383533203335382e39323636323730353339363431204c2036382e3533373832343339343538323334203332382e33313139353234363437353639204120343830203438302030203020302035322e3636383633383834383533393733203337322e3636333335343931373835383136205a222066696c6c3d22626c61636b22207374726f6b653d22626c61636b22207374726f6b652d77696474683d2231222f3e0a3c7061746820643d224d203230352e3737393039323536353639333133203431392e313038393033323738353732313420412033323020333230203020302031203231362e3335383534393539363338383233203338392e35343133303136343331373133204c203134322e34343831383639393534383533203335382e3932363632373035333936343120412034303020343030203020302030203132392e3232333836353730373131363433203339352e38383631323930393832313531205a222066696c6c3d22626c61636b22207374726f6b653d22626c61636b22207374726f6b652d77696474683d2231222f3e0a3c7061746820643d224d203238322e33333433313934323432363939203434322e3333313637373435383932393120412032343020323430203020302031203239302e32363839313231393732393132203432302e3135353937363233323337383436204c203231362e3335383534393539363338383233203338392e3534313330313634333137313320412033323020333230203020302030203230352e3737393039323536353639333133203431392e31\") */\n  0xffffffffffffffffffffffffffffffffffffffff\n  and\n  0x80\n  dup2\n  0xffffffffffffffffffffffffffffffffffffffff\n  and\n  dup2\n  mstore\n  pop\n  pop\n    /* \"contracts/HashJingSVGStorage8.sol\":83:12579  contract TestStorage {... */\n  jump(tag_6)\n    /* \"contracts/SSTORE2.sol\":583:1043  function write(bytes memory _data) internal returns (address pointer) {... */\ntag_5:\n    /* \"contracts/SSTORE2.sol\":636:651  address pointer */\n  0x00\n    /* \"contracts/SSTORE2.sol\":736:753  bytes memory code */\n  dup1\n    /* \"contracts/SSTORE2.sol\":756:850  Bytecode.creationCodeFor(... */\n  tag_8\n    /* \"contracts/SSTORE2.sol\":831:836  _data */\n  dup4\n    /* \"contracts/SSTORE2.sol\":788:844  abi.encodePacked(... */\n  add(0x20, mload(0x40))\n  tag_9\n  swap2\n  swap1\n  tag_10\n  jump\t// in\ntag_9:\n  mload(0x40)\n  0x20\n  dup2\n  dup4\n  sub\n  sub\n  dup2\n  mstore\n  swap1\n  0x40\n  mstore\n    /* \"contracts/SSTORE2.sol\":756:780  Bytecode.creationCodeFor */\n  shl(0x20, tag_11)\n    /* \"contracts/SSTORE2.sol\":756:850  Bytecode.creationCodeFor(... */\n  0x20\n  shr\n  jump\t// in\ntag_8:\n    /* \"contracts/SSTORE2.sol\":736:850  bytes memory code = Bytecode.creationCodeFor(... */\n  swap1\n  pop\n    /* \"contracts/SSTORE2.sol\":946:950  code */\n  dup1\n    /* \"contracts/SSTORE2.sol\":940:951  mload(code) */\n  mload\n    /* \"contracts/SSTORE2.sol\":935:937  32 */\n  0x20\n    /* \"contracts/SSTORE2.sol\":929:933  code */\n  dup3\n    /* \"contracts/SSTORE2.sol\":925:938  add(code, 32) */\n  add\n    /* \"contracts/SSTORE2.sol\":922:923  0 */\n  0x00\n    /* \"contracts/SSTORE2.sol\":915:952  create(0, add(code, 32), mload(code)) */\n  create\n    /* \"contracts/SSTORE2.sol\":904:952  pointer := create(0, add(code, 32), mload(code)) */\n  swap2\n  pop\n    /* \"contracts/SSTORE2.sol\":1015:1016  0 */\n  0x00\n    /* \"contracts/SSTORE2.sol\":996:1017  pointer == address(0) */\n  0xffffffffffffffffffffffffffffffffffffffff\n  and\n    /* \"contracts/SSTORE2.sol\":996:1003  pointer */\n  dup3\n    /* \"contracts/SSTORE2.sol\":996:1017  pointer == address(0) */\n  0xffffffffffffffffffffffffffffffffffffffff\n  and\n  sub\n    /* \"contracts/SSTORE2.sol\":992:1038  if (pointer == address(0)) revert WriteError() */\n  tag_12\n  jumpi\n    /* \"contracts/SSTORE2.sol\":1026:1038  WriteError() */\n  mload(0x40)\n  0x08d4abb600000000000000000000000000000000000000000000000000000000\n  dup2\n  mstore\n  0x04\n  add\n  mload(0x40)\n  dup1\n  swap2\n  sub\n  swap1\n  revert\n    /* \"contracts/SSTORE2.sol\":992:1038  if (pointer == address(0)) revert WriteError() */\ntag_12:\n    /* \"contracts/SSTORE2.sol\":653:1043  {... */\n  pop\n    /* \"contracts/SSTORE2.sol\":583:1043  function write(bytes memory _data) internal returns (address pointer) {... */\n  swap2\n  swap1\n  pop\n  jump\t// out\n    /* \"contracts/utils/Bytecode.sol\":378:1078  function creationCodeFor(bytes memory _code) internal pure returns (bytes memory) {... */\ntag_11:\n    /* \"contracts/utils/Bytecode.sol\":446:458  bytes memory */\n  0x60\n    /* \"contracts/utils/Bytecode.sol\":1002:1007  _code */\n  dup2\n    /* \"contracts/utils/Bytecode.sol\":1002:1014  _code.length */\n  mload\n    /* \"contracts/utils/Bytecode.sol\":1062:1067  _code */\n  dup3\n    /* \"contracts/utils/Bytecode.sol\":956:1073  abi.encodePacked(... */\n  add(0x20, mload(0x40))\n  tag_14\n  swap3\n  swap2\n  swap1\n  tag_15\n  jump\t// in\ntag_14:\n  mload(0x40)\n  0x20\n  dup2\n  dup4\n  sub\n  sub\n  dup2\n  mstore\n  swap1\n  0x40\n  mstore\n    /* \"contracts/utils/Bytecode.sol\":949:1073  return abi.encodePacked(... */\n  swap1\n  pop\n    /* \"contracts/utils/Bytecode.sol\":378:1078  function creationCodeFor(bytes memory _code) internal pure returns (bytes memory) {... */\n  swap2\n  swap1\n  pop\n  jump\t// out\n    /* \"#utility.yul\":7:155   */\ntag_16:\n    /* \"#utility.yul\":109:120   */\n  0x00\n    /* \"#utility.yul\":146:149   */\n  dup2\n    /* \"#utility.yul\":131:149   */\n  swap1\n  pop\n    /* \"#utility.yul\":7:155   */\n  swap3\n  swap2\n  pop\n  pop\n  jump\t// out\n    /* \"#utility.yul\":161:375   */\ntag_17:\n    /* \"#utility.yul\":301:367   */\n  0x00\n    /* \"#utility.yul\":297:298   */\n  dup1\n    /* \"#utility.yul\":289:295   */\n  dup3\n    /* \"#utility.yul\":285:299   */\n  add\n    /* \"#utility.yul\":278:368   */\n  mstore\n    /* \"#utility.yul\":161:375   */\n  pop\n  jump\t// out\n    /* \"#utility.yul\":381:781   */\ntag_18:\n    /* \"#utility.yul\":541:544   */\n  0x00\n    /* \"#utility.yul\":562:646   */\n  tag_35\n    /* \"#utility.yul\":644:645   */\n  0x01\n    /* \"#utility.yul\":639:642   */\n  dup4\n    /* \"#utility.yul\":562:646   */\n  tag_16\n  jump\t// in\ntag_35:\n    /* \"#utility.yul\":555:646   */\n  swap2\n  pop\n    /* \"#utility.yul\":655:748   */\n  tag_36\n    /* \"#utility.yul\":744:747   */\n  dup3\n    /* \"#utility.yul\":655:748   */\n  tag_17\n  jump\t// in\ntag_36:\n    /* \"#utility.yul\":773:774   */\n  0x01\n    /* \"#utility.yul\":768:771   */\n  dup3\n    /* \"#utility.yul\":764:775   */\n  add\n    /* \"#utility.yul\":757:775   */\n  swap1\n  pop\n    /* \"#utility.yul\":381:781   */\n  swap2\n  swap1\n  pop\n  jump\t// out\n    /* \"#utility.yul\":787:885   */\ntag_19:\n    /* \"#utility.yul\":838:844   */\n  0x00\n    /* \"#utility.yul\":872:877   */\n  dup2\n    /* \"#utility.yul\":866:878   */\n  mload\n    /* \"#utility.yul\":856:878   */\n  swap1\n  pop\n    /* \"#utility.yul\":787:885   */\n  swap2\n  swap1\n  pop\n  jump\t// out\n    /* \"#utility.yul\":891:1038   */\ntag_20:\n    /* \"#utility.yul\":992:1003   */\n  0x00\n    /* \"#utility.yul\":1029:1032   */\n  dup2\n    /* \"#utility.yul\":1014:1032   */\n  swap1\n  pop\n    /* \"#utility.yul\":891:1038   */\n  swap3\n  swap2\n  pop\n  pop\n  jump\t// out\n    /* \"#utility.yul\":1044:1183   */\ntag_21:\n    /* \"#utility.yul\":1133:1139   */\n  dup3\n    /* \"#utility.yul\":1128:1131   */\n  dup2\n    /* \"#utility.yul\":1123:1126   */\n  dup4\n    /* \"#utility.yul\":1117:1140   */\n  mcopy\n    /* \"#utility.yul\":1174:1175   */\n  0x00\n    /* \"#utility.yul\":1165:1171   */\n  dup4\n    /* \"#utility.yul\":1160:1163   */\n  dup4\n    /* \"#utility.yul\":1156:1172   */\n  add\n    /* \"#utility.yul\":1149:1176   */\n  mstore\n    /* \"#utility.yul\":1044:1183   */\n  pop\n  pop\n  pop\n  jump\t// out\n    /* \"#utility.yul\":1189:1575   */\ntag_22:\n    /* \"#utility.yul\":1293:1296   */\n  0x00\n    /* \"#utility.yul\":1321:1359   */\n  tag_41\n    /* \"#utility.yul\":1353:1358   */\n  dup3\n    /* \"#utility.yul\":1321:1359   */\n  tag_19\n  jump\t// in\ntag_41:\n    /* \"#utility.yul\":1375:1463   */\n  tag_42\n    /* \"#utility.yul\":1456:1462   */\n  dup2\n    /* \"#utility.yul\":1451:1454   */\n  dup6\n    /* \"#utility.yul\":1375:1463   */\n  tag_20\n  jump\t// in\ntag_42:\n    /* \"#utility.yul\":1368:1463   */\n  swap4\n  pop\n    /* \"#utility.yul\":1472:1537   */\n  tag_43\n    /* \"#utility.yul\":1530:1536   */\n  dup2\n    /* \"#utility.yul\":1525:1528   */\n  dup6\n    /* \"#utility.yul\":1518:1522   */\n  0x20\n    /* \"#utility.yul\":1511:1516   */\n  dup7\n    /* \"#utility.yul\":1507:1523   */\n  add\n    /* \"#utility.yul\":1472:1537   */\n  tag_21\n  jump\t// in\ntag_43:\n    /* \"#utility.yul\":1562:1568   */\n  dup1\n    /* \"#utility.yul\":1557:1560   */\n  dup5\n    /* \"#utility.yul\":1553:1569   */\n  add\n    /* \"#utility.yul\":1546:1569   */\n  swap2\n  pop\n    /* \"#utility.yul\":1297:1575   */\n  pop\n    /* \"#utility.yul\":1189:1575   */\n  swap3\n  swap2\n  pop\n  pop\n  jump\t// out\n    /* \"#utility.yul\":1581:2118   */\ntag_10:\n    /* \"#utility.yul\":1812:1815   */\n  0x00\n    /* \"#utility.yul\":1834:1982   */\n  tag_45\n    /* \"#utility.yul\":1978:1981   */\n  dup3\n    /* \"#utility.yul\":1834:1982   */\n  tag_18\n  jump\t// in\ntag_45:\n    /* \"#utility.yul\":1827:1982   */\n  swap2\n  pop\n    /* \"#utility.yul\":1999:2092   */\n  tag_46\n    /* \"#utility.yul\":2088:2091   */\n  dup3\n    /* \"#utility.yul\":2079:2085   */\n  dup5\n    /* \"#utility.yul\":1999:2092   */\n  tag_22\n  jump\t// in\ntag_46:\n    /* \"#utility.yul\":1992:2092   */\n  swap2\n  pop\n    /* \"#utility.yul\":2109:2112   */\n  dup2\n    /* \"#utility.yul\":2102:2112   */\n  swap1\n  pop\n    /* \"#utility.yul\":1581:2118   */\n  swap3\n  swap2\n  pop\n  pop\n  jump\t// out\n    /* \"#utility.yul\":2124:2275   */\ntag_23:\n    /* \"#utility.yul\":2264:2267   */\n  0x6300000000000000000000000000000000000000000000000000000000000000\n    /* \"#utility.yul\":2260:2261   */\n  0x00\n    /* \"#utility.yul\":2252:2258   */\n  dup3\n    /* \"#utility.yul\":2248:2262   */\n  add\n    /* \"#utility.yul\":2241:2268   */\n  mstore\n    /* \"#utility.yul\":2124:2275   */\n  pop\n  jump\t// out\n    /* \"#utility.yul\":2281:2681   */\ntag_24:\n    /* \"#utility.yul\":2441:2444   */\n  0x00\n    /* \"#utility.yul\":2462:2546   */\n  tag_49\n    /* \"#utility.yul\":2544:2545   */\n  0x01\n    /* \"#utility.yul\":2539:2542   */\n  dup4\n    /* \"#utility.yul\":2462:2546   */\n  tag_16\n  jump\t// in\ntag_49:\n    /* \"#utility.yul\":2455:2546   */\n  swap2\n  pop\n    /* \"#utility.yul\":2555:2648   */\n  tag_50\n    /* \"#utility.yul\":2644:2647   */\n  dup3\n    /* \"#utility.yul\":2555:2648   */\n  tag_23\n  jump\t// in\ntag_50:\n    /* \"#utility.yul\":2673:2674   */\n  0x01\n    /* \"#utility.yul\":2668:2671   */\n  dup3\n    /* \"#utility.yul\":2664:2675   */\n  add\n    /* \"#utility.yul\":2657:2675   */\n  swap1\n  pop\n    /* \"#utility.yul\":2281:2681   */\n  swap2\n  swap1\n  pop\n  jump\t// out\n    /* \"#utility.yul\":2687:2780   */\ntag_25:\n    /* \"#utility.yul\":2723:2730   */\n  0x00\n    /* \"#utility.yul\":2763:2773   */\n  0xffffffff\n    /* \"#utility.yul\":2756:2761   */\n  dup3\n    /* \"#utility.yul\":2752:2774   */\n  and\n    /* \"#utility.yul\":2741:2774   */\n  swap1\n  pop\n    /* \"#utility.yul\":2687:2780   */\n  swap2\n  swap1\n  pop\n  jump\t// out\n    /* \"#utility.yul\":2786:2882   */\ntag_26:\n    /* \"#utility.yul\":2820:2828   */\n  0x00\n    /* \"#utility.yul\":2869:2874   */\n  dup2\n    /* \"#utility.yul\":2864:2867   */\n  0xe0\n    /* \"#utility.yul\":2860:2875   */\n  shl\n    /* \"#utility.yul\":2839:2875   */\n  swap1\n  pop\n    /* \"#utility.yul\":2786:2882   */\n  swap2\n  swap1\n  pop\n  jump\t// out\n    /* \"#utility.yul\":2888:2982   */\ntag_27:\n    /* \"#utility.yul\":2926:2933   */\n  0x00\n    /* \"#utility.yul\":2955:2976   */\n  tag_54\n    /* \"#utility.yul\":2970:2975   */\n  dup3\n    /* \"#utility.yul\":2955:2976   */\n  tag_26\n  jump\t// in\ntag_54:\n    /* \"#utility.yul\":2944:2976   */\n  swap1\n  pop\n    /* \"#utility.yul\":2888:2982   */\n  swap2\n  swap1\n  pop\n  jump\t// out\n    /* \"#utility.yul\":2988:3141   */\ntag_28:\n    /* \"#utility.yul\":3091:3134   */\n  tag_56\n    /* \"#utility.yul\":3110:3133   */\n  tag_57\n    /* \"#utility.yul\":3127:3132   */\n  dup3\n    /* \"#utility.yul\":3110:3133   */\n  tag_25\n  jump\t// in\ntag_57:\n    /* \"#utility.yul\":3091:3134   */\n  tag_27\n  jump\t// in\ntag_56:\n    /* \"#utility.yul\":3086:3089   */\n  dup3\n    /* \"#utility.yul\":3079:3135   */\n  mstore\n    /* \"#utility.yul\":2988:3141   */\n  pop\n  pop\n  jump\t// out\n    /* \"#utility.yul\":3147:3361   */\ntag_29:\n    /* \"#utility.yul\":3287:3353   */\n  0x80600e6000396000f30000000000000000000000000000000000000000000000\n    /* \"#utility.yul\":3283:3284   */\n  0x00\n    /* \"#utility.yul\":3275:3281   */\n  dup3\n    /* \"#utility.yul\":3271:3285   */\n  add\n    /* \"#utility.yul\":3264:3354   */\n  mstore\n    /* \"#utility.yul\":3147:3361   */\n  pop\n  jump\t// out\n    /* \"#utility.yul\":3367:3767   */\ntag_30:\n    /* \"#utility.yul\":3527:3530   */\n  0x00\n    /* \"#utility.yul\":3548:3632   */\n  tag_60\n    /* \"#utility.yul\":3630:3631   */\n  0x09\n    /* \"#utility.yul\":3625:3628   */\n  dup4\n    /* \"#utility.yul\":3548:3632   */\n  tag_16\n  jump\t// in\ntag_60:\n    /* \"#utility.yul\":3541:3632   */\n  swap2\n  pop\n    /* \"#utility.yul\":3641:3734   */\n  tag_61\n    /* \"#utility.yul\":3730:3733   */\n  dup3\n    /* \"#utility.yul\":3641:3734   */\n  tag_29\n  jump\t// in\ntag_61:\n    /* \"#utility.yul\":3759:3760   */\n  0x09\n    /* \"#utility.yul\":3754:3757   */\n  dup3\n    /* \"#utility.yul\":3750:3761   */\n  add\n    /* \"#utility.yul\":3743:3761   */\n  swap1\n  pop\n    /* \"#utility.yul\":3367:3767   */\n  swap2\n  swap1\n  pop\n  jump\t// out\n    /* \"#utility.yul\":3773:4712   */\ntag_15:\n    /* \"#utility.yul\":4131:4134   */\n  0x00\n    /* \"#utility.yul\":4153:4301   */\n  tag_63\n    /* \"#utility.yul\":4297:4300   */\n  dup3\n    /* \"#utility.yul\":4153:4301   */\n  tag_24\n  jump\t// in\ntag_63:\n    /* \"#utility.yul\":4146:4301   */\n  swap2\n  pop\n    /* \"#utility.yul\":4311:4384   */\n  tag_64\n    /* \"#utility.yul\":4380:4383   */\n  dup3\n    /* \"#utility.yul\":4371:4377   */\n  dup6\n    /* \"#utility.yul\":4311:4384   */\n  tag_28\n  jump\t// in\ntag_64:\n    /* \"#utility.yul\":4409:4410   */\n  0x04\n    /* \"#utility.yul\":4404:4407   */\n  dup3\n    /* \"#utility.yul\":4400:4411   */\n  add\n    /* \"#utility.yul\":4393:4411   */\n  swap2\n  pop\n    /* \"#utility.yul\":4428:4576   */\n  tag_65\n    /* \"#utility.yul\":4572:4575   */\n  dup3\n    /* \"#utility.yul\":4428:4576   */\n  tag_30\n  jump\t// in\ntag_65:\n    /* \"#utility.yul\":4421:4576   */\n  swap2\n  pop\n    /* \"#utility.yul\":4593:4686   */\n  tag_66\n    /* \"#utility.yul\":4682:4685   */\n  dup3\n    /* \"#utility.yul\":4673:4679   */\n  dup5\n    /* \"#utility.yul\":4593:4686   */\n  tag_22\n  jump\t// in\ntag_66:\n    /* \"#utility.yul\":4586:4686   */\n  swap2\n  pop\n    /* \"#utility.yul\":4703:4706   */\n  dup2\n    /* \"#utility.yul\":4696:4706   */\n  swap1\n  pop\n    /* \"#utility.yul\":3773:4712   */\n  swap4\n  swap3\n  pop\n  pop\n  pop\n  jump\t// out\n    /* \"contracts/HashJingSVGStorage8.sol\":83:12579  contract TestStorage {... */\ntag_6:\n  mload(0x80)\n  codecopy(0x00, dataOffset(sub_0), dataSize(sub_0))\n  0x00\n  assignImmutable(\"0x13600b294191fc92924bb3ce4b969c1e7e2bab8f4c93c3fc6d0a51733df3c060\")\n  return(0x00, dataSize(sub_0))\nstop\ndata_8f4ebae2ebce61e4db42c91680bf4b38bd07d7ae5131628591bf7541af84b6a7 653d22626c61636b22207374726f6b652d77696474683d2231222f3e0a3c7061746820643d224d203132392e32323338363537303731313635203632382e3131333837303930313738343920412034303020343030203020302031203131392e36383538383738333837303738203539302e30333631323838303634353133204c2034312e3232333036353430363434393339203630352e36343333353435363737343135204120343830203438302030203020302035322e363638363338383438353339373836203635312e33333636343530383231343139205a222066696c6c3d22626c61636b22207374726f6b653d22626c61636b22207374726f6b652d77696474683d2231222f3e0a3c7061746820643d224d203230352e37373930393235363536393332203630342e38393130393637323134323820412033323020333230203020302031203139382e3134383731303237303936363236203537342e34323839303330343531363131204c203131392e36383538383738333837303738203539302e3033363132383830363435313320412034303020343030203020302030203132392e32323338363537303731313635203632382e31313338373039303137383439205a222066696c6c3d22626c61636b22207374726f6b653d22626c61636b22207374726f6b652d77696474683d2231222f3e0a3c7061746820643d224d203238322e33333433313934323432363939203538312e36363833323235343130373120412032343020323430203020302031203237362e36313135333237303332323437203535382e38323136373732383338373037204c203139382e3134383731303237303936363236203537342e3432383930333034353136313120412033323020333230203020302030203230352e37373930393235363536393332203630342e383931303936373231343238205a222066696c6c3d22626c61636b22207374726f6b653d22626c61636b22207374726f6b652d77696474683d2231222f3e0a3c7061746820643d224d203335382e38383935343632383238343636203535382e3434353534383336303731333920412031363020313630203020302031203335352e3037343335353133353438333133203534332e32313434353135323235383035204c203237362e36313135333237303332323437203535382e3832313637373238333837303720412032343020323430203020302030203238322e33333433313934323432363939203538312e363638333232353431303731205a222066696c6c3d22626c61636b22207374726f6b653d22626c61636b22207374726f6b652d77696474683d2231222f3e0a3c7061746820643d224d203131392e36383538383738333837303738203539302e3033363132383830363435313420412034303020343030203020302031203131332e3932363130393333313132313237203535312e32303638353631333138323433204c2033342e3331313333313139373334353531203535392e30343832323733353831383933204120343830203438302030203020302034312e3232333036353430363434393339203630352e36343333353435363737343138205a222066696c6c3d22626c61636b22207374726f6b653d22626c61636b22207374726f6b652d77696474683d2231222f3e0a3c7061746820643d224d203139382e3134383731303237303936363236203537342e3432383930333034353136313220412033323020333230203020302031203139332e3534303838373436343839373033203534332e33363534383439303534353934204c203131332e3932363130393333313132313237203535312e3230363835363133313832343320412034303020343030203020302030203131392e36383538383738333837303738203539302e30333631323838303634353134205a222066696c6c3d22626c61636b22207374726f6b653d22626c61636b22207374726f6b652d77696474683d2231222f3e0a3c7061746820643d224d203237362e36313135333237303332323437203535382e3832313637373238333837303820412032343020323430203020302031203237332e31353536363535393836373237203533352e35323431313336373930393436204c203139332e3534303838373436343839373033203534332e3336353438343930353435393420412033323020333230203020302030203139382e3134383731303237303936363236203537342e34323839303330343531363132205a222066696c6c3d22626c61636b22207374726f6b653d22626c61636b22207374726f6b652d77696474683d2231222f3e0a3c7061746820643d224d203335352e3037343335353133353438333133203534332e3231343435313532323538303620412031363020313630203020302031203335322e37373034343337333234343835203532372e36383237343234353237323937204c203237332e31353536363535393836373237203533352e3532343131333637393039343620412032343020323430203020302030203237362e36313135333237303332323437203535382e38323136373732383338373038205a222066696c6c3d22626c61636b22207374726f6b653d22626c61636b22207374726f6b652d77696474683d2231222f3e0a3c7061746820643d224d203131332e3932363130393333313132313231203535312e323036383536313331383234312041203430302034303020302030203120313132203531312e39393939393939393939393939204c203332203531312e3939393939393939393939393833204120343830203438302030203020302033342e3331313333313139373334353435203535392e303438323237333538313839205a222066696c6c3d22626c61636b22207374726f6b653d22626c61636b22207374726f6b652d77696474683d2231222f3e0a3c7061746820643d224d203139332e3534303838373436343839363937203534332e333635343834393035343539332041203332302033323020302030203120313932203531312e39393939393939393939393939204c20313132203531312e3939393939393939393939393920412034303020343030203020302030203131332e3932363130393333313132313231203535312e32303638353631333138323431205a222066696c6c3d22626c61636b22207374726f6b653d22626c61636b22207374726f6b652d77696474683d2231222f3e0a3c7061746820643d224d203237332e31353536363535393836373237203533352e353234313133363739303934352041203234302032343020302030203120323732203531312e3939393939393939393939393934204c20313932203531312e3939393939393939393939393920412033323020333230203020302030203139332e3534303838373436343839363937203534332e33363534383439303534353933205a222066696c6c3d22626c61636b22207374726f6b653d22626c61636b22207374726f6b652d77696474683d2231222f3e0a3c7061746820643d224d203335322e37373034343337333234343835203532372e363832373432343532373239372041203136302031363020302030203120333532203531312e3939393939393939393939393934204c20323732203531312e393939393939393939393939393420412032343020323430203020302030203237332e31353536363535393836373237203533352e35323431313336373930393435205a222066696c6c3d22626c61636b22207374726f6b653d22626c61636b22207374726f6b652d77696474683d2231222f3e0a3c7061746820643d224d203131322035313220412034303020343030203020302031203131332e3932363130393333313132313231203437322e37393331343338363831373538204c2033342e3331313333313139373334353435203436342e3935313737323634313831303920412034383020343830203020302030203332203531322e30303030303030303030303031205a222066696c6c3d22626c61636b22207374726f6b653d22626c61636b22207374726f6b652d77696474683d2231222f3e0a3c7061746820643d224d203139322035313220412033323020333230203020302031203139332e3534303838373436343839363937203438302e3633343531353039343534303633204c203131332e3932363130393333313132313231203437322e37393331343338363831373538204120343030203430302030203020302031313220353132205a222066696c6c3d22626c61636b22207374726f6b653d22626c61636b22207374726f6b652d77696474683d2231222f3e0a3c7061746820643d224d203237322035313220412032343020323430203020302031203237332e31353536363535393836373237203438382e34373538383633323039303535204c203139332e3534303838373436343839363937203438302e3633343531353039343534303633204120333230203332302030203020302031393220353132205a222066696c6c3d22626c61636b22207374726f6b653d22626c61636b22207374726f6b652d77696474683d2231222f3e0a3c7061746820643d224d203335322035313220412031363020313630203020302031203335322e37373034343337333234343835203439362e33313732353735343732373033204c203237332e31353536363535393836373237203438382e34373538383633323039303535204120323430203234302030203020302032373220353132205a222066696c6c3d22626c61636b22207374726f6b653d22626c61636b22207374726f6b652d77696474683d2231222f3e0a3c7061746820643d224d203131332e3932363130393333313132313231203437322e373933313433383638313735393520412034303020343030203020302031203131392e36383538383738333837303738203433332e39363338373131393335343838204c2034312e3232333036353430363434393334203431382e33353636343534333232353836204120343830203438302030203020302033342e3331313333313139373334353435203436342e3935313737323634313831313135205a222066696c6c3d22626c61636b22207374726f6b653d22626c61636b22207374726f6b652d77696474683d2231222f3e0a3c7061746820643d224d203139332e3534303838373436343839363937203438302e363334353135303934353430373520412033323020333230203020302031203139382e31343837313032373039363632203434392e3537313039363935343833393035204c203131392e36383538383738333837303738203433332e3936333837313139333534383820412034303020343030203020302030203131332e3932363130393333313132313231203437322e3739333134333836383137353935205a222066696c6c3d22626c61636b22207374726f6b653d22626c61636b22207374726f6b652d77696474683d2231222f3e0a3c7061746820643d224d203237332e31353536363535393836373237203438382e343735383836333230393035353420412032343020323430203020302031203237362e3631313533323730333232343637203436352e31373833323237313631323933204c203139382e31343837313032373039363632203434392e353731303936393534383339303520412033323020333230203020302030203139332e3534303838373436343839363937203438302e3633343531353039343534303735205a222066696c6c3d22626c61636b22207374726f6b653d22626c61636b22207374726f6b652d77696474683d2231222f3e0a3c7061746820643d224d203335322e37373034343337333234343835203439362e3331373235373534373237303420412031363020313630203020302031203335352e30373433353531333534383331203438302e37383535343834373734313935204c203237362e3631313533323730333232343637203436352e3137383332323731363132393320412032343020323430203020302030203237332e31353536363535393836373237203438382e3437353838363332303930353534205a222066696c6c3d22626c61636b22207374726f6b653d22626c61636b22207374726f6b652d77696474683d2231222f3e0a3c7061746820643d224d203131392e36383538383738333837303738203433332e393633383731313933353438363420412034303020343030203020302031203132392e32323338363537303731313635203339352e3838363132393039383231343935204c2035322e363638363338383438353339373836203337322e363633333534393137383538204120343830203438302030203020302034312e3232333036353430363434393339203431382e33353636343534333232353834205a222066696c6c3d22626c61636b22207374726f6b653d22626c61636b22207374726f6b652d77696474683d2231222f3e0a3c7061746820643d224d203139382e3134383731303237303936363236203434392e353731303936393534383338393420412033323020333230203020302031203230352e37373930393235363536393332203431392e313038393033323738353732204c203132392e32323338363537303731313635203339352e383836313239303938323134393520412034303020343030203020302030203131392e36383538383738333837303738203433332e3936333837313139333534383634205a222066696c6c3d22626c61636b22207374726f6b653d22626c61636b22207374726f6b652d77696474683d2231222f3e0a3c7061746820643d224d203237362e36313135333237303332323437203436352e3137383332323731363132393220412032343020323430203020302031203238322e33333433313934323432363939203434322e333331363737343538393239204c203230352e37373930393235363536393332203431392e31303839303332373835373220412033323020333230203020302030203139382e3134383731303237303936363236203434392e3537313039363935343833383934205a222066696c6c3d22626c61636b22207374726f6b653d22626c61636b22207374726f6b652d77696474683d2231222f3e0a3c7061746820643d224d203335352e3037343335353133353438333133203438302e373835353438343737343139343720412031363020313630203020302031203335382e38383935343632383238343636203436352e353534343531363339323836204c203238322e33333433313934323432363939203434322e33333136373734353839323920412032343020323430203020302030203237362e36313135333237303332323437203436352e31373833323237313631323932205a222066696c6c3d22626c61636b22207374726f6b653d22626c61636b22207374726f6b652d77696474683d2231222f3e0a3c7061746820643d224d203132392e3232333836353730373131363433203339352e3838363132393039383231353120412034303020343030203020302031203134322e34343831383639393534383533203335382e39323636323730353339363431204c2036382e3533373832343339343538323334203332382e33313139353234363437353639204120343830203438302030203020302035322e3636383633383834383533393733203337322e3636333335343931373835383136205a222066696c6c3d22626c61636b22207374726f6b653d22626c61636b22207374726f6b652d77696474683d2231222f3e0a3c7061746820643d224d203230352e3737393039323536353639333133203431392e313038393033323738353732313420412033323020333230203020302031203231362e3335383534393539363338383233203338392e35343133303136343331373133204c203134322e34343831383639393534383533203335382e3932363632373035333936343120412034303020343030203020302030203132392e3232333836353730373131363433203339352e38383631323930393832313531205a222066696c6c3d22626c61636b22207374726f6b653d22626c61636b22207374726f6b652d77696474683d2231222f3e0a3c7061746820643d224d203238322e33333433313934323432363939203434322e3333313637373435383932393120412032343020323430203020302031203239302e32363839313231393732393132203432302e3135353937363233323337383436204c203231362e3335383534393539363338383233203338392e3534313330313634333137313320412033323020333230203020302030203230352e3737393039323536353639333133203431392e31\n\nsub_0: assembly {\n        /* \"contracts/HashJingSVGStorage8.sol\":83:12579  contract TestStorage {... */\n      mstore(0x40, 0x80)\n      callvalue\n      dup1\n      iszero\n      tag_1\n      jumpi\n      0x00\n      dup1\n      revert\n    tag_1:\n      pop\n      jumpi(tag_2, lt(calldatasize, 0x04))\n      shr(0xe0, calldataload(0x00))\n      dup1\n      0x2810f972\n      eq\n      tag_3\n      jumpi\n      dup1\n      0xa32a3ee4\n      eq\n      tag_4\n      jumpi\n    tag_2:\n      0x00\n      dup1\n      revert\n        /* \"contracts/HashJingSVGStorage8.sol\":110:138  address public immutable ptr */\n    tag_3:\n      tag_5\n      tag_6\n      jump\t// in\n    tag_5:\n      mload(0x40)\n      tag_7\n      swap2\n      swap1\n      tag_8\n      jump\t// in\n    tag_7:\n      mload(0x40)\n      dup1\n      swap2\n      sub\n      swap1\n      return\n        /* \"contracts/HashJingSVGStorage8.sol\":12496:12577  function getPointer() external view returns (address) {... */\n    tag_4:\n      tag_9\n      tag_10\n      jump\t// in\n    tag_9:\n      mload(0x40)\n      tag_11\n      swap2\n      swap1\n      tag_8\n      jump\t// in\n    tag_11:\n      mload(0x40)\n      dup1\n      swap2\n      sub\n      swap1\n      return\n        /* \"contracts/HashJingSVGStorage8.sol\":110:138  address public immutable ptr */\n    tag_6:\n      immutable(\"0x13600b294191fc92924bb3ce4b969c1e7e2bab8f4c93c3fc6d0a51733df3c060\")\n      dup2\n      jump\t// out\n        /* \"contracts/HashJingSVGStorage8.sol\":12496:12577  function getPointer() external view returns (address) {... */\n    tag_10:\n        /* \"contracts/HashJingSVGStorage8.sol\":12541:12548  address */\n      0x00\n        /* \"contracts/HashJingSVGStorage8.sol\":12567:12570  ptr */\n      immutable(\"0x13600b294191fc92924bb3ce4b969c1e7e2bab8f4c93c3fc6d0a51733df3c060\")\n        /* \"contracts/HashJingSVGStorage8.sol\":12560:12570  return ptr */\n      swap1\n      pop\n        /* \"contracts/HashJingSVGStorage8.sol\":12496:12577  function getPointer() external view returns (address) {... */\n      swap1\n      jump\t// out\n        /* \"#utility.yul\":7:133   */\n    tag_13:\n        /* \"#utility.yul\":44:51   */\n      0x00\n        /* \"#utility.yul\":84:126   */\n      0xffffffffffffffffffffffffffffffffffffffff\n        /* \"#utility.yul\":77:82   */\n      dup3\n        /* \"#utility.yul\":73:127   */\n      and\n        /* \"#utility.yul\":62:127   */\n      swap1\n      pop\n        /* \"#utility.yul\":7:133   */\n      swap2\n      swap1\n      pop\n      jump\t// out\n        /* \"#utility.yul\":139:235   */\n    tag_14:\n        /* \"#utility.yul\":176:183   */\n      0x00\n        /* \"#utility.yul\":205:229   */\n      tag_19\n        /* \"#utility.yul\":223:228   */\n      dup3\n        /* \"#utility.yul\":205:229   */\n      tag_13\n      jump\t// in\n    tag_19:\n        /* \"#utility.yul\":194:229   */\n      swap1\n      pop\n        /* \"#utility.yul\":139:235   */\n      swap2\n      swap1\n      pop\n      jump\t// out\n        /* \"#utility.yul\":241:359   */\n    tag_15:\n        /* \"#utility.yul\":328:352   */\n      tag_21\n        /* \"#utility.yul\":346:351   */\n      dup2\n        /* \"#utility.yul\":328:352   */\n      tag_14\n      jump\t// in\n    tag_21:\n        /* \"#utility.yul\":323:326   */\n      dup3\n        /* \"#utility.yul\":316:353   */\n      mstore\n        /* \"#utility.yul\":241:359   */\n      pop\n      pop\n      jump\t// out\n        /* \"#utility.yul\":365:587   */\n    tag_8:\n        /* \"#utility.yul\":458:462   */\n      0x00\n        /* \"#utility.yul\":496:498   */\n      0x20\n        /* \"#utility.yul\":485:494   */\n      dup3\n        /* \"#utility.yul\":481:499   */\n      add\n        /* \"#utility.yul\":473:499   */\n      swap1\n      pop\n        /* \"#utility.yul\":509:580   */\n      tag_23\n        /* \"#utility.yul\":577:578   */\n      0x00\n        /* \"#utility.yul\":566:575   */\n      dup4\n        /* \"#utility.yul\":562:579   */\n      add\n        /* \"#utility.yul\":553:559   */\n      dup5\n        /* \"#utility.yul\":509:580   */\n      tag_15\n      jump\t// in\n    tag_23:\n        /* \"#utility.yul\":365:587   */\n      swap3\n      swap2\n      pop\n      pop\n      jump\t// out\n\n    auxdata: 0xa26469706673582212209509a2125c1b7fad5c867148c5afb7ec13ff6b4dc7b9015170ca6876039d093864736f6c634300081a0033\n}\n",
				"bytecode": {
					"linkReferences": {},
					"object": "60a060405234801561000f575f80fd5b5061003a604051806118200160405280611800815260200161046a611800913961007260201b60201c565b73ffffffffffffffffffffffffffffffffffffffff1660808173ffffffffffffffffffffffffffffffffffffffff1681525050610300565b5f806100a28360405160200161008891906101cb565b60405160208183030381529060405261011960201b60201c565b90508051602082015ff091505f73ffffffffffffffffffffffffffffffffffffffff168273ffffffffffffffffffffffffffffffffffffffff1603610113576040517f08d4abb600000000000000000000000000000000000000000000000000000000815260040160405180910390fd5b50919050565b606081518260405160200161012f9291906102c3565b6040516020818303038152906040529050919050565b5f81905092915050565b5f8082015250565b5f610163600183610145565b915061016e8261014f565b600182019050919050565b5f81519050919050565b5f81905092915050565b8281835e5f83830152505050565b5f6101a582610179565b6101af8185610183565b93506101bf81856020860161018d565b80840191505092915050565b5f6101d582610157565b91506101e1828461019b565b915081905092915050565b7f63000000000000000000000000000000000000000000000000000000000000005f82015250565b5f610220600183610145565b915061022b826101ec565b600182019050919050565b5f63ffffffff82169050919050565b5f8160e01b9050919050565b5f61025b82610245565b9050919050565b61027361026e82610236565b610251565b82525050565b7f80600e6000396000f300000000000000000000000000000000000000000000005f82015250565b5f6102ad600983610145565b91506102b882610279565b600982019050919050565b5f6102cd82610214565b91506102d98285610262565b6004820191506102e8826102a1565b91506102f4828461019b565b91508190509392505050565b60805161014d61031d5f395f818160760152609b015261014d5ff3fe608060405234801561000f575f80fd5b5060043610610034575f3560e01c80632810f97214610038578063a32a3ee414610056575b5f80fd5b610040610074565b60405161004d91906100fe565b60405180910390f35b61005e610098565b60405161006b91906100fe565b60405180910390f35b7f000000000000000000000000000000000000000000000000000000000000000081565b5f7f0000000000000000000000000000000000000000000000000000000000000000905090565b5f73ffffffffffffffffffffffffffffffffffffffff82169050919050565b5f6100e8826100bf565b9050919050565b6100f8816100de565b82525050565b5f6020820190506101115f8301846100ef565b9291505056fea26469706673582212209509a2125c1b7fad5c867148c5afb7ec13ff6b4dc7b9015170ca6876039d093864736f6c634300081a0033653d22626c61636b22207374726f6b652d77696474683d2231222f3e0a3c7061746820643d224d203132392e32323338363537303731313635203632382e3131333837303930313738343920412034303020343030203020302031203131392e36383538383738333837303738203539302e30333631323838303634353133204c2034312e3232333036353430363434393339203630352e36343333353435363737343135204120343830203438302030203020302035322e363638363338383438353339373836203635312e33333636343530383231343139205a222066696c6c3d22626c61636b22207374726f6b653d22626c61636b22207374726f6b652d77696474683d2231222f3e0a3c7061746820643d224d203230352e37373930393235363536393332203630342e38393130393637323134323820412033323020333230203020302031203139382e3134383731303237303936363236203537342e34323839303330343531363131204c203131392e36383538383738333837303738203539302e3033363132383830363435313320412034303020343030203020302030203132392e32323338363537303731313635203632382e31313338373039303137383439205a222066696c6c3d22626c61636b22207374726f6b653d22626c61636b22207374726f6b652d77696474683d2231222f3e0a3c7061746820643d224d203238322e33333433313934323432363939203538312e36363833323235343130373120412032343020323430203020302031203237362e36313135333237303332323437203535382e38323136373732383338373037204c203139382e3134383731303237303936363236203537342e3432383930333034353136313120412033323020333230203020302030203230352e37373930393235363536393332203630342e383931303936373231343238205a222066696c6c3d22626c61636b22207374726f6b653d22626c61636b22207374726f6b652d77696474683d2231222f3e0a3c7061746820643d224d203335382e38383935343632383238343636203535382e3434353534383336303731333920412031363020313630203020302031203335352e3037343335353133353438333133203534332e32313434353135323235383035204c203237362e36313135333237303332323437203535382e3832313637373238333837303720412032343020323430203020302030203238322e33333433313934323432363939203538312e363638333232353431303731205a222066696c6c3d22626c61636b22207374726f6b653d22626c61636b22207374726f6b652d77696474683d2231222f3e0a3c7061746820643d224d203131392e36383538383738333837303738203539302e3033363132383830363435313420412034303020343030203020302031203131332e3932363130393333313132313237203535312e32303638353631333138323433204c2033342e3331313333313139373334353531203535392e30343832323733353831383933204120343830203438302030203020302034312e3232333036353430363434393339203630352e36343333353435363737343138205a222066696c6c3d22626c61636b22207374726f6b653d22626c61636b22207374726f6b652d77696474683d2231222f3e0a3c7061746820643d224d203139382e3134383731303237303936363236203537342e3432383930333034353136313220412033323020333230203020302031203139332e3534303838373436343839373033203534332e33363534383439303534353934204c203131332e3932363130393333313132313237203535312e3230363835363133313832343320412034303020343030203020302030203131392e36383538383738333837303738203539302e30333631323838303634353134205a222066696c6c3d22626c61636b22207374726f6b653d22626c61636b22207374726f6b652d77696474683d2231222f3e0a3c7061746820643d224d203237362e36313135333237303332323437203535382e3832313637373238333837303820412032343020323430203020302031203237332e31353536363535393836373237203533352e35323431313336373930393436204c203139332e3534303838373436343839373033203534332e3336353438343930353435393420412033323020333230203020302030203139382e3134383731303237303936363236203537342e34323839303330343531363132205a222066696c6c3d22626c61636b22207374726f6b653d22626c61636b22207374726f6b652d77696474683d2231222f3e0a3c7061746820643d224d203335352e3037343335353133353438333133203534332e3231343435313532323538303620412031363020313630203020302031203335322e37373034343337333234343835203532372e36383237343234353237323937204c203237332e31353536363535393836373237203533352e3532343131333637393039343620412032343020323430203020302030203237362e36313135333237303332323437203535382e38323136373732383338373038205a222066696c6c3d22626c61636b22207374726f6b653d22626c61636b22207374726f6b652d77696474683d2231222f3e0a3c7061746820643d224d203131332e3932363130393333313132313231203535312e323036383536313331383234312041203430302034303020302030203120313132203531312e39393939393939393939393939204c203332203531312e3939393939393939393939393833204120343830203438302030203020302033342e3331313333313139373334353435203535392e303438323237333538313839205a222066696c6c3d22626c61636b22207374726f6b653d22626c61636b22207374726f6b652d77696474683d2231222f3e0a3c7061746820643d224d203139332e3534303838373436343839363937203534332e333635343834393035343539332041203332302033323020302030203120313932203531312e39393939393939393939393939204c20313132203531312e3939393939393939393939393920412034303020343030203020302030203131332e3932363130393333313132313231203535312e32303638353631333138323431205a222066696c6c3d22626c61636b22207374726f6b653d22626c61636b22207374726f6b652d77696474683d2231222f3e0a3c7061746820643d224d203237332e31353536363535393836373237203533352e353234313133363739303934352041203234302032343020302030203120323732203531312e3939393939393939393939393934204c20313932203531312e3939393939393939393939393920412033323020333230203020302030203139332e3534303838373436343839363937203534332e33363534383439303534353933205a222066696c6c3d22626c61636b22207374726f6b653d22626c61636b22207374726f6b652d77696474683d2231222f3e0a3c7061746820643d224d203335322e37373034343337333234343835203532372e363832373432343532373239372041203136302031363020302030203120333532203531312e3939393939393939393939393934204c20323732203531312e393939393939393939393939393420412032343020323430203020302030203237332e31353536363535393836373237203533352e35323431313336373930393435205a222066696c6c3d22626c61636b22207374726f6b653d22626c61636b22207374726f6b652d77696474683d2231222f3e0a3c7061746820643d224d203131322035313220412034303020343030203020302031203131332e3932363130393333313132313231203437322e37393331343338363831373538204c2033342e3331313333313139373334353435203436342e3935313737323634313831303920412034383020343830203020302030203332203531322e30303030303030303030303031205a222066696c6c3d22626c61636b22207374726f6b653d22626c61636b22207374726f6b652d77696474683d2231222f3e0a3c7061746820643d224d203139322035313220412033323020333230203020302031203139332e3534303838373436343839363937203438302e3633343531353039343534303633204c203131332e3932363130393333313132313231203437322e37393331343338363831373538204120343030203430302030203020302031313220353132205a222066696c6c3d22626c61636b22207374726f6b653d22626c61636b22207374726f6b652d77696474683d2231222f3e0a3c7061746820643d224d203237322035313220412032343020323430203020302031203237332e31353536363535393836373237203438382e34373538383633323039303535204c203139332e3534303838373436343839363937203438302e3633343531353039343534303633204120333230203332302030203020302031393220353132205a222066696c6c3d22626c61636b22207374726f6b653d22626c61636b22207374726f6b652d77696474683d2231222f3e0a3c7061746820643d224d203335322035313220412031363020313630203020302031203335322e37373034343337333234343835203439362e33313732353735343732373033204c203237332e31353536363535393836373237203438382e34373538383633323039303535204120323430203234302030203020302032373220353132205a222066696c6c3d22626c61636b22207374726f6b653d22626c61636b22207374726f6b652d77696474683d2231222f3e0a3c7061746820643d224d203131332e3932363130393333313132313231203437322e373933313433383638313735393520412034303020343030203020302031203131392e36383538383738333837303738203433332e39363338373131393335343838204c2034312e3232333036353430363434393334203431382e33353636343534333232353836204120343830203438302030203020302033342e3331313333313139373334353435203436342e3935313737323634313831313135205a222066696c6c3d22626c61636b22207374726f6b653d22626c61636b22207374726f6b652d77696474683d2231222f3e0a3c7061746820643d224d203139332e3534303838373436343839363937203438302e363334353135303934353430373520412033323020333230203020302031203139382e31343837313032373039363632203434392e3537313039363935343833393035204c203131392e36383538383738333837303738203433332e3936333837313139333534383820412034303020343030203020302030203131332e3932363130393333313132313231203437322e3739333134333836383137353935205a222066696c6c3d22626c61636b22207374726f6b653d22626c61636b22207374726f6b652d77696474683d2231222f3e0a3c7061746820643d224d203237332e31353536363535393836373237203438382e343735383836333230393035353420412032343020323430203020302031203237362e3631313533323730333232343637203436352e31373833323237313631323933204c203139382e31343837313032373039363632203434392e353731303936393534383339303520412033323020333230203020302030203139332e3534303838373436343839363937203438302e3633343531353039343534303735205a222066696c6c3d22626c61636b22207374726f6b653d22626c61636b22207374726f6b652d77696474683d2231222f3e0a3c7061746820643d224d203335322e37373034343337333234343835203439362e3331373235373534373237303420412031363020313630203020302031203335352e30373433353531333534383331203438302e37383535343834373734313935204c203237362e3631313533323730333232343637203436352e3137383332323731363132393320412032343020323430203020302030203237332e31353536363535393836373237203438382e3437353838363332303930353534205a222066696c6c3d22626c61636b22207374726f6b653d22626c61636b22207374726f6b652d77696474683d2231222f3e0a3c7061746820643d224d203131392e36383538383738333837303738203433332e393633383731313933353438363420412034303020343030203020302031203132392e32323338363537303731313635203339352e3838363132393039383231343935204c2035322e363638363338383438353339373836203337322e363633333534393137383538204120343830203438302030203020302034312e3232333036353430363434393339203431382e33353636343534333232353834205a222066696c6c3d22626c61636b22207374726f6b653d22626c61636b22207374726f6b652d77696474683d2231222f3e0a3c7061746820643d224d203139382e3134383731303237303936363236203434392e353731303936393534383338393420412033323020333230203020302031203230352e37373930393235363536393332203431392e313038393033323738353732204c203132392e32323338363537303731313635203339352e383836313239303938323134393520412034303020343030203020302030203131392e36383538383738333837303738203433332e3936333837313139333534383634205a222066696c6c3d22626c61636b22207374726f6b653d22626c61636b22207374726f6b652d77696474683d2231222f3e0a3c7061746820643d224d203237362e36313135333237303332323437203436352e3137383332323731363132393220412032343020323430203020302031203238322e33333433313934323432363939203434322e333331363737343538393239204c203230352e37373930393235363536393332203431392e31303839303332373835373220412033323020333230203020302030203139382e3134383731303237303936363236203434392e3537313039363935343833383934205a222066696c6c3d22626c61636b22207374726f6b653d22626c61636b22207374726f6b652d77696474683d2231222f3e0a3c7061746820643d224d203335352e3037343335353133353438333133203438302e373835353438343737343139343720412031363020313630203020302031203335382e38383935343632383238343636203436352e353534343531363339323836204c203238322e33333433313934323432363939203434322e33333136373734353839323920412032343020323430203020302030203237362e36313135333237303332323437203436352e31373833323237313631323932205a222066696c6c3d22626c61636b22207374726f6b653d22626c61636b22207374726f6b652d77696474683d2231222f3e0a3c7061746820643d224d203132392e3232333836353730373131363433203339352e3838363132393039383231353120412034303020343030203020302031203134322e34343831383639393534383533203335382e39323636323730353339363431204c2036382e3533373832343339343538323334203332382e33313139353234363437353639204120343830203438302030203020302035322e3636383633383834383533393733203337322e3636333335343931373835383136205a222066696c6c3d22626c61636b22207374726f6b653d22626c61636b22207374726f6b652d77696474683d2231222f3e0a3c7061746820643d224d203230352e3737393039323536353639333133203431392e313038393033323738353732313420412033323020333230203020302031203231362e3335383534393539363338383233203338392e35343133303136343331373133204c203134322e34343831383639393534383533203335382e3932363632373035333936343120412034303020343030203020302030203132392e3232333836353730373131363433203339352e38383631323930393832313531205a222066696c6c3d22626c61636b22207374726f6b653d22626c61636b22207374726f6b652d77696474683d2231222f3e0a3c7061746820643d224d203238322e33333433313934323432363939203434322e3333313637373435383932393120412032343020323430203020302031203239302e32363839313231393732393132203432302e3135353937363233323337383436204c203231362e3335383534393539363338383233203338392e3534313330313634333137313320412033323020333230203020302030203230352e3737393039323536353639333133203431392e31",
					"opcodes": "PUSH1 0xA0 PUSH1 0x40 MSTORE CALLVALUE DUP1 ISZERO PUSH2 0xF JUMPI PUSH0 DUP1 REVERT JUMPDEST POP PUSH2 0x3A PUSH1 0x40 MLOAD DUP1 PUSH2 0x1820 ADD PUSH1 0x40 MSTORE DUP1 PUSH2 0x1800 DUP2 MSTORE PUSH1 0x20 ADD PUSH2 0x46A PUSH2 0x1800 SWAP2 CODECOPY PUSH2 0x72 PUSH1 0x20 SHL PUSH1 0x20 SHR JUMP JUMPDEST PUSH20 0xFFFFFFFFFFFFFFFFFFFFFFFFFFFFFFFFFFFFFFFF AND PUSH1 0x80 DUP2 PUSH20 0xFFFFFFFFFFFFFFFFFFFFFFFFFFFFFFFFFFFFFFFF AND DUP2 MSTORE POP POP PUSH2 0x300 JUMP JUMPDEST PUSH0 DUP1 PUSH2 0xA2 DUP4 PUSH1 0x40 MLOAD PUSH1 0x20 ADD PUSH2 0x88 SWAP2 SWAP1 PUSH2 0x1CB JUMP JUMPDEST PUSH1 0x40 MLOAD PUSH1 0x20 DUP2 DUP4 SUB SUB DUP2 MSTORE SWAP1 PUSH1 0x40 MSTORE PUSH2 0x119 PUSH1 0x20 SHL PUSH1 0x20 SHR JUMP JUMPDEST SWAP1 POP DUP1 MLOAD PUSH1 0x20 DUP3 ADD PUSH0 CREATE SWAP2 POP PUSH0 PUSH20 0xFFFFFFFFFFFFFFFFFFFFFFFFFFFFFFFFFFFFFFFF AND DUP3 PUSH20 0xFFFFFFFFFFFFFFFFFFFFFFFFFFFFFFFFFFFFFFFF AND SUB PUSH2 0x113 JUMPI PUSH1 0x40 MLOAD PUSH32 0x8D4ABB600000000000000000000000000000000000000000000000000000000 DUP2 MSTORE PUSH1 0x4 ADD PUSH1 0x40 MLOAD DUP1 SWAP2 SUB SWAP1 REVERT JUMPDEST POP SWAP2 SWAP1 POP JUMP JUMPDEST PUSH1 0x60 DUP2 MLOAD DUP3 PUSH1 0x40 MLOAD PUSH1 0x20 ADD PUSH2 0x12F SWAP3 SWAP2 SWAP1 PUSH2 0x2C3 JUMP JUMPDEST PUSH1 0x40 MLOAD PUSH1 0x20 DUP2 DUP4 SUB SUB DUP2 MSTORE SWAP1 PUSH1 0x40 MSTORE SWAP1 POP SWAP2 SWAP1 POP JUMP JUMPDEST PUSH0 DUP2 SWAP1 POP SWAP3 SWAP2 POP POP JUMP JUMPDEST PUSH0 DUP1 DUP3 ADD MSTORE POP JUMP JUMPDEST PUSH0 PUSH2 0x163 PUSH1 0x1 DUP4 PUSH2 0x145 JUMP JUMPDEST SWAP2 POP PUSH2 0x16E DUP3 PUSH2 0x14F JUMP JUMPDEST PUSH1 0x1 DUP3 ADD SWAP1 POP SWAP2 SWAP1 POP JUMP JUMPDEST PUSH0 DUP2 MLOAD SWAP1 POP SWAP2 SWAP1 POP JUMP JUMPDEST PUSH0 DUP2 SWAP1 POP SWAP3 SWAP2 POP POP JUMP JUMPDEST DUP3 DUP2 DUP4 MCOPY PUSH0 DUP4 DUP4 ADD MSTORE POP POP POP JUMP JUMPDEST PUSH0 PUSH2 0x1A5 DUP3 PUSH2 0x179 JUMP JUMPDEST PUSH2 0x1AF DUP2 DUP6 PUSH2 0x183 JUMP JUMPDEST SWAP4 POP PUSH2 0x1BF DUP2 DUP6 PUSH1 0x20 DUP7 ADD PUSH2 0x18D JUMP JUMPDEST DUP1 DUP5 ADD SWAP2 POP POP SWAP3 SWAP2 POP POP JUMP JUMPDEST PUSH0 PUSH2 0x1D5 DUP3 PUSH2 0x157 JUMP JUMPDEST SWAP2 POP PUSH2 0x1E1 DUP3 DUP5 PUSH2 0x19B JUMP JUMPDEST SWAP2 POP DUP2 SWAP1 POP SWAP3 SWAP2 POP POP JUMP JUMPDEST PUSH32 0x6300000000000000000000000000000000000000000000000000000000000000 PUSH0 DUP3 ADD MSTORE POP JUMP JUMPDEST PUSH0 PUSH2 0x220 PUSH1 0x1 DUP4 PUSH2 0x145 JUMP JUMPDEST SWAP2 POP PUSH2 0x22B DUP3 PUSH2 0x1EC JUMP JUMPDEST PUSH1 0x1 DUP3 ADD SWAP1 POP SWAP2 SWAP1 POP JUMP JUMPDEST PUSH0 PUSH4 0xFFFFFFFF DUP3 AND SWAP1 POP SWAP2 SWAP1 POP JUMP JUMPDEST PUSH0 DUP2 PUSH1 0xE0 SHL SWAP1 POP SWAP2 SWAP1 POP JUMP JUMPDEST PUSH0 PUSH2 0x25B DUP3 PUSH2 0x245 JUMP JUMPDEST SWAP1 POP SWAP2 SWAP1 POP JUMP JUMPDEST PUSH2 0x273 PUSH2 0x26E DUP3 PUSH2 0x236 JUMP JUMPDEST PUSH2 0x251 JUMP JUMPDEST DUP3 MSTORE POP POP JUMP JUMPDEST PUSH32 0x80600E6000396000F30000000000000000000000000000000000000000000000 PUSH0 DUP3 ADD MSTORE POP JUMP JUMPDEST PUSH0 PUSH2 0x2AD PUSH1 0x9 DUP4 PUSH2 0x145 JUMP JUMPDEST SWAP2 POP PUSH2 0x2B8 DUP3 PUSH2 0x279 JUMP JUMPDEST PUSH1 0x9 DUP3 ADD SWAP1 POP SWAP2 SWAP1 POP JUMP JUMPDEST PUSH0 PUSH2 0x2CD DUP3 PUSH2 0x214 JUMP JUMPDEST SWAP2 POP PUSH2 0x2D9 DUP3 DUP6 PUSH2 0x262 JUMP JUMPDEST PUSH1 0x4 DUP3 ADD SWAP2 POP PUSH2 0x2E8 DUP3 PUSH2 0x2A1 JUMP JUMPDEST SWAP2 POP PUSH2 0x2F4 DUP3 DUP5 PUSH2 0x19B JUMP JUMPDEST SWAP2 POP DUP2 SWAP1 POP SWAP4 SWAP3 POP POP POP JUMP JUMPDEST PUSH1 0x80 MLOAD PUSH2 0x14D PUSH2 0x31D PUSH0 CODECOPY PUSH0 DUP2 DUP2 PUSH1 0x76 ADD MSTORE PUSH1 0x9B ADD MSTORE PUSH2 0x14D PUSH0 RETURN INVALID PUSH1 0x80 PUSH1 0x40 MSTORE CALLVALUE DUP1 ISZERO PUSH2 0xF JUMPI PUSH0 DUP1 REVERT JUMPDEST POP PUSH1 0x4 CALLDATASIZE LT PUSH2 0x34 JUMPI PUSH0 CALLDATALOAD PUSH1 0xE0 SHR DUP1 PUSH4 0x2810F972 EQ PUSH2 0x38 JUMPI DUP1 PUSH4 0xA32A3EE4 EQ PUSH2 0x56 JUMPI JUMPDEST PUSH0 DUP1 REVERT JUMPDEST PUSH2 0x40 PUSH2 0x74 JUMP JUMPDEST PUSH1 0x40 MLOAD PUSH2 0x4D SWAP2 SWAP1 PUSH2 0xFE JUMP JUMPDEST PUSH1 0x40 MLOAD DUP1 SWAP2 SUB SWAP1 RETURN JUMPDEST PUSH2 0x5E PUSH2 0x98 JUMP JUMPDEST PUSH1 0x40 MLOAD PUSH2 0x6B SWAP2 SWAP1 PUSH2 0xFE JUMP JUMPDEST PUSH1 0x40 MLOAD DUP1 SWAP2 SUB SWAP1 RETURN JUMPDEST PUSH32 0x0 DUP2 JUMP JUMPDEST PUSH0 PUSH32 0x0 SWAP1 POP SWAP1 JUMP JUMPDEST PUSH0 PUSH20 0xFFFFFFFFFFFFFFFFFFFFFFFFFFFFFFFFFFFFFFFF DUP3 AND SWAP1 POP SWAP2 SWAP1 POP JUMP JUMPDEST PUSH0 PUSH2 0xE8 DUP3 PUSH2 0xBF JUMP JUMPDEST SWAP1 POP SWAP2 SWAP1 POP JUMP JUMPDEST PUSH2 0xF8 DUP2 PUSH2 0xDE JUMP JUMPDEST DUP3 MSTORE POP POP JUMP JUMPDEST PUSH0 PUSH1 0x20 DUP3 ADD SWAP1 POP PUSH2 0x111 PUSH0 DUP4 ADD DUP5 PUSH2 0xEF JUMP JUMPDEST SWAP3 SWAP2 POP POP JUMP INVALID LOG2 PUSH5 0x6970667358 0x22 SLT KECCAK256 SWAP6 MULMOD LOG2 SLT TLOAD SHL PUSH32 0xAD5C867148C5AFB7EC13FF6B4DC7B9015170CA6876039D093864736F6C634300 ADDMOD BYTE STOP CALLER PUSH6 0x3D22626C6163 PUSH12 0x22207374726F6B652D776964 PUSH21 0x683D2231222F3E0A3C7061746820643D224D203132 CODECOPY 0x2E ORIGIN ORIGIN CALLER CODESIZE CALLDATASIZE CALLDATALOAD CALLDATACOPY ADDRESS CALLDATACOPY BALANCE BALANCE CALLDATASIZE CALLDATALOAD KECCAK256 CALLDATASIZE ORIGIN CODESIZE 0x2E BALANCE BALANCE CALLER CODESIZE CALLDATACOPY ADDRESS CODECOPY ADDRESS BALANCE CALLDATACOPY CODESIZE CALLVALUE CODECOPY KECCAK256 COINBASE KECCAK256 CALLVALUE ADDRESS ADDRESS KECCAK256 CALLVALUE ADDRESS ADDRESS KECCAK256 ADDRESS KECCAK256 ADDRESS KECCAK256 BALANCE KECCAK256 BALANCE BALANCE CODECOPY 0x2E CALLDATASIZE CODESIZE CALLDATALOAD CODESIZE CODESIZE CALLDATACOPY CODESIZE CALLER CODESIZE CALLDATACOPY ADDRESS CALLDATACOPY CODESIZE KECCAK256 CALLDATALOAD CODECOPY ADDRESS 0x2E ADDRESS CALLER CALLDATASIZE BALANCE ORIGIN CODESIZE CODESIZE ADDRESS CALLDATASIZE CALLVALUE CALLDATALOAD BALANCE CALLER KECCAK256 0x4C KECCAK256 CALLVALUE BALANCE 0x2E ORIGIN ORIGIN CALLER ADDRESS CALLDATASIZE CALLDATALOAD CALLVALUE ADDRESS CALLDATASIZE CALLVALUE CALLVALUE CODECOPY CALLER CODECOPY KECCAK256 CALLDATASIZE ADDRESS CALLDATALOAD 0x2E CALLDATASIZE CALLVALUE CALLER CALLER CALLDATALOAD CALLVALUE CALLDATALOAD CALLDATASIZE CALLDATACOPY CALLDATACOPY CALLVALUE BALANCE CALLDATALOAD KECCAK256 COINBASE KECCAK256 CALLVALUE CODESIZE ADDRESS KECCAK256 CALLVALUE CODESIZE ADDRESS KECCAK256 ADDRESS KECCAK256 ADDRESS KECCAK256 ADDRESS KECCAK256 CALLDATALOAD ORIGIN 0x2E CALLDATASIZE CALLDATASIZE CODESIZE CALLDATASIZE CALLER CODESIZE CODESIZE CALLVALUE CODESIZE CALLDATALOAD CALLER CODECOPY CALLDATACOPY CODESIZE CALLDATASIZE KECCAK256 CALLDATASIZE CALLDATALOAD BALANCE 0x2E CALLER CALLER CALLDATASIZE CALLDATASIZE CALLVALUE CALLDATALOAD ADDRESS CODESIZE ORIGIN BALANCE CALLVALUE BALANCE CODECOPY KECCAK256 GAS 0x22 KECCAK256 PUSH7 0x696C6C3D22626C PUSH2 0x636B 0x22 KECCAK256 PUSH20 0x74726F6B653D22626C61636B22207374726F6B65 0x2D PUSH24 0x696474683D2231222F3E0A3C7061746820643D224D203230 CALLDATALOAD 0x2E CALLDATACOPY CALLDATACOPY CODECOPY ADDRESS CODECOPY ORIGIN CALLDATALOAD CALLDATASIZE CALLDATALOAD CALLDATASIZE CODECOPY CALLER ORIGIN KECCAK256 CALLDATASIZE ADDRESS CALLVALUE 0x2E CODESIZE CODECOPY BALANCE ADDRESS CODECOPY CALLDATASIZE CALLDATACOPY ORIGIN BALANCE CALLVALUE ORIGIN CODESIZE KECCAK256 COINBASE KECCAK256 CALLER ORIGIN ADDRESS KECCAK256 CALLER ORIGIN ADDRESS KECCAK256 ADDRESS KECCAK256 ADDRESS KECCAK256 BALANCE KECCAK256 BALANCE CODECOPY CODESIZE 0x2E BALANCE CALLVALUE CODESIZE CALLDATACOPY BALANCE ADDRESS ORIGIN CALLDATACOPY ADDRESS CODECOPY CALLDATASIZE CALLDATASIZE ORIGIN CALLDATASIZE KECCAK256 CALLDATALOAD CALLDATACOPY CALLVALUE 0x2E CALLVALUE ORIGIN CODESIZE CODECOPY ADDRESS CALLER ADDRESS CALLVALUE CALLDATALOAD BALANCE CALLDATASIZE BALANCE BALANCE KECCAK256 0x4C KECCAK256 BALANCE BALANCE CODECOPY 0x2E CALLDATASIZE CODESIZE CALLDATALOAD CODESIZE CODESIZE CALLDATACOPY CODESIZE CALLER CODESIZE CALLDATACOPY ADDRESS CALLDATACOPY CODESIZE KECCAK256 CALLDATALOAD CODECOPY ADDRESS 0x2E ADDRESS CALLER CALLDATASIZE BALANCE ORIGIN CODESIZE CODESIZE ADDRESS CALLDATASIZE CALLVALUE CALLDATALOAD BALANCE CALLER KECCAK256 COINBASE KECCAK256 CALLVALUE ADDRESS ADDRESS KECCAK256 CALLVALUE ADDRESS ADDRESS KECCAK256 ADDRESS KECCAK256 ADDRESS KECCAK256 ADDRESS KECCAK256 BALANCE ORIGIN CODECOPY 0x2E ORIGIN ORIGIN CALLER CODESIZE CALLDATASIZE CALLDATALOAD CALLDATACOPY ADDRESS CALLDATACOPY BALANCE BALANCE CALLDATASIZE CALLDATALOAD KECCAK256 CALLDATASIZE ORIGIN CODESIZE 0x2E BALANCE BALANCE CALLER CODESIZE CALLDATACOPY ADDRESS CODECOPY ADDRESS BALANCE CALLDATACOPY CODESIZE CALLVALUE CODECOPY KECCAK256 GAS 0x22 KECCAK256 PUSH7 0x696C6C3D22626C PUSH2 0x636B 0x22 KECCAK256 PUSH20 0x74726F6B653D22626C61636B22207374726F6B65 0x2D PUSH24 0x696474683D2231222F3E0A3C7061746820643D224D203238 ORIGIN 0x2E CALLER CALLER CALLVALUE CALLER BALANCE CODECOPY CALLVALUE ORIGIN CALLVALUE ORIGIN CALLDATASIZE CODECOPY CODECOPY KECCAK256 CALLDATALOAD CODESIZE BALANCE 0x2E CALLDATASIZE CALLDATASIZE CODESIZE CALLER ORIGIN ORIGIN CALLDATALOAD CALLVALUE BALANCE ADDRESS CALLDATACOPY BALANCE KECCAK256 COINBASE KECCAK256 ORIGIN CALLVALUE ADDRESS KECCAK256 ORIGIN CALLVALUE ADDRESS KECCAK256 ADDRESS KECCAK256 ADDRESS KECCAK256 BALANCE KECCAK256 ORIGIN CALLDATACOPY CALLDATASIZE 0x2E CALLDATASIZE BALANCE BALANCE CALLDATALOAD CALLER ORIGIN CALLDATACOPY ADDRESS CALLER ORIGIN ORIGIN CALLVALUE CALLDATACOPY KECCAK256 CALLDATALOAD CALLDATALOAD CODESIZE 0x2E CODESIZE ORIGIN BALANCE CALLDATASIZE CALLDATACOPY CALLDATACOPY ORIGIN CODESIZE CALLER CODESIZE CALLDATACOPY ADDRESS CALLDATACOPY KECCAK256 0x4C KECCAK256 BALANCE CODECOPY CODESIZE 0x2E BALANCE CALLVALUE CODESIZE CALLDATACOPY BALANCE ADDRESS ORIGIN CALLDATACOPY ADDRESS CODECOPY CALLDATASIZE CALLDATASIZE ORIGIN CALLDATASIZE KECCAK256 CALLDATALOAD CALLDATACOPY CALLVALUE 0x2E CALLVALUE ORIGIN CODESIZE CODECOPY ADDRESS CALLER ADDRESS CALLVALUE CALLDATALOAD BALANCE CALLDATASIZE BALANCE BALANCE KECCAK256 COINBASE KECCAK256 CALLER ORIGIN ADDRESS KECCAK256 CALLER ORIGIN ADDRESS KECCAK256 ADDRESS KECCAK256 ADDRESS KECCAK256 ADDRESS KECCAK256 ORIGIN ADDRESS CALLDATALOAD 0x2E CALLDATACOPY CALLDATACOPY CODECOPY ADDRESS CODECOPY ORIGIN CALLDATALOAD CALLDATASIZE CALLDATALOAD CALLDATASIZE CODECOPY CALLER ORIGIN KECCAK256 CALLDATASIZE ADDRESS CALLVALUE 0x2E CODESIZE CODECOPY BALANCE ADDRESS CODECOPY CALLDATASIZE CALLDATACOPY ORIGIN BALANCE CALLVALUE ORIGIN CODESIZE KECCAK256 GAS 0x22 KECCAK256 PUSH7 0x696C6C3D22626C PUSH2 0x636B 0x22 KECCAK256 PUSH20 0x74726F6B653D22626C61636B22207374726F6B65 0x2D PUSH24 0x696474683D2231222F3E0A3C7061746820643D224D203335 CODESIZE 0x2E CODESIZE CODESIZE CODECOPY CALLDATALOAD CALLVALUE CALLDATASIZE ORIGIN CODESIZE ORIGIN CODESIZE CALLVALUE CALLDATASIZE CALLDATASIZE KECCAK256 CALLDATALOAD CALLDATALOAD CODESIZE 0x2E CALLVALUE CALLVALUE CALLDATALOAD CALLDATALOAD CALLVALUE CODESIZE CALLER CALLDATASIZE ADDRESS CALLDATACOPY BALANCE CALLER CODECOPY KECCAK256 COINBASE KECCAK256 BALANCE CALLDATASIZE ADDRESS KECCAK256 BALANCE CALLDATASIZE ADDRESS KECCAK256 ADDRESS KECCAK256 ADDRESS KECCAK256 BALANCE KECCAK256 CALLER CALLDATALOAD CALLDATALOAD 0x2E ADDRESS CALLDATACOPY CALLVALUE CALLER CALLDATALOAD CALLDATALOAD BALANCE CALLER CALLDATALOAD CALLVALUE CODESIZE CALLER BALANCE CALLER KECCAK256 CALLDATALOAD CALLVALUE CALLER 0x2E ORIGIN BALANCE CALLVALUE CALLVALUE CALLDATALOAD BALANCE CALLDATALOAD ORIGIN ORIGIN CALLDATALOAD CODESIZE ADDRESS CALLDATALOAD KECCAK256 0x4C KECCAK256 ORIGIN CALLDATACOPY CALLDATASIZE 0x2E CALLDATASIZE BALANCE BALANCE CALLDATALOAD CALLER ORIGIN CALLDATACOPY ADDRESS CALLER ORIGIN ORIGIN CALLVALUE CALLDATACOPY KECCAK256 CALLDATALOAD CALLDATALOAD CODESIZE 0x2E CODESIZE ORIGIN BALANCE CALLDATASIZE CALLDATACOPY CALLDATACOPY ORIGIN CODESIZE CALLER CODESIZE CALLDATACOPY ADDRESS CALLDATACOPY KECCAK256 COINBASE KECCAK256 ORIGIN CALLVALUE ADDRESS KECCAK256 ORIGIN CALLVALUE ADDRESS KECCAK256 ADDRESS KECCAK256 ADDRESS KECCAK256 ADDRESS KECCAK256 ORIGIN CODESIZE ORIGIN 0x2E CALLER CALLER CALLVALUE CALLER BALANCE CODECOPY CALLVALUE ORIGIN CALLVALUE ORIGIN CALLDATASIZE CODECOPY CODECOPY KECCAK256 CALLDATALOAD CODESIZE BALANCE 0x2E CALLDATASIZE CALLDATASIZE CODESIZE CALLER ORIGIN ORIGIN CALLDATALOAD CALLVALUE BALANCE ADDRESS CALLDATACOPY BALANCE KECCAK256 GAS 0x22 KECCAK256 PUSH7 0x696C6C3D22626C PUSH2 0x636B 0x22 KECCAK256 PUSH20 0x74726F6B653D22626C61636B22207374726F6B65 0x2D PUSH24 0x696474683D2231222F3E0A3C7061746820643D224D203131 CODECOPY 0x2E CALLDATASIZE CODESIZE CALLDATALOAD CODESIZE CODESIZE CALLDATACOPY CODESIZE CALLER CODESIZE CALLDATACOPY ADDRESS CALLDATACOPY CODESIZE KECCAK256 CALLDATALOAD CODECOPY ADDRESS 0x2E ADDRESS CALLER CALLDATASIZE BALANCE ORIGIN CODESIZE CODESIZE ADDRESS CALLDATASIZE CALLVALUE CALLDATALOAD BALANCE CALLVALUE KECCAK256 COINBASE KECCAK256 CALLVALUE ADDRESS ADDRESS KECCAK256 CALLVALUE ADDRESS ADDRESS KECCAK256 ADDRESS KECCAK256 ADDRESS KECCAK256 BALANCE KECCAK256 BALANCE BALANCE CALLER 0x2E CODECOPY ORIGIN CALLDATASIZE BALANCE ADDRESS CODECOPY CALLER CALLER BALANCE BALANCE ORIGIN BALANCE ORIGIN CALLDATACOPY KECCAK256 CALLDATALOAD CALLDATALOAD BALANCE 0x2E ORIGIN ADDRESS CALLDATASIZE CODESIZE CALLDATALOAD CALLDATASIZE BALANCE CALLER BALANCE CODESIZE ORIGIN CALLVALUE CALLER KECCAK256 0x4C KECCAK256 CALLER CALLVALUE 0x2E CALLER BALANCE BALANCE CALLER CALLER BALANCE BALANCE CODECOPY CALLDATACOPY CALLER CALLVALUE CALLDATALOAD CALLDATALOAD BALANCE KECCAK256 CALLDATALOAD CALLDATALOAD CODECOPY 0x2E ADDRESS CALLVALUE CODESIZE ORIGIN ORIGIN CALLDATACOPY CALLER CALLDATALOAD CODESIZE BALANCE CODESIZE CODECOPY CALLER KECCAK256 COINBASE KECCAK256 CALLVALUE CODESIZE ADDRESS KECCAK256 CALLVALUE CODESIZE ADDRESS KECCAK256 ADDRESS KECCAK256 ADDRESS KECCAK256 ADDRESS KECCAK256 CALLVALUE BALANCE 0x2E ORIGIN ORIGIN CALLER ADDRESS CALLDATASIZE CALLDATALOAD CALLVALUE ADDRESS CALLDATASIZE CALLVALUE CALLVALUE CODECOPY CALLER CODECOPY KECCAK256 CALLDATASIZE ADDRESS CALLDATALOAD 0x2E CALLDATASIZE CALLVALUE CALLER CALLER CALLDATALOAD CALLVALUE CALLDATALOAD CALLDATASIZE CALLDATACOPY CALLDATACOPY CALLVALUE BALANCE CODESIZE KECCAK256 GAS 0x22 KECCAK256 PUSH7 0x696C6C3D22626C PUSH2 0x636B 0x22 KECCAK256 PUSH20 0x74726F6B653D22626C61636B22207374726F6B65 0x2D PUSH24 0x696474683D2231222F3E0A3C7061746820643D224D203139 CODESIZE 0x2E BALANCE CALLVALUE CODESIZE CALLDATACOPY BALANCE ADDRESS ORIGIN CALLDATACOPY ADDRESS CODECOPY CALLDATASIZE CALLDATASIZE ORIGIN CALLDATASIZE KECCAK256 CALLDATALOAD CALLDATACOPY CALLVALUE 0x2E CALLVALUE ORIGIN CODESIZE CODECOPY ADDRESS CALLER ADDRESS CALLVALUE CALLDATALOAD BALANCE CALLDATASIZE BALANCE ORIGIN KECCAK256 COINBASE KECCAK256 CALLER ORIGIN ADDRESS KECCAK256 CALLER ORIGIN ADDRESS KECCAK256 ADDRESS KECCAK256 ADDRESS KECCAK256 BALANCE KECCAK256 BALANCE CODECOPY CALLER 0x2E CALLDATALOAD CALLVALUE ADDRESS CODESIZE CODESIZE CALLDATACOPY CALLVALUE CALLDATASIZE CALLVALUE CODESIZE CODECOPY CALLDATACOPY ADDRESS CALLER KECCAK256 CALLDATALOAD CALLVALUE CALLER 0x2E CALLER CALLDATASIZE CALLDATALOAD CALLVALUE CODESIZE CALLVALUE CODECOPY ADDRESS CALLDATALOAD CALLVALUE CALLDATALOAD CODECOPY CALLVALUE KECCAK256 0x4C KECCAK256 BALANCE BALANCE CALLER 0x2E CODECOPY ORIGIN CALLDATASIZE BALANCE ADDRESS CODECOPY CALLER CALLER BALANCE BALANCE ORIGIN BALANCE ORIGIN CALLDATACOPY KECCAK256 CALLDATALOAD CALLDATALOAD BALANCE 0x2E ORIGIN ADDRESS CALLDATASIZE CODESIZE CALLDATALOAD CALLDATASIZE BALANCE CALLER BALANCE CODESIZE ORIGIN CALLVALUE CALLER KECCAK256 COINBASE KECCAK256 CALLVALUE ADDRESS ADDRESS KECCAK256 CALLVALUE ADDRESS ADDRESS KECCAK256 ADDRESS KECCAK256 ADDRESS KECCAK256 ADDRESS KECCAK256 BALANCE BALANCE CODECOPY 0x2E CALLDATASIZE CODESIZE CALLDATALOAD CODESIZE CODESIZE CALLDATACOPY CODESIZE CALLER CODESIZE CALLDATACOPY ADDRESS CALLDATACOPY CODESIZE KECCAK256 CALLDATALOAD CODECOPY ADDRESS 0x2E ADDRESS CALLER CALLDATASIZE BALANCE ORIGIN CODESIZE CODESIZE ADDRESS CALLDATASIZE CALLVALUE CALLDATALOAD BALANCE CALLVALUE KECCAK256 GAS 0x22 KECCAK256 PUSH7 0x696C6C3D22626C PUSH2 0x636B 0x22 KECCAK256 PUSH20 0x74726F6B653D22626C61636B22207374726F6B65 0x2D PUSH24 0x696474683D2231222F3E0A3C7061746820643D224D203237 CALLDATASIZE 0x2E CALLDATASIZE BALANCE BALANCE CALLDATALOAD CALLER ORIGIN CALLDATACOPY ADDRESS CALLER ORIGIN ORIGIN CALLVALUE CALLDATACOPY KECCAK256 CALLDATALOAD CALLDATALOAD CODESIZE 0x2E CODESIZE ORIGIN BALANCE CALLDATASIZE CALLDATACOPY CALLDATACOPY ORIGIN CODESIZE CALLER CODESIZE CALLDATACOPY ADDRESS CODESIZE KECCAK256 COINBASE KECCAK256 ORIGIN CALLVALUE ADDRESS KECCAK256 ORIGIN CALLVALUE ADDRESS KECCAK256 ADDRESS KECCAK256 ADDRESS KECCAK256 BALANCE KECCAK256 ORIGIN CALLDATACOPY CALLER 0x2E BALANCE CALLDATALOAD CALLDATALOAD CALLDATASIZE CALLDATASIZE CALLDATALOAD CALLDATALOAD CODECOPY CODESIZE CALLDATASIZE CALLDATACOPY ORIGIN CALLDATACOPY KECCAK256 CALLDATALOAD CALLER CALLDATALOAD 0x2E CALLDATALOAD ORIGIN CALLVALUE BALANCE BALANCE CALLER CALLDATASIZE CALLDATACOPY CODECOPY ADDRESS CODECOPY CALLVALUE CALLDATASIZE KECCAK256 0x4C KECCAK256 BALANCE CODECOPY CALLER 0x2E CALLDATALOAD CALLVALUE ADDRESS CODESIZE CODESIZE CALLDATACOPY CALLVALUE CALLDATASIZE CALLVALUE CODESIZE CODECOPY CALLDATACOPY ADDRESS CALLER KECCAK256 CALLDATALOAD CALLVALUE CALLER 0x2E CALLER CALLDATASIZE CALLDATALOAD CALLVALUE CODESIZE CALLVALUE CODECOPY ADDRESS CALLDATALOAD CALLVALUE CALLDATALOAD CODECOPY CALLVALUE KECCAK256 COINBASE KECCAK256 CALLER ORIGIN ADDRESS KECCAK256 CALLER ORIGIN ADDRESS KECCAK256 ADDRESS KECCAK256 ADDRESS KECCAK256 ADDRESS KECCAK256 BALANCE CODECOPY CODESIZE 0x2E BALANCE CALLVALUE CODESIZE CALLDATACOPY BALANCE ADDRESS ORIGIN CALLDATACOPY ADDRESS CODECOPY CALLDATASIZE CALLDATASIZE ORIGIN CALLDATASIZE KECCAK256 CALLDATALOAD CALLDATACOPY CALLVALUE 0x2E CALLVALUE ORIGIN CODESIZE CODECOPY ADDRESS CALLER ADDRESS CALLVALUE CALLDATALOAD BALANCE CALLDATASIZE BALANCE ORIGIN KECCAK256 GAS 0x22 KECCAK256 PUSH7 0x696C6C3D22626C PUSH2 0x636B 0x22 KECCAK256 PUSH20 0x74726F6B653D22626C61636B22207374726F6B65 0x2D PUSH24 0x696474683D2231222F3E0A3C7061746820643D224D203335 CALLDATALOAD 0x2E ADDRESS CALLDATACOPY CALLVALUE CALLER CALLDATALOAD CALLDATALOAD BALANCE CALLER CALLDATALOAD CALLVALUE CODESIZE CALLER BALANCE CALLER KECCAK256 CALLDATALOAD CALLVALUE CALLER 0x2E ORIGIN BALANCE CALLVALUE CALLVALUE CALLDATALOAD BALANCE CALLDATALOAD ORIGIN ORIGIN CALLDATALOAD CODESIZE ADDRESS CALLDATASIZE KECCAK256 COINBASE KECCAK256 BALANCE CALLDATASIZE ADDRESS KECCAK256 BALANCE CALLDATASIZE ADDRESS KECCAK256 ADDRESS KECCAK256 ADDRESS KECCAK256 BALANCE KECCAK256 CALLER CALLDATALOAD ORIGIN 0x2E CALLDATACOPY CALLDATACOPY ADDRESS CALLVALUE CALLVALUE CALLER CALLDATACOPY CALLER ORIGIN CALLVALUE CALLVALUE CODESIZE CALLDATALOAD KECCAK256 CALLDATALOAD ORIGIN CALLDATACOPY 0x2E CALLDATASIZE CODESIZE ORIGIN CALLDATACOPY CALLVALUE ORIGIN CALLVALUE CALLDATALOAD ORIGIN CALLDATACOPY ORIGIN CODECOPY CALLDATACOPY KECCAK256 0x4C KECCAK256 ORIGIN CALLDATACOPY CALLER 0x2E BALANCE CALLDATALOAD CALLDATALOAD CALLDATASIZE CALLDATASIZE CALLDATALOAD CALLDATALOAD CODECOPY CODESIZE CALLDATASIZE CALLDATACOPY ORIGIN CALLDATACOPY KECCAK256 CALLDATALOAD CALLER CALLDATALOAD 0x2E CALLDATALOAD ORIGIN CALLVALUE BALANCE BALANCE CALLER CALLDATASIZE CALLDATACOPY CODECOPY ADDRESS CODECOPY CALLVALUE CALLDATASIZE KECCAK256 COINBASE KECCAK256 ORIGIN CALLVALUE ADDRESS KECCAK256 ORIGIN CALLVALUE ADDRESS KECCAK256 ADDRESS KECCAK256 ADDRESS KECCAK256 ADDRESS KECCAK256 ORIGIN CALLDATACOPY CALLDATASIZE 0x2E CALLDATASIZE BALANCE BALANCE CALLDATALOAD CALLER ORIGIN CALLDATACOPY ADDRESS CALLER ORIGIN ORIGIN CALLVALUE CALLDATACOPY KECCAK256 CALLDATALOAD CALLDATALOAD CODESIZE 0x2E CODESIZE ORIGIN BALANCE CALLDATASIZE CALLDATACOPY CALLDATACOPY ORIGIN CODESIZE CALLER CODESIZE CALLDATACOPY ADDRESS CODESIZE KECCAK256 GAS 0x22 KECCAK256 PUSH7 0x696C6C3D22626C PUSH2 0x636B 0x22 KECCAK256 PUSH20 0x74726F6B653D22626C61636B22207374726F6B65 0x2D PUSH24 0x696474683D2231222F3E0A3C7061746820643D224D203131 CALLER 0x2E CODECOPY ORIGIN CALLDATASIZE BALANCE ADDRESS CODECOPY CALLER CALLER BALANCE BALANCE ORIGIN BALANCE ORIGIN BALANCE KECCAK256 CALLDATALOAD CALLDATALOAD BALANCE 0x2E ORIGIN ADDRESS CALLDATASIZE CODESIZE CALLDATALOAD CALLDATASIZE BALANCE CALLER BALANCE CODESIZE ORIGIN CALLVALUE BALANCE KECCAK256 COINBASE KECCAK256 CALLVALUE ADDRESS ADDRESS KECCAK256 CALLVALUE ADDRESS ADDRESS KECCAK256 ADDRESS KECCAK256 ADDRESS KECCAK256 BALANCE KECCAK256 BALANCE BALANCE ORIGIN KECCAK256 CALLDATALOAD BALANCE BALANCE 0x2E CODECOPY CODECOPY CODECOPY CODECOPY CODECOPY CODECOPY CODECOPY CODECOPY CODECOPY CODECOPY CODECOPY CODECOPY CODECOPY KECCAK256 0x4C KECCAK256 CALLER ORIGIN KECCAK256 CALLDATALOAD BALANCE BALANCE 0x2E CODECOPY CODECOPY CODECOPY CODECOPY CODECOPY CODECOPY CODECOPY CODECOPY CODECOPY CODECOPY CODECOPY CODECOPY CODESIZE CALLER KECCAK256 COINBASE KECCAK256 CALLVALUE CODESIZE ADDRESS KECCAK256 CALLVALUE CODESIZE ADDRESS KECCAK256 ADDRESS KECCAK256 ADDRESS KECCAK256 ADDRESS KECCAK256 CALLER CALLVALUE 0x2E CALLER BALANCE BALANCE CALLER CALLER BALANCE BALANCE CODECOPY CALLDATACOPY CALLER CALLVALUE CALLDATALOAD CALLVALUE CALLDATALOAD KECCAK256 CALLDATALOAD CALLDATALOAD CODECOPY 0x2E ADDRESS CALLVALUE CODESIZE ORIGIN ORIGIN CALLDATACOPY CALLER CALLDATALOAD CODESIZE BALANCE CODESIZE CODECOPY KECCAK256 GAS 0x22 KECCAK256 PUSH7 0x696C6C3D22626C PUSH2 0x636B 0x22 KECCAK256 PUSH20 0x74726F6B653D22626C61636B22207374726F6B65 0x2D PUSH24 0x696474683D2231222F3E0A3C7061746820643D224D203139 CALLER 0x2E CALLDATALOAD CALLVALUE ADDRESS CODESIZE CODESIZE CALLDATACOPY CALLVALUE CALLDATASIZE CALLVALUE CODESIZE CODECOPY CALLDATASIZE CODECOPY CALLDATACOPY KECCAK256 CALLDATALOAD CALLVALUE CALLER 0x2E CALLER CALLDATASIZE CALLDATALOAD CALLVALUE CODESIZE CALLVALUE CODECOPY ADDRESS CALLDATALOAD CALLVALUE CALLDATALOAD CODECOPY CALLER KECCAK256 COINBASE KECCAK256 CALLER ORIGIN ADDRESS KECCAK256 CALLER ORIGIN ADDRESS KECCAK256 ADDRESS KECCAK256 ADDRESS KECCAK256 BALANCE KECCAK256 BALANCE CODECOPY ORIGIN KECCAK256 CALLDATALOAD BALANCE BALANCE 0x2E CODECOPY CODECOPY CODECOPY CODECOPY CODECOPY CODECOPY CODECOPY CODECOPY CODECOPY CODECOPY CODECOPY CODECOPY CODECOPY KECCAK256 0x4C KECCAK256 BALANCE BALANCE ORIGIN KECCAK256 CALLDATALOAD BALANCE BALANCE 0x2E CODECOPY CODECOPY CODECOPY CODECOPY CODECOPY CODECOPY CODECOPY CODECOPY CODECOPY CODECOPY CODECOPY CODECOPY CODECOPY KECCAK256 COINBASE KECCAK256 CALLVALUE ADDRESS ADDRESS KECCAK256 CALLVALUE ADDRESS ADDRESS KECCAK256 ADDRESS KECCAK256 ADDRESS KECCAK256 ADDRESS KECCAK256 BALANCE BALANCE CALLER 0x2E CODECOPY ORIGIN CALLDATASIZE BALANCE ADDRESS CODECOPY CALLER CALLER BALANCE BALANCE ORIGIN BALANCE ORIGIN BALANCE KECCAK256 CALLDATALOAD CALLDATALOAD BALANCE 0x2E ORIGIN ADDRESS CALLDATASIZE CODESIZE CALLDATALOAD CALLDATASIZE BALANCE CALLER BALANCE CODESIZE ORIGIN CALLVALUE BALANCE KECCAK256 GAS 0x22 KECCAK256 PUSH7 0x696C6C3D22626C PUSH2 0x636B 0x22 KECCAK256 PUSH20 0x74726F6B653D22626C61636B22207374726F6B65 0x2D PUSH24 0x696474683D2231222F3E0A3C7061746820643D224D203237 CALLER 0x2E BALANCE CALLDATALOAD CALLDATALOAD CALLDATASIZE CALLDATASIZE CALLDATALOAD CALLDATALOAD CODECOPY CODESIZE CALLDATASIZE CALLDATACOPY ORIGIN CALLDATACOPY KECCAK256 CALLDATALOAD CALLER CALLDATALOAD 0x2E CALLDATALOAD ORIGIN CALLVALUE BALANCE BALANCE CALLER CALLDATASIZE CALLDATACOPY CODECOPY ADDRESS CODECOPY CALLVALUE CALLDATALOAD KECCAK256 COINBASE KECCAK256 ORIGIN CALLVALUE ADDRESS KECCAK256 ORIGIN CALLVALUE ADDRESS KECCAK256 ADDRESS KECCAK256 ADDRESS KECCAK256 BALANCE KECCAK256 ORIGIN CALLDATACOPY ORIGIN KECCAK256 CALLDATALOAD BALANCE BALANCE 0x2E CODECOPY CODECOPY CODECOPY CODECOPY CODECOPY CODECOPY CODECOPY CODECOPY CODECOPY CODECOPY CODECOPY CODECOPY CODECOPY CALLVALUE KECCAK256 0x4C KECCAK256 BALANCE CODECOPY ORIGIN KECCAK256 CALLDATALOAD BALANCE BALANCE 0x2E CODECOPY CODECOPY CODECOPY CODECOPY CODECOPY CODECOPY CODECOPY CODECOPY CODECOPY CODECOPY CODECOPY CODECOPY CODECOPY KECCAK256 COINBASE KECCAK256 CALLER ORIGIN ADDRESS KECCAK256 CALLER ORIGIN ADDRESS KECCAK256 ADDRESS KECCAK256 ADDRESS KECCAK256 ADDRESS KECCAK256 BALANCE CODECOPY CALLER 0x2E CALLDATALOAD CALLVALUE ADDRESS CODESIZE CODESIZE CALLDATACOPY CALLVALUE CALLDATASIZE CALLVALUE CODESIZE CODECOPY CALLDATASIZE CODECOPY CALLDATACOPY KECCAK256 CALLDATALOAD CALLVALUE CALLER 0x2E CALLER CALLDATASIZE CALLDATALOAD CALLVALUE CODESIZE CALLVALUE CODECOPY ADDRESS CALLDATALOAD CALLVALUE CALLDATALOAD CODECOPY CALLER KECCAK256 GAS 0x22 KECCAK256 PUSH7 0x696C6C3D22626C PUSH2 0x636B 0x22 KECCAK256 PUSH20 0x74726F6B653D22626C61636B22207374726F6B65 0x2D PUSH24 0x696474683D2231222F3E0A3C7061746820643D224D203335 ORIGIN 0x2E CALLDATACOPY CALLDATACOPY ADDRESS CALLVALUE CALLVALUE CALLER CALLDATACOPY CALLER ORIGIN CALLVALUE CALLVALUE CODESIZE CALLDATALOAD KECCAK256 CALLDATALOAD ORIGIN CALLDATACOPY 0x2E CALLDATASIZE CODESIZE ORIGIN CALLDATACOPY CALLVALUE ORIGIN CALLVALUE CALLDATALOAD ORIGIN CALLDATACOPY ORIGIN CODECOPY CALLDATACOPY KECCAK256 COINBASE KECCAK256 BALANCE CALLDATASIZE ADDRESS KECCAK256 BALANCE CALLDATASIZE ADDRESS KECCAK256 ADDRESS KECCAK256 ADDRESS KECCAK256 BALANCE KECCAK256 CALLER CALLDATALOAD ORIGIN KECCAK256 CALLDATALOAD BALANCE BALANCE 0x2E CODECOPY CODECOPY CODECOPY CODECOPY CODECOPY CODECOPY CODECOPY CODECOPY CODECOPY CODECOPY CODECOPY CODECOPY CODECOPY CALLVALUE KECCAK256 0x4C KECCAK256 ORIGIN CALLDATACOPY ORIGIN KECCAK256 CALLDATALOAD BALANCE BALANCE 0x2E CODECOPY CODECOPY CODECOPY CODECOPY CODECOPY CODECOPY CODECOPY CODECOPY CODECOPY CODECOPY CODECOPY CODECOPY CODECOPY CALLVALUE KECCAK256 COINBASE KECCAK256 ORIGIN CALLVALUE ADDRESS KECCAK256 ORIGIN CALLVALUE ADDRESS KECCAK256 ADDRESS KECCAK256 ADDRESS KECCAK256 ADDRESS KECCAK256 ORIGIN CALLDATACOPY CALLER 0x2E BALANCE CALLDATALOAD CALLDATALOAD CALLDATASIZE CALLDATASIZE CALLDATALOAD CALLDATALOAD CODECOPY CODESIZE CALLDATASIZE CALLDATACOPY ORIGIN CALLDATACOPY KECCAK256 CALLDATALOAD CALLER CALLDATALOAD 0x2E CALLDATALOAD ORIGIN CALLVALUE BALANCE BALANCE CALLER CALLDATASIZE CALLDATACOPY CODECOPY ADDRESS CODECOPY CALLVALUE CALLDATALOAD KECCAK256 GAS 0x22 KECCAK256 PUSH7 0x696C6C3D22626C PUSH2 0x636B 0x22 KECCAK256 PUSH20 0x74726F6B653D22626C61636B22207374726F6B65 0x2D PUSH24 0x696474683D2231222F3E0A3C7061746820643D224D203131 ORIGIN KECCAK256 CALLDATALOAD BALANCE ORIGIN KECCAK256 COINBASE KECCAK256 CALLVALUE ADDRESS ADDRESS KECCAK256 CALLVALUE ADDRESS ADDRESS KECCAK256 ADDRESS KECCAK256 ADDRESS KECCAK256 BALANCE KECCAK256 BALANCE BALANCE CALLER 0x2E CODECOPY ORIGIN CALLDATASIZE BALANCE ADDRESS CODECOPY CALLER CALLER BALANCE BALANCE ORIGIN BALANCE ORIGIN BALANCE KECCAK256 CALLVALUE CALLDATACOPY ORIGIN 0x2E CALLDATACOPY CODECOPY CALLER BALANCE CALLVALUE CALLER CODESIZE CALLDATASIZE CODESIZE BALANCE CALLDATACOPY CALLDATALOAD CODESIZE KECCAK256 0x4C KECCAK256 CALLER CALLVALUE 0x2E CALLER BALANCE BALANCE CALLER CALLER BALANCE BALANCE CODECOPY CALLDATACOPY CALLER CALLVALUE CALLDATALOAD CALLVALUE CALLDATALOAD KECCAK256 CALLVALUE CALLDATASIZE CALLVALUE 0x2E CODECOPY CALLDATALOAD BALANCE CALLDATACOPY CALLDATACOPY ORIGIN CALLDATASIZE CALLVALUE BALANCE CODESIZE BALANCE ADDRESS CODECOPY KECCAK256 COINBASE KECCAK256 CALLVALUE CODESIZE ADDRESS KECCAK256 CALLVALUE CODESIZE ADDRESS KECCAK256 ADDRESS KECCAK256 ADDRESS KECCAK256 ADDRESS KECCAK256 CALLER ORIGIN KECCAK256 CALLDATALOAD BALANCE ORIGIN 0x2E ADDRESS ADDRESS ADDRESS ADDRESS ADDRESS ADDRESS ADDRESS ADDRESS ADDRESS ADDRESS ADDRESS ADDRESS BALANCE KECCAK256 GAS 0x22 KECCAK256 PUSH7 0x696C6C3D22626C PUSH2 0x636B 0x22 KECCAK256 PUSH20 0x74726F6B653D22626C61636B22207374726F6B65 0x2D PUSH24 0x696474683D2231222F3E0A3C7061746820643D224D203139 ORIGIN KECCAK256 CALLDATALOAD BALANCE ORIGIN KECCAK256 COINBASE KECCAK256 CALLER ORIGIN ADDRESS KECCAK256 CALLER ORIGIN ADDRESS KECCAK256 ADDRESS KECCAK256 ADDRESS KECCAK256 BALANCE KECCAK256 BALANCE CODECOPY CALLER 0x2E CALLDATALOAD CALLVALUE ADDRESS CODESIZE CODESIZE CALLDATACOPY CALLVALUE CALLDATASIZE CALLVALUE CODESIZE CODECOPY CALLDATASIZE CODECOPY CALLDATACOPY KECCAK256 CALLVALUE CODESIZE ADDRESS 0x2E CALLDATASIZE CALLER CALLVALUE CALLDATALOAD BALANCE CALLDATALOAD ADDRESS CODECOPY CALLVALUE CALLDATALOAD CALLVALUE ADDRESS CALLDATASIZE CALLER KECCAK256 0x4C KECCAK256 BALANCE BALANCE CALLER 0x2E CODECOPY ORIGIN CALLDATASIZE BALANCE ADDRESS CODECOPY CALLER CALLER BALANCE BALANCE ORIGIN BALANCE ORIGIN BALANCE KECCAK256 CALLVALUE CALLDATACOPY ORIGIN 0x2E CALLDATACOPY CODECOPY CALLER BALANCE CALLVALUE CALLER CODESIZE CALLDATASIZE CODESIZE BALANCE CALLDATACOPY CALLDATALOAD CODESIZE KECCAK256 COINBASE KECCAK256 CALLVALUE ADDRESS ADDRESS KECCAK256 CALLVALUE ADDRESS ADDRESS KECCAK256 ADDRESS KECCAK256 ADDRESS KECCAK256 ADDRESS KECCAK256 BALANCE BALANCE ORIGIN KECCAK256 CALLDATALOAD BALANCE ORIGIN KECCAK256 GAS 0x22 KECCAK256 PUSH7 0x696C6C3D22626C PUSH2 0x636B 0x22 KECCAK256 PUSH20 0x74726F6B653D22626C61636B22207374726F6B65 0x2D PUSH24 0x696474683D2231222F3E0A3C7061746820643D224D203237 ORIGIN KECCAK256 CALLDATALOAD BALANCE ORIGIN KECCAK256 COINBASE KECCAK256 ORIGIN CALLVALUE ADDRESS KECCAK256 ORIGIN CALLVALUE ADDRESS KECCAK256 ADDRESS KECCAK256 ADDRESS KECCAK256 BALANCE KECCAK256 ORIGIN CALLDATACOPY CALLER 0x2E BALANCE CALLDATALOAD CALLDATALOAD CALLDATASIZE CALLDATASIZE CALLDATALOAD CALLDATALOAD CODECOPY CODESIZE CALLDATASIZE CALLDATACOPY ORIGIN CALLDATACOPY KECCAK256 CALLVALUE CODESIZE CODESIZE 0x2E CALLVALUE CALLDATACOPY CALLDATALOAD CODESIZE CODESIZE CALLDATASIZE CALLER ORIGIN ADDRESS CODECOPY ADDRESS CALLDATALOAD CALLDATALOAD KECCAK256 0x4C KECCAK256 BALANCE CODECOPY CALLER 0x2E CALLDATALOAD CALLVALUE ADDRESS CODESIZE CODESIZE CALLDATACOPY CALLVALUE CALLDATASIZE CALLVALUE CODESIZE CODECOPY CALLDATASIZE CODECOPY CALLDATACOPY KECCAK256 CALLVALUE CODESIZE ADDRESS 0x2E CALLDATASIZE CALLER CALLVALUE CALLDATALOAD BALANCE CALLDATALOAD ADDRESS CODECOPY CALLVALUE CALLDATALOAD CALLVALUE ADDRESS CALLDATASIZE CALLER KECCAK256 COINBASE KECCAK256 CALLER ORIGIN ADDRESS KECCAK256 CALLER ORIGIN ADDRESS KECCAK256 ADDRESS KECCAK256 ADDRESS KECCAK256 ADDRESS KECCAK256 BALANCE CODECOPY ORIGIN KECCAK256 CALLDATALOAD BALANCE ORIGIN KECCAK256 GAS 0x22 KECCAK256 PUSH7 0x696C6C3D22626C PUSH2 0x636B 0x22 KECCAK256 PUSH20 0x74726F6B653D22626C61636B22207374726F6B65 0x2D PUSH24 0x696474683D2231222F3E0A3C7061746820643D224D203335 ORIGIN KECCAK256 CALLDATALOAD BALANCE ORIGIN KECCAK256 COINBASE KECCAK256 BALANCE CALLDATASIZE ADDRESS KECCAK256 BALANCE CALLDATASIZE ADDRESS KECCAK256 ADDRESS KECCAK256 ADDRESS KECCAK256 BALANCE KECCAK256 CALLER CALLDATALOAD ORIGIN 0x2E CALLDATACOPY CALLDATACOPY ADDRESS CALLVALUE CALLVALUE CALLER CALLDATACOPY CALLER ORIGIN CALLVALUE CALLVALUE CODESIZE CALLDATALOAD KECCAK256 CALLVALUE CODECOPY CALLDATASIZE 0x2E CALLER BALANCE CALLDATACOPY ORIGIN CALLDATALOAD CALLDATACOPY CALLDATALOAD CALLVALUE CALLDATACOPY ORIGIN CALLDATACOPY ADDRESS CALLER KECCAK256 0x4C KECCAK256 ORIGIN CALLDATACOPY CALLER 0x2E BALANCE CALLDATALOAD CALLDATALOAD CALLDATASIZE CALLDATASIZE CALLDATALOAD CALLDATALOAD CODECOPY CODESIZE CALLDATASIZE CALLDATACOPY ORIGIN CALLDATACOPY KECCAK256 CALLVALUE CODESIZE CODESIZE 0x2E CALLVALUE CALLDATACOPY CALLDATALOAD CODESIZE CODESIZE CALLDATASIZE CALLER ORIGIN ADDRESS CODECOPY ADDRESS CALLDATALOAD CALLDATALOAD KECCAK256 COINBASE KECCAK256 ORIGIN CALLVALUE ADDRESS KECCAK256 ORIGIN CALLVALUE ADDRESS KECCAK256 ADDRESS KECCAK256 ADDRESS KECCAK256 ADDRESS KECCAK256 ORIGIN CALLDATACOPY ORIGIN KECCAK256 CALLDATALOAD BALANCE ORIGIN KECCAK256 GAS 0x22 KECCAK256 PUSH7 0x696C6C3D22626C PUSH2 0x636B 0x22 KECCAK256 PUSH20 0x74726F6B653D22626C61636B22207374726F6B65 0x2D PUSH24 0x696474683D2231222F3E0A3C7061746820643D224D203131 CALLER 0x2E CODECOPY ORIGIN CALLDATASIZE BALANCE ADDRESS CODECOPY CALLER CALLER BALANCE BALANCE ORIGIN BALANCE ORIGIN BALANCE KECCAK256 CALLVALUE CALLDATACOPY ORIGIN 0x2E CALLDATACOPY CODECOPY CALLER BALANCE CALLVALUE CALLER CODESIZE CALLDATASIZE CODESIZE BALANCE CALLDATACOPY CALLDATALOAD CODECOPY CALLDATALOAD KECCAK256 COINBASE KECCAK256 CALLVALUE ADDRESS ADDRESS KECCAK256 CALLVALUE ADDRESS ADDRESS KECCAK256 ADDRESS KECCAK256 ADDRESS KECCAK256 BALANCE KECCAK256 BALANCE BALANCE CODECOPY 0x2E CALLDATASIZE CODESIZE CALLDATALOAD CODESIZE CODESIZE CALLDATACOPY CODESIZE CALLER CODESIZE CALLDATACOPY ADDRESS CALLDATACOPY CODESIZE KECCAK256 CALLVALUE CALLER CALLER 0x2E CODECOPY CALLDATASIZE CALLER CODESIZE CALLDATACOPY BALANCE BALANCE CODECOPY CALLER CALLDATALOAD CALLVALUE CODESIZE CODESIZE KECCAK256 0x4C KECCAK256 CALLVALUE BALANCE 0x2E ORIGIN ORIGIN CALLER ADDRESS CALLDATASIZE CALLDATALOAD CALLVALUE ADDRESS CALLDATASIZE CALLVALUE CALLVALUE CODECOPY CALLER CALLVALUE KECCAK256 CALLVALUE BALANCE CODESIZE 0x2E CALLER CALLDATALOAD CALLDATASIZE CALLDATASIZE CALLVALUE CALLDATALOAD CALLVALUE CALLER ORIGIN ORIGIN CALLDATALOAD CODESIZE CALLDATASIZE KECCAK256 COINBASE KECCAK256 CALLVALUE CODESIZE ADDRESS KECCAK256 CALLVALUE CODESIZE ADDRESS KECCAK256 ADDRESS KECCAK256 ADDRESS KECCAK256 ADDRESS KECCAK256 CALLER CALLVALUE 0x2E CALLER BALANCE BALANCE CALLER CALLER BALANCE BALANCE CODECOPY CALLDATACOPY CALLER CALLVALUE CALLDATALOAD CALLVALUE CALLDATALOAD KECCAK256 CALLVALUE CALLDATASIZE CALLVALUE 0x2E CODECOPY CALLDATALOAD BALANCE CALLDATACOPY CALLDATACOPY ORIGIN CALLDATASIZE CALLVALUE BALANCE CODESIZE BALANCE BALANCE BALANCE CALLDATALOAD KECCAK256 GAS 0x22 KECCAK256 PUSH7 0x696C6C3D22626C PUSH2 0x636B 0x22 KECCAK256 PUSH20 0x74726F6B653D22626C61636B22207374726F6B65 0x2D PUSH24 0x696474683D2231222F3E0A3C7061746820643D224D203139 CALLER 0x2E CALLDATALOAD CALLVALUE ADDRESS CODESIZE CODESIZE CALLDATACOPY CALLVALUE CALLDATASIZE CALLVALUE CODESIZE CODECOPY CALLDATASIZE CODECOPY CALLDATACOPY KECCAK256 CALLVALUE CODESIZE ADDRESS 0x2E CALLDATASIZE CALLER CALLVALUE CALLDATALOAD BALANCE CALLDATALOAD ADDRESS CODECOPY CALLVALUE CALLDATALOAD CALLVALUE ADDRESS CALLDATACOPY CALLDATALOAD KECCAK256 COINBASE KECCAK256 CALLER ORIGIN ADDRESS KECCAK256 CALLER ORIGIN ADDRESS KECCAK256 ADDRESS KECCAK256 ADDRESS KECCAK256 BALANCE KECCAK256 BALANCE CODECOPY CODESIZE 0x2E BALANCE CALLVALUE CODESIZE CALLDATACOPY BALANCE ADDRESS ORIGIN CALLDATACOPY ADDRESS CODECOPY CALLDATASIZE CALLDATASIZE ORIGIN KECCAK256 CALLVALUE CALLVALUE CODECOPY 0x2E CALLDATALOAD CALLDATACOPY BALANCE ADDRESS CODECOPY CALLDATASIZE CODECOPY CALLDATALOAD CALLVALUE CODESIZE CALLER CODECOPY ADDRESS CALLDATALOAD KECCAK256 0x4C KECCAK256 BALANCE BALANCE CODECOPY 0x2E CALLDATASIZE CODESIZE CALLDATALOAD CODESIZE CODESIZE CALLDATACOPY CODESIZE CALLER CODESIZE CALLDATACOPY ADDRESS CALLDATACOPY CODESIZE KECCAK256 CALLVALUE CALLER CALLER 0x2E CODECOPY CALLDATASIZE CALLER CODESIZE CALLDATACOPY BALANCE BALANCE CODECOPY CALLER CALLDATALOAD CALLVALUE CODESIZE CODESIZE KECCAK256 COINBASE KECCAK256 CALLVALUE ADDRESS ADDRESS KECCAK256 CALLVALUE ADDRESS ADDRESS KECCAK256 ADDRESS KECCAK256 ADDRESS KECCAK256 ADDRESS KECCAK256 BALANCE BALANCE CALLER 0x2E CODECOPY ORIGIN CALLDATASIZE BALANCE ADDRESS CODECOPY CALLER CALLER BALANCE BALANCE ORIGIN BALANCE ORIGIN BALANCE KECCAK256 CALLVALUE CALLDATACOPY ORIGIN 0x2E CALLDATACOPY CODECOPY CALLER BALANCE CALLVALUE CALLER CODESIZE CALLDATASIZE CODESIZE BALANCE CALLDATACOPY CALLDATALOAD CODECOPY CALLDATALOAD KECCAK256 GAS 0x22 KECCAK256 PUSH7 0x696C6C3D22626C PUSH2 0x636B 0x22 KECCAK256 PUSH20 0x74726F6B653D22626C61636B22207374726F6B65 0x2D PUSH24 0x696474683D2231222F3E0A3C7061746820643D224D203237 CALLER 0x2E BALANCE CALLDATALOAD CALLDATALOAD CALLDATASIZE CALLDATASIZE CALLDATALOAD CALLDATALOAD CODECOPY CODESIZE CALLDATASIZE CALLDATACOPY ORIGIN CALLDATACOPY KECCAK256 CALLVALUE CODESIZE CODESIZE 0x2E CALLVALUE CALLDATACOPY CALLDATALOAD CODESIZE CODESIZE CALLDATASIZE CALLER ORIGIN ADDRESS CODECOPY ADDRESS CALLDATALOAD CALLDATALOAD CALLVALUE KECCAK256 COINBASE KECCAK256 ORIGIN CALLVALUE ADDRESS KECCAK256 ORIGIN CALLVALUE ADDRESS KECCAK256 ADDRESS KECCAK256 ADDRESS KECCAK256 BALANCE KECCAK256 ORIGIN CALLDATACOPY CALLDATASIZE 0x2E CALLDATASIZE BALANCE BALANCE CALLDATALOAD CALLER ORIGIN CALLDATACOPY ADDRESS CALLER ORIGIN ORIGIN CALLVALUE CALLDATASIZE CALLDATACOPY KECCAK256 CALLVALUE CALLDATASIZE CALLDATALOAD 0x2E BALANCE CALLDATACOPY CODESIZE CALLER ORIGIN ORIGIN CALLDATACOPY BALANCE CALLDATASIZE BALANCE ORIGIN CODECOPY CALLER KECCAK256 0x4C KECCAK256 BALANCE CODECOPY CODESIZE 0x2E BALANCE CALLVALUE CODESIZE CALLDATACOPY BALANCE ADDRESS ORIGIN CALLDATACOPY ADDRESS CODECOPY CALLDATASIZE CALLDATASIZE ORIGIN KECCAK256 CALLVALUE CALLVALUE CODECOPY 0x2E CALLDATALOAD CALLDATACOPY BALANCE ADDRESS CODECOPY CALLDATASIZE CODECOPY CALLDATALOAD CALLVALUE CODESIZE CALLER CODECOPY ADDRESS CALLDATALOAD KECCAK256 COINBASE KECCAK256 CALLER ORIGIN ADDRESS KECCAK256 CALLER ORIGIN ADDRESS KECCAK256 ADDRESS KECCAK256 ADDRESS KECCAK256 ADDRESS KECCAK256 BALANCE CODECOPY CALLER 0x2E CALLDATALOAD CALLVALUE ADDRESS CODESIZE CODESIZE CALLDATACOPY CALLVALUE CALLDATASIZE CALLVALUE CODESIZE CODECOPY CALLDATASIZE CODECOPY CALLDATACOPY KECCAK256 CALLVALUE CODESIZE ADDRESS 0x2E CALLDATASIZE CALLER CALLVALUE CALLDATALOAD BALANCE CALLDATALOAD ADDRESS CODECOPY CALLVALUE CALLDATALOAD CALLVALUE ADDRESS CALLDATACOPY CALLDATALOAD KECCAK256 GAS 0x22 KECCAK256 PUSH7 0x696C6C3D22626C PUSH2 0x636B 0x22 KECCAK256 PUSH20 0x74726F6B653D22626C61636B22207374726F6B65 0x2D PUSH24 0x696474683D2231222F3E0A3C7061746820643D224D203335 ORIGIN 0x2E CALLDATACOPY CALLDATACOPY ADDRESS CALLVALUE CALLVALUE CALLER CALLDATACOPY CALLER ORIGIN CALLVALUE CALLVALUE CODESIZE CALLDATALOAD KECCAK256 CALLVALUE CODECOPY CALLDATASIZE 0x2E CALLER BALANCE CALLDATACOPY ORIGIN CALLDATALOAD CALLDATACOPY CALLDATALOAD CALLVALUE CALLDATACOPY ORIGIN CALLDATACOPY ADDRESS CALLVALUE KECCAK256 COINBASE KECCAK256 BALANCE CALLDATASIZE ADDRESS KECCAK256 BALANCE CALLDATASIZE ADDRESS KECCAK256 ADDRESS KECCAK256 ADDRESS KECCAK256 BALANCE KECCAK256 CALLER CALLDATALOAD CALLDATALOAD 0x2E ADDRESS CALLDATACOPY CALLVALUE CALLER CALLDATALOAD CALLDATALOAD BALANCE CALLER CALLDATALOAD CALLVALUE CODESIZE CALLER BALANCE KECCAK256 CALLVALUE CODESIZE ADDRESS 0x2E CALLDATACOPY CODESIZE CALLDATALOAD CALLDATALOAD CALLVALUE CODESIZE CALLVALUE CALLDATACOPY CALLDATACOPY CALLVALUE BALANCE CODECOPY CALLDATALOAD KECCAK256 0x4C KECCAK256 ORIGIN CALLDATACOPY CALLDATASIZE 0x2E CALLDATASIZE BALANCE BALANCE CALLDATALOAD CALLER ORIGIN CALLDATACOPY ADDRESS CALLER ORIGIN ORIGIN CALLVALUE CALLDATASIZE CALLDATACOPY KECCAK256 CALLVALUE CALLDATASIZE CALLDATALOAD 0x2E BALANCE CALLDATACOPY CODESIZE CALLER ORIGIN ORIGIN CALLDATACOPY BALANCE CALLDATASIZE BALANCE ORIGIN CODECOPY CALLER KECCAK256 COINBASE KECCAK256 ORIGIN CALLVALUE ADDRESS KECCAK256 ORIGIN CALLVALUE ADDRESS KECCAK256 ADDRESS KECCAK256 ADDRESS KECCAK256 ADDRESS KECCAK256 ORIGIN CALLDATACOPY CALLER 0x2E BALANCE CALLDATALOAD CALLDATALOAD CALLDATASIZE CALLDATASIZE CALLDATALOAD CALLDATALOAD CODECOPY CODESIZE CALLDATASIZE CALLDATACOPY ORIGIN CALLDATACOPY KECCAK256 CALLVALUE CODESIZE CODESIZE 0x2E CALLVALUE CALLDATACOPY CALLDATALOAD CODESIZE CODESIZE CALLDATASIZE CALLER ORIGIN ADDRESS CODECOPY ADDRESS CALLDATALOAD CALLDATALOAD CALLVALUE KECCAK256 GAS 0x22 KECCAK256 PUSH7 0x696C6C3D22626C PUSH2 0x636B 0x22 KECCAK256 PUSH20 0x74726F6B653D22626C61636B22207374726F6B65 0x2D PUSH24 0x696474683D2231222F3E0A3C7061746820643D224D203131 CODECOPY 0x2E CALLDATASIZE CODESIZE CALLDATALOAD CODESIZE CODESIZE CALLDATACOPY CODESIZE CALLER CODESIZE CALLDATACOPY ADDRESS CALLDATACOPY CODESIZE KECCAK256 CALLVALUE CALLER CALLER 0x2E CODECOPY CALLDATASIZE CALLER CODESIZE CALLDATACOPY BALANCE BALANCE CODECOPY CALLER CALLDATALOAD CALLVALUE CODESIZE CALLDATASIZE CALLVALUE KECCAK256 COINBASE KECCAK256 CALLVALUE ADDRESS ADDRESS KECCAK256 CALLVALUE ADDRESS ADDRESS KECCAK256 ADDRESS KECCAK256 ADDRESS KECCAK256 BALANCE KECCAK256 BALANCE ORIGIN CODECOPY 0x2E ORIGIN ORIGIN CALLER CODESIZE CALLDATASIZE CALLDATALOAD CALLDATACOPY ADDRESS CALLDATACOPY BALANCE BALANCE CALLDATASIZE CALLDATALOAD KECCAK256 CALLER CODECOPY CALLDATALOAD 0x2E CODESIZE CODESIZE CALLDATASIZE BALANCE ORIGIN CODECOPY ADDRESS CODECOPY CODESIZE ORIGIN BALANCE CALLVALUE CODECOPY CALLDATALOAD KECCAK256 0x4C KECCAK256 CALLDATALOAD ORIGIN 0x2E CALLDATASIZE CALLDATASIZE CODESIZE CALLDATASIZE CALLER CODESIZE CODESIZE CALLVALUE CODESIZE CALLDATALOAD CALLER CODECOPY CALLDATACOPY CODESIZE CALLDATASIZE KECCAK256 CALLER CALLDATACOPY ORIGIN 0x2E CALLDATASIZE CALLDATASIZE CALLER CALLER CALLDATALOAD CALLVALUE CODECOPY BALANCE CALLDATACOPY CODESIZE CALLDATALOAD CODESIZE KECCAK256 COINBASE KECCAK256 CALLVALUE CODESIZE ADDRESS KECCAK256 CALLVALUE CODESIZE ADDRESS KECCAK256 ADDRESS KECCAK256 ADDRESS KECCAK256 ADDRESS KECCAK256 CALLVALUE BALANCE 0x2E ORIGIN ORIGIN CALLER ADDRESS CALLDATASIZE CALLDATALOAD CALLVALUE ADDRESS CALLDATASIZE CALLVALUE CALLVALUE CODECOPY CALLER CODECOPY KECCAK256 CALLVALUE BALANCE CODESIZE 0x2E CALLER CALLDATALOAD CALLDATASIZE CALLDATASIZE CALLVALUE CALLDATALOAD CALLVALUE CALLER ORIGIN ORIGIN CALLDATALOAD CODESIZE CALLVALUE KECCAK256 GAS 0x22 KECCAK256 PUSH7 0x696C6C3D22626C PUSH2 0x636B 0x22 KECCAK256 PUSH20 0x74726F6B653D22626C61636B22207374726F6B65 0x2D PUSH24 0x696474683D2231222F3E0A3C7061746820643D224D203139 CODESIZE 0x2E BALANCE CALLVALUE CODESIZE CALLDATACOPY BALANCE ADDRESS ORIGIN CALLDATACOPY ADDRESS CODECOPY CALLDATASIZE CALLDATASIZE ORIGIN CALLDATASIZE KECCAK256 CALLVALUE CALLVALUE CODECOPY 0x2E CALLDATALOAD CALLDATACOPY BALANCE ADDRESS CODECOPY CALLDATASIZE CODECOPY CALLDATALOAD CALLVALUE CODESIZE CALLER CODESIZE CODECOPY CALLVALUE KECCAK256 COINBASE KECCAK256 CALLER ORIGIN ADDRESS KECCAK256 CALLER ORIGIN ADDRESS KECCAK256 ADDRESS KECCAK256 ADDRESS KECCAK256 BALANCE KECCAK256 ORIGIN ADDRESS CALLDATALOAD 0x2E CALLDATACOPY CALLDATACOPY CODECOPY ADDRESS CODECOPY ORIGIN CALLDATALOAD CALLDATASIZE CALLDATALOAD CALLDATASIZE CODECOPY CALLER ORIGIN KECCAK256 CALLVALUE BALANCE CODECOPY 0x2E BALANCE ADDRESS CODESIZE CODECOPY ADDRESS CALLER ORIGIN CALLDATACOPY CODESIZE CALLDATALOAD CALLDATACOPY ORIGIN KECCAK256 0x4C KECCAK256 BALANCE ORIGIN CODECOPY 0x2E ORIGIN ORIGIN CALLER CODESIZE CALLDATASIZE CALLDATALOAD CALLDATACOPY ADDRESS CALLDATACOPY BALANCE BALANCE CALLDATASIZE CALLDATALOAD KECCAK256 CALLER CODECOPY CALLDATALOAD 0x2E CODESIZE CODESIZE CALLDATASIZE BALANCE ORIGIN CODECOPY ADDRESS CODECOPY CODESIZE ORIGIN BALANCE CALLVALUE CODECOPY CALLDATALOAD KECCAK256 COINBASE KECCAK256 CALLVALUE ADDRESS ADDRESS KECCAK256 CALLVALUE ADDRESS ADDRESS KECCAK256 ADDRESS KECCAK256 ADDRESS KECCAK256 ADDRESS KECCAK256 BALANCE BALANCE CODECOPY 0x2E CALLDATASIZE CODESIZE CALLDATALOAD CODESIZE CODESIZE CALLDATACOPY CODESIZE CALLER CODESIZE CALLDATACOPY ADDRESS CALLDATACOPY CODESIZE KECCAK256 CALLVALUE CALLER CALLER 0x2E CODECOPY CALLDATASIZE CALLER CODESIZE CALLDATACOPY BALANCE BALANCE CODECOPY CALLER CALLDATALOAD CALLVALUE CODESIZE CALLDATASIZE CALLVALUE KECCAK256 GAS 0x22 KECCAK256 PUSH7 0x696C6C3D22626C PUSH2 0x636B 0x22 KECCAK256 PUSH20 0x74726F6B653D22626C61636B22207374726F6B65 0x2D PUSH24 0x696474683D2231222F3E0A3C7061746820643D224D203237 CALLDATASIZE 0x2E CALLDATASIZE BALANCE BALANCE CALLDATALOAD CALLER ORIGIN CALLDATACOPY ADDRESS CALLER ORIGIN ORIGIN CALLVALUE CALLDATACOPY KECCAK256 CALLVALUE CALLDATASIZE CALLDATALOAD 0x2E BALANCE CALLDATACOPY CODESIZE CALLER ORIGIN ORIGIN CALLDATACOPY BALANCE CALLDATASIZE BALANCE ORIGIN CODECOPY ORIGIN KECCAK256 COINBASE KECCAK256 ORIGIN CALLVALUE ADDRESS KECCAK256 ORIGIN CALLVALUE ADDRESS KECCAK256 ADDRESS KECCAK256 ADDRESS KECCAK256 BALANCE KECCAK256 ORIGIN CODESIZE ORIGIN 0x2E CALLER CALLER CALLVALUE CALLER BALANCE CODECOPY CALLVALUE ORIGIN CALLVALUE ORIGIN CALLDATASIZE CODECOPY CODECOPY KECCAK256 CALLVALUE CALLVALUE ORIGIN 0x2E CALLER CALLER BALANCE CALLDATASIZE CALLDATACOPY CALLDATACOPY CALLVALUE CALLDATALOAD CODESIZE CODECOPY ORIGIN CODECOPY KECCAK256 0x4C KECCAK256 ORIGIN ADDRESS CALLDATALOAD 0x2E CALLDATACOPY CALLDATACOPY CODECOPY ADDRESS CODECOPY ORIGIN CALLDATALOAD CALLDATASIZE CALLDATALOAD CALLDATASIZE CODECOPY CALLER ORIGIN KECCAK256 CALLVALUE BALANCE CODECOPY 0x2E BALANCE ADDRESS CODESIZE CODECOPY ADDRESS CALLER ORIGIN CALLDATACOPY CODESIZE CALLDATALOAD CALLDATACOPY ORIGIN KECCAK256 COINBASE KECCAK256 CALLER ORIGIN ADDRESS KECCAK256 CALLER ORIGIN ADDRESS KECCAK256 ADDRESS KECCAK256 ADDRESS KECCAK256 ADDRESS KECCAK256 BALANCE CODECOPY CODESIZE 0x2E BALANCE CALLVALUE CODESIZE CALLDATACOPY BALANCE ADDRESS ORIGIN CALLDATACOPY ADDRESS CODECOPY CALLDATASIZE CALLDATASIZE ORIGIN CALLDATASIZE KECCAK256 CALLVALUE CALLVALUE CODECOPY 0x2E CALLDATALOAD CALLDATACOPY BALANCE ADDRESS CODECOPY CALLDATASIZE CODECOPY CALLDATALOAD CALLVALUE CODESIZE CALLER CODESIZE CODECOPY CALLVALUE KECCAK256 GAS 0x22 KECCAK256 PUSH7 0x696C6C3D22626C PUSH2 0x636B 0x22 KECCAK256 PUSH20 0x74726F6B653D22626C61636B22207374726F6B65 0x2D PUSH24 0x696474683D2231222F3E0A3C7061746820643D224D203335 CALLDATALOAD 0x2E ADDRESS CALLDATACOPY CALLVALUE CALLER CALLDATALOAD CALLDATALOAD BALANCE CALLER CALLDATALOAD CALLVALUE CODESIZE CALLER BALANCE CALLER KECCAK256 CALLVALUE CODESIZE ADDRESS 0x2E CALLDATACOPY CODESIZE CALLDATALOAD CALLDATALOAD CALLVALUE CODESIZE CALLVALUE CALLDATACOPY CALLDATACOPY CALLVALUE BALANCE CODECOPY CALLVALUE CALLDATACOPY KECCAK256 COINBASE KECCAK256 BALANCE CALLDATASIZE ADDRESS KECCAK256 BALANCE CALLDATASIZE ADDRESS KECCAK256 ADDRESS KECCAK256 ADDRESS KECCAK256 BALANCE KECCAK256 CALLER CALLDATALOAD CODESIZE 0x2E CODESIZE CODESIZE CODECOPY CALLDATALOAD CALLVALUE CALLDATASIZE ORIGIN CODESIZE ORIGIN CODESIZE CALLVALUE CALLDATASIZE CALLDATASIZE KECCAK256 CALLVALUE CALLDATASIZE CALLDATALOAD 0x2E CALLDATALOAD CALLDATALOAD CALLVALUE CALLVALUE CALLDATALOAD BALANCE CALLDATASIZE CALLER CODECOPY ORIGIN CODESIZE CALLDATASIZE KECCAK256 0x4C KECCAK256 ORIGIN CODESIZE ORIGIN 0x2E CALLER CALLER CALLVALUE CALLER BALANCE CODECOPY CALLVALUE ORIGIN CALLVALUE ORIGIN CALLDATASIZE CODECOPY CODECOPY KECCAK256 CALLVALUE CALLVALUE ORIGIN 0x2E CALLER CALLER BALANCE CALLDATASIZE CALLDATACOPY CALLDATACOPY CALLVALUE CALLDATALOAD CODESIZE CODECOPY ORIGIN CODECOPY KECCAK256 COINBASE KECCAK256 ORIGIN CALLVALUE ADDRESS KECCAK256 ORIGIN CALLVALUE ADDRESS KECCAK256 ADDRESS KECCAK256 ADDRESS KECCAK256 ADDRESS KECCAK256 ORIGIN CALLDATACOPY CALLDATASIZE 0x2E CALLDATASIZE BALANCE BALANCE CALLDATALOAD CALLER ORIGIN CALLDATACOPY ADDRESS CALLER ORIGIN ORIGIN CALLVALUE CALLDATACOPY KECCAK256 CALLVALUE CALLDATASIZE CALLDATALOAD 0x2E BALANCE CALLDATACOPY CODESIZE CALLER ORIGIN ORIGIN CALLDATACOPY BALANCE CALLDATASIZE BALANCE ORIGIN CODECOPY ORIGIN KECCAK256 GAS 0x22 KECCAK256 PUSH7 0x696C6C3D22626C PUSH2 0x636B 0x22 KECCAK256 PUSH20 0x74726F6B653D22626C61636B22207374726F6B65 0x2D PUSH24 0x696474683D2231222F3E0A3C7061746820643D224D203132 CODECOPY 0x2E ORIGIN ORIGIN CALLER CODESIZE CALLDATASIZE CALLDATALOAD CALLDATACOPY ADDRESS CALLDATACOPY BALANCE BALANCE CALLDATASIZE CALLVALUE CALLER KECCAK256 CALLER CODECOPY CALLDATALOAD 0x2E CODESIZE CODESIZE CALLDATASIZE BALANCE ORIGIN CODECOPY ADDRESS CODECOPY CODESIZE ORIGIN BALANCE CALLDATALOAD BALANCE KECCAK256 COINBASE KECCAK256 CALLVALUE ADDRESS ADDRESS KECCAK256 CALLVALUE ADDRESS ADDRESS KECCAK256 ADDRESS KECCAK256 ADDRESS KECCAK256 BALANCE KECCAK256 BALANCE CALLVALUE ORIGIN 0x2E CALLVALUE CALLVALUE CODESIZE BALANCE CODESIZE CALLDATASIZE CODECOPY CODECOPY CALLDATALOAD CALLVALUE CODESIZE CALLDATALOAD CALLER KECCAK256 CALLER CALLDATALOAD CODESIZE 0x2E CODECOPY ORIGIN CALLDATASIZE CALLDATASIZE ORIGIN CALLDATACOPY ADDRESS CALLDATALOAD CALLER CODECOPY CALLDATASIZE CALLVALUE BALANCE KECCAK256 0x4C KECCAK256 CALLDATASIZE CODESIZE 0x2E CALLDATALOAD CALLER CALLDATACOPY CODESIZE ORIGIN CALLVALUE CALLER CODECOPY CALLVALUE CALLDATALOAD CODESIZE ORIGIN CALLER CALLVALUE KECCAK256 CALLER ORIGIN CODESIZE 0x2E CALLER BALANCE BALANCE CODECOPY CALLDATALOAD ORIGIN CALLVALUE CALLDATASIZE CALLVALUE CALLDATACOPY CALLDATALOAD CALLDATASIZE CODECOPY KECCAK256 COINBASE KECCAK256 CALLVALUE CODESIZE ADDRESS KECCAK256 CALLVALUE CODESIZE ADDRESS KECCAK256 ADDRESS KECCAK256 ADDRESS KECCAK256 ADDRESS KECCAK256 CALLDATALOAD ORIGIN 0x2E CALLDATASIZE CALLDATASIZE CODESIZE CALLDATASIZE CALLER CODESIZE CODESIZE CALLVALUE CODESIZE CALLDATALOAD CALLER CODECOPY CALLDATACOPY CALLER KECCAK256 CALLER CALLDATACOPY ORIGIN 0x2E CALLDATASIZE CALLDATASIZE CALLER CALLER CALLDATALOAD CALLVALUE CODECOPY BALANCE CALLDATACOPY CODESIZE CALLDATALOAD CODESIZE BALANCE CALLDATASIZE KECCAK256 GAS 0x22 KECCAK256 PUSH7 0x696C6C3D22626C PUSH2 0x636B 0x22 KECCAK256 PUSH20 0x74726F6B653D22626C61636B22207374726F6B65 0x2D PUSH24 0x696474683D2231222F3E0A3C7061746820643D224D203230 CALLDATALOAD 0x2E CALLDATACOPY CALLDATACOPY CODECOPY ADDRESS CODECOPY ORIGIN CALLDATALOAD CALLDATASIZE CALLDATALOAD CALLDATASIZE CODECOPY CALLER BALANCE CALLER KECCAK256 CALLVALUE BALANCE CODECOPY 0x2E BALANCE ADDRESS CODESIZE CODECOPY ADDRESS CALLER ORIGIN CALLDATACOPY CODESIZE CALLDATALOAD CALLDATACOPY ORIGIN BALANCE CALLVALUE KECCAK256 COINBASE KECCAK256 CALLER ORIGIN ADDRESS KECCAK256 CALLER ORIGIN ADDRESS KECCAK256 ADDRESS KECCAK256 ADDRESS KECCAK256 BALANCE KECCAK256 ORIGIN BALANCE CALLDATASIZE 0x2E CALLER CALLDATALOAD CODESIZE CALLDATALOAD CALLVALUE CODECOPY CALLDATALOAD CODECOPY CALLDATASIZE CALLER CODESIZE CODESIZE ORIGIN CALLER KECCAK256 CALLER CODESIZE CODECOPY 0x2E CALLDATALOAD CALLVALUE BALANCE CALLER ADDRESS BALANCE CALLDATASIZE CALLVALUE CALLER BALANCE CALLDATACOPY BALANCE CALLER KECCAK256 0x4C KECCAK256 BALANCE CALLVALUE ORIGIN 0x2E CALLVALUE CALLVALUE CODESIZE BALANCE CODESIZE CALLDATASIZE CODECOPY CODECOPY CALLDATALOAD CALLVALUE CODESIZE CALLDATALOAD CALLER KECCAK256 CALLER CALLDATALOAD CODESIZE 0x2E CODECOPY ORIGIN CALLDATASIZE CALLDATASIZE ORIGIN CALLDATACOPY ADDRESS CALLDATALOAD CALLER CODECOPY CALLDATASIZE CALLVALUE BALANCE KECCAK256 COINBASE KECCAK256 CALLVALUE ADDRESS ADDRESS KECCAK256 CALLVALUE ADDRESS ADDRESS KECCAK256 ADDRESS KECCAK256 ADDRESS KECCAK256 ADDRESS KECCAK256 BALANCE ORIGIN CODECOPY 0x2E ORIGIN ORIGIN CALLER CODESIZE CALLDATASIZE CALLDATALOAD CALLDATACOPY ADDRESS CALLDATACOPY BALANCE BALANCE CALLDATASIZE CALLVALUE CALLER KECCAK256 CALLER CODECOPY CALLDATALOAD 0x2E CODESIZE CODESIZE CALLDATASIZE BALANCE ORIGIN CODECOPY ADDRESS CODECOPY CODESIZE ORIGIN BALANCE CALLDATALOAD BALANCE KECCAK256 GAS 0x22 KECCAK256 PUSH7 0x696C6C3D22626C PUSH2 0x636B 0x22 KECCAK256 PUSH20 0x74726F6B653D22626C61636B22207374726F6B65 0x2D PUSH24 0x696474683D2231222F3E0A3C7061746820643D224D203238 ORIGIN 0x2E CALLER CALLER CALLVALUE CALLER BALANCE CODECOPY CALLVALUE ORIGIN CALLVALUE ORIGIN CALLDATASIZE CODECOPY CODECOPY KECCAK256 CALLVALUE CALLVALUE ORIGIN 0x2E CALLER CALLER BALANCE CALLDATASIZE CALLDATACOPY CALLDATACOPY CALLVALUE CALLDATALOAD CODESIZE CODECOPY ORIGIN CODECOPY BALANCE KECCAK256 COINBASE KECCAK256 ORIGIN CALLVALUE ADDRESS KECCAK256 ORIGIN CALLVALUE ADDRESS KECCAK256 ADDRESS KECCAK256 ADDRESS KECCAK256 BALANCE KECCAK256 ORIGIN CODECOPY ADDRESS 0x2E ORIGIN CALLDATASIZE CODESIZE CODECOPY BALANCE ORIGIN BALANCE CODECOPY CALLDATACOPY ORIGIN CODECOPY BALANCE ORIGIN KECCAK256 CALLVALUE ORIGIN ADDRESS 0x2E BALANCE CALLDATALOAD CALLDATALOAD CODECOPY CALLDATACOPY CALLDATASIZE ORIGIN CALLER ORIGIN CALLER CALLDATACOPY CODESIZE CALLVALUE CALLDATASIZE KECCAK256 0x4C KECCAK256 ORIGIN BALANCE CALLDATASIZE 0x2E CALLER CALLDATALOAD CODESIZE CALLDATALOAD CALLVALUE CODECOPY CALLDATALOAD CODECOPY CALLDATASIZE CALLER CODESIZE CODESIZE ORIGIN CALLER KECCAK256 CALLER CODESIZE CODECOPY 0x2E CALLDATALOAD CALLVALUE BALANCE CALLER ADDRESS BALANCE CALLDATASIZE CALLVALUE CALLER BALANCE CALLDATACOPY BALANCE CALLER KECCAK256 COINBASE KECCAK256 CALLER ORIGIN ADDRESS KECCAK256 CALLER ORIGIN ADDRESS KECCAK256 ADDRESS KECCAK256 ADDRESS KECCAK256 ADDRESS KECCAK256 ORIGIN ADDRESS CALLDATALOAD 0x2E CALLDATACOPY CALLDATACOPY CODECOPY ADDRESS CODECOPY ORIGIN CALLDATALOAD CALLDATASIZE CALLDATALOAD CALLDATASIZE CODECOPY CALLER BALANCE CALLER KECCAK256 CALLVALUE BALANCE CODECOPY 0x2E BALANCE "
				},
				"gasEstimates": {
					"creation": {
						"codeDepositCost": "66600",
						"executionCost": "infinite",
						"totalCost": "infinite"
					},
					"external": {
						"getPointer()": "infinite",
						"ptr()": "infinite"
					}
				},
				"methodIdentifiers": {
					"getPointer()": "a32a3ee4",
					"ptr()": "2810f972"
				}
			},
			"storageLayout": {
				"storage": [],
				"types": null
			},
			"userdoc": {
				"kind": "user",
				"methods": {},
				"version": 1
			}
		}
	}
}