{
	"contracts/HashJingCore.sol": {
		"HashJingCore": {
			"abi": [
				{
					"inputs": [
						{
							"internalType": "address",
							"name": "_svgStorage",
							"type": "address"
						}
					],
					"stateMutability": "nonpayable",
					"type": "constructor"
				},
				{
					"inputs": [
						{
							"internalType": "uint256",
							"name": "_size",
							"type": "uint256"
						},
						{
							"internalType": "uint256",
							"name": "_start",
							"type": "uint256"
						},
						{
							"internalType": "uint256",
							"name": "_end",
							"type": "uint256"
						}
					],
					"name": "InvalidCodeAtRange",
					"type": "error"
				},
				{
					"inputs": [],
					"name": "getMandalaSVG",
					"outputs": [
						{
							"internalType": "string",
							"name": "",
							"type": "string"
						}
					],
					"stateMutability": "view",
					"type": "function"
				},
				{
					"inputs": [],
					"name": "svgStorage",
					"outputs": [
						{
							"internalType": "contract IHashJingSVGStorage",
							"name": "",
							"type": "address"
						}
					],
					"stateMutability": "view",
					"type": "function"
				},
				{
					"inputs": [
						{
							"internalType": "uint256",
							"name": "",
							"type": "uint256"
						}
					],
					"name": "tokenURI",
					"outputs": [
						{
							"internalType": "string",
							"name": "",
							"type": "string"
						}
					],
					"stateMutability": "view",
					"type": "function"
				}
			],
			"devdoc": {
				"kind": "dev",
				"methods": {},
				"version": 1
			},
			"evm": {
				"assembly": "    /* \"contracts/HashJingCore.sol\":342:947  contract HashJingCore {... */\n  mstore(0x40, 0x80)\n    /* \"contracts/HashJingCore.sol\":414:509  constructor(address _svgStorage) {... */\n  callvalue\n  dup1\n  iszero\n  tag_1\n  jumpi\n  0x00\n  dup1\n  revert\ntag_1:\n  pop\n  mload(0x40)\n  sub(codesize, bytecodeSize)\n  dup1\n  bytecodeSize\n  dup4\n  codecopy\n  dup2\n  dup2\n  add\n  0x40\n  mstore\n  dup2\n  add\n  swap1\n  tag_2\n  swap2\n  swap1\n  tag_3\n  jump\t// in\ntag_2:\n    /* \"contracts/HashJingCore.sol\":490:501  _svgStorage */\n  dup1\n    /* \"contracts/HashJingCore.sol\":457:467  svgStorage */\n  0x00\n  dup1\n    /* \"contracts/HashJingCore.sol\":457:502  svgStorage = IHashJingSVGStorage(_svgStorage) */\n  0x0100\n  exp\n  dup2\n  sload\n  dup2\n  0xffffffffffffffffffffffffffffffffffffffff\n  mul\n  not\n  and\n  swap1\n  dup4\n  0xffffffffffffffffffffffffffffffffffffffff\n  and\n  mul\n  or\n  swap1\n  sstore\n  pop\n    /* \"contracts/HashJingCore.sol\":414:509  constructor(address _svgStorage) {... */\n  pop\n    /* \"contracts/HashJingCore.sol\":342:947  contract HashJingCore {... */\n  jump(tag_6)\n    /* \"#utility.yul\":88:205   */\ntag_8:\n    /* \"#utility.yul\":197:198   */\n  0x00\n    /* \"#utility.yul\":194:195   */\n  dup1\n    /* \"#utility.yul\":187:199   */\n  revert\n    /* \"#utility.yul\":334:460   */\ntag_10:\n    /* \"#utility.yul\":371:378   */\n  0x00\n    /* \"#utility.yul\":411:453   */\n  0xffffffffffffffffffffffffffffffffffffffff\n    /* \"#utility.yul\":404:409   */\n  dup3\n    /* \"#utility.yul\":400:454   */\n  and\n    /* \"#utility.yul\":389:454   */\n  swap1\n  pop\n    /* \"#utility.yul\":334:460   */\n  swap2\n  swap1\n  pop\n  jump\t// out\n    /* \"#utility.yul\":466:562   */\ntag_11:\n    /* \"#utility.yul\":503:510   */\n  0x00\n    /* \"#utility.yul\":532:556   */\n  tag_20\n    /* \"#utility.yul\":550:555   */\n  dup3\n    /* \"#utility.yul\":532:556   */\n  tag_10\n  jump\t// in\ntag_20:\n    /* \"#utility.yul\":521:556   */\n  swap1\n  pop\n    /* \"#utility.yul\":466:562   */\n  swap2\n  swap1\n  pop\n  jump\t// out\n    /* \"#utility.yul\":568:690   */\ntag_12:\n    /* \"#utility.yul\":641:665   */\n  tag_22\n    /* \"#utility.yul\":659:664   */\n  dup2\n    /* \"#utility.yul\":641:665   */\n  tag_11\n  jump\t// in\ntag_22:\n    /* \"#utility.yul\":634:639   */\n  dup2\n    /* \"#utility.yul\":631:666   */\n  eq\n    /* \"#utility.yul\":621:684   */\n  tag_23\n  jumpi\n    /* \"#utility.yul\":680:681   */\n  0x00\n    /* \"#utility.yul\":677:678   */\n  dup1\n    /* \"#utility.yul\":670:682   */\n  revert\n    /* \"#utility.yul\":621:684   */\ntag_23:\n    /* \"#utility.yul\":568:690   */\n  pop\n  jump\t// out\n    /* \"#utility.yul\":696:839   */\ntag_13:\n    /* \"#utility.yul\":753:758   */\n  0x00\n    /* \"#utility.yul\":784:790   */\n  dup2\n    /* \"#utility.yul\":778:791   */\n  mload\n    /* \"#utility.yul\":769:791   */\n  swap1\n  pop\n    /* \"#utility.yul\":800:833   */\n  tag_25\n    /* \"#utility.yul\":827:832   */\n  dup2\n    /* \"#utility.yul\":800:833   */\n  tag_12\n  jump\t// in\ntag_25:\n    /* \"#utility.yul\":696:839   */\n  swap3\n  swap2\n  pop\n  pop\n  jump\t// out\n    /* \"#utility.yul\":845:1196   */\ntag_3:\n    /* \"#utility.yul\":915:921   */\n  0x00\n    /* \"#utility.yul\":964:966   */\n  0x20\n    /* \"#utility.yul\":952:961   */\n  dup3\n    /* \"#utility.yul\":943:950   */\n  dup5\n    /* \"#utility.yul\":939:962   */\n  sub\n    /* \"#utility.yul\":935:967   */\n  slt\n    /* \"#utility.yul\":932:1051   */\n  iszero\n  tag_27\n  jumpi\n    /* \"#utility.yul\":970:1049   */\n  tag_28\n  tag_8\n  jump\t// in\ntag_28:\n    /* \"#utility.yul\":932:1051   */\ntag_27:\n    /* \"#utility.yul\":1090:1091   */\n  0x00\n    /* \"#utility.yul\":1115:1179   */\n  tag_29\n    /* \"#utility.yul\":1171:1178   */\n  dup5\n    /* \"#utility.yul\":1162:1168   */\n  dup3\n    /* \"#utility.yul\":1151:1160   */\n  dup6\n    /* \"#utility.yul\":1147:1169   */\n  add\n    /* \"#utility.yul\":1115:1179   */\n  tag_13\n  jump\t// in\ntag_29:\n    /* \"#utility.yul\":1105:1179   */\n  swap2\n  pop\n    /* \"#utility.yul\":1061:1189   */\n  pop\n    /* \"#utility.yul\":845:1196   */\n  swap3\n  swap2\n  pop\n  pop\n  jump\t// out\n    /* \"contracts/HashJingCore.sol\":342:947  contract HashJingCore {... */\ntag_6:\n  dataSize(sub_0)\n  dup1\n  dataOffset(sub_0)\n  0x00\n  codecopy\n  0x00\n  return\nstop\n\nsub_0: assembly {\n        /* \"contracts/HashJingCore.sol\":342:947  contract HashJingCore {... */\n      mstore(0x40, 0x80)\n      callvalue\n      dup1\n      iszero\n      tag_1\n      jumpi\n      0x00\n      dup1\n      revert\n    tag_1:\n      pop\n      jumpi(tag_2, lt(calldatasize, 0x04))\n      shr(0xe0, calldataload(0x00))\n      dup1\n      0x7fa6a685\n      eq\n      tag_3\n      jumpi\n      dup1\n      0xb684b32c\n      eq\n      tag_4\n      jumpi\n      dup1\n      0xc87b56dd\n      eq\n      tag_5\n      jumpi\n    tag_2:\n      0x00\n      dup1\n      revert\n        /* \"contracts/HashJingCore.sol\":370:407  IHashJingSVGStorage public svgStorage */\n    tag_3:\n      tag_6\n      tag_7\n      jump\t// in\n    tag_6:\n      mload(0x40)\n      tag_8\n      swap2\n      swap1\n      tag_9\n      jump\t// in\n    tag_8:\n      mload(0x40)\n      dup1\n      swap2\n      sub\n      swap1\n      return\n        /* \"contracts/HashJingCore.sol\":515:683  function getMandalaSVG() public view returns (string memory) {... */\n    tag_4:\n      tag_10\n      tag_11\n      jump\t// in\n    tag_10:\n      mload(0x40)\n      tag_12\n      swap2\n      swap1\n      tag_13\n      jump\t// in\n    tag_12:\n      mload(0x40)\n      dup1\n      swap2\n      sub\n      swap1\n      return\n        /* \"contracts/HashJingCore.sol\":689:945  function tokenURI(uint256) external view returns (string memory) {... */\n    tag_5:\n      tag_14\n      0x04\n      dup1\n      calldatasize\n      sub\n      dup2\n      add\n      swap1\n      tag_15\n      swap2\n      swap1\n      tag_16\n      jump\t// in\n    tag_15:\n      tag_17\n      jump\t// in\n    tag_14:\n      mload(0x40)\n      tag_18\n      swap2\n      swap1\n      tag_13\n      jump\t// in\n    tag_18:\n      mload(0x40)\n      dup1\n      swap2\n      sub\n      swap1\n      return\n        /* \"contracts/HashJingCore.sol\":370:407  IHashJingSVGStorage public svgStorage */\n    tag_7:\n      0x00\n      dup1\n      sload\n      swap1\n      0x0100\n      exp\n      swap1\n      div\n      0xffffffffffffffffffffffffffffffffffffffff\n      and\n      dup2\n      jump\t// out\n        /* \"contracts/HashJingCore.sol\":515:683  function getMandalaSVG() public view returns (string memory) {... */\n    tag_11:\n        /* \"contracts/HashJingCore.sol\":561:574  string memory */\n      0x60\n        /* \"contracts/HashJingCore.sol\":586:601  address pointer */\n      0x00\n        /* \"contracts/HashJingCore.sol\":604:614  svgStorage */\n      dup1\n      0x00\n      swap1\n      sload\n      swap1\n      0x0100\n      exp\n      swap1\n      div\n      0xffffffffffffffffffffffffffffffffffffffff\n      and\n        /* \"contracts/HashJingCore.sol\":604:628  svgStorage.getSVGPointer */\n      0xffffffffffffffffffffffffffffffffffffffff\n      and\n      0xc42cad21\n        /* \"contracts/HashJingCore.sol\":604:630  svgStorage.getSVGPointer() */\n      mload(0x40)\n      dup2\n      0xffffffff\n      and\n      0xe0\n      shl\n      dup2\n      mstore\n      0x04\n      add\n      0x20\n      mload(0x40)\n      dup1\n      dup4\n      sub\n      dup2\n      dup7\n      gas\n      staticcall\n      iszero\n      dup1\n      iszero\n      tag_21\n      jumpi\n      returndatasize\n      0x00\n      dup1\n      returndatacopy\n      revert(0x00, returndatasize)\n    tag_21:\n      pop\n      pop\n      pop\n      pop\n      mload(0x40)\n      returndatasize\n      not(0x1f)\n      0x1f\n      dup3\n      add\n      and\n      dup3\n      add\n      dup1\n      0x40\n      mstore\n      pop\n      dup2\n      add\n      swap1\n      tag_22\n      swap2\n      swap1\n      tag_23\n      jump\t// in\n    tag_22:\n        /* \"contracts/HashJingCore.sol\":586:630  address pointer = svgStorage.getSVGPointer() */\n      swap1\n      pop\n        /* \"contracts/HashJingCore.sol\":654:675  SSTORE2.read(pointer) */\n      tag_24\n        /* \"contracts/HashJingCore.sol\":667:674  pointer */\n      dup2\n        /* \"contracts/HashJingCore.sol\":654:666  SSTORE2.read */\n      tag_25\n        /* \"contracts/HashJingCore.sol\":654:675  SSTORE2.read(pointer) */\n      jump\t// in\n    tag_24:\n        /* \"contracts/HashJingCore.sol\":640:676  return string(SSTORE2.read(pointer)) */\n      swap2\n      pop\n      pop\n        /* \"contracts/HashJingCore.sol\":515:683  function getMandalaSVG() public view returns (string memory) {... */\n      swap1\n      jump\t// out\n        /* \"contracts/HashJingCore.sol\":689:945  function tokenURI(uint256) external view returns (string memory) {... */\n    tag_17:\n        /* \"contracts/HashJingCore.sol\":739:752  string memory */\n      0x60\n        /* \"contracts/HashJingCore.sol\":764:781  string memory svg */\n      0x00\n        /* \"contracts/HashJingCore.sol\":784:799  getMandalaSVG() */\n      tag_27\n        /* \"contracts/HashJingCore.sol\":784:797  getMandalaSVG */\n      tag_11\n        /* \"contracts/HashJingCore.sol\":784:799  getMandalaSVG() */\n      jump\t// in\n    tag_27:\n        /* \"contracts/HashJingCore.sol\":764:799  string memory svg = getMandalaSVG() */\n      swap1\n      pop\n        /* \"contracts/HashJingCore.sol\":809:830  string memory encoded */\n      0x00\n        /* \"contracts/HashJingCore.sol\":833:858  Base64.encode(bytes(svg)) */\n      tag_28\n        /* \"contracts/HashJingCore.sol\":853:856  svg */\n      dup3\n        /* \"contracts/HashJingCore.sol\":833:846  Base64.encode */\n      tag_29\n        /* \"contracts/HashJingCore.sol\":833:858  Base64.encode(bytes(svg)) */\n      jump\t// in\n    tag_28:\n        /* \"contracts/HashJingCore.sol\":809:858  string memory encoded = Base64.encode(bytes(svg)) */\n      swap1\n      pop\n        /* \"contracts/HashJingCore.sol\":929:936  encoded */\n      dup1\n        /* \"contracts/HashJingCore.sol\":882:937  abi.encodePacked(\"data:image/svg+xml;base64,\", encoded) */\n      add(0x20, mload(0x40))\n      tag_30\n      swap2\n      swap1\n      tag_31\n      jump\t// in\n    tag_30:\n      mload(0x40)\n      0x20\n      dup2\n      dup4\n      sub\n      sub\n      dup2\n      mstore\n      swap1\n      0x40\n      mstore\n        /* \"contracts/HashJingCore.sol\":868:938  return string(abi.encodePacked(\"data:image/svg+xml;base64,\", encoded)) */\n      swap3\n      pop\n      pop\n      pop\n        /* \"contracts/HashJingCore.sol\":689:945  function tokenURI(uint256) external view returns (string memory) {... */\n      swap2\n      swap1\n      pop\n      jump\t// out\n        /* \"https://github.com/0xsequence/sstore2/blob/master/contracts/SSTORE2.sol\":1297:1431  function read(address _pointer) internal view returns (bytes memory) {... */\n    tag_25:\n        /* \"https://github.com/0xsequence/sstore2/blob/master/contracts/SSTORE2.sol\":1352:1364  bytes memory */\n      0x60\n        /* \"https://github.com/0xsequence/sstore2/blob/master/contracts/SSTORE2.sol\":1379:1426  Bytecode.codeAt(_pointer, 1, type(uint256).max) */\n      tag_33\n        /* \"https://github.com/0xsequence/sstore2/blob/master/contracts/SSTORE2.sol\":1395:1403  _pointer */\n      dup3\n        /* \"https://github.com/0xsequence/sstore2/blob/master/contracts/SSTORE2.sol\":1405:1406  1 */\n      0x01\n        /* \"https://github.com/0xsequence/sstore2/blob/master/contracts/SSTORE2.sol\":1408:1425  type(uint256).max */\n      0xffffffffffffffffffffffffffffffffffffffffffffffffffffffffffffffff\n        /* \"https://github.com/0xsequence/sstore2/blob/master/contracts/SSTORE2.sol\":1379:1394  Bytecode.codeAt */\n      tag_34\n        /* \"https://github.com/0xsequence/sstore2/blob/master/contracts/SSTORE2.sol\":1379:1426  Bytecode.codeAt(_pointer, 1, type(uint256).max) */\n      jump\t// in\n    tag_33:\n        /* \"https://github.com/0xsequence/sstore2/blob/master/contracts/SSTORE2.sol\":1372:1426  return Bytecode.codeAt(_pointer, 1, type(uint256).max) */\n      swap1\n      pop\n        /* \"https://github.com/0xsequence/sstore2/blob/master/contracts/SSTORE2.sol\":1297:1431  function read(address _pointer) internal view returns (bytes memory) {... */\n      swap2\n      swap1\n      pop\n      jump\t// out\n        /* \"https://github.com/OpenZeppelin/openzeppelin-contracts/blob/master/contracts/utils/Base64.sol\":663:787  function encode(bytes memory data) internal pure returns (string memory) {... */\n    tag_29:\n        /* \"https://github.com/OpenZeppelin/openzeppelin-contracts/blob/master/contracts/utils/Base64.sol\":721:734  string memory */\n      0x60\n        /* \"https://github.com/OpenZeppelin/openzeppelin-contracts/blob/master/contracts/utils/Base64.sol\":753:780  _encode(data, _TABLE, true) */\n      tag_36\n        /* \"https://github.com/OpenZeppelin/openzeppelin-contracts/blob/master/contracts/utils/Base64.sol\":761:765  data */\n      dup3\n        /* \"https://github.com/OpenZeppelin/openzeppelin-contracts/blob/master/contracts/utils/Base64.sol\":767:773  _TABLE */\n      mload(0x40)\n      dup1\n      0x60\n      add\n      0x40\n      mstore\n      dup1\n      0x40\n      dup2\n      mstore\n      0x20\n      add\n      data_84d8a590de33e00cbdc16e1f28c3506f5ec15c599fab9a6a4bcd575cc2f110ce\n      0x40\n      swap2\n      codecopy\n        /* \"https://github.com/OpenZeppelin/openzeppelin-contracts/blob/master/contracts/utils/Base64.sol\":775:779  true */\n      0x01\n        /* \"https://github.com/OpenZeppelin/openzeppelin-contracts/blob/master/contracts/utils/Base64.sol\":753:760  _encode */\n      tag_37\n        /* \"https://github.com/OpenZeppelin/openzeppelin-contracts/blob/master/contracts/utils/Base64.sol\":753:780  _encode(data, _TABLE, true) */\n      jump\t// in\n    tag_36:\n        /* \"https://github.com/OpenZeppelin/openzeppelin-contracts/blob/master/contracts/utils/Base64.sol\":746:780  return _encode(data, _TABLE, true) */\n      swap1\n      pop\n        /* \"https://github.com/OpenZeppelin/openzeppelin-contracts/blob/master/contracts/utils/Base64.sol\":663:787  function encode(bytes memory data) internal pure returns (string memory) {... */\n      swap2\n      swap1\n      pop\n      jump\t// out\n        /* \"https://github.com/0xsequence/sstore2/blob/master/contracts/utils/Bytecode.sol\":1793:2739  function codeAt(address _addr, uint256 _start, uint256 _end) internal view returns (bytes memory oCode) {... */\n    tag_34:\n        /* \"https://github.com/0xsequence/sstore2/blob/master/contracts/utils/Bytecode.sol\":1877:1895  bytes memory oCode */\n      0x60\n        /* \"https://github.com/0xsequence/sstore2/blob/master/contracts/utils/Bytecode.sol\":1903:1916  uint256 csize */\n      0x00\n        /* \"https://github.com/0xsequence/sstore2/blob/master/contracts/utils/Bytecode.sol\":1919:1934  codeSize(_addr) */\n      tag_39\n        /* \"https://github.com/0xsequence/sstore2/blob/master/contracts/utils/Bytecode.sol\":1928:1933  _addr */\n      dup6\n        /* \"https://github.com/0xsequence/sstore2/blob/master/contracts/utils/Bytecode.sol\":1919:1927  codeSize */\n      tag_40\n        /* \"https://github.com/0xsequence/sstore2/blob/master/contracts/utils/Bytecode.sol\":1919:1934  codeSize(_addr) */\n      jump\t// in\n    tag_39:\n        /* \"https://github.com/0xsequence/sstore2/blob/master/contracts/utils/Bytecode.sol\":1903:1934  uint256 csize = codeSize(_addr) */\n      swap1\n      pop\n        /* \"https://github.com/0xsequence/sstore2/blob/master/contracts/utils/Bytecode.sol\":1953:1954  0 */\n      0x00\n        /* \"https://github.com/0xsequence/sstore2/blob/master/contracts/utils/Bytecode.sol\":1944:1949  csize */\n      dup2\n        /* \"https://github.com/0xsequence/sstore2/blob/master/contracts/utils/Bytecode.sol\":1944:1954  csize == 0 */\n      sub\n        /* \"https://github.com/0xsequence/sstore2/blob/master/contracts/utils/Bytecode.sol\":1940:1972  if (csize == 0) return bytes(\"\") */\n      tag_41\n      jumpi\n        /* \"https://github.com/0xsequence/sstore2/blob/master/contracts/utils/Bytecode.sol\":1963:1972  bytes(\"\") */\n      mload(0x40)\n      dup1\n      0x20\n      add\n      0x40\n      mstore\n      dup1\n      0x00\n      dup2\n      mstore\n      pop\n        /* \"https://github.com/0xsequence/sstore2/blob/master/contracts/utils/Bytecode.sol\":1956:1972  return bytes(\"\") */\n      swap2\n      pop\n      pop\n      jump(tag_38)\n        /* \"https://github.com/0xsequence/sstore2/blob/master/contracts/utils/Bytecode.sol\":1940:1972  if (csize == 0) return bytes(\"\") */\n    tag_41:\n        /* \"https://github.com/0xsequence/sstore2/blob/master/contracts/utils/Bytecode.sol\":1992:1997  csize */\n      dup1\n        /* \"https://github.com/0xsequence/sstore2/blob/master/contracts/utils/Bytecode.sol\":1983:1989  _start */\n      dup5\n        /* \"https://github.com/0xsequence/sstore2/blob/master/contracts/utils/Bytecode.sol\":1983:1997  _start > csize */\n      gt\n        /* \"https://github.com/0xsequence/sstore2/blob/master/contracts/utils/Bytecode.sol\":1979:2015  if (_start > csize) return bytes(\"\") */\n      iszero\n      tag_42\n      jumpi\n        /* \"https://github.com/0xsequence/sstore2/blob/master/contracts/utils/Bytecode.sol\":2006:2015  bytes(\"\") */\n      mload(0x40)\n      dup1\n      0x20\n      add\n      0x40\n      mstore\n      dup1\n      0x00\n      dup2\n      mstore\n      pop\n        /* \"https://github.com/0xsequence/sstore2/blob/master/contracts/utils/Bytecode.sol\":1999:2015  return bytes(\"\") */\n      swap2\n      pop\n      pop\n      jump(tag_38)\n        /* \"https://github.com/0xsequence/sstore2/blob/master/contracts/utils/Bytecode.sol\":1979:2015  if (_start > csize) return bytes(\"\") */\n    tag_42:\n        /* \"https://github.com/0xsequence/sstore2/blob/master/contracts/utils/Bytecode.sol\":2032:2038  _start */\n      dup4\n        /* \"https://github.com/0xsequence/sstore2/blob/master/contracts/utils/Bytecode.sol\":2025:2029  _end */\n      dup4\n        /* \"https://github.com/0xsequence/sstore2/blob/master/contracts/utils/Bytecode.sol\":2025:2038  _end < _start */\n      lt\n        /* \"https://github.com/0xsequence/sstore2/blob/master/contracts/utils/Bytecode.sol\":2021:2086  if (_end < _start) revert InvalidCodeAtRange(csize, _start, _end) */\n      iszero\n      tag_43\n      jumpi\n        /* \"https://github.com/0xsequence/sstore2/blob/master/contracts/utils/Bytecode.sol\":2066:2071  csize */\n      dup1\n        /* \"https://github.com/0xsequence/sstore2/blob/master/contracts/utils/Bytecode.sol\":2073:2079  _start */\n      dup5\n        /* \"https://github.com/0xsequence/sstore2/blob/master/contracts/utils/Bytecode.sol\":2081:2085  _end */\n      dup5\n        /* \"https://github.com/0xsequence/sstore2/blob/master/contracts/utils/Bytecode.sol\":2047:2086  InvalidCodeAtRange(csize, _start, _end) */\n      mload(0x40)\n      0x2c4a89fa00000000000000000000000000000000000000000000000000000000\n      dup2\n      mstore\n      0x04\n      add\n      tag_44\n      swap4\n      swap3\n      swap2\n      swap1\n      tag_45\n      jump\t// in\n    tag_44:\n      mload(0x40)\n      dup1\n      swap2\n      sub\n      swap1\n      revert\n        /* \"https://github.com/0xsequence/sstore2/blob/master/contracts/utils/Bytecode.sol\":2021:2086  if (_end < _start) revert InvalidCodeAtRange(csize, _start, _end) */\n    tag_43:\n        /* \"https://github.com/0xsequence/sstore2/blob/master/contracts/utils/Bytecode.sol\":2112:2127  uint256 reqSize */\n      0x00\n        /* \"https://github.com/0xsequence/sstore2/blob/master/contracts/utils/Bytecode.sol\":2137:2143  _start */\n      dup5\n        /* \"https://github.com/0xsequence/sstore2/blob/master/contracts/utils/Bytecode.sol\":2130:2134  _end */\n      dup5\n        /* \"https://github.com/0xsequence/sstore2/blob/master/contracts/utils/Bytecode.sol\":2130:2143  _end - _start */\n      sub\n        /* \"https://github.com/0xsequence/sstore2/blob/master/contracts/utils/Bytecode.sol\":2112:2143  uint256 reqSize = _end - _start */\n      swap1\n      pop\n        /* \"https://github.com/0xsequence/sstore2/blob/master/contracts/utils/Bytecode.sol\":2151:2166  uint256 maxSize */\n      0x00\n        /* \"https://github.com/0xsequence/sstore2/blob/master/contracts/utils/Bytecode.sol\":2177:2183  _start */\n      dup6\n        /* \"https://github.com/0xsequence/sstore2/blob/master/contracts/utils/Bytecode.sol\":2169:2174  csize */\n      dup4\n        /* \"https://github.com/0xsequence/sstore2/blob/master/contracts/utils/Bytecode.sol\":2169:2183  csize - _start */\n      sub\n        /* \"https://github.com/0xsequence/sstore2/blob/master/contracts/utils/Bytecode.sol\":2151:2183  uint256 maxSize = csize - _start */\n      swap1\n      pop\n        /* \"https://github.com/0xsequence/sstore2/blob/master/contracts/utils/Bytecode.sol\":2192:2204  uint256 size */\n      0x00\n        /* \"https://github.com/0xsequence/sstore2/blob/master/contracts/utils/Bytecode.sol\":2217:2224  reqSize */\n      dup3\n        /* \"https://github.com/0xsequence/sstore2/blob/master/contracts/utils/Bytecode.sol\":2207:2214  maxSize */\n      dup3\n        /* \"https://github.com/0xsequence/sstore2/blob/master/contracts/utils/Bytecode.sol\":2207:2224  maxSize < reqSize */\n      lt\n        /* \"https://github.com/0xsequence/sstore2/blob/master/contracts/utils/Bytecode.sol\":2207:2244  maxSize < reqSize ? maxSize : reqSize */\n      tag_46\n      jumpi\n        /* \"https://github.com/0xsequence/sstore2/blob/master/contracts/utils/Bytecode.sol\":2237:2244  reqSize */\n      dup3\n        /* \"https://github.com/0xsequence/sstore2/blob/master/contracts/utils/Bytecode.sol\":2207:2244  maxSize < reqSize ? maxSize : reqSize */\n      jump(tag_47)\n    tag_46:\n        /* \"https://github.com/0xsequence/sstore2/blob/master/contracts/utils/Bytecode.sol\":2227:2234  maxSize */\n      dup2\n        /* \"https://github.com/0xsequence/sstore2/blob/master/contracts/utils/Bytecode.sol\":2207:2244  maxSize < reqSize ? maxSize : reqSize */\n    tag_47:\n        /* \"https://github.com/0xsequence/sstore2/blob/master/contracts/utils/Bytecode.sol\":2192:2244  uint256 size = maxSize < reqSize ? maxSize : reqSize */\n      swap1\n      pop\n        /* \"https://github.com/0xsequence/sstore2/blob/master/contracts/utils/Bytecode.sol\":2413:2417  0x40 */\n      0x40\n        /* \"https://github.com/0xsequence/sstore2/blob/master/contracts/utils/Bytecode.sol\":2407:2418  mload(0x40) */\n      mload\n        /* \"https://github.com/0xsequence/sstore2/blob/master/contracts/utils/Bytecode.sol\":2398:2418  oCode := mload(0x40) */\n      swap5\n      pop\n        /* \"https://github.com/0xsequence/sstore2/blob/master/contracts/utils/Bytecode.sol\":2533:2537  0x1f */\n      0x1f\n        /* \"https://github.com/0xsequence/sstore2/blob/master/contracts/utils/Bytecode.sol\":2529:2538  not(0x1f) */\n      not\n        /* \"https://github.com/0xsequence/sstore2/blob/master/contracts/utils/Bytecode.sol\":2522:2526  0x1f */\n      0x1f\n        /* \"https://github.com/0xsequence/sstore2/blob/master/contracts/utils/Bytecode.sol\":2515:2519  0x20 */\n      0x20\n        /* \"https://github.com/0xsequence/sstore2/blob/master/contracts/utils/Bytecode.sol\":2509:2513  size */\n      dup4\n        /* \"https://github.com/0xsequence/sstore2/blob/master/contracts/utils/Bytecode.sol\":2505:2520  add(size, 0x20) */\n      add\n        /* \"https://github.com/0xsequence/sstore2/blob/master/contracts/utils/Bytecode.sol\":2501:2527  add(add(size, 0x20), 0x1f) */\n      add\n        /* \"https://github.com/0xsequence/sstore2/blob/master/contracts/utils/Bytecode.sol\":2497:2539  and(add(add(size, 0x20), 0x1f), not(0x1f)) */\n      and\n        /* \"https://github.com/0xsequence/sstore2/blob/master/contracts/utils/Bytecode.sol\":2490:2495  oCode */\n      dup6\n        /* \"https://github.com/0xsequence/sstore2/blob/master/contracts/utils/Bytecode.sol\":2486:2540  add(oCode, and(add(add(size, 0x20), 0x1f), not(0x1f))) */\n      add\n        /* \"https://github.com/0xsequence/sstore2/blob/master/contracts/utils/Bytecode.sol\":2480:2484  0x40 */\n      0x40\n        /* \"https://github.com/0xsequence/sstore2/blob/master/contracts/utils/Bytecode.sol\":2473:2541  mstore(0x40, add(oCode, and(add(add(size, 0x20), 0x1f), not(0x1f)))) */\n      mstore\n        /* \"https://github.com/0xsequence/sstore2/blob/master/contracts/utils/Bytecode.sol\":2598:2602  size */\n      dup1\n        /* \"https://github.com/0xsequence/sstore2/blob/master/contracts/utils/Bytecode.sol\":2591:2596  oCode */\n      dup6\n        /* \"https://github.com/0xsequence/sstore2/blob/master/contracts/utils/Bytecode.sol\":2584:2603  mstore(oCode, size) */\n      mstore\n        /* \"https://github.com/0xsequence/sstore2/blob/master/contracts/utils/Bytecode.sol\":2716:2720  size */\n      dup1\n        /* \"https://github.com/0xsequence/sstore2/blob/master/contracts/utils/Bytecode.sol\":2708:2714  _start */\n      dup8\n        /* \"https://github.com/0xsequence/sstore2/blob/master/contracts/utils/Bytecode.sol\":2701:2705  0x20 */\n      0x20\n        /* \"https://github.com/0xsequence/sstore2/blob/master/contracts/utils/Bytecode.sol\":2694:2699  oCode */\n      dup8\n        /* \"https://github.com/0xsequence/sstore2/blob/master/contracts/utils/Bytecode.sol\":2690:2706  add(oCode, 0x20) */\n      add\n        /* \"https://github.com/0xsequence/sstore2/blob/master/contracts/utils/Bytecode.sol\":2683:2688  _addr */\n      dup11\n        /* \"https://github.com/0xsequence/sstore2/blob/master/contracts/utils/Bytecode.sol\":2671:2721  extcodecopy(_addr, add(oCode, 0x20), _start, size) */\n      extcodecopy\n        /* \"https://github.com/0xsequence/sstore2/blob/master/contracts/utils/Bytecode.sol\":2262:2729  {... */\n      pop\n      pop\n      pop\n        /* \"https://github.com/0xsequence/sstore2/blob/master/contracts/utils/Bytecode.sol\":1897:2739  {... */\n      pop\n        /* \"https://github.com/0xsequence/sstore2/blob/master/contracts/utils/Bytecode.sol\":1793:2739  function codeAt(address _addr, uint256 _start, uint256 _end) internal view returns (bytes memory oCode) {... */\n    tag_38:\n      swap4\n      swap3\n      pop\n      pop\n      pop\n      jump\t// out\n        /* \"https://github.com/OpenZeppelin/openzeppelin-contracts/blob/master/contracts/utils/Base64.sol\":1186:5180  function _encode(bytes memory data, string memory table, bool withPadding) private pure returns (string memory) {... */\n    tag_37:\n        /* \"https://github.com/OpenZeppelin/openzeppelin-contracts/blob/master/contracts/utils/Base64.sol\":1283:1296  string memory */\n      0x60\n        /* \"https://github.com/OpenZeppelin/openzeppelin-contracts/blob/master/contracts/utils/Base64.sol\":1530:1531  0 */\n      0x00\n        /* \"https://github.com/OpenZeppelin/openzeppelin-contracts/blob/master/contracts/utils/Base64.sol\":1515:1519  data */\n      dup5\n        /* \"https://github.com/OpenZeppelin/openzeppelin-contracts/blob/master/contracts/utils/Base64.sol\":1515:1526  data.length */\n      mload\n        /* \"https://github.com/OpenZeppelin/openzeppelin-contracts/blob/master/contracts/utils/Base64.sol\":1515:1531  data.length == 0 */\n      sub\n        /* \"https://github.com/OpenZeppelin/openzeppelin-contracts/blob/master/contracts/utils/Base64.sol\":1511:1542  if (data.length == 0) return \"\" */\n      tag_49\n      jumpi\n        /* \"https://github.com/OpenZeppelin/openzeppelin-contracts/blob/master/contracts/utils/Base64.sol\":1533:1542  return \"\" */\n      mload(0x40)\n      dup1\n      0x20\n      add\n      0x40\n      mstore\n      dup1\n      0x00\n      dup2\n      mstore\n      pop\n      swap1\n      pop\n      jump(tag_48)\n        /* \"https://github.com/OpenZeppelin/openzeppelin-contracts/blob/master/contracts/utils/Base64.sol\":1511:1542  if (data.length == 0) return \"\" */\n    tag_49:\n        /* \"https://github.com/OpenZeppelin/openzeppelin-contracts/blob/master/contracts/utils/Base64.sol\":2480:2500  uint256 resultLength */\n      0x00\n        /* \"https://github.com/OpenZeppelin/openzeppelin-contracts/blob/master/contracts/utils/Base64.sol\":2503:2514  withPadding */\n      dup3\n        /* \"https://github.com/OpenZeppelin/openzeppelin-contracts/blob/master/contracts/utils/Base64.sol\":2503:2572  withPadding ? 4 * ((data.length + 2) / 3) : (4 * data.length + 2) / 3 */\n      tag_50\n      jumpi\n        /* \"https://github.com/OpenZeppelin/openzeppelin-contracts/blob/master/contracts/utils/Base64.sol\":2571:2572  3 */\n      0x03\n        /* \"https://github.com/OpenZeppelin/openzeppelin-contracts/blob/master/contracts/utils/Base64.sol\":2566:2567  2 */\n      0x02\n        /* \"https://github.com/OpenZeppelin/openzeppelin-contracts/blob/master/contracts/utils/Base64.sol\":2552:2556  data */\n      dup7\n        /* \"https://github.com/OpenZeppelin/openzeppelin-contracts/blob/master/contracts/utils/Base64.sol\":2552:2563  data.length */\n      mload\n        /* \"https://github.com/OpenZeppelin/openzeppelin-contracts/blob/master/contracts/utils/Base64.sol\":2548:2549  4 */\n      0x04\n        /* \"https://github.com/OpenZeppelin/openzeppelin-contracts/blob/master/contracts/utils/Base64.sol\":2548:2563  4 * data.length */\n      tag_51\n      swap2\n      swap1\n      tag_52\n      jump\t// in\n    tag_51:\n        /* \"https://github.com/OpenZeppelin/openzeppelin-contracts/blob/master/contracts/utils/Base64.sol\":2548:2567  4 * data.length + 2 */\n      tag_53\n      swap2\n      swap1\n      tag_54\n      jump\t// in\n    tag_53:\n        /* \"https://github.com/OpenZeppelin/openzeppelin-contracts/blob/master/contracts/utils/Base64.sol\":2547:2572  (4 * data.length + 2) / 3 */\n      tag_55\n      swap2\n      swap1\n      tag_56\n      jump\t// in\n    tag_55:\n        /* \"https://github.com/OpenZeppelin/openzeppelin-contracts/blob/master/contracts/utils/Base64.sol\":2503:2572  withPadding ? 4 * ((data.length + 2) / 3) : (4 * data.length + 2) / 3 */\n      jump(tag_57)\n    tag_50:\n        /* \"https://github.com/OpenZeppelin/openzeppelin-contracts/blob/master/contracts/utils/Base64.sol\":2542:2543  3 */\n      0x03\n        /* \"https://github.com/OpenZeppelin/openzeppelin-contracts/blob/master/contracts/utils/Base64.sol\":2537:2538  2 */\n      0x02\n        /* \"https://github.com/OpenZeppelin/openzeppelin-contracts/blob/master/contracts/utils/Base64.sol\":2523:2527  data */\n      dup7\n        /* \"https://github.com/OpenZeppelin/openzeppelin-contracts/blob/master/contracts/utils/Base64.sol\":2523:2534  data.length */\n      mload\n        /* \"https://github.com/OpenZeppelin/openzeppelin-contracts/blob/master/contracts/utils/Base64.sol\":2523:2538  data.length + 2 */\n      tag_58\n      swap2\n      swap1\n      tag_54\n      jump\t// in\n    tag_58:\n        /* \"https://github.com/OpenZeppelin/openzeppelin-contracts/blob/master/contracts/utils/Base64.sol\":2522:2543  (data.length + 2) / 3 */\n      tag_59\n      swap2\n      swap1\n      tag_56\n      jump\t// in\n    tag_59:\n        /* \"https://github.com/OpenZeppelin/openzeppelin-contracts/blob/master/contracts/utils/Base64.sol\":2517:2518  4 */\n      0x04\n        /* \"https://github.com/OpenZeppelin/openzeppelin-contracts/blob/master/contracts/utils/Base64.sol\":2517:2544  4 * ((data.length + 2) / 3) */\n      tag_60\n      swap2\n      swap1\n      tag_52\n      jump\t// in\n    tag_60:\n        /* \"https://github.com/OpenZeppelin/openzeppelin-contracts/blob/master/contracts/utils/Base64.sol\":2503:2572  withPadding ? 4 * ((data.length + 2) / 3) : (4 * data.length + 2) / 3 */\n    tag_57:\n        /* \"https://github.com/OpenZeppelin/openzeppelin-contracts/blob/master/contracts/utils/Base64.sol\":2480:2572  uint256 resultLength = withPadding ? 4 * ((data.length + 2) / 3) : (4 * data.length + 2) / 3 */\n      swap1\n      pop\n        /* \"https://github.com/OpenZeppelin/openzeppelin-contracts/blob/master/contracts/utils/Base64.sol\":2583:2603  string memory result */\n      0x00\n        /* \"https://github.com/OpenZeppelin/openzeppelin-contracts/blob/master/contracts/utils/Base64.sol\":2617:2629  resultLength */\n      dup2\n        /* \"https://github.com/OpenZeppelin/openzeppelin-contracts/blob/master/contracts/utils/Base64.sol\":2606:2630  new string(resultLength) */\n      0xffffffffffffffff\n      dup2\n      gt\n      iszero\n      tag_61\n      jumpi\n      tag_62\n      tag_63\n      jump\t// in\n    tag_62:\n    tag_61:\n      mload(0x40)\n      swap1\n      dup1\n      dup3\n      mstore\n      dup1\n      0x1f\n      add\n      not(0x1f)\n      and\n      0x20\n      add\n      dup3\n      add\n      0x40\n      mstore\n      dup1\n      iszero\n      tag_64\n      jumpi\n      dup2\n      0x20\n      add\n      0x01\n      dup3\n      mul\n      dup1\n      calldatasize\n      dup4\n      calldatacopy\n      dup1\n      dup3\n      add\n      swap2\n      pop\n      pop\n      swap1\n      pop\n    tag_64:\n      pop\n        /* \"https://github.com/OpenZeppelin/openzeppelin-contracts/blob/master/contracts/utils/Base64.sol\":2583:2630  string memory result = new string(resultLength) */\n      swap1\n      pop\n        /* \"https://github.com/OpenZeppelin/openzeppelin-contracts/blob/master/contracts/utils/Base64.sol\":2778:2779  1 */\n      0x01\n        /* \"https://github.com/OpenZeppelin/openzeppelin-contracts/blob/master/contracts/utils/Base64.sol\":2771:2776  table */\n      dup6\n        /* \"https://github.com/OpenZeppelin/openzeppelin-contracts/blob/master/contracts/utils/Base64.sol\":2767:2780  add(table, 1) */\n      add\n        /* \"https://github.com/OpenZeppelin/openzeppelin-contracts/blob/master/contracts/utils/Base64.sol\":2879:2883  0x20 */\n      0x20\n        /* \"https://github.com/OpenZeppelin/openzeppelin-contracts/blob/master/contracts/utils/Base64.sol\":2871:2877  result */\n      dup3\n        /* \"https://github.com/OpenZeppelin/openzeppelin-contracts/blob/master/contracts/utils/Base64.sol\":2867:2884  add(result, 0x20) */\n      add\n        /* \"https://github.com/OpenZeppelin/openzeppelin-contracts/blob/master/contracts/utils/Base64.sol\":2912:2916  data */\n      dup8\n        /* \"https://github.com/OpenZeppelin/openzeppelin-contracts/blob/master/contracts/utils/Base64.sol\":2959:2963  data */\n      dup9\n        /* \"https://github.com/OpenZeppelin/openzeppelin-contracts/blob/master/contracts/utils/Base64.sol\":2953:2964  mload(data) */\n      mload\n        /* \"https://github.com/OpenZeppelin/openzeppelin-contracts/blob/master/contracts/utils/Base64.sol\":2947:2951  data */\n      dup10\n        /* \"https://github.com/OpenZeppelin/openzeppelin-contracts/blob/master/contracts/utils/Base64.sol\":2943:2965  add(data, mload(data)) */\n      add\n        /* \"https://github.com/OpenZeppelin/openzeppelin-contracts/blob/master/contracts/utils/Base64.sol\":3207:3211  0x20 */\n      0x20\n        /* \"https://github.com/OpenZeppelin/openzeppelin-contracts/blob/master/contracts/utils/Base64.sol\":3199:3205  endPtr */\n      dup2\n        /* \"https://github.com/OpenZeppelin/openzeppelin-contracts/blob/master/contracts/utils/Base64.sol\":3195:3212  add(endPtr, 0x20) */\n      add\n        /* \"https://github.com/OpenZeppelin/openzeppelin-contracts/blob/master/contracts/utils/Base64.sol\":3249:3257  afterPtr */\n      dup1\n        /* \"https://github.com/OpenZeppelin/openzeppelin-contracts/blob/master/contracts/utils/Base64.sol\":3243:3258  mload(afterPtr) */\n      mload\n        /* \"https://github.com/OpenZeppelin/openzeppelin-contracts/blob/master/contracts/utils/Base64.sol\":3288:3292  0x00 */\n      0x00\n        /* \"https://github.com/OpenZeppelin/openzeppelin-contracts/blob/master/contracts/utils/Base64.sol\":3278:3286  afterPtr */\n      dup3\n        /* \"https://github.com/OpenZeppelin/openzeppelin-contracts/blob/master/contracts/utils/Base64.sol\":3271:3293  mstore(afterPtr, 0x00) */\n      mstore\n        /* \"https://github.com/OpenZeppelin/openzeppelin-contracts/blob/master/contracts/utils/Base64.sol\":3360:4591  for {} lt(dataPtr, endPtr) {} {... */\n    tag_65:\n        /* \"https://github.com/OpenZeppelin/openzeppelin-contracts/blob/master/contracts/utils/Base64.sol\":3379:3385  endPtr */\n      dup3\n        /* \"https://github.com/OpenZeppelin/openzeppelin-contracts/blob/master/contracts/utils/Base64.sol\":3370:3377  dataPtr */\n      dup5\n        /* \"https://github.com/OpenZeppelin/openzeppelin-contracts/blob/master/contracts/utils/Base64.sol\":3367:3386  lt(dataPtr, endPtr) */\n      lt\n        /* \"https://github.com/OpenZeppelin/openzeppelin-contracts/blob/master/contracts/utils/Base64.sol\":3360:4591  for {} lt(dataPtr, endPtr) {} {... */\n      iszero\n      tag_67\n      jumpi\n        /* \"https://github.com/OpenZeppelin/openzeppelin-contracts/blob/master/contracts/utils/Base64.sol\":3467:3468  3 */\n      0x03\n        /* \"https://github.com/OpenZeppelin/openzeppelin-contracts/blob/master/contracts/utils/Base64.sol\":3458:3465  dataPtr */\n      dup5\n        /* \"https://github.com/OpenZeppelin/openzeppelin-contracts/blob/master/contracts/utils/Base64.sol\":3454:3469  add(dataPtr, 3) */\n      add\n        /* \"https://github.com/OpenZeppelin/openzeppelin-contracts/blob/master/contracts/utils/Base64.sol\":3443:3469  dataPtr := add(dataPtr, 3) */\n      swap4\n      pop\n        /* \"https://github.com/OpenZeppelin/openzeppelin-contracts/blob/master/contracts/utils/Base64.sol\":3505:3512  dataPtr */\n      dup4\n        /* \"https://github.com/OpenZeppelin/openzeppelin-contracts/blob/master/contracts/utils/Base64.sol\":3499:3513  mload(dataPtr) */\n      mload\n        /* \"https://github.com/OpenZeppelin/openzeppelin-contracts/blob/master/contracts/utils/Base64.sol\":4092:4096  0x3F */\n      0x3f\n        /* \"https://github.com/OpenZeppelin/openzeppelin-contracts/blob/master/contracts/utils/Base64.sol\":4084:4089  input */\n      dup2\n        /* \"https://github.com/OpenZeppelin/openzeppelin-contracts/blob/master/contracts/utils/Base64.sol\":4080:4082  18 */\n      0x12\n        /* \"https://github.com/OpenZeppelin/openzeppelin-contracts/blob/master/contracts/utils/Base64.sol\":4076:4090  shr(18, input) */\n      shr\n        /* \"https://github.com/OpenZeppelin/openzeppelin-contracts/blob/master/contracts/utils/Base64.sol\":4072:4097  and(shr(18, input), 0x3F) */\n      and\n        /* \"https://github.com/OpenZeppelin/openzeppelin-contracts/blob/master/contracts/utils/Base64.sol\":4062:4070  tablePtr */\n      dup8\n        /* \"https://github.com/OpenZeppelin/openzeppelin-contracts/blob/master/contracts/utils/Base64.sol\":4058:4098  add(tablePtr, and(shr(18, input), 0x3F)) */\n      add\n        /* \"https://github.com/OpenZeppelin/openzeppelin-contracts/blob/master/contracts/utils/Base64.sol\":4052:4099  mload(add(tablePtr, and(shr(18, input), 0x3F))) */\n      mload\n        /* \"https://github.com/OpenZeppelin/openzeppelin-contracts/blob/master/contracts/utils/Base64.sol\":4041:4050  resultPtr */\n      dup7\n        /* \"https://github.com/OpenZeppelin/openzeppelin-contracts/blob/master/contracts/utils/Base64.sol\":4033:4100  mstore8(resultPtr, mload(add(tablePtr, and(shr(18, input), 0x3F)))) */\n      mstore8\n        /* \"https://github.com/OpenZeppelin/openzeppelin-contracts/blob/master/contracts/utils/Base64.sol\":4145:4146  1 */\n      0x01\n        /* \"https://github.com/OpenZeppelin/openzeppelin-contracts/blob/master/contracts/utils/Base64.sol\":4134:4143  resultPtr */\n      dup7\n        /* \"https://github.com/OpenZeppelin/openzeppelin-contracts/blob/master/contracts/utils/Base64.sol\":4130:4147  add(resultPtr, 1) */\n      add\n        /* \"https://github.com/OpenZeppelin/openzeppelin-contracts/blob/master/contracts/utils/Base64.sol\":4117:4147  resultPtr := add(resultPtr, 1) */\n      swap6\n      pop\n        /* \"https://github.com/OpenZeppelin/openzeppelin-contracts/blob/master/contracts/utils/Base64.sol\":4235:4239  0x3F */\n      0x3f\n        /* \"https://github.com/OpenZeppelin/openzeppelin-contracts/blob/master/contracts/utils/Base64.sol\":4227:4232  input */\n      dup2\n        /* \"https://github.com/OpenZeppelin/openzeppelin-contracts/blob/master/contracts/utils/Base64.sol\":4223:4225  12 */\n      0x0c\n        /* \"https://github.com/OpenZeppelin/openzeppelin-contracts/blob/master/contracts/utils/Base64.sol\":4219:4233  shr(12, input) */\n      shr\n        /* \"https://github.com/OpenZeppelin/openzeppelin-contracts/blob/master/contracts/utils/Base64.sol\":4215:4240  and(shr(12, input), 0x3F) */\n      and\n        /* \"https://github.com/OpenZeppelin/openzeppelin-contracts/blob/master/contracts/utils/Base64.sol\":4205:4213  tablePtr */\n      dup8\n        /* \"https://github.com/OpenZeppelin/openzeppelin-contracts/blob/master/contracts/utils/Base64.sol\":4201:4241  add(tablePtr, and(shr(12, input), 0x3F)) */\n      add\n        /* \"https://github.com/OpenZeppelin/openzeppelin-contracts/blob/master/contracts/utils/Base64.sol\":4195:4242  mload(add(tablePtr, and(shr(12, input), 0x3F))) */\n      mload\n        /* \"https://github.com/OpenZeppelin/openzeppelin-contracts/blob/master/contracts/utils/Base64.sol\":4184:4193  resultPtr */\n      dup7\n        /* \"https://github.com/OpenZeppelin/openzeppelin-contracts/blob/master/contracts/utils/Base64.sol\":4176:4243  mstore8(resultPtr, mload(add(tablePtr, and(shr(12, input), 0x3F)))) */\n      mstore8\n        /* \"https://github.com/OpenZeppelin/openzeppelin-contracts/blob/master/contracts/utils/Base64.sol\":4288:4289  1 */\n      0x01\n        /* \"https://github.com/OpenZeppelin/openzeppelin-contracts/blob/master/contracts/utils/Base64.sol\":4277:4286  resultPtr */\n      dup7\n        /* \"https://github.com/OpenZeppelin/openzeppelin-contracts/blob/master/contracts/utils/Base64.sol\":4273:4290  add(resultPtr, 1) */\n      add\n        /* \"https://github.com/OpenZeppelin/openzeppelin-contracts/blob/master/contracts/utils/Base64.sol\":4260:4290  resultPtr := add(resultPtr, 1) */\n      swap6\n      pop\n        /* \"https://github.com/OpenZeppelin/openzeppelin-contracts/blob/master/contracts/utils/Base64.sol\":4377:4381  0x3F */\n      0x3f\n        /* \"https://github.com/OpenZeppelin/openzeppelin-contracts/blob/master/contracts/utils/Base64.sol\":4369:4374  input */\n      dup2\n        /* \"https://github.com/OpenZeppelin/openzeppelin-contracts/blob/master/contracts/utils/Base64.sol\":4366:4367  6 */\n      0x06\n        /* \"https://github.com/OpenZeppelin/openzeppelin-contracts/blob/master/contracts/utils/Base64.sol\":4362:4375  shr(6, input) */\n      shr\n        /* \"https://github.com/OpenZeppelin/openzeppelin-contracts/blob/master/contracts/utils/Base64.sol\":4358:4382  and(shr(6, input), 0x3F) */\n      and\n        /* \"https://github.com/OpenZeppelin/openzeppelin-contracts/blob/master/contracts/utils/Base64.sol\":4348:4356  tablePtr */\n      dup8\n        /* \"https://github.com/OpenZeppelin/openzeppelin-contracts/blob/master/contracts/utils/Base64.sol\":4344:4383  add(tablePtr, and(shr(6, input), 0x3F)) */\n      add\n        /* \"https://github.com/OpenZeppelin/openzeppelin-contracts/blob/master/contracts/utils/Base64.sol\":4338:4384  mload(add(tablePtr, and(shr(6, input), 0x3F))) */\n      mload\n        /* \"https://github.com/OpenZeppelin/openzeppelin-contracts/blob/master/contracts/utils/Base64.sol\":4327:4336  resultPtr */\n      dup7\n        /* \"https://github.com/OpenZeppelin/openzeppelin-contracts/blob/master/contracts/utils/Base64.sol\":4319:4385  mstore8(resultPtr, mload(add(tablePtr, and(shr(6, input), 0x3F)))) */\n      mstore8\n        /* \"https://github.com/OpenZeppelin/openzeppelin-contracts/blob/master/contracts/utils/Base64.sol\":4430:4431  1 */\n      0x01\n        /* \"https://github.com/OpenZeppelin/openzeppelin-contracts/blob/master/contracts/utils/Base64.sol\":4419:4428  resultPtr */\n      dup7\n        /* \"https://github.com/OpenZeppelin/openzeppelin-contracts/blob/master/contracts/utils/Base64.sol\":4415:4432  add(resultPtr, 1) */\n      add\n        /* \"https://github.com/OpenZeppelin/openzeppelin-contracts/blob/master/contracts/utils/Base64.sol\":4402:4432  resultPtr := add(resultPtr, 1) */\n      swap6\n      pop\n        /* \"https://github.com/OpenZeppelin/openzeppelin-contracts/blob/master/contracts/utils/Base64.sol\":4511:4515  0x3F */\n      0x3f\n        /* \"https://github.com/OpenZeppelin/openzeppelin-contracts/blob/master/contracts/utils/Base64.sol\":4504:4509  input */\n      dup2\n        /* \"https://github.com/OpenZeppelin/openzeppelin-contracts/blob/master/contracts/utils/Base64.sol\":4500:4516  and(input, 0x3F) */\n      and\n        /* \"https://github.com/OpenZeppelin/openzeppelin-contracts/blob/master/contracts/utils/Base64.sol\":4490:4498  tablePtr */\n      dup8\n        /* \"https://github.com/OpenZeppelin/openzeppelin-contracts/blob/master/contracts/utils/Base64.sol\":4486:4517  add(tablePtr, and(input, 0x3F)) */\n      add\n        /* \"https://github.com/OpenZeppelin/openzeppelin-contracts/blob/master/contracts/utils/Base64.sol\":4480:4518  mload(add(tablePtr, and(input, 0x3F))) */\n      mload\n        /* \"https://github.com/OpenZeppelin/openzeppelin-contracts/blob/master/contracts/utils/Base64.sol\":4469:4478  resultPtr */\n      dup7\n        /* \"https://github.com/OpenZeppelin/openzeppelin-contracts/blob/master/contracts/utils/Base64.sol\":4461:4519  mstore8(resultPtr, mload(add(tablePtr, and(input, 0x3F)))) */\n      mstore8\n        /* \"https://github.com/OpenZeppelin/openzeppelin-contracts/blob/master/contracts/utils/Base64.sol\":4564:4565  1 */\n      0x01\n        /* \"https://github.com/OpenZeppelin/openzeppelin-contracts/blob/master/contracts/utils/Base64.sol\":4553:4562  resultPtr */\n      dup7\n        /* \"https://github.com/OpenZeppelin/openzeppelin-contracts/blob/master/contracts/utils/Base64.sol\":4549:4566  add(resultPtr, 1) */\n      add\n        /* \"https://github.com/OpenZeppelin/openzeppelin-contracts/blob/master/contracts/utils/Base64.sol\":4536:4566  resultPtr := add(resultPtr, 1) */\n      swap6\n      pop\n        /* \"https://github.com/OpenZeppelin/openzeppelin-contracts/blob/master/contracts/utils/Base64.sol\":3390:4591  {... */\n      pop\n        /* \"https://github.com/OpenZeppelin/openzeppelin-contracts/blob/master/contracts/utils/Base64.sol\":3360:4591  for {} lt(dataPtr, endPtr) {} {... */\n      jump(tag_65)\n    tag_67:\n        /* \"https://github.com/OpenZeppelin/openzeppelin-contracts/blob/master/contracts/utils/Base64.sol\":4669:4679  afterCache */\n      dup1\n        /* \"https://github.com/OpenZeppelin/openzeppelin-contracts/blob/master/contracts/utils/Base64.sol\":4659:4667  afterPtr */\n      dup3\n        /* \"https://github.com/OpenZeppelin/openzeppelin-contracts/blob/master/contracts/utils/Base64.sol\":4652:4680  mstore(afterPtr, afterCache) */\n      mstore\n        /* \"https://github.com/OpenZeppelin/openzeppelin-contracts/blob/master/contracts/utils/Base64.sol\":4697:4708  withPadding */\n      dup10\n        /* \"https://github.com/OpenZeppelin/openzeppelin-contracts/blob/master/contracts/utils/Base64.sol\":4694:5140  if withPadding {... */\n      iszero\n      tag_68\n      jumpi\n        /* \"https://github.com/OpenZeppelin/openzeppelin-contracts/blob/master/contracts/utils/Base64.sol\":4879:4880  3 */\n      0x03\n        /* \"https://github.com/OpenZeppelin/openzeppelin-contracts/blob/master/contracts/utils/Base64.sol\":4872:4876  data */\n      dup13\n        /* \"https://github.com/OpenZeppelin/openzeppelin-contracts/blob/master/contracts/utils/Base64.sol\":4866:4877  mload(data) */\n      mload\n        /* \"https://github.com/OpenZeppelin/openzeppelin-contracts/blob/master/contracts/utils/Base64.sol\":4862:4881  mod(mload(data), 3) */\n      mod\n        /* \"https://github.com/OpenZeppelin/openzeppelin-contracts/blob/master/contracts/utils/Base64.sol\":4903:4904  1 */\n      0x01\n        /* \"https://github.com/OpenZeppelin/openzeppelin-contracts/blob/master/contracts/utils/Base64.sol\":4898:5030  case 1 {... */\n      dup2\n      eq\n      tag_70\n      jumpi\n        /* \"https://github.com/OpenZeppelin/openzeppelin-contracts/blob/master/contracts/utils/Base64.sol\":5052:5053  2 */\n      0x02\n        /* \"https://github.com/OpenZeppelin/openzeppelin-contracts/blob/master/contracts/utils/Base64.sol\":5047:5126  case 2 {... */\n      dup2\n      eq\n      tag_71\n      jumpi\n        /* \"https://github.com/OpenZeppelin/openzeppelin-contracts/blob/master/contracts/utils/Base64.sol\":4855:5126  switch mod(mload(data), 3)... */\n      jump(tag_69)\n        /* \"https://github.com/OpenZeppelin/openzeppelin-contracts/blob/master/contracts/utils/Base64.sol\":4898:5030  case 1 {... */\n    tag_70:\n        /* \"https://github.com/OpenZeppelin/openzeppelin-contracts/blob/master/contracts/utils/Base64.sol\":4954:4958  0x3d */\n      0x3d\n        /* \"https://github.com/OpenZeppelin/openzeppelin-contracts/blob/master/contracts/utils/Base64.sol\":4950:4951  1 */\n      0x01\n        /* \"https://github.com/OpenZeppelin/openzeppelin-contracts/blob/master/contracts/utils/Base64.sol\":4939:4948  resultPtr */\n      dup8\n        /* \"https://github.com/OpenZeppelin/openzeppelin-contracts/blob/master/contracts/utils/Base64.sol\":4935:4952  sub(resultPtr, 1) */\n      sub\n        /* \"https://github.com/OpenZeppelin/openzeppelin-contracts/blob/master/contracts/utils/Base64.sol\":4927:4959  mstore8(sub(resultPtr, 1), 0x3d) */\n      mstore8\n        /* \"https://github.com/OpenZeppelin/openzeppelin-contracts/blob/master/contracts/utils/Base64.sol\":5007:5011  0x3d */\n      0x3d\n        /* \"https://github.com/OpenZeppelin/openzeppelin-contracts/blob/master/contracts/utils/Base64.sol\":5003:5004  2 */\n      0x02\n        /* \"https://github.com/OpenZeppelin/openzeppelin-contracts/blob/master/contracts/utils/Base64.sol\":4992:5001  resultPtr */\n      dup8\n        /* \"https://github.com/OpenZeppelin/openzeppelin-contracts/blob/master/contracts/utils/Base64.sol\":4988:5005  sub(resultPtr, 2) */\n      sub\n        /* \"https://github.com/OpenZeppelin/openzeppelin-contracts/blob/master/contracts/utils/Base64.sol\":4980:5012  mstore8(sub(resultPtr, 2), 0x3d) */\n      mstore8\n        /* \"https://github.com/OpenZeppelin/openzeppelin-contracts/blob/master/contracts/utils/Base64.sol\":4898:5030  case 1 {... */\n      jump(tag_69)\n        /* \"https://github.com/OpenZeppelin/openzeppelin-contracts/blob/master/contracts/utils/Base64.sol\":5047:5126  case 2 {... */\n    tag_71:\n        /* \"https://github.com/OpenZeppelin/openzeppelin-contracts/blob/master/contracts/utils/Base64.sol\":5103:5107  0x3d */\n      0x3d\n        /* \"https://github.com/OpenZeppelin/openzeppelin-contracts/blob/master/contracts/utils/Base64.sol\":5099:5100  1 */\n      0x01\n        /* \"https://github.com/OpenZeppelin/openzeppelin-contracts/blob/master/contracts/utils/Base64.sol\":5088:5097  resultPtr */\n      dup8\n        /* \"https://github.com/OpenZeppelin/openzeppelin-contracts/blob/master/contracts/utils/Base64.sol\":5084:5101  sub(resultPtr, 1) */\n      sub\n        /* \"https://github.com/OpenZeppelin/openzeppelin-contracts/blob/master/contracts/utils/Base64.sol\":5076:5108  mstore8(sub(resultPtr, 1), 0x3d) */\n      mstore8\n        /* \"https://github.com/OpenZeppelin/openzeppelin-contracts/blob/master/contracts/utils/Base64.sol\":4855:5126  switch mod(mload(data), 3)... */\n    tag_69:\n      pop\n        /* \"https://github.com/OpenZeppelin/openzeppelin-contracts/blob/master/contracts/utils/Base64.sol\":4694:5140  if withPadding {... */\n    tag_68:\n        /* \"https://github.com/OpenZeppelin/openzeppelin-contracts/blob/master/contracts/utils/Base64.sol\":2666:5150  {... */\n      pop\n      pop\n      pop\n      pop\n      pop\n      pop\n        /* \"https://github.com/OpenZeppelin/openzeppelin-contracts/blob/master/contracts/utils/Base64.sol\":5167:5173  result */\n      dup1\n        /* \"https://github.com/OpenZeppelin/openzeppelin-contracts/blob/master/contracts/utils/Base64.sol\":5160:5173  return result */\n      swap3\n      pop\n      pop\n      pop\n        /* \"https://github.com/OpenZeppelin/openzeppelin-contracts/blob/master/contracts/utils/Base64.sol\":1186:5180  function _encode(bytes memory data, string memory table, bool withPadding) private pure returns (string memory) {... */\n    tag_48:\n      swap4\n      swap3\n      pop\n      pop\n      pop\n      jump\t// out\n        /* \"https://github.com/0xsequence/sstore2/blob/master/contracts/utils/Bytecode.sol\":1261:1380  function codeSize(address _addr) internal view returns (uint256 size) {... */\n    tag_40:\n        /* \"https://github.com/0xsequence/sstore2/blob/master/contracts/utils/Bytecode.sol\":1317:1329  uint256 size */\n      0x00\n        /* \"https://github.com/0xsequence/sstore2/blob/master/contracts/utils/Bytecode.sol\":1368:1373  _addr */\n      dup2\n        /* \"https://github.com/0xsequence/sstore2/blob/master/contracts/utils/Bytecode.sol\":1356:1374  extcodesize(_addr) */\n      extcodesize\n        /* \"https://github.com/0xsequence/sstore2/blob/master/contracts/utils/Bytecode.sol\":1348:1374  size := extcodesize(_addr) */\n      swap1\n      pop\n        /* \"https://github.com/0xsequence/sstore2/blob/master/contracts/utils/Bytecode.sol\":1261:1380  function codeSize(address _addr) internal view returns (uint256 size) {... */\n      swap2\n      swap1\n      pop\n      jump\t// out\n        /* \"#utility.yul\":7:133   */\n    tag_73:\n        /* \"#utility.yul\":44:51   */\n      0x00\n        /* \"#utility.yul\":84:126   */\n      0xffffffffffffffffffffffffffffffffffffffff\n        /* \"#utility.yul\":77:82   */\n      dup3\n        /* \"#utility.yul\":73:127   */\n      and\n        /* \"#utility.yul\":62:127   */\n      swap1\n      pop\n        /* \"#utility.yul\":7:133   */\n      swap2\n      swap1\n      pop\n      jump\t// out\n        /* \"#utility.yul\":139:199   */\n    tag_74:\n        /* \"#utility.yul\":167:170   */\n      0x00\n        /* \"#utility.yul\":188:193   */\n      dup2\n        /* \"#utility.yul\":181:193   */\n      swap1\n      pop\n        /* \"#utility.yul\":139:199   */\n      swap2\n      swap1\n      pop\n      jump\t// out\n        /* \"#utility.yul\":205:347   */\n    tag_75:\n        /* \"#utility.yul\":255:264   */\n      0x00\n        /* \"#utility.yul\":288:341   */\n      tag_104\n        /* \"#utility.yul\":306:340   */\n      tag_105\n        /* \"#utility.yul\":315:339   */\n      tag_106\n        /* \"#utility.yul\":333:338   */\n      dup5\n        /* \"#utility.yul\":315:339   */\n      tag_73\n      jump\t// in\n    tag_106:\n        /* \"#utility.yul\":306:340   */\n      tag_74\n      jump\t// in\n    tag_105:\n        /* \"#utility.yul\":288:341   */\n      tag_73\n      jump\t// in\n    tag_104:\n        /* \"#utility.yul\":275:341   */\n      swap1\n      pop\n        /* \"#utility.yul\":205:347   */\n      swap2\n      swap1\n      pop\n      jump\t// out\n        /* \"#utility.yul\":353:479   */\n    tag_76:\n        /* \"#utility.yul\":403:412   */\n      0x00\n        /* \"#utility.yul\":436:473   */\n      tag_108\n        /* \"#utility.yul\":467:472   */\n      dup3\n        /* \"#utility.yul\":436:473   */\n      tag_75\n      jump\t// in\n    tag_108:\n        /* \"#utility.yul\":423:473   */\n      swap1\n      pop\n        /* \"#utility.yul\":353:479   */\n      swap2\n      swap1\n      pop\n      jump\t// out\n        /* \"#utility.yul\":485:636   */\n    tag_77:\n        /* \"#utility.yul\":560:569   */\n      0x00\n        /* \"#utility.yul\":593:630   */\n      tag_110\n        /* \"#utility.yul\":624:629   */\n      dup3\n        /* \"#utility.yul\":593:630   */\n      tag_76\n      jump\t// in\n    tag_110:\n        /* \"#utility.yul\":580:630   */\n      swap1\n      pop\n        /* \"#utility.yul\":485:636   */\n      swap2\n      swap1\n      pop\n      jump\t// out\n        /* \"#utility.yul\":642:823   */\n    tag_78:\n        /* \"#utility.yul\":754:816   */\n      tag_112\n        /* \"#utility.yul\":810:815   */\n      dup2\n        /* \"#utility.yul\":754:816   */\n      tag_77\n      jump\t// in\n    tag_112:\n        /* \"#utility.yul\":749:752   */\n      dup3\n        /* \"#utility.yul\":742:817   */\n      mstore\n        /* \"#utility.yul\":642:823   */\n      pop\n      pop\n      jump\t// out\n        /* \"#utility.yul\":829:1101   */\n    tag_9:\n        /* \"#utility.yul\":947:951   */\n      0x00\n        /* \"#utility.yul\":985:987   */\n      0x20\n        /* \"#utility.yul\":974:983   */\n      dup3\n        /* \"#utility.yul\":970:988   */\n      add\n        /* \"#utility.yul\":962:988   */\n      swap1\n      pop\n        /* \"#utility.yul\":998:1094   */\n      tag_114\n        /* \"#utility.yul\":1091:1092   */\n      0x00\n        /* \"#utility.yul\":1080:1089   */\n      dup4\n        /* \"#utility.yul\":1076:1093   */\n      add\n        /* \"#utility.yul\":1067:1073   */\n      dup5\n        /* \"#utility.yul\":998:1094   */\n      tag_78\n      jump\t// in\n    tag_114:\n        /* \"#utility.yul\":829:1101   */\n      swap3\n      swap2\n      pop\n      pop\n      jump\t// out\n        /* \"#utility.yul\":1107:1206   */\n    tag_79:\n        /* \"#utility.yul\":1159:1165   */\n      0x00\n        /* \"#utility.yul\":1193:1198   */\n      dup2\n        /* \"#utility.yul\":1187:1199   */\n      mload\n        /* \"#utility.yul\":1177:1199   */\n      swap1\n      pop\n        /* \"#utility.yul\":1107:1206   */\n      swap2\n      swap1\n      pop\n      jump\t// out\n        /* \"#utility.yul\":1212:1381   */\n    tag_80:\n        /* \"#utility.yul\":1296:1307   */\n      0x00\n        /* \"#utility.yul\":1330:1336   */\n      dup3\n        /* \"#utility.yul\":1325:1328   */\n      dup3\n        /* \"#utility.yul\":1318:1337   */\n      mstore\n        /* \"#utility.yul\":1370:1374   */\n      0x20\n        /* \"#utility.yul\":1365:1368   */\n      dup3\n        /* \"#utility.yul\":1361:1375   */\n      add\n        /* \"#utility.yul\":1346:1375   */\n      swap1\n      pop\n        /* \"#utility.yul\":1212:1381   */\n      swap3\n      swap2\n      pop\n      pop\n      jump\t// out\n        /* \"#utility.yul\":1387:1526   */\n    tag_81:\n        /* \"#utility.yul\":1476:1482   */\n      dup3\n        /* \"#utility.yul\":1471:1474   */\n      dup2\n        /* \"#utility.yul\":1466:1469   */\n      dup4\n        /* \"#utility.yul\":1460:1483   */\n      mcopy\n        /* \"#utility.yul\":1517:1518   */\n      0x00\n        /* \"#utility.yul\":1508:1514   */\n      dup4\n        /* \"#utility.yul\":1503:1506   */\n      dup4\n        /* \"#utility.yul\":1499:1515   */\n      add\n        /* \"#utility.yul\":1492:1519   */\n      mstore\n        /* \"#utility.yul\":1387:1526   */\n      pop\n      pop\n      pop\n      jump\t// out\n        /* \"#utility.yul\":1532:1634   */\n    tag_82:\n        /* \"#utility.yul\":1573:1579   */\n      0x00\n        /* \"#utility.yul\":1624:1626   */\n      0x1f\n        /* \"#utility.yul\":1620:1627   */\n      not\n        /* \"#utility.yul\":1615:1617   */\n      0x1f\n        /* \"#utility.yul\":1608:1613   */\n      dup4\n        /* \"#utility.yul\":1604:1618   */\n      add\n        /* \"#utility.yul\":1600:1628   */\n      and\n        /* \"#utility.yul\":1590:1628   */\n      swap1\n      pop\n        /* \"#utility.yul\":1532:1634   */\n      swap2\n      swap1\n      pop\n      jump\t// out\n        /* \"#utility.yul\":1640:2017   */\n    tag_83:\n        /* \"#utility.yul\":1728:1731   */\n      0x00\n        /* \"#utility.yul\":1756:1795   */\n      tag_120\n        /* \"#utility.yul\":1789:1794   */\n      dup3\n        /* \"#utility.yul\":1756:1795   */\n      tag_79\n      jump\t// in\n    tag_120:\n        /* \"#utility.yul\":1811:1882   */\n      tag_121\n        /* \"#utility.yul\":1875:1881   */\n      dup2\n        /* \"#utility.yul\":1870:1873   */\n      dup6\n        /* \"#utility.yul\":1811:1882   */\n      tag_80\n      jump\t// in\n    tag_121:\n        /* \"#utility.yul\":1804:1882   */\n      swap4\n      pop\n        /* \"#utility.yul\":1891:1956   */\n      tag_122\n        /* \"#utility.yul\":1949:1955   */\n      dup2\n        /* \"#utility.yul\":1944:1947   */\n      dup6\n        /* \"#utility.yul\":1937:1941   */\n      0x20\n        /* \"#utility.yul\":1930:1935   */\n      dup7\n        /* \"#utility.yul\":1926:1942   */\n      add\n        /* \"#utility.yul\":1891:1956   */\n      tag_81\n      jump\t// in\n    tag_122:\n        /* \"#utility.yul\":1981:2010   */\n      tag_123\n        /* \"#utility.yul\":2003:2009   */\n      dup2\n        /* \"#utility.yul\":1981:2010   */\n      tag_82\n      jump\t// in\n    tag_123:\n        /* \"#utility.yul\":1976:1979   */\n      dup5\n        /* \"#utility.yul\":1972:2011   */\n      add\n        /* \"#utility.yul\":1965:2011   */\n      swap2\n      pop\n        /* \"#utility.yul\":1732:2017   */\n      pop\n        /* \"#utility.yul\":1640:2017   */\n      swap3\n      swap2\n      pop\n      pop\n      jump\t// out\n        /* \"#utility.yul\":2023:2336   */\n    tag_13:\n        /* \"#utility.yul\":2136:2140   */\n      0x00\n        /* \"#utility.yul\":2174:2176   */\n      0x20\n        /* \"#utility.yul\":2163:2172   */\n      dup3\n        /* \"#utility.yul\":2159:2177   */\n      add\n        /* \"#utility.yul\":2151:2177   */\n      swap1\n      pop\n        /* \"#utility.yul\":2223:2232   */\n      dup2\n        /* \"#utility.yul\":2217:2221   */\n      dup2\n        /* \"#utility.yul\":2213:2233   */\n      sub\n        /* \"#utility.yul\":2209:2210   */\n      0x00\n        /* \"#utility.yul\":2198:2207   */\n      dup4\n        /* \"#utility.yul\":2194:2211   */\n      add\n        /* \"#utility.yul\":2187:2234   */\n      mstore\n        /* \"#utility.yul\":2251:2329   */\n      tag_125\n        /* \"#utility.yul\":2324:2328   */\n      dup2\n        /* \"#utility.yul\":2315:2321   */\n      dup5\n        /* \"#utility.yul\":2251:2329   */\n      tag_83\n      jump\t// in\n    tag_125:\n        /* \"#utility.yul\":2243:2329   */\n      swap1\n      pop\n        /* \"#utility.yul\":2023:2336   */\n      swap3\n      swap2\n      pop\n      pop\n      jump\t// out\n        /* \"#utility.yul\":2423:2540   */\n    tag_85:\n        /* \"#utility.yul\":2532:2533   */\n      0x00\n        /* \"#utility.yul\":2529:2530   */\n      dup1\n        /* \"#utility.yul\":2522:2534   */\n      revert\n        /* \"#utility.yul\":2669:2746   */\n    tag_87:\n        /* \"#utility.yul\":2706:2713   */\n      0x00\n        /* \"#utility.yul\":2735:2740   */\n      dup2\n        /* \"#utility.yul\":2724:2740   */\n      swap1\n      pop\n        /* \"#utility.yul\":2669:2746   */\n      swap2\n      swap1\n      pop\n      jump\t// out\n        /* \"#utility.yul\":2752:2874   */\n    tag_88:\n        /* \"#utility.yul\":2825:2849   */\n      tag_131\n        /* \"#utility.yul\":2843:2848   */\n      dup2\n        /* \"#utility.yul\":2825:2849   */\n      tag_87\n      jump\t// in\n    tag_131:\n        /* \"#utility.yul\":2818:2823   */\n      dup2\n        /* \"#utility.yul\":2815:2850   */\n      eq\n        /* \"#utility.yul\":2805:2868   */\n      tag_132\n      jumpi\n        /* \"#utility.yul\":2864:2865   */\n      0x00\n        /* \"#utility.yul\":2861:2862   */\n      dup1\n        /* \"#utility.yul\":2854:2866   */\n      revert\n        /* \"#utility.yul\":2805:2868   */\n    tag_132:\n        /* \"#utility.yul\":2752:2874   */\n      pop\n      jump\t// out\n        /* \"#utility.yul\":2880:3019   */\n    tag_89:\n        /* \"#utility.yul\":2926:2931   */\n      0x00\n        /* \"#utility.yul\":2964:2970   */\n      dup2\n        /* \"#utility.yul\":2951:2971   */\n      calldataload\n        /* \"#utility.yul\":2942:2971   */\n      swap1\n      pop\n        /* \"#utility.yul\":2980:3013   */\n      tag_134\n        /* \"#utility.yul\":3007:3012   */\n      dup2\n        /* \"#utility.yul\":2980:3013   */\n      tag_88\n      jump\t// in\n    tag_134:\n        /* \"#utility.yul\":2880:3019   */\n      swap3\n      swap2\n      pop\n      pop\n      jump\t// out\n        /* \"#utility.yul\":3025:3354   */\n    tag_16:\n        /* \"#utility.yul\":3084:3090   */\n      0x00\n        /* \"#utility.yul\":3133:3135   */\n      0x20\n        /* \"#utility.yul\":3121:3130   */\n      dup3\n        /* \"#utility.yul\":3112:3119   */\n      dup5\n        /* \"#utility.yul\":3108:3131   */\n      sub\n        /* \"#utility.yul\":3104:3136   */\n      slt\n        /* \"#utility.yul\":3101:3220   */\n      iszero\n      tag_136\n      jumpi\n        /* \"#utility.yul\":3139:3218   */\n      tag_137\n      tag_85\n      jump\t// in\n    tag_137:\n        /* \"#utility.yul\":3101:3220   */\n    tag_136:\n        /* \"#utility.yul\":3259:3260   */\n      0x00\n        /* \"#utility.yul\":3284:3337   */\n      tag_138\n        /* \"#utility.yul\":3329:3336   */\n      dup5\n        /* \"#utility.yul\":3320:3326   */\n      dup3\n        /* \"#utility.yul\":3309:3318   */\n      dup6\n        /* \"#utility.yul\":3305:3327   */\n      add\n        /* \"#utility.yul\":3284:3337   */\n      tag_89\n      jump\t// in\n    tag_138:\n        /* \"#utility.yul\":3274:3337   */\n      swap2\n      pop\n        /* \"#utility.yul\":3230:3347   */\n      pop\n        /* \"#utility.yul\":3025:3354   */\n      swap3\n      swap2\n      pop\n      pop\n      jump\t// out\n        /* \"#utility.yul\":3360:3456   */\n    tag_90:\n        /* \"#utility.yul\":3397:3404   */\n      0x00\n        /* \"#utility.yul\":3426:3450   */\n      tag_140\n        /* \"#utility.yul\":3444:3449   */\n      dup3\n        /* \"#utility.yul\":3426:3450   */\n      tag_73\n      jump\t// in\n    tag_140:\n        /* \"#utility.yul\":3415:3450   */\n      swap1\n      pop\n        /* \"#utility.yul\":3360:3456   */\n      swap2\n      swap1\n      pop\n      jump\t// out\n        /* \"#utility.yul\":3462:3584   */\n    tag_91:\n        /* \"#utility.yul\":3535:3559   */\n      tag_142\n        /* \"#utility.yul\":3553:3558   */\n      dup2\n        /* \"#utility.yul\":3535:3559   */\n      tag_90\n      jump\t// in\n    tag_142:\n        /* \"#utility.yul\":3528:3533   */\n      dup2\n        /* \"#utility.yul\":3525:3560   */\n      eq\n        /* \"#utility.yul\":3515:3578   */\n      tag_143\n      jumpi\n        /* \"#utility.yul\":3574:3575   */\n      0x00\n        /* \"#utility.yul\":3571:3572   */\n      dup1\n        /* \"#utility.yul\":3564:3576   */\n      revert\n        /* \"#utility.yul\":3515:3578   */\n    tag_143:\n        /* \"#utility.yul\":3462:3584   */\n      pop\n      jump\t// out\n        /* \"#utility.yul\":3590:3733   */\n    tag_92:\n        /* \"#utility.yul\":3647:3652   */\n      0x00\n        /* \"#utility.yul\":3678:3684   */\n      dup2\n        /* \"#utility.yul\":3672:3685   */\n      mload\n        /* \"#utility.yul\":3663:3685   */\n      swap1\n      pop\n        /* \"#utility.yul\":3694:3727   */\n      tag_145\n        /* \"#utility.yul\":3721:3726   */\n      dup2\n        /* \"#utility.yul\":3694:3727   */\n      tag_91\n      jump\t// in\n    tag_145:\n        /* \"#utility.yul\":3590:3733   */\n      swap3\n      swap2\n      pop\n      pop\n      jump\t// out\n        /* \"#utility.yul\":3739:4090   */\n    tag_23:\n        /* \"#utility.yul\":3809:3815   */\n      0x00\n        /* \"#utility.yul\":3858:3860   */\n      0x20\n        /* \"#utility.yul\":3846:3855   */\n      dup3\n        /* \"#utility.yul\":3837:3844   */\n      dup5\n        /* \"#utility.yul\":3833:3856   */\n      sub\n        /* \"#utility.yul\":3829:3861   */\n      slt\n        /* \"#utility.yul\":3826:3945   */\n      iszero\n      tag_147\n      jumpi\n        /* \"#utility.yul\":3864:3943   */\n      tag_148\n      tag_85\n      jump\t// in\n    tag_148:\n        /* \"#utility.yul\":3826:3945   */\n    tag_147:\n        /* \"#utility.yul\":3984:3985   */\n      0x00\n        /* \"#utility.yul\":4009:4073   */\n      tag_149\n        /* \"#utility.yul\":4065:4072   */\n      dup5\n        /* \"#utility.yul\":4056:4062   */\n      dup3\n        /* \"#utility.yul\":4045:4054   */\n      dup6\n        /* \"#utility.yul\":4041:4063   */\n      add\n        /* \"#utility.yul\":4009:4073   */\n      tag_92\n      jump\t// in\n    tag_149:\n        /* \"#utility.yul\":3999:4073   */\n      swap2\n      pop\n        /* \"#utility.yul\":3955:4083   */\n      pop\n        /* \"#utility.yul\":3739:4090   */\n      swap3\n      swap2\n      pop\n      pop\n      jump\t// out\n        /* \"#utility.yul\":4096:4244   */\n    tag_93:\n        /* \"#utility.yul\":4198:4209   */\n      0x00\n        /* \"#utility.yul\":4235:4238   */\n      dup2\n        /* \"#utility.yul\":4220:4238   */\n      swap1\n      pop\n        /* \"#utility.yul\":4096:4244   */\n      swap3\n      swap2\n      pop\n      pop\n      jump\t// out\n        /* \"#utility.yul\":4250:4426   */\n    tag_94:\n        /* \"#utility.yul\":4390:4418   */\n      0x646174613a696d6167652f7376672b786d6c3b6261736536342c000000000000\n        /* \"#utility.yul\":4386:4387   */\n      0x00\n        /* \"#utility.yul\":4378:4384   */\n      dup3\n        /* \"#utility.yul\":4374:4388   */\n      add\n        /* \"#utility.yul\":4367:4419   */\n      mstore\n        /* \"#utility.yul\":4250:4426   */\n      pop\n      jump\t// out\n        /* \"#utility.yul\":4432:4834   */\n    tag_95:\n        /* \"#utility.yul\":4592:4595   */\n      0x00\n        /* \"#utility.yul\":4613:4698   */\n      tag_153\n        /* \"#utility.yul\":4695:4697   */\n      0x1a\n        /* \"#utility.yul\":4690:4693   */\n      dup4\n        /* \"#utility.yul\":4613:4698   */\n      tag_93\n      jump\t// in\n    tag_153:\n        /* \"#utility.yul\":4606:4698   */\n      swap2\n      pop\n        /* \"#utility.yul\":4707:4800   */\n      tag_154\n        /* \"#utility.yul\":4796:4799   */\n      dup3\n        /* \"#utility.yul\":4707:4800   */\n      tag_94\n      jump\t// in\n    tag_154:\n        /* \"#utility.yul\":4825:4827   */\n      0x1a\n        /* \"#utility.yul\":4820:4823   */\n      dup3\n        /* \"#utility.yul\":4816:4828   */\n      add\n        /* \"#utility.yul\":4809:4828   */\n      swap1\n      pop\n        /* \"#utility.yul\":4432:4834   */\n      swap2\n      swap1\n      pop\n      jump\t// out\n        /* \"#utility.yul\":4840:5230   */\n    tag_96:\n        /* \"#utility.yul\":4946:4949   */\n      0x00\n        /* \"#utility.yul\":4974:5013   */\n      tag_156\n        /* \"#utility.yul\":5007:5012   */\n      dup3\n        /* \"#utility.yul\":4974:5013   */\n      tag_79\n      jump\t// in\n    tag_156:\n        /* \"#utility.yul\":5029:5118   */\n      tag_157\n        /* \"#utility.yul\":5111:5117   */\n      dup2\n        /* \"#utility.yul\":5106:5109   */\n      dup6\n        /* \"#utility.yul\":5029:5118   */\n      tag_93\n      jump\t// in\n    tag_157:\n        /* \"#utility.yul\":5022:5118   */\n      swap4\n      pop\n        /* \"#utility.yul\":5127:5192   */\n      tag_158\n        /* \"#utility.yul\":5185:5191   */\n      dup2\n        /* \"#utility.yul\":5180:5183   */\n      dup6\n        /* \"#utility.yul\":5173:5177   */\n      0x20\n        /* \"#utility.yul\":5166:5171   */\n      dup7\n        /* \"#utility.yul\":5162:5178   */\n      add\n        /* \"#utility.yul\":5127:5192   */\n      tag_81\n      jump\t// in\n    tag_158:\n        /* \"#utility.yul\":5217:5223   */\n      dup1\n        /* \"#utility.yul\":5212:5215   */\n      dup5\n        /* \"#utility.yul\":5208:5224   */\n      add\n        /* \"#utility.yul\":5201:5224   */\n      swap2\n      pop\n        /* \"#utility.yul\":4950:5230   */\n      pop\n        /* \"#utility.yul\":4840:5230   */\n      swap3\n      swap2\n      pop\n      pop\n      jump\t// out\n        /* \"#utility.yul\":5236:5777   */\n    tag_31:\n        /* \"#utility.yul\":5469:5472   */\n      0x00\n        /* \"#utility.yul\":5491:5639   */\n      tag_160\n        /* \"#utility.yul\":5635:5638   */\n      dup3\n        /* \"#utility.yul\":5491:5639   */\n      tag_95\n      jump\t// in\n    tag_160:\n        /* \"#utility.yul\":5484:5639   */\n      swap2\n      pop\n        /* \"#utility.yul\":5656:5751   */\n      tag_161\n        /* \"#utility.yul\":5747:5750   */\n      dup3\n        /* \"#utility.yul\":5738:5744   */\n      dup5\n        /* \"#utility.yul\":5656:5751   */\n      tag_96\n      jump\t// in\n    tag_161:\n        /* \"#utility.yul\":5649:5751   */\n      swap2\n      pop\n        /* \"#utility.yul\":5768:5771   */\n      dup2\n        /* \"#utility.yul\":5761:5771   */\n      swap1\n      pop\n        /* \"#utility.yul\":5236:5777   */\n      swap3\n      swap2\n      pop\n      pop\n      jump\t// out\n        /* \"#utility.yul\":5783:5901   */\n    tag_97:\n        /* \"#utility.yul\":5870:5894   */\n      tag_163\n        /* \"#utility.yul\":5888:5893   */\n      dup2\n        /* \"#utility.yul\":5870:5894   */\n      tag_87\n      jump\t// in\n    tag_163:\n        /* \"#utility.yul\":5865:5868   */\n      dup3\n        /* \"#utility.yul\":5858:5895   */\n      mstore\n        /* \"#utility.yul\":5783:5901   */\n      pop\n      pop\n      jump\t// out\n        /* \"#utility.yul\":5907:6349   */\n    tag_45:\n        /* \"#utility.yul\":6056:6060   */\n      0x00\n        /* \"#utility.yul\":6094:6096   */\n      0x60\n        /* \"#utility.yul\":6083:6092   */\n      dup3\n        /* \"#utility.yul\":6079:6097   */\n      add\n        /* \"#utility.yul\":6071:6097   */\n      swap1\n      pop\n        /* \"#utility.yul\":6107:6178   */\n      tag_165\n        /* \"#utility.yul\":6175:6176   */\n      0x00\n        /* \"#utility.yul\":6164:6173   */\n      dup4\n        /* \"#utility.yul\":6160:6177   */\n      add\n        /* \"#utility.yul\":6151:6157   */\n      dup7\n        /* \"#utility.yul\":6107:6178   */\n      tag_97\n      jump\t// in\n    tag_165:\n        /* \"#utility.yul\":6188:6260   */\n      tag_166\n        /* \"#utility.yul\":6256:6258   */\n      0x20\n        /* \"#utility.yul\":6245:6254   */\n      dup4\n        /* \"#utility.yul\":6241:6259   */\n      add\n        /* \"#utility.yul\":6232:6238   */\n      dup6\n        /* \"#utility.yul\":6188:6260   */\n      tag_97\n      jump\t// in\n    tag_166:\n        /* \"#utility.yul\":6270:6342   */\n      tag_167\n        /* \"#utility.yul\":6338:6340   */\n      0x40\n        /* \"#utility.yul\":6327:6336   */\n      dup4\n        /* \"#utility.yul\":6323:6341   */\n      add\n        /* \"#utility.yul\":6314:6320   */\n      dup5\n        /* \"#utility.yul\":6270:6342   */\n      tag_97\n      jump\t// in\n    tag_167:\n        /* \"#utility.yul\":5907:6349   */\n      swap5\n      swap4\n      pop\n      pop\n      pop\n      pop\n      jump\t// out\n        /* \"#utility.yul\":6355:6535   */\n    tag_98:\n        /* \"#utility.yul\":6403:6480   */\n      0x4e487b7100000000000000000000000000000000000000000000000000000000\n        /* \"#utility.yul\":6400:6401   */\n      0x00\n        /* \"#utility.yul\":6393:6481   */\n      mstore\n        /* \"#utility.yul\":6500:6504   */\n      0x11\n        /* \"#utility.yul\":6497:6498   */\n      0x04\n        /* \"#utility.yul\":6490:6505   */\n      mstore\n        /* \"#utility.yul\":6524:6528   */\n      0x24\n        /* \"#utility.yul\":6521:6522   */\n      0x00\n        /* \"#utility.yul\":6514:6529   */\n      revert\n        /* \"#utility.yul\":6541:6951   */\n    tag_52:\n        /* \"#utility.yul\":6581:6588   */\n      0x00\n        /* \"#utility.yul\":6604:6624   */\n      tag_170\n        /* \"#utility.yul\":6622:6623   */\n      dup3\n        /* \"#utility.yul\":6604:6624   */\n      tag_87\n      jump\t// in\n    tag_170:\n        /* \"#utility.yul\":6599:6624   */\n      swap2\n      pop\n        /* \"#utility.yul\":6638:6658   */\n      tag_171\n        /* \"#utility.yul\":6656:6657   */\n      dup4\n        /* \"#utility.yul\":6638:6658   */\n      tag_87\n      jump\t// in\n    tag_171:\n        /* \"#utility.yul\":6633:6658   */\n      swap3\n      pop\n        /* \"#utility.yul\":6693:6694   */\n      dup3\n        /* \"#utility.yul\":6690:6691   */\n      dup3\n        /* \"#utility.yul\":6686:6695   */\n      mul\n        /* \"#utility.yul\":6715:6745   */\n      tag_172\n        /* \"#utility.yul\":6733:6744   */\n      dup2\n        /* \"#utility.yul\":6715:6745   */\n      tag_87\n      jump\t// in\n    tag_172:\n        /* \"#utility.yul\":6704:6745   */\n      swap2\n      pop\n        /* \"#utility.yul\":6894:6895   */\n      dup3\n        /* \"#utility.yul\":6885:6892   */\n      dup3\n        /* \"#utility.yul\":6881:6896   */\n      div\n        /* \"#utility.yul\":6878:6879   */\n      dup5\n        /* \"#utility.yul\":6875:6897   */\n      eq\n        /* \"#utility.yul\":6855:6856   */\n      dup4\n        /* \"#utility.yul\":6848:6857   */\n      iszero\n        /* \"#utility.yul\":6828:6911   */\n      or\n        /* \"#utility.yul\":6805:6944   */\n      tag_173\n      jumpi\n        /* \"#utility.yul\":6924:6942   */\n      tag_174\n      tag_98\n      jump\t// in\n    tag_174:\n        /* \"#utility.yul\":6805:6944   */\n    tag_173:\n        /* \"#utility.yul\":6589:6951   */\n      pop\n        /* \"#utility.yul\":6541:6951   */\n      swap3\n      swap2\n      pop\n      pop\n      jump\t// out\n        /* \"#utility.yul\":6957:7148   */\n    tag_54:\n        /* \"#utility.yul\":6997:7000   */\n      0x00\n        /* \"#utility.yul\":7016:7036   */\n      tag_176\n        /* \"#utility.yul\":7034:7035   */\n      dup3\n        /* \"#utility.yul\":7016:7036   */\n      tag_87\n      jump\t// in\n    tag_176:\n        /* \"#utility.yul\":7011:7036   */\n      swap2\n      pop\n        /* \"#utility.yul\":7050:7070   */\n      tag_177\n        /* \"#utility.yul\":7068:7069   */\n      dup4\n        /* \"#utility.yul\":7050:7070   */\n      tag_87\n      jump\t// in\n    tag_177:\n        /* \"#utility.yul\":7045:7070   */\n      swap3\n      pop\n        /* \"#utility.yul\":7093:7094   */\n      dup3\n        /* \"#utility.yul\":7090:7091   */\n      dup3\n        /* \"#utility.yul\":7086:7095   */\n      add\n        /* \"#utility.yul\":7079:7095   */\n      swap1\n      pop\n        /* \"#utility.yul\":7114:7117   */\n      dup1\n        /* \"#utility.yul\":7111:7112   */\n      dup3\n        /* \"#utility.yul\":7108:7118   */\n      gt\n        /* \"#utility.yul\":7105:7141   */\n      iszero\n      tag_178\n      jumpi\n        /* \"#utility.yul\":7121:7139   */\n      tag_179\n      tag_98\n      jump\t// in\n    tag_179:\n        /* \"#utility.yul\":7105:7141   */\n    tag_178:\n        /* \"#utility.yul\":6957:7148   */\n      swap3\n      swap2\n      pop\n      pop\n      jump\t// out\n        /* \"#utility.yul\":7154:7334   */\n    tag_99:\n        /* \"#utility.yul\":7202:7279   */\n      0x4e487b7100000000000000000000000000000000000000000000000000000000\n        /* \"#utility.yul\":7199:7200   */\n      0x00\n        /* \"#utility.yul\":7192:7280   */\n      mstore\n        /* \"#utility.yul\":7299:7303   */\n      0x12\n        /* \"#utility.yul\":7296:7297   */\n      0x04\n        /* \"#utility.yul\":7289:7304   */\n      mstore\n        /* \"#utility.yul\":7323:7327   */\n      0x24\n        /* \"#utility.yul\":7320:7321   */\n      0x00\n        /* \"#utility.yul\":7313:7328   */\n      revert\n        /* \"#utility.yul\":7340:7525   */\n    tag_56:\n        /* \"#utility.yul\":7380:7381   */\n      0x00\n        /* \"#utility.yul\":7397:7417   */\n      tag_182\n        /* \"#utility.yul\":7415:7416   */\n      dup3\n        /* \"#utility.yul\":7397:7417   */\n      tag_87\n      jump\t// in\n    tag_182:\n        /* \"#utility.yul\":7392:7417   */\n      swap2\n      pop\n        /* \"#utility.yul\":7431:7451   */\n      tag_183\n        /* \"#utility.yul\":7449:7450   */\n      dup4\n        /* \"#utility.yul\":7431:7451   */\n      tag_87\n      jump\t// in\n    tag_183:\n        /* \"#utility.yul\":7426:7451   */\n      swap3\n      pop\n        /* \"#utility.yul\":7470:7471   */\n      dup3\n        /* \"#utility.yul\":7460:7495   */\n      tag_184\n      jumpi\n        /* \"#utility.yul\":7475:7493   */\n      tag_185\n      tag_99\n      jump\t// in\n    tag_185:\n        /* \"#utility.yul\":7460:7495   */\n    tag_184:\n        /* \"#utility.yul\":7517:7518   */\n      dup3\n        /* \"#utility.yul\":7514:7515   */\n      dup3\n        /* \"#utility.yul\":7510:7519   */\n      div\n        /* \"#utility.yul\":7505:7519   */\n      swap1\n      pop\n        /* \"#utility.yul\":7340:7525   */\n      swap3\n      swap2\n      pop\n      pop\n      jump\t// out\n        /* \"#utility.yul\":7531:7711   */\n    tag_63:\n        /* \"#utility.yul\":7579:7656   */\n      0x4e487b7100000000000000000000000000000000000000000000000000000000\n        /* \"#utility.yul\":7576:7577   */\n      0x00\n        /* \"#utility.yul\":7569:7657   */\n      mstore\n        /* \"#utility.yul\":7676:7680   */\n      0x41\n        /* \"#utility.yul\":7673:7674   */\n      0x04\n        /* \"#utility.yul\":7666:7681   */\n      mstore\n        /* \"#utility.yul\":7700:7704   */\n      0x24\n        /* \"#utility.yul\":7697:7698   */\n      0x00\n        /* \"#utility.yul\":7690:7705   */\n      revert\n    stop\n    data_84d8a590de33e00cbdc16e1f28c3506f5ec15c599fab9a6a4bcd575cc2f110ce 4142434445464748494a4b4c4d4e4f505152535455565758595a6162636465666768696a6b6c6d6e6f707172737475767778797a303132333435363738392b2f\n\n    auxdata: 0xa26469706673582212201043721f67aa689ef57e8640f1cdd1eae3dfcb5c128883ae1e628bf99cabd66964736f6c634300081a0033\n}\n",
				"bytecode": {
					"linkReferences": {},
					"object": "608060405234801561000f575f80fd5b50604051610a0f380380610a0f833981810160405281019061003191906100d4565b805f806101000a81548173ffffffffffffffffffffffffffffffffffffffff021916908373ffffffffffffffffffffffffffffffffffffffff160217905550506100ff565b5f80fd5b5f73ffffffffffffffffffffffffffffffffffffffff82169050919050565b5f6100a38261007a565b9050919050565b6100b381610099565b81146100bd575f80fd5b50565b5f815190506100ce816100aa565b92915050565b5f602082840312156100e9576100e8610076565b5b5f6100f6848285016100c0565b91505092915050565b6109038061010c5f395ff3fe608060405234801561000f575f80fd5b506004361061003f575f3560e01c80637fa6a68514610043578063b684b32c14610061578063c87b56dd1461007f575b5f80fd5b61004b6100af565b6040516100589190610508565b60405180910390f35b6100696100d2565b6040516100769190610591565b60405180910390f35b610099600480360381019061009491906105e8565b610173565b6040516100a69190610591565b60405180910390f35b5f8054906101000a900473ffffffffffffffffffffffffffffffffffffffff1681565b60605f805f9054906101000a900473ffffffffffffffffffffffffffffffffffffffff1673ffffffffffffffffffffffffffffffffffffffff1663c42cad216040518163ffffffff1660e01b8152600401602060405180830381865afa15801561013e573d5f803e3d5ffd5b505050506040513d601f19601f82011682018060405250810190610162919061064e565b905061016d816101b5565b91505090565b60605f61017e6100d2565b90505f61018a826101ea565b90508060405160200161019d91906106fd565b60405160208183030381529060405292505050919050565b60606101e38260017fffffffffffffffffffffffffffffffffffffffffffffffffffffffffffffffff610217565b9050919050565b60606102108260405180606001604052806040815260200161088e6040913960016102f5565b9050919050565b60605f61022385610484565b90505f81036102435760405180602001604052805f8152509150506102ee565b808411156102625760405180602001604052805f8152509150506102ee565b838310156102ab578084846040517f2c4a89fa0000000000000000000000000000000000000000000000000000000081526004016102a29392919061072d565b60405180910390fd5b5f84840390505f85830390505f8282106102c557826102c7565b815b90506040519450601f19601f60208301011685016040528085528087602087018a3c505050505b9392505050565b60605f8451036103155760405180602001604052805f815250905061047d565b5f8261034657600360028651600461032d919061078f565b61033791906107d0565b6103419190610830565b61036d565b60036002865161035691906107d0565b6103609190610830565b600461036c919061078f565b5b90505f8167ffffffffffffffff81111561038a57610389610860565b5b6040519080825280601f01601f1916602001820160405280156103bc5781602001600182028036833780820191505090505b509050600185016020820187885189016020810180515f82525b82841015610431576003840193508351603f8160121c168701518653600186019550603f81600c1c168701518653600186019550603f8160061c168701518653600186019550603f81168701518653600186019550506103d6565b80825289156104715760038c51066001811461045457600281146104675761046f565b603d6001870353603d600287035361046f565b603d60018703535b505b50505050505080925050505b9392505050565b5f813b9050919050565b5f73ffffffffffffffffffffffffffffffffffffffff82169050919050565b5f819050919050565b5f6104d06104cb6104c68461048e565b6104ad565b61048e565b9050919050565b5f6104e1826104b6565b9050919050565b5f6104f2826104d7565b9050919050565b610502816104e8565b82525050565b5f60208201905061051b5f8301846104f9565b92915050565b5f81519050919050565b5f82825260208201905092915050565b8281835e5f83830152505050565b5f601f19601f8301169050919050565b5f61056382610521565b61056d818561052b565b935061057d81856020860161053b565b61058681610549565b840191505092915050565b5f6020820190508181035f8301526105a98184610559565b905092915050565b5f80fd5b5f819050919050565b6105c7816105b5565b81146105d1575f80fd5b50565b5f813590506105e2816105be565b92915050565b5f602082840312156105fd576105fc6105b1565b5b5f61060a848285016105d4565b91505092915050565b5f61061d8261048e565b9050919050565b61062d81610613565b8114610637575f80fd5b50565b5f8151905061064881610624565b92915050565b5f60208284031215610663576106626105b1565b5b5f6106708482850161063a565b91505092915050565b5f81905092915050565b7f646174613a696d6167652f7376672b786d6c3b6261736536342c0000000000005f82015250565b5f6106b7601a83610679565b91506106c282610683565b601a82019050919050565b5f6106d782610521565b6106e18185610679565b93506106f181856020860161053b565b80840191505092915050565b5f610707826106ab565b915061071382846106cd565b915081905092915050565b610727816105b5565b82525050565b5f6060820190506107405f83018661071e565b61074d602083018561071e565b61075a604083018461071e565b949350505050565b7f4e487b71000000000000000000000000000000000000000000000000000000005f52601160045260245ffd5b5f610799826105b5565b91506107a4836105b5565b92508282026107b2816105b5565b915082820484148315176107c9576107c8610762565b5b5092915050565b5f6107da826105b5565b91506107e5836105b5565b92508282019050808211156107fd576107fc610762565b5b92915050565b7f4e487b71000000000000000000000000000000000000000000000000000000005f52601260045260245ffd5b5f61083a826105b5565b9150610845836105b5565b92508261085557610854610803565b5b828204905092915050565b7f4e487b71000000000000000000000000000000000000000000000000000000005f52604160045260245ffdfe4142434445464748494a4b4c4d4e4f505152535455565758595a6162636465666768696a6b6c6d6e6f707172737475767778797a303132333435363738392b2fa26469706673582212201043721f67aa689ef57e8640f1cdd1eae3dfcb5c128883ae1e628bf99cabd66964736f6c634300081a0033",
					"opcodes": "PUSH1 0x80 PUSH1 0x40 MSTORE CALLVALUE DUP1 ISZERO PUSH2 0xF JUMPI PUSH0 DUP1 REVERT JUMPDEST POP PUSH1 0x40 MLOAD PUSH2 0xA0F CODESIZE SUB DUP1 PUSH2 0xA0F DUP4 CODECOPY DUP2 DUP2 ADD PUSH1 0x40 MSTORE DUP2 ADD SWAP1 PUSH2 0x31 SWAP2 SWAP1 PUSH2 0xD4 JUMP JUMPDEST DUP1 PUSH0 DUP1 PUSH2 0x100 EXP DUP2 SLOAD DUP2 PUSH20 0xFFFFFFFFFFFFFFFFFFFFFFFFFFFFFFFFFFFFFFFF MUL NOT AND SWAP1 DUP4 PUSH20 0xFFFFFFFFFFFFFFFFFFFFFFFFFFFFFFFFFFFFFFFF AND MUL OR SWAP1 SSTORE POP POP PUSH2 0xFF JUMP JUMPDEST PUSH0 DUP1 REVERT JUMPDEST PUSH0 PUSH20 0xFFFFFFFFFFFFFFFFFFFFFFFFFFFFFFFFFFFFFFFF DUP3 AND SWAP1 POP SWAP2 SWAP1 POP JUMP JUMPDEST PUSH0 PUSH2 0xA3 DUP3 PUSH2 0x7A JUMP JUMPDEST SWAP1 POP SWAP2 SWAP1 POP JUMP JUMPDEST PUSH2 0xB3 DUP2 PUSH2 0x99 JUMP JUMPDEST DUP2 EQ PUSH2 0xBD JUMPI PUSH0 DUP1 REVERT JUMPDEST POP JUMP JUMPDEST PUSH0 DUP2 MLOAD SWAP1 POP PUSH2 0xCE DUP2 PUSH2 0xAA JUMP JUMPDEST SWAP3 SWAP2 POP POP JUMP JUMPDEST PUSH0 PUSH1 0x20 DUP3 DUP5 SUB SLT ISZERO PUSH2 0xE9 JUMPI PUSH2 0xE8 PUSH2 0x76 JUMP JUMPDEST JUMPDEST PUSH0 PUSH2 0xF6 DUP5 DUP3 DUP6 ADD PUSH2 0xC0 JUMP JUMPDEST SWAP2 POP POP SWAP3 SWAP2 POP POP JUMP JUMPDEST PUSH2 0x903 DUP1 PUSH2 0x10C PUSH0 CODECOPY PUSH0 RETURN INVALID PUSH1 0x80 PUSH1 0x40 MSTORE CALLVALUE DUP1 ISZERO PUSH2 0xF JUMPI PUSH0 DUP1 REVERT JUMPDEST POP PUSH1 0x4 CALLDATASIZE LT PUSH2 0x3F JUMPI PUSH0 CALLDATALOAD PUSH1 0xE0 SHR DUP1 PUSH4 0x7FA6A685 EQ PUSH2 0x43 JUMPI DUP1 PUSH4 0xB684B32C EQ PUSH2 0x61 JUMPI DUP1 PUSH4 0xC87B56DD EQ PUSH2 0x7F JUMPI JUMPDEST PUSH0 DUP1 REVERT JUMPDEST PUSH2 0x4B PUSH2 0xAF JUMP JUMPDEST PUSH1 0x40 MLOAD PUSH2 0x58 SWAP2 SWAP1 PUSH2 0x508 JUMP JUMPDEST PUSH1 0x40 MLOAD DUP1 SWAP2 SUB SWAP1 RETURN JUMPDEST PUSH2 0x69 PUSH2 0xD2 JUMP JUMPDEST PUSH1 0x40 MLOAD PUSH2 0x76 SWAP2 SWAP1 PUSH2 0x591 JUMP JUMPDEST PUSH1 0x40 MLOAD DUP1 SWAP2 SUB SWAP1 RETURN JUMPDEST PUSH2 0x99 PUSH1 0x4 DUP1 CALLDATASIZE SUB DUP2 ADD SWAP1 PUSH2 0x94 SWAP2 SWAP1 PUSH2 0x5E8 JUMP JUMPDEST PUSH2 0x173 JUMP JUMPDEST PUSH1 0x40 MLOAD PUSH2 0xA6 SWAP2 SWAP1 PUSH2 0x591 JUMP JUMPDEST PUSH1 0x40 MLOAD DUP1 SWAP2 SUB SWAP1 RETURN JUMPDEST PUSH0 DUP1 SLOAD SWAP1 PUSH2 0x100 EXP SWAP1 DIV PUSH20 0xFFFFFFFFFFFFFFFFFFFFFFFFFFFFFFFFFFFFFFFF AND DUP2 JUMP JUMPDEST PUSH1 0x60 PUSH0 DUP1 PUSH0 SWAP1 SLOAD SWAP1 PUSH2 0x100 EXP SWAP1 DIV PUSH20 0xFFFFFFFFFFFFFFFFFFFFFFFFFFFFFFFFFFFFFFFF AND PUSH20 0xFFFFFFFFFFFFFFFFFFFFFFFFFFFFFFFFFFFFFFFF AND PUSH4 0xC42CAD21 PUSH1 0x40 MLOAD DUP2 PUSH4 0xFFFFFFFF AND PUSH1 0xE0 SHL DUP2 MSTORE PUSH1 0x4 ADD PUSH1 0x20 PUSH1 0x40 MLOAD DUP1 DUP4 SUB DUP2 DUP7 GAS STATICCALL ISZERO DUP1 ISZERO PUSH2 0x13E JUMPI RETURNDATASIZE PUSH0 DUP1 RETURNDATACOPY RETURNDATASIZE PUSH0 REVERT JUMPDEST POP POP POP POP PUSH1 0x40 MLOAD RETURNDATASIZE PUSH1 0x1F NOT PUSH1 0x1F DUP3 ADD AND DUP3 ADD DUP1 PUSH1 0x40 MSTORE POP DUP2 ADD SWAP1 PUSH2 0x162 SWAP2 SWAP1 PUSH2 0x64E JUMP JUMPDEST SWAP1 POP PUSH2 0x16D DUP2 PUSH2 0x1B5 JUMP JUMPDEST SWAP2 POP POP SWAP1 JUMP JUMPDEST PUSH1 0x60 PUSH0 PUSH2 0x17E PUSH2 0xD2 JUMP JUMPDEST SWAP1 POP PUSH0 PUSH2 0x18A DUP3 PUSH2 0x1EA JUMP JUMPDEST SWAP1 POP DUP1 PUSH1 0x40 MLOAD PUSH1 0x20 ADD PUSH2 0x19D SWAP2 SWAP1 PUSH2 0x6FD JUMP JUMPDEST PUSH1 0x40 MLOAD PUSH1 0x20 DUP2 DUP4 SUB SUB DUP2 MSTORE SWAP1 PUSH1 0x40 MSTORE SWAP3 POP POP POP SWAP2 SWAP1 POP JUMP JUMPDEST PUSH1 0x60 PUSH2 0x1E3 DUP3 PUSH1 0x1 PUSH32 0xFFFFFFFFFFFFFFFFFFFFFFFFFFFFFFFFFFFFFFFFFFFFFFFFFFFFFFFFFFFFFFFF PUSH2 0x217 JUMP JUMPDEST SWAP1 POP SWAP2 SWAP1 POP JUMP JUMPDEST PUSH1 0x60 PUSH2 0x210 DUP3 PUSH1 0x40 MLOAD DUP1 PUSH1 0x60 ADD PUSH1 0x40 MSTORE DUP1 PUSH1 0x40 DUP2 MSTORE PUSH1 0x20 ADD PUSH2 0x88E PUSH1 0x40 SWAP2 CODECOPY PUSH1 0x1 PUSH2 0x2F5 JUMP JUMPDEST SWAP1 POP SWAP2 SWAP1 POP JUMP JUMPDEST PUSH1 0x60 PUSH0 PUSH2 0x223 DUP6 PUSH2 0x484 JUMP JUMPDEST SWAP1 POP PUSH0 DUP2 SUB PUSH2 0x243 JUMPI PUSH1 0x40 MLOAD DUP1 PUSH1 0x20 ADD PUSH1 0x40 MSTORE DUP1 PUSH0 DUP2 MSTORE POP SWAP2 POP POP PUSH2 0x2EE JUMP JUMPDEST DUP1 DUP5 GT ISZERO PUSH2 0x262 JUMPI PUSH1 0x40 MLOAD DUP1 PUSH1 0x20 ADD PUSH1 0x40 MSTORE DUP1 PUSH0 DUP2 MSTORE POP SWAP2 POP POP PUSH2 0x2EE JUMP JUMPDEST DUP4 DUP4 LT ISZERO PUSH2 0x2AB JUMPI DUP1 DUP5 DUP5 PUSH1 0x40 MLOAD PUSH32 0x2C4A89FA00000000000000000000000000000000000000000000000000000000 DUP2 MSTORE PUSH1 0x4 ADD PUSH2 0x2A2 SWAP4 SWAP3 SWAP2 SWAP1 PUSH2 0x72D JUMP JUMPDEST PUSH1 0x40 MLOAD DUP1 SWAP2 SUB SWAP1 REVERT JUMPDEST PUSH0 DUP5 DUP5 SUB SWAP1 POP PUSH0 DUP6 DUP4 SUB SWAP1 POP PUSH0 DUP3 DUP3 LT PUSH2 0x2C5 JUMPI DUP3 PUSH2 0x2C7 JUMP JUMPDEST DUP2 JUMPDEST SWAP1 POP PUSH1 0x40 MLOAD SWAP5 POP PUSH1 0x1F NOT PUSH1 0x1F PUSH1 0x20 DUP4 ADD ADD AND DUP6 ADD PUSH1 0x40 MSTORE DUP1 DUP6 MSTORE DUP1 DUP8 PUSH1 0x20 DUP8 ADD DUP11 EXTCODECOPY POP POP POP POP JUMPDEST SWAP4 SWAP3 POP POP POP JUMP JUMPDEST PUSH1 0x60 PUSH0 DUP5 MLOAD SUB PUSH2 0x315 JUMPI PUSH1 0x40 MLOAD DUP1 PUSH1 0x20 ADD PUSH1 0x40 MSTORE DUP1 PUSH0 DUP2 MSTORE POP SWAP1 POP PUSH2 0x47D JUMP JUMPDEST PUSH0 DUP3 PUSH2 0x346 JUMPI PUSH1 0x3 PUSH1 0x2 DUP7 MLOAD PUSH1 0x4 PUSH2 0x32D SWAP2 SWAP1 PUSH2 0x78F JUMP JUMPDEST PUSH2 0x337 SWAP2 SWAP1 PUSH2 0x7D0 JUMP JUMPDEST PUSH2 0x341 SWAP2 SWAP1 PUSH2 0x830 JUMP JUMPDEST PUSH2 0x36D JUMP JUMPDEST PUSH1 0x3 PUSH1 0x2 DUP7 MLOAD PUSH2 0x356 SWAP2 SWAP1 PUSH2 0x7D0 JUMP JUMPDEST PUSH2 0x360 SWAP2 SWAP1 PUSH2 0x830 JUMP JUMPDEST PUSH1 0x4 PUSH2 0x36C SWAP2 SWAP1 PUSH2 0x78F JUMP JUMPDEST JUMPDEST SWAP1 POP PUSH0 DUP2 PUSH8 0xFFFFFFFFFFFFFFFF DUP2 GT ISZERO PUSH2 0x38A JUMPI PUSH2 0x389 PUSH2 0x860 JUMP JUMPDEST JUMPDEST PUSH1 0x40 MLOAD SWAP1 DUP1 DUP3 MSTORE DUP1 PUSH1 0x1F ADD PUSH1 0x1F NOT AND PUSH1 0x20 ADD DUP3 ADD PUSH1 0x40 MSTORE DUP1 ISZERO PUSH2 0x3BC JUMPI DUP2 PUSH1 0x20 ADD PUSH1 0x1 DUP3 MUL DUP1 CALLDATASIZE DUP4 CALLDATACOPY DUP1 DUP3 ADD SWAP2 POP POP SWAP1 POP JUMPDEST POP SWAP1 POP PUSH1 0x1 DUP6 ADD PUSH1 0x20 DUP3 ADD DUP8 DUP9 MLOAD DUP10 ADD PUSH1 0x20 DUP2 ADD DUP1 MLOAD PUSH0 DUP3 MSTORE JUMPDEST DUP3 DUP5 LT ISZERO PUSH2 0x431 JUMPI PUSH1 0x3 DUP5 ADD SWAP4 POP DUP4 MLOAD PUSH1 0x3F DUP2 PUSH1 0x12 SHR AND DUP8 ADD MLOAD DUP7 MSTORE8 PUSH1 0x1 DUP7 ADD SWAP6 POP PUSH1 0x3F DUP2 PUSH1 0xC SHR AND DUP8 ADD MLOAD DUP7 MSTORE8 PUSH1 0x1 DUP7 ADD SWAP6 POP PUSH1 0x3F DUP2 PUSH1 0x6 SHR AND DUP8 ADD MLOAD DUP7 MSTORE8 PUSH1 0x1 DUP7 ADD SWAP6 POP PUSH1 0x3F DUP2 AND DUP8 ADD MLOAD DUP7 MSTORE8 PUSH1 0x1 DUP7 ADD SWAP6 POP POP PUSH2 0x3D6 JUMP JUMPDEST DUP1 DUP3 MSTORE DUP10 ISZERO PUSH2 0x471 JUMPI PUSH1 0x3 DUP13 MLOAD MOD PUSH1 0x1 DUP2 EQ PUSH2 0x454 JUMPI PUSH1 0x2 DUP2 EQ PUSH2 0x467 JUMPI PUSH2 0x46F JUMP JUMPDEST PUSH1 0x3D PUSH1 0x1 DUP8 SUB MSTORE8 PUSH1 0x3D PUSH1 0x2 DUP8 SUB MSTORE8 PUSH2 0x46F JUMP JUMPDEST PUSH1 0x3D PUSH1 0x1 DUP8 SUB MSTORE8 JUMPDEST POP JUMPDEST POP POP POP POP POP POP DUP1 SWAP3 POP POP POP JUMPDEST SWAP4 SWAP3 POP POP POP JUMP JUMPDEST PUSH0 DUP2 EXTCODESIZE SWAP1 POP SWAP2 SWAP1 POP JUMP JUMPDEST PUSH0 PUSH20 0xFFFFFFFFFFFFFFFFFFFFFFFFFFFFFFFFFFFFFFFF DUP3 AND SWAP1 POP SWAP2 SWAP1 POP JUMP JUMPDEST PUSH0 DUP2 SWAP1 POP SWAP2 SWAP1 POP JUMP JUMPDEST PUSH0 PUSH2 0x4D0 PUSH2 0x4CB PUSH2 0x4C6 DUP5 PUSH2 0x48E JUMP JUMPDEST PUSH2 0x4AD JUMP JUMPDEST PUSH2 0x48E JUMP JUMPDEST SWAP1 POP SWAP2 SWAP1 POP JUMP JUMPDEST PUSH0 PUSH2 0x4E1 DUP3 PUSH2 0x4B6 JUMP JUMPDEST SWAP1 POP SWAP2 SWAP1 POP JUMP JUMPDEST PUSH0 PUSH2 0x4F2 DUP3 PUSH2 0x4D7 JUMP JUMPDEST SWAP1 POP SWAP2 SWAP1 POP JUMP JUMPDEST PUSH2 0x502 DUP2 PUSH2 0x4E8 JUMP JUMPDEST DUP3 MSTORE POP POP JUMP JUMPDEST PUSH0 PUSH1 0x20 DUP3 ADD SWAP1 POP PUSH2 0x51B PUSH0 DUP4 ADD DUP5 PUSH2 0x4F9 JUMP JUMPDEST SWAP3 SWAP2 POP POP JUMP JUMPDEST PUSH0 DUP2 MLOAD SWAP1 POP SWAP2 SWAP1 POP JUMP JUMPDEST PUSH0 DUP3 DUP3 MSTORE PUSH1 0x20 DUP3 ADD SWAP1 POP SWAP3 SWAP2 POP POP JUMP JUMPDEST DUP3 DUP2 DUP4 MCOPY PUSH0 DUP4 DUP4 ADD MSTORE POP POP POP JUMP JUMPDEST PUSH0 PUSH1 0x1F NOT PUSH1 0x1F DUP4 ADD AND SWAP1 POP SWAP2 SWAP1 POP JUMP JUMPDEST PUSH0 PUSH2 0x563 DUP3 PUSH2 0x521 JUMP JUMPDEST PUSH2 0x56D DUP2 DUP6 PUSH2 0x52B JUMP JUMPDEST SWAP4 POP PUSH2 0x57D DUP2 DUP6 PUSH1 0x20 DUP7 ADD PUSH2 0x53B JUMP JUMPDEST PUSH2 0x586 DUP2 PUSH2 0x549 JUMP JUMPDEST DUP5 ADD SWAP2 POP POP SWAP3 SWAP2 POP POP JUMP JUMPDEST PUSH0 PUSH1 0x20 DUP3 ADD SWAP1 POP DUP2 DUP2 SUB PUSH0 DUP4 ADD MSTORE PUSH2 0x5A9 DUP2 DUP5 PUSH2 0x559 JUMP JUMPDEST SWAP1 POP SWAP3 SWAP2 POP POP JUMP JUMPDEST PUSH0 DUP1 REVERT JUMPDEST PUSH0 DUP2 SWAP1 POP SWAP2 SWAP1 POP JUMP JUMPDEST PUSH2 0x5C7 DUP2 PUSH2 0x5B5 JUMP JUMPDEST DUP2 EQ PUSH2 0x5D1 JUMPI PUSH0 DUP1 REVERT JUMPDEST POP JUMP JUMPDEST PUSH0 DUP2 CALLDATALOAD SWAP1 POP PUSH2 0x5E2 DUP2 PUSH2 0x5BE JUMP JUMPDEST SWAP3 SWAP2 POP POP JUMP JUMPDEST PUSH0 PUSH1 0x20 DUP3 DUP5 SUB SLT ISZERO PUSH2 0x5FD JUMPI PUSH2 0x5FC PUSH2 0x5B1 JUMP JUMPDEST JUMPDEST PUSH0 PUSH2 0x60A DUP5 DUP3 DUP6 ADD PUSH2 0x5D4 JUMP JUMPDEST SWAP2 POP POP SWAP3 SWAP2 POP POP JUMP JUMPDEST PUSH0 PUSH2 0x61D DUP3 PUSH2 0x48E JUMP JUMPDEST SWAP1 POP SWAP2 SWAP1 POP JUMP JUMPDEST PUSH2 0x62D DUP2 PUSH2 0x613 JUMP JUMPDEST DUP2 EQ PUSH2 0x637 JUMPI PUSH0 DUP1 REVERT JUMPDEST POP JUMP JUMPDEST PUSH0 DUP2 MLOAD SWAP1 POP PUSH2 0x648 DUP2 PUSH2 0x624 JUMP JUMPDEST SWAP3 SWAP2 POP POP JUMP JUMPDEST PUSH0 PUSH1 0x20 DUP3 DUP5 SUB SLT ISZERO PUSH2 0x663 JUMPI PUSH2 0x662 PUSH2 0x5B1 JUMP JUMPDEST JUMPDEST PUSH0 PUSH2 0x670 DUP5 DUP3 DUP6 ADD PUSH2 0x63A JUMP JUMPDEST SWAP2 POP POP SWAP3 SWAP2 POP POP JUMP JUMPDEST PUSH0 DUP2 SWAP1 POP SWAP3 SWAP2 POP POP JUMP JUMPDEST PUSH32 0x646174613A696D6167652F7376672B786D6C3B6261736536342C000000000000 PUSH0 DUP3 ADD MSTORE POP JUMP JUMPDEST PUSH0 PUSH2 0x6B7 PUSH1 0x1A DUP4 PUSH2 0x679 JUMP JUMPDEST SWAP2 POP PUSH2 0x6C2 DUP3 PUSH2 0x683 JUMP JUMPDEST PUSH1 0x1A DUP3 ADD SWAP1 POP SWAP2 SWAP1 POP JUMP JUMPDEST PUSH0 PUSH2 0x6D7 DUP3 PUSH2 0x521 JUMP JUMPDEST PUSH2 0x6E1 DUP2 DUP6 PUSH2 0x679 JUMP JUMPDEST SWAP4 POP PUSH2 0x6F1 DUP2 DUP6 PUSH1 0x20 DUP7 ADD PUSH2 0x53B JUMP JUMPDEST DUP1 DUP5 ADD SWAP2 POP POP SWAP3 SWAP2 POP POP JUMP JUMPDEST PUSH0 PUSH2 0x707 DUP3 PUSH2 0x6AB JUMP JUMPDEST SWAP2 POP PUSH2 0x713 DUP3 DUP5 PUSH2 0x6CD JUMP JUMPDEST SWAP2 POP DUP2 SWAP1 POP SWAP3 SWAP2 POP POP JUMP JUMPDEST PUSH2 0x727 DUP2 PUSH2 0x5B5 JUMP JUMPDEST DUP3 MSTORE POP POP JUMP JUMPDEST PUSH0 PUSH1 0x60 DUP3 ADD SWAP1 POP PUSH2 0x740 PUSH0 DUP4 ADD DUP7 PUSH2 0x71E JUMP JUMPDEST PUSH2 0x74D PUSH1 0x20 DUP4 ADD DUP6 PUSH2 0x71E JUMP JUMPDEST PUSH2 0x75A PUSH1 0x40 DUP4 ADD DUP5 PUSH2 0x71E JUMP JUMPDEST SWAP5 SWAP4 POP POP POP POP JUMP JUMPDEST PUSH32 0x4E487B7100000000000000000000000000000000000000000000000000000000 PUSH0 MSTORE PUSH1 0x11 PUSH1 0x4 MSTORE PUSH1 0x24 PUSH0 REVERT JUMPDEST PUSH0 PUSH2 0x799 DUP3 PUSH2 0x5B5 JUMP JUMPDEST SWAP2 POP PUSH2 0x7A4 DUP4 PUSH2 0x5B5 JUMP JUMPDEST SWAP3 POP DUP3 DUP3 MUL PUSH2 0x7B2 DUP2 PUSH2 0x5B5 JUMP JUMPDEST SWAP2 POP DUP3 DUP3 DIV DUP5 EQ DUP4 ISZERO OR PUSH2 0x7C9 JUMPI PUSH2 0x7C8 PUSH2 0x762 JUMP JUMPDEST JUMPDEST POP SWAP3 SWAP2 POP POP JUMP JUMPDEST PUSH0 PUSH2 0x7DA DUP3 PUSH2 0x5B5 JUMP JUMPDEST SWAP2 POP PUSH2 0x7E5 DUP4 PUSH2 0x5B5 JUMP JUMPDEST SWAP3 POP DUP3 DUP3 ADD SWAP1 POP DUP1 DUP3 GT ISZERO PUSH2 0x7FD JUMPI PUSH2 0x7FC PUSH2 0x762 JUMP JUMPDEST JUMPDEST SWAP3 SWAP2 POP POP JUMP JUMPDEST PUSH32 0x4E487B7100000000000000000000000000000000000000000000000000000000 PUSH0 MSTORE PUSH1 0x12 PUSH1 0x4 MSTORE PUSH1 0x24 PUSH0 REVERT JUMPDEST PUSH0 PUSH2 0x83A DUP3 PUSH2 0x5B5 JUMP JUMPDEST SWAP2 POP PUSH2 0x845 DUP4 PUSH2 0x5B5 JUMP JUMPDEST SWAP3 POP DUP3 PUSH2 0x855 JUMPI PUSH2 0x854 PUSH2 0x803 JUMP JUMPDEST JUMPDEST DUP3 DUP3 DIV SWAP1 POP SWAP3 SWAP2 POP POP JUMP JUMPDEST PUSH32 0x4E487B7100000000000000000000000000000000000000000000000000000000 PUSH0 MSTORE PUSH1 0x41 PUSH1 0x4 MSTORE PUSH1 0x24 PUSH0 REVERT INVALID COINBASE TIMESTAMP NUMBER PREVRANDAO GASLIMIT CHAINID SELFBALANCE BASEFEE BLOBHASH BLOBBASEFEE 0x4B 0x4C 0x4D 0x4E 0x4F POP MLOAD MSTORE MSTORE8 SLOAD SSTORE JUMP JUMPI PC MSIZE GAS PUSH2 0x6263 PUSH5 0x6566676869 PUSH11 0x6B6C6D6E6F707172737475 PUSH23 0x7778797A303132333435363738392B2FA2646970667358 0x22 SLT KECCAK256 LT NUMBER PUSH19 0x1F67AA689EF57E8640F1CDD1EAE3DFCB5C1288 DUP4 0xAE 0x1E PUSH3 0x8BF99C 0xAB 0xD6 PUSH10 0x64736F6C634300081A00 CALLER "
				},
				"gasEstimates": {
					"creation": {
						"codeDepositCost": "461400",
						"executionCost": "infinite",
						"totalCost": "infinite"
					},
					"external": {
						"getMandalaSVG()": "infinite",
						"svgStorage()": "infinite",
						"tokenURI(uint256)": "infinite"
					}
				},
				"methodIdentifiers": {
					"getMandalaSVG()": "b684b32c",
					"svgStorage()": "7fa6a685",
					"tokenURI(uint256)": "c87b56dd"
				}
			},
			"storageLayout": {
				"storage": [
					{
						"astId": 12,
						"contract": "contracts/HashJingCore.sol:HashJingCore",
						"label": "svgStorage",
						"offset": 0,
						"slot": "0",
						"type": "t_contract(IHashJingSVGStorage)9"
					}
				],
				"types": {
					"t_contract(IHashJingSVGStorage)9": {
						"encoding": "inplace",
						"label": "contract IHashJingSVGStorage",
						"numberOfBytes": "20"
					}
				}
			},
			"userdoc": {
				"kind": "user",
				"methods": {},
				"version": 1
			}
		}
	}
}