{
	"contracts/HashJingSVGStorage1.sol": {
		"HashJingSVGStorage1": {
			"abi": [
				{
					"inputs": [],
					"stateMutability": "nonpayable",
					"type": "constructor"
				},
				{
					"inputs": [
						{
							"internalType": "uint256",
							"name": "_size",
							"type": "uint256"
						},
						{
							"internalType": "uint256",
							"name": "_start",
							"type": "uint256"
						},
						{
							"internalType": "uint256",
							"name": "_end",
							"type": "uint256"
						}
					],
					"name": "InvalidCodeAtRange",
					"type": "error"
				},
				{
					"inputs": [],
					"name": "WriteError",
					"type": "error"
				},
				{
					"inputs": [],
					"name": "head",
					"outputs": [
						{
							"internalType": "bytes",
							"name": "",
							"type": "bytes"
						}
					],
					"stateMutability": "view",
					"type": "function"
				},
				{
					"inputs": [],
					"name": "headPtr",
					"outputs": [
						{
							"internalType": "address",
							"name": "",
							"type": "address"
						}
					],
					"stateMutability": "view",
					"type": "function"
				},
				{
					"inputs": [
						{
							"internalType": "uint256",
							"name": "i",
							"type": "uint256"
						}
					],
					"name": "prefix",
					"outputs": [
						{
							"internalType": "bytes",
							"name": "",
							"type": "bytes"
						}
					],
					"stateMutability": "view",
					"type": "function"
				},
				{
					"inputs": [
						{
							"internalType": "uint256",
							"name": "",
							"type": "uint256"
						}
					],
					"name": "prefixPtr",
					"outputs": [
						{
							"internalType": "address",
							"name": "",
							"type": "address"
						}
					],
					"stateMutability": "view",
					"type": "function"
				},
				{
					"inputs": [],
					"name": "tail",
					"outputs": [
						{
							"internalType": "bytes",
							"name": "",
							"type": "bytes"
						}
					],
					"stateMutability": "view",
					"type": "function"
				},
				{
					"inputs": [],
					"name": "tailPtr",
					"outputs": [
						{
							"internalType": "address",
							"name": "",
							"type": "address"
						}
					],
					"stateMutability": "view",
					"type": "function"
				},
				{
					"inputs": [
						{
							"internalType": "uint256",
							"name": "i",
							"type": "uint256"
						}
					],
					"name": "textPrefix",
					"outputs": [
						{
							"internalType": "bytes",
							"name": "",
							"type": "bytes"
						}
					],
					"stateMutability": "view",
					"type": "function"
				},
				{
					"inputs": [
						{
							"internalType": "uint256",
							"name": "",
							"type": "uint256"
						}
					],
					"name": "textPrefixPtr",
					"outputs": [
						{
							"internalType": "address",
							"name": "",
							"type": "address"
						}
					],
					"stateMutability": "view",
					"type": "function"
				}
			],
			"devdoc": {
				"kind": "dev",
				"methods": {},
				"version": 1
			},
			"evm": {
				"assembly": "    /* \"contracts/HashJingSVGStorage1.sol\":83:4804  contract HashJingSVGStorage1 {... */\n  mstore(0x40, 0x80)\n    /* \"contracts/HashJingSVGStorage1.sol\":646:4312  constructor() {... */\n  callvalue\n  dup1\n  iszero\n  tag_1\n  jumpi\n  0x00\n  dup1\n  revert\ntag_1:\n  pop\n    /* \"contracts/HashJingSVGStorage1.sol\":718:1309  SSTORE2.write(... */\n  tag_4\n  mload(0x40)\n  dup1\n  0xc0\n  add\n  0x40\n  mstore\n  dup1\n  0x9f\n  dup2\n  mstore\n  0x20\n  add\n  data_c5da382a972d2beb7401cda6ca37c7fa0eb0c82b049a9ad3e6ef141c8413fcc1\n  0x9f\n  swap2\n  codecopy\n    /* \"contracts/HashJingSVGStorage1.sol\":718:731  SSTORE2.write */\n  shl(0x20, tag_5)\n    /* \"contracts/HashJingSVGStorage1.sol\":718:1309  SSTORE2.write(... */\n  0x20\n  shr\n  jump\t// in\ntag_4:\n    /* \"contracts/HashJingSVGStorage1.sol\":708:715  headPtr */\n  0x00\n  dup1\n    /* \"contracts/HashJingSVGStorage1.sol\":708:1309  headPtr = SSTORE2.write(... */\n  0x0100\n  exp\n  dup2\n  sload\n  dup2\n  0xffffffffffffffffffffffffffffffffffffffff\n  mul\n  not\n  and\n  swap1\n  dup4\n  0xffffffffffffffffffffffffffffffffffffffff\n  and\n  mul\n  or\n  swap1\n  sstore\n  pop\n    /* \"contracts/HashJingSVGStorage1.sol\":1354:1386  SSTORE2.write(hex\"3c2f7376673e\") */\n  tag_6\n  mload(0x40)\n  dup1\n  0x40\n  add\n  0x40\n  mstore\n  dup1\n  0x06\n  dup2\n  mstore\n  0x20\n  add\n  0x3c2f7376673e0000000000000000000000000000000000000000000000000000\n  dup2\n  mstore\n  pop\n    /* \"contracts/HashJingSVGStorage1.sol\":1354:1367  SSTORE2.write */\n  shl(0x20, tag_5)\n    /* \"contracts/HashJingSVGStorage1.sol\":1354:1386  SSTORE2.write(hex\"3c2f7376673e\") */\n  0x20\n  shr\n  jump\t// in\ntag_6:\n    /* \"contracts/HashJingSVGStorage1.sol\":1344:1351  tailPtr */\n  0x01\n  0x00\n    /* \"contracts/HashJingSVGStorage1.sol\":1344:1386  tailPtr = SSTORE2.write(hex\"3c2f7376673e\") */\n  0x0100\n  exp\n  dup2\n  sload\n  dup2\n  0xffffffffffffffffffffffffffffffffffffffff\n  mul\n  not\n  and\n  swap1\n  dup4\n  0xffffffffffffffffffffffffffffffffffffffff\n  and\n  mul\n  or\n  swap1\n  sstore\n  pop\n    /* \"contracts/HashJingSVGStorage1.sol\":1486:1876  SSTORE2.write(... */\n  tag_7\n  mload(0x40)\n  dup1\n  0xe0\n  add\n  0x40\n  mstore\n  dup1\n  0xae\n  dup2\n  mstore\n  0x20\n  add\n  data_03b927c59517b0e4efd5d9bd88bbf6569d9beb39df1baa6fb16d0e4cf221b164\n  0xae\n  swap2\n  codecopy\n    /* \"contracts/HashJingSVGStorage1.sol\":1486:1499  SSTORE2.write */\n  shl(0x20, tag_5)\n    /* \"contracts/HashJingSVGStorage1.sol\":1486:1876  SSTORE2.write(... */\n  0x20\n  shr\n  jump\t// in\ntag_7:\n    /* \"contracts/HashJingSVGStorage1.sol\":1471:1480  prefixPtr */\n  0x02\n    /* \"contracts/HashJingSVGStorage1.sol\":1481:1482  0 */\n  0x00\n    /* \"contracts/HashJingSVGStorage1.sol\":1471:1483  prefixPtr[0] */\n  0x04\n  dup2\n  lt\n  tag_8\n  jumpi\n  tag_9\n  tag_10\n  jump\t// in\ntag_9:\ntag_8:\n  add\n  0x00\n    /* \"contracts/HashJingSVGStorage1.sol\":1471:1876  prefixPtr[0] = SSTORE2.write(... */\n  0x0100\n  exp\n  dup2\n  sload\n  dup2\n  0xffffffffffffffffffffffffffffffffffffffff\n  mul\n  not\n  and\n  swap1\n  dup4\n  0xffffffffffffffffffffffffffffffffffffffff\n  and\n  mul\n  or\n  swap1\n  sstore\n  pop\n    /* \"contracts/HashJingSVGStorage1.sol\":1901:2295  SSTORE2.write(... */\n  tag_12\n  mload(0x40)\n  dup1\n  0xe0\n  add\n  0x40\n  mstore\n  dup1\n  0xb0\n  dup2\n  mstore\n  0x20\n  add\n  data_9024ed2cc41a15086956b394e0b52d64a9ec08313e80296d53d3563546bb4d80\n  0xb0\n  swap2\n  codecopy\n    /* \"contracts/HashJingSVGStorage1.sol\":1901:1914  SSTORE2.write */\n  shl(0x20, tag_5)\n    /* \"contracts/HashJingSVGStorage1.sol\":1901:2295  SSTORE2.write(... */\n  0x20\n  shr\n  jump\t// in\ntag_12:\n    /* \"contracts/HashJingSVGStorage1.sol\":1886:1895  prefixPtr */\n  0x02\n    /* \"contracts/HashJingSVGStorage1.sol\":1896:1897  1 */\n  0x01\n    /* \"contracts/HashJingSVGStorage1.sol\":1886:1898  prefixPtr[1] */\n  0x04\n  dup2\n  lt\n  tag_13\n  jumpi\n  tag_14\n  tag_10\n  jump\t// in\ntag_14:\ntag_13:\n  add\n  0x00\n    /* \"contracts/HashJingSVGStorage1.sol\":1886:2295  prefixPtr[1] = SSTORE2.write(... */\n  0x0100\n  exp\n  dup2\n  sload\n  dup2\n  0xffffffffffffffffffffffffffffffffffffffff\n  mul\n  not\n  and\n  swap1\n  dup4\n  0xffffffffffffffffffffffffffffffffffffffff\n  and\n  mul\n  or\n  swap1\n  sstore\n  pop\n    /* \"contracts/HashJingSVGStorage1.sol\":2320:2712  SSTORE2.write(... */\n  tag_16\n  mload(0x40)\n  dup1\n  0xe0\n  add\n  0x40\n  mstore\n  dup1\n  0xaf\n  dup2\n  mstore\n  0x20\n  add\n  data_e5a35c4109324259df0df6a7dded3a19ee5e39615ba92ac52fe3922a33063ded\n  0xaf\n  swap2\n  codecopy\n    /* \"contracts/HashJingSVGStorage1.sol\":2320:2333  SSTORE2.write */\n  shl(0x20, tag_5)\n    /* \"contracts/HashJingSVGStorage1.sol\":2320:2712  SSTORE2.write(... */\n  0x20\n  shr\n  jump\t// in\ntag_16:\n    /* \"contracts/HashJingSVGStorage1.sol\":2305:2314  prefixPtr */\n  0x02\n    /* \"contracts/HashJingSVGStorage1.sol\":2315:2316  2 */\n  dup1\n    /* \"contracts/HashJingSVGStorage1.sol\":2305:2317  prefixPtr[2] */\n  0x04\n  dup2\n  lt\n  tag_17\n  jumpi\n  tag_18\n  tag_10\n  jump\t// in\ntag_18:\ntag_17:\n  add\n  0x00\n    /* \"contracts/HashJingSVGStorage1.sol\":2305:2712  prefixPtr[2] = SSTORE2.write(... */\n  0x0100\n  exp\n  dup2\n  sload\n  dup2\n  0xffffffffffffffffffffffffffffffffffffffff\n  mul\n  not\n  and\n  swap1\n  dup4\n  0xffffffffffffffffffffffffffffffffffffffff\n  and\n  mul\n  or\n  swap1\n  sstore\n  pop\n    /* \"contracts/HashJingSVGStorage1.sol\":2737:3127  SSTORE2.write(... */\n  tag_20\n  mload(0x40)\n  dup1\n  0xe0\n  add\n  0x40\n  mstore\n  dup1\n  0xae\n  dup2\n  mstore\n  0x20\n  add\n  data_cf66ed730e42712fc89e254dfe338bca2053c2b244c083cf42c0cfe440610445\n  0xae\n  swap2\n  codecopy\n    /* \"contracts/HashJingSVGStorage1.sol\":2737:2750  SSTORE2.write */\n  shl(0x20, tag_5)\n    /* \"contracts/HashJingSVGStorage1.sol\":2737:3127  SSTORE2.write(... */\n  0x20\n  shr\n  jump\t// in\ntag_20:\n    /* \"contracts/HashJingSVGStorage1.sol\":2722:2731  prefixPtr */\n  0x02\n    /* \"contracts/HashJingSVGStorage1.sol\":2732:2733  3 */\n  0x03\n    /* \"contracts/HashJingSVGStorage1.sol\":2722:2734  prefixPtr[3] */\n  0x04\n  dup2\n  lt\n  tag_21\n  jumpi\n  tag_22\n  tag_10\n  jump\t// in\ntag_22:\ntag_21:\n  add\n  0x00\n    /* \"contracts/HashJingSVGStorage1.sol\":2722:3127  prefixPtr[3] = SSTORE2.write(... */\n  0x0100\n  exp\n  dup2\n  sload\n  dup2\n  0xffffffffffffffffffffffffffffffffffffffff\n  mul\n  not\n  and\n  swap1\n  dup4\n  0xffffffffffffffffffffffffffffffffffffffff\n  and\n  mul\n  or\n  swap1\n  sstore\n  pop\n    /* \"contracts/HashJingSVGStorage1.sol\":3246:3478  SSTORE2.write(... */\n  tag_24\n  mload(0x40)\n  dup1\n  0x80\n  add\n  0x40\n  mstore\n  dup1\n  0x5f\n  dup2\n  mstore\n  0x20\n  add\n  data_813ae3b2227eb901a072943d0efcc4163b274eb95fb16a7ae1482f843d7499a5\n  0x5f\n  swap2\n  codecopy\n    /* \"contracts/HashJingSVGStorage1.sol\":3246:3259  SSTORE2.write */\n  shl(0x20, tag_5)\n    /* \"contracts/HashJingSVGStorage1.sol\":3246:3478  SSTORE2.write(... */\n  0x20\n  shr\n  jump\t// in\ntag_24:\n    /* \"contracts/HashJingSVGStorage1.sol\":3227:3240  textPrefixPtr */\n  0x06\n    /* \"contracts/HashJingSVGStorage1.sol\":3241:3242  0 */\n  0x00\n    /* \"contracts/HashJingSVGStorage1.sol\":3227:3243  textPrefixPtr[0] */\n  0x04\n  dup2\n  lt\n  tag_25\n  jumpi\n  tag_26\n  tag_10\n  jump\t// in\ntag_26:\ntag_25:\n  add\n  0x00\n    /* \"contracts/HashJingSVGStorage1.sol\":3227:3478  textPrefixPtr[0] = SSTORE2.write(... */\n  0x0100\n  exp\n  dup2\n  sload\n  dup2\n  0xffffffffffffffffffffffffffffffffffffffff\n  mul\n  not\n  and\n  swap1\n  dup4\n  0xffffffffffffffffffffffffffffffffffffffff\n  and\n  mul\n  or\n  swap1\n  sstore\n  pop\n    /* \"contracts/HashJingSVGStorage1.sol\":3518:3750  SSTORE2.write(... */\n  tag_28\n  mload(0x40)\n  dup1\n  0x80\n  add\n  0x40\n  mstore\n  dup1\n  0x5f\n  dup2\n  mstore\n  0x20\n  add\n  data_98e0afa2b4323fbeb16aa9c796823c9f1a3ac90c55e35b306d1a4f3c6047bbef\n  0x5f\n  swap2\n  codecopy\n    /* \"contracts/HashJingSVGStorage1.sol\":3518:3531  SSTORE2.write */\n  shl(0x20, tag_5)\n    /* \"contracts/HashJingSVGStorage1.sol\":3518:3750  SSTORE2.write(... */\n  0x20\n  shr\n  jump\t// in\ntag_28:\n    /* \"contracts/HashJingSVGStorage1.sol\":3499:3512  textPrefixPtr */\n  0x06\n    /* \"contracts/HashJingSVGStorage1.sol\":3513:3514  1 */\n  0x01\n    /* \"contracts/HashJingSVGStorage1.sol\":3499:3515  textPrefixPtr[1] */\n  0x04\n  dup2\n  lt\n  tag_29\n  jumpi\n  tag_30\n  tag_10\n  jump\t// in\ntag_30:\ntag_29:\n  add\n  0x00\n    /* \"contracts/HashJingSVGStorage1.sol\":3499:3750  textPrefixPtr[1] = SSTORE2.write(... */\n  0x0100\n  exp\n  dup2\n  sload\n  dup2\n  0xffffffffffffffffffffffffffffffffffffffff\n  mul\n  not\n  and\n  swap1\n  dup4\n  0xffffffffffffffffffffffffffffffffffffffff\n  and\n  mul\n  or\n  swap1\n  sstore\n  pop\n    /* \"contracts/HashJingSVGStorage1.sol\":3790:4022  SSTORE2.write(... */\n  tag_32\n  mload(0x40)\n  dup1\n  0x80\n  add\n  0x40\n  mstore\n  dup1\n  0x5f\n  dup2\n  mstore\n  0x20\n  add\n  data_a87f4074035785447c3cd7e977d6bbd52ac895a8d1c576574e17097aa2075154\n  0x5f\n  swap2\n  codecopy\n    /* \"contracts/HashJingSVGStorage1.sol\":3790:3803  SSTORE2.write */\n  shl(0x20, tag_5)\n    /* \"contracts/HashJingSVGStorage1.sol\":3790:4022  SSTORE2.write(... */\n  0x20\n  shr\n  jump\t// in\ntag_32:\n    /* \"contracts/HashJingSVGStorage1.sol\":3771:3784  textPrefixPtr */\n  0x06\n    /* \"contracts/HashJingSVGStorage1.sol\":3785:3786  2 */\n  0x02\n    /* \"contracts/HashJingSVGStorage1.sol\":3771:3787  textPrefixPtr[2] */\n  0x04\n  dup2\n  lt\n  tag_33\n  jumpi\n  tag_34\n  tag_10\n  jump\t// in\ntag_34:\ntag_33:\n  add\n  0x00\n    /* \"contracts/HashJingSVGStorage1.sol\":3771:4022  textPrefixPtr[2] = SSTORE2.write(... */\n  0x0100\n  exp\n  dup2\n  sload\n  dup2\n  0xffffffffffffffffffffffffffffffffffffffff\n  mul\n  not\n  and\n  swap1\n  dup4\n  0xffffffffffffffffffffffffffffffffffffffff\n  and\n  mul\n  or\n  swap1\n  sstore\n  pop\n    /* \"contracts/HashJingSVGStorage1.sol\":4062:4294  SSTORE2.write(... */\n  tag_36\n  mload(0x40)\n  dup1\n  0x80\n  add\n  0x40\n  mstore\n  dup1\n  0x5f\n  dup2\n  mstore\n  0x20\n  add\n  data_995e5c23dad925de8396dd90ecc5e857d612610b3f34e4ba0382df7e4e93fdee\n  0x5f\n  swap2\n  codecopy\n    /* \"contracts/HashJingSVGStorage1.sol\":4062:4075  SSTORE2.write */\n  shl(0x20, tag_5)\n    /* \"contracts/HashJingSVGStorage1.sol\":4062:4294  SSTORE2.write(... */\n  0x20\n  shr\n  jump\t// in\ntag_36:\n    /* \"contracts/HashJingSVGStorage1.sol\":4043:4056  textPrefixPtr */\n  0x06\n    /* \"contracts/HashJingSVGStorage1.sol\":4057:4058  3 */\n  0x03\n    /* \"contracts/HashJingSVGStorage1.sol\":4043:4059  textPrefixPtr[3] */\n  0x04\n  dup2\n  lt\n  tag_37\n  jumpi\n  tag_38\n  tag_10\n  jump\t// in\ntag_38:\ntag_37:\n  add\n  0x00\n    /* \"contracts/HashJingSVGStorage1.sol\":4043:4294  textPrefixPtr[3] = SSTORE2.write(... */\n  0x0100\n  exp\n  dup2\n  sload\n  dup2\n  0xffffffffffffffffffffffffffffffffffffffff\n  mul\n  not\n  and\n  swap1\n  dup4\n  0xffffffffffffffffffffffffffffffffffffffff\n  and\n  mul\n  or\n  swap1\n  sstore\n  pop\n    /* \"contracts/HashJingSVGStorage1.sol\":83:4804  contract HashJingSVGStorage1 {... */\n  jump(tag_40)\n    /* \"contracts/SSTORE2.sol\":583:1043  function write(bytes memory _data) internal returns (address pointer) {... */\ntag_5:\n    /* \"contracts/SSTORE2.sol\":636:651  address pointer */\n  0x00\n    /* \"contracts/SSTORE2.sol\":736:753  bytes memory code */\n  dup1\n    /* \"contracts/SSTORE2.sol\":756:850  Bytecode.creationCodeFor(... */\n  tag_42\n    /* \"contracts/SSTORE2.sol\":831:836  _data */\n  dup4\n    /* \"contracts/SSTORE2.sol\":788:844  abi.encodePacked(... */\n  add(0x20, mload(0x40))\n  tag_43\n  swap2\n  swap1\n  tag_44\n  jump\t// in\ntag_43:\n  mload(0x40)\n  0x20\n  dup2\n  dup4\n  sub\n  sub\n  dup2\n  mstore\n  swap1\n  0x40\n  mstore\n    /* \"contracts/SSTORE2.sol\":756:780  Bytecode.creationCodeFor */\n  shl(0x20, tag_45)\n    /* \"contracts/SSTORE2.sol\":756:850  Bytecode.creationCodeFor(... */\n  0x20\n  shr\n  jump\t// in\ntag_42:\n    /* \"contracts/SSTORE2.sol\":736:850  bytes memory code = Bytecode.creationCodeFor(... */\n  swap1\n  pop\n    /* \"contracts/SSTORE2.sol\":946:950  code */\n  dup1\n    /* \"contracts/SSTORE2.sol\":940:951  mload(code) */\n  mload\n    /* \"contracts/SSTORE2.sol\":935:937  32 */\n  0x20\n    /* \"contracts/SSTORE2.sol\":929:933  code */\n  dup3\n    /* \"contracts/SSTORE2.sol\":925:938  add(code, 32) */\n  add\n    /* \"contracts/SSTORE2.sol\":922:923  0 */\n  0x00\n    /* \"contracts/SSTORE2.sol\":915:952  create(0, add(code, 32), mload(code)) */\n  create\n    /* \"contracts/SSTORE2.sol\":904:952  pointer := create(0, add(code, 32), mload(code)) */\n  swap2\n  pop\n    /* \"contracts/SSTORE2.sol\":1015:1016  0 */\n  0x00\n    /* \"contracts/SSTORE2.sol\":996:1017  pointer == address(0) */\n  0xffffffffffffffffffffffffffffffffffffffff\n  and\n    /* \"contracts/SSTORE2.sol\":996:1003  pointer */\n  dup3\n    /* \"contracts/SSTORE2.sol\":996:1017  pointer == address(0) */\n  0xffffffffffffffffffffffffffffffffffffffff\n  and\n  sub\n    /* \"contracts/SSTORE2.sol\":992:1038  if (pointer == address(0)) revert WriteError() */\n  tag_46\n  jumpi\n    /* \"contracts/SSTORE2.sol\":1026:1038  WriteError() */\n  mload(0x40)\n  0x08d4abb600000000000000000000000000000000000000000000000000000000\n  dup2\n  mstore\n  0x04\n  add\n  mload(0x40)\n  dup1\n  swap2\n  sub\n  swap1\n  revert\n    /* \"contracts/SSTORE2.sol\":992:1038  if (pointer == address(0)) revert WriteError() */\ntag_46:\n    /* \"contracts/SSTORE2.sol\":653:1043  {... */\n  pop\n    /* \"contracts/SSTORE2.sol\":583:1043  function write(bytes memory _data) internal returns (address pointer) {... */\n  swap2\n  swap1\n  pop\n  jump\t// out\n    /* \"contracts/utils/Bytecode.sol\":378:1078  function creationCodeFor(bytes memory _code) internal pure returns (bytes memory) {... */\ntag_45:\n    /* \"contracts/utils/Bytecode.sol\":446:458  bytes memory */\n  0x60\n    /* \"contracts/utils/Bytecode.sol\":1002:1007  _code */\n  dup2\n    /* \"contracts/utils/Bytecode.sol\":1002:1014  _code.length */\n  mload\n    /* \"contracts/utils/Bytecode.sol\":1062:1067  _code */\n  dup3\n    /* \"contracts/utils/Bytecode.sol\":956:1073  abi.encodePacked(... */\n  add(0x20, mload(0x40))\n  tag_48\n  swap3\n  swap2\n  swap1\n  tag_49\n  jump\t// in\ntag_48:\n  mload(0x40)\n  0x20\n  dup2\n  dup4\n  sub\n  sub\n  dup2\n  mstore\n  swap1\n  0x40\n  mstore\n    /* \"contracts/utils/Bytecode.sol\":949:1073  return abi.encodePacked(... */\n  swap1\n  pop\n    /* \"contracts/utils/Bytecode.sol\":378:1078  function creationCodeFor(bytes memory _code) internal pure returns (bytes memory) {... */\n  swap2\n  swap1\n  pop\n  jump\t// out\n    /* \"#utility.yul\":7:187   */\ntag_10:\n    /* \"#utility.yul\":55:132   */\n  0x4e487b7100000000000000000000000000000000000000000000000000000000\n    /* \"#utility.yul\":52:53   */\n  0x00\n    /* \"#utility.yul\":45:133   */\n  mstore\n    /* \"#utility.yul\":152:156   */\n  0x32\n    /* \"#utility.yul\":149:150   */\n  0x04\n    /* \"#utility.yul\":142:157   */\n  mstore\n    /* \"#utility.yul\":176:180   */\n  0x24\n    /* \"#utility.yul\":173:174   */\n  0x00\n    /* \"#utility.yul\":166:181   */\n  revert\n    /* \"#utility.yul\":193:341   */\ntag_50:\n    /* \"#utility.yul\":295:306   */\n  0x00\n    /* \"#utility.yul\":332:335   */\n  dup2\n    /* \"#utility.yul\":317:335   */\n  swap1\n  pop\n    /* \"#utility.yul\":193:341   */\n  swap3\n  swap2\n  pop\n  pop\n  jump\t// out\n    /* \"#utility.yul\":347:561   */\ntag_51:\n    /* \"#utility.yul\":487:553   */\n  0x00\n    /* \"#utility.yul\":483:484   */\n  dup1\n    /* \"#utility.yul\":475:481   */\n  dup3\n    /* \"#utility.yul\":471:485   */\n  add\n    /* \"#utility.yul\":464:554   */\n  mstore\n    /* \"#utility.yul\":347:561   */\n  pop\n  jump\t// out\n    /* \"#utility.yul\":567:967   */\ntag_52:\n    /* \"#utility.yul\":727:730   */\n  0x00\n    /* \"#utility.yul\":748:832   */\n  tag_70\n    /* \"#utility.yul\":830:831   */\n  0x01\n    /* \"#utility.yul\":825:828   */\n  dup4\n    /* \"#utility.yul\":748:832   */\n  tag_50\n  jump\t// in\ntag_70:\n    /* \"#utility.yul\":741:832   */\n  swap2\n  pop\n    /* \"#utility.yul\":841:934   */\n  tag_71\n    /* \"#utility.yul\":930:933   */\n  dup3\n    /* \"#utility.yul\":841:934   */\n  tag_51\n  jump\t// in\ntag_71:\n    /* \"#utility.yul\":959:960   */\n  0x01\n    /* \"#utility.yul\":954:957   */\n  dup3\n    /* \"#utility.yul\":950:961   */\n  add\n    /* \"#utility.yul\":943:961   */\n  swap1\n  pop\n    /* \"#utility.yul\":567:967   */\n  swap2\n  swap1\n  pop\n  jump\t// out\n    /* \"#utility.yul\":973:1071   */\ntag_53:\n    /* \"#utility.yul\":1024:1030   */\n  0x00\n    /* \"#utility.yul\":1058:1063   */\n  dup2\n    /* \"#utility.yul\":1052:1064   */\n  mload\n    /* \"#utility.yul\":1042:1064   */\n  swap1\n  pop\n    /* \"#utility.yul\":973:1071   */\n  swap2\n  swap1\n  pop\n  jump\t// out\n    /* \"#utility.yul\":1077:1224   */\ntag_54:\n    /* \"#utility.yul\":1178:1189   */\n  0x00\n    /* \"#utility.yul\":1215:1218   */\n  dup2\n    /* \"#utility.yul\":1200:1218   */\n  swap1\n  pop\n    /* \"#utility.yul\":1077:1224   */\n  swap3\n  swap2\n  pop\n  pop\n  jump\t// out\n    /* \"#utility.yul\":1230:1369   */\ntag_55:\n    /* \"#utility.yul\":1319:1325   */\n  dup3\n    /* \"#utility.yul\":1314:1317   */\n  dup2\n    /* \"#utility.yul\":1309:1312   */\n  dup4\n    /* \"#utility.yul\":1303:1326   */\n  mcopy\n    /* \"#utility.yul\":1360:1361   */\n  0x00\n    /* \"#utility.yul\":1351:1357   */\n  dup4\n    /* \"#utility.yul\":1346:1349   */\n  dup4\n    /* \"#utility.yul\":1342:1358   */\n  add\n    /* \"#utility.yul\":1335:1362   */\n  mstore\n    /* \"#utility.yul\":1230:1369   */\n  pop\n  pop\n  pop\n  jump\t// out\n    /* \"#utility.yul\":1375:1761   */\ntag_56:\n    /* \"#utility.yul\":1479:1482   */\n  0x00\n    /* \"#utility.yul\":1507:1545   */\n  tag_76\n    /* \"#utility.yul\":1539:1544   */\n  dup3\n    /* \"#utility.yul\":1507:1545   */\n  tag_53\n  jump\t// in\ntag_76:\n    /* \"#utility.yul\":1561:1649   */\n  tag_77\n    /* \"#utility.yul\":1642:1648   */\n  dup2\n    /* \"#utility.yul\":1637:1640   */\n  dup6\n    /* \"#utility.yul\":1561:1649   */\n  tag_54\n  jump\t// in\ntag_77:\n    /* \"#utility.yul\":1554:1649   */\n  swap4\n  pop\n    /* \"#utility.yul\":1658:1723   */\n  tag_78\n    /* \"#utility.yul\":1716:1722   */\n  dup2\n    /* \"#utility.yul\":1711:1714   */\n  dup6\n    /* \"#utility.yul\":1704:1708   */\n  0x20\n    /* \"#utility.yul\":1697:1702   */\n  dup7\n    /* \"#utility.yul\":1693:1709   */\n  add\n    /* \"#utility.yul\":1658:1723   */\n  tag_55\n  jump\t// in\ntag_78:\n    /* \"#utility.yul\":1748:1754   */\n  dup1\n    /* \"#utility.yul\":1743:1746   */\n  dup5\n    /* \"#utility.yul\":1739:1755   */\n  add\n    /* \"#utility.yul\":1732:1755   */\n  swap2\n  pop\n    /* \"#utility.yul\":1483:1761   */\n  pop\n    /* \"#utility.yul\":1375:1761   */\n  swap3\n  swap2\n  pop\n  pop\n  jump\t// out\n    /* \"#utility.yul\":1767:2304   */\ntag_44:\n    /* \"#utility.yul\":1998:2001   */\n  0x00\n    /* \"#utility.yul\":2020:2168   */\n  tag_80\n    /* \"#utility.yul\":2164:2167   */\n  dup3\n    /* \"#utility.yul\":2020:2168   */\n  tag_52\n  jump\t// in\ntag_80:\n    /* \"#utility.yul\":2013:2168   */\n  swap2\n  pop\n    /* \"#utility.yul\":2185:2278   */\n  tag_81\n    /* \"#utility.yul\":2274:2277   */\n  dup3\n    /* \"#utility.yul\":2265:2271   */\n  dup5\n    /* \"#utility.yul\":2185:2278   */\n  tag_56\n  jump\t// in\ntag_81:\n    /* \"#utility.yul\":2178:2278   */\n  swap2\n  pop\n    /* \"#utility.yul\":2295:2298   */\n  dup2\n    /* \"#utility.yul\":2288:2298   */\n  swap1\n  pop\n    /* \"#utility.yul\":1767:2304   */\n  swap3\n  swap2\n  pop\n  pop\n  jump\t// out\n    /* \"#utility.yul\":2310:2461   */\ntag_57:\n    /* \"#utility.yul\":2450:2453   */\n  0x6300000000000000000000000000000000000000000000000000000000000000\n    /* \"#utility.yul\":2446:2447   */\n  0x00\n    /* \"#utility.yul\":2438:2444   */\n  dup3\n    /* \"#utility.yul\":2434:2448   */\n  add\n    /* \"#utility.yul\":2427:2454   */\n  mstore\n    /* \"#utility.yul\":2310:2461   */\n  pop\n  jump\t// out\n    /* \"#utility.yul\":2467:2867   */\ntag_58:\n    /* \"#utility.yul\":2627:2630   */\n  0x00\n    /* \"#utility.yul\":2648:2732   */\n  tag_84\n    /* \"#utility.yul\":2730:2731   */\n  0x01\n    /* \"#utility.yul\":2725:2728   */\n  dup4\n    /* \"#utility.yul\":2648:2732   */\n  tag_50\n  jump\t// in\ntag_84:\n    /* \"#utility.yul\":2641:2732   */\n  swap2\n  pop\n    /* \"#utility.yul\":2741:2834   */\n  tag_85\n    /* \"#utility.yul\":2830:2833   */\n  dup3\n    /* \"#utility.yul\":2741:2834   */\n  tag_57\n  jump\t// in\ntag_85:\n    /* \"#utility.yul\":2859:2860   */\n  0x01\n    /* \"#utility.yul\":2854:2857   */\n  dup3\n    /* \"#utility.yul\":2850:2861   */\n  add\n    /* \"#utility.yul\":2843:2861   */\n  swap1\n  pop\n    /* \"#utility.yul\":2467:2867   */\n  swap2\n  swap1\n  pop\n  jump\t// out\n    /* \"#utility.yul\":2873:2966   */\ntag_59:\n    /* \"#utility.yul\":2909:2916   */\n  0x00\n    /* \"#utility.yul\":2949:2959   */\n  0xffffffff\n    /* \"#utility.yul\":2942:2947   */\n  dup3\n    /* \"#utility.yul\":2938:2960   */\n  and\n    /* \"#utility.yul\":2927:2960   */\n  swap1\n  pop\n    /* \"#utility.yul\":2873:2966   */\n  swap2\n  swap1\n  pop\n  jump\t// out\n    /* \"#utility.yul\":2972:3068   */\ntag_60:\n    /* \"#utility.yul\":3006:3014   */\n  0x00\n    /* \"#utility.yul\":3055:3060   */\n  dup2\n    /* \"#utility.yul\":3050:3053   */\n  0xe0\n    /* \"#utility.yul\":3046:3061   */\n  shl\n    /* \"#utility.yul\":3025:3061   */\n  swap1\n  pop\n    /* \"#utility.yul\":2972:3068   */\n  swap2\n  swap1\n  pop\n  jump\t// out\n    /* \"#utility.yul\":3074:3168   */\ntag_61:\n    /* \"#utility.yul\":3112:3119   */\n  0x00\n    /* \"#utility.yul\":3141:3162   */\n  tag_89\n    /* \"#utility.yul\":3156:3161   */\n  dup3\n    /* \"#utility.yul\":3141:3162   */\n  tag_60\n  jump\t// in\ntag_89:\n    /* \"#utility.yul\":3130:3162   */\n  swap1\n  pop\n    /* \"#utility.yul\":3074:3168   */\n  swap2\n  swap1\n  pop\n  jump\t// out\n    /* \"#utility.yul\":3174:3327   */\ntag_62:\n    /* \"#utility.yul\":3277:3320   */\n  tag_91\n    /* \"#utility.yul\":3296:3319   */\n  tag_92\n    /* \"#utility.yul\":3313:3318   */\n  dup3\n    /* \"#utility.yul\":3296:3319   */\n  tag_59\n  jump\t// in\ntag_92:\n    /* \"#utility.yul\":3277:3320   */\n  tag_61\n  jump\t// in\ntag_91:\n    /* \"#utility.yul\":3272:3275   */\n  dup3\n    /* \"#utility.yul\":3265:3321   */\n  mstore\n    /* \"#utility.yul\":3174:3327   */\n  pop\n  pop\n  jump\t// out\n    /* \"#utility.yul\":3333:3547   */\ntag_63:\n    /* \"#utility.yul\":3473:3539   */\n  0x80600e6000396000f30000000000000000000000000000000000000000000000\n    /* \"#utility.yul\":3469:3470   */\n  0x00\n    /* \"#utility.yul\":3461:3467   */\n  dup3\n    /* \"#utility.yul\":3457:3471   */\n  add\n    /* \"#utility.yul\":3450:3540   */\n  mstore\n    /* \"#utility.yul\":3333:3547   */\n  pop\n  jump\t// out\n    /* \"#utility.yul\":3553:3953   */\ntag_64:\n    /* \"#utility.yul\":3713:3716   */\n  0x00\n    /* \"#utility.yul\":3734:3818   */\n  tag_95\n    /* \"#utility.yul\":3816:3817   */\n  0x09\n    /* \"#utility.yul\":3811:3814   */\n  dup4\n    /* \"#utility.yul\":3734:3818   */\n  tag_50\n  jump\t// in\ntag_95:\n    /* \"#utility.yul\":3727:3818   */\n  swap2\n  pop\n    /* \"#utility.yul\":3827:3920   */\n  tag_96\n    /* \"#utility.yul\":3916:3919   */\n  dup3\n    /* \"#utility.yul\":3827:3920   */\n  tag_63\n  jump\t// in\ntag_96:\n    /* \"#utility.yul\":3945:3946   */\n  0x09\n    /* \"#utility.yul\":3940:3943   */\n  dup3\n    /* \"#utility.yul\":3936:3947   */\n  add\n    /* \"#utility.yul\":3929:3947   */\n  swap1\n  pop\n    /* \"#utility.yul\":3553:3953   */\n  swap2\n  swap1\n  pop\n  jump\t// out\n    /* \"#utility.yul\":3959:4898   */\ntag_49:\n    /* \"#utility.yul\":4317:4320   */\n  0x00\n    /* \"#utility.yul\":4339:4487   */\n  tag_98\n    /* \"#utility.yul\":4483:4486   */\n  dup3\n    /* \"#utility.yul\":4339:4487   */\n  tag_58\n  jump\t// in\ntag_98:\n    /* \"#utility.yul\":4332:4487   */\n  swap2\n  pop\n    /* \"#utility.yul\":4497:4570   */\n  tag_99\n    /* \"#utility.yul\":4566:4569   */\n  dup3\n    /* \"#utility.yul\":4557:4563   */\n  dup6\n    /* \"#utility.yul\":4497:4570   */\n  tag_62\n  jump\t// in\ntag_99:\n    /* \"#utility.yul\":4595:4596   */\n  0x04\n    /* \"#utility.yul\":4590:4593   */\n  dup3\n    /* \"#utility.yul\":4586:4597   */\n  add\n    /* \"#utility.yul\":4579:4597   */\n  swap2\n  pop\n    /* \"#utility.yul\":4614:4762   */\n  tag_100\n    /* \"#utility.yul\":4758:4761   */\n  dup3\n    /* \"#utility.yul\":4614:4762   */\n  tag_64\n  jump\t// in\ntag_100:\n    /* \"#utility.yul\":4607:4762   */\n  swap2\n  pop\n    /* \"#utility.yul\":4779:4872   */\n  tag_101\n    /* \"#utility.yul\":4868:4871   */\n  dup3\n    /* \"#utility.yul\":4859:4865   */\n  dup5\n    /* \"#utility.yul\":4779:4872   */\n  tag_56\n  jump\t// in\ntag_101:\n    /* \"#utility.yul\":4772:4872   */\n  swap2\n  pop\n    /* \"#utility.yul\":4889:4892   */\n  dup2\n    /* \"#utility.yul\":4882:4892   */\n  swap1\n  pop\n    /* \"#utility.yul\":3959:4898   */\n  swap4\n  swap3\n  pop\n  pop\n  pop\n  jump\t// out\n    /* \"contracts/HashJingSVGStorage1.sol\":83:4804  contract HashJingSVGStorage1 {... */\ntag_40:\n  dataSize(sub_0)\n  dup1\n  dataOffset(sub_0)\n  0x00\n  codecopy\n  0x00\n  return\nstop\ndata_03b927c59517b0e4efd5d9bd88bbf6569d9beb39df1baa6fb16d0e4cf221b164 3c7061746820643d224d203531322031313220412034303020343030203020302031203535312e32303638353631333138323433203131332e3932363130393333313132313237204c203535392e303438323237333538313839312033342e33313133333131393733343535312041203438302034383020302030203020353132203332205a22207374726f6b653d22626c61636b22207374726f6b652d77696474683d2231222066696c6c3d22\ndata_813ae3b2227eb901a072943d0efcc4163b274eb95fb16a7ae1482f843d7499a5 3c7465787420783d223531322220793d223436352220666f6e742d73697a653d223232222066696c6c3d2277686974652220746578742d616e63686f723d226d6964646c652220666f6e742d66616d696c793d226d6f6e6f7370616365223e\ndata_9024ed2cc41a15086956b394e0b52d64a9ec08313e80296d53d3563546bb4d80 3c7061746820643d224d203531322031393220412033323020333230203020302031203534332e33363534383439303534353934203139332e3534303838373436343839373033204c203535312e32303638353631333138323433203131332e3932363130393333313132313237204120343030203430302030203020302035313220313132205a22207374726f6b653d22626c61636b22207374726f6b652d77696474683d2231222066696c6c3d22\ndata_98e0afa2b4323fbeb16aa9c796823c9f1a3ac90c55e35b306d1a4f3c6047bbef 3c7465787420783d223531322220793d223530312220666f6e742d73697a653d223232222066696c6c3d2277686974652220746578742d616e63686f723d226d6964646c652220666f6e742d66616d696c793d226d6f6e6f7370616365223e\ndata_995e5c23dad925de8396dd90ecc5e857d612610b3f34e4ba0382df7e4e93fdee 3c7465787420783d223531322220793d223537332220666f6e742d73697a653d223232222066696c6c3d2277686974652220746578742d616e63686f723d226d6964646c652220666f6e742d66616d696c793d226d6f6e6f7370616365223e\ndata_a87f4074035785447c3cd7e977d6bbd52ac895a8d1c576574e17097aa2075154 3c7465787420783d223531322220793d223533372220666f6e742d73697a653d223232222066696c6c3d2277686974652220746578742d616e63686f723d226d6964646c652220666f6e742d66616d696c793d226d6f6e6f7370616365223e\ndata_c5da382a972d2beb7401cda6ca37c7fa0eb0c82b049a9ad3e6ef141c8413fcc1 3c73766720786d6c6e733d22687474703a2f2f7777772e77332e6f72672f323030302f737667222076696577426f783d223020302031303234203130323422207072657365727665417370656374526174696f3d22784d6964594d6964206d656574223e3c7265637420783d22302220793d2230222077696474683d223130323422206865696768743d2231303234222066696c6c3d22626c61636b222f3e\ndata_cf66ed730e42712fc89e254dfe338bca2053c2b244c083cf42c0cfe440610445 3c7061746820643d224d203531322033353220412031363020313630203020302031203532372e36383237343234353237323937203335322e37373034343337333234343835204c203533352e35323431313336373930393436203237332e31353536363535393836373237204120323430203234302030203020302035313220323732205a22207374726f6b653d22626c61636b22207374726f6b652d77696474683d2231222066696c6c3d22\ndata_e5a35c4109324259df0df6a7dded3a19ee5e39615ba92ac52fe3922a33063ded 3c7061746820643d224d203531322032373220412032343020323430203020302031203533352e35323431313336373930393436203237332e31353536363535393836373237204c203534332e33363534383439303534353934203139332e3534303838373436343839373033204120333230203332302030203020302035313220313932205a22207374726f6b653d22626c61636b22207374726f6b652d77696474683d2231222066696c6c3d22\n\nsub_0: assembly {\n        /* \"contracts/HashJingSVGStorage1.sol\":83:4804  contract HashJingSVGStorage1 {... */\n      mstore(0x40, 0x80)\n      callvalue\n      dup1\n      iszero\n      tag_1\n      jumpi\n      0x00\n      dup1\n      revert\n    tag_1:\n      pop\n      jumpi(tag_2, lt(calldatasize, 0x04))\n      shr(0xe0, calldataload(0x00))\n      dup1\n      0xaf7856ce\n      gt\n      tag_11\n      jumpi\n      dup1\n      0xaf7856ce\n      eq\n      tag_7\n      jumpi\n      dup1\n      0xbdb69062\n      eq\n      tag_8\n      jumpi\n      dup1\n      0xdf6bcdd5\n      eq\n      tag_9\n      jumpi\n      dup1\n      0xe9ce3274\n      eq\n      tag_10\n      jumpi\n      jump(tag_2)\n    tag_11:\n      dup1\n      0x13d8c840\n      eq\n      tag_3\n      jumpi\n      dup1\n      0x3494a75b\n      eq\n      tag_4\n      jumpi\n      dup1\n      0x3c8c014d\n      eq\n      tag_5\n      jumpi\n      dup1\n      0x8f7dcfa3\n      eq\n      tag_6\n      jumpi\n    tag_2:\n      0x00\n      dup1\n      revert\n        /* \"contracts/HashJingSVGStorage1.sol\":4495:4587  function tail()       external view returns (bytes memory) { return SSTORE2.read(tailPtr); } */\n    tag_3:\n      tag_12\n      tag_13\n      jump\t// in\n    tag_12:\n      mload(0x40)\n      tag_14\n      swap2\n      swap1\n      tag_15\n      jump\t// in\n    tag_14:\n      mload(0x40)\n      dup1\n      swap2\n      sub\n      swap1\n      return\n        /* \"contracts/HashJingSVGStorage1.sol\":197:219  address public headPtr */\n    tag_4:\n      tag_16\n      tag_17\n      jump\t// in\n    tag_16:\n      mload(0x40)\n      tag_18\n      swap2\n      swap1\n      tag_19\n      jump\t// in\n    tag_18:\n      mload(0x40)\n      dup1\n      swap2\n      sub\n      swap1\n      return\n        /* \"contracts/HashJingSVGStorage1.sol\":4592:4690  function prefix(uint i) external view returns (bytes memory){ return SSTORE2.read(prefixPtr[i]); } */\n    tag_5:\n      tag_20\n      0x04\n      dup1\n      calldatasize\n      sub\n      dup2\n      add\n      swap1\n      tag_21\n      swap2\n      swap1\n      tag_22\n      jump\t// in\n    tag_21:\n      tag_23\n      jump\t// in\n    tag_20:\n      mload(0x40)\n      tag_24\n      swap2\n      swap1\n      tag_15\n      jump\t// in\n    tag_24:\n      mload(0x40)\n      dup1\n      swap2\n      sub\n      swap1\n      return\n        /* \"contracts/HashJingSVGStorage1.sol\":4398:4490  function head()       external view returns (bytes memory) { return SSTORE2.read(headPtr); } */\n    tag_6:\n      tag_25\n      tag_26\n      jump\t// in\n    tag_25:\n      mload(0x40)\n      tag_27\n      swap2\n      swap1\n      tag_15\n      jump\t// in\n    tag_27:\n      mload(0x40)\n      dup1\n      swap2\n      sub\n      swap1\n      return\n        /* \"contracts/HashJingSVGStorage1.sol\":563:594  address[4] public textPrefixPtr */\n    tag_7:\n      tag_28\n      0x04\n      dup1\n      calldatasize\n      sub\n      dup2\n      add\n      swap1\n      tag_29\n      swap2\n      swap1\n      tag_22\n      jump\t// in\n    tag_29:\n      tag_30\n      jump\t// in\n    tag_28:\n      mload(0x40)\n      tag_31\n      swap2\n      swap1\n      tag_19\n      jump\t// in\n    tag_31:\n      mload(0x40)\n      dup1\n      swap2\n      sub\n      swap1\n      return\n        /* \"contracts/HashJingSVGStorage1.sol\":4695:4801  function textPrefix(uint i) external view returns (bytes memory){ return SSTORE2.read(textPrefixPtr[i]); } */\n    tag_8:\n      tag_32\n      0x04\n      dup1\n      calldatasize\n      sub\n      dup2\n      add\n      swap1\n      tag_33\n      swap2\n      swap1\n      tag_22\n      jump\t// in\n    tag_33:\n      tag_34\n      jump\t// in\n    tag_32:\n      mload(0x40)\n      tag_35\n      swap2\n      swap1\n      tag_15\n      jump\t// in\n    tag_35:\n      mload(0x40)\n      dup1\n      swap2\n      sub\n      swap1\n      return\n        /* \"contracts/HashJingSVGStorage1.sol\":251:273  address public tailPtr */\n    tag_9:\n      tag_36\n      tag_37\n      jump\t// in\n    tag_36:\n      mload(0x40)\n      tag_38\n      swap2\n      swap1\n      tag_19\n      jump\t// in\n    tag_38:\n      mload(0x40)\n      dup1\n      swap2\n      sub\n      swap1\n      return\n        /* \"contracts/HashJingSVGStorage1.sol\":397:424  address[4] public prefixPtr */\n    tag_10:\n      tag_39\n      0x04\n      dup1\n      calldatasize\n      sub\n      dup2\n      add\n      swap1\n      tag_40\n      swap2\n      swap1\n      tag_22\n      jump\t// in\n    tag_40:\n      tag_41\n      jump\t// in\n    tag_39:\n      mload(0x40)\n      tag_42\n      swap2\n      swap1\n      tag_19\n      jump\t// in\n    tag_42:\n      mload(0x40)\n      dup1\n      swap2\n      sub\n      swap1\n      return\n        /* \"contracts/HashJingSVGStorage1.sol\":4495:4587  function tail()       external view returns (bytes memory) { return SSTORE2.read(tailPtr); } */\n    tag_13:\n        /* \"contracts/HashJingSVGStorage1.sol\":4540:4552  bytes memory */\n      0x60\n        /* \"contracts/HashJingSVGStorage1.sol\":4563:4584  SSTORE2.read(tailPtr) */\n      tag_44\n        /* \"contracts/HashJingSVGStorage1.sol\":4576:4583  tailPtr */\n      0x01\n      0x00\n      swap1\n      sload\n      swap1\n      0x0100\n      exp\n      swap1\n      div\n      0xffffffffffffffffffffffffffffffffffffffff\n      and\n        /* \"contracts/HashJingSVGStorage1.sol\":4563:4575  SSTORE2.read */\n      tag_45\n        /* \"contracts/HashJingSVGStorage1.sol\":4563:4584  SSTORE2.read(tailPtr) */\n      jump\t// in\n    tag_44:\n        /* \"contracts/HashJingSVGStorage1.sol\":4556:4584  return SSTORE2.read(tailPtr) */\n      swap1\n      pop\n        /* \"contracts/HashJingSVGStorage1.sol\":4495:4587  function tail()       external view returns (bytes memory) { return SSTORE2.read(tailPtr); } */\n      swap1\n      jump\t// out\n        /* \"contracts/HashJingSVGStorage1.sol\":197:219  address public headPtr */\n    tag_17:\n      0x00\n      dup1\n      sload\n      swap1\n      0x0100\n      exp\n      swap1\n      div\n      0xffffffffffffffffffffffffffffffffffffffff\n      and\n      dup2\n      jump\t// out\n        /* \"contracts/HashJingSVGStorage1.sol\":4592:4690  function prefix(uint i) external view returns (bytes memory){ return SSTORE2.read(prefixPtr[i]); } */\n    tag_23:\n        /* \"contracts/HashJingSVGStorage1.sol\":4639:4651  bytes memory */\n      0x60\n        /* \"contracts/HashJingSVGStorage1.sol\":4661:4687  SSTORE2.read(prefixPtr[i]) */\n      tag_47\n        /* \"contracts/HashJingSVGStorage1.sol\":4674:4683  prefixPtr */\n      0x02\n        /* \"contracts/HashJingSVGStorage1.sol\":4684:4685  i */\n      dup4\n        /* \"contracts/HashJingSVGStorage1.sol\":4674:4686  prefixPtr[i] */\n      0x04\n      dup2\n      lt\n      tag_48\n      jumpi\n      tag_49\n      tag_50\n      jump\t// in\n    tag_49:\n    tag_48:\n      add\n      0x00\n      swap1\n      sload\n      swap1\n      0x0100\n      exp\n      swap1\n      div\n      0xffffffffffffffffffffffffffffffffffffffff\n      and\n        /* \"contracts/HashJingSVGStorage1.sol\":4661:4673  SSTORE2.read */\n      tag_45\n        /* \"contracts/HashJingSVGStorage1.sol\":4661:4687  SSTORE2.read(prefixPtr[i]) */\n      jump\t// in\n    tag_47:\n        /* \"contracts/HashJingSVGStorage1.sol\":4654:4687  return SSTORE2.read(prefixPtr[i]) */\n      swap1\n      pop\n        /* \"contracts/HashJingSVGStorage1.sol\":4592:4690  function prefix(uint i) external view returns (bytes memory){ return SSTORE2.read(prefixPtr[i]); } */\n      swap2\n      swap1\n      pop\n      jump\t// out\n        /* \"contracts/HashJingSVGStorage1.sol\":4398:4490  function head()       external view returns (bytes memory) { return SSTORE2.read(headPtr); } */\n    tag_26:\n        /* \"contracts/HashJingSVGStorage1.sol\":4443:4455  bytes memory */\n      0x60\n        /* \"contracts/HashJingSVGStorage1.sol\":4466:4487  SSTORE2.read(headPtr) */\n      tag_53\n        /* \"contracts/HashJingSVGStorage1.sol\":4479:4486  headPtr */\n      0x00\n      dup1\n      sload\n      swap1\n      0x0100\n      exp\n      swap1\n      div\n      0xffffffffffffffffffffffffffffffffffffffff\n      and\n        /* \"contracts/HashJingSVGStorage1.sol\":4466:4478  SSTORE2.read */\n      tag_45\n        /* \"contracts/HashJingSVGStorage1.sol\":4466:4487  SSTORE2.read(headPtr) */\n      jump\t// in\n    tag_53:\n        /* \"contracts/HashJingSVGStorage1.sol\":4459:4487  return SSTORE2.read(headPtr) */\n      swap1\n      pop\n        /* \"contracts/HashJingSVGStorage1.sol\":4398:4490  function head()       external view returns (bytes memory) { return SSTORE2.read(headPtr); } */\n      swap1\n      jump\t// out\n        /* \"contracts/HashJingSVGStorage1.sol\":563:594  address[4] public textPrefixPtr */\n    tag_30:\n      0x06\n      dup2\n      0x04\n      dup2\n      lt\n      tag_54\n      jumpi\n      0x00\n      dup1\n      revert\n    tag_54:\n      add\n      0x00\n      swap2\n      pop\n      sload\n      swap1\n      0x0100\n      exp\n      swap1\n      div\n      0xffffffffffffffffffffffffffffffffffffffff\n      and\n      dup2\n      jump\t// out\n        /* \"contracts/HashJingSVGStorage1.sol\":4695:4801  function textPrefix(uint i) external view returns (bytes memory){ return SSTORE2.read(textPrefixPtr[i]); } */\n    tag_34:\n        /* \"contracts/HashJingSVGStorage1.sol\":4746:4758  bytes memory */\n      0x60\n        /* \"contracts/HashJingSVGStorage1.sol\":4768:4798  SSTORE2.read(textPrefixPtr[i]) */\n      tag_57\n        /* \"contracts/HashJingSVGStorage1.sol\":4781:4794  textPrefixPtr */\n      0x06\n        /* \"contracts/HashJingSVGStorage1.sol\":4795:4796  i */\n      dup4\n        /* \"contracts/HashJingSVGStorage1.sol\":4781:4797  textPrefixPtr[i] */\n      0x04\n      dup2\n      lt\n      tag_58\n      jumpi\n      tag_59\n      tag_50\n      jump\t// in\n    tag_59:\n    tag_58:\n      add\n      0x00\n      swap1\n      sload\n      swap1\n      0x0100\n      exp\n      swap1\n      div\n      0xffffffffffffffffffffffffffffffffffffffff\n      and\n        /* \"contracts/HashJingSVGStorage1.sol\":4768:4780  SSTORE2.read */\n      tag_45\n        /* \"contracts/HashJingSVGStorage1.sol\":4768:4798  SSTORE2.read(textPrefixPtr[i]) */\n      jump\t// in\n    tag_57:\n        /* \"contracts/HashJingSVGStorage1.sol\":4761:4798  return SSTORE2.read(textPrefixPtr[i]) */\n      swap1\n      pop\n        /* \"contracts/HashJingSVGStorage1.sol\":4695:4801  function textPrefix(uint i) external view returns (bytes memory){ return SSTORE2.read(textPrefixPtr[i]); } */\n      swap2\n      swap1\n      pop\n      jump\t// out\n        /* \"contracts/HashJingSVGStorage1.sol\":251:273  address public tailPtr */\n    tag_37:\n      0x01\n      0x00\n      swap1\n      sload\n      swap1\n      0x0100\n      exp\n      swap1\n      div\n      0xffffffffffffffffffffffffffffffffffffffff\n      and\n      dup2\n      jump\t// out\n        /* \"contracts/HashJingSVGStorage1.sol\":397:424  address[4] public prefixPtr */\n    tag_41:\n      0x02\n      dup2\n      0x04\n      dup2\n      lt\n      tag_61\n      jumpi\n      0x00\n      dup1\n      revert\n    tag_61:\n      add\n      0x00\n      swap2\n      pop\n      sload\n      swap1\n      0x0100\n      exp\n      swap1\n      div\n      0xffffffffffffffffffffffffffffffffffffffff\n      and\n      dup2\n      jump\t// out\n        /* \"contracts/SSTORE2.sol\":1297:1431  function read(address _pointer) internal view returns (bytes memory) {... */\n    tag_45:\n        /* \"contracts/SSTORE2.sol\":1352:1364  bytes memory */\n      0x60\n        /* \"contracts/SSTORE2.sol\":1379:1426  Bytecode.codeAt(_pointer, 1, type(uint256).max) */\n      tag_64\n        /* \"contracts/SSTORE2.sol\":1395:1403  _pointer */\n      dup3\n        /* \"contracts/SSTORE2.sol\":1405:1406  1 */\n      0x01\n        /* \"contracts/SSTORE2.sol\":1408:1425  type(uint256).max */\n      0xffffffffffffffffffffffffffffffffffffffffffffffffffffffffffffffff\n        /* \"contracts/SSTORE2.sol\":1379:1394  Bytecode.codeAt */\n      tag_65\n        /* \"contracts/SSTORE2.sol\":1379:1426  Bytecode.codeAt(_pointer, 1, type(uint256).max) */\n      jump\t// in\n    tag_64:\n        /* \"contracts/SSTORE2.sol\":1372:1426  return Bytecode.codeAt(_pointer, 1, type(uint256).max) */\n      swap1\n      pop\n        /* \"contracts/SSTORE2.sol\":1297:1431  function read(address _pointer) internal view returns (bytes memory) {... */\n      swap2\n      swap1\n      pop\n      jump\t// out\n        /* \"contracts/utils/Bytecode.sol\":1793:2739  function codeAt(address _addr, uint256 _start, uint256 _end) internal view returns (bytes memory oCode) {... */\n    tag_65:\n        /* \"contracts/utils/Bytecode.sol\":1877:1895  bytes memory oCode */\n      0x60\n        /* \"contracts/utils/Bytecode.sol\":1903:1916  uint256 csize */\n      0x00\n        /* \"contracts/utils/Bytecode.sol\":1919:1934  codeSize(_addr) */\n      tag_67\n        /* \"contracts/utils/Bytecode.sol\":1928:1933  _addr */\n      dup6\n        /* \"contracts/utils/Bytecode.sol\":1919:1927  codeSize */\n      tag_68\n        /* \"contracts/utils/Bytecode.sol\":1919:1934  codeSize(_addr) */\n      jump\t// in\n    tag_67:\n        /* \"contracts/utils/Bytecode.sol\":1903:1934  uint256 csize = codeSize(_addr) */\n      swap1\n      pop\n        /* \"contracts/utils/Bytecode.sol\":1953:1954  0 */\n      0x00\n        /* \"contracts/utils/Bytecode.sol\":1944:1949  csize */\n      dup2\n        /* \"contracts/utils/Bytecode.sol\":1944:1954  csize == 0 */\n      sub\n        /* \"contracts/utils/Bytecode.sol\":1940:1972  if (csize == 0) return bytes(\"\") */\n      tag_69\n      jumpi\n        /* \"contracts/utils/Bytecode.sol\":1963:1972  bytes(\"\") */\n      mload(0x40)\n      dup1\n      0x20\n      add\n      0x40\n      mstore\n      dup1\n      0x00\n      dup2\n      mstore\n      pop\n        /* \"contracts/utils/Bytecode.sol\":1956:1972  return bytes(\"\") */\n      swap2\n      pop\n      pop\n      jump(tag_66)\n        /* \"contracts/utils/Bytecode.sol\":1940:1972  if (csize == 0) return bytes(\"\") */\n    tag_69:\n        /* \"contracts/utils/Bytecode.sol\":1992:1997  csize */\n      dup1\n        /* \"contracts/utils/Bytecode.sol\":1983:1989  _start */\n      dup5\n        /* \"contracts/utils/Bytecode.sol\":1983:1997  _start > csize */\n      gt\n        /* \"contracts/utils/Bytecode.sol\":1979:2015  if (_start > csize) return bytes(\"\") */\n      iszero\n      tag_70\n      jumpi\n        /* \"contracts/utils/Bytecode.sol\":2006:2015  bytes(\"\") */\n      mload(0x40)\n      dup1\n      0x20\n      add\n      0x40\n      mstore\n      dup1\n      0x00\n      dup2\n      mstore\n      pop\n        /* \"contracts/utils/Bytecode.sol\":1999:2015  return bytes(\"\") */\n      swap2\n      pop\n      pop\n      jump(tag_66)\n        /* \"contracts/utils/Bytecode.sol\":1979:2015  if (_start > csize) return bytes(\"\") */\n    tag_70:\n        /* \"contracts/utils/Bytecode.sol\":2032:2038  _start */\n      dup4\n        /* \"contracts/utils/Bytecode.sol\":2025:2029  _end */\n      dup4\n        /* \"contracts/utils/Bytecode.sol\":2025:2038  _end < _start */\n      lt\n        /* \"contracts/utils/Bytecode.sol\":2021:2086  if (_end < _start) revert InvalidCodeAtRange(csize, _start, _end) */\n      iszero\n      tag_71\n      jumpi\n        /* \"contracts/utils/Bytecode.sol\":2066:2071  csize */\n      dup1\n        /* \"contracts/utils/Bytecode.sol\":2073:2079  _start */\n      dup5\n        /* \"contracts/utils/Bytecode.sol\":2081:2085  _end */\n      dup5\n        /* \"contracts/utils/Bytecode.sol\":2047:2086  InvalidCodeAtRange(csize, _start, _end) */\n      mload(0x40)\n      0x2c4a89fa00000000000000000000000000000000000000000000000000000000\n      dup2\n      mstore\n      0x04\n      add\n      tag_72\n      swap4\n      swap3\n      swap2\n      swap1\n      tag_73\n      jump\t// in\n    tag_72:\n      mload(0x40)\n      dup1\n      swap2\n      sub\n      swap1\n      revert\n        /* \"contracts/utils/Bytecode.sol\":2021:2086  if (_end < _start) revert InvalidCodeAtRange(csize, _start, _end) */\n    tag_71:\n        /* \"contracts/utils/Bytecode.sol\":2112:2127  uint256 reqSize */\n      0x00\n        /* \"contracts/utils/Bytecode.sol\":2137:2143  _start */\n      dup5\n        /* \"contracts/utils/Bytecode.sol\":2130:2134  _end */\n      dup5\n        /* \"contracts/utils/Bytecode.sol\":2130:2143  _end - _start */\n      sub\n        /* \"contracts/utils/Bytecode.sol\":2112:2143  uint256 reqSize = _end - _start */\n      swap1\n      pop\n        /* \"contracts/utils/Bytecode.sol\":2151:2166  uint256 maxSize */\n      0x00\n        /* \"contracts/utils/Bytecode.sol\":2177:2183  _start */\n      dup6\n        /* \"contracts/utils/Bytecode.sol\":2169:2174  csize */\n      dup4\n        /* \"contracts/utils/Bytecode.sol\":2169:2183  csize - _start */\n      sub\n        /* \"contracts/utils/Bytecode.sol\":2151:2183  uint256 maxSize = csize - _start */\n      swap1\n      pop\n        /* \"contracts/utils/Bytecode.sol\":2192:2204  uint256 size */\n      0x00\n        /* \"contracts/utils/Bytecode.sol\":2217:2224  reqSize */\n      dup3\n        /* \"contracts/utils/Bytecode.sol\":2207:2214  maxSize */\n      dup3\n        /* \"contracts/utils/Bytecode.sol\":2207:2224  maxSize < reqSize */\n      lt\n        /* \"contracts/utils/Bytecode.sol\":2207:2244  maxSize < reqSize ? maxSize : reqSize */\n      tag_74\n      jumpi\n        /* \"contracts/utils/Bytecode.sol\":2237:2244  reqSize */\n      dup3\n        /* \"contracts/utils/Bytecode.sol\":2207:2244  maxSize < reqSize ? maxSize : reqSize */\n      jump(tag_75)\n    tag_74:\n        /* \"contracts/utils/Bytecode.sol\":2227:2234  maxSize */\n      dup2\n        /* \"contracts/utils/Bytecode.sol\":2207:2244  maxSize < reqSize ? maxSize : reqSize */\n    tag_75:\n        /* \"contracts/utils/Bytecode.sol\":2192:2244  uint256 size = maxSize < reqSize ? maxSize : reqSize */\n      swap1\n      pop\n        /* \"contracts/utils/Bytecode.sol\":2413:2417  0x40 */\n      0x40\n        /* \"contracts/utils/Bytecode.sol\":2407:2418  mload(0x40) */\n      mload\n        /* \"contracts/utils/Bytecode.sol\":2398:2418  oCode := mload(0x40) */\n      swap5\n      pop\n        /* \"contracts/utils/Bytecode.sol\":2533:2537  0x1f */\n      0x1f\n        /* \"contracts/utils/Bytecode.sol\":2529:2538  not(0x1f) */\n      not\n        /* \"contracts/utils/Bytecode.sol\":2522:2526  0x1f */\n      0x1f\n        /* \"contracts/utils/Bytecode.sol\":2515:2519  0x20 */\n      0x20\n        /* \"contracts/utils/Bytecode.sol\":2509:2513  size */\n      dup4\n        /* \"contracts/utils/Bytecode.sol\":2505:2520  add(size, 0x20) */\n      add\n        /* \"contracts/utils/Bytecode.sol\":2501:2527  add(add(size, 0x20), 0x1f) */\n      add\n        /* \"contracts/utils/Bytecode.sol\":2497:2539  and(add(add(size, 0x20), 0x1f), not(0x1f)) */\n      and\n        /* \"contracts/utils/Bytecode.sol\":2490:2495  oCode */\n      dup6\n        /* \"contracts/utils/Bytecode.sol\":2486:2540  add(oCode, and(add(add(size, 0x20), 0x1f), not(0x1f))) */\n      add\n        /* \"contracts/utils/Bytecode.sol\":2480:2484  0x40 */\n      0x40\n        /* \"contracts/utils/Bytecode.sol\":2473:2541  mstore(0x40, add(oCode, and(add(add(size, 0x20), 0x1f), not(0x1f)))) */\n      mstore\n        /* \"contracts/utils/Bytecode.sol\":2598:2602  size */\n      dup1\n        /* \"contracts/utils/Bytecode.sol\":2591:2596  oCode */\n      dup6\n        /* \"contracts/utils/Bytecode.sol\":2584:2603  mstore(oCode, size) */\n      mstore\n        /* \"contracts/utils/Bytecode.sol\":2716:2720  size */\n      dup1\n        /* \"contracts/utils/Bytecode.sol\":2708:2714  _start */\n      dup8\n        /* \"contracts/utils/Bytecode.sol\":2701:2705  0x20 */\n      0x20\n        /* \"contracts/utils/Bytecode.sol\":2694:2699  oCode */\n      dup8\n        /* \"contracts/utils/Bytecode.sol\":2690:2706  add(oCode, 0x20) */\n      add\n        /* \"contracts/utils/Bytecode.sol\":2683:2688  _addr */\n      dup11\n        /* \"contracts/utils/Bytecode.sol\":2671:2721  extcodecopy(_addr, add(oCode, 0x20), _start, size) */\n      extcodecopy\n        /* \"contracts/utils/Bytecode.sol\":2262:2729  {... */\n      pop\n      pop\n      pop\n        /* \"contracts/utils/Bytecode.sol\":1897:2739  {... */\n      pop\n        /* \"contracts/utils/Bytecode.sol\":1793:2739  function codeAt(address _addr, uint256 _start, uint256 _end) internal view returns (bytes memory oCode) {... */\n    tag_66:\n      swap4\n      swap3\n      pop\n      pop\n      pop\n      jump\t// out\n        /* \"contracts/utils/Bytecode.sol\":1261:1380  function codeSize(address _addr) internal view returns (uint256 size) {... */\n    tag_68:\n        /* \"contracts/utils/Bytecode.sol\":1317:1329  uint256 size */\n      0x00\n        /* \"contracts/utils/Bytecode.sol\":1368:1373  _addr */\n      dup2\n        /* \"contracts/utils/Bytecode.sol\":1356:1374  extcodesize(_addr) */\n      extcodesize\n        /* \"contracts/utils/Bytecode.sol\":1348:1374  size := extcodesize(_addr) */\n      swap1\n      pop\n        /* \"contracts/utils/Bytecode.sol\":1261:1380  function codeSize(address _addr) internal view returns (uint256 size) {... */\n      swap2\n      swap1\n      pop\n      jump\t// out\n        /* \"#utility.yul\":7:105   */\n    tag_77:\n        /* \"#utility.yul\":58:64   */\n      0x00\n        /* \"#utility.yul\":92:97   */\n      dup2\n        /* \"#utility.yul\":86:98   */\n      mload\n        /* \"#utility.yul\":76:98   */\n      swap1\n      pop\n        /* \"#utility.yul\":7:105   */\n      swap2\n      swap1\n      pop\n      jump\t// out\n        /* \"#utility.yul\":111:279   */\n    tag_78:\n        /* \"#utility.yul\":194:205   */\n      0x00\n        /* \"#utility.yul\":228:234   */\n      dup3\n        /* \"#utility.yul\":223:226   */\n      dup3\n        /* \"#utility.yul\":216:235   */\n      mstore\n        /* \"#utility.yul\":268:272   */\n      0x20\n        /* \"#utility.yul\":263:266   */\n      dup3\n        /* \"#utility.yul\":259:273   */\n      add\n        /* \"#utility.yul\":244:273   */\n      swap1\n      pop\n        /* \"#utility.yul\":111:279   */\n      swap3\n      swap2\n      pop\n      pop\n      jump\t// out\n        /* \"#utility.yul\":285:424   */\n    tag_79:\n        /* \"#utility.yul\":374:380   */\n      dup3\n        /* \"#utility.yul\":369:372   */\n      dup2\n        /* \"#utility.yul\":364:367   */\n      dup4\n        /* \"#utility.yul\":358:381   */\n      mcopy\n        /* \"#utility.yul\":415:416   */\n      0x00\n        /* \"#utility.yul\":406:412   */\n      dup4\n        /* \"#utility.yul\":401:404   */\n      dup4\n        /* \"#utility.yul\":397:413   */\n      add\n        /* \"#utility.yul\":390:417   */\n      mstore\n        /* \"#utility.yul\":285:424   */\n      pop\n      pop\n      pop\n      jump\t// out\n        /* \"#utility.yul\":430:532   */\n    tag_80:\n        /* \"#utility.yul\":471:477   */\n      0x00\n        /* \"#utility.yul\":522:524   */\n      0x1f\n        /* \"#utility.yul\":518:525   */\n      not\n        /* \"#utility.yul\":513:515   */\n      0x1f\n        /* \"#utility.yul\":506:511   */\n      dup4\n        /* \"#utility.yul\":502:516   */\n      add\n        /* \"#utility.yul\":498:526   */\n      and\n        /* \"#utility.yul\":488:526   */\n      swap1\n      pop\n        /* \"#utility.yul\":430:532   */\n      swap2\n      swap1\n      pop\n      jump\t// out\n        /* \"#utility.yul\":538:911   */\n    tag_81:\n        /* \"#utility.yul\":624:627   */\n      0x00\n        /* \"#utility.yul\":652:690   */\n      tag_98\n        /* \"#utility.yul\":684:689   */\n      dup3\n        /* \"#utility.yul\":652:690   */\n      tag_77\n      jump\t// in\n    tag_98:\n        /* \"#utility.yul\":706:776   */\n      tag_99\n        /* \"#utility.yul\":769:775   */\n      dup2\n        /* \"#utility.yul\":764:767   */\n      dup6\n        /* \"#utility.yul\":706:776   */\n      tag_78\n      jump\t// in\n    tag_99:\n        /* \"#utility.yul\":699:776   */\n      swap4\n      pop\n        /* \"#utility.yul\":785:850   */\n      tag_100\n        /* \"#utility.yul\":843:849   */\n      dup2\n        /* \"#utility.yul\":838:841   */\n      dup6\n        /* \"#utility.yul\":831:835   */\n      0x20\n        /* \"#utility.yul\":824:829   */\n      dup7\n        /* \"#utility.yul\":820:836   */\n      add\n        /* \"#utility.yul\":785:850   */\n      tag_79\n      jump\t// in\n    tag_100:\n        /* \"#utility.yul\":875:904   */\n      tag_101\n        /* \"#utility.yul\":897:903   */\n      dup2\n        /* \"#utility.yul\":875:904   */\n      tag_80\n      jump\t// in\n    tag_101:\n        /* \"#utility.yul\":870:873   */\n      dup5\n        /* \"#utility.yul\":866:905   */\n      add\n        /* \"#utility.yul\":859:905   */\n      swap2\n      pop\n        /* \"#utility.yul\":628:911   */\n      pop\n        /* \"#utility.yul\":538:911   */\n      swap3\n      swap2\n      pop\n      pop\n      jump\t// out\n        /* \"#utility.yul\":917:1226   */\n    tag_15:\n        /* \"#utility.yul\":1028:1032   */\n      0x00\n        /* \"#utility.yul\":1066:1068   */\n      0x20\n        /* \"#utility.yul\":1055:1064   */\n      dup3\n        /* \"#utility.yul\":1051:1069   */\n      add\n        /* \"#utility.yul\":1043:1069   */\n      swap1\n      pop\n        /* \"#utility.yul\":1115:1124   */\n      dup2\n        /* \"#utility.yul\":1109:1113   */\n      dup2\n        /* \"#utility.yul\":1105:1125   */\n      sub\n        /* \"#utility.yul\":1101:1102   */\n      0x00\n        /* \"#utility.yul\":1090:1099   */\n      dup4\n        /* \"#utility.yul\":1086:1103   */\n      add\n        /* \"#utility.yul\":1079:1126   */\n      mstore\n        /* \"#utility.yul\":1143:1219   */\n      tag_103\n        /* \"#utility.yul\":1214:1218   */\n      dup2\n        /* \"#utility.yul\":1205:1211   */\n      dup5\n        /* \"#utility.yul\":1143:1219   */\n      tag_81\n      jump\t// in\n    tag_103:\n        /* \"#utility.yul\":1135:1219   */\n      swap1\n      pop\n        /* \"#utility.yul\":917:1226   */\n      swap3\n      swap2\n      pop\n      pop\n      jump\t// out\n        /* \"#utility.yul\":1232:1358   */\n    tag_82:\n        /* \"#utility.yul\":1269:1276   */\n      0x00\n        /* \"#utility.yul\":1309:1351   */\n      0xffffffffffffffffffffffffffffffffffffffff\n        /* \"#utility.yul\":1302:1307   */\n      dup3\n        /* \"#utility.yul\":1298:1352   */\n      and\n        /* \"#utility.yul\":1287:1352   */\n      swap1\n      pop\n        /* \"#utility.yul\":1232:1358   */\n      swap2\n      swap1\n      pop\n      jump\t// out\n        /* \"#utility.yul\":1364:1460   */\n    tag_83:\n        /* \"#utility.yul\":1401:1408   */\n      0x00\n        /* \"#utility.yul\":1430:1454   */\n      tag_106\n        /* \"#utility.yul\":1448:1453   */\n      dup3\n        /* \"#utility.yul\":1430:1454   */\n      tag_82\n      jump\t// in\n    tag_106:\n        /* \"#utility.yul\":1419:1454   */\n      swap1\n      pop\n        /* \"#utility.yul\":1364:1460   */\n      swap2\n      swap1\n      pop\n      jump\t// out\n        /* \"#utility.yul\":1466:1584   */\n    tag_84:\n        /* \"#utility.yul\":1553:1577   */\n      tag_108\n        /* \"#utility.yul\":1571:1576   */\n      dup2\n        /* \"#utility.yul\":1553:1577   */\n      tag_83\n      jump\t// in\n    tag_108:\n        /* \"#utility.yul\":1548:1551   */\n      dup3\n        /* \"#utility.yul\":1541:1578   */\n      mstore\n        /* \"#utility.yul\":1466:1584   */\n      pop\n      pop\n      jump\t// out\n        /* \"#utility.yul\":1590:1812   */\n    tag_19:\n        /* \"#utility.yul\":1683:1687   */\n      0x00\n        /* \"#utility.yul\":1721:1723   */\n      0x20\n        /* \"#utility.yul\":1710:1719   */\n      dup3\n        /* \"#utility.yul\":1706:1724   */\n      add\n        /* \"#utility.yul\":1698:1724   */\n      swap1\n      pop\n        /* \"#utility.yul\":1734:1805   */\n      tag_110\n        /* \"#utility.yul\":1802:1803   */\n      0x00\n        /* \"#utility.yul\":1791:1800   */\n      dup4\n        /* \"#utility.yul\":1787:1804   */\n      add\n        /* \"#utility.yul\":1778:1784   */\n      dup5\n        /* \"#utility.yul\":1734:1805   */\n      tag_84\n      jump\t// in\n    tag_110:\n        /* \"#utility.yul\":1590:1812   */\n      swap3\n      swap2\n      pop\n      pop\n      jump\t// out\n        /* \"#utility.yul\":1899:2016   */\n    tag_86:\n        /* \"#utility.yul\":2008:2009   */\n      0x00\n        /* \"#utility.yul\":2005:2006   */\n      dup1\n        /* \"#utility.yul\":1998:2010   */\n      revert\n        /* \"#utility.yul\":2145:2222   */\n    tag_88:\n        /* \"#utility.yul\":2182:2189   */\n      0x00\n        /* \"#utility.yul\":2211:2216   */\n      dup2\n        /* \"#utility.yul\":2200:2216   */\n      swap1\n      pop\n        /* \"#utility.yul\":2145:2222   */\n      swap2\n      swap1\n      pop\n      jump\t// out\n        /* \"#utility.yul\":2228:2350   */\n    tag_89:\n        /* \"#utility.yul\":2301:2325   */\n      tag_116\n        /* \"#utility.yul\":2319:2324   */\n      dup2\n        /* \"#utility.yul\":2301:2325   */\n      tag_88\n      jump\t// in\n    tag_116:\n        /* \"#utility.yul\":2294:2299   */\n      dup2\n        /* \"#utility.yul\":2291:2326   */\n      eq\n        /* \"#utility.yul\":2281:2344   */\n      tag_117\n      jumpi\n        /* \"#utility.yul\":2340:2341   */\n      0x00\n        /* \"#utility.yul\":2337:2338   */\n      dup1\n        /* \"#utility.yul\":2330:2342   */\n      revert\n        /* \"#utility.yul\":2281:2344   */\n    tag_117:\n        /* \"#utility.yul\":2228:2350   */\n      pop\n      jump\t// out\n        /* \"#utility.yul\":2356:2495   */\n    tag_90:\n        /* \"#utility.yul\":2402:2407   */\n      0x00\n        /* \"#utility.yul\":2440:2446   */\n      dup2\n        /* \"#utility.yul\":2427:2447   */\n      calldataload\n        /* \"#utility.yul\":2418:2447   */\n      swap1\n      pop\n        /* \"#utility.yul\":2456:2489   */\n      tag_119\n        /* \"#utility.yul\":2483:2488   */\n      dup2\n        /* \"#utility.yul\":2456:2489   */\n      tag_89\n      jump\t// in\n    tag_119:\n        /* \"#utility.yul\":2356:2495   */\n      swap3\n      swap2\n      pop\n      pop\n      jump\t// out\n        /* \"#utility.yul\":2501:2830   */\n    tag_22:\n        /* \"#utility.yul\":2560:2566   */\n      0x00\n        /* \"#utility.yul\":2609:2611   */\n      0x20\n        /* \"#utility.yul\":2597:2606   */\n      dup3\n        /* \"#utility.yul\":2588:2595   */\n      dup5\n        /* \"#utility.yul\":2584:2607   */\n      sub\n        /* \"#utility.yul\":2580:2612   */\n      slt\n        /* \"#utility.yul\":2577:2696   */\n      iszero\n      tag_121\n      jumpi\n        /* \"#utility.yul\":2615:2694   */\n      tag_122\n      tag_86\n      jump\t// in\n    tag_122:\n        /* \"#utility.yul\":2577:2696   */\n    tag_121:\n        /* \"#utility.yul\":2735:2736   */\n      0x00\n        /* \"#utility.yul\":2760:2813   */\n      tag_123\n        /* \"#utility.yul\":2805:2812   */\n      dup5\n        /* \"#utility.yul\":2796:2802   */\n      dup3\n        /* \"#utility.yul\":2785:2794   */\n      dup6\n        /* \"#utility.yul\":2781:2803   */\n      add\n        /* \"#utility.yul\":2760:2813   */\n      tag_90\n      jump\t// in\n    tag_123:\n        /* \"#utility.yul\":2750:2813   */\n      swap2\n      pop\n        /* \"#utility.yul\":2706:2823   */\n      pop\n        /* \"#utility.yul\":2501:2830   */\n      swap3\n      swap2\n      pop\n      pop\n      jump\t// out\n        /* \"#utility.yul\":2836:3016   */\n    tag_50:\n        /* \"#utility.yul\":2884:2961   */\n      0x4e487b7100000000000000000000000000000000000000000000000000000000\n        /* \"#utility.yul\":2881:2882   */\n      0x00\n        /* \"#utility.yul\":2874:2962   */\n      mstore\n        /* \"#utility.yul\":2981:2985   */\n      0x32\n        /* \"#utility.yul\":2978:2979   */\n      0x04\n        /* \"#utility.yul\":2971:2986   */\n      mstore\n        /* \"#utility.yul\":3005:3009   */\n      0x24\n        /* \"#utility.yul\":3002:3003   */\n      0x00\n        /* \"#utility.yul\":2995:3010   */\n      revert\n        /* \"#utility.yul\":3022:3140   */\n    tag_91:\n        /* \"#utility.yul\":3109:3133   */\n      tag_126\n        /* \"#utility.yul\":3127:3132   */\n      dup2\n        /* \"#utility.yul\":3109:3133   */\n      tag_88\n      jump\t// in\n    tag_126:\n        /* \"#utility.yul\":3104:3107   */\n      dup3\n        /* \"#utility.yul\":3097:3134   */\n      mstore\n        /* \"#utility.yul\":3022:3140   */\n      pop\n      pop\n      jump\t// out\n        /* \"#utility.yul\":3146:3588   */\n    tag_73:\n        /* \"#utility.yul\":3295:3299   */\n      0x00\n        /* \"#utility.yul\":3333:3335   */\n      0x60\n        /* \"#utility.yul\":3322:3331   */\n      dup3\n        /* \"#utility.yul\":3318:3336   */\n      add\n        /* \"#utility.yul\":3310:3336   */\n      swap1\n      pop\n        /* \"#utility.yul\":3346:3417   */\n      tag_128\n        /* \"#utility.yul\":3414:3415   */\n      0x00\n        /* \"#utility.yul\":3403:3412   */\n      dup4\n        /* \"#utility.yul\":3399:3416   */\n      add\n        /* \"#utility.yul\":3390:3396   */\n      dup7\n        /* \"#utility.yul\":3346:3417   */\n      tag_91\n      jump\t// in\n    tag_128:\n        /* \"#utility.yul\":3427:3499   */\n      tag_129\n        /* \"#utility.yul\":3495:3497   */\n      0x20\n        /* \"#utility.yul\":3484:3493   */\n      dup4\n        /* \"#utility.yul\":3480:3498   */\n      add\n        /* \"#utility.yul\":3471:3477   */\n      dup6\n        /* \"#utility.yul\":3427:3499   */\n      tag_91\n      jump\t// in\n    tag_129:\n        /* \"#utility.yul\":3509:3581   */\n      tag_130\n        /* \"#utility.yul\":3577:3579   */\n      0x40\n        /* \"#utility.yul\":3566:3575   */\n      dup4\n        /* \"#utility.yul\":3562:3580   */\n      add\n        /* \"#utility.yul\":3553:3559   */\n      dup5\n        /* \"#utility.yul\":3509:3581   */\n      tag_91\n      jump\t// in\n    tag_130:\n        /* \"#utility.yul\":3146:3588   */\n      swap5\n      swap4\n      pop\n      pop\n      pop\n      pop\n      jump\t// out\n\n    auxdata: 0xa2646970667358221220eb234ee9652f108106f81f67a22e4c0a17c56a7dfbccd0139c0c2ff3263fb2b364736f6c634300081a0033\n}\n",
				"bytecode": {
					"linkReferences": {},
					"object": "608060405234801561000f575f80fd5b506100376040518060c00160405280609f81526020016110d8609f91396104ca60201b60201c565b5f806101000a81548173ffffffffffffffffffffffffffffffffffffffff021916908373ffffffffffffffffffffffffffffffffffffffff1602179055506100b96040518060400160405280600681526020017f3c2f7376673e00000000000000000000000000000000000000000000000000008152506104ca60201b60201c565b60015f6101000a81548173ffffffffffffffffffffffffffffffffffffffff021916908373ffffffffffffffffffffffffffffffffffffffff16021790555061011f6040518060e0016040528060ae8152602001610dfe60ae91396104ca60201b60201c565b60025f600481106101335761013261059d565b5b015f6101000a81548173ffffffffffffffffffffffffffffffffffffffff021916908373ffffffffffffffffffffffffffffffffffffffff1602179055506101986040518060e0016040528060b08152602001610f0b60b091396104ca60201b60201c565b60026001600481106101ad576101ac61059d565b5b015f6101000a81548173ffffffffffffffffffffffffffffffffffffffff021916908373ffffffffffffffffffffffffffffffffffffffff1602179055506102126040518060e0016040528060af815260200161122560af91396104ca60201b60201c565b600280600481106102265761022561059d565b5b015f6101000a81548173ffffffffffffffffffffffffffffffffffffffff021916908373ffffffffffffffffffffffffffffffffffffffff16021790555061028b6040518060e0016040528060ae815260200161117760ae91396104ca60201b60201c565b60026003600481106102a05761029f61059d565b5b015f6101000a81548173ffffffffffffffffffffffffffffffffffffffff021916908373ffffffffffffffffffffffffffffffffffffffff1602179055506103056040518060800160405280605f8152602001610eac605f91396104ca60201b60201c565b60065f600481106103195761031861059d565b5b015f6101000a81548173ffffffffffffffffffffffffffffffffffffffff021916908373ffffffffffffffffffffffffffffffffffffffff16021790555061037e6040518060800160405280605f8152602001610fbb605f91396104ca60201b60201c565b60066001600481106103935761039261059d565b5b015f6101000a81548173ffffffffffffffffffffffffffffffffffffffff021916908373ffffffffffffffffffffffffffffffffffffffff1602179055506103f86040518060800160405280605f8152602001611079605f91396104ca60201b60201c565b600660026004811061040d5761040c61059d565b5b015f6101000a81548173ffffffffffffffffffffffffffffffffffffffff021916908373ffffffffffffffffffffffffffffffffffffffff1602179055506104726040518060800160405280605f815260200161101a605f91396104ca60201b60201c565b60066003600481106104875761048661059d565b5b015f6101000a81548173ffffffffffffffffffffffffffffffffffffffff021916908373ffffffffffffffffffffffffffffffffffffffff160217905550610785565b5f806104fa836040516020016104e09190610650565b60405160208183030381529060405261057160201b60201c565b90508051602082015ff091505f73ffffffffffffffffffffffffffffffffffffffff168273ffffffffffffffffffffffffffffffffffffffff160361056b576040517f08d4abb600000000000000000000000000000000000000000000000000000000815260040160405180910390fd5b50919050565b6060815182604051602001610587929190610748565b6040516020818303038152906040529050919050565b7f4e487b71000000000000000000000000000000000000000000000000000000005f52603260045260245ffd5b5f81905092915050565b5f8082015250565b5f6105e86001836105ca565b91506105f3826105d4565b600182019050919050565b5f81519050919050565b5f81905092915050565b8281835e5f83830152505050565b5f61062a826105fe565b6106348185610608565b9350610644818560208601610612565b80840191505092915050565b5f61065a826105dc565b91506106668284610620565b915081905092915050565b7f63000000000000000000000000000000000000000000000000000000000000005f82015250565b5f6106a56001836105ca565b91506106b082610671565b600182019050919050565b5f63ffffffff82169050919050565b5f8160e01b9050919050565b5f6106e0826106ca565b9050919050565b6106f86106f3826106bb565b6106d6565b82525050565b7f80600e6000396000f300000000000000000000000000000000000000000000005f82015250565b5f6107326009836105ca565b915061073d826106fe565b600982019050919050565b5f61075282610699565b915061075e82856106e7565b60048201915061076d82610726565b91506107798284610620565b91508190509392505050565b61066c806107925f395ff3fe608060405234801561000f575f80fd5b5060043610610086575f3560e01c8063af7856ce11610059578063af7856ce14610114578063bdb6906214610144578063df6bcdd514610174578063e9ce32741461019257610086565b806313d8c8401461008a5780633494a75b146100a85780633c8c014d146100c65780638f7dcfa3146100f6575b5f80fd5b6100926101c2565b60405161009f91906104eb565b60405180910390f35b6100b06101f3565b6040516100bd919061054a565b60405180910390f35b6100e060048036038101906100db919061059a565b610216565b6040516100ed91906104eb565b60405180910390f35b6100fe61025c565b60405161010b91906104eb565b60405180910390f35b61012e6004803603810190610129919061059a565b61028b565b60405161013b919061054a565b60405180910390f35b61015e6004803603810190610159919061059a565b6102bf565b60405161016b91906104eb565b60405180910390f35b61017c610305565b604051610189919061054a565b60405180910390f35b6101ac60048036038101906101a7919061059a565b61032a565b6040516101b9919061054a565b60405180910390f35b60606101ee60015f9054906101000a900473ffffffffffffffffffffffffffffffffffffffff1661035e565b905090565b5f8054906101000a900473ffffffffffffffffffffffffffffffffffffffff1681565b60606102556002836004811061022f5761022e6105c5565b5b015f9054906101000a900473ffffffffffffffffffffffffffffffffffffffff1661035e565b9050919050565b60606102865f8054906101000a900473ffffffffffffffffffffffffffffffffffffffff1661035e565b905090565b6006816004811061029a575f80fd5b015f915054906101000a900473ffffffffffffffffffffffffffffffffffffffff1681565b60606102fe600683600481106102d8576102d76105c5565b5b015f9054906101000a900473ffffffffffffffffffffffffffffffffffffffff1661035e565b9050919050565b60015f9054906101000a900473ffffffffffffffffffffffffffffffffffffffff1681565b60028160048110610339575f80fd5b015f915054906101000a900473ffffffffffffffffffffffffffffffffffffffff1681565b606061038c8260017fffffffffffffffffffffffffffffffffffffffffffffffffffffffffffffffff610393565b9050919050565b60605f61039f85610471565b90505f81036103bf5760405180602001604052805f81525091505061046a565b808411156103de5760405180602001604052805f81525091505061046a565b83831015610427578084846040517f2c4a89fa00000000000000000000000000000000000000000000000000000000815260040161041e93929190610601565b60405180910390fd5b5f84840390505f85830390505f8282106104415782610443565b815b90506040519450601f19601f60208301011685016040528085528087602087018a3c505050505b9392505050565b5f813b9050919050565b5f81519050919050565b5f82825260208201905092915050565b8281835e5f83830152505050565b5f601f19601f8301169050919050565b5f6104bd8261047b565b6104c78185610485565b93506104d7818560208601610495565b6104e0816104a3565b840191505092915050565b5f6020820190508181035f83015261050381846104b3565b905092915050565b5f73ffffffffffffffffffffffffffffffffffffffff82169050919050565b5f6105348261050b565b9050919050565b6105448161052a565b82525050565b5f60208201905061055d5f83018461053b565b92915050565b5f80fd5b5f819050919050565b61057981610567565b8114610583575f80fd5b50565b5f8135905061059481610570565b92915050565b5f602082840312156105af576105ae610563565b5b5f6105bc84828501610586565b91505092915050565b7f4e487b71000000000000000000000000000000000000000000000000000000005f52603260045260245ffd5b6105fb81610567565b82525050565b5f6060820190506106145f8301866105f2565b61062160208301856105f2565b61062e60408301846105f2565b94935050505056fea2646970667358221220eb234ee9652f108106f81f67a22e4c0a17c56a7dfbccd0139c0c2ff3263fb2b364736f6c634300081a00333c7061746820643d224d203531322031313220412034303020343030203020302031203535312e32303638353631333138323433203131332e3932363130393333313132313237204c203535392e303438323237333538313839312033342e33313133333131393733343535312041203438302034383020302030203020353132203332205a22207374726f6b653d22626c61636b22207374726f6b652d77696474683d2231222066696c6c3d223c7465787420783d223531322220793d223436352220666f6e742d73697a653d223232222066696c6c3d2277686974652220746578742d616e63686f723d226d6964646c652220666f6e742d66616d696c793d226d6f6e6f7370616365223e3c7061746820643d224d203531322031393220412033323020333230203020302031203534332e33363534383439303534353934203139332e3534303838373436343839373033204c203535312e32303638353631333138323433203131332e3932363130393333313132313237204120343030203430302030203020302035313220313132205a22207374726f6b653d22626c61636b22207374726f6b652d77696474683d2231222066696c6c3d223c7465787420783d223531322220793d223530312220666f6e742d73697a653d223232222066696c6c3d2277686974652220746578742d616e63686f723d226d6964646c652220666f6e742d66616d696c793d226d6f6e6f7370616365223e3c7465787420783d223531322220793d223537332220666f6e742d73697a653d223232222066696c6c3d2277686974652220746578742d616e63686f723d226d6964646c652220666f6e742d66616d696c793d226d6f6e6f7370616365223e3c7465787420783d223531322220793d223533372220666f6e742d73697a653d223232222066696c6c3d2277686974652220746578742d616e63686f723d226d6964646c652220666f6e742d66616d696c793d226d6f6e6f7370616365223e3c73766720786d6c6e733d22687474703a2f2f7777772e77332e6f72672f323030302f737667222076696577426f783d223020302031303234203130323422207072657365727665417370656374526174696f3d22784d6964594d6964206d656574223e3c7265637420783d22302220793d2230222077696474683d223130323422206865696768743d2231303234222066696c6c3d22626c61636b222f3e3c7061746820643d224d203531322033353220412031363020313630203020302031203532372e36383237343234353237323937203335322e37373034343337333234343835204c203533352e35323431313336373930393436203237332e31353536363535393836373237204120323430203234302030203020302035313220323732205a22207374726f6b653d22626c61636b22207374726f6b652d77696474683d2231222066696c6c3d223c7061746820643d224d203531322032373220412032343020323430203020302031203533352e35323431313336373930393436203237332e31353536363535393836373237204c203534332e33363534383439303534353934203139332e3534303838373436343839373033204120333230203332302030203020302035313220313932205a22207374726f6b653d22626c61636b22207374726f6b652d77696474683d2231222066696c6c3d22",
					"opcodes": "PUSH1 0x80 PUSH1 0x40 MSTORE CALLVALUE DUP1 ISZERO PUSH2 0xF JUMPI PUSH0 DUP1 REVERT JUMPDEST POP PUSH2 0x37 PUSH1 0x40 MLOAD DUP1 PUSH1 0xC0 ADD PUSH1 0x40 MSTORE DUP1 PUSH1 0x9F DUP2 MSTORE PUSH1 0x20 ADD PUSH2 0x10D8 PUSH1 0x9F SWAP2 CODECOPY PUSH2 0x4CA PUSH1 0x20 SHL PUSH1 0x20 SHR JUMP JUMPDEST PUSH0 DUP1 PUSH2 0x100 EXP DUP2 SLOAD DUP2 PUSH20 0xFFFFFFFFFFFFFFFFFFFFFFFFFFFFFFFFFFFFFFFF MUL NOT AND SWAP1 DUP4 PUSH20 0xFFFFFFFFFFFFFFFFFFFFFFFFFFFFFFFFFFFFFFFF AND MUL OR SWAP1 SSTORE POP PUSH2 0xB9 PUSH1 0x40 MLOAD DUP1 PUSH1 0x40 ADD PUSH1 0x40 MSTORE DUP1 PUSH1 0x6 DUP2 MSTORE PUSH1 0x20 ADD PUSH32 0x3C2F7376673E0000000000000000000000000000000000000000000000000000 DUP2 MSTORE POP PUSH2 0x4CA PUSH1 0x20 SHL PUSH1 0x20 SHR JUMP JUMPDEST PUSH1 0x1 PUSH0 PUSH2 0x100 EXP DUP2 SLOAD DUP2 PUSH20 0xFFFFFFFFFFFFFFFFFFFFFFFFFFFFFFFFFFFFFFFF MUL NOT AND SWAP1 DUP4 PUSH20 0xFFFFFFFFFFFFFFFFFFFFFFFFFFFFFFFFFFFFFFFF AND MUL OR SWAP1 SSTORE POP PUSH2 0x11F PUSH1 0x40 MLOAD DUP1 PUSH1 0xE0 ADD PUSH1 0x40 MSTORE DUP1 PUSH1 0xAE DUP2 MSTORE PUSH1 0x20 ADD PUSH2 0xDFE PUSH1 0xAE SWAP2 CODECOPY PUSH2 0x4CA PUSH1 0x20 SHL PUSH1 0x20 SHR JUMP JUMPDEST PUSH1 0x2 PUSH0 PUSH1 0x4 DUP2 LT PUSH2 0x133 JUMPI PUSH2 0x132 PUSH2 0x59D JUMP JUMPDEST JUMPDEST ADD PUSH0 PUSH2 0x100 EXP DUP2 SLOAD DUP2 PUSH20 0xFFFFFFFFFFFFFFFFFFFFFFFFFFFFFFFFFFFFFFFF MUL NOT AND SWAP1 DUP4 PUSH20 0xFFFFFFFFFFFFFFFFFFFFFFFFFFFFFFFFFFFFFFFF AND MUL OR SWAP1 SSTORE POP PUSH2 0x198 PUSH1 0x40 MLOAD DUP1 PUSH1 0xE0 ADD PUSH1 0x40 MSTORE DUP1 PUSH1 0xB0 DUP2 MSTORE PUSH1 0x20 ADD PUSH2 0xF0B PUSH1 0xB0 SWAP2 CODECOPY PUSH2 0x4CA PUSH1 0x20 SHL PUSH1 0x20 SHR JUMP JUMPDEST PUSH1 0x2 PUSH1 0x1 PUSH1 0x4 DUP2 LT PUSH2 0x1AD JUMPI PUSH2 0x1AC PUSH2 0x59D JUMP JUMPDEST JUMPDEST ADD PUSH0 PUSH2 0x100 EXP DUP2 SLOAD DUP2 PUSH20 0xFFFFFFFFFFFFFFFFFFFFFFFFFFFFFFFFFFFFFFFF MUL NOT AND SWAP1 DUP4 PUSH20 0xFFFFFFFFFFFFFFFFFFFFFFFFFFFFFFFFFFFFFFFF AND MUL OR SWAP1 SSTORE POP PUSH2 0x212 PUSH1 0x40 MLOAD DUP1 PUSH1 0xE0 ADD PUSH1 0x40 MSTORE DUP1 PUSH1 0xAF DUP2 MSTORE PUSH1 0x20 ADD PUSH2 0x1225 PUSH1 0xAF SWAP2 CODECOPY PUSH2 0x4CA PUSH1 0x20 SHL PUSH1 0x20 SHR JUMP JUMPDEST PUSH1 0x2 DUP1 PUSH1 0x4 DUP2 LT PUSH2 0x226 JUMPI PUSH2 0x225 PUSH2 0x59D JUMP JUMPDEST JUMPDEST ADD PUSH0 PUSH2 0x100 EXP DUP2 SLOAD DUP2 PUSH20 0xFFFFFFFFFFFFFFFFFFFFFFFFFFFFFFFFFFFFFFFF MUL NOT AND SWAP1 DUP4 PUSH20 0xFFFFFFFFFFFFFFFFFFFFFFFFFFFFFFFFFFFFFFFF AND MUL OR SWAP1 SSTORE POP PUSH2 0x28B PUSH1 0x40 MLOAD DUP1 PUSH1 0xE0 ADD PUSH1 0x40 MSTORE DUP1 PUSH1 0xAE DUP2 MSTORE PUSH1 0x20 ADD PUSH2 0x1177 PUSH1 0xAE SWAP2 CODECOPY PUSH2 0x4CA PUSH1 0x20 SHL PUSH1 0x20 SHR JUMP JUMPDEST PUSH1 0x2 PUSH1 0x3 PUSH1 0x4 DUP2 LT PUSH2 0x2A0 JUMPI PUSH2 0x29F PUSH2 0x59D JUMP JUMPDEST JUMPDEST ADD PUSH0 PUSH2 0x100 EXP DUP2 SLOAD DUP2 PUSH20 0xFFFFFFFFFFFFFFFFFFFFFFFFFFFFFFFFFFFFFFFF MUL NOT AND SWAP1 DUP4 PUSH20 0xFFFFFFFFFFFFFFFFFFFFFFFFFFFFFFFFFFFFFFFF AND MUL OR SWAP1 SSTORE POP PUSH2 0x305 PUSH1 0x40 MLOAD DUP1 PUSH1 0x80 ADD PUSH1 0x40 MSTORE DUP1 PUSH1 0x5F DUP2 MSTORE PUSH1 0x20 ADD PUSH2 0xEAC PUSH1 0x5F SWAP2 CODECOPY PUSH2 0x4CA PUSH1 0x20 SHL PUSH1 0x20 SHR JUMP JUMPDEST PUSH1 0x6 PUSH0 PUSH1 0x4 DUP2 LT PUSH2 0x319 JUMPI PUSH2 0x318 PUSH2 0x59D JUMP JUMPDEST JUMPDEST ADD PUSH0 PUSH2 0x100 EXP DUP2 SLOAD DUP2 PUSH20 0xFFFFFFFFFFFFFFFFFFFFFFFFFFFFFFFFFFFFFFFF MUL NOT AND SWAP1 DUP4 PUSH20 0xFFFFFFFFFFFFFFFFFFFFFFFFFFFFFFFFFFFFFFFF AND MUL OR SWAP1 SSTORE POP PUSH2 0x37E PUSH1 0x40 MLOAD DUP1 PUSH1 0x80 ADD PUSH1 0x40 MSTORE DUP1 PUSH1 0x5F DUP2 MSTORE PUSH1 0x20 ADD PUSH2 0xFBB PUSH1 0x5F SWAP2 CODECOPY PUSH2 0x4CA PUSH1 0x20 SHL PUSH1 0x20 SHR JUMP JUMPDEST PUSH1 0x6 PUSH1 0x1 PUSH1 0x4 DUP2 LT PUSH2 0x393 JUMPI PUSH2 0x392 PUSH2 0x59D JUMP JUMPDEST JUMPDEST ADD PUSH0 PUSH2 0x100 EXP DUP2 SLOAD DUP2 PUSH20 0xFFFFFFFFFFFFFFFFFFFFFFFFFFFFFFFFFFFFFFFF MUL NOT AND SWAP1 DUP4 PUSH20 0xFFFFFFFFFFFFFFFFFFFFFFFFFFFFFFFFFFFFFFFF AND MUL OR SWAP1 SSTORE POP PUSH2 0x3F8 PUSH1 0x40 MLOAD DUP1 PUSH1 0x80 ADD PUSH1 0x40 MSTORE DUP1 PUSH1 0x5F DUP2 MSTORE PUSH1 0x20 ADD PUSH2 0x1079 PUSH1 0x5F SWAP2 CODECOPY PUSH2 0x4CA PUSH1 0x20 SHL PUSH1 0x20 SHR JUMP JUMPDEST PUSH1 0x6 PUSH1 0x2 PUSH1 0x4 DUP2 LT PUSH2 0x40D JUMPI PUSH2 0x40C PUSH2 0x59D JUMP JUMPDEST JUMPDEST ADD PUSH0 PUSH2 0x100 EXP DUP2 SLOAD DUP2 PUSH20 0xFFFFFFFFFFFFFFFFFFFFFFFFFFFFFFFFFFFFFFFF MUL NOT AND SWAP1 DUP4 PUSH20 0xFFFFFFFFFFFFFFFFFFFFFFFFFFFFFFFFFFFFFFFF AND MUL OR SWAP1 SSTORE POP PUSH2 0x472 PUSH1 0x40 MLOAD DUP1 PUSH1 0x80 ADD PUSH1 0x40 MSTORE DUP1 PUSH1 0x5F DUP2 MSTORE PUSH1 0x20 ADD PUSH2 0x101A PUSH1 0x5F SWAP2 CODECOPY PUSH2 0x4CA PUSH1 0x20 SHL PUSH1 0x20 SHR JUMP JUMPDEST PUSH1 0x6 PUSH1 0x3 PUSH1 0x4 DUP2 LT PUSH2 0x487 JUMPI PUSH2 0x486 PUSH2 0x59D JUMP JUMPDEST JUMPDEST ADD PUSH0 PUSH2 0x100 EXP DUP2 SLOAD DUP2 PUSH20 0xFFFFFFFFFFFFFFFFFFFFFFFFFFFFFFFFFFFFFFFF MUL NOT AND SWAP1 DUP4 PUSH20 0xFFFFFFFFFFFFFFFFFFFFFFFFFFFFFFFFFFFFFFFF AND MUL OR SWAP1 SSTORE POP PUSH2 0x785 JUMP JUMPDEST PUSH0 DUP1 PUSH2 0x4FA DUP4 PUSH1 0x40 MLOAD PUSH1 0x20 ADD PUSH2 0x4E0 SWAP2 SWAP1 PUSH2 0x650 JUMP JUMPDEST PUSH1 0x40 MLOAD PUSH1 0x20 DUP2 DUP4 SUB SUB DUP2 MSTORE SWAP1 PUSH1 0x40 MSTORE PUSH2 0x571 PUSH1 0x20 SHL PUSH1 0x20 SHR JUMP JUMPDEST SWAP1 POP DUP1 MLOAD PUSH1 0x20 DUP3 ADD PUSH0 CREATE SWAP2 POP PUSH0 PUSH20 0xFFFFFFFFFFFFFFFFFFFFFFFFFFFFFFFFFFFFFFFF AND DUP3 PUSH20 0xFFFFFFFFFFFFFFFFFFFFFFFFFFFFFFFFFFFFFFFF AND SUB PUSH2 0x56B JUMPI PUSH1 0x40 MLOAD PUSH32 0x8D4ABB600000000000000000000000000000000000000000000000000000000 DUP2 MSTORE PUSH1 0x4 ADD PUSH1 0x40 MLOAD DUP1 SWAP2 SUB SWAP1 REVERT JUMPDEST POP SWAP2 SWAP1 POP JUMP JUMPDEST PUSH1 0x60 DUP2 MLOAD DUP3 PUSH1 0x40 MLOAD PUSH1 0x20 ADD PUSH2 0x587 SWAP3 SWAP2 SWAP1 PUSH2 0x748 JUMP JUMPDEST PUSH1 0x40 MLOAD PUSH1 0x20 DUP2 DUP4 SUB SUB DUP2 MSTORE SWAP1 PUSH1 0x40 MSTORE SWAP1 POP SWAP2 SWAP1 POP JUMP JUMPDEST PUSH32 0x4E487B7100000000000000000000000000000000000000000000000000000000 PUSH0 MSTORE PUSH1 0x32 PUSH1 0x4 MSTORE PUSH1 0x24 PUSH0 REVERT JUMPDEST PUSH0 DUP2 SWAP1 POP SWAP3 SWAP2 POP POP JUMP JUMPDEST PUSH0 DUP1 DUP3 ADD MSTORE POP JUMP JUMPDEST PUSH0 PUSH2 0x5E8 PUSH1 0x1 DUP4 PUSH2 0x5CA JUMP JUMPDEST SWAP2 POP PUSH2 0x5F3 DUP3 PUSH2 0x5D4 JUMP JUMPDEST PUSH1 0x1 DUP3 ADD SWAP1 POP SWAP2 SWAP1 POP JUMP JUMPDEST PUSH0 DUP2 MLOAD SWAP1 POP SWAP2 SWAP1 POP JUMP JUMPDEST PUSH0 DUP2 SWAP1 POP SWAP3 SWAP2 POP POP JUMP JUMPDEST DUP3 DUP2 DUP4 MCOPY PUSH0 DUP4 DUP4 ADD MSTORE POP POP POP JUMP JUMPDEST PUSH0 PUSH2 0x62A DUP3 PUSH2 0x5FE JUMP JUMPDEST PUSH2 0x634 DUP2 DUP6 PUSH2 0x608 JUMP JUMPDEST SWAP4 POP PUSH2 0x644 DUP2 DUP6 PUSH1 0x20 DUP7 ADD PUSH2 0x612 JUMP JUMPDEST DUP1 DUP5 ADD SWAP2 POP POP SWAP3 SWAP2 POP POP JUMP JUMPDEST PUSH0 PUSH2 0x65A DUP3 PUSH2 0x5DC JUMP JUMPDEST SWAP2 POP PUSH2 0x666 DUP3 DUP5 PUSH2 0x620 JUMP JUMPDEST SWAP2 POP DUP2 SWAP1 POP SWAP3 SWAP2 POP POP JUMP JUMPDEST PUSH32 0x6300000000000000000000000000000000000000000000000000000000000000 PUSH0 DUP3 ADD MSTORE POP JUMP JUMPDEST PUSH0 PUSH2 0x6A5 PUSH1 0x1 DUP4 PUSH2 0x5CA JUMP JUMPDEST SWAP2 POP PUSH2 0x6B0 DUP3 PUSH2 0x671 JUMP JUMPDEST PUSH1 0x1 DUP3 ADD SWAP1 POP SWAP2 SWAP1 POP JUMP JUMPDEST PUSH0 PUSH4 0xFFFFFFFF DUP3 AND SWAP1 POP SWAP2 SWAP1 POP JUMP JUMPDEST PUSH0 DUP2 PUSH1 0xE0 SHL SWAP1 POP SWAP2 SWAP1 POP JUMP JUMPDEST PUSH0 PUSH2 0x6E0 DUP3 PUSH2 0x6CA JUMP JUMPDEST SWAP1 POP SWAP2 SWAP1 POP JUMP JUMPDEST PUSH2 0x6F8 PUSH2 0x6F3 DUP3 PUSH2 0x6BB JUMP JUMPDEST PUSH2 0x6D6 JUMP JUMPDEST DUP3 MSTORE POP POP JUMP JUMPDEST PUSH32 0x80600E6000396000F30000000000000000000000000000000000000000000000 PUSH0 DUP3 ADD MSTORE POP JUMP JUMPDEST PUSH0 PUSH2 0x732 PUSH1 0x9 DUP4 PUSH2 0x5CA JUMP JUMPDEST SWAP2 POP PUSH2 0x73D DUP3 PUSH2 0x6FE JUMP JUMPDEST PUSH1 0x9 DUP3 ADD SWAP1 POP SWAP2 SWAP1 POP JUMP JUMPDEST PUSH0 PUSH2 0x752 DUP3 PUSH2 0x699 JUMP JUMPDEST SWAP2 POP PUSH2 0x75E DUP3 DUP6 PUSH2 0x6E7 JUMP JUMPDEST PUSH1 0x4 DUP3 ADD SWAP2 POP PUSH2 0x76D DUP3 PUSH2 0x726 JUMP JUMPDEST SWAP2 POP PUSH2 0x779 DUP3 DUP5 PUSH2 0x620 JUMP JUMPDEST SWAP2 POP DUP2 SWAP1 POP SWAP4 SWAP3 POP POP POP JUMP JUMPDEST PUSH2 0x66C DUP1 PUSH2 0x792 PUSH0 CODECOPY PUSH0 RETURN INVALID PUSH1 0x80 PUSH1 0x40 MSTORE CALLVALUE DUP1 ISZERO PUSH2 0xF JUMPI PUSH0 DUP1 REVERT JUMPDEST POP PUSH1 0x4 CALLDATASIZE LT PUSH2 0x86 JUMPI PUSH0 CALLDATALOAD PUSH1 0xE0 SHR DUP1 PUSH4 0xAF7856CE GT PUSH2 0x59 JUMPI DUP1 PUSH4 0xAF7856CE EQ PUSH2 0x114 JUMPI DUP1 PUSH4 0xBDB69062 EQ PUSH2 0x144 JUMPI DUP1 PUSH4 0xDF6BCDD5 EQ PUSH2 0x174 JUMPI DUP1 PUSH4 0xE9CE3274 EQ PUSH2 0x192 JUMPI PUSH2 0x86 JUMP JUMPDEST DUP1 PUSH4 0x13D8C840 EQ PUSH2 0x8A JUMPI DUP1 PUSH4 0x3494A75B EQ PUSH2 0xA8 JUMPI DUP1 PUSH4 0x3C8C014D EQ PUSH2 0xC6 JUMPI DUP1 PUSH4 0x8F7DCFA3 EQ PUSH2 0xF6 JUMPI JUMPDEST PUSH0 DUP1 REVERT JUMPDEST PUSH2 0x92 PUSH2 0x1C2 JUMP JUMPDEST PUSH1 0x40 MLOAD PUSH2 0x9F SWAP2 SWAP1 PUSH2 0x4EB JUMP JUMPDEST PUSH1 0x40 MLOAD DUP1 SWAP2 SUB SWAP1 RETURN JUMPDEST PUSH2 0xB0 PUSH2 0x1F3 JUMP JUMPDEST PUSH1 0x40 MLOAD PUSH2 0xBD SWAP2 SWAP1 PUSH2 0x54A JUMP JUMPDEST PUSH1 0x40 MLOAD DUP1 SWAP2 SUB SWAP1 RETURN JUMPDEST PUSH2 0xE0 PUSH1 0x4 DUP1 CALLDATASIZE SUB DUP2 ADD SWAP1 PUSH2 0xDB SWAP2 SWAP1 PUSH2 0x59A JUMP JUMPDEST PUSH2 0x216 JUMP JUMPDEST PUSH1 0x40 MLOAD PUSH2 0xED SWAP2 SWAP1 PUSH2 0x4EB JUMP JUMPDEST PUSH1 0x40 MLOAD DUP1 SWAP2 SUB SWAP1 RETURN JUMPDEST PUSH2 0xFE PUSH2 0x25C JUMP JUMPDEST PUSH1 0x40 MLOAD PUSH2 0x10B SWAP2 SWAP1 PUSH2 0x4EB JUMP JUMPDEST PUSH1 0x40 MLOAD DUP1 SWAP2 SUB SWAP1 RETURN JUMPDEST PUSH2 0x12E PUSH1 0x4 DUP1 CALLDATASIZE SUB DUP2 ADD SWAP1 PUSH2 0x129 SWAP2 SWAP1 PUSH2 0x59A JUMP JUMPDEST PUSH2 0x28B JUMP JUMPDEST PUSH1 0x40 MLOAD PUSH2 0x13B SWAP2 SWAP1 PUSH2 0x54A JUMP JUMPDEST PUSH1 0x40 MLOAD DUP1 SWAP2 SUB SWAP1 RETURN JUMPDEST PUSH2 0x15E PUSH1 0x4 DUP1 CALLDATASIZE SUB DUP2 ADD SWAP1 PUSH2 0x159 SWAP2 SWAP1 PUSH2 0x59A JUMP JUMPDEST PUSH2 0x2BF JUMP JUMPDEST PUSH1 0x40 MLOAD PUSH2 0x16B SWAP2 SWAP1 PUSH2 0x4EB JUMP JUMPDEST PUSH1 0x40 MLOAD DUP1 SWAP2 SUB SWAP1 RETURN JUMPDEST PUSH2 0x17C PUSH2 0x305 JUMP JUMPDEST PUSH1 0x40 MLOAD PUSH2 0x189 SWAP2 SWAP1 PUSH2 0x54A JUMP JUMPDEST PUSH1 0x40 MLOAD DUP1 SWAP2 SUB SWAP1 RETURN JUMPDEST PUSH2 0x1AC PUSH1 0x4 DUP1 CALLDATASIZE SUB DUP2 ADD SWAP1 PUSH2 0x1A7 SWAP2 SWAP1 PUSH2 0x59A JUMP JUMPDEST PUSH2 0x32A JUMP JUMPDEST PUSH1 0x40 MLOAD PUSH2 0x1B9 SWAP2 SWAP1 PUSH2 0x54A JUMP JUMPDEST PUSH1 0x40 MLOAD DUP1 SWAP2 SUB SWAP1 RETURN JUMPDEST PUSH1 0x60 PUSH2 0x1EE PUSH1 0x1 PUSH0 SWAP1 SLOAD SWAP1 PUSH2 0x100 EXP SWAP1 DIV PUSH20 0xFFFFFFFFFFFFFFFFFFFFFFFFFFFFFFFFFFFFFFFF AND PUSH2 0x35E JUMP JUMPDEST SWAP1 POP SWAP1 JUMP JUMPDEST PUSH0 DUP1 SLOAD SWAP1 PUSH2 0x100 EXP SWAP1 DIV PUSH20 0xFFFFFFFFFFFFFFFFFFFFFFFFFFFFFFFFFFFFFFFF AND DUP2 JUMP JUMPDEST PUSH1 0x60 PUSH2 0x255 PUSH1 0x2 DUP4 PUSH1 0x4 DUP2 LT PUSH2 0x22F JUMPI PUSH2 0x22E PUSH2 0x5C5 JUMP JUMPDEST JUMPDEST ADD PUSH0 SWAP1 SLOAD SWAP1 PUSH2 0x100 EXP SWAP1 DIV PUSH20 0xFFFFFFFFFFFFFFFFFFFFFFFFFFFFFFFFFFFFFFFF AND PUSH2 0x35E JUMP JUMPDEST SWAP1 POP SWAP2 SWAP1 POP JUMP JUMPDEST PUSH1 0x60 PUSH2 0x286 PUSH0 DUP1 SLOAD SWAP1 PUSH2 0x100 EXP SWAP1 DIV PUSH20 0xFFFFFFFFFFFFFFFFFFFFFFFFFFFFFFFFFFFFFFFF AND PUSH2 0x35E JUMP JUMPDEST SWAP1 POP SWAP1 JUMP JUMPDEST PUSH1 0x6 DUP2 PUSH1 0x4 DUP2 LT PUSH2 0x29A JUMPI PUSH0 DUP1 REVERT JUMPDEST ADD PUSH0 SWAP2 POP SLOAD SWAP1 PUSH2 0x100 EXP SWAP1 DIV PUSH20 0xFFFFFFFFFFFFFFFFFFFFFFFFFFFFFFFFFFFFFFFF AND DUP2 JUMP JUMPDEST PUSH1 0x60 PUSH2 0x2FE PUSH1 0x6 DUP4 PUSH1 0x4 DUP2 LT PUSH2 0x2D8 JUMPI PUSH2 0x2D7 PUSH2 0x5C5 JUMP JUMPDEST JUMPDEST ADD PUSH0 SWAP1 SLOAD SWAP1 PUSH2 0x100 EXP SWAP1 DIV PUSH20 0xFFFFFFFFFFFFFFFFFFFFFFFFFFFFFFFFFFFFFFFF AND PUSH2 0x35E JUMP JUMPDEST SWAP1 POP SWAP2 SWAP1 POP JUMP JUMPDEST PUSH1 0x1 PUSH0 SWAP1 SLOAD SWAP1 PUSH2 0x100 EXP SWAP1 DIV PUSH20 0xFFFFFFFFFFFFFFFFFFFFFFFFFFFFFFFFFFFFFFFF AND DUP2 JUMP JUMPDEST PUSH1 0x2 DUP2 PUSH1 0x4 DUP2 LT PUSH2 0x339 JUMPI PUSH0 DUP1 REVERT JUMPDEST ADD PUSH0 SWAP2 POP SLOAD SWAP1 PUSH2 0x100 EXP SWAP1 DIV PUSH20 0xFFFFFFFFFFFFFFFFFFFFFFFFFFFFFFFFFFFFFFFF AND DUP2 JUMP JUMPDEST PUSH1 0x60 PUSH2 0x38C DUP3 PUSH1 0x1 PUSH32 0xFFFFFFFFFFFFFFFFFFFFFFFFFFFFFFFFFFFFFFFFFFFFFFFFFFFFFFFFFFFFFFFF PUSH2 0x393 JUMP JUMPDEST SWAP1 POP SWAP2 SWAP1 POP JUMP JUMPDEST PUSH1 0x60 PUSH0 PUSH2 0x39F DUP6 PUSH2 0x471 JUMP JUMPDEST SWAP1 POP PUSH0 DUP2 SUB PUSH2 0x3BF JUMPI PUSH1 0x40 MLOAD DUP1 PUSH1 0x20 ADD PUSH1 0x40 MSTORE DUP1 PUSH0 DUP2 MSTORE POP SWAP2 POP POP PUSH2 0x46A JUMP JUMPDEST DUP1 DUP5 GT ISZERO PUSH2 0x3DE JUMPI PUSH1 0x40 MLOAD DUP1 PUSH1 0x20 ADD PUSH1 0x40 MSTORE DUP1 PUSH0 DUP2 MSTORE POP SWAP2 POP POP PUSH2 0x46A JUMP JUMPDEST DUP4 DUP4 LT ISZERO PUSH2 0x427 JUMPI DUP1 DUP5 DUP5 PUSH1 0x40 MLOAD PUSH32 0x2C4A89FA00000000000000000000000000000000000000000000000000000000 DUP2 MSTORE PUSH1 0x4 ADD PUSH2 0x41E SWAP4 SWAP3 SWAP2 SWAP1 PUSH2 0x601 JUMP JUMPDEST PUSH1 0x40 MLOAD DUP1 SWAP2 SUB SWAP1 REVERT JUMPDEST PUSH0 DUP5 DUP5 SUB SWAP1 POP PUSH0 DUP6 DUP4 SUB SWAP1 POP PUSH0 DUP3 DUP3 LT PUSH2 0x441 JUMPI DUP3 PUSH2 0x443 JUMP JUMPDEST DUP2 JUMPDEST SWAP1 POP PUSH1 0x40 MLOAD SWAP5 POP PUSH1 0x1F NOT PUSH1 0x1F PUSH1 0x20 DUP4 ADD ADD AND DUP6 ADD PUSH1 0x40 MSTORE DUP1 DUP6 MSTORE DUP1 DUP8 PUSH1 0x20 DUP8 ADD DUP11 EXTCODECOPY POP POP POP POP JUMPDEST SWAP4 SWAP3 POP POP POP JUMP JUMPDEST PUSH0 DUP2 EXTCODESIZE SWAP1 POP SWAP2 SWAP1 POP JUMP JUMPDEST PUSH0 DUP2 MLOAD SWAP1 POP SWAP2 SWAP1 POP JUMP JUMPDEST PUSH0 DUP3 DUP3 MSTORE PUSH1 0x20 DUP3 ADD SWAP1 POP SWAP3 SWAP2 POP POP JUMP JUMPDEST DUP3 DUP2 DUP4 MCOPY PUSH0 DUP4 DUP4 ADD MSTORE POP POP POP JUMP JUMPDEST PUSH0 PUSH1 0x1F NOT PUSH1 0x1F DUP4 ADD AND SWAP1 POP SWAP2 SWAP1 POP JUMP JUMPDEST PUSH0 PUSH2 0x4BD DUP3 PUSH2 0x47B JUMP JUMPDEST PUSH2 0x4C7 DUP2 DUP6 PUSH2 0x485 JUMP JUMPDEST SWAP4 POP PUSH2 0x4D7 DUP2 DUP6 PUSH1 0x20 DUP7 ADD PUSH2 0x495 JUMP JUMPDEST PUSH2 0x4E0 DUP2 PUSH2 0x4A3 JUMP JUMPDEST DUP5 ADD SWAP2 POP POP SWAP3 SWAP2 POP POP JUMP JUMPDEST PUSH0 PUSH1 0x20 DUP3 ADD SWAP1 POP DUP2 DUP2 SUB PUSH0 DUP4 ADD MSTORE PUSH2 0x503 DUP2 DUP5 PUSH2 0x4B3 JUMP JUMPDEST SWAP1 POP SWAP3 SWAP2 POP POP JUMP JUMPDEST PUSH0 PUSH20 0xFFFFFFFFFFFFFFFFFFFFFFFFFFFFFFFFFFFFFFFF DUP3 AND SWAP1 POP SWAP2 SWAP1 POP JUMP JUMPDEST PUSH0 PUSH2 0x534 DUP3 PUSH2 0x50B JUMP JUMPDEST SWAP1 POP SWAP2 SWAP1 POP JUMP JUMPDEST PUSH2 0x544 DUP2 PUSH2 0x52A JUMP JUMPDEST DUP3 MSTORE POP POP JUMP JUMPDEST PUSH0 PUSH1 0x20 DUP3 ADD SWAP1 POP PUSH2 0x55D PUSH0 DUP4 ADD DUP5 PUSH2 0x53B JUMP JUMPDEST SWAP3 SWAP2 POP POP JUMP JUMPDEST PUSH0 DUP1 REVERT JUMPDEST PUSH0 DUP2 SWAP1 POP SWAP2 SWAP1 POP JUMP JUMPDEST PUSH2 0x579 DUP2 PUSH2 0x567 JUMP JUMPDEST DUP2 EQ PUSH2 0x583 JUMPI PUSH0 DUP1 REVERT JUMPDEST POP JUMP JUMPDEST PUSH0 DUP2 CALLDATALOAD SWAP1 POP PUSH2 0x594 DUP2 PUSH2 0x570 JUMP JUMPDEST SWAP3 SWAP2 POP POP JUMP JUMPDEST PUSH0 PUSH1 0x20 DUP3 DUP5 SUB SLT ISZERO PUSH2 0x5AF JUMPI PUSH2 0x5AE PUSH2 0x563 JUMP JUMPDEST JUMPDEST PUSH0 PUSH2 0x5BC DUP5 DUP3 DUP6 ADD PUSH2 0x586 JUMP JUMPDEST SWAP2 POP POP SWAP3 SWAP2 POP POP JUMP JUMPDEST PUSH32 0x4E487B7100000000000000000000000000000000000000000000000000000000 PUSH0 MSTORE PUSH1 0x32 PUSH1 0x4 MSTORE PUSH1 0x24 PUSH0 REVERT JUMPDEST PUSH2 0x5FB DUP2 PUSH2 0x567 JUMP JUMPDEST DUP3 MSTORE POP POP JUMP JUMPDEST PUSH0 PUSH1 0x60 DUP3 ADD SWAP1 POP PUSH2 0x614 PUSH0 DUP4 ADD DUP7 PUSH2 0x5F2 JUMP JUMPDEST PUSH2 0x621 PUSH1 0x20 DUP4 ADD DUP6 PUSH2 0x5F2 JUMP JUMPDEST PUSH2 0x62E PUSH1 0x40 DUP4 ADD DUP5 PUSH2 0x5F2 JUMP JUMPDEST SWAP5 SWAP4 POP POP POP POP JUMP INVALID LOG2 PUSH5 0x6970667358 0x22 SLT KECCAK256 0xEB 0x23 0x4E 0xE9 PUSH6 0x2F108106F81F PUSH8 0xA22E4C0A17C56A7D 0xFB 0xCC 0xD0 SGT SWAP13 0xC 0x2F RETURN 0x26 EXTCODEHASH 0xB2 0xB3 PUSH5 0x736F6C6343 STOP ADDMOD BYTE STOP CALLER EXTCODECOPY PUSH17 0x61746820643D224D203531322031313220 COINBASE KECCAK256 CALLVALUE ADDRESS ADDRESS KECCAK256 CALLVALUE ADDRESS ADDRESS KECCAK256 ADDRESS KECCAK256 ADDRESS KECCAK256 BALANCE KECCAK256 CALLDATALOAD CALLDATALOAD BALANCE 0x2E ORIGIN ADDRESS CALLDATASIZE CODESIZE CALLDATALOAD CALLDATASIZE BALANCE CALLER BALANCE CODESIZE ORIGIN CALLVALUE CALLER KECCAK256 BALANCE BALANCE CALLER 0x2E CODECOPY ORIGIN CALLDATASIZE BALANCE ADDRESS CODECOPY CALLER CALLER BALANCE BALANCE ORIGIN BALANCE ORIGIN CALLDATACOPY KECCAK256 0x4C KECCAK256 CALLDATALOAD CALLDATALOAD CODECOPY 0x2E ADDRESS CALLVALUE CODESIZE ORIGIN ORIGIN CALLDATACOPY CALLER CALLDATALOAD CODESIZE BALANCE CODESIZE CODECOPY BALANCE KECCAK256 CALLER CALLVALUE 0x2E CALLER BALANCE BALANCE CALLER CALLER BALANCE BALANCE CODECOPY CALLDATACOPY CALLER CALLVALUE CALLDATALOAD CALLDATALOAD BALANCE KECCAK256 COINBASE KECCAK256 CALLVALUE CODESIZE ADDRESS KECCAK256 CALLVALUE CODESIZE ADDRESS KECCAK256 ADDRESS KECCAK256 ADDRESS KECCAK256 ADDRESS KECCAK256 CALLDATALOAD BALANCE ORIGIN KECCAK256 CALLER ORIGIN KECCAK256 GAS 0x22 KECCAK256 PUSH20 0x74726F6B653D22626C61636B22207374726F6B65 0x2D PUSH24 0x696474683D2231222066696C6C3D223C7465787420783D22 CALLDATALOAD BALANCE ORIGIN 0x22 KECCAK256 PUSH26 0x3D223436352220666F6E742D73697A653D223232222066696C6C RETURNDATASIZE 0x22 PUSH24 0x686974652220746578742D616E63686F723D226D6964646C PUSH6 0x2220666F6E74 0x2D PUSH7 0x616D696C793D22 PUSH14 0x6F6E6F7370616365223E3C706174 PUSH9 0x20643D224D20353132 KECCAK256 BALANCE CODECOPY ORIGIN KECCAK256 COINBASE KECCAK256 CALLER ORIGIN ADDRESS KECCAK256 CALLER ORIGIN ADDRESS KECCAK256 ADDRESS KECCAK256 ADDRESS KECCAK256 BALANCE KECCAK256 CALLDATALOAD CALLVALUE CALLER 0x2E CALLER CALLDATASIZE CALLDATALOAD CALLVALUE CODESIZE CALLVALUE CODECOPY ADDRESS CALLDATALOAD CALLVALUE CALLDATALOAD CODECOPY CALLVALUE KECCAK256 BALANCE CODECOPY CALLER 0x2E CALLDATALOAD CALLVALUE ADDRESS CODESIZE CODESIZE CALLDATACOPY CALLVALUE CALLDATASIZE CALLVALUE CODESIZE CODECOPY CALLDATACOPY ADDRESS CALLER KECCAK256 0x4C KECCAK256 CALLDATALOAD CALLDATALOAD BALANCE 0x2E ORIGIN ADDRESS CALLDATASIZE CODESIZE CALLDATALOAD CALLDATASIZE BALANCE CALLER BALANCE CODESIZE ORIGIN CALLVALUE CALLER KECCAK256 BALANCE BALANCE CALLER 0x2E CODECOPY ORIGIN CALLDATASIZE BALANCE ADDRESS CODECOPY CALLER CALLER BALANCE BALANCE ORIGIN BALANCE ORIGIN CALLDATACOPY KECCAK256 COINBASE KECCAK256 CALLVALUE ADDRESS ADDRESS KECCAK256 CALLVALUE ADDRESS ADDRESS KECCAK256 ADDRESS KECCAK256 ADDRESS KECCAK256 ADDRESS KECCAK256 CALLDATALOAD BALANCE ORIGIN KECCAK256 BALANCE BALANCE ORIGIN KECCAK256 GAS 0x22 KECCAK256 PUSH20 0x74726F6B653D22626C61636B22207374726F6B65 0x2D PUSH24 0x696474683D2231222066696C6C3D223C7465787420783D22 CALLDATALOAD BALANCE ORIGIN 0x22 KECCAK256 PUSH26 0x3D223530312220666F6E742D73697A653D223232222066696C6C RETURNDATASIZE 0x22 PUSH24 0x686974652220746578742D616E63686F723D226D6964646C PUSH6 0x2220666F6E74 0x2D PUSH7 0x616D696C793D22 PUSH14 0x6F6E6F7370616365223E3C746578 PUSH21 0x20783D223531322220793D223537332220666F6E74 0x2D PUSH20 0x697A653D223232222066696C6C3D227768697465 0x22 KECCAK256 PUSH21 0x6578742D616E63686F723D226D6964646C65222066 PUSH16 0x6E742D66616D696C793D226D6F6E6F73 PUSH17 0x616365223E3C7465787420783D22353132 0x22 KECCAK256 PUSH26 0x3D223533372220666F6E742D73697A653D223232222066696C6C RETURNDATASIZE 0x22 PUSH24 0x686974652220746578742D616E63686F723D226D6964646C PUSH6 0x2220666F6E74 0x2D PUSH7 0x616D696C793D22 PUSH14 0x6F6E6F7370616365223E3C737667 KECCAK256 PUSH25 0x6D6C6E733D22687474703A2F2F7777772E77332E6F72672F32 ADDRESS ADDRESS ADDRESS 0x2F PUSH20 0x7667222076696577426F783D2230203020313032 CALLVALUE KECCAK256 BALANCE ADDRESS ORIGIN CALLVALUE 0x22 KECCAK256 PUSH17 0x7265736572766541737065637452617469 PUSH16 0x3D22784D6964594D6964206D65657422 RETURNDATACOPY EXTCODECOPY PUSH19 0x65637420783D22302220793D22302220776964 PUSH21 0x683D223130323422206865696768743D2231303234 0x22 KECCAK256 PUSH7 0x696C6C3D22626C PUSH2 0x636B 0x22 0x2F RETURNDATACOPY EXTCODECOPY PUSH17 0x61746820643D224D203531322033353220 COINBASE KECCAK256 BALANCE CALLDATASIZE ADDRESS KECCAK256 BALANCE CALLDATASIZE ADDRESS KECCAK256 ADDRESS KECCAK256 ADDRESS KECCAK256 BALANCE KECCAK256 CALLDATALOAD ORIGIN CALLDATACOPY 0x2E CALLDATASIZE CODESIZE ORIGIN CALLDATACOPY CALLVALUE ORIGIN CALLVALUE CALLDATALOAD ORIGIN CALLDATACOPY ORIGIN CODECOPY CALLDATACOPY KECCAK256 CALLER CALLDATALOAD ORIGIN 0x2E CALLDATACOPY CALLDATACOPY ADDRESS CALLVALUE CALLVALUE CALLER CALLDATACOPY CALLER ORIGIN CALLVALUE CALLVALUE CODESIZE CALLDATALOAD KECCAK256 0x4C KECCAK256 CALLDATALOAD CALLER CALLDATALOAD 0x2E CALLDATALOAD ORIGIN CALLVALUE BALANCE BALANCE CALLER CALLDATASIZE CALLDATACOPY CODECOPY ADDRESS CODECOPY CALLVALUE CALLDATASIZE KECCAK256 ORIGIN CALLDATACOPY CALLER 0x2E BALANCE CALLDATALOAD CALLDATALOAD CALLDATASIZE CALLDATASIZE CALLDATALOAD CALLDATALOAD CODECOPY CODESIZE CALLDATASIZE CALLDATACOPY ORIGIN CALLDATACOPY KECCAK256 COINBASE KECCAK256 ORIGIN CALLVALUE ADDRESS KECCAK256 ORIGIN CALLVALUE ADDRESS KECCAK256 ADDRESS KECCAK256 ADDRESS KECCAK256 ADDRESS KECCAK256 CALLDATALOAD BALANCE ORIGIN KECCAK256 ORIGIN CALLDATACOPY ORIGIN KECCAK256 GAS 0x22 KECCAK256 PUSH20 0x74726F6B653D22626C61636B22207374726F6B65 0x2D PUSH24 0x696474683D2231222066696C6C3D223C7061746820643D22 0x4D KECCAK256 CALLDATALOAD BALANCE ORIGIN KECCAK256 ORIGIN CALLDATACOPY ORIGIN KECCAK256 COINBASE KECCAK256 ORIGIN CALLVALUE ADDRESS KECCAK256 ORIGIN CALLVALUE ADDRESS KECCAK256 ADDRESS KECCAK256 ADDRESS KECCAK256 BALANCE KECCAK256 CALLDATALOAD CALLER CALLDATALOAD 0x2E CALLDATALOAD ORIGIN CALLVALUE BALANCE BALANCE CALLER CALLDATASIZE CALLDATACOPY CODECOPY ADDRESS CODECOPY CALLVALUE CALLDATASIZE KECCAK256 ORIGIN CALLDATACOPY CALLER 0x2E BALANCE CALLDATALOAD CALLDATALOAD CALLDATASIZE CALLDATASIZE CALLDATALOAD CALLDATALOAD CODECOPY CODESIZE CALLDATASIZE CALLDATACOPY ORIGIN CALLDATACOPY KECCAK256 0x4C KECCAK256 CALLDATALOAD CALLVALUE CALLER 0x2E CALLER CALLDATASIZE CALLDATALOAD CALLVALUE CODESIZE CALLVALUE CODECOPY ADDRESS CALLDATALOAD CALLVALUE CALLDATALOAD CODECOPY CALLVALUE KECCAK256 BALANCE CODECOPY CALLER 0x2E CALLDATALOAD CALLVALUE ADDRESS CODESIZE CODESIZE CALLDATACOPY CALLVALUE CALLDATASIZE CALLVALUE CODESIZE CODECOPY CALLDATACOPY ADDRESS CALLER KECCAK256 COINBASE KECCAK256 CALLER ORIGIN ADDRESS KECCAK256 CALLER ORIGIN ADDRESS KECCAK256 ADDRESS KECCAK256 ADDRESS KECCAK256 ADDRESS KECCAK256 CALLDATALOAD BALANCE ORIGIN KECCAK256 BALANCE CODECOPY ORIGIN KECCAK256 GAS 0x22 KECCAK256 PUSH20 0x74726F6B653D22626C61636B22207374726F6B65 0x2D PUSH24 0x696474683D2231222066696C6C3D22000000000000000000 "
				},
				"gasEstimates": {
					"creation": {
						"codeDepositCost": "328800",
						"executionCost": "infinite",
						"totalCost": "infinite"
					},
					"external": {
						"head()": "infinite",
						"headPtr()": "2528",
						"prefix(uint256)": "infinite",
						"prefixPtr(uint256)": "2861",
						"tail()": "infinite",
						"tailPtr()": "2552",
						"textPrefix(uint256)": "infinite",
						"textPrefixPtr(uint256)": "2795"
					}
				},
				"methodIdentifiers": {
					"head()": "8f7dcfa3",
					"headPtr()": "3494a75b",
					"prefix(uint256)": "3c8c014d",
					"prefixPtr(uint256)": "e9ce3274",
					"tail()": "13d8c840",
					"tailPtr()": "df6bcdd5",
					"textPrefix(uint256)": "bdb69062",
					"textPrefixPtr(uint256)": "af7856ce"
				}
			},
			"storageLayout": {
				"storage": [
					{
						"astId": 4,
						"contract": "contracts/HashJingSVGStorage1.sol:HashJingSVGStorage1",
						"label": "headPtr",
						"offset": 0,
						"slot": "0",
						"type": "t_address"
					},
					{
						"astId": 6,
						"contract": "contracts/HashJingSVGStorage1.sol:HashJingSVGStorage1",
						"label": "tailPtr",
						"offset": 0,
						"slot": "1",
						"type": "t_address"
					},
					{
						"astId": 10,
						"contract": "contracts/HashJingSVGStorage1.sol:HashJingSVGStorage1",
						"label": "prefixPtr",
						"offset": 0,
						"slot": "2",
						"type": "t_array(t_address)4_storage"
					},
					{
						"astId": 14,
						"contract": "contracts/HashJingSVGStorage1.sol:HashJingSVGStorage1",
						"label": "textPrefixPtr",
						"offset": 0,
						"slot": "6",
						"type": "t_array(t_address)4_storage"
					}
				],
				"types": {
					"t_address": {
						"encoding": "inplace",
						"label": "address",
						"numberOfBytes": "20"
					},
					"t_array(t_address)4_storage": {
						"base": "t_address",
						"encoding": "inplace",
						"label": "address[4]",
						"numberOfBytes": "128"
					}
				}
			},
			"userdoc": {
				"kind": "user",
				"methods": {},
				"version": 1
			}
		}
	}
}