{
	"data": {
		"bytecode": {
			"linkReferences": {},
			"object": "60a060405234801561000f575f80fd5b50604051610a82380380610a82833981810160405281019061003191906100c9565b8073ffffffffffffffffffffffffffffffffffffffff1660808173ffffffffffffffffffffffffffffffffffffffff1681525050506100f4565b5f80fd5b5f73ffffffffffffffffffffffffffffffffffffffff82169050919050565b5f6100988261006f565b9050919050565b6100a88161008e565b81146100b2575f80fd5b50565b5f815190506100c38161009f565b92915050565b5f602082840312156100de576100dd61006b565b5b5f6100eb848285016100b5565b91505092915050565b6080516109716101115f395f81816076015260a001526109715ff3fe608060405234801561000f575f80fd5b5060043610610034575f3560e01c806327ba0af714610038578063489187e814610056575b5f80fd5b610040610074565b60405161004d9190610744565b60405180910390f35b61005e610098565b60405161006b91906107cd565b60405180910390f35b7f000000000000000000000000000000000000000000000000000000000000000081565b60605f6100c47f00000000000000000000000000000000000000000000000000000000000000006102a9565b905061013b816040518060400160405280600381526020017f635f3100000000000000000000000000000000000000000000000000000000008152506040518060400160405280600581526020017f77686974650000000000000000000000000000000000000000000000000000008152506102de565b90506101b2816040518060400160405280600381526020017f635f3200000000000000000000000000000000000000000000000000000000008152506040518060400160405280600581526020017f626c61636b0000000000000000000000000000000000000000000000000000008152506102de565b9050610229816040518060400160405280600381526020017f635f3300000000000000000000000000000000000000000000000000000000008152506040518060400160405280600581526020017f77686974650000000000000000000000000000000000000000000000000000008152506102de565b90506102a0816040518060400160405280600381526020017f635f3400000000000000000000000000000000000000000000000000000000008152506040518060400160405280600581526020017f626c61636b0000000000000000000000000000000000000000000000000000008152506102de565b90508091505090565b60606102d78260017fffffffffffffffffffffffffffffffffffffffffffffffffffffffffffffffff61061d565b9050919050565b60605f8490505f8490505f8490505f604084516102fb9190610823565b67ffffffffffffffff81111561031457610313610856565b5b6040519080825280601f01601f1916602001820160405280156103465781602001600182028036833780820191505090505b5090505f805b8551811015610545575f6001905086518651836103699190610823565b1115610377575f9050610429565b5f5b86518110156104275786818151811061039557610394610883565b5b602001015160f81c60f81b7effffffffffffffffffffffffffffffffffffffffffffffffffffffffffffff19168882856103cf9190610823565b815181106103e0576103df610883565b5b602001015160f81c60f81b7effffffffffffffffffffffffffffffffffffffffffffffffffffffffffffff19161461041a575f9150610427565b8080600101915050610379565b505b80156104c7575f5b85518110156104b25785818151811061044d5761044c610883565b5b602001015160f81c60f81b858580610464906108b0565b96508151811061047757610476610883565b5b60200101907effffffffffffffffffffffffffffffffffffffffffffffffffffffffffffff191690815f1a9053508080600101915050610431565b508551826104c09190610823565b915061053f565b8682806104d3906108b0565b9350815181106104e6576104e5610883565b5b602001015160f81c60f81b8484806104fd906108b0565b9550815181106105105761050f610883565b5b60200101907effffffffffffffffffffffffffffffffffffffffffffffffffffffffffffff191690815f1a9053505b5061034c565b505f8167ffffffffffffffff81111561056157610560610856565b5b6040519080825280601f01601f1916602001820160405280156105935781602001600182028036833780820191505090505b5090505f5b8281101561060c578381815181106105b3576105b2610883565b5b602001015160f81c60f81b8282815181106105d1576105d0610883565b5b60200101907effffffffffffffffffffffffffffffffffffffffffffffffffffffffffffff191690815f1a9053508080600101915050610598565b508096505050505050509392505050565b60605f610629856106fb565b90505f81036106495760405180602001604052805f8152509150506106f4565b808411156106685760405180602001604052805f8152509150506106f4565b838310156106b1578084846040517f2c4a89fa0000000000000000000000000000000000000000000000000000000081526004016106a893929190610906565b60405180910390fd5b5f84840390505f85830390505f8282106106cb57826106cd565b815b90506040519450601f19601f60208301011685016040528085528087602087018a3c505050505b9392505050565b5f813b9050919050565b5f73ffffffffffffffffffffffffffffffffffffffff82169050919050565b5f61072e82610705565b9050919050565b61073e81610724565b82525050565b5f6020820190506107575f830184610735565b92915050565b5f81519050919050565b5f82825260208201905092915050565b8281835e5f83830152505050565b5f601f19601f8301169050919050565b5f61079f8261075d565b6107a98185610767565b93506107b9818560208601610777565b6107c281610785565b840191505092915050565b5f6020820190508181035f8301526107e58184610795565b905092915050565b5f819050919050565b7f4e487b71000000000000000000000000000000000000000000000000000000005f52601160045260245ffd5b5f61082d826107ed565b9150610838836107ed565b92508282019050808211156108505761084f6107f6565b5b92915050565b7f4e487b71000000000000000000000000000000000000000000000000000000005f52604160045260245ffd5b7f4e487b71000000000000000000000000000000000000000000000000000000005f52603260045260245ffd5b5f6108ba826107ed565b91507fffffffffffffffffffffffffffffffffffffffffffffffffffffffffffffffff82036108ec576108eb6107f6565b5b600182019050919050565b610900816107ed565b82525050565b5f6060820190506109195f8301866108f7565b61092660208301856108f7565b61093360408301846108f7565b94935050505056fea26469706673582212206cc54d5ca892e5e06b0852dfaca6999fe72ca00ab26399f51c88544b357ca95e64736f6c634300081a0033",
			"opcodes": "PUSH1 0xA0 PUSH1 0x40 MSTORE CALLVALUE DUP1 ISZERO PUSH2 0xF JUMPI PUSH0 DUP1 REVERT JUMPDEST POP PUSH1 0x40 MLOAD PUSH2 0xA82 CODESIZE SUB DUP1 PUSH2 0xA82 DUP4 CODECOPY DUP2 DUP2 ADD PUSH1 0x40 MSTORE DUP2 ADD SWAP1 PUSH2 0x31 SWAP2 SWAP1 PUSH2 0xC9 JUMP JUMPDEST DUP1 PUSH20 0xFFFFFFFFFFFFFFFFFFFFFFFFFFFFFFFFFFFFFFFF AND PUSH1 0x80 DUP2 PUSH20 0xFFFFFFFFFFFFFFFFFFFFFFFFFFFFFFFFFFFFFFFF AND DUP2 MSTORE POP POP POP PUSH2 0xF4 JUMP JUMPDEST PUSH0 DUP1 REVERT JUMPDEST PUSH0 PUSH20 0xFFFFFFFFFFFFFFFFFFFFFFFFFFFFFFFFFFFFFFFF DUP3 AND SWAP1 POP SWAP2 SWAP1 POP JUMP JUMPDEST PUSH0 PUSH2 0x98 DUP3 PUSH2 0x6F JUMP JUMPDEST SWAP1 POP SWAP2 SWAP1 POP JUMP JUMPDEST PUSH2 0xA8 DUP2 PUSH2 0x8E JUMP JUMPDEST DUP2 EQ PUSH2 0xB2 JUMPI PUSH0 DUP1 REVERT JUMPDEST POP JUMP JUMPDEST PUSH0 DUP2 MLOAD SWAP1 POP PUSH2 0xC3 DUP2 PUSH2 0x9F JUMP JUMPDEST SWAP3 SWAP2 POP POP JUMP JUMPDEST PUSH0 PUSH1 0x20 DUP3 DUP5 SUB SLT ISZERO PUSH2 0xDE JUMPI PUSH2 0xDD PUSH2 0x6B JUMP JUMPDEST JUMPDEST PUSH0 PUSH2 0xEB DUP5 DUP3 DUP6 ADD PUSH2 0xB5 JUMP JUMPDEST SWAP2 POP POP SWAP3 SWAP2 POP POP JUMP JUMPDEST PUSH1 0x80 MLOAD PUSH2 0x971 PUSH2 0x111 PUSH0 CODECOPY PUSH0 DUP2 DUP2 PUSH1 0x76 ADD MSTORE PUSH1 0xA0 ADD MSTORE PUSH2 0x971 PUSH0 RETURN INVALID PUSH1 0x80 PUSH1 0x40 MSTORE CALLVALUE DUP1 ISZERO PUSH2 0xF JUMPI PUSH0 DUP1 REVERT JUMPDEST POP PUSH1 0x4 CALLDATASIZE LT PUSH2 0x34 JUMPI PUSH0 CALLDATALOAD PUSH1 0xE0 SHR DUP1 PUSH4 0x27BA0AF7 EQ PUSH2 0x38 JUMPI DUP1 PUSH4 0x489187E8 EQ PUSH2 0x56 JUMPI JUMPDEST PUSH0 DUP1 REVERT JUMPDEST PUSH2 0x40 PUSH2 0x74 JUMP JUMPDEST PUSH1 0x40 MLOAD PUSH2 0x4D SWAP2 SWAP1 PUSH2 0x744 JUMP JUMPDEST PUSH1 0x40 MLOAD DUP1 SWAP2 SUB SWAP1 RETURN JUMPDEST PUSH2 0x5E PUSH2 0x98 JUMP JUMPDEST PUSH1 0x40 MLOAD PUSH2 0x6B SWAP2 SWAP1 PUSH2 0x7CD JUMP JUMPDEST PUSH1 0x40 MLOAD DUP1 SWAP2 SUB SWAP1 RETURN JUMPDEST PUSH32 0x0 DUP2 JUMP JUMPDEST PUSH1 0x60 PUSH0 PUSH2 0xC4 PUSH32 0x0 PUSH2 0x2A9 JUMP JUMPDEST SWAP1 POP PUSH2 0x13B DUP2 PUSH1 0x40 MLOAD DUP1 PUSH1 0x40 ADD PUSH1 0x40 MSTORE DUP1 PUSH1 0x3 DUP2 MSTORE PUSH1 0x20 ADD PUSH32 0x635F310000000000000000000000000000000000000000000000000000000000 DUP2 MSTORE POP PUSH1 0x40 MLOAD DUP1 PUSH1 0x40 ADD PUSH1 0x40 MSTORE DUP1 PUSH1 0x5 DUP2 MSTORE PUSH1 0x20 ADD PUSH32 0x7768697465000000000000000000000000000000000000000000000000000000 DUP2 MSTORE POP PUSH2 0x2DE JUMP JUMPDEST SWAP1 POP PUSH2 0x1B2 DUP2 PUSH1 0x40 MLOAD DUP1 PUSH1 0x40 ADD PUSH1 0x40 MSTORE DUP1 PUSH1 0x3 DUP2 MSTORE PUSH1 0x20 ADD PUSH32 0x635F320000000000000000000000000000000000000000000000000000000000 DUP2 MSTORE POP PUSH1 0x40 MLOAD DUP1 PUSH1 0x40 ADD PUSH1 0x40 MSTORE DUP1 PUSH1 0x5 DUP2 MSTORE PUSH1 0x20 ADD PUSH32 0x626C61636B000000000000000000000000000000000000000000000000000000 DUP2 MSTORE POP PUSH2 0x2DE JUMP JUMPDEST SWAP1 POP PUSH2 0x229 DUP2 PUSH1 0x40 MLOAD DUP1 PUSH1 0x40 ADD PUSH1 0x40 MSTORE DUP1 PUSH1 0x3 DUP2 MSTORE PUSH1 0x20 ADD PUSH32 0x635F330000000000000000000000000000000000000000000000000000000000 DUP2 MSTORE POP PUSH1 0x40 MLOAD DUP1 PUSH1 0x40 ADD PUSH1 0x40 MSTORE DUP1 PUSH1 0x5 DUP2 MSTORE PUSH1 0x20 ADD PUSH32 0x7768697465000000000000000000000000000000000000000000000000000000 DUP2 MSTORE POP PUSH2 0x2DE JUMP JUMPDEST SWAP1 POP PUSH2 0x2A0 DUP2 PUSH1 0x40 MLOAD DUP1 PUSH1 0x40 ADD PUSH1 0x40 MSTORE DUP1 PUSH1 0x3 DUP2 MSTORE PUSH1 0x20 ADD PUSH32 0x635F340000000000000000000000000000000000000000000000000000000000 DUP2 MSTORE POP PUSH1 0x40 MLOAD DUP1 PUSH1 0x40 ADD PUSH1 0x40 MSTORE DUP1 PUSH1 0x5 DUP2 MSTORE PUSH1 0x20 ADD PUSH32 0x626C61636B000000000000000000000000000000000000000000000000000000 DUP2 MSTORE POP PUSH2 0x2DE JUMP JUMPDEST SWAP1 POP DUP1 SWAP2 POP POP SWAP1 JUMP JUMPDEST PUSH1 0x60 PUSH2 0x2D7 DUP3 PUSH1 0x1 PUSH32 0xFFFFFFFFFFFFFFFFFFFFFFFFFFFFFFFFFFFFFFFFFFFFFFFFFFFFFFFFFFFFFFFF PUSH2 0x61D JUMP JUMPDEST SWAP1 POP SWAP2 SWAP1 POP JUMP JUMPDEST PUSH1 0x60 PUSH0 DUP5 SWAP1 POP PUSH0 DUP5 SWAP1 POP PUSH0 DUP5 SWAP1 POP PUSH0 PUSH1 0x40 DUP5 MLOAD PUSH2 0x2FB SWAP2 SWAP1 PUSH2 0x823 JUMP JUMPDEST PUSH8 0xFFFFFFFFFFFFFFFF DUP2 GT ISZERO PUSH2 0x314 JUMPI PUSH2 0x313 PUSH2 0x856 JUMP JUMPDEST JUMPDEST PUSH1 0x40 MLOAD SWAP1 DUP1 DUP3 MSTORE DUP1 PUSH1 0x1F ADD PUSH1 0x1F NOT AND PUSH1 0x20 ADD DUP3 ADD PUSH1 0x40 MSTORE DUP1 ISZERO PUSH2 0x346 JUMPI DUP2 PUSH1 0x20 ADD PUSH1 0x1 DUP3 MUL DUP1 CALLDATASIZE DUP4 CALLDATACOPY DUP1 DUP3 ADD SWAP2 POP POP SWAP1 POP JUMPDEST POP SWAP1 POP PUSH0 DUP1 JUMPDEST DUP6 MLOAD DUP2 LT ISZERO PUSH2 0x545 JUMPI PUSH0 PUSH1 0x1 SWAP1 POP DUP7 MLOAD DUP7 MLOAD DUP4 PUSH2 0x369 SWAP2 SWAP1 PUSH2 0x823 JUMP JUMPDEST GT ISZERO PUSH2 0x377 JUMPI PUSH0 SWAP1 POP PUSH2 0x429 JUMP JUMPDEST PUSH0 JUMPDEST DUP7 MLOAD DUP2 LT ISZERO PUSH2 0x427 JUMPI DUP7 DUP2 DUP2 MLOAD DUP2 LT PUSH2 0x395 JUMPI PUSH2 0x394 PUSH2 0x883 JUMP JUMPDEST JUMPDEST PUSH1 0x20 ADD ADD MLOAD PUSH1 0xF8 SHR PUSH1 0xF8 SHL PUSH31 0xFFFFFFFFFFFFFFFFFFFFFFFFFFFFFFFFFFFFFFFFFFFFFFFFFFFFFFFFFFFFFF NOT AND DUP9 DUP3 DUP6 PUSH2 0x3CF SWAP2 SWAP1 PUSH2 0x823 JUMP JUMPDEST DUP2 MLOAD DUP2 LT PUSH2 0x3E0 JUMPI PUSH2 0x3DF PUSH2 0x883 JUMP JUMPDEST JUMPDEST PUSH1 0x20 ADD ADD MLOAD PUSH1 0xF8 SHR PUSH1 0xF8 SHL PUSH31 0xFFFFFFFFFFFFFFFFFFFFFFFFFFFFFFFFFFFFFFFFFFFFFFFFFFFFFFFFFFFFFF NOT AND EQ PUSH2 0x41A JUMPI PUSH0 SWAP2 POP PUSH2 0x427 JUMP JUMPDEST DUP1 DUP1 PUSH1 0x1 ADD SWAP2 POP POP PUSH2 0x379 JUMP JUMPDEST POP JUMPDEST DUP1 ISZERO PUSH2 0x4C7 JUMPI PUSH0 JUMPDEST DUP6 MLOAD DUP2 LT ISZERO PUSH2 0x4B2 JUMPI DUP6 DUP2 DUP2 MLOAD DUP2 LT PUSH2 0x44D JUMPI PUSH2 0x44C PUSH2 0x883 JUMP JUMPDEST JUMPDEST PUSH1 0x20 ADD ADD MLOAD PUSH1 0xF8 SHR PUSH1 0xF8 SHL DUP6 DUP6 DUP1 PUSH2 0x464 SWAP1 PUSH2 0x8B0 JUMP JUMPDEST SWAP7 POP DUP2 MLOAD DUP2 LT PUSH2 0x477 JUMPI PUSH2 0x476 PUSH2 0x883 JUMP JUMPDEST JUMPDEST PUSH1 0x20 ADD ADD SWAP1 PUSH31 0xFFFFFFFFFFFFFFFFFFFFFFFFFFFFFFFFFFFFFFFFFFFFFFFFFFFFFFFFFFFFFF NOT AND SWAP1 DUP2 PUSH0 BYTE SWAP1 MSTORE8 POP DUP1 DUP1 PUSH1 0x1 ADD SWAP2 POP POP PUSH2 0x431 JUMP JUMPDEST POP DUP6 MLOAD DUP3 PUSH2 0x4C0 SWAP2 SWAP1 PUSH2 0x823 JUMP JUMPDEST SWAP2 POP PUSH2 0x53F JUMP JUMPDEST DUP7 DUP3 DUP1 PUSH2 0x4D3 SWAP1 PUSH2 0x8B0 JUMP JUMPDEST SWAP4 POP DUP2 MLOAD DUP2 LT PUSH2 0x4E6 JUMPI PUSH2 0x4E5 PUSH2 0x883 JUMP JUMPDEST JUMPDEST PUSH1 0x20 ADD ADD MLOAD PUSH1 0xF8 SHR PUSH1 0xF8 SHL DUP5 DUP5 DUP1 PUSH2 0x4FD SWAP1 PUSH2 0x8B0 JUMP JUMPDEST SWAP6 POP DUP2 MLOAD DUP2 LT PUSH2 0x510 JUMPI PUSH2 0x50F PUSH2 0x883 JUMP JUMPDEST JUMPDEST PUSH1 0x20 ADD ADD SWAP1 PUSH31 0xFFFFFFFFFFFFFFFFFFFFFFFFFFFFFFFFFFFFFFFFFFFFFFFFFFFFFFFFFFFFFF NOT AND SWAP1 DUP2 PUSH0 BYTE SWAP1 MSTORE8 POP JUMPDEST POP PUSH2 0x34C JUMP JUMPDEST POP PUSH0 DUP2 PUSH8 0xFFFFFFFFFFFFFFFF DUP2 GT ISZERO PUSH2 0x561 JUMPI PUSH2 0x560 PUSH2 0x856 JUMP JUMPDEST JUMPDEST PUSH1 0x40 MLOAD SWAP1 DUP1 DUP3 MSTORE DUP1 PUSH1 0x1F ADD PUSH1 0x1F NOT AND PUSH1 0x20 ADD DUP3 ADD PUSH1 0x40 MSTORE DUP1 ISZERO PUSH2 0x593 JUMPI DUP2 PUSH1 0x20 ADD PUSH1 0x1 DUP3 MUL DUP1 CALLDATASIZE DUP4 CALLDATACOPY DUP1 DUP3 ADD SWAP2 POP POP SWAP1 POP JUMPDEST POP SWAP1 POP PUSH0 JUMPDEST DUP3 DUP2 LT ISZERO PUSH2 0x60C JUMPI DUP4 DUP2 DUP2 MLOAD DUP2 LT PUSH2 0x5B3 JUMPI PUSH2 0x5B2 PUSH2 0x883 JUMP JUMPDEST JUMPDEST PUSH1 0x20 ADD ADD MLOAD PUSH1 0xF8 SHR PUSH1 0xF8 SHL DUP3 DUP3 DUP2 MLOAD DUP2 LT PUSH2 0x5D1 JUMPI PUSH2 0x5D0 PUSH2 0x883 JUMP JUMPDEST JUMPDEST PUSH1 0x20 ADD ADD SWAP1 PUSH31 0xFFFFFFFFFFFFFFFFFFFFFFFFFFFFFFFFFFFFFFFFFFFFFFFFFFFFFFFFFFFFFF NOT AND SWAP1 DUP2 PUSH0 BYTE SWAP1 MSTORE8 POP DUP1 DUP1 PUSH1 0x1 ADD SWAP2 POP POP PUSH2 0x598 JUMP JUMPDEST POP DUP1 SWAP7 POP POP POP POP POP POP POP SWAP4 SWAP3 POP POP POP JUMP JUMPDEST PUSH1 0x60 PUSH0 PUSH2 0x629 DUP6 PUSH2 0x6FB JUMP JUMPDEST SWAP1 POP PUSH0 DUP2 SUB PUSH2 0x649 JUMPI PUSH1 0x40 MLOAD DUP1 PUSH1 0x20 ADD PUSH1 0x40 MSTORE DUP1 PUSH0 DUP2 MSTORE POP SWAP2 POP POP PUSH2 0x6F4 JUMP JUMPDEST DUP1 DUP5 GT ISZERO PUSH2 0x668 JUMPI PUSH1 0x40 MLOAD DUP1 PUSH1 0x20 ADD PUSH1 0x40 MSTORE DUP1 PUSH0 DUP2 MSTORE POP SWAP2 POP POP PUSH2 0x6F4 JUMP JUMPDEST DUP4 DUP4 LT ISZERO PUSH2 0x6B1 JUMPI DUP1 DUP5 DUP5 PUSH1 0x40 MLOAD PUSH32 0x2C4A89FA00000000000000000000000000000000000000000000000000000000 DUP2 MSTORE PUSH1 0x4 ADD PUSH2 0x6A8 SWAP4 SWAP3 SWAP2 SWAP1 PUSH2 0x906 JUMP JUMPDEST PUSH1 0x40 MLOAD DUP1 SWAP2 SUB SWAP1 REVERT JUMPDEST PUSH0 DUP5 DUP5 SUB SWAP1 POP PUSH0 DUP6 DUP4 SUB SWAP1 POP PUSH0 DUP3 DUP3 LT PUSH2 0x6CB JUMPI DUP3 PUSH2 0x6CD JUMP JUMPDEST DUP2 JUMPDEST SWAP1 POP PUSH1 0x40 MLOAD SWAP5 POP PUSH1 0x1F NOT PUSH1 0x1F PUSH1 0x20 DUP4 ADD ADD AND DUP6 ADD PUSH1 0x40 MSTORE DUP1 DUP6 MSTORE DUP1 DUP8 PUSH1 0x20 DUP8 ADD DUP11 EXTCODECOPY POP POP POP POP JUMPDEST SWAP4 SWAP3 POP POP POP JUMP JUMPDEST PUSH0 DUP2 EXTCODESIZE SWAP1 POP SWAP2 SWAP1 POP JUMP JUMPDEST PUSH0 PUSH20 0xFFFFFFFFFFFFFFFFFFFFFFFFFFFFFFFFFFFFFFFF DUP3 AND SWAP1 POP SWAP2 SWAP1 POP JUMP JUMPDEST PUSH0 PUSH2 0x72E DUP3 PUSH2 0x705 JUMP JUMPDEST SWAP1 POP SWAP2 SWAP1 POP JUMP JUMPDEST PUSH2 0x73E DUP2 PUSH2 0x724 JUMP JUMPDEST DUP3 MSTORE POP POP JUMP JUMPDEST PUSH0 PUSH1 0x20 DUP3 ADD SWAP1 POP PUSH2 0x757 PUSH0 DUP4 ADD DUP5 PUSH2 0x735 JUMP JUMPDEST SWAP3 SWAP2 POP POP JUMP JUMPDEST PUSH0 DUP2 MLOAD SWAP1 POP SWAP2 SWAP1 POP JUMP JUMPDEST PUSH0 DUP3 DUP3 MSTORE PUSH1 0x20 DUP3 ADD SWAP1 POP SWAP3 SWAP2 POP POP JUMP JUMPDEST DUP3 DUP2 DUP4 MCOPY PUSH0 DUP4 DUP4 ADD MSTORE POP POP POP JUMP JUMPDEST PUSH0 PUSH1 0x1F NOT PUSH1 0x1F DUP4 ADD AND SWAP1 POP SWAP2 SWAP1 POP JUMP JUMPDEST PUSH0 PUSH2 0x79F DUP3 PUSH2 0x75D JUMP JUMPDEST PUSH2 0x7A9 DUP2 DUP6 PUSH2 0x767 JUMP JUMPDEST SWAP4 POP PUSH2 0x7B9 DUP2 DUP6 PUSH1 0x20 DUP7 ADD PUSH2 0x777 JUMP JUMPDEST PUSH2 0x7C2 DUP2 PUSH2 0x785 JUMP JUMPDEST DUP5 ADD SWAP2 POP POP SWAP3 SWAP2 POP POP JUMP JUMPDEST PUSH0 PUSH1 0x20 DUP3 ADD SWAP1 POP DUP2 DUP2 SUB PUSH0 DUP4 ADD MSTORE PUSH2 0x7E5 DUP2 DUP5 PUSH2 0x795 JUMP JUMPDEST SWAP1 POP SWAP3 SWAP2 POP POP JUMP JUMPDEST PUSH0 DUP2 SWAP1 POP SWAP2 SWAP1 POP JUMP JUMPDEST PUSH32 0x4E487B7100000000000000000000000000000000000000000000000000000000 PUSH0 MSTORE PUSH1 0x11 PUSH1 0x4 MSTORE PUSH1 0x24 PUSH0 REVERT JUMPDEST PUSH0 PUSH2 0x82D DUP3 PUSH2 0x7ED JUMP JUMPDEST SWAP2 POP PUSH2 0x838 DUP4 PUSH2 0x7ED JUMP JUMPDEST SWAP3 POP DUP3 DUP3 ADD SWAP1 POP DUP1 DUP3 GT ISZERO PUSH2 0x850 JUMPI PUSH2 0x84F PUSH2 0x7F6 JUMP JUMPDEST JUMPDEST SWAP3 SWAP2 POP POP JUMP JUMPDEST PUSH32 0x4E487B7100000000000000000000000000000000000000000000000000000000 PUSH0 MSTORE PUSH1 0x41 PUSH1 0x4 MSTORE PUSH1 0x24 PUSH0 REVERT JUMPDEST PUSH32 0x4E487B7100000000000000000000000000000000000000000000000000000000 PUSH0 MSTORE PUSH1 0x32 PUSH1 0x4 MSTORE PUSH1 0x24 PUSH0 REVERT JUMPDEST PUSH0 PUSH2 0x8BA DUP3 PUSH2 0x7ED JUMP JUMPDEST SWAP2 POP PUSH32 0xFFFFFFFFFFFFFFFFFFFFFFFFFFFFFFFFFFFFFFFFFFFFFFFFFFFFFFFFFFFFFFFF DUP3 SUB PUSH2 0x8EC JUMPI PUSH2 0x8EB PUSH2 0x7F6 JUMP JUMPDEST JUMPDEST PUSH1 0x1 DUP3 ADD SWAP1 POP SWAP2 SWAP1 POP JUMP JUMPDEST PUSH2 0x900 DUP2 PUSH2 0x7ED JUMP JUMPDEST DUP3 MSTORE POP POP JUMP JUMPDEST PUSH0 PUSH1 0x60 DUP3 ADD SWAP1 POP PUSH2 0x919 PUSH0 DUP4 ADD DUP7 PUSH2 0x8F7 JUMP JUMPDEST PUSH2 0x926 PUSH1 0x20 DUP4 ADD DUP6 PUSH2 0x8F7 JUMP JUMPDEST PUSH2 0x933 PUSH1 0x40 DUP4 ADD DUP5 PUSH2 0x8F7 JUMP JUMPDEST SWAP5 SWAP4 POP POP POP POP JUMP INVALID LOG2 PUSH5 0x6970667358 0x22 SLT KECCAK256 PUSH13 0xC54D5CA892E5E06B0852DFACA6 SWAP10 SWAP16 0xE7 0x2C LOG0 EXP 0xB2 PUSH4 0x99F51C88 SLOAD 0x4B CALLDATALOAD PUSH29 0xA95E64736F6C634300081A003300000000000000000000000000000000 "
		},
		"gasEstimates": {
			"creation": {
				"codeDepositCost": "483400",
				"executionCost": "infinite",
				"totalCost": "infinite"
			},
			"external": {
				"chunk1()": "infinite",
				"getSVG()": "infinite"
			},
			"internal": {
				"substitute(string memory,string memory,string memory)": "infinite"
			}
		},
		"methodIdentifiers": {
			"chunk1()": "27ba0af7",
			"getSVG()": "489187e8"
		}
	},
	"abi": [
		{
			"inputs": [
				{
					"internalType": "address",
					"name": "_chunk1",
					"type": "address"
				}
			],
			"stateMutability": "nonpayable",
			"type": "constructor"
		},
		{
			"inputs": [
				{
					"internalType": "uint256",
					"name": "_size",
					"type": "uint256"
				},
				{
					"internalType": "uint256",
					"name": "_start",
					"type": "uint256"
				},
				{
					"internalType": "uint256",
					"name": "_end",
					"type": "uint256"
				}
			],
			"name": "InvalidCodeAtRange",
			"type": "error"
		},
		{
			"inputs": [],
			"name": "chunk1",
			"outputs": [
				{
					"internalType": "address",
					"name": "",
					"type": "address"
				}
			],
			"stateMutability": "view",
			"type": "function"
		},
		{
			"inputs": [],
			"name": "getSVG",
			"outputs": [
				{
					"internalType": "string",
					"name": "",
					"type": "string"
				}
			],
			"stateMutability": "view",
			"type": "function"
		}
	]
}