{
	"data": {
		"bytecode": {
			"linkReferences": {},
			"object": "60a060405234801561000f575f80fd5b5061003a604051806118200160405280611800815260200161046a611800913961007260201b60201c565b73ffffffffffffffffffffffffffffffffffffffff1660808173ffffffffffffffffffffffffffffffffffffffff1681525050610300565b5f806100a28360405160200161008891906101cb565b60405160208183030381529060405261011960201b60201c565b90508051602082015ff091505f73ffffffffffffffffffffffffffffffffffffffff168273ffffffffffffffffffffffffffffffffffffffff1603610113576040517f08d4abb600000000000000000000000000000000000000000000000000000000815260040160405180910390fd5b50919050565b606081518260405160200161012f9291906102c3565b6040516020818303038152906040529050919050565b5f81905092915050565b5f8082015250565b5f610163600183610145565b915061016e8261014f565b600182019050919050565b5f81519050919050565b5f81905092915050565b8281835e5f83830152505050565b5f6101a582610179565b6101af8185610183565b93506101bf81856020860161018d565b80840191505092915050565b5f6101d582610157565b91506101e1828461019b565b915081905092915050565b7f63000000000000000000000000000000000000000000000000000000000000005f82015250565b5f610220600183610145565b915061022b826101ec565b600182019050919050565b5f63ffffffff82169050919050565b5f8160e01b9050919050565b5f61025b82610245565b9050919050565b61027361026e82610236565b610251565b82525050565b7f80600e6000396000f300000000000000000000000000000000000000000000005f82015250565b5f6102ad600983610145565b91506102b882610279565b600982019050919050565b5f6102cd82610214565b91506102d98285610262565b6004820191506102e8826102a1565b91506102f4828461019b565b91508190509392505050565b60805161014d61031d5f395f818160760152609b015261014d5ff3fe608060405234801561000f575f80fd5b5060043610610034575f3560e01c8063183dda7314610038578063f566852414610056575b5f80fd5b610040610074565b60405161004d91906100fe565b60405180910390f35b61005e610098565b60405161006b91906100fe565b60405180910390f35b7f000000000000000000000000000000000000000000000000000000000000000081565b5f7f0000000000000000000000000000000000000000000000000000000000000000905090565b5f73ffffffffffffffffffffffffffffffffffffffff82169050919050565b5f6100e8826100bf565b9050919050565b6100f8816100de565b82525050565b5f6020820190506101115f8301846100ef565b9291505056fea264697066735822122019260e727cfa90f259bd5303ea1694988fb8ff7fc532d3378101de5210c20dcd64736f6c634300081a00333c73766720786d6c6e733d22687474703a2f2f7777772e77332e6f72672f323030302f737667222076696577426f783d223020302031303234203130323422207072657365727665417370656374526174696f3d22784d6964594d6964206d656574223e0a2020202020200a20203c6d657461646174613e0a202020203c7264663a72646620786d6c6e733a7264663d22687474703a2f2f7777772e77332e6f72672f313939392f30322f32322d7264662d73796e7461782d6e73232220786d6c6e733a64633d22687474703a2f2f7075726c2e6f72672f64632f656c656d656e74732f312e312f223e0a2020202020203c64633a7469746c653e486173684a696e67204d616e64616c613c2f64633a7469746c653e0a2020202020203c64633a63726561746f723e446174615361747476613c2f64633a63726561746f723e0a2020202020203c64633a6465736372697074696f6e3e47656e6572617469766520617274206261736564206f6e2063727970746f67726170686963206861736820656e74726f707920616e642073796d626f6c69632067656f6d657472792e3c2f64633a6465736372697074696f6e3e0a2020202020203c64633a646174653e323032353c2f64633a646174653e0a2020202020203c64633a7269676874733e4d4954204c6963656e73652028636f6465293b2043432042592d4e4320342e30202876697375616c73293c2f64633a7269676874733e0a2020202020203c64633a6964656e7469666965723e68747470733a2f2f6769746875622e636f6d2f446174615361747476612f486173684a696e673c2f64633a6964656e7469666965723e0a2020202020203c64633a6c616e67756167653e656e3c2f64633a6c616e67756167653e0a2020202020203c64633a666f726d61743e696d6167652f7376672b786d6c3c2f64633a666f726d61743e0a2020202020203c64633a7375626a6563743e67656e65726174697665206172742c206d616e64616c612c20686173682c20656e74726f70792c2063727970746f6772617068792c2049204368696e673c2f64633a7375626a6563743e0a202020203c2f7264663a7264663e0a20203c2f6d657461646174613e0a20203c646573633e0a2020202047656e657261746564207769746820486173684a696e672062792044617461536174747661206f6e20323032352d30362d31390a20203c2f646573633e0a0a2020202020203c7265637420783d22302220793d2230222077696474683d223130323422206865696768743d2231303234222066696c6c3d22626c61636b222f3e0a3c7061746820643d224d203531322031313220412034303020343030203020302031203535312e32303638353631333138323433203131332e3932363130393333313132313237204c203535392e303438323237333538313839312033342e33313133333131393733343535312041203438302034383020302030203020353132203332205a222066696c6c3d22626c61636b22207374726f6b653d22626c61636b22207374726f6b652d77696474683d2231222f3e0a3c7061746820643d224d203531322031393220412033323020333230203020302031203534332e33363534383439303534353934203139332e3534303838373436343839373033204c203535312e32303638353631333138323433203131332e3932363130393333313132313237204120343030203430302030203020302035313220313132205a222066696c6c3d22626c61636b22207374726f6b653d22626c61636b22207374726f6b652d77696474683d2231222f3e0a3c7061746820643d224d203531322032373220412032343020323430203020302031203533352e35323431313336373930393436203237332e31353536363535393836373237204c203534332e33363534383439303534353934203139332e3534303838373436343839373033204120333230203332302030203020302035313220313932205a222066696c6c3d22626c61636b22207374726f6b653d22626c61636b22207374726f6b652d77696474683d2231222f3e0a3c7061746820643d224d203531322033353220412031363020313630203020302031203532372e36383237343234353237323937203335322e37373034343337333234343835204c203533352e35323431313336373930393436203237332e31353536363535393836373237204120323430203234302030203020302035313220323732205a222066696c6c3d22626c61636b22207374726f6b653d22626c61636b22207374726f6b652d77696474683d2231222f3e0a3c7061746820643d224d203535312e32303638353631333138323433203131332e393236313039333331313231323720412034303020343030203020302031203539302e30333631323838303634353134203131392e36383538383738333837303738204c203630352e363433333534353637373431372034312e323233303635343036343439333920412034383020343830203020302030203535392e303438323237333538313839312033342e3331313333313139373334353531205a222066696c6c3d22626c61636b22207374726f6b653d22626c61636b22207374726f6b652d77696474683d2231222f3e0a3c7061746820643d224d203534332e33363534383439303534353934203139332e353430383837343634383937303320412033323020333230203020302031203537342e34323839303330343531363132203139382e3134383731303237303936363236204c203539302e30333631323838303634353134203131392e3638353838373833383730373820412034303020343030203020302030203535312e32303638353631333138323433203131332e3932363130393333313132313237205a222066696c6c3d22626c61636b22207374726f6b653d22626c61636b22207374726f6b652d77696474683d2231222f3e0a3c7061746820643d224d203533352e35323431313336373930393436203237332e3135353636353539383637323720412032343020323430203020302031203535382e38323136373732383338373038203237362e36313135333237303332323437204c203537342e34323839303330343531363132203139382e313438373130323730393636323620412033323020333230203020302030203534332e33363534383439303534353934203139332e3534303838373436343839373033205a222066696c6c3d22626c61636b22207374726f6b653d22626c61636b22207374726f6b652d77696474683d2231222f3e0a3c7061746820643d224d203532372e36383237343234353237323937203335322e3737303434333733323434383520412031363020313630203020302031203534332e32313434353135323235383036203335352e3037343335353133353438333133204c203535382e38323136373732383338373038203237362e3631313533323730333232343720412032343020323430203020302030203533352e35323431313336373930393436203237332e31353536363535393836373237205a222066696c6c3d22626c61636b22207374726f6b653d22626c61636b22207374726f6b652d77696474683d2231222f3e0a3c7061746820643d224d203539302e30333631323838303634353133203131392e3638353838373833383730373820412034303020343030203020302031203632382e31313338373039303137383439203132392e3232333836353730373131363433204c203635312e333336363435303832313431392035322e363638363338383438353339373320412034383020343830203020302030203630352e363433333534353637373431352034312e3232333036353430363434393339205a222066696c6c3d22626c61636b22207374726f6b653d22626c61636b22207374726f6b652d77696474683d2231222f3e0a3c7061746820643d224d203537342e34323839303330343531363131203139382e313438373130323730393636323620412033323020333230203020302031203630342e383931303936373231343238203230352e3737393039323536353639333133204c203632382e31313338373039303137383439203132392e323233383635373037313136343320412034303020343030203020302030203539302e30333631323838303634353133203131392e36383538383738333837303738205a222066696c6c3d22626c61636b22207374726f6b653d22626c61636b22207374726f6b652d77696474683d2231222f3e0a3c7061746820643d224d203535382e38323136373732383338373038203237362e3631313533323730333232343720412032343020323430203020302031203538312e36363833323235343130373039203238322e33333433313934323432363939204c203630342e383931303936373231343238203230352e373739303932353635363933313320412033323020333230203020302030203537342e34323839303330343531363131203139382e3134383731303237303936363236205a222066696c6c3d22626c61636b22207374726f6b653d22626c61636b22207374726f6b652d77696474683d2231222f3e0a3c7061746820643d224d203534332e32313434353135323235383035203335352e303734333535313335343833313320412031363020313630203020302031203535382e34343535343833363037313339203335382e38383935343632383238343636204c203538312e36363833323235343130373039203238322e3333343331393432343236393920412032343020323430203020302030203535382e38323136373732383338373038203237362e36313135333237303332323437205a222066696c6c3d22626c61636b22207374726f6b653d22626c61636b22207374726f6b652d77696474683d2231222f3e0a3c7061746820643d224d203632382e31313338373039303137383439203132392e323233383635373037313136343320412034303020343030203020302031203636352e303733333732393436303336203134322e34343831383639393534383533204c203639352e363838303437353335323433322036382e353337383234333934353832333420412034383020343830203020302030203635312e333336363435303832313431392035322e3636383633383834383533393733205a222066696c6c3d22626c61636b22207374726f6b653d22626c61636b22207374726f6b652d77696474683d2231222f3e0a3c7061746820643d224d203630342e383931303936373231343238203230352e373739303932353635363933313320412033323020333230203020302031203633342e34353836393833353638323838203231362e3335383534393539363338383233204c203636352e303733333732393436303336203134322e3434383138363939353438353320412034303020343030203020302030203632382e31313338373039303137383439203132392e3232333836353730373131363433205a222066696c6c3d22626c61636b22207374726f6b653d22626c61636b22207374726f6b652d77696474683d2231222f3e0a3c7061746820643d224d203538312e36363833323235343130373039203238322e3333343331393432343236393920412032343020323430203020302031203630332e38343430323337363736323136203239302e32363839313231393732393132204c203633342e34353836393833353638323838203231362e333538353439353936333838323320412033323020333230203020302030203630342e383931303936373231343238203230352e3737393039323536353639333133205a222066696c6c3d22626c61636b22207374726f6b653d22626c61636b22207374726f6b652d77696474683d2231222f3e0a3c7061746820643d224d203535382e34343535343833363037313339203335382e3838393534363238323834363620412031363020313630203020302031203537332e32323933343931373834313434203336342e31373932373437393831393431204c203630332e38343430323337363736323136203239302e3236383931323139373239313220412032343020323430203020302030203538312e36363833323235343130373039203238322e33333433313934323432363939205a222066696c6c3d22626c61636b22207374726f6b653d22626c61636b22207374726f6b652d77696474683d2231222f3e0a3c7061746820643d224d203636352e303733333732393436303336203134322e3434383138363939353438353320412034303020343030203020302031203730302e35353836393437333033393931203135392e323331343934323630363538204c203733382e323730343333363736343738392038382e363737373933313132373839363320412034383020343830203020302030203639352e363838303437353335323433322036382e3533373832343339343538323334205a222066696c6c3d22626c61636b22207374726f6b653d22626c61636b22207374726f6b652d77696474683d2231222f3e0a3c7061746820643d224d203633342e34353836393833353638323838203231362e333538353439353936333838323320412033323020333230203020302031203636322e38343639353537383433313933203232392e3738353139353430383532363432204c203730302e35353836393437333033393931203135392e32333134393432363036353820412034303020343030203020302030203636352e303733333732393436303336203134322e34343831383639393534383533205a222066696c6c3d22626c61636b22207374726f6b653d22626c61636b22207374726f6b652d77696474683d2231222f3e0a3c7061746820643d224d203630332e38343430323337363736323136203239302e3236383931323139373239313220412032343020323430203020302031203632352e31333532313638333832333934203330302e3333383839363535363339343834204c203636322e38343639353537383433313933203232392e373835313935343038353236343220412033323020333230203020302030203633342e34353836393833353638323838203231362e3335383534393539363338383233205a222066696c6c3d22626c61636b22207374726f6b653d22626c61636b22207374726f6b652d77696474683d2231222f3e0a3c7061746820643d224d203537332e32323933343931373834313434203336342e3137393237343739383139343120412031363020313630203020302031203538372e34323334373738393231353937203337302e38393235393737303432363332204c203632352e31333532313638333832333934203330302e333338383936353536333934383420412032343020323430203020302030203630332e38343430323337363736323136203239302e32363839313231393732393132205a222066696c6c3d22626c61636b22207374726f6b653d22626c61636b22207374726f6b652d77696474683d2231222f3e0a3c7061746820643d224d203730302e35353836393437333033393931203135392e32333134393432363036353820412034303020343030203020302031203733342e323238303933323037383431203137392e3431323135353037383938313933204c203737382e36373337313138343934303931203131322e383934353836303934373738333320412034383020343830203020302030203733382e323730343333363736343738392038382e3637373739333131323738393633205a222066696c6c3d22626c61636b22207374726f6b653d22626c61636b22207374726f6b652d77696474683d2231222f3e0a3c7061746820643d224d203636322e38343639353537383433313933203232392e373835313935343038353236343220412033323020333230203020302031203638392e37383234373435363632373238203234352e3932393732343036333138353537204c203733342e323238303933323037383431203137392e343132313535303738393831393320412034303020343030203020302030203730302e35353836393437333033393931203135392e323331343934323630363538205a222066696c6c3d22626c61636b22207374726f6b653d22626c61636b22207374726f6b652d77696474683d2231222f3e0a3c7061746820643d224d203632352e31333532313638333832333934203330302e333338383936353536333934383420412032343020323430203020302031203634352e33333638353539323437303435203331322e3434373239333034373338393137204c203638392e37383234373435363632373238203234352e39323937323430363331",
			"opcodes": "PUSH1 0xA0 PUSH1 0x40 MSTORE CALLVALUE DUP1 ISZERO PUSH2 0xF JUMPI PUSH0 DUP1 REVERT JUMPDEST POP PUSH2 0x3A PUSH1 0x40 MLOAD DUP1 PUSH2 0x1820 ADD PUSH1 0x40 MSTORE DUP1 PUSH2 0x1800 DUP2 MSTORE PUSH1 0x20 ADD PUSH2 0x46A PUSH2 0x1800 SWAP2 CODECOPY PUSH2 0x72 PUSH1 0x20 SHL PUSH1 0x20 SHR JUMP JUMPDEST PUSH20 0xFFFFFFFFFFFFFFFFFFFFFFFFFFFFFFFFFFFFFFFF AND PUSH1 0x80 DUP2 PUSH20 0xFFFFFFFFFFFFFFFFFFFFFFFFFFFFFFFFFFFFFFFF AND DUP2 MSTORE POP POP PUSH2 0x300 JUMP JUMPDEST PUSH0 DUP1 PUSH2 0xA2 DUP4 PUSH1 0x40 MLOAD PUSH1 0x20 ADD PUSH2 0x88 SWAP2 SWAP1 PUSH2 0x1CB JUMP JUMPDEST PUSH1 0x40 MLOAD PUSH1 0x20 DUP2 DUP4 SUB SUB DUP2 MSTORE SWAP1 PUSH1 0x40 MSTORE PUSH2 0x119 PUSH1 0x20 SHL PUSH1 0x20 SHR JUMP JUMPDEST SWAP1 POP DUP1 MLOAD PUSH1 0x20 DUP3 ADD PUSH0 CREATE SWAP2 POP PUSH0 PUSH20 0xFFFFFFFFFFFFFFFFFFFFFFFFFFFFFFFFFFFFFFFF AND DUP3 PUSH20 0xFFFFFFFFFFFFFFFFFFFFFFFFFFFFFFFFFFFFFFFF AND SUB PUSH2 0x113 JUMPI PUSH1 0x40 MLOAD PUSH32 0x8D4ABB600000000000000000000000000000000000000000000000000000000 DUP2 MSTORE PUSH1 0x4 ADD PUSH1 0x40 MLOAD DUP1 SWAP2 SUB SWAP1 REVERT JUMPDEST POP SWAP2 SWAP1 POP JUMP JUMPDEST PUSH1 0x60 DUP2 MLOAD DUP3 PUSH1 0x40 MLOAD PUSH1 0x20 ADD PUSH2 0x12F SWAP3 SWAP2 SWAP1 PUSH2 0x2C3 JUMP JUMPDEST PUSH1 0x40 MLOAD PUSH1 0x20 DUP2 DUP4 SUB SUB DUP2 MSTORE SWAP1 PUSH1 0x40 MSTORE SWAP1 POP SWAP2 SWAP1 POP JUMP JUMPDEST PUSH0 DUP2 SWAP1 POP SWAP3 SWAP2 POP POP JUMP JUMPDEST PUSH0 DUP1 DUP3 ADD MSTORE POP JUMP JUMPDEST PUSH0 PUSH2 0x163 PUSH1 0x1 DUP4 PUSH2 0x145 JUMP JUMPDEST SWAP2 POP PUSH2 0x16E DUP3 PUSH2 0x14F JUMP JUMPDEST PUSH1 0x1 DUP3 ADD SWAP1 POP SWAP2 SWAP1 POP JUMP JUMPDEST PUSH0 DUP2 MLOAD SWAP1 POP SWAP2 SWAP1 POP JUMP JUMPDEST PUSH0 DUP2 SWAP1 POP SWAP3 SWAP2 POP POP JUMP JUMPDEST DUP3 DUP2 DUP4 MCOPY PUSH0 DUP4 DUP4 ADD MSTORE POP POP POP JUMP JUMPDEST PUSH0 PUSH2 0x1A5 DUP3 PUSH2 0x179 JUMP JUMPDEST PUSH2 0x1AF DUP2 DUP6 PUSH2 0x183 JUMP JUMPDEST SWAP4 POP PUSH2 0x1BF DUP2 DUP6 PUSH1 0x20 DUP7 ADD PUSH2 0x18D JUMP JUMPDEST DUP1 DUP5 ADD SWAP2 POP POP SWAP3 SWAP2 POP POP JUMP JUMPDEST PUSH0 PUSH2 0x1D5 DUP3 PUSH2 0x157 JUMP JUMPDEST SWAP2 POP PUSH2 0x1E1 DUP3 DUP5 PUSH2 0x19B JUMP JUMPDEST SWAP2 POP DUP2 SWAP1 POP SWAP3 SWAP2 POP POP JUMP JUMPDEST PUSH32 0x6300000000000000000000000000000000000000000000000000000000000000 PUSH0 DUP3 ADD MSTORE POP JUMP JUMPDEST PUSH0 PUSH2 0x220 PUSH1 0x1 DUP4 PUSH2 0x145 JUMP JUMPDEST SWAP2 POP PUSH2 0x22B DUP3 PUSH2 0x1EC JUMP JUMPDEST PUSH1 0x1 DUP3 ADD SWAP1 POP SWAP2 SWAP1 POP JUMP JUMPDEST PUSH0 PUSH4 0xFFFFFFFF DUP3 AND SWAP1 POP SWAP2 SWAP1 POP JUMP JUMPDEST PUSH0 DUP2 PUSH1 0xE0 SHL SWAP1 POP SWAP2 SWAP1 POP JUMP JUMPDEST PUSH0 PUSH2 0x25B DUP3 PUSH2 0x245 JUMP JUMPDEST SWAP1 POP SWAP2 SWAP1 POP JUMP JUMPDEST PUSH2 0x273 PUSH2 0x26E DUP3 PUSH2 0x236 JUMP JUMPDEST PUSH2 0x251 JUMP JUMPDEST DUP3 MSTORE POP POP JUMP JUMPDEST PUSH32 0x80600E6000396000F30000000000000000000000000000000000000000000000 PUSH0 DUP3 ADD MSTORE POP JUMP JUMPDEST PUSH0 PUSH2 0x2AD PUSH1 0x9 DUP4 PUSH2 0x145 JUMP JUMPDEST SWAP2 POP PUSH2 0x2B8 DUP3 PUSH2 0x279 JUMP JUMPDEST PUSH1 0x9 DUP3 ADD SWAP1 POP SWAP2 SWAP1 POP JUMP JUMPDEST PUSH0 PUSH2 0x2CD DUP3 PUSH2 0x214 JUMP JUMPDEST SWAP2 POP PUSH2 0x2D9 DUP3 DUP6 PUSH2 0x262 JUMP JUMPDEST PUSH1 0x4 DUP3 ADD SWAP2 POP PUSH2 0x2E8 DUP3 PUSH2 0x2A1 JUMP JUMPDEST SWAP2 POP PUSH2 0x2F4 DUP3 DUP5 PUSH2 0x19B JUMP JUMPDEST SWAP2 POP DUP2 SWAP1 POP SWAP4 SWAP3 POP POP POP JUMP JUMPDEST PUSH1 0x80 MLOAD PUSH2 0x14D PUSH2 0x31D PUSH0 CODECOPY PUSH0 DUP2 DUP2 PUSH1 0x76 ADD MSTORE PUSH1 0x9B ADD MSTORE PUSH2 0x14D PUSH0 RETURN INVALID PUSH1 0x80 PUSH1 0x40 MSTORE CALLVALUE DUP1 ISZERO PUSH2 0xF JUMPI PUSH0 DUP1 REVERT JUMPDEST POP PUSH1 0x4 CALLDATASIZE LT PUSH2 0x34 JUMPI PUSH0 CALLDATALOAD PUSH1 0xE0 SHR DUP1 PUSH4 0x183DDA73 EQ PUSH2 0x38 JUMPI DUP1 PUSH4 0xF5668524 EQ PUSH2 0x56 JUMPI JUMPDEST PUSH0 DUP1 REVERT JUMPDEST PUSH2 0x40 PUSH2 0x74 JUMP JUMPDEST PUSH1 0x40 MLOAD PUSH2 0x4D SWAP2 SWAP1 PUSH2 0xFE JUMP JUMPDEST PUSH1 0x40 MLOAD DUP1 SWAP2 SUB SWAP1 RETURN JUMPDEST PUSH2 0x5E PUSH2 0x98 JUMP JUMPDEST PUSH1 0x40 MLOAD PUSH2 0x6B SWAP2 SWAP1 PUSH2 0xFE JUMP JUMPDEST PUSH1 0x40 MLOAD DUP1 SWAP2 SUB SWAP1 RETURN JUMPDEST PUSH32 0x0 DUP2 JUMP JUMPDEST PUSH0 PUSH32 0x0 SWAP1 POP SWAP1 JUMP JUMPDEST PUSH0 PUSH20 0xFFFFFFFFFFFFFFFFFFFFFFFFFFFFFFFFFFFFFFFF DUP3 AND SWAP1 POP SWAP2 SWAP1 POP JUMP JUMPDEST PUSH0 PUSH2 0xE8 DUP3 PUSH2 0xBF JUMP JUMPDEST SWAP1 POP SWAP2 SWAP1 POP JUMP JUMPDEST PUSH2 0xF8 DUP2 PUSH2 0xDE JUMP JUMPDEST DUP3 MSTORE POP POP JUMP JUMPDEST PUSH0 PUSH1 0x20 DUP3 ADD SWAP1 POP PUSH2 0x111 PUSH0 DUP4 ADD DUP5 PUSH2 0xEF JUMP JUMPDEST SWAP3 SWAP2 POP POP JUMP INVALID LOG2 PUSH5 0x6970667358 0x22 SLT KECCAK256 NOT 0x26 0xE PUSH19 0x7CFA90F259BD5303EA1694988FB8FF7FC532D3 CALLDATACOPY DUP2 ADD 0xDE MSTORE LT 0xC2 0xD 0xCD PUSH5 0x736F6C6343 STOP ADDMOD BYTE STOP CALLER EXTCODECOPY PUSH20 0x766720786D6C6E733D22687474703A2F2F777777 0x2E PUSH24 0x332E6F72672F323030302F737667222076696577426F783D 0x22 ADDRESS KECCAK256 ADDRESS KECCAK256 BALANCE ADDRESS ORIGIN CALLVALUE KECCAK256 BALANCE ADDRESS ORIGIN CALLVALUE 0x22 KECCAK256 PUSH17 0x7265736572766541737065637452617469 PUSH16 0x3D22784D6964594D6964206D65657422 RETURNDATACOPY EXP KECCAK256 KECCAK256 KECCAK256 KECCAK256 KECCAK256 KECCAK256 EXP KECCAK256 KECCAK256 EXTCODECOPY PUSH14 0x657461646174613E0A202020203C PUSH19 0x64663A72646620786D6C6E733A7264663D2268 PUSH21 0x74703A2F2F7777772E77332E6F72672F313939392F ADDRESS ORIGIN 0x2F ORIGIN ORIGIN 0x2D PUSH19 0x64662D73796E7461782D6E73232220786D6C6E PUSH20 0x3A64633D22687474703A2F2F7075726C2E6F7267 0x2F PUSH5 0x632F656C65 PUSH14 0x656E74732F312E312F223E0A2020 KECCAK256 KECCAK256 KECCAK256 KECCAK256 EXTCODECOPY PUSH5 0x633A746974 PUSH13 0x653E486173684A696E67204D61 PUSH15 0x64616C613C2F64633A7469746C653E EXP KECCAK256 KECCAK256 KECCAK256 KECCAK256 KECCAK256 KECCAK256 EXTCODECOPY PUSH5 0x633A637265 PUSH2 0x746F PUSH19 0x3E446174615361747476613C2F64633A637265 PUSH2 0x746F PUSH19 0x3E0A2020202020203C64633A64657363726970 PUSH21 0x696F6E3E47656E6572617469766520617274206261 PUSH20 0x6564206F6E2063727970746F6772617068696320 PUSH9 0x61736820656E74726F PUSH17 0x7920616E642073796D626F6C6963206765 PUSH16 0x6D657472792E3C2F64633A6465736372 PUSH10 0x7074696F6E3E0A202020 KECCAK256 KECCAK256 KECCAK256 EXTCODECOPY PUSH5 0x633A646174 PUSH6 0x3E323032353C 0x2F PUSH5 0x633A646174 PUSH6 0x3E0A20202020 KECCAK256 KECCAK256 EXTCODECOPY PUSH5 0x633A726967 PUSH9 0x74733E4D4954204C69 PUSH4 0x656E7365 KECCAK256 0x28 PUSH4 0x6F646529 EXTCODESIZE KECCAK256 NUMBER NUMBER KECCAK256 TIMESTAMP MSIZE 0x2D 0x4E NUMBER KECCAK256 CALLVALUE 0x2E ADDRESS KECCAK256 0x28 PUSH23 0x697375616C73293C2F64633A7269676874733E0A202020 KECCAK256 KECCAK256 KECCAK256 EXTCODECOPY PUSH5 0x633A696465 PUSH15 0x7469666965723E68747470733A2F2F PUSH8 0x69746875622E636F PUSH14 0x2F446174615361747476612F4861 PUSH20 0x684A696E673C2F64633A6964656E746966696572 RETURNDATACOPY EXP KECCAK256 KECCAK256 KECCAK256 KECCAK256 KECCAK256 KECCAK256 EXTCODECOPY PUSH5 0x633A6C616E PUSH8 0x756167653E656E3C 0x2F PUSH5 0x633A6C616E PUSH8 0x756167653E0A2020 KECCAK256 KECCAK256 KECCAK256 KECCAK256 EXTCODECOPY PUSH5 0x633A666F72 PUSH14 0x61743E696D6167652F7376672B78 PUSH14 0x6C3C2F64633A666F726D61743E0A KECCAK256 KECCAK256 KECCAK256 KECCAK256 KECCAK256 KECCAK256 EXTCODECOPY PUSH5 0x633A737562 PUSH11 0x6563743E67656E65726174 PUSH10 0x7665206172742C206D61 PUSH15 0x64616C612C20686173682C20656E74 PUSH19 0x6F70792C2063727970746F6772617068792C20 BLOBHASH KECCAK256 NUMBER PUSH9 0x696E673C2F64633A73 PUSH22 0x626A6563743E0A202020203C2F7264663A7264663E0A KECCAK256 KECCAK256 EXTCODECOPY 0x2F PUSH14 0x657461646174613E0A20203C6465 PUSH20 0x633E0A2020202047656E65726174656420776974 PUSH9 0x20486173684A696E67 KECCAK256 PUSH3 0x792044 PUSH2 0x7461 MSTORE8 PUSH2 0x7474 PUSH23 0x61206F6E20323032352D30362D31390A20203C2F646573 PUSH4 0x3E0A0A20 KECCAK256 KECCAK256 KECCAK256 KECCAK256 KECCAK256 EXTCODECOPY PUSH19 0x65637420783D22302220793D22302220776964 PUSH21 0x683D223130323422206865696768743D2231303234 0x22 KECCAK256 PUSH7 0x696C6C3D22626C PUSH2 0x636B 0x22 0x2F RETURNDATACOPY EXP EXTCODECOPY PUSH17 0x61746820643D224D203531322031313220 COINBASE KECCAK256 CALLVALUE ADDRESS ADDRESS KECCAK256 CALLVALUE ADDRESS ADDRESS KECCAK256 ADDRESS KECCAK256 ADDRESS KECCAK256 BALANCE KECCAK256 CALLDATALOAD CALLDATALOAD BALANCE 0x2E ORIGIN ADDRESS CALLDATASIZE CODESIZE CALLDATALOAD CALLDATASIZE BALANCE CALLER BALANCE CODESIZE ORIGIN CALLVALUE CALLER KECCAK256 BALANCE BALANCE CALLER 0x2E CODECOPY ORIGIN CALLDATASIZE BALANCE ADDRESS CODECOPY CALLER CALLER BALANCE BALANCE ORIGIN BALANCE ORIGIN CALLDATACOPY KECCAK256 0x4C KECCAK256 CALLDATALOAD CALLDATALOAD CODECOPY 0x2E ADDRESS CALLVALUE CODESIZE ORIGIN ORIGIN CALLDATACOPY CALLER CALLDATALOAD CODESIZE BALANCE CODESIZE CODECOPY BALANCE KECCAK256 CALLER CALLVALUE 0x2E CALLER BALANCE BALANCE CALLER CALLER BALANCE BALANCE CODECOPY CALLDATACOPY CALLER CALLVALUE CALLDATALOAD CALLDATALOAD BALANCE KECCAK256 COINBASE KECCAK256 CALLVALUE CODESIZE ADDRESS KECCAK256 CALLVALUE CODESIZE ADDRESS KECCAK256 ADDRESS KECCAK256 ADDRESS KECCAK256 ADDRESS KECCAK256 CALLDATALOAD BALANCE ORIGIN KECCAK256 CALLER ORIGIN KECCAK256 GAS 0x22 KECCAK256 PUSH7 0x696C6C3D22626C PUSH2 0x636B 0x22 KECCAK256 PUSH20 0x74726F6B653D22626C61636B22207374726F6B65 0x2D PUSH24 0x696474683D2231222F3E0A3C7061746820643D224D203531 ORIGIN KECCAK256 BALANCE CODECOPY ORIGIN KECCAK256 COINBASE KECCAK256 CALLER ORIGIN ADDRESS KECCAK256 CALLER ORIGIN ADDRESS KECCAK256 ADDRESS KECCAK256 ADDRESS KECCAK256 BALANCE KECCAK256 CALLDATALOAD CALLVALUE CALLER 0x2E CALLER CALLDATASIZE CALLDATALOAD CALLVALUE CODESIZE CALLVALUE CODECOPY ADDRESS CALLDATALOAD CALLVALUE CALLDATALOAD CODECOPY CALLVALUE KECCAK256 BALANCE CODECOPY CALLER 0x2E CALLDATALOAD CALLVALUE ADDRESS CODESIZE CODESIZE CALLDATACOPY CALLVALUE CALLDATASIZE CALLVALUE CODESIZE CODECOPY CALLDATACOPY ADDRESS CALLER KECCAK256 0x4C KECCAK256 CALLDATALOAD CALLDATALOAD BALANCE 0x2E ORIGIN ADDRESS CALLDATASIZE CODESIZE CALLDATALOAD CALLDATASIZE BALANCE CALLER BALANCE CODESIZE ORIGIN CALLVALUE CALLER KECCAK256 BALANCE BALANCE CALLER 0x2E CODECOPY ORIGIN CALLDATASIZE BALANCE ADDRESS CODECOPY CALLER CALLER BALANCE BALANCE ORIGIN BALANCE ORIGIN CALLDATACOPY KECCAK256 COINBASE KECCAK256 CALLVALUE ADDRESS ADDRESS KECCAK256 CALLVALUE ADDRESS ADDRESS KECCAK256 ADDRESS KECCAK256 ADDRESS KECCAK256 ADDRESS KECCAK256 CALLDATALOAD BALANCE ORIGIN KECCAK256 BALANCE BALANCE ORIGIN KECCAK256 GAS 0x22 KECCAK256 PUSH7 0x696C6C3D22626C PUSH2 0x636B 0x22 KECCAK256 PUSH20 0x74726F6B653D22626C61636B22207374726F6B65 0x2D PUSH24 0x696474683D2231222F3E0A3C7061746820643D224D203531 ORIGIN KECCAK256 ORIGIN CALLDATACOPY ORIGIN KECCAK256 COINBASE KECCAK256 ORIGIN CALLVALUE ADDRESS KECCAK256 ORIGIN CALLVALUE ADDRESS KECCAK256 ADDRESS KECCAK256 ADDRESS KECCAK256 BALANCE KECCAK256 CALLDATALOAD CALLER CALLDATALOAD 0x2E CALLDATALOAD ORIGIN CALLVALUE BALANCE BALANCE CALLER CALLDATASIZE CALLDATACOPY CODECOPY ADDRESS CODECOPY CALLVALUE CALLDATASIZE KECCAK256 ORIGIN CALLDATACOPY CALLER 0x2E BALANCE CALLDATALOAD CALLDATALOAD CALLDATASIZE CALLDATASIZE CALLDATALOAD CALLDATALOAD CODECOPY CODESIZE CALLDATASIZE CALLDATACOPY ORIGIN CALLDATACOPY KECCAK256 0x4C KECCAK256 CALLDATALOAD CALLVALUE CALLER 0x2E CALLER CALLDATASIZE CALLDATALOAD CALLVALUE CODESIZE CALLVALUE CODECOPY ADDRESS CALLDATALOAD CALLVALUE CALLDATALOAD CODECOPY CALLVALUE KECCAK256 BALANCE CODECOPY CALLER 0x2E CALLDATALOAD CALLVALUE ADDRESS CODESIZE CODESIZE CALLDATACOPY CALLVALUE CALLDATASIZE CALLVALUE CODESIZE CODECOPY CALLDATACOPY ADDRESS CALLER KECCAK256 COINBASE KECCAK256 CALLER ORIGIN ADDRESS KECCAK256 CALLER ORIGIN ADDRESS KECCAK256 ADDRESS KECCAK256 ADDRESS KECCAK256 ADDRESS KECCAK256 CALLDATALOAD BALANCE ORIGIN KECCAK256 BALANCE CODECOPY ORIGIN KECCAK256 GAS 0x22 KECCAK256 PUSH7 0x696C6C3D22626C PUSH2 0x636B 0x22 KECCAK256 PUSH20 0x74726F6B653D22626C61636B22207374726F6B65 0x2D PUSH24 0x696474683D2231222F3E0A3C7061746820643D224D203531 ORIGIN KECCAK256 CALLER CALLDATALOAD ORIGIN KECCAK256 COINBASE KECCAK256 BALANCE CALLDATASIZE ADDRESS KECCAK256 BALANCE CALLDATASIZE ADDRESS KECCAK256 ADDRESS KECCAK256 ADDRESS KECCAK256 BALANCE KECCAK256 CALLDATALOAD ORIGIN CALLDATACOPY 0x2E CALLDATASIZE CODESIZE ORIGIN CALLDATACOPY CALLVALUE ORIGIN CALLVALUE CALLDATALOAD ORIGIN CALLDATACOPY ORIGIN CODECOPY CALLDATACOPY KECCAK256 CALLER CALLDATALOAD ORIGIN 0x2E CALLDATACOPY CALLDATACOPY ADDRESS CALLVALUE CALLVALUE CALLER CALLDATACOPY CALLER ORIGIN CALLVALUE CALLVALUE CODESIZE CALLDATALOAD KECCAK256 0x4C KECCAK256 CALLDATALOAD CALLER CALLDATALOAD 0x2E CALLDATALOAD ORIGIN CALLVALUE BALANCE BALANCE CALLER CALLDATASIZE CALLDATACOPY CODECOPY ADDRESS CODECOPY CALLVALUE CALLDATASIZE KECCAK256 ORIGIN CALLDATACOPY CALLER 0x2E BALANCE CALLDATALOAD CALLDATALOAD CALLDATASIZE CALLDATASIZE CALLDATALOAD CALLDATALOAD CODECOPY CODESIZE CALLDATASIZE CALLDATACOPY ORIGIN CALLDATACOPY KECCAK256 COINBASE KECCAK256 ORIGIN CALLVALUE ADDRESS KECCAK256 ORIGIN CALLVALUE ADDRESS KECCAK256 ADDRESS KECCAK256 ADDRESS KECCAK256 ADDRESS KECCAK256 CALLDATALOAD BALANCE ORIGIN KECCAK256 ORIGIN CALLDATACOPY ORIGIN KECCAK256 GAS 0x22 KECCAK256 PUSH7 0x696C6C3D22626C PUSH2 0x636B 0x22 KECCAK256 PUSH20 0x74726F6B653D22626C61636B22207374726F6B65 0x2D PUSH24 0x696474683D2231222F3E0A3C7061746820643D224D203535 BALANCE 0x2E ORIGIN ADDRESS CALLDATASIZE CODESIZE CALLDATALOAD CALLDATASIZE BALANCE CALLER BALANCE CODESIZE ORIGIN CALLVALUE CALLER KECCAK256 BALANCE BALANCE CALLER 0x2E CODECOPY ORIGIN CALLDATASIZE BALANCE ADDRESS CODECOPY CALLER CALLER BALANCE BALANCE ORIGIN BALANCE ORIGIN CALLDATACOPY KECCAK256 COINBASE KECCAK256 CALLVALUE ADDRESS ADDRESS KECCAK256 CALLVALUE ADDRESS ADDRESS KECCAK256 ADDRESS KECCAK256 ADDRESS KECCAK256 BALANCE KECCAK256 CALLDATALOAD CODECOPY ADDRESS 0x2E ADDRESS CALLER CALLDATASIZE BALANCE ORIGIN CODESIZE CODESIZE ADDRESS CALLDATASIZE CALLVALUE CALLDATALOAD BALANCE CALLVALUE KECCAK256 BALANCE BALANCE CODECOPY 0x2E CALLDATASIZE CODESIZE CALLDATALOAD CODESIZE CODESIZE CALLDATACOPY CODESIZE CALLER CODESIZE CALLDATACOPY ADDRESS CALLDATACOPY CODESIZE KECCAK256 0x4C KECCAK256 CALLDATASIZE ADDRESS CALLDATALOAD 0x2E CALLDATASIZE CALLVALUE CALLER CALLER CALLDATALOAD CALLVALUE CALLDATALOAD CALLDATASIZE CALLDATACOPY CALLDATACOPY CALLVALUE BALANCE CALLDATACOPY KECCAK256 CALLVALUE BALANCE 0x2E ORIGIN ORIGIN CALLER ADDRESS CALLDATASIZE CALLDATALOAD CALLVALUE ADDRESS CALLDATASIZE CALLVALUE CALLVALUE CODECOPY CALLER CODECOPY KECCAK256 COINBASE KECCAK256 CALLVALUE CODESIZE ADDRESS KECCAK256 CALLVALUE CODESIZE ADDRESS KECCAK256 ADDRESS KECCAK256 ADDRESS KECCAK256 ADDRESS KECCAK256 CALLDATALOAD CALLDATALOAD CODECOPY 0x2E ADDRESS CALLVALUE CODESIZE ORIGIN ORIGIN CALLDATACOPY CALLER CALLDATALOAD CODESIZE BALANCE CODESIZE CODECOPY BALANCE KECCAK256 CALLER CALLVALUE 0x2E CALLER BALANCE BALANCE CALLER CALLER BALANCE BALANCE CODECOPY CALLDATACOPY CALLER CALLVALUE CALLDATALOAD CALLDATALOAD BALANCE KECCAK256 GAS 0x22 KECCAK256 PUSH7 0x696C6C3D22626C PUSH2 0x636B 0x22 KECCAK256 PUSH20 0x74726F6B653D22626C61636B22207374726F6B65 0x2D PUSH24 0x696474683D2231222F3E0A3C7061746820643D224D203534 CALLER 0x2E CALLER CALLDATASIZE CALLDATALOAD CALLVALUE CODESIZE CALLVALUE CODECOPY ADDRESS CALLDATALOAD CALLVALUE CALLDATALOAD CODECOPY CALLVALUE KECCAK256 BALANCE CODECOPY CALLER 0x2E CALLDATALOAD CALLVALUE ADDRESS CODESIZE CODESIZE CALLDATACOPY CALLVALUE CALLDATASIZE CALLVALUE CODESIZE CODECOPY CALLDATACOPY ADDRESS CALLER KECCAK256 COINBASE KECCAK256 CALLER ORIGIN ADDRESS KECCAK256 CALLER ORIGIN ADDRESS KECCAK256 ADDRESS KECCAK256 ADDRESS KECCAK256 BALANCE KECCAK256 CALLDATALOAD CALLDATACOPY CALLVALUE 0x2E CALLVALUE ORIGIN CODESIZE CODECOPY ADDRESS CALLER ADDRESS CALLVALUE CALLDATALOAD BALANCE CALLDATASIZE BALANCE ORIGIN KECCAK256 BALANCE CODECOPY CODESIZE 0x2E BALANCE CALLVALUE CODESIZE CALLDATACOPY BALANCE ADDRESS ORIGIN CALLDATACOPY ADDRESS CODECOPY CALLDATASIZE CALLDATASIZE ORIGIN CALLDATASIZE KECCAK256 0x4C KECCAK256 CALLDATALOAD CODECOPY ADDRESS 0x2E ADDRESS CALLER CALLDATASIZE BALANCE ORIGIN CODESIZE CODESIZE ADDRESS CALLDATASIZE CALLVALUE CALLDATALOAD BALANCE CALLVALUE KECCAK256 BALANCE BALANCE CODECOPY 0x2E CALLDATASIZE CODESIZE CALLDATALOAD CODESIZE CODESIZE CALLDATACOPY CODESIZE CALLER CODESIZE CALLDATACOPY ADDRESS CALLDATACOPY CODESIZE KECCAK256 COINBASE KECCAK256 CALLVALUE ADDRESS ADDRESS KECCAK256 CALLVALUE ADDRESS ADDRESS KECCAK256 ADDRESS KECCAK256 ADDRESS KECCAK256 ADDRESS KECCAK256 CALLDATALOAD CALLDATALOAD BALANCE 0x2E ORIGIN ADDRESS CALLDATASIZE CODESIZE CALLDATALOAD CALLDATASIZE BALANCE CALLER BALANCE CODESIZE ORIGIN CALLVALUE CALLER KECCAK256 BALANCE BALANCE CALLER 0x2E CODECOPY ORIGIN CALLDATASIZE BALANCE ADDRESS CODECOPY CALLER CALLER BALANCE BALANCE ORIGIN BALANCE ORIGIN CALLDATACOPY KECCAK256 GAS 0x22 KECCAK256 PUSH7 0x696C6C3D22626C PUSH2 0x636B 0x22 KECCAK256 PUSH20 0x74726F6B653D22626C61636B22207374726F6B65 0x2D PUSH24 0x696474683D2231222F3E0A3C7061746820643D224D203533 CALLDATALOAD 0x2E CALLDATALOAD ORIGIN CALLVALUE BALANCE BALANCE CALLER CALLDATASIZE CALLDATACOPY CODECOPY ADDRESS CODECOPY CALLVALUE CALLDATASIZE KECCAK256 ORIGIN CALLDATACOPY CALLER 0x2E BALANCE CALLDATALOAD CALLDATALOAD CALLDATASIZE CALLDATASIZE CALLDATALOAD CALLDATALOAD CODECOPY CODESIZE CALLDATASIZE CALLDATACOPY ORIGIN CALLDATACOPY KECCAK256 COINBASE KECCAK256 ORIGIN CALLVALUE ADDRESS KECCAK256 ORIGIN CALLVALUE ADDRESS KECCAK256 ADDRESS KECCAK256 ADDRESS KECCAK256 BALANCE KECCAK256 CALLDATALOAD CALLDATALOAD CODESIZE 0x2E CODESIZE ORIGIN BALANCE CALLDATASIZE CALLDATACOPY CALLDATACOPY ORIGIN CODESIZE CALLER CODESIZE CALLDATACOPY ADDRESS CODESIZE KECCAK256 ORIGIN CALLDATACOPY CALLDATASIZE 0x2E CALLDATASIZE BALANCE BALANCE CALLDATALOAD CALLER ORIGIN CALLDATACOPY ADDRESS CALLER ORIGIN ORIGIN CALLVALUE CALLDATACOPY KECCAK256 0x4C KECCAK256 CALLDATALOAD CALLDATACOPY CALLVALUE 0x2E CALLVALUE ORIGIN CODESIZE CODECOPY ADDRESS CALLER ADDRESS CALLVALUE CALLDATALOAD BALANCE CALLDATASIZE BALANCE ORIGIN KECCAK256 BALANCE CODECOPY CODESIZE 0x2E BALANCE CALLVALUE CODESIZE CALLDATACOPY BALANCE ADDRESS ORIGIN CALLDATACOPY ADDRESS CODECOPY CALLDATASIZE CALLDATASIZE ORIGIN CALLDATASIZE KECCAK256 COINBASE KECCAK256 CALLER ORIGIN ADDRESS KECCAK256 CALLER ORIGIN ADDRESS KECCAK256 ADDRESS KECCAK256 ADDRESS KECCAK256 ADDRESS KECCAK256 CALLDATALOAD CALLVALUE CALLER 0x2E CALLER CALLDATASIZE CALLDATALOAD CALLVALUE CODESIZE CALLVALUE CODECOPY ADDRESS CALLDATALOAD CALLVALUE CALLDATALOAD CODECOPY CALLVALUE KECCAK256 BALANCE CODECOPY CALLER 0x2E CALLDATALOAD CALLVALUE ADDRESS CODESIZE CODESIZE CALLDATACOPY CALLVALUE CALLDATASIZE CALLVALUE CODESIZE CODECOPY CALLDATACOPY ADDRESS CALLER KECCAK256 GAS 0x22 KECCAK256 PUSH7 0x696C6C3D22626C PUSH2 0x636B 0x22 KECCAK256 PUSH20 0x74726F6B653D22626C61636B22207374726F6B65 0x2D PUSH24 0x696474683D2231222F3E0A3C7061746820643D224D203532 CALLDATACOPY 0x2E CALLDATASIZE CODESIZE ORIGIN CALLDATACOPY CALLVALUE ORIGIN CALLVALUE CALLDATALOAD ORIGIN CALLDATACOPY ORIGIN CODECOPY CALLDATACOPY KECCAK256 CALLER CALLDATALOAD ORIGIN 0x2E CALLDATACOPY CALLDATACOPY ADDRESS CALLVALUE CALLVALUE CALLER CALLDATACOPY CALLER ORIGIN CALLVALUE CALLVALUE CODESIZE CALLDATALOAD KECCAK256 COINBASE KECCAK256 BALANCE CALLDATASIZE ADDRESS KECCAK256 BALANCE CALLDATASIZE ADDRESS KECCAK256 ADDRESS KECCAK256 ADDRESS KECCAK256 BALANCE KECCAK256 CALLDATALOAD CALLVALUE CALLER 0x2E ORIGIN BALANCE CALLVALUE CALLVALUE CALLDATALOAD BALANCE CALLDATALOAD ORIGIN ORIGIN CALLDATALOAD CODESIZE ADDRESS CALLDATASIZE KECCAK256 CALLER CALLDATALOAD CALLDATALOAD 0x2E ADDRESS CALLDATACOPY CALLVALUE CALLER CALLDATALOAD CALLDATALOAD BALANCE CALLER CALLDATALOAD CALLVALUE CODESIZE CALLER BALANCE CALLER KECCAK256 0x4C KECCAK256 CALLDATALOAD CALLDATALOAD CODESIZE 0x2E CODESIZE ORIGIN BALANCE CALLDATASIZE CALLDATACOPY CALLDATACOPY ORIGIN CODESIZE CALLER CODESIZE CALLDATACOPY ADDRESS CODESIZE KECCAK256 ORIGIN CALLDATACOPY CALLDATASIZE 0x2E CALLDATASIZE BALANCE BALANCE CALLDATALOAD CALLER ORIGIN CALLDATACOPY ADDRESS CALLER ORIGIN ORIGIN CALLVALUE CALLDATACOPY KECCAK256 COINBASE KECCAK256 ORIGIN CALLVALUE ADDRESS KECCAK256 ORIGIN CALLVALUE ADDRESS KECCAK256 ADDRESS KECCAK256 ADDRESS KECCAK256 ADDRESS KECCAK256 CALLDATALOAD CALLER CALLDATALOAD 0x2E CALLDATALOAD ORIGIN CALLVALUE BALANCE BALANCE CALLER CALLDATASIZE CALLDATACOPY CODECOPY ADDRESS CODECOPY CALLVALUE CALLDATASIZE KECCAK256 ORIGIN CALLDATACOPY CALLER 0x2E BALANCE CALLDATALOAD CALLDATALOAD CALLDATASIZE CALLDATASIZE CALLDATALOAD CALLDATALOAD CODECOPY CODESIZE CALLDATASIZE CALLDATACOPY ORIGIN CALLDATACOPY KECCAK256 GAS 0x22 KECCAK256 PUSH7 0x696C6C3D22626C PUSH2 0x636B 0x22 KECCAK256 PUSH20 0x74726F6B653D22626C61636B22207374726F6B65 0x2D PUSH24 0x696474683D2231222F3E0A3C7061746820643D224D203539 ADDRESS 0x2E ADDRESS CALLER CALLDATASIZE BALANCE ORIGIN CODESIZE CODESIZE ADDRESS CALLDATASIZE CALLVALUE CALLDATALOAD BALANCE CALLER KECCAK256 BALANCE BALANCE CODECOPY 0x2E CALLDATASIZE CODESIZE CALLDATALOAD CODESIZE CODESIZE CALLDATACOPY CODESIZE CALLER CODESIZE CALLDATACOPY ADDRESS CALLDATACOPY CODESIZE KECCAK256 COINBASE KECCAK256 CALLVALUE ADDRESS ADDRESS KECCAK256 CALLVALUE ADDRESS ADDRESS KECCAK256 ADDRESS KECCAK256 ADDRESS KECCAK256 BALANCE KECCAK256 CALLDATASIZE ORIGIN CODESIZE 0x2E BALANCE BALANCE CALLER CODESIZE CALLDATACOPY ADDRESS CODECOPY ADDRESS BALANCE CALLDATACOPY CODESIZE CALLVALUE CODECOPY KECCAK256 BALANCE ORIGIN CODECOPY 0x2E ORIGIN ORIGIN CALLER CODESIZE CALLDATASIZE CALLDATALOAD CALLDATACOPY ADDRESS CALLDATACOPY BALANCE BALANCE CALLDATASIZE CALLVALUE CALLER KECCAK256 0x4C KECCAK256 CALLDATASIZE CALLDATALOAD BALANCE 0x2E CALLER CALLER CALLDATASIZE CALLDATASIZE CALLVALUE CALLDATALOAD ADDRESS CODESIZE ORIGIN BALANCE CALLVALUE BALANCE CODECOPY KECCAK256 CALLDATALOAD ORIGIN 0x2E CALLDATASIZE CALLDATASIZE CODESIZE CALLDATASIZE CALLER CODESIZE CODESIZE CALLVALUE CODESIZE CALLDATALOAD CALLER CODECOPY CALLDATACOPY CALLER KECCAK256 COINBASE KECCAK256 CALLVALUE CODESIZE ADDRESS KECCAK256 CALLVALUE CODESIZE ADDRESS KECCAK256 ADDRESS KECCAK256 ADDRESS KECCAK256 ADDRESS KECCAK256 CALLDATASIZE ADDRESS CALLDATALOAD 0x2E CALLDATASIZE CALLVALUE CALLER CALLER CALLDATALOAD CALLVALUE CALLDATALOAD CALLDATASIZE CALLDATACOPY CALLDATACOPY CALLVALUE BALANCE CALLDATALOAD KECCAK256 CALLVALUE BALANCE 0x2E ORIGIN ORIGIN CALLER ADDRESS CALLDATASIZE CALLDATALOAD CALLVALUE ADDRESS CALLDATASIZE CALLVALUE CALLVALUE CODECOPY CALLER CODECOPY KECCAK256 GAS 0x22 KECCAK256 PUSH7 0x696C6C3D22626C PUSH2 0x636B 0x22 KECCAK256 PUSH20 0x74726F6B653D22626C61636B22207374726F6B65 0x2D PUSH24 0x696474683D2231222F3E0A3C7061746820643D224D203537 CALLVALUE 0x2E CALLVALUE ORIGIN CODESIZE CODECOPY ADDRESS CALLER ADDRESS CALLVALUE CALLDATALOAD BALANCE CALLDATASIZE BALANCE BALANCE KECCAK256 BALANCE CODECOPY CODESIZE 0x2E BALANCE CALLVALUE CODESIZE CALLDATACOPY BALANCE ADDRESS ORIGIN CALLDATACOPY ADDRESS CODECOPY CALLDATASIZE CALLDATASIZE ORIGIN CALLDATASIZE KECCAK256 COINBASE KECCAK256 CALLER ORIGIN ADDRESS KECCAK256 CALLER ORIGIN ADDRESS KECCAK256 ADDRESS KECCAK256 ADDRESS KECCAK256 BALANCE KECCAK256 CALLDATASIZE ADDRESS CALLVALUE 0x2E CODESIZE CODECOPY BALANCE ADDRESS CODECOPY CALLDATASIZE CALLDATACOPY ORIGIN BALANCE CALLVALUE ORIGIN CODESIZE KECCAK256 ORIGIN ADDRESS CALLDATALOAD 0x2E CALLDATACOPY CALLDATACOPY CODECOPY ADDRESS CODECOPY ORIGIN CALLDATALOAD CALLDATASIZE CALLDATALOAD CALLDATASIZE CODECOPY CALLER BALANCE CALLER KECCAK256 0x4C KECCAK256 CALLDATASIZE ORIGIN CODESIZE 0x2E BALANCE BALANCE CALLER CODESIZE CALLDATACOPY ADDRESS CODECOPY ADDRESS BALANCE CALLDATACOPY CODESIZE CALLVALUE CODECOPY KECCAK256 BALANCE ORIGIN CODECOPY 0x2E ORIGIN ORIGIN CALLER CODESIZE CALLDATASIZE CALLDATALOAD CALLDATACOPY ADDRESS CALLDATACOPY BALANCE BALANCE CALLDATASIZE CALLVALUE CALLER KECCAK256 COINBASE KECCAK256 CALLVALUE ADDRESS ADDRESS KECCAK256 CALLVALUE ADDRESS ADDRESS KECCAK256 ADDRESS KECCAK256 ADDRESS KECCAK256 ADDRESS KECCAK256 CALLDATALOAD CODECOPY ADDRESS 0x2E ADDRESS CALLER CALLDATASIZE BALANCE ORIGIN CODESIZE CODESIZE ADDRESS CALLDATASIZE CALLVALUE CALLDATALOAD BALANCE CALLER KECCAK256 BALANCE BALANCE CODECOPY 0x2E CALLDATASIZE CODESIZE CALLDATALOAD CODESIZE CODESIZE CALLDATACOPY CODESIZE CALLER CODESIZE CALLDATACOPY ADDRESS CALLDATACOPY CODESIZE KECCAK256 GAS 0x22 KECCAK256 PUSH7 0x696C6C3D22626C PUSH2 0x636B 0x22 KECCAK256 PUSH20 0x74726F6B653D22626C61636B22207374726F6B65 0x2D PUSH24 0x696474683D2231222F3E0A3C7061746820643D224D203535 CODESIZE 0x2E CODESIZE ORIGIN BALANCE CALLDATASIZE CALLDATACOPY CALLDATACOPY ORIGIN CODESIZE CALLER CODESIZE CALLDATACOPY ADDRESS CODESIZE KECCAK256 ORIGIN CALLDATACOPY CALLDATASIZE 0x2E CALLDATASIZE BALANCE BALANCE CALLDATALOAD CALLER ORIGIN CALLDATACOPY ADDRESS CALLER ORIGIN ORIGIN CALLVALUE CALLDATACOPY KECCAK256 COINBASE KECCAK256 ORIGIN CALLVALUE ADDRESS KECCAK256 ORIGIN CALLVALUE ADDRESS KECCAK256 ADDRESS KECCAK256 ADDRESS KECCAK256 BALANCE KECCAK256 CALLDATALOAD CODESIZE BALANCE 0x2E CALLDATASIZE CALLDATASIZE CODESIZE CALLER ORIGIN ORIGIN CALLDATALOAD CALLVALUE BALANCE ADDRESS CALLDATACOPY ADDRESS CODECOPY KECCAK256 ORIGIN CODESIZE ORIGIN 0x2E CALLER CALLER CALLVALUE CALLER BALANCE CODECOPY CALLVALUE ORIGIN CALLVALUE ORIGIN CALLDATASIZE CODECOPY CODECOPY KECCAK256 0x4C KECCAK256 CALLDATASIZE ADDRESS CALLVALUE 0x2E CODESIZE CODECOPY BALANCE ADDRESS CODECOPY CALLDATASIZE CALLDATACOPY ORIGIN BALANCE CALLVALUE ORIGIN CODESIZE KECCAK256 ORIGIN ADDRESS CALLDATALOAD 0x2E CALLDATACOPY CALLDATACOPY CODECOPY ADDRESS CODECOPY ORIGIN CALLDATALOAD CALLDATASIZE CALLDATALOAD CALLDATASIZE CODECOPY CALLER BALANCE CALLER KECCAK256 COINBASE KECCAK256 CALLER ORIGIN ADDRESS KECCAK256 CALLER ORIGIN ADDRESS KECCAK256 ADDRESS KECCAK256 ADDRESS KECCAK256 ADDRESS KECCAK256 CALLDATALOAD CALLDATACOPY CALLVALUE 0x2E CALLVALUE ORIGIN CODESIZE CODECOPY ADDRESS CALLER ADDRESS CALLVALUE CALLDATALOAD BALANCE CALLDATASIZE BALANCE BALANCE KECCAK256 BALANCE CODECOPY CODESIZE 0x2E BALANCE CALLVALUE CODESIZE CALLDATACOPY BALANCE ADDRESS ORIGIN CALLDATACOPY ADDRESS CODECOPY CALLDATASIZE CALLDATASIZE ORIGIN CALLDATASIZE KECCAK256 GAS 0x22 KECCAK256 PUSH7 0x696C6C3D22626C PUSH2 0x636B 0x22 KECCAK256 PUSH20 0x74726F6B653D22626C61636B22207374726F6B65 0x2D PUSH24 0x696474683D2231222F3E0A3C7061746820643D224D203534 CALLER 0x2E ORIGIN BALANCE CALLVALUE CALLVALUE CALLDATALOAD BALANCE CALLDATALOAD ORIGIN ORIGIN CALLDATALOAD CODESIZE ADDRESS CALLDATALOAD KECCAK256 CALLER CALLDATALOAD CALLDATALOAD 0x2E ADDRESS CALLDATACOPY CALLVALUE CALLER CALLDATALOAD CALLDATALOAD BALANCE CALLER CALLDATALOAD CALLVALUE CODESIZE CALLER BALANCE CALLER KECCAK256 COINBASE KECCAK256 BALANCE CALLDATASIZE ADDRESS KECCAK256 BALANCE CALLDATASIZE ADDRESS KECCAK256 ADDRESS KECCAK256 ADDRESS KECCAK256 BALANCE KECCAK256 CALLDATALOAD CALLDATALOAD CODESIZE 0x2E CALLVALUE CALLVALUE CALLDATALOAD CALLDATALOAD CALLVALUE CODESIZE CALLER CALLDATASIZE ADDRESS CALLDATACOPY BALANCE CALLER CODECOPY KECCAK256 CALLER CALLDATALOAD CODESIZE 0x2E CODESIZE CODESIZE CODECOPY CALLDATALOAD CALLVALUE CALLDATASIZE ORIGIN CODESIZE ORIGIN CODESIZE CALLVALUE CALLDATASIZE CALLDATASIZE KECCAK256 0x4C KECCAK256 CALLDATALOAD CODESIZE BALANCE 0x2E CALLDATASIZE CALLDATASIZE CODESIZE CALLER ORIGIN ORIGIN CALLDATALOAD CALLVALUE BALANCE ADDRESS CALLDATACOPY ADDRESS CODECOPY KECCAK256 ORIGIN CODESIZE ORIGIN 0x2E CALLER CALLER CALLVALUE CALLER BALANCE CODECOPY CALLVALUE ORIGIN CALLVALUE ORIGIN CALLDATASIZE CODECOPY CODECOPY KECCAK256 COINBASE KECCAK256 ORIGIN CALLVALUE ADDRESS KECCAK256 ORIGIN CALLVALUE ADDRESS KECCAK256 ADDRESS KECCAK256 ADDRESS KECCAK256 ADDRESS KECCAK256 CALLDATALOAD CALLDATALOAD CODESIZE 0x2E CODESIZE ORIGIN BALANCE CALLDATASIZE CALLDATACOPY CALLDATACOPY ORIGIN CODESIZE CALLER CODESIZE CALLDATACOPY ADDRESS CODESIZE KECCAK256 ORIGIN CALLDATACOPY CALLDATASIZE 0x2E CALLDATASIZE BALANCE BALANCE CALLDATALOAD CALLER ORIGIN CALLDATACOPY ADDRESS CALLER ORIGIN ORIGIN CALLVALUE CALLDATACOPY KECCAK256 GAS 0x22 KECCAK256 PUSH7 0x696C6C3D22626C PUSH2 0x636B 0x22 KECCAK256 PUSH20 0x74726F6B653D22626C61636B22207374726F6B65 0x2D PUSH24 0x696474683D2231222F3E0A3C7061746820643D224D203632 CODESIZE 0x2E BALANCE BALANCE CALLER CODESIZE CALLDATACOPY ADDRESS CODECOPY ADDRESS BALANCE CALLDATACOPY CODESIZE CALLVALUE CODECOPY KECCAK256 BALANCE ORIGIN CODECOPY 0x2E ORIGIN ORIGIN CALLER CODESIZE CALLDATASIZE CALLDATALOAD CALLDATACOPY ADDRESS CALLDATACOPY BALANCE BALANCE CALLDATASIZE CALLVALUE CALLER KECCAK256 COINBASE KECCAK256 CALLVALUE ADDRESS ADDRESS KECCAK256 CALLVALUE ADDRESS ADDRESS KECCAK256 ADDRESS KECCAK256 ADDRESS KECCAK256 BALANCE KECCAK256 CALLDATASIZE CALLDATASIZE CALLDATALOAD 0x2E ADDRESS CALLDATACOPY CALLER CALLER CALLDATACOPY ORIGIN CODECOPY CALLVALUE CALLDATASIZE ADDRESS CALLER CALLDATASIZE KECCAK256 BALANCE CALLVALUE ORIGIN 0x2E CALLVALUE CALLVALUE CODESIZE BALANCE CODESIZE CALLDATASIZE CODECOPY CODECOPY CALLDATALOAD CALLVALUE CODESIZE CALLDATALOAD CALLER KECCAK256 0x4C KECCAK256 CALLDATASIZE CODECOPY CALLDATALOAD 0x2E CALLDATASIZE CODESIZE CODESIZE ADDRESS CALLVALUE CALLDATACOPY CALLDATALOAD CALLER CALLDATALOAD ORIGIN CALLVALUE CALLER ORIGIN KECCAK256 CALLDATASIZE CODESIZE 0x2E CALLDATALOAD CALLER CALLDATACOPY CODESIZE ORIGIN CALLVALUE CALLER CODECOPY CALLVALUE CALLDATALOAD CODESIZE ORIGIN CALLER CALLVALUE KECCAK256 COINBASE KECCAK256 CALLVALUE CODESIZE ADDRESS KECCAK256 CALLVALUE CODESIZE ADDRESS KECCAK256 ADDRESS KECCAK256 ADDRESS KECCAK256 ADDRESS KECCAK256 CALLDATASIZE CALLDATALOAD BALANCE 0x2E CALLER CALLER CALLDATASIZE CALLDATASIZE CALLVALUE CALLDATALOAD ADDRESS CODESIZE ORIGIN BALANCE CALLVALUE BALANCE CODECOPY KECCAK256 CALLDATALOAD ORIGIN 0x2E CALLDATASIZE CALLDATASIZE CODESIZE CALLDATASIZE CALLER CODESIZE CODESIZE CALLVALUE CODESIZE CALLDATALOAD CALLER CODECOPY CALLDATACOPY CALLER KECCAK256 GAS 0x22 KECCAK256 PUSH7 0x696C6C3D22626C PUSH2 0x636B 0x22 KECCAK256 PUSH20 0x74726F6B653D22626C61636B22207374726F6B65 0x2D PUSH24 0x696474683D2231222F3E0A3C7061746820643D224D203630 CALLVALUE 0x2E CODESIZE CODECOPY BALANCE ADDRESS CODECOPY CALLDATASIZE CALLDATACOPY ORIGIN BALANCE CALLVALUE ORIGIN CODESIZE KECCAK256 ORIGIN ADDRESS CALLDATALOAD 0x2E CALLDATACOPY CALLDATACOPY CODECOPY ADDRESS CODECOPY ORIGIN CALLDATALOAD CALLDATASIZE CALLDATALOAD CALLDATASIZE CODECOPY CALLER BALANCE CALLER KECCAK256 COINBASE KECCAK256 CALLER ORIGIN ADDRESS KECCAK256 CALLER ORIGIN ADDRESS KECCAK256 ADDRESS KECCAK256 ADDRESS KECCAK256 BALANCE KECCAK256 CALLDATASIZE CALLER CALLVALUE 0x2E CALLVALUE CALLDATALOAD CODESIZE CALLDATASIZE CODECOPY CODESIZE CALLER CALLDATALOAD CALLDATASIZE CODESIZE ORIGIN CODESIZE CODESIZE KECCAK256 ORIGIN BALANCE CALLDATASIZE 0x2E CALLER CALLDATALOAD CODESIZE CALLDATALOAD CALLVALUE CODECOPY CALLDATALOAD CODECOPY CALLDATASIZE CALLER CODESIZE CODESIZE ORIGIN CALLER KECCAK256 0x4C KECCAK256 CALLDATASIZE CALLDATASIZE CALLDATALOAD 0x2E ADDRESS CALLDATACOPY CALLER CALLER CALLDATACOPY ORIGIN CODECOPY CALLVALUE CALLDATASIZE ADDRESS CALLER CALLDATASIZE KECCAK256 BALANCE CALLVALUE ORIGIN 0x2E CALLVALUE CALLVALUE CODESIZE BALANCE CODESIZE CALLDATASIZE CODECOPY CODECOPY CALLDATALOAD CALLVALUE CODESIZE CALLDATALOAD CALLER KECCAK256 COINBASE KECCAK256 CALLVALUE ADDRESS ADDRESS KECCAK256 CALLVALUE ADDRESS ADDRESS KECCAK256 ADDRESS KECCAK256 ADDRESS KECCAK256 ADDRESS KECCAK256 CALLDATASIZE ORIGIN CODESIZE 0x2E BALANCE BALANCE CALLER CODESIZE CALLDATACOPY ADDRESS CODECOPY ADDRESS BALANCE CALLDATACOPY CODESIZE CALLVALUE CODECOPY KECCAK256 BALANCE ORIGIN CODECOPY 0x2E ORIGIN ORIGIN CALLER CODESIZE CALLDATASIZE CALLDATALOAD CALLDATACOPY ADDRESS CALLDATACOPY BALANCE BALANCE CALLDATASIZE CALLVALUE CALLER KECCAK256 GAS 0x22 KECCAK256 PUSH7 0x696C6C3D22626C PUSH2 0x636B 0x22 KECCAK256 PUSH20 0x74726F6B653D22626C61636B22207374726F6B65 0x2D PUSH24 0x696474683D2231222F3E0A3C7061746820643D224D203538 BALANCE 0x2E CALLDATASIZE CALLDATASIZE CODESIZE CALLER ORIGIN ORIGIN CALLDATALOAD CALLVALUE BALANCE ADDRESS CALLDATACOPY ADDRESS CODECOPY KECCAK256 ORIGIN CODESIZE ORIGIN 0x2E CALLER CALLER CALLVALUE CALLER BALANCE CODECOPY CALLVALUE ORIGIN CALLVALUE ORIGIN CALLDATASIZE CODECOPY CODECOPY KECCAK256 COINBASE KECCAK256 ORIGIN CALLVALUE ADDRESS KECCAK256 ORIGIN CALLVALUE ADDRESS KECCAK256 ADDRESS KECCAK256 ADDRESS KECCAK256 BALANCE KECCAK256 CALLDATASIZE ADDRESS CALLER 0x2E CODESIZE CALLVALUE CALLVALUE ADDRESS ORIGIN CALLER CALLDATACOPY CALLDATASIZE CALLDATACOPY CALLDATASIZE ORIGIN BALANCE CALLDATASIZE KECCAK256 ORIGIN CODECOPY ADDRESS 0x2E ORIGIN CALLDATASIZE CODESIZE CODECOPY BALANCE ORIGIN BALANCE CODECOPY CALLDATACOPY ORIGIN CODECOPY BALANCE ORIGIN KECCAK256 0x4C KECCAK256 CALLDATASIZE CALLER CALLVALUE 0x2E CALLVALUE CALLDATALOAD CODESIZE CALLDATASIZE CODECOPY CODESIZE CALLER CALLDATALOAD CALLDATASIZE CODESIZE ORIGIN CODESIZE CODESIZE KECCAK256 ORIGIN BALANCE CALLDATASIZE 0x2E CALLER CALLDATALOAD CODESIZE CALLDATALOAD CALLVALUE CODECOPY CALLDATALOAD CODECOPY CALLDATASIZE CALLER CODESIZE CODESIZE ORIGIN CALLER KECCAK256 COINBASE KECCAK256 CALLER ORIGIN ADDRESS KECCAK256 CALLER ORIGIN ADDRESS KECCAK256 ADDRESS KECCAK256 ADDRESS KECCAK256 ADDRESS KECCAK256 CALLDATASIZE ADDRESS CALLVALUE 0x2E CODESIZE CODECOPY BALANCE ADDRESS CODECOPY CALLDATASIZE CALLDATACOPY ORIGIN BALANCE CALLVALUE ORIGIN CODESIZE KECCAK256 ORIGIN ADDRESS CALLDATALOAD 0x2E CALLDATACOPY CALLDATACOPY CODECOPY ADDRESS CODECOPY ORIGIN CALLDATALOAD CALLDATASIZE CALLDATALOAD CALLDATASIZE CODECOPY CALLER BALANCE CALLER KECCAK256 GAS 0x22 KECCAK256 PUSH7 0x696C6C3D22626C PUSH2 0x636B 0x22 KECCAK256 PUSH20 0x74726F6B653D22626C61636B22207374726F6B65 0x2D PUSH24 0x696474683D2231222F3E0A3C7061746820643D224D203535 CODESIZE 0x2E CALLVALUE CALLVALUE CALLDATALOAD CALLDATALOAD CALLVALUE CODESIZE CALLER CALLDATASIZE ADDRESS CALLDATACOPY BALANCE CALLER CODECOPY KECCAK256 CALLER CALLDATALOAD CODESIZE 0x2E CODESIZE CODESIZE CODECOPY CALLDATALOAD CALLVALUE CALLDATASIZE ORIGIN CODESIZE ORIGIN CODESIZE CALLVALUE CALLDATASIZE CALLDATASIZE KECCAK256 COINBASE KECCAK256 BALANCE CALLDATASIZE ADDRESS KECCAK256 BALANCE CALLDATASIZE ADDRESS KECCAK256 ADDRESS KECCAK256 ADDRESS KECCAK256 BALANCE KECCAK256 CALLDATALOAD CALLDATACOPY CALLER 0x2E ORIGIN ORIGIN CODECOPY CALLER CALLVALUE CODECOPY BALANCE CALLDATACOPY CODESIZE CALLVALUE BALANCE CALLVALUE CALLVALUE KECCAK256 CALLER CALLDATASIZE CALLVALUE 0x2E BALANCE CALLDATACOPY CODECOPY ORIGIN CALLDATACOPY CALLVALUE CALLDATACOPY CODECOPY CODESIZE BALANCE CODECOPY CALLVALUE BALANCE KECCAK256 0x4C KECCAK256 CALLDATASIZE ADDRESS CALLER 0x2E CODESIZE CALLVALUE CALLVALUE ADDRESS ORIGIN CALLER CALLDATACOPY CALLDATASIZE CALLDATACOPY CALLDATASIZE ORIGIN BALANCE CALLDATASIZE KECCAK256 ORIGIN CODECOPY ADDRESS 0x2E ORIGIN CALLDATASIZE CODESIZE CODECOPY BALANCE ORIGIN BALANCE CODECOPY CALLDATACOPY ORIGIN CODECOPY BALANCE ORIGIN KECCAK256 COINBASE KECCAK256 ORIGIN CALLVALUE ADDRESS KECCAK256 ORIGIN CALLVALUE ADDRESS KECCAK256 ADDRESS KECCAK256 ADDRESS KECCAK256 ADDRESS KECCAK256 CALLDATALOAD CODESIZE BALANCE 0x2E CALLDATASIZE CALLDATASIZE CODESIZE CALLER ORIGIN ORIGIN CALLDATALOAD CALLVALUE BALANCE ADDRESS CALLDATACOPY ADDRESS CODECOPY KECCAK256 ORIGIN CODESIZE ORIGIN 0x2E CALLER CALLER CALLVALUE CALLER BALANCE CODECOPY CALLVALUE ORIGIN CALLVALUE ORIGIN CALLDATASIZE CODECOPY CODECOPY KECCAK256 GAS 0x22 KECCAK256 PUSH7 0x696C6C3D22626C PUSH2 0x636B 0x22 KECCAK256 PUSH20 0x74726F6B653D22626C61636B22207374726F6B65 0x2D PUSH24 0x696474683D2231222F3E0A3C7061746820643D224D203636 CALLDATALOAD 0x2E ADDRESS CALLDATACOPY CALLER CALLER CALLDATACOPY ORIGIN CODECOPY CALLVALUE CALLDATASIZE ADDRESS CALLER CALLDATASIZE KECCAK256 BALANCE CALLVALUE ORIGIN 0x2E CALLVALUE CALLVALUE CODESIZE BALANCE CODESIZE CALLDATASIZE CODECOPY CODECOPY CALLDATALOAD CALLVALUE CODESIZE CALLDATALOAD CALLER KECCAK256 COINBASE KECCAK256 CALLVALUE ADDRESS ADDRESS KECCAK256 CALLVALUE ADDRESS ADDRESS KECCAK256 ADDRESS KECCAK256 ADDRESS KECCAK256 BALANCE KECCAK256 CALLDATACOPY ADDRESS ADDRESS 0x2E CALLDATALOAD CALLDATALOAD CODESIZE CALLDATASIZE CODECOPY CALLVALUE CALLDATACOPY CALLER ADDRESS CALLER CODECOPY CODECOPY BALANCE KECCAK256 BALANCE CALLDATALOAD CODECOPY 0x2E ORIGIN CALLER BALANCE CALLVALUE CODECOPY CALLVALUE ORIGIN CALLDATASIZE ADDRESS CALLDATASIZE CALLDATALOAD CODESIZE KECCAK256 0x4C KECCAK256 CALLDATACOPY CALLER CODESIZE 0x2E ORIGIN CALLDATACOPY ADDRESS CALLVALUE CALLER CALLER CALLDATASIZE CALLDATACOPY CALLDATASIZE CALLVALUE CALLDATACOPY CODESIZE CODECOPY KECCAK256 CODESIZE CODESIZE 0x2E CALLDATASIZE CALLDATACOPY CALLDATACOPY CALLDATACOPY CODECOPY CALLER BALANCE BALANCE ORIGIN CALLDATACOPY CODESIZE CODECOPY CALLDATASIZE CALLER KECCAK256 COINBASE KECCAK256 CALLVALUE CODESIZE ADDRESS KECCAK256 CALLVALUE CODESIZE ADDRESS KECCAK256 ADDRESS KECCAK256 ADDRESS KECCAK256 ADDRESS KECCAK256 CALLDATASIZE CODECOPY CALLDATALOAD 0x2E CALLDATASIZE CODESIZE CODESIZE ADDRESS CALLVALUE CALLDATACOPY CALLDATALOAD CALLER CALLDATALOAD ORIGIN CALLVALUE CALLER ORIGIN KECCAK256 CALLDATASIZE CODESIZE 0x2E CALLDATALOAD CALLER CALLDATACOPY CODESIZE ORIGIN CALLVALUE CALLER CODECOPY CALLVALUE CALLDATALOAD CODESIZE ORIGIN CALLER CALLVALUE KECCAK256 GAS 0x22 KECCAK256 PUSH7 0x696C6C3D22626C PUSH2 0x636B 0x22 KECCAK256 PUSH20 0x74726F6B653D22626C61636B22207374726F6B65 0x2D PUSH24 0x696474683D2231222F3E0A3C7061746820643D224D203633 CALLVALUE 0x2E CALLVALUE CALLDATALOAD CODESIZE CALLDATASIZE CODECOPY CODESIZE CALLER CALLDATALOAD CALLDATASIZE CODESIZE ORIGIN CODESIZE CODESIZE KECCAK256 ORIGIN BALANCE CALLDATASIZE 0x2E CALLER CALLDATALOAD CODESIZE CALLDATALOAD CALLVALUE CODECOPY CALLDATALOAD CODECOPY CALLDATASIZE CALLER CODESIZE CODESIZE ORIGIN CALLER KECCAK256 COINBASE KECCAK256 CALLER ORIGIN ADDRESS KECCAK256 CALLER ORIGIN ADDRESS KECCAK256 ADDRESS KECCAK256 ADDRESS KECCAK256 BALANCE KECCAK256 CALLDATASIZE CALLDATASIZE ORIGIN 0x2E CODESIZE CALLVALUE CALLDATASIZE CODECOPY CALLDATALOAD CALLDATALOAD CALLDATACOPY CODESIZE CALLVALUE CALLER BALANCE CODECOPY CALLER KECCAK256 ORIGIN ORIGIN CODECOPY 0x2E CALLDATACOPY CODESIZE CALLDATALOAD BALANCE CODECOPY CALLDATALOAD CALLVALUE ADDRESS CODESIZE CALLDATALOAD ORIGIN CALLDATASIZE CALLVALUE ORIGIN KECCAK256 0x4C KECCAK256 CALLDATACOPY ADDRESS ADDRESS 0x2E CALLDATALOAD CALLDATALOAD CODESIZE CALLDATASIZE CODECOPY CALLVALUE CALLDATACOPY CALLER ADDRESS CALLER CODECOPY CODECOPY BALANCE KECCAK256 BALANCE CALLDATALOAD CODECOPY 0x2E ORIGIN CALLER BALANCE CALLVALUE CODECOPY CALLVALUE ORIGIN CALLDATASIZE ADDRESS CALLDATASIZE CALLDATALOAD CODESIZE KECCAK256 COINBASE KECCAK256 CALLVALUE ADDRESS ADDRESS KECCAK256 CALLVALUE ADDRESS ADDRESS KECCAK256 ADDRESS KECCAK256 ADDRESS KECCAK256 ADDRESS KECCAK256 CALLDATASIZE CALLDATASIZE CALLDATALOAD 0x2E ADDRESS CALLDATACOPY CALLER CALLER CALLDATACOPY ORIGIN CODECOPY CALLVALUE CALLDATASIZE ADDRESS CALLER CALLDATASIZE KECCAK256 BALANCE CALLVALUE ORIGIN 0x2E CALLVALUE CALLVALUE CODESIZE BALANCE CODESIZE CALLDATASIZE CODECOPY CODECOPY CALLDATALOAD CALLVALUE CODESIZE CALLDATALOAD CALLER KECCAK256 GAS 0x22 KECCAK256 PUSH7 0x696C6C3D22626C PUSH2 0x636B 0x22 KECCAK256 PUSH20 0x74726F6B653D22626C61636B22207374726F6B65 0x2D PUSH24 0x696474683D2231222F3E0A3C7061746820643D224D203630 CALLER 0x2E CODESIZE CALLVALUE CALLVALUE ADDRESS ORIGIN CALLER CALLDATACOPY CALLDATASIZE CALLDATACOPY CALLDATASIZE ORIGIN BALANCE CALLDATASIZE KECCAK256 ORIGIN CODECOPY ADDRESS 0x2E ORIGIN CALLDATASIZE CODESIZE CODECOPY BALANCE ORIGIN BALANCE CODECOPY CALLDATACOPY ORIGIN CODECOPY BALANCE ORIGIN KECCAK256 COINBASE KECCAK256 ORIGIN CALLVALUE ADDRESS KECCAK256 ORIGIN CALLVALUE ADDRESS KECCAK256 ADDRESS KECCAK256 ADDRESS KECCAK256 BALANCE KECCAK256 CALLDATASIZE ORIGIN CALLDATALOAD 0x2E BALANCE CALLER CALLDATALOAD ORIGIN BALANCE CALLDATASIZE CODESIZE CALLER CODESIZE ORIGIN CALLER CODECOPY CALLVALUE KECCAK256 CALLER ADDRESS ADDRESS 0x2E CALLER CALLER CODESIZE CODESIZE CODECOPY CALLDATASIZE CALLDATALOAD CALLDATALOAD CALLDATASIZE CALLER CODECOPY CALLVALUE CODESIZE CALLVALUE KECCAK256 0x4C KECCAK256 CALLDATASIZE CALLDATASIZE ORIGIN 0x2E CODESIZE CALLVALUE CALLDATASIZE CODECOPY CALLDATALOAD CALLDATALOAD CALLDATACOPY CODESIZE CALLVALUE CALLER BALANCE CODECOPY CALLER KECCAK256 ORIGIN ORIGIN CODECOPY 0x2E CALLDATACOPY CODESIZE CALLDATALOAD BALANCE CODECOPY CALLDATALOAD CALLVALUE ADDRESS CODESIZE CALLDATALOAD ORIGIN CALLDATASIZE CALLVALUE ORIGIN KECCAK256 COINBASE KECCAK256 CALLER ORIGIN ADDRESS KECCAK256 CALLER ORIGIN ADDRESS KECCAK256 ADDRESS KECCAK256 ADDRESS KECCAK256 ADDRESS KECCAK256 CALLDATASIZE CALLER CALLVALUE 0x2E CALLVALUE CALLDATALOAD CODESIZE CALLDATASIZE CODECOPY CODESIZE CALLER CALLDATALOAD CALLDATASIZE CODESIZE ORIGIN CODESIZE CODESIZE KECCAK256 ORIGIN BALANCE CALLDATASIZE 0x2E CALLER CALLDATALOAD CODESIZE CALLDATALOAD CALLVALUE CODECOPY CALLDATALOAD CODECOPY CALLDATASIZE CALLER CODESIZE CODESIZE ORIGIN CALLER KECCAK256 GAS 0x22 KECCAK256 PUSH7 0x696C6C3D22626C PUSH2 0x636B 0x22 KECCAK256 PUSH20 0x74726F6B653D22626C61636B22207374726F6B65 0x2D PUSH24 0x696474683D2231222F3E0A3C7061746820643D224D203537 CALLER 0x2E ORIGIN ORIGIN CODECOPY CALLER CALLVALUE CODECOPY BALANCE CALLDATACOPY CODESIZE CALLVALUE BALANCE CALLVALUE CALLVALUE KECCAK256 CALLER CALLDATASIZE CALLVALUE 0x2E BALANCE CALLDATACOPY CODECOPY ORIGIN CALLDATACOPY CALLVALUE CALLDATACOPY CODECOPY CODESIZE BALANCE CODECOPY CALLVALUE BALANCE KECCAK256 COINBASE KECCAK256 BALANCE CALLDATASIZE ADDRESS KECCAK256 BALANCE CALLDATASIZE ADDRESS KECCAK256 ADDRESS KECCAK256 ADDRESS KECCAK256 BALANCE KECCAK256 CALLDATALOAD CODESIZE CALLDATACOPY 0x2E CALLVALUE ORIGIN CALLER CALLVALUE CALLDATACOPY CALLDATACOPY CODESIZE CODECOPY ORIGIN BALANCE CALLDATALOAD CODECOPY CALLDATACOPY KECCAK256 CALLER CALLDATACOPY ADDRESS 0x2E CODESIZE CODECOPY ORIGIN CALLDATALOAD CODECOPY CALLDATACOPY CALLDATACOPY ADDRESS CALLVALUE ORIGIN CALLDATASIZE CALLER ORIGIN KECCAK256 0x4C KECCAK256 CALLDATASIZE ORIGIN CALLDATALOAD 0x2E BALANCE CALLER CALLDATALOAD ORIGIN BALANCE CALLDATASIZE CODESIZE CALLER CODESIZE ORIGIN CALLER CODECOPY CALLVALUE KECCAK256 CALLER ADDRESS ADDRESS 0x2E CALLER CALLER CODESIZE CODESIZE CODECOPY CALLDATASIZE CALLDATALOAD CALLDATALOAD CALLDATASIZE CALLER CODECOPY CALLVALUE CODESIZE CALLVALUE KECCAK256 COINBASE KECCAK256 ORIGIN CALLVALUE ADDRESS KECCAK256 ORIGIN CALLVALUE ADDRESS KECCAK256 ADDRESS KECCAK256 ADDRESS KECCAK256 ADDRESS KECCAK256 CALLDATASIZE ADDRESS CALLER 0x2E CODESIZE CALLVALUE CALLVALUE ADDRESS ORIGIN CALLER CALLDATACOPY CALLDATASIZE CALLDATACOPY CALLDATASIZE ORIGIN BALANCE CALLDATASIZE KECCAK256 ORIGIN CODECOPY ADDRESS 0x2E ORIGIN CALLDATASIZE CODESIZE CODECOPY BALANCE ORIGIN BALANCE CODECOPY CALLDATACOPY ORIGIN CODECOPY BALANCE ORIGIN KECCAK256 GAS 0x22 KECCAK256 PUSH7 0x696C6C3D22626C PUSH2 0x636B 0x22 KECCAK256 PUSH20 0x74726F6B653D22626C61636B22207374726F6B65 0x2D PUSH24 0x696474683D2231222F3E0A3C7061746820643D224D203730 ADDRESS 0x2E CALLDATALOAD CALLDATALOAD CODESIZE CALLDATASIZE CODECOPY CALLVALUE CALLDATACOPY CALLER ADDRESS CALLER CODECOPY CODECOPY BALANCE KECCAK256 BALANCE CALLDATALOAD CODECOPY 0x2E ORIGIN CALLER BALANCE CALLVALUE CODECOPY CALLVALUE ORIGIN CALLDATASIZE ADDRESS CALLDATASIZE CALLDATALOAD CODESIZE KECCAK256 COINBASE KECCAK256 CALLVALUE ADDRESS ADDRESS KECCAK256 CALLVALUE ADDRESS ADDRESS KECCAK256 ADDRESS KECCAK256 ADDRESS KECCAK256 BALANCE KECCAK256 CALLDATACOPY CALLER CALLVALUE 0x2E ORIGIN ORIGIN CODESIZE ADDRESS CODECOPY CALLER ORIGIN ADDRESS CALLDATACOPY CODESIZE CALLVALUE BALANCE KECCAK256 BALANCE CALLDATACOPY CODECOPY 0x2E CALLVALUE BALANCE ORIGIN BALANCE CALLDATALOAD CALLDATALOAD ADDRESS CALLDATACOPY CODESIZE CODECOPY CODESIZE BALANCE CODECOPY CALLER KECCAK256 0x4C KECCAK256 CALLDATACOPY CALLDATACOPY CODESIZE 0x2E CALLDATASIZE CALLDATACOPY CALLER CALLDATACOPY BALANCE BALANCE CODESIZE CALLVALUE CODECOPY CALLVALUE ADDRESS CODECOPY BALANCE KECCAK256 BALANCE BALANCE ORIGIN 0x2E CODESIZE CODECOPY CALLVALUE CALLDATALOAD CODESIZE CALLDATASIZE ADDRESS CODECOPY CALLVALUE CALLDATACOPY CALLDATACOPY CODESIZE CALLER CALLER KECCAK256 COINBASE KECCAK256 CALLVALUE CODESIZE ADDRESS KECCAK256 CALLVALUE CODESIZE ADDRESS KECCAK256 ADDRESS KECCAK256 ADDRESS KECCAK256 ADDRESS KECCAK256 CALLDATACOPY CALLER CODESIZE 0x2E ORIGIN CALLDATACOPY ADDRESS CALLVALUE CALLER CALLER CALLDATASIZE CALLDATACOPY CALLDATASIZE CALLVALUE CALLDATACOPY CODESIZE CODECOPY KECCAK256 CODESIZE CODESIZE 0x2E CALLDATASIZE CALLDATACOPY CALLDATACOPY CALLDATACOPY CODECOPY CALLER BALANCE BALANCE ORIGIN CALLDATACOPY CODESIZE CODECOPY CALLDATASIZE CALLER KECCAK256 GAS 0x22 KECCAK256 PUSH7 0x696C6C3D22626C PUSH2 0x636B 0x22 KECCAK256 PUSH20 0x74726F6B653D22626C61636B22207374726F6B65 0x2D PUSH24 0x696474683D2231222F3E0A3C7061746820643D224D203636 ORIGIN 0x2E CODESIZE CALLVALUE CALLDATASIZE CODECOPY CALLDATALOAD CALLDATALOAD CALLDATACOPY CODESIZE CALLVALUE CALLER BALANCE CODECOPY CALLER KECCAK256 ORIGIN ORIGIN CODECOPY 0x2E CALLDATACOPY CODESIZE CALLDATALOAD BALANCE CODECOPY CALLDATALOAD CALLVALUE ADDRESS CODESIZE CALLDATALOAD ORIGIN CALLDATASIZE CALLVALUE ORIGIN KECCAK256 COINBASE KECCAK256 CALLER ORIGIN ADDRESS KECCAK256 CALLER ORIGIN ADDRESS KECCAK256 ADDRESS KECCAK256 ADDRESS KECCAK256 BALANCE KECCAK256 CALLDATASIZE CODESIZE CODECOPY 0x2E CALLDATACOPY CODESIZE ORIGIN CALLVALUE CALLDATACOPY CALLVALUE CALLDATALOAD CALLDATASIZE CALLDATASIZE ORIGIN CALLDATACOPY ORIGIN CODESIZE KECCAK256 ORIGIN CALLVALUE CALLDATALOAD 0x2E CODECOPY ORIGIN CODECOPY CALLDATACOPY ORIGIN CALLVALUE ADDRESS CALLDATASIZE CALLER BALANCE CODESIZE CALLDATALOAD CALLDATALOAD CALLDATACOPY KECCAK256 0x4C KECCAK256 CALLDATACOPY CALLER CALLVALUE 0x2E ORIGIN ORIGIN CODESIZE ADDRESS CODECOPY CALLER ORIGIN ADDRESS CALLDATACOPY CODESIZE CALLVALUE BALANCE KECCAK256 BALANCE CALLDATACOPY CODECOPY 0x2E CALLVALUE BALANCE ORIGIN BALANCE CALLDATALOAD CALLDATALOAD ADDRESS CALLDATACOPY CODESIZE CODECOPY CODESIZE BALANCE CODECOPY CALLER KECCAK256 COINBASE KECCAK256 CALLVALUE ADDRESS ADDRESS KECCAK256 CALLVALUE ADDRESS ADDRESS KECCAK256 ADDRESS KECCAK256 ADDRESS KECCAK256 ADDRESS KECCAK256 CALLDATACOPY ADDRESS ADDRESS 0x2E CALLDATALOAD CALLDATALOAD CODESIZE CALLDATASIZE CODECOPY CALLVALUE CALLDATACOPY CALLER ADDRESS CALLER CODECOPY CODECOPY BALANCE KECCAK256 BALANCE CALLDATALOAD CODECOPY 0x2E ORIGIN CALLER BALANCE CALLVALUE CODECOPY CALLVALUE ORIGIN CALLDATASIZE ADDRESS CALLDATASIZE CALLDATALOAD CODESIZE KECCAK256 GAS 0x22 KECCAK256 PUSH7 0x696C6C3D22626C PUSH2 0x636B 0x22 KECCAK256 PUSH20 0x74726F6B653D22626C61636B22207374726F6B65 0x2D PUSH24 0x696474683D2231222F3E0A3C7061746820643D224D203632 CALLDATALOAD 0x2E BALANCE CALLER CALLDATALOAD ORIGIN BALANCE CALLDATASIZE CODESIZE CALLER CODESIZE ORIGIN CALLER CODECOPY CALLVALUE KECCAK256 CALLER ADDRESS ADDRESS 0x2E CALLER CALLER CODESIZE CODESIZE CODECOPY CALLDATASIZE CALLDATALOAD CALLDATALOAD CALLDATASIZE CALLER CODECOPY CALLVALUE CODESIZE CALLVALUE KECCAK256 COINBASE KECCAK256 ORIGIN CALLVALUE ADDRESS KECCAK256 ORIGIN CALLVALUE ADDRESS KECCAK256 ADDRESS KECCAK256 ADDRESS KECCAK256 BALANCE KECCAK256 CALLDATASIZE CALLVALUE CALLDATALOAD 0x2E CALLER CALLER CALLDATASIZE CODESIZE CALLDATALOAD CALLDATALOAD CODECOPY ORIGIN CALLVALUE CALLDATACOPY ADDRESS CALLVALUE CALLDATALOAD KECCAK256 CALLER BALANCE ORIGIN 0x2E CALLVALUE CALLVALUE CALLDATACOPY ORIGIN CODECOPY CALLER ADDRESS CALLVALUE CALLDATACOPY CALLER CODESIZE CODECOPY BALANCE CALLDATACOPY KECCAK256 0x4C KECCAK256 CALLDATASIZE CODESIZE CODECOPY 0x2E CALLDATACOPY CODESIZE ORIGIN CALLVALUE CALLDATACOPY CALLVALUE CALLDATALOAD CALLDATASIZE CALLDATASIZE ORIGIN CALLDATACOPY ORIGIN CODESIZE KECCAK256 ORIGIN CALLVALUE CALLDATALOAD 0x2E CODECOPY ORIGIN CODECOPY CALLDATACOPY ORIGIN CALLVALUE ADDRESS CALLDATASIZE CALLER BALANCE "
		},
		"gasEstimates": {
			"creation": {
				"codeDepositCost": "66600",
				"executionCost": "infinite",
				"totalCost": "infinite"
			},
			"external": {
				"getChunk()": "infinite",
				"svgChunk1()": "infinite"
			}
		},
		"methodIdentifiers": {
			"getChunk()": "f5668524",
			"svgChunk1()": "183dda73"
		}
	},
	"abi": [
		{
			"inputs": [],
			"stateMutability": "nonpayable",
			"type": "constructor"
		},
		{
			"inputs": [],
			"name": "WriteError",
			"type": "error"
		},
		{
			"inputs": [],
			"name": "getChunk",
			"outputs": [
				{
					"internalType": "address",
					"name": "",
					"type": "address"
				}
			],
			"stateMutability": "view",
			"type": "function"
		},
		{
			"inputs": [],
			"name": "svgChunk1",
			"outputs": [
				{
					"internalType": "address",
					"name": "",
					"type": "address"
				}
			],
			"stateMutability": "view",
			"type": "function"
		}
	]
}