{
	"data": {
		"bytecode": {
			"linkReferences": {},
			"object": "60a060405234801561000f575f80fd5b5061003a6040518061eb60016040528061eb28815260200161067061eb28913961007260201b60201c565b73ffffffffffffffffffffffffffffffffffffffff1660808173ffffffffffffffffffffffffffffffffffffffff1681525050610300565b5f806100a28360405160200161008891906101cb565b60405160208183030381529060405261011960201b60201c565b90508051602082015ff091505f73ffffffffffffffffffffffffffffffffffffffff168273ffffffffffffffffffffffffffffffffffffffff1603610113576040517f08d4abb600000000000000000000000000000000000000000000000000000000815260040160405180910390fd5b50919050565b606081518260405160200161012f9291906102c3565b6040516020818303038152906040529050919050565b5f81905092915050565b5f8082015250565b5f610163600183610145565b915061016e8261014f565b600182019050919050565b5f81519050919050565b5f81905092915050565b8281835e5f83830152505050565b5f6101a582610179565b6101af8185610183565b93506101bf81856020860161018d565b80840191505092915050565b5f6101d582610157565b91506101e1828461019b565b915081905092915050565b7f63000000000000000000000000000000000000000000000000000000000000005f82015250565b5f610220600183610145565b915061022b826101ec565b600182019050919050565b5f63ffffffff82169050919050565b5f8160e01b9050919050565b5f61025b82610245565b9050919050565b61027361026e82610236565b610251565b82525050565b7f80600e6000396000f300000000000000000000000000000000000000000000005f82015250565b5f6102ad600983610145565b91506102b882610279565b600982019050919050565b5f6102cd82610214565b91506102d98285610262565b6004820191506102e8826102a1565b91506102f4828461019b565b91508190509392505050565b60805161035361031d5f395f81816077015260a201526103535ff3fe608060405234801561000f575f80fd5b5060043610610034575f3560e01c8063c42cad2114610038578063d44baa6f14610056575b5f80fd5b610040610074565b60405161004d9190610227565b60405180910390f35b61005e61009b565b60405161006b91906102b0565b60405180910390f35b5f7f0000000000000000000000000000000000000000000000000000000000000000905090565b60606100c67f00000000000000000000000000000000000000000000000000000000000000006100cb565b905090565b60606100f98260017fffffffffffffffffffffffffffffffffffffffffffffffffffffffffffffffff610100565b9050919050565b60605f61010c856101de565b90505f810361012c5760405180602001604052805f8152509150506101d7565b8084111561014b5760405180602001604052805f8152509150506101d7565b83831015610194578084846040517f2c4a89fa00000000000000000000000000000000000000000000000000000000815260040161018b939291906102e8565b60405180910390fd5b5f84840390505f85830390505f8282106101ae57826101b0565b815b90506040519450601f19601f60208301011685016040528085528087602087018a3c505050505b9392505050565b5f813b9050919050565b5f73ffffffffffffffffffffffffffffffffffffffff82169050919050565b5f610211826101e8565b9050919050565b61022181610207565b82525050565b5f60208201905061023a5f830184610218565b92915050565b5f81519050919050565b5f82825260208201905092915050565b8281835e5f83830152505050565b5f601f19601f8301169050919050565b5f61028282610240565b61028c818561024a565b935061029c81856020860161025a565b6102a581610268565b840191505092915050565b5f6020820190508181035f8301526102c88184610278565b905092915050565b5f819050919050565b6102e2816102d0565b82525050565b5f6060820190506102fb5f8301866102d9565b61030860208301856102d9565b61031560408301846102d9565b94935050505056fea26469706673582212201debe16fed25a6d23a5eb47e077099cb368353f1d4744699783c44d1a780b29d64736f6c634300081a00333c737667207072657365727665417370656374526174696f3d22784d6964594d6964206d656574222076696577426f783d22302030203130323420313032342220786d6c6e733d22687474703a2f2f7777772e77332e6f72672f323030302f737667223e0a0a0a3c726563742066696c6c3d22626c61636b22206865696768743d2231303234222077696474683d22313032342220783d22302220793d2230222f3e0a3c7061746820643d224d203531322031313220412034303020343030203020302031203535312e32303638353631333138323433203131332e3932363130393333313132313237204c203535392e303438323237333538313839312033342e33313133333131393733343535312041203438302034383020302030203020353132203332205a222066696c6c3d22626c61636b22207374726f6b653d22626c61636b22207374726f6b652d77696474683d2231222f3e0a3c7061746820643d224d203531322031393220412033323020333230203020302031203534332e33363534383439303534353934203139332e3534303838373436343839373033204c203535312e32303638353631333138323433203131332e3932363130393333313132313237204120343030203430302030203020302035313220313132205a222066696c6c3d22626c61636b22207374726f6b653d22626c61636b22207374726f6b652d77696474683d2231222f3e0a3c7061746820643d224d203531322032373220412032343020323430203020302031203533352e35323431313336373930393436203237332e31353536363535393836373237204c203534332e33363534383439303534353934203139332e3534303838373436343839373033204120333230203332302030203020302035313220313932205a222066696c6c3d22626c61636b22207374726f6b653d22626c61636b22207374726f6b652d77696474683d2231222f3e0a3c7061746820643d224d203531322033353220412031363020313630203020302031203532372e36383237343234353237323937203335322e37373034343337333234343835204c203533352e35323431313336373930393436203237332e31353536363535393836373237204120323430203234302030203020302035313220323732205a222066696c6c3d22626c61636b22207374726f6b653d22626c61636b22207374726f6b652d77696474683d2231222f3e0a3c7061746820643d224d203535312e32303638353631333138323433203131332e393236313039333331313231323720412034303020343030203020302031203539302e30333631323838303634353134203131392e36383538383738333837303738204c203630352e363433333534353637373431372034312e323233303635343036343439333920412034383020343830203020302030203535392e303438323237333538313839312033342e3331313333313139373334353531205a222066696c6c3d22626c61636b22207374726f6b653d22626c61636b22207374726f6b652d77696474683d2231222f3e0a3c7061746820643d224d203534332e33363534383439303534353934203139332e353430383837343634383937303320412033323020333230203020302031203537342e34323839303330343531363132203139382e3134383731303237303936363236204c203539302e30333631323838303634353134203131392e3638353838373833383730373820412034303020343030203020302030203535312e32303638353631333138323433203131332e3932363130393333313132313237205a222066696c6c3d22626c61636b22207374726f6b653d22626c61636b22207374726f6b652d77696474683d2231222f3e0a3c7061746820643d224d203533352e35323431313336373930393436203237332e3135353636353539383637323720412032343020323430203020302031203535382e38323136373732383338373038203237362e36313135333237303332323437204c203537342e34323839303330343531363132203139382e313438373130323730393636323620412033323020333230203020302030203534332e33363534383439303534353934203139332e3534303838373436343839373033205a222066696c6c3d22626c61636b22207374726f6b653d22626c61636b22207374726f6b652d77696474683d2231222f3e0a3c7061746820643d224d203532372e36383237343234353237323937203335322e3737303434333733323434383520412031363020313630203020302031203534332e32313434353135323235383036203335352e3037343335353133353438333133204c203535382e38323136373732383338373038203237362e3631313533323730333232343720412032343020323430203020302030203533352e35323431313336373930393436203237332e31353536363535393836373237205a222066696c6c3d22626c61636b22207374726f6b653d22626c61636b22207374726f6b652d77696474683d2231222f3e0a3c7061746820643d224d203539302e30333631323838303634353133203131392e3638353838373833383730373820412034303020343030203020302031203632382e31313338373039303137383439203132392e3232333836353730373131363433204c203635312e333336363435303832313431392035322e363638363338383438353339373320412034383020343830203020302030203630352e363433333534353637373431352034312e3232333036353430363434393339205a222066696c6c3d22626c61636b22207374726f6b653d22626c61636b22207374726f6b652d77696474683d2231222f3e0a3c7061746820643d224d203537342e34323839303330343531363131203139382e313438373130323730393636323620412033323020333230203020302031203630342e383931303936373231343238203230352e3737393039323536353639333133204c203632382e31313338373039303137383439203132392e323233383635373037313136343320412034303020343030203020302030203539302e30333631323838303634353133203131392e36383538383738333837303738205a222066696c6c3d22626c61636b22207374726f6b653d22626c61636b22207374726f6b652d77696474683d2231222f3e0a3c7061746820643d224d203535382e38323136373732383338373038203237362e3631313533323730333232343720412032343020323430203020302031203538312e36363833323235343130373039203238322e33333433313934323432363939204c203630342e383931303936373231343238203230352e373739303932353635363933313320412033323020333230203020302030203537342e34323839303330343531363131203139382e3134383731303237303936363236205a222066696c6c3d22626c61636b22207374726f6b653d22626c61636b22207374726f6b652d77696474683d2231222f3e0a3c7061746820643d224d203534332e32313434353135323235383035203335352e303734333535313335343833313320412031363020313630203020302031203535382e34343535343833363037313339203335382e38383935343632383238343636204c203538312e36363833323235343130373039203238322e3333343331393432343236393920412032343020323430203020302030203535382e38323136373732383338373038203237362e36313135333237303332323437205a222066696c6c3d22626c61636b22207374726f6b653d22626c61636b22207374726f6b652d77696474683d2231222f3e0a3c7061746820643d224d203632382e31313338373039303137383439203132392e323233383635373037313136343320412034303020343030203020302031203636352e303733333732393436303336203134322e34343831383639393534383533204c203639352e363838303437353335323433322036382e353337383234333934353832333420412034383020343830203020302030203635312e333336363435303832313431392035322e3636383633383834383533393733205a222066696c6c3d22626c61636b22207374726f6b653d22626c61636b22207374726f6b652d77696474683d2231222f3e0a3c7061746820643d224d203630342e383931303936373231343238203230352e373739303932353635363933313320412033323020333230203020302031203633342e34353836393833353638323838203231362e3335383534393539363338383233204c203636352e303733333732393436303336203134322e3434383138363939353438353320412034303020343030203020302030203632382e31313338373039303137383439203132392e3232333836353730373131363433205a222066696c6c3d22626c61636b22207374726f6b653d22626c61636b22207374726f6b652d77696474683d2231222f3e0a3c7061746820643d224d203538312e36363833323235343130373039203238322e3333343331393432343236393920412032343020323430203020302031203630332e38343430323337363736323136203239302e32363839313231393732393132204c203633342e34353836393833353638323838203231362e333538353439353936333838323320412033323020333230203020302030203630342e383931303936373231343238203230352e3737393039323536353639333133205a222066696c6c3d22626c61636b22207374726f6b653d22626c61636b22207374726f6b652d77696474683d2231222f3e0a3c7061746820643d224d203535382e34343535343833363037313339203335382e3838393534363238323834363620412031363020313630203020302031203537332e32323933343931373834313434203336342e31373932373437393831393431204c203630332e38343430323337363736323136203239302e3236383931323139373239313220412032343020323430203020302030203538312e36363833323235343130373039203238322e33333433313934323432363939205a222066696c6c3d22626c61636b22207374726f6b653d22626c61636b22207374726f6b652d77696474683d2231222f3e0a3c7061746820643d224d203636352e303733333732393436303336203134322e3434383138363939353438353320412034303020343030203020302031203730302e35353836393437333033393931203135392e323331343934323630363538204c203733382e323730343333363736343738392038382e363737373933313132373839363320412034383020343830203020302030203639352e363838303437353335323433322036382e3533373832343339343538323334205a222066696c6c3d22626c61636b22207374726f6b653d22626c61636b22207374726f6b652d77696474683d2231222f3e0a3c7061746820643d224d203633342e34353836393833353638323838203231362e333538353439353936333838323320412033323020333230203020302031203636322e38343639353537383433313933203232392e3738353139353430383532363432204c203730302e35353836393437333033393931203135392e32333134393432363036353820412034303020343030203020302030203636352e303733333732393436303336203134322e34343831383639393534383533205a222066696c6c3d22626c61636b22207374726f6b653d22626c61636b22207374726f6b652d77696474683d2231222f3e0a3c7061746820643d224d203630332e38343430323337363736323136203239302e3236383931323139373239313220412032343020323430203020302031203632352e31333532313638333832333934203330302e3333383839363535363339343834204c203636322e38343639353537383433313933203232392e373835313935343038353236343220412033323020333230203020302030203633342e34353836393833353638323838203231362e3335383534393539363338383233205a222066696c6c3d22626c61636b22207374726f6b653d22626c61636b22207374726f6b652d77696474683d2231222f3e0a3c7061746820643d224d203537332e32323933343931373834313434203336342e3137393237343739383139343120412031363020313630203020302031203538372e34323334373738393231353937203337302e38393235393737303432363332204c203632352e31333532313638333832333934203330302e333338383936353536333934383420412032343020323430203020302030203630332e38343430323337363736323136203239302e32363839313231393732393132205a222066696c6c3d22626c61636b22207374726f6b653d22626c61636b22207374726f6b652d77696474683d2231222f3e0a3c7061746820643d224d203730302e35353836393437333033393931203135392e32333134393432363036353820412034303020343030203020302031203733342e323238303933323037383431203137392e3431323135353037383938313933204c203737382e36373337313138343934303931203131322e383934353836303934373738333320412034383020343830203020302030203733382e323730343333363736343738392038382e3637373739333131323738393633205a222066696c6c3d22626c61636b22207374726f6b653d22626c61636b22207374726f6b652d77696474683d2231222f3e0a3c7061746820643d224d203636322e38343639353537383433313933203232392e373835313935343038353236343220412033323020333230203020302031203638392e37383234373435363632373238203234352e3932393732343036333138353537204c203733342e323238303933323037383431203137392e343132313535303738393831393320412034303020343030203020302030203730302e35353836393437333033393931203135392e323331343934323630363538205a222066696c6c3d22626c61636b22207374726f6b653d22626c61636b22207374726f6b652d77696474683d2231222f3e0a3c7061746820643d224d203632352e31333532313638333832333934203330302e333338383936353536333934383420412032343020323430203020302031203634352e33333638353539323437303435203331322e3434373239333034373338393137204c203638392e37383234373435363632373238203234352e393239373234303633313835353720412033323020333230203020302030203636322e38343639353537383433313933203232392e3738353139353430383532363432205a222066696c6c3d22626c61636b22207374726f6b653d22626c61636b22207374726f6b652d77696474683d2231222f3e0a3c7061746820643d224d203538372e34323334373738393231353937203337302e3839323539373730343236333220412031363020313630203020302031203630302e38393132333732383331333634203337382e39363438363230333135393238204c203634352e33333638353539323437303435203331322e343437323933303437333839313720412032343020323430203020302030203632352e31333532313638333832333934203330302e3333383839363535363339343834205a222066696c6c3d22626c61636b22207374726f6b653d22626c61636b22207374726f6b652d77696474683d2231222f3e0a3c7061746820643d224d203733342e32323830393332303738343039203137392e343132313535303738393831393320412034303020343030203020302031203736352e37353733313336363534353832203230322e3739353831383635343930353235204c203831362e35303837373633393835343939203134302e3935343938323338353838363320412034383020343830203020302030203737382e36373337313138343934303931203131322e3839343538363039343737383333205a222066696c6c3d22626c61636b22207374726f6b653d22626c61636b22207374726f6b652d77696474683d2231222f3e0a3c7061746820643d224d203638392e37383234373435363632373238203234352e393239373234303633313835353720412033323020333230203020302031203731352e30303538353039333233363636203236342e36333636353439323339323432204c203736352e37353733313336363534353832203230322e373935383138363534393035323520412034303020343030203020302030203733342e32323830393332303738343039203137392e3431323135353037383938313933205a222066696c6c3d22626c61636b22207374726f6b653d22626c61636b22207374726f6b652d77696474683d2231222f3e0a3c7061746820643d224d203634352e33333638353539323437303435203331322e343437323933303437333839313720412032343020323430203020302031203636342e32353433383831393932373439203332362e3437373439313139323934333135204c203731352e30303538353039333233363636203236342e3633363635343932333932343220412033323020333230203020302030203638392e37383234373435363632373238203234352e3932393732343036333138353537205a222066696c6c3d22626c61636b22207374726f6b653d22626c61636b22207374726f6b652d77696474683d2231222f3e0a3c7061746820643d224d203630302e38393132333732383331333633203337382e3936343836323033313539323820412031363020313630203020302031203631332e35303239323534363631383333203338382e33313833323734363139363231204c203636342e32353433383831393932373439203332362e343737343931313932393433313520412032343020323430203020302030203634352e33333638353539323437303435203331322e3434373239333034373338393137205a222066696c6c3d22626c61636b22207374726f6b653d22626c61636b22207374726f6b652d77696474683d2231222f3e0a3c7061746820643d224d203736352e37353733313336363534353832203230322e373935383138363534393035323520412034303020343030203020302031203739342e383432373132343734363139203232392e3135373238373532353338313034204c203835312e34313132353439363935343238203137322e353838373435303330343537323320412034383020343830203020302030203831362e35303837373633393835343939203134302e39353439383233383538383633205a222066696c6c3d22626c61636b22207374726f6b653d22626c61636b22207374726f6b652d77696474683d2231222f3e0a3c7061746820643d224d203731352e30303538353039333233363636203236342e3633363635343932333932343220412033323020333230203020302031203733382e32373431363939373936393532203238352e37323538333030323033303438204c203739342e383432373132343734363139203232392e313537323837353235333831303420412034303020343030203020302030203736352e37353733313336363534353832203230322e3739353831383635343930353235205a222066696c6c3d22626c61636b22207374726f6b653d22626c61636b22207374726f6b652d77696474683d2231222f3e0a3c7061746820643d224d203636342e32353433383831393932373439203332362e343737343931313932393433313520412032343020323430203020302031203638312e37303536323734383437373134203334322e32393433373235313532323836204c203733382e32373431363939373936393532203238352e3732353833303032303330343820412033323020333230203020302030203731352e30303538353039333233363636203236342e36333636353439323339323432205a222066696c6c3d22626c61636b22207374726f6b653d22626c61636b22207374726f6b652d77696474683d2231222f3e0a3c7061746820643d224d203631332e35303239323534363631383333203338382e3331383332373436313936323120412031363020313630203020302031203632352e31333730383439383938343736203339382e38363239313530313031353234204c203638312e37303536323734383437373134203334322e3239343337323531353232383620412032343020323430203020302030203636342e32353433383831393932373439203332362e3437373439313139323934333135205a222066696c6c3d22626c61636b22207374726f6b653d22626c61636b22207374726f6b652d77696474683d2231222f3e0a3c7061746820643d224d203739342e383432373132343734363139203232392e313537323837353235333831303420412034303020343030203020302031203832312e32303431383133343530393439203235382e32343236383633333435343138204c203838332e30343530313736313431313337203230372e343931323233363031343530313420412034383020343830203020302030203835312e34313132353439363935343238203137322e3538383734353033303435373233205a222066696c6c3d22626c61636b22207374726f6b653d22626c61636b22207374726f6b652d77696474683d2231222f3e0a3c7061746820643d224d203733382e32373431363939373936393532203238352e3732353833303032303330343820412033323020333230203020302031203735392e33363333343530373630373538203330382e3939343134393036373633333433204c203832312e32303431383133343530393439203235382e3234323638363333343534313820412034303020343030203020302030203739342e383432373132343734363139203232392e3135373238373532353338313034205a222066696c6c3d22626c61636b22207374726f6b653d22626c61636b22207374726f6b652d77696474683d2231222f3e0a3c7061746820643d224d203638312e37303536323734383437373134203334322e3239343337323531353232383620412032343020323430203020302031203639372e35323235303838303730353639203335392e37343536313138303037323531204c203735392e33363333343530373630373538203330382e393934313439303637363333343320412033323020333230203020302030203733382e32373431363939373936393532203238352e37323538333030323033303438205a222066696c6c3d22626c61636b22207374726f6b653d22626c61636b22207374726f6b652d77696474683d2231222f3e0a3c7061746820643d224d203632352e31333730383439383938343736203339382e3836323931353031303135323420412031363020313630203020302031203633352e36383136373235333830333739203431302e34393730373435333338313637204c203639372e35323235303838303730353639203335392e3734353631313830303732353120412032343020323430203020302030203638312e37303536323734383437373134203334322e32393433373235313532323836205a222066696c6c3d22626c61636b22207374726f6b653d22626c61636b22207374726f6b652d77696474683d2231222f3e0a3c7061746820643d224d203832312e32303431383133343530393439203235382e3234323638363333343534313820412034303020343030203020302031203834342e35383738343439323130313831203238392e3737313930363739323135393134204c203931312e31303534313339303532323137203234352e333236323838313530353930393320412034383020343830203020302030203838332e30343530313736313431313337203230372e3439313232333630313435303134205a222066696c6c3d22626c61636b22207374726f6b653d22626c61636b22207374726f6b652d77696474683d2231222f3e0a3c7061746820643d224d203735392e33363333343530373630373538203330382e393934313439303637363333343320412033323020333230203020302031203737382e30373032373539333638313435203333342e32313735323534333337323733204c203834342e35383738343439323130313831203238392e373731393036373932313539313420412034303020343030203020302030203832312e32303431383133343530393439203235382e32343236383633333435343138205a222066696c6c3d22626c61636b22207374726f6b653d22626c61636b22207374726f6b652d77696474683d2231222f3e0a3c7061746820643d224d203639372e35323235303838303730353639203335392e3734353631313830303732353120412032343020323430203020302031203731312e35353237303639353236313038203337382e3636333134343037353239353436204c203737382e30373032373539333638313435203333342e3231373532353433333732373320412033323020333230203020302030203735392e33363333343530373630373538203330382e3939343134393036373633333433205a222066696c6c3d22626c61636b22207374726f6b653d22626c61636b22207374726f6b652d77696474683d2231222f3e0a3c7061746820643d224d203633352e36383136373235333830333739203431302e3439373037343533333831363720412031363020313630203020302031203634352e30333531333739363834303733203432332e31303837363237313638363337204c203731312e35353237303639353236313038203337382e363633313434303735323935343620412032343020323430203020302030203639372e35323235303838303730353639203335392e37343536313138303037323531205a222066696c6c3d22626c61636b22207374726f6b653d22626c61636b22207374726f6b652d77696474683d2231222f3e0a3c7061746820643d224d203834342e35383738343439323130313831203238392e373731393036373932313539313420412034303020343030203020302031203836342e373638353035373339333432203332332e3434313330353236393630303935204c203933352e33323232303638383732313034203238352e3732393536363332333532313120412034383020343830203020302030203931312e31303534313339303532323137203234352e3332363238383135303539303933205a222066696c6c3d22626c61636b22207374726f6b653d22626c61636b22207374726f6b652d77696474683d2231222f3e0a3c7061746820643d224d203737382e30373032373539333638313435203333342e3231373532353433333732373320412033323020333230203020302031203739342e32313438303435393134373337203336312e31353330343432313536383038204c203836342e373638353035373339333432203332332e343431333035323639363030393520412034303020343030203020302030203834342e35383738343439323130313831203238392e3737313930363739323135393134205a222066696c6c3d22626c61636b22207374726f6b653d22626c61636b22207374726f6b652d77696474683d2231222f3e0a3c7061746820643d224d203731312e35353237303639353236313038203337382e363633313434303735323935343620412032343020323430203020302031203732332e36363131303334343336303533203339382e3836343738333136313736303536204c203739342e32313438303435393134373337203336312e3135333034343231353638303820412033323020333230203020302030203737382e30373032373539333638313435203333342e32313735323534333337323733205a222066696c6c3d22626c61636b22207374726f6b653d22626c61636b22207374726f6b652d77696474683d2231222f3e0a3c7061746820643d224d203634352e30333531333739363834303733203432332e3130383736323731363836333720412031363020313630203020302031203635332e31303734303232393537333638203433362e35373635323231303738343034204c203732332e36363131303334343336303533203339382e383634373833313631373630353620412032343020323430203020302030203731312e35353237303639353236313038203337382e3636333134343037353239353436205a222066696c6c3d22626c61636b22207374726f6b653d22626c61636b22207374726f6b652d77696474683d2231222f3e0a3c7061746820643d224d203836342e373638353035373339333432203332332e3434313330353236393630303920412034303020343030203020302031203838312e35353138313330303435313438203335382e3932363632373035333936343037204c203935352e34363231373536303534313737203332382e333131393532343634373536383720412034383020343830203020302030203933352e33323232303638383732313033203238352e37323935363633323335323131205a222066696c6c3d22626c61636b22207374726f6b653d22626c61636b22207374726f6b652d77696474683d2231222f3e0a3c7061746820643d224d203739342e32313438303435393134373336203336312e3135333034343231353638303720412033323020333230203020302031203830372e36343134353034303336313138203338392e3534313330313634333137313237204c203838312e35353138313330303435313438203335382e393236363237303533393634303720412034303020343030203020302030203836342e373638353035373339333432203332332e34343133303532363936303039205a222066696c6c3d22626c61636b22207374726f6b653d22626c61636b22207374726f6b652d77696474683d2231222f3e0a3c7061746820643d224d203732332e36363131303334343336303532203339382e383634373833313631373630353620412032343020323430203020302031203733332e37333130383738303237303838203432302e31353539373632333233373834204c203830372e36343134353034303336313138203338392e353431333031363433313731323720412033323020333230203020302030203739342e32313438303435393134373336203336312e31353330343432313536383037205a222066696c6c3d22626c61636b22207374726f6b653d22626c61636b22207374726f6b652d77696474683d2231222f3e0a3c7061746820643d224d203635332e31303734303232393537333638203433362e353736353232313037383430333320412031363020313630203020302031203635392e38323037323532303138303539203435302e37373036353038323135383536204c203733332e37333130383738303237303838203432302e3135353937363233323337383420412032343020323430203020302030203732332e36363131303334343336303532203339382e3836343738333136313736303536205a222066696c6c3d22626c61636b22207374726f6b653d22626c61636b22207374726f6b652d77696474683d2231222f3e0a3c7061746820643d224d203838312e35353138313330303435313438203335382e3932363632373035333936343120412034303020343030203020302031203839342e37373631333432393238383335203339352e3838363132393039383231353036204c203937312e33333133363131353134363032203337322e3636333335343931373835383120412034383020343830203020302030203935352e34363231373536303534313737203332382e33313139353234363437353639205a222066696c6c3d22626c61636b22207374726f6b653d22626c61636b22207374726f6b652d77696474683d2231222f3e0a3c7061746820643d224d203830372e36343134353034303336313138203338392e353431333031363433313731323720412033323020333230203020302031203831382e32323039303734333433303638203431392e3130383930333237383537323033204c203839342e37373631333432393238383335203339352e383836313239303938323135303620412034303020343030203020302030203838312e35353138313330303435313438203335382e39323636323730353339363431205a222066696c6c3d22626c61636b22207374726f6b653d22626c61636b22207374726f6b652d77696474683d2231222f3e0a3c7061746820643d224d203733332e37333130383738303237303838203432302e313535393736323332333738343620412032343020323430203020302031203734312e36363536383035373537333031203434322e3333313637373435383932393035204c203831382e32323039303734333433303638203431392e313038393033323738353732303320412033323020333230203020302030203830372e36343134353034303336313138203338392e3534313330313634333137313237205a222066696c6c3d22626c61636b22207374726f6b653d22626c61636b22207374726f6b652d77696474683d2231222f3e0a3c7061746820643d224d203635392e38323037323532303138303539203435302e3737303635303832313538353620412031363020313630203020302031203636352e31313034353337313731353334203436352e353534343531363339323836204c203734312e36363536383035373537333031203434322e333331363737343538393239303520412032343020323430203020302030203733332e37333130383738303237303838203432302e3135353937363233323337383436205a222066696c6c3d22626c61636b22207374726f6b653d22626c61636b22207374726f6b652d77696474683d2231222f3e0a3c7061746820643d224d203839342e37373631333432393238383336203339352e383836313239303938323135303620412034303020343030203020302031203930342e33313431313231363132393232203433332e3936333837313139333534383735204c203938322e37373639333435393335353035203431382e333536363435343332323538343620412034383020343830203020302030203937312e33333133363131353134363032203337322e36363333353439313738353831205a222066696c6c3d22626c61636b22207374726f6b653d22626c61636b22207374726f6b652d77696474683d2231222f3e0a3c7061746820643d224d203831382e32323039303734333433303638203431392e3130383930333237383537323120412033323020333230203020302031203832352e38353132383937323930333337203434392e353731303936393534383339204c203930342e33313431313231363132393232203433332e393633383731313933353438373520412034303020343030203020302030203839342e37373631333432393238383336203339352e3838363132393039383231353036205a222066696c6c3d22626c61636b22207374726f6b653d22626c61636b22207374726f6b652d77696474683d2231222f3e0a3c7061746820643d224d203734312e36363536383035373537333031203434322e333331363737343538393239303520412032343020323430203020302031203734372e33383834363732393637373533203436352e3137383332323731363132393233204c203832352e38353132383937323930333337203434392e35373130393639353438333920412033323020333230203020302030203831382e32323039303734333433303638203431392e31303839303332373835373231205a222066696c6c3d22626c61636b22207374726f6b653d22626c61636b22207374726f6b652d77696474683d2231222f3e0a3c7061746820643d224d203636352e31313034353337313731353334203436352e35353434353136333932383620412031363020313630203020302031203636382e39323536343438363435313639203438302e3738353534383437373431393437204c203734372e33383834363732393637373533203436352e313738333232373136313239323320412032343020323430203020302030203734312e36363536383035373537333031203434322e3333313637373435383932393035205a222066696c6c3d22626c61636b22207374726f6b653d22626c61636b22207374726f6b652d77696474683d2231222f3e0a3c7061746820643d224d203930342e33313431313231363132393232203433332e3936333837313139333534383720412034303020343030203020302031203931302e30373338393036363838373838203437322e37393331343338363831373538204c203938392e36383836363838303236353435203436342e3935313737323634313831303920412034383020343830203020302030203938322e37373639333435393335353035203431382e3335363634353433323235383436205a222066696c6c3d22626c61636b22207374726f6b653d22626c61636b22207374726f6b652d77696474683d2231222f3e0a3c7061746820643d224d203832352e38353132383937323930333337203434392e353731303936393534383338393420412033323020333230203020302031203833302e343539313132353335313033203438302e3633343531353039343534303633204c203931302e30373338393036363838373838203437322e3739333134333836383137353820412034303020343030203020302030203930342e33313431313231363132393232203433332e39363338373131393335343837205a222066696c6c3d22626c61636b22207374726f6b653d22626c61636b22207374726f6b652d77696474683d2231222f3e0a3c7061746820643d224d203734372e33383834363732393637373533203436352e313738333232373136313239323320412032343020323430203020302031203735302e38343433333434303133323733203438382e3437353838363332303930353433204c203833302e343539313132353335313033203438302e363334353135303934353430363320412033323020333230203020302030203832352e38353132383937323930333337203434392e3537313039363935343833383934205a222066696c6c3d22626c61636b22207374726f6b653d22626c61636b22207374726f6b652d77696474683d2231222f3e0a3c7061746820643d224d203636382e39323536343438363435313639203438302e373835353438343737343139343720412031363020313630203020302031203637312e32323935353632363735353135203439362e33313732353735343732373033204c203735302e38343433333434303133323733203438382e343735383836333230393035343320412032343020323430203020302030203734372e33383834363732393637373533203436352e3137383332323731363132393233205a222066696c6c3d22626c61636b22207374726f6b653d22626c61636b22207374726f6b652d77696474683d2231222f3e0a3c7061746820643d224d203931302e30373338393036363838373838203437322e373933313433383638313735372041203430302034303020302030203120393132203531312e3939393939393939393939393934204c20393932203531312e393939393939393939393939393420412034383020343830203020302030203938392e36383836363838303236353435203436342e3935313737323634313831303836205a222066696c6c3d22626c61636b22207374726f6b653d22626c61636b22207374726f6b652d77696474683d2231222f3e0a3c7061746820643d224d203833302e343539313132353335313033203438302e363334353135303934353430362041203332302033323020302030203120383332203531312e3939393939393939393939393934204c20393132203531312e393939393939393939393939393420412034303020343030203020302030203931302e30373338393036363838373838203437322e37393331343338363831373537205a222066696c6c3d22626c61636b22207374726f6b653d22626c61636b22207374726f6b652d77696474683d2231222f3e0a3c7061746820643d224d203735302e38343433333434303133323733203438382e3437353838363332303930353433204120323430203234302030203020312037353220353132204c20383332203531312e393939393939393939393939393420412033323020333230203020302030203833302e343539313132353335313033203438302e36333435313530393435343036205a222066696c6c3d22626c61636b22207374726f6b653d22626c61636b22207374726f6b652d77696474683d2231222f3e0a3c7061746820643d224d203637312e32323935353632363735353135203439362e33313732353735343732373033204120313630203136302030203020312036373220353132204c203735322035313220412032343020323430203020302030203735302e38343433333434303133323733203438382e3437353838363332303930353433205a222066696c6c3d22626c61636b22207374726f6b653d22626c61636b22207374726f6b652d77696474683d2231222f3e0a3c7061746820643d224d203931322035313220412034303020343030203020302031203931302e30373338393036363838373838203535312e32303638353631333138323432204c203938392e36383836363838303236353435203535392e30343832323733353831383931204120343830203438302030203020302039393220353132205a222066696c6c3d22626c61636b22207374726f6b653d22626c61636b22207374726f6b652d77696474683d2231222f3e0a3c7061746820643d224d203833322035313220412033323020333230203020302031203833302e343539313132353335313033203534332e33363534383439303534353934204c203931302e30373338393036363838373838203535312e32303638353631333138323432204120343030203430302030203020302039313220353132205a222066696c6c3d22626c61636b22207374726f6b653d22626c61636b22207374726f6b652d77696474683d2231222f3e0a3c7061746820643d224d203735322035313220412032343020323430203020302031203735302e38343433333434303133323733203533352e35323431313336373930393435204c203833302e343539313132353335313033203534332e33363534383439303534353934204120333230203332302030203020302038333220353132205a222066696c6c3d22626c61636b22207374726f6b653d22626c61636b22207374726f6b652d77696474683d2231222f3e0a3c7061746820643d224d203637322035313220412031363020313630203020302031203637312e32323935353632363735353135203532372e36383237343234353237323937204c203735302e38343433333434303133323733203533352e35323431313336373930393435204120323430203234302030203020302037353220353132205a222066696c6c3d22626c61636b22207374726f6b653d22626c61636b22207374726f6b652d77696474683d2231222f3e0a3c7061746820643d224d203931302e30373338393036363838373838203535312e3230363835363133313832343320412034303020343030203020302031203930342e33313431313231363132393232203539302e30333631323838303634353133204c203938322e37373639333435393335353035203630352e3634333335343536373734313720412034383020343830203020302030203938392e36383836363838303236353435203535392e30343832323733353831383931205a222066696c6c3d22626c61636b22207374726f6b653d22626c61636b22207374726f6b652d77696474683d2231222f3e0a3c7061746820643d224d203833302e343539313132353335313033203534332e3336353438343930353435393420412033323020333230203020302031203832352e38353132383937323930333337203537342e34323839303330343531363131204c203930342e33313431313231363132393232203539302e3033363132383830363435313320412034303020343030203020302030203931302e30373338393036363838373838203535312e32303638353631333138323433205a222066696c6c3d22626c61636b22207374726f6b653d22626c61636b22207374726f6b652d77696474683d2231222f3e0a3c7061746820643d224d203735302e38343433333434303133323733203533352e3532343131333637393039343620412032343020323430203020302031203734372e33383834363732393637373533203535382e38323136373732383338373038204c203832352e38353132383937323930333337203537342e3432383930333034353136313120412033323020333230203020302030203833302e343539313132353335313033203534332e33363534383439303534353934205a222066696c6c3d22626c61636b22207374726f6b653d22626c61636b22207374726f6b652d77696474683d2231222f3e0a3c7061746820643d224d203637312e32323935353632363735353135203532372e3638323734323435323732393720412031363020313630203020302031203636382e39323536343438363435313639203534332e32313434353135323235383036204c203734372e33383834363732393637373533203535382e3832313637373238333837303820412032343020323430203020302030203735302e38343433333434303133323733203533352e35323431313336373930393436205a222066696c6c3d22626c61636b22207374726f6b653d22626c61636b22207374726f6b652d77696474683d2231222f3e0a3c7061746820643d224d203930342e33313431313231363132393232203539302e3033363132383830363435313320412034303020343030203020302031203839342e37373631333432393238383335203632382e31313338373039303137383439204c203937312e33333133363131353134363032203635312e3333363634353038323134313920412034383020343830203020302030203938322e37373639333435393335353035203630352e36343333353435363737343135205a222066696c6c3d22626c61636b22207374726f6b653d22626c61636b22207374726f6b652d77696474683d2231222f3e0a3c7061746820643d224d203832352e38353132383937323930333337203537342e3432383930333034353136313120412033323020333230203020302031203831382e32323039303734333433303638203630342e383931303936373231343238204c203839342e37373631333432393238383335203632382e3131333837303930313738343920412034303020343030203020302030203930342e33313431313231363132393232203539302e30333631323838303634353133205a222066696c6c3d22626c61636b22207374726f6b653d22626c61636b22207374726f6b652d77696474683d2231222f3e0a3c7061746820643d224d203734372e33383834363732393637373533203535382e3832313637373238333837303820412032343020323430203020302031203734312e36363536383035373537333031203538312e363638333232353431303731204c203831382e32323039303734333433303638203630342e38393130393637323134323820412033323020333230203020302030203832352e38353132383937323930333337203537342e34323839303330343531363131205a222066696c6c3d22626c61636b22207374726f6b653d22626c61636b22207374726f6b652d77696474683d2231222f3e0a3c7061746820643d224d203636382e39323536343438363435313639203534332e3231343435313532323538303520412031363020313630203020302031203636352e31313034353337313731353334203535382e34343535343833363037313339204c203734312e36363536383035373537333031203538312e36363833323235343130373120412032343020323430203020302030203734372e33383834363732393637373533203535382e38323136373732383338373038205a222066696c6c3d22626c61636b22207374726f6b653d22626c61636b22207374726f6b652d77696474683d2231222f3e0a3c7061746820643d224d203839342e37373631333432393238383336203632382e3131333837303930313738343920412034303020343030203020302031203838312e35353138313330303435313438203636352e30373333373239343630333539204c203935352e34363231373536303534313737203639352e3638383034373533353234333120412034383020343830203020302030203937312e33333133363131353134363032203635312e33333636343530383231343139205a222066696c6c3d22626c61636b22207374726f6b653d22626c61636b22207374726f6b652d77696474683d2231222f3e0a3c7061746820643d224d203831382e32323039303734333433303638203630342e38393130393637323134323820412033323020333230203020302031203830372e36343134353034303336313138203633342e34353836393833353638323837204c203838312e35353138313330303435313438203636352e3037333337323934363033353920412034303020343030203020302030203839342e37373631333432393238383336203632382e31313338373039303137383439205a222066696c6c3d22626c61636b22207374726f6b653d22626c61636b22207374726f6b652d77696474683d2231222f3e0a3c7061746820643d224d203734312e36363536383035373537333031203538312e3636383332323534313037303920412032343020323430203020302031203733332e37333130383738303237303838203630332e38343430323337363736323135204c203830372e36343134353034303336313138203633342e3435383639383335363832383720412033323020333230203020302030203831382e32323039303734333433303638203630342e383931303936373231343238205a222066696c6c3d22626c61636b22207374726f6b653d22626c61636b22207374726f6b652d77696474683d2231222f3e0a3c7061746820643d224d203636352e31313034353337313731353334203535382e3434353534383336303731333920412031363020313630203020302031203635392e38323037323532303138303539203537332e32323933343931373834313434204c203733332e37333130383738303237303838203630332e3834343032333736373632313520412032343020323430203020302030203734312e36363536383035373537333031203538312e36363833323235343130373039205a222066696c6c3d22626c61636b22207374726f6b653d22626c61636b22207374726f6b652d77696474683d2231222f3e0a3c7061746820643d224d203838312e35353138313330303435313438203636352e3037333337323934363033353920412034303020343030203020302031203836342e373638353035373339333432203730302e35353836393437333033393931204c203933352e33323232303638383732313034203733382e3237303433333637363437383920412034383020343830203020302030203935352e34363231373536303534313737203639352e36383830343735333532343331205a222066696c6c3d22626c61636b22207374726f6b653d22626c61636b22207374726f6b652d77696474683d2231222f3e0a3c7061746820643d224d203830372e36343134353034303336313138203633342e3435383639383335363832383820412033323020333230203020302031203739342e32313438303435393134373337203636322e38343639353537383433313932204c203836342e373638353035373339333432203730302e3535383639343733303339393120412034303020343030203020302030203838312e35353138313330303435313438203636352e30373333373239343630333539205a222066696c6c3d22626c61636b22207374726f6b653d22626c61636b22207374726f6b652d77696474683d2231222f3e0a3c7061746820643d224d203733332e37333130383738303237303838203630332e3834343032333736373632313620412032343020323430203020302031203732332e36363131303334343336303533203632352e31333532313638333832333934204c203739342e32313438303435393134373337203636322e3834363935353738343331393220412033323020333230203020302030203830372e36343134353034303336313138203633342e34353836393833353638323838205a222066696c6c3d22626c61636b22207374726f6b653d22626c61636b22207374726f6b652d77696474683d2231222f3e0a3c7061746820643d224d203635392e38323037323532303138303539203537332e3232393334393137383431343420412031363020313630203020302031203635332e31303734303232393537333638203538372e34323334373738393231353937204c203732332e36363131303334343336303533203632352e3133353231363833383233393420412032343020323430203020302030203733332e37333130383738303237303838203630332e38343430323337363736323136205a222066696c6c3d22626c61636b22207374726f6b653d22626c61636b22207374726f6b652d77696474683d2231222f3e0a3c7061746820643d224d203836342e373638353035373339333432203730302e3535383639343733303339393120412034303020343030203020302031203834342e35383738343439323130313831203733342e32323830393332303738343039204c203931312e31303534313339303532323137203737382e3637333731313834393430393120412034383020343830203020302030203933352e33323232303638383732313033203733382e32373034333336373634373839205a222066696c6c3d22626c61636b22207374726f6b653d22626c61636b22207374726f6b652d77696474683d2231222f3e0a3c7061746820643d224d203739342e32313438303435393134373336203636322e3834363935353738343331393320412033323020333230203020302031203737382e30373032373539333638313434203638392e37383234373435363632373238204c203834342e35383738343439323130313831203733342e3232383039333230373834303920412034303020343030203020302030203836342e373638353035373339333432203730302e35353836393437333033393931205a222066696c6c3d22626c61636b22207374726f6b653d22626c61636b22207374726f6b652d77696474683d2231222f3e0a3c7061746820643d224d203732332e36363131303334343336303532203632352e3133353231363833383233393420412032343020323430203020302031203731312e35353237303639353236313038203634352e33333638353539323437303435204c203737382e30373032373539333638313434203638392e3738323437343536363237323820412033323020333230203020302030203739342e32313438303435393134373336203636322e38343639353537383433313933205a222066696c6c3d22626c61636b22207374726f6b653d22626c61636b22207374726f6b652d77696474683d2231222f3e0a3c7061746820643d224d203635332e31303734303232393537333638203538372e3432333437373839323135393720412031363020313630203020302031203634352e30333531333739363834303732203630302e38393132333732383331333633204c203731312e35353237303639353236313038203634352e3333363835353932343730343520412032343020323430203020302030203732332e36363131303334343336303532203632352e31333532313638333832333934205a222066696c6c3d22626c61636b22207374726f6b653d22626c61636b22207374726f6b652d77696474683d2231222f3e0a3c7061746820643d224d203834342e35383738343439323130313831203733342e3232383039333230373834303920412034303020343030203020302031203832312e32303431383133343530393439203736352e37353733313336363534353831204c203838332e30343530313736313431313338203831362e3530383737363339383534393820412034383020343830203020302030203931312e31303534313339303532323138203737382e36373337313138343934303931205a222066696c6c3d22626c61636b22207374726f6b653d22626c61636b22207374726f6b652d77696474683d2231222f3e0a3c7061746820643d224d203737382e30373032373539333638313435203638392e3738323437343536363237323620412033323020333230203020302031203735392e33363333343530373630373538203731352e30303538353039333233363635204c203832312e32303431383133343530393439203736352e3735373331333636353435383120412034303020343030203020302030203834342e35383738343439323130313831203733342e32323830393332303738343039205a222066696c6c3d22626c61636b22207374726f6b653d22626c61636b22207374726f6b652d77696474683d2231222f3e0a3c7061746820643d224d203731312e35353237303639353236313038203634352e3333363835353932343730343520412032343020323430203020302031203639372e353232353038383037303537203636342e32353433383831393932373439204c203735392e33363333343530373630373538203731352e3030353835303933323336363520412033323020333230203020302030203737382e30373032373539333638313435203638392e37383234373435363632373236205a222066696c6c3d22626c61636b22207374726f6b653d22626c61636b22207374726f6b652d77696474683d2231222f3e0a3c7061746820643d224d203634352e30333531333739363834303733203630302e3839313233373238333133363320412031363020313630203020302031203633352e36383136373235333830333739203631332e35303239323534363631383332204c203639372e353232353038383037303537203636342e3235343338383139393237343920412032343020323430203020302030203731312e35353237303639353236313038203634352e33333638353539323437303435205a222066696c6c3d22626c61636b22207374726f6b653d22626c61636b22207374726f6b652d77696474683d2231222f3e0a3c7061746820643d224d203832312e32303431383133343530393439203736352e3735373331333636353435383120412034303020343030203020302031203739342e383432373132343734363139203739342e383432373132343734363139204c203835312e34313132353439363935343238203835312e3431313235343936393534323820412034383020343830203020302030203838332e30343530313736313431313338203831362e35303837373633393835343938205a222066696c6c3d22626c61636b22207374726f6b653d22626c61636b22207374726f6b652d77696474683d2231222f3e0a3c7061746820643d224d203735392e33363333343530373630373538203731352e3030353835303933323336363520412033323020333230203020302031203733382e32373431363939373936393532203733382e32373431363939373936393532204c203739342e383432373132343734363139203739342e38343237313234373436313920412034303020343030203020302030203832312e32303431383133343530393439203736352e37353733313336363534353831205a222066696c6c3d22626c61636b22207374726f6b653d22626c61636b22207374726f6b652d77696474683d2231222f3e0a3c7061746820643d224d203639372e353232353038383037303537203636342e3235343338383139393237343920412032343020323430203020302031203638312e37303536323734383437373134203638312e37303536323734383437373134204c203733382e32373431363939373936393532203733382e3237343136393937393639353220412033323020333230203020302030203735392e33363333343530373630373538203731352e30303538353039333233363635205a222066696c6c3d22626c61636b22207374726f6b653d22626c61636b22207374726f6b652d77696474683d2231222f3e0a3c7061746820643d224d203633352e36383136373235333830333739203631332e3530323932353436363138333220412031363020313630203020302031203632352e31333730383439383938343736203632352e31333730383439383938343736204c203638312e37303536323734383437373134203638312e3730353632373438343737313420412032343020323430203020302030203639372e353232353038383037303537203636342e32353433383831393932373439205a222066696c6c3d22626c61636b22207374726f6b653d22626c61636b22207374726f6b652d77696474683d2231222f3e0a3c7061746820643d224d203739342e383432373132343734363139203739342e38343237313234373436313920412034303020343030203020302031203736352e37353733313336363534353832203832312e32303431383133343530393438204c203831362e35303837373633393835343939203838332e3034353031373631343131333720412034383020343830203020302030203835312e34313132353439363935343238203835312e34313132353439363935343238205a222066696c6c3d22626c61636b22207374726f6b653d22626c61636b22207374726f6b652d77696474683d2231222f3e0a3c7061746820643d224d203733382e32373431363939373936393532203733382e3237343136393937393639353220412033323020333230203020302031203731352e30303538353039333233363636203735392e33363333343530373630373538204c203736352e37353733313336363534353832203832312e3230343138313334353039343820412034303020343030203020302030203739342e383432373132343734363139203739342e383432373132343734363139205a222066696c6c3d22626c61636b22207374726f6b653d22626c61636b22207374726f6b652d77696474683d2231222f3e0a3c7061746820643d224d203638312e37303536323734383437373134203638312e3730353632373438343737313420412032343020323430203020302031203636342e32353433383831393932373439203639372e35323235303838303730353639204c203731352e30303538353039333233363636203735392e3336333334353037363037353820412033323020333230203020302030203733382e32373431363939373936393532203733382e32373431363939373936393532205a222066696c6c3d22626c61636b22207374726f6b653d22626c61636b22207374726f6b652d77696474683d2231222f3e0a3c7061746820643d224d203632352e31333730383439383938343736203632352e3133373038343938393834373620412031363020313630203020302031203631332e35303239323534363631383333203633352e36383136373235333830333739204c203636342e32353433383831393932373439203639372e3532323530383830373035363920412032343020323430203020302030203638312e37303536323734383437373134203638312e37303536323734383437373134205a222066696c6c3d22626c61636b22207374726f6b653d22626c61636b22207374726f6b652d77696474683d2231222f3e0a3c7061746820643d224d203736352e37353733313336363534353832203832312e3230343138313334353039343920412034303020343030203020302031203733342e32323830393332303738343039203834342e35383738343439323130313831204c203737382e36373337313138343934303931203931312e3130353431333930353232313720412034383020343830203020302030203831362e35303837373633393835343938203838332e30343530313736313431313337205a222066696c6c3d22626c61636b22207374726f6b653d22626c61636b22207374726f6b652d77696474683d2231222f3e0a3c7061746820643d224d203731352e30303538353039333233363636203735392e3336333334353037363037353820412033323020333230203020302031203638392e37383234373435363632373236203737382e30373032373539333638313435204c203733342e32323830393332303738343039203834342e3538373834343932313031383120412034303020343030203020302030203736352e37353733313336363534353832203832312e32303431383133343530393439205a222066696c6c3d22626c61636b22207374726f6b653d22626c61636b22207374726f6b652d77696474683d2231222f3e0a3c7061746820643d224d203636342e32353433383831393932373439203639372e3532323530383830373035363920412032343020323430203020302031203634352e33333638353539323437303435203731312e35353237303639353236313038204c203638392e37383234373435363632373236203737382e3037303237353933363831343520412033323020333230203020302030203731352e30303538353039333233363636203735392e33363333343530373630373538205a222066696c6c3d22626c61636b22207374726f6b653d22626c61636b22207374726f6b652d77696474683d2231222f3e0a3c7061746820643d224d203631332e35303239323534363631383333203633352e3638313637323533383033373920412031363020313630203020302031203630302e38393132333732383331333633203634352e30333531333739363834303733204c203634352e33333638353539323437303435203731312e3535323730363935323631303820412032343020323430203020302030203636342e32353433383831393932373439203639372e35323235303838303730353639205a222066696c6c3d22626c61636b22207374726f6b653d22626c61636b22207374726f6b652d77696474683d2231222f3e0a3c7061746820643d224d203733342e32323830393332303738343039203834342e3538373834343932313031383120412034303020343030203020302031203730302e35353836393437333033393839203836342e37363835303537333933343231204c203733382e32373034333336373634373838203933352e3332323230363838373231303520412034383020343830203020302030203737382e36373337313138343934303931203931312e31303534313339303532323138205a222066696c6c3d22626c61636b22207374726f6b653d22626c61636b22207374726f6b652d77696474683d2231222f3e0a3c7061746820643d224d203638392e37383234373435363632373236203737382e3037303237353933363831343520412033323020333230203020302031203636322e38343639353537383433313931203739342e32313438303435393134373337204c203730302e35353836393437333033393839203836342e3736383530353733393334323120412034303020343030203020302030203733342e32323830393332303738343039203834342e35383738343439323130313831205a222066696c6c3d22626c61636b22207374726f6b653d22626c61636b22207374726f6b652d77696474683d2231222f3e0a3c7061746820643d224d203634352e33333638353539323437303435203731312e3535323730363935323631303820412032343020323430203020302031203632352e31333532313638333832333933203732332e36363131303334343336303533204c203636322e38343639353537383433313931203739342e3231343830343539313437333720412033323020333230203020302030203638392e37383234373435363632373236203737382e30373032373539333638313435205a222066696c6c3d22626c61636b22207374726f6b653d22626c61636b22207374726f6b652d77696474683d2231222f3e0a3c7061746820643d224d203630302e38393132333732383331333633203634352e3033353133373936383430373320412031363020313630203020302031203538372e34323334373738393231353936203635332e31303734303232393537333638204c203632352e31333532313638333832333933203732332e3636313130333434333630353320412032343020323430203020302030203634352e33333638353539323437303435203731312e35353237303639353236313038205a222066696c6c3d22626c61636b22207374726f6b653d22626c61636b22207374726f6b652d77696474683d2231222f3e0a3c7061746820643d224d203730302e35353836393437333033393931203836342e37363835303537333933343220412034303020343030203020302031203636352e303733333732393436303336203838312e35353138313330303435313438204c203639352e36383830343735333532343332203935352e3436323137353630353431373720412034383020343830203020302030203733382e32373034333336373634373839203933352e33323232303638383732313033205a222066696c6c3d22626c61636b22207374726f6b653d22626c61636b22207374726f6b652d77696474683d2231222f3e0a3c7061746820643d224d203636322e38343639353537383433313933203739342e3231343830343539313437333620412033323020333230203020302031203633342e34353836393833353638323838203830372e36343134353034303336313138204c203636352e303733333732393436303336203838312e3535313831333030343531343820412034303020343030203020302030203730302e35353836393437333033393931203836342e373638353035373339333432205a222066696c6c3d22626c61636b22207374726f6b653d22626c61636b22207374726f6b652d77696474683d2231222f3e0a3c7061746820643d224d203632352e31333532313638333832333934203732332e3636313130333434333630353220412032343020323430203020302031203630332e38343430323337363736323136203733332e37333130383738303237303838204c203633342e34353836393833353638323838203830372e3634313435303430333631313820412033323020333230203020302030203636322e38343639353537383433313933203739342e32313438303435393134373336205a222066696c6c3d22626c61636b22207374726f6b653d22626c61636b22207374726f6b652d77696474683d2231222f3e0a3c7061746820643d224d203538372e34323334373738393231353937203635332e3130373430323239353733363820412031363020313630203020302031203537332e32323933343931373834313434203635392e38323037323532303138303539204c203630332e38343430323337363736323136203733332e3733313038373830323730383820412032343020323430203020302030203632352e31333532313638333832333934203732332e36363131303334343336303532205a222066696c6c3d22626c61636b22207374726f6b653d22626c61636b22207374726f6b652d77696474683d2231222f3e0a3c7061746820643d224d203636352e303733333732393436303336203838312e3535313831333030343531343820412034303020343030203020302031203632382e31313338373039303137383439203839342e37373631333432393238383336204c203635312e33333636343530383231343139203937312e3333313336313135313436303220412034383020343830203020302030203639352e36383830343735333532343332203935352e34363231373536303534313737205a222066696c6c3d22626c61636b22207374726f6b653d22626c61636b22207374726f6b652d77696474683d2231222f3e0a3c7061746820643d224d203633342e34353836393833353638323838203830372e3634313435303430333631313820412033323020333230203020302031203630342e383931303936373231343238203831382e32323039303734333433303638204c203632382e31313338373039303137383439203839342e3737363133343239323838333620412034303020343030203020302030203636352e303733333732393436303336203838312e35353138313330303435313438205a222066696c6c3d22626c61636b22207374726f6b653d22626c61636b22207374726f6b652d77696474683d2231222f3e0a3c7061746820643d224d203630332e38343430323337363736323136203733332e3733313038373830323730383820412032343020323430203020302031203538312e36363833323235343130373039203734312e36363536383035373537333031204c203630342e383931303936373231343238203831382e3232303930373433343330363820412033323020333230203020302030203633342e34353836393833353638323838203830372e36343134353034303336313138205a222066696c6c3d22626c61636b22207374726f6b653d22626c61636b22207374726f6b652d77696474683d2231222f3e0a3c7061746820643d224d203537332e32323933343931373834313434203635392e3832303732353230313830353920412031363020313630203020302031203535382e34343535343833363037313339203636352e31313034353337313731353334204c203538312e36363833323235343130373039203734312e3636353638303537353733303120412032343020323430203020302030203630332e38343430323337363736323136203733332e37333130383738303237303838205a222066696c6c3d22626c61636b22207374726f6b653d22626c61636b22207374726f6b652d77696474683d2231222f3e0a3c7061746820643d224d203632382e31313338373039303137383439203839342e3737363133343239323838333620412034303020343030203020302031203539302e30333631323838303634353132203930342e33313431313231363132393232204c203630352e36343333353435363737343135203938322e3737363933343539333535303520412034383020343830203020302030203635312e33333636343530383231343139203937312e33333133363131353134363032205a222066696c6c3d22626c61636b22207374726f6b653d22626c61636b22207374726f6b652d77696474683d2231222f3e0a3c7061746820643d224d203630342e383931303936373231343238203831382e3232303930373433343330363820412033323020333230203020302031203537342e343238393033303435313631203832352e38353132383937323930333337204c203539302e30333631323838303634353132203930342e3331343131323136313239323220412034303020343030203020302030203632382e31313338373039303137383439203839342e37373631333432393238383336205a222066696c6c3d22626c61636b22207374726f6b653d22626c61636b22207374726f6b652d77696474683d2231222f3e0a3c7061746820643d224d203538312e36363833323235343130373039203734312e3636353638303537353733303120412032343020323430203020302031203535382e38323136373732383338373037203734372e33383834363732393637373533204c203537342e343238393033303435313631203832352e3835313238393732393033333720412033323020333230203020302030203630342e383931303936373231343238203831382e32323039303734333433303638205a222066696c6c3d22626c61636b22207374726f6b653d22626c61636b22207374726f6b652d77696474683d2231222f3e0a3c7061746820643d224d203535382e34343535343833363037313339203636352e3131303435333731373135333420412031363020313630203020302031203534332e32313434353135323235383035203636382e39323536343438363435313639204c203535382e38323136373732383338373037203734372e3338383436373239363737353320412032343020323430203020302030203538312e36363833323235343130373039203734312e36363536383035373537333031205a222066696c6c3d22626c61636b22207374726f6b653d22626c61636b22207374726f6b652d77696474683d2231222f3e0a3c7061746820643d224d203539302e30333631323838303634353134203930342e3331343131323136313239323220412034303020343030203020302031203535312e32303638353631333138323433203931302e30373338393036363838373837204c203535392e30343832323733353831383931203938392e3638383636383830323635343520412034383020343830203020302030203630352e36343333353435363737343137203938322e37373639333435393335353035205a222066696c6c3d22626c61636b22207374726f6b653d22626c61636b22207374726f6b652d77696474683d2231222f3e0a3c7061746820643d224d203537342e34323839303330343531363132203832352e3835313238393732393033333720412033323020333230203020302031203534332e33363534383439303534353934203833302e343539313132353335313033204c203535312e32303638353631333138323433203931302e3037333839303636383837383720412034303020343030203020302030203539302e30333631323838303634353134203930342e33313431313231363132393232205a222066696c6c3d22626c61636b22207374726f6b653d22626c61636b22207374726f6b652d77696474683d2231222f3e0a3c7061746820643d224d203535382e38323136373732383338373038203734372e3338383436373239363737353320412032343020323430203020302031203533352e35323431313336373930393436203735302e38343433333434303133323733204c203534332e33363534383439303534353934203833302e34353931313235333531303320412033323020333230203020302030203537342e34323839303330343531363132203832352e38353132383937323930333337205a222066696c6c3d22626c61636b22207374726f6b653d22626c61636b22207374726f6b652d77696474683d2231222f3e0a3c7061746820643d224d203534332e32313434353135323235383036203636382e3932353634343836343531363920412031363020313630203020302031203532372e36383237343234353237323937203637312e32323935353632363735353135204c203533352e35323431313336373930393436203735302e3834343333343430313332373320412032343020323430203020302030203535382e38323136373732383338373038203734372e33383834363732393637373533205a222066696c6c3d22626c61636b22207374726f6b653d22626c61636b22207374726f6b652d77696474683d2231222f3e0a3c7061746820643d224d203535312e32303638353631333138323433203931302e30373338393036363838373837204120343030203430302030203020312035313220393132204c203531322039393220412034383020343830203020302030203535392e30343832323733353831383931203938392e36383836363838303236353435205a222066696c6c3d22626c61636b22207374726f6b653d22626c61636b22207374726f6b652d77696474683d2231222f3e0a3c7061746820643d224d203534332e33363534383439303534353934203833302e343539313132353335313033204120333230203332302030203020312035313220383332204c203531322039313220412034303020343030203020302030203535312e32303638353631333138323433203931302e30373338393036363838373837205a222066696c6c3d22626c61636b22207374726f6b653d22626c61636b22207374726f6b652d77696474683d2231222f3e0a3c7061746820643d224d203533352e35323431313336373930393436203735302e38343433333434303133323733204120323430203234302030203020312035313220373532204c203531322038333220412033323020333230203020302030203534332e33363534383439303534353934203833302e343539313132353335313033205a222066696c6c3d22626c61636b22207374726f6b653d22626c61636b22207374726f6b652d77696474683d2231222f3e0a3c7061746820643d224d203532372e36383237343234353237323937203637312e32323935353632363735353135204120313630203136302030203020312035313220363732204c203531322037353220412032343020323430203020302030203533352e35323431313336373930393436203735302e38343433333434303133323733205a222066696c6c3d22626c61636b22207374726f6b653d22626c61636b22207374726f6b652d77696474683d2231222f3e0a3c7061746820643d224d203531322039313220412034303020343030203020302031203437322e37393331343338363831373537203931302e30373338393036363838373838204c203436342e3935313737323634313831303836203938392e36383836363838303236353435204120343830203438302030203020302035313220393932205a222066696c6c3d22626c61636b22207374726f6b653d22626c61636b22207374726f6b652d77696474683d2231222f3e0a3c7061746820643d224d203531322038333220412033323020333230203020302031203438302e36333435313530393435343036203833302e343539313132353335313033204c203437322e37393331343338363831373537203931302e30373338393036363838373838204120343030203430302030203020302035313220393132205a222066696c6c3d22626c61636b22207374726f6b653d22626c61636b22207374726f6b652d77696474683d2231222f3e0a3c7061746820643d224d203531322037353220412032343020323430203020302031203438382e3437353838363332303930353433203735302e38343433333434303133323733204c203438302e36333435313530393435343036203833302e343539313132353335313033204120333230203332302030203020302035313220383332205a222066696c6c3d22626c61636b22207374726f6b653d22626c61636b22207374726f6b652d77696474683d2231222f3e0a3c7061746820643d224d203531322036373220412031363020313630203020302031203439362e33313732353735343732373033203637312e32323935353632363735353135204c203438382e3437353838363332303930353433203735302e38343433333434303133323733204120323430203234302030203020302035313220373532205a222066696c6c3d22626c61636b22207374726f6b653d22626c61636b22207374726f6b652d77696474683d2231222f3e0a3c7061746820643d224d203437322e37393331343338363831373537203931302e3037333839303636383837383820412034303020343030203020302031203433332e3936333837313139333534383634203930342e33313431313231363132393232204c203431382e3335363634353433323235383335203938322e3737363933343539333535303520412034383020343830203020302030203436342e3935313737323634313831303836203938392e36383836363838303236353435205a222066696c6c3d22626c61636b22207374726f6b653d22626c61636b22207374726f6b652d77696474683d2231222f3e0a3c7061746820643d224d203438302e36333435313530393435343036203833302e34353931313235333531303320412033323020333230203020302031203434392e3537313039363935343833383934203832352e38353132383937323930333337204c203433332e3936333837313139333534383634203930342e3331343131323136313239323220412034303020343030203020302030203437322e37393331343338363831373537203931302e30373338393036363838373838205a222066696c6c3d22626c61636b22207374726f6b653d22626c61636b22207374726f6b652d77696474683d2231222f3e0a3c7061746820643d224d203438382e3437353838363332303930353433203735302e3834343333343430313332373320412032343020323430203020302031203436352e31373833323237313631323932203734372e33383834363732393637373533204c203434392e3537313039363935343833383934203832352e3835313238393732393033333720412033323020333230203020302030203438302e36333435313530393435343036203833302e343539313132353335313033205a222066696c6c3d22626c61636b22207374726f6b653d22626c61636b22207374726f6b652d77696474683d2231222f3e0a3c7061746820643d224d203439362e33313732353735343732373033203637312e3232393535363236373535313520412031363020313630203020302031203438302e3738353534383437373431393437203636382e39323536343438363435313639204c203436352e31373833323237313631323932203734372e3338383436373239363737353320412032343020323430203020302030203438382e3437353838363332303930353433203735302e38343433333434303133323733205a222066696c6c3d22626c61636b22207374726f6b653d22626c61636b22207374726f6b652d77696474683d2231222f3e0a3c7061746820643d224d203433332e3936333837313139333534383634203930342e3331343131323136313239323220412034303020343030203020302031203339352e3838363132393039383231343935203839342e37373631333432393238383335204c203337322e363633333534393137383538203937312e3333313336313135313436303220412034383020343830203020302030203431382e3335363634353433323235383335203938322e37373639333435393335353035205a222066696c6c3d22626c61636b22207374726f6b653d22626c61636b22207374726f6b652d77696474683d2231222f3e0a3c7061746820643d224d203434392e3537313039363935343833383934203832352e3835313238393732393033333720412033323020333230203020302031203431392e313038393033323738353732203831382e32323039303734333433303638204c203339352e3838363132393039383231343935203839342e3737363133343239323838333520412034303020343030203020302030203433332e3936333837313139333534383634203930342e33313431313231363132393232205a222066696c6c3d22626c61636b22207374726f6b653d22626c61636b22207374726f6b652d77696474683d2231222f3e0a3c7061746820643d224d203436352e31373833323237313631323932203734372e3338383436373239363737353320412032343020323430203020302031203434322e333331363737343538393239203734312e36363536383035373537333031204c203431392e313038393033323738353732203831382e3232303930373433343330363820412033323020333230203020302030203434392e3537313039363935343833383934203832352e38353132383937323930333337205a222066696c6c3d22626c61636b22207374726f6b653d22626c61636b22207374726f6b652d77696474683d2231222f3e0a3c7061746820643d224d203438302e3738353534383437373431393437203636382e3932353634343836343531363920412031363020313630203020302031203436352e3535343435313633393238353936203636352e31313034353337313731353334204c203434322e333331363737343538393239203734312e3636353638303537353733303120412032343020323430203020302030203436352e31373833323237313631323932203734372e33383834363732393637373533205a222066696c6c3d22626c61636b22207374726f6b653d22626c61636b22207374726f6b652d77696474683d2231222f3e0a3c7061746820643d224d203339352e38383631323930393832313531203839342e3737363133343239323838333620412034303020343030203020302031203335382e39323636323730353339363431203838312e35353138313330303435313438204c203332382e33313139353234363437353639203935352e3436323137353630353431373720412034383020343830203020302030203337322e36363333353439313738353831203937312e33333133363131353134363032205a222066696c6c3d22626c61636b22207374726f6b653d22626c61636b22207374726f6b652d77696474683d2231222f3e0a3c7061746820643d224d203431392e31303839303332373835373231203831382e3232303930373433343330363820412033323020333230203020302031203338392e35343133303136343331373133203830372e36343134353034303336313138204c203335382e39323636323730353339363431203838312e3535313831333030343531343820412034303020343030203020302030203339352e38383631323930393832313531203839342e37373631333432393238383336205a222066696c6c3d22626c61636b22207374726f6b653d22626c61636b22207374726f6b652d77696474683d2231222f3e0a3c7061746820643d224d203434322e3333313637373435383932393035203734312e3636353638303537353733303120412032343020323430203020302031203432302e3135353937363233323337383436203733332e37333130383738303237303838204c203338392e35343133303136343331373133203830372e3634313435303430333631313820412033323020333230203020302030203431392e31303839303332373835373231203831382e32323039303734333433303638205a222066696c6c3d22626c61636b22207374726f6b653d22626c61636b22207374726f6b652d77696474683d2231222f3e0a3c7061746820643d224d203436352e3535343435313633393238363037203636352e3131303435333731373135333420412031363020313630203020302031203435302e3737303635303832313538353636203635392e38323037323532303138303539204c203432302e3135353937363233323337383436203733332e3733313038373830323730383820412032343020323430203020302030203434322e3333313637373435383932393035203734312e36363536383035373537333031205a222066696c6c3d22626c61636b22207374726f6b653d22626c61636b22207374726f6b652d77696474683d2231222f3e0a3c7061746820643d224d203335382e39323636323730353339363431203838312e3535313831333030343531343820412034303020343030203020302031203332332e34343133303532363936303039203836342e373638353035373339333432204c203238352e37323935363633323335323131203933352e3332323230363838373231303420412034383020343830203020302030203332382e33313139353234363437353639203935352e34363231373536303534313737205a222066696c6c3d22626c61636b22207374726f6b653d22626c61636b22207374726f6b652d77696474683d2231222f3e0a3c7061746820643d224d203338392e35343133303136343331373133203830372e3634313435303430333631313820412033323020333230203020302031203336312e31353330343432313536383037203739342e32313438303435393134373337204c203332332e34343133303532363936303039203836342e37363835303537333933343220412034303020343030203020302030203335382e39323636323730353339363431203838312e35353138313330303435313438205a222066696c6c3d22626c61636b22207374726f6b653d22626c61636b22207374726f6b652d77696474683d2231222f3e0a3c7061746820643d224d203432302e3135353937363233323337383436203733332e3733313038373830323730383820412032343020323430203020302031203339382e3836343738333136313736303536203732332e36363131303334343336303533204c203336312e31353330343432313536383037203739342e3231343830343539313437333720412033323020333230203020302030203338392e35343133303136343331373133203830372e36343134353034303336313138205a222066696c6c3d22626c61636b22207374726f6b653d22626c61636b22207374726f6b652d77696474683d2231222f3e0a3c7061746820643d224d203435302e3737303635303832313538353636203635392e3832303732353230313830353920412031363020313630203020302031203433362e3537363532323130373834303333203635332e31303734303232393537333638204c203339382e3836343738333136313736303536203732332e3636313130333434333630353320412032343020323430203020302030203432302e3135353937363233323337383436203733332e37333130383738303237303838205a222066696c6c3d22626c61636b22207374726f6b653d22626c61636b22207374726f6b652d77696474683d2231222f3e0a3c7061746820643d224d203332332e34343133303532363936303039203836342e37363835303537333933343220412034303020343030203020302031203238392e37373139303637393231353931203834342e35383738343439323130313831204c203234352e3332363238383135303539303933203931312e3130353431333930353232313720412034383020343830203020302030203238352e37323935363633323335323131203933352e33323232303638383732313034205a222066696c6c3d22626c61636b22207374726f6b653d22626c61636b22207374726f6b652d77696474683d2231222f3e0a3c7061746820643d224d203336312e31353330343432313536383037203739342e3231343830343539313437333720412033323020333230203020302031203333342e3231373532353433333732373235203737382e30373032373539333638313434204c203238392e37373139303637393231353931203834342e3538373834343932313031383120412034303020343030203020302030203332332e34343133303532363936303039203836342e373638353035373339333432205a222066696c6c3d22626c61636b22207374726f6b653d22626c61636b22207374726f6b652d77696474683d2231222f3e0a3c7061746820643d224d203339382e3836343738333136313736303536203732332e3636313130333434333630353320412032343020323430203020302031203337382e3636333134343037353239353436203731312e35353237303639353236313038204c203333342e3231373532353433333732373235203737382e3037303237353933363831343420412033323020333230203020302030203336312e31353330343432313536383037203739342e32313438303435393134373337205a222066696c6c3d22626c61636b22207374726f6b653d22626c61636b22207374726f6b652d77696474683d2231222f3e0a3c7061746820643d224d203433362e3537363532323130373834303333203635332e3130373430323239353733363820412031363020313630203020302031203432332e31303837363237313638363336203634352e30333531333739363834303732204c203337382e3636333134343037353239353436203731312e3535323730363935323631303820412032343020323430203020302030203339382e3836343738333136313736303536203732332e36363131303334343336303533205a222066696c6c3d22626c61636b22207374726f6b653d22626c61636b22207374726f6b652d77696474683d2231222f3e0a3c7061746820643d224d203238392e3737313930363739323135393236203834342e3538373834343932313031383120412034303020343030203020302031203235382e32343236383633333435343139203832312e32303431383133343530393439204c203230372e3439313232333630313435303236203838332e3034353031373631343131333820412034383020343830203020302030203234352e3332363238383135303539313034203931312e31303534313339303532323139205a222066696c6c3d22626c61636b22207374726f6b653d22626c61636b22207374726f6b652d77696474683d2231222f3e0a3c7061746820643d224d203333342e3231373532353433333732373336203737382e3037303237353933363831343620412033323020333230203020302031203330382e3939343134393036373633333534203735392e33363333343530373630373538204c203235382e32343236383633333435343139203832312e3230343138313334353039343920412034303020343030203020302030203238392e3737313930363739323135393236203834342e35383738343439323130313831205a222066696c6c3d22626c61636b22207374726f6b653d22626c61636b22207374726f6b652d77696474683d2231222f3e0a3c7061746820643d224d203337382e36363331343430373532393535203731312e35353237303639353236313120412032343020323430203020302031203335392e37343536313138303037323531203639372e353232353038383037303537204c203330382e3939343134393036373633333534203735392e3336333334353037363037353820412033323020333230203020302030203333342e3231373532353433333732373336203737382e30373032373539333638313436205a222066696c6c3d22626c61636b22207374726f6b653d22626c61636b22207374726f6b652d77696474683d2231222f3e0a3c7061746820643d224d203432332e31303837363237313638363337203634352e3033353133373936383430373320412031363020313630203020302031203431302e34393730373435333338313638203633352e36383136373235333830333739204c203335392e37343536313138303037323531203639372e35323235303838303730353720412032343020323430203020302030203337382e36363331343430373532393535203731312e353532373036393532363131205a222066696c6c3d22626c61636b22207374726f6b653d22626c61636b22207374726f6b652d77696474683d2231222f3e0a3c7061746820643d224d203235382e32343236383633333435343139203832312e3230343138313334353039343920412034303020343030203020302031203232392e3135373238373532353338313034203739342e383432373132343734363139204c203137322e3538383734353033303435373233203835312e3431313235343936393534323820412034383020343830203020302030203230372e3439313232333630313435303236203838332e30343530313736313431313338205a222066696c6c3d22626c61636b22207374726f6b653d22626c61636b22207374726f6b652d77696474683d2231222f3e0a3c7061746820643d224d203330382e3939343134393036373633333534203735392e3336333334353037363037353820412033323020333230203020302031203238352e37323538333030323033303438203733382e32373431363939373936393532204c203232392e3135373238373532353338313034203739342e38343237313234373436313920412034303020343030203020302030203235382e32343236383633333435343139203832312e32303431383133343530393439205a222066696c6c3d22626c61636b22207374726f6b653d22626c61636b22207374726f6b652d77696474683d2231222f3e0a3c7061746820643d224d203335392e37343536313138303037323531203639372e35323235303838303730353720412032343020323430203020302031203334322e32393433373235313532323836203638312e37303536323734383437373134204c203238352e37323538333030323033303438203733382e3237343136393937393639353220412033323020333230203020302030203330382e3939343134393036373633333534203735392e33363333343530373630373538205a222066696c6c3d22626c61636b22207374726f6b653d22626c61636b22207374726f6b652d77696474683d2231222f3e0a3c7061746820643d224d203431302e34393730373435333338313638203633352e3638313637323533383033373920412031363020313630203020302031203339382e38363239313530313031353234203632352e31333730383439383938343736204c203334322e32393433373235313532323836203638312e3730353632373438343737313420412032343020323430203020302030203335392e37343536313138303037323531203639372e353232353038383037303537205a222066696c6c3d22626c61636b22207374726f6b653d22626c61636b22207374726f6b652d77696474683d2231222f3e0a3c7061746820643d224d203232392e3135373238373532353338313034203739342e38343237313234373436313920412034303020343030203020302031203230322e37393538313836353439303532203736352e37353733313336363534353832204c203134302e3935343938323338353838363234203831362e3530383737363339383534393820412034383020343830203020302030203137322e3538383734353033303435373233203835312e34313132353439363935343238205a222066696c6c3d22626c61636b22207374726f6b653d22626c61636b22207374726f6b652d77696474683d2231222f3e0a3c7061746820643d224d203238352e37323538333030323033303438203733382e3237343136393937393639353220412033323020333230203020302031203236342e36333636353439323339323432203731352e30303538353039333233363636204c203230322e37393538313836353439303532203736352e3735373331333636353435383220412034303020343030203020302030203232392e3135373238373532353338313034203739342e383432373132343734363139205a222066696c6c3d22626c61636b22207374726f6b653d22626c61636b22207374726f6b652d77696474683d2231222f3e0a3c7061746820643d224d203334322e32393433373235313532323836203638312e3730353632373438343737313420412032343020323430203020302031203332362e3437373439313139323934333135203636342e32353433383831393932373439204c203236342e36333636353439323339323432203731352e3030353835303933323336363620412033323020333230203020302030203238352e37323538333030323033303438203733382e32373431363939373936393532205a222066696c6c3d22626c61636b22207374726f6b653d22626c61636b22207374726f6b652d77696474683d2231222f3e0a3c7061746820643d224d203339382e38363239313530313031353234203632352e3133373038343938393834373620412031363020313630203020302031203338382e33313833323734363139363231203631332e35303239323534363631383333204c203332362e3437373439313139323934333135203636342e3235343338383139393237343920412032343020323430203020302030203334322e32393433373235313532323836203638312e37303536323734383437373134205a222066696c6c3d22626c61636b22207374726f6b653d22626c61636b22207374726f6b652d77696474683d2231222f3e0a3c7061746820643d224d203230322e3739353831383635343930353336203736352e3735373331333636353435383420412034303020343030203020302031203137392e3431323135353037383938313938203733342e323238303933323037383431204c203131322e3839343538363039343737383339203737382e3637333731313834393430393220412034383020343830203020302030203134302e39353439383233383538383634203831362e3530383737363339383535205a222066696c6c3d22626c61636b22207374726f6b653d22626c61636b22207374726f6b652d77696474683d2231222f3e0a3c7061746820643d224d203236342e3633363635343932333932343235203731352e3030353835303933323336363720412033323020333230203020302031203234352e3932393732343036333138353537203638392e37383234373435363632373239204c203137392e3431323135353037383938313938203733342e32323830393332303738343120412034303020343030203020302030203230322e3739353831383635343930353336203736352e37353733313336363534353834205a222066696c6c3d22626c61636b22207374726f6b653d22626c61636b22207374726f6b652d77696474683d2231222f3e0a3c7061746820643d224d203332362e34373734393131393239343332203636342e32353433383831393932373520412032343020323430203020302031203331322e3434373239333034373338393137203634352e33333638353539323437303437204c203234352e3932393732343036333138353537203638392e3738323437343536363237323920412033323020333230203020302030203236342e3633363635343932333932343235203731352e30303538353039333233363637205a222066696c6c3d22626c61636b22207374726f6b653d22626c61636b22207374726f6b652d77696474683d2231222f3e0a3c7061746820643d224d203338382e33313833323734363139363231203631332e3530323932353436363138333320412031363020313630203020302031203337382e39363438363230333135393238203630302e38393132333732383331333634204c203331322e3434373239333034373338393137203634352e3333363835353932343730343720412032343020323430203020302030203332362e34373734393131393239343332203636342e323534333838313939323735205a222066696c6c3d22626c61636b22207374726f6b653d22626c61636b22207374726f6b652d77696474683d2231222f3e0a3c7061746820643d224d203137392e3431323135353037383938313837203733342e3232383039333230373834303920412034303020343030203020302031203135392e3233313439343236303635373934203730302e353538363934373330333939204c2038382e3637373739333131323738393532203733382e3237303433333637363437383820412034383020343830203020302030203131322e3839343538363039343737383232203737382e36373337313138343934303931205a222066696c6c3d22626c61636b22207374726f6b653d22626c61636b22207374726f6b652d77696474683d2231222f3e0a3c7061746820643d224d203234352e3932393732343036333138353532203638392e3738323437343536363237323620412033323020333230203020302031203232392e3738353139353430383532363336203636322e38343639353537383433313931204c203135392e3233313439343236303635373934203730302e35353836393437333033393920412034303020343030203020302030203137392e3431323135353037383938313837203733342e32323830393332303738343039205a222066696c6c3d22626c61636b22207374726f6b653d22626c61636b22207374726f6b652d77696474683d2231222f3e0a3c7061746820643d224d203331322e34343732393330343733383931203634352e3333363835353932343730343520412032343020323430203020302031203330302e3333383839363535363339343733203632352e31333532313638333832333933204c203232392e3738353139353430383532363336203636322e3834363935353738343331393120412033323020333230203020302030203234352e3932393732343036333138353532203638392e37383234373435363632373236205a222066696c6c3d22626c61636b22207374726f6b653d22626c61636b22207374726f6b652d77696474683d2231222f3e0a3c7061746820643d224d203337382e3936343836323033313539323736203630302e3839313233373238333133363320412031363020313630203020302031203337302e3839323539373730343236333135203538372e34323334373738393231353936204c203330302e3333383839363535363339343733203632352e3133353231363833383233393320412032343020323430203020302030203331322e34343732393330343733383931203634352e33333638353539323437303435205a222066696c6c3d22626c61636b22207374726f6b653d22626c61636b22207374726f6b652d77696474683d2231222f3e0a3c7061746820643d224d203135392e323331343934323630363538203730302e3535383639343733303339393120412034303020343030203020302031203134322e34343831383639393534383533203636352e303733333732393436303336204c2036382e3533373832343339343538323334203639352e36383830343735333532343332204120343830203438302030203020302038382e3637373739333131323738393633203733382e32373034333336373634373839205a222066696c6c3d22626c61636b22207374726f6b653d22626c61636b22207374726f6b652d77696474683d2231222f3e0a3c7061746820643d224d203232392e3738353139353430383532363432203636322e3834363935353738343331393320412033323020333230203020302031203231362e3335383534393539363338383233203633342e34353836393833353638323838204c203134322e34343831383639393534383533203636352e30373333373239343630333620412034303020343030203020302030203135392e323331343934323630363538203730302e35353836393437333033393931205a222066696c6c3d22626c61636b22207374726f6b653d22626c61636b22207374726f6b652d77696474683d2231222f3e0a3c7061746820643d224d203330302e3333383839363535363339343834203632352e3133353231363833383233393420412032343020323430203020302031203239302e32363839313231393732393132203630332e38343430323337363736323136204c203231362e3335383534393539363338383233203633342e3435383639383335363832383820412033323020333230203020302030203232392e3738353139353430383532363432203636322e38343639353537383433313933205a222066696c6c3d22626c61636b22207374726f6b653d22626c61636b22207374726f6b652d77696474683d2231222f3e0a3c7061746820643d224d203337302e38393235393737303432363332203538372e3432333437373839323135393720412031363020313630203020302031203336342e31373932373437393831393431203537332e32323933343931373834313434204c203239302e32363839313231393732393132203630332e3834343032333736373632313620412032343020323430203020302030203330302e3333383839363535363339343834203632352e31333532313638333832333934205a222066696c6c3d22626c61636b22207374726f6b653d22626c61636b22207374726f6b652d77696474683d2231222f3e0a3c7061746820643d224d203134322e34343831383639393534383534203636352e3037333337323934363033363120412034303020343030203020302031203132392e32323338363537303731313635203632382e313133383730393031373835204c2035322e3636383633383834383533393834203635312e33333636343530383231343231204120343830203438302030203020302036382e3533373832343339343538323436203639352e36383830343735333532343333205a222066696c6c3d22626c61636b22207374726f6b653d22626c61636b22207374726f6b652d77696474683d2231222f3e0a3c7061746820643d224d203231362e3335383534393539363338383334203633342e3435383639383335363832383920412033323020333230203020302031203230352e37373930393235363536393332203630342e38393130393637323134323831204c203132392e32323338363537303731313635203632382e31313338373039303137383520412034303020343030203020302030203134322e34343831383639393534383534203636352e30373333373239343630333631205a222066696c6c3d22626c61636b22207374726f6b653d22626c61636b22207374726f6b652d77696474683d2231222f3e0a3c7061746820643d224d203239302e3236383931323139373239313233203630332e3834343032333736373632313720412032343020323430203020302031203238322e33333433313934323432363939203538312e36363833323235343130373131204c203230352e37373930393235363536393332203630342e3839313039363732313432383120412033323020333230203020302030203231362e3335383534393539363338383334203633342e34353836393833353638323839205a222066696c6c3d22626c61636b22207374726f6b653d22626c61636b22207374726f6b652d77696474683d2231222f3e0a3c7061746820643d224d203336342e31373932373437393831393432203537332e3232393334393137383431343420412031363020313630203020302031203335382e38383935343632383238343636203535382e343435353438333630373134204c203238322e33333433313934323432363939203538312e3636383332323534313037313120412032343020323430203020302030203239302e3236383931323139373239313233203630332e38343430323337363736323137205a222066696c6c3d22626c61636b22207374726f6b653d22626c61636b22207374726f6b652d77696474683d2231222f3e0a3c7061746820643d224d203132392e32323338363537303731313635203632382e3131333837303930313738343920412034303020343030203020302031203131392e36383538383738333837303738203539302e30333631323838303634353133204c2034312e3232333036353430363434393339203630352e36343333353435363737343135204120343830203438302030203020302035322e363638363338383438353339373836203635312e33333636343530383231343139205a222066696c6c3d22626c61636b22207374726f6b653d22626c61636b22207374726f6b652d77696474683d2231222f3e0a3c7061746820643d224d203230352e37373930393235363536393332203630342e38393130393637323134323820412033323020333230203020302031203139382e3134383731303237303936363236203537342e34323839303330343531363131204c203131392e36383538383738333837303738203539302e3033363132383830363435313320412034303020343030203020302030203132392e32323338363537303731313635203632382e31313338373039303137383439205a222066696c6c3d22626c61636b22207374726f6b653d22626c61636b22207374726f6b652d77696474683d2231222f3e0a3c7061746820643d224d203238322e33333433313934323432363939203538312e36363833323235343130373120412032343020323430203020302031203237362e36313135333237303332323437203535382e38323136373732383338373037204c203139382e3134383731303237303936363236203537342e3432383930333034353136313120412033323020333230203020302030203230352e37373930393235363536393332203630342e383931303936373231343238205a222066696c6c3d22626c61636b22207374726f6b653d22626c61636b22207374726f6b652d77696474683d2231222f3e0a3c7061746820643d224d203335382e38383935343632383238343636203535382e3434353534383336303731333920412031363020313630203020302031203335352e3037343335353133353438333133203534332e32313434353135323235383035204c203237362e36313135333237303332323437203535382e3832313637373238333837303720412032343020323430203020302030203238322e33333433313934323432363939203538312e363638333232353431303731205a222066696c6c3d22626c61636b22207374726f6b653d22626c61636b22207374726f6b652d77696474683d2231222f3e0a3c7061746820643d224d203131392e36383538383738333837303738203539302e3033363132383830363435313420412034303020343030203020302031203131332e3932363130393333313132313237203535312e32303638353631333138323433204c2033342e3331313333313139373334353531203535392e30343832323733353831383933204120343830203438302030203020302034312e3232333036353430363434393339203630352e36343333353435363737343138205a222066696c6c3d22626c61636b22207374726f6b653d22626c61636b22207374726f6b652d77696474683d2231222f3e0a3c7061746820643d224d203139382e3134383731303237303936363236203537342e3432383930333034353136313220412033323020333230203020302031203139332e3534303838373436343839373033203534332e33363534383439303534353934204c203131332e3932363130393333313132313237203535312e3230363835363133313832343320412034303020343030203020302030203131392e36383538383738333837303738203539302e30333631323838303634353134205a222066696c6c3d22626c61636b22207374726f6b653d22626c61636b22207374726f6b652d77696474683d2231222f3e0a3c7061746820643d224d203237362e36313135333237303332323437203535382e3832313637373238333837303820412032343020323430203020302031203237332e31353536363535393836373237203533352e35323431313336373930393436204c203139332e3534303838373436343839373033203534332e3336353438343930353435393420412033323020333230203020302030203139382e3134383731303237303936363236203537342e34323839303330343531363132205a222066696c6c3d22626c61636b22207374726f6b653d22626c61636b22207374726f6b652d77696474683d2231222f3e0a3c7061746820643d224d203335352e3037343335353133353438333133203534332e3231343435313532323538303620412031363020313630203020302031203335322e37373034343337333234343835203532372e36383237343234353237323937204c203237332e31353536363535393836373237203533352e3532343131333637393039343620412032343020323430203020302030203237362e36313135333237303332323437203535382e38323136373732383338373038205a222066696c6c3d22626c61636b22207374726f6b653d22626c61636b22207374726f6b652d77696474683d2231222f3e0a3c7061746820643d224d203131332e3932363130393333313132313231203535312e323036383536313331383234312041203430302034303020302030203120313132203531312e39393939393939393939393939204c203332203531312e3939393939393939393939393833204120343830203438302030203020302033342e3331313333313139373334353435203535392e303438323237333538313839205a222066696c6c3d22626c61636b22207374726f6b653d22626c61636b22207374726f6b652d77696474683d2231222f3e0a3c7061746820643d224d203139332e3534303838373436343839363937203534332e333635343834393035343539332041203332302033323020302030203120313932203531312e39393939393939393939393939204c20313132203531312e3939393939393939393939393920412034303020343030203020302030203131332e3932363130393333313132313231203535312e32303638353631333138323431205a222066696c6c3d22626c61636b22207374726f6b653d22626c61636b22207374726f6b652d77696474683d2231222f3e0a3c7061746820643d224d203237332e31353536363535393836373237203533352e353234313133363739303934352041203234302032343020302030203120323732203531312e3939393939393939393939393934204c20313932203531312e3939393939393939393939393920412033323020333230203020302030203139332e3534303838373436343839363937203534332e33363534383439303534353933205a222066696c6c3d22626c61636b22207374726f6b653d22626c61636b22207374726f6b652d77696474683d2231222f3e0a3c7061746820643d224d203335322e37373034343337333234343835203532372e363832373432343532373239372041203136302031363020302030203120333532203531312e3939393939393939393939393934204c20323732203531312e393939393939393939393939393420412032343020323430203020302030203237332e31353536363535393836373237203533352e35323431313336373930393435205a222066696c6c3d22626c61636b22207374726f6b653d22626c61636b22207374726f6b652d77696474683d2231222f3e0a3c7061746820643d224d203131322035313220412034303020343030203020302031203131332e3932363130393333313132313231203437322e37393331343338363831373538204c2033342e3331313333313139373334353435203436342e3935313737323634313831303920412034383020343830203020302030203332203531322e30303030303030303030303031205a222066696c6c3d22626c61636b22207374726f6b653d22626c61636b22207374726f6b652d77696474683d2231222f3e0a3c7061746820643d224d203139322035313220412033323020333230203020302031203139332e3534303838373436343839363937203438302e3633343531353039343534303633204c203131332e3932363130393333313132313231203437322e37393331343338363831373538204120343030203430302030203020302031313220353132205a222066696c6c3d22626c61636b22207374726f6b653d22626c61636b22207374726f6b652d77696474683d2231222f3e0a3c7061746820643d224d203237322035313220412032343020323430203020302031203237332e31353536363535393836373237203438382e34373538383633323039303535204c203139332e3534303838373436343839363937203438302e3633343531353039343534303633204120333230203332302030203020302031393220353132205a222066696c6c3d22626c61636b22207374726f6b653d22626c61636b22207374726f6b652d77696474683d2231222f3e0a3c7061746820643d224d203335322035313220412031363020313630203020302031203335322e37373034343337333234343835203439362e33313732353735343732373033204c203237332e31353536363535393836373237203438382e34373538383633323039303535204120323430203234302030203020302032373220353132205a222066696c6c3d22626c61636b22207374726f6b653d22626c61636b22207374726f6b652d77696474683d2231222f3e0a3c7061746820643d224d203131332e3932363130393333313132313231203437322e373933313433383638313735393520412034303020343030203020302031203131392e36383538383738333837303738203433332e39363338373131393335343838204c2034312e3232333036353430363434393334203431382e33353636343534333232353836204120343830203438302030203020302033342e3331313333313139373334353435203436342e3935313737323634313831313135205a222066696c6c3d22626c61636b22207374726f6b653d22626c61636b22207374726f6b652d77696474683d2231222f3e0a3c7061746820643d224d203139332e3534303838373436343839363937203438302e363334353135303934353430373520412033323020333230203020302031203139382e31343837313032373039363632203434392e3537313039363935343833393035204c203131392e36383538383738333837303738203433332e3936333837313139333534383820412034303020343030203020302030203131332e3932363130393333313132313231203437322e3739333134333836383137353935205a222066696c6c3d22626c61636b22207374726f6b653d22626c61636b22207374726f6b652d77696474683d2231222f3e0a3c7061746820643d224d203237332e31353536363535393836373237203438382e343735383836333230393035353420412032343020323430203020302031203237362e3631313533323730333232343637203436352e31373833323237313631323933204c203139382e31343837313032373039363632203434392e353731303936393534383339303520412033323020333230203020302030203139332e3534303838373436343839363937203438302e3633343531353039343534303735205a222066696c6c3d22626c61636b22207374726f6b653d22626c61636b22207374726f6b652d77696474683d2231222f3e0a3c7061746820643d224d203335322e37373034343337333234343835203439362e3331373235373534373237303420412031363020313630203020302031203335352e30373433353531333534383331203438302e37383535343834373734313935204c203237362e3631313533323730333232343637203436352e3137383332323731363132393320412032343020323430203020302030203237332e31353536363535393836373237203438382e3437353838363332303930353534205a222066696c6c3d22626c61636b22207374726f6b653d22626c61636b22207374726f6b652d77696474683d2231222f3e0a3c7061746820643d224d203131392e36383538383738333837303738203433332e393633383731313933353438363420412034303020343030203020302031203132392e32323338363537303731313635203339352e3838363132393039383231343935204c2035322e363638363338383438353339373836203337322e363633333534393137383538204120343830203438302030203020302034312e3232333036353430363434393339203431382e33353636343534333232353834205a222066696c6c3d22626c61636b22207374726f6b653d22626c61636b22207374726f6b652d77696474683d2231222f3e0a3c7061746820643d224d203139382e3134383731303237303936363236203434392e353731303936393534383338393420412033323020333230203020302031203230352e37373930393235363536393332203431392e313038393033323738353732204c203132392e32323338363537303731313635203339352e383836313239303938323134393520412034303020343030203020302030203131392e36383538383738333837303738203433332e3936333837313139333534383634205a222066696c6c3d22626c61636b22207374726f6b653d22626c61636b22207374726f6b652d77696474683d2231222f3e0a3c7061746820643d224d203237362e36313135333237303332323437203436352e3137383332323731363132393220412032343020323430203020302031203238322e33333433313934323432363939203434322e333331363737343538393239204c203230352e37373930393235363536393332203431392e31303839303332373835373220412033323020333230203020302030203139382e3134383731303237303936363236203434392e3537313039363935343833383934205a222066696c6c3d22626c61636b22207374726f6b653d22626c61636b22207374726f6b652d77696474683d2231222f3e0a3c7061746820643d224d203335352e3037343335353133353438333133203438302e373835353438343737343139343720412031363020313630203020302031203335382e38383935343632383238343636203436352e353534343531363339323836204c203238322e33333433313934323432363939203434322e33333136373734353839323920412032343020323430203020302030203237362e36313135333237303332323437203436352e31373833323237313631323932205a222066696c6c3d22626c61636b22207374726f6b653d22626c61636b22207374726f6b652d77696474683d2231222f3e0a3c7061746820643d224d203132392e3232333836353730373131363433203339352e3838363132393039383231353120412034303020343030203020302031203134322e34343831383639393534383533203335382e39323636323730353339363431204c2036382e3533373832343339343538323334203332382e33313139353234363437353639204120343830203438302030203020302035322e3636383633383834383533393733203337322e3636333335343931373835383136205a222066696c6c3d22626c61636b22207374726f6b653d22626c61636b22207374726f6b652d77696474683d2231222f3e0a3c7061746820643d224d203230352e3737393039323536353639333133203431392e313038393033323738353732313420412033323020333230203020302031203231362e3335383534393539363338383233203338392e35343133303136343331373133204c203134322e34343831383639393534383533203335382e3932363632373035333936343120412034303020343030203020302030203132392e3232333836353730373131363433203339352e38383631323930393832313531205a222066696c6c3d22626c61636b22207374726f6b653d22626c61636b22207374726f6b652d77696474683d2231222f3e0a3c7061746820643d224d203238322e33333433313934323432363939203434322e3333313637373435383932393120412032343020323430203020302031203239302e32363839313231393732393132203432302e3135353937363233323337383436204c203231362e3335383534393539363338383233203338392e3534313330313634333137313320412033323020333230203020302030203230352e3737393039323536353639333133203431392e3130383930333237383537323134205a222066696c6c3d22626c61636b22207374726f6b653d22626c61636b22207374726f6b652d77696474683d2231222f3e0a3c7061746820643d224d203335382e38383935343632383238343636203436352e353534343531363339323836303720412031363020313630203020302031203336342e31373932373437393831393431203435302e3737303635303832313538353636204c203239302e32363839313231393732393132203432302e313535393736323332333738343620412032343020323430203020302030203238322e33333433313934323432363939203434322e33333136373734353839323931205a222066696c6c3d22626c61636b22207374726f6b653d22626c61636b22207374726f6b652d77696474683d2231222f3e0a3c7061746820643d224d203134322e3434383138363939353438353334203335382e39323636323730353339363420412034303020343030203020302031203135392e3233313439343236303635383035203332332e34343133303532363936303038204c2038382e3637373739333131323738393639203238352e3732393536363332333532303934204120343830203438302030203020302036382e35333738323433393435383234203332382e3331313935323436343735363736205a222066696c6c3d22626c61636b22207374726f6b653d22626c61636b22207374726f6b652d77696474683d2231222f3e0a3c7061746820643d224d203231362e33353835343935393633383833203338392e3534313330313634333137313220412033323020333230203020302031203232392e3738353139353430383532363438203336312e3135333034343231353638303637204c203135392e3233313439343236303635383035203332332e3434313330353236393630303820412034303020343030203020302030203134322e3434383138363939353438353334203335382e393236363237303533393634205a222066696c6c3d22626c61636b22207374726f6b653d22626c61636b22207374726f6b652d77696474683d2231222f3e0a3c7061746820643d224d203239302e3236383931323139373239313233203432302e3135353937363233323337383420412032343020323430203020302031203330302e3333383839363535363339343834203339382e3836343738333136313736303434204c203232392e3738353139353430383532363438203336312e313533303434323135363830363720412033323020333230203020302030203231362e33353835343935393633383833203338392e35343133303136343331373132205a222066696c6c3d22626c61636b22207374726f6b653d22626c61636b22207374726f6b652d77696474683d2231222f3e0a3c7061746820643d224d203336342e31373932373437393831393431203435302e3737303635303832313538353620412031363020313630203020302031203337302e3839323539373730343236333237203433362e3537363532323130373834303333204c203330302e3333383839363535363339343834203339382e383634373833313631373630343420412032343020323430203020302030203239302e3236383931323139373239313233203432302e31353539373632333233373834205a222066696c6c3d22626c61636b22207374726f6b653d22626c61636b22207374726f6b652d77696474683d2231222f3e0a3c7061746820643d224d203135392e323331343934323630363538203332332e343431333035323639363030393520412034303020343030203020302031203137392e3431323135353037383938313933203238392e37373139303637393231353931204c203131322e3839343538363039343737383333203234352e3332363238383135303539303933204120343830203438302030203020302038382e3637373739333131323738393537203238352e37323935363633323335323131205a222066696c6c3d22626c61636b22207374726f6b653d22626c61636b22207374726f6b652d77696474683d2231222f3e0a3c7061746820643d224d203232392e3738353139353430383532363336203336312e3135333034343231353638303820412033323020333230203020302031203234352e3932393732343036333138353537203333342e3231373532353433333732373235204c203137392e3431323135353037383938313933203238392e3737313930363739323135393120412034303020343030203020302030203135392e323331343934323630363538203332332e3434313330353236393630303935205a222066696c6c3d22626c61636b22207374726f6b653d22626c61636b22207374726f6b652d77696474683d2231222f3e0a3c7061746820643d224d203330302e33333838393635353633393438203339382e383634373833313631373630353620412032343020323430203020302031203331322e3434373239333034373338393137203337382e3636333134343037353239353436204c203234352e3932393732343036333138353537203333342e323137353235343333373237323520412033323020333230203020302030203232392e3738353139353430383532363336203336312e31353330343432313536383038205a222066696c6c3d22626c61636b22207374726f6b653d22626c61636b22207374726f6b652d77696474683d2231222f3e0a3c7061746820643d224d203337302e3839323539373730343236333135203433362e3537363532323130373834303420412031363020313630203020302031203337382e39363438363230333135393238203432332e31303837363237313638363336204c203331322e3434373239333034373338393137203337382e363633313434303735323935343620412032343020323430203020302030203330302e33333838393635353633393438203339382e3836343738333136313736303536205a222066696c6c3d22626c61636b22207374726f6b653d22626c61636b22207374726f6b652d77696474683d2231222f3e0a3c7061746820643d224d203137392e34313231353530373839383138203238392e373731393036373932313539323620412034303020343030203020302031203230322e3739353831383635343930353133203235382e32343236383633333435343139204c203134302e3935343938323338353838363138203230372e343931323233363031343530323620412034383020343830203020302030203131322e3839343538363039343737383136203234352e3332363238383135303539313034205a222066696c6c3d22626c61636b22207374726f6b653d22626c61636b22207374726f6b652d77696474683d2231222f3e0a3c7061746820643d224d203234352e3932393732343036333138353436203333342e323137353235343333373237333620412033323020333230203020302031203236342e3633363635343932333932343134203330382e3939343134393036373633333534204c203230322e3739353831383635343930353133203235382e3234323638363333343534313920412034303020343030203020302030203137392e34313231353530373839383138203238392e3737313930363739323135393236205a222066696c6c3d22626c61636b22207374726f6b653d22626c61636b22207374726f6b652d77696474683d2231222f3e0a3c7061746820643d224d203331322e3434373239333034373338393035203337382e3636333134343037353239353520412032343020323430203020302031203332362e34373734393131393239343331203335392e37343536313138303037323531204c203236342e3633363635343932333932343134203330382e393934313439303637363333353420412033323020333230203020302030203234352e3932393732343036333138353436203333342e3231373532353433333732373336205a222066696c6c3d22626c61636b22207374726f6b653d22626c61636b22207374726f6b652d77696474683d2231222f3e0a3c7061746820643d224d203337382e39363438363230333135393237203432332e3130383736323731363836333720412031363020313630203020302031203338382e33313833323734363139363231203431302e34393730373435333338313638204c203332362e34373734393131393239343331203335392e3734353631313830303732353120412032343020323430203020302030203331322e3434373239333034373338393035203337382e36363331343430373532393535205a222066696c6c3d22626c61636b22207374726f6b653d22626c61636b22207374726f6b652d77696474683d2231222f3e0a3c7061746820643d224d203230322e3739353831383635343930353235203235382e3234323638363333343534313720412034303020343030203020302031203232392e3135373238373532353338313034203232392e3135373238373532353338303932204c203137322e35383837343530333034353733203137322e353838373435303330343537313220412034383020343830203020302030203134302e39353439383233383538383633203230372e34393132323336303134353031205a222066696c6c3d22626c61636b22207374726f6b653d22626c61636b22207374726f6b652d77696474683d2231222f3e0a3c7061746820643d224d203236342e36333636353439323339323432203330382e3939343134393036373633333420412033323020333230203020302031203238352e3732353833303032303330343834203238352e37323538333030323033303437204c203232392e3135373238373532353338313034203232392e313537323837353235333830393220412034303020343030203020302030203230322e3739353831383635343930353235203235382e32343236383633333435343137205a222066696c6c3d22626c61636b22207374726f6b653d22626c61636b22207374726f6b652d77696474683d2231222f3e0a3c7061746820643d224d203332362e3437373439313139323934333135203335392e373435363131383030373235303420412032343020323430203020302031203334322e3239343337323531353232383634203334322e32393433373235313532323836204c203238352e3732353833303032303330343834203238352e3732353833303032303330343720412033323020333230203020302030203236342e36333636353439323339323432203330382e39393431343930363736333334205a222066696c6c3d22626c61636b22207374726f6b653d22626c61636b22207374726f6b652d77696474683d2231222f3e0a3c7061746820643d224d203338382e33313833323734363139363231203431302e343937303734353333383136363620412031363020313630203020302031203339382e38363239313530313031353234203339382e38363239313530313031353234204c203334322e3239343337323531353232383634203334322e3239343337323531353232383620412032343020323430203020302030203332362e3437373439313139323934333135203335392e3734353631313830303732353034205a222066696c6c3d22626c61636b22207374726f6b653d22626c61636b22207374726f6b652d77696474683d2231222f3e0a3c7061746820643d224d203232392e3135373238373532353338303932203232392e313537323837353235333831303420412034303020343030203020302031203235382e3234323638363333343534313635203230322e3739353831383635343930353336204c203230372e3439313232333630313434393937203134302e3935343938323338353838363420412034383020343830203020302030203137322e3538383734353033303435373132203137322e3538383734353033303435373233205a222066696c6c3d22626c61636b22207374726f6b653d22626c61636b22207374726f6b652d77696474683d2231222f3e0a3c7061746820643d224d203238352e37323538333030323033303437203238352e3732353833303032303330343820412033323020333230203020302031203330382e39393431343930363736333333203236342e3633363635343932333932343235204c203235382e3234323638363333343534313635203230322e373935383138363534393035333620412034303020343030203020302030203232392e3135373238373532353338303932203232392e3135373238373532353338313034205a222066696c6c3d22626c61636b22207374726f6b653d22626c61636b22207374726f6b652d77696474683d2231222f3e0a3c7061746820643d224d203334322e32393433373235313532323836203334322e3239343337323531353232383620412032343020323430203020302031203335392e373435363131383030373235203332362e34373734393131393239343332204c203330382e39393431343930363736333333203236342e363336363534393233393234323520412033323020333230203020302030203238352e37323538333030323033303437203238352e37323538333030323033303438205a222066696c6c3d22626c61636b22207374726f6b653d22626c61636b22207374726f6b652d77696474683d2231222f3e0a3c7061746820643d224d203339382e38363239313530313031353234203339382e3836323931353031303135323420412031363020313630203020302031203431302e3439373037343533333831363636203338382e33313833323734363139363231204c203335392e373435363131383030373235203332362e3437373439313139323934333220412032343020323430203020302030203334322e32393433373235313532323836203334322e32393433373235313532323836205a222066696c6c3d22626c61636b22207374726f6b653d22626c61636b22207374726f6b652d77696474683d2231222f3e0a3c7061746820643d224d203235382e3234323638363333343534313635203230322e373935383138363534393035333620412034303020343030203020302031203238392e37373139303637393231353838203137392e3431323135353037383938323135204c203234352e3332363238383135303539303539203131322e383934353836303934373738353620412034383020343830203020302030203230372e3439313232333630313434393937203134302e39353439383233383538383634205a222066696c6c3d22626c61636b22207374726f6b653d22626c61636b22207374726f6b652d77696474683d2231222f3e0a3c7061746820643d224d203330382e39393431343930363736333333203236342e363336363534393233393234323520412033323020333230203020302031203333342e323137353235343333373237203234352e39323937323430363331383537204c203238392e37373139303637393231353838203137392e343132313535303738393832313520412034303020343030203020302030203235382e3234323638363333343534313635203230322e3739353831383635343930353336205a222066696c6c3d22626c61636b22207374726f6b653d22626c61636b22207374726f6b652d77696474683d2231222f3e0a3c7061746820643d224d203335392e373435363131383030373235203332362e3437373439313139323934333220412032343020323430203020302031203337382e36363331343430373532393533203331322e34343732393330343733383933204c203333342e323137353235343333373237203234352e3932393732343036333138353720412033323020333230203020302030203330382e39393431343930363736333333203236342e3633363635343932333932343235205a222066696c6c3d22626c61636b22207374726f6b653d22626c61636b22207374726f6b652d77696474683d2231222f3e0a3c7061746820643d224d203431302e3439373037343533333831363636203338382e3331383332373436313936323120412031363020313630203020302031203432332e31303837363237313638363335203337382e39363438363230333135393238204c203337382e36363331343430373532393533203331322e3434373239333034373338393320412032343020323430203020302030203335392e373435363131383030373235203332362e34373734393131393239343332205a222066696c6c3d22626c61636b22207374726f6b653d22626c61636b22207374726f6b652d77696474683d2231222f3e0a3c7061746820643d224d203238392e3737313930363739323135393134203137392e343132313535303738393831393320412034303020343030203020302031203332332e34343133303532363936303039203135392e323331343934323630363538204c203238352e3732393536363332333532312038382e363737373933313132373839363320412034383020343830203020302030203234352e3332363238383135303539303933203131322e3839343538363039343737383238205a222066696c6c3d22626c61636b22207374726f6b653d22626c61636b22207374726f6b652d77696474683d2231222f3e0a3c7061746820643d224d203333342e32313735323534333337323733203234352e393239373234303633313835353220412033323020333230203020302031203336312e3135333034343231353638303637203232392e3738353139353430383532363432204c203332332e34343133303532363936303039203135392e32333134393432363036353820412034303020343030203020302030203238392e3737313930363739323135393134203137392e3431323135353037383938313933205a222066696c6c3d22626c61636b22207374726f6b653d22626c61636b22207374726f6b652d77696474683d2231222f3e0a3c7061746820643d224d203337382e3636333134343037353239353436203331322e343437323933303437333839313720412032343020323430203020302031203339382e38363437383331363137363035203330302e3333383839363535363339343834204c203336312e3135333034343231353638303637203232392e373835313935343038353236343220412033323020333230203020302030203333342e32313735323534333337323733203234352e3932393732343036333138353532205a222066696c6c3d22626c61636b22207374726f6b653d22626c61636b22207374726f6b652d77696474683d2231222f3e0a3c7061746820643d224d203432332e31303837363237313638363337203337382e393634383632303331353932373620412031363020313630203020302031203433362e3537363532323130373834303333203337302e38393235393737303432363332204c203339382e38363437383331363137363035203330302e333338383936353536333934383420412032343020323430203020302030203337382e3636333134343037353239353436203331322e3434373239333034373338393137205a222066696c6c3d22626c61636b22207374726f6b653d22626c61636b22207374726f6b652d77696474683d2231222f3e0a3c7061746820643d224d203332332e34343133303532363936303039203135392e32333134393432363036353820412034303020343030203020302031203335382e39323636323730353339363339203134322e34343831383639393534383534204c203332382e33313139353234363437353636342036382e353337383234333934353832343620412034383020343830203020302030203238352e3732393536363332333532312038382e3637373739333131323738393633205a222066696c6c3d22626c61636b22207374726f6b653d22626c61636b22207374726f6b652d77696474683d2231222f3e0a3c7061746820643d224d203336312e3135333034343231353638303637203232392e373835313935343038353236343220412033323020333230203020302031203338392e35343133303136343331373131203231362e3335383534393539363338383334204c203335382e39323636323730353339363339203134322e3434383138363939353438353420412034303020343030203020302030203332332e34343133303532363936303039203135392e323331343934323630363538205a222066696c6c3d22626c61636b22207374726f6b653d22626c61636b22207374726f6b652d77696474683d2231222f3e0a3c7061746820643d224d203339382e38363437383331363137363035203330302e333338383936353536333934383420412032343020323430203020302031203432302e31353539373632333233373833203239302e3236383931323139373239313233204c203338392e35343133303136343331373131203231362e333538353439353936333838333420412033323020333230203020302030203336312e3135333034343231353638303637203232392e3738353139353430383532363432205a222066696c6c3d22626c61636b22207374726f6b653d22626c61636b22207374726f6b652d77696474683d2231222f3e0a3c7061746820643d224d203433362e3537363532323130373834303333203337302e3839323539373730343236333220412031363020313630203020302031203435302e3737303635303832313538353535203336342e31373932373437393831393432204c203432302e31353539373632333233373833203239302e323638393132313937323931323320412032343020323430203020302030203339382e38363437383331363137363035203330302e3333383839363535363339343834205a222066696c6c3d22626c61636b22207374726f6b653d22626c61636b22207374726f6b652d77696474683d2231222f3e0a3c7061746820643d224d203335382e39323636323730353339363339203134322e3434383138363939353438353420412034303020343030203020302031203339352e38383631323930393832313437203132392e3232333836353730373131363534204c203337322e36363333353439313738353736352035322e3636383633383834383533393920412034383020343830203020302030203332382e33313139353234363437353636342036382e3533373832343339343538323436205a222066696c6c3d22626c61636b22207374726f6b653d22626c61636b22207374726f6b652d77696474683d2231222f3e0a3c7061746820643d224d203338392e35343133303136343331373131203231362e333538353439353936333838333420412033323020333230203020302031203431392e3130383930333237383537313734203230352e3737393039323536353639333235204c203339352e38383631323930393832313437203132392e323233383635373037313136353420412034303020343030203020302030203335382e39323636323730353339363339203134322e34343831383639393534383534205a222066696c6c3d22626c61636b22207374726f6b653d22626c61636b22207374726f6b652d77696474683d2231222f3e0a3c7061746820643d224d203432302e31353539373632333233373833203239302e323638393132313937323931323320412032343020323430203020302031203434322e33333136373734353839323838203238322e3333343331393432343236393935204c203431392e3130383930333237383537313734203230352e373739303932353635363933323520412033323020333230203020302030203338392e35343133303136343331373131203231362e3335383534393539363338383334205a222066696c6c3d22626c61636b22207374726f6b653d22626c61636b22207374726f6b652d77696474683d2231222f3e0a3c7061746820643d224d203435302e3737303635303832313538353535203336342e3137393237343739383139343220412031363020313630203020302031203436352e3535343435313633393238353834203335382e38383935343632383238343636204c203434322e33333136373734353839323838203238322e333334333139343234323639393520412032343020323430203020302030203432302e31353539373632333233373833203239302e3236383931323139373239313233205a222066696c6c3d22626c61636b22207374726f6b653d22626c61636b22207374726f6b652d77696474683d2231222f3e0a3c7061746820643d224d203339352e3838363132393039383231353036203132392e3232333836353730373131363520412034303020343030203020302031203433332e39363338373131393335343835203131392e3638353838373833383730373836204c203431382e33353636343534333232353832332034312e323233303635343036343439343520412034383020343830203020302030203337322e36363333353439313738353830342035322e363638363338383438353339373836205a222066696c6c3d22626c61636b22207374726f6b653d22626c61636b22207374726f6b652d77696474683d2231222f3e0a3c7061746820643d224d203431392e3130383930333237383537323033203230352e3737393039323536353639333220412033323020333230203020302031203434392e35373130393639353438333838203139382e3134383731303237303936363332204c203433332e39363338373131393335343835203131392e363835383837383338373037383620412034303020343030203020302030203339352e3838363132393039383231353036203132392e32323338363537303731313635205a222066696c6c3d22626c61636b22207374726f6b653d22626c61636b22207374726f6b652d77696474683d2231222f3e0a3c7061746820643d224d203434322e333331363737343538393239203238322e3333343331393432343236393920412032343020323430203020302031203436352e31373833323237313631323931203237362e36313135333237303332323437204c203434392e35373130393639353438333838203139382e313438373130323730393636333220412033323020333230203020302030203431392e3130383930333237383537323033203230352e37373930393235363536393332205a222066696c6c3d22626c61636b22207374726f6b653d22626c61636b22207374726f6b652d77696474683d2231222f3e0a3c7061746820643d224d203436352e353534343531363339323836203335382e3838393534363238323834363620412031363020313630203020302031203438302e37383535343834373734313934203335352e30373433353531333534383332204c203436352e31373833323237313631323931203237362e3631313533323730333232343720412032343020323430203020302030203434322e333331363737343538393239203238322e33333433313934323432363939205a222066696c6c3d22626c61636b22207374726f6b653d22626c61636b22207374726f6b652d77696474683d2231222f3e0a3c7061746820643d224d203433332e39363338373131393335343835203131392e363835383837383338373037383620412034303020343030203020302031203437322e37393331343338363831373535203131332e3932363130393333313132313237204c203436342e393531373732363431383130362033342e333131333331313937333435353120412034383020343830203020302030203431382e33353636343534333232353832332034312e3232333036353430363434393435205a222066696c6c3d22626c61636b22207374726f6b653d22626c61636b22207374726f6b652d77696474683d2231222f3e0a3c7061746820643d224d203434392e35373130393639353438333838203139382e313438373130323730393636333220412033323020333230203020302031203438302e3633343531353039343534303335203139332e3534303838373436343839373033204c203437322e37393331343338363831373535203131332e393236313039333331313231323720412034303020343030203020302030203433332e39363338373131393335343835203131392e3638353838373833383730373836205a222066696c6c3d22626c61636b22207374726f6b653d22626c61636b22207374726f6b652d77696474683d2231222f3e0a3c7061746820643d224d203436352e31373833323237313631323931203237362e3631313533323730333232343720412032343020323430203020302031203438382e3437353838363332303930353236203237332e31353536363535393836373237204c203438302e3633343531353039343534303335203139332e353430383837343634383937303320412033323020333230203020302030203434392e35373130393639353438333838203139382e3134383731303237303936363332205a222066696c6c3d22626c61636b22207374726f6b653d22626c61636b22207374726f6b652d77696474683d2231222f3e0a3c7061746820643d224d203438302e37383535343834373734313934203335352e3037343335353133353438333220412031363020313630203020302031203439362e33313732353735343732373032203335322e37373034343337333234343835204c203438382e3437353838363332303930353236203237332e3135353636353539383637323720412032343020323430203020302030203436352e31373833323237313631323931203237362e36313135333237303332323437205a222066696c6c3d22626c61636b22207374726f6b653d22626c61636b22207374726f6b652d77696474683d2231222f3e0a3c7061746820643d224d203437322e3739333134333836383137353833203131332e393236313039333331313231323120412034303020343030203020302031203531312e393939393939393939393939393420313132204c203531312e3939393939393939393939393920333220412034383020343830203020302030203436342e3935313737323634313831312033342e3331313333313139373334353435205a222066696c6c3d22626c61636b22207374726f6b653d22626c61636b22207374726f6b652d77696474683d2231222f3e0a3c7061746820643d224d203438302e3633343531353039343534303633203139332e353430383837343634383936393720412033323020333230203020302031203531312e393939393939393939393939393420313932204c203531312e39393939393939393939393939342031313220412034303020343030203020302030203437322e3739333134333836383137353833203131332e3932363130393333313132313231205a222066696c6c3d22626c61636b22207374726f6b653d22626c61636b22207374726f6b652d77696474683d2231222f3e0a3c7061746820643d224d203438382e34373538383633323039303535203237332e3135353636353539383637323720412032343020323430203020302031203531312e393939393939393939393939393420323732204c203531312e39393939393939393939393939342031393220412033323020333230203020302030203438302e3633343531353039343534303633203139332e3534303838373436343839363937205a222066696c6c3d22626c61636b22207374726f6b653d22626c61636b22207374726f6b652d77696474683d2231222f3e0a3c7061746820643d224d203439362e3331373235373534373237303334203335322e3737303434333733323434383520412031363020313630203020302031203531312e393939393939393939393939393420333532204c203531312e39393939393939393939393939342032373220412032343020323430203020302030203438382e34373538383633323039303535203237332e31353536363535393836373237205a222066696c6c3d22626c61636b22207374726f6b653d22626c61636b22207374726f6b652d77696474683d2231222f3e0a0a0a0a0a0a3c2f7376673e",
			"opcodes": "PUSH1 0xA0 PUSH1 0x40 MSTORE CALLVALUE DUP1 ISZERO PUSH2 0xF JUMPI PUSH0 DUP1 REVERT JUMPDEST POP PUSH2 0x3A PUSH1 0x40 MLOAD DUP1 PUSH2 0xEB60 ADD PUSH1 0x40 MSTORE DUP1 PUSH2 0xEB28 DUP2 MSTORE PUSH1 0x20 ADD PUSH2 0x670 PUSH2 0xEB28 SWAP2 CODECOPY PUSH2 0x72 PUSH1 0x20 SHL PUSH1 0x20 SHR JUMP JUMPDEST PUSH20 0xFFFFFFFFFFFFFFFFFFFFFFFFFFFFFFFFFFFFFFFF AND PUSH1 0x80 DUP2 PUSH20 0xFFFFFFFFFFFFFFFFFFFFFFFFFFFFFFFFFFFFFFFF AND DUP2 MSTORE POP POP PUSH2 0x300 JUMP JUMPDEST PUSH0 DUP1 PUSH2 0xA2 DUP4 PUSH1 0x40 MLOAD PUSH1 0x20 ADD PUSH2 0x88 SWAP2 SWAP1 PUSH2 0x1CB JUMP JUMPDEST PUSH1 0x40 MLOAD PUSH1 0x20 DUP2 DUP4 SUB SUB DUP2 MSTORE SWAP1 PUSH1 0x40 MSTORE PUSH2 0x119 PUSH1 0x20 SHL PUSH1 0x20 SHR JUMP JUMPDEST SWAP1 POP DUP1 MLOAD PUSH1 0x20 DUP3 ADD PUSH0 CREATE SWAP2 POP PUSH0 PUSH20 0xFFFFFFFFFFFFFFFFFFFFFFFFFFFFFFFFFFFFFFFF AND DUP3 PUSH20 0xFFFFFFFFFFFFFFFFFFFFFFFFFFFFFFFFFFFFFFFF AND SUB PUSH2 0x113 JUMPI PUSH1 0x40 MLOAD PUSH32 0x8D4ABB600000000000000000000000000000000000000000000000000000000 DUP2 MSTORE PUSH1 0x4 ADD PUSH1 0x40 MLOAD DUP1 SWAP2 SUB SWAP1 REVERT JUMPDEST POP SWAP2 SWAP1 POP JUMP JUMPDEST PUSH1 0x60 DUP2 MLOAD DUP3 PUSH1 0x40 MLOAD PUSH1 0x20 ADD PUSH2 0x12F SWAP3 SWAP2 SWAP1 PUSH2 0x2C3 JUMP JUMPDEST PUSH1 0x40 MLOAD PUSH1 0x20 DUP2 DUP4 SUB SUB DUP2 MSTORE SWAP1 PUSH1 0x40 MSTORE SWAP1 POP SWAP2 SWAP1 POP JUMP JUMPDEST PUSH0 DUP2 SWAP1 POP SWAP3 SWAP2 POP POP JUMP JUMPDEST PUSH0 DUP1 DUP3 ADD MSTORE POP JUMP JUMPDEST PUSH0 PUSH2 0x163 PUSH1 0x1 DUP4 PUSH2 0x145 JUMP JUMPDEST SWAP2 POP PUSH2 0x16E DUP3 PUSH2 0x14F JUMP JUMPDEST PUSH1 0x1 DUP3 ADD SWAP1 POP SWAP2 SWAP1 POP JUMP JUMPDEST PUSH0 DUP2 MLOAD SWAP1 POP SWAP2 SWAP1 POP JUMP JUMPDEST PUSH0 DUP2 SWAP1 POP SWAP3 SWAP2 POP POP JUMP JUMPDEST DUP3 DUP2 DUP4 MCOPY PUSH0 DUP4 DUP4 ADD MSTORE POP POP POP JUMP JUMPDEST PUSH0 PUSH2 0x1A5 DUP3 PUSH2 0x179 JUMP JUMPDEST PUSH2 0x1AF DUP2 DUP6 PUSH2 0x183 JUMP JUMPDEST SWAP4 POP PUSH2 0x1BF DUP2 DUP6 PUSH1 0x20 DUP7 ADD PUSH2 0x18D JUMP JUMPDEST DUP1 DUP5 ADD SWAP2 POP POP SWAP3 SWAP2 POP POP JUMP JUMPDEST PUSH0 PUSH2 0x1D5 DUP3 PUSH2 0x157 JUMP JUMPDEST SWAP2 POP PUSH2 0x1E1 DUP3 DUP5 PUSH2 0x19B JUMP JUMPDEST SWAP2 POP DUP2 SWAP1 POP SWAP3 SWAP2 POP POP JUMP JUMPDEST PUSH32 0x6300000000000000000000000000000000000000000000000000000000000000 PUSH0 DUP3 ADD MSTORE POP JUMP JUMPDEST PUSH0 PUSH2 0x220 PUSH1 0x1 DUP4 PUSH2 0x145 JUMP JUMPDEST SWAP2 POP PUSH2 0x22B DUP3 PUSH2 0x1EC JUMP JUMPDEST PUSH1 0x1 DUP3 ADD SWAP1 POP SWAP2 SWAP1 POP JUMP JUMPDEST PUSH0 PUSH4 0xFFFFFFFF DUP3 AND SWAP1 POP SWAP2 SWAP1 POP JUMP JUMPDEST PUSH0 DUP2 PUSH1 0xE0 SHL SWAP1 POP SWAP2 SWAP1 POP JUMP JUMPDEST PUSH0 PUSH2 0x25B DUP3 PUSH2 0x245 JUMP JUMPDEST SWAP1 POP SWAP2 SWAP1 POP JUMP JUMPDEST PUSH2 0x273 PUSH2 0x26E DUP3 PUSH2 0x236 JUMP JUMPDEST PUSH2 0x251 JUMP JUMPDEST DUP3 MSTORE POP POP JUMP JUMPDEST PUSH32 0x80600E6000396000F30000000000000000000000000000000000000000000000 PUSH0 DUP3 ADD MSTORE POP JUMP JUMPDEST PUSH0 PUSH2 0x2AD PUSH1 0x9 DUP4 PUSH2 0x145 JUMP JUMPDEST SWAP2 POP PUSH2 0x2B8 DUP3 PUSH2 0x279 JUMP JUMPDEST PUSH1 0x9 DUP3 ADD SWAP1 POP SWAP2 SWAP1 POP JUMP JUMPDEST PUSH0 PUSH2 0x2CD DUP3 PUSH2 0x214 JUMP JUMPDEST SWAP2 POP PUSH2 0x2D9 DUP3 DUP6 PUSH2 0x262 JUMP JUMPDEST PUSH1 0x4 DUP3 ADD SWAP2 POP PUSH2 0x2E8 DUP3 PUSH2 0x2A1 JUMP JUMPDEST SWAP2 POP PUSH2 0x2F4 DUP3 DUP5 PUSH2 0x19B JUMP JUMPDEST SWAP2 POP DUP2 SWAP1 POP SWAP4 SWAP3 POP POP POP JUMP JUMPDEST PUSH1 0x80 MLOAD PUSH2 0x353 PUSH2 0x31D PUSH0 CODECOPY PUSH0 DUP2 DUP2 PUSH1 0x77 ADD MSTORE PUSH1 0xA2 ADD MSTORE PUSH2 0x353 PUSH0 RETURN INVALID PUSH1 0x80 PUSH1 0x40 MSTORE CALLVALUE DUP1 ISZERO PUSH2 0xF JUMPI PUSH0 DUP1 REVERT JUMPDEST POP PUSH1 0x4 CALLDATASIZE LT PUSH2 0x34 JUMPI PUSH0 CALLDATALOAD PUSH1 0xE0 SHR DUP1 PUSH4 0xC42CAD21 EQ PUSH2 0x38 JUMPI DUP1 PUSH4 0xD44BAA6F EQ PUSH2 0x56 JUMPI JUMPDEST PUSH0 DUP1 REVERT JUMPDEST PUSH2 0x40 PUSH2 0x74 JUMP JUMPDEST PUSH1 0x40 MLOAD PUSH2 0x4D SWAP2 SWAP1 PUSH2 0x227 JUMP JUMPDEST PUSH1 0x40 MLOAD DUP1 SWAP2 SUB SWAP1 RETURN JUMPDEST PUSH2 0x5E PUSH2 0x9B JUMP JUMPDEST PUSH1 0x40 MLOAD PUSH2 0x6B SWAP2 SWAP1 PUSH2 0x2B0 JUMP JUMPDEST PUSH1 0x40 MLOAD DUP1 SWAP2 SUB SWAP1 RETURN JUMPDEST PUSH0 PUSH32 0x0 SWAP1 POP SWAP1 JUMP JUMPDEST PUSH1 0x60 PUSH2 0xC6 PUSH32 0x0 PUSH2 0xCB JUMP JUMPDEST SWAP1 POP SWAP1 JUMP JUMPDEST PUSH1 0x60 PUSH2 0xF9 DUP3 PUSH1 0x1 PUSH32 0xFFFFFFFFFFFFFFFFFFFFFFFFFFFFFFFFFFFFFFFFFFFFFFFFFFFFFFFFFFFFFFFF PUSH2 0x100 JUMP JUMPDEST SWAP1 POP SWAP2 SWAP1 POP JUMP JUMPDEST PUSH1 0x60 PUSH0 PUSH2 0x10C DUP6 PUSH2 0x1DE JUMP JUMPDEST SWAP1 POP PUSH0 DUP2 SUB PUSH2 0x12C JUMPI PUSH1 0x40 MLOAD DUP1 PUSH1 0x20 ADD PUSH1 0x40 MSTORE DUP1 PUSH0 DUP2 MSTORE POP SWAP2 POP POP PUSH2 0x1D7 JUMP JUMPDEST DUP1 DUP5 GT ISZERO PUSH2 0x14B JUMPI PUSH1 0x40 MLOAD DUP1 PUSH1 0x20 ADD PUSH1 0x40 MSTORE DUP1 PUSH0 DUP2 MSTORE POP SWAP2 POP POP PUSH2 0x1D7 JUMP JUMPDEST DUP4 DUP4 LT ISZERO PUSH2 0x194 JUMPI DUP1 DUP5 DUP5 PUSH1 0x40 MLOAD PUSH32 0x2C4A89FA00000000000000000000000000000000000000000000000000000000 DUP2 MSTORE PUSH1 0x4 ADD PUSH2 0x18B SWAP4 SWAP3 SWAP2 SWAP1 PUSH2 0x2E8 JUMP JUMPDEST PUSH1 0x40 MLOAD DUP1 SWAP2 SUB SWAP1 REVERT JUMPDEST PUSH0 DUP5 DUP5 SUB SWAP1 POP PUSH0 DUP6 DUP4 SUB SWAP1 POP PUSH0 DUP3 DUP3 LT PUSH2 0x1AE JUMPI DUP3 PUSH2 0x1B0 JUMP JUMPDEST DUP2 JUMPDEST SWAP1 POP PUSH1 0x40 MLOAD SWAP5 POP PUSH1 0x1F NOT PUSH1 0x1F PUSH1 0x20 DUP4 ADD ADD AND DUP6 ADD PUSH1 0x40 MSTORE DUP1 DUP6 MSTORE DUP1 DUP8 PUSH1 0x20 DUP8 ADD DUP11 EXTCODECOPY POP POP POP POP JUMPDEST SWAP4 SWAP3 POP POP POP JUMP JUMPDEST PUSH0 DUP2 EXTCODESIZE SWAP1 POP SWAP2 SWAP1 POP JUMP JUMPDEST PUSH0 PUSH20 0xFFFFFFFFFFFFFFFFFFFFFFFFFFFFFFFFFFFFFFFF DUP3 AND SWAP1 POP SWAP2 SWAP1 POP JUMP JUMPDEST PUSH0 PUSH2 0x211 DUP3 PUSH2 0x1E8 JUMP JUMPDEST SWAP1 POP SWAP2 SWAP1 POP JUMP JUMPDEST PUSH2 0x221 DUP2 PUSH2 0x207 JUMP JUMPDEST DUP3 MSTORE POP POP JUMP JUMPDEST PUSH0 PUSH1 0x20 DUP3 ADD SWAP1 POP PUSH2 0x23A PUSH0 DUP4 ADD DUP5 PUSH2 0x218 JUMP JUMPDEST SWAP3 SWAP2 POP POP JUMP JUMPDEST PUSH0 DUP2 MLOAD SWAP1 POP SWAP2 SWAP1 POP JUMP JUMPDEST PUSH0 DUP3 DUP3 MSTORE PUSH1 0x20 DUP3 ADD SWAP1 POP SWAP3 SWAP2 POP POP JUMP JUMPDEST DUP3 DUP2 DUP4 MCOPY PUSH0 DUP4 DUP4 ADD MSTORE POP POP POP JUMP JUMPDEST PUSH0 PUSH1 0x1F NOT PUSH1 0x1F DUP4 ADD AND SWAP1 POP SWAP2 SWAP1 POP JUMP JUMPDEST PUSH0 PUSH2 0x282 DUP3 PUSH2 0x240 JUMP JUMPDEST PUSH2 0x28C DUP2 DUP6 PUSH2 0x24A JUMP JUMPDEST SWAP4 POP PUSH2 0x29C DUP2 DUP6 PUSH1 0x20 DUP7 ADD PUSH2 0x25A JUMP JUMPDEST PUSH2 0x2A5 DUP2 PUSH2 0x268 JUMP JUMPDEST DUP5 ADD SWAP2 POP POP SWAP3 SWAP2 POP POP JUMP JUMPDEST PUSH0 PUSH1 0x20 DUP3 ADD SWAP1 POP DUP2 DUP2 SUB PUSH0 DUP4 ADD MSTORE PUSH2 0x2C8 DUP2 DUP5 PUSH2 0x278 JUMP JUMPDEST SWAP1 POP SWAP3 SWAP2 POP POP JUMP JUMPDEST PUSH0 DUP2 SWAP1 POP SWAP2 SWAP1 POP JUMP JUMPDEST PUSH2 0x2E2 DUP2 PUSH2 0x2D0 JUMP JUMPDEST DUP3 MSTORE POP POP JUMP JUMPDEST PUSH0 PUSH1 0x60 DUP3 ADD SWAP1 POP PUSH2 0x2FB PUSH0 DUP4 ADD DUP7 PUSH2 0x2D9 JUMP JUMPDEST PUSH2 0x308 PUSH1 0x20 DUP4 ADD DUP6 PUSH2 0x2D9 JUMP JUMPDEST PUSH2 0x315 PUSH1 0x40 DUP4 ADD DUP5 PUSH2 0x2D9 JUMP JUMPDEST SWAP5 SWAP4 POP POP POP POP JUMP INVALID LOG2 PUSH5 0x6970667358 0x22 SLT KECCAK256 SAR 0xEB 0xE1 PUSH16 0xED25A6D23A5EB47E077099CB368353F1 0xD4 PUSH21 0x4699783C44D1A780B29D64736F6C634300081A0033 EXTCODECOPY PUSH20 0x7667207072657365727665417370656374526174 PUSH10 0x6F3D22784D6964594D69 PUSH5 0x206D656574 0x22 KECCAK256 PUSH23 0x696577426F783D22302030203130323420313032342220 PUSH25 0x6D6C6E733D22687474703A2F2F7777772E77332E6F72672F32 ADDRESS ADDRESS ADDRESS 0x2F PUSH20 0x7667223E0A0A0A3C726563742066696C6C3D2262 PUSH13 0x61636B22206865696768743D22 BALANCE ADDRESS ORIGIN CALLVALUE 0x22 KECCAK256 PUSH24 0x696474683D22313032342220783D22302220793D2230222F RETURNDATACOPY EXP EXTCODECOPY PUSH17 0x61746820643D224D203531322031313220 COINBASE KECCAK256 CALLVALUE ADDRESS ADDRESS KECCAK256 CALLVALUE ADDRESS ADDRESS KECCAK256 ADDRESS KECCAK256 ADDRESS KECCAK256 BALANCE KECCAK256 CALLDATALOAD CALLDATALOAD BALANCE 0x2E ORIGIN ADDRESS CALLDATASIZE CODESIZE CALLDATALOAD CALLDATASIZE BALANCE CALLER BALANCE CODESIZE ORIGIN CALLVALUE CALLER KECCAK256 BALANCE BALANCE CALLER 0x2E CODECOPY ORIGIN CALLDATASIZE BALANCE ADDRESS CODECOPY CALLER CALLER BALANCE BALANCE ORIGIN BALANCE ORIGIN CALLDATACOPY KECCAK256 0x4C KECCAK256 CALLDATALOAD CALLDATALOAD CODECOPY 0x2E ADDRESS CALLVALUE CODESIZE ORIGIN ORIGIN CALLDATACOPY CALLER CALLDATALOAD CODESIZE BALANCE CODESIZE CODECOPY BALANCE KECCAK256 CALLER CALLVALUE 0x2E CALLER BALANCE BALANCE CALLER CALLER BALANCE BALANCE CODECOPY CALLDATACOPY CALLER CALLVALUE CALLDATALOAD CALLDATALOAD BALANCE KECCAK256 COINBASE KECCAK256 CALLVALUE CODESIZE ADDRESS KECCAK256 CALLVALUE CODESIZE ADDRESS KECCAK256 ADDRESS KECCAK256 ADDRESS KECCAK256 ADDRESS KECCAK256 CALLDATALOAD BALANCE ORIGIN KECCAK256 CALLER ORIGIN KECCAK256 GAS 0x22 KECCAK256 PUSH7 0x696C6C3D22626C PUSH2 0x636B 0x22 KECCAK256 PUSH20 0x74726F6B653D22626C61636B22207374726F6B65 0x2D PUSH24 0x696474683D2231222F3E0A3C7061746820643D224D203531 ORIGIN KECCAK256 BALANCE CODECOPY ORIGIN KECCAK256 COINBASE KECCAK256 CALLER ORIGIN ADDRESS KECCAK256 CALLER ORIGIN ADDRESS KECCAK256 ADDRESS KECCAK256 ADDRESS KECCAK256 BALANCE KECCAK256 CALLDATALOAD CALLVALUE CALLER 0x2E CALLER CALLDATASIZE CALLDATALOAD CALLVALUE CODESIZE CALLVALUE CODECOPY ADDRESS CALLDATALOAD CALLVALUE CALLDATALOAD CODECOPY CALLVALUE KECCAK256 BALANCE CODECOPY CALLER 0x2E CALLDATALOAD CALLVALUE ADDRESS CODESIZE CODESIZE CALLDATACOPY CALLVALUE CALLDATASIZE CALLVALUE CODESIZE CODECOPY CALLDATACOPY ADDRESS CALLER KECCAK256 0x4C KECCAK256 CALLDATALOAD CALLDATALOAD BALANCE 0x2E ORIGIN ADDRESS CALLDATASIZE CODESIZE CALLDATALOAD CALLDATASIZE BALANCE CALLER BALANCE CODESIZE ORIGIN CALLVALUE CALLER KECCAK256 BALANCE BALANCE CALLER 0x2E CODECOPY ORIGIN CALLDATASIZE BALANCE ADDRESS CODECOPY CALLER CALLER BALANCE BALANCE ORIGIN BALANCE ORIGIN CALLDATACOPY KECCAK256 COINBASE KECCAK256 CALLVALUE ADDRESS ADDRESS KECCAK256 CALLVALUE ADDRESS ADDRESS KECCAK256 ADDRESS KECCAK256 ADDRESS KECCAK256 ADDRESS KECCAK256 CALLDATALOAD BALANCE ORIGIN KECCAK256 BALANCE BALANCE ORIGIN KECCAK256 GAS 0x22 KECCAK256 PUSH7 0x696C6C3D22626C PUSH2 0x636B 0x22 KECCAK256 PUSH20 0x74726F6B653D22626C61636B22207374726F6B65 0x2D PUSH24 0x696474683D2231222F3E0A3C7061746820643D224D203531 ORIGIN KECCAK256 ORIGIN CALLDATACOPY ORIGIN KECCAK256 COINBASE KECCAK256 ORIGIN CALLVALUE ADDRESS KECCAK256 ORIGIN CALLVALUE ADDRESS KECCAK256 ADDRESS KECCAK256 ADDRESS KECCAK256 BALANCE KECCAK256 CALLDATALOAD CALLER CALLDATALOAD 0x2E CALLDATALOAD ORIGIN CALLVALUE BALANCE BALANCE CALLER CALLDATASIZE CALLDATACOPY CODECOPY ADDRESS CODECOPY CALLVALUE CALLDATASIZE KECCAK256 ORIGIN CALLDATACOPY CALLER 0x2E BALANCE CALLDATALOAD CALLDATALOAD CALLDATASIZE CALLDATASIZE CALLDATALOAD CALLDATALOAD CODECOPY CODESIZE CALLDATASIZE CALLDATACOPY ORIGIN CALLDATACOPY KECCAK256 0x4C KECCAK256 CALLDATALOAD CALLVALUE CALLER 0x2E CALLER CALLDATASIZE CALLDATALOAD CALLVALUE CODESIZE CALLVALUE CODECOPY ADDRESS CALLDATALOAD CALLVALUE CALLDATALOAD CODECOPY CALLVALUE KECCAK256 BALANCE CODECOPY CALLER 0x2E CALLDATALOAD CALLVALUE ADDRESS CODESIZE CODESIZE CALLDATACOPY CALLVALUE CALLDATASIZE CALLVALUE CODESIZE CODECOPY CALLDATACOPY ADDRESS CALLER KECCAK256 COINBASE KECCAK256 CALLER ORIGIN ADDRESS KECCAK256 CALLER ORIGIN ADDRESS KECCAK256 ADDRESS KECCAK256 ADDRESS KECCAK256 ADDRESS KECCAK256 CALLDATALOAD BALANCE ORIGIN KECCAK256 BALANCE CODECOPY ORIGIN KECCAK256 GAS 0x22 KECCAK256 PUSH7 0x696C6C3D22626C PUSH2 0x636B 0x22 KECCAK256 PUSH20 0x74726F6B653D22626C61636B22207374726F6B65 0x2D PUSH24 0x696474683D2231222F3E0A3C7061746820643D224D203531 ORIGIN KECCAK256 CALLER CALLDATALOAD ORIGIN KECCAK256 COINBASE KECCAK256 BALANCE CALLDATASIZE ADDRESS KECCAK256 BALANCE CALLDATASIZE ADDRESS KECCAK256 ADDRESS KECCAK256 ADDRESS KECCAK256 BALANCE KECCAK256 CALLDATALOAD ORIGIN CALLDATACOPY 0x2E CALLDATASIZE CODESIZE ORIGIN CALLDATACOPY CALLVALUE ORIGIN CALLVALUE CALLDATALOAD ORIGIN CALLDATACOPY ORIGIN CODECOPY CALLDATACOPY KECCAK256 CALLER CALLDATALOAD ORIGIN 0x2E CALLDATACOPY CALLDATACOPY ADDRESS CALLVALUE CALLVALUE CALLER CALLDATACOPY CALLER ORIGIN CALLVALUE CALLVALUE CODESIZE CALLDATALOAD KECCAK256 0x4C KECCAK256 CALLDATALOAD CALLER CALLDATALOAD 0x2E CALLDATALOAD ORIGIN CALLVALUE BALANCE BALANCE CALLER CALLDATASIZE CALLDATACOPY CODECOPY ADDRESS CODECOPY CALLVALUE CALLDATASIZE KECCAK256 ORIGIN CALLDATACOPY CALLER 0x2E BALANCE CALLDATALOAD CALLDATALOAD CALLDATASIZE CALLDATASIZE CALLDATALOAD CALLDATALOAD CODECOPY CODESIZE CALLDATASIZE CALLDATACOPY ORIGIN CALLDATACOPY KECCAK256 COINBASE KECCAK256 ORIGIN CALLVALUE ADDRESS KECCAK256 ORIGIN CALLVALUE ADDRESS KECCAK256 ADDRESS KECCAK256 ADDRESS KECCAK256 ADDRESS KECCAK256 CALLDATALOAD BALANCE ORIGIN KECCAK256 ORIGIN CALLDATACOPY ORIGIN KECCAK256 GAS 0x22 KECCAK256 PUSH7 0x696C6C3D22626C PUSH2 0x636B 0x22 KECCAK256 PUSH20 0x74726F6B653D22626C61636B22207374726F6B65 0x2D PUSH24 0x696474683D2231222F3E0A3C7061746820643D224D203535 BALANCE 0x2E ORIGIN ADDRESS CALLDATASIZE CODESIZE CALLDATALOAD CALLDATASIZE BALANCE CALLER BALANCE CODESIZE ORIGIN CALLVALUE CALLER KECCAK256 BALANCE BALANCE CALLER 0x2E CODECOPY ORIGIN CALLDATASIZE BALANCE ADDRESS CODECOPY CALLER CALLER BALANCE BALANCE ORIGIN BALANCE ORIGIN CALLDATACOPY KECCAK256 COINBASE KECCAK256 CALLVALUE ADDRESS ADDRESS KECCAK256 CALLVALUE ADDRESS ADDRESS KECCAK256 ADDRESS KECCAK256 ADDRESS KECCAK256 BALANCE KECCAK256 CALLDATALOAD CODECOPY ADDRESS 0x2E ADDRESS CALLER CALLDATASIZE BALANCE ORIGIN CODESIZE CODESIZE ADDRESS CALLDATASIZE CALLVALUE CALLDATALOAD BALANCE CALLVALUE KECCAK256 BALANCE BALANCE CODECOPY 0x2E CALLDATASIZE CODESIZE CALLDATALOAD CODESIZE CODESIZE CALLDATACOPY CODESIZE CALLER CODESIZE CALLDATACOPY ADDRESS CALLDATACOPY CODESIZE KECCAK256 0x4C KECCAK256 CALLDATASIZE ADDRESS CALLDATALOAD 0x2E CALLDATASIZE CALLVALUE CALLER CALLER CALLDATALOAD CALLVALUE CALLDATALOAD CALLDATASIZE CALLDATACOPY CALLDATACOPY CALLVALUE BALANCE CALLDATACOPY KECCAK256 CALLVALUE BALANCE 0x2E ORIGIN ORIGIN CALLER ADDRESS CALLDATASIZE CALLDATALOAD CALLVALUE ADDRESS CALLDATASIZE CALLVALUE CALLVALUE CODECOPY CALLER CODECOPY KECCAK256 COINBASE KECCAK256 CALLVALUE CODESIZE ADDRESS KECCAK256 CALLVALUE CODESIZE ADDRESS KECCAK256 ADDRESS KECCAK256 ADDRESS KECCAK256 ADDRESS KECCAK256 CALLDATALOAD CALLDATALOAD CODECOPY 0x2E ADDRESS CALLVALUE CODESIZE ORIGIN ORIGIN CALLDATACOPY CALLER CALLDATALOAD CODESIZE BALANCE CODESIZE CODECOPY BALANCE KECCAK256 CALLER CALLVALUE 0x2E CALLER BALANCE BALANCE CALLER CALLER BALANCE BALANCE CODECOPY CALLDATACOPY CALLER CALLVALUE CALLDATALOAD CALLDATALOAD BALANCE KECCAK256 GAS 0x22 KECCAK256 PUSH7 0x696C6C3D22626C PUSH2 0x636B 0x22 KECCAK256 PUSH20 0x74726F6B653D22626C61636B22207374726F6B65 0x2D PUSH24 0x696474683D2231222F3E0A3C7061746820643D224D203534 CALLER 0x2E CALLER CALLDATASIZE CALLDATALOAD CALLVALUE CODESIZE CALLVALUE CODECOPY ADDRESS CALLDATALOAD CALLVALUE CALLDATALOAD CODECOPY CALLVALUE KECCAK256 BALANCE CODECOPY CALLER 0x2E CALLDATALOAD CALLVALUE ADDRESS CODESIZE CODESIZE CALLDATACOPY CALLVALUE CALLDATASIZE CALLVALUE CODESIZE CODECOPY CALLDATACOPY ADDRESS CALLER KECCAK256 COINBASE KECCAK256 CALLER ORIGIN ADDRESS KECCAK256 CALLER ORIGIN ADDRESS KECCAK256 ADDRESS KECCAK256 ADDRESS KECCAK256 BALANCE KECCAK256 CALLDATALOAD CALLDATACOPY CALLVALUE 0x2E CALLVALUE ORIGIN CODESIZE CODECOPY ADDRESS CALLER ADDRESS CALLVALUE CALLDATALOAD BALANCE CALLDATASIZE BALANCE ORIGIN KECCAK256 BALANCE CODECOPY CODESIZE 0x2E BALANCE CALLVALUE CODESIZE CALLDATACOPY BALANCE ADDRESS ORIGIN CALLDATACOPY ADDRESS CODECOPY CALLDATASIZE CALLDATASIZE ORIGIN CALLDATASIZE KECCAK256 0x4C KECCAK256 CALLDATALOAD CODECOPY ADDRESS 0x2E ADDRESS CALLER CALLDATASIZE BALANCE ORIGIN CODESIZE CODESIZE ADDRESS CALLDATASIZE CALLVALUE CALLDATALOAD BALANCE CALLVALUE KECCAK256 BALANCE BALANCE CODECOPY 0x2E CALLDATASIZE CODESIZE CALLDATALOAD CODESIZE CODESIZE CALLDATACOPY CODESIZE CALLER CODESIZE CALLDATACOPY ADDRESS CALLDATACOPY CODESIZE KECCAK256 COINBASE KECCAK256 CALLVALUE ADDRESS ADDRESS KECCAK256 CALLVALUE ADDRESS ADDRESS KECCAK256 ADDRESS KECCAK256 ADDRESS KECCAK256 ADDRESS KECCAK256 CALLDATALOAD CALLDATALOAD BALANCE 0x2E ORIGIN ADDRESS CALLDATASIZE CODESIZE CALLDATALOAD CALLDATASIZE BALANCE CALLER BALANCE CODESIZE ORIGIN CALLVALUE CALLER KECCAK256 BALANCE BALANCE CALLER 0x2E CODECOPY ORIGIN CALLDATASIZE BALANCE ADDRESS CODECOPY CALLER CALLER BALANCE BALANCE ORIGIN BALANCE ORIGIN CALLDATACOPY KECCAK256 GAS 0x22 KECCAK256 PUSH7 0x696C6C3D22626C PUSH2 0x636B 0x22 KECCAK256 PUSH20 0x74726F6B653D22626C61636B22207374726F6B65 0x2D PUSH24 0x696474683D2231222F3E0A3C7061746820643D224D203533 CALLDATALOAD 0x2E CALLDATALOAD ORIGIN CALLVALUE BALANCE BALANCE CALLER CALLDATASIZE CALLDATACOPY CODECOPY ADDRESS CODECOPY CALLVALUE CALLDATASIZE KECCAK256 ORIGIN CALLDATACOPY CALLER 0x2E BALANCE CALLDATALOAD CALLDATALOAD CALLDATASIZE CALLDATASIZE CALLDATALOAD CALLDATALOAD CODECOPY CODESIZE CALLDATASIZE CALLDATACOPY ORIGIN CALLDATACOPY KECCAK256 COINBASE KECCAK256 ORIGIN CALLVALUE ADDRESS KECCAK256 ORIGIN CALLVALUE ADDRESS KECCAK256 ADDRESS KECCAK256 ADDRESS KECCAK256 BALANCE KECCAK256 CALLDATALOAD CALLDATALOAD CODESIZE 0x2E CODESIZE ORIGIN BALANCE CALLDATASIZE CALLDATACOPY CALLDATACOPY ORIGIN CODESIZE CALLER CODESIZE CALLDATACOPY ADDRESS CODESIZE KECCAK256 ORIGIN CALLDATACOPY CALLDATASIZE 0x2E CALLDATASIZE BALANCE BALANCE CALLDATALOAD CALLER ORIGIN CALLDATACOPY ADDRESS CALLER ORIGIN ORIGIN CALLVALUE CALLDATACOPY KECCAK256 0x4C KECCAK256 CALLDATALOAD CALLDATACOPY CALLVALUE 0x2E CALLVALUE ORIGIN CODESIZE CODECOPY ADDRESS CALLER ADDRESS CALLVALUE CALLDATALOAD BALANCE CALLDATASIZE BALANCE ORIGIN KECCAK256 BALANCE CODECOPY CODESIZE 0x2E BALANCE CALLVALUE CODESIZE CALLDATACOPY BALANCE ADDRESS ORIGIN CALLDATACOPY ADDRESS CODECOPY CALLDATASIZE CALLDATASIZE ORIGIN CALLDATASIZE KECCAK256 COINBASE KECCAK256 CALLER ORIGIN ADDRESS KECCAK256 CALLER ORIGIN ADDRESS KECCAK256 ADDRESS KECCAK256 ADDRESS KECCAK256 ADDRESS KECCAK256 CALLDATALOAD CALLVALUE CALLER 0x2E CALLER CALLDATASIZE CALLDATALOAD CALLVALUE CODESIZE CALLVALUE CODECOPY ADDRESS CALLDATALOAD CALLVALUE CALLDATALOAD CODECOPY CALLVALUE KECCAK256 BALANCE CODECOPY CALLER 0x2E CALLDATALOAD CALLVALUE ADDRESS CODESIZE CODESIZE CALLDATACOPY CALLVALUE CALLDATASIZE CALLVALUE CODESIZE CODECOPY CALLDATACOPY ADDRESS CALLER KECCAK256 GAS 0x22 KECCAK256 PUSH7 0x696C6C3D22626C PUSH2 0x636B 0x22 KECCAK256 PUSH20 0x74726F6B653D22626C61636B22207374726F6B65 0x2D PUSH24 0x696474683D2231222F3E0A3C7061746820643D224D203532 CALLDATACOPY 0x2E CALLDATASIZE CODESIZE ORIGIN CALLDATACOPY CALLVALUE ORIGIN CALLVALUE CALLDATALOAD ORIGIN CALLDATACOPY ORIGIN CODECOPY CALLDATACOPY KECCAK256 CALLER CALLDATALOAD ORIGIN 0x2E CALLDATACOPY CALLDATACOPY ADDRESS CALLVALUE CALLVALUE CALLER CALLDATACOPY CALLER ORIGIN CALLVALUE CALLVALUE CODESIZE CALLDATALOAD KECCAK256 COINBASE KECCAK256 BALANCE CALLDATASIZE ADDRESS KECCAK256 BALANCE CALLDATASIZE ADDRESS KECCAK256 ADDRESS KECCAK256 ADDRESS KECCAK256 BALANCE KECCAK256 CALLDATALOAD CALLVALUE CALLER 0x2E ORIGIN BALANCE CALLVALUE CALLVALUE CALLDATALOAD BALANCE CALLDATALOAD ORIGIN ORIGIN CALLDATALOAD CODESIZE ADDRESS CALLDATASIZE KECCAK256 CALLER CALLDATALOAD CALLDATALOAD 0x2E ADDRESS CALLDATACOPY CALLVALUE CALLER CALLDATALOAD CALLDATALOAD BALANCE CALLER CALLDATALOAD CALLVALUE CODESIZE CALLER BALANCE CALLER KECCAK256 0x4C KECCAK256 CALLDATALOAD CALLDATALOAD CODESIZE 0x2E CODESIZE ORIGIN BALANCE CALLDATASIZE CALLDATACOPY CALLDATACOPY ORIGIN CODESIZE CALLER CODESIZE CALLDATACOPY ADDRESS CODESIZE KECCAK256 ORIGIN CALLDATACOPY CALLDATASIZE 0x2E CALLDATASIZE BALANCE BALANCE CALLDATALOAD CALLER ORIGIN CALLDATACOPY ADDRESS CALLER ORIGIN ORIGIN CALLVALUE CALLDATACOPY KECCAK256 COINBASE KECCAK256 ORIGIN CALLVALUE ADDRESS KECCAK256 ORIGIN CALLVALUE ADDRESS KECCAK256 ADDRESS KECCAK256 ADDRESS KECCAK256 ADDRESS KECCAK256 CALLDATALOAD CALLER CALLDATALOAD 0x2E CALLDATALOAD ORIGIN CALLVALUE BALANCE BALANCE CALLER CALLDATASIZE CALLDATACOPY CODECOPY ADDRESS CODECOPY CALLVALUE CALLDATASIZE KECCAK256 ORIGIN CALLDATACOPY CALLER 0x2E BALANCE CALLDATALOAD CALLDATALOAD CALLDATASIZE CALLDATASIZE CALLDATALOAD CALLDATALOAD CODECOPY CODESIZE CALLDATASIZE CALLDATACOPY ORIGIN CALLDATACOPY KECCAK256 GAS 0x22 KECCAK256 PUSH7 0x696C6C3D22626C PUSH2 0x636B 0x22 KECCAK256 PUSH20 0x74726F6B653D22626C61636B22207374726F6B65 0x2D PUSH24 0x696474683D2231222F3E0A3C7061746820643D224D203539 ADDRESS 0x2E ADDRESS CALLER CALLDATASIZE BALANCE ORIGIN CODESIZE CODESIZE ADDRESS CALLDATASIZE CALLVALUE CALLDATALOAD BALANCE CALLER KECCAK256 BALANCE BALANCE CODECOPY 0x2E CALLDATASIZE CODESIZE CALLDATALOAD CODESIZE CODESIZE CALLDATACOPY CODESIZE CALLER CODESIZE CALLDATACOPY ADDRESS CALLDATACOPY CODESIZE KECCAK256 COINBASE KECCAK256 CALLVALUE ADDRESS ADDRESS KECCAK256 CALLVALUE ADDRESS ADDRESS KECCAK256 ADDRESS KECCAK256 ADDRESS KECCAK256 BALANCE KECCAK256 CALLDATASIZE ORIGIN CODESIZE 0x2E BALANCE BALANCE CALLER CODESIZE CALLDATACOPY ADDRESS CODECOPY ADDRESS BALANCE CALLDATACOPY CODESIZE CALLVALUE CODECOPY KECCAK256 BALANCE ORIGIN CODECOPY 0x2E ORIGIN ORIGIN CALLER CODESIZE CALLDATASIZE CALLDATALOAD CALLDATACOPY ADDRESS CALLDATACOPY BALANCE BALANCE CALLDATASIZE CALLVALUE CALLER KECCAK256 0x4C KECCAK256 CALLDATASIZE CALLDATALOAD BALANCE 0x2E CALLER CALLER CALLDATASIZE CALLDATASIZE CALLVALUE CALLDATALOAD ADDRESS CODESIZE ORIGIN BALANCE CALLVALUE BALANCE CODECOPY KECCAK256 CALLDATALOAD ORIGIN 0x2E CALLDATASIZE CALLDATASIZE CODESIZE CALLDATASIZE CALLER CODESIZE CODESIZE CALLVALUE CODESIZE CALLDATALOAD CALLER CODECOPY CALLDATACOPY CALLER KECCAK256 COINBASE KECCAK256 CALLVALUE CODESIZE ADDRESS KECCAK256 CALLVALUE CODESIZE ADDRESS KECCAK256 ADDRESS KECCAK256 ADDRESS KECCAK256 ADDRESS KECCAK256 CALLDATASIZE ADDRESS CALLDATALOAD 0x2E CALLDATASIZE CALLVALUE CALLER CALLER CALLDATALOAD CALLVALUE CALLDATALOAD CALLDATASIZE CALLDATACOPY CALLDATACOPY CALLVALUE BALANCE CALLDATALOAD KECCAK256 CALLVALUE BALANCE 0x2E ORIGIN ORIGIN CALLER ADDRESS CALLDATASIZE CALLDATALOAD CALLVALUE ADDRESS CALLDATASIZE CALLVALUE CALLVALUE CODECOPY CALLER CODECOPY KECCAK256 GAS 0x22 KECCAK256 PUSH7 0x696C6C3D22626C PUSH2 0x636B 0x22 KECCAK256 PUSH20 0x74726F6B653D22626C61636B22207374726F6B65 0x2D PUSH24 0x696474683D2231222F3E0A3C7061746820643D224D203537 CALLVALUE 0x2E CALLVALUE ORIGIN CODESIZE CODECOPY ADDRESS CALLER ADDRESS CALLVALUE CALLDATALOAD BALANCE CALLDATASIZE BALANCE BALANCE KECCAK256 BALANCE CODECOPY CODESIZE 0x2E BALANCE CALLVALUE CODESIZE CALLDATACOPY BALANCE ADDRESS ORIGIN CALLDATACOPY ADDRESS CODECOPY CALLDATASIZE CALLDATASIZE ORIGIN CALLDATASIZE KECCAK256 COINBASE KECCAK256 CALLER ORIGIN ADDRESS KECCAK256 CALLER ORIGIN ADDRESS KECCAK256 ADDRESS KECCAK256 ADDRESS KECCAK256 BALANCE KECCAK256 CALLDATASIZE ADDRESS CALLVALUE 0x2E CODESIZE CODECOPY BALANCE ADDRESS CODECOPY CALLDATASIZE CALLDATACOPY ORIGIN BALANCE CALLVALUE ORIGIN CODESIZE KECCAK256 ORIGIN ADDRESS CALLDATALOAD 0x2E CALLDATACOPY CALLDATACOPY CODECOPY ADDRESS CODECOPY ORIGIN CALLDATALOAD CALLDATASIZE CALLDATALOAD CALLDATASIZE CODECOPY CALLER BALANCE CALLER KECCAK256 0x4C KECCAK256 CALLDATASIZE ORIGIN CODESIZE 0x2E BALANCE BALANCE CALLER CODESIZE CALLDATACOPY ADDRESS CODECOPY ADDRESS BALANCE CALLDATACOPY CODESIZE CALLVALUE CODECOPY KECCAK256 BALANCE ORIGIN CODECOPY 0x2E ORIGIN ORIGIN CALLER CODESIZE CALLDATASIZE CALLDATALOAD CALLDATACOPY ADDRESS CALLDATACOPY BALANCE BALANCE CALLDATASIZE CALLVALUE CALLER KECCAK256 COINBASE KECCAK256 CALLVALUE ADDRESS ADDRESS KECCAK256 CALLVALUE ADDRESS ADDRESS KECCAK256 ADDRESS KECCAK256 ADDRESS KECCAK256 ADDRESS KECCAK256 CALLDATALOAD CODECOPY ADDRESS 0x2E ADDRESS CALLER CALLDATASIZE BALANCE ORIGIN CODESIZE CODESIZE ADDRESS CALLDATASIZE CALLVALUE CALLDATALOAD BALANCE CALLER KECCAK256 BALANCE BALANCE CODECOPY 0x2E CALLDATASIZE CODESIZE CALLDATALOAD CODESIZE CODESIZE CALLDATACOPY CODESIZE CALLER CODESIZE CALLDATACOPY ADDRESS CALLDATACOPY CODESIZE KECCAK256 GAS 0x22 KECCAK256 PUSH7 0x696C6C3D22626C PUSH2 0x636B 0x22 KECCAK256 PUSH20 0x74726F6B653D22626C61636B22207374726F6B65 0x2D PUSH24 0x696474683D2231222F3E0A3C7061746820643D224D203535 CODESIZE 0x2E CODESIZE ORIGIN BALANCE CALLDATASIZE CALLDATACOPY CALLDATACOPY ORIGIN CODESIZE CALLER CODESIZE CALLDATACOPY ADDRESS CODESIZE KECCAK256 ORIGIN CALLDATACOPY CALLDATASIZE 0x2E CALLDATASIZE BALANCE BALANCE CALLDATALOAD CALLER ORIGIN CALLDATACOPY ADDRESS CALLER ORIGIN ORIGIN CALLVALUE CALLDATACOPY KECCAK256 COINBASE KECCAK256 ORIGIN CALLVALUE ADDRESS KECCAK256 ORIGIN CALLVALUE ADDRESS KECCAK256 ADDRESS KECCAK256 ADDRESS KECCAK256 BALANCE KECCAK256 CALLDATALOAD CODESIZE BALANCE 0x2E CALLDATASIZE CALLDATASIZE CODESIZE CALLER ORIGIN ORIGIN CALLDATALOAD CALLVALUE BALANCE ADDRESS CALLDATACOPY ADDRESS CODECOPY KECCAK256 ORIGIN CODESIZE ORIGIN 0x2E CALLER CALLER CALLVALUE CALLER BALANCE CODECOPY CALLVALUE ORIGIN CALLVALUE ORIGIN CALLDATASIZE CODECOPY CODECOPY KECCAK256 0x4C KECCAK256 CALLDATASIZE ADDRESS CALLVALUE 0x2E CODESIZE CODECOPY BALANCE ADDRESS CODECOPY CALLDATASIZE CALLDATACOPY ORIGIN BALANCE CALLVALUE ORIGIN CODESIZE KECCAK256 ORIGIN ADDRESS CALLDATALOAD 0x2E CALLDATACOPY CALLDATACOPY CODECOPY ADDRESS CODECOPY ORIGIN CALLDATALOAD CALLDATASIZE CALLDATALOAD CALLDATASIZE CODECOPY CALLER BALANCE CALLER KECCAK256 COINBASE KECCAK256 CALLER ORIGIN ADDRESS KECCAK256 CALLER ORIGIN ADDRESS KECCAK256 ADDRESS KECCAK256 ADDRESS KECCAK256 ADDRESS KECCAK256 CALLDATALOAD CALLDATACOPY CALLVALUE 0x2E CALLVALUE ORIGIN CODESIZE CODECOPY ADDRESS CALLER ADDRESS CALLVALUE CALLDATALOAD BALANCE CALLDATASIZE BALANCE BALANCE KECCAK256 BALANCE CODECOPY CODESIZE 0x2E BALANCE CALLVALUE CODESIZE CALLDATACOPY BALANCE ADDRESS ORIGIN CALLDATACOPY ADDRESS CODECOPY CALLDATASIZE CALLDATASIZE ORIGIN CALLDATASIZE KECCAK256 GAS 0x22 KECCAK256 PUSH7 0x696C6C3D22626C PUSH2 0x636B 0x22 KECCAK256 PUSH20 0x74726F6B653D22626C61636B22207374726F6B65 0x2D PUSH24 0x696474683D2231222F3E0A3C7061746820643D224D203534 CALLER 0x2E ORIGIN BALANCE CALLVALUE CALLVALUE CALLDATALOAD BALANCE CALLDATALOAD ORIGIN ORIGIN CALLDATALOAD CODESIZE ADDRESS CALLDATALOAD KECCAK256 CALLER CALLDATALOAD CALLDATALOAD 0x2E ADDRESS CALLDATACOPY CALLVALUE CALLER CALLDATALOAD CALLDATALOAD BALANCE CALLER CALLDATALOAD CALLVALUE CODESIZE CALLER BALANCE CALLER KECCAK256 COINBASE KECCAK256 BALANCE CALLDATASIZE ADDRESS KECCAK256 BALANCE CALLDATASIZE ADDRESS KECCAK256 ADDRESS KECCAK256 ADDRESS KECCAK256 BALANCE KECCAK256 CALLDATALOAD CALLDATALOAD CODESIZE 0x2E CALLVALUE CALLVALUE CALLDATALOAD CALLDATALOAD CALLVALUE CODESIZE CALLER CALLDATASIZE ADDRESS CALLDATACOPY BALANCE CALLER CODECOPY KECCAK256 CALLER CALLDATALOAD CODESIZE 0x2E CODESIZE CODESIZE CODECOPY CALLDATALOAD CALLVALUE CALLDATASIZE ORIGIN CODESIZE ORIGIN CODESIZE CALLVALUE CALLDATASIZE CALLDATASIZE KECCAK256 0x4C KECCAK256 CALLDATALOAD CODESIZE BALANCE 0x2E CALLDATASIZE CALLDATASIZE CODESIZE CALLER ORIGIN ORIGIN CALLDATALOAD CALLVALUE BALANCE ADDRESS CALLDATACOPY ADDRESS CODECOPY KECCAK256 ORIGIN CODESIZE ORIGIN 0x2E CALLER CALLER CALLVALUE CALLER BALANCE CODECOPY CALLVALUE ORIGIN CALLVALUE ORIGIN CALLDATASIZE CODECOPY CODECOPY KECCAK256 COINBASE KECCAK256 ORIGIN CALLVALUE ADDRESS KECCAK256 ORIGIN CALLVALUE ADDRESS KECCAK256 ADDRESS KECCAK256 ADDRESS KECCAK256 ADDRESS KECCAK256 CALLDATALOAD CALLDATALOAD CODESIZE 0x2E CODESIZE ORIGIN BALANCE CALLDATASIZE CALLDATACOPY CALLDATACOPY ORIGIN CODESIZE CALLER CODESIZE CALLDATACOPY ADDRESS CODESIZE KECCAK256 ORIGIN CALLDATACOPY CALLDATASIZE 0x2E CALLDATASIZE BALANCE BALANCE CALLDATALOAD CALLER ORIGIN CALLDATACOPY ADDRESS CALLER ORIGIN ORIGIN CALLVALUE CALLDATACOPY KECCAK256 GAS 0x22 KECCAK256 PUSH7 0x696C6C3D22626C PUSH2 0x636B 0x22 KECCAK256 PUSH20 0x74726F6B653D22626C61636B22207374726F6B65 0x2D PUSH24 0x696474683D2231222F3E0A3C7061746820643D224D203632 CODESIZE 0x2E BALANCE BALANCE CALLER CODESIZE CALLDATACOPY ADDRESS CODECOPY ADDRESS BALANCE CALLDATACOPY CODESIZE CALLVALUE CODECOPY KECCAK256 BALANCE ORIGIN CODECOPY 0x2E ORIGIN ORIGIN CALLER CODESIZE CALLDATASIZE CALLDATALOAD CALLDATACOPY ADDRESS CALLDATACOPY BALANCE BALANCE CALLDATASIZE CALLVALUE CALLER KECCAK256 COINBASE KECCAK256 CALLVALUE ADDRESS ADDRESS KECCAK256 CALLVALUE ADDRESS ADDRESS KECCAK256 ADDRESS KECCAK256 ADDRESS KECCAK256 BALANCE KECCAK256 CALLDATASIZE CALLDATASIZE CALLDATALOAD 0x2E ADDRESS CALLDATACOPY CALLER CALLER CALLDATACOPY ORIGIN CODECOPY CALLVALUE CALLDATASIZE ADDRESS CALLER CALLDATASIZE KECCAK256 BALANCE CALLVALUE ORIGIN 0x2E CALLVALUE CALLVALUE CODESIZE BALANCE CODESIZE CALLDATASIZE CODECOPY CODECOPY CALLDATALOAD CALLVALUE CODESIZE CALLDATALOAD CALLER KECCAK256 0x4C KECCAK256 CALLDATASIZE CODECOPY CALLDATALOAD 0x2E CALLDATASIZE CODESIZE CODESIZE ADDRESS CALLVALUE CALLDATACOPY CALLDATALOAD CALLER CALLDATALOAD ORIGIN CALLVALUE CALLER ORIGIN KECCAK256 CALLDATASIZE CODESIZE 0x2E CALLDATALOAD CALLER CALLDATACOPY CODESIZE ORIGIN CALLVALUE CALLER CODECOPY CALLVALUE CALLDATALOAD CODESIZE ORIGIN CALLER CALLVALUE KECCAK256 COINBASE KECCAK256 CALLVALUE CODESIZE ADDRESS KECCAK256 CALLVALUE CODESIZE ADDRESS KECCAK256 ADDRESS KECCAK256 ADDRESS KECCAK256 ADDRESS KECCAK256 CALLDATASIZE CALLDATALOAD BALANCE 0x2E CALLER CALLER CALLDATASIZE CALLDATASIZE CALLVALUE CALLDATALOAD ADDRESS CODESIZE ORIGIN BALANCE CALLVALUE BALANCE CODECOPY KECCAK256 CALLDATALOAD ORIGIN 0x2E CALLDATASIZE CALLDATASIZE CODESIZE CALLDATASIZE CALLER CODESIZE CODESIZE CALLVALUE CODESIZE CALLDATALOAD CALLER CODECOPY CALLDATACOPY CALLER KECCAK256 GAS 0x22 KECCAK256 PUSH7 0x696C6C3D22626C PUSH2 0x636B 0x22 KECCAK256 PUSH20 0x74726F6B653D22626C61636B22207374726F6B65 0x2D PUSH24 0x696474683D2231222F3E0A3C7061746820643D224D203630 CALLVALUE 0x2E CODESIZE CODECOPY BALANCE ADDRESS CODECOPY CALLDATASIZE CALLDATACOPY ORIGIN BALANCE CALLVALUE ORIGIN CODESIZE KECCAK256 ORIGIN ADDRESS CALLDATALOAD 0x2E CALLDATACOPY CALLDATACOPY CODECOPY ADDRESS CODECOPY ORIGIN CALLDATALOAD CALLDATASIZE CALLDATALOAD CALLDATASIZE CODECOPY CALLER BALANCE CALLER KECCAK256 COINBASE KECCAK256 CALLER ORIGIN ADDRESS KECCAK256 CALLER ORIGIN ADDRESS KECCAK256 ADDRESS KECCAK256 ADDRESS KECCAK256 BALANCE KECCAK256 CALLDATASIZE CALLER CALLVALUE 0x2E CALLVALUE CALLDATALOAD CODESIZE CALLDATASIZE CODECOPY CODESIZE CALLER CALLDATALOAD CALLDATASIZE CODESIZE ORIGIN CODESIZE CODESIZE KECCAK256 ORIGIN BALANCE CALLDATASIZE 0x2E CALLER CALLDATALOAD CODESIZE CALLDATALOAD CALLVALUE CODECOPY CALLDATALOAD CODECOPY CALLDATASIZE CALLER CODESIZE CODESIZE ORIGIN CALLER KECCAK256 0x4C KECCAK256 CALLDATASIZE CALLDATASIZE CALLDATALOAD 0x2E ADDRESS CALLDATACOPY CALLER CALLER CALLDATACOPY ORIGIN CODECOPY CALLVALUE CALLDATASIZE ADDRESS CALLER CALLDATASIZE KECCAK256 BALANCE CALLVALUE ORIGIN 0x2E CALLVALUE CALLVALUE CODESIZE BALANCE CODESIZE CALLDATASIZE CODECOPY CODECOPY CALLDATALOAD CALLVALUE CODESIZE CALLDATALOAD CALLER KECCAK256 COINBASE KECCAK256 CALLVALUE ADDRESS ADDRESS KECCAK256 CALLVALUE ADDRESS ADDRESS KECCAK256 ADDRESS KECCAK256 ADDRESS KECCAK256 ADDRESS KECCAK256 CALLDATASIZE ORIGIN CODESIZE 0x2E BALANCE BALANCE CALLER CODESIZE CALLDATACOPY ADDRESS CODECOPY ADDRESS BALANCE CALLDATACOPY CODESIZE CALLVALUE CODECOPY KECCAK256 BALANCE ORIGIN CODECOPY 0x2E ORIGIN ORIGIN CALLER CODESIZE CALLDATASIZE CALLDATALOAD CALLDATACOPY ADDRESS CALLDATACOPY BALANCE BALANCE CALLDATASIZE CALLVALUE CALLER KECCAK256 GAS 0x22 KECCAK256 PUSH7 0x696C6C3D22626C PUSH2 0x636B 0x22 KECCAK256 PUSH20 0x74726F6B653D22626C61636B22207374726F6B65 0x2D PUSH24 0x696474683D2231222F3E0A3C7061746820643D224D203538 BALANCE 0x2E CALLDATASIZE CALLDATASIZE CODESIZE CALLER ORIGIN ORIGIN CALLDATALOAD CALLVALUE BALANCE ADDRESS CALLDATACOPY ADDRESS CODECOPY KECCAK256 ORIGIN CODESIZE ORIGIN 0x2E CALLER CALLER CALLVALUE CALLER BALANCE CODECOPY CALLVALUE ORIGIN CALLVALUE ORIGIN CALLDATASIZE CODECOPY CODECOPY KECCAK256 COINBASE KECCAK256 ORIGIN CALLVALUE ADDRESS KECCAK256 ORIGIN CALLVALUE ADDRESS KECCAK256 ADDRESS KECCAK256 ADDRESS KECCAK256 BALANCE KECCAK256 CALLDATASIZE ADDRESS CALLER 0x2E CODESIZE CALLVALUE CALLVALUE ADDRESS ORIGIN CALLER CALLDATACOPY CALLDATASIZE CALLDATACOPY CALLDATASIZE ORIGIN BALANCE CALLDATASIZE KECCAK256 ORIGIN CODECOPY ADDRESS 0x2E ORIGIN CALLDATASIZE CODESIZE CODECOPY BALANCE ORIGIN BALANCE CODECOPY CALLDATACOPY ORIGIN CODECOPY BALANCE ORIGIN KECCAK256 0x4C KECCAK256 CALLDATASIZE CALLER CALLVALUE 0x2E CALLVALUE CALLDATALOAD CODESIZE CALLDATASIZE CODECOPY CODESIZE CALLER CALLDATALOAD CALLDATASIZE CODESIZE ORIGIN CODESIZE CODESIZE KECCAK256 ORIGIN BALANCE CALLDATASIZE 0x2E CALLER CALLDATALOAD CODESIZE CALLDATALOAD CALLVALUE CODECOPY CALLDATALOAD CODECOPY CALLDATASIZE CALLER CODESIZE CODESIZE ORIGIN CALLER KECCAK256 COINBASE KECCAK256 CALLER ORIGIN ADDRESS KECCAK256 CALLER ORIGIN ADDRESS KECCAK256 ADDRESS KECCAK256 ADDRESS KECCAK256 ADDRESS KECCAK256 CALLDATASIZE ADDRESS CALLVALUE 0x2E CODESIZE CODECOPY BALANCE ADDRESS CODECOPY CALLDATASIZE CALLDATACOPY ORIGIN BALANCE CALLVALUE ORIGIN CODESIZE KECCAK256 ORIGIN ADDRESS CALLDATALOAD 0x2E CALLDATACOPY CALLDATACOPY CODECOPY ADDRESS CODECOPY ORIGIN CALLDATALOAD CALLDATASIZE CALLDATALOAD CALLDATASIZE CODECOPY CALLER BALANCE CALLER KECCAK256 GAS 0x22 KECCAK256 PUSH7 0x696C6C3D22626C PUSH2 0x636B 0x22 KECCAK256 PUSH20 0x74726F6B653D22626C61636B22207374726F6B65 0x2D PUSH24 0x696474683D2231222F3E0A3C7061746820643D224D203535 CODESIZE 0x2E CALLVALUE CALLVALUE CALLDATALOAD CALLDATALOAD CALLVALUE CODESIZE CALLER CALLDATASIZE ADDRESS CALLDATACOPY BALANCE CALLER CODECOPY KECCAK256 CALLER CALLDATALOAD CODESIZE 0x2E CODESIZE CODESIZE CODECOPY CALLDATALOAD CALLVALUE CALLDATASIZE ORIGIN CODESIZE ORIGIN CODESIZE CALLVALUE CALLDATASIZE CALLDATASIZE KECCAK256 COINBASE KECCAK256 BALANCE CALLDATASIZE ADDRESS KECCAK256 BALANCE CALLDATASIZE ADDRESS KECCAK256 ADDRESS KECCAK256 ADDRESS KECCAK256 BALANCE KECCAK256 CALLDATALOAD CALLDATACOPY CALLER 0x2E ORIGIN ORIGIN CODECOPY CALLER CALLVALUE CODECOPY BALANCE CALLDATACOPY CODESIZE CALLVALUE BALANCE CALLVALUE CALLVALUE KECCAK256 CALLER CALLDATASIZE CALLVALUE 0x2E BALANCE CALLDATACOPY CODECOPY ORIGIN CALLDATACOPY CALLVALUE CALLDATACOPY CODECOPY CODESIZE BALANCE CODECOPY CALLVALUE BALANCE KECCAK256 0x4C KECCAK256 CALLDATASIZE ADDRESS CALLER 0x2E CODESIZE CALLVALUE CALLVALUE ADDRESS ORIGIN CALLER CALLDATACOPY CALLDATASIZE CALLDATACOPY CALLDATASIZE ORIGIN BALANCE CALLDATASIZE KECCAK256 ORIGIN CODECOPY ADDRESS 0x2E ORIGIN CALLDATASIZE CODESIZE CODECOPY BALANCE ORIGIN BALANCE CODECOPY CALLDATACOPY ORIGIN CODECOPY BALANCE ORIGIN KECCAK256 COINBASE KECCAK256 ORIGIN CALLVALUE ADDRESS KECCAK256 ORIGIN CALLVALUE ADDRESS KECCAK256 ADDRESS KECCAK256 ADDRESS KECCAK256 ADDRESS KECCAK256 CALLDATALOAD CODESIZE BALANCE 0x2E CALLDATASIZE CALLDATASIZE CODESIZE CALLER ORIGIN ORIGIN CALLDATALOAD CALLVALUE BALANCE ADDRESS CALLDATACOPY ADDRESS CODECOPY KECCAK256 ORIGIN CODESIZE ORIGIN 0x2E CALLER CALLER CALLVALUE CALLER BALANCE CODECOPY CALLVALUE ORIGIN CALLVALUE ORIGIN CALLDATASIZE CODECOPY CODECOPY KECCAK256 GAS 0x22 KECCAK256 PUSH7 0x696C6C3D22626C PUSH2 0x636B 0x22 KECCAK256 PUSH20 0x74726F6B653D22626C61636B22207374726F6B65 0x2D PUSH24 0x696474683D2231222F3E0A3C7061746820643D224D203636 CALLDATALOAD 0x2E ADDRESS CALLDATACOPY CALLER CALLER CALLDATACOPY ORIGIN CODECOPY CALLVALUE CALLDATASIZE ADDRESS CALLER CALLDATASIZE KECCAK256 BALANCE CALLVALUE ORIGIN 0x2E CALLVALUE CALLVALUE CODESIZE BALANCE CODESIZE CALLDATASIZE CODECOPY CODECOPY CALLDATALOAD CALLVALUE CODESIZE CALLDATALOAD CALLER KECCAK256 COINBASE KECCAK256 CALLVALUE ADDRESS ADDRESS KECCAK256 CALLVALUE ADDRESS ADDRESS KECCAK256 ADDRESS KECCAK256 ADDRESS KECCAK256 BALANCE KECCAK256 CALLDATACOPY ADDRESS ADDRESS 0x2E CALLDATALOAD CALLDATALOAD CODESIZE CALLDATASIZE CODECOPY CALLVALUE CALLDATACOPY CALLER ADDRESS CALLER CODECOPY CODECOPY BALANCE KECCAK256 BALANCE CALLDATALOAD CODECOPY 0x2E ORIGIN CALLER BALANCE CALLVALUE CODECOPY CALLVALUE ORIGIN CALLDATASIZE ADDRESS CALLDATASIZE CALLDATALOAD CODESIZE KECCAK256 0x4C KECCAK256 CALLDATACOPY CALLER CODESIZE 0x2E ORIGIN CALLDATACOPY ADDRESS CALLVALUE CALLER CALLER CALLDATASIZE CALLDATACOPY CALLDATASIZE CALLVALUE CALLDATACOPY CODESIZE CODECOPY KECCAK256 CODESIZE CODESIZE 0x2E CALLDATASIZE CALLDATACOPY CALLDATACOPY CALLDATACOPY CODECOPY CALLER BALANCE BALANCE ORIGIN CALLDATACOPY CODESIZE CODECOPY CALLDATASIZE CALLER KECCAK256 COINBASE KECCAK256 CALLVALUE CODESIZE ADDRESS KECCAK256 CALLVALUE CODESIZE ADDRESS KECCAK256 ADDRESS KECCAK256 ADDRESS KECCAK256 ADDRESS KECCAK256 CALLDATASIZE CODECOPY CALLDATALOAD 0x2E CALLDATASIZE CODESIZE CODESIZE ADDRESS CALLVALUE CALLDATACOPY CALLDATALOAD CALLER CALLDATALOAD ORIGIN CALLVALUE CALLER ORIGIN KECCAK256 CALLDATASIZE CODESIZE 0x2E CALLDATALOAD CALLER CALLDATACOPY CODESIZE ORIGIN CALLVALUE CALLER CODECOPY CALLVALUE CALLDATALOAD CODESIZE ORIGIN CALLER CALLVALUE KECCAK256 GAS 0x22 KECCAK256 PUSH7 0x696C6C3D22626C PUSH2 0x636B 0x22 KECCAK256 PUSH20 0x74726F6B653D22626C61636B22207374726F6B65 0x2D PUSH24 0x696474683D2231222F3E0A3C7061746820643D224D203633 CALLVALUE 0x2E CALLVALUE CALLDATALOAD CODESIZE CALLDATASIZE CODECOPY CODESIZE CALLER CALLDATALOAD CALLDATASIZE CODESIZE ORIGIN CODESIZE CODESIZE KECCAK256 ORIGIN BALANCE CALLDATASIZE 0x2E CALLER CALLDATALOAD CODESIZE CALLDATALOAD CALLVALUE CODECOPY CALLDATALOAD CODECOPY CALLDATASIZE CALLER CODESIZE CODESIZE ORIGIN CALLER KECCAK256 COINBASE KECCAK256 CALLER ORIGIN ADDRESS KECCAK256 CALLER ORIGIN ADDRESS KECCAK256 ADDRESS KECCAK256 ADDRESS KECCAK256 BALANCE KECCAK256 CALLDATASIZE CALLDATASIZE ORIGIN 0x2E CODESIZE CALLVALUE CALLDATASIZE CODECOPY CALLDATALOAD CALLDATALOAD CALLDATACOPY CODESIZE CALLVALUE CALLER BALANCE CODECOPY CALLER KECCAK256 ORIGIN ORIGIN CODECOPY 0x2E CALLDATACOPY CODESIZE CALLDATALOAD BALANCE CODECOPY CALLDATALOAD CALLVALUE ADDRESS CODESIZE CALLDATALOAD ORIGIN CALLDATASIZE CALLVALUE ORIGIN KECCAK256 0x4C KECCAK256 CALLDATACOPY ADDRESS ADDRESS 0x2E CALLDATALOAD CALLDATALOAD CODESIZE CALLDATASIZE CODECOPY CALLVALUE CALLDATACOPY CALLER ADDRESS CALLER CODECOPY CODECOPY BALANCE KECCAK256 BALANCE CALLDATALOAD CODECOPY 0x2E ORIGIN CALLER BALANCE CALLVALUE CODECOPY CALLVALUE ORIGIN CALLDATASIZE ADDRESS CALLDATASIZE CALLDATALOAD CODESIZE KECCAK256 COINBASE KECCAK256 CALLVALUE ADDRESS ADDRESS KECCAK256 CALLVALUE ADDRESS ADDRESS KECCAK256 ADDRESS KECCAK256 ADDRESS KECCAK256 ADDRESS KECCAK256 CALLDATASIZE CALLDATASIZE CALLDATALOAD 0x2E ADDRESS CALLDATACOPY CALLER CALLER CALLDATACOPY ORIGIN CODECOPY CALLVALUE CALLDATASIZE ADDRESS CALLER CALLDATASIZE KECCAK256 BALANCE CALLVALUE ORIGIN 0x2E CALLVALUE CALLVALUE CODESIZE BALANCE CODESIZE CALLDATASIZE CODECOPY CODECOPY CALLDATALOAD CALLVALUE CODESIZE CALLDATALOAD CALLER KECCAK256 GAS 0x22 KECCAK256 PUSH7 0x696C6C3D22626C PUSH2 0x636B 0x22 KECCAK256 PUSH20 0x74726F6B653D22626C61636B22207374726F6B65 0x2D PUSH24 0x696474683D2231222F3E0A3C7061746820643D224D203630 CALLER 0x2E CODESIZE CALLVALUE CALLVALUE ADDRESS ORIGIN CALLER CALLDATACOPY CALLDATASIZE CALLDATACOPY CALLDATASIZE ORIGIN BALANCE CALLDATASIZE KECCAK256 ORIGIN CODECOPY ADDRESS 0x2E ORIGIN CALLDATASIZE CODESIZE CODECOPY BALANCE ORIGIN BALANCE CODECOPY CALLDATACOPY ORIGIN CODECOPY BALANCE ORIGIN KECCAK256 COINBASE KECCAK256 ORIGIN CALLVALUE ADDRESS KECCAK256 ORIGIN CALLVALUE ADDRESS KECCAK256 ADDRESS KECCAK256 ADDRESS KECCAK256 BALANCE KECCAK256 CALLDATASIZE ORIGIN CALLDATALOAD 0x2E BALANCE CALLER CALLDATALOAD ORIGIN BALANCE CALLDATASIZE CODESIZE CALLER CODESIZE ORIGIN CALLER CODECOPY CALLVALUE KECCAK256 CALLER ADDRESS ADDRESS 0x2E CALLER CALLER CODESIZE CODESIZE CODECOPY CALLDATASIZE CALLDATALOAD CALLDATALOAD CALLDATASIZE CALLER CODECOPY CALLVALUE CODESIZE CALLVALUE KECCAK256 0x4C KECCAK256 CALLDATASIZE CALLDATASIZE ORIGIN 0x2E CODESIZE CALLVALUE CALLDATASIZE CODECOPY CALLDATALOAD CALLDATALOAD CALLDATACOPY CODESIZE CALLVALUE CALLER BALANCE CODECOPY CALLER KECCAK256 ORIGIN ORIGIN CODECOPY 0x2E CALLDATACOPY CODESIZE CALLDATALOAD BALANCE CODECOPY CALLDATALOAD CALLVALUE ADDRESS CODESIZE CALLDATALOAD ORIGIN CALLDATASIZE CALLVALUE ORIGIN KECCAK256 COINBASE KECCAK256 CALLER ORIGIN ADDRESS KECCAK256 CALLER ORIGIN ADDRESS KECCAK256 ADDRESS KECCAK256 ADDRESS KECCAK256 ADDRESS KECCAK256 CALLDATASIZE CALLER CALLVALUE 0x2E CALLVALUE CALLDATALOAD CODESIZE CALLDATASIZE CODECOPY CODESIZE CALLER CALLDATALOAD CALLDATASIZE CODESIZE ORIGIN CODESIZE CODESIZE KECCAK256 ORIGIN BALANCE CALLDATASIZE 0x2E CALLER CALLDATALOAD CODESIZE CALLDATALOAD CALLVALUE CODECOPY CALLDATALOAD CODECOPY CALLDATASIZE CALLER CODESIZE CODESIZE ORIGIN CALLER KECCAK256 GAS 0x22 KECCAK256 PUSH7 0x696C6C3D22626C PUSH2 0x636B 0x22 KECCAK256 PUSH20 0x74726F6B653D22626C61636B22207374726F6B65 0x2D PUSH24 0x696474683D2231222F3E0A3C7061746820643D224D203537 CALLER 0x2E ORIGIN ORIGIN CODECOPY CALLER CALLVALUE CODECOPY BALANCE CALLDATACOPY CODESIZE CALLVALUE BALANCE CALLVALUE CALLVALUE KECCAK256 CALLER CALLDATASIZE CALLVALUE 0x2E BALANCE CALLDATACOPY CODECOPY ORIGIN CALLDATACOPY CALLVALUE CALLDATACOPY CODECOPY CODESIZE BALANCE CODECOPY CALLVALUE BALANCE KECCAK256 COINBASE KECCAK256 BALANCE CALLDATASIZE ADDRESS KECCAK256 BALANCE CALLDATASIZE ADDRESS KECCAK256 ADDRESS KECCAK256 ADDRESS KECCAK256 BALANCE KECCAK256 CALLDATALOAD CODESIZE CALLDATACOPY 0x2E CALLVALUE ORIGIN CALLER CALLVALUE CALLDATACOPY CALLDATACOPY CODESIZE CODECOPY ORIGIN BALANCE CALLDATALOAD CODECOPY CALLDATACOPY KECCAK256 CALLER CALLDATACOPY ADDRESS 0x2E CODESIZE CODECOPY ORIGIN CALLDATALOAD CODECOPY CALLDATACOPY CALLDATACOPY ADDRESS CALLVALUE ORIGIN CALLDATASIZE CALLER ORIGIN KECCAK256 0x4C KECCAK256 CALLDATASIZE ORIGIN CALLDATALOAD 0x2E BALANCE CALLER CALLDATALOAD ORIGIN BALANCE CALLDATASIZE CODESIZE CALLER CODESIZE ORIGIN CALLER CODECOPY CALLVALUE KECCAK256 CALLER ADDRESS ADDRESS 0x2E CALLER CALLER CODESIZE CODESIZE CODECOPY CALLDATASIZE CALLDATALOAD CALLDATALOAD CALLDATASIZE CALLER CODECOPY CALLVALUE CODESIZE CALLVALUE KECCAK256 COINBASE KECCAK256 ORIGIN CALLVALUE ADDRESS KECCAK256 ORIGIN CALLVALUE ADDRESS KECCAK256 ADDRESS KECCAK256 ADDRESS KECCAK256 ADDRESS KECCAK256 CALLDATASIZE ADDRESS CALLER 0x2E CODESIZE CALLVALUE CALLVALUE ADDRESS ORIGIN CALLER CALLDATACOPY CALLDATASIZE CALLDATACOPY CALLDATASIZE ORIGIN BALANCE CALLDATASIZE KECCAK256 ORIGIN CODECOPY ADDRESS 0x2E ORIGIN CALLDATASIZE CODESIZE CODECOPY BALANCE ORIGIN BALANCE CODECOPY CALLDATACOPY ORIGIN CODECOPY BALANCE ORIGIN KECCAK256 GAS 0x22 KECCAK256 PUSH7 0x696C6C3D22626C PUSH2 0x636B 0x22 KECCAK256 PUSH20 0x74726F6B653D22626C61636B22207374726F6B65 0x2D PUSH24 0x696474683D2231222F3E0A3C7061746820643D224D203730 ADDRESS 0x2E CALLDATALOAD CALLDATALOAD CODESIZE CALLDATASIZE CODECOPY CALLVALUE CALLDATACOPY CALLER ADDRESS CALLER CODECOPY CODECOPY BALANCE KECCAK256 BALANCE CALLDATALOAD CODECOPY 0x2E ORIGIN CALLER BALANCE CALLVALUE CODECOPY CALLVALUE ORIGIN CALLDATASIZE ADDRESS CALLDATASIZE CALLDATALOAD CODESIZE KECCAK256 COINBASE KECCAK256 CALLVALUE ADDRESS ADDRESS KECCAK256 CALLVALUE ADDRESS ADDRESS KECCAK256 ADDRESS KECCAK256 ADDRESS KECCAK256 BALANCE KECCAK256 CALLDATACOPY CALLER CALLVALUE 0x2E ORIGIN ORIGIN CODESIZE ADDRESS CODECOPY CALLER ORIGIN ADDRESS CALLDATACOPY CODESIZE CALLVALUE BALANCE KECCAK256 BALANCE CALLDATACOPY CODECOPY 0x2E CALLVALUE BALANCE ORIGIN BALANCE CALLDATALOAD CALLDATALOAD ADDRESS CALLDATACOPY CODESIZE CODECOPY CODESIZE BALANCE CODECOPY CALLER KECCAK256 0x4C KECCAK256 CALLDATACOPY CALLDATACOPY CODESIZE 0x2E CALLDATASIZE CALLDATACOPY CALLER CALLDATACOPY BALANCE BALANCE CODESIZE CALLVALUE CODECOPY CALLVALUE ADDRESS CODECOPY BALANCE KECCAK256 BALANCE BALANCE ORIGIN 0x2E CODESIZE CODECOPY CALLVALUE CALLDATALOAD CODESIZE CALLDATASIZE ADDRESS CODECOPY CALLVALUE CALLDATACOPY CALLDATACOPY CODESIZE CALLER CALLER KECCAK256 COINBASE KECCAK256 CALLVALUE CODESIZE ADDRESS KECCAK256 CALLVALUE CODESIZE ADDRESS KECCAK256 ADDRESS KECCAK256 ADDRESS KECCAK256 ADDRESS KECCAK256 CALLDATACOPY CALLER CODESIZE 0x2E ORIGIN CALLDATACOPY ADDRESS CALLVALUE CALLER CALLER CALLDATASIZE CALLDATACOPY CALLDATASIZE CALLVALUE CALLDATACOPY CODESIZE CODECOPY KECCAK256 CODESIZE CODESIZE 0x2E CALLDATASIZE CALLDATACOPY CALLDATACOPY CALLDATACOPY CODECOPY CALLER BALANCE BALANCE ORIGIN CALLDATACOPY CODESIZE CODECOPY CALLDATASIZE CALLER KECCAK256 GAS 0x22 KECCAK256 PUSH7 0x696C6C3D22626C PUSH2 0x636B 0x22 KECCAK256 PUSH20 0x74726F6B653D22626C61636B22207374726F6B65 0x2D PUSH24 0x696474683D2231222F3E0A3C7061746820643D224D203636 ORIGIN 0x2E CODESIZE CALLVALUE CALLDATASIZE CODECOPY CALLDATALOAD CALLDATALOAD CALLDATACOPY CODESIZE CALLVALUE CALLER BALANCE CODECOPY CALLER KECCAK256 ORIGIN ORIGIN CODECOPY 0x2E CALLDATACOPY CODESIZE CALLDATALOAD BALANCE CODECOPY CALLDATALOAD CALLVALUE ADDRESS CODESIZE CALLDATALOAD ORIGIN CALLDATASIZE CALLVALUE ORIGIN KECCAK256 COINBASE KECCAK256 CALLER ORIGIN ADDRESS KECCAK256 CALLER ORIGIN ADDRESS KECCAK256 ADDRESS KECCAK256 ADDRESS KECCAK256 BALANCE KECCAK256 CALLDATASIZE CODESIZE CODECOPY 0x2E CALLDATACOPY CODESIZE ORIGIN CALLVALUE CALLDATACOPY CALLVALUE CALLDATALOAD CALLDATASIZE CALLDATASIZE ORIGIN CALLDATACOPY ORIGIN CODESIZE KECCAK256 ORIGIN CALLVALUE CALLDATALOAD 0x2E CODECOPY ORIGIN CODECOPY CALLDATACOPY ORIGIN CALLVALUE ADDRESS CALLDATASIZE CALLER BALANCE CODESIZE CALLDATALOAD CALLDATALOAD CALLDATACOPY KECCAK256 0x4C KECCAK256 CALLDATACOPY CALLER CALLVALUE 0x2E ORIGIN ORIGIN CODESIZE ADDRESS CODECOPY CALLER ORIGIN ADDRESS CALLDATACOPY CODESIZE CALLVALUE BALANCE KECCAK256 BALANCE CALLDATACOPY CODECOPY 0x2E CALLVALUE BALANCE ORIGIN BALANCE CALLDATALOAD CALLDATALOAD ADDRESS CALLDATACOPY CODESIZE CODECOPY CODESIZE BALANCE CODECOPY CALLER KECCAK256 COINBASE KECCAK256 CALLVALUE ADDRESS ADDRESS KECCAK256 CALLVALUE ADDRESS ADDRESS KECCAK256 ADDRESS KECCAK256 ADDRESS KECCAK256 ADDRESS KECCAK256 CALLDATACOPY ADDRESS ADDRESS 0x2E CALLDATALOAD CALLDATALOAD CODESIZE CALLDATASIZE CODECOPY CALLVALUE CALLDATACOPY CALLER ADDRESS CALLER CODECOPY CODECOPY BALANCE KECCAK256 BALANCE CALLDATALOAD CODECOPY 0x2E ORIGIN CALLER BALANCE CALLVALUE CODECOPY CALLVALUE ORIGIN CALLDATASIZE ADDRESS CALLDATASIZE CALLDATALOAD CODESIZE KECCAK256 GAS 0x22 KECCAK256 PUSH7 0x696C6C3D22626C PUSH2 0x636B 0x22 KECCAK256 PUSH20 0x74726F6B653D22626C61636B22207374726F6B65 0x2D PUSH24 0x696474683D2231222F3E0A3C7061746820643D224D203632 CALLDATALOAD 0x2E BALANCE CALLER CALLDATALOAD ORIGIN BALANCE CALLDATASIZE CODESIZE CALLER CODESIZE ORIGIN CALLER CODECOPY CALLVALUE KECCAK256 CALLER ADDRESS ADDRESS 0x2E CALLER CALLER CODESIZE CODESIZE CODECOPY CALLDATASIZE CALLDATALOAD CALLDATALOAD CALLDATASIZE CALLER CODECOPY CALLVALUE CODESIZE CALLVALUE KECCAK256 COINBASE KECCAK256 ORIGIN CALLVALUE ADDRESS KECCAK256 ORIGIN CALLVALUE ADDRESS KECCAK256 ADDRESS KECCAK256 ADDRESS KECCAK256 BALANCE KECCAK256 CALLDATASIZE CALLVALUE CALLDATALOAD 0x2E CALLER CALLER CALLDATASIZE CODESIZE CALLDATALOAD CALLDATALOAD CODECOPY ORIGIN CALLVALUE CALLDATACOPY ADDRESS CALLVALUE CALLDATALOAD KECCAK256 CALLER BALANCE ORIGIN 0x2E CALLVALUE CALLVALUE CALLDATACOPY ORIGIN CODECOPY CALLER ADDRESS CALLVALUE CALLDATACOPY CALLER CODESIZE CODECOPY BALANCE CALLDATACOPY KECCAK256 0x4C KECCAK256 CALLDATASIZE CODESIZE CODECOPY 0x2E CALLDATACOPY CODESIZE ORIGIN CALLVALUE CALLDATACOPY CALLVALUE CALLDATALOAD CALLDATASIZE CALLDATASIZE ORIGIN CALLDATACOPY ORIGIN CODESIZE KECCAK256 ORIGIN CALLVALUE CALLDATALOAD 0x2E CODECOPY ORIGIN CODECOPY CALLDATACOPY ORIGIN CALLVALUE ADDRESS CALLDATASIZE CALLER BALANCE CODESIZE CALLDATALOAD CALLDATALOAD CALLDATACOPY KECCAK256 COINBASE KECCAK256 CALLER ORIGIN ADDRESS KECCAK256 CALLER ORIGIN ADDRESS KECCAK256 ADDRESS KECCAK256 ADDRESS KECCAK256 ADDRESS KECCAK256 CALLDATASIZE CALLDATASIZE ORIGIN 0x2E CODESIZE CALLVALUE CALLDATASIZE CODECOPY CALLDATALOAD CALLDATALOAD CALLDATACOPY CODESIZE CALLVALUE CALLER BALANCE CODECOPY CALLER KECCAK256 ORIGIN ORIGIN CODECOPY 0x2E CALLDATACOPY CODESIZE CALLDATALOAD BALANCE CODECOPY CALLDATALOAD CALLVALUE ADDRESS CODESIZE CALLDATALOAD ORIGIN CALLDATASIZE CALLVALUE ORIGIN KECCAK256 GAS 0x22 KECCAK256 PUSH7 0x696C6C3D22626C PUSH2 0x636B 0x22 KECCAK256 PUSH20 0x74726F6B653D22626C61636B22207374726F6B65 0x2D PUSH24 0x696474683D2231222F3E0A3C7061746820643D224D203538 CALLDATACOPY 0x2E CALLVALUE ORIGIN CALLER CALLVALUE CALLDATACOPY CALLDATACOPY CODESIZE CODECOPY ORIGIN BALANCE CALLDATALOAD CODECOPY CALLDATACOPY KECCAK256 CALLER CALLDATACOPY ADDRESS 0x2E CODESIZE CODECOPY ORIGIN CALLDATALOAD CODECOPY CALLDATACOPY CALLDATACOPY ADDRESS CALLVALUE ORIGIN CALLDATASIZE CALLER ORIGIN KECCAK256 COINBASE KECCAK256 BALANCE CALLDATASIZE ADDRESS KECCAK256 BALANCE CALLDATASIZE ADDRESS KECCAK256 ADDRESS KECCAK256 ADDRESS KECCAK256 BALANCE KECCAK256 CALLDATASIZE ADDRESS ADDRESS 0x2E CODESIZE CODECOPY BALANCE ORIGIN CALLER CALLDATACOPY ORIGIN CODESIZE CALLER BALANCE CALLER CALLDATASIZE CALLVALUE KECCAK256 CALLER CALLDATACOPY CODESIZE 0x2E CODECOPY CALLDATASIZE CALLVALUE CODESIZE CALLDATASIZE ORIGIN ADDRESS CALLER BALANCE CALLDATALOAD CODECOPY ORIGIN CODESIZE KECCAK256 0x4C KECCAK256 CALLDATASIZE CALLVALUE CALLDATALOAD 0x2E CALLER CALLER CALLDATASIZE CODESIZE CALLDATALOAD CALLDATALOAD CODECOPY ORIGIN CALLVALUE CALLDATACOPY ADDRESS CALLVALUE CALLDATALOAD KECCAK256 CALLER BALANCE ORIGIN 0x2E CALLVALUE CALLVALUE CALLDATACOPY ORIGIN CODECOPY CALLER ADDRESS CALLVALUE CALLDATACOPY CALLER CODESIZE CODECOPY BALANCE CALLDATACOPY KECCAK256 COINBASE KECCAK256 ORIGIN CALLVALUE ADDRESS KECCAK256 ORIGIN CALLVALUE ADDRESS KECCAK256 ADDRESS KECCAK256 ADDRESS KECCAK256 ADDRESS KECCAK256 CALLDATASIZE ORIGIN CALLDATALOAD 0x2E BALANCE CALLER CALLDATALOAD ORIGIN BALANCE CALLDATASIZE CODESIZE CALLER CODESIZE ORIGIN CALLER CODECOPY CALLVALUE KECCAK256 CALLER ADDRESS ADDRESS 0x2E CALLER CALLER CODESIZE CODESIZE CODECOPY CALLDATASIZE CALLDATALOAD CALLDATALOAD CALLDATASIZE CALLER CODECOPY CALLVALUE CODESIZE CALLVALUE KECCAK256 GAS 0x22 KECCAK256 PUSH7 0x696C6C3D22626C PUSH2 0x636B 0x22 KECCAK256 PUSH20 0x74726F6B653D22626C61636B22207374726F6B65 0x2D PUSH24 0x696474683D2231222F3E0A3C7061746820643D224D203733 CALLVALUE 0x2E ORIGIN ORIGIN CODESIZE ADDRESS CODECOPY CALLER ORIGIN ADDRESS CALLDATACOPY CODESIZE CALLVALUE ADDRESS CODECOPY KECCAK256 BALANCE CALLDATACOPY CODECOPY 0x2E CALLVALUE BALANCE ORIGIN BALANCE CALLDATALOAD CALLDATALOAD ADDRESS CALLDATACOPY CODESIZE CODECOPY CODESIZE BALANCE CODECOPY CALLER KECCAK256 COINBASE KECCAK256 CALLVALUE ADDRESS ADDRESS KECCAK256 CALLVALUE ADDRESS ADDRESS KECCAK256 ADDRESS KECCAK256 ADDRESS KECCAK256 BALANCE KECCAK256 CALLDATACOPY CALLDATASIZE CALLDATALOAD 0x2E CALLDATACOPY CALLDATALOAD CALLDATACOPY CALLER BALANCE CALLER CALLDATASIZE CALLDATASIZE CALLDATALOAD CALLVALUE CALLDATALOAD CODESIZE ORIGIN KECCAK256 ORIGIN ADDRESS ORIGIN 0x2E CALLDATACOPY CODECOPY CALLDATALOAD CODESIZE BALANCE CODESIZE CALLDATASIZE CALLDATALOAD CALLVALUE CODECOPY ADDRESS CALLDATALOAD ORIGIN CALLDATALOAD KECCAK256 0x4C KECCAK256 CODESIZE BALANCE CALLDATASIZE 0x2E CALLDATALOAD ADDRESS CODESIZE CALLDATACOPY CALLDATACOPY CALLDATASIZE CALLER CODECOPY CODESIZE CALLDATALOAD CALLVALUE CODECOPY CODECOPY KECCAK256 BALANCE CALLVALUE ADDRESS 0x2E CODECOPY CALLDATALOAD CALLVALUE CODECOPY CODESIZE ORIGIN CALLER CODESIZE CALLDATALOAD CODESIZE CODESIZE CALLDATASIZE CALLER KECCAK256 COINBASE KECCAK256 CALLVALUE CODESIZE ADDRESS KECCAK256 CALLVALUE CODESIZE ADDRESS KECCAK256 ADDRESS KECCAK256 ADDRESS KECCAK256 ADDRESS KECCAK256 CALLDATACOPY CALLDATACOPY CODESIZE 0x2E CALLDATASIZE CALLDATACOPY CALLER CALLDATACOPY BALANCE BALANCE CODESIZE CALLVALUE CODECOPY CALLVALUE ADDRESS CODECOPY BALANCE KECCAK256 BALANCE BALANCE ORIGIN 0x2E CODESIZE CODECOPY CALLVALUE CALLDATALOAD CODESIZE CALLDATASIZE ADDRESS CODECOPY CALLVALUE CALLDATACOPY CALLDATACOPY CODESIZE CALLER CALLER KECCAK256 GAS 0x22 KECCAK256 PUSH7 0x696C6C3D22626C PUSH2 0x636B 0x22 KECCAK256 PUSH20 0x74726F6B653D22626C61636B22207374726F6B65 0x2D PUSH24 0x696474683D2231222F3E0A3C7061746820643D224D203638 CODECOPY 0x2E CALLDATACOPY CODESIZE ORIGIN CALLVALUE CALLDATACOPY CALLVALUE CALLDATALOAD CALLDATASIZE CALLDATASIZE ORIGIN CALLDATACOPY ORIGIN CODESIZE KECCAK256 ORIGIN CALLVALUE CALLDATALOAD 0x2E CODECOPY ORIGIN CODECOPY CALLDATACOPY ORIGIN CALLVALUE ADDRESS CALLDATASIZE CALLER BALANCE CODESIZE CALLDATALOAD CALLDATALOAD CALLDATACOPY KECCAK256 COINBASE KECCAK256 CALLER ORIGIN ADDRESS KECCAK256 CALLER ORIGIN ADDRESS KECCAK256 ADDRESS KECCAK256 ADDRESS KECCAK256 BALANCE KECCAK256 CALLDATACOPY BALANCE CALLDATALOAD 0x2E ADDRESS ADDRESS CALLDATALOAD CODESIZE CALLDATALOAD ADDRESS CODECOPY CALLER ORIGIN CALLER CALLDATASIZE CALLDATASIZE CALLDATASIZE KECCAK256 ORIGIN CALLDATASIZE CALLVALUE 0x2E CALLDATASIZE CALLER CALLDATASIZE CALLDATASIZE CALLDATALOAD CALLVALUE CODECOPY ORIGIN CALLER CODECOPY ORIGIN CALLVALUE ORIGIN KECCAK256 0x4C KECCAK256 CALLDATACOPY CALLDATASIZE CALLDATALOAD 0x2E CALLDATACOPY CALLDATALOAD CALLDATACOPY CALLER BALANCE CALLER CALLDATASIZE CALLDATASIZE CALLDATALOAD CALLVALUE CALLDATALOAD CODESIZE ORIGIN KECCAK256 ORIGIN ADDRESS ORIGIN 0x2E CALLDATACOPY CODECOPY CALLDATALOAD CODESIZE BALANCE CODESIZE CALLDATASIZE CALLDATALOAD CALLVALUE CODECOPY ADDRESS CALLDATALOAD ORIGIN CALLDATALOAD KECCAK256 COINBASE KECCAK256 CALLVALUE ADDRESS ADDRESS KECCAK256 CALLVALUE ADDRESS ADDRESS KECCAK256 ADDRESS KECCAK256 ADDRESS KECCAK256 ADDRESS KECCAK256 CALLDATACOPY CALLER CALLVALUE 0x2E ORIGIN ORIGIN CODESIZE ADDRESS CODECOPY CALLER ORIGIN ADDRESS CALLDATACOPY CODESIZE CALLVALUE ADDRESS CODECOPY KECCAK256 BALANCE CALLDATACOPY CODECOPY 0x2E CALLVALUE BALANCE ORIGIN BALANCE CALLDATALOAD CALLDATALOAD ADDRESS CALLDATACOPY CODESIZE CODECOPY CODESIZE BALANCE CODECOPY CALLER KECCAK256 GAS 0x22 KECCAK256 PUSH7 0x696C6C3D22626C PUSH2 0x636B 0x22 KECCAK256 PUSH20 0x74726F6B653D22626C61636B22207374726F6B65 0x2D PUSH24 0x696474683D2231222F3E0A3C7061746820643D224D203634 CALLDATALOAD 0x2E CALLER CALLER CALLDATASIZE CODESIZE CALLDATALOAD CALLDATALOAD CODECOPY ORIGIN CALLVALUE CALLDATACOPY ADDRESS CALLVALUE CALLDATALOAD KECCAK256 CALLER BALANCE ORIGIN 0x2E CALLVALUE CALLVALUE CALLDATACOPY ORIGIN CODECOPY CALLER ADDRESS CALLVALUE CALLDATACOPY CALLER CODESIZE CODECOPY BALANCE CALLDATACOPY KECCAK256 COINBASE KECCAK256 ORIGIN CALLVALUE ADDRESS KECCAK256 ORIGIN CALLVALUE ADDRESS KECCAK256 ADDRESS KECCAK256 ADDRESS KECCAK256 BALANCE KECCAK256 CALLDATASIZE CALLDATASIZE CALLVALUE 0x2E ORIGIN CALLDATALOAD CALLVALUE CALLER CODESIZE CODESIZE BALANCE CODECOPY CODECOPY ORIGIN CALLDATACOPY CALLVALUE CODECOPY KECCAK256 CALLER ORIGIN CALLDATASIZE 0x2E CALLVALUE CALLDATACOPY CALLDATACOPY CALLVALUE CODECOPY BALANCE BALANCE CODECOPY ORIGIN CODECOPY CALLVALUE CALLER BALANCE CALLDATALOAD KECCAK256 0x4C KECCAK256 CALLDATACOPY BALANCE CALLDATALOAD 0x2E ADDRESS ADDRESS CALLDATALOAD CODESIZE CALLDATALOAD ADDRESS CODECOPY CALLER ORIGIN CALLER CALLDATASIZE CALLDATASIZE CALLDATASIZE KECCAK256 ORIGIN CALLDATASIZE CALLVALUE 0x2E CALLDATASIZE CALLER CALLDATASIZE CALLDATASIZE CALLDATALOAD CALLVALUE CODECOPY ORIGIN CALLER CODECOPY ORIGIN CALLVALUE ORIGIN KECCAK256 COINBASE KECCAK256 CALLER ORIGIN ADDRESS KECCAK256 CALLER ORIGIN ADDRESS KECCAK256 ADDRESS KECCAK256 ADDRESS KECCAK256 ADDRESS KECCAK256 CALLDATASIZE CODESIZE CODECOPY 0x2E CALLDATACOPY CODESIZE ORIGIN CALLVALUE CALLDATACOPY CALLVALUE CALLDATALOAD CALLDATASIZE CALLDATASIZE ORIGIN CALLDATACOPY ORIGIN CODESIZE KECCAK256 ORIGIN CALLVALUE CALLDATALOAD 0x2E CODECOPY ORIGIN CODECOPY CALLDATACOPY ORIGIN CALLVALUE ADDRESS CALLDATASIZE CALLER BALANCE CODESIZE CALLDATALOAD CALLDATALOAD CALLDATACOPY KECCAK256 GAS 0x22 KECCAK256 PUSH7 0x696C6C3D22626C PUSH2 0x636B 0x22 KECCAK256 PUSH20 0x74726F6B653D22626C61636B22207374726F6B65 0x2D PUSH24 0x696474683D2231222F3E0A3C7061746820643D224D203630 ADDRESS 0x2E CODESIZE CODECOPY BALANCE ORIGIN CALLER CALLDATACOPY ORIGIN CODESIZE CALLER BALANCE CALLER CALLDATASIZE CALLER KECCAK256 CALLER CALLDATACOPY CODESIZE 0x2E CODECOPY CALLDATASIZE CALLVALUE CODESIZE CALLDATASIZE ORIGIN ADDRESS CALLER BALANCE CALLDATALOAD CODECOPY ORIGIN CODESIZE KECCAK256 COINBASE KECCAK256 BALANCE CALLDATASIZE ADDRESS KECCAK256 BALANCE CALLDATASIZE ADDRESS KECCAK256 ADDRESS KECCAK256 ADDRESS KECCAK256 BALANCE KECCAK256 CALLDATASIZE BALANCE CALLER 0x2E CALLDATALOAD ADDRESS ORIGIN CODECOPY ORIGIN CALLDATALOAD CALLVALUE CALLDATASIZE CALLDATASIZE BALANCE CODESIZE CALLER CALLER KECCAK256 CALLER CODESIZE CODESIZE 0x2E CALLER BALANCE CODESIZE CALLER ORIGIN CALLDATACOPY CALLVALUE CALLDATASIZE BALANCE CODECOPY CALLDATASIZE ORIGIN BALANCE KECCAK256 0x4C KECCAK256 CALLDATASIZE CALLDATASIZE CALLVALUE 0x2E ORIGIN CALLDATALOAD CALLVALUE CALLER CODESIZE CODESIZE BALANCE CODECOPY CODECOPY ORIGIN CALLDATACOPY CALLVALUE CODECOPY KECCAK256 CALLER ORIGIN CALLDATASIZE 0x2E CALLVALUE CALLDATACOPY CALLDATACOPY CALLVALUE CODECOPY BALANCE BALANCE CODECOPY ORIGIN CODECOPY CALLVALUE CALLER BALANCE CALLDATALOAD KECCAK256 COINBASE KECCAK256 ORIGIN CALLVALUE ADDRESS KECCAK256 ORIGIN CALLVALUE ADDRESS KECCAK256 ADDRESS KECCAK256 ADDRESS KECCAK256 ADDRESS KECCAK256 CALLDATASIZE CALLVALUE CALLDATALOAD 0x2E CALLER CALLER CALLDATASIZE CODESIZE CALLDATALOAD CALLDATALOAD CODECOPY ORIGIN CALLVALUE CALLDATACOPY ADDRESS CALLVALUE CALLDATALOAD KECCAK256 CALLER BALANCE ORIGIN 0x2E CALLVALUE CALLVALUE CALLDATACOPY ORIGIN CODECOPY CALLER ADDRESS CALLVALUE CALLDATACOPY CALLER CODESIZE CODECOPY BALANCE CALLDATACOPY KECCAK256 GAS 0x22 KECCAK256 PUSH7 0x696C6C3D22626C PUSH2 0x636B 0x22 KECCAK256 PUSH20 0x74726F6B653D22626C61636B22207374726F6B65 0x2D PUSH24 0x696474683D2231222F3E0A3C7061746820643D224D203736 CALLDATALOAD 0x2E CALLDATACOPY CALLDATALOAD CALLDATACOPY CALLER BALANCE CALLER CALLDATASIZE CALLDATASIZE CALLDATALOAD CALLVALUE CALLDATALOAD CODESIZE ORIGIN KECCAK256 ORIGIN ADDRESS ORIGIN 0x2E CALLDATACOPY CODECOPY CALLDATALOAD CODESIZE BALANCE CODESIZE CALLDATASIZE CALLDATALOAD CALLVALUE CODECOPY ADDRESS CALLDATALOAD ORIGIN CALLDATALOAD KECCAK256 COINBASE KECCAK256 CALLVALUE ADDRESS ADDRESS KECCAK256 CALLVALUE ADDRESS ADDRESS KECCAK256 ADDRESS KECCAK256 ADDRESS KECCAK256 BALANCE KECCAK256 CALLDATACOPY CODECOPY CALLVALUE 0x2E CODESIZE CALLVALUE ORIGIN CALLDATACOPY BALANCE ORIGIN CALLVALUE CALLDATACOPY CALLVALUE CALLDATASIZE BALANCE CODECOPY KECCAK256 ORIGIN ORIGIN CODECOPY 0x2E BALANCE CALLDATALOAD CALLDATACOPY ORIGIN CODESIZE CALLDATACOPY CALLDATALOAD ORIGIN CALLDATALOAD CALLER CODESIZE BALANCE ADDRESS CALLVALUE KECCAK256 0x4C KECCAK256 CODESIZE CALLDATALOAD BALANCE 0x2E CALLVALUE BALANCE BALANCE ORIGIN CALLDATALOAD CALLVALUE CODECOPY CALLDATASIZE CODECOPY CALLDATALOAD CALLVALUE ORIGIN CODESIZE KECCAK256 BALANCE CALLDATACOPY ORIGIN 0x2E CALLDATALOAD CODESIZE CODESIZE CALLDATACOPY CALLVALUE CALLDATALOAD ADDRESS CALLER ADDRESS CALLVALUE CALLDATALOAD CALLDATACOPY ORIGIN CALLER KECCAK256 COINBASE KECCAK256 CALLVALUE CODESIZE ADDRESS KECCAK256 CALLVALUE CODESIZE ADDRESS KECCAK256 ADDRESS KECCAK256 ADDRESS KECCAK256 ADDRESS KECCAK256 CODESIZE BALANCE CALLDATASIZE 0x2E CALLDATALOAD ADDRESS CODESIZE CALLDATACOPY CALLDATACOPY CALLDATASIZE CALLER CODECOPY CODESIZE CALLDATALOAD CALLVALUE CODECOPY CODECOPY KECCAK256 BALANCE CALLVALUE ADDRESS 0x2E CODECOPY CALLDATALOAD CALLVALUE CODECOPY CODESIZE ORIGIN CALLER CODESIZE CALLDATALOAD CODESIZE CODESIZE CALLDATASIZE CALLER KECCAK256 GAS 0x22 KECCAK256 PUSH7 0x696C6C3D22626C PUSH2 0x636B 0x22 KECCAK256 PUSH20 0x74726F6B653D22626C61636B22207374726F6B65 0x2D PUSH24 0x696474683D2231222F3E0A3C7061746820643D224D203731 CALLDATALOAD 0x2E ADDRESS ADDRESS CALLDATALOAD CODESIZE CALLDATALOAD ADDRESS CODECOPY CALLER ORIGIN CALLER CALLDATASIZE CALLDATASIZE CALLDATASIZE KECCAK256 ORIGIN CALLDATASIZE CALLVALUE 0x2E CALLDATASIZE CALLER CALLDATASIZE CALLDATASIZE CALLDATALOAD CALLVALUE CODECOPY ORIGIN CALLER CODECOPY ORIGIN CALLVALUE ORIGIN KECCAK256 COINBASE KECCAK256 CALLER ORIGIN ADDRESS KECCAK256 CALLER ORIGIN ADDRESS KECCAK256 ADDRESS KECCAK256 ADDRESS KECCAK256 BALANCE KECCAK256 CALLDATACOPY CALLER CODESIZE 0x2E ORIGIN CALLDATACOPY CALLVALUE BALANCE CALLDATASIZE CODECOPY CODECOPY CALLDATACOPY CODECOPY CALLDATASIZE CODECOPY CALLDATALOAD ORIGIN KECCAK256 ORIGIN CODESIZE CALLDATALOAD 0x2E CALLDATACOPY ORIGIN CALLDATALOAD CODESIZE CALLER ADDRESS ADDRESS ORIGIN ADDRESS CALLER ADDRESS CALLVALUE CODESIZE KECCAK256 0x4C KECCAK256 CALLDATACOPY CODECOPY CALLVALUE 0x2E CODESIZE CALLVALUE ORIGIN CALLDATACOPY BALANCE ORIGIN CALLVALUE CALLDATACOPY CALLVALUE CALLDATASIZE BALANCE CODECOPY KECCAK256 ORIGIN ORIGIN CODECOPY 0x2E BALANCE CALLDATALOAD CALLDATACOPY ORIGIN CODESIZE CALLDATACOPY CALLDATALOAD ORIGIN CALLDATALOAD CALLER CODESIZE BALANCE ADDRESS CALLVALUE KECCAK256 COINBASE KECCAK256 CALLVALUE ADDRESS ADDRESS KECCAK256 CALLVALUE ADDRESS ADDRESS KECCAK256 ADDRESS KECCAK256 ADDRESS KECCAK256 ADDRESS KECCAK256 CALLDATACOPY CALLDATASIZE CALLDATALOAD 0x2E CALLDATACOPY CALLDATALOAD CALLDATACOPY CALLER BALANCE CALLER CALLDATASIZE CALLDATASIZE CALLDATALOAD CALLVALUE CALLDATALOAD CODESIZE ORIGIN KECCAK256 ORIGIN ADDRESS ORIGIN 0x2E CALLDATACOPY CODECOPY CALLDATALOAD CODESIZE BALANCE CODESIZE CALLDATASIZE CALLDATALOAD CALLVALUE CODECOPY ADDRESS CALLDATALOAD ORIGIN CALLDATALOAD KECCAK256 GAS 0x22 KECCAK256 PUSH7 0x696C6C3D22626C PUSH2 0x636B 0x22 KECCAK256 PUSH20 0x74726F6B653D22626C61636B22207374726F6B65 0x2D PUSH24 0x696474683D2231222F3E0A3C7061746820643D224D203636 CALLVALUE 0x2E ORIGIN CALLDATALOAD CALLVALUE CALLER CODESIZE CODESIZE BALANCE CODECOPY CODECOPY ORIGIN CALLDATACOPY CALLVALUE CODECOPY KECCAK256 CALLER ORIGIN CALLDATASIZE 0x2E CALLVALUE CALLDATACOPY CALLDATACOPY CALLVALUE CODECOPY BALANCE BALANCE CODECOPY ORIGIN CODECOPY CALLVALUE CALLER BALANCE CALLDATALOAD KECCAK256 COINBASE KECCAK256 ORIGIN CALLVALUE ADDRESS KECCAK256 ORIGIN CALLVALUE ADDRESS KECCAK256 ADDRESS KECCAK256 ADDRESS KECCAK256 BALANCE KECCAK256 CALLDATASIZE CODESIZE BALANCE 0x2E CALLDATACOPY ADDRESS CALLDATALOAD CALLDATASIZE ORIGIN CALLDATACOPY CALLVALUE CODESIZE CALLVALUE CALLDATACOPY CALLDATACOPY BALANCE CALLVALUE KECCAK256 CALLER CALLVALUE ORIGIN 0x2E ORIGIN CODECOPY CALLVALUE CALLER CALLDATACOPY ORIGIN CALLDATALOAD BALANCE CALLDATALOAD ORIGIN ORIGIN CODESIZE CALLDATASIZE KECCAK256 0x4C KECCAK256 CALLDATACOPY CALLER CODESIZE 0x2E ORIGIN CALLDATACOPY CALLVALUE BALANCE CALLDATASIZE CODECOPY CODECOPY CALLDATACOPY CODECOPY CALLDATASIZE CODECOPY CALLDATALOAD ORIGIN KECCAK256 ORIGIN CODESIZE CALLDATALOAD 0x2E CALLDATACOPY ORIGIN CALLDATALOAD CODESIZE CALLER ADDRESS ADDRESS ORIGIN ADDRESS CALLER ADDRESS CALLVALUE CODESIZE KECCAK256 COINBASE KECCAK256 CALLER ORIGIN ADDRESS KECCAK256 CALLER ORIGIN ADDRESS KECCAK256 ADDRESS KECCAK256 ADDRESS KECCAK256 ADDRESS KECCAK256 CALLDATACOPY BALANCE CALLDATALOAD 0x2E ADDRESS ADDRESS CALLDATALOAD CODESIZE CALLDATALOAD ADDRESS CODECOPY CALLER ORIGIN CALLER CALLDATASIZE CALLDATASIZE CALLDATASIZE KECCAK256 ORIGIN CALLDATASIZE CALLVALUE 0x2E CALLDATASIZE CALLER CALLDATASIZE CALLDATASIZE CALLDATALOAD CALLVALUE CODECOPY ORIGIN CALLER CODECOPY ORIGIN CALLVALUE ORIGIN KECCAK256 GAS 0x22 KECCAK256 PUSH7 0x696C6C3D22626C PUSH2 0x636B 0x22 KECCAK256 PUSH20 0x74726F6B653D22626C61636B22207374726F6B65 0x2D PUSH24 0x696474683D2231222F3E0A3C7061746820643D224D203631 CALLER 0x2E CALLDATALOAD ADDRESS ORIGIN CODECOPY ORIGIN CALLDATALOAD CALLVALUE CALLDATASIZE CALLDATASIZE BALANCE CODESIZE CALLER CALLER KECCAK256 CALLER CODESIZE CODESIZE 0x2E CALLER BALANCE CODESIZE CALLER ORIGIN CALLDATACOPY CALLVALUE CALLDATASIZE BALANCE CODECOPY CALLDATASIZE ORIGIN BALANCE KECCAK256 COINBASE KECCAK256 BALANCE CALLDATASIZE ADDRESS KECCAK256 BALANCE CALLDATASIZE ADDRESS KECCAK256 ADDRESS KECCAK256 ADDRESS KECCAK256 BALANCE KECCAK256 CALLDATASIZE ORIGIN CALLDATALOAD 0x2E BALANCE CALLER CALLDATACOPY ADDRESS CODESIZE CALLVALUE CODECOPY CODESIZE CODECOPY CODESIZE CALLVALUE CALLDATACOPY CALLDATASIZE KECCAK256 CALLER CODECOPY CODESIZE 0x2E CODESIZE CALLDATASIZE ORIGIN CODECOPY BALANCE CALLDATALOAD ADDRESS BALANCE ADDRESS BALANCE CALLDATALOAD ORIGIN CALLVALUE KECCAK256 0x4C KECCAK256 CALLDATASIZE CODESIZE BALANCE 0x2E CALLDATACOPY ADDRESS CALLDATALOAD CALLDATASIZE ORIGIN CALLDATACOPY CALLVALUE CODESIZE CALLVALUE CALLDATACOPY CALLDATACOPY BALANCE CALLVALUE KECCAK256 CALLER CALLVALUE ORIGIN 0x2E ORIGIN CODECOPY CALLVALUE CALLER CALLDATACOPY ORIGIN CALLDATALOAD BALANCE CALLDATALOAD ORIGIN ORIGIN CODESIZE CALLDATASIZE KECCAK256 COINBASE KECCAK256 ORIGIN CALLVALUE ADDRESS KECCAK256 ORIGIN CALLVALUE ADDRESS KECCAK256 ADDRESS KECCAK256 ADDRESS KECCAK256 ADDRESS KECCAK256 CALLDATASIZE CALLDATASIZE CALLVALUE 0x2E ORIGIN CALLDATALOAD CALLVALUE CALLER CODESIZE CODESIZE BALANCE CODECOPY CODECOPY ORIGIN CALLDATACOPY CALLVALUE CODECOPY KECCAK256 CALLER ORIGIN CALLDATASIZE 0x2E CALLVALUE CALLDATACOPY CALLDATACOPY CALLVALUE CODECOPY BALANCE BALANCE CODECOPY ORIGIN CODECOPY CALLVALUE CALLER BALANCE CALLDATALOAD KECCAK256 GAS 0x22 KECCAK256 PUSH7 0x696C6C3D22626C PUSH2 0x636B 0x22 KECCAK256 PUSH20 0x74726F6B653D22626C61636B22207374726F6B65 0x2D PUSH24 0x696474683D2231222F3E0A3C7061746820643D224D203739 CALLVALUE 0x2E CODESIZE CALLVALUE ORIGIN CALLDATACOPY BALANCE ORIGIN CALLVALUE CALLDATACOPY CALLVALUE CALLDATASIZE BALANCE CODECOPY KECCAK256 ORIGIN ORIGIN CODECOPY 0x2E BALANCE CALLDATALOAD CALLDATACOPY ORIGIN CODESIZE CALLDATACOPY CALLDATALOAD ORIGIN CALLDATALOAD CALLER CODESIZE BALANCE ADDRESS CALLVALUE KECCAK256 COINBASE KECCAK256 CALLVALUE ADDRESS ADDRESS KECCAK256 CALLVALUE ADDRESS ADDRESS KECCAK256 ADDRESS KECCAK256 ADDRESS KECCAK256 BALANCE KECCAK256 CODESIZE ORIGIN BALANCE 0x2E ORIGIN ADDRESS CALLVALUE BALANCE CODESIZE BALANCE CALLER CALLVALUE CALLDATALOAD ADDRESS CODECOPY CALLVALUE CODECOPY KECCAK256 ORIGIN CALLDATALOAD CODESIZE 0x2E ORIGIN CALLVALUE ORIGIN CALLDATASIZE CODESIZE CALLDATASIZE CALLER CALLER CALLVALUE CALLDATALOAD CALLVALUE BALANCE CODESIZE KECCAK256 0x4C KECCAK256 CODESIZE CODESIZE CALLER 0x2E ADDRESS CALLVALUE CALLDATALOAD ADDRESS BALANCE CALLDATACOPY CALLDATASIZE BALANCE CALLVALUE BALANCE BALANCE CALLER CALLDATACOPY KECCAK256 ORIGIN ADDRESS CALLDATACOPY 0x2E CALLVALUE CODECOPY BALANCE ORIGIN ORIGIN CALLER CALLDATASIZE ADDRESS BALANCE CALLVALUE CALLDATALOAD ADDRESS BALANCE CALLVALUE KECCAK256 COINBASE KECCAK256 CALLVALUE CODESIZE ADDRESS KECCAK256 CALLVALUE CODESIZE ADDRESS KECCAK256 ADDRESS KECCAK256 ADDRESS KECCAK256 ADDRESS KECCAK256 CODESIZE CALLDATALOAD BALANCE 0x2E CALLVALUE BALANCE BALANCE ORIGIN CALLDATALOAD CALLVALUE CODECOPY CALLDATASIZE CODECOPY CALLDATALOAD CALLVALUE ORIGIN CODESIZE KECCAK256 BALANCE CALLDATACOPY ORIGIN 0x2E CALLDATALOAD CODESIZE CODESIZE CALLDATACOPY CALLVALUE CALLDATALOAD ADDRESS CALLER ADDRESS CALLVALUE CALLDATALOAD CALLDATACOPY ORIGIN CALLER KECCAK256 GAS 0x22 KECCAK256 PUSH7 0x696C6C3D22626C PUSH2 0x636B 0x22 KECCAK256 PUSH20 0x74726F6B653D22626C61636B22207374726F6B65 0x2D PUSH24 0x696474683D2231222F3E0A3C7061746820643D224D203733 CODESIZE 0x2E ORIGIN CALLDATACOPY CALLVALUE BALANCE CALLDATASIZE CODECOPY CODECOPY CALLDATACOPY CODECOPY CALLDATASIZE CODECOPY CALLDATALOAD ORIGIN KECCAK256 ORIGIN CODESIZE CALLDATALOAD 0x2E CALLDATACOPY ORIGIN CALLDATALOAD CODESIZE CALLER ADDRESS ADDRESS ORIGIN ADDRESS CALLER ADDRESS CALLVALUE CODESIZE KECCAK256 COINBASE KECCAK256 CALLER ORIGIN ADDRESS KECCAK256 CALLER ORIGIN ADDRESS KECCAK256 ADDRESS KECCAK256 ADDRESS KECCAK256 BALANCE KECCAK256 CALLDATACOPY CALLDATALOAD CODECOPY 0x2E CALLER CALLDATASIZE CALLER CALLER CALLVALUE CALLDATALOAD ADDRESS CALLDATACOPY CALLDATASIZE ADDRESS CALLDATACOPY CALLDATALOAD CODESIZE KECCAK256 CALLER ADDRESS CODESIZE 0x2E CODECOPY CODECOPY CALLVALUE BALANCE CALLVALUE CODECOPY ADDRESS CALLDATASIZE CALLDATACOPY CALLDATASIZE CALLER CALLER CALLVALUE CALLER KECCAK256 0x4C KECCAK256 CODESIZE ORIGIN BALANCE 0x2E ORIGIN ADDRESS CALLVALUE BALANCE CODESIZE BALANCE CALLER CALLVALUE CALLDATALOAD ADDRESS CODECOPY CALLVALUE CODECOPY KECCAK256 ORIGIN CALLDATALOAD CODESIZE 0x2E ORIGIN CALLVALUE ORIGIN CALLDATASIZE CODESIZE CALLDATASIZE CALLER CALLER CALLVALUE CALLDATALOAD CALLVALUE BALANCE CODESIZE KECCAK256 COINBASE KECCAK256 CALLVALUE ADDRESS ADDRESS KECCAK256 CALLVALUE ADDRESS ADDRESS KECCAK256 ADDRESS KECCAK256 ADDRESS KECCAK256 ADDRESS KECCAK256 CALLDATACOPY CODECOPY CALLVALUE 0x2E CODESIZE CALLVALUE ORIGIN CALLDATACOPY BALANCE ORIGIN CALLVALUE CALLDATACOPY CALLVALUE CALLDATASIZE BALANCE CODECOPY KECCAK256 ORIGIN ORIGIN CODECOPY 0x2E BALANCE CALLDATALOAD CALLDATACOPY ORIGIN CODESIZE CALLDATACOPY CALLDATALOAD ORIGIN CALLDATALOAD CALLER CODESIZE BALANCE ADDRESS CALLVALUE KECCAK256 GAS 0x22 KECCAK256 PUSH7 0x696C6C3D22626C PUSH2 0x636B 0x22 KECCAK256 PUSH20 0x74726F6B653D22626C61636B22207374726F6B65 0x2D PUSH24 0x696474683D2231222F3E0A3C7061746820643D224D203638 BALANCE 0x2E CALLDATACOPY ADDRESS CALLDATALOAD CALLDATASIZE ORIGIN CALLDATACOPY CALLVALUE CODESIZE CALLVALUE CALLDATACOPY CALLDATACOPY BALANCE CALLVALUE KECCAK256 CALLER CALLVALUE ORIGIN 0x2E ORIGIN CODECOPY CALLVALUE CALLER CALLDATACOPY ORIGIN CALLDATALOAD BALANCE CALLDATALOAD ORIGIN ORIGIN CODESIZE CALLDATASIZE KECCAK256 COINBASE KECCAK256 ORIGIN CALLVALUE ADDRESS KECCAK256 ORIGIN CALLVALUE ADDRESS KECCAK256 ADDRESS KECCAK256 ADDRESS KECCAK256 BALANCE KECCAK256 CALLDATASIZE CODECOPY CALLDATACOPY 0x2E CALLDATALOAD ORIGIN ORIGIN CALLDATALOAD ADDRESS CODESIZE CODESIZE ADDRESS CALLDATACOPY ADDRESS CALLDATALOAD CALLDATASIZE CODECOPY KECCAK256 CALLER CALLDATALOAD CODECOPY 0x2E CALLDATACOPY CALLVALUE CALLDATALOAD CALLDATASIZE BALANCE BALANCE CODESIZE ADDRESS ADDRESS CALLDATACOPY ORIGIN CALLDATALOAD BALANCE KECCAK256 0x4C KECCAK256 CALLDATACOPY CALLDATALOAD CODECOPY 0x2E CALLER CALLDATASIZE CALLER CALLER CALLVALUE CALLDATALOAD ADDRESS CALLDATACOPY CALLDATASIZE ADDRESS CALLDATACOPY CALLDATALOAD CODESIZE KECCAK256 CALLER ADDRESS CODESIZE 0x2E CODECOPY CODECOPY CALLVALUE BALANCE CALLVALUE CODECOPY ADDRESS CALLDATASIZE CALLDATACOPY CALLDATASIZE CALLER CALLER CALLVALUE CALLER KECCAK256 COINBASE KECCAK256 CALLER ORIGIN ADDRESS KECCAK256 CALLER ORIGIN ADDRESS KECCAK256 ADDRESS KECCAK256 ADDRESS KECCAK256 ADDRESS KECCAK256 CALLDATACOPY CALLER CODESIZE 0x2E ORIGIN CALLDATACOPY CALLVALUE BALANCE CALLDATASIZE CODECOPY CODECOPY CALLDATACOPY CODECOPY CALLDATASIZE CODECOPY CALLDATALOAD ORIGIN KECCAK256 ORIGIN CODESIZE CALLDATALOAD 0x2E CALLDATACOPY ORIGIN CALLDATALOAD CODESIZE CALLER ADDRESS ADDRESS ORIGIN ADDRESS CALLER ADDRESS CALLVALUE CODESIZE KECCAK256 GAS 0x22 KECCAK256 PUSH7 0x696C6C3D22626C PUSH2 0x636B 0x22 KECCAK256 PUSH20 0x74726F6B653D22626C61636B22207374726F6B65 0x2D PUSH24 0x696474683D2231222F3E0A3C7061746820643D224D203632 CALLDATALOAD 0x2E BALANCE CALLER CALLDATACOPY ADDRESS CODESIZE CALLVALUE CODECOPY CODESIZE CODECOPY CODESIZE CALLVALUE CALLDATACOPY CALLDATASIZE KECCAK256 CALLER CODECOPY CODESIZE 0x2E CODESIZE CALLDATASIZE ORIGIN CODECOPY BALANCE CALLDATALOAD ADDRESS BALANCE ADDRESS BALANCE CALLDATALOAD ORIGIN CALLVALUE KECCAK256 COINBASE KECCAK256 BALANCE CALLDATASIZE ADDRESS KECCAK256 BALANCE CALLDATASIZE ADDRESS KECCAK256 ADDRESS KECCAK256 ADDRESS KECCAK256 BALANCE KECCAK256 CALLDATASIZE CALLER CALLDATALOAD 0x2E CALLDATASIZE CODESIZE BALANCE CALLDATASIZE CALLDATACOPY ORIGIN CALLDATALOAD CALLER CODESIZE ADDRESS CALLER CALLDATACOPY CODECOPY KECCAK256 CALLVALUE BALANCE ADDRESS 0x2E CALLVALUE CODECOPY CALLDATACOPY ADDRESS CALLDATACOPY CALLVALUE CALLDATALOAD CALLER CALLER CODESIZE BALANCE CALLDATASIZE CALLDATACOPY KECCAK256 0x4C KECCAK256 CALLDATASIZE CODECOPY CALLDATACOPY 0x2E CALLDATALOAD ORIGIN ORIGIN CALLDATALOAD ADDRESS CODESIZE CODESIZE ADDRESS CALLDATACOPY ADDRESS CALLDATALOAD CALLDATASIZE CODECOPY KECCAK256 CALLER CALLDATALOAD CODECOPY 0x2E CALLDATACOPY CALLVALUE CALLDATALOAD CALLDATASIZE BALANCE BALANCE CODESIZE ADDRESS ADDRESS CALLDATACOPY ORIGIN CALLDATALOAD BALANCE KECCAK256 COINBASE KECCAK256 ORIGIN CALLVALUE ADDRESS KECCAK256 ORIGIN CALLVALUE ADDRESS KECCAK256 ADDRESS KECCAK256 ADDRESS KECCAK256 ADDRESS KECCAK256 CALLDATASIZE CODESIZE BALANCE 0x2E CALLDATACOPY ADDRESS CALLDATALOAD CALLDATASIZE ORIGIN CALLDATACOPY CALLVALUE CODESIZE CALLVALUE CALLDATACOPY CALLDATACOPY BALANCE CALLVALUE KECCAK256 CALLER CALLVALUE ORIGIN 0x2E ORIGIN CODECOPY CALLVALUE CALLER CALLDATACOPY ORIGIN CALLDATALOAD BALANCE CALLDATALOAD ORIGIN ORIGIN CODESIZE CALLDATASIZE KECCAK256 GAS 0x22 KECCAK256 PUSH7 0x696C6C3D22626C PUSH2 0x636B 0x22 KECCAK256 PUSH20 0x74726F6B653D22626C61636B22207374726F6B65 0x2D PUSH24 0x696474683D2231222F3E0A3C7061746820643D224D203832 BALANCE 0x2E ORIGIN ADDRESS CALLVALUE BALANCE CODESIZE BALANCE CALLER CALLVALUE CALLDATALOAD ADDRESS CODECOPY CALLVALUE CODECOPY KECCAK256 ORIGIN CALLDATALOAD CODESIZE 0x2E ORIGIN CALLVALUE ORIGIN CALLDATASIZE CODESIZE CALLDATASIZE CALLER CALLER CALLVALUE CALLDATALOAD CALLVALUE BALANCE CODESIZE KECCAK256 COINBASE KECCAK256 CALLVALUE ADDRESS ADDRESS KECCAK256 CALLVALUE ADDRESS ADDRESS KECCAK256 ADDRESS KECCAK256 ADDRESS KECCAK256 BALANCE KECCAK256 CODESIZE CALLVALUE CALLVALUE 0x2E CALLDATALOAD CODESIZE CALLDATACOPY CODESIZE CALLVALUE CALLVALUE CODECOPY ORIGIN BALANCE ADDRESS BALANCE CODESIZE BALANCE KECCAK256 ORIGIN CODESIZE CODECOPY 0x2E CALLDATACOPY CALLDATACOPY BALANCE CODECOPY ADDRESS CALLDATASIZE CALLDATACOPY CODECOPY ORIGIN BALANCE CALLDATALOAD CODECOPY BALANCE CALLVALUE KECCAK256 0x4C KECCAK256 CODECOPY BALANCE BALANCE 0x2E BALANCE ADDRESS CALLDATALOAD CALLVALUE BALANCE CALLER CODECOPY ADDRESS CALLDATALOAD ORIGIN ORIGIN BALANCE CALLDATACOPY KECCAK256 ORIGIN CALLVALUE CALLDATALOAD 0x2E CALLER ORIGIN CALLDATASIZE ORIGIN CODESIZE CODESIZE BALANCE CALLDATALOAD ADDRESS CALLDATALOAD CODECOPY ADDRESS CODECOPY CALLER KECCAK256 COINBASE KECCAK256 CALLVALUE CODESIZE ADDRESS KECCAK256 CALLVALUE CODESIZE ADDRESS KECCAK256 ADDRESS KECCAK256 ADDRESS KECCAK256 ADDRESS KECCAK256 CODESIZE CODESIZE CALLER 0x2E ADDRESS CALLVALUE CALLDATALOAD ADDRESS BALANCE CALLDATACOPY CALLDATASIZE BALANCE CALLVALUE BALANCE BALANCE CALLER CALLDATACOPY KECCAK256 ORIGIN ADDRESS CALLDATACOPY 0x2E CALLVALUE CODECOPY BALANCE ORIGIN ORIGIN CALLER CALLDATASIZE ADDRESS BALANCE CALLVALUE CALLDATALOAD ADDRESS BALANCE CALLVALUE KECCAK256 GAS 0x22 KECCAK256 PUSH7 0x696C6C3D22626C PUSH2 0x636B 0x22 KECCAK256 PUSH20 0x74726F6B653D22626C61636B22207374726F6B65 0x2D PUSH24 0x696474683D2231222F3E0A3C7061746820643D224D203735 CODECOPY 0x2E CALLER CALLDATASIZE CALLER CALLER CALLVALUE CALLDATALOAD ADDRESS CALLDATACOPY CALLDATASIZE ADDRESS CALLDATACOPY CALLDATALOAD CODESIZE KECCAK256 CALLER ADDRESS CODESIZE 0x2E CODECOPY CODECOPY CALLVALUE BALANCE CALLVALUE CODECOPY ADDRESS CALLDATASIZE CALLDATACOPY CALLDATASIZE CALLER CALLER CALLVALUE CALLER KECCAK256 COINBASE KECCAK256 CALLER ORIGIN ADDRESS KECCAK256 CALLER ORIGIN ADDRESS KECCAK256 ADDRESS KECCAK256 ADDRESS KECCAK256 BALANCE KECCAK256 CALLDATACOPY CALLDATACOPY CODESIZE 0x2E ADDRESS CALLDATACOPY ADDRESS ORIGIN CALLDATACOPY CALLDATALOAD CODECOPY CALLER CALLDATASIZE CODESIZE BALANCE CALLVALUE CALLDATALOAD KECCAK256 CALLER CALLER CALLVALUE 0x2E ORIGIN BALANCE CALLDATACOPY CALLDATALOAD ORIGIN CALLDATALOAD CALLVALUE CALLER CALLER CALLDATACOPY ORIGIN CALLDATACOPY CALLER KECCAK256 0x4C KECCAK256 CODESIZE CALLVALUE CALLVALUE 0x2E CALLDATALOAD CODESIZE CALLDATACOPY CODESIZE CALLVALUE CALLVALUE CODECOPY ORIGIN BALANCE ADDRESS BALANCE CODESIZE BALANCE KECCAK256 ORIGIN CODESIZE CODECOPY 0x2E CALLDATACOPY CALLDATACOPY BALANCE CODECOPY ADDRESS CALLDATASIZE CALLDATACOPY CODECOPY ORIGIN BALANCE CALLDATALOAD CODECOPY BALANCE CALLVALUE KECCAK256 COINBASE KECCAK256 CALLVALUE ADDRESS ADDRESS KECCAK256 CALLVALUE ADDRESS ADDRESS KECCAK256 ADDRESS KECCAK256 ADDRESS KECCAK256 ADDRESS KECCAK256 CODESIZE ORIGIN BALANCE 0x2E ORIGIN ADDRESS CALLVALUE BALANCE CODESIZE BALANCE CALLER CALLVALUE CALLDATALOAD ADDRESS CODECOPY CALLVALUE CODECOPY KECCAK256 ORIGIN CALLDATALOAD CODESIZE 0x2E ORIGIN CALLVALUE ORIGIN CALLDATASIZE CODESIZE CALLDATASIZE CALLER CALLER CALLVALUE CALLDATALOAD CALLVALUE BALANCE CODESIZE KECCAK256 GAS 0x22 KECCAK256 PUSH7 0x696C6C3D22626C PUSH2 0x636B 0x22 KECCAK256 PUSH20 0x74726F6B653D22626C61636B22207374726F6B65 0x2D PUSH24 0x696474683D2231222F3E0A3C7061746820643D224D203639 CALLDATACOPY 0x2E CALLDATALOAD ORIGIN ORIGIN CALLDATALOAD ADDRESS CODESIZE CODESIZE ADDRESS CALLDATACOPY ADDRESS CALLDATALOAD CALLDATASIZE CODECOPY KECCAK256 CALLER CALLDATALOAD CODECOPY 0x2E CALLDATACOPY CALLVALUE CALLDATALOAD CALLDATASIZE BALANCE BALANCE CODESIZE ADDRESS ADDRESS CALLDATACOPY ORIGIN CALLDATALOAD BALANCE KECCAK256 COINBASE KECCAK256 ORIGIN CALLVALUE ADDRESS KECCAK256 ORIGIN CALLVALUE ADDRESS KECCAK256 ADDRESS KECCAK256 ADDRESS KECCAK256 BALANCE KECCAK256 CALLDATACOPY BALANCE BALANCE 0x2E CALLDATALOAD CALLDATALOAD ORIGIN CALLDATACOPY ADDRESS CALLDATASIZE CODECOPY CALLDATALOAD ORIGIN CALLDATASIZE BALANCE ADDRESS CODESIZE KECCAK256 CALLER CALLDATACOPY CODESIZE 0x2E CALLDATASIZE CALLDATASIZE CALLER BALANCE CALLVALUE CALLVALUE ADDRESS CALLDATACOPY CALLDATALOAD ORIGIN CODECOPY CALLDATALOAD CALLVALUE CALLDATASIZE KECCAK256 0x4C KECCAK256 CALLDATACOPY CALLDATACOPY CODESIZE 0x2E ADDRESS CALLDATACOPY ADDRESS ORIGIN CALLDATACOPY CALLDATALOAD CODECOPY CALLER CALLDATASIZE CODESIZE BALANCE CALLVALUE CALLDATALOAD KECCAK256 CALLER CALLER CALLVALUE 0x2E ORIGIN BALANCE CALLDATACOPY CALLDATALOAD ORIGIN CALLDATALOAD CALLVALUE CALLER CALLER CALLDATACOPY ORIGIN CALLDATACOPY CALLER KECCAK256 COINBASE KECCAK256 CALLER ORIGIN ADDRESS KECCAK256 CALLER ORIGIN ADDRESS KECCAK256 ADDRESS KECCAK256 ADDRESS KECCAK256 ADDRESS KECCAK256 CALLDATACOPY CALLDATALOAD CODECOPY 0x2E CALLER CALLDATASIZE CALLER CALLER CALLVALUE CALLDATALOAD ADDRESS CALLDATACOPY CALLDATASIZE ADDRESS CALLDATACOPY CALLDATALOAD CODESIZE KECCAK256 CALLER ADDRESS CODESIZE 0x2E CODECOPY CODECOPY CALLVALUE BALANCE CALLVALUE CODECOPY ADDRESS CALLDATASIZE CALLDATACOPY CALLDATASIZE CALLER CALLER CALLVALUE CALLER KECCAK256 GAS 0x22 KECCAK256 PUSH7 0x696C6C3D22626C PUSH2 0x636B 0x22 KECCAK256 PUSH20 0x74726F6B653D22626C61636B22207374726F6B65 0x2D PUSH24 0x696474683D2231222F3E0A3C7061746820643D224D203633 CALLDATALOAD 0x2E CALLDATASIZE CODESIZE BALANCE CALLDATASIZE CALLDATACOPY ORIGIN CALLDATALOAD CALLER CODESIZE ADDRESS CALLER CALLDATACOPY CODECOPY KECCAK256 CALLVALUE BALANCE ADDRESS 0x2E CALLVALUE CODECOPY CALLDATACOPY ADDRESS CALLDATACOPY CALLVALUE CALLDATALOAD CALLER CALLER CODESIZE BALANCE CALLDATASIZE CALLDATACOPY KECCAK256 COINBASE KECCAK256 BALANCE CALLDATASIZE ADDRESS KECCAK256 BALANCE CALLDATASIZE ADDRESS KECCAK256 ADDRESS KECCAK256 ADDRESS KECCAK256 BALANCE KECCAK256 CALLDATASIZE CALLVALUE CALLDATALOAD 0x2E ADDRESS CALLER CALLDATALOAD BALANCE CALLER CALLDATACOPY CODECOPY CALLDATASIZE CODESIZE CALLVALUE ADDRESS CALLDATACOPY CALLER KECCAK256 CALLVALUE ORIGIN CALLER 0x2E BALANCE ADDRESS CODESIZE CALLDATACOPY CALLDATASIZE ORIGIN CALLDATACOPY BALANCE CALLDATASIZE CODESIZE CALLDATASIZE CALLER CALLDATACOPY KECCAK256 0x4C KECCAK256 CALLDATACOPY BALANCE BALANCE 0x2E CALLDATALOAD CALLDATALOAD ORIGIN CALLDATACOPY ADDRESS CALLDATASIZE CODECOPY CALLDATALOAD ORIGIN CALLDATASIZE BALANCE ADDRESS CODESIZE KECCAK256 CALLER CALLDATACOPY CODESIZE 0x2E CALLDATASIZE CALLDATASIZE CALLER BALANCE CALLVALUE CALLVALUE ADDRESS CALLDATACOPY CALLDATALOAD ORIGIN CODECOPY CALLDATALOAD CALLVALUE CALLDATASIZE KECCAK256 COINBASE KECCAK256 ORIGIN CALLVALUE ADDRESS KECCAK256 ORIGIN CALLVALUE ADDRESS KECCAK256 ADDRESS KECCAK256 ADDRESS KECCAK256 ADDRESS KECCAK256 CALLDATASIZE CODECOPY CALLDATACOPY 0x2E CALLDATALOAD ORIGIN ORIGIN CALLDATALOAD ADDRESS CODESIZE CODESIZE ADDRESS CALLDATACOPY ADDRESS CALLDATALOAD CALLDATASIZE CODECOPY KECCAK256 CALLER CALLDATALOAD CODECOPY 0x2E CALLDATACOPY CALLVALUE CALLDATALOAD CALLDATASIZE BALANCE BALANCE CODESIZE ADDRESS ADDRESS CALLDATACOPY ORIGIN CALLDATALOAD BALANCE KECCAK256 GAS 0x22 KECCAK256 PUSH7 0x696C6C3D22626C PUSH2 0x636B 0x22 KECCAK256 PUSH20 0x74726F6B653D22626C61636B22207374726F6B65 0x2D PUSH24 0x696474683D2231222F3E0A3C7061746820643D224D203834 CALLVALUE 0x2E CALLDATALOAD CODESIZE CALLDATACOPY CODESIZE CALLVALUE CALLVALUE CODECOPY ORIGIN BALANCE ADDRESS BALANCE CODESIZE BALANCE KECCAK256 ORIGIN CODESIZE CODECOPY 0x2E CALLDATACOPY CALLDATACOPY BALANCE CODECOPY ADDRESS CALLDATASIZE CALLDATACOPY CODECOPY ORIGIN BALANCE CALLDATALOAD CODECOPY BALANCE CALLVALUE KECCAK256 COINBASE KECCAK256 CALLVALUE ADDRESS ADDRESS KECCAK256 CALLVALUE ADDRESS ADDRESS KECCAK256 ADDRESS KECCAK256 ADDRESS KECCAK256 BALANCE KECCAK256 CODESIZE CALLDATASIZE CALLVALUE 0x2E CALLDATACOPY CALLDATASIZE CODESIZE CALLDATALOAD ADDRESS CALLDATALOAD CALLDATACOPY CALLER CODECOPY CALLER CALLVALUE ORIGIN KECCAK256 CALLER ORIGIN CALLER 0x2E CALLVALUE CALLVALUE BALANCE CALLER ADDRESS CALLDATALOAD ORIGIN CALLDATASIZE CODECOPY CALLDATASIZE ADDRESS ADDRESS CODECOPY CALLDATALOAD KECCAK256 0x4C KECCAK256 CODECOPY CALLER CALLDATALOAD 0x2E CALLER ORIGIN ORIGIN ORIGIN ADDRESS CALLDATASIZE CODESIZE CODESIZE CALLDATACOPY ORIGIN BALANCE ADDRESS CALLVALUE KECCAK256 ORIGIN CODESIZE CALLDATALOAD 0x2E CALLDATACOPY ORIGIN CODECOPY CALLDATALOAD CALLDATASIZE CALLDATASIZE CALLER ORIGIN CALLER CALLDATALOAD ORIGIN BALANCE BALANCE KECCAK256 COINBASE KECCAK256 CALLVALUE CODESIZE ADDRESS KECCAK256 CALLVALUE CODESIZE ADDRESS KECCAK256 ADDRESS KECCAK256 ADDRESS KECCAK256 ADDRESS KECCAK256 CODECOPY BALANCE BALANCE 0x2E BALANCE ADDRESS CALLDATALOAD CALLVALUE BALANCE CALLER CODECOPY ADDRESS CALLDATALOAD ORIGIN ORIGIN BALANCE CALLDATACOPY KECCAK256 ORIGIN CALLVALUE CALLDATALOAD 0x2E CALLER ORIGIN CALLDATASIZE ORIGIN CODESIZE CODESIZE BALANCE CALLDATALOAD ADDRESS CALLDATALOAD CODECOPY ADDRESS CODECOPY CALLER KECCAK256 GAS 0x22 KECCAK256 PUSH7 0x696C6C3D22626C PUSH2 0x636B 0x22 KECCAK256 PUSH20 0x74726F6B653D22626C61636B22207374726F6B65 0x2D PUSH24 0x696474683D2231222F3E0A3C7061746820643D224D203737 CODESIZE 0x2E ADDRESS CALLDATACOPY ADDRESS ORIGIN CALLDATACOPY CALLDATALOAD CODECOPY CALLER CALLDATASIZE CODESIZE BALANCE CALLVALUE CALLDATALOAD KECCAK256 CALLER CALLER CALLVALUE 0x2E ORIGIN BALANCE CALLDATACOPY CALLDATALOAD ORIGIN CALLDATALOAD CALLVALUE CALLER CALLER CALLDATACOPY ORIGIN CALLDATACOPY CALLER KECCAK256 COINBASE KECCAK256 CALLER ORIGIN ADDRESS KECCAK256 CALLER ORIGIN ADDRESS KECCAK256 ADDRESS KECCAK256 ADDRESS KECCAK256 BALANCE KECCAK256 CALLDATACOPY CODECOPY CALLVALUE 0x2E ORIGIN BALANCE CALLVALUE CODESIZE ADDRESS CALLVALUE CALLDATALOAD CODECOPY BALANCE CALLVALUE CALLDATACOPY CALLER CALLDATACOPY KECCAK256 CALLER CALLDATASIZE BALANCE 0x2E BALANCE CALLDATALOAD CALLER ADDRESS CALLVALUE CALLVALUE ORIGIN BALANCE CALLDATALOAD CALLDATASIZE CODESIZE ADDRESS CODESIZE KECCAK256 0x4C KECCAK256 CODESIZE CALLDATASIZE CALLVALUE 0x2E CALLDATACOPY CALLDATASIZE CODESIZE CALLDATALOAD ADDRESS CALLDATALOAD CALLDATACOPY CALLER CODECOPY CALLER CALLVALUE ORIGIN KECCAK256 CALLER ORIGIN CALLER 0x2E CALLVALUE CALLVALUE BALANCE CALLER ADDRESS CALLDATALOAD ORIGIN CALLDATASIZE CODECOPY CALLDATASIZE ADDRESS ADDRESS CODECOPY CALLDATALOAD KECCAK256 COINBASE KECCAK256 CALLVALUE ADDRESS ADDRESS KECCAK256 CALLVALUE ADDRESS ADDRESS KECCAK256 ADDRESS KECCAK256 ADDRESS KECCAK256 ADDRESS KECCAK256 CODESIZE CALLVALUE CALLVALUE 0x2E CALLDATALOAD CODESIZE CALLDATACOPY CODESIZE CALLVALUE CALLVALUE CODECOPY ORIGIN BALANCE ADDRESS BALANCE CODESIZE BALANCE KECCAK256 ORIGIN CODESIZE CODECOPY 0x2E CALLDATACOPY CALLDATACOPY BALANCE CODECOPY ADDRESS CALLDATASIZE CALLDATACOPY CODECOPY ORIGIN BALANCE CALLDATALOAD CODECOPY BALANCE CALLVALUE KECCAK256 GAS 0x22 KECCAK256 PUSH7 0x696C6C3D22626C PUSH2 0x636B 0x22 KECCAK256 PUSH20 0x74726F6B653D22626C61636B22207374726F6B65 0x2D PUSH24 0x696474683D2231222F3E0A3C7061746820643D224D203731 BALANCE 0x2E CALLDATALOAD CALLDATALOAD ORIGIN CALLDATACOPY ADDRESS CALLDATASIZE CODECOPY CALLDATALOAD ORIGIN CALLDATASIZE BALANCE ADDRESS CODESIZE KECCAK256 CALLER CALLDATACOPY CODESIZE 0x2E CALLDATASIZE CALLDATASIZE CALLER BALANCE CALLVALUE CALLVALUE ADDRESS CALLDATACOPY CALLDATALOAD ORIGIN CODECOPY CALLDATALOAD CALLVALUE CALLDATASIZE KECCAK256 COINBASE KECCAK256 ORIGIN CALLVALUE ADDRESS KECCAK256 ORIGIN CALLVALUE ADDRESS KECCAK256 ADDRESS KECCAK256 ADDRESS KECCAK256 BALANCE KECCAK256 CALLDATACOPY ORIGIN CALLER 0x2E CALLDATASIZE CALLDATASIZE BALANCE BALANCE ADDRESS CALLER CALLVALUE CALLVALUE CALLER CALLDATASIZE ADDRESS CALLDATALOAD CALLER KECCAK256 CALLER CODECOPY CODESIZE 0x2E CODESIZE CALLDATASIZE CALLVALUE CALLDATACOPY CODESIZE CALLER BALANCE CALLDATASIZE BALANCE CALLDATACOPY CALLDATASIZE ADDRESS CALLDATALOAD CALLDATASIZE KECCAK256 0x4C KECCAK256 CALLDATACOPY CODECOPY CALLVALUE 0x2E ORIGIN BALANCE CALLVALUE CODESIZE ADDRESS CALLVALUE CALLDATALOAD CODECOPY BALANCE CALLVALUE CALLDATACOPY CALLER CALLDATACOPY KECCAK256 CALLER CALLDATASIZE BALANCE 0x2E BALANCE CALLDATALOAD CALLER ADDRESS CALLVALUE CALLVALUE ORIGIN BALANCE CALLDATALOAD CALLDATASIZE CODESIZE ADDRESS CODESIZE KECCAK256 COINBASE KECCAK256 CALLER ORIGIN ADDRESS KECCAK256 CALLER ORIGIN ADDRESS KECCAK256 ADDRESS KECCAK256 ADDRESS KECCAK256 ADDRESS KECCAK256 CALLDATACOPY CALLDATACOPY CODESIZE 0x2E ADDRESS CALLDATACOPY ADDRESS ORIGIN CALLDATACOPY CALLDATALOAD CODECOPY CALLER CALLDATASIZE CODESIZE BALANCE CALLVALUE CALLDATALOAD KECCAK256 CALLER CALLER CALLVALUE 0x2E ORIGIN BALANCE CALLDATACOPY CALLDATALOAD ORIGIN CALLDATALOAD CALLVALUE CALLER CALLER CALLDATACOPY ORIGIN CALLDATACOPY CALLER KECCAK256 GAS 0x22 KECCAK256 PUSH7 0x696C6C3D22626C PUSH2 0x636B 0x22 KECCAK256 PUSH20 0x74726F6B653D22626C61636B22207374726F6B65 0x2D PUSH24 0x696474683D2231222F3E0A3C7061746820643D224D203634 CALLDATALOAD 0x2E ADDRESS CALLER CALLDATALOAD BALANCE CALLER CALLDATACOPY CODECOPY CALLDATASIZE CODESIZE CALLVALUE ADDRESS CALLDATACOPY CALLER KECCAK256 CALLVALUE ORIGIN CALLER 0x2E BALANCE ADDRESS CODESIZE CALLDATACOPY CALLDATASIZE ORIGIN CALLDATACOPY BALANCE CALLDATASIZE CODESIZE CALLDATASIZE CALLER CALLDATACOPY KECCAK256 COINBASE KECCAK256 BALANCE CALLDATASIZE ADDRESS KECCAK256 BALANCE CALLDATASIZE ADDRESS KECCAK256 ADDRESS KECCAK256 ADDRESS KECCAK256 BALANCE KECCAK256 CALLDATASIZE CALLDATALOAD CALLER 0x2E BALANCE ADDRESS CALLDATACOPY CALLVALUE ADDRESS ORIGIN ORIGIN CODECOPY CALLDATALOAD CALLDATACOPY CALLER CALLDATASIZE CODESIZE KECCAK256 CALLVALUE CALLER CALLDATASIZE 0x2E CALLDATALOAD CALLDATACOPY CALLDATASIZE CALLDATALOAD ORIGIN ORIGIN BALANCE ADDRESS CALLDATACOPY CODESIZE CALLVALUE ADDRESS CALLVALUE KECCAK256 0x4C KECCAK256 CALLDATACOPY ORIGIN CALLER 0x2E CALLDATASIZE CALLDATASIZE BALANCE BALANCE ADDRESS CALLER CALLVALUE CALLVALUE CALLER CALLDATASIZE ADDRESS CALLDATALOAD CALLER KECCAK256 CALLER CODECOPY CODESIZE 0x2E CODESIZE CALLDATASIZE CALLVALUE CALLDATACOPY CODESIZE CALLER BALANCE CALLDATASIZE BALANCE CALLDATACOPY CALLDATASIZE ADDRESS CALLDATALOAD CALLDATASIZE KECCAK256 COINBASE KECCAK256 ORIGIN CALLVALUE ADDRESS KECCAK256 ORIGIN CALLVALUE ADDRESS KECCAK256 ADDRESS KECCAK256 ADDRESS KECCAK256 ADDRESS KECCAK256 CALLDATACOPY BALANCE BALANCE 0x2E CALLDATALOAD CALLDATALOAD ORIGIN CALLDATACOPY ADDRESS CALLDATASIZE CODECOPY CALLDATALOAD ORIGIN CALLDATASIZE BALANCE ADDRESS CODESIZE KECCAK256 CALLER CALLDATACOPY CODESIZE 0x2E CALLDATASIZE CALLDATASIZE CALLER BALANCE CALLVALUE CALLVALUE ADDRESS CALLDATACOPY CALLDATALOAD ORIGIN CODECOPY CALLDATALOAD CALLVALUE CALLDATASIZE KECCAK256 GAS 0x22 KECCAK256 PUSH7 0x696C6C3D22626C PUSH2 0x636B 0x22 KECCAK256 PUSH20 0x74726F6B653D22626C61636B22207374726F6B65 0x2D PUSH24 0x696474683D2231222F3E0A3C7061746820643D224D203836 CALLVALUE 0x2E CALLDATACOPY CALLDATASIZE CODESIZE CALLDATALOAD ADDRESS CALLDATALOAD CALLDATACOPY CALLER CODECOPY CALLER CALLVALUE ORIGIN KECCAK256 CALLER ORIGIN CALLER 0x2E CALLVALUE CALLVALUE BALANCE CALLER ADDRESS CALLDATALOAD ORIGIN CALLDATASIZE CODECOPY CALLDATASIZE ADDRESS ADDRESS CODECOPY KECCAK256 COINBASE KECCAK256 CALLVALUE ADDRESS ADDRESS KECCAK256 CALLVALUE ADDRESS ADDRESS KECCAK256 ADDRESS KECCAK256 ADDRESS KECCAK256 BALANCE KECCAK256 CODESIZE CODESIZE BALANCE 0x2E CALLDATALOAD CALLDATALOAD BALANCE CODESIZE BALANCE CALLER ADDRESS ADDRESS CALLVALUE CALLDATALOAD BALANCE CALLVALUE CODESIZE KECCAK256 CALLER CALLDATALOAD CODESIZE 0x2E CODECOPY ORIGIN CALLDATASIZE CALLDATASIZE ORIGIN CALLDATACOPY ADDRESS CALLDATALOAD CALLER CODECOPY CALLDATASIZE CALLVALUE ADDRESS CALLDATACOPY KECCAK256 0x4C KECCAK256 CODECOPY CALLDATALOAD CALLDATALOAD 0x2E CALLVALUE CALLDATASIZE ORIGIN BALANCE CALLDATACOPY CALLDATALOAD CALLDATASIZE ADDRESS CALLDATALOAD CALLVALUE BALANCE CALLDATACOPY CALLDATACOPY KECCAK256 CALLER ORIGIN CODESIZE 0x2E CALLER BALANCE BALANCE CODECOPY CALLDATALOAD ORIGIN CALLVALUE CALLDATASIZE CALLVALUE CALLDATACOPY CALLDATALOAD CALLDATASIZE CODESIZE CALLDATACOPY KECCAK256 COINBASE KECCAK256 CALLVALUE CODESIZE ADDRESS KECCAK256 CALLVALUE CODESIZE ADDRESS KECCAK256 ADDRESS KECCAK256 ADDRESS KECCAK256 ADDRESS KECCAK256 CODECOPY CALLER CALLDATALOAD 0x2E CALLER ORIGIN ORIGIN ORIGIN ADDRESS CALLDATASIZE CODESIZE CODESIZE CALLDATACOPY ORIGIN BALANCE ADDRESS CALLER KECCAK256 ORIGIN CODESIZE CALLDATALOAD 0x2E CALLDATACOPY ORIGIN CODECOPY CALLDATALOAD CALLDATASIZE CALLDATASIZE CALLER ORIGIN CALLER CALLDATALOAD ORIGIN BALANCE BALANCE KECCAK256 GAS 0x22 KECCAK256 PUSH7 0x696C6C3D22626C PUSH2 0x636B 0x22 KECCAK256 PUSH20 0x74726F6B653D22626C61636B22207374726F6B65 0x2D PUSH24 0x696474683D2231222F3E0A3C7061746820643D224D203739 CALLVALUE 0x2E ORIGIN BALANCE CALLVALUE CODESIZE ADDRESS CALLVALUE CALLDATALOAD CODECOPY BALANCE CALLVALUE CALLDATACOPY CALLER CALLDATASIZE KECCAK256 CALLER CALLDATASIZE BALANCE 0x2E BALANCE CALLDATALOAD CALLER ADDRESS CALLVALUE CALLVALUE ORIGIN BALANCE CALLDATALOAD CALLDATASIZE CODESIZE ADDRESS CALLDATACOPY KECCAK256 COINBASE KECCAK256 CALLER ORIGIN ADDRESS KECCAK256 CALLER ORIGIN ADDRESS KECCAK256 ADDRESS KECCAK256 ADDRESS KECCAK256 BALANCE KECCAK256 CODESIZE ADDRESS CALLDATACOPY 0x2E CALLDATASIZE CALLVALUE BALANCE CALLVALUE CALLDATALOAD ADDRESS CALLVALUE ADDRESS CALLER CALLDATASIZE BALANCE BALANCE CODESIZE KECCAK256 CALLER CODESIZE CODECOPY 0x2E CALLDATALOAD CALLVALUE BALANCE CALLER ADDRESS BALANCE CALLDATASIZE CALLVALUE CALLER BALANCE CALLDATACOPY BALANCE ORIGIN CALLDATACOPY KECCAK256 0x4C KECCAK256 CODESIZE CODESIZE BALANCE 0x2E CALLDATALOAD CALLDATALOAD BALANCE CODESIZE BALANCE CALLER ADDRESS ADDRESS CALLVALUE CALLDATALOAD BALANCE CALLVALUE CODESIZE KECCAK256 CALLER CALLDATALOAD CODESIZE 0x2E CODECOPY ORIGIN CALLDATASIZE CALLDATASIZE ORIGIN CALLDATACOPY ADDRESS CALLDATALOAD CALLER CODECOPY CALLDATASIZE CALLVALUE ADDRESS CALLDATACOPY KECCAK256 COINBASE KECCAK256 CALLVALUE ADDRESS ADDRESS KECCAK256 CALLVALUE ADDRESS ADDRESS KECCAK256 ADDRESS KECCAK256 ADDRESS KECCAK256 ADDRESS KECCAK256 CODESIZE CALLDATASIZE CALLVALUE 0x2E CALLDATACOPY CALLDATASIZE CODESIZE CALLDATALOAD ADDRESS CALLDATALOAD CALLDATACOPY CALLER CODECOPY CALLER CALLVALUE ORIGIN KECCAK256 CALLER ORIGIN CALLER 0x2E CALLVALUE CALLVALUE BALANCE CALLER ADDRESS CALLDATALOAD ORIGIN CALLDATASIZE CODECOPY CALLDATASIZE ADDRESS ADDRESS CODECOPY KECCAK256 GAS 0x22 KECCAK256 PUSH7 0x696C6C3D22626C PUSH2 0x636B 0x22 KECCAK256 PUSH20 0x74726F6B653D22626C61636B22207374726F6B65 0x2D PUSH24 0x696474683D2231222F3E0A3C7061746820643D224D203732 CALLER 0x2E CALLDATASIZE CALLDATASIZE BALANCE BALANCE ADDRESS CALLER CALLVALUE CALLVALUE CALLER CALLDATASIZE ADDRESS CALLDATALOAD ORIGIN KECCAK256 CALLER CODECOPY CODESIZE 0x2E CODESIZE CALLDATASIZE CALLVALUE CALLDATACOPY CODESIZE CALLER BALANCE CALLDATASIZE BALANCE CALLDATACOPY CALLDATASIZE ADDRESS CALLDATALOAD CALLDATASIZE KECCAK256 COINBASE KECCAK256 ORIGIN CALLVALUE ADDRESS KECCAK256 ORIGIN CALLVALUE ADDRESS KECCAK256 ADDRESS KECCAK256 ADDRESS KECCAK256 BALANCE KECCAK256 CALLDATACOPY CALLER CALLER 0x2E CALLDATACOPY CALLER BALANCE ADDRESS CODESIZE CALLDATACOPY CODESIZE ADDRESS ORIGIN CALLDATACOPY ADDRESS CODESIZE CODESIZE KECCAK256 CALLVALUE ORIGIN ADDRESS 0x2E BALANCE CALLDATALOAD CALLDATALOAD CODECOPY CALLDATACOPY CALLDATASIZE ORIGIN CALLER ORIGIN CALLER CALLDATACOPY CODESIZE CALLVALUE KECCAK256 0x4C KECCAK256 CODESIZE ADDRESS CALLDATACOPY 0x2E CALLDATASIZE CALLVALUE BALANCE CALLVALUE CALLDATALOAD ADDRESS CALLVALUE ADDRESS CALLER CALLDATASIZE BALANCE BALANCE CODESIZE KECCAK256 CALLER CODESIZE CODECOPY 0x2E CALLDATALOAD CALLVALUE BALANCE CALLER ADDRESS BALANCE CALLDATASIZE CALLVALUE CALLER BALANCE CALLDATACOPY BALANCE ORIGIN CALLDATACOPY KECCAK256 COINBASE KECCAK256 CALLER ORIGIN ADDRESS KECCAK256 CALLER ORIGIN ADDRESS KECCAK256 ADDRESS KECCAK256 ADDRESS KECCAK256 ADDRESS KECCAK256 CALLDATACOPY CODECOPY CALLVALUE 0x2E ORIGIN BALANCE CALLVALUE CODESIZE ADDRESS CALLVALUE CALLDATALOAD CODECOPY BALANCE CALLVALUE CALLDATACOPY CALLER CALLDATASIZE KECCAK256 CALLER CALLDATASIZE BALANCE 0x2E BALANCE CALLDATALOAD CALLER ADDRESS CALLVALUE CALLVALUE ORIGIN BALANCE CALLDATALOAD CALLDATASIZE CODESIZE ADDRESS CALLDATACOPY KECCAK256 GAS 0x22 KECCAK256 PUSH7 0x696C6C3D22626C PUSH2 0x636B 0x22 KECCAK256 PUSH20 0x74726F6B653D22626C61636B22207374726F6B65 0x2D PUSH24 0x696474683D2231222F3E0A3C7061746820643D224D203635 CALLER 0x2E BALANCE ADDRESS CALLDATACOPY CALLVALUE ADDRESS ORIGIN ORIGIN CODECOPY CALLDATALOAD CALLDATACOPY CALLER CALLDATASIZE CODESIZE KECCAK256 CALLVALUE CALLER CALLDATASIZE 0x2E CALLDATALOAD CALLDATACOPY CALLDATASIZE CALLDATALOAD ORIGIN ORIGIN BALANCE ADDRESS CALLDATACOPY CODESIZE CALLVALUE ADDRESS CALLER CALLER KECCAK256 COINBASE KECCAK256 BALANCE CALLDATASIZE ADDRESS KECCAK256 BALANCE CALLDATASIZE ADDRESS KECCAK256 ADDRESS KECCAK256 ADDRESS KECCAK256 BALANCE KECCAK256 CALLDATASIZE CALLDATALOAD CODECOPY 0x2E CODESIZE ORIGIN ADDRESS CALLDATACOPY ORIGIN CALLDATALOAD ORIGIN ADDRESS BALANCE CODESIZE ADDRESS CALLDATALOAD CODECOPY KECCAK256 CALLVALUE CALLDATALOAD ADDRESS 0x2E CALLDATACOPY CALLDATACOPY ADDRESS CALLDATASIZE CALLDATALOAD ADDRESS CODESIZE ORIGIN BALANCE CALLDATALOAD CODESIZE CALLDATALOAD CALLDATASIZE KECCAK256 0x4C KECCAK256 CALLDATACOPY CALLER CALLER 0x2E CALLDATACOPY CALLER BALANCE ADDRESS CODESIZE CALLDATACOPY CODESIZE ADDRESS ORIGIN CALLDATACOPY ADDRESS CODESIZE CODESIZE KECCAK256 CALLVALUE ORIGIN ADDRESS 0x2E BALANCE CALLDATALOAD CALLDATALOAD CODECOPY CALLDATACOPY CALLDATASIZE ORIGIN CALLER ORIGIN CALLER CALLDATACOPY CODESIZE CALLVALUE KECCAK256 COINBASE KECCAK256 ORIGIN CALLVALUE ADDRESS KECCAK256 ORIGIN CALLVALUE ADDRESS KECCAK256 ADDRESS KECCAK256 ADDRESS KECCAK256 ADDRESS KECCAK256 CALLDATACOPY ORIGIN CALLER 0x2E CALLDATASIZE CALLDATASIZE BALANCE BALANCE ADDRESS CALLER CALLVALUE CALLVALUE CALLER CALLDATASIZE ADDRESS CALLDATALOAD ORIGIN KECCAK256 CALLER CODECOPY CODESIZE 0x2E CODESIZE CALLDATASIZE CALLVALUE CALLDATACOPY CODESIZE CALLER BALANCE CALLDATASIZE BALANCE CALLDATACOPY CALLDATASIZE ADDRESS CALLDATALOAD CALLDATASIZE KECCAK256 GAS 0x22 KECCAK256 PUSH7 0x696C6C3D22626C PUSH2 0x636B 0x22 KECCAK256 PUSH20 0x74726F6B653D22626C61636B22207374726F6B65 0x2D PUSH24 0x696474683D2231222F3E0A3C7061746820643D224D203838 BALANCE 0x2E CALLDATALOAD CALLDATALOAD BALANCE CODESIZE BALANCE CALLER ADDRESS ADDRESS CALLVALUE CALLDATALOAD BALANCE CALLVALUE CODESIZE KECCAK256 CALLER CALLDATALOAD CODESIZE 0x2E CODECOPY ORIGIN CALLDATASIZE CALLDATASIZE ORIGIN CALLDATACOPY ADDRESS CALLDATALOAD CALLER CODECOPY CALLDATASIZE CALLVALUE BALANCE KECCAK256 COINBASE KECCAK256 CALLVALUE ADDRESS ADDRESS KECCAK256 CALLVALUE ADDRESS ADDRESS KECCAK256 ADDRESS KECCAK256 ADDRESS KECCAK256 BALANCE KECCAK256 CODESIZE CODECOPY CALLVALUE 0x2E CALLDATACOPY CALLDATACOPY CALLDATASIZE BALANCE CALLER CALLVALUE ORIGIN CODECOPY ORIGIN CODESIZE CODESIZE CALLER CALLDATALOAD KECCAK256 CALLER CODECOPY CALLDATALOAD 0x2E CODESIZE CODESIZE CALLDATASIZE BALANCE ORIGIN CODECOPY ADDRESS CODECOPY CODESIZE ORIGIN BALANCE CALLDATALOAD ADDRESS CALLDATASIZE KECCAK256 0x4C KECCAK256 CODECOPY CALLDATACOPY BALANCE 0x2E CALLER CALLER BALANCE CALLER CALLDATASIZE BALANCE BALANCE CALLDATALOAD BALANCE CALLVALUE CALLDATASIZE ADDRESS ORIGIN KECCAK256 CALLER CALLDATACOPY ORIGIN 0x2E CALLDATASIZE CALLDATASIZE CALLER CALLER CALLDATALOAD CALLVALUE CODECOPY BALANCE CALLDATACOPY CODESIZE CALLDATALOAD CODESIZE BALANCE KECCAK256 COINBASE KECCAK256 CALLVALUE CODESIZE ADDRESS KECCAK256 CALLVALUE CODESIZE ADDRESS KECCAK256 ADDRESS KECCAK256 ADDRESS KECCAK256 ADDRESS KECCAK256 CODECOPY CALLDATALOAD CALLDATALOAD 0x2E CALLVALUE CALLDATASIZE ORIGIN BALANCE CALLDATACOPY CALLDATALOAD CALLDATASIZE ADDRESS CALLDATALOAD CALLVALUE BALANCE CALLDATACOPY CALLDATACOPY KECCAK256 CALLER ORIGIN CODESIZE 0x2E CALLER BALANCE BALANCE CODECOPY CALLDATALOAD ORIGIN CALLVALUE CALLDATASIZE CALLVALUE CALLDATACOPY CALLDATALOAD CALLDATASIZE CODECOPY KECCAK256 GAS 0x22 KECCAK256 PUSH7 0x696C6C3D22626C PUSH2 0x636B 0x22 KECCAK256 PUSH20 0x74726F6B653D22626C61636B22207374726F6B65 0x2D PUSH24 0x696474683D2231222F3E0A3C7061746820643D224D203830 CALLDATACOPY 0x2E CALLDATASIZE CALLVALUE BALANCE CALLVALUE CALLDATALOAD ADDRESS CALLVALUE ADDRESS CALLER CALLDATASIZE BALANCE BALANCE CODESIZE KECCAK256 CALLER CODESIZE CODECOPY 0x2E CALLDATALOAD CALLVALUE BALANCE CALLER ADDRESS BALANCE CALLDATASIZE CALLVALUE CALLER BALANCE CALLDATACOPY BALANCE ORIGIN CALLDATACOPY KECCAK256 COINBASE KECCAK256 CALLER ORIGIN ADDRESS KECCAK256 CALLER ORIGIN ADDRESS KECCAK256 ADDRESS KECCAK256 ADDRESS KECCAK256 BALANCE KECCAK256 CODESIZE BALANCE CODESIZE 0x2E ORIGIN ORIGIN ADDRESS CODECOPY ADDRESS CALLDATACOPY CALLVALUE CALLER CALLVALUE CALLER ADDRESS CALLDATASIZE CODESIZE KECCAK256 CALLVALUE BALANCE CODECOPY 0x2E BALANCE ADDRESS CODESIZE CODECOPY ADDRESS CALLER ORIGIN CALLDATACOPY CODESIZE CALLDATALOAD CALLDATACOPY ORIGIN ADDRESS CALLER KECCAK256 0x4C KECCAK256 CODESIZE CODECOPY CALLVALUE 0x2E CALLDATACOPY CALLDATACOPY CALLDATASIZE BALANCE CALLER CALLVALUE ORIGIN CODECOPY ORIGIN CODESIZE CODESIZE CALLER CALLDATALOAD KECCAK256 CALLER CODECOPY CALLDATALOAD 0x2E CODESIZE CODESIZE CALLDATASIZE BALANCE ORIGIN CODECOPY ADDRESS CODECOPY CODESIZE ORIGIN BALANCE CALLDATALOAD ADDRESS CALLDATASIZE KECCAK256 COINBASE KECCAK256 CALLVALUE ADDRESS ADDRESS KECCAK256 CALLVALUE ADDRESS ADDRESS KECCAK256 ADDRESS KECCAK256 ADDRESS KECCAK256 ADDRESS KECCAK256 CODESIZE CODESIZE BALANCE 0x2E CALLDATALOAD CALLDATALOAD BALANCE CODESIZE BALANCE CALLER ADDRESS ADDRESS CALLVALUE CALLDATALOAD BALANCE CALLVALUE CODESIZE KECCAK256 CALLER CALLDATALOAD CODESIZE 0x2E CODECOPY ORIGIN CALLDATASIZE CALLDATASIZE ORIGIN CALLDATACOPY ADDRESS CALLDATALOAD CALLER CODECOPY CALLDATASIZE CALLVALUE BALANCE KECCAK256 GAS 0x22 KECCAK256 PUSH7 0x696C6C3D22626C PUSH2 0x636B 0x22 KECCAK256 PUSH20 0x74726F6B653D22626C61636B22207374726F6B65 0x2D PUSH24 0x696474683D2231222F3E0A3C7061746820643D224D203733 CALLER 0x2E CALLDATACOPY CALLER BALANCE ADDRESS CODESIZE CALLDATACOPY CODESIZE ADDRESS ORIGIN CALLDATACOPY ADDRESS CODESIZE CODESIZE KECCAK256 CALLVALUE ORIGIN ADDRESS 0x2E BALANCE CALLDATALOAD CALLDATALOAD CODECOPY CALLDATACOPY CALLDATASIZE ORIGIN CALLER ORIGIN CALLER CALLDATACOPY CODESIZE CALLVALUE CALLDATASIZE KECCAK256 COINBASE KECCAK256 ORIGIN CALLVALUE ADDRESS KECCAK256 ORIGIN CALLVALUE ADDRESS KECCAK256 ADDRESS KECCAK256 ADDRESS KECCAK256 BALANCE KECCAK256 CALLDATACOPY CALLVALUE BALANCE 0x2E CALLDATASIZE CALLDATASIZE CALLDATALOAD CALLDATASIZE CODESIZE ADDRESS CALLDATALOAD CALLDATACOPY CALLDATALOAD CALLDATACOPY CALLER ADDRESS BALANCE KECCAK256 CALLVALUE CALLVALUE ORIGIN 0x2E CALLER CALLER BALANCE CALLDATASIZE CALLDATACOPY CALLDATACOPY CALLVALUE CALLDATALOAD CODESIZE CODECOPY ORIGIN CODECOPY ADDRESS CALLDATALOAD KECCAK256 0x4C KECCAK256 CODESIZE BALANCE CODESIZE 0x2E ORIGIN ORIGIN ADDRESS CODECOPY ADDRESS CALLDATACOPY CALLVALUE CALLER CALLVALUE CALLER ADDRESS CALLDATASIZE CODESIZE KECCAK256 CALLVALUE BALANCE CODECOPY 0x2E BALANCE ADDRESS CODESIZE CODECOPY ADDRESS CALLER ORIGIN CALLDATACOPY CODESIZE CALLDATALOAD CALLDATACOPY ORIGIN ADDRESS CALLER KECCAK256 COINBASE KECCAK256 CALLER ORIGIN ADDRESS KECCAK256 CALLER ORIGIN ADDRESS KECCAK256 ADDRESS KECCAK256 ADDRESS KECCAK256 ADDRESS KECCAK256 CODESIZE ADDRESS CALLDATACOPY 0x2E CALLDATASIZE CALLVALUE BALANCE CALLVALUE CALLDATALOAD ADDRESS CALLVALUE ADDRESS CALLER CALLDATASIZE BALANCE BALANCE CODESIZE KECCAK256 CALLER CODESIZE CODECOPY 0x2E CALLDATALOAD CALLVALUE BALANCE CALLER ADDRESS BALANCE CALLDATASIZE CALLVALUE CALLER BALANCE CALLDATACOPY BALANCE ORIGIN CALLDATACOPY KECCAK256 GAS 0x22 KECCAK256 PUSH7 0x696C6C3D22626C PUSH2 0x636B 0x22 KECCAK256 PUSH20 0x74726F6B653D22626C61636B22207374726F6B65 0x2D PUSH24 0x696474683D2231222F3E0A3C7061746820643D224D203635 CODECOPY 0x2E CODESIZE ORIGIN ADDRESS CALLDATACOPY ORIGIN CALLDATALOAD ORIGIN ADDRESS BALANCE CODESIZE ADDRESS CALLDATALOAD CODECOPY KECCAK256 CALLVALUE CALLDATALOAD ADDRESS 0x2E CALLDATACOPY CALLDATACOPY ADDRESS CALLDATASIZE CALLDATALOAD ADDRESS CODESIZE ORIGIN BALANCE CALLDATALOAD CODESIZE CALLDATALOAD CALLDATASIZE KECCAK256 COINBASE KECCAK256 BALANCE CALLDATASIZE ADDRESS KECCAK256 BALANCE CALLDATASIZE ADDRESS KECCAK256 ADDRESS KECCAK256 ADDRESS KECCAK256 BALANCE KECCAK256 CALLDATASIZE CALLDATASIZE CALLDATALOAD 0x2E BALANCE BALANCE ADDRESS CALLVALUE CALLDATALOAD CALLER CALLDATACOPY BALANCE CALLDATACOPY BALANCE CALLDATALOAD CALLER CALLVALUE KECCAK256 CALLVALUE CALLDATASIZE CALLDATALOAD 0x2E CALLDATALOAD CALLDATALOAD CALLVALUE CALLVALUE CALLDATALOAD BALANCE CALLDATASIZE CALLER CODECOPY ORIGIN CODESIZE CALLDATASIZE KECCAK256 0x4C KECCAK256 CALLDATACOPY CALLVALUE BALANCE 0x2E CALLDATASIZE CALLDATASIZE CALLDATALOAD CALLDATASIZE CODESIZE ADDRESS CALLDATALOAD CALLDATACOPY CALLDATALOAD CALLDATACOPY CALLER ADDRESS BALANCE KECCAK256 CALLVALUE CALLVALUE ORIGIN 0x2E CALLER CALLER BALANCE CALLDATASIZE CALLDATACOPY CALLDATACOPY CALLVALUE CALLDATALOAD CODESIZE CODECOPY ORIGIN CODECOPY ADDRESS CALLDATALOAD KECCAK256 COINBASE KECCAK256 ORIGIN CALLVALUE ADDRESS KECCAK256 ORIGIN CALLVALUE ADDRESS KECCAK256 ADDRESS KECCAK256 ADDRESS KECCAK256 ADDRESS KECCAK256 CALLDATACOPY CALLER CALLER 0x2E CALLDATACOPY CALLER BALANCE ADDRESS CODESIZE CALLDATACOPY CODESIZE ADDRESS ORIGIN CALLDATACOPY ADDRESS CODESIZE CODESIZE KECCAK256 CALLVALUE ORIGIN ADDRESS 0x2E BALANCE CALLDATALOAD CALLDATALOAD CODECOPY CALLDATACOPY CALLDATASIZE ORIGIN CALLER ORIGIN CALLER CALLDATACOPY CODESIZE CALLVALUE CALLDATASIZE KECCAK256 GAS 0x22 KECCAK256 PUSH7 0x696C6C3D22626C PUSH2 0x636B 0x22 KECCAK256 PUSH20 0x74726F6B653D22626C61636B22207374726F6B65 0x2D PUSH24 0x696474683D2231222F3E0A3C7061746820643D224D203839 CALLVALUE 0x2E CALLDATACOPY CALLDATACOPY CALLDATASIZE BALANCE CALLER CALLVALUE ORIGIN CODECOPY ORIGIN CODESIZE CODESIZE CALLER CALLDATASIZE KECCAK256 CALLER CODECOPY CALLDATALOAD 0x2E CODESIZE CODESIZE CALLDATASIZE BALANCE ORIGIN CODECOPY ADDRESS CODECOPY CODESIZE ORIGIN BALANCE CALLDATALOAD ADDRESS CALLDATASIZE KECCAK256 COINBASE KECCAK256 CALLVALUE ADDRESS ADDRESS KECCAK256 CALLVALUE ADDRESS ADDRESS KECCAK256 ADDRESS KECCAK256 ADDRESS KECCAK256 BALANCE KECCAK256 CODECOPY ADDRESS CALLVALUE 0x2E CALLER BALANCE CALLVALUE BALANCE BALANCE ORIGIN BALANCE CALLDATASIZE BALANCE ORIGIN CODECOPY ORIGIN ORIGIN KECCAK256 CALLVALUE CALLER CALLER 0x2E CODECOPY CALLDATASIZE CALLER CODESIZE CALLDATACOPY BALANCE BALANCE CODECOPY CALLER CALLDATALOAD CALLVALUE CODESIZE CALLDATACOPY CALLDATALOAD KECCAK256 0x4C KECCAK256 CODECOPY CODESIZE ORIGIN 0x2E CALLDATACOPY CALLDATACOPY CALLDATASIZE CODECOPY CALLER CALLVALUE CALLDATALOAD CODECOPY CALLER CALLDATALOAD CALLDATALOAD ADDRESS CALLDATALOAD KECCAK256 CALLVALUE BALANCE CODESIZE 0x2E CALLER CALLDATALOAD CALLDATASIZE CALLDATASIZE CALLVALUE CALLDATALOAD CALLVALUE CALLER ORIGIN ORIGIN CALLDATALOAD CODESIZE CALLVALUE CALLDATASIZE KECCAK256 COINBASE KECCAK256 CALLVALUE CODESIZE ADDRESS KECCAK256 CALLVALUE CODESIZE ADDRESS KECCAK256 ADDRESS KECCAK256 ADDRESS KECCAK256 ADDRESS KECCAK256 CODECOPY CALLDATACOPY BALANCE 0x2E CALLER CALLER BALANCE CALLER CALLDATASIZE BALANCE BALANCE CALLDATALOAD BALANCE CALLVALUE CALLDATASIZE ADDRESS ORIGIN KECCAK256 CALLER CALLDATACOPY ORIGIN 0x2E CALLDATASIZE CALLDATASIZE CALLER CALLER CALLDATALOAD CALLVALUE CODECOPY BALANCE CALLDATACOPY CODESIZE CALLDATALOAD CODESIZE BALANCE KECCAK256 GAS 0x22 KECCAK256 PUSH7 0x696C6C3D22626C PUSH2 0x636B 0x22 KECCAK256 PUSH20 0x74726F6B653D22626C61636B22207374726F6B65 0x2D PUSH24 0x696474683D2231222F3E0A3C7061746820643D224D203831 CODESIZE 0x2E ORIGIN ORIGIN ADDRESS CODECOPY ADDRESS CALLDATACOPY CALLVALUE CALLER CALLVALUE CALLER ADDRESS CALLDATASIZE CODESIZE KECCAK256 CALLVALUE BALANCE CODECOPY 0x2E BALANCE ADDRESS CODESIZE CODECOPY ADDRESS CALLER ORIGIN CALLDATACOPY CODESIZE CALLDATALOAD CALLDATACOPY ORIGIN BALANCE KECCAK256 COINBASE KECCAK256 CALLER ORIGIN ADDRESS KECCAK256 CALLER ORIGIN ADDRESS KECCAK256 ADDRESS KECCAK256 ADDRESS KECCAK256 BALANCE KECCAK256 CODESIZE ORIGIN CALLDATALOAD 0x2E CODESIZE CALLDATALOAD BALANCE ORIGIN CODESIZE CODECOPY CALLDATACOPY ORIGIN CODECOPY ADDRESS CALLER CALLER CALLDATACOPY KECCAK256 CALLVALUE CALLVALUE CODECOPY 0x2E CALLDATALOAD CALLDATACOPY BALANCE ADDRESS CODECOPY CALLDATASIZE CODECOPY CALLDATALOAD CALLVALUE CODESIZE CALLER CODECOPY KECCAK256 0x4C KECCAK256 CODECOPY ADDRESS CALLVALUE 0x2E CALLER BALANCE CALLVALUE BALANCE BALANCE ORIGIN BALANCE CALLDATASIZE BALANCE ORIGIN CODECOPY ORIGIN ORIGIN KECCAK256 CALLVALUE CALLER CALLER 0x2E CODECOPY CALLDATASIZE CALLER CODESIZE CALLDATACOPY BALANCE BALANCE CODECOPY CALLER CALLDATALOAD CALLVALUE CODESIZE CALLDATACOPY CALLDATALOAD KECCAK256 COINBASE KECCAK256 CALLVALUE ADDRESS ADDRESS KECCAK256 CALLVALUE ADDRESS ADDRESS KECCAK256 ADDRESS KECCAK256 ADDRESS KECCAK256 ADDRESS KECCAK256 CODESIZE CODECOPY CALLVALUE 0x2E CALLDATACOPY CALLDATACOPY CALLDATASIZE BALANCE CALLER CALLVALUE ORIGIN CODECOPY ORIGIN CODESIZE CODESIZE CALLER CALLDATASIZE KECCAK256 CALLER CODECOPY CALLDATALOAD 0x2E CODESIZE CODESIZE CALLDATASIZE BALANCE ORIGIN CODECOPY ADDRESS CODECOPY CODESIZE ORIGIN BALANCE CALLDATALOAD ADDRESS CALLDATASIZE KECCAK256 GAS 0x22 KECCAK256 PUSH7 0x696C6C3D22626C PUSH2 0x636B 0x22 KECCAK256 PUSH20 0x74726F6B653D22626C61636B22207374726F6B65 0x2D PUSH24 0x696474683D2231222F3E0A3C7061746820643D224D203734 BALANCE 0x2E CALLDATASIZE CALLDATASIZE CALLDATALOAD CALLDATASIZE CODESIZE ADDRESS CALLDATALOAD CALLDATACOPY CALLDATALOAD CALLDATACOPY CALLER ADDRESS BALANCE KECCAK256 CALLVALUE CALLVALUE ORIGIN 0x2E CALLER CALLER BALANCE CALLDATASIZE CALLDATACOPY CALLDATACOPY CALLVALUE CALLDATALOAD CODESIZE CODECOPY ORIGIN CODECOPY ADDRESS CALLDATALOAD KECCAK256 COINBASE KECCAK256 ORIGIN CALLVALUE ADDRESS KECCAK256 ORIGIN CALLVALUE ADDRESS KECCAK256 ADDRESS KECCAK256 ADDRESS KECCAK256 BALANCE KECCAK256 CALLDATACOPY CALLVALUE CALLDATACOPY 0x2E CALLER CODESIZE CODESIZE CALLVALUE CALLDATASIZE CALLDATACOPY ORIGIN CODECOPY CALLDATASIZE CALLDATACOPY CALLDATACOPY CALLDATALOAD CALLER KECCAK256 CALLVALUE CALLDATASIZE CALLDATALOAD 0x2E BALANCE CALLDATACOPY CODESIZE CALLER ORIGIN ORIGIN CALLDATACOPY BALANCE CALLDATASIZE BALANCE ORIGIN CODECOPY ORIGIN CALLER KECCAK256 0x4C KECCAK256 CODESIZE ORIGIN CALLDATALOAD 0x2E CODESIZE CALLDATALOAD BALANCE ORIGIN CODESIZE CODECOPY CALLDATACOPY ORIGIN CODECOPY ADDRESS CALLER CALLER CALLDATACOPY KECCAK256 CALLVALUE CALLVALUE CODECOPY 0x2E CALLDATALOAD CALLDATACOPY BALANCE ADDRESS CODECOPY CALLDATASIZE CODECOPY CALLDATALOAD CALLVALUE CODESIZE CALLER CODECOPY KECCAK256 COINBASE KECCAK256 CALLER ORIGIN ADDRESS KECCAK256 CALLER ORIGIN ADDRESS KECCAK256 ADDRESS KECCAK256 ADDRESS KECCAK256 ADDRESS KECCAK256 CODESIZE BALANCE CODESIZE 0x2E ORIGIN ORIGIN ADDRESS CODECOPY ADDRESS CALLDATACOPY CALLVALUE CALLER CALLVALUE CALLER ADDRESS CALLDATASIZE CODESIZE KECCAK256 CALLVALUE BALANCE CODECOPY 0x2E BALANCE ADDRESS CODESIZE CODECOPY ADDRESS CALLER ORIGIN CALLDATACOPY CODESIZE CALLDATALOAD CALLDATACOPY ORIGIN BALANCE KECCAK256 GAS 0x22 KECCAK256 PUSH7 0x696C6C3D22626C PUSH2 0x636B 0x22 KECCAK256 PUSH20 0x74726F6B653D22626C61636B22207374726F6B65 0x2D PUSH24 0x696474683D2231222F3E0A3C7061746820643D224D203636 CALLDATALOAD 0x2E BALANCE BALANCE ADDRESS CALLVALUE CALLDATALOAD CALLER CALLDATACOPY BALANCE CALLDATACOPY BALANCE CALLDATALOAD CALLER CALLVALUE KECCAK256 CALLVALUE CALLDATASIZE CALLDATALOAD 0x2E CALLDATALOAD CALLDATALOAD CALLVALUE CALLVALUE CALLDATALOAD BALANCE CALLDATASIZE CALLER CODECOPY ORIGIN CODESIZE CALLDATASIZE KECCAK256 COINBASE KECCAK256 BALANCE CALLDATASIZE ADDRESS KECCAK256 BALANCE CALLDATASIZE ADDRESS KECCAK256 ADDRESS KECCAK256 ADDRESS KECCAK256 BALANCE KECCAK256 CALLDATASIZE CALLDATASIZE CODESIZE 0x2E CODECOPY ORIGIN CALLDATALOAD CALLDATASIZE CALLVALUE CALLVALUE CODESIZE CALLDATASIZE CALLVALUE CALLDATALOAD BALANCE CALLDATASIZE CODECOPY KECCAK256 CALLVALUE CODESIZE ADDRESS 0x2E CALLDATACOPY CODESIZE CALLDATALOAD CALLDATALOAD CALLVALUE CODESIZE CALLVALUE CALLDATACOPY CALLDATACOPY CALLVALUE BALANCE CODECOPY CALLVALUE CALLDATACOPY KECCAK256 0x4C KECCAK256 CALLDATACOPY CALLVALUE CALLDATACOPY 0x2E CALLER CODESIZE CODESIZE CALLVALUE CALLDATASIZE CALLDATACOPY ORIGIN CODECOPY CALLDATASIZE CALLDATACOPY CALLDATACOPY CALLDATALOAD CALLER KECCAK256 CALLVALUE CALLDATASIZE CALLDATALOAD 0x2E BALANCE CALLDATACOPY CODESIZE CALLER ORIGIN ORIGIN CALLDATACOPY BALANCE CALLDATASIZE BALANCE ORIGIN CODECOPY ORIGIN CALLER KECCAK256 COINBASE KECCAK256 ORIGIN CALLVALUE ADDRESS KECCAK256 ORIGIN CALLVALUE ADDRESS KECCAK256 ADDRESS KECCAK256 ADDRESS KECCAK256 ADDRESS KECCAK256 CALLDATACOPY CALLVALUE BALANCE 0x2E CALLDATASIZE CALLDATASIZE CALLDATALOAD CALLDATASIZE CODESIZE ADDRESS CALLDATALOAD CALLDATACOPY CALLDATALOAD CALLDATACOPY CALLER ADDRESS BALANCE KECCAK256 CALLVALUE CALLVALUE ORIGIN 0x2E CALLER CALLER BALANCE CALLDATASIZE CALLDATACOPY CALLDATACOPY CALLVALUE CALLDATALOAD CODESIZE CODECOPY ORIGIN CODECOPY ADDRESS CALLDATALOAD KECCAK256 GAS 0x22 KECCAK256 PUSH7 0x696C6C3D22626C PUSH2 0x636B 0x22 KECCAK256 PUSH20 0x74726F6B653D22626C61636B22207374726F6B65 0x2D PUSH24 0x696474683D2231222F3E0A3C7061746820643D224D203930 CALLVALUE 0x2E CALLER BALANCE CALLVALUE BALANCE BALANCE ORIGIN BALANCE CALLDATASIZE BALANCE ORIGIN CODECOPY ORIGIN ORIGIN KECCAK256 CALLVALUE CALLER CALLER 0x2E CODECOPY CALLDATASIZE CALLER CODESIZE CALLDATACOPY BALANCE BALANCE CODECOPY CALLER CALLDATALOAD CALLVALUE CODESIZE CALLDATACOPY KECCAK256 COINBASE KECCAK256 CALLVALUE ADDRESS ADDRESS KECCAK256 CALLVALUE ADDRESS ADDRESS KECCAK256 ADDRESS KECCAK256 ADDRESS KECCAK256 BALANCE KECCAK256 CODECOPY BALANCE ADDRESS 0x2E ADDRESS CALLDATACOPY CALLER CODESIZE CODECOPY ADDRESS CALLDATASIZE CALLDATASIZE CODESIZE CODESIZE CALLDATACOPY CODESIZE CODESIZE KECCAK256 CALLVALUE CALLDATACOPY ORIGIN 0x2E CALLDATACOPY CODECOPY CALLER BALANCE CALLVALUE CALLER CODESIZE CALLDATASIZE CODESIZE BALANCE CALLDATACOPY CALLDATALOAD CODESIZE KECCAK256 0x4C KECCAK256 CODECOPY CODESIZE CODECOPY 0x2E CALLDATASIZE CODESIZE CODESIZE CALLDATASIZE CALLDATASIZE CODESIZE CODESIZE ADDRESS ORIGIN CALLDATASIZE CALLDATALOAD CALLVALUE CALLDATALOAD KECCAK256 CALLVALUE CALLDATASIZE CALLVALUE 0x2E CODECOPY CALLDATALOAD BALANCE CALLDATACOPY CALLDATACOPY ORIGIN CALLDATASIZE CALLVALUE BALANCE CODESIZE BALANCE ADDRESS CODECOPY KECCAK256 COINBASE KECCAK256 CALLVALUE CODESIZE ADDRESS KECCAK256 CALLVALUE CODESIZE ADDRESS KECCAK256 ADDRESS KECCAK256 ADDRESS KECCAK256 ADDRESS KECCAK256 CODECOPY CODESIZE ORIGIN 0x2E CALLDATACOPY CALLDATACOPY CALLDATASIZE CODECOPY CALLER CALLVALUE CALLDATALOAD CODECOPY CALLER CALLDATALOAD CALLDATALOAD ADDRESS CALLDATALOAD KECCAK256 CALLVALUE BALANCE CODESIZE 0x2E CALLER CALLDATALOAD CALLDATASIZE CALLDATASIZE CALLVALUE CALLDATALOAD CALLVALUE CALLER ORIGIN ORIGIN CALLDATALOAD CODESIZE CALLVALUE CALLDATASIZE KECCAK256 GAS 0x22 KECCAK256 PUSH7 0x696C6C3D22626C PUSH2 0x636B 0x22 KECCAK256 PUSH20 0x74726F6B653D22626C61636B22207374726F6B65 0x2D PUSH24 0x696474683D2231222F3E0A3C7061746820643D224D203832 CALLDATALOAD 0x2E CODESIZE CALLDATALOAD BALANCE ORIGIN CODESIZE CODECOPY CALLDATACOPY ORIGIN CODECOPY ADDRESS CALLER CALLER CALLDATACOPY KECCAK256 CALLVALUE CALLVALUE CODECOPY 0x2E CALLDATALOAD CALLDATACOPY BALANCE ADDRESS CODECOPY CALLDATASIZE CODECOPY CALLDATALOAD CALLVALUE CODESIZE CALLER CODESIZE CODECOPY CALLVALUE KECCAK256 COINBASE KECCAK256 CALLER ORIGIN ADDRESS KECCAK256 CALLER ORIGIN ADDRESS KECCAK256 ADDRESS KECCAK256 ADDRESS KECCAK256 BALANCE KECCAK256 CODESIZE CALLER ADDRESS 0x2E CALLVALUE CALLDATALOAD CODECOPY BALANCE BALANCE ORIGIN CALLDATALOAD CALLER CALLDATALOAD BALANCE ADDRESS CALLER KECCAK256 CALLVALUE CODESIZE ADDRESS 0x2E CALLDATASIZE CALLER CALLVALUE CALLDATALOAD BALANCE CALLDATALOAD ADDRESS CODECOPY CALLVALUE CALLDATALOAD CALLVALUE ADDRESS CALLDATASIZE CALLER KECCAK256 0x4C KECCAK256 CODECOPY BALANCE ADDRESS 0x2E ADDRESS CALLDATACOPY CALLER CODESIZE CODECOPY ADDRESS CALLDATASIZE CALLDATASIZE CODESIZE CODESIZE CALLDATACOPY CODESIZE CODESIZE KECCAK256 CALLVALUE CALLDATACOPY ORIGIN 0x2E CALLDATACOPY CODECOPY CALLER BALANCE CALLVALUE CALLER CODESIZE CALLDATASIZE CODESIZE BALANCE CALLDATACOPY CALLDATALOAD CODESIZE KECCAK256 COINBASE KECCAK256 CALLVALUE ADDRESS ADDRESS KECCAK256 CALLVALUE ADDRESS ADDRESS KECCAK256 ADDRESS KECCAK256 ADDRESS KECCAK256 ADDRESS KECCAK256 CODECOPY ADDRESS CALLVALUE 0x2E CALLER BALANCE CALLVALUE BALANCE BALANCE ORIGIN BALANCE CALLDATASIZE BALANCE ORIGIN CODECOPY ORIGIN ORIGIN KECCAK256 CALLVALUE CALLER CALLER 0x2E CODECOPY CALLDATASIZE CALLER CODESIZE CALLDATACOPY BALANCE BALANCE CODECOPY CALLER CALLDATALOAD CALLVALUE CODESIZE CALLDATACOPY KECCAK256 GAS 0x22 KECCAK256 PUSH7 0x696C6C3D22626C PUSH2 0x636B 0x22 KECCAK256 PUSH20 0x74726F6B653D22626C61636B22207374726F6B65 0x2D PUSH24 0x696474683D2231222F3E0A3C7061746820643D224D203734 CALLDATACOPY 0x2E CALLER CODESIZE CODESIZE CALLVALUE CALLDATASIZE CALLDATACOPY ORIGIN CODECOPY CALLDATASIZE CALLDATACOPY CALLDATACOPY CALLDATALOAD CALLER KECCAK256 CALLVALUE CALLDATASIZE CALLDATALOAD 0x2E BALANCE CALLDATACOPY CODESIZE CALLER ORIGIN ORIGIN CALLDATACOPY BALANCE CALLDATASIZE BALANCE ORIGIN CODECOPY ORIGIN CALLER KECCAK256 COINBASE KECCAK256 ORIGIN CALLVALUE ADDRESS KECCAK256 ORIGIN CALLVALUE ADDRESS KECCAK256 ADDRESS KECCAK256 ADDRESS KECCAK256 BALANCE KECCAK256 CALLDATACOPY CALLDATALOAD ADDRESS 0x2E CODESIZE CALLVALUE CALLVALUE CALLER CALLER CALLVALUE CALLVALUE ADDRESS BALANCE CALLER ORIGIN CALLDATACOPY CALLER KECCAK256 CALLVALUE CODESIZE CODESIZE 0x2E CALLVALUE CALLDATACOPY CALLDATALOAD CODESIZE CODESIZE CALLDATASIZE CALLER ORIGIN ADDRESS CODECOPY ADDRESS CALLDATALOAD CALLVALUE CALLER KECCAK256 0x4C KECCAK256 CODESIZE CALLER ADDRESS 0x2E CALLVALUE CALLDATALOAD CODECOPY BALANCE BALANCE ORIGIN CALLDATALOAD CALLER CALLDATALOAD BALANCE ADDRESS CALLER KECCAK256 CALLVALUE CODESIZE ADDRESS 0x2E CALLDATASIZE CALLER CALLVALUE CALLDATALOAD BALANCE CALLDATALOAD ADDRESS CODECOPY CALLVALUE CALLDATALOAD CALLVALUE ADDRESS CALLDATASIZE CALLER KECCAK256 COINBASE KECCAK256 CALLER ORIGIN ADDRESS KECCAK256 CALLER ORIGIN ADDRESS KECCAK256 ADDRESS KECCAK256 ADDRESS KECCAK256 ADDRESS KECCAK256 CODESIZE ORIGIN CALLDATALOAD 0x2E CODESIZE CALLDATALOAD BALANCE ORIGIN CODESIZE CODECOPY CALLDATACOPY ORIGIN CODECOPY ADDRESS CALLER CALLER CALLDATACOPY KECCAK256 CALLVALUE CALLVALUE CODECOPY 0x2E CALLDATALOAD CALLDATACOPY BALANCE ADDRESS CODECOPY CALLDATASIZE CODECOPY CALLDATALOAD CALLVALUE CODESIZE CALLER CODESIZE CODECOPY CALLVALUE KECCAK256 GAS 0x22 KECCAK256 PUSH7 0x696C6C3D22626C PUSH2 0x636B 0x22 KECCAK256 PUSH20 0x74726F6B653D22626C61636B22207374726F6B65 0x2D PUSH24 0x696474683D2231222F3E0A3C7061746820643D224D203636 CODESIZE 0x2E CODECOPY ORIGIN CALLDATALOAD CALLDATASIZE CALLVALUE CALLVALUE CODESIZE CALLDATASIZE CALLVALUE CALLDATALOAD BALANCE CALLDATASIZE CODECOPY KECCAK256 CALLVALUE CODESIZE ADDRESS 0x2E CALLDATACOPY CODESIZE CALLDATALOAD CALLDATALOAD CALLVALUE CODESIZE CALLVALUE CALLDATACOPY CALLDATACOPY CALLVALUE BALANCE CODECOPY CALLVALUE CALLDATACOPY KECCAK256 COINBASE KECCAK256 BALANCE CALLDATASIZE ADDRESS KECCAK256 BALANCE CALLDATASIZE ADDRESS KECCAK256 ADDRESS KECCAK256 ADDRESS KECCAK256 BALANCE KECCAK256 CALLDATASIZE CALLDATACOPY BALANCE 0x2E ORIGIN ORIGIN CODECOPY CALLDATALOAD CALLDATALOAD CALLDATASIZE ORIGIN CALLDATASIZE CALLDATACOPY CALLDATALOAD CALLDATALOAD BALANCE CALLDATALOAD KECCAK256 CALLVALUE CODECOPY CALLDATASIZE 0x2E CALLER BALANCE CALLDATACOPY ORIGIN CALLDATALOAD CALLDATACOPY CALLDATALOAD CALLVALUE CALLDATACOPY ORIGIN CALLDATACOPY ADDRESS CALLER KECCAK256 0x4C KECCAK256 CALLDATACOPY CALLDATALOAD ADDRESS 0x2E CODESIZE CALLVALUE CALLVALUE CALLER CALLER CALLVALUE CALLVALUE ADDRESS BALANCE CALLER ORIGIN CALLDATACOPY CALLER KECCAK256 CALLVALUE CODESIZE CODESIZE 0x2E CALLVALUE CALLDATACOPY CALLDATALOAD CODESIZE CODESIZE CALLDATASIZE CALLER ORIGIN ADDRESS CODECOPY ADDRESS CALLDATALOAD CALLVALUE CALLER KECCAK256 COINBASE KECCAK256 ORIGIN CALLVALUE ADDRESS KECCAK256 ORIGIN CALLVALUE ADDRESS KECCAK256 ADDRESS KECCAK256 ADDRESS KECCAK256 ADDRESS KECCAK256 CALLDATACOPY CALLVALUE CALLDATACOPY 0x2E CALLER CODESIZE CODESIZE CALLVALUE CALLDATASIZE CALLDATACOPY ORIGIN CODECOPY CALLDATASIZE CALLDATACOPY CALLDATACOPY CALLDATALOAD CALLER KECCAK256 CALLVALUE CALLDATASIZE CALLDATALOAD 0x2E BALANCE CALLDATACOPY CODESIZE CALLER ORIGIN ORIGIN CALLDATACOPY BALANCE CALLDATASIZE BALANCE ORIGIN CODECOPY ORIGIN CALLER KECCAK256 GAS 0x22 KECCAK256 PUSH7 0x696C6C3D22626C PUSH2 0x636B 0x22 KECCAK256 PUSH20 0x74726F6B653D22626C61636B22207374726F6B65 0x2D PUSH24 0x696474683D2231222F3E0A3C7061746820643D224D203931 ADDRESS 0x2E ADDRESS CALLDATACOPY CALLER CODESIZE CODECOPY ADDRESS CALLDATASIZE CALLDATASIZE CODESIZE CODESIZE CALLDATACOPY CODESIZE CODESIZE KECCAK256 CALLVALUE CALLDATACOPY ORIGIN 0x2E CALLDATACOPY CODECOPY CALLER BALANCE CALLVALUE CALLER CODESIZE CALLDATASIZE CODESIZE BALANCE CALLDATACOPY CALLDATALOAD CALLDATACOPY KECCAK256 COINBASE KECCAK256 CALLVALUE ADDRESS ADDRESS KECCAK256 CALLVALUE ADDRESS ADDRESS KECCAK256 ADDRESS KECCAK256 ADDRESS KECCAK256 BALANCE KECCAK256 CODECOPY BALANCE ORIGIN KECCAK256 CALLDATALOAD BALANCE BALANCE 0x2E CODECOPY CODECOPY CODECOPY CODECOPY CODECOPY CODECOPY CODECOPY CODECOPY CODECOPY CODECOPY CODECOPY CODECOPY CODECOPY CALLVALUE KECCAK256 0x4C KECCAK256 CODECOPY CODECOPY ORIGIN KECCAK256 CALLDATALOAD BALANCE BALANCE 0x2E CODECOPY CODECOPY CODECOPY CODECOPY CODECOPY CODECOPY CODECOPY CODECOPY CODECOPY CODECOPY CODECOPY CODECOPY CODECOPY CALLVALUE KECCAK256 COINBASE KECCAK256 CALLVALUE CODESIZE ADDRESS KECCAK256 CALLVALUE CODESIZE ADDRESS KECCAK256 ADDRESS KECCAK256 ADDRESS KECCAK256 ADDRESS KECCAK256 CODECOPY CODESIZE CODECOPY 0x2E CALLDATASIZE CODESIZE CODESIZE CALLDATASIZE CALLDATASIZE CODESIZE CODESIZE ADDRESS ORIGIN CALLDATASIZE CALLDATALOAD CALLVALUE CALLDATALOAD KECCAK256 CALLVALUE CALLDATASIZE CALLVALUE 0x2E CODECOPY CALLDATALOAD BALANCE CALLDATACOPY CALLDATACOPY ORIGIN CALLDATASIZE CALLVALUE BALANCE CODESIZE BALANCE ADDRESS CODESIZE CALLDATASIZE KECCAK256 GAS 0x22 KECCAK256 PUSH7 0x696C6C3D22626C PUSH2 0x636B 0x22 KECCAK256 PUSH20 0x74726F6B653D22626C61636B22207374726F6B65 0x2D PUSH24 0x696474683D2231222F3E0A3C7061746820643D224D203833 ADDRESS 0x2E CALLVALUE CALLDATALOAD CODECOPY BALANCE BALANCE ORIGIN CALLDATALOAD CALLER CALLDATALOAD BALANCE ADDRESS CALLER KECCAK256 CALLVALUE CODESIZE ADDRESS 0x2E CALLDATASIZE CALLER CALLVALUE CALLDATALOAD BALANCE CALLDATALOAD ADDRESS CODECOPY CALLVALUE CALLDATALOAD CALLVALUE ADDRESS CALLDATASIZE KECCAK256 COINBASE KECCAK256 CALLER ORIGIN ADDRESS KECCAK256 CALLER ORIGIN ADDRESS KECCAK256 ADDRESS KECCAK256 ADDRESS KECCAK256 BALANCE KECCAK256 CODESIZE CALLER ORIGIN KECCAK256 CALLDATALOAD BALANCE BALANCE 0x2E CODECOPY CODECOPY CODECOPY CODECOPY CODECOPY CODECOPY CODECOPY CODECOPY CODECOPY CODECOPY CODECOPY CODECOPY CODECOPY CALLVALUE KECCAK256 0x4C KECCAK256 CODECOPY BALANCE ORIGIN KECCAK256 CALLDATALOAD BALANCE BALANCE 0x2E CODECOPY CODECOPY CODECOPY CODECOPY CODECOPY CODECOPY CODECOPY CODECOPY CODECOPY CODECOPY CODECOPY CODECOPY CODECOPY CALLVALUE KECCAK256 COINBASE KECCAK256 CALLVALUE ADDRESS ADDRESS KECCAK256 CALLVALUE ADDRESS ADDRESS KECCAK256 ADDRESS KECCAK256 ADDRESS KECCAK256 ADDRESS KECCAK256 CODECOPY BALANCE ADDRESS 0x2E ADDRESS CALLDATACOPY CALLER CODESIZE CODECOPY ADDRESS CALLDATASIZE CALLDATASIZE CODESIZE CODESIZE CALLDATACOPY CODESIZE CODESIZE KECCAK256 CALLVALUE CALLDATACOPY ORIGIN 0x2E CALLDATACOPY CODECOPY CALLER BALANCE CALLVALUE CALLER CODESIZE CALLDATASIZE CODESIZE BALANCE CALLDATACOPY CALLDATALOAD CALLDATACOPY KECCAK256 GAS 0x22 KECCAK256 PUSH7 0x696C6C3D22626C PUSH2 0x636B 0x22 KECCAK256 PUSH20 0x74726F6B653D22626C61636B22207374726F6B65 0x2D PUSH24 0x696474683D2231222F3E0A3C7061746820643D224D203735 ADDRESS 0x2E CODESIZE CALLVALUE CALLVALUE CALLER CALLER CALLVALUE CALLVALUE ADDRESS BALANCE CALLER ORIGIN CALLDATACOPY CALLER KECCAK256 CALLVALUE CODESIZE CODESIZE 0x2E CALLVALUE CALLDATACOPY CALLDATALOAD CODESIZE CODESIZE CALLDATASIZE CALLER ORIGIN ADDRESS CODECOPY ADDRESS CALLDATALOAD CALLVALUE CALLER KECCAK256 COINBASE KECCAK256 ORIGIN CALLVALUE ADDRESS KECCAK256 ORIGIN CALLVALUE ADDRESS KECCAK256 ADDRESS KECCAK256 ADDRESS KECCAK256 BALANCE KECCAK256 CALLDATACOPY CALLDATALOAD ORIGIN KECCAK256 CALLDATALOAD BALANCE ORIGIN KECCAK256 0x4C KECCAK256 CODESIZE CALLER ORIGIN KECCAK256 CALLDATALOAD BALANCE BALANCE 0x2E CODECOPY CODECOPY CODECOPY CODECOPY CODECOPY CODECOPY CODECOPY CODECOPY CODECOPY CODECOPY CODECOPY CODECOPY CODECOPY CALLVALUE KECCAK256 COINBASE KECCAK256 CALLER ORIGIN ADDRESS KECCAK256 CALLER ORIGIN ADDRESS KECCAK256 ADDRESS KECCAK256 ADDRESS KECCAK256 ADDRESS KECCAK256 CODESIZE CALLER ADDRESS 0x2E CALLVALUE CALLDATALOAD CODECOPY BALANCE BALANCE ORIGIN CALLDATALOAD CALLER CALLDATALOAD BALANCE ADDRESS CALLER KECCAK256 CALLVALUE CODESIZE ADDRESS 0x2E CALLDATASIZE CALLER CALLVALUE CALLDATALOAD BALANCE CALLDATALOAD ADDRESS CODECOPY CALLVALUE CALLDATALOAD CALLVALUE ADDRESS CALLDATASIZE KECCAK256 GAS 0x22 KECCAK256 PUSH7 0x696C6C3D22626C PUSH2 0x636B 0x22 KECCAK256 PUSH20 0x74726F6B653D22626C61636B22207374726F6B65 0x2D PUSH24 0x696474683D2231222F3E0A3C7061746820643D224D203637 BALANCE 0x2E ORIGIN ORIGIN CODECOPY CALLDATALOAD CALLDATALOAD CALLDATASIZE ORIGIN CALLDATASIZE CALLDATACOPY CALLDATALOAD CALLDATALOAD BALANCE CALLDATALOAD KECCAK256 CALLVALUE CODECOPY CALLDATASIZE 0x2E CALLER BALANCE CALLDATACOPY ORIGIN CALLDATALOAD CALLDATACOPY CALLDATALOAD CALLVALUE CALLDATACOPY ORIGIN CALLDATACOPY ADDRESS CALLER KECCAK256 COINBASE KECCAK256 BALANCE CALLDATASIZE ADDRESS KECCAK256 BALANCE CALLDATASIZE ADDRESS KECCAK256 ADDRESS KECCAK256 ADDRESS KECCAK256 BALANCE KECCAK256 CALLDATASIZE CALLDATACOPY ORIGIN KECCAK256 CALLDATALOAD BALANCE ORIGIN KECCAK256 0x4C KECCAK256 CALLDATACOPY CALLDATALOAD ORIGIN KECCAK256 CALLDATALOAD BALANCE ORIGIN KECCAK256 COINBASE KECCAK256 ORIGIN CALLVALUE ADDRESS KECCAK256 ORIGIN CALLVALUE ADDRESS KECCAK256 ADDRESS KECCAK256 ADDRESS KECCAK256 ADDRESS KECCAK256 CALLDATACOPY CALLDATALOAD ADDRESS 0x2E CODESIZE CALLVALUE CALLVALUE CALLER CALLER CALLVALUE CALLVALUE ADDRESS BALANCE CALLER ORIGIN CALLDATACOPY CALLER KECCAK256 CALLVALUE CODESIZE CODESIZE 0x2E CALLVALUE CALLDATACOPY CALLDATALOAD CODESIZE CODESIZE CALLDATASIZE CALLER ORIGIN ADDRESS CODECOPY ADDRESS CALLDATALOAD CALLVALUE CALLER KECCAK256 GAS 0x22 KECCAK256 PUSH7 0x696C6C3D22626C PUSH2 0x636B 0x22 KECCAK256 PUSH20 0x74726F6B653D22626C61636B22207374726F6B65 0x2D PUSH24 0x696474683D2231222F3E0A3C7061746820643D224D203931 ORIGIN KECCAK256 CALLDATALOAD BALANCE ORIGIN KECCAK256 COINBASE KECCAK256 CALLVALUE ADDRESS ADDRESS KECCAK256 CALLVALUE ADDRESS ADDRESS KECCAK256 ADDRESS KECCAK256 ADDRESS KECCAK256 BALANCE KECCAK256 CODECOPY BALANCE ADDRESS 0x2E ADDRESS CALLDATACOPY CALLER CODESIZE CODECOPY ADDRESS CALLDATASIZE CALLDATASIZE CODESIZE CODESIZE CALLDATACOPY CODESIZE CODESIZE KECCAK256 CALLDATALOAD CALLDATALOAD BALANCE 0x2E ORIGIN ADDRESS CALLDATASIZE CODESIZE CALLDATALOAD CALLDATASIZE BALANCE CALLER BALANCE CODESIZE ORIGIN CALLVALUE ORIGIN KECCAK256 0x4C KECCAK256 CODECOPY CODESIZE CODECOPY 0x2E CALLDATASIZE CODESIZE CODESIZE CALLDATASIZE CALLDATASIZE CODESIZE CODESIZE ADDRESS ORIGIN CALLDATASIZE CALLDATALOAD CALLVALUE CALLDATALOAD KECCAK256 CALLDATALOAD CALLDATALOAD CODECOPY 0x2E ADDRESS CALLVALUE CODESIZE ORIGIN ORIGIN CALLDATACOPY CALLER CALLDATALOAD CODESIZE BALANCE CODESIZE CODECOPY BALANCE KECCAK256 COINBASE KECCAK256 CALLVALUE CODESIZE ADDRESS KECCAK256 CALLVALUE CODESIZE ADDRESS KECCAK256 ADDRESS KECCAK256 ADDRESS KECCAK256 ADDRESS KECCAK256 CODECOPY CODECOPY ORIGIN KECCAK256 CALLDATALOAD BALANCE ORIGIN KECCAK256 GAS 0x22 KECCAK256 PUSH7 0x696C6C3D22626C PUSH2 0x636B 0x22 KECCAK256 PUSH20 0x74726F6B653D22626C61636B22207374726F6B65 0x2D PUSH24 0x696474683D2231222F3E0A3C7061746820643D224D203833 ORIGIN KECCAK256 CALLDATALOAD BALANCE ORIGIN KECCAK256 COINBASE KECCAK256 CALLER ORIGIN ADDRESS KECCAK256 CALLER ORIGIN ADDRESS KECCAK256 ADDRESS KECCAK256 ADDRESS KECCAK256 BALANCE KECCAK256 CODESIZE CALLER ADDRESS 0x2E CALLVALUE CALLDATALOAD CODECOPY BALANCE BALANCE ORIGIN CALLDATALOAD CALLER CALLDATALOAD BALANCE ADDRESS CALLER KECCAK256 CALLDATALOAD CALLVALUE CALLER 0x2E CALLER CALLDATASIZE CALLDATALOAD CALLVALUE CODESIZE CALLVALUE CODECOPY ADDRESS CALLDATALOAD CALLVALUE CALLDATALOAD CODECOPY CALLVALUE KECCAK256 0x4C KECCAK256 CODECOPY BALANCE ADDRESS 0x2E ADDRESS CALLDATACOPY CALLER CODESIZE CODECOPY ADDRESS CALLDATASIZE CALLDATASIZE CODESIZE CODESIZE CALLDATACOPY CODESIZE CODESIZE KECCAK256 CALLDATALOAD CALLDATALOAD BALANCE 0x2E ORIGIN ADDRESS CALLDATASIZE CODESIZE CALLDATALOAD CALLDATASIZE BALANCE CALLER BALANCE CODESIZE ORIGIN CALLVALUE ORIGIN KECCAK256 COINBASE KECCAK256 CALLVALUE ADDRESS ADDRESS KECCAK256 CALLVALUE ADDRESS ADDRESS KECCAK256 ADDRESS KECCAK256 ADDRESS KECCAK256 ADDRESS KECCAK256 CODECOPY BALANCE ORIGIN KECCAK256 CALLDATALOAD BALANCE ORIGIN KECCAK256 GAS 0x22 KECCAK256 PUSH7 0x696C6C3D22626C PUSH2 0x636B 0x22 KECCAK256 PUSH20 0x74726F6B653D22626C61636B22207374726F6B65 0x2D PUSH24 0x696474683D2231222F3E0A3C7061746820643D224D203735 ORIGIN KECCAK256 CALLDATALOAD BALANCE ORIGIN KECCAK256 COINBASE KECCAK256 ORIGIN CALLVALUE ADDRESS KECCAK256 ORIGIN CALLVALUE ADDRESS KECCAK256 ADDRESS KECCAK256 ADDRESS KECCAK256 BALANCE KECCAK256 CALLDATACOPY CALLDATALOAD ADDRESS 0x2E CODESIZE CALLVALUE CALLVALUE CALLER CALLER CALLVALUE CALLVALUE ADDRESS BALANCE CALLER ORIGIN CALLDATACOPY CALLER KECCAK256 CALLDATALOAD CALLER CALLDATALOAD 0x2E CALLDATALOAD ORIGIN CALLVALUE BALANCE BALANCE CALLER CALLDATASIZE CALLDATACOPY CODECOPY ADDRESS CODECOPY CALLVALUE CALLDATALOAD KECCAK256 0x4C KECCAK256 CODESIZE CALLER ADDRESS 0x2E CALLVALUE CALLDATALOAD CODECOPY BALANCE BALANCE ORIGIN CALLDATALOAD CALLER CALLDATALOAD BALANCE ADDRESS CALLER KECCAK256 CALLDATALOAD CALLVALUE CALLER 0x2E CALLER CALLDATASIZE CALLDATALOAD CALLVALUE CODESIZE CALLVALUE CODECOPY ADDRESS CALLDATALOAD CALLVALUE CALLDATALOAD CODECOPY CALLVALUE KECCAK256 COINBASE KECCAK256 CALLER ORIGIN ADDRESS KECCAK256 CALLER ORIGIN ADDRESS KECCAK256 ADDRESS KECCAK256 ADDRESS KECCAK256 ADDRESS KECCAK256 CODESIZE CALLER ORIGIN KECCAK256 CALLDATALOAD BALANCE ORIGIN KECCAK256 GAS 0x22 KECCAK256 PUSH7 0x696C6C3D22626C PUSH2 0x636B 0x22 KECCAK256 PUSH20 0x74726F6B653D22626C61636B22207374726F6B65 0x2D PUSH24 0x696474683D2231222F3E0A3C7061746820643D224D203637 ORIGIN KECCAK256 CALLDATALOAD BALANCE ORIGIN KECCAK256 COINBASE KECCAK256 BALANCE CALLDATASIZE ADDRESS KECCAK256 BALANCE CALLDATASIZE ADDRESS KECCAK256 ADDRESS KECCAK256 ADDRESS KECCAK256 BALANCE KECCAK256 CALLDATASIZE CALLDATACOPY BALANCE 0x2E ORIGIN ORIGIN CODECOPY CALLDATALOAD CALLDATALOAD CALLDATASIZE ORIGIN CALLDATASIZE CALLDATACOPY CALLDATALOAD CALLDATALOAD BALANCE CALLDATALOAD KECCAK256 CALLDATALOAD ORIGIN CALLDATACOPY 0x2E CALLDATASIZE CODESIZE ORIGIN CALLDATACOPY CALLVALUE ORIGIN CALLVALUE CALLDATALOAD ORIGIN CALLDATACOPY ORIGIN CODECOPY CALLDATACOPY KECCAK256 0x4C KECCAK256 CALLDATACOPY CALLDATALOAD ADDRESS 0x2E CODESIZE CALLVALUE CALLVALUE CALLER CALLER CALLVALUE CALLVALUE ADDRESS BALANCE CALLER ORIGIN CALLDATACOPY CALLER KECCAK256 CALLDATALOAD CALLER CALLDATALOAD 0x2E CALLDATALOAD ORIGIN CALLVALUE BALANCE BALANCE CALLER CALLDATASIZE CALLDATACOPY CODECOPY ADDRESS CODECOPY CALLVALUE CALLDATALOAD KECCAK256 COINBASE KECCAK256 ORIGIN CALLVALUE ADDRESS KECCAK256 ORIGIN CALLVALUE ADDRESS KECCAK256 ADDRESS KECCAK256 ADDRESS KECCAK256 ADDRESS KECCAK256 CALLDATACOPY CALLDATALOAD ORIGIN KECCAK256 CALLDATALOAD BALANCE ORIGIN KECCAK256 GAS 0x22 KECCAK256 PUSH7 0x696C6C3D22626C PUSH2 0x636B 0x22 KECCAK256 PUSH20 0x74726F6B653D22626C61636B22207374726F6B65 0x2D PUSH24 0x696474683D2231222F3E0A3C7061746820643D224D203931 ADDRESS 0x2E ADDRESS CALLDATACOPY CALLER CODESIZE CODECOPY ADDRESS CALLDATASIZE CALLDATASIZE CODESIZE CODESIZE CALLDATACOPY CODESIZE CODESIZE KECCAK256 CALLDATALOAD CALLDATALOAD BALANCE 0x2E ORIGIN ADDRESS CALLDATASIZE CODESIZE CALLDATALOAD CALLDATASIZE BALANCE CALLER BALANCE CODESIZE ORIGIN CALLVALUE CALLER KECCAK256 COINBASE KECCAK256 CALLVALUE ADDRESS ADDRESS KECCAK256 CALLVALUE ADDRESS ADDRESS KECCAK256 ADDRESS KECCAK256 ADDRESS KECCAK256 BALANCE KECCAK256 CODECOPY ADDRESS CALLVALUE 0x2E CALLER BALANCE CALLVALUE BALANCE BALANCE ORIGIN BALANCE CALLDATASIZE BALANCE ORIGIN CODECOPY ORIGIN ORIGIN KECCAK256 CALLDATALOAD CODECOPY ADDRESS 0x2E ADDRESS CALLER CALLDATASIZE BALANCE ORIGIN CODESIZE CODESIZE ADDRESS CALLDATASIZE CALLVALUE CALLDATALOAD BALANCE CALLER KECCAK256 0x4C KECCAK256 CODECOPY CODESIZE ORIGIN 0x2E CALLDATACOPY CALLDATACOPY CALLDATASIZE CODECOPY CALLER CALLVALUE CALLDATALOAD CODECOPY CALLER CALLDATALOAD CALLDATALOAD ADDRESS CALLDATALOAD KECCAK256 CALLDATASIZE ADDRESS CALLDATALOAD 0x2E CALLDATASIZE CALLVALUE CALLER CALLER CALLDATALOAD CALLVALUE CALLDATALOAD CALLDATASIZE CALLDATACOPY CALLDATACOPY CALLVALUE BALANCE CALLDATACOPY KECCAK256 COINBASE KECCAK256 CALLVALUE CODESIZE ADDRESS KECCAK256 CALLVALUE CODESIZE ADDRESS KECCAK256 ADDRESS KECCAK256 ADDRESS KECCAK256 ADDRESS KECCAK256 CODECOPY CODESIZE CODECOPY 0x2E CALLDATASIZE CODESIZE CODESIZE CALLDATASIZE CALLDATASIZE CODESIZE CODESIZE ADDRESS ORIGIN CALLDATASIZE CALLDATALOAD CALLVALUE CALLDATALOAD KECCAK256 CALLDATALOAD CALLDATALOAD CODECOPY 0x2E ADDRESS CALLVALUE CODESIZE ORIGIN ORIGIN CALLDATACOPY CALLER CALLDATALOAD CODESIZE BALANCE CODESIZE CODECOPY BALANCE KECCAK256 GAS 0x22 KECCAK256 PUSH7 0x696C6C3D22626C PUSH2 0x636B 0x22 KECCAK256 PUSH20 0x74726F6B653D22626C61636B22207374726F6B65 0x2D PUSH24 0x696474683D2231222F3E0A3C7061746820643D224D203833 ADDRESS 0x2E CALLVALUE CALLDATALOAD CODECOPY BALANCE BALANCE ORIGIN CALLDATALOAD CALLER CALLDATALOAD BALANCE ADDRESS CALLER KECCAK256 CALLDATALOAD CALLVALUE CALLER 0x2E CALLER CALLDATASIZE CALLDATALOAD CALLVALUE CODESIZE CALLVALUE CODECOPY ADDRESS CALLDATALOAD CALLVALUE CALLDATALOAD CODECOPY CALLVALUE KECCAK256 COINBASE KECCAK256 CALLER ORIGIN ADDRESS KECCAK256 CALLER ORIGIN ADDRESS KECCAK256 ADDRESS KECCAK256 ADDRESS KECCAK256 BALANCE KECCAK256 CODESIZE ORIGIN CALLDATALOAD 0x2E CODESIZE CALLDATALOAD BALANCE ORIGIN CODESIZE CODECOPY CALLDATACOPY ORIGIN CODECOPY ADDRESS CALLER CALLER CALLDATACOPY KECCAK256 CALLDATALOAD CALLDATACOPY CALLVALUE 0x2E CALLVALUE ORIGIN CODESIZE CODECOPY ADDRESS CALLER ADDRESS CALLVALUE CALLDATALOAD BALANCE CALLDATASIZE BALANCE BALANCE KECCAK256 0x4C KECCAK256 CODECOPY ADDRESS CALLVALUE 0x2E CALLER BALANCE CALLVALUE BALANCE BALANCE ORIGIN BALANCE CALLDATASIZE BALANCE ORIGIN CODECOPY ORIGIN ORIGIN KECCAK256 CALLDATALOAD CODECOPY ADDRESS 0x2E ADDRESS CALLER CALLDATASIZE BALANCE ORIGIN CODESIZE CODESIZE ADDRESS CALLDATASIZE CALLVALUE CALLDATALOAD BALANCE CALLER KECCAK256 COINBASE KECCAK256 CALLVALUE ADDRESS ADDRESS KECCAK256 CALLVALUE ADDRESS ADDRESS KECCAK256 ADDRESS KECCAK256 ADDRESS KECCAK256 ADDRESS KECCAK256 CODECOPY BALANCE ADDRESS 0x2E ADDRESS CALLDATACOPY CALLER CODESIZE CODECOPY ADDRESS CALLDATASIZE CALLDATASIZE CODESIZE CODESIZE CALLDATACOPY CODESIZE CODESIZE KECCAK256 CALLDATALOAD CALLDATALOAD BALANCE 0x2E ORIGIN ADDRESS CALLDATASIZE CODESIZE CALLDATALOAD CALLDATASIZE BALANCE CALLER BALANCE CODESIZE ORIGIN CALLVALUE CALLER KECCAK256 GAS 0x22 KECCAK256 PUSH7 0x696C6C3D22626C PUSH2 0x636B 0x22 KECCAK256 PUSH20 0x74726F6B653D22626C61636B22207374726F6B65 0x2D PUSH24 0x696474683D2231222F3E0A3C7061746820643D224D203735 ADDRESS 0x2E CODESIZE CALLVALUE CALLVALUE CALLER CALLER CALLVALUE CALLVALUE ADDRESS BALANCE CALLER ORIGIN CALLDATACOPY CALLER KECCAK256 CALLDATALOAD CALLER CALLDATALOAD 0x2E CALLDATALOAD ORIGIN CALLVALUE BALANCE BALANCE CALLER CALLDATASIZE CALLDATACOPY CODECOPY ADDRESS CODECOPY CALLVALUE CALLDATASIZE KECCAK256 COINBASE KECCAK256 ORIGIN CALLVALUE ADDRESS KECCAK256 ORIGIN CALLVALUE ADDRESS KECCAK256 ADDRESS KECCAK256 ADDRESS KECCAK256 BALANCE KECCAK256 CALLDATACOPY CALLVALUE CALLDATACOPY 0x2E CALLER CODESIZE CODESIZE CALLVALUE CALLDATASIZE CALLDATACOPY ORIGIN CODECOPY CALLDATASIZE CALLDATACOPY CALLDATACOPY CALLDATALOAD CALLER KECCAK256 CALLDATALOAD CALLDATALOAD CODESIZE 0x2E CODESIZE ORIGIN BALANCE CALLDATASIZE CALLDATACOPY CALLDATACOPY ORIGIN CODESIZE CALLER CODESIZE CALLDATACOPY ADDRESS CODESIZE KECCAK256 0x4C KECCAK256 CODESIZE ORIGIN CALLDATALOAD 0x2E CODESIZE CALLDATALOAD BALANCE ORIGIN CODESIZE CODECOPY CALLDATACOPY ORIGIN CODECOPY ADDRESS CALLER CALLER CALLDATACOPY KECCAK256 CALLDATALOAD CALLDATACOPY CALLVALUE 0x2E CALLVALUE ORIGIN CODESIZE CODECOPY ADDRESS CALLER ADDRESS CALLVALUE CALLDATALOAD BALANCE CALLDATASIZE BALANCE BALANCE KECCAK256 COINBASE KECCAK256 CALLER ORIGIN ADDRESS KECCAK256 CALLER ORIGIN ADDRESS KECCAK256 ADDRESS KECCAK256 ADDRESS KECCAK256 ADDRESS KECCAK256 CODESIZE CALLER ADDRESS 0x2E CALLVALUE CALLDATALOAD CODECOPY BALANCE BALANCE ORIGIN CALLDATALOAD CALLER CALLDATALOAD BALANCE ADDRESS CALLER KECCAK256 CALLDATALOAD CALLVALUE CALLER 0x2E CALLER CALLDATASIZE CALLDATALOAD CALLVALUE CODESIZE CALLVALUE CODECOPY ADDRESS CALLDATALOAD CALLVALUE CALLDATALOAD CODECOPY CALLVALUE KECCAK256 GAS 0x22 KECCAK256 PUSH7 0x696C6C3D22626C PUSH2 0x636B 0x22 KECCAK256 PUSH20 0x74726F6B653D22626C61636B22207374726F6B65 0x2D PUSH24 0x696474683D2231222F3E0A3C7061746820643D224D203637 BALANCE 0x2E ORIGIN ORIGIN CODECOPY CALLDATALOAD CALLDATALOAD CALLDATASIZE ORIGIN CALLDATASIZE CALLDATACOPY CALLDATALOAD CALLDATALOAD BALANCE CALLDATALOAD KECCAK256 CALLDATALOAD ORIGIN CALLDATACOPY 0x2E CALLDATASIZE CODESIZE ORIGIN CALLDATACOPY CALLVALUE ORIGIN CALLVALUE CALLDATALOAD ORIGIN CALLDATACOPY ORIGIN CODECOPY CALLDATACOPY KECCAK256 COINBASE KECCAK256 BALANCE CALLDATASIZE ADDRESS KECCAK256 BALANCE CALLDATASIZE ADDRESS KECCAK256 ADDRESS KECCAK256 ADDRESS KECCAK256 BALANCE KECCAK256 CALLDATASIZE CALLDATASIZE CODESIZE 0x2E CODECOPY ORIGIN CALLDATALOAD CALLDATASIZE CALLVALUE CALLVALUE CODESIZE CALLDATASIZE CALLVALUE CALLDATALOAD BALANCE CALLDATASIZE CODECOPY KECCAK256 CALLDATALOAD CALLVALUE CALLER 0x2E ORIGIN BALANCE CALLVALUE CALLVALUE CALLDATALOAD BALANCE CALLDATALOAD ORIGIN ORIGIN CALLDATALOAD CODESIZE ADDRESS CALLDATASIZE KECCAK256 0x4C KECCAK256 CALLDATACOPY CALLVALUE CALLDATACOPY 0x2E CALLER CODESIZE CODESIZE CALLVALUE CALLDATASIZE CALLDATACOPY ORIGIN CODECOPY CALLDATASIZE CALLDATACOPY CALLDATACOPY CALLDATALOAD CALLER KECCAK256 CALLDATALOAD CALLDATALOAD CODESIZE 0x2E CODESIZE ORIGIN BALANCE CALLDATASIZE CALLDATACOPY CALLDATACOPY ORIGIN CODESIZE CALLER CODESIZE CALLDATACOPY ADDRESS CODESIZE KECCAK256 COINBASE KECCAK256 ORIGIN CALLVALUE ADDRESS KECCAK256 ORIGIN CALLVALUE ADDRESS KECCAK256 ADDRESS KECCAK256 ADDRESS KECCAK256 ADDRESS KECCAK256 CALLDATACOPY CALLDATALOAD ADDRESS 0x2E CODESIZE CALLVALUE CALLVALUE CALLER CALLER CALLVALUE CALLVALUE ADDRESS BALANCE CALLER ORIGIN CALLDATACOPY CALLER KECCAK256 CALLDATALOAD CALLER CALLDATALOAD 0x2E CALLDATALOAD ORIGIN CALLVALUE BALANCE BALANCE CALLER CALLDATASIZE CALLDATACOPY CODECOPY ADDRESS CODECOPY CALLVALUE CALLDATASIZE KECCAK256 GAS 0x22 KECCAK256 PUSH7 0x696C6C3D22626C PUSH2 0x636B 0x22 KECCAK256 PUSH20 0x74726F6B653D22626C61636B22207374726F6B65 0x2D PUSH24 0x696474683D2231222F3E0A3C7061746820643D224D203930 CALLVALUE 0x2E CALLER BALANCE CALLVALUE BALANCE BALANCE ORIGIN BALANCE CALLDATASIZE BALANCE ORIGIN CODECOPY ORIGIN ORIGIN KECCAK256 CALLDATALOAD CODECOPY ADDRESS 0x2E ADDRESS CALLER CALLDATASIZE BALANCE ORIGIN CODESIZE CODESIZE ADDRESS CALLDATASIZE CALLVALUE CALLDATALOAD BALANCE CALLER KECCAK256 COINBASE KECCAK256 CALLVALUE ADDRESS ADDRESS KECCAK256 CALLVALUE ADDRESS ADDRESS KECCAK256 ADDRESS KECCAK256 ADDRESS KECCAK256 BALANCE KECCAK256 CODESIZE CODECOPY CALLVALUE 0x2E CALLDATACOPY CALLDATACOPY CALLDATASIZE BALANCE CALLER CALLVALUE ORIGIN CODECOPY ORIGIN CODESIZE CODESIZE CALLER CALLDATALOAD KECCAK256 CALLDATASIZE ORIGIN CODESIZE 0x2E BALANCE BALANCE CALLER CODESIZE CALLDATACOPY ADDRESS CODECOPY ADDRESS BALANCE CALLDATACOPY CODESIZE CALLVALUE CODECOPY KECCAK256 0x4C KECCAK256 CODECOPY CALLDATACOPY BALANCE 0x2E CALLER CALLER BALANCE CALLER CALLDATASIZE BALANCE BALANCE CALLDATALOAD BALANCE CALLVALUE CALLDATASIZE ADDRESS ORIGIN KECCAK256 CALLDATASIZE CALLDATALOAD BALANCE 0x2E CALLER CALLER CALLDATASIZE CALLDATASIZE CALLVALUE CALLDATALOAD ADDRESS CODESIZE ORIGIN BALANCE CALLVALUE BALANCE CODECOPY KECCAK256 COINBASE KECCAK256 CALLVALUE CODESIZE ADDRESS KECCAK256 CALLVALUE CODESIZE ADDRESS KECCAK256 ADDRESS KECCAK256 ADDRESS KECCAK256 ADDRESS KECCAK256 CODECOPY CODESIZE ORIGIN 0x2E CALLDATACOPY CALLDATACOPY CALLDATASIZE CODECOPY CALLER CALLVALUE CALLDATALOAD CODECOPY CALLER CALLDATALOAD CALLDATALOAD ADDRESS CALLDATALOAD KECCAK256 CALLDATASIZE ADDRESS CALLDATALOAD 0x2E CALLDATASIZE CALLVALUE CALLER CALLER CALLDATALOAD CALLVALUE CALLDATALOAD CALLDATASIZE CALLDATACOPY CALLDATACOPY CALLVALUE BALANCE CALLDATALOAD KECCAK256 GAS 0x22 KECCAK256 PUSH7 0x696C6C3D22626C PUSH2 0x636B 0x22 KECCAK256 PUSH20 0x74726F6B653D22626C61636B22207374726F6B65 0x2D PUSH24 0x696474683D2231222F3E0A3C7061746820643D224D203832 CALLDATALOAD 0x2E CODESIZE CALLDATALOAD BALANCE ORIGIN CODESIZE CODECOPY CALLDATACOPY ORIGIN CODECOPY ADDRESS CALLER CALLER CALLDATACOPY KECCAK256 CALLDATALOAD CALLDATACOPY CALLVALUE 0x2E CALLVALUE ORIGIN CODESIZE CODECOPY ADDRESS CALLER ADDRESS CALLVALUE CALLDATALOAD BALANCE CALLDATASIZE BALANCE BALANCE KECCAK256 COINBASE KECCAK256 CALLER ORIGIN ADDRESS KECCAK256 CALLER ORIGIN ADDRESS KECCAK256 ADDRESS KECCAK256 ADDRESS KECCAK256 BALANCE KECCAK256 CODESIZE BALANCE CODESIZE 0x2E ORIGIN ORIGIN ADDRESS CODECOPY ADDRESS CALLDATACOPY CALLVALUE CALLER CALLVALUE CALLER ADDRESS CALLDATASIZE CODESIZE KECCAK256 CALLDATASIZE ADDRESS CALLVALUE 0x2E CODESIZE CODECOPY BALANCE ADDRESS CODECOPY CALLDATASIZE CALLDATACOPY ORIGIN BALANCE CALLVALUE ORIGIN CODESIZE KECCAK256 0x4C KECCAK256 CODESIZE CODECOPY CALLVALUE 0x2E CALLDATACOPY CALLDATACOPY CALLDATASIZE BALANCE CALLER CALLVALUE ORIGIN CODECOPY ORIGIN CODESIZE CODESIZE CALLER CALLDATALOAD KECCAK256 CALLDATASIZE ORIGIN CODESIZE 0x2E BALANCE BALANCE CALLER CODESIZE CALLDATACOPY ADDRESS CODECOPY ADDRESS BALANCE CALLDATACOPY CODESIZE CALLVALUE CODECOPY KECCAK256 COINBASE KECCAK256 CALLVALUE ADDRESS ADDRESS KECCAK256 CALLVALUE ADDRESS ADDRESS KECCAK256 ADDRESS KECCAK256 ADDRESS KECCAK256 ADDRESS KECCAK256 CODECOPY ADDRESS CALLVALUE 0x2E CALLER BALANCE CALLVALUE BALANCE BALANCE ORIGIN BALANCE CALLDATASIZE BALANCE ORIGIN CODECOPY ORIGIN ORIGIN KECCAK256 CALLDATALOAD CODECOPY ADDRESS 0x2E ADDRESS CALLER CALLDATASIZE BALANCE ORIGIN CODESIZE CODESIZE ADDRESS CALLDATASIZE CALLVALUE CALLDATALOAD BALANCE CALLER KECCAK256 GAS 0x22 KECCAK256 PUSH7 0x696C6C3D22626C PUSH2 0x636B 0x22 KECCAK256 PUSH20 0x74726F6B653D22626C61636B22207374726F6B65 0x2D PUSH24 0x696474683D2231222F3E0A3C7061746820643D224D203734 CALLDATACOPY 0x2E CALLER CODESIZE CODESIZE CALLVALUE CALLDATASIZE CALLDATACOPY ORIGIN CODECOPY CALLDATASIZE CALLDATACOPY CALLDATACOPY CALLDATALOAD CALLER KECCAK256 CALLDATALOAD CALLDATALOAD CODESIZE 0x2E CODESIZE ORIGIN BALANCE CALLDATASIZE CALLDATACOPY CALLDATACOPY ORIGIN CODESIZE CALLER CODESIZE CALLDATACOPY ADDRESS CODESIZE KECCAK256 COINBASE KECCAK256 ORIGIN CALLVALUE ADDRESS KECCAK256 ORIGIN CALLVALUE ADDRESS KECCAK256 ADDRESS KECCAK256 ADDRESS KECCAK256 BALANCE KECCAK256 CALLDATACOPY CALLVALUE BALANCE 0x2E CALLDATASIZE CALLDATASIZE CALLDATALOAD CALLDATASIZE CODESIZE ADDRESS CALLDATALOAD CALLDATACOPY CALLDATALOAD CALLDATACOPY CALLER ADDRESS BALANCE KECCAK256 CALLDATALOAD CODESIZE BALANCE 0x2E CALLDATASIZE CALLDATASIZE CODESIZE CALLER ORIGIN ORIGIN CALLDATALOAD CALLVALUE BALANCE ADDRESS CALLDATACOPY BALANCE KECCAK256 0x4C KECCAK256 CODESIZE BALANCE CODESIZE 0x2E ORIGIN ORIGIN ADDRESS CODECOPY ADDRESS CALLDATACOPY CALLVALUE CALLER CALLVALUE CALLER ADDRESS CALLDATASIZE CODESIZE KECCAK256 CALLDATASIZE ADDRESS CALLVALUE 0x2E CODESIZE CODECOPY BALANCE ADDRESS CODECOPY CALLDATASIZE CALLDATACOPY ORIGIN BALANCE CALLVALUE ORIGIN CODESIZE KECCAK256 COINBASE KECCAK256 CALLER ORIGIN ADDRESS KECCAK256 CALLER ORIGIN ADDRESS KECCAK256 ADDRESS KECCAK256 ADDRESS KECCAK256 ADDRESS KECCAK256 CODESIZE ORIGIN CALLDATALOAD 0x2E CODESIZE CALLDATALOAD BALANCE ORIGIN CODESIZE CODECOPY CALLDATACOPY ORIGIN CODECOPY ADDRESS CALLER CALLER CALLDATACOPY KECCAK256 CALLDATALOAD CALLDATACOPY CALLVALUE 0x2E CALLVALUE ORIGIN CODESIZE CODECOPY ADDRESS CALLER ADDRESS CALLVALUE CALLDATALOAD BALANCE CALLDATASIZE BALANCE BALANCE KECCAK256 GAS 0x22 KECCAK256 PUSH7 0x696C6C3D22626C PUSH2 0x636B 0x22 KECCAK256 PUSH20 0x74726F6B653D22626C61636B22207374726F6B65 0x2D PUSH24 0x696474683D2231222F3E0A3C7061746820643D224D203636 CODESIZE 0x2E CODECOPY ORIGIN CALLDATALOAD CALLDATASIZE CALLVALUE CALLVALUE CODESIZE CALLDATASIZE CALLVALUE CALLDATALOAD BALANCE CALLDATASIZE CODECOPY KECCAK256 CALLDATALOAD CALLVALUE CALLER 0x2E ORIGIN BALANCE CALLVALUE CALLVALUE CALLDATALOAD BALANCE CALLDATALOAD ORIGIN ORIGIN CALLDATALOAD CODESIZE ADDRESS CALLDATALOAD KECCAK256 COINBASE KECCAK256 BALANCE CALLDATASIZE ADDRESS KECCAK256 BALANCE CALLDATASIZE ADDRESS KECCAK256 ADDRESS KECCAK256 ADDRESS KECCAK256 BALANCE KECCAK256 CALLDATASIZE CALLDATASIZE CALLDATALOAD 0x2E BALANCE BALANCE ADDRESS CALLVALUE CALLDATALOAD CALLER CALLDATACOPY BALANCE CALLDATACOPY BALANCE CALLDATALOAD CALLER CALLVALUE KECCAK256 CALLDATALOAD CALLDATALOAD CODESIZE 0x2E CALLVALUE CALLVALUE CALLDATALOAD CALLDATALOAD CALLVALUE CODESIZE CALLER CALLDATASIZE ADDRESS CALLDATACOPY BALANCE CALLER CODECOPY KECCAK256 0x4C KECCAK256 CALLDATACOPY CALLVALUE BALANCE 0x2E CALLDATASIZE CALLDATASIZE CALLDATALOAD CALLDATASIZE CODESIZE ADDRESS CALLDATALOAD CALLDATACOPY CALLDATALOAD CALLDATACOPY CALLER ADDRESS BALANCE KECCAK256 CALLDATALOAD CODESIZE BALANCE 0x2E CALLDATASIZE CALLDATASIZE CODESIZE CALLER ORIGIN ORIGIN CALLDATALOAD CALLVALUE BALANCE ADDRESS CALLDATACOPY BALANCE KECCAK256 COINBASE KECCAK256 ORIGIN CALLVALUE ADDRESS KECCAK256 ORIGIN CALLVALUE ADDRESS KECCAK256 ADDRESS KECCAK256 ADDRESS KECCAK256 ADDRESS KECCAK256 CALLDATACOPY CALLVALUE CALLDATACOPY 0x2E CALLER CODESIZE CODESIZE CALLVALUE CALLDATASIZE CALLDATACOPY ORIGIN CODECOPY CALLDATASIZE CALLDATACOPY CALLDATACOPY CALLDATALOAD CALLER KECCAK256 CALLDATALOAD CALLDATALOAD CODESIZE 0x2E CODESIZE ORIGIN BALANCE CALLDATASIZE CALLDATACOPY CALLDATACOPY ORIGIN CODESIZE CALLER CODESIZE CALLDATACOPY ADDRESS CODESIZE KECCAK256 GAS 0x22 KECCAK256 PUSH7 0x696C6C3D22626C PUSH2 0x636B 0x22 KECCAK256 PUSH20 0x74726F6B653D22626C61636B22207374726F6B65 0x2D PUSH24 0x696474683D2231222F3E0A3C7061746820643D224D203839 CALLVALUE 0x2E CALLDATACOPY CALLDATACOPY CALLDATASIZE BALANCE CALLER CALLVALUE ORIGIN CODECOPY ORIGIN CODESIZE CODESIZE CALLER CALLDATASIZE KECCAK256 CALLDATASIZE ORIGIN CODESIZE 0x2E BALANCE BALANCE CALLER CODESIZE CALLDATACOPY ADDRESS CODECOPY ADDRESS BALANCE CALLDATACOPY CODESIZE CALLVALUE CODECOPY KECCAK256 COINBASE KECCAK256 CALLVALUE ADDRESS ADDRESS KECCAK256 CALLVALUE ADDRESS ADDRESS KECCAK256 ADDRESS KECCAK256 ADDRESS KECCAK256 BALANCE KECCAK256 CODESIZE CODESIZE BALANCE 0x2E CALLDATALOAD CALLDATALOAD BALANCE CODESIZE BALANCE CALLER ADDRESS ADDRESS CALLVALUE CALLDATALOAD BALANCE CALLVALUE CODESIZE KECCAK256 CALLDATASIZE CALLDATASIZE CALLDATALOAD 0x2E ADDRESS CALLDATACOPY CALLER CALLER CALLDATACOPY ORIGIN CODECOPY CALLVALUE CALLDATASIZE ADDRESS CALLER CALLDATALOAD CODECOPY KECCAK256 0x4C KECCAK256 CODECOPY CALLDATALOAD CALLDATALOAD 0x2E CALLVALUE CALLDATASIZE ORIGIN BALANCE CALLDATACOPY CALLDATALOAD CALLDATASIZE ADDRESS CALLDATALOAD CALLVALUE BALANCE CALLDATACOPY CALLDATACOPY KECCAK256 CALLDATASIZE CODECOPY CALLDATALOAD 0x2E CALLDATASIZE CODESIZE CODESIZE ADDRESS CALLVALUE CALLDATACOPY CALLDATALOAD CALLER CALLDATALOAD ORIGIN CALLVALUE CALLER BALANCE KECCAK256 COINBASE KECCAK256 CALLVALUE CODESIZE ADDRESS KECCAK256 CALLVALUE CODESIZE ADDRESS KECCAK256 ADDRESS KECCAK256 ADDRESS KECCAK256 ADDRESS KECCAK256 CODECOPY CALLDATACOPY BALANCE 0x2E CALLER CALLER BALANCE CALLER CALLDATASIZE BALANCE BALANCE CALLDATALOAD BALANCE CALLVALUE CALLDATASIZE ADDRESS ORIGIN KECCAK256 CALLDATASIZE CALLDATALOAD BALANCE 0x2E CALLER CALLER CALLDATASIZE CALLDATASIZE CALLVALUE CALLDATALOAD ADDRESS CODESIZE ORIGIN BALANCE CALLVALUE BALANCE CODECOPY KECCAK256 GAS 0x22 KECCAK256 PUSH7 0x696C6C3D22626C PUSH2 0x636B 0x22 KECCAK256 PUSH20 0x74726F6B653D22626C61636B22207374726F6B65 0x2D PUSH24 0x696474683D2231222F3E0A3C7061746820643D224D203831 CODESIZE 0x2E ORIGIN ORIGIN ADDRESS CODECOPY ADDRESS CALLDATACOPY CALLVALUE CALLER CALLVALUE CALLER ADDRESS CALLDATASIZE CODESIZE KECCAK256 CALLDATASIZE ADDRESS CALLVALUE 0x2E CODESIZE CODECOPY BALANCE ADDRESS CODECOPY CALLDATASIZE CALLDATACOPY ORIGIN BALANCE CALLVALUE ORIGIN CODESIZE KECCAK256 COINBASE KECCAK256 CALLER ORIGIN ADDRESS KECCAK256 CALLER ORIGIN ADDRESS KECCAK256 ADDRESS KECCAK256 ADDRESS KECCAK256 BALANCE KECCAK256 CODESIZE ADDRESS CALLDATACOPY 0x2E CALLDATASIZE CALLVALUE BALANCE CALLVALUE CALLDATALOAD ADDRESS CALLVALUE ADDRESS CALLER CALLDATASIZE BALANCE BALANCE CODESIZE KECCAK256 CALLDATASIZE CALLER CALLVALUE 0x2E CALLVALUE CALLDATALOAD CODESIZE CALLDATASIZE CODECOPY CODESIZE CALLER CALLDATALOAD CALLDATASIZE CODESIZE ORIGIN CODESIZE CALLDATACOPY KECCAK256 0x4C KECCAK256 CODESIZE CODESIZE BALANCE 0x2E CALLDATALOAD CALLDATALOAD BALANCE CODESIZE BALANCE CALLER ADDRESS ADDRESS CALLVALUE CALLDATALOAD BALANCE CALLVALUE CODESIZE KECCAK256 CALLDATASIZE CALLDATASIZE CALLDATALOAD 0x2E ADDRESS CALLDATACOPY CALLER CALLER CALLDATACOPY ORIGIN CODECOPY CALLVALUE CALLDATASIZE ADDRESS CALLER CALLDATALOAD CODECOPY KECCAK256 COINBASE KECCAK256 CALLVALUE ADDRESS ADDRESS KECCAK256 CALLVALUE ADDRESS ADDRESS KECCAK256 ADDRESS KECCAK256 ADDRESS KECCAK256 ADDRESS KECCAK256 CODESIZE CODECOPY CALLVALUE 0x2E CALLDATACOPY CALLDATACOPY CALLDATASIZE BALANCE CALLER CALLVALUE ORIGIN CODECOPY ORIGIN CODESIZE CODESIZE CALLER CALLDATASIZE KECCAK256 CALLDATASIZE ORIGIN CODESIZE 0x2E BALANCE BALANCE CALLER CODESIZE CALLDATACOPY ADDRESS CODECOPY ADDRESS BALANCE CALLDATACOPY CODESIZE CALLVALUE CODECOPY KECCAK256 GAS 0x22 KECCAK256 PUSH7 0x696C6C3D22626C PUSH2 0x636B 0x22 KECCAK256 PUSH20 0x74726F6B653D22626C61636B22207374726F6B65 0x2D PUSH24 0x696474683D2231222F3E0A3C7061746820643D224D203734 BALANCE 0x2E CALLDATASIZE CALLDATASIZE CALLDATALOAD CALLDATASIZE CODESIZE ADDRESS CALLDATALOAD CALLDATACOPY CALLDATALOAD CALLDATACOPY CALLER ADDRESS BALANCE KECCAK256 CALLDATALOAD CODESIZE BALANCE 0x2E CALLDATASIZE CALLDATASIZE CODESIZE CALLER ORIGIN ORIGIN CALLDATALOAD CALLVALUE BALANCE ADDRESS CALLDATACOPY ADDRESS CODECOPY KECCAK256 COINBASE KECCAK256 ORIGIN CALLVALUE ADDRESS KECCAK256 ORIGIN CALLVALUE ADDRESS KECCAK256 ADDRESS KECCAK256 ADDRESS KECCAK256 BALANCE KECCAK256 CALLDATACOPY CALLER CALLER 0x2E CALLDATACOPY CALLER BALANCE ADDRESS CODESIZE CALLDATACOPY CODESIZE ADDRESS ORIGIN CALLDATACOPY ADDRESS CODESIZE CODESIZE KECCAK256 CALLDATASIZE ADDRESS CALLER 0x2E CODESIZE CALLVALUE CALLVALUE ADDRESS ORIGIN CALLER CALLDATACOPY CALLDATASIZE CALLDATACOPY CALLDATASIZE ORIGIN BALANCE CALLDATALOAD KECCAK256 0x4C KECCAK256 CODESIZE ADDRESS CALLDATACOPY 0x2E CALLDATASIZE CALLVALUE BALANCE CALLVALUE CALLDATALOAD ADDRESS CALLVALUE ADDRESS CALLER CALLDATASIZE BALANCE BALANCE CODESIZE KECCAK256 CALLDATASIZE CALLER CALLVALUE 0x2E CALLVALUE CALLDATALOAD CODESIZE CALLDATASIZE CODECOPY CODESIZE CALLER CALLDATALOAD CALLDATASIZE CODESIZE ORIGIN CODESIZE CALLDATACOPY KECCAK256 COINBASE KECCAK256 CALLER ORIGIN ADDRESS KECCAK256 CALLER ORIGIN ADDRESS KECCAK256 ADDRESS KECCAK256 ADDRESS KECCAK256 ADDRESS KECCAK256 CODESIZE BALANCE CODESIZE 0x2E ORIGIN ORIGIN ADDRESS CODECOPY ADDRESS CALLDATACOPY CALLVALUE CALLER CALLVALUE CALLER ADDRESS CALLDATASIZE CODESIZE KECCAK256 CALLDATASIZE ADDRESS CALLVALUE 0x2E CODESIZE CODECOPY BALANCE ADDRESS CODECOPY CALLDATASIZE CALLDATACOPY ORIGIN BALANCE CALLVALUE ORIGIN CODESIZE KECCAK256 GAS 0x22 KECCAK256 PUSH7 0x696C6C3D22626C PUSH2 0x636B 0x22 KECCAK256 PUSH20 0x74726F6B653D22626C61636B22207374726F6B65 0x2D PUSH24 0x696474683D2231222F3E0A3C7061746820643D224D203636 CALLDATALOAD 0x2E BALANCE BALANCE ADDRESS CALLVALUE CALLDATALOAD CALLER CALLDATACOPY BALANCE CALLDATACOPY BALANCE CALLDATALOAD CALLER CALLVALUE KECCAK256 CALLDATALOAD CALLDATALOAD CODESIZE 0x2E CALLVALUE CALLVALUE CALLDATALOAD CALLDATALOAD CALLVALUE CODESIZE CALLER CALLDATASIZE ADDRESS CALLDATACOPY BALANCE CALLER CODECOPY KECCAK256 COINBASE KECCAK256 BALANCE CALLDATASIZE ADDRESS KECCAK256 BALANCE CALLDATASIZE ADDRESS KECCAK256 ADDRESS KECCAK256 ADDRESS KECCAK256 BALANCE KECCAK256 CALLDATASIZE CALLDATALOAD CODECOPY 0x2E CODESIZE ORIGIN ADDRESS CALLDATACOPY ORIGIN CALLDATALOAD ORIGIN ADDRESS BALANCE CODESIZE ADDRESS CALLDATALOAD CODECOPY KECCAK256 CALLDATALOAD CALLDATACOPY CALLER 0x2E ORIGIN ORIGIN CODECOPY CALLER CALLVALUE CODECOPY BALANCE CALLDATACOPY CODESIZE CALLVALUE BALANCE CALLVALUE CALLVALUE KECCAK256 0x4C KECCAK256 CALLDATACOPY CALLER CALLER 0x2E CALLDATACOPY CALLER BALANCE ADDRESS CODESIZE CALLDATACOPY CODESIZE ADDRESS ORIGIN CALLDATACOPY ADDRESS CODESIZE CODESIZE KECCAK256 CALLDATASIZE ADDRESS CALLER 0x2E CODESIZE CALLVALUE CALLVALUE ADDRESS ORIGIN CALLER CALLDATACOPY CALLDATASIZE CALLDATACOPY CALLDATASIZE ORIGIN BALANCE CALLDATALOAD KECCAK256 COINBASE KECCAK256 ORIGIN CALLVALUE ADDRESS KECCAK256 ORIGIN CALLVALUE ADDRESS KECCAK256 ADDRESS KECCAK256 ADDRESS KECCAK256 ADDRESS KECCAK256 CALLDATACOPY CALLVALUE BALANCE 0x2E CALLDATASIZE CALLDATASIZE CALLDATALOAD CALLDATASIZE CODESIZE ADDRESS CALLDATALOAD CALLDATACOPY CALLDATALOAD CALLDATACOPY CALLER ADDRESS BALANCE KECCAK256 CALLDATALOAD CODESIZE BALANCE 0x2E CALLDATASIZE CALLDATASIZE CODESIZE CALLER ORIGIN ORIGIN CALLDATALOAD CALLVALUE BALANCE ADDRESS CALLDATACOPY ADDRESS CODECOPY KECCAK256 GAS 0x22 KECCAK256 PUSH7 0x696C6C3D22626C PUSH2 0x636B 0x22 KECCAK256 PUSH20 0x74726F6B653D22626C61636B22207374726F6B65 0x2D PUSH24 0x696474683D2231222F3E0A3C7061746820643D224D203838 BALANCE 0x2E CALLDATALOAD CALLDATALOAD BALANCE CODESIZE BALANCE CALLER ADDRESS ADDRESS CALLVALUE CALLDATALOAD BALANCE CALLVALUE CODESIZE KECCAK256 CALLDATASIZE CALLDATASIZE CALLDATALOAD 0x2E ADDRESS CALLDATACOPY CALLER CALLER CALLDATACOPY ORIGIN CODECOPY CALLVALUE CALLDATASIZE ADDRESS CALLER CALLDATALOAD CODECOPY KECCAK256 COINBASE KECCAK256 CALLVALUE ADDRESS ADDRESS KECCAK256 CALLVALUE ADDRESS ADDRESS KECCAK256 ADDRESS KECCAK256 ADDRESS KECCAK256 BALANCE KECCAK256 CODESIZE CALLDATASIZE CALLVALUE 0x2E CALLDATACOPY CALLDATASIZE CODESIZE CALLDATALOAD ADDRESS CALLDATALOAD CALLDATACOPY CALLER CODECOPY CALLER CALLVALUE ORIGIN KECCAK256 CALLDATACOPY ADDRESS ADDRESS 0x2E CALLDATALOAD CALLDATALOAD CODESIZE CALLDATASIZE CODECOPY CALLVALUE CALLDATACOPY CALLER ADDRESS CALLER CODECOPY CODECOPY BALANCE KECCAK256 0x4C KECCAK256 CODECOPY CALLER CALLDATALOAD 0x2E CALLER ORIGIN ORIGIN ORIGIN ADDRESS CALLDATASIZE CODESIZE CODESIZE CALLDATACOPY ORIGIN BALANCE ADDRESS CALLVALUE KECCAK256 CALLDATACOPY CALLER CODESIZE 0x2E ORIGIN CALLDATACOPY ADDRESS CALLVALUE CALLER CALLER CALLDATASIZE CALLDATACOPY CALLDATASIZE CALLVALUE CALLDATACOPY CODESIZE CODECOPY KECCAK256 COINBASE KECCAK256 CALLVALUE CODESIZE ADDRESS KECCAK256 CALLVALUE CODESIZE ADDRESS KECCAK256 ADDRESS KECCAK256 ADDRESS KECCAK256 ADDRESS KECCAK256 CODECOPY CALLDATALOAD CALLDATALOAD 0x2E CALLVALUE CALLDATASIZE ORIGIN BALANCE CALLDATACOPY CALLDATALOAD CALLDATASIZE ADDRESS CALLDATALOAD CALLVALUE BALANCE CALLDATACOPY CALLDATACOPY KECCAK256 CALLDATASIZE CODECOPY CALLDATALOAD 0x2E CALLDATASIZE CODESIZE CODESIZE ADDRESS CALLVALUE CALLDATACOPY CALLDATALOAD CALLER CALLDATALOAD ORIGIN CALLVALUE CALLER BALANCE KECCAK256 GAS 0x22 KECCAK256 PUSH7 0x696C6C3D22626C PUSH2 0x636B 0x22 KECCAK256 PUSH20 0x74726F6B653D22626C61636B22207374726F6B65 0x2D PUSH24 0x696474683D2231222F3E0A3C7061746820643D224D203830 CALLDATACOPY 0x2E CALLDATASIZE CALLVALUE BALANCE CALLVALUE CALLDATALOAD ADDRESS CALLVALUE ADDRESS CALLER CALLDATASIZE BALANCE BALANCE CODESIZE KECCAK256 CALLDATASIZE CALLER CALLVALUE 0x2E CALLVALUE CALLDATALOAD CODESIZE CALLDATASIZE CODECOPY CODESIZE CALLER CALLDATALOAD CALLDATASIZE CODESIZE ORIGIN CODESIZE CODESIZE KECCAK256 COINBASE KECCAK256 CALLER ORIGIN ADDRESS KECCAK256 CALLER ORIGIN ADDRESS KECCAK256 ADDRESS KECCAK256 ADDRESS KECCAK256 BALANCE KECCAK256 CALLDATACOPY CODECOPY CALLVALUE 0x2E ORIGIN BALANCE CALLVALUE CODESIZE ADDRESS CALLVALUE CALLDATALOAD CODECOPY BALANCE CALLVALUE CALLDATACOPY CALLER CALLDATACOPY KECCAK256 CALLDATASIZE CALLDATASIZE ORIGIN 0x2E CODESIZE CALLVALUE CALLDATASIZE CODECOPY CALLDATALOAD CALLDATALOAD CALLDATACOPY CODESIZE CALLVALUE CALLER BALANCE CODECOPY ORIGIN KECCAK256 0x4C KECCAK256 CODESIZE CALLDATASIZE CALLVALUE 0x2E CALLDATACOPY CALLDATASIZE CODESIZE CALLDATALOAD ADDRESS CALLDATALOAD CALLDATACOPY CALLER CODECOPY CALLER CALLVALUE ORIGIN KECCAK256 CALLDATACOPY ADDRESS ADDRESS 0x2E CALLDATALOAD CALLDATALOAD CODESIZE CALLDATASIZE CODECOPY CALLVALUE CALLDATACOPY CALLER ADDRESS CALLER CODECOPY CODECOPY BALANCE KECCAK256 COINBASE KECCAK256 CALLVALUE ADDRESS ADDRESS KECCAK256 CALLVALUE ADDRESS ADDRESS KECCAK256 ADDRESS KECCAK256 ADDRESS KECCAK256 ADDRESS KECCAK256 CODESIZE CODESIZE BALANCE 0x2E CALLDATALOAD CALLDATALOAD BALANCE CODESIZE BALANCE CALLER ADDRESS ADDRESS CALLVALUE CALLDATALOAD BALANCE CALLVALUE CODESIZE KECCAK256 CALLDATASIZE CALLDATASIZE CALLDATALOAD 0x2E ADDRESS CALLDATACOPY CALLER CALLER CALLDATACOPY ORIGIN CODECOPY CALLVALUE CALLDATASIZE ADDRESS CALLER CALLDATALOAD CODECOPY KECCAK256 GAS 0x22 KECCAK256 PUSH7 0x696C6C3D22626C PUSH2 0x636B 0x22 KECCAK256 PUSH20 0x74726F6B653D22626C61636B22207374726F6B65 0x2D PUSH24 0x696474683D2231222F3E0A3C7061746820643D224D203733 CALLER 0x2E CALLDATACOPY CALLER BALANCE ADDRESS CODESIZE CALLDATACOPY CODESIZE ADDRESS ORIGIN CALLDATACOPY ADDRESS CODESIZE CODESIZE KECCAK256 CALLDATASIZE ADDRESS CALLER 0x2E CODESIZE CALLVALUE CALLVALUE ADDRESS ORIGIN CALLER CALLDATACOPY CALLDATASIZE CALLDATACOPY CALLDATASIZE ORIGIN BALANCE CALLDATASIZE KECCAK256 COINBASE KECCAK256 ORIGIN CALLVALUE ADDRESS KECCAK256 ORIGIN CALLVALUE ADDRESS KECCAK256 ADDRESS KECCAK256 ADDRESS KECCAK256 BALANCE KECCAK256 CALLDATACOPY ORIGIN CALLER 0x2E CALLDATASIZE CALLDATASIZE BALANCE BALANCE ADDRESS CALLER CALLVALUE CALLVALUE CALLER CALLDATASIZE ADDRESS CALLDATALOAD CALLER KECCAK256 CALLDATASIZE ORIGIN CALLDATALOAD 0x2E BALANCE CALLER CALLDATALOAD ORIGIN BALANCE CALLDATASIZE CODESIZE CALLER CODESIZE ORIGIN CALLER CODECOPY CALLVALUE KECCAK256 0x4C KECCAK256 CALLDATACOPY CODECOPY CALLVALUE 0x2E ORIGIN BALANCE CALLVALUE CODESIZE ADDRESS CALLVALUE CALLDATALOAD CODECOPY BALANCE CALLVALUE CALLDATACOPY CALLER CALLDATACOPY KECCAK256 CALLDATASIZE CALLDATASIZE ORIGIN 0x2E CODESIZE CALLVALUE CALLDATASIZE CODECOPY CALLDATALOAD CALLDATALOAD CALLDATACOPY CODESIZE CALLVALUE CALLER BALANCE CODECOPY ORIGIN KECCAK256 COINBASE KECCAK256 CALLER ORIGIN ADDRESS KECCAK256 CALLER ORIGIN ADDRESS KECCAK256 ADDRESS KECCAK256 ADDRESS KECCAK256 ADDRESS KECCAK256 CODESIZE ADDRESS CALLDATACOPY 0x2E CALLDATASIZE CALLVALUE BALANCE CALLVALUE CALLDATALOAD ADDRESS CALLVALUE ADDRESS CALLER CALLDATASIZE BALANCE BALANCE CODESIZE KECCAK256 CALLDATASIZE CALLER CALLVALUE 0x2E CALLVALUE CALLDATALOAD CODESIZE CALLDATASIZE CODECOPY CODESIZE CALLER CALLDATALOAD CALLDATASIZE CODESIZE ORIGIN CODESIZE CODESIZE KECCAK256 GAS 0x22 KECCAK256 PUSH7 0x696C6C3D22626C PUSH2 0x636B 0x22 KECCAK256 PUSH20 0x74726F6B653D22626C61636B22207374726F6B65 0x2D PUSH24 0x696474683D2231222F3E0A3C7061746820643D224D203635 CODECOPY 0x2E CODESIZE ORIGIN ADDRESS CALLDATACOPY ORIGIN CALLDATALOAD ORIGIN ADDRESS BALANCE CODESIZE ADDRESS CALLDATALOAD CODECOPY KECCAK256 CALLDATALOAD CALLDATACOPY CALLER 0x2E ORIGIN ORIGIN CODECOPY CALLER CALLVALUE CODECOPY BALANCE CALLDATACOPY CODESIZE CALLVALUE BALANCE CALLVALUE CALLVALUE KECCAK256 COINBASE KECCAK256 BALANCE CALLDATASIZE ADDRESS KECCAK256 BALANCE CALLDATASIZE ADDRESS KECCAK256 ADDRESS KECCAK256 ADDRESS KECCAK256 BALANCE KECCAK256 CALLDATASIZE CALLDATALOAD CALLER 0x2E BALANCE ADDRESS CALLDATACOPY CALLVALUE ADDRESS ORIGIN ORIGIN CODECOPY CALLDATALOAD CALLDATACOPY CALLER CALLDATASIZE CODESIZE KECCAK256 CALLDATALOAD CODESIZE CALLDATACOPY 0x2E CALLVALUE ORIGIN CALLER CALLVALUE CALLDATACOPY CALLDATACOPY CODESIZE CODECOPY ORIGIN BALANCE CALLDATALOAD CODECOPY CALLDATACOPY KECCAK256 0x4C KECCAK256 CALLDATACOPY ORIGIN CALLER 0x2E CALLDATASIZE CALLDATASIZE BALANCE BALANCE ADDRESS CALLER CALLVALUE CALLVALUE CALLER CALLDATASIZE ADDRESS CALLDATALOAD CALLER KECCAK256 CALLDATASIZE ORIGIN CALLDATALOAD 0x2E BALANCE CALLER CALLDATALOAD ORIGIN BALANCE CALLDATASIZE CODESIZE CALLER CODESIZE ORIGIN CALLER CODECOPY CALLVALUE KECCAK256 COINBASE KECCAK256 ORIGIN CALLVALUE ADDRESS KECCAK256 ORIGIN CALLVALUE ADDRESS KECCAK256 ADDRESS KECCAK256 ADDRESS KECCAK256 ADDRESS KECCAK256 CALLDATACOPY CALLER CALLER 0x2E CALLDATACOPY CALLER BALANCE ADDRESS CODESIZE CALLDATACOPY CODESIZE ADDRESS ORIGIN CALLDATACOPY ADDRESS CODESIZE CODESIZE KECCAK256 CALLDATASIZE ADDRESS CALLER 0x2E CODESIZE CALLVALUE CALLVALUE ADDRESS ORIGIN CALLER CALLDATACOPY CALLDATASIZE CALLDATACOPY CALLDATASIZE ORIGIN BALANCE CALLDATASIZE KECCAK256 GAS 0x22 KECCAK256 PUSH7 0x696C6C3D22626C PUSH2 0x636B 0x22 KECCAK256 PUSH20 0x74726F6B653D22626C61636B22207374726F6B65 0x2D PUSH24 0x696474683D2231222F3E0A3C7061746820643D224D203836 CALLVALUE 0x2E CALLDATACOPY CALLDATASIZE CODESIZE CALLDATALOAD ADDRESS CALLDATALOAD CALLDATACOPY CALLER CODECOPY CALLER CALLVALUE ORIGIN KECCAK256 CALLDATACOPY ADDRESS ADDRESS 0x2E CALLDATALOAD CALLDATALOAD CODESIZE CALLDATASIZE CODECOPY CALLVALUE CALLDATACOPY CALLER ADDRESS CALLER CODECOPY CODECOPY BALANCE KECCAK256 COINBASE KECCAK256 CALLVALUE ADDRESS ADDRESS KECCAK256 CALLVALUE ADDRESS ADDRESS KECCAK256 ADDRESS KECCAK256 ADDRESS KECCAK256 BALANCE KECCAK256 CODESIZE CALLVALUE CALLVALUE 0x2E CALLDATALOAD CODESIZE CALLDATACOPY CODESIZE CALLVALUE CALLVALUE CODECOPY ORIGIN BALANCE ADDRESS BALANCE CODESIZE BALANCE KECCAK256 CALLDATACOPY CALLER CALLVALUE 0x2E ORIGIN ORIGIN CODESIZE ADDRESS CODECOPY CALLER ORIGIN ADDRESS CALLDATACOPY CODESIZE CALLVALUE ADDRESS CODECOPY KECCAK256 0x4C KECCAK256 CODECOPY BALANCE BALANCE 0x2E BALANCE ADDRESS CALLDATALOAD CALLVALUE BALANCE CALLER CODECOPY ADDRESS CALLDATALOAD ORIGIN ORIGIN BALANCE CALLDATACOPY KECCAK256 CALLDATACOPY CALLDATACOPY CODESIZE 0x2E CALLDATASIZE CALLDATACOPY CALLER CALLDATACOPY BALANCE BALANCE CODESIZE CALLVALUE CODECOPY CALLVALUE ADDRESS CODECOPY BALANCE KECCAK256 COINBASE KECCAK256 CALLVALUE CODESIZE ADDRESS KECCAK256 CALLVALUE CODESIZE ADDRESS KECCAK256 ADDRESS KECCAK256 ADDRESS KECCAK256 ADDRESS KECCAK256 CODECOPY CALLER CALLDATALOAD 0x2E CALLER ORIGIN ORIGIN ORIGIN ADDRESS CALLDATASIZE CODESIZE CODESIZE CALLDATACOPY ORIGIN BALANCE ADDRESS CALLER KECCAK256 CALLDATACOPY CALLER CODESIZE 0x2E ORIGIN CALLDATACOPY ADDRESS CALLVALUE CALLER CALLER CALLDATASIZE CALLDATACOPY CALLDATASIZE CALLVALUE CALLDATACOPY CODESIZE CODECOPY KECCAK256 GAS 0x22 KECCAK256 PUSH7 0x696C6C3D22626C PUSH2 0x636B 0x22 KECCAK256 PUSH20 0x74726F6B653D22626C61636B22207374726F6B65 0x2D PUSH24 0x696474683D2231222F3E0A3C7061746820643D224D203739 CALLVALUE 0x2E ORIGIN BALANCE CALLVALUE CODESIZE ADDRESS CALLVALUE CALLDATALOAD CODECOPY BALANCE CALLVALUE CALLDATACOPY CALLER CALLDATASIZE KECCAK256 CALLDATASIZE CALLDATASIZE ORIGIN 0x2E CODESIZE CALLVALUE CALLDATASIZE CODECOPY CALLDATALOAD CALLDATALOAD CALLDATACOPY CODESIZE CALLVALUE CALLER BALANCE CODECOPY CALLER KECCAK256 COINBASE KECCAK256 CALLER ORIGIN ADDRESS KECCAK256 CALLER ORIGIN ADDRESS KECCAK256 ADDRESS KECCAK256 ADDRESS KECCAK256 BALANCE KECCAK256 CALLDATACOPY CALLDATACOPY CODESIZE 0x2E ADDRESS CALLDATACOPY ADDRESS ORIGIN CALLDATACOPY CALLDATALOAD CODECOPY CALLER CALLDATASIZE CODESIZE BALANCE CALLVALUE CALLVALUE KECCAK256 CALLDATASIZE CODESIZE CODECOPY 0x2E CALLDATACOPY CODESIZE ORIGIN CALLVALUE CALLDATACOPY CALLVALUE CALLDATALOAD CALLDATASIZE CALLDATASIZE ORIGIN CALLDATACOPY ORIGIN CODESIZE KECCAK256 0x4C KECCAK256 CODESIZE CALLVALUE CALLVALUE 0x2E CALLDATALOAD CODESIZE CALLDATACOPY CODESIZE CALLVALUE CALLVALUE CODECOPY ORIGIN BALANCE ADDRESS BALANCE CODESIZE BALANCE KECCAK256 CALLDATACOPY CALLER CALLVALUE 0x2E ORIGIN ORIGIN CODESIZE ADDRESS CODECOPY CALLER ORIGIN ADDRESS CALLDATACOPY CODESIZE CALLVALUE ADDRESS CODECOPY KECCAK256 COINBASE KECCAK256 CALLVALUE ADDRESS ADDRESS KECCAK256 CALLVALUE ADDRESS ADDRESS KECCAK256 ADDRESS KECCAK256 ADDRESS KECCAK256 ADDRESS KECCAK256 CODESIZE CALLDATASIZE CALLVALUE 0x2E CALLDATACOPY CALLDATASIZE CODESIZE CALLDATALOAD ADDRESS CALLDATALOAD CALLDATACOPY CALLER CODECOPY CALLER CALLVALUE ORIGIN KECCAK256 CALLDATACOPY ADDRESS ADDRESS 0x2E CALLDATALOAD CALLDATALOAD CODESIZE CALLDATASIZE CODECOPY CALLVALUE CALLDATACOPY CALLER ADDRESS CALLER CODECOPY CODECOPY BALANCE KECCAK256 GAS 0x22 KECCAK256 PUSH7 0x696C6C3D22626C PUSH2 0x636B 0x22 KECCAK256 PUSH20 0x74726F6B653D22626C61636B22207374726F6B65 0x2D PUSH24 0x696474683D2231222F3E0A3C7061746820643D224D203732 CALLER 0x2E CALLDATASIZE CALLDATASIZE BALANCE BALANCE ADDRESS CALLER CALLVALUE CALLVALUE CALLER CALLDATASIZE ADDRESS CALLDATALOAD ORIGIN KECCAK256 CALLDATASIZE ORIGIN CALLDATALOAD 0x2E BALANCE CALLER CALLDATALOAD ORIGIN BALANCE CALLDATASIZE CODESIZE CALLER CODESIZE ORIGIN CALLER CODECOPY CALLVALUE KECCAK256 COINBASE KECCAK256 ORIGIN CALLVALUE ADDRESS KECCAK256 ORIGIN CALLVALUE ADDRESS KECCAK256 ADDRESS KECCAK256 ADDRESS KECCAK256 BALANCE KECCAK256 CALLDATACOPY BALANCE BALANCE 0x2E CALLDATALOAD CALLDATALOAD ORIGIN CALLDATACOPY ADDRESS CALLDATASIZE CODECOPY CALLDATALOAD ORIGIN CALLDATASIZE BALANCE ADDRESS CODESIZE KECCAK256 CALLDATASIZE CALLVALUE CALLDATALOAD 0x2E CALLER CALLER CALLDATASIZE CODESIZE CALLDATALOAD CALLDATALOAD CODECOPY ORIGIN CALLVALUE CALLDATACOPY ADDRESS CALLVALUE CALLDATALOAD KECCAK256 0x4C KECCAK256 CALLDATACOPY CALLDATACOPY CODESIZE 0x2E ADDRESS CALLDATACOPY ADDRESS ORIGIN CALLDATACOPY CALLDATALOAD CODECOPY CALLER CALLDATASIZE CODESIZE BALANCE CALLVALUE CALLVALUE KECCAK256 CALLDATASIZE CODESIZE CODECOPY 0x2E CALLDATACOPY CODESIZE ORIGIN CALLVALUE CALLDATACOPY CALLVALUE CALLDATALOAD CALLDATASIZE CALLDATASIZE ORIGIN CALLDATACOPY ORIGIN CODESIZE KECCAK256 COINBASE KECCAK256 CALLER ORIGIN ADDRESS KECCAK256 CALLER ORIGIN ADDRESS KECCAK256 ADDRESS KECCAK256 ADDRESS KECCAK256 ADDRESS KECCAK256 CALLDATACOPY CODECOPY CALLVALUE 0x2E ORIGIN BALANCE CALLVALUE CODESIZE ADDRESS CALLVALUE CALLDATALOAD CODECOPY BALANCE CALLVALUE CALLDATACOPY CALLER CALLDATASIZE KECCAK256 CALLDATASIZE CALLDATASIZE ORIGIN 0x2E CODESIZE CALLVALUE CALLDATASIZE CODECOPY CALLDATALOAD CALLDATALOAD CALLDATACOPY CODESIZE CALLVALUE CALLER BALANCE CODECOPY CALLER KECCAK256 GAS 0x22 KECCAK256 PUSH7 0x696C6C3D22626C PUSH2 0x636B 0x22 KECCAK256 PUSH20 0x74726F6B653D22626C61636B22207374726F6B65 0x2D PUSH24 0x696474683D2231222F3E0A3C7061746820643D224D203635 CALLER 0x2E BALANCE ADDRESS CALLDATACOPY CALLVALUE ADDRESS ORIGIN ORIGIN CODECOPY CALLDATALOAD CALLDATACOPY CALLER CALLDATASIZE CODESIZE KECCAK256 CALLDATALOAD CODESIZE CALLDATACOPY 0x2E CALLVALUE ORIGIN CALLER CALLVALUE CALLDATACOPY CALLDATACOPY CODESIZE CODECOPY ORIGIN BALANCE CALLDATALOAD CODECOPY CALLDATACOPY KECCAK256 COINBASE KECCAK256 BALANCE CALLDATASIZE ADDRESS KECCAK256 BALANCE CALLDATASIZE ADDRESS KECCAK256 ADDRESS KECCAK256 ADDRESS KECCAK256 BALANCE KECCAK256 CALLDATASIZE CALLVALUE CALLDATALOAD 0x2E ADDRESS CALLER CALLDATALOAD BALANCE CALLER CALLDATACOPY CODECOPY CALLDATASIZE CODESIZE CALLVALUE ADDRESS CALLDATACOPY ORIGIN KECCAK256 CALLDATASIZE ADDRESS ADDRESS 0x2E CODESIZE CODECOPY BALANCE ORIGIN CALLER CALLDATACOPY ORIGIN CODESIZE CALLER BALANCE CALLER CALLDATASIZE CALLER KECCAK256 0x4C KECCAK256 CALLDATACOPY BALANCE BALANCE 0x2E CALLDATALOAD CALLDATALOAD ORIGIN CALLDATACOPY ADDRESS CALLDATASIZE CODECOPY CALLDATALOAD ORIGIN CALLDATASIZE BALANCE ADDRESS CODESIZE KECCAK256 CALLDATASIZE CALLVALUE CALLDATALOAD 0x2E CALLER CALLER CALLDATASIZE CODESIZE CALLDATALOAD CALLDATALOAD CODECOPY ORIGIN CALLVALUE CALLDATACOPY ADDRESS CALLVALUE CALLDATALOAD KECCAK256 COINBASE KECCAK256 ORIGIN CALLVALUE ADDRESS KECCAK256 ORIGIN CALLVALUE ADDRESS KECCAK256 ADDRESS KECCAK256 ADDRESS KECCAK256 ADDRESS KECCAK256 CALLDATACOPY ORIGIN CALLER 0x2E CALLDATASIZE CALLDATASIZE BALANCE BALANCE ADDRESS CALLER CALLVALUE CALLVALUE CALLER CALLDATASIZE ADDRESS CALLDATALOAD ORIGIN KECCAK256 CALLDATASIZE ORIGIN CALLDATALOAD 0x2E BALANCE CALLER CALLDATALOAD ORIGIN BALANCE CALLDATASIZE CODESIZE CALLER CODESIZE ORIGIN CALLER CODECOPY CALLVALUE KECCAK256 GAS 0x22 KECCAK256 PUSH7 0x696C6C3D22626C PUSH2 0x636B 0x22 KECCAK256 PUSH20 0x74726F6B653D22626C61636B22207374726F6B65 0x2D PUSH24 0x696474683D2231222F3E0A3C7061746820643D224D203834 CALLVALUE 0x2E CALLDATALOAD CODESIZE CALLDATACOPY CODESIZE CALLVALUE CALLVALUE CODECOPY ORIGIN BALANCE ADDRESS BALANCE CODESIZE BALANCE KECCAK256 CALLDATACOPY CALLER CALLVALUE 0x2E ORIGIN ORIGIN CODESIZE ADDRESS CODECOPY CALLER ORIGIN ADDRESS CALLDATACOPY CODESIZE CALLVALUE ADDRESS CODECOPY KECCAK256 COINBASE KECCAK256 CALLVALUE ADDRESS ADDRESS KECCAK256 CALLVALUE ADDRESS ADDRESS KECCAK256 ADDRESS KECCAK256 ADDRESS KECCAK256 BALANCE KECCAK256 CODESIZE ORIGIN BALANCE 0x2E ORIGIN ADDRESS CALLVALUE BALANCE CODESIZE BALANCE CALLER CALLVALUE CALLDATALOAD ADDRESS CODECOPY CALLVALUE CODECOPY KECCAK256 CALLDATACOPY CALLDATASIZE CALLDATALOAD 0x2E CALLDATACOPY CALLDATALOAD CALLDATACOPY CALLER BALANCE CALLER CALLDATASIZE CALLDATASIZE CALLDATALOAD CALLVALUE CALLDATALOAD CODESIZE BALANCE KECCAK256 0x4C KECCAK256 CODESIZE CODESIZE CALLER 0x2E ADDRESS CALLVALUE CALLDATALOAD ADDRESS BALANCE CALLDATACOPY CALLDATASIZE BALANCE CALLVALUE BALANCE BALANCE CALLER CODESIZE KECCAK256 CODESIZE BALANCE CALLDATASIZE 0x2E CALLDATALOAD ADDRESS CODESIZE CALLDATACOPY CALLDATACOPY CALLDATASIZE CALLER CODECOPY CODESIZE CALLDATALOAD CALLVALUE CODECOPY CODESIZE KECCAK256 COINBASE KECCAK256 CALLVALUE CODESIZE ADDRESS KECCAK256 CALLVALUE CODESIZE ADDRESS KECCAK256 ADDRESS KECCAK256 ADDRESS KECCAK256 ADDRESS KECCAK256 CODECOPY BALANCE BALANCE 0x2E BALANCE ADDRESS CALLDATALOAD CALLVALUE BALANCE CALLER CODECOPY ADDRESS CALLDATALOAD ORIGIN ORIGIN BALANCE CODESIZE KECCAK256 CALLDATACOPY CALLDATACOPY CODESIZE 0x2E CALLDATASIZE CALLDATACOPY CALLER CALLDATACOPY BALANCE BALANCE CODESIZE CALLVALUE CODECOPY CALLVALUE ADDRESS CODECOPY BALANCE KECCAK256 GAS 0x22 KECCAK256 PUSH7 0x696C6C3D22626C PUSH2 0x636B 0x22 KECCAK256 PUSH20 0x74726F6B653D22626C61636B22207374726F6B65 0x2D PUSH24 0x696474683D2231222F3E0A3C7061746820643D224D203737 CODESIZE 0x2E ADDRESS CALLDATACOPY ADDRESS ORIGIN CALLDATACOPY CALLDATALOAD CODECOPY CALLER CALLDATASIZE CODESIZE BALANCE CALLVALUE CALLDATALOAD KECCAK256 CALLDATASIZE CODESIZE CODECOPY 0x2E CALLDATACOPY CODESIZE ORIGIN CALLVALUE CALLDATACOPY CALLVALUE CALLDATALOAD CALLDATASIZE CALLDATASIZE ORIGIN CALLDATACOPY ORIGIN CALLDATASIZE KECCAK256 COINBASE KECCAK256 CALLER ORIGIN ADDRESS KECCAK256 CALLER ORIGIN ADDRESS KECCAK256 ADDRESS KECCAK256 ADDRESS KECCAK256 BALANCE KECCAK256 CALLDATACOPY CALLDATALOAD CODECOPY 0x2E CALLER CALLDATASIZE CALLER CALLER CALLVALUE CALLDATALOAD ADDRESS CALLDATACOPY CALLDATASIZE ADDRESS CALLDATACOPY CALLDATALOAD CODESIZE KECCAK256 CALLDATACOPY BALANCE CALLDATALOAD 0x2E ADDRESS ADDRESS CALLDATALOAD CODESIZE CALLDATALOAD ADDRESS CODECOPY CALLER ORIGIN CALLER CALLDATASIZE CALLDATASIZE CALLDATALOAD KECCAK256 0x4C KECCAK256 CODESIZE ORIGIN BALANCE 0x2E ORIGIN ADDRESS CALLVALUE BALANCE CODESIZE BALANCE CALLER CALLVALUE CALLDATALOAD ADDRESS CODECOPY CALLVALUE CODECOPY KECCAK256 CALLDATACOPY CALLDATASIZE CALLDATALOAD 0x2E CALLDATACOPY CALLDATALOAD CALLDATACOPY CALLER BALANCE CALLER CALLDATASIZE CALLDATASIZE CALLDATALOAD CALLVALUE CALLDATALOAD CODESIZE BALANCE KECCAK256 COINBASE KECCAK256 CALLVALUE ADDRESS ADDRESS KECCAK256 CALLVALUE ADDRESS ADDRESS KECCAK256 ADDRESS KECCAK256 ADDRESS KECCAK256 ADDRESS KECCAK256 CODESIZE CALLVALUE CALLVALUE 0x2E CALLDATALOAD CODESIZE CALLDATACOPY CODESIZE CALLVALUE CALLVALUE CODECOPY ORIGIN BALANCE ADDRESS BALANCE CODESIZE BALANCE KECCAK256 CALLDATACOPY CALLER CALLVALUE 0x2E ORIGIN ORIGIN CODESIZE ADDRESS CODECOPY CALLER ORIGIN ADDRESS CALLDATACOPY CODESIZE CALLVALUE ADDRESS CODECOPY KECCAK256 GAS 0x22 KECCAK256 PUSH7 0x696C6C3D22626C PUSH2 0x636B 0x22 KECCAK256 PUSH20 0x74726F6B653D22626C61636B22207374726F6B65 0x2D PUSH24 0x696474683D2231222F3E0A3C7061746820643D224D203731 BALANCE 0x2E CALLDATALOAD CALLDATALOAD ORIGIN CALLDATACOPY ADDRESS CALLDATASIZE CODECOPY CALLDATALOAD ORIGIN CALLDATASIZE BALANCE ADDRESS CODESIZE KECCAK256 CALLDATASIZE CALLVALUE CALLDATALOAD 0x2E CALLER CALLER CALLDATASIZE CODESIZE CALLDATALOAD CALLDATALOAD CODECOPY ORIGIN CALLVALUE CALLDATACOPY ADDRESS CALLVALUE CALLDATALOAD KECCAK256 COINBASE KECCAK256 ORIGIN CALLVALUE ADDRESS KECCAK256 ORIGIN CALLVALUE ADDRESS KECCAK256 ADDRESS KECCAK256 ADDRESS KECCAK256 BALANCE KECCAK256 CALLDATASIZE CODECOPY CALLDATACOPY 0x2E CALLDATALOAD ORIGIN ORIGIN CALLDATALOAD ADDRESS CODESIZE CODESIZE ADDRESS CALLDATACOPY ADDRESS CALLDATALOAD CALLDATACOPY KECCAK256 CALLDATASIZE CALLDATASIZE CALLVALUE 0x2E ORIGIN CALLDATALOAD CALLVALUE CALLER CODESIZE CODESIZE BALANCE CODECOPY CODECOPY ORIGIN CALLDATACOPY CALLVALUE CODECOPY KECCAK256 0x4C KECCAK256 CALLDATACOPY CALLDATALOAD CODECOPY 0x2E CALLER CALLDATASIZE CALLER CALLER CALLVALUE CALLDATALOAD ADDRESS CALLDATACOPY CALLDATASIZE ADDRESS CALLDATACOPY CALLDATALOAD CODESIZE KECCAK256 CALLDATACOPY BALANCE CALLDATALOAD 0x2E ADDRESS ADDRESS CALLDATALOAD CODESIZE CALLDATALOAD ADDRESS CODECOPY CALLER ORIGIN CALLER CALLDATASIZE CALLDATASIZE CALLDATALOAD KECCAK256 COINBASE KECCAK256 CALLER ORIGIN ADDRESS KECCAK256 CALLER ORIGIN ADDRESS KECCAK256 ADDRESS KECCAK256 ADDRESS KECCAK256 ADDRESS KECCAK256 CALLDATACOPY CALLDATACOPY CODESIZE 0x2E ADDRESS CALLDATACOPY ADDRESS ORIGIN CALLDATACOPY CALLDATALOAD CODECOPY CALLER CALLDATASIZE CODESIZE BALANCE CALLVALUE CALLDATALOAD KECCAK256 CALLDATASIZE CODESIZE CODECOPY 0x2E CALLDATACOPY CODESIZE ORIGIN CALLVALUE CALLDATACOPY CALLVALUE CALLDATALOAD CALLDATASIZE CALLDATASIZE ORIGIN CALLDATACOPY ORIGIN CALLDATASIZE KECCAK256 GAS 0x22 KECCAK256 PUSH7 0x696C6C3D22626C PUSH2 0x636B 0x22 KECCAK256 PUSH20 0x74726F6B653D22626C61636B22207374726F6B65 0x2D PUSH24 0x696474683D2231222F3E0A3C7061746820643D224D203634 CALLDATALOAD 0x2E ADDRESS CALLER CALLDATALOAD BALANCE CALLER CALLDATACOPY CODECOPY CALLDATASIZE CODESIZE CALLVALUE ADDRESS CALLDATACOPY CALLER KECCAK256 CALLDATASIZE ADDRESS ADDRESS 0x2E CODESIZE CODECOPY BALANCE ORIGIN CALLER CALLDATACOPY ORIGIN CODESIZE CALLER BALANCE CALLER CALLDATASIZE CALLER KECCAK256 COINBASE KECCAK256 BALANCE CALLDATASIZE ADDRESS KECCAK256 BALANCE CALLDATASIZE ADDRESS KECCAK256 ADDRESS KECCAK256 ADDRESS KECCAK256 BALANCE KECCAK256 CALLDATASIZE CALLER CALLDATALOAD 0x2E CALLDATASIZE CODESIZE BALANCE CALLDATASIZE CALLDATACOPY ORIGIN CALLDATALOAD CALLER CODESIZE ADDRESS CALLER CALLDATACOPY CODECOPY KECCAK256 CALLDATASIZE BALANCE CALLER 0x2E CALLDATALOAD ADDRESS ORIGIN CODECOPY ORIGIN CALLDATALOAD CALLVALUE CALLDATASIZE CALLDATASIZE BALANCE CODESIZE CALLER ORIGIN KECCAK256 0x4C KECCAK256 CALLDATASIZE CODECOPY CALLDATACOPY 0x2E CALLDATALOAD ORIGIN ORIGIN CALLDATALOAD ADDRESS CODESIZE CODESIZE ADDRESS CALLDATACOPY ADDRESS CALLDATALOAD CALLDATACOPY KECCAK256 CALLDATASIZE CALLDATASIZE CALLVALUE 0x2E ORIGIN CALLDATALOAD CALLVALUE CALLER CODESIZE CODESIZE BALANCE CODECOPY CODECOPY ORIGIN CALLDATACOPY CALLVALUE CODECOPY KECCAK256 COINBASE KECCAK256 ORIGIN CALLVALUE ADDRESS KECCAK256 ORIGIN CALLVALUE ADDRESS KECCAK256 ADDRESS KECCAK256 ADDRESS KECCAK256 ADDRESS KECCAK256 CALLDATACOPY BALANCE BALANCE 0x2E CALLDATALOAD CALLDATALOAD ORIGIN CALLDATACOPY ADDRESS CALLDATASIZE CODECOPY CALLDATALOAD ORIGIN CALLDATASIZE BALANCE ADDRESS CODESIZE KECCAK256 CALLDATASIZE CALLVALUE CALLDATALOAD 0x2E CALLER CALLER CALLDATASIZE CODESIZE CALLDATALOAD CALLDATALOAD CODECOPY ORIGIN CALLVALUE CALLDATACOPY ADDRESS CALLVALUE CALLDATALOAD KECCAK256 GAS 0x22 KECCAK256 PUSH7 0x696C6C3D22626C PUSH2 0x636B 0x22 KECCAK256 PUSH20 0x74726F6B653D22626C61636B22207374726F6B65 0x2D PUSH24 0x696474683D2231222F3E0A3C7061746820643D224D203832 BALANCE 0x2E ORIGIN ADDRESS CALLVALUE BALANCE CODESIZE BALANCE CALLER CALLVALUE CALLDATALOAD ADDRESS CODECOPY CALLVALUE CODECOPY KECCAK256 CALLDATACOPY CALLDATASIZE CALLDATALOAD 0x2E CALLDATACOPY CALLDATALOAD CALLDATACOPY CALLER BALANCE CALLER CALLDATASIZE CALLDATASIZE CALLDATALOAD CALLVALUE CALLDATALOAD CODESIZE BALANCE KECCAK256 COINBASE KECCAK256 CALLVALUE ADDRESS ADDRESS KECCAK256 CALLVALUE ADDRESS ADDRESS KECCAK256 ADDRESS KECCAK256 ADDRESS KECCAK256 BALANCE KECCAK256 CALLDATACOPY CODECOPY CALLVALUE 0x2E CODESIZE CALLVALUE ORIGIN CALLDATACOPY BALANCE ORIGIN CALLVALUE CALLDATACOPY CALLVALUE CALLDATASIZE BALANCE CODECOPY KECCAK256 CALLDATACOPY CODECOPY CALLVALUE 0x2E CODESIZE CALLVALUE ORIGIN CALLDATACOPY BALANCE ORIGIN CALLVALUE CALLDATACOPY CALLVALUE CALLDATASIZE BALANCE CODECOPY KECCAK256 0x4C KECCAK256 CODESIZE CALLDATALOAD BALANCE 0x2E CALLVALUE BALANCE BALANCE ORIGIN CALLDATALOAD CALLVALUE CODECOPY CALLDATASIZE CODECOPY CALLDATALOAD CALLVALUE ORIGIN CODESIZE KECCAK256 CODESIZE CALLDATALOAD BALANCE 0x2E CALLVALUE BALANCE BALANCE ORIGIN CALLDATALOAD CALLVALUE CODECOPY CALLDATASIZE CODECOPY CALLDATALOAD CALLVALUE ORIGIN CODESIZE KECCAK256 COINBASE KECCAK256 CALLVALUE CODESIZE ADDRESS KECCAK256 CALLVALUE CODESIZE ADDRESS KECCAK256 ADDRESS KECCAK256 ADDRESS KECCAK256 ADDRESS KECCAK256 CODESIZE CODESIZE CALLER 0x2E ADDRESS CALLVALUE CALLDATALOAD ADDRESS BALANCE CALLDATACOPY CALLDATASIZE BALANCE CALLVALUE BALANCE BALANCE CALLER CODESIZE KECCAK256 CODESIZE BALANCE CALLDATASIZE 0x2E CALLDATALOAD ADDRESS CODESIZE CALLDATACOPY CALLDATACOPY CALLDATASIZE CALLER CODECOPY CODESIZE CALLDATALOAD CALLVALUE CODECOPY CODESIZE KECCAK256 GAS 0x22 KECCAK256 PUSH7 0x696C6C3D22626C PUSH2 0x636B 0x22 KECCAK256 PUSH20 0x74726F6B653D22626C61636B22207374726F6B65 0x2D PUSH24 0x696474683D2231222F3E0A3C7061746820643D224D203735 CODECOPY 0x2E CALLER CALLDATASIZE CALLER CALLER CALLVALUE CALLDATALOAD ADDRESS CALLDATACOPY CALLDATASIZE ADDRESS CALLDATACOPY CALLDATALOAD CODESIZE KECCAK256 CALLDATACOPY BALANCE CALLDATALOAD 0x2E ADDRESS ADDRESS CALLDATALOAD CODESIZE CALLDATALOAD ADDRESS CODECOPY CALLER ORIGIN CALLER CALLDATASIZE CALLDATASIZE CALLDATALOAD KECCAK256 COINBASE KECCAK256 CALLER ORIGIN ADDRESS KECCAK256 CALLER ORIGIN ADDRESS KECCAK256 ADDRESS KECCAK256 ADDRESS KECCAK256 BALANCE KECCAK256 CALLDATACOPY CALLER CODESIZE 0x2E ORIGIN CALLDATACOPY CALLVALUE BALANCE CALLDATASIZE CODECOPY CODECOPY CALLDATACOPY CODECOPY CALLDATASIZE CODECOPY CALLDATALOAD ORIGIN KECCAK256 CALLDATACOPY CALLER CODESIZE 0x2E ORIGIN CALLDATACOPY CALLVALUE BALANCE CALLDATASIZE CODECOPY CODECOPY CALLDATACOPY CODECOPY CALLDATASIZE CODECOPY CALLDATALOAD ORIGIN KECCAK256 0x4C KECCAK256 CALLDATACOPY CODECOPY CALLVALUE 0x2E CODESIZE CALLVALUE ORIGIN CALLDATACOPY BALANCE ORIGIN CALLVALUE CALLDATACOPY CALLVALUE CALLDATASIZE BALANCE CODECOPY KECCAK256 CALLDATACOPY CODECOPY CALLVALUE 0x2E CODESIZE CALLVALUE ORIGIN CALLDATACOPY BALANCE ORIGIN CALLVALUE CALLDATACOPY CALLVALUE CALLDATASIZE BALANCE CODECOPY KECCAK256 COINBASE KECCAK256 CALLVALUE ADDRESS ADDRESS KECCAK256 CALLVALUE ADDRESS ADDRESS KECCAK256 ADDRESS KECCAK256 ADDRESS KECCAK256 ADDRESS KECCAK256 CODESIZE ORIGIN BALANCE 0x2E ORIGIN ADDRESS CALLVALUE BALANCE CODESIZE BALANCE CALLER CALLVALUE CALLDATALOAD ADDRESS CODECOPY CALLVALUE CODECOPY KECCAK256 CALLDATACOPY CALLDATASIZE CALLDATALOAD 0x2E CALLDATACOPY CALLDATALOAD CALLDATACOPY CALLER BALANCE CALLER CALLDATASIZE CALLDATASIZE CALLDATALOAD CALLVALUE CALLDATALOAD CODESIZE BALANCE KECCAK256 GAS 0x22 KECCAK256 PUSH7 0x696C6C3D22626C PUSH2 0x636B 0x22 KECCAK256 PUSH20 0x74726F6B653D22626C61636B22207374726F6B65 0x2D PUSH24 0x696474683D2231222F3E0A3C7061746820643D224D203639 CALLDATACOPY 0x2E CALLDATALOAD ORIGIN ORIGIN CALLDATALOAD ADDRESS CODESIZE CODESIZE ADDRESS CALLDATACOPY ADDRESS CALLDATALOAD CALLDATACOPY KECCAK256 CALLDATASIZE CALLDATASIZE CALLVALUE 0x2E ORIGIN CALLDATALOAD CALLVALUE CALLER CODESIZE CODESIZE BALANCE CODECOPY CODECOPY ORIGIN CALLDATACOPY CALLVALUE CODECOPY KECCAK256 COINBASE KECCAK256 ORIGIN CALLVALUE ADDRESS KECCAK256 ORIGIN CALLVALUE ADDRESS KECCAK256 ADDRESS KECCAK256 ADDRESS KECCAK256 BALANCE KECCAK256 CALLDATASIZE CODESIZE BALANCE 0x2E CALLDATACOPY ADDRESS CALLDATALOAD CALLDATASIZE ORIGIN CALLDATACOPY CALLVALUE CODESIZE CALLVALUE CALLDATACOPY CALLDATACOPY BALANCE CALLVALUE KECCAK256 CALLDATASIZE CODESIZE BALANCE 0x2E CALLDATACOPY ADDRESS CALLDATALOAD CALLDATASIZE ORIGIN CALLDATACOPY CALLVALUE CODESIZE CALLVALUE CALLDATACOPY CALLDATACOPY BALANCE CALLVALUE KECCAK256 0x4C KECCAK256 CALLDATACOPY CALLER CODESIZE 0x2E ORIGIN CALLDATACOPY CALLVALUE BALANCE CALLDATASIZE CODECOPY CODECOPY CALLDATACOPY CODECOPY CALLDATASIZE CODECOPY CALLDATALOAD ORIGIN KECCAK256 CALLDATACOPY CALLER CODESIZE 0x2E ORIGIN CALLDATACOPY CALLVALUE BALANCE CALLDATASIZE CODECOPY CODECOPY CALLDATACOPY CODECOPY CALLDATASIZE CODECOPY CALLDATALOAD ORIGIN KECCAK256 COINBASE KECCAK256 CALLER ORIGIN ADDRESS KECCAK256 CALLER ORIGIN ADDRESS KECCAK256 ADDRESS KECCAK256 ADDRESS KECCAK256 ADDRESS KECCAK256 CALLDATACOPY CALLDATALOAD CODECOPY 0x2E CALLER CALLDATASIZE CALLER CALLER CALLVALUE CALLDATALOAD ADDRESS CALLDATACOPY CALLDATASIZE ADDRESS CALLDATACOPY CALLDATALOAD CODESIZE KECCAK256 CALLDATACOPY BALANCE CALLDATALOAD 0x2E ADDRESS ADDRESS CALLDATALOAD CODESIZE CALLDATALOAD ADDRESS CODECOPY CALLER ORIGIN CALLER CALLDATASIZE CALLDATASIZE CALLDATALOAD KECCAK256 GAS 0x22 KECCAK256 PUSH7 0x696C6C3D22626C PUSH2 0x636B 0x22 KECCAK256 PUSH20 0x74726F6B653D22626C61636B22207374726F6B65 0x2D PUSH24 0x696474683D2231222F3E0A3C7061746820643D224D203633 CALLDATALOAD 0x2E CALLDATASIZE CODESIZE BALANCE CALLDATASIZE CALLDATACOPY ORIGIN CALLDATALOAD CALLER CODESIZE ADDRESS CALLER CALLDATACOPY CODECOPY KECCAK256 CALLDATASIZE BALANCE CALLER 0x2E CALLDATALOAD ADDRESS ORIGIN CODECOPY ORIGIN CALLDATALOAD CALLVALUE CALLDATASIZE CALLDATASIZE BALANCE CODESIZE CALLER ORIGIN KECCAK256 COINBASE KECCAK256 BALANCE CALLDATASIZE ADDRESS KECCAK256 BALANCE CALLDATASIZE ADDRESS KECCAK256 ADDRESS KECCAK256 ADDRESS KECCAK256 BALANCE KECCAK256 CALLDATASIZE ORIGIN CALLDATALOAD 0x2E BALANCE CALLER CALLDATACOPY ADDRESS CODESIZE CALLVALUE CODECOPY CODESIZE CODECOPY CODESIZE CALLVALUE CALLDATACOPY CALLDATASIZE KECCAK256 CALLDATASIZE ORIGIN CALLDATALOAD 0x2E BALANCE CALLER CALLDATACOPY ADDRESS CODESIZE CALLVALUE CODECOPY CODESIZE CODECOPY CODESIZE CALLVALUE CALLDATACOPY CALLDATASIZE KECCAK256 0x4C KECCAK256 CALLDATASIZE CODESIZE BALANCE 0x2E CALLDATACOPY ADDRESS CALLDATALOAD CALLDATASIZE ORIGIN CALLDATACOPY CALLVALUE CODESIZE CALLVALUE CALLDATACOPY CALLDATACOPY BALANCE CALLVALUE KECCAK256 CALLDATASIZE CODESIZE BALANCE 0x2E CALLDATACOPY ADDRESS CALLDATALOAD CALLDATASIZE ORIGIN CALLDATACOPY CALLVALUE CODESIZE CALLVALUE CALLDATACOPY CALLDATACOPY BALANCE CALLVALUE KECCAK256 COINBASE KECCAK256 ORIGIN CALLVALUE ADDRESS KECCAK256 ORIGIN CALLVALUE ADDRESS KECCAK256 ADDRESS KECCAK256 ADDRESS KECCAK256 ADDRESS KECCAK256 CALLDATASIZE CODECOPY CALLDATACOPY 0x2E CALLDATALOAD ORIGIN ORIGIN CALLDATALOAD ADDRESS CODESIZE CODESIZE ADDRESS CALLDATACOPY ADDRESS CALLDATALOAD CALLDATACOPY KECCAK256 CALLDATASIZE CALLDATASIZE CALLVALUE 0x2E ORIGIN CALLDATALOAD CALLVALUE CALLER CODESIZE CODESIZE BALANCE CODECOPY CODECOPY ORIGIN CALLDATACOPY CALLVALUE CODECOPY KECCAK256 GAS 0x22 KECCAK256 PUSH7 0x696C6C3D22626C PUSH2 0x636B 0x22 KECCAK256 PUSH20 0x74726F6B653D22626C61636B22207374726F6B65 0x2D PUSH24 0x696474683D2231222F3E0A3C7061746820643D224D203739 CALLVALUE 0x2E CODESIZE CALLVALUE ORIGIN CALLDATACOPY BALANCE ORIGIN CALLVALUE CALLDATACOPY CALLVALUE CALLDATASIZE BALANCE CODECOPY KECCAK256 CALLDATACOPY CODECOPY CALLVALUE 0x2E CODESIZE CALLVALUE ORIGIN CALLDATACOPY BALANCE ORIGIN CALLVALUE CALLDATACOPY CALLVALUE CALLDATASIZE BALANCE CODECOPY KECCAK256 COINBASE KECCAK256 CALLVALUE ADDRESS ADDRESS KECCAK256 CALLVALUE ADDRESS ADDRESS KECCAK256 ADDRESS KECCAK256 ADDRESS KECCAK256 BALANCE KECCAK256 CALLDATACOPY CALLDATASIZE CALLDATALOAD 0x2E CALLDATACOPY CALLDATALOAD CALLDATACOPY CALLER BALANCE CALLER CALLDATASIZE CALLDATASIZE CALLDATALOAD CALLVALUE CALLDATALOAD CODESIZE ORIGIN KECCAK256 CODESIZE ORIGIN BALANCE 0x2E ORIGIN ADDRESS CALLVALUE BALANCE CODESIZE BALANCE CALLER CALLVALUE CALLDATALOAD ADDRESS CODECOPY CALLVALUE CODESIZE KECCAK256 0x4C KECCAK256 CODESIZE BALANCE CALLDATASIZE 0x2E CALLDATALOAD ADDRESS CODESIZE CALLDATACOPY CALLDATACOPY CALLDATASIZE CALLER CODECOPY CODESIZE CALLDATALOAD CALLVALUE CODECOPY CODECOPY KECCAK256 CODESIZE CODESIZE CALLER 0x2E ADDRESS CALLVALUE CALLDATALOAD ADDRESS BALANCE CALLDATACOPY CALLDATASIZE BALANCE CALLVALUE BALANCE BALANCE CALLER CALLDATACOPY KECCAK256 COINBASE KECCAK256 CALLVALUE CODESIZE ADDRESS KECCAK256 CALLVALUE CODESIZE ADDRESS KECCAK256 ADDRESS KECCAK256 ADDRESS KECCAK256 ADDRESS KECCAK256 CODESIZE CALLDATALOAD BALANCE 0x2E CALLVALUE BALANCE BALANCE ORIGIN CALLDATALOAD CALLVALUE CODECOPY CALLDATASIZE CODECOPY CALLDATALOAD CALLVALUE ORIGIN CODESIZE KECCAK256 CODESIZE CALLDATALOAD BALANCE 0x2E CALLVALUE BALANCE BALANCE ORIGIN CALLDATALOAD CALLVALUE CODECOPY CALLDATASIZE CODECOPY CALLDATALOAD CALLVALUE ORIGIN CODESIZE KECCAK256 GAS 0x22 KECCAK256 PUSH7 0x696C6C3D22626C PUSH2 0x636B 0x22 KECCAK256 PUSH20 0x74726F6B653D22626C61636B22207374726F6B65 0x2D PUSH24 0x696474683D2231222F3E0A3C7061746820643D224D203733 CODESIZE 0x2E ORIGIN CALLDATACOPY CALLVALUE BALANCE CALLDATASIZE CODECOPY CODECOPY CALLDATACOPY CODECOPY CALLDATASIZE CODECOPY CALLDATALOAD ORIGIN KECCAK256 CALLDATACOPY CALLER CODESIZE 0x2E ORIGIN CALLDATACOPY CALLVALUE BALANCE CALLDATASIZE CODECOPY CODECOPY CALLDATACOPY CODECOPY CALLDATASIZE CODECOPY CALLDATALOAD ORIGIN KECCAK256 COINBASE KECCAK256 CALLER ORIGIN ADDRESS KECCAK256 CALLER ORIGIN ADDRESS KECCAK256 ADDRESS KECCAK256 ADDRESS KECCAK256 BALANCE KECCAK256 CALLDATACOPY BALANCE CALLDATALOAD 0x2E ADDRESS ADDRESS CALLDATALOAD CODESIZE CALLDATALOAD ADDRESS CODECOPY CALLER ORIGIN CALLER CALLDATASIZE CALLDATASIZE CALLDATASIZE KECCAK256 CALLDATACOPY CALLDATALOAD CODECOPY 0x2E CALLER CALLDATASIZE CALLER CALLER CALLVALUE CALLDATALOAD ADDRESS CALLDATACOPY CALLDATASIZE ADDRESS CALLDATACOPY CALLDATALOAD CODESIZE KECCAK256 0x4C KECCAK256 CALLDATACOPY CALLDATASIZE CALLDATALOAD 0x2E CALLDATACOPY CALLDATALOAD CALLDATACOPY CALLER BALANCE CALLER CALLDATASIZE CALLDATASIZE CALLDATALOAD CALLVALUE CALLDATALOAD CODESIZE ORIGIN KECCAK256 CODESIZE ORIGIN BALANCE 0x2E ORIGIN ADDRESS CALLVALUE BALANCE CODESIZE BALANCE CALLER CALLVALUE CALLDATALOAD ADDRESS CODECOPY CALLVALUE CODESIZE KECCAK256 COINBASE KECCAK256 CALLVALUE ADDRESS ADDRESS KECCAK256 CALLVALUE ADDRESS ADDRESS KECCAK256 ADDRESS KECCAK256 ADDRESS KECCAK256 ADDRESS KECCAK256 CALLDATACOPY CODECOPY CALLVALUE 0x2E CODESIZE CALLVALUE ORIGIN CALLDATACOPY BALANCE ORIGIN CALLVALUE CALLDATACOPY CALLVALUE CALLDATASIZE BALANCE CODECOPY KECCAK256 CALLDATACOPY CODECOPY CALLVALUE 0x2E CODESIZE CALLVALUE ORIGIN CALLDATACOPY BALANCE ORIGIN CALLVALUE CALLDATACOPY CALLVALUE CALLDATASIZE BALANCE CODECOPY KECCAK256 GAS 0x22 KECCAK256 PUSH7 0x696C6C3D22626C PUSH2 0x636B 0x22 KECCAK256 PUSH20 0x74726F6B653D22626C61636B22207374726F6B65 0x2D PUSH24 0x696474683D2231222F3E0A3C7061746820643D224D203638 BALANCE 0x2E CALLDATACOPY ADDRESS CALLDATALOAD CALLDATASIZE ORIGIN CALLDATACOPY CALLVALUE CODESIZE CALLVALUE CALLDATACOPY CALLDATACOPY BALANCE CALLVALUE KECCAK256 CALLDATASIZE CODESIZE BALANCE 0x2E CALLDATACOPY ADDRESS CALLDATALOAD CALLDATASIZE ORIGIN CALLDATACOPY CALLVALUE CODESIZE CALLVALUE CALLDATACOPY CALLDATACOPY BALANCE CALLVALUE KECCAK256 COINBASE KECCAK256 ORIGIN CALLVALUE ADDRESS KECCAK256 ORIGIN CALLVALUE ADDRESS KECCAK256 ADDRESS KECCAK256 ADDRESS KECCAK256 BALANCE KECCAK256 CALLDATASIZE CALLDATASIZE CALLVALUE 0x2E ORIGIN CALLDATALOAD CALLVALUE CALLER CODESIZE CODESIZE BALANCE CODECOPY CODECOPY ORIGIN CALLDATACOPY CALLVALUE CODECOPY KECCAK256 CALLDATASIZE CODECOPY CALLDATACOPY 0x2E CALLDATALOAD ORIGIN ORIGIN CALLDATALOAD ADDRESS CODESIZE CODESIZE ADDRESS CALLDATACOPY ADDRESS CALLDATALOAD CALLDATASIZE CODECOPY KECCAK256 0x4C KECCAK256 CALLDATACOPY BALANCE CALLDATALOAD 0x2E ADDRESS ADDRESS CALLDATALOAD CODESIZE CALLDATALOAD ADDRESS CODECOPY CALLER ORIGIN CALLER CALLDATASIZE CALLDATASIZE CALLDATASIZE KECCAK256 CALLDATACOPY CALLDATALOAD CODECOPY 0x2E CALLER CALLDATASIZE CALLER CALLER CALLVALUE CALLDATALOAD ADDRESS CALLDATACOPY CALLDATASIZE ADDRESS CALLDATACOPY CALLDATALOAD CODESIZE KECCAK256 COINBASE KECCAK256 CALLER ORIGIN ADDRESS KECCAK256 CALLER ORIGIN ADDRESS KECCAK256 ADDRESS KECCAK256 ADDRESS KECCAK256 ADDRESS KECCAK256 CALLDATACOPY CALLER CODESIZE 0x2E ORIGIN CALLDATACOPY CALLVALUE BALANCE CALLDATASIZE CODECOPY CODECOPY CALLDATACOPY CODECOPY CALLDATASIZE CODECOPY CALLDATALOAD ORIGIN KECCAK256 CALLDATACOPY CALLER CODESIZE 0x2E ORIGIN CALLDATACOPY CALLVALUE BALANCE CALLDATASIZE CODECOPY CODECOPY CALLDATACOPY CODECOPY CALLDATASIZE CODECOPY CALLDATALOAD ORIGIN KECCAK256 GAS 0x22 KECCAK256 PUSH7 0x696C6C3D22626C PUSH2 0x636B 0x22 KECCAK256 PUSH20 0x74726F6B653D22626C61636B22207374726F6B65 0x2D PUSH24 0x696474683D2231222F3E0A3C7061746820643D224D203632 CALLDATALOAD 0x2E BALANCE CALLER CALLDATACOPY ADDRESS CODESIZE CALLVALUE CODECOPY CODESIZE CODECOPY CODESIZE CALLVALUE CALLDATACOPY CALLDATASIZE KECCAK256 CALLDATASIZE ORIGIN CALLDATALOAD 0x2E BALANCE CALLER CALLDATACOPY ADDRESS CODESIZE CALLVALUE CODECOPY CODESIZE CODECOPY CODESIZE CALLVALUE CALLDATACOPY CALLDATASIZE KECCAK256 COINBASE KECCAK256 BALANCE CALLDATASIZE ADDRESS KECCAK256 BALANCE CALLDATASIZE ADDRESS KECCAK256 ADDRESS KECCAK256 ADDRESS KECCAK256 BALANCE KECCAK256 CALLDATASIZE BALANCE CALLER 0x2E CALLDATALOAD ADDRESS ORIGIN CODECOPY ORIGIN CALLDATALOAD CALLVALUE CALLDATASIZE CALLDATASIZE BALANCE CODESIZE CALLER CALLER KECCAK256 CALLDATASIZE CALLER CALLDATALOAD 0x2E CALLDATASIZE CODESIZE BALANCE CALLDATASIZE CALLDATACOPY ORIGIN CALLDATALOAD CALLER CODESIZE ADDRESS CALLER CALLDATACOPY CODECOPY KECCAK256 0x4C KECCAK256 CALLDATASIZE CALLDATASIZE CALLVALUE 0x2E ORIGIN CALLDATALOAD CALLVALUE CALLER CODESIZE CODESIZE BALANCE CODECOPY CODECOPY ORIGIN CALLDATACOPY CALLVALUE CODECOPY KECCAK256 CALLDATASIZE CODECOPY CALLDATACOPY 0x2E CALLDATALOAD ORIGIN ORIGIN CALLDATALOAD ADDRESS CODESIZE CODESIZE ADDRESS CALLDATACOPY ADDRESS CALLDATALOAD CALLDATASIZE CODECOPY KECCAK256 COINBASE KECCAK256 ORIGIN CALLVALUE ADDRESS KECCAK256 ORIGIN CALLVALUE ADDRESS KECCAK256 ADDRESS KECCAK256 ADDRESS KECCAK256 ADDRESS KECCAK256 CALLDATASIZE CODESIZE BALANCE 0x2E CALLDATACOPY ADDRESS CALLDATALOAD CALLDATASIZE ORIGIN CALLDATACOPY CALLVALUE CODESIZE CALLVALUE CALLDATACOPY CALLDATACOPY BALANCE CALLVALUE KECCAK256 CALLDATASIZE CODESIZE BALANCE 0x2E CALLDATACOPY ADDRESS CALLDATALOAD CALLDATASIZE ORIGIN CALLDATACOPY CALLVALUE CODESIZE CALLVALUE CALLDATACOPY CALLDATACOPY BALANCE CALLVALUE KECCAK256 GAS 0x22 KECCAK256 PUSH7 0x696C6C3D22626C PUSH2 0x636B 0x22 KECCAK256 PUSH20 0x74726F6B653D22626C61636B22207374726F6B65 0x2D PUSH24 0x696474683D2231222F3E0A3C7061746820643D224D203736 CALLDATALOAD 0x2E CALLDATACOPY CALLDATALOAD CALLDATACOPY CALLER BALANCE CALLER CALLDATASIZE CALLDATASIZE CALLDATALOAD CALLVALUE CALLDATALOAD CODESIZE ORIGIN KECCAK256 CODESIZE ORIGIN BALANCE 0x2E ORIGIN ADDRESS CALLVALUE BALANCE CODESIZE BALANCE CALLER CALLVALUE CALLDATALOAD ADDRESS CODECOPY CALLVALUE CODECOPY KECCAK256 COINBASE KECCAK256 CALLVALUE ADDRESS ADDRESS KECCAK256 CALLVALUE ADDRESS ADDRESS KECCAK256 ADDRESS KECCAK256 ADDRESS KECCAK256 BALANCE KECCAK256 CALLDATACOPY CALLER CALLVALUE 0x2E ORIGIN ORIGIN CODESIZE ADDRESS CODECOPY CALLER ORIGIN ADDRESS CALLDATACOPY CODESIZE CALLVALUE ADDRESS CODECOPY KECCAK256 CODESIZE CALLVALUE CALLVALUE 0x2E CALLDATALOAD CODESIZE CALLDATACOPY CODESIZE CALLVALUE CALLVALUE CODECOPY ORIGIN BALANCE ADDRESS BALANCE CODESIZE BALANCE KECCAK256 0x4C KECCAK256 CALLDATACOPY CALLDATACOPY CODESIZE 0x2E CALLDATASIZE CALLDATACOPY CALLER CALLDATACOPY BALANCE BALANCE CODESIZE CALLVALUE CODECOPY CALLVALUE ADDRESS CODECOPY BALANCE KECCAK256 CODECOPY BALANCE BALANCE 0x2E BALANCE ADDRESS CALLDATALOAD CALLVALUE BALANCE CALLER CODECOPY ADDRESS CALLDATALOAD ORIGIN ORIGIN BALANCE CALLDATACOPY KECCAK256 COINBASE KECCAK256 CALLVALUE CODESIZE ADDRESS KECCAK256 CALLVALUE CODESIZE ADDRESS KECCAK256 ADDRESS KECCAK256 ADDRESS KECCAK256 ADDRESS KECCAK256 CODESIZE BALANCE CALLDATASIZE 0x2E CALLDATALOAD ADDRESS CODESIZE CALLDATACOPY CALLDATACOPY CALLDATASIZE CALLER CODECOPY CODESIZE CALLDATALOAD CALLVALUE CODECOPY CODESIZE KECCAK256 CODESIZE CODESIZE CALLER 0x2E ADDRESS CALLVALUE CALLDATALOAD ADDRESS BALANCE CALLDATACOPY CALLDATASIZE BALANCE CALLVALUE BALANCE BALANCE CALLER CALLDATACOPY KECCAK256 GAS 0x22 KECCAK256 PUSH7 0x696C6C3D22626C PUSH2 0x636B 0x22 KECCAK256 PUSH20 0x74726F6B653D22626C61636B22207374726F6B65 0x2D PUSH24 0x696474683D2231222F3E0A3C7061746820643D224D203731 CALLDATALOAD 0x2E ADDRESS ADDRESS CALLDATALOAD CODESIZE CALLDATALOAD ADDRESS CODECOPY CALLER ORIGIN CALLER CALLDATASIZE CALLDATASIZE CALLDATASIZE KECCAK256 CALLDATACOPY CALLDATALOAD CODECOPY 0x2E CALLER CALLDATASIZE CALLER CALLER CALLVALUE CALLDATALOAD ADDRESS CALLDATACOPY CALLDATASIZE ADDRESS CALLDATACOPY CALLDATALOAD CODESIZE KECCAK256 COINBASE KECCAK256 CALLER ORIGIN ADDRESS KECCAK256 CALLER ORIGIN ADDRESS KECCAK256 ADDRESS KECCAK256 ADDRESS KECCAK256 BALANCE KECCAK256 CALLDATASIZE CODESIZE CODECOPY 0x2E CALLDATACOPY CODESIZE ORIGIN CALLVALUE CALLDATACOPY CALLVALUE CALLDATALOAD CALLDATASIZE CALLDATASIZE ORIGIN CALLDATACOPY ORIGIN CALLDATASIZE KECCAK256 CALLDATACOPY CALLDATACOPY CODESIZE 0x2E ADDRESS CALLDATACOPY ADDRESS ORIGIN CALLDATACOPY CALLDATALOAD CODECOPY CALLER CALLDATASIZE CODESIZE BALANCE CALLVALUE CALLDATALOAD KECCAK256 0x4C KECCAK256 CALLDATACOPY CALLER CALLVALUE 0x2E ORIGIN ORIGIN CODESIZE ADDRESS CODECOPY CALLER ORIGIN ADDRESS CALLDATACOPY CODESIZE CALLVALUE ADDRESS CODECOPY KECCAK256 CODESIZE CALLVALUE CALLVALUE 0x2E CALLDATALOAD CODESIZE CALLDATACOPY CODESIZE CALLVALUE CALLVALUE CODECOPY ORIGIN BALANCE ADDRESS BALANCE CODESIZE BALANCE KECCAK256 COINBASE KECCAK256 CALLVALUE ADDRESS ADDRESS KECCAK256 CALLVALUE ADDRESS ADDRESS KECCAK256 ADDRESS KECCAK256 ADDRESS KECCAK256 ADDRESS KECCAK256 CALLDATACOPY CALLDATASIZE CALLDATALOAD 0x2E CALLDATACOPY CALLDATALOAD CALLDATACOPY CALLER BALANCE CALLER CALLDATASIZE CALLDATASIZE CALLDATALOAD CALLVALUE CALLDATALOAD CODESIZE ORIGIN KECCAK256 CODESIZE ORIGIN BALANCE 0x2E ORIGIN ADDRESS CALLVALUE BALANCE CODESIZE BALANCE CALLER CALLVALUE CALLDATALOAD ADDRESS CODECOPY CALLVALUE CODECOPY KECCAK256 GAS 0x22 KECCAK256 PUSH7 0x696C6C3D22626C PUSH2 0x636B 0x22 KECCAK256 PUSH20 0x74726F6B653D22626C61636B22207374726F6B65 0x2D PUSH24 0x696474683D2231222F3E0A3C7061746820643D224D203636 CALLVALUE 0x2E ORIGIN CALLDATALOAD CALLVALUE CALLER CODESIZE CODESIZE BALANCE CODECOPY CODECOPY ORIGIN CALLDATACOPY CALLVALUE CODECOPY KECCAK256 CALLDATASIZE CODECOPY CALLDATACOPY 0x2E CALLDATALOAD ORIGIN ORIGIN CALLDATALOAD ADDRESS CODESIZE CODESIZE ADDRESS CALLDATACOPY ADDRESS CALLDATALOAD CALLDATASIZE CODECOPY KECCAK256 COINBASE KECCAK256 ORIGIN CALLVALUE ADDRESS KECCAK256 ORIGIN CALLVALUE ADDRESS KECCAK256 ADDRESS KECCAK256 ADDRESS KECCAK256 BALANCE KECCAK256 CALLDATASIZE CALLVALUE CALLDATALOAD 0x2E CALLER CALLER CALLDATASIZE CODESIZE CALLDATALOAD CALLDATALOAD CODECOPY ORIGIN CALLVALUE CALLDATACOPY ADDRESS CALLVALUE CALLDATALOAD KECCAK256 CALLDATACOPY BALANCE BALANCE 0x2E CALLDATALOAD CALLDATALOAD ORIGIN CALLDATACOPY ADDRESS CALLDATASIZE CODECOPY CALLDATALOAD ORIGIN CALLDATASIZE BALANCE ADDRESS CODESIZE KECCAK256 0x4C KECCAK256 CALLDATASIZE CODESIZE CODECOPY 0x2E CALLDATACOPY CODESIZE ORIGIN CALLVALUE CALLDATACOPY CALLVALUE CALLDATALOAD CALLDATASIZE CALLDATASIZE ORIGIN CALLDATACOPY ORIGIN CALLDATASIZE KECCAK256 CALLDATACOPY CALLDATACOPY CODESIZE 0x2E ADDRESS CALLDATACOPY ADDRESS ORIGIN CALLDATACOPY CALLDATALOAD CODECOPY CALLER CALLDATASIZE CODESIZE BALANCE CALLVALUE CALLDATALOAD KECCAK256 COINBASE KECCAK256 CALLER ORIGIN ADDRESS KECCAK256 CALLER ORIGIN ADDRESS KECCAK256 ADDRESS KECCAK256 ADDRESS KECCAK256 ADDRESS KECCAK256 CALLDATACOPY BALANCE CALLDATALOAD 0x2E ADDRESS ADDRESS CALLDATALOAD CODESIZE CALLDATALOAD ADDRESS CODECOPY CALLER ORIGIN CALLER CALLDATASIZE CALLDATASIZE CALLDATASIZE KECCAK256 CALLDATACOPY CALLDATALOAD CODECOPY 0x2E CALLER CALLDATASIZE CALLER CALLER CALLVALUE CALLDATALOAD ADDRESS CALLDATACOPY CALLDATASIZE ADDRESS CALLDATACOPY CALLDATALOAD CODESIZE KECCAK256 GAS 0x22 KECCAK256 PUSH7 0x696C6C3D22626C PUSH2 0x636B 0x22 KECCAK256 PUSH20 0x74726F6B653D22626C61636B22207374726F6B65 0x2D PUSH24 0x696474683D2231222F3E0A3C7061746820643D224D203631 CALLER 0x2E CALLDATALOAD ADDRESS ORIGIN CODECOPY ORIGIN CALLDATALOAD CALLVALUE CALLDATASIZE CALLDATASIZE BALANCE CODESIZE CALLER CALLER KECCAK256 CALLDATASIZE CALLER CALLDATALOAD 0x2E CALLDATASIZE CODESIZE BALANCE CALLDATASIZE CALLDATACOPY ORIGIN CALLDATALOAD CALLER CODESIZE ADDRESS CALLER CALLDATACOPY CODECOPY KECCAK256 COINBASE KECCAK256 BALANCE CALLDATASIZE ADDRESS KECCAK256 BALANCE CALLDATASIZE ADDRESS KECCAK256 ADDRESS KECCAK256 ADDRESS KECCAK256 BALANCE KECCAK256 CALLDATASIZE ADDRESS ADDRESS 0x2E CODESIZE CODECOPY BALANCE ORIGIN CALLER CALLDATACOPY ORIGIN CODESIZE CALLER BALANCE CALLER CALLDATASIZE CALLER KECCAK256 CALLDATASIZE CALLVALUE CALLDATALOAD 0x2E ADDRESS CALLER CALLDATALOAD BALANCE CALLER CALLDATACOPY CODECOPY CALLDATASIZE CODESIZE CALLVALUE ADDRESS CALLDATACOPY CALLER KECCAK256 0x4C KECCAK256 CALLDATASIZE CALLVALUE CALLDATALOAD 0x2E CALLER CALLER CALLDATASIZE CODESIZE CALLDATALOAD CALLDATALOAD CODECOPY ORIGIN CALLVALUE CALLDATACOPY ADDRESS CALLVALUE CALLDATALOAD KECCAK256 CALLDATACOPY BALANCE BALANCE 0x2E CALLDATALOAD CALLDATALOAD ORIGIN CALLDATACOPY ADDRESS CALLDATASIZE CODECOPY CALLDATALOAD ORIGIN CALLDATASIZE BALANCE ADDRESS CODESIZE KECCAK256 COINBASE KECCAK256 ORIGIN CALLVALUE ADDRESS KECCAK256 ORIGIN CALLVALUE ADDRESS KECCAK256 ADDRESS KECCAK256 ADDRESS KECCAK256 ADDRESS KECCAK256 CALLDATASIZE CALLDATASIZE CALLVALUE 0x2E ORIGIN CALLDATALOAD CALLVALUE CALLER CODESIZE CODESIZE BALANCE CODECOPY CODECOPY ORIGIN CALLDATACOPY CALLVALUE CODECOPY KECCAK256 CALLDATASIZE CODECOPY CALLDATACOPY 0x2E CALLDATALOAD ORIGIN ORIGIN CALLDATALOAD ADDRESS CODESIZE CODESIZE ADDRESS CALLDATACOPY ADDRESS CALLDATALOAD CALLDATASIZE CODECOPY KECCAK256 GAS 0x22 KECCAK256 PUSH7 0x696C6C3D22626C PUSH2 0x636B 0x22 KECCAK256 PUSH20 0x74726F6B653D22626C61636B22207374726F6B65 0x2D PUSH24 0x696474683D2231222F3E0A3C7061746820643D224D203733 CALLVALUE 0x2E ORIGIN ORIGIN CODESIZE ADDRESS CODECOPY CALLER ORIGIN ADDRESS CALLDATACOPY CODESIZE CALLVALUE ADDRESS CODECOPY KECCAK256 CODESIZE CALLVALUE CALLVALUE 0x2E CALLDATALOAD CODESIZE CALLDATACOPY CODESIZE CALLVALUE CALLVALUE CODECOPY ORIGIN BALANCE ADDRESS BALANCE CODESIZE BALANCE KECCAK256 COINBASE KECCAK256 CALLVALUE ADDRESS ADDRESS KECCAK256 CALLVALUE ADDRESS ADDRESS KECCAK256 ADDRESS KECCAK256 ADDRESS KECCAK256 BALANCE KECCAK256 CALLDATACOPY ADDRESS ADDRESS 0x2E CALLDATALOAD CALLDATALOAD CODESIZE CALLDATASIZE CODECOPY CALLVALUE CALLDATACOPY CALLER ADDRESS CALLER CODECOPY CODESIZE CODECOPY KECCAK256 CODESIZE CALLDATASIZE CALLVALUE 0x2E CALLDATACOPY CALLDATASIZE CODESIZE CALLDATALOAD ADDRESS CALLDATALOAD CALLDATACOPY CALLER CODECOPY CALLER CALLVALUE ORIGIN BALANCE KECCAK256 0x4C KECCAK256 CALLDATACOPY CALLER CODESIZE 0x2E ORIGIN CALLDATACOPY ADDRESS CALLVALUE CALLER CALLER CALLDATASIZE CALLDATACOPY CALLDATASIZE CALLVALUE CALLDATACOPY CODESIZE CODESIZE KECCAK256 CODECOPY CALLER CALLDATALOAD 0x2E CALLER ORIGIN ORIGIN ORIGIN ADDRESS CALLDATASIZE CODESIZE CODESIZE CALLDATACOPY ORIGIN BALANCE ADDRESS CALLDATALOAD KECCAK256 COINBASE KECCAK256 CALLVALUE CODESIZE ADDRESS KECCAK256 CALLVALUE CODESIZE ADDRESS KECCAK256 ADDRESS KECCAK256 ADDRESS KECCAK256 ADDRESS KECCAK256 CALLDATACOPY CALLDATACOPY CODESIZE 0x2E CALLDATASIZE CALLDATACOPY CALLER CALLDATACOPY BALANCE BALANCE CODESIZE CALLVALUE CODECOPY CALLVALUE ADDRESS CODECOPY BALANCE KECCAK256 CODECOPY BALANCE BALANCE 0x2E BALANCE ADDRESS CALLDATALOAD CALLVALUE BALANCE CALLER CODECOPY ADDRESS CALLDATALOAD ORIGIN ORIGIN BALANCE CODESIZE KECCAK256 GAS 0x22 KECCAK256 PUSH7 0x696C6C3D22626C PUSH2 0x636B 0x22 KECCAK256 PUSH20 0x74726F6B653D22626C61636B22207374726F6B65 0x2D PUSH24 0x696474683D2231222F3E0A3C7061746820643D224D203638 CODECOPY 0x2E CALLDATACOPY CODESIZE ORIGIN CALLVALUE CALLDATACOPY CALLVALUE CALLDATALOAD CALLDATASIZE CALLDATASIZE ORIGIN CALLDATACOPY ORIGIN CALLDATASIZE KECCAK256 CALLDATACOPY CALLDATACOPY CODESIZE 0x2E ADDRESS CALLDATACOPY ADDRESS ORIGIN CALLDATACOPY CALLDATALOAD CODECOPY CALLER CALLDATASIZE CODESIZE BALANCE CALLVALUE CALLDATALOAD KECCAK256 COINBASE KECCAK256 CALLER ORIGIN ADDRESS KECCAK256 CALLER ORIGIN ADDRESS KECCAK256 ADDRESS KECCAK256 ADDRESS KECCAK256 BALANCE KECCAK256 CALLDATASIZE CALLDATASIZE ORIGIN 0x2E CODESIZE CALLVALUE CALLDATASIZE CODECOPY CALLDATALOAD CALLDATALOAD CALLDATACOPY CODESIZE CALLVALUE CALLER BALANCE CODECOPY BALANCE KECCAK256 CALLDATACOPY CODECOPY CALLVALUE 0x2E ORIGIN BALANCE CALLVALUE CODESIZE ADDRESS CALLVALUE CALLDATALOAD CODECOPY BALANCE CALLVALUE CALLDATACOPY CALLER CALLDATACOPY KECCAK256 0x4C KECCAK256 CALLDATACOPY ADDRESS ADDRESS 0x2E CALLDATALOAD CALLDATALOAD CODESIZE CALLDATASIZE CODECOPY CALLVALUE CALLDATACOPY CALLER ADDRESS CALLER CODECOPY CODESIZE CODECOPY KECCAK256 CODESIZE CALLDATASIZE CALLVALUE 0x2E CALLDATACOPY CALLDATASIZE CODESIZE CALLDATALOAD ADDRESS CALLDATALOAD CALLDATACOPY CALLER CODECOPY CALLER CALLVALUE ORIGIN BALANCE KECCAK256 COINBASE KECCAK256 CALLVALUE ADDRESS ADDRESS KECCAK256 CALLVALUE ADDRESS ADDRESS KECCAK256 ADDRESS KECCAK256 ADDRESS KECCAK256 ADDRESS KECCAK256 CALLDATACOPY CALLER CALLVALUE 0x2E ORIGIN ORIGIN CODESIZE ADDRESS CODECOPY CALLER ORIGIN ADDRESS CALLDATACOPY CODESIZE CALLVALUE ADDRESS CODECOPY KECCAK256 CODESIZE CALLVALUE CALLVALUE 0x2E CALLDATALOAD CODESIZE CALLDATACOPY CODESIZE CALLVALUE CALLVALUE CODECOPY ORIGIN BALANCE ADDRESS BALANCE CODESIZE BALANCE KECCAK256 GAS 0x22 KECCAK256 PUSH7 0x696C6C3D22626C PUSH2 0x636B 0x22 KECCAK256 PUSH20 0x74726F6B653D22626C61636B22207374726F6B65 0x2D PUSH24 0x696474683D2231222F3E0A3C7061746820643D224D203634 CALLDATALOAD 0x2E CALLER CALLER CALLDATASIZE CODESIZE CALLDATALOAD CALLDATALOAD CODECOPY ORIGIN CALLVALUE CALLDATACOPY ADDRESS CALLVALUE CALLDATALOAD KECCAK256 CALLDATACOPY BALANCE BALANCE 0x2E CALLDATALOAD CALLDATALOAD ORIGIN CALLDATACOPY ADDRESS CALLDATASIZE CODECOPY CALLDATALOAD ORIGIN CALLDATASIZE BALANCE ADDRESS CODESIZE KECCAK256 COINBASE KECCAK256 ORIGIN CALLVALUE ADDRESS KECCAK256 ORIGIN CALLVALUE ADDRESS KECCAK256 ADDRESS KECCAK256 ADDRESS KECCAK256 BALANCE KECCAK256 CALLDATASIZE ORIGIN CALLDATALOAD 0x2E BALANCE CALLER CALLDATALOAD ORIGIN BALANCE CALLDATASIZE CODESIZE CALLER CODESIZE ORIGIN CALLER CODECOPY CALLER KECCAK256 CALLDATACOPY ORIGIN CALLER 0x2E CALLDATASIZE CALLDATASIZE BALANCE BALANCE ADDRESS CALLER CALLVALUE CALLVALUE CALLER CALLDATASIZE ADDRESS CALLDATALOAD CALLER KECCAK256 0x4C KECCAK256 CALLDATASIZE CALLDATASIZE ORIGIN 0x2E CODESIZE CALLVALUE CALLDATASIZE CODECOPY CALLDATALOAD CALLDATALOAD CALLDATACOPY CODESIZE CALLVALUE CALLER BALANCE CODECOPY BALANCE KECCAK256 CALLDATACOPY CODECOPY CALLVALUE 0x2E ORIGIN BALANCE CALLVALUE CODESIZE ADDRESS CALLVALUE CALLDATALOAD CODECOPY BALANCE CALLVALUE CALLDATACOPY CALLER CALLDATACOPY KECCAK256 COINBASE KECCAK256 CALLER ORIGIN ADDRESS KECCAK256 CALLER ORIGIN ADDRESS KECCAK256 ADDRESS KECCAK256 ADDRESS KECCAK256 ADDRESS KECCAK256 CALLDATASIZE CODESIZE CODECOPY 0x2E CALLDATACOPY CODESIZE ORIGIN CALLVALUE CALLDATACOPY CALLVALUE CALLDATALOAD CALLDATASIZE CALLDATASIZE ORIGIN CALLDATACOPY ORIGIN CALLDATASIZE KECCAK256 CALLDATACOPY CALLDATACOPY CODESIZE 0x2E ADDRESS CALLDATACOPY ADDRESS ORIGIN CALLDATACOPY CALLDATALOAD CODECOPY CALLER CALLDATASIZE CODESIZE BALANCE CALLVALUE CALLDATALOAD KECCAK256 GAS 0x22 KECCAK256 PUSH7 0x696C6C3D22626C PUSH2 0x636B 0x22 KECCAK256 PUSH20 0x74726F6B653D22626C61636B22207374726F6B65 0x2D PUSH24 0x696474683D2231222F3E0A3C7061746820643D224D203630 ADDRESS 0x2E CODESIZE CODECOPY BALANCE ORIGIN CALLER CALLDATACOPY ORIGIN CODESIZE CALLER BALANCE CALLER CALLDATASIZE CALLER KECCAK256 CALLDATASIZE CALLVALUE CALLDATALOAD 0x2E ADDRESS CALLER CALLDATALOAD BALANCE CALLER CALLDATACOPY CODECOPY CALLDATASIZE CODESIZE CALLVALUE ADDRESS CALLDATACOPY CALLER KECCAK256 COINBASE KECCAK256 BALANCE CALLDATASIZE ADDRESS KECCAK256 BALANCE CALLDATASIZE ADDRESS KECCAK256 ADDRESS KECCAK256 ADDRESS KECCAK256 BALANCE KECCAK256 CALLDATALOAD CODESIZE CALLDATACOPY 0x2E CALLVALUE ORIGIN CALLER CALLVALUE CALLDATACOPY CALLDATACOPY CODESIZE CODECOPY ORIGIN BALANCE CALLDATALOAD CODECOPY CALLDATASIZE KECCAK256 CALLDATASIZE CALLDATALOAD CALLER 0x2E BALANCE ADDRESS CALLDATACOPY CALLVALUE ADDRESS ORIGIN ORIGIN CODECOPY CALLDATALOAD CALLDATACOPY CALLER CALLDATASIZE CODESIZE KECCAK256 0x4C KECCAK256 CALLDATASIZE ORIGIN CALLDATALOAD 0x2E BALANCE CALLER CALLDATALOAD ORIGIN BALANCE CALLDATASIZE CODESIZE CALLER CODESIZE ORIGIN CALLER CODECOPY CALLER KECCAK256 CALLDATACOPY ORIGIN CALLER 0x2E CALLDATASIZE CALLDATASIZE BALANCE BALANCE ADDRESS CALLER CALLVALUE CALLVALUE CALLER CALLDATASIZE ADDRESS CALLDATALOAD CALLER KECCAK256 COINBASE KECCAK256 ORIGIN CALLVALUE ADDRESS KECCAK256 ORIGIN CALLVALUE ADDRESS KECCAK256 ADDRESS KECCAK256 ADDRESS KECCAK256 ADDRESS KECCAK256 CALLDATASIZE CALLVALUE CALLDATALOAD 0x2E CALLER CALLER CALLDATASIZE CODESIZE CALLDATALOAD CALLDATALOAD CODECOPY ORIGIN CALLVALUE CALLDATACOPY ADDRESS CALLVALUE CALLDATALOAD KECCAK256 CALLDATACOPY BALANCE BALANCE 0x2E CALLDATALOAD CALLDATALOAD ORIGIN CALLDATACOPY ADDRESS CALLDATASIZE CODECOPY CALLDATALOAD ORIGIN CALLDATASIZE BALANCE ADDRESS CODESIZE KECCAK256 GAS 0x22 KECCAK256 PUSH7 0x696C6C3D22626C PUSH2 0x636B 0x22 KECCAK256 PUSH20 0x74726F6B653D22626C61636B22207374726F6B65 0x2D PUSH24 0x696474683D2231222F3E0A3C7061746820643D224D203730 ADDRESS 0x2E CALLDATALOAD CALLDATALOAD CODESIZE CALLDATASIZE CODECOPY CALLVALUE CALLDATACOPY CALLER ADDRESS CALLER CODECOPY CODECOPY BALANCE KECCAK256 CODESIZE CALLDATASIZE CALLVALUE 0x2E CALLDATACOPY CALLDATASIZE CODESIZE CALLDATALOAD ADDRESS CALLDATALOAD CALLDATACOPY CALLER CODECOPY CALLER CALLVALUE ORIGIN KECCAK256 COINBASE KECCAK256 CALLVALUE ADDRESS ADDRESS KECCAK256 CALLVALUE ADDRESS ADDRESS KECCAK256 ADDRESS KECCAK256 ADDRESS KECCAK256 BALANCE KECCAK256 CALLDATASIZE CALLDATASIZE CALLDATALOAD 0x2E ADDRESS CALLDATACOPY CALLER CALLER CALLDATACOPY ORIGIN CODECOPY CALLVALUE CALLDATASIZE ADDRESS CALLER CALLDATASIZE KECCAK256 CODESIZE CODESIZE BALANCE 0x2E CALLDATALOAD CALLDATALOAD BALANCE CODESIZE BALANCE CALLER ADDRESS ADDRESS CALLVALUE CALLDATALOAD BALANCE CALLVALUE CODESIZE KECCAK256 0x4C KECCAK256 CALLDATASIZE CODECOPY CALLDATALOAD 0x2E CALLDATASIZE CODESIZE CODESIZE ADDRESS CALLVALUE CALLDATACOPY CALLDATALOAD CALLER CALLDATALOAD ORIGIN CALLVALUE CALLER ORIGIN KECCAK256 CODECOPY CALLDATALOAD CALLDATALOAD 0x2E CALLVALUE CALLDATASIZE ORIGIN BALANCE CALLDATACOPY CALLDATALOAD CALLDATASIZE ADDRESS CALLDATALOAD CALLVALUE BALANCE CALLDATACOPY CALLDATACOPY KECCAK256 COINBASE KECCAK256 CALLVALUE CODESIZE ADDRESS KECCAK256 CALLVALUE CODESIZE ADDRESS KECCAK256 ADDRESS KECCAK256 ADDRESS KECCAK256 ADDRESS KECCAK256 CALLDATACOPY CALLER CODESIZE 0x2E ORIGIN CALLDATACOPY ADDRESS CALLVALUE CALLER CALLER CALLDATASIZE CALLDATACOPY CALLDATASIZE CALLVALUE CALLDATACOPY CODESIZE CODECOPY KECCAK256 CODECOPY CALLER CALLDATALOAD 0x2E CALLER ORIGIN ORIGIN ORIGIN ADDRESS CALLDATASIZE CODESIZE CODESIZE CALLDATACOPY ORIGIN BALANCE ADDRESS CALLER KECCAK256 GAS 0x22 KECCAK256 PUSH7 0x696C6C3D22626C PUSH2 0x636B 0x22 KECCAK256 PUSH20 0x74726F6B653D22626C61636B22207374726F6B65 0x2D PUSH24 0x696474683D2231222F3E0A3C7061746820643D224D203636 ORIGIN 0x2E CODESIZE CALLVALUE CALLDATASIZE CODECOPY CALLDATALOAD CALLDATALOAD CALLDATACOPY CODESIZE CALLVALUE CALLER BALANCE CODECOPY CALLER KECCAK256 CALLDATACOPY CODECOPY CALLVALUE 0x2E ORIGIN BALANCE CALLVALUE CODESIZE ADDRESS CALLVALUE CALLDATALOAD CODECOPY BALANCE CALLVALUE CALLDATACOPY CALLER CALLDATASIZE KECCAK256 COINBASE KECCAK256 CALLER ORIGIN ADDRESS KECCAK256 CALLER ORIGIN ADDRESS KECCAK256 ADDRESS KECCAK256 ADDRESS KECCAK256 BALANCE KECCAK256 CALLDATASIZE CALLER CALLVALUE 0x2E CALLVALUE CALLDATALOAD CODESIZE CALLDATASIZE CODECOPY CODESIZE CALLER CALLDATALOAD CALLDATASIZE CODESIZE ORIGIN CODESIZE CODESIZE KECCAK256 CODESIZE ADDRESS CALLDATACOPY 0x2E CALLDATASIZE CALLVALUE BALANCE CALLVALUE CALLDATALOAD ADDRESS CALLVALUE ADDRESS CALLER CALLDATASIZE BALANCE BALANCE CODESIZE KECCAK256 0x4C KECCAK256 CALLDATASIZE CALLDATASIZE CALLDATALOAD 0x2E ADDRESS CALLDATACOPY CALLER CALLER CALLDATACOPY ORIGIN CODECOPY CALLVALUE CALLDATASIZE ADDRESS CALLER CALLDATASIZE KECCAK256 CODESIZE CODESIZE BALANCE 0x2E CALLDATALOAD CALLDATALOAD BALANCE CODESIZE BALANCE CALLER ADDRESS ADDRESS CALLVALUE CALLDATALOAD BALANCE CALLVALUE CODESIZE KECCAK256 COINBASE KECCAK256 CALLVALUE ADDRESS ADDRESS KECCAK256 CALLVALUE ADDRESS ADDRESS KECCAK256 ADDRESS KECCAK256 ADDRESS KECCAK256 ADDRESS KECCAK256 CALLDATACOPY ADDRESS ADDRESS 0x2E CALLDATALOAD CALLDATALOAD CODESIZE CALLDATASIZE CODECOPY CALLVALUE CALLDATACOPY CALLER ADDRESS CALLER CODECOPY CODECOPY BALANCE KECCAK256 CODESIZE CALLDATASIZE CALLVALUE 0x2E CALLDATACOPY CALLDATASIZE CODESIZE CALLDATALOAD ADDRESS CALLDATALOAD CALLDATACOPY CALLER CODECOPY CALLER CALLVALUE ORIGIN KECCAK256 GAS 0x22 KECCAK256 PUSH7 0x696C6C3D22626C PUSH2 0x636B 0x22 KECCAK256 PUSH20 0x74726F6B653D22626C61636B22207374726F6B65 0x2D PUSH24 0x696474683D2231222F3E0A3C7061746820643D224D203632 CALLDATALOAD 0x2E BALANCE CALLER CALLDATALOAD ORIGIN BALANCE CALLDATASIZE CODESIZE CALLER CODESIZE ORIGIN CALLER CODECOPY CALLVALUE KECCAK256 CALLDATACOPY ORIGIN CALLER 0x2E CALLDATASIZE CALLDATASIZE BALANCE BALANCE ADDRESS CALLER CALLVALUE CALLVALUE CALLER CALLDATASIZE ADDRESS CALLDATALOAD ORIGIN KECCAK256 COINBASE KECCAK256 ORIGIN CALLVALUE ADDRESS KECCAK256 ORIGIN CALLVALUE ADDRESS KECCAK256 ADDRESS KECCAK256 ADDRESS KECCAK256 BALANCE KECCAK256 CALLDATASIZE ADDRESS CALLER 0x2E CODESIZE CALLVALUE CALLVALUE ADDRESS ORIGIN CALLER CALLDATACOPY CALLDATASIZE CALLDATACOPY CALLDATASIZE ORIGIN BALANCE CALLDATASIZE KECCAK256 CALLDATACOPY CALLER CALLER 0x2E CALLDATACOPY CALLER BALANCE ADDRESS CODESIZE CALLDATACOPY CODESIZE ADDRESS ORIGIN CALLDATACOPY ADDRESS CODESIZE CODESIZE KECCAK256 0x4C KECCAK256 CALLDATASIZE CALLER CALLVALUE 0x2E CALLVALUE CALLDATALOAD CODESIZE CALLDATASIZE CODECOPY CODESIZE CALLER CALLDATALOAD CALLDATASIZE CODESIZE ORIGIN CODESIZE CODESIZE KECCAK256 CODESIZE ADDRESS CALLDATACOPY 0x2E CALLDATASIZE CALLVALUE BALANCE CALLVALUE CALLDATALOAD ADDRESS CALLVALUE ADDRESS CALLER CALLDATASIZE BALANCE BALANCE CODESIZE KECCAK256 COINBASE KECCAK256 CALLER ORIGIN ADDRESS KECCAK256 CALLER ORIGIN ADDRESS KECCAK256 ADDRESS KECCAK256 ADDRESS KECCAK256 ADDRESS KECCAK256 CALLDATASIZE CALLDATASIZE ORIGIN 0x2E CODESIZE CALLVALUE CALLDATASIZE CODECOPY CALLDATALOAD CALLDATALOAD CALLDATACOPY CODESIZE CALLVALUE CALLER BALANCE CODECOPY CALLER KECCAK256 CALLDATACOPY CODECOPY CALLVALUE 0x2E ORIGIN BALANCE CALLVALUE CODESIZE ADDRESS CALLVALUE CALLDATALOAD CODECOPY BALANCE CALLVALUE CALLDATACOPY CALLER CALLDATASIZE KECCAK256 GAS 0x22 KECCAK256 PUSH7 0x696C6C3D22626C PUSH2 0x636B 0x22 KECCAK256 PUSH20 0x74726F6B653D22626C61636B22207374726F6B65 0x2D PUSH24 0x696474683D2231222F3E0A3C7061746820643D224D203538 CALLDATACOPY 0x2E CALLVALUE ORIGIN CALLER CALLVALUE CALLDATACOPY CALLDATACOPY CODESIZE CODECOPY ORIGIN BALANCE CALLDATALOAD CODECOPY CALLDATACOPY KECCAK256 CALLDATASIZE CALLDATALOAD CALLER 0x2E BALANCE ADDRESS CALLDATACOPY CALLVALUE ADDRESS ORIGIN ORIGIN CODECOPY CALLDATALOAD CALLDATACOPY CALLER CALLDATASIZE CODESIZE KECCAK256 COINBASE KECCAK256 BALANCE CALLDATASIZE ADDRESS KECCAK256 BALANCE CALLDATASIZE ADDRESS KECCAK256 ADDRESS KECCAK256 ADDRESS KECCAK256 BALANCE KECCAK256 CALLDATALOAD CALLDATACOPY CALLER 0x2E ORIGIN ORIGIN CODECOPY CALLER CALLVALUE CODECOPY BALANCE CALLDATACOPY CODESIZE CALLVALUE BALANCE CALLVALUE CALLVALUE KECCAK256 CALLDATASIZE CALLDATALOAD CODECOPY 0x2E CODESIZE ORIGIN ADDRESS CALLDATACOPY ORIGIN CALLDATALOAD ORIGIN ADDRESS BALANCE CODESIZE ADDRESS CALLDATALOAD CODECOPY KECCAK256 0x4C KECCAK256 CALLDATASIZE ADDRESS CALLER 0x2E CODESIZE CALLVALUE CALLVALUE ADDRESS ORIGIN CALLER CALLDATACOPY CALLDATASIZE CALLDATACOPY CALLDATASIZE ORIGIN BALANCE CALLDATASIZE KECCAK256 CALLDATACOPY CALLER CALLER 0x2E CALLDATACOPY CALLER BALANCE ADDRESS CODESIZE CALLDATACOPY CODESIZE ADDRESS ORIGIN CALLDATACOPY ADDRESS CODESIZE CODESIZE KECCAK256 COINBASE KECCAK256 ORIGIN CALLVALUE ADDRESS KECCAK256 ORIGIN CALLVALUE ADDRESS KECCAK256 ADDRESS KECCAK256 ADDRESS KECCAK256 ADDRESS KECCAK256 CALLDATASIZE ORIGIN CALLDATALOAD 0x2E BALANCE CALLER CALLDATALOAD ORIGIN BALANCE CALLDATASIZE CODESIZE CALLER CODESIZE ORIGIN CALLER CODECOPY CALLVALUE KECCAK256 CALLDATACOPY ORIGIN CALLER 0x2E CALLDATASIZE CALLDATASIZE BALANCE BALANCE ADDRESS CALLER CALLVALUE CALLVALUE CALLER CALLDATASIZE ADDRESS CALLDATALOAD ORIGIN KECCAK256 GAS 0x22 KECCAK256 PUSH7 0x696C6C3D22626C PUSH2 0x636B 0x22 KECCAK256 PUSH20 0x74726F6B653D22626C61636B22207374726F6B65 0x2D PUSH24 0x696474683D2231222F3E0A3C7061746820643D224D203636 CALLDATALOAD 0x2E ADDRESS CALLDATACOPY CALLER CALLER CALLDATACOPY ORIGIN CODECOPY CALLVALUE CALLDATASIZE ADDRESS CALLER CALLDATASIZE KECCAK256 CODESIZE CODESIZE BALANCE 0x2E CALLDATALOAD CALLDATALOAD BALANCE CODESIZE BALANCE CALLER ADDRESS ADDRESS CALLVALUE CALLDATALOAD BALANCE CALLVALUE CODESIZE KECCAK256 COINBASE KECCAK256 CALLVALUE ADDRESS ADDRESS KECCAK256 CALLVALUE ADDRESS ADDRESS KECCAK256 ADDRESS KECCAK256 ADDRESS KECCAK256 BALANCE KECCAK256 CALLDATASIZE ORIGIN CODESIZE 0x2E BALANCE BALANCE CALLER CODESIZE CALLDATACOPY ADDRESS CODECOPY ADDRESS BALANCE CALLDATACOPY CODESIZE CALLVALUE CODECOPY KECCAK256 CODESIZE CODECOPY CALLVALUE 0x2E CALLDATACOPY CALLDATACOPY CALLDATASIZE BALANCE CALLER CALLVALUE ORIGIN CODECOPY ORIGIN CODESIZE CODESIZE CALLER CALLDATASIZE KECCAK256 0x4C KECCAK256 CALLDATASIZE CALLDATALOAD BALANCE 0x2E CALLER CALLER CALLDATASIZE CALLDATASIZE CALLVALUE CALLDATALOAD ADDRESS CODESIZE ORIGIN BALANCE CALLVALUE BALANCE CODECOPY KECCAK256 CODECOPY CALLDATACOPY BALANCE 0x2E CALLER CALLER BALANCE CALLER CALLDATASIZE BALANCE BALANCE CALLDATALOAD BALANCE CALLVALUE CALLDATASIZE ADDRESS ORIGIN KECCAK256 COINBASE KECCAK256 CALLVALUE CODESIZE ADDRESS KECCAK256 CALLVALUE CODESIZE ADDRESS KECCAK256 ADDRESS KECCAK256 ADDRESS KECCAK256 ADDRESS KECCAK256 CALLDATASIZE CODECOPY CALLDATALOAD 0x2E CALLDATASIZE CODESIZE CODESIZE ADDRESS CALLVALUE CALLDATACOPY CALLDATALOAD CALLER CALLDATALOAD ORIGIN CALLVALUE CALLER ORIGIN KECCAK256 CODECOPY CALLDATALOAD CALLDATALOAD 0x2E CALLVALUE CALLDATASIZE ORIGIN BALANCE CALLDATACOPY CALLDATALOAD CALLDATASIZE ADDRESS CALLDATALOAD CALLVALUE BALANCE CALLDATACOPY CALLDATACOPY KECCAK256 GAS 0x22 KECCAK256 PUSH7 0x696C6C3D22626C PUSH2 0x636B 0x22 KECCAK256 PUSH20 0x74726F6B653D22626C61636B22207374726F6B65 0x2D PUSH24 0x696474683D2231222F3E0A3C7061746820643D224D203633 CALLVALUE 0x2E CALLVALUE CALLDATALOAD CODESIZE CALLDATASIZE CODECOPY CODESIZE CALLER CALLDATALOAD CALLDATASIZE CODESIZE ORIGIN CODESIZE CODESIZE KECCAK256 CODESIZE ADDRESS CALLDATACOPY 0x2E CALLDATASIZE CALLVALUE BALANCE CALLVALUE CALLDATALOAD ADDRESS CALLVALUE ADDRESS CALLER CALLDATASIZE BALANCE BALANCE CODESIZE KECCAK256 COINBASE KECCAK256 CALLER ORIGIN ADDRESS KECCAK256 CALLER ORIGIN ADDRESS KECCAK256 ADDRESS KECCAK256 ADDRESS KECCAK256 BALANCE KECCAK256 CALLDATASIZE ADDRESS CALLVALUE 0x2E CODESIZE CODECOPY BALANCE ADDRESS CODECOPY CALLDATASIZE CALLDATACOPY ORIGIN BALANCE CALLVALUE ORIGIN CODESIZE KECCAK256 CODESIZE BALANCE CODESIZE 0x2E ORIGIN ORIGIN ADDRESS CODECOPY ADDRESS CALLDATACOPY CALLVALUE CALLER CALLVALUE CALLER ADDRESS CALLDATASIZE CODESIZE KECCAK256 0x4C KECCAK256 CALLDATASIZE ORIGIN CODESIZE 0x2E BALANCE BALANCE CALLER CODESIZE CALLDATACOPY ADDRESS CODECOPY ADDRESS BALANCE CALLDATACOPY CODESIZE CALLVALUE CODECOPY KECCAK256 CODESIZE CODECOPY CALLVALUE 0x2E CALLDATACOPY CALLDATACOPY CALLDATASIZE BALANCE CALLER CALLVALUE ORIGIN CODECOPY ORIGIN CODESIZE CODESIZE CALLER CALLDATASIZE KECCAK256 COINBASE KECCAK256 CALLVALUE ADDRESS ADDRESS KECCAK256 CALLVALUE ADDRESS ADDRESS KECCAK256 ADDRESS KECCAK256 ADDRESS KECCAK256 ADDRESS KECCAK256 CALLDATASIZE CALLDATASIZE CALLDATALOAD 0x2E ADDRESS CALLDATACOPY CALLER CALLER CALLDATACOPY ORIGIN CODECOPY CALLVALUE CALLDATASIZE ADDRESS CALLER CALLDATASIZE KECCAK256 CODESIZE CODESIZE BALANCE 0x2E CALLDATALOAD CALLDATALOAD BALANCE CODESIZE BALANCE CALLER ADDRESS ADDRESS CALLVALUE CALLDATALOAD BALANCE CALLVALUE CODESIZE KECCAK256 GAS 0x22 KECCAK256 PUSH7 0x696C6C3D22626C PUSH2 0x636B 0x22 KECCAK256 PUSH20 0x74726F6B653D22626C61636B22207374726F6B65 0x2D PUSH24 0x696474683D2231222F3E0A3C7061746820643D224D203630 CALLER 0x2E CODESIZE CALLVALUE CALLVALUE ADDRESS ORIGIN CALLER CALLDATACOPY CALLDATASIZE CALLDATACOPY CALLDATASIZE ORIGIN BALANCE CALLDATASIZE KECCAK256 CALLDATACOPY CALLER CALLER 0x2E CALLDATACOPY CALLER BALANCE ADDRESS CODESIZE CALLDATACOPY CODESIZE ADDRESS ORIGIN CALLDATACOPY ADDRESS CODESIZE CODESIZE KECCAK256 COINBASE KECCAK256 ORIGIN CALLVALUE ADDRESS KECCAK256 ORIGIN CALLVALUE ADDRESS KECCAK256 ADDRESS KECCAK256 ADDRESS KECCAK256 BALANCE KECCAK256 CALLDATALOAD CODESIZE BALANCE 0x2E CALLDATASIZE CALLDATASIZE CODESIZE CALLER ORIGIN ORIGIN CALLDATALOAD CALLVALUE BALANCE ADDRESS CALLDATACOPY ADDRESS CODECOPY KECCAK256 CALLDATACOPY CALLVALUE BALANCE 0x2E CALLDATASIZE CALLDATASIZE CALLDATALOAD CALLDATASIZE CODESIZE ADDRESS CALLDATALOAD CALLDATACOPY CALLDATALOAD CALLDATACOPY CALLER ADDRESS BALANCE KECCAK256 0x4C KECCAK256 CALLDATASIZE ADDRESS CALLVALUE 0x2E CODESIZE CODECOPY BALANCE ADDRESS CODECOPY CALLDATASIZE CALLDATACOPY ORIGIN BALANCE CALLVALUE ORIGIN CODESIZE KECCAK256 CODESIZE BALANCE CODESIZE 0x2E ORIGIN ORIGIN ADDRESS CODECOPY ADDRESS CALLDATACOPY CALLVALUE CALLER CALLVALUE CALLER ADDRESS CALLDATASIZE CODESIZE KECCAK256 COINBASE KECCAK256 CALLER ORIGIN ADDRESS KECCAK256 CALLER ORIGIN ADDRESS KECCAK256 ADDRESS KECCAK256 ADDRESS KECCAK256 ADDRESS KECCAK256 CALLDATASIZE CALLER CALLVALUE 0x2E CALLVALUE CALLDATALOAD CODESIZE CALLDATASIZE CODECOPY CODESIZE CALLER CALLDATALOAD CALLDATASIZE CODESIZE ORIGIN CODESIZE CODESIZE KECCAK256 CODESIZE ADDRESS CALLDATACOPY 0x2E CALLDATASIZE CALLVALUE BALANCE CALLVALUE CALLDATALOAD ADDRESS CALLVALUE ADDRESS CALLER CALLDATASIZE BALANCE BALANCE CODESIZE KECCAK256 GAS 0x22 KECCAK256 PUSH7 0x696C6C3D22626C PUSH2 0x636B 0x22 KECCAK256 PUSH20 0x74726F6B653D22626C61636B22207374726F6B65 0x2D PUSH24 0x696474683D2231222F3E0A3C7061746820643D224D203537 CALLER 0x2E ORIGIN ORIGIN CODECOPY CALLER CALLVALUE CODECOPY BALANCE CALLDATACOPY CODESIZE CALLVALUE BALANCE CALLVALUE CALLVALUE KECCAK256 CALLDATASIZE CALLDATALOAD CODECOPY 0x2E CODESIZE ORIGIN ADDRESS CALLDATACOPY ORIGIN CALLDATALOAD ORIGIN ADDRESS BALANCE CODESIZE ADDRESS CALLDATALOAD CODECOPY KECCAK256 COINBASE KECCAK256 BALANCE CALLDATASIZE ADDRESS KECCAK256 BALANCE CALLDATASIZE ADDRESS KECCAK256 ADDRESS KECCAK256 ADDRESS KECCAK256 BALANCE KECCAK256 CALLDATALOAD CALLDATALOAD CODESIZE 0x2E CALLVALUE CALLVALUE CALLDATALOAD CALLDATALOAD CALLVALUE CODESIZE CALLER CALLDATASIZE ADDRESS CALLDATACOPY BALANCE CALLER CODECOPY KECCAK256 CALLDATASIZE CALLDATASIZE CALLDATALOAD 0x2E BALANCE BALANCE ADDRESS CALLVALUE CALLDATALOAD CALLER CALLDATACOPY BALANCE CALLDATACOPY BALANCE CALLDATALOAD CALLER CALLVALUE KECCAK256 0x4C KECCAK256 CALLDATALOAD CODESIZE BALANCE 0x2E CALLDATASIZE CALLDATASIZE CODESIZE CALLER ORIGIN ORIGIN CALLDATALOAD CALLVALUE BALANCE ADDRESS CALLDATACOPY ADDRESS CODECOPY KECCAK256 CALLDATACOPY CALLVALUE BALANCE 0x2E CALLDATASIZE CALLDATASIZE CALLDATALOAD CALLDATASIZE CODESIZE ADDRESS CALLDATALOAD CALLDATACOPY CALLDATALOAD CALLDATACOPY CALLER ADDRESS BALANCE KECCAK256 COINBASE KECCAK256 ORIGIN CALLVALUE ADDRESS KECCAK256 ORIGIN CALLVALUE ADDRESS KECCAK256 ADDRESS KECCAK256 ADDRESS KECCAK256 ADDRESS KECCAK256 CALLDATASIZE ADDRESS CALLER 0x2E CODESIZE CALLVALUE CALLVALUE ADDRESS ORIGIN CALLER CALLDATACOPY CALLDATASIZE CALLDATACOPY CALLDATASIZE ORIGIN BALANCE CALLDATASIZE KECCAK256 CALLDATACOPY CALLER CALLER 0x2E CALLDATACOPY CALLER BALANCE ADDRESS CODESIZE CALLDATACOPY CODESIZE ADDRESS ORIGIN CALLDATACOPY ADDRESS CODESIZE CODESIZE KECCAK256 GAS 0x22 KECCAK256 PUSH7 0x696C6C3D22626C PUSH2 0x636B 0x22 KECCAK256 PUSH20 0x74726F6B653D22626C61636B22207374726F6B65 0x2D PUSH24 0x696474683D2231222F3E0A3C7061746820643D224D203632 CODESIZE 0x2E BALANCE BALANCE CALLER CODESIZE CALLDATACOPY ADDRESS CODECOPY ADDRESS BALANCE CALLDATACOPY CODESIZE CALLVALUE CODECOPY KECCAK256 CODESIZE CODECOPY CALLVALUE 0x2E CALLDATACOPY CALLDATACOPY CALLDATASIZE BALANCE CALLER CALLVALUE ORIGIN CODECOPY ORIGIN CODESIZE CODESIZE CALLER CALLDATASIZE KECCAK256 COINBASE KECCAK256 CALLVALUE ADDRESS ADDRESS KECCAK256 CALLVALUE ADDRESS ADDRESS KECCAK256 ADDRESS KECCAK256 ADDRESS KECCAK256 BALANCE KECCAK256 CALLDATALOAD CODECOPY ADDRESS 0x2E ADDRESS CALLER CALLDATASIZE BALANCE ORIGIN CODESIZE CODESIZE ADDRESS CALLDATASIZE CALLVALUE CALLDATALOAD BALANCE ORIGIN KECCAK256 CODECOPY ADDRESS CALLVALUE 0x2E CALLER BALANCE CALLVALUE BALANCE BALANCE ORIGIN BALANCE CALLDATASIZE BALANCE ORIGIN CODECOPY ORIGIN ORIGIN KECCAK256 0x4C KECCAK256 CALLDATASIZE ADDRESS CALLDATALOAD 0x2E CALLDATASIZE CALLVALUE CALLER CALLER CALLDATALOAD CALLVALUE CALLDATALOAD CALLDATASIZE CALLDATACOPY CALLDATACOPY CALLVALUE BALANCE CALLDATALOAD KECCAK256 CODECOPY CODESIZE ORIGIN 0x2E CALLDATACOPY CALLDATACOPY CALLDATASIZE CODECOPY CALLER CALLVALUE CALLDATALOAD CODECOPY CALLER CALLDATALOAD CALLDATALOAD ADDRESS CALLDATALOAD KECCAK256 COINBASE KECCAK256 CALLVALUE CODESIZE ADDRESS KECCAK256 CALLVALUE CODESIZE ADDRESS KECCAK256 ADDRESS KECCAK256 ADDRESS KECCAK256 ADDRESS KECCAK256 CALLDATASIZE CALLDATALOAD BALANCE 0x2E CALLER CALLER CALLDATASIZE CALLDATASIZE CALLVALUE CALLDATALOAD ADDRESS CODESIZE ORIGIN BALANCE CALLVALUE BALANCE CODECOPY KECCAK256 CODECOPY CALLDATACOPY BALANCE 0x2E CALLER CALLER BALANCE CALLER CALLDATASIZE BALANCE BALANCE CALLDATALOAD BALANCE CALLVALUE CALLDATASIZE ADDRESS ORIGIN KECCAK256 GAS 0x22 KECCAK256 PUSH7 0x696C6C3D22626C PUSH2 0x636B 0x22 KECCAK256 PUSH20 0x74726F6B653D22626C61636B22207374726F6B65 0x2D PUSH24 0x696474683D2231222F3E0A3C7061746820643D224D203630 CALLVALUE 0x2E CODESIZE CODECOPY BALANCE ADDRESS CODECOPY CALLDATASIZE CALLDATACOPY ORIGIN BALANCE CALLVALUE ORIGIN CODESIZE KECCAK256 CODESIZE BALANCE CODESIZE 0x2E ORIGIN ORIGIN ADDRESS CODECOPY ADDRESS CALLDATACOPY CALLVALUE CALLER CALLVALUE CALLER ADDRESS CALLDATASIZE CODESIZE KECCAK256 COINBASE KECCAK256 CALLER ORIGIN ADDRESS KECCAK256 CALLER ORIGIN ADDRESS KECCAK256 ADDRESS KECCAK256 ADDRESS KECCAK256 BALANCE KECCAK256 CALLDATALOAD CALLDATACOPY CALLVALUE 0x2E CALLVALUE ORIGIN CODESIZE CODECOPY ADDRESS CALLER ADDRESS CALLVALUE CALLDATALOAD BALANCE CALLDATASIZE BALANCE KECCAK256 CODESIZE ORIGIN CALLDATALOAD 0x2E CODESIZE CALLDATALOAD BALANCE ORIGIN CODESIZE CODECOPY CALLDATACOPY ORIGIN CODECOPY ADDRESS CALLER CALLER CALLDATACOPY KECCAK256 0x4C KECCAK256 CALLDATALOAD CODECOPY ADDRESS 0x2E ADDRESS CALLER CALLDATASIZE BALANCE ORIGIN CODESIZE CODESIZE ADDRESS CALLDATASIZE CALLVALUE CALLDATALOAD BALANCE ORIGIN KECCAK256 CODECOPY ADDRESS CALLVALUE 0x2E CALLER BALANCE CALLVALUE BALANCE BALANCE ORIGIN BALANCE CALLDATASIZE BALANCE ORIGIN CODECOPY ORIGIN ORIGIN KECCAK256 COINBASE KECCAK256 CALLVALUE ADDRESS ADDRESS KECCAK256 CALLVALUE ADDRESS ADDRESS KECCAK256 ADDRESS KECCAK256 ADDRESS KECCAK256 ADDRESS KECCAK256 CALLDATASIZE ORIGIN CODESIZE 0x2E BALANCE BALANCE CALLER CODESIZE CALLDATACOPY ADDRESS CODECOPY ADDRESS BALANCE CALLDATACOPY CODESIZE CALLVALUE CODECOPY KECCAK256 CODESIZE CODECOPY CALLVALUE 0x2E CALLDATACOPY CALLDATACOPY CALLDATASIZE BALANCE CALLER CALLVALUE ORIGIN CODECOPY ORIGIN CODESIZE CODESIZE CALLER CALLDATASIZE KECCAK256 GAS 0x22 KECCAK256 PUSH7 0x696C6C3D22626C PUSH2 0x636B 0x22 KECCAK256 PUSH20 0x74726F6B653D22626C61636B22207374726F6B65 0x2D PUSH24 0x696474683D2231222F3E0A3C7061746820643D224D203538 BALANCE 0x2E CALLDATASIZE CALLDATASIZE CODESIZE CALLER ORIGIN ORIGIN CALLDATALOAD CALLVALUE BALANCE ADDRESS CALLDATACOPY ADDRESS CODECOPY KECCAK256 CALLDATACOPY CALLVALUE BALANCE 0x2E CALLDATASIZE CALLDATASIZE CALLDATALOAD CALLDATASIZE CODESIZE ADDRESS CALLDATALOAD CALLDATACOPY CALLDATALOAD CALLDATACOPY CALLER ADDRESS BALANCE KECCAK256 COINBASE KECCAK256 ORIGIN CALLVALUE ADDRESS KECCAK256 ORIGIN CALLVALUE ADDRESS KECCAK256 ADDRESS KECCAK256 ADDRESS KECCAK256 BALANCE KECCAK256 CALLDATALOAD CALLDATALOAD CODESIZE 0x2E CODESIZE ORIGIN BALANCE CALLDATASIZE CALLDATACOPY CALLDATACOPY ORIGIN CODESIZE CALLER CODESIZE CALLDATACOPY ADDRESS CALLDATACOPY KECCAK256 CALLDATACOPY CALLVALUE CALLDATACOPY 0x2E CALLER CODESIZE CODESIZE CALLVALUE CALLDATASIZE CALLDATACOPY ORIGIN CODECOPY CALLDATASIZE CALLDATACOPY CALLDATACOPY CALLDATALOAD CALLER KECCAK256 0x4C KECCAK256 CALLDATALOAD CALLDATACOPY CALLVALUE 0x2E CALLVALUE ORIGIN CODESIZE CODECOPY ADDRESS CALLER ADDRESS CALLVALUE CALLDATALOAD BALANCE CALLDATASIZE BALANCE KECCAK256 CODESIZE ORIGIN CALLDATALOAD 0x2E CODESIZE CALLDATALOAD BALANCE ORIGIN CODESIZE CODECOPY CALLDATACOPY ORIGIN CODECOPY ADDRESS CALLER CALLER CALLDATACOPY KECCAK256 COINBASE KECCAK256 CALLER ORIGIN ADDRESS KECCAK256 CALLER ORIGIN ADDRESS KECCAK256 ADDRESS KECCAK256 ADDRESS KECCAK256 ADDRESS KECCAK256 CALLDATASIZE ADDRESS CALLVALUE 0x2E CODESIZE CODECOPY BALANCE ADDRESS CODECOPY CALLDATASIZE CALLDATACOPY ORIGIN BALANCE CALLVALUE ORIGIN CODESIZE KECCAK256 CODESIZE BALANCE CODESIZE 0x2E ORIGIN ORIGIN ADDRESS CODECOPY ADDRESS CALLDATACOPY CALLVALUE CALLER CALLVALUE CALLER ADDRESS CALLDATASIZE CODESIZE KECCAK256 GAS 0x22 KECCAK256 PUSH7 0x696C6C3D22626C PUSH2 0x636B 0x22 KECCAK256 PUSH20 0x74726F6B653D22626C61636B22207374726F6B65 0x2D PUSH24 0x696474683D2231222F3E0A3C7061746820643D224D203535 CODESIZE 0x2E CALLVALUE CALLVALUE CALLDATALOAD CALLDATALOAD CALLVALUE CODESIZE CALLER CALLDATASIZE ADDRESS CALLDATACOPY BALANCE CALLER CODECOPY KECCAK256 CALLDATASIZE CALLDATASIZE CALLDATALOAD 0x2E BALANCE BALANCE ADDRESS CALLVALUE CALLDATALOAD CALLER CALLDATACOPY BALANCE CALLDATACOPY BALANCE CALLDATALOAD CALLER CALLVALUE KECCAK256 COINBASE KECCAK256 BALANCE CALLDATASIZE ADDRESS KECCAK256 BALANCE CALLDATASIZE ADDRESS KECCAK256 ADDRESS KECCAK256 ADDRESS KECCAK256 BALANCE KECCAK256 CALLDATALOAD CALLVALUE CALLER 0x2E ORIGIN BALANCE CALLVALUE CALLVALUE CALLDATALOAD BALANCE CALLDATALOAD ORIGIN ORIGIN CALLDATALOAD CODESIZE ADDRESS CALLDATALOAD KECCAK256 CALLDATASIZE CALLDATASIZE CODESIZE 0x2E CODECOPY ORIGIN CALLDATALOAD CALLDATASIZE CALLVALUE CALLVALUE CODESIZE CALLDATASIZE CALLVALUE CALLDATALOAD BALANCE CALLDATASIZE CODECOPY KECCAK256 0x4C KECCAK256 CALLDATALOAD CALLDATALOAD CODESIZE 0x2E CODESIZE ORIGIN BALANCE CALLDATASIZE CALLDATACOPY CALLDATACOPY ORIGIN CODESIZE CALLER CODESIZE CALLDATACOPY ADDRESS CALLDATACOPY KECCAK256 CALLDATACOPY CALLVALUE CALLDATACOPY 0x2E CALLER CODESIZE CODESIZE CALLVALUE CALLDATASIZE CALLDATACOPY ORIGIN CODECOPY CALLDATASIZE CALLDATACOPY CALLDATACOPY CALLDATALOAD CALLER KECCAK256 COINBASE KECCAK256 ORIGIN CALLVALUE ADDRESS KECCAK256 ORIGIN CALLVALUE ADDRESS KECCAK256 ADDRESS KECCAK256 ADDRESS KECCAK256 ADDRESS KECCAK256 CALLDATALOAD CODESIZE BALANCE 0x2E CALLDATASIZE CALLDATASIZE CODESIZE CALLER ORIGIN ORIGIN CALLDATALOAD CALLVALUE BALANCE ADDRESS CALLDATACOPY ADDRESS CODECOPY KECCAK256 CALLDATACOPY CALLVALUE BALANCE 0x2E CALLDATASIZE CALLDATASIZE CALLDATALOAD CALLDATASIZE CODESIZE ADDRESS CALLDATALOAD CALLDATACOPY CALLDATALOAD CALLDATACOPY CALLER ADDRESS BALANCE KECCAK256 GAS 0x22 KECCAK256 PUSH7 0x696C6C3D22626C PUSH2 0x636B 0x22 KECCAK256 PUSH20 0x74726F6B653D22626C61636B22207374726F6B65 0x2D PUSH24 0x696474683D2231222F3E0A3C7061746820643D224D203539 ADDRESS 0x2E ADDRESS CALLER CALLDATASIZE BALANCE ORIGIN CODESIZE CODESIZE ADDRESS CALLDATASIZE CALLVALUE CALLDATALOAD BALANCE CALLVALUE KECCAK256 CODECOPY ADDRESS CALLVALUE 0x2E CALLER BALANCE CALLVALUE BALANCE BALANCE ORIGIN BALANCE CALLDATASIZE BALANCE ORIGIN CODECOPY ORIGIN ORIGIN KECCAK256 COINBASE KECCAK256 CALLVALUE ADDRESS ADDRESS KECCAK256 CALLVALUE ADDRESS ADDRESS KECCAK256 ADDRESS KECCAK256 ADDRESS KECCAK256 BALANCE KECCAK256 CALLDATALOAD CALLDATALOAD BALANCE 0x2E ORIGIN ADDRESS CALLDATASIZE CODESIZE CALLDATALOAD CALLDATASIZE BALANCE CALLER BALANCE CODESIZE ORIGIN CALLVALUE CALLER KECCAK256 CODECOPY BALANCE ADDRESS 0x2E ADDRESS CALLDATACOPY CALLER CODESIZE CODECOPY ADDRESS CALLDATASIZE CALLDATASIZE CODESIZE CODESIZE CALLDATACOPY CODESIZE CALLDATACOPY KECCAK256 0x4C KECCAK256 CALLDATALOAD CALLDATALOAD CODECOPY 0x2E ADDRESS CALLVALUE CODESIZE ORIGIN ORIGIN CALLDATACOPY CALLER CALLDATALOAD CODESIZE BALANCE CODESIZE CODECOPY BALANCE KECCAK256 CODECOPY CODESIZE CODECOPY 0x2E CALLDATASIZE CODESIZE CODESIZE CALLDATASIZE CALLDATASIZE CODESIZE CODESIZE ADDRESS ORIGIN CALLDATASIZE CALLDATALOAD CALLVALUE CALLDATALOAD KECCAK256 COINBASE KECCAK256 CALLVALUE CODESIZE ADDRESS KECCAK256 CALLVALUE CODESIZE ADDRESS KECCAK256 ADDRESS KECCAK256 ADDRESS KECCAK256 ADDRESS KECCAK256 CALLDATASIZE ADDRESS CALLDATALOAD 0x2E CALLDATASIZE CALLVALUE CALLER CALLER CALLDATALOAD CALLVALUE CALLDATALOAD CALLDATASIZE CALLDATACOPY CALLDATACOPY CALLVALUE BALANCE CALLDATACOPY KECCAK256 CODECOPY CODESIZE ORIGIN 0x2E CALLDATACOPY CALLDATACOPY CALLDATASIZE CODECOPY CALLER CALLVALUE CALLDATALOAD CODECOPY CALLER CALLDATALOAD CALLDATALOAD ADDRESS CALLDATALOAD KECCAK256 GAS 0x22 KECCAK256 PUSH7 0x696C6C3D22626C PUSH2 0x636B 0x22 KECCAK256 PUSH20 0x74726F6B653D22626C61636B22207374726F6B65 0x2D PUSH24 0x696474683D2231222F3E0A3C7061746820643D224D203537 CALLVALUE 0x2E CALLVALUE ORIGIN CODESIZE CODECOPY ADDRESS CALLER ADDRESS CALLVALUE CALLDATALOAD BALANCE CALLDATASIZE BALANCE ORIGIN KECCAK256 CODESIZE ORIGIN CALLDATALOAD 0x2E CODESIZE CALLDATALOAD BALANCE ORIGIN CODESIZE CODECOPY CALLDATACOPY ORIGIN CODECOPY ADDRESS CALLER CALLER CALLDATACOPY KECCAK256 COINBASE KECCAK256 CALLER ORIGIN ADDRESS KECCAK256 CALLER ORIGIN ADDRESS KECCAK256 ADDRESS KECCAK256 ADDRESS KECCAK256 BALANCE KECCAK256 CALLDATALOAD CALLVALUE CALLER 0x2E CALLER CALLDATASIZE CALLDATALOAD CALLVALUE CODESIZE CALLVALUE CODECOPY ADDRESS CALLDATALOAD CALLVALUE CALLDATALOAD CODECOPY CALLVALUE KECCAK256 CODESIZE CALLER ADDRESS 0x2E CALLVALUE CALLDATALOAD CODECOPY BALANCE BALANCE ORIGIN CALLDATALOAD CALLER CALLDATALOAD BALANCE ADDRESS CALLER KECCAK256 0x4C KECCAK256 CALLDATALOAD CALLDATALOAD BALANCE 0x2E ORIGIN ADDRESS CALLDATASIZE CODESIZE CALLDATALOAD CALLDATASIZE BALANCE CALLER BALANCE CODESIZE ORIGIN CALLVALUE CALLER KECCAK256 CODECOPY BALANCE ADDRESS 0x2E ADDRESS CALLDATACOPY CALLER CODESIZE CODECOPY ADDRESS CALLDATASIZE CALLDATASIZE CODESIZE CODESIZE CALLDATACOPY CODESIZE CALLDATACOPY KECCAK256 COINBASE KECCAK256 CALLVALUE ADDRESS ADDRESS KECCAK256 CALLVALUE ADDRESS ADDRESS KECCAK256 ADDRESS KECCAK256 ADDRESS KECCAK256 ADDRESS KECCAK256 CALLDATALOAD CODECOPY ADDRESS 0x2E ADDRESS CALLER CALLDATASIZE BALANCE ORIGIN CODESIZE CODESIZE ADDRESS CALLDATASIZE CALLVALUE CALLDATALOAD BALANCE CALLVALUE KECCAK256 CODECOPY ADDRESS CALLVALUE 0x2E CALLER BALANCE CALLVALUE BALANCE BALANCE ORIGIN BALANCE CALLDATASIZE BALANCE ORIGIN CODECOPY ORIGIN ORIGIN KECCAK256 GAS 0x22 KECCAK256 PUSH7 0x696C6C3D22626C PUSH2 0x636B 0x22 KECCAK256 PUSH20 0x74726F6B653D22626C61636B22207374726F6B65 0x2D PUSH24 0x696474683D2231222F3E0A3C7061746820643D224D203535 CODESIZE 0x2E CODESIZE ORIGIN BALANCE CALLDATASIZE CALLDATACOPY CALLDATACOPY ORIGIN CODESIZE CALLER CODESIZE CALLDATACOPY ADDRESS CODESIZE KECCAK256 CALLDATACOPY CALLVALUE CALLDATACOPY 0x2E CALLER CODESIZE CODESIZE CALLVALUE CALLDATASIZE CALLDATACOPY ORIGIN CODECOPY CALLDATASIZE CALLDATACOPY CALLDATACOPY CALLDATALOAD CALLER KECCAK256 COINBASE KECCAK256 ORIGIN CALLVALUE ADDRESS KECCAK256 ORIGIN CALLVALUE ADDRESS KECCAK256 ADDRESS KECCAK256 ADDRESS KECCAK256 BALANCE KECCAK256 CALLDATALOAD CALLER CALLDATALOAD 0x2E CALLDATALOAD ORIGIN CALLVALUE BALANCE BALANCE CALLER CALLDATASIZE CALLDATACOPY CODECOPY ADDRESS CODECOPY CALLVALUE CALLDATASIZE KECCAK256 CALLDATACOPY CALLDATALOAD ADDRESS 0x2E CODESIZE CALLVALUE CALLVALUE CALLER CALLER CALLVALUE CALLVALUE ADDRESS BALANCE CALLER ORIGIN CALLDATACOPY CALLER KECCAK256 0x4C KECCAK256 CALLDATALOAD CALLVALUE CALLER 0x2E CALLER CALLDATASIZE CALLDATALOAD CALLVALUE CODESIZE CALLVALUE CODECOPY ADDRESS CALLDATALOAD CALLVALUE CALLDATALOAD CODECOPY CALLVALUE KECCAK256 CODESIZE CALLER ADDRESS 0x2E CALLVALUE CALLDATALOAD CODECOPY BALANCE BALANCE ORIGIN CALLDATALOAD CALLER CALLDATALOAD BALANCE ADDRESS CALLER KECCAK256 COINBASE KECCAK256 CALLER ORIGIN ADDRESS KECCAK256 CALLER ORIGIN ADDRESS KECCAK256 ADDRESS KECCAK256 ADDRESS KECCAK256 ADDRESS KECCAK256 CALLDATALOAD CALLDATACOPY CALLVALUE 0x2E CALLVALUE ORIGIN CODESIZE CODECOPY ADDRESS CALLER ADDRESS CALLVALUE CALLDATALOAD BALANCE CALLDATASIZE BALANCE ORIGIN KECCAK256 CODESIZE ORIGIN CALLDATALOAD 0x2E CODESIZE CALLDATALOAD BALANCE ORIGIN CODESIZE CODECOPY CALLDATACOPY ORIGIN CODECOPY ADDRESS CALLER CALLER CALLDATACOPY KECCAK256 GAS 0x22 KECCAK256 PUSH7 0x696C6C3D22626C PUSH2 0x636B 0x22 KECCAK256 PUSH20 0x74726F6B653D22626C61636B22207374726F6B65 0x2D PUSH24 0x696474683D2231222F3E0A3C7061746820643D224D203534 CALLER 0x2E ORIGIN BALANCE CALLVALUE CALLVALUE CALLDATALOAD BALANCE CALLDATALOAD ORIGIN ORIGIN CALLDATALOAD CODESIZE ADDRESS CALLDATASIZE KECCAK256 CALLDATASIZE CALLDATASIZE CODESIZE 0x2E CODECOPY ORIGIN CALLDATALOAD CALLDATASIZE CALLVALUE CALLVALUE CODESIZE CALLDATASIZE CALLVALUE CALLDATALOAD BALANCE CALLDATASIZE CODECOPY KECCAK256 COINBASE KECCAK256 BALANCE CALLDATASIZE ADDRESS KECCAK256 BALANCE CALLDATASIZE ADDRESS KECCAK256 ADDRESS KECCAK256 ADDRESS KECCAK256 BALANCE KECCAK256 CALLDATALOAD ORIGIN CALLDATACOPY 0x2E CALLDATASIZE CODESIZE ORIGIN CALLDATACOPY CALLVALUE ORIGIN CALLVALUE CALLDATALOAD ORIGIN CALLDATACOPY ORIGIN CODECOPY CALLDATACOPY KECCAK256 CALLDATASIZE CALLDATACOPY BALANCE 0x2E ORIGIN ORIGIN CODECOPY CALLDATALOAD CALLDATALOAD CALLDATASIZE ORIGIN CALLDATASIZE CALLDATACOPY CALLDATALOAD CALLDATALOAD BALANCE CALLDATALOAD KECCAK256 0x4C KECCAK256 CALLDATALOAD CALLER CALLDATALOAD 0x2E CALLDATALOAD ORIGIN CALLVALUE BALANCE BALANCE CALLER CALLDATASIZE CALLDATACOPY CODECOPY ADDRESS CODECOPY CALLVALUE CALLDATASIZE KECCAK256 CALLDATACOPY CALLDATALOAD ADDRESS 0x2E CODESIZE CALLVALUE CALLVALUE CALLER CALLER CALLVALUE CALLVALUE ADDRESS BALANCE CALLER ORIGIN CALLDATACOPY CALLER KECCAK256 COINBASE KECCAK256 ORIGIN CALLVALUE ADDRESS KECCAK256 ORIGIN CALLVALUE ADDRESS KECCAK256 ADDRESS KECCAK256 ADDRESS KECCAK256 ADDRESS KECCAK256 CALLDATALOAD CALLDATALOAD CODESIZE 0x2E CODESIZE ORIGIN BALANCE CALLDATASIZE CALLDATACOPY CALLDATACOPY ORIGIN CODESIZE CALLER CODESIZE CALLDATACOPY ADDRESS CODESIZE KECCAK256 CALLDATACOPY CALLVALUE CALLDATACOPY 0x2E CALLER CODESIZE CODESIZE CALLVALUE CALLDATASIZE CALLDATACOPY ORIGIN CODECOPY CALLDATASIZE CALLDATACOPY CALLDATACOPY CALLDATALOAD CALLER KECCAK256 GAS 0x22 KECCAK256 PUSH7 0x696C6C3D22626C PUSH2 0x636B 0x22 KECCAK256 PUSH20 0x74726F6B653D22626C61636B22207374726F6B65 0x2D PUSH24 0x696474683D2231222F3E0A3C7061746820643D224D203535 BALANCE 0x2E ORIGIN ADDRESS CALLDATASIZE CODESIZE CALLDATALOAD CALLDATASIZE BALANCE CALLER BALANCE CODESIZE ORIGIN CALLVALUE CALLER KECCAK256 CODECOPY BALANCE ADDRESS 0x2E ADDRESS CALLDATACOPY CALLER CODESIZE CODECOPY ADDRESS CALLDATASIZE CALLDATASIZE CODESIZE CODESIZE CALLDATACOPY CODESIZE CALLDATACOPY KECCAK256 COINBASE KECCAK256 CALLVALUE ADDRESS ADDRESS KECCAK256 CALLVALUE ADDRESS ADDRESS KECCAK256 ADDRESS KECCAK256 ADDRESS KECCAK256 BALANCE KECCAK256 CALLDATALOAD BALANCE ORIGIN KECCAK256 CODECOPY BALANCE ORIGIN KECCAK256 0x4C KECCAK256 CALLDATALOAD BALANCE ORIGIN KECCAK256 CODECOPY CODECOPY ORIGIN KECCAK256 COINBASE KECCAK256 CALLVALUE CODESIZE ADDRESS KECCAK256 CALLVALUE CODESIZE ADDRESS KECCAK256 ADDRESS KECCAK256 ADDRESS KECCAK256 ADDRESS KECCAK256 CALLDATALOAD CALLDATALOAD CODECOPY 0x2E ADDRESS CALLVALUE CODESIZE ORIGIN ORIGIN CALLDATACOPY CALLER CALLDATALOAD CODESIZE BALANCE CODESIZE CODECOPY BALANCE KECCAK256 CODECOPY CODESIZE CODECOPY 0x2E CALLDATASIZE CODESIZE CODESIZE CALLDATASIZE CALLDATASIZE CODESIZE CODESIZE ADDRESS ORIGIN CALLDATASIZE CALLDATALOAD CALLVALUE CALLDATALOAD KECCAK256 GAS 0x22 KECCAK256 PUSH7 0x696C6C3D22626C PUSH2 0x636B 0x22 KECCAK256 PUSH20 0x74726F6B653D22626C61636B22207374726F6B65 0x2D PUSH24 0x696474683D2231222F3E0A3C7061746820643D224D203534 CALLER 0x2E CALLER CALLDATASIZE CALLDATALOAD CALLVALUE CODESIZE CALLVALUE CODECOPY ADDRESS CALLDATALOAD CALLVALUE CALLDATALOAD CODECOPY CALLVALUE KECCAK256 CODESIZE CALLER ADDRESS 0x2E CALLVALUE CALLDATALOAD CODECOPY BALANCE BALANCE ORIGIN CALLDATALOAD CALLER CALLDATALOAD BALANCE ADDRESS CALLER KECCAK256 COINBASE KECCAK256 CALLER ORIGIN ADDRESS KECCAK256 CALLER ORIGIN ADDRESS KECCAK256 ADDRESS KECCAK256 ADDRESS KECCAK256 BALANCE KECCAK256 CALLDATALOAD BALANCE ORIGIN KECCAK256 CODESIZE CALLER ORIGIN KECCAK256 0x4C KECCAK256 CALLDATALOAD BALANCE ORIGIN KECCAK256 CODECOPY BALANCE ORIGIN KECCAK256 COINBASE KECCAK256 CALLVALUE ADDRESS ADDRESS KECCAK256 CALLVALUE ADDRESS ADDRESS KECCAK256 ADDRESS KECCAK256 ADDRESS KECCAK256 ADDRESS KECCAK256 CALLDATALOAD CALLDATALOAD BALANCE 0x2E ORIGIN ADDRESS CALLDATASIZE CODESIZE CALLDATALOAD CALLDATASIZE BALANCE CALLER BALANCE CODESIZE ORIGIN CALLVALUE CALLER KECCAK256 CODECOPY BALANCE ADDRESS 0x2E ADDRESS CALLDATACOPY CALLER CODESIZE CODECOPY ADDRESS CALLDATASIZE CALLDATASIZE CODESIZE CODESIZE CALLDATACOPY CODESIZE CALLDATACOPY KECCAK256 GAS 0x22 KECCAK256 PUSH7 0x696C6C3D22626C PUSH2 0x636B 0x22 KECCAK256 PUSH20 0x74726F6B653D22626C61636B22207374726F6B65 0x2D PUSH24 0x696474683D2231222F3E0A3C7061746820643D224D203533 CALLDATALOAD 0x2E CALLDATALOAD ORIGIN CALLVALUE BALANCE BALANCE CALLER CALLDATASIZE CALLDATACOPY CODECOPY ADDRESS CODECOPY CALLVALUE CALLDATASIZE KECCAK256 CALLDATACOPY CALLDATALOAD ADDRESS 0x2E CODESIZE CALLVALUE CALLVALUE CALLER CALLER CALLVALUE CALLVALUE ADDRESS BALANCE CALLER ORIGIN CALLDATACOPY CALLER KECCAK256 COINBASE KECCAK256 ORIGIN CALLVALUE ADDRESS KECCAK256 ORIGIN CALLVALUE ADDRESS KECCAK256 ADDRESS KECCAK256 ADDRESS KECCAK256 BALANCE KECCAK256 CALLDATALOAD BALANCE ORIGIN KECCAK256 CALLDATACOPY CALLDATALOAD ORIGIN KECCAK256 0x4C KECCAK256 CALLDATALOAD BALANCE ORIGIN KECCAK256 CODESIZE CALLER ORIGIN KECCAK256 COINBASE KECCAK256 CALLER ORIGIN ADDRESS KECCAK256 CALLER ORIGIN ADDRESS KECCAK256 ADDRESS KECCAK256 ADDRESS KECCAK256 ADDRESS KECCAK256 CALLDATALOAD CALLVALUE CALLER 0x2E CALLER CALLDATASIZE CALLDATALOAD CALLVALUE CODESIZE CALLVALUE CODECOPY ADDRESS CALLDATALOAD CALLVALUE CALLDATALOAD CODECOPY CALLVALUE KECCAK256 CODESIZE CALLER ADDRESS 0x2E CALLVALUE CALLDATALOAD CODECOPY BALANCE BALANCE ORIGIN CALLDATALOAD CALLER CALLDATALOAD BALANCE ADDRESS CALLER KECCAK256 GAS 0x22 KECCAK256 PUSH7 0x696C6C3D22626C PUSH2 0x636B 0x22 KECCAK256 PUSH20 0x74726F6B653D22626C61636B22207374726F6B65 0x2D PUSH24 0x696474683D2231222F3E0A3C7061746820643D224D203532 CALLDATACOPY 0x2E CALLDATASIZE CODESIZE ORIGIN CALLDATACOPY CALLVALUE ORIGIN CALLVALUE CALLDATALOAD ORIGIN CALLDATACOPY ORIGIN CODECOPY CALLDATACOPY KECCAK256 CALLDATASIZE CALLDATACOPY BALANCE 0x2E ORIGIN ORIGIN CODECOPY CALLDATALOAD CALLDATALOAD CALLDATASIZE ORIGIN CALLDATASIZE CALLDATACOPY CALLDATALOAD CALLDATALOAD BALANCE CALLDATALOAD KECCAK256 COINBASE KECCAK256 BALANCE CALLDATASIZE ADDRESS KECCAK256 BALANCE CALLDATASIZE ADDRESS KECCAK256 ADDRESS KECCAK256 ADDRESS KECCAK256 BALANCE KECCAK256 CALLDATALOAD BALANCE ORIGIN KECCAK256 CALLDATASIZE CALLDATACOPY ORIGIN KECCAK256 0x4C KECCAK256 CALLDATALOAD BALANCE ORIGIN KECCAK256 CALLDATACOPY CALLDATALOAD ORIGIN KECCAK256 COINBASE KECCAK256 ORIGIN CALLVALUE ADDRESS KECCAK256 ORIGIN CALLVALUE ADDRESS KECCAK256 ADDRESS KECCAK256 ADDRESS KECCAK256 ADDRESS KECCAK256 CALLDATALOAD CALLER CALLDATALOAD 0x2E CALLDATALOAD ORIGIN CALLVALUE BALANCE BALANCE CALLER CALLDATASIZE CALLDATACOPY CODECOPY ADDRESS CODECOPY CALLVALUE CALLDATASIZE KECCAK256 CALLDATACOPY CALLDATALOAD ADDRESS 0x2E CODESIZE CALLVALUE CALLVALUE CALLER CALLER CALLVALUE CALLVALUE ADDRESS BALANCE CALLER ORIGIN CALLDATACOPY CALLER KECCAK256 GAS 0x22 KECCAK256 PUSH7 0x696C6C3D22626C PUSH2 0x636B 0x22 KECCAK256 PUSH20 0x74726F6B653D22626C61636B22207374726F6B65 0x2D PUSH24 0x696474683D2231222F3E0A3C7061746820643D224D203531 ORIGIN KECCAK256 CODECOPY BALANCE ORIGIN KECCAK256 COINBASE KECCAK256 CALLVALUE ADDRESS ADDRESS KECCAK256 CALLVALUE ADDRESS ADDRESS KECCAK256 ADDRESS KECCAK256 ADDRESS KECCAK256 BALANCE KECCAK256 CALLVALUE CALLDATACOPY ORIGIN 0x2E CALLDATACOPY CODECOPY CALLER BALANCE CALLVALUE CALLER CODESIZE CALLDATASIZE CODESIZE BALANCE CALLDATACOPY CALLDATALOAD CALLDATACOPY KECCAK256 CODECOPY BALANCE ADDRESS 0x2E ADDRESS CALLDATACOPY CALLER CODESIZE CODECOPY ADDRESS CALLDATASIZE CALLDATASIZE CODESIZE CODESIZE CALLDATACOPY CODESIZE CODESIZE KECCAK256 0x4C KECCAK256 CALLVALUE CALLDATASIZE CALLVALUE 0x2E CODECOPY CALLDATALOAD BALANCE CALLDATACOPY CALLDATACOPY ORIGIN CALLDATASIZE CALLVALUE BALANCE CODESIZE BALANCE ADDRESS CODESIZE CALLDATASIZE KECCAK256 CODECOPY CODESIZE CODECOPY 0x2E CALLDATASIZE CODESIZE CODESIZE CALLDATASIZE CALLDATASIZE CODESIZE CODESIZE ADDRESS ORIGIN CALLDATASIZE CALLDATALOAD CALLVALUE CALLDATALOAD KECCAK256 COINBASE KECCAK256 CALLVALUE CODESIZE ADDRESS KECCAK256 CALLVALUE CODESIZE ADDRESS KECCAK256 ADDRESS KECCAK256 ADDRESS KECCAK256 ADDRESS KECCAK256 CALLDATALOAD BALANCE ORIGIN KECCAK256 CODECOPY CODECOPY ORIGIN KECCAK256 GAS 0x22 KECCAK256 PUSH7 0x696C6C3D22626C PUSH2 0x636B 0x22 KECCAK256 PUSH20 0x74726F6B653D22626C61636B22207374726F6B65 0x2D PUSH24 0x696474683D2231222F3E0A3C7061746820643D224D203531 ORIGIN KECCAK256 CODESIZE CALLER ORIGIN KECCAK256 COINBASE KECCAK256 CALLER ORIGIN ADDRESS KECCAK256 CALLER ORIGIN ADDRESS KECCAK256 ADDRESS KECCAK256 ADDRESS KECCAK256 BALANCE KECCAK256 CALLVALUE CODESIZE ADDRESS 0x2E CALLDATASIZE CALLER CALLVALUE CALLDATALOAD BALANCE CALLDATALOAD ADDRESS CODECOPY CALLVALUE CALLDATALOAD CALLVALUE ADDRESS CALLDATASIZE KECCAK256 CODESIZE CALLER ADDRESS 0x2E CALLVALUE CALLDATALOAD CODECOPY BALANCE BALANCE ORIGIN CALLDATALOAD CALLER CALLDATALOAD BALANCE ADDRESS CALLER KECCAK256 0x4C KECCAK256 CALLVALUE CALLDATACOPY ORIGIN 0x2E CALLDATACOPY CODECOPY CALLER BALANCE CALLVALUE CALLER CODESIZE CALLDATASIZE CODESIZE BALANCE CALLDATACOPY CALLDATALOAD CALLDATACOPY KECCAK256 CODECOPY BALANCE ADDRESS 0x2E ADDRESS CALLDATACOPY CALLER CODESIZE CODECOPY ADDRESS CALLDATASIZE CALLDATASIZE CODESIZE CODESIZE CALLDATACOPY CODESIZE CODESIZE KECCAK256 COINBASE KECCAK256 CALLVALUE ADDRESS ADDRESS KECCAK256 CALLVALUE ADDRESS ADDRESS KECCAK256 ADDRESS KECCAK256 ADDRESS KECCAK256 ADDRESS KECCAK256 CALLDATALOAD BALANCE ORIGIN KECCAK256 CODECOPY BALANCE ORIGIN KECCAK256 GAS 0x22 KECCAK256 PUSH7 0x696C6C3D22626C PUSH2 0x636B 0x22 KECCAK256 PUSH20 0x74726F6B653D22626C61636B22207374726F6B65 0x2D PUSH24 0x696474683D2231222F3E0A3C7061746820643D224D203531 ORIGIN KECCAK256 CALLDATACOPY CALLDATALOAD ORIGIN KECCAK256 COINBASE KECCAK256 ORIGIN CALLVALUE ADDRESS KECCAK256 ORIGIN CALLVALUE ADDRESS KECCAK256 ADDRESS KECCAK256 ADDRESS KECCAK256 BALANCE KECCAK256 CALLVALUE CODESIZE CODESIZE 0x2E CALLVALUE CALLDATACOPY CALLDATALOAD CODESIZE CODESIZE CALLDATASIZE CALLER ORIGIN ADDRESS CODECOPY ADDRESS CALLDATALOAD CALLVALUE CALLER KECCAK256 CALLDATACOPY CALLDATALOAD ADDRESS 0x2E CODESIZE CALLVALUE CALLVALUE CALLER CALLER CALLVALUE CALLVALUE ADDRESS BALANCE CALLER ORIGIN CALLDATACOPY CALLER KECCAK256 0x4C KECCAK256 CALLVALUE CODESIZE ADDRESS 0x2E CALLDATASIZE CALLER CALLVALUE CALLDATALOAD BALANCE CALLDATALOAD ADDRESS CODECOPY CALLVALUE CALLDATALOAD CALLVALUE ADDRESS CALLDATASIZE KECCAK256 CODESIZE CALLER ADDRESS 0x2E CALLVALUE CALLDATALOAD CODECOPY BALANCE BALANCE ORIGIN CALLDATALOAD CALLER CALLDATALOAD BALANCE ADDRESS CALLER KECCAK256 COINBASE KECCAK256 CALLER ORIGIN ADDRESS KECCAK256 CALLER ORIGIN ADDRESS KECCAK256 ADDRESS KECCAK256 ADDRESS KECCAK256 ADDRESS KECCAK256 CALLDATALOAD BALANCE ORIGIN KECCAK256 CODESIZE CALLER ORIGIN KECCAK256 GAS 0x22 KECCAK256 PUSH7 0x696C6C3D22626C PUSH2 0x636B 0x22 KECCAK256 PUSH20 0x74726F6B653D22626C61636B22207374726F6B65 0x2D PUSH24 0x696474683D2231222F3E0A3C7061746820643D224D203531 ORIGIN KECCAK256 CALLDATASIZE CALLDATACOPY ORIGIN KECCAK256 COINBASE KECCAK256 BALANCE CALLDATASIZE ADDRESS KECCAK256 BALANCE CALLDATASIZE ADDRESS KECCAK256 ADDRESS KECCAK256 ADDRESS KECCAK256 BALANCE KECCAK256 CALLVALUE CODECOPY CALLDATASIZE 0x2E CALLER BALANCE CALLDATACOPY ORIGIN CALLDATALOAD CALLDATACOPY CALLDATALOAD CALLVALUE CALLDATACOPY ORIGIN CALLDATACOPY ADDRESS CALLER KECCAK256 CALLDATASIZE CALLDATACOPY BALANCE 0x2E ORIGIN ORIGIN CODECOPY CALLDATALOAD CALLDATALOAD CALLDATASIZE ORIGIN CALLDATASIZE CALLDATACOPY CALLDATALOAD CALLDATALOAD BALANCE CALLDATALOAD KECCAK256 0x4C KECCAK256 CALLVALUE CODESIZE CODESIZE 0x2E CALLVALUE CALLDATACOPY CALLDATALOAD CODESIZE CODESIZE CALLDATASIZE CALLER ORIGIN ADDRESS CODECOPY ADDRESS CALLDATALOAD CALLVALUE CALLER KECCAK256 CALLDATACOPY CALLDATALOAD ADDRESS 0x2E CODESIZE CALLVALUE CALLVALUE CALLER CALLER CALLVALUE CALLVALUE ADDRESS BALANCE CALLER ORIGIN CALLDATACOPY CALLER KECCAK256 COINBASE KECCAK256 ORIGIN CALLVALUE ADDRESS KECCAK256 ORIGIN CALLVALUE ADDRESS KECCAK256 ADDRESS KECCAK256 ADDRESS KECCAK256 ADDRESS KECCAK256 CALLDATALOAD BALANCE ORIGIN KECCAK256 CALLDATACOPY CALLDATALOAD ORIGIN KECCAK256 GAS 0x22 KECCAK256 PUSH7 0x696C6C3D22626C PUSH2 0x636B 0x22 KECCAK256 PUSH20 0x74726F6B653D22626C61636B22207374726F6B65 0x2D PUSH24 0x696474683D2231222F3E0A3C7061746820643D224D203437 ORIGIN 0x2E CALLDATACOPY CODECOPY CALLER BALANCE CALLVALUE CALLER CODESIZE CALLDATASIZE CODESIZE BALANCE CALLDATACOPY CALLDATALOAD CALLDATACOPY KECCAK256 CODECOPY BALANCE ADDRESS 0x2E ADDRESS CALLDATACOPY CALLER CODESIZE CODECOPY ADDRESS CALLDATASIZE CALLDATASIZE CODESIZE CODESIZE CALLDATACOPY CODESIZE CODESIZE KECCAK256 COINBASE KECCAK256 CALLVALUE ADDRESS ADDRESS KECCAK256 CALLVALUE ADDRESS ADDRESS KECCAK256 ADDRESS KECCAK256 ADDRESS KECCAK256 BALANCE KECCAK256 CALLVALUE CALLER CALLER 0x2E CODECOPY CALLDATASIZE CALLER CODESIZE CALLDATACOPY BALANCE BALANCE CODECOPY CALLER CALLDATALOAD CALLVALUE CODESIZE CALLDATASIZE CALLVALUE KECCAK256 CODECOPY ADDRESS CALLVALUE 0x2E CALLER BALANCE CALLVALUE BALANCE BALANCE ORIGIN BALANCE CALLDATASIZE BALANCE ORIGIN CODECOPY ORIGIN ORIGIN KECCAK256 0x4C KECCAK256 CALLVALUE BALANCE CODESIZE 0x2E CALLER CALLDATALOAD CALLDATASIZE CALLDATASIZE CALLVALUE CALLDATALOAD CALLVALUE CALLER ORIGIN ORIGIN CALLDATALOAD CODESIZE CALLER CALLDATALOAD KECCAK256 CODECOPY CODESIZE ORIGIN 0x2E CALLDATACOPY CALLDATACOPY CALLDATASIZE CODECOPY CALLER CALLVALUE CALLDATALOAD CODECOPY CALLER CALLDATALOAD CALLDATALOAD ADDRESS CALLDATALOAD KECCAK256 COINBASE KECCAK256 CALLVALUE CODESIZE ADDRESS KECCAK256 CALLVALUE CODESIZE ADDRESS KECCAK256 ADDRESS KECCAK256 ADDRESS KECCAK256 ADDRESS KECCAK256 CALLVALUE CALLDATASIZE CALLVALUE 0x2E CODECOPY CALLDATALOAD BALANCE CALLDATACOPY CALLDATACOPY ORIGIN CALLDATASIZE CALLVALUE BALANCE CODESIZE BALANCE ADDRESS CODESIZE CALLDATASIZE KECCAK256 CODECOPY CODESIZE CODECOPY 0x2E CALLDATASIZE CODESIZE CODESIZE CALLDATASIZE CALLDATASIZE CODESIZE CODESIZE ADDRESS ORIGIN CALLDATASIZE CALLDATALOAD CALLVALUE CALLDATALOAD KECCAK256 GAS 0x22 KECCAK256 PUSH7 0x696C6C3D22626C PUSH2 0x636B 0x22 KECCAK256 PUSH20 0x74726F6B653D22626C61636B22207374726F6B65 0x2D PUSH24 0x696474683D2231222F3E0A3C7061746820643D224D203438 ADDRESS 0x2E CALLDATASIZE CALLER CALLVALUE CALLDATALOAD BALANCE CALLDATALOAD ADDRESS CODECOPY CALLVALUE CALLDATALOAD CALLVALUE ADDRESS CALLDATASIZE KECCAK256 CODESIZE CALLER ADDRESS 0x2E CALLVALUE CALLDATALOAD CODECOPY BALANCE BALANCE ORIGIN CALLDATALOAD CALLER CALLDATALOAD BALANCE ADDRESS CALLER KECCAK256 COINBASE KECCAK256 CALLER ORIGIN ADDRESS KECCAK256 CALLER ORIGIN ADDRESS KECCAK256 ADDRESS KECCAK256 ADDRESS KECCAK256 BALANCE KECCAK256 CALLVALUE CALLVALUE CODECOPY 0x2E CALLDATALOAD CALLDATACOPY BALANCE ADDRESS CODECOPY CALLDATASIZE CODECOPY CALLDATALOAD CALLVALUE CODESIZE CALLER CODESIZE CODECOPY CALLVALUE KECCAK256 CODESIZE ORIGIN CALLDATALOAD 0x2E CODESIZE CALLDATALOAD BALANCE ORIGIN CODESIZE CODECOPY CALLDATACOPY ORIGIN CODECOPY ADDRESS CALLER CALLER CALLDATACOPY KECCAK256 0x4C KECCAK256 CALLVALUE CALLER CALLER 0x2E CODECOPY CALLDATASIZE CALLER CODESIZE CALLDATACOPY BALANCE BALANCE CODECOPY CALLER CALLDATALOAD CALLVALUE CODESIZE CALLDATASIZE CALLVALUE KECCAK256 CODECOPY ADDRESS CALLVALUE 0x2E CALLER BALANCE CALLVALUE BALANCE BALANCE ORIGIN BALANCE CALLDATASIZE BALANCE ORIGIN CODECOPY ORIGIN ORIGIN KECCAK256 COINBASE KECCAK256 CALLVALUE ADDRESS ADDRESS KECCAK256 CALLVALUE ADDRESS ADDRESS KECCAK256 ADDRESS KECCAK256 ADDRESS KECCAK256 ADDRESS KECCAK256 CALLVALUE CALLDATACOPY ORIGIN 0x2E CALLDATACOPY CODECOPY CALLER BALANCE CALLVALUE CALLER CODESIZE CALLDATASIZE CODESIZE BALANCE CALLDATACOPY CALLDATALOAD CALLDATACOPY KECCAK256 CODECOPY BALANCE ADDRESS 0x2E ADDRESS CALLDATACOPY CALLER CODESIZE CODECOPY ADDRESS CALLDATASIZE CALLDATASIZE CODESIZE CODESIZE CALLDATACOPY CODESIZE CODESIZE KECCAK256 GAS 0x22 KECCAK256 PUSH7 0x696C6C3D22626C PUSH2 0x636B 0x22 KECCAK256 PUSH20 0x74726F6B653D22626C61636B22207374726F6B65 0x2D PUSH24 0x696474683D2231222F3E0A3C7061746820643D224D203438 CODESIZE 0x2E CALLVALUE CALLDATACOPY CALLDATALOAD CODESIZE CODESIZE CALLDATASIZE CALLER ORIGIN ADDRESS CODECOPY ADDRESS CALLDATALOAD CALLVALUE CALLER KECCAK256 CALLDATACOPY CALLDATALOAD ADDRESS 0x2E CODESIZE CALLVALUE CALLVALUE CALLER CALLER CALLVALUE CALLVALUE ADDRESS BALANCE CALLER ORIGIN CALLDATACOPY CALLER KECCAK256 COINBASE KECCAK256 ORIGIN CALLVALUE ADDRESS KECCAK256 ORIGIN CALLVALUE ADDRESS KECCAK256 ADDRESS KECCAK256 ADDRESS KECCAK256 BALANCE KECCAK256 CALLVALUE CALLDATASIZE CALLDATALOAD 0x2E BALANCE CALLDATACOPY CODESIZE CALLER ORIGIN ORIGIN CALLDATACOPY BALANCE CALLDATASIZE BALANCE ORIGIN CODECOPY ORIGIN KECCAK256 CALLDATACOPY CALLVALUE CALLDATACOPY 0x2E CALLER CODESIZE CODESIZE CALLVALUE CALLDATASIZE CALLDATACOPY ORIGIN CODECOPY CALLDATASIZE CALLDATACOPY CALLDATACOPY CALLDATALOAD CALLER KECCAK256 0x4C KECCAK256 CALLVALUE CALLVALUE CODECOPY 0x2E CALLDATALOAD CALLDATACOPY BALANCE ADDRESS CODECOPY CALLDATASIZE CODECOPY CALLDATALOAD CALLVALUE CODESIZE CALLER CODESIZE CODECOPY CALLVALUE KECCAK256 CODESIZE ORIGIN CALLDATALOAD 0x2E CODESIZE CALLDATALOAD BALANCE ORIGIN CODESIZE CODECOPY CALLDATACOPY ORIGIN CODECOPY ADDRESS CALLER CALLER CALLDATACOPY KECCAK256 COINBASE KECCAK256 CALLER ORIGIN ADDRESS KECCAK256 CALLER ORIGIN ADDRESS KECCAK256 ADDRESS KECCAK256 ADDRESS KECCAK256 ADDRESS KECCAK256 CALLVALUE CODESIZE ADDRESS 0x2E CALLDATASIZE CALLER CALLVALUE CALLDATALOAD BALANCE CALLDATALOAD ADDRESS CODECOPY CALLVALUE CALLDATALOAD CALLVALUE ADDRESS CALLDATASIZE KECCAK256 CODESIZE CALLER ADDRESS 0x2E CALLVALUE CALLDATALOAD CODECOPY BALANCE BALANCE ORIGIN CALLDATALOAD CALLER CALLDATALOAD BALANCE ADDRESS CALLER KECCAK256 GAS 0x22 KECCAK256 PUSH7 0x696C6C3D22626C PUSH2 0x636B 0x22 KECCAK256 PUSH20 0x74726F6B653D22626C61636B22207374726F6B65 0x2D PUSH24 0x696474683D2231222F3E0A3C7061746820643D224D203439 CALLDATASIZE 0x2E CALLER BALANCE CALLDATACOPY ORIGIN CALLDATALOAD CALLDATACOPY CALLDATALOAD CALLVALUE CALLDATACOPY ORIGIN CALLDATACOPY ADDRESS CALLER KECCAK256 CALLDATASIZE CALLDATACOPY BALANCE 0x2E ORIGIN ORIGIN CODECOPY CALLDATALOAD CALLDATALOAD CALLDATASIZE ORIGIN CALLDATASIZE CALLDATACOPY CALLDATALOAD CALLDATALOAD BALANCE CALLDATALOAD KECCAK256 COINBASE KECCAK256 BALANCE CALLDATASIZE ADDRESS KECCAK256 BALANCE CALLDATASIZE ADDRESS KECCAK256 ADDRESS KECCAK256 ADDRESS KECCAK256 BALANCE KECCAK256 CALLVALUE CODESIZE ADDRESS 0x2E CALLDATACOPY CODESIZE CALLDATALOAD CALLDATALOAD CALLVALUE CODESIZE CALLVALUE CALLDATACOPY CALLDATACOPY CALLVALUE BALANCE CODECOPY CALLVALUE CALLDATACOPY KECCAK256 CALLDATASIZE CALLDATASIZE CODESIZE 0x2E CODECOPY ORIGIN CALLDATALOAD CALLDATASIZE CALLVALUE CALLVALUE CODESIZE CALLDATASIZE CALLVALUE CALLDATALOAD BALANCE CALLDATASIZE CODECOPY KECCAK256 0x4C KECCAK256 CALLVALUE CALLDATASIZE CALLDATALOAD 0x2E BALANCE CALLDATACOPY CODESIZE CALLER ORIGIN ORIGIN CALLDATACOPY BALANCE CALLDATASIZE BALANCE ORIGIN CODECOPY ORIGIN KECCAK256 CALLDATACOPY CALLVALUE CALLDATACOPY 0x2E CALLER CODESIZE CODESIZE CALLVALUE CALLDATASIZE CALLDATACOPY ORIGIN CODECOPY CALLDATASIZE CALLDATACOPY CALLDATACOPY CALLDATALOAD CALLER KECCAK256 COINBASE KECCAK256 ORIGIN CALLVALUE ADDRESS KECCAK256 ORIGIN CALLVALUE ADDRESS KECCAK256 ADDRESS KECCAK256 ADDRESS KECCAK256 ADDRESS KECCAK256 CALLVALUE CODESIZE CODESIZE 0x2E CALLVALUE CALLDATACOPY CALLDATALOAD CODESIZE CODESIZE CALLDATASIZE CALLER ORIGIN ADDRESS CODECOPY ADDRESS CALLDATALOAD CALLVALUE CALLER KECCAK256 CALLDATACOPY CALLDATALOAD ADDRESS 0x2E CODESIZE CALLVALUE CALLVALUE CALLER CALLER CALLVALUE CALLVALUE ADDRESS BALANCE CALLER ORIGIN CALLDATACOPY CALLER KECCAK256 GAS 0x22 KECCAK256 PUSH7 0x696C6C3D22626C PUSH2 0x636B 0x22 KECCAK256 PUSH20 0x74726F6B653D22626C61636B22207374726F6B65 0x2D PUSH24 0x696474683D2231222F3E0A3C7061746820643D224D203433 CALLER 0x2E CODECOPY CALLDATASIZE CALLER CODESIZE CALLDATACOPY BALANCE BALANCE CODECOPY CALLER CALLDATALOAD CALLVALUE CODESIZE CALLDATASIZE CALLVALUE KECCAK256 CODECOPY ADDRESS CALLVALUE 0x2E CALLER BALANCE CALLVALUE BALANCE BALANCE ORIGIN BALANCE CALLDATASIZE BALANCE ORIGIN CODECOPY ORIGIN ORIGIN KECCAK256 COINBASE KECCAK256 CALLVALUE ADDRESS ADDRESS KECCAK256 CALLVALUE ADDRESS ADDRESS KECCAK256 ADDRESS KECCAK256 ADDRESS KECCAK256 BALANCE KECCAK256 CALLER CODECOPY CALLDATALOAD 0x2E CODESIZE CODESIZE CALLDATASIZE BALANCE ORIGIN CODECOPY ADDRESS CODECOPY CODESIZE ORIGIN BALANCE CALLVALUE CODECOPY CALLDATALOAD KECCAK256 CODESIZE CODECOPY CALLVALUE 0x2E CALLDATACOPY CALLDATACOPY CALLDATASIZE BALANCE CALLER CALLVALUE ORIGIN CODECOPY ORIGIN CODESIZE CODESIZE CALLER CALLDATALOAD KECCAK256 0x4C KECCAK256 CALLER CALLDATACOPY ORIGIN 0x2E CALLDATASIZE CALLDATASIZE CALLER CALLER CALLDATALOAD CALLVALUE CODECOPY BALANCE CALLDATACOPY CODESIZE CALLDATALOAD CODESIZE KECCAK256 CODECOPY CALLDATACOPY BALANCE 0x2E CALLER CALLER BALANCE CALLER CALLDATASIZE BALANCE BALANCE CALLDATALOAD BALANCE CALLVALUE CALLDATASIZE ADDRESS ORIGIN KECCAK256 COINBASE KECCAK256 CALLVALUE CODESIZE ADDRESS KECCAK256 CALLVALUE CODESIZE ADDRESS KECCAK256 ADDRESS KECCAK256 ADDRESS KECCAK256 ADDRESS KECCAK256 CALLVALUE BALANCE CODESIZE 0x2E CALLER CALLDATALOAD CALLDATASIZE CALLDATASIZE CALLVALUE CALLDATALOAD CALLVALUE CALLER ORIGIN ORIGIN CALLDATALOAD CODESIZE CALLER CALLDATALOAD KECCAK256 CODECOPY CODESIZE ORIGIN 0x2E CALLDATACOPY CALLDATACOPY CALLDATASIZE CODECOPY CALLER CALLVALUE CALLDATALOAD CODECOPY CALLER CALLDATALOAD CALLDATALOAD ADDRESS CALLDATALOAD KECCAK256 GAS 0x22 KECCAK256 PUSH7 0x696C6C3D22626C PUSH2 0x636B 0x22 KECCAK256 PUSH20 0x74726F6B653D22626C61636B22207374726F6B65 0x2D PUSH24 0x696474683D2231222F3E0A3C7061746820643D224D203434 CODECOPY 0x2E CALLDATALOAD CALLDATACOPY BALANCE ADDRESS CODECOPY CALLDATASIZE CODECOPY CALLDATALOAD CALLVALUE CODESIZE CALLER CODESIZE CODECOPY CALLVALUE KECCAK256 CODESIZE ORIGIN CALLDATALOAD 0x2E CODESIZE CALLDATALOAD BALANCE ORIGIN CODESIZE CODECOPY CALLDATACOPY ORIGIN CODECOPY ADDRESS CALLER CALLER CALLDATACOPY KECCAK256 COINBASE KECCAK256 CALLER ORIGIN ADDRESS KECCAK256 CALLER ORIGIN ADDRESS KECCAK256 ADDRESS KECCAK256 ADDRESS KECCAK256 BALANCE KECCAK256 CALLVALUE BALANCE CODECOPY 0x2E BALANCE ADDRESS CODESIZE CODECOPY ADDRESS CALLER ORIGIN CALLDATACOPY CODESIZE CALLDATALOAD CALLDATACOPY ORIGIN KECCAK256 CODESIZE BALANCE CODESIZE 0x2E ORIGIN ORIGIN ADDRESS CODECOPY ADDRESS CALLDATACOPY CALLVALUE CALLER CALLVALUE CALLER ADDRESS CALLDATASIZE CODESIZE KECCAK256 0x4C KECCAK256 CALLER CODECOPY CALLDATALOAD 0x2E CODESIZE CODESIZE CALLDATASIZE BALANCE ORIGIN CODECOPY ADDRESS CODECOPY CODESIZE ORIGIN BALANCE CALLVALUE CODECOPY CALLDATALOAD KECCAK256 CODESIZE CODECOPY CALLVALUE 0x2E CALLDATACOPY CALLDATACOPY CALLDATASIZE BALANCE CALLER CALLVALUE ORIGIN CODECOPY ORIGIN CODESIZE CODESIZE CALLER CALLDATALOAD KECCAK256 COINBASE KECCAK256 CALLVALUE ADDRESS ADDRESS KECCAK256 CALLVALUE ADDRESS ADDRESS KECCAK256 ADDRESS KECCAK256 ADDRESS KECCAK256 ADDRESS KECCAK256 CALLVALUE CALLER CALLER 0x2E CODECOPY CALLDATASIZE CALLER CODESIZE CALLDATACOPY BALANCE BALANCE CODECOPY CALLER CALLDATALOAD CALLVALUE CODESIZE CALLDATASIZE CALLVALUE KECCAK256 CODECOPY ADDRESS CALLVALUE 0x2E CALLER BALANCE CALLVALUE BALANCE BALANCE ORIGIN BALANCE CALLDATASIZE BALANCE ORIGIN CODECOPY ORIGIN ORIGIN KECCAK256 GAS 0x22 KECCAK256 PUSH7 0x696C6C3D22626C PUSH2 0x636B 0x22 KECCAK256 PUSH20 0x74726F6B653D22626C61636B22207374726F6B65 0x2D PUSH24 0x696474683D2231222F3E0A3C7061746820643D224D203436 CALLDATALOAD 0x2E BALANCE CALLDATACOPY CODESIZE CALLER ORIGIN ORIGIN CALLDATACOPY BALANCE CALLDATASIZE BALANCE ORIGIN CODECOPY ORIGIN KECCAK256 CALLDATACOPY CALLVALUE CALLDATACOPY 0x2E CALLER CODESIZE CODESIZE CALLVALUE CALLDATASIZE CALLDATACOPY ORIGIN CODECOPY CALLDATASIZE CALLDATACOPY CALLDATACOPY CALLDATALOAD CALLER KECCAK256 COINBASE KECCAK256 ORIGIN CALLVALUE ADDRESS KECCAK256 ORIGIN CALLVALUE ADDRESS KECCAK256 ADDRESS KECCAK256 ADDRESS KECCAK256 BALANCE KECCAK256 CALLVALUE CALLVALUE ORIGIN 0x2E CALLER CALLER BALANCE CALLDATASIZE CALLDATACOPY CALLDATACOPY CALLVALUE CALLDATALOAD CODESIZE CODECOPY ORIGIN CODECOPY KECCAK256 CALLDATACOPY CALLVALUE BALANCE 0x2E CALLDATASIZE CALLDATASIZE CALLDATALOAD CALLDATASIZE CODESIZE ADDRESS CALLDATALOAD CALLDATACOPY CALLDATALOAD CALLDATACOPY CALLER ADDRESS BALANCE KECCAK256 0x4C KECCAK256 CALLVALUE BALANCE CODECOPY 0x2E BALANCE ADDRESS CODESIZE CODECOPY ADDRESS CALLER ORIGIN CALLDATACOPY CODESIZE CALLDATALOAD CALLDATACOPY ORIGIN KECCAK256 CODESIZE BALANCE CODESIZE 0x2E ORIGIN ORIGIN ADDRESS CODECOPY ADDRESS CALLDATACOPY CALLVALUE CALLER CALLVALUE CALLER ADDRESS CALLDATASIZE CODESIZE KECCAK256 COINBASE KECCAK256 CALLER ORIGIN ADDRESS KECCAK256 CALLER ORIGIN ADDRESS KECCAK256 ADDRESS KECCAK256 ADDRESS KECCAK256 ADDRESS KECCAK256 CALLVALUE CALLVALUE CODECOPY 0x2E CALLDATALOAD CALLDATACOPY BALANCE ADDRESS CODECOPY CALLDATASIZE CODECOPY CALLDATALOAD CALLVALUE CODESIZE CALLER CODESIZE CODECOPY CALLVALUE KECCAK256 CODESIZE ORIGIN CALLDATALOAD 0x2E CODESIZE CALLDATALOAD BALANCE ORIGIN CODESIZE CODECOPY CALLDATACOPY ORIGIN CODECOPY ADDRESS CALLER CALLER CALLDATACOPY KECCAK256 GAS 0x22 KECCAK256 PUSH7 0x696C6C3D22626C PUSH2 0x636B 0x22 KECCAK256 PUSH20 0x74726F6B653D22626C61636B22207374726F6B65 0x2D PUSH24 0x696474683D2231222F3E0A3C7061746820643D224D203438 ADDRESS 0x2E CALLDATACOPY CODESIZE CALLDATALOAD CALLDATALOAD CALLVALUE CODESIZE CALLVALUE CALLDATACOPY CALLDATACOPY CALLVALUE BALANCE CODECOPY CALLVALUE CALLDATACOPY KECCAK256 CALLDATASIZE CALLDATASIZE CODESIZE 0x2E CODECOPY ORIGIN CALLDATALOAD CALLDATASIZE CALLVALUE CALLVALUE CODESIZE CALLDATASIZE CALLVALUE CALLDATALOAD BALANCE CALLDATASIZE CODECOPY KECCAK256 COINBASE KECCAK256 BALANCE CALLDATASIZE ADDRESS KECCAK256 BALANCE CALLDATASIZE ADDRESS KECCAK256 ADDRESS KECCAK256 ADDRESS KECCAK256 BALANCE KECCAK256 CALLVALUE CALLDATASIZE CALLDATALOAD 0x2E CALLDATALOAD CALLDATALOAD CALLVALUE CALLVALUE CALLDATALOAD BALANCE CALLDATASIZE CALLER CODECOPY ORIGIN CODESIZE CALLDATALOAD CODECOPY CALLDATASIZE KECCAK256 CALLDATASIZE CALLDATASIZE CALLDATALOAD 0x2E BALANCE BALANCE ADDRESS CALLVALUE CALLDATALOAD CALLER CALLDATACOPY BALANCE CALLDATACOPY BALANCE CALLDATALOAD CALLER CALLVALUE KECCAK256 0x4C KECCAK256 CALLVALUE CALLVALUE ORIGIN 0x2E CALLER CALLER BALANCE CALLDATASIZE CALLDATACOPY CALLDATACOPY CALLVALUE CALLDATALOAD CODESIZE CODECOPY ORIGIN CODECOPY KECCAK256 CALLDATACOPY CALLVALUE BALANCE 0x2E CALLDATASIZE CALLDATASIZE CALLDATALOAD CALLDATASIZE CODESIZE ADDRESS CALLDATALOAD CALLDATACOPY CALLDATALOAD CALLDATACOPY CALLER ADDRESS BALANCE KECCAK256 COINBASE KECCAK256 ORIGIN CALLVALUE ADDRESS KECCAK256 ORIGIN CALLVALUE ADDRESS KECCAK256 ADDRESS KECCAK256 ADDRESS KECCAK256 ADDRESS KECCAK256 CALLVALUE CALLDATASIZE CALLDATALOAD 0x2E BALANCE CALLDATACOPY CODESIZE CALLER ORIGIN ORIGIN CALLDATACOPY BALANCE CALLDATASIZE BALANCE ORIGIN CODECOPY ORIGIN KECCAK256 CALLDATACOPY CALLVALUE CALLDATACOPY 0x2E CALLER CODESIZE CODESIZE CALLVALUE CALLDATASIZE CALLDATACOPY ORIGIN CODECOPY CALLDATASIZE CALLDATACOPY CALLDATACOPY CALLDATALOAD CALLER KECCAK256 GAS 0x22 KECCAK256 PUSH7 0x696C6C3D22626C PUSH2 0x636B 0x22 KECCAK256 PUSH20 0x74726F6B653D22626C61636B22207374726F6B65 0x2D PUSH24 0x696474683D2231222F3E0A3C7061746820643D224D203339 CALLDATALOAD 0x2E CODESIZE CODESIZE CALLDATASIZE BALANCE ORIGIN CODECOPY ADDRESS CODECOPY CODESIZE ORIGIN BALANCE CALLDATALOAD BALANCE KECCAK256 CODESIZE CODECOPY CALLVALUE 0x2E CALLDATACOPY CALLDATACOPY CALLDATASIZE BALANCE CALLER CALLVALUE ORIGIN CODECOPY ORIGIN CODESIZE CODESIZE CALLER CALLDATASIZE KECCAK256 COINBASE KECCAK256 CALLVALUE ADDRESS ADDRESS KECCAK256 CALLVALUE ADDRESS ADDRESS KECCAK256 ADDRESS KECCAK256 ADDRESS KECCAK256 BALANCE KECCAK256 CALLER CALLDATALOAD CODESIZE 0x2E CODECOPY ORIGIN CALLDATASIZE CALLDATASIZE ORIGIN CALLDATACOPY ADDRESS CALLDATALOAD CALLER CODECOPY CALLDATASIZE CALLVALUE BALANCE KECCAK256 CODESIZE CODESIZE BALANCE 0x2E CALLDATALOAD CALLDATALOAD BALANCE CODESIZE BALANCE CALLER ADDRESS ADDRESS CALLVALUE CALLDATALOAD BALANCE CALLVALUE CODESIZE KECCAK256 0x4C KECCAK256 CALLER ORIGIN CODESIZE 0x2E CALLER BALANCE BALANCE CODECOPY CALLDATALOAD ORIGIN CALLVALUE CALLDATASIZE CALLVALUE CALLDATACOPY CALLDATALOAD CALLDATASIZE CODECOPY KECCAK256 CODECOPY CALLDATALOAD CALLDATALOAD 0x2E CALLVALUE CALLDATASIZE ORIGIN BALANCE CALLDATACOPY CALLDATALOAD CALLDATASIZE ADDRESS CALLDATALOAD CALLVALUE BALANCE CALLDATACOPY CALLDATACOPY KECCAK256 COINBASE KECCAK256 CALLVALUE CODESIZE ADDRESS KECCAK256 CALLVALUE CODESIZE ADDRESS KECCAK256 ADDRESS KECCAK256 ADDRESS KECCAK256 ADDRESS KECCAK256 CALLER CALLDATACOPY ORIGIN 0x2E CALLDATASIZE CALLDATASIZE CALLER CALLER CALLDATALOAD CALLVALUE CODECOPY BALANCE CALLDATACOPY CODESIZE CALLDATALOAD CODESIZE BALANCE KECCAK256 CODECOPY CALLDATACOPY BALANCE 0x2E CALLER CALLER BALANCE CALLER CALLDATASIZE BALANCE BALANCE CALLDATALOAD BALANCE CALLVALUE CALLDATASIZE ADDRESS ORIGIN KECCAK256 GAS 0x22 KECCAK256 PUSH7 0x696C6C3D22626C PUSH2 0x636B 0x22 KECCAK256 PUSH20 0x74726F6B653D22626C61636B22207374726F6B65 0x2D PUSH24 0x696474683D2231222F3E0A3C7061746820643D224D203431 CODECOPY 0x2E BALANCE ADDRESS CODESIZE CODECOPY ADDRESS CALLER ORIGIN CALLDATACOPY CODESIZE CALLDATALOAD CALLDATACOPY ORIGIN BALANCE KECCAK256 CODESIZE BALANCE CODESIZE 0x2E ORIGIN ORIGIN ADDRESS CODECOPY ADDRESS CALLDATACOPY CALLVALUE CALLER CALLVALUE CALLER ADDRESS CALLDATASIZE CODESIZE KECCAK256 COINBASE KECCAK256 CALLER ORIGIN ADDRESS KECCAK256 CALLER ORIGIN ADDRESS KECCAK256 ADDRESS KECCAK256 ADDRESS KECCAK256 BALANCE KECCAK256 CALLER CODESIZE CODECOPY 0x2E CALLDATALOAD CALLVALUE BALANCE CALLER ADDRESS BALANCE CALLDATASIZE CALLVALUE CALLER BALANCE CALLDATACOPY BALANCE CALLER KECCAK256 CODESIZE ADDRESS CALLDATACOPY 0x2E CALLDATASIZE CALLVALUE BALANCE CALLVALUE CALLDATALOAD ADDRESS CALLVALUE ADDRESS CALLER CALLDATASIZE BALANCE BALANCE CODESIZE KECCAK256 0x4C KECCAK256 CALLER CALLDATALOAD CODESIZE 0x2E CODECOPY ORIGIN CALLDATASIZE CALLDATASIZE ORIGIN CALLDATACOPY ADDRESS CALLDATALOAD CALLER CODECOPY CALLDATASIZE CALLVALUE BALANCE KECCAK256 CODESIZE CODESIZE BALANCE 0x2E CALLDATALOAD CALLDATALOAD BALANCE CODESIZE BALANCE CALLER ADDRESS ADDRESS CALLVALUE CALLDATALOAD BALANCE CALLVALUE CODESIZE KECCAK256 COINBASE KECCAK256 CALLVALUE ADDRESS ADDRESS KECCAK256 CALLVALUE ADDRESS ADDRESS KECCAK256 ADDRESS KECCAK256 ADDRESS KECCAK256 ADDRESS KECCAK256 CALLER CODECOPY CALLDATALOAD 0x2E CODESIZE CODESIZE CALLDATASIZE BALANCE ORIGIN CODECOPY ADDRESS CODECOPY CODESIZE ORIGIN BALANCE CALLDATALOAD BALANCE KECCAK256 CODESIZE CODECOPY CALLVALUE 0x2E CALLDATACOPY CALLDATACOPY CALLDATASIZE BALANCE CALLER CALLVALUE ORIGIN CODECOPY ORIGIN CODESIZE CODESIZE CALLER CALLDATASIZE KECCAK256 GAS 0x22 KECCAK256 PUSH7 0x696C6C3D22626C PUSH2 0x636B 0x22 KECCAK256 PUSH20 0x74726F6B653D22626C61636B22207374726F6B65 0x2D PUSH24 0x696474683D2231222F3E0A3C7061746820643D224D203434 ORIGIN 0x2E CALLER CALLER BALANCE CALLDATASIZE CALLDATACOPY CALLDATACOPY CALLVALUE CALLDATALOAD CODESIZE CODECOPY ORIGIN CODECOPY ADDRESS CALLDATALOAD KECCAK256 CALLDATACOPY CALLVALUE BALANCE 0x2E CALLDATASIZE CALLDATASIZE CALLDATALOAD CALLDATASIZE CODESIZE ADDRESS CALLDATALOAD CALLDATACOPY CALLDATALOAD CALLDATACOPY CALLER ADDRESS BALANCE KECCAK256 COINBASE KECCAK256 ORIGIN CALLVALUE ADDRESS KECCAK256 ORIGIN CALLVALUE ADDRESS KECCAK256 ADDRESS KECCAK256 ADDRESS KECCAK256 BALANCE KECCAK256 CALLVALUE ORIGIN ADDRESS 0x2E BALANCE CALLDATALOAD CALLDATALOAD CODECOPY CALLDATACOPY CALLDATASIZE ORIGIN CALLER ORIGIN CALLER CALLDATACOPY CODESIZE CALLVALUE CALLDATASIZE KECCAK256 CALLDATACOPY CALLER CALLER 0x2E CALLDATACOPY CALLER BALANCE ADDRESS CODESIZE CALLDATACOPY CODESIZE ADDRESS ORIGIN CALLDATACOPY ADDRESS CODESIZE CODESIZE KECCAK256 0x4C KECCAK256 CALLER CODESIZE CODECOPY 0x2E CALLDATALOAD CALLVALUE BALANCE CALLER ADDRESS BALANCE CALLDATASIZE CALLVALUE CALLER BALANCE CALLDATACOPY BALANCE CALLER KECCAK256 CODESIZE ADDRESS CALLDATACOPY 0x2E CALLDATASIZE CALLVALUE BALANCE CALLVALUE CALLDATALOAD ADDRESS CALLVALUE ADDRESS CALLER CALLDATASIZE BALANCE BALANCE CODESIZE KECCAK256 COINBASE KECCAK256 CALLER ORIGIN ADDRESS KECCAK256 CALLER ORIGIN ADDRESS KECCAK256 ADDRESS KECCAK256 ADDRESS KECCAK256 ADDRESS KECCAK256 CALLVALUE BALANCE CODECOPY 0x2E BALANCE ADDRESS CODESIZE CODECOPY ADDRESS CALLER ORIGIN CALLDATACOPY CODESIZE CALLDATALOAD CALLDATACOPY ORIGIN BALANCE KECCAK256 CODESIZE BALANCE CODESIZE 0x2E ORIGIN ORIGIN ADDRESS CODECOPY ADDRESS CALLDATACOPY CALLVALUE CALLER CALLVALUE CALLER ADDRESS CALLDATASIZE CODESIZE KECCAK256 GAS 0x22 KECCAK256 PUSH7 0x696C6C3D22626C PUSH2 0x636B 0x22 KECCAK256 PUSH20 0x74726F6B653D22626C61636B22207374726F6B65 0x2D PUSH24 0x696474683D2231222F3E0A3C7061746820643D224D203436 CALLDATALOAD 0x2E CALLDATALOAD CALLDATALOAD CALLVALUE CALLVALUE CALLDATALOAD BALANCE CALLDATASIZE CALLER CODECOPY ORIGIN CODESIZE CALLDATASIZE ADDRESS CALLDATACOPY KECCAK256 CALLDATASIZE CALLDATASIZE CALLDATALOAD 0x2E BALANCE BALANCE ADDRESS CALLVALUE CALLDATALOAD CALLER CALLDATACOPY BALANCE CALLDATACOPY BALANCE CALLDATALOAD CALLER CALLVALUE KECCAK256 COINBASE KECCAK256 BALANCE CALLDATASIZE ADDRESS KECCAK256 BALANCE CALLDATASIZE ADDRESS KECCAK256 ADDRESS KECCAK256 ADDRESS KECCAK256 BALANCE KECCAK256 CALLVALUE CALLDATALOAD ADDRESS 0x2E CALLDATACOPY CALLDATACOPY ADDRESS CALLDATASIZE CALLDATALOAD ADDRESS CODESIZE ORIGIN BALANCE CALLDATALOAD CODESIZE CALLDATALOAD CALLDATASIZE CALLDATASIZE KECCAK256 CALLDATASIZE CALLDATALOAD CODECOPY 0x2E CODESIZE ORIGIN ADDRESS CALLDATACOPY ORIGIN CALLDATALOAD ORIGIN ADDRESS BALANCE CODESIZE ADDRESS CALLDATALOAD CODECOPY KECCAK256 0x4C KECCAK256 CALLVALUE ORIGIN ADDRESS 0x2E BALANCE CALLDATALOAD CALLDATALOAD CODECOPY CALLDATACOPY CALLDATASIZE ORIGIN CALLER ORIGIN CALLER CALLDATACOPY CODESIZE CALLVALUE CALLDATASIZE KECCAK256 CALLDATACOPY CALLER CALLER 0x2E CALLDATACOPY CALLER BALANCE ADDRESS CODESIZE CALLDATACOPY CODESIZE ADDRESS ORIGIN CALLDATACOPY ADDRESS CODESIZE CODESIZE KECCAK256 COINBASE KECCAK256 ORIGIN CALLVALUE ADDRESS KECCAK256 ORIGIN CALLVALUE ADDRESS KECCAK256 ADDRESS KECCAK256 ADDRESS KECCAK256 ADDRESS KECCAK256 CALLVALUE CALLVALUE ORIGIN 0x2E CALLER CALLER BALANCE CALLDATASIZE CALLDATACOPY CALLDATACOPY CALLVALUE CALLDATALOAD CODESIZE CODECOPY ORIGIN CODECOPY ADDRESS CALLDATALOAD KECCAK256 CALLDATACOPY CALLVALUE BALANCE 0x2E CALLDATASIZE CALLDATASIZE CALLDATALOAD CALLDATASIZE CODESIZE ADDRESS CALLDATALOAD CALLDATACOPY CALLDATALOAD CALLDATACOPY CALLER ADDRESS BALANCE KECCAK256 GAS 0x22 KECCAK256 PUSH7 0x696C6C3D22626C PUSH2 0x636B 0x22 KECCAK256 PUSH20 0x74726F6B653D22626C61636B22207374726F6B65 0x2D PUSH24 0x696474683D2231222F3E0A3C7061746820643D224D203335 CODESIZE 0x2E CODECOPY ORIGIN CALLDATASIZE CALLDATASIZE ORIGIN CALLDATACOPY ADDRESS CALLDATALOAD CALLER CODECOPY CALLDATASIZE CALLVALUE BALANCE KECCAK256 CODESIZE CODESIZE BALANCE 0x2E CALLDATALOAD CALLDATALOAD BALANCE CODESIZE BALANCE CALLER ADDRESS ADDRESS CALLVALUE CALLDATALOAD BALANCE CALLVALUE CODESIZE KECCAK256 COINBASE KECCAK256 CALLVALUE ADDRESS ADDRESS KECCAK256 CALLVALUE ADDRESS ADDRESS KECCAK256 ADDRESS KECCAK256 ADDRESS KECCAK256 BALANCE KECCAK256 CALLER ORIGIN CALLER 0x2E CALLVALUE CALLVALUE BALANCE CALLER ADDRESS CALLDATALOAD ORIGIN CALLDATASIZE CODECOPY CALLDATASIZE ADDRESS ADDRESS CODECOPY KECCAK256 CODESIZE CALLDATASIZE CALLVALUE 0x2E CALLDATACOPY CALLDATASIZE CODESIZE CALLDATALOAD ADDRESS CALLDATALOAD CALLDATACOPY CALLER CODECOPY CALLER CALLVALUE ORIGIN KECCAK256 0x4C KECCAK256 ORIGIN CODESIZE CALLDATALOAD 0x2E CALLDATACOPY ORIGIN CODECOPY CALLDATALOAD CALLDATASIZE CALLDATASIZE CALLER ORIGIN CALLER CALLDATALOAD ORIGIN BALANCE BALANCE KECCAK256 CODECOPY CALLER CALLDATALOAD 0x2E CALLER ORIGIN ORIGIN ORIGIN ADDRESS CALLDATASIZE CODESIZE CODESIZE CALLDATACOPY ORIGIN BALANCE ADDRESS CALLVALUE KECCAK256 COINBASE KECCAK256 CALLVALUE CODESIZE ADDRESS KECCAK256 CALLVALUE CODESIZE ADDRESS KECCAK256 ADDRESS KECCAK256 ADDRESS KECCAK256 ADDRESS KECCAK256 CALLER ORIGIN CODESIZE 0x2E CALLER BALANCE BALANCE CODECOPY CALLDATALOAD ORIGIN CALLVALUE CALLDATASIZE CALLVALUE CALLDATACOPY CALLDATALOAD CALLDATASIZE CODECOPY KECCAK256 CODECOPY CALLDATALOAD CALLDATALOAD 0x2E CALLVALUE CALLDATASIZE ORIGIN BALANCE CALLDATACOPY CALLDATALOAD CALLDATASIZE ADDRESS CALLDATALOAD CALLVALUE BALANCE CALLDATACOPY CALLDATACOPY KECCAK256 GAS 0x22 KECCAK256 PUSH7 0x696C6C3D22626C PUSH2 0x636B 0x22 KECCAK256 PUSH20 0x74726F6B653D22626C61636B22207374726F6B65 0x2D PUSH24 0x696474683D2231222F3E0A3C7061746820643D224D203338 CODECOPY 0x2E CALLDATALOAD CALLVALUE BALANCE CALLER ADDRESS BALANCE CALLDATASIZE CALLVALUE CALLER BALANCE CALLDATACOPY BALANCE CALLER KECCAK256 CODESIZE ADDRESS CALLDATACOPY 0x2E CALLDATASIZE CALLVALUE BALANCE CALLVALUE CALLDATALOAD ADDRESS CALLVALUE ADDRESS CALLER CALLDATASIZE BALANCE BALANCE CODESIZE KECCAK256 COINBASE KECCAK256 CALLER ORIGIN ADDRESS KECCAK256 CALLER ORIGIN ADDRESS KECCAK256 ADDRESS KECCAK256 ADDRESS KECCAK256 BALANCE KECCAK256 CALLER CALLDATASIZE BALANCE 0x2E BALANCE CALLDATALOAD CALLER ADDRESS CALLVALUE CALLVALUE ORIGIN BALANCE CALLDATALOAD CALLDATASIZE CODESIZE ADDRESS CALLDATACOPY KECCAK256 CALLDATACOPY CODECOPY CALLVALUE 0x2E ORIGIN BALANCE CALLVALUE CODESIZE ADDRESS CALLVALUE CALLDATALOAD CODECOPY BALANCE CALLVALUE CALLDATACOPY CALLER CALLDATACOPY KECCAK256 0x4C KECCAK256 CALLER ORIGIN CALLER 0x2E CALLVALUE CALLVALUE BALANCE CALLER ADDRESS CALLDATALOAD ORIGIN CALLDATASIZE CODECOPY CALLDATASIZE ADDRESS ADDRESS CODECOPY KECCAK256 CODESIZE CALLDATASIZE CALLVALUE 0x2E CALLDATACOPY CALLDATASIZE CODESIZE CALLDATALOAD ADDRESS CALLDATALOAD CALLDATACOPY CALLER CODECOPY CALLER CALLVALUE ORIGIN KECCAK256 COINBASE KECCAK256 CALLVALUE ADDRESS ADDRESS KECCAK256 CALLVALUE ADDRESS ADDRESS KECCAK256 ADDRESS KECCAK256 ADDRESS KECCAK256 ADDRESS KECCAK256 CALLER CALLDATALOAD CODESIZE 0x2E CODECOPY ORIGIN CALLDATASIZE CALLDATASIZE ORIGIN CALLDATACOPY ADDRESS CALLDATALOAD CALLER CODECOPY CALLDATASIZE CALLVALUE BALANCE KECCAK256 CODESIZE CODESIZE BALANCE 0x2E CALLDATALOAD CALLDATALOAD BALANCE CODESIZE BALANCE CALLER ADDRESS ADDRESS CALLVALUE CALLDATALOAD BALANCE CALLVALUE CODESIZE KECCAK256 GAS 0x22 KECCAK256 PUSH7 0x696C6C3D22626C PUSH2 0x636B 0x22 KECCAK256 PUSH20 0x74726F6B653D22626C61636B22207374726F6B65 0x2D PUSH24 0x696474683D2231222F3E0A3C7061746820643D224D203432 ADDRESS 0x2E BALANCE CALLDATALOAD CALLDATALOAD CODECOPY CALLDATACOPY CALLDATASIZE ORIGIN CALLER ORIGIN CALLER CALLDATACOPY CODESIZE CALLVALUE CALLDATASIZE KECCAK256 CALLDATACOPY CALLER CALLER 0x2E CALLDATACOPY CALLER BALANCE ADDRESS CODESIZE CALLDATACOPY CODESIZE ADDRESS ORIGIN CALLDATACOPY ADDRESS CODESIZE CODESIZE KECCAK256 COINBASE KECCAK256 ORIGIN CALLVALUE ADDRESS KECCAK256 ORIGIN CALLVALUE ADDRESS KECCAK256 ADDRESS KECCAK256 ADDRESS KECCAK256 BALANCE KECCAK256 CALLER CODECOPY CODESIZE 0x2E CODESIZE CALLDATASIZE CALLVALUE CALLDATACOPY CODESIZE CALLER BALANCE CALLDATASIZE BALANCE CALLDATACOPY CALLDATASIZE ADDRESS CALLDATALOAD CALLDATASIZE KECCAK256 CALLDATACOPY ORIGIN CALLER 0x2E CALLDATASIZE CALLDATASIZE BALANCE BALANCE ADDRESS CALLER CALLVALUE CALLVALUE CALLER CALLDATASIZE ADDRESS CALLDATALOAD CALLER KECCAK256 0x4C KECCAK256 CALLER CALLDATASIZE BALANCE 0x2E BALANCE CALLDATALOAD CALLER ADDRESS CALLVALUE CALLVALUE ORIGIN BALANCE CALLDATALOAD CALLDATASIZE CODESIZE ADDRESS CALLDATACOPY KECCAK256 CALLDATACOPY CODECOPY CALLVALUE 0x2E ORIGIN BALANCE CALLVALUE CODESIZE ADDRESS CALLVALUE CALLDATALOAD CODECOPY BALANCE CALLVALUE CALLDATACOPY CALLER CALLDATACOPY KECCAK256 COINBASE KECCAK256 CALLER ORIGIN ADDRESS KECCAK256 CALLER ORIGIN ADDRESS KECCAK256 ADDRESS KECCAK256 ADDRESS KECCAK256 ADDRESS KECCAK256 CALLER CODESIZE CODECOPY 0x2E CALLDATALOAD CALLVALUE BALANCE CALLER ADDRESS BALANCE CALLDATASIZE CALLVALUE CALLER BALANCE CALLDATACOPY BALANCE CALLER KECCAK256 CODESIZE ADDRESS CALLDATACOPY 0x2E CALLDATASIZE CALLVALUE BALANCE CALLVALUE CALLDATALOAD ADDRESS CALLVALUE ADDRESS CALLER CALLDATASIZE BALANCE BALANCE CODESIZE KECCAK256 GAS 0x22 KECCAK256 PUSH7 0x696C6C3D22626C PUSH2 0x636B 0x22 KECCAK256 PUSH20 0x74726F6B653D22626C61636B22207374726F6B65 0x2D PUSH24 0x696474683D2231222F3E0A3C7061746820643D224D203435 ADDRESS 0x2E CALLDATACOPY CALLDATACOPY ADDRESS CALLDATASIZE CALLDATALOAD ADDRESS CODESIZE ORIGIN BALANCE CALLDATALOAD CODESIZE CALLDATALOAD CALLDATASIZE CALLDATASIZE KECCAK256 CALLDATASIZE CALLDATALOAD CODECOPY 0x2E CODESIZE ORIGIN ADDRESS CALLDATACOPY ORIGIN CALLDATALOAD ORIGIN ADDRESS BALANCE CODESIZE ADDRESS CALLDATALOAD CODECOPY KECCAK256 COINBASE KECCAK256 BALANCE CALLDATASIZE ADDRESS KECCAK256 BALANCE CALLDATASIZE ADDRESS KECCAK256 ADDRESS KECCAK256 ADDRESS KECCAK256 BALANCE KECCAK256 CALLVALUE CALLER CALLDATASIZE 0x2E CALLDATALOAD CALLDATACOPY CALLDATASIZE CALLDATALOAD ORIGIN ORIGIN BALANCE ADDRESS CALLDATACOPY CODESIZE CALLVALUE ADDRESS CALLER CALLER KECCAK256 CALLDATASIZE CALLDATALOAD CALLER 0x2E BALANCE ADDRESS CALLDATACOPY CALLVALUE ADDRESS ORIGIN ORIGIN CODECOPY CALLDATALOAD CALLDATACOPY CALLER CALLDATASIZE CODESIZE KECCAK256 0x4C KECCAK256 CALLER CODECOPY CODESIZE 0x2E CODESIZE CALLDATASIZE CALLVALUE CALLDATACOPY CODESIZE CALLER BALANCE CALLDATASIZE BALANCE CALLDATACOPY CALLDATASIZE ADDRESS CALLDATALOAD CALLDATASIZE KECCAK256 CALLDATACOPY ORIGIN CALLER 0x2E CALLDATASIZE CALLDATASIZE BALANCE BALANCE ADDRESS CALLER CALLVALUE CALLVALUE CALLER CALLDATASIZE ADDRESS CALLDATALOAD CALLER KECCAK256 COINBASE KECCAK256 ORIGIN CALLVALUE ADDRESS KECCAK256 ORIGIN CALLVALUE ADDRESS KECCAK256 ADDRESS KECCAK256 ADDRESS KECCAK256 ADDRESS KECCAK256 CALLVALUE ORIGIN ADDRESS 0x2E BALANCE CALLDATALOAD CALLDATALOAD CODECOPY CALLDATACOPY CALLDATASIZE ORIGIN CALLER ORIGIN CALLER CALLDATACOPY CODESIZE CALLVALUE CALLDATASIZE KECCAK256 CALLDATACOPY CALLER CALLER 0x2E CALLDATACOPY CALLER BALANCE ADDRESS CODESIZE CALLDATACOPY CODESIZE ADDRESS ORIGIN CALLDATACOPY ADDRESS CODESIZE CODESIZE KECCAK256 GAS 0x22 KECCAK256 PUSH7 0x696C6C3D22626C PUSH2 0x636B 0x22 KECCAK256 PUSH20 0x74726F6B653D22626C61636B22207374726F6B65 0x2D PUSH24 0x696474683D2231222F3E0A3C7061746820643D224D203332 CALLER 0x2E CALLVALUE CALLVALUE BALANCE CALLER ADDRESS CALLDATALOAD ORIGIN CALLDATASIZE CODECOPY CALLDATASIZE ADDRESS ADDRESS CODECOPY KECCAK256 CODESIZE CALLDATASIZE CALLVALUE 0x2E CALLDATACOPY CALLDATASIZE CODESIZE CALLDATALOAD ADDRESS CALLDATALOAD CALLDATACOPY CALLER CODECOPY CALLER CALLVALUE ORIGIN KECCAK256 COINBASE KECCAK256 CALLVALUE ADDRESS ADDRESS KECCAK256 CALLVALUE ADDRESS ADDRESS KECCAK256 ADDRESS KECCAK256 ADDRESS KECCAK256 BALANCE KECCAK256 ORIGIN CODESIZE CODECOPY 0x2E CALLDATACOPY CALLDATACOPY BALANCE CODECOPY ADDRESS CALLDATASIZE CALLDATACOPY CODECOPY ORIGIN BALANCE CALLDATALOAD CODECOPY BALANCE KECCAK256 CODESIZE CALLVALUE CALLVALUE 0x2E CALLDATALOAD CODESIZE CALLDATACOPY CODESIZE CALLVALUE CALLVALUE CODECOPY ORIGIN BALANCE ADDRESS BALANCE CODESIZE BALANCE KECCAK256 0x4C KECCAK256 ORIGIN CALLVALUE CALLDATALOAD 0x2E CALLER ORIGIN CALLDATASIZE ORIGIN CODESIZE CODESIZE BALANCE CALLDATALOAD ADDRESS CALLDATALOAD CODECOPY ADDRESS CODECOPY CALLER KECCAK256 CODECOPY BALANCE BALANCE 0x2E BALANCE ADDRESS CALLDATALOAD CALLVALUE BALANCE CALLER CODECOPY ADDRESS CALLDATALOAD ORIGIN ORIGIN BALANCE CALLDATACOPY KECCAK256 COINBASE KECCAK256 CALLVALUE CODESIZE ADDRESS KECCAK256 CALLVALUE CODESIZE ADDRESS KECCAK256 ADDRESS KECCAK256 ADDRESS KECCAK256 ADDRESS KECCAK256 ORIGIN CODESIZE CALLDATALOAD 0x2E CALLDATACOPY ORIGIN CODECOPY CALLDATALOAD CALLDATASIZE CALLDATASIZE CALLER ORIGIN CALLER CALLDATALOAD ORIGIN BALANCE BALANCE KECCAK256 CODECOPY CALLER CALLDATALOAD 0x2E CALLER ORIGIN ORIGIN ORIGIN ADDRESS CALLDATASIZE CODESIZE CODESIZE CALLDATACOPY ORIGIN BALANCE ADDRESS CALLVALUE KECCAK256 GAS 0x22 KECCAK256 PUSH7 0x696C6C3D22626C PUSH2 0x636B 0x22 KECCAK256 PUSH20 0x74726F6B653D22626C61636B22207374726F6B65 0x2D PUSH24 0x696474683D2231222F3E0A3C7061746820643D224D203336 BALANCE 0x2E BALANCE CALLDATALOAD CALLER ADDRESS CALLVALUE CALLVALUE ORIGIN BALANCE CALLDATALOAD CALLDATASIZE CODESIZE ADDRESS CALLDATACOPY KECCAK256 CALLDATACOPY CODECOPY CALLVALUE 0x2E ORIGIN BALANCE CALLVALUE CODESIZE ADDRESS CALLVALUE CALLDATALOAD CODECOPY BALANCE CALLVALUE CALLDATACOPY CALLER CALLDATACOPY KECCAK256 COINBASE KECCAK256 CALLER ORIGIN ADDRESS KECCAK256 CALLER ORIGIN ADDRESS KECCAK256 ADDRESS KECCAK256 ADDRESS KECCAK256 BALANCE KECCAK256 CALLER CALLER CALLVALUE 0x2E ORIGIN BALANCE CALLDATACOPY CALLDATALOAD ORIGIN CALLDATALOAD CALLVALUE CALLER CALLER CALLDATACOPY ORIGIN CALLDATACOPY ORIGIN CALLDATALOAD KECCAK256 CALLDATACOPY CALLDATACOPY CODESIZE 0x2E ADDRESS CALLDATACOPY ADDRESS ORIGIN CALLDATACOPY CALLDATALOAD CODECOPY CALLER CALLDATASIZE CODESIZE BALANCE CALLVALUE CALLVALUE KECCAK256 0x4C KECCAK256 ORIGIN CODESIZE CODECOPY 0x2E CALLDATACOPY CALLDATACOPY BALANCE CODECOPY ADDRESS CALLDATASIZE CALLDATACOPY CODECOPY ORIGIN BALANCE CALLDATALOAD CODECOPY BALANCE KECCAK256 CODESIZE CALLVALUE CALLVALUE 0x2E CALLDATALOAD CODESIZE CALLDATACOPY CODESIZE CALLVALUE CALLVALUE CODECOPY ORIGIN BALANCE ADDRESS BALANCE CODESIZE BALANCE KECCAK256 COINBASE KECCAK256 CALLVALUE ADDRESS ADDRESS KECCAK256 CALLVALUE ADDRESS ADDRESS KECCAK256 ADDRESS KECCAK256 ADDRESS KECCAK256 ADDRESS KECCAK256 CALLER ORIGIN CALLER 0x2E CALLVALUE CALLVALUE BALANCE CALLER ADDRESS CALLDATALOAD ORIGIN CALLDATASIZE CODECOPY CALLDATASIZE ADDRESS ADDRESS CODECOPY KECCAK256 CODESIZE CALLDATASIZE CALLVALUE 0x2E CALLDATACOPY CALLDATASIZE CODESIZE CALLDATALOAD ADDRESS CALLDATALOAD CALLDATACOPY CALLER CODECOPY CALLER CALLVALUE ORIGIN KECCAK256 GAS 0x22 KECCAK256 PUSH7 0x696C6C3D22626C PUSH2 0x636B 0x22 KECCAK256 PUSH20 0x74726F6B653D22626C61636B22207374726F6B65 0x2D PUSH24 0x696474683D2231222F3E0A3C7061746820643D224D203339 CODESIZE 0x2E CODESIZE CALLDATASIZE CALLVALUE CALLDATACOPY CODESIZE CALLER BALANCE CALLDATASIZE BALANCE CALLDATACOPY CALLDATASIZE ADDRESS CALLDATALOAD CALLDATASIZE KECCAK256 CALLDATACOPY ORIGIN CALLER 0x2E CALLDATASIZE CALLDATASIZE BALANCE BALANCE ADDRESS CALLER CALLVALUE CALLVALUE CALLER CALLDATASIZE ADDRESS CALLDATALOAD CALLER KECCAK256 COINBASE KECCAK256 ORIGIN CALLVALUE ADDRESS KECCAK256 ORIGIN CALLVALUE ADDRESS KECCAK256 ADDRESS KECCAK256 ADDRESS KECCAK256 BALANCE KECCAK256 CALLER CALLDATACOPY CODESIZE 0x2E CALLDATASIZE CALLDATASIZE CALLER BALANCE CALLVALUE CALLVALUE ADDRESS CALLDATACOPY CALLDATALOAD ORIGIN CODECOPY CALLDATALOAD CALLVALUE CALLDATASIZE KECCAK256 CALLDATACOPY BALANCE BALANCE 0x2E CALLDATALOAD CALLDATALOAD ORIGIN CALLDATACOPY ADDRESS CALLDATASIZE CODECOPY CALLDATALOAD ORIGIN CALLDATASIZE BALANCE ADDRESS CODESIZE KECCAK256 0x4C KECCAK256 CALLER CALLER CALLVALUE 0x2E ORIGIN BALANCE CALLDATACOPY CALLDATALOAD ORIGIN CALLDATALOAD CALLVALUE CALLER CALLER CALLDATACOPY ORIGIN CALLDATACOPY ORIGIN CALLDATALOAD KECCAK256 CALLDATACOPY CALLDATACOPY CODESIZE 0x2E ADDRESS CALLDATACOPY ADDRESS ORIGIN CALLDATACOPY CALLDATALOAD CODECOPY CALLER CALLDATASIZE CODESIZE BALANCE CALLVALUE CALLVALUE KECCAK256 COINBASE KECCAK256 CALLER ORIGIN ADDRESS KECCAK256 CALLER ORIGIN ADDRESS KECCAK256 ADDRESS KECCAK256 ADDRESS KECCAK256 ADDRESS KECCAK256 CALLER CALLDATASIZE BALANCE 0x2E BALANCE CALLDATALOAD CALLER ADDRESS CALLVALUE CALLVALUE ORIGIN BALANCE CALLDATALOAD CALLDATASIZE CODESIZE ADDRESS CALLDATACOPY KECCAK256 CALLDATACOPY CODECOPY CALLVALUE 0x2E ORIGIN BALANCE CALLVALUE CODESIZE ADDRESS CALLVALUE CALLDATALOAD CODECOPY BALANCE CALLVALUE CALLDATACOPY CALLER CALLDATACOPY KECCAK256 GAS 0x22 KECCAK256 PUSH7 0x696C6C3D22626C PUSH2 0x636B 0x22 KECCAK256 PUSH20 0x74726F6B653D22626C61636B22207374726F6B65 0x2D PUSH24 0x696474683D2231222F3E0A3C7061746820643D224D203433 CALLDATASIZE 0x2E CALLDATALOAD CALLDATACOPY CALLDATASIZE CALLDATALOAD ORIGIN ORIGIN BALANCE ADDRESS CALLDATACOPY CODESIZE CALLVALUE ADDRESS CALLER CALLER KECCAK256 CALLDATASIZE CALLDATALOAD CALLER 0x2E BALANCE ADDRESS CALLDATACOPY CALLVALUE ADDRESS ORIGIN ORIGIN CODECOPY CALLDATALOAD CALLDATACOPY CALLER CALLDATASIZE CODESIZE KECCAK256 COINBASE KECCAK256 BALANCE CALLDATASIZE ADDRESS KECCAK256 BALANCE CALLDATASIZE ADDRESS KECCAK256 ADDRESS KECCAK256 ADDRESS KECCAK256 BALANCE KECCAK256 CALLVALUE ORIGIN CALLER 0x2E BALANCE ADDRESS CODESIZE CALLDATACOPY CALLDATASIZE ORIGIN CALLDATACOPY BALANCE CALLDATASIZE CODESIZE CALLDATASIZE CALLER CALLDATASIZE KECCAK256 CALLDATASIZE CALLVALUE CALLDATALOAD 0x2E ADDRESS CALLER CALLDATALOAD BALANCE CALLER CALLDATACOPY CODECOPY CALLDATASIZE CODESIZE CALLVALUE ADDRESS CALLDATACOPY ORIGIN KECCAK256 0x4C KECCAK256 CALLER CALLDATACOPY CODESIZE 0x2E CALLDATASIZE CALLDATASIZE CALLER BALANCE CALLVALUE CALLVALUE ADDRESS CALLDATACOPY CALLDATALOAD ORIGIN CODECOPY CALLDATALOAD CALLVALUE CALLDATASIZE KECCAK256 CALLDATACOPY BALANCE BALANCE 0x2E CALLDATALOAD CALLDATALOAD ORIGIN CALLDATACOPY ADDRESS CALLDATASIZE CODECOPY CALLDATALOAD ORIGIN CALLDATASIZE BALANCE ADDRESS CODESIZE KECCAK256 COINBASE KECCAK256 ORIGIN CALLVALUE ADDRESS KECCAK256 ORIGIN CALLVALUE ADDRESS KECCAK256 ADDRESS KECCAK256 ADDRESS KECCAK256 ADDRESS KECCAK256 CALLER CODECOPY CODESIZE 0x2E CODESIZE CALLDATASIZE CALLVALUE CALLDATACOPY CODESIZE CALLER BALANCE CALLDATASIZE BALANCE CALLDATACOPY CALLDATASIZE ADDRESS CALLDATALOAD CALLDATASIZE KECCAK256 CALLDATACOPY ORIGIN CALLER 0x2E CALLDATASIZE CALLDATASIZE BALANCE BALANCE ADDRESS CALLER CALLVALUE CALLVALUE CALLER CALLDATASIZE ADDRESS CALLDATALOAD CALLER KECCAK256 GAS 0x22 KECCAK256 PUSH7 0x696C6C3D22626C PUSH2 0x636B 0x22 KECCAK256 PUSH20 0x74726F6B653D22626C61636B22207374726F6B65 0x2D PUSH24 0x696474683D2231222F3E0A3C7061746820643D224D203238 CODECOPY 0x2E CALLDATACOPY CALLDATACOPY BALANCE CODECOPY ADDRESS CALLDATASIZE CALLDATACOPY CODECOPY ORIGIN BALANCE CALLDATALOAD CODECOPY ORIGIN CALLDATASIZE KECCAK256 CODESIZE CALLVALUE CALLVALUE 0x2E CALLDATALOAD CODESIZE CALLDATACOPY CODESIZE CALLVALUE CALLVALUE CODECOPY ORIGIN BALANCE ADDRESS BALANCE CODESIZE BALANCE KECCAK256 COINBASE KECCAK256 CALLVALUE ADDRESS ADDRESS KECCAK256 CALLVALUE ADDRESS ADDRESS KECCAK256 ADDRESS KECCAK256 ADDRESS KECCAK256 BALANCE KECCAK256 ORIGIN CALLDATALOAD CODESIZE 0x2E ORIGIN CALLVALUE ORIGIN CALLDATASIZE CODESIZE CALLDATASIZE CALLER CALLER CALLVALUE CALLDATALOAD CALLVALUE BALANCE CODECOPY KECCAK256 CODESIZE ORIGIN BALANCE 0x2E ORIGIN ADDRESS CALLVALUE BALANCE CODESIZE BALANCE CALLER CALLVALUE CALLDATALOAD ADDRESS CODECOPY CALLVALUE CODECOPY KECCAK256 0x4C KECCAK256 ORIGIN ADDRESS CALLDATACOPY 0x2E CALLVALUE CODECOPY BALANCE ORIGIN ORIGIN CALLER CALLDATASIZE ADDRESS BALANCE CALLVALUE CALLDATALOAD ADDRESS ORIGIN CALLDATASIZE KECCAK256 CODESIZE CODESIZE CALLER 0x2E ADDRESS CALLVALUE CALLDATALOAD ADDRESS BALANCE CALLDATACOPY CALLDATASIZE BALANCE CALLVALUE BALANCE BALANCE CALLER CODESIZE KECCAK256 COINBASE KECCAK256 CALLVALUE CODESIZE ADDRESS KECCAK256 CALLVALUE CODESIZE ADDRESS KECCAK256 ADDRESS KECCAK256 ADDRESS KECCAK256 ADDRESS KECCAK256 ORIGIN CALLVALUE CALLDATALOAD 0x2E CALLER ORIGIN CALLDATASIZE ORIGIN CODESIZE CODESIZE BALANCE CALLDATALOAD ADDRESS CALLDATALOAD CODECOPY BALANCE ADDRESS CALLVALUE KECCAK256 CODECOPY BALANCE BALANCE 0x2E BALANCE ADDRESS CALLDATALOAD CALLVALUE BALANCE CALLER CODECOPY ADDRESS CALLDATALOAD ORIGIN ORIGIN BALANCE CODECOPY KECCAK256 GAS 0x22 KECCAK256 PUSH7 0x696C6C3D22626C PUSH2 0x636B 0x22 KECCAK256 PUSH20 0x74726F6B653D22626C61636B22207374726F6B65 0x2D PUSH24 0x696474683D2231222F3E0A3C7061746820643D224D203333 CALLVALUE 0x2E ORIGIN BALANCE CALLDATACOPY CALLDATALOAD ORIGIN CALLDATALOAD CALLVALUE CALLER CALLER CALLDATACOPY ORIGIN CALLDATACOPY CALLER CALLDATASIZE KECCAK256 CALLDATACOPY CALLDATACOPY CODESIZE 0x2E ADDRESS CALLDATACOPY ADDRESS ORIGIN CALLDATACOPY CALLDATALOAD CODECOPY CALLER CALLDATASIZE CODESIZE BALANCE CALLVALUE CALLDATASIZE KECCAK256 COINBASE KECCAK256 CALLER ORIGIN ADDRESS KECCAK256 CALLER ORIGIN ADDRESS KECCAK256 ADDRESS KECCAK256 ADDRESS KECCAK256 BALANCE KECCAK256 CALLER ADDRESS CODESIZE 0x2E CODECOPY CODECOPY CALLVALUE BALANCE CALLVALUE CODECOPY ADDRESS CALLDATASIZE CALLDATACOPY CALLDATASIZE CALLER CALLER CALLDATALOAD CALLVALUE KECCAK256 CALLDATACOPY CALLDATALOAD CODECOPY 0x2E CALLER CALLDATASIZE CALLER CALLER CALLVALUE CALLDATALOAD ADDRESS CALLDATACOPY CALLDATASIZE ADDRESS CALLDATACOPY CALLDATALOAD CODESIZE KECCAK256 0x4C KECCAK256 ORIGIN CALLDATALOAD CODESIZE 0x2E ORIGIN CALLVALUE ORIGIN CALLDATASIZE CODESIZE CALLDATASIZE CALLER CALLER CALLVALUE CALLDATALOAD CALLVALUE BALANCE CODECOPY KECCAK256 CODESIZE ORIGIN BALANCE 0x2E ORIGIN ADDRESS CALLVALUE BALANCE CODESIZE BALANCE CALLER CALLVALUE CALLDATALOAD ADDRESS CODECOPY CALLVALUE CODECOPY KECCAK256 COINBASE KECCAK256 CALLVALUE ADDRESS ADDRESS KECCAK256 CALLVALUE ADDRESS ADDRESS KECCAK256 ADDRESS KECCAK256 ADDRESS KECCAK256 ADDRESS KECCAK256 ORIGIN CODESIZE CODECOPY 0x2E CALLDATACOPY CALLDATACOPY BALANCE CODECOPY ADDRESS CALLDATASIZE CALLDATACOPY CODECOPY ORIGIN BALANCE CALLDATALOAD CODECOPY ORIGIN CALLDATASIZE KECCAK256 CODESIZE CALLVALUE CALLVALUE 0x2E CALLDATALOAD CODESIZE CALLDATACOPY CODESIZE CALLVALUE CALLVALUE CODECOPY ORIGIN BALANCE ADDRESS BALANCE CODESIZE BALANCE KECCAK256 GAS 0x22 KECCAK256 PUSH7 0x696C6C3D22626C PUSH2 0x636B 0x22 KECCAK256 PUSH20 0x74726F6B653D22626C61636B22207374726F6B65 0x2D PUSH24 0x696474683D2231222F3E0A3C7061746820643D224D203337 CODESIZE 0x2E CALLDATASIZE CALLDATASIZE CALLER BALANCE CALLVALUE CALLVALUE ADDRESS CALLDATACOPY CALLDATALOAD ORIGIN CODECOPY CALLDATALOAD CALLDATALOAD KECCAK256 CALLDATACOPY BALANCE BALANCE 0x2E CALLDATALOAD CALLDATALOAD ORIGIN CALLDATACOPY ADDRESS CALLDATASIZE CODECOPY CALLDATALOAD ORIGIN CALLDATASIZE BALANCE BALANCE KECCAK256 COINBASE KECCAK256 ORIGIN CALLVALUE ADDRESS KECCAK256 ORIGIN CALLVALUE ADDRESS KECCAK256 ADDRESS KECCAK256 ADDRESS KECCAK256 BALANCE KECCAK256 CALLER CALLDATALOAD CODECOPY 0x2E CALLDATACOPY CALLVALUE CALLDATALOAD CALLDATASIZE BALANCE BALANCE CODESIZE ADDRESS ADDRESS CALLDATACOPY ORIGIN CALLDATALOAD BALANCE KECCAK256 CALLDATASIZE CODECOPY CALLDATACOPY 0x2E CALLDATALOAD ORIGIN ORIGIN CALLDATALOAD ADDRESS CODESIZE CODESIZE ADDRESS CALLDATACOPY ADDRESS CALLDATALOAD CALLDATACOPY KECCAK256 0x4C KECCAK256 CALLER ADDRESS CODESIZE 0x2E CODECOPY CODECOPY CALLVALUE BALANCE CALLVALUE CODECOPY ADDRESS CALLDATASIZE CALLDATACOPY CALLDATASIZE CALLER CALLER CALLDATALOAD CALLVALUE KECCAK256 CALLDATACOPY CALLDATALOAD CODECOPY 0x2E CALLER CALLDATASIZE CALLER CALLER CALLVALUE CALLDATALOAD ADDRESS CALLDATACOPY CALLDATASIZE ADDRESS CALLDATACOPY CALLDATALOAD CODESIZE KECCAK256 COINBASE KECCAK256 CALLER ORIGIN ADDRESS KECCAK256 CALLER ORIGIN ADDRESS KECCAK256 ADDRESS KECCAK256 ADDRESS KECCAK256 ADDRESS KECCAK256 CALLER CALLER CALLVALUE 0x2E ORIGIN BALANCE CALLDATACOPY CALLDATALOAD ORIGIN CALLDATALOAD CALLVALUE CALLER CALLER CALLDATACOPY ORIGIN CALLDATACOPY CALLER CALLDATASIZE KECCAK256 CALLDATACOPY CALLDATACOPY CODESIZE 0x2E ADDRESS CALLDATACOPY ADDRESS ORIGIN CALLDATACOPY CALLDATALOAD CODECOPY CALLER CALLDATASIZE CODESIZE BALANCE CALLVALUE CALLDATASIZE KECCAK256 GAS 0x22 KECCAK256 PUSH7 0x696C6C3D22626C PUSH2 0x636B 0x22 KECCAK256 PUSH20 0x74726F6B653D22626C61636B22207374726F6B65 0x2D PUSH24 0x696474683D2231222F3E0A3C7061746820643D224D203432 CALLER 0x2E BALANCE ADDRESS CODESIZE CALLDATACOPY CALLDATASIZE ORIGIN CALLDATACOPY BALANCE CALLDATASIZE CODESIZE CALLDATASIZE CALLER CALLDATACOPY KECCAK256 CALLDATASIZE CALLVALUE CALLDATALOAD 0x2E ADDRESS CALLER CALLDATALOAD BALANCE CALLER CALLDATACOPY CODECOPY CALLDATASIZE CODESIZE CALLVALUE ADDRESS CALLDATACOPY CALLER KECCAK256 COINBASE KECCAK256 BALANCE CALLDATASIZE ADDRESS KECCAK256 BALANCE CALLDATASIZE ADDRESS KECCAK256 ADDRESS KECCAK256 ADDRESS KECCAK256 BALANCE KECCAK256 CALLVALUE BALANCE ADDRESS 0x2E CALLVALUE CODECOPY CALLDATACOPY ADDRESS CALLDATACOPY CALLVALUE CALLDATALOAD CALLER CALLER CODESIZE BALANCE CALLDATASIZE CODESIZE KECCAK256 CALLDATASIZE CALLER CALLDATALOAD 0x2E CALLDATASIZE CODESIZE BALANCE CALLDATASIZE CALLDATACOPY ORIGIN CALLDATALOAD CALLER CODESIZE ADDRESS CALLER CALLDATACOPY CODECOPY KECCAK256 0x4C KECCAK256 CALLER CALLDATALOAD CODECOPY 0x2E CALLDATACOPY CALLVALUE CALLDATALOAD CALLDATASIZE BALANCE BALANCE CODESIZE ADDRESS ADDRESS CALLDATACOPY ORIGIN CALLDATALOAD BALANCE KECCAK256 CALLDATASIZE CODECOPY CALLDATACOPY 0x2E CALLDATALOAD ORIGIN ORIGIN CALLDATALOAD ADDRESS CODESIZE CODESIZE ADDRESS CALLDATACOPY ADDRESS CALLDATALOAD CALLDATACOPY KECCAK256 COINBASE KECCAK256 ORIGIN CALLVALUE ADDRESS KECCAK256 ORIGIN CALLVALUE ADDRESS KECCAK256 ADDRESS KECCAK256 ADDRESS KECCAK256 ADDRESS KECCAK256 CALLER CALLDATACOPY CODESIZE 0x2E CALLDATASIZE CALLDATASIZE CALLER BALANCE CALLVALUE CALLVALUE ADDRESS CALLDATACOPY CALLDATALOAD ORIGIN CODECOPY CALLDATALOAD CALLDATALOAD KECCAK256 CALLDATACOPY BALANCE BALANCE 0x2E CALLDATALOAD CALLDATALOAD ORIGIN CALLDATACOPY ADDRESS CALLDATASIZE CODECOPY CALLDATALOAD ORIGIN CALLDATASIZE BALANCE BALANCE KECCAK256 GAS 0x22 KECCAK256 PUSH7 0x696C6C3D22626C PUSH2 0x636B 0x22 KECCAK256 PUSH20 0x74726F6B653D22626C61636B22207374726F6B65 0x2D PUSH24 0x696474683D2231222F3E0A3C7061746820643D224D203235 CODESIZE 0x2E ORIGIN CALLVALUE ORIGIN CALLDATASIZE CODESIZE CALLDATASIZE CALLER CALLER CALLVALUE CALLDATALOAD CALLVALUE BALANCE CODECOPY KECCAK256 CODESIZE ORIGIN BALANCE 0x2E ORIGIN ADDRESS CALLVALUE BALANCE CODESIZE BALANCE CALLER CALLVALUE CALLDATALOAD ADDRESS CODECOPY CALLVALUE CODECOPY KECCAK256 COINBASE KECCAK256 CALLVALUE ADDRESS ADDRESS KECCAK256 CALLVALUE ADDRESS ADDRESS KECCAK256 ADDRESS KECCAK256 ADDRESS KECCAK256 BALANCE KECCAK256 ORIGIN ORIGIN CODECOPY 0x2E BALANCE CALLDATALOAD CALLDATACOPY ORIGIN CODESIZE CALLDATACOPY CALLDATALOAD ORIGIN CALLDATALOAD CALLER CODESIZE BALANCE ADDRESS CALLVALUE KECCAK256 CALLDATACOPY CODECOPY CALLVALUE 0x2E CODESIZE CALLVALUE ORIGIN CALLDATACOPY BALANCE ORIGIN CALLVALUE CALLDATACOPY CALLVALUE CALLDATASIZE BALANCE CODECOPY KECCAK256 0x4C KECCAK256 BALANCE CALLDATACOPY ORIGIN 0x2E CALLDATALOAD CODESIZE CODESIZE CALLDATACOPY CALLVALUE CALLDATALOAD ADDRESS CALLER ADDRESS CALLVALUE CALLDATALOAD CALLDATACOPY ORIGIN CALLER KECCAK256 CODESIZE CALLDATALOAD BALANCE 0x2E CALLVALUE BALANCE BALANCE ORIGIN CALLDATALOAD CALLVALUE CODECOPY CALLDATASIZE CODECOPY CALLDATALOAD CALLVALUE ORIGIN CODESIZE KECCAK256 COINBASE KECCAK256 CALLVALUE CODESIZE ADDRESS KECCAK256 CALLVALUE CODESIZE ADDRESS KECCAK256 ADDRESS KECCAK256 ADDRESS KECCAK256 ADDRESS KECCAK256 ORIGIN ADDRESS CALLDATACOPY 0x2E CALLVALUE CODECOPY BALANCE ORIGIN ORIGIN CALLER CALLDATASIZE ADDRESS BALANCE CALLVALUE CALLDATALOAD ADDRESS ORIGIN CALLDATASIZE KECCAK256 CODESIZE CODESIZE CALLER 0x2E ADDRESS CALLVALUE CALLDATALOAD ADDRESS BALANCE CALLDATACOPY CALLDATASIZE BALANCE CALLVALUE BALANCE BALANCE CALLER CODESIZE KECCAK256 GAS 0x22 KECCAK256 PUSH7 0x696C6C3D22626C PUSH2 0x636B 0x22 KECCAK256 PUSH20 0x74726F6B653D22626C61636B22207374726F6B65 0x2D PUSH24 0x696474683D2231222F3E0A3C7061746820643D224D203330 CODESIZE 0x2E CODECOPY CODECOPY CALLVALUE BALANCE CALLVALUE CODECOPY ADDRESS CALLDATASIZE CALLDATACOPY CALLDATASIZE CALLER CALLER CALLDATALOAD CALLVALUE KECCAK256 CALLDATACOPY CALLDATALOAD CODECOPY 0x2E CALLER CALLDATASIZE CALLER CALLER CALLVALUE CALLDATALOAD ADDRESS CALLDATACOPY CALLDATASIZE ADDRESS CALLDATACOPY CALLDATALOAD CODESIZE KECCAK256 COINBASE KECCAK256 CALLER ORIGIN ADDRESS KECCAK256 CALLER ORIGIN ADDRESS KECCAK256 ADDRESS KECCAK256 ADDRESS KECCAK256 BALANCE KECCAK256 ORIGIN CODESIZE CALLDATALOAD 0x2E CALLDATACOPY ORIGIN CALLDATALOAD CODESIZE CALLER ADDRESS ADDRESS ORIGIN ADDRESS CALLER ADDRESS CALLVALUE CODESIZE KECCAK256 CALLDATACOPY CALLER CODESIZE 0x2E ORIGIN CALLDATACOPY CALLVALUE BALANCE CALLDATASIZE CODECOPY CODECOPY CALLDATACOPY CODECOPY CALLDATASIZE CODECOPY CALLDATALOAD ORIGIN KECCAK256 0x4C KECCAK256 ORIGIN ORIGIN CODECOPY 0x2E BALANCE CALLDATALOAD CALLDATACOPY ORIGIN CODESIZE CALLDATACOPY CALLDATALOAD ORIGIN CALLDATALOAD CALLER CODESIZE BALANCE ADDRESS CALLVALUE KECCAK256 CALLDATACOPY CODECOPY CALLVALUE 0x2E CODESIZE CALLVALUE ORIGIN CALLDATACOPY BALANCE ORIGIN CALLVALUE CALLDATACOPY CALLVALUE CALLDATASIZE BALANCE CODECOPY KECCAK256 COINBASE KECCAK256 CALLVALUE ADDRESS ADDRESS KECCAK256 CALLVALUE ADDRESS ADDRESS KECCAK256 ADDRESS KECCAK256 ADDRESS KECCAK256 ADDRESS KECCAK256 ORIGIN CALLDATALOAD CODESIZE 0x2E ORIGIN CALLVALUE ORIGIN CALLDATASIZE CODESIZE CALLDATASIZE CALLER CALLER CALLVALUE CALLDATALOAD CALLVALUE BALANCE CODECOPY KECCAK256 CODESIZE ORIGIN BALANCE 0x2E ORIGIN ADDRESS CALLVALUE BALANCE CODESIZE BALANCE CALLER CALLVALUE CALLDATALOAD ADDRESS CODECOPY CALLVALUE CODECOPY KECCAK256 GAS 0x22 KECCAK256 PUSH7 0x696C6C3D22626C PUSH2 0x636B 0x22 KECCAK256 PUSH20 0x74726F6B653D22626C61636B22207374726F6B65 0x2D PUSH24 0x696474683D2231222F3E0A3C7061746820643D224D203335 CODECOPY 0x2E CALLDATACOPY CALLVALUE CALLDATALOAD CALLDATASIZE BALANCE BALANCE CODESIZE ADDRESS ADDRESS CALLDATACOPY ORIGIN CALLDATALOAD BALANCE KECCAK256 CALLDATASIZE CODECOPY CALLDATACOPY 0x2E CALLDATALOAD ORIGIN ORIGIN CALLDATALOAD ADDRESS CODESIZE CODESIZE ADDRESS CALLDATACOPY ADDRESS CALLDATALOAD CALLDATACOPY KECCAK256 COINBASE KECCAK256 ORIGIN CALLVALUE ADDRESS KECCAK256 ORIGIN CALLVALUE ADDRESS KECCAK256 ADDRESS KECCAK256 ADDRESS KECCAK256 BALANCE KECCAK256 CALLER CALLVALUE ORIGIN 0x2E ORIGIN CODECOPY CALLVALUE CALLER CALLDATACOPY ORIGIN CALLDATALOAD BALANCE CALLDATALOAD ORIGIN ORIGIN CODESIZE CALLDATASIZE KECCAK256 CALLDATASIZE CODESIZE BALANCE 0x2E CALLDATACOPY ADDRESS CALLDATALOAD CALLDATASIZE ORIGIN CALLDATACOPY CALLVALUE CODESIZE CALLVALUE CALLDATACOPY CALLDATACOPY BALANCE CALLVALUE KECCAK256 0x4C KECCAK256 ORIGIN CODESIZE CALLDATALOAD 0x2E CALLDATACOPY ORIGIN CALLDATALOAD CODESIZE CALLER ADDRESS ADDRESS ORIGIN ADDRESS CALLER ADDRESS CALLVALUE CODESIZE KECCAK256 CALLDATACOPY CALLER CODESIZE 0x2E ORIGIN CALLDATACOPY CALLVALUE BALANCE CALLDATASIZE CODECOPY CODECOPY CALLDATACOPY CODECOPY CALLDATASIZE CODECOPY CALLDATALOAD ORIGIN KECCAK256 COINBASE KECCAK256 CALLER ORIGIN ADDRESS KECCAK256 CALLER ORIGIN ADDRESS KECCAK256 ADDRESS KECCAK256 ADDRESS KECCAK256 ADDRESS KECCAK256 CALLER ADDRESS CODESIZE 0x2E CODECOPY CODECOPY CALLVALUE BALANCE CALLVALUE CODECOPY ADDRESS CALLDATASIZE CALLDATACOPY CALLDATASIZE CALLER CALLER CALLDATALOAD CALLVALUE KECCAK256 CALLDATACOPY CALLDATALOAD CODECOPY 0x2E CALLER CALLDATASIZE CALLER CALLER CALLVALUE CALLDATALOAD ADDRESS CALLDATACOPY CALLDATASIZE ADDRESS CALLDATACOPY CALLDATALOAD CODESIZE KECCAK256 GAS 0x22 KECCAK256 PUSH7 0x696C6C3D22626C PUSH2 0x636B 0x22 KECCAK256 PUSH20 0x74726F6B653D22626C61636B22207374726F6B65 0x2D PUSH24 0x696474683D2231222F3E0A3C7061746820643D224D203431 ADDRESS 0x2E CALLVALUE CODECOPY CALLDATACOPY ADDRESS CALLDATACOPY CALLVALUE CALLDATALOAD CALLER CALLER CODESIZE BALANCE CALLDATASIZE CODESIZE KECCAK256 CALLDATASIZE CALLER CALLDATALOAD 0x2E CALLDATASIZE CODESIZE BALANCE CALLDATASIZE CALLDATACOPY ORIGIN CALLDATALOAD CALLER CODESIZE ADDRESS CALLER CALLDATACOPY CODECOPY KECCAK256 COINBASE KECCAK256 BALANCE CALLDATASIZE ADDRESS KECCAK256 BALANCE CALLDATASIZE ADDRESS KECCAK256 ADDRESS KECCAK256 ADDRESS KECCAK256 BALANCE KECCAK256 CALLER CODECOPY CODESIZE 0x2E CODESIZE CALLDATASIZE ORIGIN CODECOPY BALANCE CALLDATALOAD ADDRESS BALANCE ADDRESS BALANCE CALLDATALOAD ORIGIN CALLVALUE KECCAK256 CALLDATASIZE ORIGIN CALLDATALOAD 0x2E BALANCE CALLER CALLDATACOPY ADDRESS CODESIZE CALLVALUE CODECOPY CODESIZE CODECOPY CODESIZE CALLVALUE CALLDATACOPY CALLDATASIZE KECCAK256 0x4C KECCAK256 CALLER CALLVALUE ORIGIN 0x2E ORIGIN CODECOPY CALLVALUE CALLER CALLDATACOPY ORIGIN CALLDATALOAD BALANCE CALLDATALOAD ORIGIN ORIGIN CODESIZE CALLDATASIZE KECCAK256 CALLDATASIZE CODESIZE BALANCE 0x2E CALLDATACOPY ADDRESS CALLDATALOAD CALLDATASIZE ORIGIN CALLDATACOPY CALLVALUE CODESIZE CALLVALUE CALLDATACOPY CALLDATACOPY BALANCE CALLVALUE KECCAK256 COINBASE KECCAK256 ORIGIN CALLVALUE ADDRESS KECCAK256 ORIGIN CALLVALUE ADDRESS KECCAK256 ADDRESS KECCAK256 ADDRESS KECCAK256 ADDRESS KECCAK256 CALLER CALLDATALOAD CODECOPY 0x2E CALLDATACOPY CALLVALUE CALLDATALOAD CALLDATASIZE BALANCE BALANCE CODESIZE ADDRESS ADDRESS CALLDATACOPY ORIGIN CALLDATALOAD BALANCE KECCAK256 CALLDATASIZE CODECOPY CALLDATACOPY 0x2E CALLDATALOAD ORIGIN ORIGIN CALLDATALOAD ADDRESS CODESIZE CODESIZE ADDRESS CALLDATACOPY ADDRESS CALLDATALOAD CALLDATACOPY KECCAK256 GAS 0x22 KECCAK256 PUSH7 0x696C6C3D22626C PUSH2 0x636B 0x22 KECCAK256 PUSH20 0x74726F6B653D22626C61636B22207374726F6B65 0x2D PUSH24 0x696474683D2231222F3E0A3C7061746820643D224D203232 CODECOPY 0x2E BALANCE CALLDATALOAD CALLDATACOPY ORIGIN CODESIZE CALLDATACOPY CALLDATALOAD ORIGIN CALLDATALOAD CALLER CODESIZE BALANCE ADDRESS CALLVALUE KECCAK256 CALLDATACOPY CODECOPY CALLVALUE 0x2E CODESIZE CALLVALUE ORIGIN CALLDATACOPY BALANCE ORIGIN CALLVALUE CALLDATACOPY CALLVALUE CALLDATASIZE BALANCE CODECOPY KECCAK256 COINBASE KECCAK256 CALLVALUE ADDRESS ADDRESS KECCAK256 CALLVALUE ADDRESS ADDRESS KECCAK256 ADDRESS KECCAK256 ADDRESS KECCAK256 BALANCE KECCAK256 ORIGIN ADDRESS ORIGIN 0x2E CALLDATACOPY CODECOPY CALLDATALOAD CODESIZE BALANCE CODESIZE CALLDATASIZE CALLDATALOAD CALLVALUE CODECOPY ADDRESS CALLDATALOAD ORIGIN KECCAK256 CALLDATACOPY CALLDATASIZE CALLDATALOAD 0x2E CALLDATACOPY CALLDATALOAD CALLDATACOPY CALLER BALANCE CALLER CALLDATASIZE CALLDATASIZE CALLDATALOAD CALLVALUE CALLDATALOAD CODESIZE ORIGIN KECCAK256 0x4C KECCAK256 BALANCE CALLVALUE ADDRESS 0x2E CODECOPY CALLDATALOAD CALLVALUE CODECOPY CODESIZE ORIGIN CALLER CODESIZE CALLDATALOAD CODESIZE CODESIZE CALLDATASIZE ORIGIN CALLVALUE KECCAK256 CODESIZE BALANCE CALLDATASIZE 0x2E CALLDATALOAD ADDRESS CODESIZE CALLDATACOPY CALLDATACOPY CALLDATASIZE CALLER CODECOPY CODESIZE CALLDATALOAD CALLVALUE CODECOPY CODESIZE KECCAK256 COINBASE KECCAK256 CALLVALUE CODESIZE ADDRESS KECCAK256 CALLVALUE CODESIZE ADDRESS KECCAK256 ADDRESS KECCAK256 ADDRESS KECCAK256 ADDRESS KECCAK256 BALANCE CALLDATACOPY ORIGIN 0x2E CALLDATALOAD CODESIZE CODESIZE CALLDATACOPY CALLVALUE CALLDATALOAD ADDRESS CALLER ADDRESS CALLVALUE CALLDATALOAD CALLDATACOPY ORIGIN CALLER KECCAK256 CODESIZE CALLDATALOAD BALANCE 0x2E CALLVALUE BALANCE BALANCE ORIGIN CALLDATALOAD CALLVALUE CODECOPY CALLDATASIZE CODECOPY CALLDATALOAD CALLVALUE ORIGIN CODESIZE KECCAK256 GAS 0x22 KECCAK256 PUSH7 0x696C6C3D22626C PUSH2 0x636B 0x22 KECCAK256 PUSH20 0x74726F6B653D22626C61636B22207374726F6B65 0x2D PUSH24 0x696474683D2231222F3E0A3C7061746820643D224D203238 CALLDATALOAD 0x2E CALLDATACOPY ORIGIN CALLDATALOAD CODESIZE CALLER ADDRESS ADDRESS ORIGIN ADDRESS CALLER ADDRESS CALLVALUE CODESIZE KECCAK256 CALLDATACOPY CALLER CODESIZE 0x2E ORIGIN CALLDATACOPY CALLVALUE BALANCE CALLDATASIZE CODECOPY CODECOPY CALLDATACOPY CODECOPY CALLDATASIZE CODECOPY CALLDATALOAD ORIGIN KECCAK256 COINBASE KECCAK256 CALLER ORIGIN ADDRESS KECCAK256 CALLER ORIGIN ADDRESS KECCAK256 ADDRESS KECCAK256 ADDRESS KECCAK256 BALANCE KECCAK256 ORIGIN CALLDATASIZE CALLVALUE 0x2E CALLDATASIZE CALLER CALLDATASIZE CALLDATASIZE CALLDATALOAD CALLVALUE CODECOPY ORIGIN CALLER CODECOPY ORIGIN CALLVALUE ORIGIN KECCAK256 CALLDATACOPY BALANCE CALLDATALOAD 0x2E ADDRESS ADDRESS CALLDATALOAD CODESIZE CALLDATALOAD ADDRESS CODECOPY CALLER ORIGIN CALLER CALLDATASIZE CALLDATASIZE CALLDATASIZE KECCAK256 0x4C KECCAK256 ORIGIN ADDRESS ORIGIN 0x2E CALLDATACOPY CODECOPY CALLDATALOAD CODESIZE BALANCE CODESIZE CALLDATASIZE CALLDATALOAD CALLVALUE CODECOPY ADDRESS CALLDATALOAD ORIGIN KECCAK256 CALLDATACOPY CALLDATASIZE CALLDATALOAD 0x2E CALLDATACOPY CALLDATALOAD CALLDATACOPY CALLER BALANCE CALLER CALLDATASIZE CALLDATASIZE CALLDATALOAD CALLVALUE CALLDATALOAD CODESIZE ORIGIN KECCAK256 COINBASE KECCAK256 CALLVALUE ADDRESS ADDRESS KECCAK256 CALLVALUE ADDRESS ADDRESS KECCAK256 ADDRESS KECCAK256 ADDRESS KECCAK256 ADDRESS KECCAK256 ORIGIN ORIGIN CODECOPY 0x2E BALANCE CALLDATALOAD CALLDATACOPY ORIGIN CODESIZE CALLDATACOPY CALLDATALOAD ORIGIN CALLDATALOAD CALLER CODESIZE BALANCE ADDRESS CALLVALUE KECCAK256 CALLDATACOPY CODECOPY CALLVALUE 0x2E CODESIZE CALLVALUE ORIGIN CALLDATACOPY BALANCE ORIGIN CALLVALUE CALLDATACOPY CALLVALUE CALLDATASIZE BALANCE CODECOPY KECCAK256 GAS 0x22 KECCAK256 PUSH7 0x696C6C3D22626C PUSH2 0x636B 0x22 KECCAK256 PUSH20 0x74726F6B653D22626C61636B22207374726F6B65 0x2D PUSH24 0x696474683D2231222F3E0A3C7061746820643D224D203334 ORIGIN 0x2E ORIGIN CODECOPY CALLVALUE CALLER CALLDATACOPY ORIGIN CALLDATALOAD BALANCE CALLDATALOAD ORIGIN ORIGIN CODESIZE CALLDATASIZE KECCAK256 CALLDATASIZE CODESIZE BALANCE 0x2E CALLDATACOPY ADDRESS CALLDATALOAD CALLDATASIZE ORIGIN CALLDATACOPY CALLVALUE CODESIZE CALLVALUE CALLDATACOPY CALLDATACOPY BALANCE CALLVALUE KECCAK256 COINBASE KECCAK256 ORIGIN CALLVALUE ADDRESS KECCAK256 ORIGIN CALLVALUE ADDRESS KECCAK256 ADDRESS KECCAK256 ADDRESS KECCAK256 BALANCE KECCAK256 CALLER ORIGIN CALLDATASIZE 0x2E CALLVALUE CALLDATACOPY CALLDATACOPY CALLVALUE CODECOPY BALANCE BALANCE CODECOPY ORIGIN CODECOPY CALLVALUE CALLER BALANCE CALLDATALOAD KECCAK256 CALLDATASIZE CALLDATASIZE CALLVALUE 0x2E ORIGIN CALLDATALOAD CALLVALUE CALLER CODESIZE CODESIZE BALANCE CODECOPY CODECOPY ORIGIN CALLDATACOPY CALLVALUE CODECOPY KECCAK256 0x4C KECCAK256 ORIGIN CALLDATASIZE CALLVALUE 0x2E CALLDATASIZE CALLER CALLDATASIZE CALLDATASIZE CALLDATALOAD CALLVALUE CODECOPY ORIGIN CALLER CODECOPY ORIGIN CALLVALUE ORIGIN KECCAK256 CALLDATACOPY BALANCE CALLDATALOAD 0x2E ADDRESS ADDRESS CALLDATALOAD CODESIZE CALLDATALOAD ADDRESS CODECOPY CALLER ORIGIN CALLER CALLDATASIZE CALLDATASIZE CALLDATASIZE KECCAK256 COINBASE KECCAK256 CALLER ORIGIN ADDRESS KECCAK256 CALLER ORIGIN ADDRESS KECCAK256 ADDRESS KECCAK256 ADDRESS KECCAK256 ADDRESS KECCAK256 ORIGIN CODESIZE CALLDATALOAD 0x2E CALLDATACOPY ORIGIN CALLDATALOAD CODESIZE CALLER ADDRESS ADDRESS ORIGIN ADDRESS CALLER ADDRESS CALLVALUE CODESIZE KECCAK256 CALLDATACOPY CALLER CODESIZE 0x2E ORIGIN CALLDATACOPY CALLVALUE BALANCE CALLDATASIZE CODECOPY CODECOPY CALLDATACOPY CODECOPY CALLDATASIZE CODECOPY CALLDATALOAD ORIGIN KECCAK256 GAS 0x22 KECCAK256 PUSH7 0x696C6C3D22626C PUSH2 0x636B 0x22 KECCAK256 PUSH20 0x74726F6B653D22626C61636B22207374726F6B65 0x2D PUSH24 0x696474683D2231222F3E0A3C7061746820643D224D203339 CODESIZE 0x2E CODESIZE CALLDATASIZE ORIGIN CODECOPY BALANCE CALLDATALOAD ADDRESS BALANCE ADDRESS BALANCE CALLDATALOAD ORIGIN CALLVALUE KECCAK256 CALLDATASIZE ORIGIN CALLDATALOAD 0x2E BALANCE CALLER CALLDATACOPY ADDRESS CODESIZE CALLVALUE CODECOPY CODESIZE CODECOPY CODESIZE CALLVALUE CALLDATACOPY CALLDATASIZE KECCAK256 COINBASE KECCAK256 BALANCE CALLDATASIZE ADDRESS KECCAK256 BALANCE CALLDATASIZE ADDRESS KECCAK256 ADDRESS KECCAK256 ADDRESS KECCAK256 BALANCE KECCAK256 CALLER CODESIZE CODESIZE 0x2E CALLER BALANCE CODESIZE CALLER ORIGIN CALLDATACOPY CALLVALUE CALLDATASIZE BALANCE CODECOPY CALLDATASIZE ORIGIN BALANCE KECCAK256 CALLDATASIZE BALANCE CALLER 0x2E CALLDATALOAD ADDRESS ORIGIN CODECOPY ORIGIN CALLDATALOAD CALLVALUE CALLDATASIZE CALLDATASIZE BALANCE CODESIZE CALLER CALLER KECCAK256 0x4C KECCAK256 CALLER ORIGIN CALLDATASIZE 0x2E CALLVALUE CALLDATACOPY CALLDATACOPY CALLVALUE CODECOPY BALANCE BALANCE CODECOPY ORIGIN CODECOPY CALLVALUE CALLER BALANCE CALLDATALOAD KECCAK256 CALLDATASIZE CALLDATASIZE CALLVALUE 0x2E ORIGIN CALLDATALOAD CALLVALUE CALLER CODESIZE CODESIZE BALANCE CODECOPY CODECOPY ORIGIN CALLDATACOPY CALLVALUE CODECOPY KECCAK256 COINBASE KECCAK256 ORIGIN CALLVALUE ADDRESS KECCAK256 ORIGIN CALLVALUE ADDRESS KECCAK256 ADDRESS KECCAK256 ADDRESS KECCAK256 ADDRESS KECCAK256 CALLER CALLVALUE ORIGIN 0x2E ORIGIN CODECOPY CALLVALUE CALLER CALLDATACOPY ORIGIN CALLDATALOAD BALANCE CALLDATALOAD ORIGIN ORIGIN CODESIZE CALLDATASIZE KECCAK256 CALLDATASIZE CODESIZE BALANCE 0x2E CALLDATACOPY ADDRESS CALLDATALOAD CALLDATASIZE ORIGIN CALLDATACOPY CALLVALUE CODESIZE CALLVALUE CALLDATACOPY CALLDATACOPY BALANCE CALLVALUE KECCAK256 GAS 0x22 KECCAK256 PUSH7 0x696C6C3D22626C PUSH2 0x636B 0x22 KECCAK256 PUSH20 0x74726F6B653D22626C61636B22207374726F6B65 0x2D PUSH24 0x696474683D2231222F3E0A3C7061746820643D224D203230 ORIGIN 0x2E CALLDATACOPY CODECOPY CALLDATALOAD CODESIZE BALANCE CODESIZE CALLDATASIZE CALLDATALOAD CALLVALUE CODECOPY ADDRESS CALLDATALOAD CALLER CALLDATASIZE KECCAK256 CALLDATACOPY CALLDATASIZE CALLDATALOAD 0x2E CALLDATACOPY CALLDATALOAD CALLDATACOPY CALLER BALANCE CALLER CALLDATASIZE CALLDATASIZE CALLDATALOAD CALLVALUE CALLDATALOAD CODESIZE CALLVALUE KECCAK256 COINBASE KECCAK256 CALLVALUE ADDRESS ADDRESS KECCAK256 CALLVALUE ADDRESS ADDRESS KECCAK256 ADDRESS KECCAK256 ADDRESS KECCAK256 BALANCE KECCAK256 BALANCE CALLDATACOPY CODECOPY 0x2E CALLVALUE BALANCE ORIGIN BALANCE CALLDATALOAD CALLDATALOAD ADDRESS CALLDATACOPY CODESIZE CODECOPY CODESIZE BALANCE CODECOPY CODESIZE KECCAK256 CALLDATACOPY CALLER CALLVALUE 0x2E ORIGIN ORIGIN CODESIZE ADDRESS CODECOPY CALLER ORIGIN ADDRESS CALLDATACOPY CODESIZE CALLVALUE BALANCE KECCAK256 0x4C KECCAK256 BALANCE BALANCE ORIGIN 0x2E CODESIZE CODECOPY CALLVALUE CALLDATALOAD CODESIZE CALLDATASIZE ADDRESS CODECOPY CALLVALUE CALLDATACOPY CALLDATACOPY CODESIZE CALLER CODECOPY KECCAK256 CALLDATACOPY CALLDATACOPY CODESIZE 0x2E CALLDATASIZE CALLDATACOPY CALLER CALLDATACOPY BALANCE BALANCE CODESIZE CALLVALUE CODECOPY CALLVALUE ADDRESS CODECOPY ORIGIN KECCAK256 COINBASE KECCAK256 CALLVALUE CODESIZE ADDRESS KECCAK256 CALLVALUE CODESIZE ADDRESS KECCAK256 ADDRESS KECCAK256 ADDRESS KECCAK256 ADDRESS KECCAK256 BALANCE CALLVALUE ADDRESS 0x2E CODECOPY CALLDATALOAD CALLVALUE CODECOPY CODESIZE ORIGIN CALLER CODESIZE CALLDATALOAD CODESIZE CODESIZE CALLDATASIZE CALLVALUE KECCAK256 CODESIZE BALANCE CALLDATASIZE 0x2E CALLDATALOAD ADDRESS CODESIZE CALLDATACOPY CALLDATACOPY CALLDATASIZE CALLER CODECOPY CODESIZE CALLDATALOAD CALLDATALOAD KECCAK256 GAS 0x22 KECCAK256 PUSH7 0x696C6C3D22626C PUSH2 0x636B 0x22 KECCAK256 PUSH20 0x74726F6B653D22626C61636B22207374726F6B65 0x2D PUSH24 0x696474683D2231222F3E0A3C7061746820643D224D203236 CALLVALUE 0x2E CALLDATASIZE CALLER CALLDATASIZE CALLDATASIZE CALLDATALOAD CALLVALUE CODECOPY ORIGIN CALLER CODECOPY ORIGIN CALLVALUE ORIGIN CALLDATALOAD KECCAK256 CALLDATACOPY BALANCE CALLDATALOAD 0x2E ADDRESS ADDRESS CALLDATALOAD CODESIZE CALLDATALOAD ADDRESS CODECOPY CALLER ORIGIN CALLER CALLDATASIZE CALLDATASIZE CALLDATACOPY KECCAK256 COINBASE KECCAK256 CALLER ORIGIN ADDRESS KECCAK256 CALLER ORIGIN ADDRESS KECCAK256 ADDRESS KECCAK256 ADDRESS KECCAK256 BALANCE KECCAK256 ORIGIN CALLVALUE CALLDATALOAD 0x2E CODECOPY ORIGIN CODECOPY CALLDATACOPY ORIGIN CALLVALUE ADDRESS CALLDATASIZE CALLER BALANCE CODESIZE CALLDATALOAD CALLDATALOAD CALLDATACOPY KECCAK256 CALLDATASIZE CODESIZE CODECOPY 0x2E CALLDATACOPY CODESIZE ORIGIN CALLVALUE CALLDATACOPY CALLVALUE CALLDATALOAD CALLDATASIZE CALLDATASIZE ORIGIN CALLDATACOPY ORIGIN CODECOPY KECCAK256 0x4C KECCAK256 BALANCE CALLDATACOPY CODECOPY 0x2E CALLVALUE BALANCE ORIGIN BALANCE CALLDATALOAD CALLDATALOAD ADDRESS CALLDATACOPY CODESIZE CODECOPY CODESIZE BALANCE CODECOPY CODESIZE KECCAK256 CALLDATACOPY CALLER CALLVALUE 0x2E ORIGIN ORIGIN CODESIZE ADDRESS CODECOPY CALLER ORIGIN ADDRESS CALLDATACOPY CODESIZE CALLVALUE BALANCE KECCAK256 COINBASE KECCAK256 CALLVALUE ADDRESS ADDRESS KECCAK256 CALLVALUE ADDRESS ADDRESS KECCAK256 ADDRESS KECCAK256 ADDRESS KECCAK256 ADDRESS KECCAK256 ORIGIN ADDRESS ORIGIN 0x2E CALLDATACOPY CODECOPY CALLDATALOAD CODESIZE BALANCE CODESIZE CALLDATASIZE CALLDATALOAD CALLVALUE CODECOPY ADDRESS CALLDATALOAD CALLER CALLDATASIZE KECCAK256 CALLDATACOPY CALLDATASIZE CALLDATALOAD 0x2E CALLDATACOPY CALLDATALOAD CALLDATACOPY CALLER BALANCE CALLER CALLDATASIZE CALLDATASIZE CALLDATALOAD CALLVALUE CALLDATALOAD CODESIZE CALLVALUE KECCAK256 GAS 0x22 KECCAK256 PUSH7 0x696C6C3D22626C PUSH2 0x636B 0x22 KECCAK256 PUSH20 0x74726F6B653D22626C61636B22207374726F6B65 0x2D PUSH24 0x696474683D2231222F3E0A3C7061746820643D224D203332 CALLDATASIZE 0x2E CALLVALUE CALLDATACOPY CALLDATACOPY CALLVALUE CODECOPY BALANCE BALANCE CODECOPY ORIGIN CODECOPY CALLVALUE CALLER ORIGIN KECCAK256 CALLDATASIZE CALLDATASIZE CALLVALUE 0x2E ORIGIN CALLDATALOAD CALLVALUE CALLER CODESIZE CODESIZE BALANCE CODECOPY CODECOPY ORIGIN CALLDATACOPY CALLDATALOAD KECCAK256 COINBASE KECCAK256 ORIGIN CALLVALUE ADDRESS KECCAK256 ORIGIN CALLVALUE ADDRESS KECCAK256 ADDRESS KECCAK256 ADDRESS KECCAK256 BALANCE KECCAK256 CALLER BALANCE ORIGIN 0x2E CALLVALUE CALLVALUE CALLDATACOPY ORIGIN CODECOPY CALLER ADDRESS CALLVALUE CALLDATACOPY CALLER CODESIZE CODECOPY BALANCE CALLDATACOPY KECCAK256 CALLDATASIZE CALLVALUE CALLDATALOAD 0x2E CALLER CALLER CALLDATASIZE CODESIZE CALLDATALOAD CALLDATALOAD CODECOPY ORIGIN CALLVALUE CALLDATACOPY ADDRESS CALLVALUE CALLDATACOPY KECCAK256 0x4C KECCAK256 ORIGIN CALLVALUE CALLDATALOAD 0x2E CODECOPY ORIGIN CODECOPY CALLDATACOPY ORIGIN CALLVALUE ADDRESS CALLDATASIZE CALLER BALANCE CODESIZE CALLDATALOAD CALLDATALOAD CALLDATACOPY KECCAK256 CALLDATASIZE CODESIZE CODECOPY 0x2E CALLDATACOPY CODESIZE ORIGIN CALLVALUE CALLDATACOPY CALLVALUE CALLDATALOAD CALLDATASIZE CALLDATASIZE ORIGIN CALLDATACOPY ORIGIN CODECOPY KECCAK256 COINBASE KECCAK256 CALLER ORIGIN ADDRESS KECCAK256 CALLER ORIGIN ADDRESS KECCAK256 ADDRESS KECCAK256 ADDRESS KECCAK256 ADDRESS KECCAK256 ORIGIN CALLDATASIZE CALLVALUE 0x2E CALLDATASIZE CALLER CALLDATASIZE CALLDATASIZE CALLDATALOAD CALLVALUE CODECOPY ORIGIN CALLER CODECOPY ORIGIN CALLVALUE ORIGIN CALLDATALOAD KECCAK256 CALLDATACOPY BALANCE CALLDATALOAD 0x2E ADDRESS ADDRESS CALLDATALOAD CODESIZE CALLDATALOAD ADDRESS CODECOPY CALLER ORIGIN CALLER CALLDATASIZE CALLDATASIZE CALLDATACOPY KECCAK256 GAS 0x22 KECCAK256 PUSH7 0x696C6C3D22626C PUSH2 0x636B 0x22 KECCAK256 PUSH20 0x74726F6B653D22626C61636B22207374726F6B65 0x2D PUSH24 0x696474683D2231222F3E0A3C7061746820643D224D203338 CODESIZE 0x2E CALLER BALANCE CODESIZE CALLER ORIGIN CALLDATACOPY CALLVALUE CALLDATASIZE BALANCE CODECOPY CALLDATASIZE ORIGIN BALANCE KECCAK256 CALLDATASIZE BALANCE CALLER 0x2E CALLDATALOAD ADDRESS ORIGIN CODECOPY ORIGIN CALLDATALOAD CALLVALUE CALLDATASIZE CALLDATASIZE BALANCE CODESIZE CALLER CALLER KECCAK256 COINBASE KECCAK256 BALANCE CALLDATASIZE ADDRESS KECCAK256 BALANCE CALLDATASIZE ADDRESS KECCAK256 ADDRESS KECCAK256 ADDRESS KECCAK256 BALANCE KECCAK256 CALLER CALLDATACOPY CODESIZE 0x2E CODECOPY CALLDATASIZE CALLVALUE CODESIZE CALLDATASIZE ORIGIN ADDRESS CALLER BALANCE CALLDATALOAD CODECOPY ORIGIN CODESIZE KECCAK256 CALLDATASIZE ADDRESS ADDRESS 0x2E CODESIZE CODECOPY BALANCE ORIGIN CALLER CALLDATACOPY ORIGIN CODESIZE CALLER BALANCE CALLER CALLDATASIZE CALLVALUE KECCAK256 0x4C KECCAK256 CALLER BALANCE ORIGIN 0x2E CALLVALUE CALLVALUE CALLDATACOPY ORIGIN CODECOPY CALLER ADDRESS CALLVALUE CALLDATACOPY CALLER CODESIZE CODECOPY BALANCE CALLDATACOPY KECCAK256 CALLDATASIZE CALLVALUE CALLDATALOAD 0x2E CALLER CALLER CALLDATASIZE CODESIZE CALLDATALOAD CALLDATALOAD CODECOPY ORIGIN CALLVALUE CALLDATACOPY ADDRESS CALLVALUE CALLDATACOPY KECCAK256 COINBASE KECCAK256 ORIGIN CALLVALUE ADDRESS KECCAK256 ORIGIN CALLVALUE ADDRESS KECCAK256 ADDRESS KECCAK256 ADDRESS KECCAK256 ADDRESS KECCAK256 CALLER ORIGIN CALLDATASIZE 0x2E CALLVALUE CALLDATACOPY CALLDATACOPY CALLVALUE CODECOPY BALANCE BALANCE CODECOPY ORIGIN CODECOPY CALLVALUE CALLER ORIGIN KECCAK256 CALLDATASIZE CALLDATASIZE CALLVALUE 0x2E ORIGIN CALLDATALOAD CALLVALUE CALLER CODESIZE CODESIZE BALANCE CODECOPY CODECOPY ORIGIN CALLDATACOPY CALLDATALOAD KECCAK256 GAS 0x22 KECCAK256 PUSH7 0x696C6C3D22626C PUSH2 0x636B 0x22 KECCAK256 PUSH20 0x74726F6B653D22626C61636B22207374726F6B65 0x2D PUSH24 0x696474683D2231222F3E0A3C7061746820643D224D203137 CODECOPY 0x2E CALLVALUE BALANCE ORIGIN BALANCE CALLDATALOAD CALLDATALOAD ADDRESS CALLDATACOPY CODESIZE CODECOPY CODESIZE BALANCE CODESIZE CALLDATACOPY KECCAK256 CALLDATACOPY CALLER CALLVALUE 0x2E ORIGIN ORIGIN CODESIZE ADDRESS CODECOPY CALLER ORIGIN ADDRESS CALLDATACOPY CODESIZE CALLVALUE ADDRESS CODECOPY KECCAK256 COINBASE KECCAK256 CALLVALUE ADDRESS ADDRESS KECCAK256 CALLVALUE ADDRESS ADDRESS KECCAK256 ADDRESS KECCAK256 ADDRESS KECCAK256 BALANCE KECCAK256 BALANCE CALLDATALOAD CODECOPY 0x2E ORIGIN CALLER BALANCE CALLVALUE CODECOPY CALLVALUE ORIGIN CALLDATASIZE ADDRESS CALLDATASIZE CALLDATALOAD CALLDATACOPY CODECOPY CALLVALUE KECCAK256 CALLDATACOPY ADDRESS ADDRESS 0x2E CALLDATALOAD CALLDATALOAD CODESIZE CALLDATASIZE CODECOPY CALLVALUE CALLDATACOPY CALLER ADDRESS CALLER CODECOPY CODECOPY KECCAK256 0x4C KECCAK256 CODESIZE CODESIZE 0x2E CALLDATASIZE CALLDATACOPY CALLDATACOPY CALLDATACOPY CODECOPY CALLER BALANCE BALANCE ORIGIN CALLDATACOPY CODESIZE CODECOPY CALLDATALOAD ORIGIN KECCAK256 CALLDATACOPY CALLER CODESIZE 0x2E ORIGIN CALLDATACOPY ADDRESS CALLVALUE CALLER CALLER CALLDATASIZE CALLDATACOPY CALLDATASIZE CALLVALUE CALLDATACOPY CODESIZE CODESIZE KECCAK256 COINBASE KECCAK256 CALLVALUE CODESIZE ADDRESS KECCAK256 CALLVALUE CODESIZE ADDRESS KECCAK256 ADDRESS KECCAK256 ADDRESS KECCAK256 ADDRESS KECCAK256 BALANCE BALANCE ORIGIN 0x2E CODESIZE CODECOPY CALLVALUE CALLDATALOAD CODESIZE CALLDATASIZE ADDRESS CODECOPY CALLVALUE CALLDATACOPY CALLDATACOPY CODESIZE ORIGIN ORIGIN KECCAK256 CALLDATACOPY CALLDATACOPY CODESIZE 0x2E CALLDATASIZE CALLDATACOPY CALLER CALLDATACOPY BALANCE BALANCE CODESIZE CALLVALUE CODECOPY CALLVALUE ADDRESS CODECOPY BALANCE KECCAK256 GAS 0x22 KECCAK256 PUSH7 0x696C6C3D22626C PUSH2 0x636B 0x22 KECCAK256 PUSH20 0x74726F6B653D22626C61636B22207374726F6B65 0x2D PUSH24 0x696474683D2231222F3E0A3C7061746820643D224D203234 CALLDATALOAD 0x2E CODECOPY ORIGIN CODECOPY CALLDATACOPY ORIGIN CALLVALUE ADDRESS CALLDATASIZE CALLER BALANCE CODESIZE CALLDATALOAD CALLDATALOAD ORIGIN KECCAK256 CALLDATASIZE CODESIZE CODECOPY 0x2E CALLDATACOPY CODESIZE ORIGIN CALLVALUE CALLDATACOPY CALLVALUE CALLDATALOAD CALLDATASIZE CALLDATASIZE ORIGIN CALLDATACOPY ORIGIN CALLDATASIZE KECCAK256 COINBASE KECCAK256 CALLER ORIGIN ADDRESS KECCAK256 CALLER ORIGIN ADDRESS KECCAK256 ADDRESS KECCAK256 ADDRESS KECCAK256 BALANCE KECCAK256 ORIGIN ORIGIN CODECOPY 0x2E CALLDATACOPY CODESIZE CALLDATALOAD BALANCE CODECOPY CALLDATALOAD CALLVALUE ADDRESS CODESIZE CALLDATALOAD ORIGIN CALLDATASIZE CALLER CALLDATASIZE KECCAK256 CALLDATASIZE CALLDATASIZE ORIGIN 0x2E CODESIZE CALLVALUE CALLDATASIZE CODECOPY CALLDATALOAD CALLDATALOAD CALLDATACOPY CODESIZE CALLVALUE CALLER BALANCE CODECOPY BALANCE KECCAK256 0x4C KECCAK256 BALANCE CALLDATALOAD CODECOPY 0x2E ORIGIN CALLER BALANCE CALLVALUE CODECOPY CALLVALUE ORIGIN CALLDATASIZE ADDRESS CALLDATASIZE CALLDATALOAD CALLDATACOPY CODECOPY CALLVALUE KECCAK256 CALLDATACOPY ADDRESS ADDRESS 0x2E CALLDATALOAD CALLDATALOAD CODESIZE CALLDATASIZE CODECOPY CALLVALUE CALLDATACOPY CALLER ADDRESS CALLER CODECOPY CODECOPY KECCAK256 COINBASE KECCAK256 CALLVALUE ADDRESS ADDRESS KECCAK256 CALLVALUE ADDRESS ADDRESS KECCAK256 ADDRESS KECCAK256 ADDRESS KECCAK256 ADDRESS KECCAK256 BALANCE CALLDATACOPY CODECOPY 0x2E CALLVALUE BALANCE ORIGIN BALANCE CALLDATALOAD CALLDATALOAD ADDRESS CALLDATACOPY CODESIZE CODECOPY CODESIZE BALANCE CODESIZE CALLDATACOPY KECCAK256 CALLDATACOPY CALLER CALLVALUE 0x2E ORIGIN ORIGIN CODESIZE ADDRESS CODECOPY CALLER ORIGIN ADDRESS CALLDATACOPY CODESIZE CALLVALUE ADDRESS CODECOPY KECCAK256 GAS 0x22 KECCAK256 PUSH7 0x696C6C3D22626C PUSH2 0x636B 0x22 KECCAK256 PUSH20 0x74726F6B653D22626C61636B22207374726F6B65 0x2D PUSH24 0x696474683D2231222F3E0A3C7061746820643D224D203331 ORIGIN 0x2E CALLVALUE CALLVALUE CALLDATACOPY ORIGIN CODECOPY CALLER ADDRESS CALLVALUE CALLDATACOPY CALLER CODESIZE CODECOPY BALANCE KECCAK256 CALLDATASIZE CALLVALUE CALLDATALOAD 0x2E CALLER CALLER CALLDATASIZE CODESIZE CALLDATALOAD CALLDATALOAD CODECOPY ORIGIN CALLVALUE CALLDATACOPY ADDRESS CALLVALUE CALLDATALOAD KECCAK256 COINBASE KECCAK256 ORIGIN CALLVALUE ADDRESS KECCAK256 ORIGIN CALLVALUE ADDRESS KECCAK256 ADDRESS KECCAK256 ADDRESS KECCAK256 BALANCE KECCAK256 CALLER ADDRESS ADDRESS 0x2E CALLER CALLER CODESIZE CODESIZE CODECOPY CALLDATASIZE CALLDATALOAD CALLDATALOAD CALLDATASIZE CALLER CODECOPY CALLVALUE CALLDATACOPY CALLER KECCAK256 CALLDATASIZE ORIGIN CALLDATALOAD 0x2E BALANCE CALLER CALLDATALOAD ORIGIN BALANCE CALLDATASIZE CODESIZE CALLER CODESIZE ORIGIN CALLER CODECOPY CALLER KECCAK256 0x4C KECCAK256 ORIGIN ORIGIN CODECOPY 0x2E CALLDATACOPY CODESIZE CALLDATALOAD BALANCE CODECOPY CALLDATALOAD CALLVALUE ADDRESS CODESIZE CALLDATALOAD ORIGIN CALLDATASIZE CALLER CALLDATASIZE KECCAK256 CALLDATASIZE CALLDATASIZE ORIGIN 0x2E CODESIZE CALLVALUE CALLDATASIZE CODECOPY CALLDATALOAD CALLDATALOAD CALLDATACOPY CODESIZE CALLVALUE CALLER BALANCE CODECOPY BALANCE KECCAK256 COINBASE KECCAK256 CALLER ORIGIN ADDRESS KECCAK256 CALLER ORIGIN ADDRESS KECCAK256 ADDRESS KECCAK256 ADDRESS KECCAK256 ADDRESS KECCAK256 ORIGIN CALLVALUE CALLDATALOAD 0x2E CODECOPY ORIGIN CODECOPY CALLDATACOPY ORIGIN CALLVALUE ADDRESS CALLDATASIZE CALLER BALANCE CODESIZE CALLDATALOAD CALLDATALOAD ORIGIN KECCAK256 CALLDATASIZE CODESIZE CODECOPY 0x2E CALLDATACOPY CODESIZE ORIGIN CALLVALUE CALLDATACOPY CALLVALUE CALLDATALOAD CALLDATASIZE CALLDATASIZE ORIGIN CALLDATACOPY ORIGIN CALLDATASIZE KECCAK256 GAS 0x22 KECCAK256 PUSH7 0x696C6C3D22626C PUSH2 0x636B 0x22 KECCAK256 PUSH20 0x74726F6B653D22626C61636B22207374726F6B65 0x2D PUSH24 0x696474683D2231222F3E0A3C7061746820643D224D203337 CODESIZE 0x2E CODECOPY CALLDATASIZE CALLVALUE CODESIZE CALLDATASIZE ORIGIN ADDRESS CALLER BALANCE CALLDATALOAD CODECOPY ORIGIN CALLDATACOPY CALLDATASIZE KECCAK256 CALLDATASIZE ADDRESS ADDRESS 0x2E CODESIZE CODECOPY BALANCE ORIGIN CALLER CALLDATACOPY ORIGIN CODESIZE CALLER BALANCE CALLER CALLDATASIZE CALLER KECCAK256 COINBASE KECCAK256 BALANCE CALLDATASIZE ADDRESS KECCAK256 BALANCE CALLDATASIZE ADDRESS KECCAK256 ADDRESS KECCAK256 ADDRESS KECCAK256 BALANCE KECCAK256 CALLER CALLDATACOPY ADDRESS 0x2E CODESIZE CODECOPY ORIGIN CALLDATALOAD CODECOPY CALLDATACOPY CALLDATACOPY ADDRESS CALLVALUE ORIGIN CALLDATASIZE CALLER BALANCE CALLDATALOAD KECCAK256 CALLDATALOAD CODESIZE CALLDATACOPY 0x2E CALLVALUE ORIGIN CALLER CALLVALUE CALLDATACOPY CALLDATACOPY CODESIZE CODECOPY ORIGIN BALANCE CALLDATALOAD CODECOPY CALLDATASIZE KECCAK256 0x4C KECCAK256 CALLER ADDRESS ADDRESS 0x2E CALLER CALLER CODESIZE CODESIZE CODECOPY CALLDATASIZE CALLDATALOAD CALLDATALOAD CALLDATASIZE CALLER CODECOPY CALLVALUE CALLDATACOPY CALLER KECCAK256 CALLDATASIZE ORIGIN CALLDATALOAD 0x2E BALANCE CALLER CALLDATALOAD ORIGIN BALANCE CALLDATASIZE CODESIZE CALLER CODESIZE ORIGIN CALLER CODECOPY CALLER KECCAK256 COINBASE KECCAK256 ORIGIN CALLVALUE ADDRESS KECCAK256 ORIGIN CALLVALUE ADDRESS KECCAK256 ADDRESS KECCAK256 ADDRESS KECCAK256 ADDRESS KECCAK256 CALLER BALANCE ORIGIN 0x2E CALLVALUE CALLVALUE CALLDATACOPY ORIGIN CODECOPY CALLER ADDRESS CALLVALUE CALLDATACOPY CALLER CODESIZE CODECOPY BALANCE KECCAK256 CALLDATASIZE CALLVALUE CALLDATALOAD 0x2E CALLER CALLER CALLDATASIZE CODESIZE CALLDATALOAD CALLDATALOAD CODECOPY ORIGIN CALLVALUE CALLDATACOPY ADDRESS CALLVALUE CALLDATALOAD KECCAK256 GAS 0x22 KECCAK256 PUSH7 0x696C6C3D22626C PUSH2 0x636B 0x22 KECCAK256 PUSH20 0x74726F6B653D22626C61636B22207374726F6B65 0x2D PUSH24 0x696474683D2231222F3E0A3C7061746820643D224D203135 CODECOPY 0x2E ORIGIN CALLER BALANCE CALLVALUE CODECOPY CALLVALUE ORIGIN CALLDATASIZE ADDRESS CALLDATASIZE CALLDATALOAD CODESIZE KECCAK256 CALLDATACOPY ADDRESS ADDRESS 0x2E CALLDATALOAD CALLDATALOAD CODESIZE CALLDATASIZE CODECOPY CALLVALUE CALLDATACOPY CALLER ADDRESS CALLER CODECOPY CODECOPY BALANCE KECCAK256 COINBASE KECCAK256 CALLVALUE ADDRESS ADDRESS KECCAK256 CALLVALUE ADDRESS ADDRESS KECCAK256 ADDRESS KECCAK256 ADDRESS KECCAK256 BALANCE KECCAK256 BALANCE CALLVALUE ORIGIN 0x2E CALLVALUE CALLVALUE CODESIZE BALANCE CODESIZE CALLDATASIZE CODECOPY CODECOPY CALLDATALOAD CALLVALUE CODESIZE CALLDATALOAD CALLER KECCAK256 CALLDATASIZE CALLDATASIZE CALLDATALOAD 0x2E ADDRESS CALLDATACOPY CALLER CALLER CALLDATACOPY ORIGIN CODECOPY CALLVALUE CALLDATASIZE ADDRESS CALLER CALLDATASIZE KECCAK256 0x4C KECCAK256 CALLDATASIZE CODESIZE 0x2E CALLDATALOAD CALLER CALLDATACOPY CODESIZE ORIGIN CALLVALUE CALLER CODECOPY CALLVALUE CALLDATALOAD CODESIZE ORIGIN CALLER CALLVALUE KECCAK256 CALLDATASIZE CODECOPY CALLDATALOAD 0x2E CALLDATASIZE CODESIZE CODESIZE ADDRESS CALLVALUE CALLDATACOPY CALLDATALOAD CALLER CALLDATALOAD ORIGIN CALLVALUE CALLER ORIGIN KECCAK256 COINBASE KECCAK256 CALLVALUE CODESIZE ADDRESS KECCAK256 CALLVALUE CODESIZE ADDRESS KECCAK256 ADDRESS KECCAK256 ADDRESS KECCAK256 ADDRESS KECCAK256 CODESIZE CODESIZE 0x2E CALLDATASIZE CALLDATACOPY CALLDATACOPY CALLDATACOPY CODECOPY CALLER BALANCE BALANCE ORIGIN CALLDATACOPY CODESIZE CODECOPY CALLDATASIZE CALLER KECCAK256 CALLDATACOPY CALLER CODESIZE 0x2E ORIGIN CALLDATACOPY ADDRESS CALLVALUE CALLER CALLER CALLDATASIZE CALLDATACOPY CALLDATASIZE CALLVALUE CALLDATACOPY CODESIZE CODECOPY KECCAK256 GAS 0x22 KECCAK256 PUSH7 0x696C6C3D22626C PUSH2 0x636B 0x22 KECCAK256 PUSH20 0x74726F6B653D22626C61636B22207374726F6B65 0x2D PUSH24 0x696474683D2231222F3E0A3C7061746820643D224D203232 CODECOPY 0x2E CALLDATACOPY CODESIZE CALLDATALOAD BALANCE CODECOPY CALLDATALOAD CALLVALUE ADDRESS CODESIZE CALLDATALOAD ORIGIN CALLDATASIZE CALLVALUE ORIGIN KECCAK256 CALLDATASIZE CALLDATASIZE ORIGIN 0x2E CODESIZE CALLVALUE CALLDATASIZE CODECOPY CALLDATALOAD CALLDATALOAD CALLDATACOPY CODESIZE CALLVALUE CALLER BALANCE CODECOPY CALLER KECCAK256 COINBASE KECCAK256 CALLER ORIGIN ADDRESS KECCAK256 CALLER ORIGIN ADDRESS KECCAK256 ADDRESS KECCAK256 ADDRESS KECCAK256 BALANCE KECCAK256 ORIGIN BALANCE CALLDATASIZE 0x2E CALLER CALLDATALOAD CODESIZE CALLDATALOAD CALLVALUE CODECOPY CALLDATALOAD CODECOPY CALLDATASIZE CALLER CODESIZE CODESIZE ORIGIN CALLER KECCAK256 CALLDATASIZE CALLER CALLVALUE 0x2E CALLVALUE CALLDATALOAD CODESIZE CALLDATASIZE CODECOPY CODESIZE CALLER CALLDATALOAD CALLDATASIZE CODESIZE ORIGIN CODESIZE CODESIZE KECCAK256 0x4C KECCAK256 BALANCE CALLVALUE ORIGIN 0x2E CALLVALUE CALLVALUE CODESIZE BALANCE CODESIZE CALLDATASIZE CODECOPY CODECOPY CALLDATALOAD CALLVALUE CODESIZE CALLDATALOAD CALLER KECCAK256 CALLDATASIZE CALLDATASIZE CALLDATALOAD 0x2E ADDRESS CALLDATACOPY CALLER CALLER CALLDATACOPY ORIGIN CODECOPY CALLVALUE CALLDATASIZE ADDRESS CALLER CALLDATASIZE KECCAK256 COINBASE KECCAK256 CALLVALUE ADDRESS ADDRESS KECCAK256 CALLVALUE ADDRESS ADDRESS KECCAK256 ADDRESS KECCAK256 ADDRESS KECCAK256 ADDRESS KECCAK256 BALANCE CALLDATALOAD CODECOPY 0x2E ORIGIN CALLER BALANCE CALLVALUE CODECOPY CALLVALUE ORIGIN CALLDATASIZE ADDRESS CALLDATASIZE CALLDATALOAD CODESIZE KECCAK256 CALLDATACOPY ADDRESS ADDRESS 0x2E CALLDATALOAD CALLDATALOAD CODESIZE CALLDATASIZE CODECOPY CALLVALUE CALLDATACOPY CALLER ADDRESS CALLER CODECOPY CODECOPY BALANCE KECCAK256 GAS 0x22 KECCAK256 PUSH7 0x696C6C3D22626C PUSH2 0x636B 0x22 KECCAK256 PUSH20 0x74726F6B653D22626C61636B22207374726F6B65 0x2D PUSH24 0x696474683D2231222F3E0A3C7061746820643D224D203330 ADDRESS 0x2E CALLER CALLER CODESIZE CODESIZE CODECOPY CALLDATASIZE CALLDATALOAD CALLDATALOAD CALLDATASIZE CALLER CODECOPY CALLVALUE CODESIZE CALLVALUE KECCAK256 CALLDATASIZE ORIGIN CALLDATALOAD 0x2E BALANCE CALLER CALLDATALOAD ORIGIN BALANCE CALLDATASIZE CODESIZE CALLER CODESIZE ORIGIN CALLER CODECOPY CALLVALUE KECCAK256 COINBASE KECCAK256 ORIGIN CALLVALUE ADDRESS KECCAK256 ORIGIN CALLVALUE ADDRESS KECCAK256 ADDRESS KECCAK256 ADDRESS KECCAK256 BALANCE KECCAK256 ORIGIN CODECOPY ADDRESS 0x2E ORIGIN CALLDATASIZE CODESIZE CODECOPY BALANCE ORIGIN BALANCE CODECOPY CALLDATACOPY ORIGIN CODECOPY BALANCE ORIGIN KECCAK256 CALLDATASIZE ADDRESS CALLER 0x2E CODESIZE CALLVALUE CALLVALUE ADDRESS ORIGIN CALLER CALLDATACOPY CALLDATASIZE CALLDATACOPY CALLDATASIZE ORIGIN BALANCE CALLDATASIZE KECCAK256 0x4C KECCAK256 ORIGIN BALANCE CALLDATASIZE 0x2E CALLER CALLDATALOAD CODESIZE CALLDATALOAD CALLVALUE CODECOPY CALLDATALOAD CODECOPY CALLDATASIZE CALLER CODESIZE CODESIZE ORIGIN CALLER KECCAK256 CALLDATASIZE CALLER CALLVALUE 0x2E CALLVALUE CALLDATALOAD CODESIZE CALLDATASIZE CODECOPY CODESIZE CALLER CALLDATALOAD CALLDATASIZE CODESIZE ORIGIN CODESIZE CODESIZE KECCAK256 COINBASE KECCAK256 CALLER ORIGIN ADDRESS KECCAK256 CALLER ORIGIN ADDRESS KECCAK256 ADDRESS KECCAK256 ADDRESS KECCAK256 ADDRESS KECCAK256 ORIGIN ORIGIN CODECOPY 0x2E CALLDATACOPY CODESIZE CALLDATALOAD BALANCE CODECOPY CALLDATALOAD CALLVALUE ADDRESS CODESIZE CALLDATALOAD ORIGIN CALLDATASIZE CALLVALUE ORIGIN KECCAK256 CALLDATASIZE CALLDATASIZE ORIGIN 0x2E CODESIZE CALLVALUE CALLDATASIZE CODECOPY CALLDATALOAD CALLDATALOAD CALLDATACOPY CODESIZE CALLVALUE CALLER BALANCE CODECOPY CALLER KECCAK256 GAS 0x22 KECCAK256 PUSH7 0x696C6C3D22626C PUSH2 0x636B 0x22 KECCAK256 PUSH20 0x74726F6B653D22626C61636B22207374726F6B65 0x2D PUSH24 0x696474683D2231222F3E0A3C7061746820643D224D203337 ADDRESS 0x2E CODESIZE CODECOPY ORIGIN CALLDATALOAD CODECOPY CALLDATACOPY CALLDATACOPY ADDRESS CALLVALUE ORIGIN CALLDATASIZE CALLER ORIGIN KECCAK256 CALLDATALOAD CODESIZE CALLDATACOPY 0x2E CALLVALUE ORIGIN CALLER CALLVALUE CALLDATACOPY CALLDATACOPY CODESIZE CODECOPY ORIGIN BALANCE CALLDATALOAD CODECOPY CALLDATACOPY KECCAK256 COINBASE KECCAK256 BALANCE CALLDATASIZE ADDRESS KECCAK256 BALANCE CALLDATASIZE ADDRESS KECCAK256 ADDRESS KECCAK256 ADDRESS KECCAK256 BALANCE KECCAK256 CALLER CALLDATASIZE CALLVALUE 0x2E BALANCE CALLDATACOPY CODECOPY ORIGIN CALLDATACOPY CALLVALUE CALLDATACOPY CODECOPY CODESIZE BALANCE CODECOPY CALLVALUE BALANCE KECCAK256 CALLDATALOAD CALLDATACOPY CALLER 0x2E ORIGIN ORIGIN CODECOPY CALLER CALLVALUE CODECOPY BALANCE CALLDATACOPY CODESIZE CALLVALUE BALANCE CALLVALUE CALLVALUE KECCAK256 0x4C KECCAK256 ORIGIN CODECOPY ADDRESS 0x2E ORIGIN CALLDATASIZE CODESIZE CODECOPY BALANCE ORIGIN BALANCE CODECOPY CALLDATACOPY ORIGIN CODECOPY BALANCE ORIGIN KECCAK256 CALLDATASIZE ADDRESS CALLER 0x2E CODESIZE CALLVALUE CALLVALUE ADDRESS ORIGIN CALLER CALLDATACOPY CALLDATASIZE CALLDATACOPY CALLDATASIZE ORIGIN BALANCE CALLDATASIZE KECCAK256 COINBASE KECCAK256 ORIGIN CALLVALUE ADDRESS KECCAK256 ORIGIN CALLVALUE ADDRESS KECCAK256 ADDRESS KECCAK256 ADDRESS KECCAK256 ADDRESS KECCAK256 CALLER ADDRESS ADDRESS 0x2E CALLER CALLER CODESIZE CODESIZE CODECOPY CALLDATASIZE CALLDATALOAD CALLDATALOAD CALLDATASIZE CALLER CODECOPY CALLVALUE CODESIZE CALLVALUE KECCAK256 CALLDATASIZE ORIGIN CALLDATALOAD 0x2E BALANCE CALLER CALLDATALOAD ORIGIN BALANCE CALLDATASIZE CODESIZE CALLER CODESIZE ORIGIN CALLER CODECOPY CALLVALUE KECCAK256 GAS 0x22 KECCAK256 PUSH7 0x696C6C3D22626C PUSH2 0x636B 0x22 KECCAK256 PUSH20 0x74726F6B653D22626C61636B22207374726F6B65 0x2D PUSH24 0x696474683D2231222F3E0A3C7061746820643D224D203134 ORIGIN 0x2E CALLVALUE CALLVALUE CODESIZE BALANCE CODESIZE CALLDATASIZE CODECOPY CODECOPY CALLDATALOAD CALLVALUE CODESIZE CALLDATALOAD CALLVALUE KECCAK256 CALLDATASIZE CALLDATASIZE CALLDATALOAD 0x2E ADDRESS CALLDATACOPY CALLER CALLER CALLDATACOPY ORIGIN CODECOPY CALLVALUE CALLDATASIZE ADDRESS CALLER CALLDATASIZE BALANCE KECCAK256 COINBASE KECCAK256 CALLVALUE ADDRESS ADDRESS KECCAK256 CALLVALUE ADDRESS ADDRESS KECCAK256 ADDRESS KECCAK256 ADDRESS KECCAK256 BALANCE KECCAK256 BALANCE ORIGIN CODECOPY 0x2E ORIGIN ORIGIN CALLER CODESIZE CALLDATASIZE CALLDATALOAD CALLDATACOPY ADDRESS CALLDATACOPY BALANCE BALANCE CALLDATASIZE CALLDATALOAD KECCAK256 CALLDATASIZE ORIGIN CODESIZE 0x2E BALANCE BALANCE CALLER CODESIZE CALLDATACOPY ADDRESS CODECOPY ADDRESS BALANCE CALLDATACOPY CODESIZE CALLDATALOAD KECCAK256 0x4C KECCAK256 CALLDATALOAD ORIGIN 0x2E CALLDATASIZE CALLDATASIZE CODESIZE CALLDATASIZE CALLER CODESIZE CODESIZE CALLVALUE CODESIZE CALLDATALOAD CALLER CODECOPY CODESIZE CALLVALUE KECCAK256 CALLDATASIZE CALLDATALOAD BALANCE 0x2E CALLER CALLER CALLDATASIZE CALLDATASIZE CALLVALUE CALLDATALOAD ADDRESS CODESIZE ORIGIN BALANCE CALLVALUE ORIGIN BALANCE KECCAK256 COINBASE KECCAK256 CALLVALUE CODESIZE ADDRESS KECCAK256 CALLVALUE CODESIZE ADDRESS KECCAK256 ADDRESS KECCAK256 ADDRESS KECCAK256 ADDRESS KECCAK256 CALLDATASIZE CODESIZE 0x2E CALLDATALOAD CALLER CALLDATACOPY CODESIZE ORIGIN CALLVALUE CALLER CODECOPY CALLVALUE CALLDATALOAD CODESIZE ORIGIN CALLVALUE CALLDATASIZE KECCAK256 CALLDATASIZE CODECOPY CALLDATALOAD 0x2E CALLDATASIZE CODESIZE CODESIZE ADDRESS CALLVALUE CALLDATACOPY CALLDATALOAD CALLER CALLDATALOAD ORIGIN CALLVALUE CALLER CALLER KECCAK256 GAS 0x22 KECCAK256 PUSH7 0x696C6C3D22626C PUSH2 0x636B 0x22 KECCAK256 PUSH20 0x74726F6B653D22626C61636B22207374726F6B65 0x2D PUSH24 0x696474683D2231222F3E0A3C7061746820643D224D203231 CALLDATASIZE 0x2E CALLER CALLDATALOAD CODESIZE CALLDATALOAD CALLVALUE CODECOPY CALLDATALOAD CODECOPY CALLDATASIZE CALLER CODESIZE CODESIZE CALLER CALLVALUE KECCAK256 CALLDATASIZE CALLER CALLVALUE 0x2E CALLVALUE CALLDATALOAD CODESIZE CALLDATASIZE CODECOPY CODESIZE CALLER CALLDATALOAD CALLDATASIZE CODESIZE ORIGIN CODESIZE CODECOPY KECCAK256 COINBASE KECCAK256 CALLER ORIGIN ADDRESS KECCAK256 CALLER ORIGIN ADDRESS KECCAK256 ADDRESS KECCAK256 ADDRESS KECCAK256 BALANCE KECCAK256 ORIGIN ADDRESS CALLDATALOAD 0x2E CALLDATACOPY CALLDATACOPY CODECOPY ADDRESS CODECOPY ORIGIN CALLDATALOAD CALLDATASIZE CALLDATALOAD CALLDATASIZE CODECOPY CALLER ORIGIN KECCAK256 CALLDATASIZE ADDRESS CALLVALUE 0x2E CODESIZE CODECOPY BALANCE ADDRESS CODECOPY CALLDATASIZE CALLDATACOPY ORIGIN BALANCE CALLVALUE ORIGIN CODESIZE BALANCE KECCAK256 0x4C KECCAK256 BALANCE ORIGIN CODECOPY 0x2E ORIGIN ORIGIN CALLER CODESIZE CALLDATASIZE CALLDATALOAD CALLDATACOPY ADDRESS CALLDATACOPY BALANCE BALANCE CALLDATASIZE CALLDATALOAD KECCAK256 CALLDATASIZE ORIGIN CODESIZE 0x2E BALANCE BALANCE CALLER CODESIZE CALLDATACOPY ADDRESS CODECOPY ADDRESS BALANCE CALLDATACOPY CODESIZE CALLDATALOAD KECCAK256 COINBASE KECCAK256 CALLVALUE ADDRESS ADDRESS KECCAK256 CALLVALUE ADDRESS ADDRESS KECCAK256 ADDRESS KECCAK256 ADDRESS KECCAK256 ADDRESS KECCAK256 BALANCE CALLVALUE ORIGIN 0x2E CALLVALUE CALLVALUE CODESIZE BALANCE CODESIZE CALLDATASIZE CODECOPY CODECOPY CALLDATALOAD CALLVALUE CODESIZE CALLDATALOAD CALLVALUE KECCAK256 CALLDATASIZE CALLDATASIZE CALLDATALOAD 0x2E ADDRESS CALLDATACOPY CALLER CALLER CALLDATACOPY ORIGIN CODECOPY CALLVALUE CALLDATASIZE ADDRESS CALLER CALLDATASIZE BALANCE KECCAK256 GAS 0x22 KECCAK256 PUSH7 0x696C6C3D22626C PUSH2 0x636B 0x22 KECCAK256 PUSH20 0x74726F6B653D22626C61636B22207374726F6B65 0x2D PUSH24 0x696474683D2231222F3E0A3C7061746820643D224D203239 ADDRESS 0x2E ORIGIN CALLDATASIZE CODESIZE CODECOPY BALANCE ORIGIN BALANCE CODECOPY CALLDATACOPY ORIGIN CODECOPY BALANCE ORIGIN CALLER KECCAK256 CALLDATASIZE ADDRESS CALLER 0x2E CODESIZE CALLVALUE CALLVALUE ADDRESS ORIGIN CALLER CALLDATACOPY CALLDATASIZE CALLDATACOPY CALLDATASIZE ORIGIN BALANCE CALLDATACOPY KECCAK256 COINBASE KECCAK256 ORIGIN CALLVALUE ADDRESS KECCAK256 ORIGIN CALLVALUE ADDRESS KECCAK256 ADDRESS KECCAK256 ADDRESS KECCAK256 BALANCE KECCAK256 ORIGIN CODESIZE ORIGIN 0x2E CALLER CALLER CALLVALUE CALLER BALANCE CODECOPY CALLVALUE ORIGIN CALLVALUE ORIGIN CALLDATASIZE CODECOPY CODECOPY KECCAK256 CALLDATALOAD CODESIZE BALANCE 0x2E CALLDATASIZE CALLDATASIZE CODESIZE CALLER ORIGIN ORIGIN CALLDATALOAD CALLVALUE BALANCE ADDRESS CALLDATACOPY BALANCE BALANCE KECCAK256 0x4C KECCAK256 ORIGIN ADDRESS CALLDATALOAD 0x2E CALLDATACOPY CALLDATACOPY CODECOPY ADDRESS CODECOPY ORIGIN CALLDATALOAD CALLDATASIZE CALLDATALOAD CALLDATASIZE CODECOPY CALLER ORIGIN KECCAK256 CALLDATASIZE ADDRESS CALLVALUE 0x2E CODESIZE CODECOPY BALANCE ADDRESS CODECOPY CALLDATASIZE CALLDATACOPY ORIGIN BALANCE CALLVALUE ORIGIN CODESIZE BALANCE KECCAK256 COINBASE KECCAK256 CALLER ORIGIN ADDRESS KECCAK256 CALLER ORIGIN ADDRESS KECCAK256 ADDRESS KECCAK256 ADDRESS KECCAK256 ADDRESS KECCAK256 ORIGIN BALANCE CALLDATASIZE 0x2E CALLER CALLDATALOAD CODESIZE CALLDATALOAD CALLVALUE CODECOPY CALLDATALOAD CODECOPY CALLDATASIZE CALLER CODESIZE CODESIZE CALLER CALLVALUE KECCAK256 CALLDATASIZE CALLER CALLVALUE 0x2E CALLVALUE CALLDATALOAD CODESIZE CALLDATASIZE CODECOPY CODESIZE CALLER CALLDATALOAD CALLDATASIZE CODESIZE ORIGIN CODESIZE CODECOPY KECCAK256 GAS 0x22 KECCAK256 PUSH7 0x696C6C3D22626C PUSH2 0x636B 0x22 KECCAK256 PUSH20 0x74726F6B653D22626C61636B22207374726F6B65 0x2D PUSH24 0x696474683D2231222F3E0A3C7061746820643D224D203336 CALLVALUE 0x2E BALANCE CALLDATACOPY CODECOPY ORIGIN CALLDATACOPY CALLVALUE CALLDATACOPY CODECOPY CODESIZE BALANCE CODECOPY CALLVALUE ORIGIN KECCAK256 CALLDATALOAD CALLDATACOPY CALLER 0x2E ORIGIN ORIGIN CODECOPY CALLER CALLVALUE CODECOPY BALANCE CALLDATACOPY CODESIZE CALLVALUE BALANCE CALLVALUE CALLVALUE KECCAK256 COINBASE KECCAK256 BALANCE CALLDATASIZE ADDRESS KECCAK256 BALANCE CALLDATASIZE ADDRESS KECCAK256 ADDRESS KECCAK256 ADDRESS KECCAK256 BALANCE KECCAK256 CALLER CALLDATALOAD CODESIZE 0x2E CODESIZE CODESIZE CODECOPY CALLDATALOAD CALLVALUE CALLDATASIZE ORIGIN CODESIZE ORIGIN CODESIZE CALLVALUE CALLDATASIZE CALLDATASIZE KECCAK256 CALLDATALOAD CALLDATALOAD CODESIZE 0x2E CALLVALUE CALLVALUE CALLDATALOAD CALLDATALOAD CALLVALUE CODESIZE CALLER CALLDATASIZE ADDRESS CALLDATACOPY BALANCE CALLVALUE KECCAK256 0x4C KECCAK256 ORIGIN CODESIZE ORIGIN 0x2E CALLER CALLER CALLVALUE CALLER BALANCE CODECOPY CALLVALUE ORIGIN CALLVALUE ORIGIN CALLDATASIZE CODECOPY CODECOPY KECCAK256 CALLDATALOAD CODESIZE BALANCE 0x2E CALLDATASIZE CALLDATASIZE CODESIZE CALLER ORIGIN ORIGIN CALLDATALOAD CALLVALUE BALANCE ADDRESS CALLDATACOPY BALANCE BALANCE KECCAK256 COINBASE KECCAK256 ORIGIN CALLVALUE ADDRESS KECCAK256 ORIGIN CALLVALUE ADDRESS KECCAK256 ADDRESS KECCAK256 ADDRESS KECCAK256 ADDRESS KECCAK256 ORIGIN CODECOPY ADDRESS 0x2E ORIGIN CALLDATASIZE CODESIZE CODECOPY BALANCE ORIGIN BALANCE CODECOPY CALLDATACOPY ORIGIN CODECOPY BALANCE ORIGIN CALLER KECCAK256 CALLDATASIZE ADDRESS CALLER 0x2E CODESIZE CALLVALUE CALLVALUE ADDRESS ORIGIN CALLER CALLDATACOPY CALLDATASIZE CALLDATACOPY CALLDATASIZE ORIGIN BALANCE CALLDATACOPY KECCAK256 GAS 0x22 KECCAK256 PUSH7 0x696C6C3D22626C PUSH2 0x636B 0x22 KECCAK256 PUSH20 0x74726F6B653D22626C61636B22207374726F6B65 0x2D PUSH24 0x696474683D2231222F3E0A3C7061746820643D224D203132 CODECOPY 0x2E ORIGIN ORIGIN CALLER CODESIZE CALLDATASIZE CALLDATALOAD CALLDATACOPY ADDRESS CALLDATACOPY BALANCE BALANCE CALLDATASIZE CALLDATALOAD KECCAK256 CALLDATASIZE ORIGIN CODESIZE 0x2E BALANCE BALANCE CALLER CODESIZE CALLDATACOPY ADDRESS CODECOPY ADDRESS BALANCE CALLDATACOPY CODESIZE CALLVALUE CODECOPY KECCAK256 COINBASE KECCAK256 CALLVALUE ADDRESS ADDRESS KECCAK256 CALLVALUE ADDRESS ADDRESS KECCAK256 ADDRESS KECCAK256 ADDRESS KECCAK256 BALANCE KECCAK256 BALANCE BALANCE CODECOPY 0x2E CALLDATASIZE CODESIZE CALLDATALOAD CODESIZE CODESIZE CALLDATACOPY CODESIZE CALLER CODESIZE CALLDATACOPY ADDRESS CALLDATACOPY CODESIZE KECCAK256 CALLDATALOAD CODECOPY ADDRESS 0x2E ADDRESS CALLER CALLDATASIZE BALANCE ORIGIN CODESIZE CODESIZE ADDRESS CALLDATASIZE CALLVALUE CALLDATALOAD BALANCE CALLER KECCAK256 0x4C KECCAK256 CALLVALUE BALANCE 0x2E ORIGIN ORIGIN CALLER ADDRESS CALLDATASIZE CALLDATALOAD CALLVALUE ADDRESS CALLDATASIZE CALLVALUE CALLVALUE CODECOPY CALLER CODECOPY KECCAK256 CALLDATASIZE ADDRESS CALLDATALOAD 0x2E CALLDATASIZE CALLVALUE CALLER CALLER CALLDATALOAD CALLVALUE CALLDATALOAD CALLDATASIZE CALLDATACOPY CALLDATACOPY CALLVALUE BALANCE CALLDATALOAD KECCAK256 COINBASE KECCAK256 CALLVALUE CODESIZE ADDRESS KECCAK256 CALLVALUE CODESIZE ADDRESS KECCAK256 ADDRESS KECCAK256 ADDRESS KECCAK256 ADDRESS KECCAK256 CALLDATALOAD ORIGIN 0x2E CALLDATASIZE CALLDATASIZE CODESIZE CALLDATASIZE CALLER CODESIZE CODESIZE CALLVALUE CODESIZE CALLDATALOAD CALLER CODECOPY CALLDATACOPY CODESIZE CALLDATASIZE KECCAK256 CALLDATASIZE CALLDATALOAD BALANCE 0x2E CALLER CALLER CALLDATASIZE CALLDATASIZE CALLVALUE CALLDATALOAD ADDRESS CODESIZE ORIGIN BALANCE CALLVALUE BALANCE CODECOPY KECCAK256 GAS 0x22 KECCAK256 PUSH7 0x696C6C3D22626C PUSH2 0x636B 0x22 KECCAK256 PUSH20 0x74726F6B653D22626C61636B22207374726F6B65 0x2D PUSH24 0x696474683D2231222F3E0A3C7061746820643D224D203230 CALLDATALOAD 0x2E CALLDATACOPY CALLDATACOPY CODECOPY ADDRESS CODECOPY ORIGIN CALLDATALOAD CALLDATASIZE CALLDATALOAD CALLDATASIZE CODECOPY CALLER ORIGIN KECCAK256 CALLDATASIZE ADDRESS CALLVALUE 0x2E CODESIZE CODECOPY BALANCE ADDRESS CODECOPY CALLDATASIZE CALLDATACOPY ORIGIN BALANCE CALLVALUE ORIGIN CODESIZE KECCAK256 COINBASE KECCAK256 CALLER ORIGIN ADDRESS KECCAK256 CALLER ORIGIN ADDRESS KECCAK256 ADDRESS KECCAK256 ADDRESS KECCAK256 BALANCE KECCAK256 BALANCE CODECOPY CODESIZE 0x2E BALANCE CALLVALUE CODESIZE CALLDATACOPY BALANCE ADDRESS ORIGIN CALLDATACOPY ADDRESS CODECOPY CALLDATASIZE CALLDATASIZE ORIGIN CALLDATASIZE KECCAK256 CALLDATALOAD CALLDATACOPY CALLVALUE 0x2E CALLVALUE ORIGIN CODESIZE CODECOPY ADDRESS CALLER ADDRESS CALLVALUE CALLDATALOAD BALANCE CALLDATASIZE BALANCE BALANCE KECCAK256 0x4C KECCAK256 BALANCE BALANCE CODECOPY 0x2E CALLDATASIZE CODESIZE CALLDATALOAD CODESIZE CODESIZE CALLDATACOPY CODESIZE CALLER CODESIZE CALLDATACOPY ADDRESS CALLDATACOPY CODESIZE KECCAK256 CALLDATALOAD CODECOPY ADDRESS 0x2E ADDRESS CALLER CALLDATASIZE BALANCE ORIGIN CODESIZE CODESIZE ADDRESS CALLDATASIZE CALLVALUE CALLDATALOAD BALANCE CALLER KECCAK256 COINBASE KECCAK256 CALLVALUE ADDRESS ADDRESS KECCAK256 CALLVALUE ADDRESS ADDRESS KECCAK256 ADDRESS KECCAK256 ADDRESS KECCAK256 ADDRESS KECCAK256 BALANCE ORIGIN CODECOPY 0x2E ORIGIN ORIGIN CALLER CODESIZE CALLDATASIZE CALLDATALOAD CALLDATACOPY ADDRESS CALLDATACOPY BALANCE BALANCE CALLDATASIZE CALLDATALOAD KECCAK256 CALLDATASIZE ORIGIN CODESIZE 0x2E BALANCE BALANCE CALLER CODESIZE CALLDATACOPY ADDRESS CODECOPY ADDRESS BALANCE CALLDATACOPY CODESIZE CALLVALUE CODECOPY KECCAK256 GAS 0x22 KECCAK256 PUSH7 0x696C6C3D22626C PUSH2 0x636B 0x22 KECCAK256 PUSH20 0x74726F6B653D22626C61636B22207374726F6B65 0x2D PUSH24 0x696474683D2231222F3E0A3C7061746820643D224D203238 ORIGIN 0x2E CALLER CALLER CALLVALUE CALLER BALANCE CODECOPY CALLVALUE ORIGIN CALLVALUE ORIGIN CALLDATASIZE CODECOPY CODECOPY KECCAK256 CALLDATALOAD CODESIZE BALANCE 0x2E CALLDATASIZE CALLDATASIZE CODESIZE CALLER ORIGIN ORIGIN CALLDATALOAD CALLVALUE BALANCE ADDRESS CALLDATACOPY BALANCE KECCAK256 COINBASE KECCAK256 ORIGIN CALLVALUE ADDRESS KECCAK256 ORIGIN CALLVALUE ADDRESS KECCAK256 ADDRESS KECCAK256 ADDRESS KECCAK256 BALANCE KECCAK256 ORIGIN CALLDATACOPY CALLDATASIZE 0x2E CALLDATASIZE BALANCE BALANCE CALLDATALOAD CALLER ORIGIN CALLDATACOPY ADDRESS CALLER ORIGIN ORIGIN CALLVALUE CALLDATACOPY KECCAK256 CALLDATALOAD CALLDATALOAD CODESIZE 0x2E CODESIZE ORIGIN BALANCE CALLDATASIZE CALLDATACOPY CALLDATACOPY ORIGIN CODESIZE CALLER CODESIZE CALLDATACOPY ADDRESS CALLDATACOPY KECCAK256 0x4C KECCAK256 BALANCE CODECOPY CODESIZE 0x2E BALANCE CALLVALUE CODESIZE CALLDATACOPY BALANCE ADDRESS ORIGIN CALLDATACOPY ADDRESS CODECOPY CALLDATASIZE CALLDATASIZE ORIGIN CALLDATASIZE KECCAK256 CALLDATALOAD CALLDATACOPY CALLVALUE 0x2E CALLVALUE ORIGIN CODESIZE CODECOPY ADDRESS CALLER ADDRESS CALLVALUE CALLDATALOAD BALANCE CALLDATASIZE BALANCE BALANCE KECCAK256 COINBASE KECCAK256 CALLER ORIGIN ADDRESS KECCAK256 CALLER ORIGIN ADDRESS KECCAK256 ADDRESS KECCAK256 ADDRESS KECCAK256 ADDRESS KECCAK256 ORIGIN ADDRESS CALLDATALOAD 0x2E CALLDATACOPY CALLDATACOPY CODECOPY ADDRESS CODECOPY ORIGIN CALLDATALOAD CALLDATASIZE CALLDATALOAD CALLDATASIZE CODECOPY CALLER ORIGIN KECCAK256 CALLDATASIZE ADDRESS CALLVALUE 0x2E CODESIZE CODECOPY BALANCE ADDRESS CODECOPY CALLDATASIZE CALLDATACOPY ORIGIN BALANCE CALLVALUE ORIGIN CODESIZE KECCAK256 GAS 0x22 KECCAK256 PUSH7 0x696C6C3D22626C PUSH2 0x636B 0x22 KECCAK256 PUSH20 0x74726F6B653D22626C61636B22207374726F6B65 0x2D PUSH24 0x696474683D2231222F3E0A3C7061746820643D224D203335 CODESIZE 0x2E CODESIZE CODESIZE CODECOPY CALLDATALOAD CALLVALUE CALLDATASIZE ORIGIN CODESIZE ORIGIN CODESIZE CALLVALUE CALLDATASIZE CALLDATASIZE KECCAK256 CALLDATALOAD CALLDATALOAD CODESIZE 0x2E CALLVALUE CALLVALUE CALLDATALOAD CALLDATALOAD CALLVALUE CODESIZE CALLER CALLDATASIZE ADDRESS CALLDATACOPY BALANCE CALLER CODECOPY KECCAK256 COINBASE KECCAK256 BALANCE CALLDATASIZE ADDRESS KECCAK256 BALANCE CALLDATASIZE ADDRESS KECCAK256 ADDRESS KECCAK256 ADDRESS KECCAK256 BALANCE KECCAK256 CALLER CALLDATALOAD CALLDATALOAD 0x2E ADDRESS CALLDATACOPY CALLVALUE CALLER CALLDATALOAD CALLDATALOAD BALANCE CALLER CALLDATALOAD CALLVALUE CODESIZE CALLER BALANCE CALLER KECCAK256 CALLDATALOAD CALLVALUE CALLER 0x2E ORIGIN BALANCE CALLVALUE CALLVALUE CALLDATALOAD BALANCE CALLDATALOAD ORIGIN ORIGIN CALLDATALOAD CODESIZE ADDRESS CALLDATALOAD KECCAK256 0x4C KECCAK256 ORIGIN CALLDATACOPY CALLDATASIZE 0x2E CALLDATASIZE BALANCE BALANCE CALLDATALOAD CALLER ORIGIN CALLDATACOPY ADDRESS CALLER ORIGIN ORIGIN CALLVALUE CALLDATACOPY KECCAK256 CALLDATALOAD CALLDATALOAD CODESIZE 0x2E CODESIZE ORIGIN BALANCE CALLDATASIZE CALLDATACOPY CALLDATACOPY ORIGIN CODESIZE CALLER CODESIZE CALLDATACOPY ADDRESS CALLDATACOPY KECCAK256 COINBASE KECCAK256 ORIGIN CALLVALUE ADDRESS KECCAK256 ORIGIN CALLVALUE ADDRESS KECCAK256 ADDRESS KECCAK256 ADDRESS KECCAK256 ADDRESS KECCAK256 ORIGIN CODESIZE ORIGIN 0x2E CALLER CALLER CALLVALUE CALLER BALANCE CODECOPY CALLVALUE ORIGIN CALLVALUE ORIGIN CALLDATASIZE CODECOPY CODECOPY KECCAK256 CALLDATALOAD CODESIZE BALANCE 0x2E CALLDATASIZE CALLDATASIZE CODESIZE CALLER ORIGIN ORIGIN CALLDATALOAD CALLVALUE BALANCE ADDRESS CALLDATACOPY BALANCE KECCAK256 GAS 0x22 KECCAK256 PUSH7 0x696C6C3D22626C PUSH2 0x636B 0x22 KECCAK256 PUSH20 0x74726F6B653D22626C61636B22207374726F6B65 0x2D PUSH24 0x696474683D2231222F3E0A3C7061746820643D224D203131 CODECOPY 0x2E CALLDATASIZE CODESIZE CALLDATALOAD CODESIZE CODESIZE CALLDATACOPY CODESIZE CALLER CODESIZE CALLDATACOPY ADDRESS CALLDATACOPY CODESIZE KECCAK256 CALLDATALOAD CODECOPY ADDRESS 0x2E ADDRESS CALLER CALLDATASIZE BALANCE ORIGIN CODESIZE CODESIZE ADDRESS CALLDATASIZE CALLVALUE CALLDATALOAD BALANCE CALLVALUE KECCAK256 COINBASE KECCAK256 CALLVALUE ADDRESS ADDRESS KECCAK256 CALLVALUE ADDRESS ADDRESS KECCAK256 ADDRESS KECCAK256 ADDRESS KECCAK256 BALANCE KECCAK256 BALANCE BALANCE CALLER 0x2E CODECOPY ORIGIN CALLDATASIZE BALANCE ADDRESS CODECOPY CALLER CALLER BALANCE BALANCE ORIGIN BALANCE ORIGIN CALLDATACOPY KECCAK256 CALLDATALOAD CALLDATALOAD BALANCE 0x2E ORIGIN ADDRESS CALLDATASIZE CODESIZE CALLDATALOAD CALLDATASIZE BALANCE CALLER BALANCE CODESIZE ORIGIN CALLVALUE CALLER KECCAK256 0x4C KECCAK256 CALLER CALLVALUE 0x2E CALLER BALANCE BALANCE CALLER CALLER BALANCE BALANCE CODECOPY CALLDATACOPY CALLER CALLVALUE CALLDATALOAD CALLDATALOAD BALANCE KECCAK256 CALLDATALOAD CALLDATALOAD CODECOPY 0x2E ADDRESS CALLVALUE CODESIZE ORIGIN ORIGIN CALLDATACOPY CALLER CALLDATALOAD CODESIZE BALANCE CODESIZE CODECOPY CALLER KECCAK256 COINBASE KECCAK256 CALLVALUE CODESIZE ADDRESS KECCAK256 CALLVALUE CODESIZE ADDRESS KECCAK256 ADDRESS KECCAK256 ADDRESS KECCAK256 ADDRESS KECCAK256 CALLVALUE BALANCE 0x2E ORIGIN ORIGIN CALLER ADDRESS CALLDATASIZE CALLDATALOAD CALLVALUE ADDRESS CALLDATASIZE CALLVALUE CALLVALUE CODECOPY CALLER CODECOPY KECCAK256 CALLDATASIZE ADDRESS CALLDATALOAD 0x2E CALLDATASIZE CALLVALUE CALLER CALLER CALLDATALOAD CALLVALUE CALLDATALOAD CALLDATASIZE CALLDATACOPY CALLDATACOPY CALLVALUE BALANCE CODESIZE KECCAK256 GAS 0x22 KECCAK256 PUSH7 0x696C6C3D22626C PUSH2 0x636B 0x22 KECCAK256 PUSH20 0x74726F6B653D22626C61636B22207374726F6B65 0x2D PUSH24 0x696474683D2231222F3E0A3C7061746820643D224D203139 CODESIZE 0x2E BALANCE CALLVALUE CODESIZE CALLDATACOPY BALANCE ADDRESS ORIGIN CALLDATACOPY ADDRESS CODECOPY CALLDATASIZE CALLDATASIZE ORIGIN CALLDATASIZE KECCAK256 CALLDATALOAD CALLDATACOPY CALLVALUE 0x2E CALLVALUE ORIGIN CODESIZE CODECOPY ADDRESS CALLER ADDRESS CALLVALUE CALLDATALOAD BALANCE CALLDATASIZE BALANCE ORIGIN KECCAK256 COINBASE KECCAK256 CALLER ORIGIN ADDRESS KECCAK256 CALLER ORIGIN ADDRESS KECCAK256 ADDRESS KECCAK256 ADDRESS KECCAK256 BALANCE KECCAK256 BALANCE CODECOPY CALLER 0x2E CALLDATALOAD CALLVALUE ADDRESS CODESIZE CODESIZE CALLDATACOPY CALLVALUE CALLDATASIZE CALLVALUE CODESIZE CODECOPY CALLDATACOPY ADDRESS CALLER KECCAK256 CALLDATALOAD CALLVALUE CALLER 0x2E CALLER CALLDATASIZE CALLDATALOAD CALLVALUE CODESIZE CALLVALUE CODECOPY ADDRESS CALLDATALOAD CALLVALUE CALLDATALOAD CODECOPY CALLVALUE KECCAK256 0x4C KECCAK256 BALANCE BALANCE CALLER 0x2E CODECOPY ORIGIN CALLDATASIZE BALANCE ADDRESS CODECOPY CALLER CALLER BALANCE BALANCE ORIGIN BALANCE ORIGIN CALLDATACOPY KECCAK256 CALLDATALOAD CALLDATALOAD BALANCE 0x2E ORIGIN ADDRESS CALLDATASIZE CODESIZE CALLDATALOAD CALLDATASIZE BALANCE CALLER BALANCE CODESIZE ORIGIN CALLVALUE CALLER KECCAK256 COINBASE KECCAK256 CALLVALUE ADDRESS ADDRESS KECCAK256 CALLVALUE ADDRESS ADDRESS KECCAK256 ADDRESS KECCAK256 ADDRESS KECCAK256 ADDRESS KECCAK256 BALANCE BALANCE CODECOPY 0x2E CALLDATASIZE CODESIZE CALLDATALOAD CODESIZE CODESIZE CALLDATACOPY CODESIZE CALLER CODESIZE CALLDATACOPY ADDRESS CALLDATACOPY CODESIZE KECCAK256 CALLDATALOAD CODECOPY ADDRESS 0x2E ADDRESS CALLER CALLDATASIZE BALANCE ORIGIN CODESIZE CODESIZE ADDRESS CALLDATASIZE CALLVALUE CALLDATALOAD BALANCE CALLVALUE KECCAK256 GAS 0x22 KECCAK256 PUSH7 0x696C6C3D22626C PUSH2 0x636B 0x22 KECCAK256 PUSH20 0x74726F6B653D22626C61636B22207374726F6B65 0x2D PUSH24 0x696474683D2231222F3E0A3C7061746820643D224D203237 CALLDATASIZE 0x2E CALLDATASIZE BALANCE BALANCE CALLDATALOAD CALLER ORIGIN CALLDATACOPY ADDRESS CALLER ORIGIN ORIGIN CALLVALUE CALLDATACOPY KECCAK256 CALLDATALOAD CALLDATALOAD CODESIZE 0x2E CODESIZE ORIGIN BALANCE CALLDATASIZE CALLDATACOPY CALLDATACOPY ORIGIN CODESIZE CALLER CODESIZE CALLDATACOPY ADDRESS CODESIZE KECCAK256 COINBASE KECCAK256 ORIGIN CALLVALUE ADDRESS KECCAK256 ORIGIN CALLVALUE ADDRESS KECCAK256 ADDRESS KECCAK256 ADDRESS KECCAK256 BALANCE KECCAK256 ORIGIN CALLDATACOPY CALLER 0x2E BALANCE CALLDATALOAD CALLDATALOAD CALLDATASIZE CALLDATASIZE CALLDATALOAD CALLDATALOAD CODECOPY CODESIZE CALLDATASIZE CALLDATACOPY ORIGIN CALLDATACOPY KECCAK256 CALLDATALOAD CALLER CALLDATALOAD 0x2E CALLDATALOAD ORIGIN CALLVALUE BALANCE BALANCE CALLER CALLDATASIZE CALLDATACOPY CODECOPY ADDRESS CODECOPY CALLVALUE CALLDATASIZE KECCAK256 0x4C KECCAK256 BALANCE CODECOPY CALLER 0x2E CALLDATALOAD CALLVALUE ADDRESS CODESIZE CODESIZE CALLDATACOPY CALLVALUE CALLDATASIZE CALLVALUE CODESIZE CODECOPY CALLDATACOPY ADDRESS CALLER KECCAK256 CALLDATALOAD CALLVALUE CALLER 0x2E CALLER CALLDATASIZE CALLDATALOAD CALLVALUE CODESIZE CALLVALUE CODECOPY ADDRESS CALLDATALOAD CALLVALUE CALLDATALOAD CODECOPY CALLVALUE KECCAK256 COINBASE KECCAK256 CALLER ORIGIN ADDRESS KECCAK256 CALLER ORIGIN ADDRESS KECCAK256 ADDRESS KECCAK256 ADDRESS KECCAK256 ADDRESS KECCAK256 BALANCE CODECOPY CODESIZE 0x2E BALANCE CALLVALUE CODESIZE CALLDATACOPY BALANCE ADDRESS ORIGIN CALLDATACOPY ADDRESS CODECOPY CALLDATASIZE CALLDATASIZE ORIGIN CALLDATASIZE KECCAK256 CALLDATALOAD CALLDATACOPY CALLVALUE 0x2E CALLVALUE ORIGIN CODESIZE CODECOPY ADDRESS CALLER ADDRESS CALLVALUE CALLDATALOAD BALANCE CALLDATASIZE BALANCE ORIGIN KECCAK256 GAS 0x22 KECCAK256 PUSH7 0x696C6C3D22626C PUSH2 0x636B 0x22 KECCAK256 PUSH20 0x74726F6B653D22626C61636B22207374726F6B65 0x2D PUSH24 0x696474683D2231222F3E0A3C7061746820643D224D203335 CALLDATALOAD 0x2E ADDRESS CALLDATACOPY CALLVALUE CALLER CALLDATALOAD CALLDATALOAD BALANCE CALLER CALLDATALOAD CALLVALUE CODESIZE CALLER BALANCE CALLER KECCAK256 CALLDATALOAD CALLVALUE CALLER 0x2E ORIGIN BALANCE CALLVALUE CALLVALUE CALLDATALOAD BALANCE CALLDATALOAD ORIGIN ORIGIN CALLDATALOAD CODESIZE ADDRESS CALLDATASIZE KECCAK256 COINBASE KECCAK256 BALANCE CALLDATASIZE ADDRESS KECCAK256 BALANCE CALLDATASIZE ADDRESS KECCAK256 ADDRESS KECCAK256 ADDRESS KECCAK256 BALANCE KECCAK256 CALLER CALLDATALOAD ORIGIN 0x2E CALLDATACOPY CALLDATACOPY ADDRESS CALLVALUE CALLVALUE CALLER CALLDATACOPY CALLER ORIGIN CALLVALUE CALLVALUE CODESIZE CALLDATALOAD KECCAK256 CALLDATALOAD ORIGIN CALLDATACOPY 0x2E CALLDATASIZE CODESIZE ORIGIN CALLDATACOPY CALLVALUE ORIGIN CALLVALUE CALLDATALOAD ORIGIN CALLDATACOPY ORIGIN CODECOPY CALLDATACOPY KECCAK256 0x4C KECCAK256 ORIGIN CALLDATACOPY CALLER 0x2E BALANCE CALLDATALOAD CALLDATALOAD CALLDATASIZE CALLDATASIZE CALLDATALOAD CALLDATALOAD CODECOPY CODESIZE CALLDATASIZE CALLDATACOPY ORIGIN CALLDATACOPY KECCAK256 CALLDATALOAD CALLER CALLDATALOAD 0x2E CALLDATALOAD ORIGIN CALLVALUE BALANCE BALANCE CALLER CALLDATASIZE CALLDATACOPY CODECOPY ADDRESS CODECOPY CALLVALUE CALLDATASIZE KECCAK256 COINBASE KECCAK256 ORIGIN CALLVALUE ADDRESS KECCAK256 ORIGIN CALLVALUE ADDRESS KECCAK256 ADDRESS KECCAK256 ADDRESS KECCAK256 ADDRESS KECCAK256 ORIGIN CALLDATACOPY CALLDATASIZE 0x2E CALLDATASIZE BALANCE BALANCE CALLDATALOAD CALLER ORIGIN CALLDATACOPY ADDRESS CALLER ORIGIN ORIGIN CALLVALUE CALLDATACOPY KECCAK256 CALLDATALOAD CALLDATALOAD CODESIZE 0x2E CODESIZE ORIGIN BALANCE CALLDATASIZE CALLDATACOPY CALLDATACOPY ORIGIN CODESIZE CALLER CODESIZE CALLDATACOPY ADDRESS CODESIZE KECCAK256 GAS 0x22 KECCAK256 PUSH7 0x696C6C3D22626C PUSH2 0x636B 0x22 KECCAK256 PUSH20 0x74726F6B653D22626C61636B22207374726F6B65 0x2D PUSH24 0x696474683D2231222F3E0A3C7061746820643D224D203131 CALLER 0x2E CODECOPY ORIGIN CALLDATASIZE BALANCE ADDRESS CODECOPY CALLER CALLER BALANCE BALANCE ORIGIN BALANCE ORIGIN BALANCE KECCAK256 CALLDATALOAD CALLDATALOAD BALANCE 0x2E ORIGIN ADDRESS CALLDATASIZE CODESIZE CALLDATALOAD CALLDATASIZE BALANCE CALLER BALANCE CODESIZE ORIGIN CALLVALUE BALANCE KECCAK256 COINBASE KECCAK256 CALLVALUE ADDRESS ADDRESS KECCAK256 CALLVALUE ADDRESS ADDRESS KECCAK256 ADDRESS KECCAK256 ADDRESS KECCAK256 BALANCE KECCAK256 BALANCE BALANCE ORIGIN KECCAK256 CALLDATALOAD BALANCE BALANCE 0x2E CODECOPY CODECOPY CODECOPY CODECOPY CODECOPY CODECOPY CODECOPY CODECOPY CODECOPY CODECOPY CODECOPY CODECOPY CODECOPY KECCAK256 0x4C KECCAK256 CALLER ORIGIN KECCAK256 CALLDATALOAD BALANCE BALANCE 0x2E CODECOPY CODECOPY CODECOPY CODECOPY CODECOPY CODECOPY CODECOPY CODECOPY CODECOPY CODECOPY CODECOPY CODECOPY CODESIZE CALLER KECCAK256 COINBASE KECCAK256 CALLVALUE CODESIZE ADDRESS KECCAK256 CALLVALUE CODESIZE ADDRESS KECCAK256 ADDRESS KECCAK256 ADDRESS KECCAK256 ADDRESS KECCAK256 CALLER CALLVALUE 0x2E CALLER BALANCE BALANCE CALLER CALLER BALANCE BALANCE CODECOPY CALLDATACOPY CALLER CALLVALUE CALLDATALOAD CALLVALUE CALLDATALOAD KECCAK256 CALLDATALOAD CALLDATALOAD CODECOPY 0x2E ADDRESS CALLVALUE CODESIZE ORIGIN ORIGIN CALLDATACOPY CALLER CALLDATALOAD CODESIZE BALANCE CODESIZE CODECOPY KECCAK256 GAS 0x22 KECCAK256 PUSH7 0x696C6C3D22626C PUSH2 0x636B 0x22 KECCAK256 PUSH20 0x74726F6B653D22626C61636B22207374726F6B65 0x2D PUSH24 0x696474683D2231222F3E0A3C7061746820643D224D203139 CALLER 0x2E CALLDATALOAD CALLVALUE ADDRESS CODESIZE CODESIZE CALLDATACOPY CALLVALUE CALLDATASIZE CALLVALUE CODESIZE CODECOPY CALLDATASIZE CODECOPY CALLDATACOPY KECCAK256 CALLDATALOAD CALLVALUE CALLER 0x2E CALLER CALLDATASIZE CALLDATALOAD CALLVALUE CODESIZE CALLVALUE CODECOPY ADDRESS CALLDATALOAD CALLVALUE CALLDATALOAD CODECOPY CALLER KECCAK256 COINBASE KECCAK256 CALLER ORIGIN ADDRESS KECCAK256 CALLER ORIGIN ADDRESS KECCAK256 ADDRESS KECCAK256 ADDRESS KECCAK256 BALANCE KECCAK256 BALANCE CODECOPY ORIGIN KECCAK256 CALLDATALOAD BALANCE BALANCE 0x2E CODECOPY CODECOPY CODECOPY CODECOPY CODECOPY CODECOPY CODECOPY CODECOPY CODECOPY CODECOPY CODECOPY CODECOPY CODECOPY KECCAK256 0x4C KECCAK256 BALANCE BALANCE ORIGIN KECCAK256 CALLDATALOAD BALANCE BALANCE 0x2E CODECOPY CODECOPY CODECOPY CODECOPY CODECOPY CODECOPY CODECOPY CODECOPY CODECOPY CODECOPY CODECOPY CODECOPY CODECOPY KECCAK256 COINBASE KECCAK256 CALLVALUE ADDRESS ADDRESS KECCAK256 CALLVALUE ADDRESS ADDRESS KECCAK256 ADDRESS KECCAK256 ADDRESS KECCAK256 ADDRESS KECCAK256 BALANCE BALANCE CALLER 0x2E CODECOPY ORIGIN CALLDATASIZE BALANCE ADDRESS CODECOPY CALLER CALLER BALANCE BALANCE ORIGIN BALANCE ORIGIN BALANCE KECCAK256 CALLDATALOAD CALLDATALOAD BALANCE 0x2E ORIGIN ADDRESS CALLDATASIZE CODESIZE CALLDATALOAD CALLDATASIZE BALANCE CALLER BALANCE CODESIZE ORIGIN CALLVALUE BALANCE KECCAK256 GAS 0x22 KECCAK256 PUSH7 0x696C6C3D22626C PUSH2 0x636B 0x22 KECCAK256 PUSH20 0x74726F6B653D22626C61636B22207374726F6B65 0x2D PUSH24 0x696474683D2231222F3E0A3C7061746820643D224D203237 CALLER 0x2E BALANCE CALLDATALOAD CALLDATALOAD CALLDATASIZE CALLDATASIZE CALLDATALOAD CALLDATALOAD CODECOPY CODESIZE CALLDATASIZE CALLDATACOPY ORIGIN CALLDATACOPY KECCAK256 CALLDATALOAD CALLER CALLDATALOAD 0x2E CALLDATALOAD ORIGIN CALLVALUE BALANCE BALANCE CALLER CALLDATASIZE CALLDATACOPY CODECOPY ADDRESS CODECOPY CALLVALUE CALLDATALOAD KECCAK256 COINBASE KECCAK256 ORIGIN CALLVALUE ADDRESS KECCAK256 ORIGIN CALLVALUE ADDRESS KECCAK256 ADDRESS KECCAK256 ADDRESS KECCAK256 BALANCE KECCAK256 ORIGIN CALLDATACOPY ORIGIN KECCAK256 CALLDATALOAD BALANCE BALANCE 0x2E CODECOPY CODECOPY CODECOPY CODECOPY CODECOPY CODECOPY CODECOPY CODECOPY CODECOPY CODECOPY CODECOPY CODECOPY CODECOPY CALLVALUE KECCAK256 0x4C KECCAK256 BALANCE CODECOPY ORIGIN KECCAK256 CALLDATALOAD BALANCE BALANCE 0x2E CODECOPY CODECOPY CODECOPY CODECOPY CODECOPY CODECOPY CODECOPY CODECOPY CODECOPY CODECOPY CODECOPY CODECOPY CODECOPY KECCAK256 COINBASE KECCAK256 CALLER ORIGIN ADDRESS KECCAK256 CALLER ORIGIN ADDRESS KECCAK256 ADDRESS KECCAK256 ADDRESS KECCAK256 ADDRESS KECCAK256 BALANCE CODECOPY CALLER 0x2E CALLDATALOAD CALLVALUE ADDRESS CODESIZE CODESIZE CALLDATACOPY CALLVALUE CALLDATASIZE CALLVALUE CODESIZE CODECOPY CALLDATASIZE CODECOPY CALLDATACOPY KECCAK256 CALLDATALOAD CALLVALUE CALLER 0x2E CALLER CALLDATASIZE CALLDATALOAD CALLVALUE CODESIZE CALLVALUE CODECOPY ADDRESS CALLDATALOAD CALLVALUE CALLDATALOAD CODECOPY CALLER KECCAK256 GAS 0x22 KECCAK256 PUSH7 0x696C6C3D22626C PUSH2 0x636B 0x22 KECCAK256 PUSH20 0x74726F6B653D22626C61636B22207374726F6B65 0x2D PUSH24 0x696474683D2231222F3E0A3C7061746820643D224D203335 ORIGIN 0x2E CALLDATACOPY CALLDATACOPY ADDRESS CALLVALUE CALLVALUE CALLER CALLDATACOPY CALLER ORIGIN CALLVALUE CALLVALUE CODESIZE CALLDATALOAD KECCAK256 CALLDATALOAD ORIGIN CALLDATACOPY 0x2E CALLDATASIZE CODESIZE ORIGIN CALLDATACOPY CALLVALUE ORIGIN CALLVALUE CALLDATALOAD ORIGIN CALLDATACOPY ORIGIN CODECOPY CALLDATACOPY KECCAK256 COINBASE KECCAK256 BALANCE CALLDATASIZE ADDRESS KECCAK256 BALANCE CALLDATASIZE ADDRESS KECCAK256 ADDRESS KECCAK256 ADDRESS KECCAK256 BALANCE KECCAK256 CALLER CALLDATALOAD ORIGIN KECCAK256 CALLDATALOAD BALANCE BALANCE 0x2E CODECOPY CODECOPY CODECOPY CODECOPY CODECOPY CODECOPY CODECOPY CODECOPY CODECOPY CODECOPY CODECOPY CODECOPY CODECOPY CALLVALUE KECCAK256 0x4C KECCAK256 ORIGIN CALLDATACOPY ORIGIN KECCAK256 CALLDATALOAD BALANCE BALANCE 0x2E CODECOPY CODECOPY CODECOPY CODECOPY CODECOPY CODECOPY CODECOPY CODECOPY CODECOPY CODECOPY CODECOPY CODECOPY CODECOPY CALLVALUE KECCAK256 COINBASE KECCAK256 ORIGIN CALLVALUE ADDRESS KECCAK256 ORIGIN CALLVALUE ADDRESS KECCAK256 ADDRESS KECCAK256 ADDRESS KECCAK256 ADDRESS KECCAK256 ORIGIN CALLDATACOPY CALLER 0x2E BALANCE CALLDATALOAD CALLDATALOAD CALLDATASIZE CALLDATASIZE CALLDATALOAD CALLDATALOAD CODECOPY CODESIZE CALLDATASIZE CALLDATACOPY ORIGIN CALLDATACOPY KECCAK256 CALLDATALOAD CALLER CALLDATALOAD 0x2E CALLDATALOAD ORIGIN CALLVALUE BALANCE BALANCE CALLER CALLDATASIZE CALLDATACOPY CODECOPY ADDRESS CODECOPY CALLVALUE CALLDATALOAD KECCAK256 GAS 0x22 KECCAK256 PUSH7 0x696C6C3D22626C PUSH2 0x636B 0x22 KECCAK256 PUSH20 0x74726F6B653D22626C61636B22207374726F6B65 0x2D PUSH24 0x696474683D2231222F3E0A3C7061746820643D224D203131 ORIGIN KECCAK256 CALLDATALOAD BALANCE ORIGIN KECCAK256 COINBASE KECCAK256 CALLVALUE ADDRESS ADDRESS KECCAK256 CALLVALUE ADDRESS ADDRESS KECCAK256 ADDRESS KECCAK256 ADDRESS KECCAK256 BALANCE KECCAK256 BALANCE BALANCE CALLER 0x2E CODECOPY ORIGIN CALLDATASIZE BALANCE ADDRESS CODECOPY CALLER CALLER BALANCE BALANCE ORIGIN BALANCE ORIGIN BALANCE KECCAK256 CALLVALUE CALLDATACOPY ORIGIN 0x2E CALLDATACOPY CODECOPY CALLER BALANCE CALLVALUE CALLER CODESIZE CALLDATASIZE CODESIZE BALANCE CALLDATACOPY CALLDATALOAD CODESIZE KECCAK256 0x4C KECCAK256 CALLER CALLVALUE 0x2E CALLER BALANCE BALANCE CALLER CALLER BALANCE BALANCE CODECOPY CALLDATACOPY CALLER CALLVALUE CALLDATALOAD CALLVALUE CALLDATALOAD KECCAK256 CALLVALUE CALLDATASIZE CALLVALUE 0x2E CODECOPY CALLDATALOAD BALANCE CALLDATACOPY CALLDATACOPY ORIGIN CALLDATASIZE CALLVALUE BALANCE CODESIZE BALANCE ADDRESS CODECOPY KECCAK256 COINBASE KECCAK256 CALLVALUE CODESIZE ADDRESS KECCAK256 CALLVALUE CODESIZE ADDRESS KECCAK256 ADDRESS KECCAK256 ADDRESS KECCAK256 ADDRESS KECCAK256 CALLER ORIGIN KECCAK256 CALLDATALOAD BALANCE ORIGIN 0x2E ADDRESS ADDRESS ADDRESS ADDRESS ADDRESS ADDRESS ADDRESS ADDRESS ADDRESS ADDRESS ADDRESS ADDRESS BALANCE KECCAK256 GAS 0x22 KECCAK256 PUSH7 0x696C6C3D22626C PUSH2 0x636B 0x22 KECCAK256 PUSH20 0x74726F6B653D22626C61636B22207374726F6B65 0x2D PUSH24 0x696474683D2231222F3E0A3C7061746820643D224D203139 ORIGIN KECCAK256 CALLDATALOAD BALANCE ORIGIN KECCAK256 COINBASE KECCAK256 CALLER ORIGIN ADDRESS KECCAK256 CALLER ORIGIN ADDRESS KECCAK256 ADDRESS KECCAK256 ADDRESS KECCAK256 BALANCE KECCAK256 BALANCE CODECOPY CALLER 0x2E CALLDATALOAD CALLVALUE ADDRESS CODESIZE CODESIZE CALLDATACOPY CALLVALUE CALLDATASIZE CALLVALUE CODESIZE CODECOPY CALLDATASIZE CODECOPY CALLDATACOPY KECCAK256 CALLVALUE CODESIZE ADDRESS 0x2E CALLDATASIZE CALLER CALLVALUE CALLDATALOAD BALANCE CALLDATALOAD ADDRESS CODECOPY CALLVALUE CALLDATALOAD CALLVALUE ADDRESS CALLDATASIZE CALLER KECCAK256 0x4C KECCAK256 BALANCE BALANCE CALLER 0x2E CODECOPY ORIGIN CALLDATASIZE BALANCE ADDRESS CODECOPY CALLER CALLER BALANCE BALANCE ORIGIN BALANCE ORIGIN BALANCE KECCAK256 CALLVALUE CALLDATACOPY ORIGIN 0x2E CALLDATACOPY CODECOPY CALLER BALANCE CALLVALUE CALLER CODESIZE CALLDATASIZE CODESIZE BALANCE CALLDATACOPY CALLDATALOAD CODESIZE KECCAK256 COINBASE KECCAK256 CALLVALUE ADDRESS ADDRESS KECCAK256 CALLVALUE ADDRESS ADDRESS KECCAK256 ADDRESS KECCAK256 ADDRESS KECCAK256 ADDRESS KECCAK256 BALANCE BALANCE ORIGIN KECCAK256 CALLDATALOAD BALANCE ORIGIN KECCAK256 GAS 0x22 KECCAK256 PUSH7 0x696C6C3D22626C PUSH2 0x636B 0x22 KECCAK256 PUSH20 0x74726F6B653D22626C61636B22207374726F6B65 0x2D PUSH24 0x696474683D2231222F3E0A3C7061746820643D224D203237 ORIGIN KECCAK256 CALLDATALOAD BALANCE ORIGIN KECCAK256 COINBASE KECCAK256 ORIGIN CALLVALUE ADDRESS KECCAK256 ORIGIN CALLVALUE ADDRESS KECCAK256 ADDRESS KECCAK256 ADDRESS KECCAK256 BALANCE KECCAK256 ORIGIN CALLDATACOPY CALLER 0x2E BALANCE CALLDATALOAD CALLDATALOAD CALLDATASIZE CALLDATASIZE CALLDATALOAD CALLDATALOAD CODECOPY CODESIZE CALLDATASIZE CALLDATACOPY ORIGIN CALLDATACOPY KECCAK256 CALLVALUE CODESIZE CODESIZE 0x2E CALLVALUE CALLDATACOPY CALLDATALOAD CODESIZE CODESIZE CALLDATASIZE CALLER ORIGIN ADDRESS CODECOPY ADDRESS CALLDATALOAD CALLDATALOAD KECCAK256 0x4C KECCAK256 BALANCE CODECOPY CALLER 0x2E CALLDATALOAD CALLVALUE ADDRESS CODESIZE CODESIZE CALLDATACOPY CALLVALUE CALLDATASIZE CALLVALUE CODESIZE CODECOPY CALLDATASIZE CODECOPY CALLDATACOPY KECCAK256 CALLVALUE CODESIZE ADDRESS 0x2E CALLDATASIZE CALLER CALLVALUE CALLDATALOAD BALANCE CALLDATALOAD ADDRESS CODECOPY CALLVALUE CALLDATALOAD CALLVALUE ADDRESS CALLDATASIZE CALLER KECCAK256 COINBASE KECCAK256 CALLER ORIGIN ADDRESS KECCAK256 CALLER ORIGIN ADDRESS KECCAK256 ADDRESS KECCAK256 ADDRESS KECCAK256 ADDRESS KECCAK256 BALANCE CODECOPY ORIGIN KECCAK256 CALLDATALOAD BALANCE ORIGIN KECCAK256 GAS 0x22 KECCAK256 PUSH7 0x696C6C3D22626C PUSH2 0x636B 0x22 KECCAK256 PUSH20 0x74726F6B653D22626C61636B22207374726F6B65 0x2D PUSH24 0x696474683D2231222F3E0A3C7061746820643D224D203335 ORIGIN KECCAK256 CALLDATALOAD BALANCE ORIGIN KECCAK256 COINBASE KECCAK256 BALANCE CALLDATASIZE ADDRESS KECCAK256 BALANCE CALLDATASIZE ADDRESS KECCAK256 ADDRESS KECCAK256 ADDRESS KECCAK256 BALANCE KECCAK256 CALLER CALLDATALOAD ORIGIN 0x2E CALLDATACOPY CALLDATACOPY ADDRESS CALLVALUE CALLVALUE CALLER CALLDATACOPY CALLER ORIGIN CALLVALUE CALLVALUE CODESIZE CALLDATALOAD KECCAK256 CALLVALUE CODECOPY CALLDATASIZE 0x2E CALLER BALANCE CALLDATACOPY ORIGIN CALLDATALOAD CALLDATACOPY CALLDATALOAD CALLVALUE CALLDATACOPY ORIGIN CALLDATACOPY ADDRESS CALLER KECCAK256 0x4C KECCAK256 ORIGIN CALLDATACOPY CALLER 0x2E BALANCE CALLDATALOAD CALLDATALOAD CALLDATASIZE CALLDATASIZE CALLDATALOAD CALLDATALOAD CODECOPY CODESIZE CALLDATASIZE CALLDATACOPY ORIGIN CALLDATACOPY KECCAK256 CALLVALUE CODESIZE CODESIZE 0x2E CALLVALUE CALLDATACOPY CALLDATALOAD CODESIZE CODESIZE CALLDATASIZE CALLER ORIGIN ADDRESS CODECOPY ADDRESS CALLDATALOAD CALLDATALOAD KECCAK256 COINBASE KECCAK256 ORIGIN CALLVALUE ADDRESS KECCAK256 ORIGIN CALLVALUE ADDRESS KECCAK256 ADDRESS KECCAK256 ADDRESS KECCAK256 ADDRESS KECCAK256 ORIGIN CALLDATACOPY ORIGIN KECCAK256 CALLDATALOAD BALANCE ORIGIN KECCAK256 GAS 0x22 KECCAK256 PUSH7 0x696C6C3D22626C PUSH2 0x636B 0x22 KECCAK256 PUSH20 0x74726F6B653D22626C61636B22207374726F6B65 0x2D PUSH24 0x696474683D2231222F3E0A3C7061746820643D224D203131 CALLER 0x2E CODECOPY ORIGIN CALLDATASIZE BALANCE ADDRESS CODECOPY CALLER CALLER BALANCE BALANCE ORIGIN BALANCE ORIGIN BALANCE KECCAK256 CALLVALUE CALLDATACOPY ORIGIN 0x2E CALLDATACOPY CODECOPY CALLER BALANCE CALLVALUE CALLER CODESIZE CALLDATASIZE CODESIZE BALANCE CALLDATACOPY CALLDATALOAD CODECOPY CALLDATALOAD KECCAK256 COINBASE KECCAK256 CALLVALUE ADDRESS ADDRESS KECCAK256 CALLVALUE ADDRESS ADDRESS KECCAK256 ADDRESS KECCAK256 ADDRESS KECCAK256 BALANCE KECCAK256 BALANCE BALANCE CODECOPY 0x2E CALLDATASIZE CODESIZE CALLDATALOAD CODESIZE CODESIZE CALLDATACOPY CODESIZE CALLER CODESIZE CALLDATACOPY ADDRESS CALLDATACOPY CODESIZE KECCAK256 CALLVALUE CALLER CALLER 0x2E CODECOPY CALLDATASIZE CALLER CODESIZE CALLDATACOPY BALANCE BALANCE CODECOPY CALLER CALLDATALOAD CALLVALUE CODESIZE CODESIZE KECCAK256 0x4C KECCAK256 CALLVALUE BALANCE 0x2E ORIGIN ORIGIN CALLER ADDRESS CALLDATASIZE CALLDATALOAD CALLVALUE ADDRESS CALLDATASIZE CALLVALUE CALLVALUE CODECOPY CALLER CALLVALUE KECCAK256 CALLVALUE BALANCE CODESIZE 0x2E CALLER CALLDATALOAD CALLDATASIZE CALLDATASIZE CALLVALUE CALLDATALOAD CALLVALUE CALLER ORIGIN ORIGIN CALLDATALOAD CODESIZE CALLDATASIZE KECCAK256 COINBASE KECCAK256 CALLVALUE CODESIZE ADDRESS KECCAK256 CALLVALUE CODESIZE ADDRESS KECCAK256 ADDRESS KECCAK256 ADDRESS KECCAK256 ADDRESS KECCAK256 CALLER CALLVALUE 0x2E CALLER BALANCE BALANCE CALLER CALLER BALANCE BALANCE CODECOPY CALLDATACOPY CALLER CALLVALUE CALLDATALOAD CALLVALUE CALLDATALOAD KECCAK256 CALLVALUE CALLDATASIZE CALLVALUE 0x2E CODECOPY CALLDATALOAD BALANCE CALLDATACOPY CALLDATACOPY ORIGIN CALLDATASIZE CALLVALUE BALANCE CODESIZE BALANCE BALANCE BALANCE CALLDATALOAD KECCAK256 GAS 0x22 KECCAK256 PUSH7 0x696C6C3D22626C PUSH2 0x636B 0x22 KECCAK256 PUSH20 0x74726F6B653D22626C61636B22207374726F6B65 0x2D PUSH24 0x696474683D2231222F3E0A3C7061746820643D224D203139 CALLER 0x2E CALLDATALOAD CALLVALUE ADDRESS CODESIZE CODESIZE CALLDATACOPY CALLVALUE CALLDATASIZE CALLVALUE CODESIZE CODECOPY CALLDATASIZE CODECOPY CALLDATACOPY KECCAK256 CALLVALUE CODESIZE ADDRESS 0x2E CALLDATASIZE CALLER CALLVALUE CALLDATALOAD BALANCE CALLDATALOAD ADDRESS CODECOPY CALLVALUE CALLDATALOAD CALLVALUE ADDRESS CALLDATACOPY CALLDATALOAD KECCAK256 COINBASE KECCAK256 CALLER ORIGIN ADDRESS KECCAK256 CALLER ORIGIN ADDRESS KECCAK256 ADDRESS KECCAK256 ADDRESS KECCAK256 BALANCE KECCAK256 BALANCE CODECOPY CODESIZE 0x2E BALANCE CALLVALUE CODESIZE CALLDATACOPY BALANCE ADDRESS ORIGIN CALLDATACOPY ADDRESS CODECOPY CALLDATASIZE CALLDATASIZE ORIGIN KECCAK256 CALLVALUE CALLVALUE CODECOPY 0x2E CALLDATALOAD CALLDATACOPY BALANCE ADDRESS CODECOPY CALLDATASIZE CODECOPY CALLDATALOAD CALLVALUE CODESIZE CALLER CODECOPY ADDRESS CALLDATALOAD KECCAK256 0x4C KECCAK256 BALANCE BALANCE CODECOPY 0x2E CALLDATASIZE CODESIZE CALLDATALOAD CODESIZE CODESIZE CALLDATACOPY CODESIZE CALLER CODESIZE CALLDATACOPY ADDRESS CALLDATACOPY CODESIZE KECCAK256 CALLVALUE CALLER CALLER 0x2E CODECOPY CALLDATASIZE CALLER CODESIZE CALLDATACOPY BALANCE BALANCE CODECOPY CALLER CALLDATALOAD CALLVALUE CODESIZE CODESIZE KECCAK256 COINBASE KECCAK256 CALLVALUE ADDRESS ADDRESS KECCAK256 CALLVALUE ADDRESS ADDRESS KECCAK256 ADDRESS KECCAK256 ADDRESS KECCAK256 ADDRESS KECCAK256 BALANCE BALANCE CALLER 0x2E CODECOPY ORIGIN CALLDATASIZE BALANCE ADDRESS CODECOPY CALLER CALLER BALANCE BALANCE ORIGIN BALANCE ORIGIN BALANCE KECCAK256 CALLVALUE CALLDATACOPY ORIGIN 0x2E CALLDATACOPY CODECOPY CALLER BALANCE CALLVALUE CALLER CODESIZE CALLDATASIZE CODESIZE BALANCE CALLDATACOPY CALLDATALOAD CODECOPY CALLDATALOAD KECCAK256 GAS 0x22 KECCAK256 PUSH7 0x696C6C3D22626C PUSH2 0x636B 0x22 KECCAK256 PUSH20 0x74726F6B653D22626C61636B22207374726F6B65 0x2D PUSH24 0x696474683D2231222F3E0A3C7061746820643D224D203237 CALLER 0x2E BALANCE CALLDATALOAD CALLDATALOAD CALLDATASIZE CALLDATASIZE CALLDATALOAD CALLDATALOAD CODECOPY CODESIZE CALLDATASIZE CALLDATACOPY ORIGIN CALLDATACOPY KECCAK256 CALLVALUE CODESIZE CODESIZE 0x2E CALLVALUE CALLDATACOPY CALLDATALOAD CODESIZE CODESIZE CALLDATASIZE CALLER ORIGIN ADDRESS CODECOPY ADDRESS CALLDATALOAD CALLDATALOAD CALLVALUE KECCAK256 COINBASE KECCAK256 ORIGIN CALLVALUE ADDRESS KECCAK256 ORIGIN CALLVALUE ADDRESS KECCAK256 ADDRESS KECCAK256 ADDRESS KECCAK256 BALANCE KECCAK256 ORIGIN CALLDATACOPY CALLDATASIZE 0x2E CALLDATASIZE BALANCE BALANCE CALLDATALOAD CALLER ORIGIN CALLDATACOPY ADDRESS CALLER ORIGIN ORIGIN CALLVALUE CALLDATASIZE CALLDATACOPY KECCAK256 CALLVALUE CALLDATASIZE CALLDATALOAD 0x2E BALANCE CALLDATACOPY CODESIZE CALLER ORIGIN ORIGIN CALLDATACOPY BALANCE CALLDATASIZE BALANCE ORIGIN CODECOPY CALLER KECCAK256 0x4C KECCAK256 BALANCE CODECOPY CODESIZE 0x2E BALANCE CALLVALUE CODESIZE CALLDATACOPY BALANCE ADDRESS ORIGIN CALLDATACOPY ADDRESS CODECOPY CALLDATASIZE CALLDATASIZE ORIGIN KECCAK256 CALLVALUE CALLVALUE CODECOPY 0x2E CALLDATALOAD CALLDATACOPY BALANCE ADDRESS CODECOPY CALLDATASIZE CODECOPY CALLDATALOAD CALLVALUE CODESIZE CALLER CODECOPY ADDRESS CALLDATALOAD KECCAK256 COINBASE KECCAK256 CALLER ORIGIN ADDRESS KECCAK256 CALLER ORIGIN ADDRESS KECCAK256 ADDRESS KECCAK256 ADDRESS KECCAK256 ADDRESS KECCAK256 BALANCE CODECOPY CALLER 0x2E CALLDATALOAD CALLVALUE ADDRESS CODESIZE CODESIZE CALLDATACOPY CALLVALUE CALLDATASIZE CALLVALUE CODESIZE CODECOPY CALLDATASIZE CODECOPY CALLDATACOPY KECCAK256 CALLVALUE CODESIZE ADDRESS 0x2E CALLDATASIZE CALLER CALLVALUE CALLDATALOAD BALANCE CALLDATALOAD ADDRESS CODECOPY CALLVALUE CALLDATALOAD CALLVALUE ADDRESS CALLDATACOPY CALLDATALOAD KECCAK256 GAS 0x22 KECCAK256 PUSH7 0x696C6C3D22626C PUSH2 0x636B 0x22 KECCAK256 PUSH20 0x74726F6B653D22626C61636B22207374726F6B65 0x2D PUSH24 0x696474683D2231222F3E0A3C7061746820643D224D203335 ORIGIN 0x2E CALLDATACOPY CALLDATACOPY ADDRESS CALLVALUE CALLVALUE CALLER CALLDATACOPY CALLER ORIGIN CALLVALUE CALLVALUE CODESIZE CALLDATALOAD KECCAK256 CALLVALUE CODECOPY CALLDATASIZE 0x2E CALLER BALANCE CALLDATACOPY ORIGIN CALLDATALOAD CALLDATACOPY CALLDATALOAD CALLVALUE CALLDATACOPY ORIGIN CALLDATACOPY ADDRESS CALLVALUE KECCAK256 COINBASE KECCAK256 BALANCE CALLDATASIZE ADDRESS KECCAK256 BALANCE CALLDATASIZE ADDRESS KECCAK256 ADDRESS KECCAK256 ADDRESS KECCAK256 BALANCE KECCAK256 CALLER CALLDATALOAD CALLDATALOAD 0x2E ADDRESS CALLDATACOPY CALLVALUE CALLER CALLDATALOAD CALLDATALOAD BALANCE CALLER CALLDATALOAD CALLVALUE CODESIZE CALLER BALANCE KECCAK256 CALLVALUE CODESIZE ADDRESS 0x2E CALLDATACOPY CODESIZE CALLDATALOAD CALLDATALOAD CALLVALUE CODESIZE CALLVALUE CALLDATACOPY CALLDATACOPY CALLVALUE BALANCE CODECOPY CALLDATALOAD KECCAK256 0x4C KECCAK256 ORIGIN CALLDATACOPY CALLDATASIZE 0x2E CALLDATASIZE BALANCE BALANCE CALLDATALOAD CALLER ORIGIN CALLDATACOPY ADDRESS CALLER ORIGIN ORIGIN CALLVALUE CALLDATASIZE CALLDATACOPY KECCAK256 CALLVALUE CALLDATASIZE CALLDATALOAD 0x2E BALANCE CALLDATACOPY CODESIZE CALLER ORIGIN ORIGIN CALLDATACOPY BALANCE CALLDATASIZE BALANCE ORIGIN CODECOPY CALLER KECCAK256 COINBASE KECCAK256 ORIGIN CALLVALUE ADDRESS KECCAK256 ORIGIN CALLVALUE ADDRESS KECCAK256 ADDRESS KECCAK256 ADDRESS KECCAK256 ADDRESS KECCAK256 ORIGIN CALLDATACOPY CALLER 0x2E BALANCE CALLDATALOAD CALLDATALOAD CALLDATASIZE CALLDATASIZE CALLDATALOAD CALLDATALOAD CODECOPY CODESIZE CALLDATASIZE CALLDATACOPY ORIGIN CALLDATACOPY KECCAK256 CALLVALUE CODESIZE CODESIZE 0x2E CALLVALUE CALLDATACOPY CALLDATALOAD CODESIZE CODESIZE CALLDATASIZE CALLER ORIGIN ADDRESS CODECOPY ADDRESS CALLDATALOAD CALLDATALOAD CALLVALUE KECCAK256 GAS 0x22 KECCAK256 PUSH7 0x696C6C3D22626C PUSH2 0x636B 0x22 KECCAK256 PUSH20 0x74726F6B653D22626C61636B22207374726F6B65 0x2D PUSH24 0x696474683D2231222F3E0A3C7061746820643D224D203131 CODECOPY 0x2E CALLDATASIZE CODESIZE CALLDATALOAD CODESIZE CODESIZE CALLDATACOPY CODESIZE CALLER CODESIZE CALLDATACOPY ADDRESS CALLDATACOPY CODESIZE KECCAK256 CALLVALUE CALLER CALLER 0x2E CODECOPY CALLDATASIZE CALLER CODESIZE CALLDATACOPY BALANCE BALANCE CODECOPY CALLER CALLDATALOAD CALLVALUE CODESIZE CALLDATASIZE CALLVALUE KECCAK256 COINBASE KECCAK256 CALLVALUE ADDRESS ADDRESS KECCAK256 CALLVALUE ADDRESS ADDRESS KECCAK256 ADDRESS KECCAK256 ADDRESS KECCAK256 BALANCE KECCAK256 BALANCE ORIGIN CODECOPY 0x2E ORIGIN ORIGIN CALLER CODESIZE CALLDATASIZE CALLDATALOAD CALLDATACOPY ADDRESS CALLDATACOPY BALANCE BALANCE CALLDATASIZE CALLDATALOAD KECCAK256 CALLER CODECOPY CALLDATALOAD 0x2E CODESIZE CODESIZE CALLDATASIZE BALANCE ORIGIN CODECOPY ADDRESS CODECOPY CODESIZE ORIGIN BALANCE CALLVALUE CODECOPY CALLDATALOAD KECCAK256 0x4C KECCAK256 CALLDATALOAD ORIGIN 0x2E CALLDATASIZE CALLDATASIZE CODESIZE CALLDATASIZE CALLER CODESIZE CODESIZE CALLVALUE CODESIZE CALLDATALOAD CALLER CODECOPY CALLDATACOPY CODESIZE CALLDATASIZE KECCAK256 CALLER CALLDATACOPY ORIGIN 0x2E CALLDATASIZE CALLDATASIZE CALLER CALLER CALLDATALOAD CALLVALUE CODECOPY BALANCE CALLDATACOPY CODESIZE CALLDATALOAD CODESIZE KECCAK256 COINBASE KECCAK256 CALLVALUE CODESIZE ADDRESS KECCAK256 CALLVALUE CODESIZE ADDRESS KECCAK256 ADDRESS KECCAK256 ADDRESS KECCAK256 ADDRESS KECCAK256 CALLVALUE BALANCE 0x2E ORIGIN ORIGIN CALLER ADDRESS CALLDATASIZE CALLDATALOAD CALLVALUE ADDRESS CALLDATASIZE CALLVALUE CALLVALUE CODECOPY CALLER CODECOPY KECCAK256 CALLVALUE BALANCE CODESIZE 0x2E CALLER CALLDATALOAD CALLDATASIZE CALLDATASIZE CALLVALUE CALLDATALOAD CALLVALUE CALLER ORIGIN ORIGIN CALLDATALOAD CODESIZE CALLVALUE KECCAK256 GAS 0x22 KECCAK256 PUSH7 0x696C6C3D22626C PUSH2 0x636B 0x22 KECCAK256 PUSH20 0x74726F6B653D22626C61636B22207374726F6B65 0x2D PUSH24 0x696474683D2231222F3E0A3C7061746820643D224D203139 CODESIZE 0x2E BALANCE CALLVALUE CODESIZE CALLDATACOPY BALANCE ADDRESS ORIGIN CALLDATACOPY ADDRESS CODECOPY CALLDATASIZE CALLDATASIZE ORIGIN CALLDATASIZE KECCAK256 CALLVALUE CALLVALUE CODECOPY 0x2E CALLDATALOAD CALLDATACOPY BALANCE ADDRESS CODECOPY CALLDATASIZE CODECOPY CALLDATALOAD CALLVALUE CODESIZE CALLER CODESIZE CODECOPY CALLVALUE KECCAK256 COINBASE KECCAK256 CALLER ORIGIN ADDRESS KECCAK256 CALLER ORIGIN ADDRESS KECCAK256 ADDRESS KECCAK256 ADDRESS KECCAK256 BALANCE KECCAK256 ORIGIN ADDRESS CALLDATALOAD 0x2E CALLDATACOPY CALLDATACOPY CODECOPY ADDRESS CODECOPY ORIGIN CALLDATALOAD CALLDATASIZE CALLDATALOAD CALLDATASIZE CODECOPY CALLER ORIGIN KECCAK256 CALLVALUE BALANCE CODECOPY 0x2E BALANCE ADDRESS CODESIZE CODECOPY ADDRESS CALLER ORIGIN CALLDATACOPY CODESIZE CALLDATALOAD CALLDATACOPY ORIGIN KECCAK256 0x4C KECCAK256 BALANCE ORIGIN CODECOPY 0x2E ORIGIN ORIGIN CALLER CODESIZE CALLDATASIZE CALLDATALOAD CALLDATACOPY ADDRESS CALLDATACOPY BALANCE BALANCE CALLDATASIZE CALLDATALOAD KECCAK256 CALLER CODECOPY CALLDATALOAD 0x2E CODESIZE CODESIZE CALLDATASIZE BALANCE ORIGIN CODECOPY ADDRESS CODECOPY CODESIZE ORIGIN BALANCE CALLVALUE CODECOPY CALLDATALOAD KECCAK256 COINBASE KECCAK256 CALLVALUE ADDRESS ADDRESS KECCAK256 CALLVALUE ADDRESS ADDRESS KECCAK256 ADDRESS KECCAK256 ADDRESS KECCAK256 ADDRESS KECCAK256 BALANCE BALANCE CODECOPY 0x2E CALLDATASIZE CODESIZE CALLDATALOAD CODESIZE CODESIZE CALLDATACOPY CODESIZE CALLER CODESIZE CALLDATACOPY ADDRESS CALLDATACOPY CODESIZE KECCAK256 CALLVALUE CALLER CALLER 0x2E CODECOPY CALLDATASIZE CALLER CODESIZE CALLDATACOPY BALANCE BALANCE CODECOPY CALLER CALLDATALOAD CALLVALUE CODESIZE CALLDATASIZE CALLVALUE KECCAK256 GAS 0x22 KECCAK256 PUSH7 0x696C6C3D22626C PUSH2 0x636B 0x22 KECCAK256 PUSH20 0x74726F6B653D22626C61636B22207374726F6B65 0x2D PUSH24 0x696474683D2231222F3E0A3C7061746820643D224D203237 CALLDATASIZE 0x2E CALLDATASIZE BALANCE BALANCE CALLDATALOAD CALLER ORIGIN CALLDATACOPY ADDRESS CALLER ORIGIN ORIGIN CALLVALUE CALLDATACOPY KECCAK256 CALLVALUE CALLDATASIZE CALLDATALOAD 0x2E BALANCE CALLDATACOPY CODESIZE CALLER ORIGIN ORIGIN CALLDATACOPY BALANCE CALLDATASIZE BALANCE ORIGIN CODECOPY ORIGIN KECCAK256 COINBASE KECCAK256 ORIGIN CALLVALUE ADDRESS KECCAK256 ORIGIN CALLVALUE ADDRESS KECCAK256 ADDRESS KECCAK256 ADDRESS KECCAK256 BALANCE KECCAK256 ORIGIN CODESIZE ORIGIN 0x2E CALLER CALLER CALLVALUE CALLER BALANCE CODECOPY CALLVALUE ORIGIN CALLVALUE ORIGIN CALLDATASIZE CODECOPY CODECOPY KECCAK256 CALLVALUE CALLVALUE ORIGIN 0x2E CALLER CALLER BALANCE CALLDATASIZE CALLDATACOPY CALLDATACOPY CALLVALUE CALLDATALOAD CODESIZE CODECOPY ORIGIN CODECOPY KECCAK256 0x4C KECCAK256 ORIGIN ADDRESS CALLDATALOAD 0x2E CALLDATACOPY CALLDATACOPY CODECOPY ADDRESS CODECOPY ORIGIN CALLDATALOAD CALLDATASIZE CALLDATALOAD CALLDATASIZE CODECOPY CALLER ORIGIN KECCAK256 CALLVALUE BALANCE CODECOPY 0x2E BALANCE ADDRESS CODESIZE CODECOPY ADDRESS CALLER ORIGIN CALLDATACOPY CODESIZE CALLDATALOAD CALLDATACOPY ORIGIN KECCAK256 COINBASE KECCAK256 CALLER ORIGIN ADDRESS KECCAK256 CALLER ORIGIN ADDRESS KECCAK256 ADDRESS KECCAK256 ADDRESS KECCAK256 ADDRESS KECCAK256 BALANCE CODECOPY CODESIZE 0x2E BALANCE CALLVALUE CODESIZE CALLDATACOPY BALANCE ADDRESS ORIGIN CALLDATACOPY ADDRESS CODECOPY CALLDATASIZE CALLDATASIZE ORIGIN CALLDATASIZE KECCAK256 CALLVALUE CALLVALUE CODECOPY 0x2E CALLDATALOAD CALLDATACOPY BALANCE ADDRESS CODECOPY CALLDATASIZE CODECOPY CALLDATALOAD CALLVALUE CODESIZE CALLER CODESIZE CODECOPY CALLVALUE KECCAK256 GAS 0x22 KECCAK256 PUSH7 0x696C6C3D22626C PUSH2 0x636B 0x22 KECCAK256 PUSH20 0x74726F6B653D22626C61636B22207374726F6B65 0x2D PUSH24 0x696474683D2231222F3E0A3C7061746820643D224D203335 CALLDATALOAD 0x2E ADDRESS CALLDATACOPY CALLVALUE CALLER CALLDATALOAD CALLDATALOAD BALANCE CALLER CALLDATALOAD CALLVALUE CODESIZE CALLER BALANCE CALLER KECCAK256 CALLVALUE CODESIZE ADDRESS 0x2E CALLDATACOPY CODESIZE CALLDATALOAD CALLDATALOAD CALLVALUE CODESIZE CALLVALUE CALLDATACOPY CALLDATACOPY CALLVALUE BALANCE CODECOPY CALLVALUE CALLDATACOPY KECCAK256 COINBASE KECCAK256 BALANCE CALLDATASIZE ADDRESS KECCAK256 BALANCE CALLDATASIZE ADDRESS KECCAK256 ADDRESS KECCAK256 ADDRESS KECCAK256 BALANCE KECCAK256 CALLER CALLDATALOAD CODESIZE 0x2E CODESIZE CODESIZE CODECOPY CALLDATALOAD CALLVALUE CALLDATASIZE ORIGIN CODESIZE ORIGIN CODESIZE CALLVALUE CALLDATASIZE CALLDATASIZE KECCAK256 CALLVALUE CALLDATASIZE CALLDATALOAD 0x2E CALLDATALOAD CALLDATALOAD CALLVALUE CALLVALUE CALLDATALOAD BALANCE CALLDATASIZE CALLER CODECOPY ORIGIN CODESIZE CALLDATASIZE KECCAK256 0x4C KECCAK256 ORIGIN CODESIZE ORIGIN 0x2E CALLER CALLER CALLVALUE CALLER BALANCE CODECOPY CALLVALUE ORIGIN CALLVALUE ORIGIN CALLDATASIZE CODECOPY CODECOPY KECCAK256 CALLVALUE CALLVALUE ORIGIN 0x2E CALLER CALLER BALANCE CALLDATASIZE CALLDATACOPY CALLDATACOPY CALLVALUE CALLDATALOAD CODESIZE CODECOPY ORIGIN CODECOPY KECCAK256 COINBASE KECCAK256 ORIGIN CALLVALUE ADDRESS KECCAK256 ORIGIN CALLVALUE ADDRESS KECCAK256 ADDRESS KECCAK256 ADDRESS KECCAK256 ADDRESS KECCAK256 ORIGIN CALLDATACOPY CALLDATASIZE 0x2E CALLDATASIZE BALANCE BALANCE CALLDATALOAD CALLER ORIGIN CALLDATACOPY ADDRESS CALLER ORIGIN ORIGIN CALLVALUE CALLDATACOPY KECCAK256 CALLVALUE CALLDATASIZE CALLDATALOAD 0x2E BALANCE CALLDATACOPY CODESIZE CALLER ORIGIN ORIGIN CALLDATACOPY BALANCE CALLDATASIZE BALANCE ORIGIN CODECOPY ORIGIN KECCAK256 GAS 0x22 KECCAK256 PUSH7 0x696C6C3D22626C PUSH2 0x636B 0x22 KECCAK256 PUSH20 0x74726F6B653D22626C61636B22207374726F6B65 0x2D PUSH24 0x696474683D2231222F3E0A3C7061746820643D224D203132 CODECOPY 0x2E ORIGIN ORIGIN CALLER CODESIZE CALLDATASIZE CALLDATALOAD CALLDATACOPY ADDRESS CALLDATACOPY BALANCE BALANCE CALLDATASIZE CALLVALUE CALLER KECCAK256 CALLER CODECOPY CALLDATALOAD 0x2E CODESIZE CODESIZE CALLDATASIZE BALANCE ORIGIN CODECOPY ADDRESS CODECOPY CODESIZE ORIGIN BALANCE CALLDATALOAD BALANCE KECCAK256 COINBASE KECCAK256 CALLVALUE ADDRESS ADDRESS KECCAK256 CALLVALUE ADDRESS ADDRESS KECCAK256 ADDRESS KECCAK256 ADDRESS KECCAK256 BALANCE KECCAK256 BALANCE CALLVALUE ORIGIN 0x2E CALLVALUE CALLVALUE CODESIZE BALANCE CODESIZE CALLDATASIZE CODECOPY CODECOPY CALLDATALOAD CALLVALUE CODESIZE CALLDATALOAD CALLER KECCAK256 CALLER CALLDATALOAD CODESIZE 0x2E CODECOPY ORIGIN CALLDATASIZE CALLDATASIZE ORIGIN CALLDATACOPY ADDRESS CALLDATALOAD CALLER CODECOPY CALLDATASIZE CALLVALUE BALANCE KECCAK256 0x4C KECCAK256 CALLDATASIZE CODESIZE 0x2E CALLDATALOAD CALLER CALLDATACOPY CODESIZE ORIGIN CALLVALUE CALLER CODECOPY CALLVALUE CALLDATALOAD CODESIZE ORIGIN CALLER CALLVALUE KECCAK256 CALLER ORIGIN CODESIZE 0x2E CALLER BALANCE BALANCE CODECOPY CALLDATALOAD ORIGIN CALLVALUE CALLDATASIZE CALLVALUE CALLDATACOPY CALLDATALOAD CALLDATASIZE CODECOPY KECCAK256 COINBASE KECCAK256 CALLVALUE CODESIZE ADDRESS KECCAK256 CALLVALUE CODESIZE ADDRESS KECCAK256 ADDRESS KECCAK256 ADDRESS KECCAK256 ADDRESS KECCAK256 CALLDATALOAD ORIGIN 0x2E CALLDATASIZE CALLDATASIZE CODESIZE CALLDATASIZE CALLER CODESIZE CODESIZE CALLVALUE CODESIZE CALLDATALOAD CALLER CODECOPY CALLDATACOPY CALLER KECCAK256 CALLER CALLDATACOPY ORIGIN 0x2E CALLDATASIZE CALLDATASIZE CALLER CALLER CALLDATALOAD CALLVALUE CODECOPY BALANCE CALLDATACOPY CODESIZE CALLDATALOAD CODESIZE BALANCE CALLDATASIZE KECCAK256 GAS 0x22 KECCAK256 PUSH7 0x696C6C3D22626C PUSH2 0x636B 0x22 KECCAK256 PUSH20 0x74726F6B653D22626C61636B22207374726F6B65 0x2D PUSH24 0x696474683D2231222F3E0A3C7061746820643D224D203230 CALLDATALOAD 0x2E CALLDATACOPY CALLDATACOPY CODECOPY ADDRESS CODECOPY ORIGIN CALLDATALOAD CALLDATASIZE CALLDATALOAD CALLDATASIZE CODECOPY CALLER BALANCE CALLER KECCAK256 CALLVALUE BALANCE CODECOPY 0x2E BALANCE ADDRESS CODESIZE CODECOPY ADDRESS CALLER ORIGIN CALLDATACOPY CODESIZE CALLDATALOAD CALLDATACOPY ORIGIN BALANCE CALLVALUE KECCAK256 COINBASE KECCAK256 CALLER ORIGIN ADDRESS KECCAK256 CALLER ORIGIN ADDRESS KECCAK256 ADDRESS KECCAK256 ADDRESS KECCAK256 BALANCE KECCAK256 ORIGIN BALANCE CALLDATASIZE 0x2E CALLER CALLDATALOAD CODESIZE CALLDATALOAD CALLVALUE CODECOPY CALLDATALOAD CODECOPY CALLDATASIZE CALLER CODESIZE CODESIZE ORIGIN CALLER KECCAK256 CALLER CODESIZE CODECOPY 0x2E CALLDATALOAD CALLVALUE BALANCE CALLER ADDRESS BALANCE CALLDATASIZE CALLVALUE CALLER BALANCE CALLDATACOPY BALANCE CALLER KECCAK256 0x4C KECCAK256 BALANCE CALLVALUE ORIGIN 0x2E CALLVALUE CALLVALUE CODESIZE BALANCE CODESIZE CALLDATASIZE CODECOPY CODECOPY CALLDATALOAD CALLVALUE CODESIZE CALLDATALOAD CALLER KECCAK256 CALLER CALLDATALOAD CODESIZE 0x2E CODECOPY ORIGIN CALLDATASIZE CALLDATASIZE ORIGIN CALLDATACOPY ADDRESS CALLDATALOAD CALLER CODECOPY CALLDATASIZE CALLVALUE BALANCE KECCAK256 COINBASE KECCAK256 CALLVALUE ADDRESS ADDRESS KECCAK256 CALLVALUE ADDRESS ADDRESS KECCAK256 ADDRESS KECCAK256 ADDRESS KECCAK256 ADDRESS KECCAK256 BALANCE ORIGIN CODECOPY 0x2E ORIGIN ORIGIN CALLER CODESIZE CALLDATASIZE CALLDATALOAD CALLDATACOPY ADDRESS CALLDATACOPY BALANCE BALANCE CALLDATASIZE CALLVALUE CALLER KECCAK256 CALLER CODECOPY CALLDATALOAD 0x2E CODESIZE CODESIZE CALLDATASIZE BALANCE ORIGIN CODECOPY ADDRESS CODECOPY CODESIZE ORIGIN BALANCE CALLDATALOAD BALANCE KECCAK256 GAS 0x22 KECCAK256 PUSH7 0x696C6C3D22626C PUSH2 0x636B 0x22 KECCAK256 PUSH20 0x74726F6B653D22626C61636B22207374726F6B65 0x2D PUSH24 0x696474683D2231222F3E0A3C7061746820643D224D203238 ORIGIN 0x2E CALLER CALLER CALLVALUE CALLER BALANCE CODECOPY CALLVALUE ORIGIN CALLVALUE ORIGIN CALLDATASIZE CODECOPY CODECOPY KECCAK256 CALLVALUE CALLVALUE ORIGIN 0x2E CALLER CALLER BALANCE CALLDATASIZE CALLDATACOPY CALLDATACOPY CALLVALUE CALLDATALOAD CODESIZE CODECOPY ORIGIN CODECOPY BALANCE KECCAK256 COINBASE KECCAK256 ORIGIN CALLVALUE ADDRESS KECCAK256 ORIGIN CALLVALUE ADDRESS KECCAK256 ADDRESS KECCAK256 ADDRESS KECCAK256 BALANCE KECCAK256 ORIGIN CODECOPY ADDRESS 0x2E ORIGIN CALLDATASIZE CODESIZE CODECOPY BALANCE ORIGIN BALANCE CODECOPY CALLDATACOPY ORIGIN CODECOPY BALANCE ORIGIN KECCAK256 CALLVALUE ORIGIN ADDRESS 0x2E BALANCE CALLDATALOAD CALLDATALOAD CODECOPY CALLDATACOPY CALLDATASIZE ORIGIN CALLER ORIGIN CALLER CALLDATACOPY CODESIZE CALLVALUE CALLDATASIZE KECCAK256 0x4C KECCAK256 ORIGIN BALANCE CALLDATASIZE 0x2E CALLER CALLDATALOAD CODESIZE CALLDATALOAD CALLVALUE CODECOPY CALLDATALOAD CODECOPY CALLDATASIZE CALLER CODESIZE CODESIZE ORIGIN CALLER KECCAK256 CALLER CODESIZE CODECOPY 0x2E CALLDATALOAD CALLVALUE BALANCE CALLER ADDRESS BALANCE CALLDATASIZE CALLVALUE CALLER BALANCE CALLDATACOPY BALANCE CALLER KECCAK256 COINBASE KECCAK256 CALLER ORIGIN ADDRESS KECCAK256 CALLER ORIGIN ADDRESS KECCAK256 ADDRESS KECCAK256 ADDRESS KECCAK256 ADDRESS KECCAK256 ORIGIN ADDRESS CALLDATALOAD 0x2E CALLDATACOPY CALLDATACOPY CODECOPY ADDRESS CODECOPY ORIGIN CALLDATALOAD CALLDATASIZE CALLDATALOAD CALLDATASIZE CODECOPY CALLER BALANCE CALLER KECCAK256 CALLVALUE BALANCE CODECOPY 0x2E BALANCE ADDRESS CODESIZE CODECOPY ADDRESS CALLER ORIGIN CALLDATACOPY CODESIZE CALLDATALOAD CALLDATACOPY ORIGIN BALANCE CALLVALUE KECCAK256 GAS 0x22 KECCAK256 PUSH7 0x696C6C3D22626C PUSH2 0x636B 0x22 KECCAK256 PUSH20 0x74726F6B653D22626C61636B22207374726F6B65 0x2D PUSH24 0x696474683D2231222F3E0A3C7061746820643D224D203335 CODESIZE 0x2E CODESIZE CODESIZE CODECOPY CALLDATALOAD CALLVALUE CALLDATASIZE ORIGIN CODESIZE ORIGIN CODESIZE CALLVALUE CALLDATASIZE CALLDATASIZE KECCAK256 CALLVALUE CALLDATASIZE CALLDATALOAD 0x2E CALLDATALOAD CALLDATALOAD CALLVALUE CALLVALUE CALLDATALOAD BALANCE CALLDATASIZE CALLER CODECOPY ORIGIN CODESIZE CALLDATASIZE ADDRESS CALLDATACOPY KECCAK256 COINBASE KECCAK256 BALANCE CALLDATASIZE ADDRESS KECCAK256 BALANCE CALLDATASIZE ADDRESS KECCAK256 ADDRESS KECCAK256 ADDRESS KECCAK256 BALANCE KECCAK256 CALLER CALLDATASIZE CALLVALUE 0x2E BALANCE CALLDATACOPY CODECOPY ORIGIN CALLDATACOPY CALLVALUE CALLDATACOPY CODECOPY CODESIZE BALANCE CODECOPY CALLVALUE BALANCE KECCAK256 CALLVALUE CALLDATALOAD ADDRESS 0x2E CALLDATACOPY CALLDATACOPY ADDRESS CALLDATASIZE CALLDATALOAD ADDRESS CODESIZE ORIGIN BALANCE CALLDATALOAD CODESIZE CALLDATALOAD CALLDATASIZE CALLDATASIZE KECCAK256 0x4C KECCAK256 ORIGIN CODECOPY ADDRESS 0x2E ORIGIN CALLDATASIZE CODESIZE CODECOPY BALANCE ORIGIN BALANCE CODECOPY CALLDATACOPY ORIGIN CODECOPY BALANCE ORIGIN KECCAK256 CALLVALUE ORIGIN ADDRESS 0x2E BALANCE CALLDATALOAD CALLDATALOAD CODECOPY CALLDATACOPY CALLDATASIZE ORIGIN CALLER ORIGIN CALLER CALLDATACOPY CODESIZE CALLVALUE CALLDATASIZE KECCAK256 COINBASE KECCAK256 ORIGIN CALLVALUE ADDRESS KECCAK256 ORIGIN CALLVALUE ADDRESS KECCAK256 ADDRESS KECCAK256 ADDRESS KECCAK256 ADDRESS KECCAK256 ORIGIN CODESIZE ORIGIN 0x2E CALLER CALLER CALLVALUE CALLER BALANCE CODECOPY CALLVALUE ORIGIN CALLVALUE ORIGIN CALLDATASIZE CODECOPY CODECOPY KECCAK256 CALLVALUE CALLVALUE ORIGIN 0x2E CALLER CALLER BALANCE CALLDATASIZE CALLDATACOPY CALLDATACOPY CALLVALUE CALLDATALOAD CODESIZE CODECOPY ORIGIN CODECOPY BALANCE KECCAK256 GAS 0x22 KECCAK256 PUSH7 0x696C6C3D22626C PUSH2 0x636B 0x22 KECCAK256 PUSH20 0x74726F6B653D22626C61636B22207374726F6B65 0x2D PUSH24 0x696474683D2231222F3E0A3C7061746820643D224D203134 ORIGIN 0x2E CALLVALUE CALLVALUE CODESIZE BALANCE CODESIZE CALLDATASIZE CODECOPY CODECOPY CALLDATALOAD CALLVALUE CODESIZE CALLDATALOAD CALLER CALLVALUE KECCAK256 CALLER CALLDATALOAD CODESIZE 0x2E CODECOPY ORIGIN CALLDATASIZE CALLDATASIZE ORIGIN CALLDATACOPY ADDRESS CALLDATALOAD CALLER CODECOPY CALLDATASIZE CALLVALUE KECCAK256 COINBASE KECCAK256 CALLVALUE ADDRESS ADDRESS KECCAK256 CALLVALUE ADDRESS ADDRESS KECCAK256 ADDRESS KECCAK256 ADDRESS KECCAK256 BALANCE KECCAK256 BALANCE CALLDATALOAD CODECOPY 0x2E ORIGIN CALLER BALANCE CALLVALUE CODECOPY CALLVALUE ORIGIN CALLDATASIZE ADDRESS CALLDATASIZE CALLDATALOAD CODESIZE ADDRESS CALLDATALOAD KECCAK256 CALLER ORIGIN CALLER 0x2E CALLVALUE CALLVALUE BALANCE CALLER ADDRESS CALLDATALOAD ORIGIN CALLDATASIZE CODECOPY CALLDATASIZE ADDRESS ADDRESS CODESIZE KECCAK256 0x4C KECCAK256 CODESIZE CODESIZE 0x2E CALLDATASIZE CALLDATACOPY CALLDATACOPY CALLDATACOPY CODECOPY CALLER BALANCE BALANCE ORIGIN CALLDATACOPY CODESIZE CODECOPY CALLDATASIZE CODECOPY KECCAK256 ORIGIN CODESIZE CALLDATALOAD 0x2E CALLDATACOPY ORIGIN CODECOPY CALLDATALOAD CALLDATASIZE CALLDATASIZE CALLER ORIGIN CALLER CALLDATALOAD ORIGIN ADDRESS CODECOPY CALLVALUE KECCAK256 COINBASE KECCAK256 CALLVALUE CODESIZE ADDRESS KECCAK256 CALLVALUE CODESIZE ADDRESS KECCAK256 ADDRESS KECCAK256 ADDRESS KECCAK256 ADDRESS KECCAK256 CALLDATASIZE CODESIZE 0x2E CALLDATALOAD CALLER CALLDATACOPY CODESIZE ORIGIN CALLVALUE CALLER CODECOPY CALLVALUE CALLDATALOAD CODESIZE ORIGIN CALLVALUE KECCAK256 CALLER ORIGIN CODESIZE 0x2E CALLER BALANCE BALANCE CODECOPY CALLDATALOAD ORIGIN CALLVALUE CALLDATASIZE CALLVALUE CALLDATACOPY CALLDATALOAD CALLDATASIZE CALLDATACOPY CALLDATASIZE KECCAK256 GAS 0x22 KECCAK256 PUSH7 0x696C6C3D22626C PUSH2 0x636B 0x22 KECCAK256 PUSH20 0x74726F6B653D22626C61636B22207374726F6B65 0x2D PUSH24 0x696474683D2231222F3E0A3C7061746820643D224D203231 CALLDATASIZE 0x2E CALLER CALLDATALOAD CODESIZE CALLDATALOAD CALLVALUE CODECOPY CALLDATALOAD CODECOPY CALLDATASIZE CALLER CODESIZE CODESIZE CALLER KECCAK256 CALLER CODESIZE CODECOPY 0x2E CALLDATALOAD CALLVALUE BALANCE CALLER ADDRESS BALANCE CALLDATASIZE CALLVALUE CALLER BALANCE CALLDATACOPY BALANCE ORIGIN KECCAK256 COINBASE KECCAK256 CALLER ORIGIN ADDRESS KECCAK256 CALLER ORIGIN ADDRESS KECCAK256 ADDRESS KECCAK256 ADDRESS KECCAK256 BALANCE KECCAK256 ORIGIN ORIGIN CODECOPY 0x2E CALLDATACOPY CODESIZE CALLDATALOAD BALANCE CODECOPY CALLDATALOAD CALLVALUE ADDRESS CODESIZE CALLDATALOAD ORIGIN CALLDATASIZE CALLVALUE CODESIZE KECCAK256 CALLER CALLDATASIZE BALANCE 0x2E BALANCE CALLDATALOAD CALLER ADDRESS CALLVALUE CALLVALUE ORIGIN BALANCE CALLDATALOAD CALLDATASIZE CODESIZE ADDRESS CALLDATASIZE CALLDATACOPY KECCAK256 0x4C KECCAK256 BALANCE CALLDATALOAD CODECOPY 0x2E ORIGIN CALLER BALANCE CALLVALUE CODECOPY CALLVALUE ORIGIN CALLDATASIZE ADDRESS CALLDATASIZE CALLDATALOAD CODESIZE ADDRESS CALLDATALOAD KECCAK256 CALLER ORIGIN CALLER 0x2E CALLVALUE CALLVALUE BALANCE CALLER ADDRESS CALLDATALOAD ORIGIN CALLDATASIZE CODECOPY CALLDATASIZE ADDRESS ADDRESS CODESIZE KECCAK256 COINBASE KECCAK256 CALLVALUE ADDRESS ADDRESS KECCAK256 CALLVALUE ADDRESS ADDRESS KECCAK256 ADDRESS KECCAK256 ADDRESS KECCAK256 ADDRESS KECCAK256 BALANCE CALLVALUE ORIGIN 0x2E CALLVALUE CALLVALUE CODESIZE BALANCE CODESIZE CALLDATASIZE CODECOPY CODECOPY CALLDATALOAD CALLVALUE CODESIZE CALLDATALOAD CALLER CALLVALUE KECCAK256 CALLER CALLDATALOAD CODESIZE 0x2E CODECOPY ORIGIN CALLDATASIZE CALLDATASIZE ORIGIN CALLDATACOPY ADDRESS CALLDATALOAD CALLER CODECOPY CALLDATASIZE CALLVALUE KECCAK256 GAS 0x22 KECCAK256 PUSH7 0x696C6C3D22626C PUSH2 0x636B 0x22 KECCAK256 PUSH20 0x74726F6B653D22626C61636B22207374726F6B65 0x2D PUSH24 0x696474683D2231222F3E0A3C7061746820643D224D203239 ADDRESS 0x2E ORIGIN CALLDATASIZE CODESIZE CODECOPY BALANCE ORIGIN BALANCE CODECOPY CALLDATACOPY ORIGIN CODECOPY BALANCE ORIGIN CALLER KECCAK256 CALLVALUE ORIGIN ADDRESS 0x2E BALANCE CALLDATALOAD CALLDATALOAD CODECOPY CALLDATACOPY CALLDATASIZE ORIGIN CALLER ORIGIN CALLER CALLDATACOPY CODESIZE CALLVALUE KECCAK256 COINBASE KECCAK256 ORIGIN CALLVALUE ADDRESS KECCAK256 ORIGIN CALLVALUE ADDRESS KECCAK256 ADDRESS KECCAK256 ADDRESS KECCAK256 BALANCE KECCAK256 CALLER ADDRESS ADDRESS 0x2E CALLER CALLER CODESIZE CODESIZE CODECOPY CALLDATASIZE CALLDATALOAD CALLDATALOAD CALLDATASIZE CALLER CODECOPY CALLVALUE CODESIZE CALLVALUE KECCAK256 CALLER CODECOPY CODESIZE 0x2E CODESIZE CALLDATASIZE CALLVALUE CALLDATACOPY CODESIZE CALLER BALANCE CALLDATASIZE BALANCE CALLDATACOPY CALLDATASIZE ADDRESS CALLVALUE CALLVALUE KECCAK256 0x4C KECCAK256 ORIGIN ORIGIN CODECOPY 0x2E CALLDATACOPY CODESIZE CALLDATALOAD BALANCE CODECOPY CALLDATALOAD CALLVALUE ADDRESS CODESIZE CALLDATALOAD ORIGIN CALLDATASIZE CALLVALUE CODESIZE KECCAK256 CALLER CALLDATASIZE BALANCE 0x2E BALANCE CALLDATALOAD CALLER ADDRESS CALLVALUE CALLVALUE ORIGIN BALANCE CALLDATALOAD CALLDATASIZE CODESIZE ADDRESS CALLDATASIZE CALLDATACOPY KECCAK256 COINBASE KECCAK256 CALLER ORIGIN ADDRESS KECCAK256 CALLER ORIGIN ADDRESS KECCAK256 ADDRESS KECCAK256 ADDRESS KECCAK256 ADDRESS KECCAK256 ORIGIN BALANCE CALLDATASIZE 0x2E CALLER CALLDATALOAD CODESIZE CALLDATALOAD CALLVALUE CODECOPY CALLDATALOAD CODECOPY CALLDATASIZE CALLER CODESIZE CODESIZE CALLER KECCAK256 CALLER CODESIZE CODECOPY 0x2E CALLDATALOAD CALLVALUE BALANCE CALLER ADDRESS BALANCE CALLDATASIZE CALLVALUE CALLER BALANCE CALLDATACOPY BALANCE ORIGIN KECCAK256 GAS 0x22 KECCAK256 PUSH7 0x696C6C3D22626C PUSH2 0x636B 0x22 KECCAK256 PUSH20 0x74726F6B653D22626C61636B22207374726F6B65 0x2D PUSH24 0x696474683D2231222F3E0A3C7061746820643D224D203336 CALLVALUE 0x2E BALANCE CALLDATACOPY CODECOPY ORIGIN CALLDATACOPY CALLVALUE CALLDATACOPY CODECOPY CODESIZE BALANCE CODECOPY CALLVALUE BALANCE KECCAK256 CALLVALUE CALLDATALOAD ADDRESS 0x2E CALLDATACOPY CALLDATACOPY ADDRESS CALLDATASIZE CALLDATALOAD ADDRESS CODESIZE ORIGIN BALANCE CALLDATALOAD CODESIZE CALLDATALOAD CALLDATASIZE KECCAK256 COINBASE KECCAK256 BALANCE CALLDATASIZE ADDRESS KECCAK256 BALANCE CALLDATASIZE ADDRESS KECCAK256 ADDRESS KECCAK256 ADDRESS KECCAK256 BALANCE KECCAK256 CALLER CALLDATACOPY ADDRESS 0x2E CODESIZE CODECOPY ORIGIN CALLDATALOAD CODECOPY CALLDATACOPY CALLDATACOPY ADDRESS CALLVALUE ORIGIN CALLDATASIZE CALLER ORIGIN CALLDATACOPY KECCAK256 CALLVALUE CALLER CALLDATASIZE 0x2E CALLDATALOAD CALLDATACOPY CALLDATASIZE CALLDATALOAD ORIGIN ORIGIN BALANCE ADDRESS CALLDATACOPY CODESIZE CALLVALUE ADDRESS CALLER CALLER KECCAK256 0x4C KECCAK256 CALLER ADDRESS ADDRESS 0x2E CALLER CALLER CODESIZE CODESIZE CODECOPY CALLDATASIZE CALLDATALOAD CALLDATALOAD CALLDATASIZE CALLER CODECOPY CALLVALUE CODESIZE CALLVALUE KECCAK256 CALLER CODECOPY CODESIZE 0x2E CODESIZE CALLDATASIZE CALLVALUE CALLDATACOPY CODESIZE CALLER BALANCE CALLDATASIZE BALANCE CALLDATACOPY CALLDATASIZE ADDRESS CALLVALUE CALLVALUE KECCAK256 COINBASE KECCAK256 ORIGIN CALLVALUE ADDRESS KECCAK256 ORIGIN CALLVALUE ADDRESS KECCAK256 ADDRESS KECCAK256 ADDRESS KECCAK256 ADDRESS KECCAK256 ORIGIN CODECOPY ADDRESS 0x2E ORIGIN CALLDATASIZE CODESIZE CODECOPY BALANCE ORIGIN BALANCE CODECOPY CALLDATACOPY ORIGIN CODECOPY BALANCE ORIGIN CALLER KECCAK256 CALLVALUE ORIGIN ADDRESS 0x2E BALANCE CALLDATALOAD CALLDATALOAD CODECOPY CALLDATACOPY CALLDATASIZE ORIGIN CALLER ORIGIN CALLER CALLDATACOPY CODESIZE CALLVALUE KECCAK256 GAS 0x22 KECCAK256 PUSH7 0x696C6C3D22626C PUSH2 0x636B 0x22 KECCAK256 PUSH20 0x74726F6B653D22626C61636B22207374726F6B65 0x2D PUSH24 0x696474683D2231222F3E0A3C7061746820643D224D203135 CODECOPY 0x2E ORIGIN CALLER BALANCE CALLVALUE CODECOPY CALLVALUE ORIGIN CALLDATASIZE ADDRESS CALLDATASIZE CALLDATALOAD CODESIZE KECCAK256 CALLER ORIGIN CALLER 0x2E CALLVALUE CALLVALUE BALANCE CALLER ADDRESS CALLDATALOAD ORIGIN CALLDATASIZE CODECOPY CALLDATASIZE ADDRESS ADDRESS CODECOPY CALLDATALOAD KECCAK256 COINBASE KECCAK256 CALLVALUE ADDRESS ADDRESS KECCAK256 CALLVALUE ADDRESS ADDRESS KECCAK256 ADDRESS KECCAK256 ADDRESS KECCAK256 BALANCE KECCAK256 BALANCE CALLDATACOPY CODECOPY 0x2E CALLVALUE BALANCE ORIGIN BALANCE CALLDATALOAD CALLDATALOAD ADDRESS CALLDATACOPY CODESIZE CODECOPY CODESIZE BALANCE CODECOPY CALLER KECCAK256 ORIGIN CODESIZE CODECOPY 0x2E CALLDATACOPY CALLDATACOPY BALANCE CODECOPY ADDRESS CALLDATASIZE CALLDATACOPY CODECOPY ORIGIN BALANCE CALLDATALOAD CODECOPY BALANCE KECCAK256 0x4C KECCAK256 BALANCE BALANCE ORIGIN 0x2E CODESIZE CODECOPY CALLVALUE CALLDATALOAD CODESIZE CALLDATASIZE ADDRESS CODECOPY CALLVALUE CALLDATACOPY CALLDATACOPY CODESIZE CALLER CALLER KECCAK256 ORIGIN CALLVALUE CALLDATALOAD 0x2E CALLER ORIGIN CALLDATASIZE ORIGIN CODESIZE CODESIZE BALANCE CALLDATALOAD ADDRESS CALLDATALOAD CODECOPY ADDRESS CODECOPY CALLER KECCAK256 COINBASE KECCAK256 CALLVALUE CODESIZE ADDRESS KECCAK256 CALLVALUE CODESIZE ADDRESS KECCAK256 ADDRESS KECCAK256 ADDRESS KECCAK256 ADDRESS KECCAK256 CODESIZE CODESIZE 0x2E CALLDATASIZE CALLDATACOPY CALLDATACOPY CALLDATACOPY CODECOPY CALLER BALANCE BALANCE ORIGIN CALLDATACOPY CODESIZE CODECOPY CALLDATALOAD CALLDATACOPY KECCAK256 ORIGIN CODESIZE CALLDATALOAD 0x2E CALLDATACOPY ORIGIN CODECOPY CALLDATALOAD CALLDATASIZE CALLDATASIZE CALLER ORIGIN CALLER CALLDATALOAD ORIGIN BALANCE BALANCE KECCAK256 GAS 0x22 KECCAK256 PUSH7 0x696C6C3D22626C PUSH2 0x636B 0x22 KECCAK256 PUSH20 0x74726F6B653D22626C61636B22207374726F6B65 0x2D PUSH24 0x696474683D2231222F3E0A3C7061746820643D224D203232 CODECOPY 0x2E CALLDATACOPY CODESIZE CALLDATALOAD BALANCE CODECOPY CALLDATALOAD CALLVALUE ADDRESS CODESIZE CALLDATALOAD ORIGIN CALLDATASIZE CALLER CALLDATASIZE KECCAK256 CALLER CALLDATASIZE BALANCE 0x2E BALANCE CALLDATALOAD CALLER ADDRESS CALLVALUE CALLVALUE ORIGIN BALANCE CALLDATALOAD CALLDATASIZE CODESIZE ADDRESS CODESIZE KECCAK256 COINBASE KECCAK256 CALLER ORIGIN ADDRESS KECCAK256 CALLER ORIGIN ADDRESS KECCAK256 ADDRESS KECCAK256 ADDRESS KECCAK256 BALANCE KECCAK256 ORIGIN CALLVALUE CALLDATALOAD 0x2E CODECOPY ORIGIN CODECOPY CALLDATACOPY ORIGIN CALLVALUE ADDRESS CALLDATASIZE CALLER BALANCE CODESIZE CALLDATALOAD CALLDATALOAD CALLDATACOPY KECCAK256 CALLER CALLER CALLVALUE 0x2E ORIGIN BALANCE CALLDATACOPY CALLDATALOAD ORIGIN CALLDATALOAD CALLVALUE CALLER CALLER CALLDATACOPY ORIGIN CALLDATACOPY ORIGIN CALLDATALOAD KECCAK256 0x4C KECCAK256 BALANCE CALLDATACOPY CODECOPY 0x2E CALLVALUE BALANCE ORIGIN BALANCE CALLDATALOAD CALLDATALOAD ADDRESS CALLDATACOPY CODESIZE CODECOPY CODESIZE BALANCE CODECOPY CALLER KECCAK256 ORIGIN CODESIZE CODECOPY 0x2E CALLDATACOPY CALLDATACOPY BALANCE CODECOPY ADDRESS CALLDATASIZE CALLDATACOPY CODECOPY ORIGIN BALANCE CALLDATALOAD CODECOPY BALANCE KECCAK256 COINBASE KECCAK256 CALLVALUE ADDRESS ADDRESS KECCAK256 CALLVALUE ADDRESS ADDRESS KECCAK256 ADDRESS KECCAK256 ADDRESS KECCAK256 ADDRESS KECCAK256 BALANCE CALLDATALOAD CODECOPY 0x2E ORIGIN CALLER BALANCE CALLVALUE CODECOPY CALLVALUE ORIGIN CALLDATASIZE ADDRESS CALLDATASIZE CALLDATALOAD CODESIZE KECCAK256 CALLER ORIGIN CALLER 0x2E CALLVALUE CALLVALUE BALANCE CALLER ADDRESS CALLDATALOAD ORIGIN CALLDATASIZE CODECOPY CALLDATASIZE ADDRESS ADDRESS CODECOPY CALLDATALOAD KECCAK256 GAS 0x22 KECCAK256 PUSH7 0x696C6C3D22626C PUSH2 0x636B 0x22 KECCAK256 PUSH20 0x74726F6B653D22626C61636B22207374726F6B65 0x2D PUSH24 0x696474683D2231222F3E0A3C7061746820643D224D203330 ADDRESS 0x2E CALLER CALLER CODESIZE CODESIZE CODECOPY CALLDATASIZE CALLDATALOAD CALLDATALOAD CALLDATASIZE CALLER CODECOPY CALLVALUE CODESIZE KECCAK256 CALLER CODECOPY CODESIZE 0x2E CODESIZE CALLDATASIZE CALLVALUE CALLDATACOPY CODESIZE CALLER BALANCE CALLDATASIZE BALANCE CALLDATACOPY CALLDATASIZE ADDRESS CALLDATALOAD CALLDATASIZE KECCAK256 COINBASE KECCAK256 ORIGIN CALLVALUE ADDRESS KECCAK256 ORIGIN CALLVALUE ADDRESS KECCAK256 ADDRESS KECCAK256 ADDRESS KECCAK256 BALANCE KECCAK256 CALLER BALANCE ORIGIN 0x2E CALLVALUE CALLVALUE CALLDATACOPY ORIGIN CODECOPY CALLER ADDRESS CALLVALUE CALLDATACOPY CALLER CODESIZE CODECOPY BALANCE CALLDATACOPY KECCAK256 CALLER CALLDATACOPY CODESIZE 0x2E CALLDATASIZE CALLDATASIZE CALLER BALANCE CALLVALUE CALLVALUE ADDRESS CALLDATACOPY CALLDATALOAD ORIGIN CODECOPY CALLDATALOAD CALLVALUE CALLDATASIZE KECCAK256 0x4C KECCAK256 ORIGIN CALLVALUE CALLDATALOAD 0x2E CODECOPY ORIGIN CODECOPY CALLDATACOPY ORIGIN CALLVALUE ADDRESS CALLDATASIZE CALLER BALANCE CODESIZE CALLDATALOAD CALLDATALOAD CALLDATACOPY KECCAK256 CALLER CALLER CALLVALUE 0x2E ORIGIN BALANCE CALLDATACOPY CALLDATALOAD ORIGIN CALLDATALOAD CALLVALUE CALLER CALLER CALLDATACOPY ORIGIN CALLDATACOPY ORIGIN CALLDATALOAD KECCAK256 COINBASE KECCAK256 CALLER ORIGIN ADDRESS KECCAK256 CALLER ORIGIN ADDRESS KECCAK256 ADDRESS KECCAK256 ADDRESS KECCAK256 ADDRESS KECCAK256 ORIGIN ORIGIN CODECOPY 0x2E CALLDATACOPY CODESIZE CALLDATALOAD BALANCE CODECOPY CALLDATALOAD CALLVALUE ADDRESS CODESIZE CALLDATALOAD ORIGIN CALLDATASIZE CALLER CALLDATASIZE KECCAK256 CALLER CALLDATASIZE BALANCE 0x2E BALANCE CALLDATALOAD CALLER ADDRESS CALLVALUE CALLVALUE ORIGIN BALANCE CALLDATALOAD CALLDATASIZE CODESIZE ADDRESS CODESIZE KECCAK256 GAS 0x22 KECCAK256 PUSH7 0x696C6C3D22626C PUSH2 0x636B 0x22 KECCAK256 PUSH20 0x74726F6B653D22626C61636B22207374726F6B65 0x2D PUSH24 0x696474683D2231222F3E0A3C7061746820643D224D203337 ADDRESS 0x2E CODESIZE CODECOPY ORIGIN CALLDATALOAD CODECOPY CALLDATACOPY CALLDATACOPY ADDRESS CALLVALUE ORIGIN CALLDATASIZE CALLER BALANCE CALLDATALOAD KECCAK256 CALLVALUE CALLER CALLDATASIZE 0x2E CALLDATALOAD CALLDATACOPY CALLDATASIZE CALLDATALOAD ORIGIN ORIGIN BALANCE ADDRESS CALLDATACOPY CODESIZE CALLVALUE ADDRESS CALLVALUE KECCAK256 COINBASE KECCAK256 BALANCE CALLDATASIZE ADDRESS KECCAK256 BALANCE CALLDATASIZE ADDRESS KECCAK256 ADDRESS KECCAK256 ADDRESS KECCAK256 BALANCE KECCAK256 CALLER CALLDATACOPY CODESIZE 0x2E CODECOPY CALLDATASIZE CALLVALUE CODESIZE CALLDATASIZE ORIGIN ADDRESS CALLER BALANCE CALLDATALOAD CODECOPY ORIGIN CODESIZE KECCAK256 CALLVALUE ORIGIN CALLER 0x2E BALANCE ADDRESS CODESIZE CALLDATACOPY CALLDATASIZE ORIGIN CALLDATACOPY BALANCE CALLDATASIZE CODESIZE CALLDATASIZE CALLER CALLDATASIZE KECCAK256 0x4C KECCAK256 CALLER BALANCE ORIGIN 0x2E CALLVALUE CALLVALUE CALLDATACOPY ORIGIN CODECOPY CALLER ADDRESS CALLVALUE CALLDATACOPY CALLER CODESIZE CODECOPY BALANCE CALLDATACOPY KECCAK256 CALLER CALLDATACOPY CODESIZE 0x2E CALLDATASIZE CALLDATASIZE CALLER BALANCE CALLVALUE CALLVALUE ADDRESS CALLDATACOPY CALLDATALOAD ORIGIN CODECOPY CALLDATALOAD CALLVALUE CALLDATASIZE KECCAK256 COINBASE KECCAK256 ORIGIN CALLVALUE ADDRESS KECCAK256 ORIGIN CALLVALUE ADDRESS KECCAK256 ADDRESS KECCAK256 ADDRESS KECCAK256 ADDRESS KECCAK256 CALLER ADDRESS ADDRESS 0x2E CALLER CALLER CODESIZE CODESIZE CODECOPY CALLDATASIZE CALLDATALOAD CALLDATALOAD CALLDATASIZE CALLER CODECOPY CALLVALUE CODESIZE KECCAK256 CALLER CODECOPY CODESIZE 0x2E CODESIZE CALLDATASIZE CALLVALUE CALLDATACOPY CODESIZE CALLER BALANCE CALLDATASIZE BALANCE CALLDATACOPY CALLDATASIZE ADDRESS CALLDATALOAD CALLDATASIZE KECCAK256 GAS 0x22 KECCAK256 PUSH7 0x696C6C3D22626C PUSH2 0x636B 0x22 KECCAK256 PUSH20 0x74726F6B653D22626C61636B22207374726F6B65 0x2D PUSH24 0x696474683D2231222F3E0A3C7061746820643D224D203137 CODECOPY 0x2E CALLVALUE BALANCE ORIGIN BALANCE CALLDATALOAD CALLDATALOAD ADDRESS CALLDATACOPY CODESIZE CODECOPY CODESIZE BALANCE CODESIZE KECCAK256 ORIGIN CODESIZE CODECOPY 0x2E CALLDATACOPY CALLDATACOPY BALANCE CODECOPY ADDRESS CALLDATASIZE CALLDATACOPY CODECOPY ORIGIN BALANCE CALLDATALOAD CODECOPY ORIGIN CALLDATASIZE KECCAK256 COINBASE KECCAK256 CALLVALUE ADDRESS ADDRESS KECCAK256 CALLVALUE ADDRESS ADDRESS KECCAK256 ADDRESS KECCAK256 ADDRESS KECCAK256 BALANCE KECCAK256 ORIGIN ADDRESS ORIGIN 0x2E CALLDATACOPY CODECOPY CALLDATALOAD CODESIZE BALANCE CODESIZE CALLDATASIZE CALLDATALOAD CALLVALUE CODECOPY ADDRESS CALLDATALOAD BALANCE CALLER KECCAK256 ORIGIN CALLDATALOAD CODESIZE 0x2E ORIGIN CALLVALUE ORIGIN CALLDATASIZE CODESIZE CALLDATASIZE CALLER CALLER CALLVALUE CALLDATALOAD CALLVALUE BALANCE CODECOPY KECCAK256 0x4C KECCAK256 BALANCE CALLVALUE ADDRESS 0x2E CODECOPY CALLDATALOAD CALLVALUE CODECOPY CODESIZE ORIGIN CALLER CODESIZE CALLDATALOAD CODESIZE CODESIZE CALLDATASIZE BALANCE CODESIZE KECCAK256 ORIGIN ADDRESS CALLDATACOPY 0x2E CALLVALUE CODECOPY BALANCE ORIGIN ORIGIN CALLER CALLDATASIZE ADDRESS BALANCE CALLVALUE CALLDATALOAD ADDRESS ORIGIN CALLDATASIZE KECCAK256 COINBASE KECCAK256 CALLVALUE CODESIZE ADDRESS KECCAK256 CALLVALUE CODESIZE ADDRESS KECCAK256 ADDRESS KECCAK256 ADDRESS KECCAK256 ADDRESS KECCAK256 BALANCE BALANCE ORIGIN 0x2E CODESIZE CODECOPY CALLVALUE CALLDATALOAD CODESIZE CALLDATASIZE ADDRESS CODECOPY CALLVALUE CALLDATACOPY CALLDATACOPY CODESIZE BALANCE CALLDATASIZE KECCAK256 ORIGIN CALLVALUE CALLDATALOAD 0x2E CALLER ORIGIN CALLDATASIZE ORIGIN CODESIZE CODESIZE BALANCE CALLDATALOAD ADDRESS CALLDATALOAD CODECOPY BALANCE ADDRESS CALLVALUE KECCAK256 GAS 0x22 KECCAK256 PUSH7 0x696C6C3D22626C PUSH2 0x636B 0x22 KECCAK256 PUSH20 0x74726F6B653D22626C61636B22207374726F6B65 0x2D PUSH24 0x696474683D2231222F3E0A3C7061746820643D224D203234 CALLDATALOAD 0x2E CODECOPY ORIGIN CODECOPY CALLDATACOPY ORIGIN CALLVALUE ADDRESS CALLDATASIZE CALLER BALANCE CODESIZE CALLDATALOAD CALLVALUE CALLDATASIZE KECCAK256 CALLER CALLER CALLVALUE 0x2E ORIGIN BALANCE CALLDATACOPY CALLDATALOAD ORIGIN CALLDATALOAD CALLVALUE CALLER CALLER CALLDATACOPY ORIGIN CALLDATACOPY CALLER CALLDATASIZE KECCAK256 COINBASE KECCAK256 CALLER ORIGIN ADDRESS KECCAK256 CALLER ORIGIN ADDRESS KECCAK256 ADDRESS KECCAK256 ADDRESS KECCAK256 BALANCE KECCAK256 ORIGIN CALLDATASIZE CALLVALUE 0x2E CALLDATASIZE CALLER CALLDATASIZE CALLDATASIZE CALLDATALOAD CALLVALUE CODECOPY ORIGIN CALLER CODECOPY ORIGIN CALLVALUE BALANCE CALLVALUE KECCAK256 CALLER ADDRESS CODESIZE 0x2E CODECOPY CODECOPY CALLVALUE BALANCE CALLVALUE CODECOPY ADDRESS CALLDATASIZE CALLDATACOPY CALLDATASIZE CALLER CALLER CALLDATALOAD CALLVALUE KECCAK256 0x4C KECCAK256 ORIGIN ADDRESS ORIGIN 0x2E CALLDATACOPY CODECOPY CALLDATALOAD CODESIZE BALANCE CODESIZE CALLDATASIZE CALLDATALOAD CALLVALUE CODECOPY ADDRESS CALLDATALOAD BALANCE CALLER KECCAK256 ORIGIN CALLDATALOAD CODESIZE 0x2E ORIGIN CALLVALUE ORIGIN CALLDATASIZE CODESIZE CALLDATASIZE CALLER CALLER CALLVALUE CALLDATALOAD CALLVALUE BALANCE CODECOPY KECCAK256 COINBASE KECCAK256 CALLVALUE ADDRESS ADDRESS KECCAK256 CALLVALUE ADDRESS ADDRESS KECCAK256 ADDRESS KECCAK256 ADDRESS KECCAK256 ADDRESS KECCAK256 BALANCE CALLDATACOPY CODECOPY 0x2E CALLVALUE BALANCE ORIGIN BALANCE CALLDATALOAD CALLDATALOAD ADDRESS CALLDATACOPY CODESIZE CODECOPY CODESIZE BALANCE CODESIZE KECCAK256 ORIGIN CODESIZE CODECOPY 0x2E CALLDATACOPY CALLDATACOPY BALANCE CODECOPY ADDRESS CALLDATASIZE CALLDATACOPY CODECOPY ORIGIN BALANCE CALLDATALOAD CODECOPY ORIGIN CALLDATASIZE KECCAK256 GAS 0x22 KECCAK256 PUSH7 0x696C6C3D22626C PUSH2 0x636B 0x22 KECCAK256 PUSH20 0x74726F6B653D22626C61636B22207374726F6B65 0x2D PUSH24 0x696474683D2231222F3E0A3C7061746820643D224D203331 ORIGIN 0x2E CALLVALUE CALLVALUE CALLDATACOPY ORIGIN CODECOPY CALLER ADDRESS CALLVALUE CALLDATACOPY CALLER CODESIZE CODECOPY ADDRESS CALLDATALOAD KECCAK256 CALLER CALLDATACOPY CODESIZE 0x2E CALLDATASIZE CALLDATASIZE CALLER BALANCE CALLVALUE CALLVALUE ADDRESS CALLDATACOPY CALLDATALOAD ORIGIN CODECOPY CALLDATALOAD CALLDATALOAD KECCAK256 COINBASE KECCAK256 ORIGIN CALLVALUE ADDRESS KECCAK256 ORIGIN CALLVALUE ADDRESS KECCAK256 ADDRESS KECCAK256 ADDRESS KECCAK256 BALANCE KECCAK256 CALLER ORIGIN CALLDATASIZE 0x2E CALLVALUE CALLDATACOPY CALLDATACOPY CALLVALUE CODECOPY BALANCE BALANCE CODECOPY ORIGIN CODECOPY CALLVALUE CALLER BALANCE KECCAK256 CALLER CALLDATALOAD CODECOPY 0x2E CALLDATACOPY CALLVALUE CALLDATALOAD CALLDATASIZE BALANCE BALANCE CODESIZE ADDRESS ADDRESS CALLDATACOPY ORIGIN CALLDATALOAD BALANCE KECCAK256 0x4C KECCAK256 ORIGIN CALLDATASIZE CALLVALUE 0x2E CALLDATASIZE CALLER CALLDATASIZE CALLDATASIZE CALLDATALOAD CALLVALUE CODECOPY ORIGIN CALLER CODECOPY ORIGIN CALLVALUE BALANCE CALLVALUE KECCAK256 CALLER ADDRESS CODESIZE 0x2E CODECOPY CODECOPY CALLVALUE BALANCE CALLVALUE CODECOPY ADDRESS CALLDATASIZE CALLDATACOPY CALLDATASIZE CALLER CALLER CALLDATALOAD CALLVALUE KECCAK256 COINBASE KECCAK256 CALLER ORIGIN ADDRESS KECCAK256 CALLER ORIGIN ADDRESS KECCAK256 ADDRESS KECCAK256 ADDRESS KECCAK256 ADDRESS KECCAK256 ORIGIN CALLVALUE CALLDATALOAD 0x2E CODECOPY ORIGIN CODECOPY CALLDATACOPY ORIGIN CALLVALUE ADDRESS CALLDATASIZE CALLER BALANCE CODESIZE CALLDATALOAD CALLVALUE CALLDATASIZE KECCAK256 CALLER CALLER CALLVALUE 0x2E ORIGIN BALANCE CALLDATACOPY CALLDATALOAD ORIGIN CALLDATALOAD CALLVALUE CALLER CALLER CALLDATACOPY ORIGIN CALLDATACOPY CALLER CALLDATASIZE KECCAK256 GAS 0x22 KECCAK256 PUSH7 0x696C6C3D22626C PUSH2 0x636B 0x22 KECCAK256 PUSH20 0x74726F6B653D22626C61636B22207374726F6B65 0x2D PUSH24 0x696474683D2231222F3E0A3C7061746820643D224D203337 CODESIZE 0x2E CODECOPY CALLDATASIZE CALLVALUE CODESIZE CALLDATASIZE ORIGIN ADDRESS CALLER BALANCE CALLDATALOAD CODECOPY ORIGIN CALLDATACOPY KECCAK256 CALLVALUE ORIGIN CALLER 0x2E BALANCE ADDRESS CODESIZE CALLDATACOPY CALLDATASIZE ORIGIN CALLDATACOPY BALANCE CALLDATASIZE CODESIZE CALLDATASIZE CALLER CALLDATACOPY KECCAK256 COINBASE KECCAK256 BALANCE CALLDATASIZE ADDRESS KECCAK256 BALANCE CALLDATASIZE ADDRESS KECCAK256 ADDRESS KECCAK256 ADDRESS KECCAK256 BALANCE KECCAK256 CALLER CODESIZE CODESIZE 0x2E CALLER BALANCE CODESIZE CALLER ORIGIN CALLDATACOPY CALLVALUE CALLDATASIZE BALANCE CODECOPY CALLDATASIZE ORIGIN BALANCE KECCAK256 CALLVALUE BALANCE ADDRESS 0x2E CALLVALUE CODECOPY CALLDATACOPY ADDRESS CALLDATACOPY CALLVALUE CALLDATALOAD CALLER CALLER CODESIZE BALANCE CALLDATASIZE CODESIZE KECCAK256 0x4C KECCAK256 CALLER ORIGIN CALLDATASIZE 0x2E CALLVALUE CALLDATACOPY CALLDATACOPY CALLVALUE CODECOPY BALANCE BALANCE CODECOPY ORIGIN CODECOPY CALLVALUE CALLER BALANCE KECCAK256 CALLER CALLDATALOAD CODECOPY 0x2E CALLDATACOPY CALLVALUE CALLDATALOAD CALLDATASIZE BALANCE BALANCE CODESIZE ADDRESS ADDRESS CALLDATACOPY ORIGIN CALLDATALOAD BALANCE KECCAK256 COINBASE KECCAK256 ORIGIN CALLVALUE ADDRESS KECCAK256 ORIGIN CALLVALUE ADDRESS KECCAK256 ADDRESS KECCAK256 ADDRESS KECCAK256 ADDRESS KECCAK256 CALLER BALANCE ORIGIN 0x2E CALLVALUE CALLVALUE CALLDATACOPY ORIGIN CODECOPY CALLER ADDRESS CALLVALUE CALLDATACOPY CALLER CODESIZE CODECOPY ADDRESS CALLDATALOAD KECCAK256 CALLER CALLDATACOPY CODESIZE 0x2E CALLDATASIZE CALLDATASIZE CALLER BALANCE CALLVALUE CALLVALUE ADDRESS CALLDATACOPY CALLDATALOAD ORIGIN CODECOPY CALLDATALOAD CALLDATALOAD KECCAK256 GAS 0x22 KECCAK256 PUSH7 0x696C6C3D22626C PUSH2 0x636B 0x22 KECCAK256 PUSH20 0x74726F6B653D22626C61636B22207374726F6B65 0x2D PUSH24 0x696474683D2231222F3E0A3C7061746820643D224D203230 ORIGIN 0x2E CALLDATACOPY CODECOPY CALLDATALOAD CODESIZE BALANCE CODESIZE CALLDATASIZE CALLDATALOAD CALLVALUE CODECOPY ADDRESS CALLDATALOAD ORIGIN CALLDATALOAD KECCAK256 ORIGIN CALLDATALOAD CODESIZE 0x2E ORIGIN CALLVALUE ORIGIN CALLDATASIZE CODESIZE CALLDATASIZE CALLER CALLER CALLVALUE CALLDATALOAD CALLVALUE BALANCE CALLDATACOPY KECCAK256 COINBASE KECCAK256 CALLVALUE ADDRESS ADDRESS KECCAK256 CALLVALUE ADDRESS ADDRESS KECCAK256 ADDRESS KECCAK256 ADDRESS KECCAK256 BALANCE KECCAK256 ORIGIN ORIGIN CODECOPY 0x2E BALANCE CALLDATALOAD CALLDATACOPY ORIGIN CODESIZE CALLDATACOPY CALLDATALOAD ORIGIN CALLDATALOAD CALLER CODESIZE BALANCE ADDRESS CALLVALUE KECCAK256 ORIGIN ORIGIN CODECOPY 0x2E BALANCE CALLDATALOAD CALLDATACOPY ORIGIN CODESIZE CALLDATACOPY CALLDATALOAD ORIGIN CALLDATALOAD CALLER CODESIZE ADDRESS CODECOPY ORIGIN KECCAK256 0x4C KECCAK256 BALANCE CALLDATACOPY ORIGIN 0x2E CALLDATALOAD CODESIZE CODESIZE CALLDATACOPY CALLVALUE CALLDATALOAD ADDRESS CALLER ADDRESS CALLVALUE CALLDATALOAD CALLDATACOPY CALLER KECCAK256 BALANCE CALLDATACOPY ORIGIN 0x2E CALLDATALOAD CODESIZE CODESIZE CALLDATACOPY CALLVALUE CALLDATALOAD ADDRESS CALLER ADDRESS CALLVALUE CALLDATALOAD CALLDATACOPY BALANCE ORIGIN KECCAK256 COINBASE KECCAK256 CALLVALUE CODESIZE ADDRESS KECCAK256 CALLVALUE CODESIZE ADDRESS KECCAK256 ADDRESS KECCAK256 ADDRESS KECCAK256 ADDRESS KECCAK256 BALANCE CALLVALUE ADDRESS 0x2E CODECOPY CALLDATALOAD CALLVALUE CODECOPY CODESIZE ORIGIN CALLER CODESIZE CALLDATALOAD CODESIZE CODESIZE CALLDATASIZE CALLER KECCAK256 ORIGIN ADDRESS CALLDATACOPY 0x2E CALLVALUE CODECOPY BALANCE ORIGIN ORIGIN CALLER CALLDATASIZE ADDRESS BALANCE CALLVALUE CALLDATALOAD ADDRESS BALANCE KECCAK256 GAS 0x22 KECCAK256 PUSH7 0x696C6C3D22626C PUSH2 0x636B 0x22 KECCAK256 PUSH20 0x74726F6B653D22626C61636B22207374726F6B65 0x2D PUSH24 0x696474683D2231222F3E0A3C7061746820643D224D203236 CALLVALUE 0x2E CALLDATASIZE CALLER CALLDATASIZE CALLDATASIZE CALLDATALOAD CALLVALUE CODECOPY ORIGIN CALLER CODECOPY ORIGIN CALLVALUE ORIGIN KECCAK256 CALLER ADDRESS CODESIZE 0x2E CODECOPY CODECOPY CALLVALUE BALANCE CALLVALUE CODECOPY ADDRESS CALLDATASIZE CALLDATACOPY CALLDATASIZE CALLER CALLER CALLVALUE KECCAK256 COINBASE KECCAK256 CALLER ORIGIN ADDRESS KECCAK256 CALLER ORIGIN ADDRESS KECCAK256 ADDRESS KECCAK256 ADDRESS KECCAK256 BALANCE KECCAK256 ORIGIN CODESIZE CALLDATALOAD 0x2E CALLDATACOPY ORIGIN CALLDATALOAD CODESIZE CALLER ADDRESS ADDRESS ORIGIN ADDRESS CALLER ADDRESS CALLVALUE CODESIZE CALLVALUE KECCAK256 ORIGIN CODESIZE CALLDATALOAD 0x2E CALLDATACOPY ORIGIN CALLDATALOAD CODESIZE CALLER ADDRESS ADDRESS ORIGIN ADDRESS CALLER ADDRESS CALLVALUE CALLDATACOPY KECCAK256 0x4C KECCAK256 ORIGIN ORIGIN CODECOPY 0x2E BALANCE CALLDATALOAD CALLDATACOPY ORIGIN CODESIZE CALLDATACOPY CALLDATALOAD ORIGIN CALLDATALOAD CALLER CODESIZE BALANCE ADDRESS CALLVALUE KECCAK256 ORIGIN ORIGIN CODECOPY 0x2E BALANCE CALLDATALOAD CALLDATACOPY ORIGIN CODESIZE CALLDATACOPY CALLDATALOAD ORIGIN CALLDATALOAD CALLER CODESIZE ADDRESS CODECOPY ORIGIN KECCAK256 COINBASE KECCAK256 CALLVALUE ADDRESS ADDRESS KECCAK256 CALLVALUE ADDRESS ADDRESS KECCAK256 ADDRESS KECCAK256 ADDRESS KECCAK256 ADDRESS KECCAK256 ORIGIN ADDRESS ORIGIN 0x2E CALLDATACOPY CODECOPY CALLDATALOAD CODESIZE BALANCE CODESIZE CALLDATASIZE CALLDATALOAD CALLVALUE CODECOPY ADDRESS CALLDATALOAD ORIGIN CALLDATALOAD KECCAK256 ORIGIN CALLDATALOAD CODESIZE 0x2E ORIGIN CALLVALUE ORIGIN CALLDATASIZE CODESIZE CALLDATASIZE CALLER CALLER CALLVALUE CALLDATALOAD CALLVALUE BALANCE CALLDATACOPY KECCAK256 GAS 0x22 KECCAK256 PUSH7 0x696C6C3D22626C PUSH2 0x636B 0x22 KECCAK256 PUSH20 0x74726F6B653D22626C61636B22207374726F6B65 0x2D PUSH24 0x696474683D2231222F3E0A3C7061746820643D224D203332 CALLDATASIZE 0x2E CALLVALUE CALLDATACOPY CALLDATACOPY CALLVALUE CODECOPY BALANCE BALANCE CODECOPY ORIGIN CODECOPY CALLVALUE CALLER BALANCE CALLDATALOAD KECCAK256 CALLER CALLDATALOAD CODECOPY 0x2E CALLDATACOPY CALLVALUE CALLDATALOAD CALLDATASIZE BALANCE BALANCE CODESIZE ADDRESS ADDRESS CALLDATACOPY ORIGIN CALLDATALOAD ADDRESS CALLVALUE KECCAK256 COINBASE KECCAK256 ORIGIN CALLVALUE ADDRESS KECCAK256 ORIGIN CALLVALUE ADDRESS KECCAK256 ADDRESS KECCAK256 ADDRESS KECCAK256 BALANCE KECCAK256 CALLER CALLVALUE ORIGIN 0x2E ORIGIN CODECOPY CALLVALUE CALLER CALLDATACOPY ORIGIN CALLDATALOAD BALANCE CALLDATALOAD ORIGIN ORIGIN CODESIZE CALLDATASIZE CALLVALUE KECCAK256 CALLER CALLVALUE ORIGIN 0x2E ORIGIN CODECOPY CALLVALUE CALLER CALLDATACOPY ORIGIN CALLDATALOAD BALANCE CALLDATALOAD ORIGIN ORIGIN CODESIZE CALLDATASIZE KECCAK256 0x4C KECCAK256 ORIGIN CODESIZE CALLDATALOAD 0x2E CALLDATACOPY ORIGIN CALLDATALOAD CODESIZE CALLER ADDRESS ADDRESS ORIGIN ADDRESS CALLER ADDRESS CALLVALUE CODESIZE CALLVALUE KECCAK256 ORIGIN CODESIZE CALLDATALOAD 0x2E CALLDATACOPY ORIGIN CALLDATALOAD CODESIZE CALLER ADDRESS ADDRESS ORIGIN ADDRESS CALLER ADDRESS CALLVALUE CALLDATACOPY KECCAK256 COINBASE KECCAK256 CALLER ORIGIN ADDRESS KECCAK256 CALLER ORIGIN ADDRESS KECCAK256 ADDRESS KECCAK256 ADDRESS KECCAK256 ADDRESS KECCAK256 ORIGIN CALLDATASIZE CALLVALUE 0x2E CALLDATASIZE CALLER CALLDATASIZE CALLDATASIZE CALLDATALOAD CALLVALUE CODECOPY ORIGIN CALLER CODECOPY ORIGIN CALLVALUE ORIGIN KECCAK256 CALLER ADDRESS CODESIZE 0x2E CODECOPY CODECOPY CALLVALUE BALANCE CALLVALUE CODECOPY ADDRESS CALLDATASIZE CALLDATACOPY CALLDATASIZE CALLER CALLER CALLVALUE KECCAK256 GAS 0x22 KECCAK256 PUSH7 0x696C6C3D22626C PUSH2 0x636B 0x22 KECCAK256 PUSH20 0x74726F6B653D22626C61636B22207374726F6B65 0x2D PUSH24 0x696474683D2231222F3E0A3C7061746820643D224D203338 CODESIZE 0x2E CALLER BALANCE CODESIZE CALLER ORIGIN CALLDATACOPY CALLVALUE CALLDATASIZE BALANCE CODECOPY CALLDATASIZE ORIGIN BALANCE KECCAK256 CALLVALUE BALANCE ADDRESS 0x2E CALLVALUE CODECOPY CALLDATACOPY ADDRESS CALLDATACOPY CALLVALUE CALLDATALOAD CALLER CALLER CODESIZE BALANCE CALLDATASIZE CALLDATASIZE CALLDATASIZE KECCAK256 COINBASE KECCAK256 BALANCE CALLDATASIZE ADDRESS KECCAK256 BALANCE CALLDATASIZE ADDRESS KECCAK256 ADDRESS KECCAK256 ADDRESS KECCAK256 BALANCE KECCAK256 CALLER CODECOPY CODESIZE 0x2E CODESIZE CALLDATASIZE ORIGIN CODECOPY BALANCE CALLDATALOAD ADDRESS BALANCE ADDRESS BALANCE CALLDATALOAD ORIGIN CALLVALUE KECCAK256 CALLER CODECOPY CODESIZE 0x2E CODESIZE CALLDATASIZE ORIGIN CODECOPY BALANCE CALLDATALOAD ADDRESS BALANCE ADDRESS BALANCE CALLDATALOAD ORIGIN CALLVALUE KECCAK256 0x4C KECCAK256 CALLER CALLVALUE ORIGIN 0x2E ORIGIN CODECOPY CALLVALUE CALLER CALLDATACOPY ORIGIN CALLDATALOAD BALANCE CALLDATALOAD ORIGIN ORIGIN CODESIZE CALLDATASIZE CALLVALUE KECCAK256 CALLER CALLVALUE ORIGIN 0x2E ORIGIN CODECOPY CALLVALUE CALLER CALLDATACOPY ORIGIN CALLDATALOAD BALANCE CALLDATALOAD ORIGIN ORIGIN CODESIZE CALLDATASIZE KECCAK256 COINBASE KECCAK256 ORIGIN CALLVALUE ADDRESS KECCAK256 ORIGIN CALLVALUE ADDRESS KECCAK256 ADDRESS KECCAK256 ADDRESS KECCAK256 ADDRESS KECCAK256 CALLER ORIGIN CALLDATASIZE 0x2E CALLVALUE CALLDATACOPY CALLDATACOPY CALLVALUE CODECOPY BALANCE BALANCE CODECOPY ORIGIN CODECOPY CALLVALUE CALLER BALANCE CALLDATALOAD KECCAK256 CALLER CALLDATALOAD CODECOPY 0x2E CALLDATACOPY CALLVALUE CALLDATALOAD CALLDATASIZE BALANCE BALANCE CODESIZE ADDRESS ADDRESS CALLDATACOPY ORIGIN CALLDATALOAD ADDRESS CALLVALUE KECCAK256 GAS 0x22 KECCAK256 PUSH7 0x696C6C3D22626C PUSH2 0x636B 0x22 KECCAK256 PUSH20 0x74726F6B653D22626C61636B22207374726F6B65 0x2D PUSH24 0x696474683D2231222F3E0A3C7061746820643D224D203232 CODECOPY 0x2E BALANCE CALLDATALOAD CALLDATACOPY ORIGIN CODESIZE CALLDATACOPY CALLDATALOAD ORIGIN CALLDATALOAD CALLER CODESIZE ADDRESS CODECOPY ORIGIN KECCAK256 ORIGIN ORIGIN CODECOPY 0x2E BALANCE CALLDATALOAD CALLDATACOPY ORIGIN CODESIZE CALLDATACOPY CALLDATALOAD ORIGIN CALLDATALOAD CALLER CODESIZE BALANCE ADDRESS CALLVALUE KECCAK256 COINBASE KECCAK256 CALLVALUE ADDRESS ADDRESS KECCAK256 CALLVALUE ADDRESS ADDRESS KECCAK256 ADDRESS KECCAK256 ADDRESS KECCAK256 BALANCE KECCAK256 ORIGIN CALLDATALOAD CODESIZE 0x2E ORIGIN CALLVALUE ORIGIN CALLDATASIZE CODESIZE CALLDATASIZE CALLER CALLER CALLVALUE CALLDATALOAD CALLVALUE BALANCE CALLDATASIZE CALLDATALOAD KECCAK256 ORIGIN ADDRESS ORIGIN 0x2E CALLDATACOPY CODECOPY CALLDATALOAD CODESIZE BALANCE CODESIZE CALLDATASIZE CALLDATALOAD CALLVALUE CODECOPY ADDRESS CALLDATALOAD CALLER CALLDATASIZE KECCAK256 0x4C KECCAK256 ORIGIN ADDRESS CALLDATACOPY 0x2E CALLVALUE CODECOPY BALANCE ORIGIN ORIGIN CALLER CALLDATASIZE ADDRESS BALANCE CALLVALUE CALLVALUE CODECOPY CODECOPY CALLDATACOPY KECCAK256 BALANCE CALLVALUE ADDRESS 0x2E CODECOPY CALLDATALOAD CALLVALUE CODECOPY CODESIZE ORIGIN CALLER CODESIZE CALLDATALOAD CODESIZE CODESIZE CALLDATASIZE CALLVALUE KECCAK256 COINBASE KECCAK256 CALLVALUE CODESIZE ADDRESS KECCAK256 CALLVALUE CODESIZE ADDRESS KECCAK256 ADDRESS KECCAK256 ADDRESS KECCAK256 ADDRESS KECCAK256 BALANCE CALLDATACOPY ORIGIN 0x2E CALLDATALOAD CODESIZE CODESIZE CALLDATACOPY CALLVALUE CALLDATALOAD ADDRESS CALLER ADDRESS CALLVALUE CALLDATALOAD CALLDATACOPY BALANCE ORIGIN KECCAK256 BALANCE CALLDATACOPY ORIGIN 0x2E CALLDATALOAD CODESIZE CODESIZE CALLDATACOPY CALLVALUE CALLDATALOAD ADDRESS CALLER ADDRESS CALLVALUE CALLDATALOAD CALLDATACOPY ORIGIN CALLER KECCAK256 GAS 0x22 KECCAK256 PUSH7 0x696C6C3D22626C PUSH2 0x636B 0x22 KECCAK256 PUSH20 0x74726F6B653D22626C61636B22207374726F6B65 0x2D PUSH24 0x696474683D2231222F3E0A3C7061746820643D224D203238 CALLDATALOAD 0x2E CALLDATACOPY ORIGIN CALLDATALOAD CODESIZE CALLER ADDRESS ADDRESS ORIGIN ADDRESS CALLER ADDRESS CALLVALUE CALLDATACOPY KECCAK256 ORIGIN CODESIZE CALLDATALOAD 0x2E CALLDATACOPY ORIGIN CALLDATALOAD CODESIZE CALLER ADDRESS ADDRESS ORIGIN ADDRESS CALLER ADDRESS CALLVALUE CODESIZE KECCAK256 COINBASE KECCAK256 CALLER ORIGIN ADDRESS KECCAK256 CALLER ORIGIN ADDRESS KECCAK256 ADDRESS KECCAK256 ADDRESS KECCAK256 BALANCE KECCAK256 CALLER ADDRESS CODESIZE 0x2E CODECOPY CODECOPY CALLVALUE BALANCE CALLVALUE CODECOPY ADDRESS CALLDATASIZE CALLDATACOPY CALLDATASIZE CALLER CALLER CALLER KECCAK256 ORIGIN CALLDATASIZE CALLVALUE 0x2E CALLDATASIZE CALLER CALLDATASIZE CALLDATASIZE CALLDATALOAD CALLVALUE CODECOPY ORIGIN CALLER CODECOPY ORIGIN CALLVALUE ORIGIN CALLDATALOAD KECCAK256 0x4C KECCAK256 ORIGIN CALLDATALOAD CODESIZE 0x2E ORIGIN CALLVALUE ORIGIN CALLDATASIZE CODESIZE CALLDATASIZE CALLER CALLER CALLVALUE CALLDATALOAD CALLVALUE BALANCE CALLDATASIZE CALLDATALOAD KECCAK256 ORIGIN ADDRESS ORIGIN 0x2E CALLDATACOPY CODECOPY CALLDATALOAD CODESIZE BALANCE CODESIZE CALLDATASIZE CALLDATALOAD CALLVALUE CODECOPY ADDRESS CALLDATALOAD CALLER CALLDATASIZE KECCAK256 COINBASE KECCAK256 CALLVALUE ADDRESS ADDRESS KECCAK256 CALLVALUE ADDRESS ADDRESS KECCAK256 ADDRESS KECCAK256 ADDRESS KECCAK256 ADDRESS KECCAK256 ORIGIN ORIGIN CODECOPY 0x2E BALANCE CALLDATALOAD CALLDATACOPY ORIGIN CODESIZE CALLDATACOPY CALLDATALOAD ORIGIN CALLDATALOAD CALLER CODESIZE ADDRESS CODECOPY ORIGIN KECCAK256 ORIGIN ORIGIN CODECOPY 0x2E BALANCE CALLDATALOAD CALLDATACOPY ORIGIN CODESIZE CALLDATACOPY CALLDATALOAD ORIGIN CALLDATALOAD CALLER CODESIZE BALANCE ADDRESS CALLVALUE KECCAK256 GAS 0x22 KECCAK256 PUSH7 0x696C6C3D22626C PUSH2 0x636B 0x22 KECCAK256 PUSH20 0x74726F6B653D22626C61636B22207374726F6B65 0x2D PUSH24 0x696474683D2231222F3E0A3C7061746820643D224D203334 ORIGIN 0x2E ORIGIN CODECOPY CALLVALUE CALLER CALLDATACOPY ORIGIN CALLDATALOAD BALANCE CALLDATALOAD ORIGIN ORIGIN CODESIZE CALLDATASIZE KECCAK256 CALLER CALLVALUE ORIGIN 0x2E ORIGIN CODECOPY CALLVALUE CALLER CALLDATACOPY ORIGIN CALLDATALOAD BALANCE CALLDATALOAD ORIGIN ORIGIN CODESIZE CALLDATASIZE KECCAK256 COINBASE KECCAK256 ORIGIN CALLVALUE ADDRESS KECCAK256 ORIGIN CALLVALUE ADDRESS KECCAK256 ADDRESS KECCAK256 ADDRESS KECCAK256 BALANCE KECCAK256 CALLER CALLDATALOAD CODECOPY 0x2E CALLDATACOPY CALLVALUE CALLDATALOAD CALLDATASIZE BALANCE BALANCE CODESIZE ADDRESS ADDRESS CALLDATACOPY ORIGIN CALLDATALOAD KECCAK256 CALLER ORIGIN CALLDATASIZE 0x2E CALLVALUE CALLDATACOPY CALLDATACOPY CALLVALUE CODECOPY BALANCE BALANCE CODECOPY ORIGIN CODECOPY CALLVALUE CALLER ORIGIN KECCAK256 0x4C KECCAK256 CALLER ADDRESS CODESIZE 0x2E CODECOPY CODECOPY CALLVALUE BALANCE CALLVALUE CODECOPY ADDRESS CALLDATASIZE CALLDATACOPY CALLDATASIZE CALLER CALLER CALLER KECCAK256 ORIGIN CALLDATASIZE CALLVALUE 0x2E CALLDATASIZE CALLER CALLDATASIZE CALLDATASIZE CALLDATALOAD CALLVALUE CODECOPY ORIGIN CALLER CODECOPY ORIGIN CALLVALUE ORIGIN CALLDATALOAD KECCAK256 COINBASE KECCAK256 CALLER ORIGIN ADDRESS KECCAK256 CALLER ORIGIN ADDRESS KECCAK256 ADDRESS KECCAK256 ADDRESS KECCAK256 ADDRESS KECCAK256 ORIGIN CODESIZE CALLDATALOAD 0x2E CALLDATACOPY ORIGIN CALLDATALOAD CODESIZE CALLER ADDRESS ADDRESS ORIGIN ADDRESS CALLER ADDRESS CALLVALUE CALLDATACOPY KECCAK256 ORIGIN CODESIZE CALLDATALOAD 0x2E CALLDATACOPY ORIGIN CALLDATALOAD CODESIZE CALLER ADDRESS ADDRESS ORIGIN ADDRESS CALLER ADDRESS CALLVALUE CODESIZE KECCAK256 GAS 0x22 KECCAK256 PUSH7 0x696C6C3D22626C PUSH2 0x636B 0x22 KECCAK256 PUSH20 0x74726F6B653D22626C61636B22207374726F6B65 0x2D PUSH24 0x696474683D2231222F3E0A3C7061746820643D224D203339 CODESIZE 0x2E CODESIZE CALLDATASIZE ORIGIN CODECOPY BALANCE CALLDATALOAD ADDRESS BALANCE ADDRESS BALANCE CALLDATALOAD ORIGIN CALLVALUE KECCAK256 CALLER CODECOPY CODESIZE 0x2E CODESIZE CALLDATASIZE ORIGIN CODECOPY BALANCE CALLDATALOAD ADDRESS BALANCE ADDRESS BALANCE CALLDATALOAD ORIGIN CALLVALUE KECCAK256 COINBASE KECCAK256 BALANCE CALLDATASIZE ADDRESS KECCAK256 BALANCE CALLDATASIZE ADDRESS KECCAK256 ADDRESS KECCAK256 ADDRESS KECCAK256 BALANCE KECCAK256 CALLVALUE BALANCE ADDRESS 0x2E CALLVALUE CODECOPY CALLDATACOPY ADDRESS CALLDATACOPY CALLVALUE CALLDATALOAD CALLER CALLER CODESIZE BALANCE CALLDATASIZE CALLDATASIZE CALLDATASIZE KECCAK256 CALLER CODESIZE CODESIZE 0x2E CALLER BALANCE CODESIZE CALLER ORIGIN CALLDATACOPY CALLVALUE CALLDATASIZE BALANCE CODECOPY CALLDATASIZE ORIGIN BALANCE KECCAK256 0x4C KECCAK256 CALLER CALLDATALOAD CODECOPY 0x2E CALLDATACOPY CALLVALUE CALLDATALOAD CALLDATASIZE BALANCE BALANCE CODESIZE ADDRESS ADDRESS CALLDATACOPY ORIGIN CALLDATALOAD KECCAK256 CALLER ORIGIN CALLDATASIZE 0x2E CALLVALUE CALLDATACOPY CALLDATACOPY CALLVALUE CODECOPY BALANCE BALANCE CODECOPY ORIGIN CODECOPY CALLVALUE CALLER ORIGIN KECCAK256 COINBASE KECCAK256 ORIGIN CALLVALUE ADDRESS KECCAK256 ORIGIN CALLVALUE ADDRESS KECCAK256 ADDRESS KECCAK256 ADDRESS KECCAK256 ADDRESS KECCAK256 CALLER CALLVALUE ORIGIN 0x2E ORIGIN CODECOPY CALLVALUE CALLER CALLDATACOPY ORIGIN CALLDATALOAD BALANCE CALLDATALOAD ORIGIN ORIGIN CODESIZE CALLDATASIZE KECCAK256 CALLER CALLVALUE ORIGIN 0x2E ORIGIN CODECOPY CALLVALUE CALLER CALLDATACOPY ORIGIN CALLDATALOAD BALANCE CALLDATALOAD ORIGIN ORIGIN CODESIZE CALLDATASIZE KECCAK256 GAS 0x22 KECCAK256 PUSH7 0x696C6C3D22626C PUSH2 0x636B 0x22 KECCAK256 PUSH20 0x74726F6B653D22626C61636B22207374726F6B65 0x2D PUSH24 0x696474683D2231222F3E0A3C7061746820643D224D203235 CODESIZE 0x2E ORIGIN CALLVALUE ORIGIN CALLDATASIZE CODESIZE CALLDATASIZE CALLER CALLER CALLVALUE CALLDATALOAD CALLVALUE BALANCE CALLDATASIZE CALLDATALOAD KECCAK256 ORIGIN ADDRESS ORIGIN 0x2E CALLDATACOPY CODECOPY CALLDATALOAD CODESIZE BALANCE CODESIZE CALLDATASIZE CALLDATALOAD CALLVALUE CODECOPY ADDRESS CALLDATALOAD CALLER CALLDATASIZE KECCAK256 COINBASE KECCAK256 CALLVALUE ADDRESS ADDRESS KECCAK256 CALLVALUE ADDRESS ADDRESS KECCAK256 ADDRESS KECCAK256 ADDRESS KECCAK256 BALANCE KECCAK256 ORIGIN CODESIZE CODECOPY 0x2E CALLDATACOPY CALLDATACOPY BALANCE CODECOPY ADDRESS CALLDATASIZE CALLDATACOPY CODECOPY ORIGIN BALANCE CALLDATALOAD CODESIZE CODESIZE KECCAK256 BALANCE CALLDATACOPY CODECOPY 0x2E CALLVALUE BALANCE ORIGIN BALANCE CALLDATALOAD CALLDATALOAD ADDRESS CALLDATACOPY CODESIZE CODECOPY CODESIZE ORIGIN BALANCE CALLDATALOAD KECCAK256 0x4C KECCAK256 ORIGIN CALLVALUE CALLDATALOAD 0x2E CALLER ORIGIN CALLDATASIZE ORIGIN CODESIZE CODESIZE BALANCE CALLDATALOAD ADDRESS CALLDATALOAD CODECOPY ADDRESS CALLDATALOAD CODECOPY KECCAK256 BALANCE BALANCE ORIGIN 0x2E CODESIZE CODECOPY CALLVALUE CALLDATALOAD CODESIZE CALLDATASIZE ADDRESS CODECOPY CALLVALUE CALLDATACOPY CALLDATACOPY CODESIZE CALLDATALOAD CALLDATASIZE KECCAK256 COINBASE KECCAK256 CALLVALUE CODESIZE ADDRESS KECCAK256 CALLVALUE CODESIZE ADDRESS KECCAK256 ADDRESS KECCAK256 ADDRESS KECCAK256 ADDRESS KECCAK256 ORIGIN ADDRESS CALLDATACOPY 0x2E CALLVALUE CODECOPY BALANCE ORIGIN ORIGIN CALLER CALLDATASIZE ADDRESS BALANCE CALLVALUE CALLVALUE CODECOPY CODECOPY CALLDATACOPY KECCAK256 BALANCE CALLVALUE ADDRESS 0x2E CODECOPY CALLDATALOAD CALLVALUE CODECOPY CODESIZE ORIGIN CALLER CODESIZE CALLDATALOAD CODESIZE CODESIZE CALLDATASIZE CALLVALUE KECCAK256 GAS 0x22 KECCAK256 PUSH7 0x696C6C3D22626C PUSH2 0x636B 0x22 KECCAK256 PUSH20 0x74726F6B653D22626C61636B22207374726F6B65 0x2D PUSH24 0x696474683D2231222F3E0A3C7061746820643D224D203330 CODESIZE 0x2E CODECOPY CODECOPY CALLVALUE BALANCE CALLVALUE CODECOPY ADDRESS CALLDATASIZE CALLDATACOPY CALLDATASIZE CALLER CALLER CALLER KECCAK256 ORIGIN CALLDATASIZE CALLVALUE 0x2E CALLDATASIZE CALLER CALLDATASIZE CALLDATASIZE CALLDATALOAD CALLVALUE CODECOPY ORIGIN CALLER CODECOPY ORIGIN CALLVALUE ORIGIN CALLDATALOAD KECCAK256 COINBASE KECCAK256 CALLER ORIGIN ADDRESS KECCAK256 CALLER ORIGIN ADDRESS KECCAK256 ADDRESS KECCAK256 ADDRESS KECCAK256 BALANCE KECCAK256 CALLER CALLER CALLVALUE 0x2E ORIGIN BALANCE CALLDATACOPY CALLDATALOAD ORIGIN CALLDATALOAD CALLVALUE CALLER CALLER CALLDATACOPY ORIGIN CALLDATACOPY KECCAK256 ORIGIN CALLVALUE CALLDATALOAD 0x2E CODECOPY ORIGIN CODECOPY CALLDATACOPY ORIGIN CALLVALUE ADDRESS CALLDATASIZE CALLER BALANCE CODESIZE CALLDATALOAD CALLDATACOPY KECCAK256 0x4C KECCAK256 ORIGIN CODESIZE CODECOPY 0x2E CALLDATACOPY CALLDATACOPY BALANCE CODECOPY ADDRESS CALLDATASIZE CALLDATACOPY CODECOPY ORIGIN BALANCE CALLDATALOAD CODESIZE CODESIZE KECCAK256 BALANCE CALLDATACOPY CODECOPY 0x2E CALLVALUE BALANCE ORIGIN BALANCE CALLDATALOAD CALLDATALOAD ADDRESS CALLDATACOPY CODESIZE CODECOPY CODESIZE ORIGIN BALANCE CALLDATALOAD KECCAK256 COINBASE KECCAK256 CALLVALUE ADDRESS ADDRESS KECCAK256 CALLVALUE ADDRESS ADDRESS KECCAK256 ADDRESS KECCAK256 ADDRESS KECCAK256 ADDRESS KECCAK256 ORIGIN CALLDATALOAD CODESIZE 0x2E ORIGIN CALLVALUE ORIGIN CALLDATASIZE CODESIZE CALLDATASIZE CALLER CALLER CALLVALUE CALLDATALOAD CALLVALUE BALANCE CALLDATASIZE CALLDATALOAD KECCAK256 ORIGIN ADDRESS ORIGIN 0x2E CALLDATACOPY CODECOPY CALLDATALOAD CODESIZE BALANCE CODESIZE CALLDATASIZE CALLDATALOAD CALLVALUE CODECOPY ADDRESS CALLDATALOAD CALLER CALLDATASIZE KECCAK256 GAS 0x22 KECCAK256 PUSH7 0x696C6C3D22626C PUSH2 0x636B 0x22 KECCAK256 PUSH20 0x74726F6B653D22626C61636B22207374726F6B65 0x2D PUSH24 0x696474683D2231222F3E0A3C7061746820643D224D203335 CODECOPY 0x2E CALLDATACOPY CALLVALUE CALLDATALOAD CALLDATASIZE BALANCE BALANCE CODESIZE ADDRESS ADDRESS CALLDATACOPY ORIGIN CALLDATALOAD KECCAK256 CALLER ORIGIN CALLDATASIZE 0x2E CALLVALUE CALLDATACOPY CALLDATACOPY CALLVALUE CODECOPY BALANCE BALANCE CODECOPY ORIGIN CODECOPY CALLVALUE CALLER ORIGIN KECCAK256 COINBASE KECCAK256 ORIGIN CALLVALUE ADDRESS KECCAK256 ORIGIN CALLVALUE ADDRESS KECCAK256 ADDRESS KECCAK256 ADDRESS KECCAK256 BALANCE KECCAK256 CALLER CALLDATACOPY CODESIZE 0x2E CALLDATASIZE CALLDATASIZE CALLER BALANCE CALLVALUE CALLVALUE ADDRESS CALLDATACOPY CALLDATALOAD ORIGIN CODECOPY CALLDATALOAD CALLER KECCAK256 CALLER BALANCE ORIGIN 0x2E CALLVALUE CALLVALUE CALLDATACOPY ORIGIN CODECOPY CALLER ADDRESS CALLVALUE CALLDATACOPY CALLER CODESIZE CODECOPY CALLER KECCAK256 0x4C KECCAK256 CALLER CALLER CALLVALUE 0x2E ORIGIN BALANCE CALLDATACOPY CALLDATALOAD ORIGIN CALLDATALOAD CALLVALUE CALLER CALLER CALLDATACOPY ORIGIN CALLDATACOPY KECCAK256 ORIGIN CALLVALUE CALLDATALOAD 0x2E CODECOPY ORIGIN CODECOPY CALLDATACOPY ORIGIN CALLVALUE ADDRESS CALLDATASIZE CALLER BALANCE CODESIZE CALLDATALOAD CALLDATACOPY KECCAK256 COINBASE KECCAK256 CALLER ORIGIN ADDRESS KECCAK256 CALLER ORIGIN ADDRESS KECCAK256 ADDRESS KECCAK256 ADDRESS KECCAK256 ADDRESS KECCAK256 CALLER ADDRESS CODESIZE 0x2E CODECOPY CODECOPY CALLVALUE BALANCE CALLVALUE CODECOPY ADDRESS CALLDATASIZE CALLDATACOPY CALLDATASIZE CALLER CALLER CALLER KECCAK256 ORIGIN CALLDATASIZE CALLVALUE 0x2E CALLDATASIZE CALLER CALLDATASIZE CALLDATASIZE CALLDATALOAD CALLVALUE CODECOPY ORIGIN CALLER CODECOPY ORIGIN CALLVALUE ORIGIN CALLDATALOAD KECCAK256 GAS 0x22 KECCAK256 PUSH7 0x696C6C3D22626C PUSH2 0x636B 0x22 KECCAK256 PUSH20 0x74726F6B653D22626C61636B22207374726F6B65 0x2D PUSH24 0x696474683D2231222F3E0A3C7061746820643D224D203431 ADDRESS 0x2E CALLVALUE CODECOPY CALLDATACOPY ADDRESS CALLDATACOPY CALLVALUE CALLDATALOAD CALLER CALLER CODESIZE BALANCE CALLDATASIZE CALLDATASIZE CALLDATASIZE KECCAK256 CALLER CODESIZE CODESIZE 0x2E CALLER BALANCE CODESIZE CALLER ORIGIN CALLDATACOPY CALLVALUE CALLDATASIZE BALANCE CODECOPY CALLDATASIZE ORIGIN BALANCE KECCAK256 COINBASE KECCAK256 BALANCE CALLDATASIZE ADDRESS KECCAK256 BALANCE CALLDATASIZE ADDRESS KECCAK256 ADDRESS KECCAK256 ADDRESS KECCAK256 BALANCE KECCAK256 CALLVALUE ORIGIN CALLER 0x2E BALANCE ADDRESS CODESIZE CALLDATACOPY CALLDATASIZE ORIGIN CALLDATACOPY BALANCE CALLDATASIZE CODESIZE CALLDATASIZE CALLER CALLDATALOAD KECCAK256 CALLER CALLDATACOPY CODESIZE 0x2E CODECOPY CALLDATASIZE CALLVALUE CODESIZE CALLDATASIZE ORIGIN ADDRESS CALLER BALANCE CALLDATALOAD CODECOPY ORIGIN CODESIZE KECCAK256 0x4C KECCAK256 CALLER CALLDATACOPY CODESIZE 0x2E CALLDATASIZE CALLDATASIZE CALLER BALANCE CALLVALUE CALLVALUE ADDRESS CALLDATACOPY CALLDATALOAD ORIGIN CODECOPY CALLDATALOAD CALLER KECCAK256 CALLER BALANCE ORIGIN 0x2E CALLVALUE CALLVALUE CALLDATACOPY ORIGIN CODECOPY CALLER ADDRESS CALLVALUE CALLDATACOPY CALLER CODESIZE CODECOPY CALLER KECCAK256 COINBASE KECCAK256 ORIGIN CALLVALUE ADDRESS KECCAK256 ORIGIN CALLVALUE ADDRESS KECCAK256 ADDRESS KECCAK256 ADDRESS KECCAK256 ADDRESS KECCAK256 CALLER CALLDATALOAD CODECOPY 0x2E CALLDATACOPY CALLVALUE CALLDATALOAD CALLDATASIZE BALANCE BALANCE CODESIZE ADDRESS ADDRESS CALLDATACOPY ORIGIN CALLDATALOAD KECCAK256 CALLER ORIGIN CALLDATASIZE 0x2E CALLVALUE CALLDATACOPY CALLDATACOPY CALLVALUE CODECOPY BALANCE BALANCE CODECOPY ORIGIN CODECOPY CALLVALUE CALLER ORIGIN KECCAK256 GAS 0x22 KECCAK256 PUSH7 0x696C6C3D22626C PUSH2 0x636B 0x22 KECCAK256 PUSH20 0x74726F6B653D22626C61636B22207374726F6B65 0x2D PUSH24 0x696474683D2231222F3E0A3C7061746820643D224D203238 CODECOPY 0x2E CALLDATACOPY CALLDATACOPY BALANCE CODECOPY ADDRESS CALLDATASIZE CALLDATACOPY CODECOPY ORIGIN BALANCE CALLDATALOAD CODECOPY BALANCE CALLVALUE KECCAK256 BALANCE CALLDATACOPY CODECOPY 0x2E CALLVALUE BALANCE ORIGIN BALANCE CALLDATALOAD CALLDATALOAD ADDRESS CALLDATACOPY CODESIZE CODECOPY CODESIZE BALANCE CODECOPY CALLER KECCAK256 COINBASE KECCAK256 CALLVALUE ADDRESS ADDRESS KECCAK256 CALLVALUE ADDRESS ADDRESS KECCAK256 ADDRESS KECCAK256 ADDRESS KECCAK256 BALANCE KECCAK256 CALLER ORIGIN CALLER 0x2E CALLVALUE CALLVALUE BALANCE CALLER ADDRESS CALLDATALOAD ORIGIN CALLDATASIZE CODECOPY CALLDATASIZE ADDRESS ADDRESS CODECOPY KECCAK256 BALANCE CALLDATALOAD CODECOPY 0x2E ORIGIN CALLER BALANCE CALLVALUE CODECOPY CALLVALUE ORIGIN CALLDATASIZE ADDRESS CALLDATASIZE CALLDATALOAD CODESIZE KECCAK256 0x4C KECCAK256 ORIGIN CODESIZE CALLDATALOAD 0x2E CALLDATACOPY ORIGIN CODECOPY CALLDATALOAD CALLDATASIZE CALLDATASIZE CALLER ORIGIN CALLER CALLDATALOAD ORIGIN BALANCE KECCAK256 CODESIZE CODESIZE 0x2E CALLDATASIZE CALLDATACOPY CALLDATACOPY CALLDATACOPY CODECOPY CALLER BALANCE BALANCE ORIGIN CALLDATACOPY CODESIZE CODECOPY CALLDATASIZE CALLER KECCAK256 COINBASE KECCAK256 CALLVALUE CODESIZE ADDRESS KECCAK256 CALLVALUE CODESIZE ADDRESS KECCAK256 ADDRESS KECCAK256 ADDRESS KECCAK256 ADDRESS KECCAK256 ORIGIN CALLVALUE CALLDATALOAD 0x2E CALLER ORIGIN CALLDATASIZE ORIGIN CODESIZE CODESIZE BALANCE CALLDATALOAD ADDRESS CALLDATALOAD CODECOPY ADDRESS CODECOPY CALLER KECCAK256 BALANCE BALANCE ORIGIN 0x2E CODESIZE CODECOPY CALLVALUE CALLDATALOAD CODESIZE CALLDATASIZE ADDRESS CODECOPY CALLVALUE CALLDATACOPY CALLDATACOPY CODESIZE ORIGIN CODESIZE KECCAK256 GAS 0x22 KECCAK256 PUSH7 0x696C6C3D22626C PUSH2 0x636B 0x22 KECCAK256 PUSH20 0x74726F6B653D22626C61636B22207374726F6B65 0x2D PUSH24 0x696474683D2231222F3E0A3C7061746820643D224D203333 CALLVALUE 0x2E ORIGIN BALANCE CALLDATACOPY CALLDATALOAD ORIGIN CALLDATALOAD CALLVALUE CALLER CALLER CALLDATACOPY ORIGIN CALLDATACOPY CALLER KECCAK256 ORIGIN CALLVALUE CALLDATALOAD 0x2E CODECOPY ORIGIN CODECOPY CALLDATACOPY ORIGIN CALLVALUE ADDRESS CALLDATASIZE CALLER BALANCE CODESIZE CALLDATALOAD CALLDATALOAD ORIGIN KECCAK256 COINBASE KECCAK256 CALLER ORIGIN ADDRESS KECCAK256 CALLER ORIGIN ADDRESS KECCAK256 ADDRESS KECCAK256 ADDRESS KECCAK256 BALANCE KECCAK256 CALLER CALLDATASIZE BALANCE 0x2E BALANCE CALLDATALOAD CALLER ADDRESS CALLVALUE CALLVALUE ORIGIN BALANCE CALLDATALOAD CALLDATASIZE CODESIZE ADDRESS CALLDATASIZE CALLDATACOPY KECCAK256 ORIGIN ORIGIN CODECOPY 0x2E CALLDATACOPY CODESIZE CALLDATALOAD BALANCE CODECOPY CALLDATALOAD CALLVALUE ADDRESS CODESIZE CALLDATALOAD ORIGIN CALLDATASIZE CALLVALUE ORIGIN KECCAK256 0x4C KECCAK256 CALLER ORIGIN CALLER 0x2E CALLVALUE CALLVALUE BALANCE CALLER ADDRESS CALLDATALOAD ORIGIN CALLDATASIZE CODECOPY CALLDATASIZE ADDRESS ADDRESS CODECOPY KECCAK256 BALANCE CALLDATALOAD CODECOPY 0x2E ORIGIN CALLER BALANCE CALLVALUE CODECOPY CALLVALUE ORIGIN CALLDATASIZE ADDRESS CALLDATASIZE CALLDATALOAD CODESIZE KECCAK256 COINBASE KECCAK256 CALLVALUE ADDRESS ADDRESS KECCAK256 CALLVALUE ADDRESS ADDRESS KECCAK256 ADDRESS KECCAK256 ADDRESS KECCAK256 ADDRESS KECCAK256 ORIGIN CODESIZE CODECOPY 0x2E CALLDATACOPY CALLDATACOPY BALANCE CODECOPY ADDRESS CALLDATASIZE CALLDATACOPY CODECOPY ORIGIN BALANCE CALLDATALOAD CODECOPY BALANCE CALLVALUE KECCAK256 BALANCE CALLDATACOPY CODECOPY 0x2E CALLVALUE BALANCE ORIGIN BALANCE CALLDATALOAD CALLDATALOAD ADDRESS CALLDATACOPY CODESIZE CODECOPY CODESIZE BALANCE CODECOPY CALLER KECCAK256 GAS 0x22 KECCAK256 PUSH7 0x696C6C3D22626C PUSH2 0x636B 0x22 KECCAK256 PUSH20 0x74726F6B653D22626C61636B22207374726F6B65 0x2D PUSH24 0x696474683D2231222F3E0A3C7061746820643D224D203337 CODESIZE 0x2E CALLDATASIZE CALLDATASIZE CALLER BALANCE CALLVALUE CALLVALUE ADDRESS CALLDATACOPY CALLDATALOAD ORIGIN CODECOPY CALLDATALOAD CALLVALUE CALLDATASIZE KECCAK256 CALLER BALANCE ORIGIN 0x2E CALLVALUE CALLVALUE CALLDATACOPY ORIGIN CODECOPY CALLER ADDRESS CALLVALUE CALLDATACOPY CALLER CODESIZE CODECOPY BALANCE CALLDATACOPY KECCAK256 COINBASE KECCAK256 ORIGIN CALLVALUE ADDRESS KECCAK256 ORIGIN CALLVALUE ADDRESS KECCAK256 ADDRESS KECCAK256 ADDRESS KECCAK256 BALANCE KECCAK256 CALLER CODECOPY CODESIZE 0x2E CODESIZE CALLDATASIZE CALLVALUE CALLDATACOPY CODESIZE CALLER BALANCE CALLDATASIZE BALANCE CALLDATACOPY CALLDATASIZE ADDRESS CALLDATALOAD KECCAK256 CALLER ADDRESS ADDRESS 0x2E CALLER CALLER CODESIZE CODESIZE CODECOPY CALLDATASIZE CALLDATALOAD CALLDATALOAD CALLDATASIZE CALLER CODECOPY CALLVALUE CODESIZE CALLVALUE KECCAK256 0x4C KECCAK256 CALLER CALLDATASIZE BALANCE 0x2E BALANCE CALLDATALOAD CALLER ADDRESS CALLVALUE CALLVALUE ORIGIN BALANCE CALLDATALOAD CALLDATASIZE CODESIZE ADDRESS CALLDATASIZE CALLDATACOPY KECCAK256 ORIGIN ORIGIN CODECOPY 0x2E CALLDATACOPY CODESIZE CALLDATALOAD BALANCE CODECOPY CALLDATALOAD CALLVALUE ADDRESS CODESIZE CALLDATALOAD ORIGIN CALLDATASIZE CALLVALUE ORIGIN KECCAK256 COINBASE KECCAK256 CALLER ORIGIN ADDRESS KECCAK256 CALLER ORIGIN ADDRESS KECCAK256 ADDRESS KECCAK256 ADDRESS KECCAK256 ADDRESS KECCAK256 CALLER CALLER CALLVALUE 0x2E ORIGIN BALANCE CALLDATACOPY CALLDATALOAD ORIGIN CALLDATALOAD CALLVALUE CALLER CALLER CALLDATACOPY ORIGIN CALLDATACOPY CALLER KECCAK256 ORIGIN CALLVALUE CALLDATALOAD 0x2E CODECOPY ORIGIN CODECOPY CALLDATACOPY ORIGIN CALLVALUE ADDRESS CALLDATASIZE CALLER BALANCE CODESIZE CALLDATALOAD CALLDATALOAD ORIGIN KECCAK256 GAS 0x22 KECCAK256 PUSH7 0x696C6C3D22626C PUSH2 0x636B 0x22 KECCAK256 PUSH20 0x74726F6B653D22626C61636B22207374726F6B65 0x2D PUSH24 0x696474683D2231222F3E0A3C7061746820643D224D203432 CALLER 0x2E BALANCE ADDRESS CODESIZE CALLDATACOPY CALLDATASIZE ORIGIN CALLDATACOPY BALANCE CALLDATASIZE CODESIZE CALLDATASIZE CALLER CALLDATACOPY KECCAK256 CALLER CALLDATACOPY CODESIZE 0x2E CODECOPY CALLDATASIZE CALLVALUE CODESIZE CALLDATASIZE ORIGIN ADDRESS CALLER BALANCE CALLDATALOAD CODECOPY ORIGIN CALLDATACOPY CALLDATASIZE KECCAK256 COINBASE KECCAK256 BALANCE CALLDATASIZE ADDRESS KECCAK256 BALANCE CALLDATASIZE ADDRESS KECCAK256 ADDRESS KECCAK256 ADDRESS KECCAK256 BALANCE KECCAK256 CALLVALUE CALLER CALLDATASIZE 0x2E CALLDATALOAD CALLDATACOPY CALLDATASIZE CALLDATALOAD ORIGIN ORIGIN BALANCE ADDRESS CALLDATACOPY CODESIZE CALLVALUE ADDRESS CALLER CALLER KECCAK256 CALLER CALLDATACOPY ADDRESS 0x2E CODESIZE CODECOPY ORIGIN CALLDATALOAD CODECOPY CALLDATACOPY CALLDATACOPY ADDRESS CALLVALUE ORIGIN CALLDATASIZE CALLER ORIGIN KECCAK256 0x4C KECCAK256 CALLER CODECOPY CODESIZE 0x2E CODESIZE CALLDATASIZE CALLVALUE CALLDATACOPY CODESIZE CALLER BALANCE CALLDATASIZE BALANCE CALLDATACOPY CALLDATASIZE ADDRESS CALLDATALOAD KECCAK256 CALLER ADDRESS ADDRESS 0x2E CALLER CALLER CODESIZE CODESIZE CODECOPY CALLDATASIZE CALLDATALOAD CALLDATALOAD CALLDATASIZE CALLER CODECOPY CALLVALUE CODESIZE CALLVALUE KECCAK256 COINBASE KECCAK256 ORIGIN CALLVALUE ADDRESS KECCAK256 ORIGIN CALLVALUE ADDRESS KECCAK256 ADDRESS KECCAK256 ADDRESS KECCAK256 ADDRESS KECCAK256 CALLER CALLDATACOPY CODESIZE 0x2E CALLDATASIZE CALLDATASIZE CALLER BALANCE CALLVALUE CALLVALUE ADDRESS CALLDATACOPY CALLDATALOAD ORIGIN CODECOPY CALLDATALOAD CALLVALUE CALLDATASIZE KECCAK256 CALLER BALANCE ORIGIN 0x2E CALLVALUE CALLVALUE CALLDATACOPY ORIGIN CODECOPY CALLER ADDRESS CALLVALUE CALLDATACOPY CALLER CODESIZE CODECOPY BALANCE CALLDATACOPY KECCAK256 GAS 0x22 KECCAK256 PUSH7 0x696C6C3D22626C PUSH2 0x636B 0x22 KECCAK256 PUSH20 0x74726F6B653D22626C61636B22207374726F6B65 0x2D PUSH24 0x696474683D2231222F3E0A3C7061746820643D224D203332 CALLER 0x2E CALLVALUE CALLVALUE BALANCE CALLER ADDRESS CALLDATALOAD ORIGIN CALLDATASIZE CODECOPY CALLDATASIZE ADDRESS ADDRESS CODECOPY KECCAK256 BALANCE CALLDATALOAD CODECOPY 0x2E ORIGIN CALLER BALANCE CALLVALUE CODECOPY CALLVALUE ORIGIN CALLDATASIZE ADDRESS CALLDATASIZE CALLDATALOAD CODESIZE KECCAK256 COINBASE KECCAK256 CALLVALUE ADDRESS ADDRESS KECCAK256 CALLVALUE ADDRESS ADDRESS KECCAK256 ADDRESS KECCAK256 ADDRESS KECCAK256 BALANCE KECCAK256 CALLER CALLDATALOAD CODESIZE 0x2E CODECOPY ORIGIN CALLDATASIZE CALLDATASIZE ORIGIN CALLDATACOPY ADDRESS CALLDATALOAD CALLER CODECOPY CALLDATASIZE CALLER CODECOPY KECCAK256 BALANCE CALLVALUE ORIGIN 0x2E CALLVALUE CALLVALUE CODESIZE BALANCE CODESIZE CALLDATASIZE CODECOPY CODECOPY CALLDATALOAD CALLVALUE CODESIZE CALLDATALOAD CALLVALUE KECCAK256 0x4C KECCAK256 CALLER ORIGIN CODESIZE 0x2E CALLER BALANCE BALANCE CODECOPY CALLDATALOAD ORIGIN CALLVALUE CALLDATASIZE CALLVALUE CALLDATACOPY CALLDATALOAD CALLDATASIZE CALLDATASIZE CALLVALUE KECCAK256 CALLDATASIZE CODESIZE 0x2E CALLDATALOAD CALLER CALLDATACOPY CODESIZE ORIGIN CALLVALUE CALLER CODECOPY CALLVALUE CALLDATALOAD CODESIZE ORIGIN CALLVALUE CALLDATASIZE KECCAK256 COINBASE KECCAK256 CALLVALUE CODESIZE ADDRESS KECCAK256 CALLVALUE CODESIZE ADDRESS KECCAK256 ADDRESS KECCAK256 ADDRESS KECCAK256 ADDRESS KECCAK256 ORIGIN CODESIZE CALLDATALOAD 0x2E CALLDATACOPY ORIGIN CODECOPY CALLDATALOAD CALLDATASIZE CALLDATASIZE CALLER ORIGIN CALLER CALLDATALOAD ORIGIN BALANCE KECCAK256 CODESIZE CODESIZE 0x2E CALLDATASIZE CALLDATACOPY CALLDATACOPY CALLDATACOPY CODECOPY CALLER BALANCE BALANCE ORIGIN CALLDATACOPY CODESIZE CODECOPY CALLDATASIZE CALLER KECCAK256 GAS 0x22 KECCAK256 PUSH7 0x696C6C3D22626C PUSH2 0x636B 0x22 KECCAK256 PUSH20 0x74726F6B653D22626C61636B22207374726F6B65 0x2D PUSH24 0x696474683D2231222F3E0A3C7061746820643D224D203336 BALANCE 0x2E BALANCE CALLDATALOAD CALLER ADDRESS CALLVALUE CALLVALUE ORIGIN BALANCE CALLDATALOAD CALLDATASIZE CODESIZE ADDRESS CALLDATASIZE CALLDATACOPY KECCAK256 ORIGIN ORIGIN CODECOPY 0x2E CALLDATACOPY CODESIZE CALLDATALOAD BALANCE CODECOPY CALLDATALOAD CALLVALUE ADDRESS CODESIZE CALLDATALOAD ORIGIN CALLDATASIZE CALLVALUE ORIGIN KECCAK256 COINBASE KECCAK256 CALLER ORIGIN ADDRESS KECCAK256 CALLER ORIGIN ADDRESS KECCAK256 ADDRESS KECCAK256 ADDRESS KECCAK256 BALANCE KECCAK256 CALLER CODESIZE CODECOPY 0x2E CALLDATALOAD CALLVALUE BALANCE CALLER ADDRESS BALANCE CALLDATASIZE CALLVALUE CALLER BALANCE CALLDATACOPY BALANCE BALANCE KECCAK256 ORIGIN BALANCE CALLDATASIZE 0x2E CALLER CALLDATALOAD CODESIZE CALLDATALOAD CALLVALUE CODECOPY CALLDATALOAD CODECOPY CALLDATASIZE CALLER CODESIZE CODESIZE CALLER CALLVALUE KECCAK256 0x4C KECCAK256 CALLER CALLDATALOAD CODESIZE 0x2E CODECOPY ORIGIN CALLDATASIZE CALLDATASIZE ORIGIN CALLDATACOPY ADDRESS CALLDATALOAD CALLER CODECOPY CALLDATASIZE CALLER CODECOPY KECCAK256 BALANCE CALLVALUE ORIGIN 0x2E CALLVALUE CALLVALUE CODESIZE BALANCE CODESIZE CALLDATASIZE CODECOPY CODECOPY CALLDATALOAD CALLVALUE CODESIZE CALLDATALOAD CALLVALUE KECCAK256 COINBASE KECCAK256 CALLVALUE ADDRESS ADDRESS KECCAK256 CALLVALUE ADDRESS ADDRESS KECCAK256 ADDRESS KECCAK256 ADDRESS KECCAK256 ADDRESS KECCAK256 CALLER ORIGIN CALLER 0x2E CALLVALUE CALLVALUE BALANCE CALLER ADDRESS CALLDATALOAD ORIGIN CALLDATASIZE CODECOPY CALLDATASIZE ADDRESS ADDRESS CODECOPY KECCAK256 BALANCE CALLDATALOAD CODECOPY 0x2E ORIGIN CALLER BALANCE CALLVALUE CODECOPY CALLVALUE ORIGIN CALLDATASIZE ADDRESS CALLDATASIZE CALLDATALOAD CODESIZE KECCAK256 GAS 0x22 KECCAK256 PUSH7 0x696C6C3D22626C PUSH2 0x636B 0x22 KECCAK256 PUSH20 0x74726F6B653D22626C61636B22207374726F6B65 0x2D PUSH24 0x696474683D2231222F3E0A3C7061746820643D224D203339 CODESIZE 0x2E CODESIZE CALLDATASIZE CALLVALUE CALLDATACOPY CODESIZE CALLER BALANCE CALLDATASIZE BALANCE CALLDATACOPY CALLDATASIZE ADDRESS CALLDATALOAD KECCAK256 CALLER ADDRESS ADDRESS 0x2E CALLER CALLER CODESIZE CODESIZE CODECOPY CALLDATASIZE CALLDATALOAD CALLDATALOAD CALLDATASIZE CALLER CODECOPY CALLVALUE CODESIZE CALLVALUE KECCAK256 COINBASE KECCAK256 ORIGIN CALLVALUE ADDRESS KECCAK256 ORIGIN CALLVALUE ADDRESS KECCAK256 ADDRESS KECCAK256 ADDRESS KECCAK256 BALANCE KECCAK256 CALLVALUE ORIGIN ADDRESS 0x2E BALANCE CALLDATALOAD CALLDATALOAD CODECOPY CALLDATACOPY CALLDATASIZE ORIGIN CALLER ORIGIN CALLER CALLDATACOPY CODESIZE CALLER KECCAK256 ORIGIN CODECOPY ADDRESS 0x2E ORIGIN CALLDATASIZE CODESIZE CODECOPY BALANCE ORIGIN BALANCE CODECOPY CALLDATACOPY ORIGIN CODECOPY BALANCE ORIGIN CALLER KECCAK256 0x4C KECCAK256 CALLER CODESIZE CODECOPY 0x2E CALLDATALOAD CALLVALUE BALANCE CALLER ADDRESS BALANCE CALLDATASIZE CALLVALUE CALLER BALANCE CALLDATACOPY BALANCE BALANCE KECCAK256 ORIGIN BALANCE CALLDATASIZE 0x2E CALLER CALLDATALOAD CODESIZE CALLDATALOAD CALLVALUE CODECOPY CALLDATALOAD CODECOPY CALLDATASIZE CALLER CODESIZE CODESIZE CALLER CALLVALUE KECCAK256 COINBASE KECCAK256 CALLER ORIGIN ADDRESS KECCAK256 CALLER ORIGIN ADDRESS KECCAK256 ADDRESS KECCAK256 ADDRESS KECCAK256 ADDRESS KECCAK256 CALLER CALLDATASIZE BALANCE 0x2E BALANCE CALLDATALOAD CALLER ADDRESS CALLVALUE CALLVALUE ORIGIN BALANCE CALLDATALOAD CALLDATASIZE CODESIZE ADDRESS CALLDATASIZE CALLDATACOPY KECCAK256 ORIGIN ORIGIN CODECOPY 0x2E CALLDATACOPY CODESIZE CALLDATALOAD BALANCE CODECOPY CALLDATALOAD CALLVALUE ADDRESS CODESIZE CALLDATALOAD ORIGIN CALLDATASIZE CALLVALUE ORIGIN KECCAK256 GAS 0x22 KECCAK256 PUSH7 0x696C6C3D22626C PUSH2 0x636B 0x22 KECCAK256 PUSH20 0x74726F6B653D22626C61636B22207374726F6B65 0x2D PUSH24 0x696474683D2231222F3E0A3C7061746820643D224D203433 CALLDATASIZE 0x2E CALLDATALOAD CALLDATACOPY CALLDATASIZE CALLDATALOAD ORIGIN ORIGIN BALANCE ADDRESS CALLDATACOPY CODESIZE CALLVALUE ADDRESS CALLER CALLER KECCAK256 CALLER CALLDATACOPY ADDRESS 0x2E CODESIZE CODECOPY ORIGIN CALLDATALOAD CODECOPY CALLDATACOPY CALLDATACOPY ADDRESS CALLVALUE ORIGIN CALLDATASIZE CALLER ORIGIN KECCAK256 COINBASE KECCAK256 BALANCE CALLDATASIZE ADDRESS KECCAK256 BALANCE CALLDATASIZE ADDRESS KECCAK256 ADDRESS KECCAK256 ADDRESS KECCAK256 BALANCE KECCAK256 CALLVALUE CALLDATALOAD ADDRESS 0x2E CALLDATACOPY CALLDATACOPY ADDRESS CALLDATASIZE CALLDATALOAD ADDRESS CODESIZE ORIGIN BALANCE CALLDATALOAD CODESIZE CALLDATALOAD CALLDATALOAD CALLDATALOAD KECCAK256 CALLER CALLDATASIZE CALLVALUE 0x2E BALANCE CALLDATACOPY CODECOPY ORIGIN CALLDATACOPY CALLVALUE CALLDATACOPY CODECOPY CODESIZE BALANCE CODECOPY CALLVALUE ORIGIN KECCAK256 0x4C KECCAK256 CALLVALUE ORIGIN ADDRESS 0x2E BALANCE CALLDATALOAD CALLDATALOAD CODECOPY CALLDATACOPY CALLDATASIZE ORIGIN CALLER ORIGIN CALLER CALLDATACOPY CODESIZE CALLER KECCAK256 ORIGIN CODECOPY ADDRESS 0x2E ORIGIN CALLDATASIZE CODESIZE CODECOPY BALANCE ORIGIN BALANCE CODECOPY CALLDATACOPY ORIGIN CODECOPY BALANCE ORIGIN CALLER KECCAK256 COINBASE KECCAK256 ORIGIN CALLVALUE ADDRESS KECCAK256 ORIGIN CALLVALUE ADDRESS KECCAK256 ADDRESS KECCAK256 ADDRESS KECCAK256 ADDRESS KECCAK256 CALLER CODECOPY CODESIZE 0x2E CODESIZE CALLDATASIZE CALLVALUE CALLDATACOPY CODESIZE CALLER BALANCE CALLDATASIZE BALANCE CALLDATACOPY CALLDATASIZE ADDRESS CALLDATALOAD KECCAK256 CALLER ADDRESS ADDRESS 0x2E CALLER CALLER CODESIZE CODESIZE CODECOPY CALLDATASIZE CALLDATALOAD CALLDATALOAD CALLDATASIZE CALLER CODECOPY CALLVALUE CODESIZE CALLVALUE KECCAK256 GAS 0x22 KECCAK256 PUSH7 0x696C6C3D22626C PUSH2 0x636B 0x22 KECCAK256 PUSH20 0x74726F6B653D22626C61636B22207374726F6B65 0x2D PUSH24 0x696474683D2231222F3E0A3C7061746820643D224D203335 CODESIZE 0x2E CODECOPY ORIGIN CALLDATASIZE CALLDATASIZE ORIGIN CALLDATACOPY ADDRESS CALLDATALOAD CALLER CODECOPY CALLDATASIZE CALLER CODECOPY KECCAK256 BALANCE CALLVALUE ORIGIN 0x2E CALLVALUE CALLVALUE CODESIZE BALANCE CODESIZE CALLDATASIZE CODECOPY CODECOPY CALLDATALOAD CALLVALUE CODESIZE CALLDATALOAD CALLVALUE KECCAK256 COINBASE KECCAK256 CALLVALUE ADDRESS ADDRESS KECCAK256 CALLVALUE ADDRESS ADDRESS KECCAK256 ADDRESS KECCAK256 ADDRESS KECCAK256 BALANCE KECCAK256 CALLER CODECOPY CALLDATALOAD 0x2E CODESIZE CODESIZE CALLDATASIZE BALANCE ORIGIN CODECOPY ADDRESS CODECOPY CODESIZE ORIGIN BALANCE CALLVALUE CALLDATACOPY KECCAK256 BALANCE ORIGIN CODECOPY 0x2E ORIGIN ORIGIN CALLER CODESIZE CALLDATASIZE CALLDATALOAD CALLDATACOPY ADDRESS CALLDATACOPY BALANCE BALANCE CALLDATASIZE CALLDATALOAD CALLVALUE KECCAK256 0x4C KECCAK256 CALLER CALLDATACOPY ORIGIN 0x2E CALLDATASIZE CALLDATASIZE CALLER CALLER CALLDATALOAD CALLVALUE CODECOPY BALANCE CALLDATACOPY CODESIZE CALLDATALOAD CALLDATACOPY CALLDATASIZE CALLDATALOAD KECCAK256 CALLDATALOAD ORIGIN 0x2E CALLDATASIZE CALLDATASIZE CODESIZE CALLDATASIZE CALLER CODESIZE CODESIZE CALLVALUE CODESIZE CALLDATALOAD CALLER CODECOPY CODECOPY KECCAK256 COINBASE KECCAK256 CALLVALUE CODESIZE ADDRESS KECCAK256 CALLVALUE CODESIZE ADDRESS KECCAK256 ADDRESS KECCAK256 ADDRESS KECCAK256 ADDRESS KECCAK256 CALLER ORIGIN CODESIZE 0x2E CALLER BALANCE BALANCE CODECOPY CALLDATALOAD ORIGIN CALLVALUE CALLDATASIZE CALLVALUE CALLDATACOPY CALLDATALOAD CALLDATASIZE CALLDATASIZE CALLVALUE KECCAK256 CALLDATASIZE CODESIZE 0x2E CALLDATALOAD CALLER CALLDATACOPY CODESIZE ORIGIN CALLVALUE CALLER CODECOPY CALLVALUE CALLDATALOAD CODESIZE ORIGIN CALLVALUE CALLDATASIZE KECCAK256 GAS 0x22 KECCAK256 PUSH7 0x696C6C3D22626C PUSH2 0x636B 0x22 KECCAK256 PUSH20 0x74726F6B653D22626C61636B22207374726F6B65 0x2D PUSH24 0x696474683D2231222F3E0A3C7061746820643D224D203338 CODECOPY 0x2E CALLDATALOAD CALLVALUE BALANCE CALLER ADDRESS BALANCE CALLDATASIZE CALLVALUE CALLER BALANCE CALLDATACOPY BALANCE BALANCE KECCAK256 ORIGIN BALANCE CALLDATASIZE 0x2E CALLER CALLDATALOAD CODESIZE CALLDATALOAD CALLVALUE CODECOPY CALLDATALOAD CODECOPY CALLDATASIZE CALLER CODESIZE CODESIZE CALLER CALLVALUE KECCAK256 COINBASE KECCAK256 CALLER ORIGIN ADDRESS KECCAK256 CALLER ORIGIN ADDRESS KECCAK256 ADDRESS KECCAK256 ADDRESS KECCAK256 BALANCE KECCAK256 CALLVALUE BALANCE CODECOPY 0x2E BALANCE ADDRESS CODESIZE CODECOPY ADDRESS CALLER ORIGIN CALLDATACOPY CODESIZE CALLDATALOAD CALLDATACOPY BALANCE CALLDATACOPY CALLVALUE KECCAK256 ORIGIN ADDRESS CALLDATALOAD 0x2E CALLDATACOPY CALLDATACOPY CODECOPY ADDRESS CODECOPY ORIGIN CALLDATALOAD CALLDATASIZE CALLDATALOAD CALLDATASIZE CODECOPY CALLER ORIGIN CALLDATALOAD KECCAK256 0x4C KECCAK256 CALLER CODECOPY CALLDATALOAD 0x2E CODESIZE CODESIZE CALLDATASIZE BALANCE ORIGIN CODECOPY ADDRESS CODECOPY CODESIZE ORIGIN BALANCE CALLVALUE CALLDATACOPY KECCAK256 BALANCE ORIGIN CODECOPY 0x2E ORIGIN ORIGIN CALLER CODESIZE CALLDATASIZE CALLDATALOAD CALLDATACOPY ADDRESS CALLDATACOPY BALANCE BALANCE CALLDATASIZE CALLDATALOAD CALLVALUE KECCAK256 COINBASE KECCAK256 CALLVALUE ADDRESS ADDRESS KECCAK256 CALLVALUE ADDRESS ADDRESS KECCAK256 ADDRESS KECCAK256 ADDRESS KECCAK256 ADDRESS KECCAK256 CALLER CALLDATALOAD CODESIZE 0x2E CODECOPY ORIGIN CALLDATASIZE CALLDATASIZE ORIGIN CALLDATACOPY ADDRESS CALLDATALOAD CALLER CODECOPY CALLDATASIZE CALLER CODECOPY KECCAK256 BALANCE CALLVALUE ORIGIN 0x2E CALLVALUE CALLVALUE CODESIZE BALANCE CODESIZE CALLDATASIZE CODECOPY CODECOPY CALLDATALOAD CALLVALUE CODESIZE CALLDATALOAD CALLVALUE KECCAK256 GAS 0x22 KECCAK256 PUSH7 0x696C6C3D22626C PUSH2 0x636B 0x22 KECCAK256 PUSH20 0x74726F6B653D22626C61636B22207374726F6B65 0x2D PUSH24 0x696474683D2231222F3E0A3C7061746820643D224D203432 ADDRESS 0x2E BALANCE CALLDATALOAD CALLDATALOAD CODECOPY CALLDATACOPY CALLDATASIZE ORIGIN CALLER ORIGIN CALLER CALLDATACOPY CODESIZE CALLER KECCAK256 ORIGIN CODECOPY ADDRESS 0x2E ORIGIN CALLDATASIZE CODESIZE CODECOPY BALANCE ORIGIN BALANCE CODECOPY CALLDATACOPY ORIGIN CODECOPY BALANCE ORIGIN CALLER KECCAK256 COINBASE KECCAK256 ORIGIN CALLVALUE ADDRESS KECCAK256 ORIGIN CALLVALUE ADDRESS KECCAK256 ADDRESS KECCAK256 ADDRESS KECCAK256 BALANCE KECCAK256 CALLVALUE CALLVALUE ORIGIN 0x2E CALLER CALLER BALANCE CALLDATASIZE CALLDATACOPY CALLDATACOPY CALLVALUE CALLDATALOAD CODESIZE CODECOPY ORIGIN CODESIZE CODESIZE KECCAK256 ORIGIN CODESIZE ORIGIN 0x2E CALLER CALLER CALLVALUE CALLER BALANCE CODECOPY CALLVALUE ORIGIN CALLVALUE ORIGIN CALLDATASIZE CODECOPY CODECOPY CALLDATALOAD KECCAK256 0x4C KECCAK256 CALLVALUE BALANCE CODECOPY 0x2E BALANCE ADDRESS CODESIZE CODECOPY ADDRESS CALLER ORIGIN CALLDATACOPY CODESIZE CALLDATALOAD CALLDATACOPY BALANCE CALLDATACOPY CALLVALUE KECCAK256 ORIGIN ADDRESS CALLDATALOAD 0x2E CALLDATACOPY CALLDATACOPY CODECOPY ADDRESS CODECOPY ORIGIN CALLDATALOAD CALLDATASIZE CALLDATALOAD CALLDATASIZE CODECOPY CALLER ORIGIN CALLDATALOAD KECCAK256 COINBASE KECCAK256 CALLER ORIGIN ADDRESS KECCAK256 CALLER ORIGIN ADDRESS KECCAK256 ADDRESS KECCAK256 ADDRESS KECCAK256 ADDRESS KECCAK256 CALLER CODESIZE CODECOPY 0x2E CALLDATALOAD CALLVALUE BALANCE CALLER ADDRESS BALANCE CALLDATASIZE CALLVALUE CALLER BALANCE CALLDATACOPY BALANCE BALANCE KECCAK256 ORIGIN BALANCE CALLDATASIZE 0x2E CALLER CALLDATALOAD CODESIZE CALLDATALOAD CALLVALUE CODECOPY CALLDATALOAD CODECOPY CALLDATASIZE CALLER CODESIZE CODESIZE CALLER CALLVALUE KECCAK256 GAS 0x22 KECCAK256 PUSH7 0x696C6C3D22626C PUSH2 0x636B 0x22 KECCAK256 PUSH20 0x74726F6B653D22626C61636B22207374726F6B65 0x2D PUSH24 0x696474683D2231222F3E0A3C7061746820643D224D203435 ADDRESS 0x2E CALLDATACOPY CALLDATACOPY ADDRESS CALLDATASIZE CALLDATALOAD ADDRESS CODESIZE ORIGIN BALANCE CALLDATALOAD CODESIZE CALLDATALOAD CALLDATALOAD CALLDATALOAD KECCAK256 CALLER CALLDATASIZE CALLVALUE 0x2E BALANCE CALLDATACOPY CODECOPY ORIGIN CALLDATACOPY CALLVALUE CALLDATACOPY CODECOPY CODESIZE BALANCE CODECOPY CALLVALUE ORIGIN KECCAK256 COINBASE KECCAK256 BALANCE CALLDATASIZE ADDRESS KECCAK256 BALANCE CALLDATASIZE ADDRESS KECCAK256 ADDRESS KECCAK256 ADDRESS KECCAK256 BALANCE KECCAK256 CALLVALUE CALLDATASIZE CALLDATALOAD 0x2E CALLDATALOAD CALLDATALOAD CALLVALUE CALLVALUE CALLDATALOAD BALANCE CALLDATASIZE CALLER CODECOPY ORIGIN CODESIZE CALLDATALOAD CODESIZE CALLVALUE KECCAK256 CALLER CALLDATALOAD CODESIZE 0x2E CODESIZE CODESIZE CODECOPY CALLDATALOAD CALLVALUE CALLDATASIZE ORIGIN CODESIZE ORIGIN CODESIZE CALLVALUE CALLDATASIZE CALLDATASIZE KECCAK256 0x4C KECCAK256 CALLVALUE CALLVALUE ORIGIN 0x2E CALLER CALLER BALANCE CALLDATASIZE CALLDATACOPY CALLDATACOPY CALLVALUE CALLDATALOAD CODESIZE CODECOPY ORIGIN CODESIZE CODESIZE KECCAK256 ORIGIN CODESIZE ORIGIN 0x2E CALLER CALLER CALLVALUE CALLER BALANCE CODECOPY CALLVALUE ORIGIN CALLVALUE ORIGIN CALLDATASIZE CODECOPY CODECOPY CALLDATALOAD KECCAK256 COINBASE KECCAK256 ORIGIN CALLVALUE ADDRESS KECCAK256 ORIGIN CALLVALUE ADDRESS KECCAK256 ADDRESS KECCAK256 ADDRESS KECCAK256 ADDRESS KECCAK256 CALLVALUE ORIGIN ADDRESS 0x2E BALANCE CALLDATALOAD CALLDATALOAD CODECOPY CALLDATACOPY CALLDATASIZE ORIGIN CALLER ORIGIN CALLER CALLDATACOPY CODESIZE CALLER KECCAK256 ORIGIN CODECOPY ADDRESS 0x2E ORIGIN CALLDATASIZE CODESIZE CODECOPY BALANCE ORIGIN BALANCE CODECOPY CALLDATACOPY ORIGIN CODECOPY BALANCE ORIGIN CALLER KECCAK256 GAS 0x22 KECCAK256 PUSH7 0x696C6C3D22626C PUSH2 0x636B 0x22 KECCAK256 PUSH20 0x74726F6B653D22626C61636B22207374726F6B65 0x2D PUSH24 0x696474683D2231222F3E0A3C7061746820643D224D203339 CALLDATALOAD 0x2E CODESIZE CODESIZE CALLDATASIZE BALANCE ORIGIN CODECOPY ADDRESS CODECOPY CODESIZE ORIGIN BALANCE CALLDATALOAD ADDRESS CALLDATASIZE KECCAK256 BALANCE ORIGIN CODECOPY 0x2E ORIGIN ORIGIN CALLER CODESIZE CALLDATASIZE CALLDATALOAD CALLDATACOPY ADDRESS CALLDATACOPY BALANCE BALANCE CALLDATASIZE CALLDATALOAD KECCAK256 COINBASE KECCAK256 CALLVALUE ADDRESS ADDRESS KECCAK256 CALLVALUE ADDRESS ADDRESS KECCAK256 ADDRESS KECCAK256 ADDRESS KECCAK256 BALANCE KECCAK256 CALLVALUE CALLER CALLER 0x2E CODECOPY CALLDATASIZE CALLER CODESIZE CALLDATACOPY BALANCE BALANCE CODECOPY CALLER CALLDATALOAD CALLVALUE CODESIZE CALLDATALOAD KECCAK256 BALANCE BALANCE CODECOPY 0x2E CALLDATASIZE CODESIZE CALLDATALOAD CODESIZE CODESIZE CALLDATACOPY CODESIZE CALLER CODESIZE CALLDATACOPY ADDRESS CALLDATACOPY CODESIZE CALLDATASIZE KECCAK256 0x4C KECCAK256 CALLVALUE BALANCE CODESIZE 0x2E CALLER CALLDATALOAD CALLDATASIZE CALLDATASIZE CALLVALUE CALLDATALOAD CALLVALUE CALLER ORIGIN ORIGIN CALLDATALOAD CODESIZE ORIGIN CALLER KECCAK256 CALLVALUE BALANCE 0x2E ORIGIN ORIGIN CALLER ADDRESS CALLDATASIZE CALLDATALOAD CALLVALUE ADDRESS CALLDATASIZE CALLVALUE CALLVALUE CODECOPY CALLVALUE CALLDATALOAD KECCAK256 COINBASE KECCAK256 CALLVALUE CODESIZE ADDRESS KECCAK256 CALLVALUE CODESIZE ADDRESS KECCAK256 ADDRESS KECCAK256 ADDRESS KECCAK256 ADDRESS KECCAK256 CALLER CALLDATACOPY ORIGIN 0x2E CALLDATASIZE CALLDATASIZE CALLER CALLER CALLDATALOAD CALLVALUE CODECOPY BALANCE CALLDATACOPY CODESIZE CALLDATALOAD CODESIZE ADDRESS CALLVALUE KECCAK256 CALLDATALOAD ORIGIN 0x2E CALLDATASIZE CALLDATASIZE CODESIZE CALLDATASIZE CALLER CODESIZE CODESIZE CALLVALUE CODESIZE CALLDATALOAD CALLER CODECOPY CALLDATACOPY CODESIZE CALLDATASIZE KECCAK256 GAS 0x22 KECCAK256 PUSH7 0x696C6C3D22626C PUSH2 0x636B 0x22 KECCAK256 PUSH20 0x74726F6B653D22626C61636B22207374726F6B65 0x2D PUSH24 0x696474683D2231222F3E0A3C7061746820643D224D203431 CODECOPY 0x2E BALANCE ADDRESS CODESIZE CODECOPY ADDRESS CALLER ORIGIN CALLDATACOPY CODESIZE CALLDATALOAD CALLDATACOPY ORIGIN ADDRESS CALLER KECCAK256 ORIGIN ADDRESS CALLDATALOAD 0x2E CALLDATACOPY CALLDATACOPY CODECOPY ADDRESS CODECOPY ORIGIN CALLDATALOAD CALLDATASIZE CALLDATALOAD CALLDATASIZE CODECOPY CALLER ORIGIN KECCAK256 COINBASE KECCAK256 CALLER ORIGIN ADDRESS KECCAK256 CALLER ORIGIN ADDRESS KECCAK256 ADDRESS KECCAK256 ADDRESS KECCAK256 BALANCE KECCAK256 CALLVALUE CALLVALUE CODECOPY 0x2E CALLDATALOAD CALLDATACOPY BALANCE ADDRESS CODECOPY CALLDATASIZE CODECOPY CALLDATALOAD CALLVALUE CODESIZE CALLER CODESIZE CODESIZE KECCAK256 BALANCE CODECOPY CODESIZE 0x2E BALANCE CALLVALUE CODESIZE CALLDATACOPY BALANCE ADDRESS ORIGIN CALLDATACOPY ADDRESS CODECOPY CALLDATASIZE CALLDATASIZE CALLER ORIGIN KECCAK256 0x4C KECCAK256 CALLVALUE CALLER CALLER 0x2E CODECOPY CALLDATASIZE CALLER CODESIZE CALLDATACOPY BALANCE BALANCE CODECOPY CALLER CALLDATALOAD CALLVALUE CODESIZE CALLDATALOAD KECCAK256 BALANCE BALANCE CODECOPY 0x2E CALLDATASIZE CODESIZE CALLDATALOAD CODESIZE CODESIZE CALLDATACOPY CODESIZE CALLER CODESIZE CALLDATACOPY ADDRESS CALLDATACOPY CODESIZE CALLDATASIZE KECCAK256 COINBASE KECCAK256 CALLVALUE ADDRESS ADDRESS KECCAK256 CALLVALUE ADDRESS ADDRESS KECCAK256 ADDRESS KECCAK256 ADDRESS KECCAK256 ADDRESS KECCAK256 CALLER CODECOPY CALLDATALOAD 0x2E CODESIZE CODESIZE CALLDATASIZE BALANCE ORIGIN CODECOPY ADDRESS CODECOPY CODESIZE ORIGIN BALANCE CALLDATALOAD ADDRESS CALLDATASIZE KECCAK256 BALANCE ORIGIN CODECOPY 0x2E ORIGIN ORIGIN CALLER CODESIZE CALLDATASIZE CALLDATALOAD CALLDATACOPY ADDRESS CALLDATACOPY BALANCE BALANCE CALLDATASIZE CALLDATALOAD KECCAK256 GAS 0x22 KECCAK256 PUSH7 0x696C6C3D22626C PUSH2 0x636B 0x22 KECCAK256 PUSH20 0x74726F6B653D22626C61636B22207374726F6B65 0x2D PUSH24 0x696474683D2231222F3E0A3C7061746820643D224D203434 ORIGIN 0x2E CALLER CALLER BALANCE CALLDATASIZE CALLDATACOPY CALLDATACOPY CALLVALUE CALLDATALOAD CODESIZE CODECOPY ORIGIN CODECOPY KECCAK256 ORIGIN CODESIZE ORIGIN 0x2E CALLER CALLER CALLVALUE CALLER BALANCE CODECOPY CALLVALUE ORIGIN CALLVALUE ORIGIN CALLDATASIZE CODECOPY CODECOPY KECCAK256 COINBASE KECCAK256 ORIGIN CALLVALUE ADDRESS KECCAK256 ORIGIN CALLVALUE ADDRESS KECCAK256 ADDRESS KECCAK256 ADDRESS KECCAK256 BALANCE KECCAK256 CALLVALUE CALLDATASIZE CALLDATALOAD 0x2E BALANCE CALLDATACOPY CODESIZE CALLER ORIGIN ORIGIN CALLDATACOPY BALANCE CALLDATASIZE BALANCE ORIGIN CODECOPY BALANCE KECCAK256 ORIGIN CALLDATACOPY CALLDATASIZE 0x2E CALLDATASIZE BALANCE BALANCE CALLDATALOAD CALLER ORIGIN CALLDATACOPY ADDRESS CALLER ORIGIN ORIGIN CALLVALUE CALLDATACOPY KECCAK256 0x4C KECCAK256 CALLVALUE CALLVALUE CODECOPY 0x2E CALLDATALOAD CALLDATACOPY BALANCE ADDRESS CODECOPY CALLDATASIZE CODECOPY CALLDATALOAD CALLVALUE CODESIZE CALLER CODESIZE CODESIZE KECCAK256 BALANCE CODECOPY CODESIZE 0x2E BALANCE CALLVALUE CODESIZE CALLDATACOPY BALANCE ADDRESS ORIGIN CALLDATACOPY ADDRESS CODECOPY CALLDATASIZE CALLDATASIZE CALLER ORIGIN KECCAK256 COINBASE KECCAK256 CALLER ORIGIN ADDRESS KECCAK256 CALLER ORIGIN ADDRESS KECCAK256 ADDRESS KECCAK256 ADDRESS KECCAK256 ADDRESS KECCAK256 CALLVALUE BALANCE CODECOPY 0x2E BALANCE ADDRESS CODESIZE CODECOPY ADDRESS CALLER ORIGIN CALLDATACOPY CODESIZE CALLDATALOAD CALLDATACOPY ORIGIN ADDRESS CALLER KECCAK256 ORIGIN ADDRESS CALLDATALOAD 0x2E CALLDATACOPY CALLDATACOPY CODECOPY ADDRESS CODECOPY ORIGIN CALLDATALOAD CALLDATASIZE CALLDATALOAD CALLDATASIZE CODECOPY CALLER ORIGIN KECCAK256 GAS 0x22 KECCAK256 PUSH7 0x696C6C3D22626C PUSH2 0x636B 0x22 KECCAK256 PUSH20 0x74726F6B653D22626C61636B22207374726F6B65 0x2D PUSH24 0x696474683D2231222F3E0A3C7061746820643D224D203436 CALLDATALOAD 0x2E CALLDATALOAD CALLDATALOAD CALLVALUE CALLVALUE CALLDATALOAD BALANCE CALLDATASIZE CALLER CODECOPY ORIGIN CODESIZE CALLDATASIZE KECCAK256 CALLER CALLDATALOAD CODESIZE 0x2E CODESIZE CODESIZE CODECOPY CALLDATALOAD CALLVALUE CALLDATASIZE ORIGIN CODESIZE ORIGIN CODESIZE CALLVALUE CALLDATASIZE CALLDATASIZE KECCAK256 COINBASE KECCAK256 BALANCE CALLDATASIZE ADDRESS KECCAK256 BALANCE CALLDATASIZE ADDRESS KECCAK256 ADDRESS KECCAK256 ADDRESS KECCAK256 BALANCE KECCAK256 CALLVALUE CODESIZE ADDRESS 0x2E CALLDATACOPY CODESIZE CALLDATALOAD CALLDATALOAD CALLVALUE CODESIZE CALLVALUE CALLDATACOPY CALLDATACOPY CALLVALUE BALANCE CODECOPY CALLVALUE KECCAK256 CALLER CALLDATALOAD CALLDATALOAD 0x2E ADDRESS CALLDATACOPY CALLVALUE CALLER CALLDATALOAD CALLDATALOAD BALANCE CALLER CALLDATALOAD CALLVALUE CODESIZE CALLER ORIGIN KECCAK256 0x4C KECCAK256 CALLVALUE CALLDATASIZE CALLDATALOAD 0x2E BALANCE CALLDATACOPY CODESIZE CALLER ORIGIN ORIGIN CALLDATACOPY BALANCE CALLDATASIZE BALANCE ORIGIN CODECOPY BALANCE KECCAK256 ORIGIN CALLDATACOPY CALLDATASIZE 0x2E CALLDATASIZE BALANCE BALANCE CALLDATALOAD CALLER ORIGIN CALLDATACOPY ADDRESS CALLER ORIGIN ORIGIN CALLVALUE CALLDATACOPY KECCAK256 COINBASE KECCAK256 ORIGIN CALLVALUE ADDRESS KECCAK256 ORIGIN CALLVALUE ADDRESS KECCAK256 ADDRESS KECCAK256 ADDRESS KECCAK256 ADDRESS KECCAK256 CALLVALUE CALLVALUE ORIGIN 0x2E CALLER CALLER BALANCE CALLDATASIZE CALLDATACOPY CALLDATACOPY CALLVALUE CALLDATALOAD CODESIZE CODECOPY ORIGIN CODECOPY KECCAK256 ORIGIN CODESIZE ORIGIN 0x2E CALLER CALLER CALLVALUE CALLER BALANCE CODECOPY CALLVALUE ORIGIN CALLVALUE ORIGIN CALLDATASIZE CODECOPY CODECOPY KECCAK256 GAS 0x22 KECCAK256 PUSH7 0x696C6C3D22626C PUSH2 0x636B 0x22 KECCAK256 PUSH20 0x74726F6B653D22626C61636B22207374726F6B65 0x2D PUSH24 0x696474683D2231222F3E0A3C7061746820643D224D203433 CALLER 0x2E CODECOPY CALLDATASIZE CALLER CODESIZE CALLDATACOPY BALANCE BALANCE CODECOPY CALLER CALLDATALOAD CALLVALUE CODESIZE CALLDATALOAD KECCAK256 BALANCE BALANCE CODECOPY 0x2E CALLDATASIZE CODESIZE CALLDATALOAD CODESIZE CODESIZE CALLDATACOPY CODESIZE CALLER CODESIZE CALLDATACOPY ADDRESS CALLDATACOPY CODESIZE CALLDATASIZE KECCAK256 COINBASE KECCAK256 CALLVALUE ADDRESS ADDRESS KECCAK256 CALLVALUE ADDRESS ADDRESS KECCAK256 ADDRESS KECCAK256 ADDRESS KECCAK256 BALANCE KECCAK256 CALLVALUE CALLDATACOPY ORIGIN 0x2E CALLDATACOPY CODECOPY CALLER BALANCE CALLVALUE CALLER CODESIZE CALLDATASIZE CODESIZE BALANCE CALLDATACOPY CALLDATALOAD CALLDATALOAD KECCAK256 BALANCE BALANCE CALLER 0x2E CODECOPY ORIGIN CALLDATASIZE BALANCE ADDRESS CODECOPY CALLER CALLER BALANCE BALANCE ORIGIN BALANCE ORIGIN CALLDATACOPY KECCAK256 0x4C KECCAK256 CALLVALUE CALLDATASIZE CALLVALUE 0x2E CODECOPY CALLDATALOAD BALANCE CALLDATACOPY CALLDATACOPY ORIGIN CALLDATASIZE CALLVALUE BALANCE CODESIZE BALANCE ADDRESS CALLDATASIZE KECCAK256 CALLER CALLVALUE 0x2E CALLER BALANCE BALANCE CALLER CALLER BALANCE BALANCE CODECOPY CALLDATACOPY CALLER CALLVALUE CALLDATALOAD CALLDATALOAD BALANCE KECCAK256 COINBASE KECCAK256 CALLVALUE CODESIZE ADDRESS KECCAK256 CALLVALUE CODESIZE ADDRESS KECCAK256 ADDRESS KECCAK256 ADDRESS KECCAK256 ADDRESS KECCAK256 CALLVALUE BALANCE CODESIZE 0x2E CALLER CALLDATALOAD CALLDATASIZE CALLDATASIZE CALLVALUE CALLDATALOAD CALLVALUE CALLER ORIGIN ORIGIN CALLDATALOAD CODESIZE ORIGIN CALLER KECCAK256 CALLVALUE BALANCE 0x2E ORIGIN ORIGIN CALLER ADDRESS CALLDATASIZE CALLDATALOAD CALLVALUE ADDRESS CALLDATASIZE CALLVALUE CALLVALUE CODECOPY CALLVALUE CALLDATALOAD KECCAK256 GAS 0x22 KECCAK256 PUSH7 0x696C6C3D22626C PUSH2 0x636B 0x22 KECCAK256 PUSH20 0x74726F6B653D22626C61636B22207374726F6B65 0x2D PUSH24 0x696474683D2231222F3E0A3C7061746820643D224D203434 CODECOPY 0x2E CALLDATALOAD CALLDATACOPY BALANCE ADDRESS CODECOPY CALLDATASIZE CODECOPY CALLDATALOAD CALLVALUE CODESIZE CALLER CODESIZE CODESIZE KECCAK256 BALANCE CODECOPY CODESIZE 0x2E BALANCE CALLVALUE CODESIZE CALLDATACOPY BALANCE ADDRESS ORIGIN CALLDATACOPY ADDRESS CODECOPY CALLDATASIZE CALLDATASIZE CALLER ORIGIN KECCAK256 COINBASE KECCAK256 CALLER ORIGIN ADDRESS KECCAK256 CALLER ORIGIN ADDRESS KECCAK256 ADDRESS KECCAK256 ADDRESS KECCAK256 BALANCE KECCAK256 CALLVALUE CODESIZE ADDRESS 0x2E CALLDATASIZE CALLER CALLVALUE CALLDATALOAD BALANCE CALLDATALOAD ADDRESS CODECOPY CALLVALUE CALLDATALOAD CALLVALUE ADDRESS CALLER CALLDATALOAD KECCAK256 BALANCE CODECOPY CALLER 0x2E CALLDATALOAD CALLVALUE ADDRESS CODESIZE CODESIZE CALLDATACOPY CALLVALUE CALLDATASIZE CALLVALUE CODESIZE CODECOPY CALLDATACOPY ADDRESS CALLER KECCAK256 0x4C KECCAK256 CALLVALUE CALLDATACOPY ORIGIN 0x2E CALLDATACOPY CODECOPY CALLER BALANCE CALLVALUE CALLER CODESIZE CALLDATASIZE CODESIZE BALANCE CALLDATACOPY CALLDATALOAD CALLDATALOAD KECCAK256 BALANCE BALANCE CALLER 0x2E CODECOPY ORIGIN CALLDATASIZE BALANCE ADDRESS CODECOPY CALLER CALLER BALANCE BALANCE ORIGIN BALANCE ORIGIN CALLDATACOPY KECCAK256 COINBASE KECCAK256 CALLVALUE ADDRESS ADDRESS KECCAK256 CALLVALUE ADDRESS ADDRESS KECCAK256 ADDRESS KECCAK256 ADDRESS KECCAK256 ADDRESS KECCAK256 CALLVALUE CALLER CALLER 0x2E CODECOPY CALLDATASIZE CALLER CODESIZE CALLDATACOPY BALANCE BALANCE CODECOPY CALLER CALLDATALOAD CALLVALUE CODESIZE CALLDATALOAD KECCAK256 BALANCE BALANCE CODECOPY 0x2E CALLDATASIZE CODESIZE CALLDATALOAD CODESIZE CODESIZE CALLDATACOPY CODESIZE CALLER CODESIZE CALLDATACOPY ADDRESS CALLDATACOPY CODESIZE CALLDATASIZE KECCAK256 GAS 0x22 KECCAK256 PUSH7 0x696C6C3D22626C PUSH2 0x636B 0x22 KECCAK256 PUSH20 0x74726F6B653D22626C61636B22207374726F6B65 0x2D PUSH24 0x696474683D2231222F3E0A3C7061746820643D224D203436 CALLDATALOAD 0x2E BALANCE CALLDATACOPY CODESIZE CALLER ORIGIN ORIGIN CALLDATACOPY BALANCE CALLDATASIZE BALANCE ORIGIN CODECOPY BALANCE KECCAK256 ORIGIN CALLDATACOPY CALLDATASIZE 0x2E CALLDATASIZE BALANCE BALANCE CALLDATALOAD CALLER ORIGIN CALLDATACOPY ADDRESS CALLER ORIGIN ORIGIN CALLVALUE CALLDATACOPY KECCAK256 COINBASE KECCAK256 ORIGIN CALLVALUE ADDRESS KECCAK256 ORIGIN CALLVALUE ADDRESS KECCAK256 ADDRESS KECCAK256 ADDRESS KECCAK256 BALANCE KECCAK256 CALLVALUE CODESIZE CODESIZE 0x2E CALLVALUE CALLDATACOPY CALLDATALOAD CODESIZE CODESIZE CALLDATASIZE CALLER ORIGIN ADDRESS CODECOPY ADDRESS CALLDATALOAD ORIGIN CALLDATASIZE KECCAK256 ORIGIN CALLDATACOPY CALLER 0x2E BALANCE CALLDATALOAD CALLDATALOAD CALLDATASIZE CALLDATASIZE CALLDATALOAD CALLDATALOAD CODECOPY CODESIZE CALLDATASIZE CALLDATACOPY ORIGIN CALLDATACOPY KECCAK256 0x4C KECCAK256 CALLVALUE CODESIZE ADDRESS 0x2E CALLDATASIZE CALLER CALLVALUE CALLDATALOAD BALANCE CALLDATALOAD ADDRESS CODECOPY CALLVALUE CALLDATALOAD CALLVALUE ADDRESS CALLER CALLDATALOAD KECCAK256 BALANCE CODECOPY CALLER 0x2E CALLDATALOAD CALLVALUE ADDRESS CODESIZE CODESIZE CALLDATACOPY CALLVALUE CALLDATASIZE CALLVALUE CODESIZE CODECOPY CALLDATACOPY ADDRESS CALLER KECCAK256 COINBASE KECCAK256 CALLER ORIGIN ADDRESS KECCAK256 CALLER ORIGIN ADDRESS KECCAK256 ADDRESS KECCAK256 ADDRESS KECCAK256 ADDRESS KECCAK256 CALLVALUE CALLVALUE CODECOPY 0x2E CALLDATALOAD CALLDATACOPY BALANCE ADDRESS CODECOPY CALLDATASIZE CODECOPY CALLDATALOAD CALLVALUE CODESIZE CALLER CODESIZE CODESIZE KECCAK256 BALANCE CODECOPY CODESIZE 0x2E BALANCE CALLVALUE CODESIZE CALLDATACOPY BALANCE ADDRESS ORIGIN CALLDATACOPY ADDRESS CODECOPY CALLDATASIZE CALLDATASIZE CALLER ORIGIN KECCAK256 GAS 0x22 KECCAK256 PUSH7 0x696C6C3D22626C PUSH2 0x636B 0x22 KECCAK256 PUSH20 0x74726F6B653D22626C61636B22207374726F6B65 0x2D PUSH24 0x696474683D2231222F3E0A3C7061746820643D224D203438 ADDRESS 0x2E CALLDATACOPY CODESIZE CALLDATALOAD CALLDATALOAD CALLVALUE CODESIZE CALLVALUE CALLDATACOPY CALLDATACOPY CALLVALUE BALANCE CODECOPY CALLVALUE KECCAK256 CALLER CALLDATALOAD CALLDATALOAD 0x2E ADDRESS CALLDATACOPY CALLVALUE CALLER CALLDATALOAD CALLDATALOAD BALANCE CALLER CALLDATALOAD CALLVALUE CODESIZE CALLER ORIGIN KECCAK256 COINBASE KECCAK256 BALANCE CALLDATASIZE ADDRESS KECCAK256 BALANCE CALLDATASIZE ADDRESS KECCAK256 ADDRESS KECCAK256 ADDRESS KECCAK256 BALANCE KECCAK256 CALLVALUE CODECOPY CALLDATASIZE 0x2E CALLER BALANCE CALLDATACOPY ORIGIN CALLDATALOAD CALLDATACOPY CALLDATALOAD CALLVALUE CALLDATACOPY ORIGIN CALLDATACOPY ADDRESS ORIGIN KECCAK256 CALLER CALLDATALOAD ORIGIN 0x2E CALLDATACOPY CALLDATACOPY ADDRESS CALLVALUE CALLVALUE CALLER CALLDATACOPY CALLER ORIGIN CALLVALUE CALLVALUE CODESIZE CALLDATALOAD KECCAK256 0x4C KECCAK256 CALLVALUE CODESIZE CODESIZE 0x2E CALLVALUE CALLDATACOPY CALLDATALOAD CODESIZE CODESIZE CALLDATASIZE CALLER ORIGIN ADDRESS CODECOPY ADDRESS CALLDATALOAD ORIGIN CALLDATASIZE KECCAK256 ORIGIN CALLDATACOPY CALLER 0x2E BALANCE CALLDATALOAD CALLDATALOAD CALLDATASIZE CALLDATASIZE CALLDATALOAD CALLDATALOAD CODECOPY CODESIZE CALLDATASIZE CALLDATACOPY ORIGIN CALLDATACOPY KECCAK256 COINBASE KECCAK256 ORIGIN CALLVALUE ADDRESS KECCAK256 ORIGIN CALLVALUE ADDRESS KECCAK256 ADDRESS KECCAK256 ADDRESS KECCAK256 ADDRESS KECCAK256 CALLVALUE CALLDATASIZE CALLDATALOAD 0x2E BALANCE CALLDATACOPY CODESIZE CALLER ORIGIN ORIGIN CALLDATACOPY BALANCE CALLDATASIZE BALANCE ORIGIN CODECOPY BALANCE KECCAK256 ORIGIN CALLDATACOPY CALLDATASIZE 0x2E CALLDATASIZE BALANCE BALANCE CALLDATALOAD CALLER ORIGIN CALLDATACOPY ADDRESS CALLER ORIGIN ORIGIN CALLVALUE CALLDATACOPY KECCAK256 GAS 0x22 KECCAK256 PUSH7 0x696C6C3D22626C PUSH2 0x636B 0x22 KECCAK256 PUSH20 0x74726F6B653D22626C61636B22207374726F6B65 0x2D PUSH24 0x696474683D2231222F3E0A3C7061746820643D224D203437 ORIGIN 0x2E CALLDATACOPY CODECOPY CALLER BALANCE CALLVALUE CALLER CODESIZE CALLDATASIZE CODESIZE BALANCE CALLDATACOPY CALLDATALOAD CODESIZE CALLER KECCAK256 BALANCE BALANCE CALLER 0x2E CODECOPY ORIGIN CALLDATASIZE BALANCE ADDRESS CODECOPY CALLER CALLER BALANCE BALANCE ORIGIN BALANCE ORIGIN BALANCE KECCAK256 COINBASE KECCAK256 CALLVALUE ADDRESS ADDRESS KECCAK256 CALLVALUE ADDRESS ADDRESS KECCAK256 ADDRESS KECCAK256 ADDRESS KECCAK256 BALANCE KECCAK256 CALLDATALOAD BALANCE BALANCE 0x2E CODECOPY CODECOPY CODECOPY CODECOPY CODECOPY CODECOPY CODECOPY CODECOPY CODECOPY CODECOPY CODECOPY CODECOPY CODECOPY CALLVALUE KECCAK256 BALANCE BALANCE ORIGIN KECCAK256 0x4C KECCAK256 CALLDATALOAD BALANCE BALANCE 0x2E CODECOPY CODECOPY CODECOPY CODECOPY CODECOPY CODECOPY CODECOPY CODECOPY CODECOPY CODECOPY CODECOPY CODECOPY CODECOPY KECCAK256 CALLER ORIGIN KECCAK256 COINBASE KECCAK256 CALLVALUE CODESIZE ADDRESS KECCAK256 CALLVALUE CODESIZE ADDRESS KECCAK256 ADDRESS KECCAK256 ADDRESS KECCAK256 ADDRESS KECCAK256 CALLVALUE CALLDATASIZE CALLVALUE 0x2E CODECOPY CALLDATALOAD BALANCE CALLDATACOPY CALLDATACOPY ORIGIN CALLDATASIZE CALLVALUE BALANCE CODESIZE BALANCE BALANCE KECCAK256 CALLER CALLVALUE 0x2E CALLER BALANCE BALANCE CALLER CALLER BALANCE BALANCE CODECOPY CALLDATACOPY CALLER CALLVALUE CALLDATALOAD CALLVALUE CALLDATALOAD KECCAK256 GAS 0x22 KECCAK256 PUSH7 0x696C6C3D22626C PUSH2 0x636B 0x22 KECCAK256 PUSH20 0x74726F6B653D22626C61636B22207374726F6B65 0x2D PUSH24 0x696474683D2231222F3E0A3C7061746820643D224D203438 ADDRESS 0x2E CALLDATASIZE CALLER CALLVALUE CALLDATALOAD BALANCE CALLDATALOAD ADDRESS CODECOPY CALLVALUE CALLDATALOAD CALLVALUE ADDRESS CALLDATASIZE CALLER KECCAK256 BALANCE CODECOPY CALLER 0x2E CALLDATALOAD CALLVALUE ADDRESS CODESIZE CODESIZE CALLDATACOPY CALLVALUE CALLDATASIZE CALLVALUE CODESIZE CODECOPY CALLDATASIZE CODECOPY CALLDATACOPY KECCAK256 COINBASE KECCAK256 CALLER ORIGIN ADDRESS KECCAK256 CALLER ORIGIN ADDRESS KECCAK256 ADDRESS KECCAK256 ADDRESS KECCAK256 BALANCE KECCAK256 CALLDATALOAD BALANCE BALANCE 0x2E CODECOPY CODECOPY CODECOPY CODECOPY CODECOPY CODECOPY CODECOPY CODECOPY CODECOPY CODECOPY CODECOPY CODECOPY CODECOPY CALLVALUE KECCAK256 BALANCE CODECOPY ORIGIN KECCAK256 0x4C KECCAK256 CALLDATALOAD BALANCE BALANCE 0x2E CODECOPY CODECOPY CODECOPY CODECOPY CODECOPY CODECOPY CODECOPY CODECOPY CODECOPY CODECOPY CODECOPY CODECOPY CODECOPY CALLVALUE KECCAK256 BALANCE BALANCE ORIGIN KECCAK256 COINBASE KECCAK256 CALLVALUE ADDRESS ADDRESS KECCAK256 CALLVALUE ADDRESS ADDRESS KECCAK256 ADDRESS KECCAK256 ADDRESS KECCAK256 ADDRESS KECCAK256 CALLVALUE CALLDATACOPY ORIGIN 0x2E CALLDATACOPY CODECOPY CALLER BALANCE CALLVALUE CALLER CODESIZE CALLDATASIZE CODESIZE BALANCE CALLDATACOPY CALLDATALOAD CODESIZE CALLER KECCAK256 BALANCE BALANCE CALLER 0x2E CODECOPY ORIGIN CALLDATASIZE BALANCE ADDRESS CODECOPY CALLER CALLER BALANCE BALANCE ORIGIN BALANCE ORIGIN BALANCE KECCAK256 GAS 0x22 KECCAK256 PUSH7 0x696C6C3D22626C PUSH2 0x636B 0x22 KECCAK256 PUSH20 0x74726F6B653D22626C61636B22207374726F6B65 0x2D PUSH24 0x696474683D2231222F3E0A3C7061746820643D224D203438 CODESIZE 0x2E CALLVALUE CALLDATACOPY CALLDATALOAD CODESIZE CODESIZE CALLDATASIZE CALLER ORIGIN ADDRESS CODECOPY ADDRESS CALLDATALOAD CALLDATALOAD KECCAK256 ORIGIN CALLDATACOPY CALLER 0x2E BALANCE CALLDATALOAD CALLDATALOAD CALLDATASIZE CALLDATASIZE CALLDATALOAD CALLDATALOAD CODECOPY CODESIZE CALLDATASIZE CALLDATACOPY ORIGIN CALLDATACOPY KECCAK256 COINBASE KECCAK256 ORIGIN CALLVALUE ADDRESS KECCAK256 ORIGIN CALLVALUE ADDRESS KECCAK256 ADDRESS KECCAK256 ADDRESS KECCAK256 BALANCE KECCAK256 CALLDATALOAD BALANCE BALANCE 0x2E CODECOPY CODECOPY CODECOPY CODECOPY CODECOPY CODECOPY CODECOPY CODECOPY CODECOPY CODECOPY CODECOPY CODECOPY CODECOPY CALLVALUE KECCAK256 ORIGIN CALLDATACOPY ORIGIN KECCAK256 0x4C KECCAK256 CALLDATALOAD BALANCE BALANCE 0x2E CODECOPY CODECOPY CODECOPY CODECOPY CODECOPY CODECOPY CODECOPY CODECOPY CODECOPY CODECOPY CODECOPY CODECOPY CODECOPY CALLVALUE KECCAK256 BALANCE CODECOPY ORIGIN KECCAK256 COINBASE KECCAK256 CALLER ORIGIN ADDRESS KECCAK256 CALLER ORIGIN ADDRESS KECCAK256 ADDRESS KECCAK256 ADDRESS KECCAK256 ADDRESS KECCAK256 CALLVALUE CODESIZE ADDRESS 0x2E CALLDATASIZE CALLER CALLVALUE CALLDATALOAD BALANCE CALLDATALOAD ADDRESS CODECOPY CALLVALUE CALLDATALOAD CALLVALUE ADDRESS CALLDATASIZE CALLER KECCAK256 BALANCE CODECOPY CALLER 0x2E CALLDATALOAD CALLVALUE ADDRESS CODESIZE CODESIZE CALLDATACOPY CALLVALUE CALLDATASIZE CALLVALUE CODESIZE CODECOPY CALLDATASIZE CODECOPY CALLDATACOPY KECCAK256 GAS 0x22 KECCAK256 PUSH7 0x696C6C3D22626C PUSH2 0x636B 0x22 KECCAK256 PUSH20 0x74726F6B653D22626C61636B22207374726F6B65 0x2D PUSH24 0x696474683D2231222F3E0A3C7061746820643D224D203439 CALLDATASIZE 0x2E CALLER BALANCE CALLDATACOPY ORIGIN CALLDATALOAD CALLDATACOPY CALLDATALOAD CALLVALUE CALLDATACOPY ORIGIN CALLDATACOPY ADDRESS CALLER CALLVALUE KECCAK256 CALLER CALLDATALOAD ORIGIN 0x2E CALLDATACOPY CALLDATACOPY ADDRESS CALLVALUE CALLVALUE CALLER CALLDATACOPY CALLER ORIGIN CALLVALUE CALLVALUE CODESIZE CALLDATALOAD KECCAK256 COINBASE KECCAK256 BALANCE CALLDATASIZE ADDRESS KECCAK256 BALANCE CALLDATASIZE ADDRESS KECCAK256 ADDRESS KECCAK256 ADDRESS KECCAK256 BALANCE KECCAK256 CALLDATALOAD BALANCE BALANCE 0x2E CODECOPY CODECOPY CODECOPY CODECOPY CODECOPY CODECOPY CODECOPY CODECOPY CODECOPY CODECOPY CODECOPY CODECOPY CODECOPY CALLVALUE KECCAK256 CALLER CALLDATALOAD ORIGIN KECCAK256 0x4C KECCAK256 CALLDATALOAD BALANCE BALANCE 0x2E CODECOPY CODECOPY CODECOPY CODECOPY CODECOPY CODECOPY CODECOPY CODECOPY CODECOPY CODECOPY CODECOPY CODECOPY CODECOPY CALLVALUE KECCAK256 ORIGIN CALLDATACOPY ORIGIN KECCAK256 COINBASE KECCAK256 ORIGIN CALLVALUE ADDRESS KECCAK256 ORIGIN CALLVALUE ADDRESS KECCAK256 ADDRESS KECCAK256 ADDRESS KECCAK256 ADDRESS KECCAK256 CALLVALUE CODESIZE CODESIZE 0x2E CALLVALUE CALLDATACOPY CALLDATALOAD CODESIZE CODESIZE CALLDATASIZE CALLER ORIGIN ADDRESS CODECOPY ADDRESS CALLDATALOAD CALLDATALOAD KECCAK256 ORIGIN CALLDATACOPY CALLER 0x2E BALANCE CALLDATALOAD CALLDATALOAD CALLDATASIZE CALLDATASIZE CALLDATALOAD CALLDATALOAD CODECOPY CODESIZE CALLDATASIZE CALLDATACOPY ORIGIN CALLDATACOPY KECCAK256 GAS 0x22 KECCAK256 PUSH7 0x696C6C3D22626C PUSH2 0x636B 0x22 KECCAK256 PUSH20 0x74726F6B653D22626C61636B22207374726F6B65 0x2D PUSH24 0x696474683D2231222F3E0A0A0A0A0A0A3C2F7376673E0000 "
		},
		"gasEstimates": {
			"creation": {
				"codeDepositCost": "170200",
				"executionCost": "infinite",
				"totalCost": "infinite"
			},
			"external": {
				"getRawSVG()": "infinite",
				"getSVGPointer()": "infinite"
			}
		},
		"methodIdentifiers": {
			"getRawSVG()": "d44baa6f",
			"getSVGPointer()": "c42cad21"
		}
	},
	"abi": [
		{
			"inputs": [],
			"stateMutability": "nonpayable",
			"type": "constructor"
		},
		{
			"inputs": [
				{
					"internalType": "uint256",
					"name": "_size",
					"type": "uint256"
				},
				{
					"internalType": "uint256",
					"name": "_start",
					"type": "uint256"
				},
				{
					"internalType": "uint256",
					"name": "_end",
					"type": "uint256"
				}
			],
			"name": "InvalidCodeAtRange",
			"type": "error"
		},
		{
			"inputs": [],
			"name": "WriteError",
			"type": "error"
		},
		{
			"inputs": [],
			"name": "getRawSVG",
			"outputs": [
				{
					"internalType": "string",
					"name": "",
					"type": "string"
				}
			],
			"stateMutability": "view",
			"type": "function"
		},
		{
			"inputs": [],
			"name": "getSVGPointer",
			"outputs": [
				{
					"internalType": "address",
					"name": "",
					"type": "address"
				}
			],
			"stateMutability": "view",
			"type": "function"
		}
	]
}