{
	"data": {
		"bytecode": {
			"linkReferences": {},
			"object": "608060405234801561000f575f80fd5b506100376040518060e0016040528060ae81526020016108de60ae91396101f860201b60201c565b5f806004811061004a576100496102cb565b5b015f6101000a81548173ffffffffffffffffffffffffffffffffffffffff021916908373ffffffffffffffffffffffffffffffffffffffff1602179055506100af6040518060e0016040528060b0815260200161098c60b091396101f860201b60201c565b5f6001600481106100c3576100c26102cb565b5b015f6101000a81548173ffffffffffffffffffffffffffffffffffffffff021916908373ffffffffffffffffffffffffffffffffffffffff1602179055506101286040518060e0016040528060af8152602001610aea60af91396101f860201b60201c565b5f60026004811061013c5761013b6102cb565b5b015f6101000a81548173ffffffffffffffffffffffffffffffffffffffff021916908373ffffffffffffffffffffffffffffffffffffffff1602179055506101a16040518060e0016040528060ae8152602001610a3c60ae91396101f860201b60201c565b5f6003600481106101b5576101b46102cb565b5b015f6101000a81548173ffffffffffffffffffffffffffffffffffffffff021916908373ffffffffffffffffffffffffffffffffffffffff1602179055506104b3565b5f806102288360405160200161020e919061037e565b60405160208183030381529060405261029f60201b60201c565b90508051602082015ff091505f73ffffffffffffffffffffffffffffffffffffffff168273ffffffffffffffffffffffffffffffffffffffff1603610299576040517f08d4abb600000000000000000000000000000000000000000000000000000000815260040160405180910390fd5b50919050565b60608151826040516020016102b5929190610476565b6040516020818303038152906040529050919050565b7f4e487b71000000000000000000000000000000000000000000000000000000005f52603260045260245ffd5b5f81905092915050565b5f8082015250565b5f6103166001836102f8565b915061032182610302565b600182019050919050565b5f81519050919050565b5f81905092915050565b8281835e5f83830152505050565b5f6103588261032c565b6103628185610336565b9350610372818560208601610340565b80840191505092915050565b5f6103888261030a565b9150610394828461034e565b915081905092915050565b7f63000000000000000000000000000000000000000000000000000000000000005f82015250565b5f6103d36001836102f8565b91506103de8261039f565b600182019050919050565b5f63ffffffff82169050919050565b5f8160e01b9050919050565b5f61040e826103f8565b9050919050565b610426610421826103e9565b610404565b82525050565b7f80600e6000396000f300000000000000000000000000000000000000000000005f82015250565b5f6104606009836102f8565b915061046b8261042c565b600982019050919050565b5f610480826103c7565b915061048c8285610415565b60048201915061049b82610454565b91506104a7828461034e565b91508190509392505050565b61041e806104c05f395ff3fe608060405234801561000f575f80fd5b5060043610610034575f3560e01c80633c8c014d14610038578063e9ce327414610068575b5f80fd5b610052600480360381019061004d9190610264565b610098565b60405161005f91906102ff565b60405180910390f35b610082600480360381019061007d9190610264565b6100dd565b60405161008f919061035e565b60405180910390f35b60606100d65f83600481106100b0576100af610377565b5b015f9054906101000a900473ffffffffffffffffffffffffffffffffffffffff16610110565b9050919050565b5f81600481106100eb575f80fd5b015f915054906101000a900473ffffffffffffffffffffffffffffffffffffffff1681565b606061013e8260017fffffffffffffffffffffffffffffffffffffffffffffffffffffffffffffffff610145565b9050919050565b60605f61015185610223565b90505f81036101715760405180602001604052805f81525091505061021c565b808411156101905760405180602001604052805f81525091505061021c565b838310156101d9578084846040517f2c4a89fa0000000000000000000000000000000000000000000000000000000081526004016101d0939291906103b3565b60405180910390fd5b5f84840390505f85830390505f8282106101f357826101f5565b815b90506040519450601f19601f60208301011685016040528085528087602087018a3c505050505b9392505050565b5f813b9050919050565b5f80fd5b5f819050919050565b61024381610231565b811461024d575f80fd5b50565b5f8135905061025e8161023a565b92915050565b5f602082840312156102795761027861022d565b5b5f61028684828501610250565b91505092915050565b5f81519050919050565b5f82825260208201905092915050565b8281835e5f83830152505050565b5f601f19601f8301169050919050565b5f6102d18261028f565b6102db8185610299565b93506102eb8185602086016102a9565b6102f4816102b7565b840191505092915050565b5f6020820190508181035f83015261031781846102c7565b905092915050565b5f73ffffffffffffffffffffffffffffffffffffffff82169050919050565b5f6103488261031f565b9050919050565b6103588161033e565b82525050565b5f6020820190506103715f83018461034f565b92915050565b7f4e487b71000000000000000000000000000000000000000000000000000000005f52603260045260245ffd5b6103ad81610231565b82525050565b5f6060820190506103c65f8301866103a4565b6103d360208301856103a4565b6103e060408301846103a4565b94935050505056fea26469706673582212209717f135a97a4a6b0253e4283acf1e05cc507fef4228f3ae8960e11fcec3d3d964736f6c634300081a00333c7061746820643d224d203531322031313220412034303020343030203020302031203535312e32303638353631333138323433203131332e3932363130393333313132313237204c203535392e303438323237333538313839312033342e33313133333131393733343535312041203438302034383020302030203020353132203332205a22207374726f6b653d22626c61636b22207374726f6b652d77696474683d2231222066696c6c3d223c7061746820643d224d203531322031393220412033323020333230203020302031203534332e33363534383439303534353934203139332e3534303838373436343839373033204c203535312e32303638353631333138323433203131332e3932363130393333313132313237204120343030203430302030203020302035313220313132205a22207374726f6b653d22626c61636b22207374726f6b652d77696474683d2231222066696c6c3d223c7061746820643d224d203531322033353220412031363020313630203020302031203532372e36383237343234353237323937203335322e37373034343337333234343835204c203533352e35323431313336373930393436203237332e31353536363535393836373237204120323430203234302030203020302035313220323732205a22207374726f6b653d22626c61636b22207374726f6b652d77696474683d2231222066696c6c3d223c7061746820643d224d203531322032373220412032343020323430203020302031203533352e35323431313336373930393436203237332e31353536363535393836373237204c203534332e33363534383439303534353934203139332e3534303838373436343839373033204120333230203332302030203020302035313220313932205a22207374726f6b653d22626c61636b22207374726f6b652d77696474683d2231222066696c6c3d22",
			"opcodes": "PUSH1 0x80 PUSH1 0x40 MSTORE CALLVALUE DUP1 ISZERO PUSH2 0xF JUMPI PUSH0 DUP1 REVERT JUMPDEST POP PUSH2 0x37 PUSH1 0x40 MLOAD DUP1 PUSH1 0xE0 ADD PUSH1 0x40 MSTORE DUP1 PUSH1 0xAE DUP2 MSTORE PUSH1 0x20 ADD PUSH2 0x8DE PUSH1 0xAE SWAP2 CODECOPY PUSH2 0x1F8 PUSH1 0x20 SHL PUSH1 0x20 SHR JUMP JUMPDEST PUSH0 DUP1 PUSH1 0x4 DUP2 LT PUSH2 0x4A JUMPI PUSH2 0x49 PUSH2 0x2CB JUMP JUMPDEST JUMPDEST ADD PUSH0 PUSH2 0x100 EXP DUP2 SLOAD DUP2 PUSH20 0xFFFFFFFFFFFFFFFFFFFFFFFFFFFFFFFFFFFFFFFF MUL NOT AND SWAP1 DUP4 PUSH20 0xFFFFFFFFFFFFFFFFFFFFFFFFFFFFFFFFFFFFFFFF AND MUL OR SWAP1 SSTORE POP PUSH2 0xAF PUSH1 0x40 MLOAD DUP1 PUSH1 0xE0 ADD PUSH1 0x40 MSTORE DUP1 PUSH1 0xB0 DUP2 MSTORE PUSH1 0x20 ADD PUSH2 0x98C PUSH1 0xB0 SWAP2 CODECOPY PUSH2 0x1F8 PUSH1 0x20 SHL PUSH1 0x20 SHR JUMP JUMPDEST PUSH0 PUSH1 0x1 PUSH1 0x4 DUP2 LT PUSH2 0xC3 JUMPI PUSH2 0xC2 PUSH2 0x2CB JUMP JUMPDEST JUMPDEST ADD PUSH0 PUSH2 0x100 EXP DUP2 SLOAD DUP2 PUSH20 0xFFFFFFFFFFFFFFFFFFFFFFFFFFFFFFFFFFFFFFFF MUL NOT AND SWAP1 DUP4 PUSH20 0xFFFFFFFFFFFFFFFFFFFFFFFFFFFFFFFFFFFFFFFF AND MUL OR SWAP1 SSTORE POP PUSH2 0x128 PUSH1 0x40 MLOAD DUP1 PUSH1 0xE0 ADD PUSH1 0x40 MSTORE DUP1 PUSH1 0xAF DUP2 MSTORE PUSH1 0x20 ADD PUSH2 0xAEA PUSH1 0xAF SWAP2 CODECOPY PUSH2 0x1F8 PUSH1 0x20 SHL PUSH1 0x20 SHR JUMP JUMPDEST PUSH0 PUSH1 0x2 PUSH1 0x4 DUP2 LT PUSH2 0x13C JUMPI PUSH2 0x13B PUSH2 0x2CB JUMP JUMPDEST JUMPDEST ADD PUSH0 PUSH2 0x100 EXP DUP2 SLOAD DUP2 PUSH20 0xFFFFFFFFFFFFFFFFFFFFFFFFFFFFFFFFFFFFFFFF MUL NOT AND SWAP1 DUP4 PUSH20 0xFFFFFFFFFFFFFFFFFFFFFFFFFFFFFFFFFFFFFFFF AND MUL OR SWAP1 SSTORE POP PUSH2 0x1A1 PUSH1 0x40 MLOAD DUP1 PUSH1 0xE0 ADD PUSH1 0x40 MSTORE DUP1 PUSH1 0xAE DUP2 MSTORE PUSH1 0x20 ADD PUSH2 0xA3C PUSH1 0xAE SWAP2 CODECOPY PUSH2 0x1F8 PUSH1 0x20 SHL PUSH1 0x20 SHR JUMP JUMPDEST PUSH0 PUSH1 0x3 PUSH1 0x4 DUP2 LT PUSH2 0x1B5 JUMPI PUSH2 0x1B4 PUSH2 0x2CB JUMP JUMPDEST JUMPDEST ADD PUSH0 PUSH2 0x100 EXP DUP2 SLOAD DUP2 PUSH20 0xFFFFFFFFFFFFFFFFFFFFFFFFFFFFFFFFFFFFFFFF MUL NOT AND SWAP1 DUP4 PUSH20 0xFFFFFFFFFFFFFFFFFFFFFFFFFFFFFFFFFFFFFFFF AND MUL OR SWAP1 SSTORE POP PUSH2 0x4B3 JUMP JUMPDEST PUSH0 DUP1 PUSH2 0x228 DUP4 PUSH1 0x40 MLOAD PUSH1 0x20 ADD PUSH2 0x20E SWAP2 SWAP1 PUSH2 0x37E JUMP JUMPDEST PUSH1 0x40 MLOAD PUSH1 0x20 DUP2 DUP4 SUB SUB DUP2 MSTORE SWAP1 PUSH1 0x40 MSTORE PUSH2 0x29F PUSH1 0x20 SHL PUSH1 0x20 SHR JUMP JUMPDEST SWAP1 POP DUP1 MLOAD PUSH1 0x20 DUP3 ADD PUSH0 CREATE SWAP2 POP PUSH0 PUSH20 0xFFFFFFFFFFFFFFFFFFFFFFFFFFFFFFFFFFFFFFFF AND DUP3 PUSH20 0xFFFFFFFFFFFFFFFFFFFFFFFFFFFFFFFFFFFFFFFF AND SUB PUSH2 0x299 JUMPI PUSH1 0x40 MLOAD PUSH32 0x8D4ABB600000000000000000000000000000000000000000000000000000000 DUP2 MSTORE PUSH1 0x4 ADD PUSH1 0x40 MLOAD DUP1 SWAP2 SUB SWAP1 REVERT JUMPDEST POP SWAP2 SWAP1 POP JUMP JUMPDEST PUSH1 0x60 DUP2 MLOAD DUP3 PUSH1 0x40 MLOAD PUSH1 0x20 ADD PUSH2 0x2B5 SWAP3 SWAP2 SWAP1 PUSH2 0x476 JUMP JUMPDEST PUSH1 0x40 MLOAD PUSH1 0x20 DUP2 DUP4 SUB SUB DUP2 MSTORE SWAP1 PUSH1 0x40 MSTORE SWAP1 POP SWAP2 SWAP1 POP JUMP JUMPDEST PUSH32 0x4E487B7100000000000000000000000000000000000000000000000000000000 PUSH0 MSTORE PUSH1 0x32 PUSH1 0x4 MSTORE PUSH1 0x24 PUSH0 REVERT JUMPDEST PUSH0 DUP2 SWAP1 POP SWAP3 SWAP2 POP POP JUMP JUMPDEST PUSH0 DUP1 DUP3 ADD MSTORE POP JUMP JUMPDEST PUSH0 PUSH2 0x316 PUSH1 0x1 DUP4 PUSH2 0x2F8 JUMP JUMPDEST SWAP2 POP PUSH2 0x321 DUP3 PUSH2 0x302 JUMP JUMPDEST PUSH1 0x1 DUP3 ADD SWAP1 POP SWAP2 SWAP1 POP JUMP JUMPDEST PUSH0 DUP2 MLOAD SWAP1 POP SWAP2 SWAP1 POP JUMP JUMPDEST PUSH0 DUP2 SWAP1 POP SWAP3 SWAP2 POP POP JUMP JUMPDEST DUP3 DUP2 DUP4 MCOPY PUSH0 DUP4 DUP4 ADD MSTORE POP POP POP JUMP JUMPDEST PUSH0 PUSH2 0x358 DUP3 PUSH2 0x32C JUMP JUMPDEST PUSH2 0x362 DUP2 DUP6 PUSH2 0x336 JUMP JUMPDEST SWAP4 POP PUSH2 0x372 DUP2 DUP6 PUSH1 0x20 DUP7 ADD PUSH2 0x340 JUMP JUMPDEST DUP1 DUP5 ADD SWAP2 POP POP SWAP3 SWAP2 POP POP JUMP JUMPDEST PUSH0 PUSH2 0x388 DUP3 PUSH2 0x30A JUMP JUMPDEST SWAP2 POP PUSH2 0x394 DUP3 DUP5 PUSH2 0x34E JUMP JUMPDEST SWAP2 POP DUP2 SWAP1 POP SWAP3 SWAP2 POP POP JUMP JUMPDEST PUSH32 0x6300000000000000000000000000000000000000000000000000000000000000 PUSH0 DUP3 ADD MSTORE POP JUMP JUMPDEST PUSH0 PUSH2 0x3D3 PUSH1 0x1 DUP4 PUSH2 0x2F8 JUMP JUMPDEST SWAP2 POP PUSH2 0x3DE DUP3 PUSH2 0x39F JUMP JUMPDEST PUSH1 0x1 DUP3 ADD SWAP1 POP SWAP2 SWAP1 POP JUMP JUMPDEST PUSH0 PUSH4 0xFFFFFFFF DUP3 AND SWAP1 POP SWAP2 SWAP1 POP JUMP JUMPDEST PUSH0 DUP2 PUSH1 0xE0 SHL SWAP1 POP SWAP2 SWAP1 POP JUMP JUMPDEST PUSH0 PUSH2 0x40E DUP3 PUSH2 0x3F8 JUMP JUMPDEST SWAP1 POP SWAP2 SWAP1 POP JUMP JUMPDEST PUSH2 0x426 PUSH2 0x421 DUP3 PUSH2 0x3E9 JUMP JUMPDEST PUSH2 0x404 JUMP JUMPDEST DUP3 MSTORE POP POP JUMP JUMPDEST PUSH32 0x80600E6000396000F30000000000000000000000000000000000000000000000 PUSH0 DUP3 ADD MSTORE POP JUMP JUMPDEST PUSH0 PUSH2 0x460 PUSH1 0x9 DUP4 PUSH2 0x2F8 JUMP JUMPDEST SWAP2 POP PUSH2 0x46B DUP3 PUSH2 0x42C JUMP JUMPDEST PUSH1 0x9 DUP3 ADD SWAP1 POP SWAP2 SWAP1 POP JUMP JUMPDEST PUSH0 PUSH2 0x480 DUP3 PUSH2 0x3C7 JUMP JUMPDEST SWAP2 POP PUSH2 0x48C DUP3 DUP6 PUSH2 0x415 JUMP JUMPDEST PUSH1 0x4 DUP3 ADD SWAP2 POP PUSH2 0x49B DUP3 PUSH2 0x454 JUMP JUMPDEST SWAP2 POP PUSH2 0x4A7 DUP3 DUP5 PUSH2 0x34E JUMP JUMPDEST SWAP2 POP DUP2 SWAP1 POP SWAP4 SWAP3 POP POP POP JUMP JUMPDEST PUSH2 0x41E DUP1 PUSH2 0x4C0 PUSH0 CODECOPY PUSH0 RETURN INVALID PUSH1 0x80 PUSH1 0x40 MSTORE CALLVALUE DUP1 ISZERO PUSH2 0xF JUMPI PUSH0 DUP1 REVERT JUMPDEST POP PUSH1 0x4 CALLDATASIZE LT PUSH2 0x34 JUMPI PUSH0 CALLDATALOAD PUSH1 0xE0 SHR DUP1 PUSH4 0x3C8C014D EQ PUSH2 0x38 JUMPI DUP1 PUSH4 0xE9CE3274 EQ PUSH2 0x68 JUMPI JUMPDEST PUSH0 DUP1 REVERT JUMPDEST PUSH2 0x52 PUSH1 0x4 DUP1 CALLDATASIZE SUB DUP2 ADD SWAP1 PUSH2 0x4D SWAP2 SWAP1 PUSH2 0x264 JUMP JUMPDEST PUSH2 0x98 JUMP JUMPDEST PUSH1 0x40 MLOAD PUSH2 0x5F SWAP2 SWAP1 PUSH2 0x2FF JUMP JUMPDEST PUSH1 0x40 MLOAD DUP1 SWAP2 SUB SWAP1 RETURN JUMPDEST PUSH2 0x82 PUSH1 0x4 DUP1 CALLDATASIZE SUB DUP2 ADD SWAP1 PUSH2 0x7D SWAP2 SWAP1 PUSH2 0x264 JUMP JUMPDEST PUSH2 0xDD JUMP JUMPDEST PUSH1 0x40 MLOAD PUSH2 0x8F SWAP2 SWAP1 PUSH2 0x35E JUMP JUMPDEST PUSH1 0x40 MLOAD DUP1 SWAP2 SUB SWAP1 RETURN JUMPDEST PUSH1 0x60 PUSH2 0xD6 PUSH0 DUP4 PUSH1 0x4 DUP2 LT PUSH2 0xB0 JUMPI PUSH2 0xAF PUSH2 0x377 JUMP JUMPDEST JUMPDEST ADD PUSH0 SWAP1 SLOAD SWAP1 PUSH2 0x100 EXP SWAP1 DIV PUSH20 0xFFFFFFFFFFFFFFFFFFFFFFFFFFFFFFFFFFFFFFFF AND PUSH2 0x110 JUMP JUMPDEST SWAP1 POP SWAP2 SWAP1 POP JUMP JUMPDEST PUSH0 DUP2 PUSH1 0x4 DUP2 LT PUSH2 0xEB JUMPI PUSH0 DUP1 REVERT JUMPDEST ADD PUSH0 SWAP2 POP SLOAD SWAP1 PUSH2 0x100 EXP SWAP1 DIV PUSH20 0xFFFFFFFFFFFFFFFFFFFFFFFFFFFFFFFFFFFFFFFF AND DUP2 JUMP JUMPDEST PUSH1 0x60 PUSH2 0x13E DUP3 PUSH1 0x1 PUSH32 0xFFFFFFFFFFFFFFFFFFFFFFFFFFFFFFFFFFFFFFFFFFFFFFFFFFFFFFFFFFFFFFFF PUSH2 0x145 JUMP JUMPDEST SWAP1 POP SWAP2 SWAP1 POP JUMP JUMPDEST PUSH1 0x60 PUSH0 PUSH2 0x151 DUP6 PUSH2 0x223 JUMP JUMPDEST SWAP1 POP PUSH0 DUP2 SUB PUSH2 0x171 JUMPI PUSH1 0x40 MLOAD DUP1 PUSH1 0x20 ADD PUSH1 0x40 MSTORE DUP1 PUSH0 DUP2 MSTORE POP SWAP2 POP POP PUSH2 0x21C JUMP JUMPDEST DUP1 DUP5 GT ISZERO PUSH2 0x190 JUMPI PUSH1 0x40 MLOAD DUP1 PUSH1 0x20 ADD PUSH1 0x40 MSTORE DUP1 PUSH0 DUP2 MSTORE POP SWAP2 POP POP PUSH2 0x21C JUMP JUMPDEST DUP4 DUP4 LT ISZERO PUSH2 0x1D9 JUMPI DUP1 DUP5 DUP5 PUSH1 0x40 MLOAD PUSH32 0x2C4A89FA00000000000000000000000000000000000000000000000000000000 DUP2 MSTORE PUSH1 0x4 ADD PUSH2 0x1D0 SWAP4 SWAP3 SWAP2 SWAP1 PUSH2 0x3B3 JUMP JUMPDEST PUSH1 0x40 MLOAD DUP1 SWAP2 SUB SWAP1 REVERT JUMPDEST PUSH0 DUP5 DUP5 SUB SWAP1 POP PUSH0 DUP6 DUP4 SUB SWAP1 POP PUSH0 DUP3 DUP3 LT PUSH2 0x1F3 JUMPI DUP3 PUSH2 0x1F5 JUMP JUMPDEST DUP2 JUMPDEST SWAP1 POP PUSH1 0x40 MLOAD SWAP5 POP PUSH1 0x1F NOT PUSH1 0x1F PUSH1 0x20 DUP4 ADD ADD AND DUP6 ADD PUSH1 0x40 MSTORE DUP1 DUP6 MSTORE DUP1 DUP8 PUSH1 0x20 DUP8 ADD DUP11 EXTCODECOPY POP POP POP POP JUMPDEST SWAP4 SWAP3 POP POP POP JUMP JUMPDEST PUSH0 DUP2 EXTCODESIZE SWAP1 POP SWAP2 SWAP1 POP JUMP JUMPDEST PUSH0 DUP1 REVERT JUMPDEST PUSH0 DUP2 SWAP1 POP SWAP2 SWAP1 POP JUMP JUMPDEST PUSH2 0x243 DUP2 PUSH2 0x231 JUMP JUMPDEST DUP2 EQ PUSH2 0x24D JUMPI PUSH0 DUP1 REVERT JUMPDEST POP JUMP JUMPDEST PUSH0 DUP2 CALLDATALOAD SWAP1 POP PUSH2 0x25E DUP2 PUSH2 0x23A JUMP JUMPDEST SWAP3 SWAP2 POP POP JUMP JUMPDEST PUSH0 PUSH1 0x20 DUP3 DUP5 SUB SLT ISZERO PUSH2 0x279 JUMPI PUSH2 0x278 PUSH2 0x22D JUMP JUMPDEST JUMPDEST PUSH0 PUSH2 0x286 DUP5 DUP3 DUP6 ADD PUSH2 0x250 JUMP JUMPDEST SWAP2 POP POP SWAP3 SWAP2 POP POP JUMP JUMPDEST PUSH0 DUP2 MLOAD SWAP1 POP SWAP2 SWAP1 POP JUMP JUMPDEST PUSH0 DUP3 DUP3 MSTORE PUSH1 0x20 DUP3 ADD SWAP1 POP SWAP3 SWAP2 POP POP JUMP JUMPDEST DUP3 DUP2 DUP4 MCOPY PUSH0 DUP4 DUP4 ADD MSTORE POP POP POP JUMP JUMPDEST PUSH0 PUSH1 0x1F NOT PUSH1 0x1F DUP4 ADD AND SWAP1 POP SWAP2 SWAP1 POP JUMP JUMPDEST PUSH0 PUSH2 0x2D1 DUP3 PUSH2 0x28F JUMP JUMPDEST PUSH2 0x2DB DUP2 DUP6 PUSH2 0x299 JUMP JUMPDEST SWAP4 POP PUSH2 0x2EB DUP2 DUP6 PUSH1 0x20 DUP7 ADD PUSH2 0x2A9 JUMP JUMPDEST PUSH2 0x2F4 DUP2 PUSH2 0x2B7 JUMP JUMPDEST DUP5 ADD SWAP2 POP POP SWAP3 SWAP2 POP POP JUMP JUMPDEST PUSH0 PUSH1 0x20 DUP3 ADD SWAP1 POP DUP2 DUP2 SUB PUSH0 DUP4 ADD MSTORE PUSH2 0x317 DUP2 DUP5 PUSH2 0x2C7 JUMP JUMPDEST SWAP1 POP SWAP3 SWAP2 POP POP JUMP JUMPDEST PUSH0 PUSH20 0xFFFFFFFFFFFFFFFFFFFFFFFFFFFFFFFFFFFFFFFF DUP3 AND SWAP1 POP SWAP2 SWAP1 POP JUMP JUMPDEST PUSH0 PUSH2 0x348 DUP3 PUSH2 0x31F JUMP JUMPDEST SWAP1 POP SWAP2 SWAP1 POP JUMP JUMPDEST PUSH2 0x358 DUP2 PUSH2 0x33E JUMP JUMPDEST DUP3 MSTORE POP POP JUMP JUMPDEST PUSH0 PUSH1 0x20 DUP3 ADD SWAP1 POP PUSH2 0x371 PUSH0 DUP4 ADD DUP5 PUSH2 0x34F JUMP JUMPDEST SWAP3 SWAP2 POP POP JUMP JUMPDEST PUSH32 0x4E487B7100000000000000000000000000000000000000000000000000000000 PUSH0 MSTORE PUSH1 0x32 PUSH1 0x4 MSTORE PUSH1 0x24 PUSH0 REVERT JUMPDEST PUSH2 0x3AD DUP2 PUSH2 0x231 JUMP JUMPDEST DUP3 MSTORE POP POP JUMP JUMPDEST PUSH0 PUSH1 0x60 DUP3 ADD SWAP1 POP PUSH2 0x3C6 PUSH0 DUP4 ADD DUP7 PUSH2 0x3A4 JUMP JUMPDEST PUSH2 0x3D3 PUSH1 0x20 DUP4 ADD DUP6 PUSH2 0x3A4 JUMP JUMPDEST PUSH2 0x3E0 PUSH1 0x40 DUP4 ADD DUP5 PUSH2 0x3A4 JUMP JUMPDEST SWAP5 SWAP4 POP POP POP POP JUMP INVALID LOG2 PUSH5 0x6970667358 0x22 SLT KECCAK256 SWAP8 OR CALL CALLDATALOAD 0xA9 PUSH27 0x4A6B0253E4283ACF1E05CC507FEF4228F3AE8960E11FCEC3D3D964 PUSH20 0x6F6C634300081A00333C7061746820643D224D20 CALLDATALOAD BALANCE ORIGIN KECCAK256 BALANCE BALANCE ORIGIN KECCAK256 COINBASE KECCAK256 CALLVALUE ADDRESS ADDRESS KECCAK256 CALLVALUE ADDRESS ADDRESS KECCAK256 ADDRESS KECCAK256 ADDRESS KECCAK256 BALANCE KECCAK256 CALLDATALOAD CALLDATALOAD BALANCE 0x2E ORIGIN ADDRESS CALLDATASIZE CODESIZE CALLDATALOAD CALLDATASIZE BALANCE CALLER BALANCE CODESIZE ORIGIN CALLVALUE CALLER KECCAK256 BALANCE BALANCE CALLER 0x2E CODECOPY ORIGIN CALLDATASIZE BALANCE ADDRESS CODECOPY CALLER CALLER BALANCE BALANCE ORIGIN BALANCE ORIGIN CALLDATACOPY KECCAK256 0x4C KECCAK256 CALLDATALOAD CALLDATALOAD CODECOPY 0x2E ADDRESS CALLVALUE CODESIZE ORIGIN ORIGIN CALLDATACOPY CALLER CALLDATALOAD CODESIZE BALANCE CODESIZE CODECOPY BALANCE KECCAK256 CALLER CALLVALUE 0x2E CALLER BALANCE BALANCE CALLER CALLER BALANCE BALANCE CODECOPY CALLDATACOPY CALLER CALLVALUE CALLDATALOAD CALLDATALOAD BALANCE KECCAK256 COINBASE KECCAK256 CALLVALUE CODESIZE ADDRESS KECCAK256 CALLVALUE CODESIZE ADDRESS KECCAK256 ADDRESS KECCAK256 ADDRESS KECCAK256 ADDRESS KECCAK256 CALLDATALOAD BALANCE ORIGIN KECCAK256 CALLER ORIGIN KECCAK256 GAS 0x22 KECCAK256 PUSH20 0x74726F6B653D22626C61636B22207374726F6B65 0x2D PUSH24 0x696474683D2231222066696C6C3D223C7061746820643D22 0x4D KECCAK256 CALLDATALOAD BALANCE ORIGIN KECCAK256 BALANCE CODECOPY ORIGIN KECCAK256 COINBASE KECCAK256 CALLER ORIGIN ADDRESS KECCAK256 CALLER ORIGIN ADDRESS KECCAK256 ADDRESS KECCAK256 ADDRESS KECCAK256 BALANCE KECCAK256 CALLDATALOAD CALLVALUE CALLER 0x2E CALLER CALLDATASIZE CALLDATALOAD CALLVALUE CODESIZE CALLVALUE CODECOPY ADDRESS CALLDATALOAD CALLVALUE CALLDATALOAD CODECOPY CALLVALUE KECCAK256 BALANCE CODECOPY CALLER 0x2E CALLDATALOAD CALLVALUE ADDRESS CODESIZE CODESIZE CALLDATACOPY CALLVALUE CALLDATASIZE CALLVALUE CODESIZE CODECOPY CALLDATACOPY ADDRESS CALLER KECCAK256 0x4C KECCAK256 CALLDATALOAD CALLDATALOAD BALANCE 0x2E ORIGIN ADDRESS CALLDATASIZE CODESIZE CALLDATALOAD CALLDATASIZE BALANCE CALLER BALANCE CODESIZE ORIGIN CALLVALUE CALLER KECCAK256 BALANCE BALANCE CALLER 0x2E CODECOPY ORIGIN CALLDATASIZE BALANCE ADDRESS CODECOPY CALLER CALLER BALANCE BALANCE ORIGIN BALANCE ORIGIN CALLDATACOPY KECCAK256 COINBASE KECCAK256 CALLVALUE ADDRESS ADDRESS KECCAK256 CALLVALUE ADDRESS ADDRESS KECCAK256 ADDRESS KECCAK256 ADDRESS KECCAK256 ADDRESS KECCAK256 CALLDATALOAD BALANCE ORIGIN KECCAK256 BALANCE BALANCE ORIGIN KECCAK256 GAS 0x22 KECCAK256 PUSH20 0x74726F6B653D22626C61636B22207374726F6B65 0x2D PUSH24 0x696474683D2231222066696C6C3D223C7061746820643D22 0x4D KECCAK256 CALLDATALOAD BALANCE ORIGIN KECCAK256 CALLER CALLDATALOAD ORIGIN KECCAK256 COINBASE KECCAK256 BALANCE CALLDATASIZE ADDRESS KECCAK256 BALANCE CALLDATASIZE ADDRESS KECCAK256 ADDRESS KECCAK256 ADDRESS KECCAK256 BALANCE KECCAK256 CALLDATALOAD ORIGIN CALLDATACOPY 0x2E CALLDATASIZE CODESIZE ORIGIN CALLDATACOPY CALLVALUE ORIGIN CALLVALUE CALLDATALOAD ORIGIN CALLDATACOPY ORIGIN CODECOPY CALLDATACOPY KECCAK256 CALLER CALLDATALOAD ORIGIN 0x2E CALLDATACOPY CALLDATACOPY ADDRESS CALLVALUE CALLVALUE CALLER CALLDATACOPY CALLER ORIGIN CALLVALUE CALLVALUE CODESIZE CALLDATALOAD KECCAK256 0x4C KECCAK256 CALLDATALOAD CALLER CALLDATALOAD 0x2E CALLDATALOAD ORIGIN CALLVALUE BALANCE BALANCE CALLER CALLDATASIZE CALLDATACOPY CODECOPY ADDRESS CODECOPY CALLVALUE CALLDATASIZE KECCAK256 ORIGIN CALLDATACOPY CALLER 0x2E BALANCE CALLDATALOAD CALLDATALOAD CALLDATASIZE CALLDATASIZE CALLDATALOAD CALLDATALOAD CODECOPY CODESIZE CALLDATASIZE CALLDATACOPY ORIGIN CALLDATACOPY KECCAK256 COINBASE KECCAK256 ORIGIN CALLVALUE ADDRESS KECCAK256 ORIGIN CALLVALUE ADDRESS KECCAK256 ADDRESS KECCAK256 ADDRESS KECCAK256 ADDRESS KECCAK256 CALLDATALOAD BALANCE ORIGIN KECCAK256 ORIGIN CALLDATACOPY ORIGIN KECCAK256 GAS 0x22 KECCAK256 PUSH20 0x74726F6B653D22626C61636B22207374726F6B65 0x2D PUSH24 0x696474683D2231222066696C6C3D223C7061746820643D22 0x4D KECCAK256 CALLDATALOAD BALANCE ORIGIN KECCAK256 ORIGIN CALLDATACOPY ORIGIN KECCAK256 COINBASE KECCAK256 ORIGIN CALLVALUE ADDRESS KECCAK256 ORIGIN CALLVALUE ADDRESS KECCAK256 ADDRESS KECCAK256 ADDRESS KECCAK256 BALANCE KECCAK256 CALLDATALOAD CALLER CALLDATALOAD 0x2E CALLDATALOAD ORIGIN CALLVALUE BALANCE BALANCE CALLER CALLDATASIZE CALLDATACOPY CODECOPY ADDRESS CODECOPY CALLVALUE CALLDATASIZE KECCAK256 ORIGIN CALLDATACOPY CALLER 0x2E BALANCE CALLDATALOAD CALLDATALOAD CALLDATASIZE CALLDATASIZE CALLDATALOAD CALLDATALOAD CODECOPY CODESIZE CALLDATASIZE CALLDATACOPY ORIGIN CALLDATACOPY KECCAK256 0x4C KECCAK256 CALLDATALOAD CALLVALUE CALLER 0x2E CALLER CALLDATASIZE CALLDATALOAD CALLVALUE CODESIZE CALLVALUE CODECOPY ADDRESS CALLDATALOAD CALLVALUE CALLDATALOAD CODECOPY CALLVALUE KECCAK256 BALANCE CODECOPY CALLER 0x2E CALLDATALOAD CALLVALUE ADDRESS CODESIZE CODESIZE CALLDATACOPY CALLVALUE CALLDATASIZE CALLVALUE CODESIZE CODECOPY CALLDATACOPY ADDRESS CALLER KECCAK256 COINBASE KECCAK256 CALLER ORIGIN ADDRESS KECCAK256 CALLER ORIGIN ADDRESS KECCAK256 ADDRESS KECCAK256 ADDRESS KECCAK256 ADDRESS KECCAK256 CALLDATALOAD BALANCE ORIGIN KECCAK256 BALANCE CODECOPY ORIGIN KECCAK256 GAS 0x22 KECCAK256 PUSH20 0x74726F6B653D22626C61636B22207374726F6B65 0x2D PUSH24 0x696474683D2231222066696C6C3D22000000000000000000 "
		},
		"gasEstimates": {
			"creation": {
				"codeDepositCost": "210800",
				"executionCost": "infinite",
				"totalCost": "infinite"
			},
			"external": {
				"prefix(uint256)": "infinite",
				"prefixPtr(uint256)": "2794"
			}
		},
		"methodIdentifiers": {
			"prefix(uint256)": "3c8c014d",
			"prefixPtr(uint256)": "e9ce3274"
		}
	},
	"abi": [
		{
			"inputs": [],
			"stateMutability": "nonpayable",
			"type": "constructor"
		},
		{
			"inputs": [
				{
					"internalType": "uint256",
					"name": "_size",
					"type": "uint256"
				},
				{
					"internalType": "uint256",
					"name": "_start",
					"type": "uint256"
				},
				{
					"internalType": "uint256",
					"name": "_end",
					"type": "uint256"
				}
			],
			"name": "InvalidCodeAtRange",
			"type": "error"
		},
		{
			"inputs": [],
			"name": "WriteError",
			"type": "error"
		},
		{
			"inputs": [
				{
					"internalType": "uint256",
					"name": "i",
					"type": "uint256"
				}
			],
			"name": "prefix",
			"outputs": [
				{
					"internalType": "bytes",
					"name": "",
					"type": "bytes"
				}
			],
			"stateMutability": "view",
			"type": "function"
		},
		{
			"inputs": [
				{
					"internalType": "uint256",
					"name": "",
					"type": "uint256"
				}
			],
			"name": "prefixPtr",
			"outputs": [
				{
					"internalType": "address",
					"name": "",
					"type": "address"
				}
			],
			"stateMutability": "view",
			"type": "function"
		}
	]
}