{
	"data": {
		"bytecode": {
			"linkReferences": {},
			"object": "60a060405234801561000f575f80fd5b506100376040518060600160405280603b8152602001610467603b913961006f60201b60201c565b73ffffffffffffffffffffffffffffffffffffffff1660808173ffffffffffffffffffffffffffffffffffffffff16815250506102fd565b5f8061009f8360405160200161008591906101c8565b60405160208183030381529060405261011660201b60201c565b90508051602082015ff091505f73ffffffffffffffffffffffffffffffffffffffff168273ffffffffffffffffffffffffffffffffffffffff1603610110576040517f08d4abb600000000000000000000000000000000000000000000000000000000815260040160405180910390fd5b50919050565b606081518260405160200161012c9291906102c0565b6040516020818303038152906040529050919050565b5f81905092915050565b5f8082015250565b5f610160600183610142565b915061016b8261014c565b600182019050919050565b5f81519050919050565b5f81905092915050565b8281835e5f83830152505050565b5f6101a282610176565b6101ac8185610180565b93506101bc81856020860161018a565b80840191505092915050565b5f6101d282610154565b91506101de8284610198565b915081905092915050565b7f63000000000000000000000000000000000000000000000000000000000000005f82015250565b5f61021d600183610142565b9150610228826101e9565b600182019050919050565b5f63ffffffff82169050919050565b5f8160e01b9050919050565b5f61025882610242565b9050919050565b61027061026b82610233565b61024e565b82525050565b7f80600e6000396000f300000000000000000000000000000000000000000000005f82015250565b5f6102aa600983610142565b91506102b582610276565b600982019050919050565b5f6102ca82610211565b91506102d6828561025f565b6004820191506102e58261029e565b91506102f18284610198565b91508190509392505050565b60805161014d61031a5f395f818160760152609b015261014d5ff3fe608060405234801561000f575f80fd5b5060043610610034575f3560e01c8063edcf506e14610038578063f566852414610056575b5f80fd5b610040610074565b60405161004d91906100fe565b60405180910390f35b61005e610098565b60405161006b91906100fe565b60405180910390f35b7f000000000000000000000000000000000000000000000000000000000000000081565b5f7f0000000000000000000000000000000000000000000000000000000000000000905090565b5f73ffffffffffffffffffffffffffffffffffffffff82169050919050565b5f6100e8826100bf565b9050919050565b6100f8816100de565b82525050565b5f6020820190506101115f8301846100ef565b9291505056fea26469706673582212201fce20c60d572f0a2d9cb22f216c26e2fcbb647685fd4850c02f5007d336991964736f6c634300081a00330a20203c636972636c652063783d22323530222063793d223235302220723d22313030222066696c6c3d22626c61636b22202f3e0a3c2f7376673e",
			"opcodes": "PUSH1 0xA0 PUSH1 0x40 MSTORE CALLVALUE DUP1 ISZERO PUSH2 0xF JUMPI PUSH0 DUP1 REVERT JUMPDEST POP PUSH2 0x37 PUSH1 0x40 MLOAD DUP1 PUSH1 0x60 ADD PUSH1 0x40 MSTORE DUP1 PUSH1 0x3B DUP2 MSTORE PUSH1 0x20 ADD PUSH2 0x467 PUSH1 0x3B SWAP2 CODECOPY PUSH2 0x6F PUSH1 0x20 SHL PUSH1 0x20 SHR JUMP JUMPDEST PUSH20 0xFFFFFFFFFFFFFFFFFFFFFFFFFFFFFFFFFFFFFFFF AND PUSH1 0x80 DUP2 PUSH20 0xFFFFFFFFFFFFFFFFFFFFFFFFFFFFFFFFFFFFFFFF AND DUP2 MSTORE POP POP PUSH2 0x2FD JUMP JUMPDEST PUSH0 DUP1 PUSH2 0x9F DUP4 PUSH1 0x40 MLOAD PUSH1 0x20 ADD PUSH2 0x85 SWAP2 SWAP1 PUSH2 0x1C8 JUMP JUMPDEST PUSH1 0x40 MLOAD PUSH1 0x20 DUP2 DUP4 SUB SUB DUP2 MSTORE SWAP1 PUSH1 0x40 MSTORE PUSH2 0x116 PUSH1 0x20 SHL PUSH1 0x20 SHR JUMP JUMPDEST SWAP1 POP DUP1 MLOAD PUSH1 0x20 DUP3 ADD PUSH0 CREATE SWAP2 POP PUSH0 PUSH20 0xFFFFFFFFFFFFFFFFFFFFFFFFFFFFFFFFFFFFFFFF AND DUP3 PUSH20 0xFFFFFFFFFFFFFFFFFFFFFFFFFFFFFFFFFFFFFFFF AND SUB PUSH2 0x110 JUMPI PUSH1 0x40 MLOAD PUSH32 0x8D4ABB600000000000000000000000000000000000000000000000000000000 DUP2 MSTORE PUSH1 0x4 ADD PUSH1 0x40 MLOAD DUP1 SWAP2 SUB SWAP1 REVERT JUMPDEST POP SWAP2 SWAP1 POP JUMP JUMPDEST PUSH1 0x60 DUP2 MLOAD DUP3 PUSH1 0x40 MLOAD PUSH1 0x20 ADD PUSH2 0x12C SWAP3 SWAP2 SWAP1 PUSH2 0x2C0 JUMP JUMPDEST PUSH1 0x40 MLOAD PUSH1 0x20 DUP2 DUP4 SUB SUB DUP2 MSTORE SWAP1 PUSH1 0x40 MSTORE SWAP1 POP SWAP2 SWAP1 POP JUMP JUMPDEST PUSH0 DUP2 SWAP1 POP SWAP3 SWAP2 POP POP JUMP JUMPDEST PUSH0 DUP1 DUP3 ADD MSTORE POP JUMP JUMPDEST PUSH0 PUSH2 0x160 PUSH1 0x1 DUP4 PUSH2 0x142 JUMP JUMPDEST SWAP2 POP PUSH2 0x16B DUP3 PUSH2 0x14C JUMP JUMPDEST PUSH1 0x1 DUP3 ADD SWAP1 POP SWAP2 SWAP1 POP JUMP JUMPDEST PUSH0 DUP2 MLOAD SWAP1 POP SWAP2 SWAP1 POP JUMP JUMPDEST PUSH0 DUP2 SWAP1 POP SWAP3 SWAP2 POP POP JUMP JUMPDEST DUP3 DUP2 DUP4 MCOPY PUSH0 DUP4 DUP4 ADD MSTORE POP POP POP JUMP JUMPDEST PUSH0 PUSH2 0x1A2 DUP3 PUSH2 0x176 JUMP JUMPDEST PUSH2 0x1AC DUP2 DUP6 PUSH2 0x180 JUMP JUMPDEST SWAP4 POP PUSH2 0x1BC DUP2 DUP6 PUSH1 0x20 DUP7 ADD PUSH2 0x18A JUMP JUMPDEST DUP1 DUP5 ADD SWAP2 POP POP SWAP3 SWAP2 POP POP JUMP JUMPDEST PUSH0 PUSH2 0x1D2 DUP3 PUSH2 0x154 JUMP JUMPDEST SWAP2 POP PUSH2 0x1DE DUP3 DUP5 PUSH2 0x198 JUMP JUMPDEST SWAP2 POP DUP2 SWAP1 POP SWAP3 SWAP2 POP POP JUMP JUMPDEST PUSH32 0x6300000000000000000000000000000000000000000000000000000000000000 PUSH0 DUP3 ADD MSTORE POP JUMP JUMPDEST PUSH0 PUSH2 0x21D PUSH1 0x1 DUP4 PUSH2 0x142 JUMP JUMPDEST SWAP2 POP PUSH2 0x228 DUP3 PUSH2 0x1E9 JUMP JUMPDEST PUSH1 0x1 DUP3 ADD SWAP1 POP SWAP2 SWAP1 POP JUMP JUMPDEST PUSH0 PUSH4 0xFFFFFFFF DUP3 AND SWAP1 POP SWAP2 SWAP1 POP JUMP JUMPDEST PUSH0 DUP2 PUSH1 0xE0 SHL SWAP1 POP SWAP2 SWAP1 POP JUMP JUMPDEST PUSH0 PUSH2 0x258 DUP3 PUSH2 0x242 JUMP JUMPDEST SWAP1 POP SWAP2 SWAP1 POP JUMP JUMPDEST PUSH2 0x270 PUSH2 0x26B DUP3 PUSH2 0x233 JUMP JUMPDEST PUSH2 0x24E JUMP JUMPDEST DUP3 MSTORE POP POP JUMP JUMPDEST PUSH32 0x80600E6000396000F30000000000000000000000000000000000000000000000 PUSH0 DUP3 ADD MSTORE POP JUMP JUMPDEST PUSH0 PUSH2 0x2AA PUSH1 0x9 DUP4 PUSH2 0x142 JUMP JUMPDEST SWAP2 POP PUSH2 0x2B5 DUP3 PUSH2 0x276 JUMP JUMPDEST PUSH1 0x9 DUP3 ADD SWAP1 POP SWAP2 SWAP1 POP JUMP JUMPDEST PUSH0 PUSH2 0x2CA DUP3 PUSH2 0x211 JUMP JUMPDEST SWAP2 POP PUSH2 0x2D6 DUP3 DUP6 PUSH2 0x25F JUMP JUMPDEST PUSH1 0x4 DUP3 ADD SWAP2 POP PUSH2 0x2E5 DUP3 PUSH2 0x29E JUMP JUMPDEST SWAP2 POP PUSH2 0x2F1 DUP3 DUP5 PUSH2 0x198 JUMP JUMPDEST SWAP2 POP DUP2 SWAP1 POP SWAP4 SWAP3 POP POP POP JUMP JUMPDEST PUSH1 0x80 MLOAD PUSH2 0x14D PUSH2 0x31A PUSH0 CODECOPY PUSH0 DUP2 DUP2 PUSH1 0x76 ADD MSTORE PUSH1 0x9B ADD MSTORE PUSH2 0x14D PUSH0 RETURN INVALID PUSH1 0x80 PUSH1 0x40 MSTORE CALLVALUE DUP1 ISZERO PUSH2 0xF JUMPI PUSH0 DUP1 REVERT JUMPDEST POP PUSH1 0x4 CALLDATASIZE LT PUSH2 0x34 JUMPI PUSH0 CALLDATALOAD PUSH1 0xE0 SHR DUP1 PUSH4 0xEDCF506E EQ PUSH2 0x38 JUMPI DUP1 PUSH4 0xF5668524 EQ PUSH2 0x56 JUMPI JUMPDEST PUSH0 DUP1 REVERT JUMPDEST PUSH2 0x40 PUSH2 0x74 JUMP JUMPDEST PUSH1 0x40 MLOAD PUSH2 0x4D SWAP2 SWAP1 PUSH2 0xFE JUMP JUMPDEST PUSH1 0x40 MLOAD DUP1 SWAP2 SUB SWAP1 RETURN JUMPDEST PUSH2 0x5E PUSH2 0x98 JUMP JUMPDEST PUSH1 0x40 MLOAD PUSH2 0x6B SWAP2 SWAP1 PUSH2 0xFE JUMP JUMPDEST PUSH1 0x40 MLOAD DUP1 SWAP2 SUB SWAP1 RETURN JUMPDEST PUSH32 0x0 DUP2 JUMP JUMPDEST PUSH0 PUSH32 0x0 SWAP1 POP SWAP1 JUMP JUMPDEST PUSH0 PUSH20 0xFFFFFFFFFFFFFFFFFFFFFFFFFFFFFFFFFFFFFFFF DUP3 AND SWAP1 POP SWAP2 SWAP1 POP JUMP JUMPDEST PUSH0 PUSH2 0xE8 DUP3 PUSH2 0xBF JUMP JUMPDEST SWAP1 POP SWAP2 SWAP1 POP JUMP JUMPDEST PUSH2 0xF8 DUP2 PUSH2 0xDE JUMP JUMPDEST DUP3 MSTORE POP POP JUMP JUMPDEST PUSH0 PUSH1 0x20 DUP3 ADD SWAP1 POP PUSH2 0x111 PUSH0 DUP4 ADD DUP5 PUSH2 0xEF JUMP JUMPDEST SWAP3 SWAP2 POP POP JUMP INVALID LOG2 PUSH5 0x6970667358 0x22 SLT KECCAK256 0x1F 0xCE KECCAK256 0xC6 0xD JUMPI 0x2F EXP 0x2D SWAP13 0xB2 0x2F 0x21 PUSH13 0x26E2FCBB647685FD4850C02F50 SMOD 0xD3 CALLDATASIZE SWAP10 NOT PUSH5 0x736F6C6343 STOP ADDMOD BYTE STOP CALLER EXP KECCAK256 KECCAK256 EXTCODECOPY PUSH4 0x6972636C PUSH6 0x2063783D2232 CALLDATALOAD ADDRESS 0x22 KECCAK256 PUSH4 0x793D2232 CALLDATALOAD ADDRESS 0x22 KECCAK256 PUSH19 0x3D22313030222066696C6C3D22626C61636B22 KECCAK256 0x2F RETURNDATACOPY EXP EXTCODECOPY 0x2F PUSH20 0x76673E0000000000000000000000000000000000 "
		},
		"gasEstimates": {
			"creation": {
				"codeDepositCost": "66600",
				"executionCost": "infinite",
				"totalCost": "infinite"
			},
			"external": {
				"getChunk()": "infinite",
				"svgChunk2()": "infinite"
			}
		},
		"methodIdentifiers": {
			"getChunk()": "f5668524",
			"svgChunk2()": "edcf506e"
		}
	},
	"abi": [
		{
			"inputs": [],
			"stateMutability": "nonpayable",
			"type": "constructor"
		},
		{
			"inputs": [],
			"name": "WriteError",
			"type": "error"
		},
		{
			"inputs": [],
			"name": "getChunk",
			"outputs": [
				{
					"internalType": "address",
					"name": "",
					"type": "address"
				}
			],
			"stateMutability": "view",
			"type": "function"
		},
		{
			"inputs": [],
			"name": "svgChunk2",
			"outputs": [
				{
					"internalType": "address",
					"name": "",
					"type": "address"
				}
			],
			"stateMutability": "view",
			"type": "function"
		}
	]
}