{
	"data": {
		"bytecode": {
			"linkReferences": {},
			"object": "60a060405234801561000f575f80fd5b50604051610db3380380610db3833981810160405281019061003191906100c9565b8073ffffffffffffffffffffffffffffffffffffffff1660808173ffffffffffffffffffffffffffffffffffffffff1681525050506100f4565b5f80fd5b5f73ffffffffffffffffffffffffffffffffffffffff82169050919050565b5f6100988261006f565b9050919050565b6100a88161008e565b81146100b2575f80fd5b50565b5f815190506100c38161009f565b92915050565b5f602082840312156100de576100dd61006b565b5b5f6100eb848285016100b5565b91505092915050565b608051610ca761010c5f395f6101b40152610ca75ff3fe608060405234801561000f575f80fd5b5060043610610034575f3560e01c8063489187e8146100385780635d239d3e14610056575b5f80fd5b610040610086565b60405161004d9190610650565b60405180910390f35b610070600480360381019061006b91906106b4565b610098565b60405161007d9190610650565b60405180910390f35b60606100935f6040610098565b905090565b6060604082111580156100aa57508183105b6100e9576040517f08c379a00000000000000000000000000000000000000000000000000000000081526004016100e09061073c565b60405180910390fd5b60605f8490505b838110156103f8575f6115f9826101079190610787565b9050826040518060400160405280601581526020017f3c67207472616e73666f726d3d22726f7461746528000000000000000000000081525061014983610403565b6040518060400160405280600b81526020017f203531322035313229223e000000000000000000000000000000000000000000815250604051602001610192949392919061080c565b60405160208183030381529060405292505f5b60048160ff161015610392575f7f000000000000000000000000000000000000000000000000000000000000000073ffffffffffffffffffffffffffffffffffffffff16633c8c014d836040518263ffffffff1660e01b815260040161020b919061088e565b5f60405180830381865afa158015610225573d5f803e3d5ffd5b505050506040513d5f823e3d601f19601f8201168201806040525081019061024d91906109c5565b90505f6001808460036102609190610a0c565b60ff16600488603f6102729190610a40565b61027c9190610787565b6102869190610a73565b7faaaaaaaaaaaaaaaaaaaaaaaaaaaaaaaaaaaaaaaaaaaaaaaaaaaaaaaaaaaaaaaa901c161490505f816102ee576040518060400160405280600781526020017f2366666666666600000000000000000000000000000000000000000000000000815250610325565b6040518060400160405280600781526020017f23303030303030000000000000000000000000000000000000000000000000008152505b90508683826040518060400160405280600381526020017f222f3e0000000000000000000000000000000000000000000000000000000000815250604051602001610373949392919061080c565b60405160208183030381529060405296505050508060010190506101a5565b50826040518060400160405280600481526020017f3c2f673e000000000000000000000000000000000000000000000000000000008152506040516020016103db929190610aa6565b6040516020818303038152906040529250508060010190506100f0565b508091505092915050565b60605f6103e8836104149190610af6565b90505f6103e8846104259190610b26565b90505f810361044057610437826104b7565b925050506104b2565b5f600390505b5f600a836104549190610b26565b0361047957600a826104669190610af6565b91508061047290610b56565b9050610446565b610482836104b7565b61048c838361050d565b60405160200161049d929190610bd1565b60405160208183030381529060405293505050505b919050565b60605f82146104cf576104ca825f61050d565b610506565b6040518060400160405280600181526020017f30000000000000000000000000000000000000000000000000000000000000008152505b9050919050565b6060805f5b8360ff168160ff16101561057957600a8561052d9190610b26565b60306105399190610a73565b60f81b8260405160200161054e929190610c4a565b6040516020818303038152906040529150600a8561056c9190610af6565b9450806001019050610512565b505b5f8411156105d657600a846105909190610b26565b603061059c9190610a73565b60f81b816040516020016105b1929190610c4a565b6040516020818303038152906040529050600a846105cf9190610af6565b935061057b565b8091505092915050565b5f81519050919050565b5f82825260208201905092915050565b8281835e5f83830152505050565b5f601f19601f8301169050919050565b5f610622826105e0565b61062c81856105ea565b935061063c8185602086016105fa565b61064581610608565b840191505092915050565b5f6020820190508181035f8301526106688184610618565b905092915050565b5f604051905090565b5f80fd5b5f80fd5b5f819050919050565b61069381610681565b811461069d575f80fd5b50565b5f813590506106ae8161068a565b92915050565b5f80604083850312156106ca576106c9610679565b5b5f6106d7858286016106a0565b92505060206106e8858286016106a0565b9150509250929050565b7f6261642072616e676500000000000000000000000000000000000000000000005f82015250565b5f6107266009836105ea565b9150610731826106f2565b602082019050919050565b5f6020820190508181035f8301526107538161071a565b9050919050565b7f4e487b71000000000000000000000000000000000000000000000000000000005f52601160045260245ffd5b5f61079182610681565b915061079c83610681565b92508282026107aa81610681565b915082820484148315176107c1576107c061075a565b5b5092915050565b5f81519050919050565b5f81905092915050565b5f6107e6826107c8565b6107f081856107d2565b93506108008185602086016105fa565b80840191505092915050565b5f61081782876107dc565b915061082382866107dc565b915061082f82856107dc565b915061083b82846107dc565b915081905095945050505050565b5f60ff82169050919050565b5f819050919050565b5f61087861087361086e84610849565b610855565b610681565b9050919050565b6108888161085e565b82525050565b5f6020820190506108a15f83018461087f565b92915050565b5f80fd5b5f80fd5b7f4e487b71000000000000000000000000000000000000000000000000000000005f52604160045260245ffd5b6108e582610608565b810181811067ffffffffffffffff82111715610904576109036108af565b5b80604052505050565b5f610916610670565b905061092282826108dc565b919050565b5f67ffffffffffffffff821115610941576109406108af565b5b61094a82610608565b9050602081019050919050565b5f61096961096484610927565b61090d565b905082815260208101848484011115610985576109846108ab565b5b6109908482856105fa565b509392505050565b5f82601f8301126109ac576109ab6108a7565b5b81516109bc848260208601610957565b91505092915050565b5f602082840312156109da576109d9610679565b5b5f82015167ffffffffffffffff8111156109f7576109f661067d565b5b610a0384828501610998565b91505092915050565b5f610a1682610849565b9150610a2183610849565b9250828203905060ff811115610a3a57610a3961075a565b5b92915050565b5f610a4a82610681565b9150610a5583610681565b9250828203905081811115610a6d57610a6c61075a565b5b92915050565b5f610a7d82610681565b9150610a8883610681565b9250828201905080821115610aa057610a9f61075a565b5b92915050565b5f610ab182856107dc565b9150610abd82846107dc565b91508190509392505050565b7f4e487b71000000000000000000000000000000000000000000000000000000005f52601260045260245ffd5b5f610b0082610681565b9150610b0b83610681565b925082610b1b57610b1a610ac9565b5b828204905092915050565b5f610b3082610681565b9150610b3b83610681565b925082610b4b57610b4a610ac9565b5b828206905092915050565b5f610b6082610849565b91505f8203610b7257610b7161075a565b5b600182039050919050565b5f81905092915050565b7f2e000000000000000000000000000000000000000000000000000000000000005f82015250565b5f610bbb600183610b7d565b9150610bc682610b87565b600182019050919050565b5f610bdc82856107dc565b9150610be782610baf565b9150610bf382846107dc565b91508190509392505050565b5f7fff0000000000000000000000000000000000000000000000000000000000000082169050919050565b5f819050919050565b610c44610c3f82610bff565b610c2a565b82525050565b5f610c558285610c33565b600182019150610c6582846107dc565b9150819050939250505056fea26469706673582212204060e992427476924838dedb53553081d67fb9743dfe93dc5ffbf2133f1c243064736f6c634300081a0033",
			"opcodes": "PUSH1 0xA0 PUSH1 0x40 MSTORE CALLVALUE DUP1 ISZERO PUSH2 0xF JUMPI PUSH0 DUP1 REVERT JUMPDEST POP PUSH1 0x40 MLOAD PUSH2 0xDB3 CODESIZE SUB DUP1 PUSH2 0xDB3 DUP4 CODECOPY DUP2 DUP2 ADD PUSH1 0x40 MSTORE DUP2 ADD SWAP1 PUSH2 0x31 SWAP2 SWAP1 PUSH2 0xC9 JUMP JUMPDEST DUP1 PUSH20 0xFFFFFFFFFFFFFFFFFFFFFFFFFFFFFFFFFFFFFFFF AND PUSH1 0x80 DUP2 PUSH20 0xFFFFFFFFFFFFFFFFFFFFFFFFFFFFFFFFFFFFFFFF AND DUP2 MSTORE POP POP POP PUSH2 0xF4 JUMP JUMPDEST PUSH0 DUP1 REVERT JUMPDEST PUSH0 PUSH20 0xFFFFFFFFFFFFFFFFFFFFFFFFFFFFFFFFFFFFFFFF DUP3 AND SWAP1 POP SWAP2 SWAP1 POP JUMP JUMPDEST PUSH0 PUSH2 0x98 DUP3 PUSH2 0x6F JUMP JUMPDEST SWAP1 POP SWAP2 SWAP1 POP JUMP JUMPDEST PUSH2 0xA8 DUP2 PUSH2 0x8E JUMP JUMPDEST DUP2 EQ PUSH2 0xB2 JUMPI PUSH0 DUP1 REVERT JUMPDEST POP JUMP JUMPDEST PUSH0 DUP2 MLOAD SWAP1 POP PUSH2 0xC3 DUP2 PUSH2 0x9F JUMP JUMPDEST SWAP3 SWAP2 POP POP JUMP JUMPDEST PUSH0 PUSH1 0x20 DUP3 DUP5 SUB SLT ISZERO PUSH2 0xDE JUMPI PUSH2 0xDD PUSH2 0x6B JUMP JUMPDEST JUMPDEST PUSH0 PUSH2 0xEB DUP5 DUP3 DUP6 ADD PUSH2 0xB5 JUMP JUMPDEST SWAP2 POP POP SWAP3 SWAP2 POP POP JUMP JUMPDEST PUSH1 0x80 MLOAD PUSH2 0xCA7 PUSH2 0x10C PUSH0 CODECOPY PUSH0 PUSH2 0x1B4 ADD MSTORE PUSH2 0xCA7 PUSH0 RETURN INVALID PUSH1 0x80 PUSH1 0x40 MSTORE CALLVALUE DUP1 ISZERO PUSH2 0xF JUMPI PUSH0 DUP1 REVERT JUMPDEST POP PUSH1 0x4 CALLDATASIZE LT PUSH2 0x34 JUMPI PUSH0 CALLDATALOAD PUSH1 0xE0 SHR DUP1 PUSH4 0x489187E8 EQ PUSH2 0x38 JUMPI DUP1 PUSH4 0x5D239D3E EQ PUSH2 0x56 JUMPI JUMPDEST PUSH0 DUP1 REVERT JUMPDEST PUSH2 0x40 PUSH2 0x86 JUMP JUMPDEST PUSH1 0x40 MLOAD PUSH2 0x4D SWAP2 SWAP1 PUSH2 0x650 JUMP JUMPDEST PUSH1 0x40 MLOAD DUP1 SWAP2 SUB SWAP1 RETURN JUMPDEST PUSH2 0x70 PUSH1 0x4 DUP1 CALLDATASIZE SUB DUP2 ADD SWAP1 PUSH2 0x6B SWAP2 SWAP1 PUSH2 0x6B4 JUMP JUMPDEST PUSH2 0x98 JUMP JUMPDEST PUSH1 0x40 MLOAD PUSH2 0x7D SWAP2 SWAP1 PUSH2 0x650 JUMP JUMPDEST PUSH1 0x40 MLOAD DUP1 SWAP2 SUB SWAP1 RETURN JUMPDEST PUSH1 0x60 PUSH2 0x93 PUSH0 PUSH1 0x40 PUSH2 0x98 JUMP JUMPDEST SWAP1 POP SWAP1 JUMP JUMPDEST PUSH1 0x60 PUSH1 0x40 DUP3 GT ISZERO DUP1 ISZERO PUSH2 0xAA JUMPI POP DUP2 DUP4 LT JUMPDEST PUSH2 0xE9 JUMPI PUSH1 0x40 MLOAD PUSH32 0x8C379A000000000000000000000000000000000000000000000000000000000 DUP2 MSTORE PUSH1 0x4 ADD PUSH2 0xE0 SWAP1 PUSH2 0x73C JUMP JUMPDEST PUSH1 0x40 MLOAD DUP1 SWAP2 SUB SWAP1 REVERT JUMPDEST PUSH1 0x60 PUSH0 DUP5 SWAP1 POP JUMPDEST DUP4 DUP2 LT ISZERO PUSH2 0x3F8 JUMPI PUSH0 PUSH2 0x15F9 DUP3 PUSH2 0x107 SWAP2 SWAP1 PUSH2 0x787 JUMP JUMPDEST SWAP1 POP DUP3 PUSH1 0x40 MLOAD DUP1 PUSH1 0x40 ADD PUSH1 0x40 MSTORE DUP1 PUSH1 0x15 DUP2 MSTORE PUSH1 0x20 ADD PUSH32 0x3C67207472616E73666F726D3D22726F74617465280000000000000000000000 DUP2 MSTORE POP PUSH2 0x149 DUP4 PUSH2 0x403 JUMP JUMPDEST PUSH1 0x40 MLOAD DUP1 PUSH1 0x40 ADD PUSH1 0x40 MSTORE DUP1 PUSH1 0xB DUP2 MSTORE PUSH1 0x20 ADD PUSH32 0x203531322035313229223E000000000000000000000000000000000000000000 DUP2 MSTORE POP PUSH1 0x40 MLOAD PUSH1 0x20 ADD PUSH2 0x192 SWAP5 SWAP4 SWAP3 SWAP2 SWAP1 PUSH2 0x80C JUMP JUMPDEST PUSH1 0x40 MLOAD PUSH1 0x20 DUP2 DUP4 SUB SUB DUP2 MSTORE SWAP1 PUSH1 0x40 MSTORE SWAP3 POP PUSH0 JUMPDEST PUSH1 0x4 DUP2 PUSH1 0xFF AND LT ISZERO PUSH2 0x392 JUMPI PUSH0 PUSH32 0x0 PUSH20 0xFFFFFFFFFFFFFFFFFFFFFFFFFFFFFFFFFFFFFFFF AND PUSH4 0x3C8C014D DUP4 PUSH1 0x40 MLOAD DUP3 PUSH4 0xFFFFFFFF AND PUSH1 0xE0 SHL DUP2 MSTORE PUSH1 0x4 ADD PUSH2 0x20B SWAP2 SWAP1 PUSH2 0x88E JUMP JUMPDEST PUSH0 PUSH1 0x40 MLOAD DUP1 DUP4 SUB DUP2 DUP7 GAS STATICCALL ISZERO DUP1 ISZERO PUSH2 0x225 JUMPI RETURNDATASIZE PUSH0 DUP1 RETURNDATACOPY RETURNDATASIZE PUSH0 REVERT JUMPDEST POP POP POP POP PUSH1 0x40 MLOAD RETURNDATASIZE PUSH0 DUP3 RETURNDATACOPY RETURNDATASIZE PUSH1 0x1F NOT PUSH1 0x1F DUP3 ADD AND DUP3 ADD DUP1 PUSH1 0x40 MSTORE POP DUP2 ADD SWAP1 PUSH2 0x24D SWAP2 SWAP1 PUSH2 0x9C5 JUMP JUMPDEST SWAP1 POP PUSH0 PUSH1 0x1 DUP1 DUP5 PUSH1 0x3 PUSH2 0x260 SWAP2 SWAP1 PUSH2 0xA0C JUMP JUMPDEST PUSH1 0xFF AND PUSH1 0x4 DUP9 PUSH1 0x3F PUSH2 0x272 SWAP2 SWAP1 PUSH2 0xA40 JUMP JUMPDEST PUSH2 0x27C SWAP2 SWAP1 PUSH2 0x787 JUMP JUMPDEST PUSH2 0x286 SWAP2 SWAP1 PUSH2 0xA73 JUMP JUMPDEST PUSH32 0xAAAAAAAAAAAAAAAAAAAAAAAAAAAAAAAAAAAAAAAAAAAAAAAAAAAAAAAAAAAAAAAA SWAP1 SHR AND EQ SWAP1 POP PUSH0 DUP2 PUSH2 0x2EE JUMPI PUSH1 0x40 MLOAD DUP1 PUSH1 0x40 ADD PUSH1 0x40 MSTORE DUP1 PUSH1 0x7 DUP2 MSTORE PUSH1 0x20 ADD PUSH32 0x2366666666666600000000000000000000000000000000000000000000000000 DUP2 MSTORE POP PUSH2 0x325 JUMP JUMPDEST PUSH1 0x40 MLOAD DUP1 PUSH1 0x40 ADD PUSH1 0x40 MSTORE DUP1 PUSH1 0x7 DUP2 MSTORE PUSH1 0x20 ADD PUSH32 0x2330303030303000000000000000000000000000000000000000000000000000 DUP2 MSTORE POP JUMPDEST SWAP1 POP DUP7 DUP4 DUP3 PUSH1 0x40 MLOAD DUP1 PUSH1 0x40 ADD PUSH1 0x40 MSTORE DUP1 PUSH1 0x3 DUP2 MSTORE PUSH1 0x20 ADD PUSH32 0x222F3E0000000000000000000000000000000000000000000000000000000000 DUP2 MSTORE POP PUSH1 0x40 MLOAD PUSH1 0x20 ADD PUSH2 0x373 SWAP5 SWAP4 SWAP3 SWAP2 SWAP1 PUSH2 0x80C JUMP JUMPDEST PUSH1 0x40 MLOAD PUSH1 0x20 DUP2 DUP4 SUB SUB DUP2 MSTORE SWAP1 PUSH1 0x40 MSTORE SWAP7 POP POP POP POP DUP1 PUSH1 0x1 ADD SWAP1 POP PUSH2 0x1A5 JUMP JUMPDEST POP DUP3 PUSH1 0x40 MLOAD DUP1 PUSH1 0x40 ADD PUSH1 0x40 MSTORE DUP1 PUSH1 0x4 DUP2 MSTORE PUSH1 0x20 ADD PUSH32 0x3C2F673E00000000000000000000000000000000000000000000000000000000 DUP2 MSTORE POP PUSH1 0x40 MLOAD PUSH1 0x20 ADD PUSH2 0x3DB SWAP3 SWAP2 SWAP1 PUSH2 0xAA6 JUMP JUMPDEST PUSH1 0x40 MLOAD PUSH1 0x20 DUP2 DUP4 SUB SUB DUP2 MSTORE SWAP1 PUSH1 0x40 MSTORE SWAP3 POP POP DUP1 PUSH1 0x1 ADD SWAP1 POP PUSH2 0xF0 JUMP JUMPDEST POP DUP1 SWAP2 POP POP SWAP3 SWAP2 POP POP JUMP JUMPDEST PUSH1 0x60 PUSH0 PUSH2 0x3E8 DUP4 PUSH2 0x414 SWAP2 SWAP1 PUSH2 0xAF6 JUMP JUMPDEST SWAP1 POP PUSH0 PUSH2 0x3E8 DUP5 PUSH2 0x425 SWAP2 SWAP1 PUSH2 0xB26 JUMP JUMPDEST SWAP1 POP PUSH0 DUP2 SUB PUSH2 0x440 JUMPI PUSH2 0x437 DUP3 PUSH2 0x4B7 JUMP JUMPDEST SWAP3 POP POP POP PUSH2 0x4B2 JUMP JUMPDEST PUSH0 PUSH1 0x3 SWAP1 POP JUMPDEST PUSH0 PUSH1 0xA DUP4 PUSH2 0x454 SWAP2 SWAP1 PUSH2 0xB26 JUMP JUMPDEST SUB PUSH2 0x479 JUMPI PUSH1 0xA DUP3 PUSH2 0x466 SWAP2 SWAP1 PUSH2 0xAF6 JUMP JUMPDEST SWAP2 POP DUP1 PUSH2 0x472 SWAP1 PUSH2 0xB56 JUMP JUMPDEST SWAP1 POP PUSH2 0x446 JUMP JUMPDEST PUSH2 0x482 DUP4 PUSH2 0x4B7 JUMP JUMPDEST PUSH2 0x48C DUP4 DUP4 PUSH2 0x50D JUMP JUMPDEST PUSH1 0x40 MLOAD PUSH1 0x20 ADD PUSH2 0x49D SWAP3 SWAP2 SWAP1 PUSH2 0xBD1 JUMP JUMPDEST PUSH1 0x40 MLOAD PUSH1 0x20 DUP2 DUP4 SUB SUB DUP2 MSTORE SWAP1 PUSH1 0x40 MSTORE SWAP4 POP POP POP POP JUMPDEST SWAP2 SWAP1 POP JUMP JUMPDEST PUSH1 0x60 PUSH0 DUP3 EQ PUSH2 0x4CF JUMPI PUSH2 0x4CA DUP3 PUSH0 PUSH2 0x50D JUMP JUMPDEST PUSH2 0x506 JUMP JUMPDEST PUSH1 0x40 MLOAD DUP1 PUSH1 0x40 ADD PUSH1 0x40 MSTORE DUP1 PUSH1 0x1 DUP2 MSTORE PUSH1 0x20 ADD PUSH32 0x3000000000000000000000000000000000000000000000000000000000000000 DUP2 MSTORE POP JUMPDEST SWAP1 POP SWAP2 SWAP1 POP JUMP JUMPDEST PUSH1 0x60 DUP1 PUSH0 JUMPDEST DUP4 PUSH1 0xFF AND DUP2 PUSH1 0xFF AND LT ISZERO PUSH2 0x579 JUMPI PUSH1 0xA DUP6 PUSH2 0x52D SWAP2 SWAP1 PUSH2 0xB26 JUMP JUMPDEST PUSH1 0x30 PUSH2 0x539 SWAP2 SWAP1 PUSH2 0xA73 JUMP JUMPDEST PUSH1 0xF8 SHL DUP3 PUSH1 0x40 MLOAD PUSH1 0x20 ADD PUSH2 0x54E SWAP3 SWAP2 SWAP1 PUSH2 0xC4A JUMP JUMPDEST PUSH1 0x40 MLOAD PUSH1 0x20 DUP2 DUP4 SUB SUB DUP2 MSTORE SWAP1 PUSH1 0x40 MSTORE SWAP2 POP PUSH1 0xA DUP6 PUSH2 0x56C SWAP2 SWAP1 PUSH2 0xAF6 JUMP JUMPDEST SWAP5 POP DUP1 PUSH1 0x1 ADD SWAP1 POP PUSH2 0x512 JUMP JUMPDEST POP JUMPDEST PUSH0 DUP5 GT ISZERO PUSH2 0x5D6 JUMPI PUSH1 0xA DUP5 PUSH2 0x590 SWAP2 SWAP1 PUSH2 0xB26 JUMP JUMPDEST PUSH1 0x30 PUSH2 0x59C SWAP2 SWAP1 PUSH2 0xA73 JUMP JUMPDEST PUSH1 0xF8 SHL DUP2 PUSH1 0x40 MLOAD PUSH1 0x20 ADD PUSH2 0x5B1 SWAP3 SWAP2 SWAP1 PUSH2 0xC4A JUMP JUMPDEST PUSH1 0x40 MLOAD PUSH1 0x20 DUP2 DUP4 SUB SUB DUP2 MSTORE SWAP1 PUSH1 0x40 MSTORE SWAP1 POP PUSH1 0xA DUP5 PUSH2 0x5CF SWAP2 SWAP1 PUSH2 0xAF6 JUMP JUMPDEST SWAP4 POP PUSH2 0x57B JUMP JUMPDEST DUP1 SWAP2 POP POP SWAP3 SWAP2 POP POP JUMP JUMPDEST PUSH0 DUP2 MLOAD SWAP1 POP SWAP2 SWAP1 POP JUMP JUMPDEST PUSH0 DUP3 DUP3 MSTORE PUSH1 0x20 DUP3 ADD SWAP1 POP SWAP3 SWAP2 POP POP JUMP JUMPDEST DUP3 DUP2 DUP4 MCOPY PUSH0 DUP4 DUP4 ADD MSTORE POP POP POP JUMP JUMPDEST PUSH0 PUSH1 0x1F NOT PUSH1 0x1F DUP4 ADD AND SWAP1 POP SWAP2 SWAP1 POP JUMP JUMPDEST PUSH0 PUSH2 0x622 DUP3 PUSH2 0x5E0 JUMP JUMPDEST PUSH2 0x62C DUP2 DUP6 PUSH2 0x5EA JUMP JUMPDEST SWAP4 POP PUSH2 0x63C DUP2 DUP6 PUSH1 0x20 DUP7 ADD PUSH2 0x5FA JUMP JUMPDEST PUSH2 0x645 DUP2 PUSH2 0x608 JUMP JUMPDEST DUP5 ADD SWAP2 POP POP SWAP3 SWAP2 POP POP JUMP JUMPDEST PUSH0 PUSH1 0x20 DUP3 ADD SWAP1 POP DUP2 DUP2 SUB PUSH0 DUP4 ADD MSTORE PUSH2 0x668 DUP2 DUP5 PUSH2 0x618 JUMP JUMPDEST SWAP1 POP SWAP3 SWAP2 POP POP JUMP JUMPDEST PUSH0 PUSH1 0x40 MLOAD SWAP1 POP SWAP1 JUMP JUMPDEST PUSH0 DUP1 REVERT JUMPDEST PUSH0 DUP1 REVERT JUMPDEST PUSH0 DUP2 SWAP1 POP SWAP2 SWAP1 POP JUMP JUMPDEST PUSH2 0x693 DUP2 PUSH2 0x681 JUMP JUMPDEST DUP2 EQ PUSH2 0x69D JUMPI PUSH0 DUP1 REVERT JUMPDEST POP JUMP JUMPDEST PUSH0 DUP2 CALLDATALOAD SWAP1 POP PUSH2 0x6AE DUP2 PUSH2 0x68A JUMP JUMPDEST SWAP3 SWAP2 POP POP JUMP JUMPDEST PUSH0 DUP1 PUSH1 0x40 DUP4 DUP6 SUB SLT ISZERO PUSH2 0x6CA JUMPI PUSH2 0x6C9 PUSH2 0x679 JUMP JUMPDEST JUMPDEST PUSH0 PUSH2 0x6D7 DUP6 DUP3 DUP7 ADD PUSH2 0x6A0 JUMP JUMPDEST SWAP3 POP POP PUSH1 0x20 PUSH2 0x6E8 DUP6 DUP3 DUP7 ADD PUSH2 0x6A0 JUMP JUMPDEST SWAP2 POP POP SWAP3 POP SWAP3 SWAP1 POP JUMP JUMPDEST PUSH32 0x6261642072616E67650000000000000000000000000000000000000000000000 PUSH0 DUP3 ADD MSTORE POP JUMP JUMPDEST PUSH0 PUSH2 0x726 PUSH1 0x9 DUP4 PUSH2 0x5EA JUMP JUMPDEST SWAP2 POP PUSH2 0x731 DUP3 PUSH2 0x6F2 JUMP JUMPDEST PUSH1 0x20 DUP3 ADD SWAP1 POP SWAP2 SWAP1 POP JUMP JUMPDEST PUSH0 PUSH1 0x20 DUP3 ADD SWAP1 POP DUP2 DUP2 SUB PUSH0 DUP4 ADD MSTORE PUSH2 0x753 DUP2 PUSH2 0x71A JUMP JUMPDEST SWAP1 POP SWAP2 SWAP1 POP JUMP JUMPDEST PUSH32 0x4E487B7100000000000000000000000000000000000000000000000000000000 PUSH0 MSTORE PUSH1 0x11 PUSH1 0x4 MSTORE PUSH1 0x24 PUSH0 REVERT JUMPDEST PUSH0 PUSH2 0x791 DUP3 PUSH2 0x681 JUMP JUMPDEST SWAP2 POP PUSH2 0x79C DUP4 PUSH2 0x681 JUMP JUMPDEST SWAP3 POP DUP3 DUP3 MUL PUSH2 0x7AA DUP2 PUSH2 0x681 JUMP JUMPDEST SWAP2 POP DUP3 DUP3 DIV DUP5 EQ DUP4 ISZERO OR PUSH2 0x7C1 JUMPI PUSH2 0x7C0 PUSH2 0x75A JUMP JUMPDEST JUMPDEST POP SWAP3 SWAP2 POP POP JUMP JUMPDEST PUSH0 DUP2 MLOAD SWAP1 POP SWAP2 SWAP1 POP JUMP JUMPDEST PUSH0 DUP2 SWAP1 POP SWAP3 SWAP2 POP POP JUMP JUMPDEST PUSH0 PUSH2 0x7E6 DUP3 PUSH2 0x7C8 JUMP JUMPDEST PUSH2 0x7F0 DUP2 DUP6 PUSH2 0x7D2 JUMP JUMPDEST SWAP4 POP PUSH2 0x800 DUP2 DUP6 PUSH1 0x20 DUP7 ADD PUSH2 0x5FA JUMP JUMPDEST DUP1 DUP5 ADD SWAP2 POP POP SWAP3 SWAP2 POP POP JUMP JUMPDEST PUSH0 PUSH2 0x817 DUP3 DUP8 PUSH2 0x7DC JUMP JUMPDEST SWAP2 POP PUSH2 0x823 DUP3 DUP7 PUSH2 0x7DC JUMP JUMPDEST SWAP2 POP PUSH2 0x82F DUP3 DUP6 PUSH2 0x7DC JUMP JUMPDEST SWAP2 POP PUSH2 0x83B DUP3 DUP5 PUSH2 0x7DC JUMP JUMPDEST SWAP2 POP DUP2 SWAP1 POP SWAP6 SWAP5 POP POP POP POP POP JUMP JUMPDEST PUSH0 PUSH1 0xFF DUP3 AND SWAP1 POP SWAP2 SWAP1 POP JUMP JUMPDEST PUSH0 DUP2 SWAP1 POP SWAP2 SWAP1 POP JUMP JUMPDEST PUSH0 PUSH2 0x878 PUSH2 0x873 PUSH2 0x86E DUP5 PUSH2 0x849 JUMP JUMPDEST PUSH2 0x855 JUMP JUMPDEST PUSH2 0x681 JUMP JUMPDEST SWAP1 POP SWAP2 SWAP1 POP JUMP JUMPDEST PUSH2 0x888 DUP2 PUSH2 0x85E JUMP JUMPDEST DUP3 MSTORE POP POP JUMP JUMPDEST PUSH0 PUSH1 0x20 DUP3 ADD SWAP1 POP PUSH2 0x8A1 PUSH0 DUP4 ADD DUP5 PUSH2 0x87F JUMP JUMPDEST SWAP3 SWAP2 POP POP JUMP JUMPDEST PUSH0 DUP1 REVERT JUMPDEST PUSH0 DUP1 REVERT JUMPDEST PUSH32 0x4E487B7100000000000000000000000000000000000000000000000000000000 PUSH0 MSTORE PUSH1 0x41 PUSH1 0x4 MSTORE PUSH1 0x24 PUSH0 REVERT JUMPDEST PUSH2 0x8E5 DUP3 PUSH2 0x608 JUMP JUMPDEST DUP2 ADD DUP2 DUP2 LT PUSH8 0xFFFFFFFFFFFFFFFF DUP3 GT OR ISZERO PUSH2 0x904 JUMPI PUSH2 0x903 PUSH2 0x8AF JUMP JUMPDEST JUMPDEST DUP1 PUSH1 0x40 MSTORE POP POP POP JUMP JUMPDEST PUSH0 PUSH2 0x916 PUSH2 0x670 JUMP JUMPDEST SWAP1 POP PUSH2 0x922 DUP3 DUP3 PUSH2 0x8DC JUMP JUMPDEST SWAP2 SWAP1 POP JUMP JUMPDEST PUSH0 PUSH8 0xFFFFFFFFFFFFFFFF DUP3 GT ISZERO PUSH2 0x941 JUMPI PUSH2 0x940 PUSH2 0x8AF JUMP JUMPDEST JUMPDEST PUSH2 0x94A DUP3 PUSH2 0x608 JUMP JUMPDEST SWAP1 POP PUSH1 0x20 DUP2 ADD SWAP1 POP SWAP2 SWAP1 POP JUMP JUMPDEST PUSH0 PUSH2 0x969 PUSH2 0x964 DUP5 PUSH2 0x927 JUMP JUMPDEST PUSH2 0x90D JUMP JUMPDEST SWAP1 POP DUP3 DUP2 MSTORE PUSH1 0x20 DUP2 ADD DUP5 DUP5 DUP5 ADD GT ISZERO PUSH2 0x985 JUMPI PUSH2 0x984 PUSH2 0x8AB JUMP JUMPDEST JUMPDEST PUSH2 0x990 DUP5 DUP3 DUP6 PUSH2 0x5FA JUMP JUMPDEST POP SWAP4 SWAP3 POP POP POP JUMP JUMPDEST PUSH0 DUP3 PUSH1 0x1F DUP4 ADD SLT PUSH2 0x9AC JUMPI PUSH2 0x9AB PUSH2 0x8A7 JUMP JUMPDEST JUMPDEST DUP2 MLOAD PUSH2 0x9BC DUP5 DUP3 PUSH1 0x20 DUP7 ADD PUSH2 0x957 JUMP JUMPDEST SWAP2 POP POP SWAP3 SWAP2 POP POP JUMP JUMPDEST PUSH0 PUSH1 0x20 DUP3 DUP5 SUB SLT ISZERO PUSH2 0x9DA JUMPI PUSH2 0x9D9 PUSH2 0x679 JUMP JUMPDEST JUMPDEST PUSH0 DUP3 ADD MLOAD PUSH8 0xFFFFFFFFFFFFFFFF DUP2 GT ISZERO PUSH2 0x9F7 JUMPI PUSH2 0x9F6 PUSH2 0x67D JUMP JUMPDEST JUMPDEST PUSH2 0xA03 DUP5 DUP3 DUP6 ADD PUSH2 0x998 JUMP JUMPDEST SWAP2 POP POP SWAP3 SWAP2 POP POP JUMP JUMPDEST PUSH0 PUSH2 0xA16 DUP3 PUSH2 0x849 JUMP JUMPDEST SWAP2 POP PUSH2 0xA21 DUP4 PUSH2 0x849 JUMP JUMPDEST SWAP3 POP DUP3 DUP3 SUB SWAP1 POP PUSH1 0xFF DUP2 GT ISZERO PUSH2 0xA3A JUMPI PUSH2 0xA39 PUSH2 0x75A JUMP JUMPDEST JUMPDEST SWAP3 SWAP2 POP POP JUMP JUMPDEST PUSH0 PUSH2 0xA4A DUP3 PUSH2 0x681 JUMP JUMPDEST SWAP2 POP PUSH2 0xA55 DUP4 PUSH2 0x681 JUMP JUMPDEST SWAP3 POP DUP3 DUP3 SUB SWAP1 POP DUP2 DUP2 GT ISZERO PUSH2 0xA6D JUMPI PUSH2 0xA6C PUSH2 0x75A JUMP JUMPDEST JUMPDEST SWAP3 SWAP2 POP POP JUMP JUMPDEST PUSH0 PUSH2 0xA7D DUP3 PUSH2 0x681 JUMP JUMPDEST SWAP2 POP PUSH2 0xA88 DUP4 PUSH2 0x681 JUMP JUMPDEST SWAP3 POP DUP3 DUP3 ADD SWAP1 POP DUP1 DUP3 GT ISZERO PUSH2 0xAA0 JUMPI PUSH2 0xA9F PUSH2 0x75A JUMP JUMPDEST JUMPDEST SWAP3 SWAP2 POP POP JUMP JUMPDEST PUSH0 PUSH2 0xAB1 DUP3 DUP6 PUSH2 0x7DC JUMP JUMPDEST SWAP2 POP PUSH2 0xABD DUP3 DUP5 PUSH2 0x7DC JUMP JUMPDEST SWAP2 POP DUP2 SWAP1 POP SWAP4 SWAP3 POP POP POP JUMP JUMPDEST PUSH32 0x4E487B7100000000000000000000000000000000000000000000000000000000 PUSH0 MSTORE PUSH1 0x12 PUSH1 0x4 MSTORE PUSH1 0x24 PUSH0 REVERT JUMPDEST PUSH0 PUSH2 0xB00 DUP3 PUSH2 0x681 JUMP JUMPDEST SWAP2 POP PUSH2 0xB0B DUP4 PUSH2 0x681 JUMP JUMPDEST SWAP3 POP DUP3 PUSH2 0xB1B JUMPI PUSH2 0xB1A PUSH2 0xAC9 JUMP JUMPDEST JUMPDEST DUP3 DUP3 DIV SWAP1 POP SWAP3 SWAP2 POP POP JUMP JUMPDEST PUSH0 PUSH2 0xB30 DUP3 PUSH2 0x681 JUMP JUMPDEST SWAP2 POP PUSH2 0xB3B DUP4 PUSH2 0x681 JUMP JUMPDEST SWAP3 POP DUP3 PUSH2 0xB4B JUMPI PUSH2 0xB4A PUSH2 0xAC9 JUMP JUMPDEST JUMPDEST DUP3 DUP3 MOD SWAP1 POP SWAP3 SWAP2 POP POP JUMP JUMPDEST PUSH0 PUSH2 0xB60 DUP3 PUSH2 0x849 JUMP JUMPDEST SWAP2 POP PUSH0 DUP3 SUB PUSH2 0xB72 JUMPI PUSH2 0xB71 PUSH2 0x75A JUMP JUMPDEST JUMPDEST PUSH1 0x1 DUP3 SUB SWAP1 POP SWAP2 SWAP1 POP JUMP JUMPDEST PUSH0 DUP2 SWAP1 POP SWAP3 SWAP2 POP POP JUMP JUMPDEST PUSH32 0x2E00000000000000000000000000000000000000000000000000000000000000 PUSH0 DUP3 ADD MSTORE POP JUMP JUMPDEST PUSH0 PUSH2 0xBBB PUSH1 0x1 DUP4 PUSH2 0xB7D JUMP JUMPDEST SWAP2 POP PUSH2 0xBC6 DUP3 PUSH2 0xB87 JUMP JUMPDEST PUSH1 0x1 DUP3 ADD SWAP1 POP SWAP2 SWAP1 POP JUMP JUMPDEST PUSH0 PUSH2 0xBDC DUP3 DUP6 PUSH2 0x7DC JUMP JUMPDEST SWAP2 POP PUSH2 0xBE7 DUP3 PUSH2 0xBAF JUMP JUMPDEST SWAP2 POP PUSH2 0xBF3 DUP3 DUP5 PUSH2 0x7DC JUMP JUMPDEST SWAP2 POP DUP2 SWAP1 POP SWAP4 SWAP3 POP POP POP JUMP JUMPDEST PUSH0 PUSH32 0xFF00000000000000000000000000000000000000000000000000000000000000 DUP3 AND SWAP1 POP SWAP2 SWAP1 POP JUMP JUMPDEST PUSH0 DUP2 SWAP1 POP SWAP2 SWAP1 POP JUMP JUMPDEST PUSH2 0xC44 PUSH2 0xC3F DUP3 PUSH2 0xBFF JUMP JUMPDEST PUSH2 0xC2A JUMP JUMPDEST DUP3 MSTORE POP POP JUMP JUMPDEST PUSH0 PUSH2 0xC55 DUP3 DUP6 PUSH2 0xC33 JUMP JUMPDEST PUSH1 0x1 DUP3 ADD SWAP2 POP PUSH2 0xC65 DUP3 DUP5 PUSH2 0x7DC JUMP JUMPDEST SWAP2 POP DUP2 SWAP1 POP SWAP4 SWAP3 POP POP POP JUMP INVALID LOG2 PUSH5 0x6970667358 0x22 SLT KECCAK256 BLOCKHASH PUSH1 0xE9 SWAP3 TIMESTAMP PUSH21 0x76924838DEDB53553081D67FB9743DFE93DC5FFBF2 SGT EXTCODEHASH SHR 0x24 ADDRESS PUSH5 0x736F6C6343 STOP ADDMOD BYTE STOP CALLER "
		},
		"gasEstimates": {
			"creation": {
				"codeDepositCost": "647800",
				"executionCost": "infinite",
				"totalCost": "infinite"
			},
			"external": {
				"getSVG()": "infinite",
				"getSlice(uint256,uint256)": "infinite"
			},
			"internal": {
				"_angStr(uint256)": "infinite",
				"_uDec(uint256)": "infinite",
				"_uDec(uint256,uint8)": "infinite"
			}
		},
		"methodIdentifiers": {
			"getSVG()": "489187e8",
			"getSlice(uint256,uint256)": "5d239d3e"
		}
	},
	"abi": [
		{
			"inputs": [
				{
					"internalType": "address",
					"name": "storageAddr",
					"type": "address"
				}
			],
			"stateMutability": "nonpayable",
			"type": "constructor"
		},
		{
			"inputs": [],
			"name": "getSVG",
			"outputs": [
				{
					"internalType": "string",
					"name": "",
					"type": "string"
				}
			],
			"stateMutability": "view",
			"type": "function"
		},
		{
			"inputs": [
				{
					"internalType": "uint256",
					"name": "from",
					"type": "uint256"
				},
				{
					"internalType": "uint256",
					"name": "to",
					"type": "uint256"
				}
			],
			"name": "getSlice",
			"outputs": [
				{
					"internalType": "string",
					"name": "",
					"type": "string"
				}
			],
			"stateMutability": "view",
			"type": "function"
		}
	]
}